{"contracts/ColateralContract2.sol":{"ColateralContract2":{"abi":[{"inputs":[],"name":"AmountOutMinimumTooLow","type":"error"},{"inputs":[],"name":"RescueAddressInvalid","type":"error"},{"inputs":[],"name":"WithdrawAddressInvalid","type":"error"},{"anonymous":false,"inputs":[{"indexed":false,"internalType":"address","name":"sender","type":"address"},{"indexed":false,"internalType":"string[5]","name":"_tokenNames","type":"string[5]"},{"indexed":false,"internalType":"address[5]","name":"_tokenAddresses","type":"address[5]"},{"indexed":false,"internalType":"address[3]","name":"_aconcagua","type":"address[3]"},{"indexed":false,"internalType":"address","name":"_rescueWalletAddress","type":"address"},{"indexed":false,"internalType":"address","name":"_withdrawWalletAddress","type":"address"},{"indexed":false,"internalType":"address","name":"_firstLenderLiq","type":"address"},{"indexed":false,"internalType":"address","name":"_secondLenderLiq","type":"address"},{"indexed":false,"internalType":"string[2]","name":"_contractKeys","type":"string[2]"},{"indexed":false,"internalType":"address[2]","name":"_contractAddresses","type":"address[2]"}],"name":"Initialize","type":"event"},{"anonymous":false,"inputs":[{"indexed":false,"internalType":"uint8","name":"version","type":"uint8"}],"name":"Initialized","type":"event"},{"anonymous":false,"inputs":[{"indexed":false,"internalType":"address","name":"tokenIn","type":"address"},{"indexed":false,"internalType":"address","name":"tokenOut","type":"address"},{"indexed":false,"internalType":"uint256","name":"amountIn","type":"uint256"},{"indexed":false,"internalType":"uint256","name":"quotedAmountOut","type":"uint256"}],"name":"Quote","type":"event"},{"anonymous":false,"inputs":[{"indexed":false,"internalType":"address","name":"tokenIn","type":"address"},{"indexed":false,"internalType":"address","name":"tokenOut","type":"address"},{"indexed":false,"internalType":"uint256","name":"amountIn","type":"uint256"},{"indexed":false,"internalType":"string","name":"msg","type":"string"}],"name":"QuoteError","type":"event"},{"anonymous":false,"inputs":[{"indexed":false,"internalType":"address","name":"sender","type":"address"},{"indexed":false,"internalType":"string","name":"token","type":"string"},{"indexed":false,"internalType":"uint256","name":"amount","type":"uint256"},{"indexed":false,"internalType":"address","name":"to","type":"address"}],"name":"Rescue","type":"event"},{"anonymous":false,"inputs":[{"indexed":true,"internalType":"bytes32","name":"role","type":"bytes32"},{"indexed":true,"internalType":"bytes32","name":"previousAdminRole","type":"bytes32"},{"indexed":true,"internalType":"bytes32","name":"newAdminRole","type":"bytes32"}],"name":"RoleAdminChanged","type":"event"},{"anonymous":false,"inputs":[{"indexed":true,"internalType":"bytes32","name":"role","type":"bytes32"},{"indexed":true,"internalType":"address","name":"account","type":"address"},{"indexed":true,"internalType":"address","name":"sender","type":"address"}],"name":"RoleGranted","type":"event"},{"anonymous":false,"inputs":[{"indexed":true,"internalType":"bytes32","name":"role","type":"bytes32"},{"indexed":true,"internalType":"address","name":"account","type":"address"},{"indexed":true,"internalType":"address","name":"sender","type":"address"}],"name":"RoleRevoked","type":"event"},{"anonymous":false,"inputs":[{"indexed":false,"internalType":"address","name":"tokenIn","type":"address"},{"indexed":false,"internalType":"address","name":"tokenOut","type":"address"},{"indexed":false,"internalType":"uint256","name":"amountIn","type":"uint256"},{"indexed":false,"internalType":"uint256","name":"amountOut","type":"uint256"}],"name":"Swap","type":"event"},{"anonymous":false,"inputs":[{"indexed":true,"internalType":"address","name":"tokenIn","type":"address"},{"indexed":true,"internalType":"address","name":"tokenOut","type":"address"},{"indexed":false,"internalType":"uint256","name":"amountIn","type":"uint256"},{"indexed":false,"internalType":"uint256","name":"amountOut","type":"uint256"},{"indexed":false,"internalType":"string","name":"reason","type":"string"}],"name":"SwapError","type":"event"},{"anonymous":false,"inputs":[{"indexed":true,"internalType":"address","name":"tokenIn","type":"address"},{"indexed":true,"internalType":"address","name":"tokenOut","type":"address"},{"indexed":false,"internalType":"uint256","name":"amountIn","type":"uint256"}],"name":"SwapStarted","type":"event"},{"anonymous":false,"inputs":[{"indexed":false,"internalType":"address","name":"sender","type":"address"},{"indexed":false,"internalType":"string","name":"token","type":"string"},{"indexed":false,"internalType":"uint256","name":"amount","type":"uint256"}],"name":"Withdraw","type":"event"},{"inputs":[],"name":"ACONCAGUA_ROLE","outputs":[{"internalType":"bytes32","name":"","type":"bytes32"}],"stateMutability":"view","type":"function"},{"inputs":[],"name":"DEFAULT_ADMIN_ROLE","outputs":[{"internalType":"bytes32","name":"","type":"bytes32"}],"stateMutability":"view","type":"function"},{"inputs":[],"name":"LENDER_LIQ_ROLE","outputs":[{"internalType":"bytes32","name":"","type":"bytes32"}],"stateMutability":"view","type":"function"},{"inputs":[],"name":"RESCUER_ROLE","outputs":[{"internalType":"bytes32","name":"","type":"bytes32"}],"stateMutability":"view","type":"function"},{"inputs":[],"name":"SWAPPER_ROLE","outputs":[{"internalType":"bytes32","name":"","type":"bytes32"}],"stateMutability":"view","type":"function"},{"inputs":[{"internalType":"string","name":"_tokenSymbol","type":"string"}],"name":"balanceOf","outputs":[{"internalType":"uint256","name":"","type":"uint256"}],"stateMutability":"view","type":"function"},{"inputs":[{"internalType":"string","name":"","type":"string"}],"name":"contractAddresses","outputs":[{"internalType":"address","name":"","type":"address"}],"stateMutability":"view","type":"function"},{"inputs":[{"internalType":"uint256","name":"","type":"uint256"}],"name":"contractKeys","outputs":[{"internalType":"string","name":"","type":"string"}],"stateMutability":"view","type":"function"},{"inputs":[],"name":"getBalances","outputs":[{"internalType":"uint256[]","name":"","type":"uint256[]"}],"stateMutability":"view","type":"function"},{"inputs":[{"internalType":"bytes32","name":"role","type":"bytes32"}],"name":"getRoleAdmin","outputs":[{"internalType":"bytes32","name":"","type":"bytes32"}],"stateMutability":"view","type":"function"},{"inputs":[{"internalType":"bytes32","name":"role","type":"bytes32"},{"internalType":"uint256","name":"index","type":"uint256"}],"name":"getRoleMember","outputs":[{"internalType":"address","name":"","type":"address"}],"stateMutability":"view","type":"function"},{"inputs":[{"internalType":"bytes32","name":"role","type":"bytes32"}],"name":"getRoleMemberCount","outputs":[{"internalType":"uint256","name":"","type":"uint256"}],"stateMutability":"view","type":"function"},{"inputs":[],"name":"getTokenNames","outputs":[{"internalType":"string[5]","name":"","type":"string[5]"}],"stateMutability":"view","type":"function"},{"inputs":[{"internalType":"bytes32","name":"role","type":"bytes32"},{"internalType":"address","name":"account","type":"address"}],"name":"grantRole","outputs":[],"stateMutability":"nonpayable","type":"function"},{"inputs":[{"internalType":"bytes32","name":"role","type":"bytes32"},{"internalType":"address","name":"account","type":"address"}],"name":"hasRole","outputs":[{"internalType":"bool","name":"","type":"bool"}],"stateMutability":"view","type":"function"},{"inputs":[{"internalType":"address","name":"_validator","type":"address"},{"internalType":"string[5]","name":"_tokenNames","type":"string[5]"},{"internalType":"address[5]","name":"_tokenAddresses","type":"address[5]"},{"internalType":"address[3]","name":"_aconcagua","type":"address[3]"},{"internalType":"address","name":"_rescueWalletAddress","type":"address"},{"internalType":"address","name":"_withdrawWalletAddress","type":"address"},{"internalType":"address","name":"_firstLenderLiq","type":"address"},{"internalType":"address","name":"_secondLenderLiq","type":"address"},{"internalType":"string[2]","name":"_contractKeys","type":"string[2]"},{"internalType":"address[2]","name":"_contractAddresses","type":"address[2]"}],"name":"initialize","outputs":[],"stateMutability":"nonpayable","type":"function"},{"inputs":[{"internalType":"bytes32","name":"role","type":"bytes32"},{"internalType":"address","name":"account","type":"address"}],"name":"renounceRole","outputs":[],"stateMutability":"nonpayable","type":"function"},{"inputs":[{"internalType":"uint256","name":"_amount","type":"uint256"},{"internalType":"string","name":"_tokenSymbol","type":"string"}],"name":"rescue","outputs":[],"stateMutability":"nonpayable","type":"function"},{"inputs":[],"name":"rescueWalletAddress","outputs":[{"internalType":"address","name":"","type":"address"}],"stateMutability":"view","type":"function"},{"inputs":[{"internalType":"bytes32","name":"role","type":"bytes32"},{"internalType":"address","name":"account","type":"address"}],"name":"revokeRole","outputs":[],"stateMutability":"nonpayable","type":"function"},{"inputs":[{"internalType":"address","name":"_rescueWalletAddress","type":"address"}],"name":"setRescueWalletAddress","outputs":[],"stateMutability":"nonpayable","type":"function"},{"inputs":[{"internalType":"address","name":"_withdrawWalletAddress","type":"address"}],"name":"setWithdrawWalletAddress","outputs":[],"stateMutability":"nonpayable","type":"function"},{"inputs":[],"name":"slippage","outputs":[{"internalType":"uint256","name":"","type":"uint256"}],"stateMutability":"view","type":"function"},{"inputs":[{"internalType":"bytes4","name":"interfaceId","type":"bytes4"}],"name":"supportsInterface","outputs":[{"internalType":"bool","name":"","type":"bool"}],"stateMutability":"view","type":"function"},{"inputs":[{"components":[{"components":[{"internalType":"bytes","name":"path","type":"bytes"},{"internalType":"address","name":"recipient","type":"address"},{"internalType":"uint256","name":"deadline","type":"uint256"},{"internalType":"uint256","name":"amountIn","type":"uint256"},{"internalType":"uint256","name":"amountOutMinimum","type":"uint256"}],"internalType":"struct ISwapRouter.ExactInputParams","name":"params","type":"tuple"},{"internalType":"address","name":"tokenIn","type":"address"},{"internalType":"address","name":"tokenOut","type":"address"}],"internalType":"struct IColateralContract2.SwapParams[]","name":"swapsParams","type":"tuple[]"}],"name":"swapExactInputs","outputs":[],"stateMutability":"nonpayable","type":"function"},{"inputs":[{"internalType":"uint256","name":"","type":"uint256"}],"name":"tokenNames","outputs":[{"internalType":"string","name":"","type":"string"}],"stateMutability":"view","type":"function"},{"inputs":[{"internalType":"string","name":"","type":"string"}],"name":"tokenTable","outputs":[{"internalType":"address","name":"","type":"address"}],"stateMutability":"view","type":"function"},{"inputs":[],"name":"version","outputs":[{"internalType":"string","name":"","type":"string"}],"stateMutability":"pure","type":"function"},{"inputs":[{"internalType":"uint256","name":"_amount","type":"uint256"},{"internalType":"string","name":"_tokenSymbol","type":"string"}],"name":"withdraw","outputs":[],"stateMutability":"nonpayable","type":"function"},{"inputs":[],"name":"withdrawWalletAddress","outputs":[{"internalType":"address","name":"","type":"address"}],"stateMutability":"view","type":"function"},{"stateMutability":"payable","type":"receive"}],"evm":{"bytecode":{"linkReferences":{},"object":"6080604052606260fd5534801561001557600080fd5b5061574380620000266000396000f3fe6080604052600436106101d05760003560e01c806355452d04116100f7578063ca15c87311610095578063de6bd68711610064578063de6bd6871461079e578063df668eca146107db578063e5df800a14610806578063ee67cc2a14610831576102bd565b8063ca15c873146106e6578063d00411c914610723578063d547741f1461074c578063dc048cf214610775576102bd565b80639010d07c116100d15780639010d07c1461061657806391d1485414610653578063a217fddf14610690578063b14ec101146106bb576102bd565b806355452d041461058557806371372544146105c257806382828cbe146105ed576102bd565b80632f2ff15d1161016f57806335ee5f871161013e57806335ee5f87146104c957806336568abe146105065780633e032a3b1461052f57806354fd4d501461055a576102bd565b80632f2ff15d1461040f5780632ffe994214610438578063310495ab1461046157806332cc815d1461049e576102bd565b806315ac7358116101ab57806315ac735814610353578063212f60391461037e578063248a9ca3146103a75780632ad753e4146103e4576102bd565b8062113e08146102c257806301ffc9a7146102ed5780630828c4041461032a576102bd565b366102bd57601e4603610280576101036040516101ec9061315f565b908152602001604051809103902060009054906101000a900473ffffffffffffffffffffffffffffffffffffffff1673ffffffffffffffffffffffffffffffffffffffff1663d0e30db0346040518263ffffffff1660e01b81526004016000604051808303818588803b15801561026257600080fd5b505af1158015610276573d6000803e3d6000fd5b50505050506102bb565b6040517f08c379a00000000000000000000000000000000000000000000000000000000081526004016102b2906131d1565b60405180910390fd5b005b600080fd5b3480156102ce57600080fd5b506102d761086e565b6040516102e491906132b9565b60405180910390f35b3480156102f957600080fd5b50610314600480360381019061030f9190613347565b6109e6565b604051610321919061338f565b60405180910390f35b34801561033657600080fd5b50610351600480360381019061034c919061343b565b610a60565b005b34801561035f57600080fd5b50610368610b78565b60405161037591906134dc565b60405180910390f35b34801561038a57600080fd5b506103a560048036038101906103a09190613523565b610b9f565b005b3480156103b357600080fd5b506103ce60048036038101906103c99190613586565b610c75565b6040516103db91906135c2565b60405180910390f35b3480156103f057600080fd5b506103f9610c95565b6040516104069190613723565b60405180910390f35b34801561041b57600080fd5b5061043660048036038101906104319190613745565b610d62565b005b34801561044457600080fd5b5061045f600480360381019061045a91906137db565b610d83565b005b34801561046d57600080fd5b5061048860048036038101906104839190613828565b611502565b604051610495919061388e565b60405180910390f35b3480156104aa57600080fd5b506104b36115a5565b6040516104c091906135c2565b60405180910390f35b3480156104d557600080fd5b506104f060048036038101906104eb91906139e0565b6115c9565b6040516104fd9190613a38565b60405180910390f35b34801561051257600080fd5b5061052d60048036038101906105289190613745565b611690565b005b34801561053b57600080fd5b50610544611713565b6040516105519190613a38565b60405180910390f35b34801561056657600080fd5b5061056f611719565b60405161057c919061388e565b60405180910390f35b34801561059157600080fd5b506105ac60048036038101906105a791906139e0565b611756565b6040516105b991906134dc565b60405180910390f35b3480156105ce57600080fd5b506105d76117a0565b6040516105e491906135c2565b60405180910390f35b3480156105f957600080fd5b50610614600480360381019061060f9190613afd565b6117c4565b005b34801561062257600080fd5b5061063d60048036038101906106389190613c18565b611f91565b60405161064a91906134dc565b60405180910390f35b34801561065f57600080fd5b5061067a60048036038101906106759190613745565b611fc0565b604051610687919061338f565b60405180910390f35b34801561069c57600080fd5b506106a561202b565b6040516106b291906135c2565b60405180910390f35b3480156106c757600080fd5b506106d0612032565b6040516106dd91906134dc565b60405180910390f35b3480156106f257600080fd5b5061070d60048036038101906107089190613586565b612059565b60405161071a9190613a38565b60405180910390f35b34801561072f57600080fd5b5061074a60048036038101906107459190613523565b61207d565b005b34801561075857600080fd5b50610773600480360381019061076e9190613745565b612153565b005b34801561078157600080fd5b5061079c6004803603810190610797919061343b565b612174565b005b3480156107aa57600080fd5b506107c560048036038101906107c09190613828565b612283565b6040516107d2919061388e565b60405180910390f35b3480156107e757600080fd5b506107f0612327565b6040516107fd91906135c2565b60405180910390f35b34801561081257600080fd5b5061081b61234b565b60405161082891906135c2565b60405180910390f35b34801561083d57600080fd5b50610858600480360381019061085391906139e0565b61236f565b60405161086591906134dc565b60405180910390f35b60606000600160056108809190613c87565b67ffffffffffffffff811115610899576108986138b5565b5b6040519080825280602002602001820160405280156108c75781602001602082028036833780820191505090505b50905047816000815181106108df576108de613cbb565b5b6020026020010181815250506000600190505b600581116109de576109ac60fe60018361090c9190613cea565b6005811061091d5761091c613cbb565b5b01805461092990613d4d565b80601f016020809104026020016040519081016040528092919081815260200182805461095590613d4d565b80156109a25780601f10610977576101008083540402835291602001916109a2565b820191906000526020600020905b81548152906001019060200180831161098557829003601f168201915b50505050506115c9565b8282815181106109bf576109be613cbb565b5b60200260200101818152505080806109d690613d7e565b9150506108f2565b508091505090565b60007f5a05180f000000000000000000000000000000000000000000000000000000007bffffffffffffffffffffffffffffffffffffffffffffffffffffffff1916827bffffffffffffffffffffffffffffffffffffffffffffffffffffffff19161480610a595750610a58826123b9565b5b9050919050565b7fbffb4faf8a508f503a2ca036effd0bc1f82615d3ebfddb934edf718f23672707610a8a81612433565b610a92612447565b610b016101038484604051610aa8929190613deb565b908152602001604051809103902060009054906101000a900473ffffffffffffffffffffffffffffffffffffffff1661010460009054906101000a900473ffffffffffffffffffffffffffffffffffffffff1686612496565b7f22cb89e6358014bb27f5658e2b820189f8f4c9e3f7165ecf266edc53be12d9fa610b2a61251c565b84848761010460009054906101000a900473ffffffffffffffffffffffffffffffffffffffff16604051610b62959493929190613e31565b60405180910390a1610b72612524565b50505050565b61010460009054906101000a900473ffffffffffffffffffffffffffffffffffffffff1681565b7ffaad79a708d82d095486f5a83b18341f12a8f717d3011ab929d43135c1af73e2610bc981612433565b600073ffffffffffffffffffffffffffffffffffffffff168273ffffffffffffffffffffffffffffffffffffffff1603610c2f576040517fd766085d00000000000000000000000000000000000000000000000000000000815260040160405180910390fd5b8161010560006101000a81548173ffffffffffffffffffffffffffffffffffffffff021916908373ffffffffffffffffffffffffffffffffffffffff1602179055505050565b600060656000838152602001908152602001600020600101549050919050565b610c9d6130e1565b60fe600580602002604051908101604052809291906000905b82821015610d59578382018054610ccc90613d4d565b80601f0160208091040260200160405190810160405280929190818152602001828054610cf890613d4d565b8015610d455780601f10610d1a57610100808354040283529160200191610d45565b820191906000526020600020905b815481529060010190602001808311610d2857829003601f168201915b505050505081526020019060010190610cb6565b50505050905090565b610d6b82610c75565b610d7481612433565b610d7e838361252e565b505050565b7fd2761b102bda9831f4af400cc824b8cecb9cc5c1c85c51acb1479db9735fbfc6610dad81612433565b60005b838390508110156114fc5736848483818110610dcf57610dce613cbb565b5b9050602002810190610de19190613e8e565b9050806040016020810190610df69190613523565b73ffffffffffffffffffffffffffffffffffffffff16816020016020810190610e1f9190613523565b73ffffffffffffffffffffffffffffffffffffffff167f02f79e80ece3e0af8a6ecd3cfbba44f8d0f477e3fd3332dd5f406e0c0e6e4aa4838060000190610e669190613eb6565b60600135604051610e779190613a38565b60405180910390a361010a60009054906101000a900473ffffffffffffffffffffffffffffffffffffffff1673ffffffffffffffffffffffffffffffffffffffff1663c4a5849a30836040518363ffffffff1660e01b8152600401610edd9291906140fb565b60006040518083038186803b158015610ef557600080fd5b505afa158015610f09573d6000803e3d6000fd5b505050506000816040016020810190610f229190613523565b73ffffffffffffffffffffffffffffffffffffffff166370a08231306040518263ffffffff1660e01b8152600401610f5a91906134dc565b602060405180830381865afa158015610f77573d6000803e3d6000fd5b505050506040513d601f19601f82011682018060405250810190610f9b9190614140565b9050600080836020016020810190610fb39190613523565b905061101081610109604051610fc8906141b9565b908152602001604051809103902060009054906101000a900473ffffffffffffffffffffffffffffffffffffffff168680600001906110079190613eb6565b60600135612496565b60008060f81b604051602001611026919061421b565b60405160208183030381529060405290506000600167ffffffffffffffff811115611054576110536138b5565b5b60405190808252806020026020018201604052801561108757816020015b60608152602001906001900390816110725790505b50905085806000019061109a9190613eb6565b60200160208101906110ac9190613523565b8680600001906110bc9190613eb6565b606001358780600001906110d09190613eb6565b608001358880600001906110e49190613eb6565b80600001906110f39190614236565b600060405160200161110a969594939291906142d7565b6040516020818303038152906040528160008151811061112d5761112c613cbb565b5b6020026020010181905250610109604051611147906141b9565b908152602001604051809103902060009054906101000a900473ffffffffffffffffffffffffffffffffffffffff1673ffffffffffffffffffffffffffffffffffffffff16633593564c83838980600001906111a39190613eb6565b604001356040518463ffffffff1660e01b81526004016111c593929190614472565b600060405180830381600087803b1580156111df57600080fd5b505af19250505080156111f0575060015b6112d2576111fc6144c4565b806308c379a0036112c157506112106144e6565b8061121b57506112c3565b86604001602081019061122e9190613523565b73ffffffffffffffffffffffffffffffffffffffff168760200160208101906112579190613523565b73ffffffffffffffffffffffffffffffffffffffff167f26205eb01c8bb7fce6c5de8f590381b9d33aac206b0ce1b7ef6557257199370889806000019061129e9190613eb6565b6060013588856040516112b393929190614576565b60405180910390a3506112cd565b505b3d6000803e3d6000fd5b6114e3565b8560400160208101906112e59190613523565b73ffffffffffffffffffffffffffffffffffffffff166370a08231306040518263ffffffff1660e01b815260040161131d91906134dc565b602060405180830381865afa15801561133a573d6000803e3d6000fd5b505050506040513d601f19601f8201168201806040525081019061135e9190614140565b9350606460fd548561137091906145b4565b61137a9190614625565b86806000019061138a9190613eb6565b6080013510611463578560400160208101906113a69190613523565b73ffffffffffffffffffffffffffffffffffffffff168660200160208101906113cf9190613523565b73ffffffffffffffffffffffffffffffffffffffff167f26205eb01c8bb7fce6c5de8f590381b9d33aac206b0ce1b7ef655725719937088880600001906114169190613eb6565b60600135876040516114299291906146a2565b60405180910390a36040517f1792539f00000000000000000000000000000000000000000000000000000000815260040160405180910390fd5b7ffa2dda1cc1b86e41239702756b13effbc1a092b5c57e3ad320fbe4f3b13fe2358660200160208101906114979190613523565b8760400160208101906114aa9190613523565b8880600001906114ba9190613eb6565b6060013588886114ca9190613cea565b6040516114da94939291906146de565b60405180910390a15b50505050505080806114f490613d7e565b915050610db0565b50505050565b60fe816005811061151257600080fd5b01600091509050805461152490613d4d565b80601f016020809104026020016040519081016040528092919081815260200182805461155090613d4d565b801561159d5780601f106115725761010080835404028352916020019161159d565b820191906000526020600020905b81548152906001019060200180831161158057829003601f168201915b505050505081565b7ffd37f88a14d7ed985885a1af8f2ad5b64dd7eb00ab89168649791632bb9bb4a681565b600080610103836040516115dd9190614754565b908152602001604051809103902060009054906101000a900473ffffffffffffffffffffffffffffffffffffffff1690508073ffffffffffffffffffffffffffffffffffffffff166370a08231306040518263ffffffff1660e01b815260040161164791906134dc565b602060405180830381865afa158015611664573d6000803e3d6000fd5b505050506040513d601f19601f820116820180604052508101906116889190614140565b915050919050565b61169861251c565b73ffffffffffffffffffffffffffffffffffffffff168173ffffffffffffffffffffffffffffffffffffffff1614611705576040517f08c379a00000000000000000000000000000000000000000000000000000000081526004016116fc906147dd565b60405180910390fd5b61170f8282612562565b5050565b60fd5481565b60606040518060400160405280600581526020017f322e312e30000000000000000000000000000000000000000000000000000000815250905090565b610103818051602081018201805184825260208301602085012081835280955050505050506000915054906101000a900473ffffffffffffffffffffffffffffffffffffffff1681565b7fbffb4faf8a508f503a2ca036effd0bc1f82615d3ebfddb934edf718f2367270781565b60008060019054906101000a900460ff161590508080156117f55750600160008054906101000a900460ff1660ff16105b80611822575061180430612596565b1580156118215750600160008054906101000a900460ff1660ff16145b5b611861576040517f08c379a00000000000000000000000000000000000000000000000000000000081526004016118589061486f565b60405180910390fd5b60016000806101000a81548160ff021916908360ff160217905550801561189e576001600060016101000a81548160ff0219169083151502179055505b8a61010a60006101000a81548173ffffffffffffffffffffffffffffffffffffffff021916908373ffffffffffffffffffffffffffffffffffffffff16021790555061010a60009054906101000a900473ffffffffffffffffffffffffffffffffffffffff1673ffffffffffffffffffffffffffffffffffffffff16633d255b118b8b8b8b8b8b8b8b8b6040518a63ffffffff1660e01b815260040161194c99989796959493929190614c3e565b60006040518083038186803b15801561196457600080fd5b505afa158015611978573d6000803e3d6000fd5b505050506119846125b9565b61198c61260a565b60005b6005811015611a97578981600581106119ab576119aa613cbb565b5b6020020160208101906119be9190613523565b6101038c83600581106119d4576119d3613cbb565b5b6020028101906119e49190614cde565b6040516119f2929190613deb565b908152602001604051809103902060006101000a81548173ffffffffffffffffffffffffffffffffffffffff021916908373ffffffffffffffffffffffffffffffffffffffff1602179055508a8160058110611a5157611a50613cbb565b5b602002810190611a619190614cde565b60fe8360058110611a7557611a74613cbb565b5b019182611a83929190614ef8565b508080611a8f90613d7e565b91505061198f565b508561010560006101000a81548173ffffffffffffffffffffffffffffffffffffffff021916908373ffffffffffffffffffffffffffffffffffffffff1602179055508661010460006101000a81548173ffffffffffffffffffffffffffffffffffffffff021916908373ffffffffffffffffffffffffffffffffffffffff16021790555060005b6002811015611c1a57838160028110611b3b57611b3a613cbb565b5b602002810190611b4b9190614cde565b6101068360038110611b6057611b5f613cbb565b5b019182611b6e929190614ef8565b50828160028110611b8257611b81613cbb565b5b602002016020810190611b959190613523565b6101096101068360038110611bad57611bac613cbb565b5b01604051611bbb919061504b565b908152602001604051809103902060006101000a81548173ffffffffffffffffffffffffffffffffffffffff021916908373ffffffffffffffffffffffffffffffffffffffff1602179055508080611c1290613d7e565b915050611b1f565b50611c6b7ffaad79a708d82d095486f5a83b18341f12a8f717d3011ab929d43135c1af73e289600060038110611c5357611c52613cbb565b5b602002016020810190611c669190613523565b61252e565b611cbb7ffaad79a708d82d095486f5a83b18341f12a8f717d3011ab929d43135c1af73e289600160038110611ca357611ca2613cbb565b5b602002016020810190611cb69190613523565b61252e565b611d0b7ffaad79a708d82d095486f5a83b18341f12a8f717d3011ab929d43135c1af73e289600260038110611cf357611cf2613cbb565b5b602002016020810190611d069190613523565b61252e565b611d357ffd37f88a14d7ed985885a1af8f2ad5b64dd7eb00ab89168649791632bb9bb4a68661252e565b611d5f7ffd37f88a14d7ed985885a1af8f2ad5b64dd7eb00ab89168649791632bb9bb4a68561252e565b611d897fbffb4faf8a508f503a2ca036effd0bc1f82615d3ebfddb934edf718f236727078661252e565b611db37fbffb4faf8a508f503a2ca036effd0bc1f82615d3ebfddb934edf718f236727078561252e565b611e1a7fd2761b102bda9831f4af400cc824b8cecb9cc5c1c85c51acb1479db9735fbfc6610109604051611de6906150ae565b908152602001604051809103902060009054906101000a900473ffffffffffffffffffffffffffffffffffffffff1661252e565b611e447ffaad79a708d82d095486f5a83b18341f12a8f717d3011ab929d43135c1af73e280612663565b611e6e7ffd37f88a14d7ed985885a1af8f2ad5b64dd7eb00ab89168649791632bb9bb4a680612663565b611e987fbffb4faf8a508f503a2ca036effd0bc1f82615d3ebfddb934edf718f2367270780612663565b611ee27fd2761b102bda9831f4af400cc824b8cecb9cc5c1c85c51acb1479db9735fbfc67ffaad79a708d82d095486f5a83b18341f12a8f717d3011ab929d43135c1af73e2612663565b7f04185272184bedea7de0ea28a815902a29e62119008cf980db82f3af6877c40d338b8b8b8b8b8b8b8b8b604051611f239a999897969594939291906150c3565b60405180910390a18015611f845760008060016101000a81548160ff0219169083151502179055507f7f26b83ff96e1f2b6a682f133852f6798a09c465da95921460cefb38474024986001604051611f7b91906151b9565b60405180910390a15b5050505050505050505050565b6000611fb882609760008681526020019081526020016000206126bf90919063ffffffff16565b905092915050565b60006065600084815260200190815260200160002060000160008373ffffffffffffffffffffffffffffffffffffffff1673ffffffffffffffffffffffffffffffffffffffff16815260200190815260200160002060009054906101000a900460ff16905092915050565b6000801b81565b61010560009054906101000a900473ffffffffffffffffffffffffffffffffffffffff1681565b6000612076609760008481526020019081526020016000206126d9565b9050919050565b7ffaad79a708d82d095486f5a83b18341f12a8f717d3011ab929d43135c1af73e26120a781612433565b600073ffffffffffffffffffffffffffffffffffffffff168273ffffffffffffffffffffffffffffffffffffffff160361210d576040517fdf51a0d100000000000000000000000000000000000000000000000000000000815260040160405180910390fd5b8161010460006101000a81548173ffffffffffffffffffffffffffffffffffffffff021916908373ffffffffffffffffffffffffffffffffffffffff1602179055505050565b61215c82610c75565b61216581612433565b61216f8383612562565b505050565b7ffd37f88a14d7ed985885a1af8f2ad5b64dd7eb00ab89168649791632bb9bb4a661219e81612433565b6121a6612447565b61221561010384846040516121bc929190613deb565b908152602001604051809103902060009054906101000a900473ffffffffffffffffffffffffffffffffffffffff1661010560009054906101000a900473ffffffffffffffffffffffffffffffffffffffff1686612496565b7f901c03da5d88eb3d62ab4617e7b7d17d86db16356823a7971127d5181a842fef61010560009054906101000a900473ffffffffffffffffffffffffffffffffffffffff1684848760405161226d94939291906151d4565b60405180910390a161227d612524565b50505050565b610106816003811061229457600080fd5b0160009150905080546122a690613d4d565b80601f01602080910402602001604051908101604052809291908181526020018280546122d290613d4d565b801561231f5780601f106122f45761010080835404028352916020019161231f565b820191906000526020600020905b81548152906001019060200180831161230257829003601f168201915b505050505081565b7fd2761b102bda9831f4af400cc824b8cecb9cc5c1c85c51acb1479db9735fbfc681565b7ffaad79a708d82d095486f5a83b18341f12a8f717d3011ab929d43135c1af73e281565b610109818051602081018201805184825260208301602085012081835280955050505050506000915054906101000a900473ffffffffffffffffffffffffffffffffffffffff1681565b60007f7965db0b000000000000000000000000000000000000000000000000000000007bffffffffffffffffffffffffffffffffffffffffffffffffffffffff1916827bffffffffffffffffffffffffffffffffffffffffffffffffffffffff1916148061242c575061242b826126ee565b5b9050919050565b6124448161243f61251c565b612758565b50565b600260c9540361248c576040517f08c379a000000000000000000000000000000000000000000000000000000000815260040161248390615260565b60405180910390fd5b600260c981905550565b6125178363a9059cbb60e01b84846040516024016124b5929190615280565b604051602081830303815290604052907bffffffffffffffffffffffffffffffffffffffffffffffffffffffff19166020820180517bffffffffffffffffffffffffffffffffffffffffffffffffffffffff83818316178352505050506127dd565b505050565b600033905090565b600160c981905550565b61253882826128a5565b61255d816097600085815260200190815260200160002061298690919063ffffffff16565b505050565b61256c82826129b6565b6125918160976000858152602001908152602001600020612a9890919063ffffffff16565b505050565b6000808273ffffffffffffffffffffffffffffffffffffffff163b119050919050565b600060019054906101000a900460ff16612608576040517f08c379a00000000000000000000000000000000000000000000000000000000081526004016125ff9061531b565b60405180910390fd5b565b600060019054906101000a900460ff16612659576040517f08c379a00000000000000000000000000000000000000000000000000000000081526004016126509061531b565b60405180910390fd5b600160c981905550565b600061266e83610c75565b90508160656000858152602001908152602001600020600101819055508181847fbd79b86ffe0ab8e8776151514217cd7cacd52c909f66475c3af44e129f0b00ff60405160405180910390a4505050565b60006126ce8360000183612ac8565b60001c905092915050565b60006126e782600001612af3565b9050919050565b60007f01ffc9a7000000000000000000000000000000000000000000000000000000007bffffffffffffffffffffffffffffffffffffffffffffffffffffffff1916827bffffffffffffffffffffffffffffffffffffffffffffffffffffffff1916149050919050565b6127628282611fc0565b6127d95761276f81612b04565b61277d8360001c6020612b31565b60405160200161278e9291906153d3565b6040516020818303038152906040526040517f08c379a00000000000000000000000000000000000000000000000000000000081526004016127d0919061388e565b60405180910390fd5b5050565b600061283f826040518060400160405280602081526020017f5361666545524332303a206c6f772d6c6576656c2063616c6c206661696c65648152508573ffffffffffffffffffffffffffffffffffffffff16612d6d9092919063ffffffff16565b90506000815114806128615750808060200190518101906128609190615439565b5b6128a0576040517f08c379a0000000000000000000000000000000000000000000000000000000008152600401612897906154d8565b60405180910390fd5b505050565b6128af8282611fc0565b6129825760016065600084815260200190815260200160002060000160008373ffffffffffffffffffffffffffffffffffffffff1673ffffffffffffffffffffffffffffffffffffffff16815260200190815260200160002060006101000a81548160ff02191690831515021790555061292761251c565b73ffffffffffffffffffffffffffffffffffffffff168173ffffffffffffffffffffffffffffffffffffffff16837f2f8788117e7eff1d82e926ec794901d17c78024a50270940304540a733656f0d60405160405180910390a45b5050565b60006129ae836000018373ffffffffffffffffffffffffffffffffffffffff1660001b612d85565b905092915050565b6129c08282611fc0565b15612a945760006065600084815260200190815260200160002060000160008373ffffffffffffffffffffffffffffffffffffffff1673ffffffffffffffffffffffffffffffffffffffff16815260200190815260200160002060006101000a81548160ff021916908315150217905550612a3961251c565b73ffffffffffffffffffffffffffffffffffffffff168173ffffffffffffffffffffffffffffffffffffffff16837ff6391f5c32d9c69d2a47ea670b442974b53935d1edc7fd64eb21e047a839171b60405160405180910390a45b5050565b6000612ac0836000018373ffffffffffffffffffffffffffffffffffffffff1660001b612df5565b905092915050565b6000826000018281548110612ae057612adf613cbb565b5b9060005260206000200154905092915050565b600081600001805490509050919050565b6060612b2a8273ffffffffffffffffffffffffffffffffffffffff16601460ff16612b31565b9050919050565b606060006002836002612b4491906145b4565b612b4e9190613c87565b67ffffffffffffffff811115612b6757612b666138b5565b5b6040519080825280601f01601f191660200182016040528015612b995781602001600182028036833780820191505090505b5090507f300000000000000000000000000000000000000000000000000000000000000081600081518110612bd157612bd0613cbb565b5b60200101907effffffffffffffffffffffffffffffffffffffffffffffffffffffffffffff1916908160001a9053507f780000000000000000000000000000000000000000000000000000000000000081600181518110612c3557612c34613cbb565b5b60200101907effffffffffffffffffffffffffffffffffffffffffffffffffffffffffffff1916908160001a90535060006001846002612c7591906145b4565b612c7f9190613c87565b90505b6001811115612d1f577f3031323334353637383961626364656600000000000000000000000000000000600f861660108110612cc157612cc0613cbb565b5b1a60f81b828281518110612cd857612cd7613cbb565b5b60200101907effffffffffffffffffffffffffffffffffffffffffffffffffffffffffffff1916908160001a905350600485901c945080612d18906154f8565b9050612c82565b5060008414612d63576040517f08c379a0000000000000000000000000000000000000000000000000000000008152600401612d5a9061556d565b60405180910390fd5b8091505092915050565b6060612d7c8484600085612f09565b90509392505050565b6000612d918383612fd6565b612dea578260000182908060018154018082558091505060019003906000526020600020016000909190919091505582600001805490508360010160008481526020019081526020016000208190555060019050612def565b600090505b92915050565b60008083600101600084815260200190815260200160002054905060008114612efd576000600182612e279190613cea565b9050600060018660000180549050612e3f9190613cea565b9050818114612eae576000866000018281548110612e6057612e5f613cbb565b5b9060005260206000200154905080876000018481548110612e8457612e83613cbb565b5b90600052602060002001819055508387600101600083815260200190815260200160002081905550505b85600001805480612ec257612ec161558d565b5b600190038181906000526020600020016000905590558560010160008681526020019081526020016000206000905560019350505050612f03565b60009150505b92915050565b606082471015612f4e576040517f08c379a0000000000000000000000000000000000000000000000000000000008152600401612f459061562e565b60405180910390fd5b6000808673ffffffffffffffffffffffffffffffffffffffff168587604051612f77919061568a565b60006040518083038185875af1925050503d8060008114612fb4576040519150601f19603f3d011682016040523d82523d6000602084013e612fb9565b606091505b5091509150612fca87838387612ff9565b92505050949350505050565b600080836001016000848152602001908152602001600020541415905092915050565b6060831561305b576000835103613053576130138561306e565b613052576040517f08c379a0000000000000000000000000000000000000000000000000000000008152600401613049906156ed565b60405180910390fd5b5b829050613066565b6130658383613091565b5b949350505050565b6000808273ffffffffffffffffffffffffffffffffffffffff163b119050919050565b6000825111156130a45781518083602001fd5b806040517f08c379a00000000000000000000000000000000000000000000000000000000081526004016130d8919061388e565b60405180910390fd5b6040518060a001604052806005905b60608152602001906001900390816130f05790505090565b600081905092915050565b7f5745544800000000000000000000000000000000000000000000000000000000600082015250565b6000613149600483613108565b915061315482613113565b600482019050919050565b600061316a8261313c565b9150819050919050565b600082825260208201905092915050565b7f4e6f742070617961626c65206f6e207468697320636861696e00000000000000600082015250565b60006131bb601983613174565b91506131c682613185565b602082019050919050565b600060208201905081810360008301526131ea816131ae565b9050919050565b600081519050919050565b600082825260208201905092915050565b6000819050602082019050919050565b6000819050919050565b6132308161321d565b82525050565b60006132428383613227565b60208301905092915050565b6000602082019050919050565b6000613266826131f1565b61327081856131fc565b935061327b8361320d565b8060005b838110156132ac5781516132938882613236565b975061329e8361324e565b92505060018101905061327f565b5085935050505092915050565b600060208201905081810360008301526132d3818461325b565b905092915050565b6000604051905090565b600080fd5b600080fd5b60007fffffffff0000000000000000000000000000000000000000000000000000000082169050919050565b613324816132ef565b811461332f57600080fd5b50565b6000813590506133418161331b565b92915050565b60006020828403121561335d5761335c6132e5565b5b600061336b84828501613332565b91505092915050565b60008115159050919050565b61338981613374565b82525050565b60006020820190506133a46000830184613380565b92915050565b6133b38161321d565b81146133be57600080fd5b50565b6000813590506133d0816133aa565b92915050565b600080fd5b600080fd5b600080fd5b60008083601f8401126133fb576133fa6133d6565b5b8235905067ffffffffffffffff811115613418576134176133db565b5b602083019150836001820283011115613434576134336133e0565b5b9250929050565b600080600060408486031215613454576134536132e5565b5b6000613462868287016133c1565b935050602084013567ffffffffffffffff811115613483576134826132ea565b5b61348f868287016133e5565b92509250509250925092565b600073ffffffffffffffffffffffffffffffffffffffff82169050919050565b60006134c68261349b565b9050919050565b6134d6816134bb565b82525050565b60006020820190506134f160008301846134cd565b92915050565b613500816134bb565b811461350b57600080fd5b50565b60008135905061351d816134f7565b92915050565b600060208284031215613539576135386132e5565b5b60006135478482850161350e565b91505092915050565b6000819050919050565b61356381613550565b811461356e57600080fd5b50565b6000813590506135808161355a565b92915050565b60006020828403121561359c5761359b6132e5565b5b60006135aa84828501613571565b91505092915050565b6135bc81613550565b82525050565b60006020820190506135d760008301846135b3565b92915050565b600060059050919050565b600081905092915050565b6000819050919050565b600081519050919050565b600082825260208201905092915050565b60005b8381101561363757808201518184015260208101905061361c565b60008484015250505050565b6000601f19601f8301169050919050565b600061365f826135fd565b6136698185613608565b9350613679818560208601613619565b61368281613643565b840191505092915050565b60006136998383613654565b905092915050565b6000602082019050919050565b60006136b9826135dd565b6136c381856135e8565b9350836020820285016136d5856135f3565b8060005b8581101561371157848403895281516136f2858261368d565b94506136fd836136a1565b925060208a019950506001810190506136d9565b50829750879550505050505092915050565b6000602082019050818103600083015261373d81846136ae565b905092915050565b6000806040838503121561375c5761375b6132e5565b5b600061376a85828601613571565b925050602061377b8582860161350e565b9150509250929050565b60008083601f84011261379b5761379a6133d6565b5b8235905067ffffffffffffffff8111156137b8576137b76133db565b5b6020830191508360208202830111156137d4576137d36133e0565b5b9250929050565b600080602083850312156137f2576137f16132e5565b5b600083013567ffffffffffffffff8111156138105761380f6132ea565b5b61381c85828601613785565b92509250509250929050565b60006020828403121561383e5761383d6132e5565b5b600061384c848285016133c1565b91505092915050565b6000613860826135fd565b61386a8185613174565b935061387a818560208601613619565b61388381613643565b840191505092915050565b600060208201905081810360008301526138a88184613855565b905092915050565b600080fd5b7f4e487b7100000000000000000000000000000000000000000000000000000000600052604160045260246000fd5b6138ed82613643565b810181811067ffffffffffffffff8211171561390c5761390b6138b5565b5b80604052505050565b600061391f6132db565b905061392b82826138e4565b919050565b600067ffffffffffffffff82111561394b5761394a6138b5565b5b61395482613643565b9050602081019050919050565b82818337600083830152505050565b600061398361397e84613930565b613915565b90508281526020810184848401111561399f5761399e6138b0565b5b6139aa848285613961565b509392505050565b600082601f8301126139c7576139c66133d6565b5b81356139d7848260208601613970565b91505092915050565b6000602082840312156139f6576139f56132e5565b5b600082013567ffffffffffffffff811115613a1457613a136132ea565b5b613a20848285016139b2565b91505092915050565b613a328161321d565b82525050565b6000602082019050613a4d6000830184613a29565b92915050565b600081905082602060050282011115613a6f57613a6e6133e0565b5b92915050565b600081905082602060050282011115613a9157613a906133e0565b5b92915050565b600081905082602060030282011115613ab357613ab26133e0565b5b92915050565b600081905082602060020282011115613ad557613ad46133e0565b5b92915050565b600081905082602060020282011115613af757613af66133e0565b5b92915050565b6000806000806000806000806000806102208b8d031215613b2157613b206132e5565b5b6000613b2f8d828e0161350e565b9a505060208b013567ffffffffffffffff811115613b5057613b4f6132ea565b5b613b5c8d828e01613a53565b9950506040613b6d8d828e01613a75565b98505060e0613b7e8d828e01613a97565b975050610140613b908d828e0161350e565b965050610160613ba28d828e0161350e565b955050610180613bb48d828e0161350e565b9450506101a0613bc68d828e0161350e565b9350506101c08b013567ffffffffffffffff811115613be857613be76132ea565b5b613bf48d828e01613ab9565b9250506101e0613c068d828e01613adb565b9150509295989b9194979a5092959850565b60008060408385031215613c2f57613c2e6132e5565b5b6000613c3d85828601613571565b9250506020613c4e858286016133c1565b9150509250929050565b7f4e487b7100000000000000000000000000000000000000000000000000000000600052601160045260246000fd5b6000613c928261321d565b9150613c9d8361321d565b9250828201905080821115613cb557613cb4613c58565b5b92915050565b7f4e487b7100000000000000000000000000000000000000000000000000000000600052603260045260246000fd5b6000613cf58261321d565b9150613d008361321d565b9250828203905081811115613d1857613d17613c58565b5b92915050565b7f4e487b7100000000000000000000000000000000000000000000000000000000600052602260045260246000fd5b60006002820490506001821680613d6557607f821691505b602082108103613d7857613d77613d1e565b5b50919050565b6000613d898261321d565b91507fffffffffffffffffffffffffffffffffffffffffffffffffffffffffffffffff8203613dbb57613dba613c58565b5b600182019050919050565b6000613dd28385613108565b9350613ddf838584613961565b82840190509392505050565b6000613df8828486613dc6565b91508190509392505050565b6000613e108385613174565b9350613e1d838584613961565b613e2683613643565b840190509392505050565b6000608082019050613e4660008301886134cd565b8181036020830152613e59818688613e04565b9050613e686040830185613a29565b613e7560608301846134cd565b9695505050505050565b600080fd5b600080fd5b600080fd5b600082356001606003833603038112613eaa57613ea9613e7f565b5b80830191505092915050565b60008235600160a003833603038112613ed257613ed1613e7f565b5b80830191505092915050565b600080fd5b60008235600160a003833603038112613eff57613efe613ede565b5b82810191505092915050565b600080fd5b600080fd5b60008083356001602003843603038112613f3257613f31613ede565b5b83810192508235915060208301925067ffffffffffffffff821115613f5a57613f59613f0b565b5b600182023603831315613f7057613f6f613f10565b5b509250929050565b600082825260208201905092915050565b6000613f958385613f78565b9350613fa2838584613961565b613fab83613643565b840190509392505050565b6000613fc5602084018461350e565b905092915050565b613fd6816134bb565b82525050565b6000613feb60208401846133c1565b905092915050565b600060a083016140066000840184613f15565b8583036000870152614019838284613f89565b9250505061402a6020840184613fb6565b6140376020860182613fcd565b506140456040840184613fdc565b6140526040860182613227565b506140606060840184613fdc565b61406d6060860182613227565b5061407b6080840184613fdc565b6140886080860182613227565b508091505092915050565b6000606083016140a66000840184613ee3565b84820360008601526140b88282613ff3565b9150506140c86020840184613fb6565b6140d56020860182613fcd565b506140e36040840184613fb6565b6140f06040860182613fcd565b508091505092915050565b600060408201905061411060008301856134cd565b81810360208301526141228184614093565b90509392505050565b60008151905061413a816133aa565b92915050565b600060208284031215614156576141556132e5565b5b60006141648482850161412b565b91505092915050565b7f726f757465720000000000000000000000000000000000000000000000000000600082015250565b60006141a3600683613108565b91506141ae8261416d565b600682019050919050565b60006141c482614196565b9150819050919050565b60007fff0000000000000000000000000000000000000000000000000000000000000082169050919050565b6000819050919050565b614215614210826141ce565b6141fa565b82525050565b60006142278284614204565b60018201915081905092915050565b6000808335600160200384360303811261425357614252613e7f565b5b80840192508235915067ffffffffffffffff82111561427557614274613e84565b5b60208301925060018202360383131561429157614290613e89565b5b509250929050565b600082825260208201905092915050565b60006142b68385614299565b93506142c3838584613961565b6142cc83613643565b840190509392505050565b600060a0820190506142ec60008301896134cd565b6142f96020830188613a29565b6143066040830187613a29565b81810360608301526143198185876142aa565b90506143286080830184613380565b979650505050505050565b600081519050919050565b600061434982614333565b6143538185614299565b9350614363818560208601613619565b61436c81613643565b840191505092915050565b600081519050919050565b600082825260208201905092915050565b6000819050602082019050919050565b60006143ae82614333565b6143b88185613f78565b93506143c8818560208601613619565b6143d181613643565b840191505092915050565b60006143e883836143a3565b905092915050565b6000602082019050919050565b600061440882614377565b6144128185614382565b93508360208202850161442485614393565b8060005b85811015614460578484038952815161444185826143dc565b945061444c836143f0565b925060208a01995050600181019050614428565b50829750879550505050505092915050565b6000606082019050818103600083015261448c818661433e565b905081810360208301526144a081856143fd565b90506144af6040830184613a29565b949350505050565b60008160e01c9050919050565b600060033d11156144e35760046000803e6144e06000516144b7565b90505b90565b600060443d10614573576144f86132db565b60043d036004823e80513d602482011167ffffffffffffffff82111715614520575050614573565b808201805167ffffffffffffffff81111561453e5750505050614573565b80602083010160043d03850181111561455b575050505050614573565b61456a826020018501866138e4565b82955050505050505b90565b600060608201905061458b6000830186613a29565b6145986020830185613a29565b81810360408301526145aa8184613855565b9050949350505050565b60006145bf8261321d565b91506145ca8361321d565b92508282026145d88161321d565b915082820484148315176145ef576145ee613c58565b5b5092915050565b7f4e487b7100000000000000000000000000000000000000000000000000000000600052601260045260246000fd5b60006146308261321d565b915061463b8361321d565b92508261464b5761464a6145f6565b5b828204905092915050565b7f416d6f756e744f75744d696e696d756d546f6f4c6f7700000000000000000000600082015250565b600061468c601683613174565b915061469782614656565b602082019050919050565b60006060820190506146b76000830185613a29565b6146c46020830184613a29565b81810360408301526146d58161467f565b90509392505050565b60006080820190506146f360008301876134cd565b61470060208301866134cd565b61470d6040830185613a29565b61471a6060830184613a29565b95945050505050565b600061472e826135fd565b6147388185613108565b9350614748818560208601613619565b80840191505092915050565b60006147608284614723565b915081905092915050565b7f416363657373436f6e74726f6c3a2063616e206f6e6c792072656e6f756e636560008201527f20726f6c657320666f722073656c660000000000000000000000000000000000602082015250565b60006147c7602f83613174565b91506147d28261476b565b604082019050919050565b600060208201905081810360008301526147f6816147ba565b9050919050565b7f496e697469616c697a61626c653a20636f6e747261637420697320616c72656160008201527f647920696e697469616c697a6564000000000000000000000000000000000000602082015250565b6000614859602e83613174565b9150614864826147fd565b604082019050919050565b600060208201905081810360008301526148888161484c565b9050919050565b600060059050919050565b6000819050919050565b60006148b08385613608565b93506148bd838584613961565b6148c683613643565b840190509392505050565b60006148de8484846148a4565b90509392505050565b6000808335600160200384360303811261490457614903613ede565b5b83810192508235915060208301925067ffffffffffffffff82111561492c5761492b613f0b565b5b60018202360383131561494257614941613f10565b5b509250929050565b6000602082019050919050565b60006149628261488f565b61496c81856135e8565b93508360208202850161497e8561489a565b8060005b858110156149c457848403895261499982846148e7565b6149a48682846148d1565b95506149af8461494a565b935060208b019a505050600181019050614982565b50829750879550505050505092915050565b600060059050919050565b600081905092915050565b6000819050919050565b6000614a028383613fcd565b60208301905092915050565b6000602082019050919050565b614a24816149d6565b614a2e81846149e1565b9250614a39826149ec565b8060005b83811015614a7257614a4f8284613fb6565b614a5987826149f6565b9650614a6483614a0e565b925050600181019050614a3d565b505050505050565b600060039050919050565b600081905092915050565b6000819050919050565b6000602082019050919050565b614ab081614a7a565b614aba8184614a85565b9250614ac582614a90565b8060005b83811015614afe57614adb8284613fb6565b614ae587826149f6565b9650614af083614a9a565b925050600181019050614ac9565b505050505050565b600060029050919050565b600081905092915050565b6000819050919050565b6000602082019050919050565b6000614b3e82614b06565b614b488185614b11565b935083602082028501614b5a85614b1c565b8060005b85811015614ba0578484038952614b7582846148e7565b614b808682846148d1565b9550614b8b84614b26565b935060208b019a505050600181019050614b5e565b50829750879550505050505092915050565b600060029050919050565b600081905092915050565b6000819050919050565b6000602082019050919050565b614be881614bb2565b614bf28184614bbd565b9250614bfd82614bc8565b8060005b83811015614c3657614c138284613fb6565b614c1d87826149f6565b9650614c2883614bd2565b925050600181019050614c01565b505050505050565b6000610200820190508181036000830152614c59818c614957565b9050614c68602083018b614a1b565b614c7560c083018a614aa7565b614c836101208301896134cd565b614c916101408301886134cd565b614c9f6101608301876134cd565b614cad6101808301866134cd565b8181036101a0830152614cc08185614b33565b9050614cd06101c0830184614bdf565b9a9950505050505050505050565b60008083356001602003843603038112614cfb57614cfa613e7f565b5b80840192508235915067ffffffffffffffff821115614d1d57614d1c613e84565b5b602083019250600182023603831315614d3957614d38613e89565b5b509250929050565b600082905092915050565b60008190508160005260206000209050919050565b60006020601f8301049050919050565b600082821b905092915050565b600060088302614dae7fffffffffffffffffffffffffffffffffffffffffffffffffffffffffffffffff82614d71565b614db88683614d71565b95508019841693508086168417925050509392505050565b6000819050919050565b6000614df5614df0614deb8461321d565b614dd0565b61321d565b9050919050565b6000819050919050565b614e0f83614dda565b614e23614e1b82614dfc565b848454614d7e565b825550505050565b600090565b614e38614e2b565b614e43818484614e06565b505050565b5b81811015614e6757614e5c600082614e30565b600181019050614e49565b5050565b601f821115614eac57614e7d81614d4c565b614e8684614d61565b81016020851015614e95578190505b614ea9614ea185614d61565b830182614e48565b50505b505050565b600082821c905092915050565b6000614ecf60001984600802614eb1565b1980831691505092915050565b6000614ee88383614ebe565b9150826002028217905092915050565b614f028383614d41565b67ffffffffffffffff811115614f1b57614f1a6138b5565b5b614f258254613d4d565b614f30828285614e6b565b6000601f831160018114614f5f5760008415614f4d578287013590505b614f578582614edc565b865550614fbf565b601f198416614f6d86614d4c565b60005b82811015614f9557848901358255600182019150602085019450602081019050614f70565b86831015614fb25784890135614fae601f891682614ebe565b8355505b6001600288020188555050505b50505050505050565b60008154614fd581613d4d565b614fdf8186613108565b94506001821660008114614ffa576001811461500f57615042565b60ff1983168652811515820286019350615042565b61501885614d4c565b60005b8381101561503a5781548189015260018201915060208101905061501b565b838801955050505b50505092915050565b60006150578284614fc8565b915081905092915050565b7f7377617070657200000000000000000000000000000000000000000000000000600082015250565b6000615098600783613108565b91506150a382615062565b600782019050919050565b60006150b98261508b565b9150819050919050565b6000610220820190506150d9600083018d6134cd565b81810360208301526150eb818c614957565b90506150fa604083018b614a1b565b61510760e083018a614aa7565b6151156101408301896134cd565b6151236101608301886134cd565b6151316101808301876134cd565b61513f6101a08301866134cd565b8181036101c08301526151528185614b33565b90506151626101e0830184614bdf565b9b9a5050505050505050505050565b6000819050919050565b600060ff82169050919050565b60006151a361519e61519984615171565b614dd0565b61517b565b9050919050565b6151b381615188565b82525050565b60006020820190506151ce60008301846151aa565b92915050565b60006060820190506151e960008301876134cd565b81810360208301526151fc818587613e04565b905061520b6040830184613a29565b95945050505050565b7f5265656e7472616e637947756172643a207265656e7472616e742063616c6c00600082015250565b600061524a601f83613174565b915061525582615214565b602082019050919050565b600060208201905081810360008301526152798161523d565b9050919050565b600060408201905061529560008301856134cd565b6152a26020830184613a29565b9392505050565b7f496e697469616c697a61626c653a20636f6e7472616374206973206e6f74206960008201527f6e697469616c697a696e67000000000000000000000000000000000000000000602082015250565b6000615305602b83613174565b9150615310826152a9565b604082019050919050565b60006020820190508181036000830152615334816152f8565b9050919050565b7f416363657373436f6e74726f6c3a206163636f756e7420000000000000000000600082015250565b6000615371601783613108565b915061537c8261533b565b601782019050919050565b7f206973206d697373696e6720726f6c6520000000000000000000000000000000600082015250565b60006153bd601183613108565b91506153c882615387565b601182019050919050565b60006153de82615364565b91506153ea8285614723565b91506153f5826153b0565b91506154018284614723565b91508190509392505050565b61541681613374565b811461542157600080fd5b50565b6000815190506154338161540d565b92915050565b60006020828403121561544f5761544e6132e5565b5b600061545d84828501615424565b91505092915050565b7f5361666545524332303a204552433230206f7065726174696f6e20646964206e60008201527f6f74207375636365656400000000000000000000000000000000000000000000602082015250565b60006154c2602a83613174565b91506154cd82615466565b604082019050919050565b600060208201905081810360008301526154f1816154b5565b9050919050565b60006155038261321d565b91506000820361551657615515613c58565b5b600182039050919050565b7f537472696e67733a20686578206c656e67746820696e73756666696369656e74600082015250565b6000615557602083613174565b915061556282615521565b602082019050919050565b600060208201905081810360008301526155868161554a565b9050919050565b7f4e487b7100000000000000000000000000000000000000000000000000000000600052603160045260246000fd5b7f416464726573733a20696e73756666696369656e742062616c616e636520666f60008201527f722063616c6c0000000000000000000000000000000000000000000000000000602082015250565b6000615618602683613174565b9150615623826155bc565b604082019050919050565b600060208201905081810360008301526156478161560b565b9050919050565b600081905092915050565b600061566482614333565b61566e818561564e565b935061567e818560208601613619565b80840191505092915050565b60006156968284615659565b915081905092915050565b7f416464726573733a2063616c6c20746f206e6f6e2d636f6e7472616374000000600082015250565b60006156d7601d83613174565b91506156e2826156a1565b602082019050919050565b60006020820190508181036000830152615706816156ca565b905091905056fea2646970667358221220d667c3095966f29e728d0fd33ab1f4b8012222128339591af48f0f03ee8ee2b464736f6c63430008120033","opcodes":"PUSH1 0x80 PUSH1 0x40 MSTORE PUSH1 0x62 PUSH1 0xFD SSTORE CALLVALUE DUP1 ISZERO PUSH2 0x15 JUMPI PUSH1 0x0 DUP1 REVERT JUMPDEST POP PUSH2 0x5743 DUP1 PUSH3 0x26 PUSH1 0x0 CODECOPY PUSH1 0x0 RETURN INVALID PUSH1 0x80 PUSH1 0x40 MSTORE PUSH1 0x4 CALLDATASIZE LT PUSH2 0x1D0 JUMPI PUSH1 0x0 CALLDATALOAD PUSH1 0xE0 SHR DUP1 PUSH4 0x55452D04 GT PUSH2 0xF7 JUMPI DUP1 PUSH4 0xCA15C873 GT PUSH2 0x95 JUMPI DUP1 PUSH4 0xDE6BD687 GT PUSH2 0x64 JUMPI DUP1 PUSH4 0xDE6BD687 EQ PUSH2 0x79E JUMPI DUP1 PUSH4 0xDF668ECA EQ PUSH2 0x7DB JUMPI DUP1 PUSH4 0xE5DF800A EQ PUSH2 0x806 JUMPI DUP1 PUSH4 0xEE67CC2A EQ PUSH2 0x831 JUMPI PUSH2 0x2BD JUMP JUMPDEST DUP1 PUSH4 0xCA15C873 EQ PUSH2 0x6E6 JUMPI DUP1 PUSH4 0xD00411C9 EQ PUSH2 0x723 JUMPI DUP1 PUSH4 0xD547741F EQ PUSH2 0x74C JUMPI DUP1 PUSH4 0xDC048CF2 EQ PUSH2 0x775 JUMPI PUSH2 0x2BD JUMP JUMPDEST DUP1 PUSH4 0x9010D07C GT PUSH2 0xD1 JUMPI DUP1 PUSH4 0x9010D07C EQ PUSH2 0x616 JUMPI DUP1 PUSH4 0x91D14854 EQ PUSH2 0x653 JUMPI DUP1 PUSH4 0xA217FDDF EQ PUSH2 0x690 JUMPI DUP1 PUSH4 0xB14EC101 EQ PUSH2 0x6BB JUMPI PUSH2 0x2BD JUMP JUMPDEST DUP1 PUSH4 0x55452D04 EQ PUSH2 0x585 JUMPI DUP1 PUSH4 0x71372544 EQ PUSH2 0x5C2 JUMPI DUP1 PUSH4 0x82828CBE EQ PUSH2 0x5ED JUMPI PUSH2 0x2BD JUMP JUMPDEST DUP1 PUSH4 0x2F2FF15D GT PUSH2 0x16F JUMPI DUP1 PUSH4 0x35EE5F87 GT PUSH2 0x13E JUMPI DUP1 PUSH4 0x35EE5F87 EQ PUSH2 0x4C9 JUMPI DUP1 PUSH4 0x36568ABE EQ PUSH2 0x506 JUMPI DUP1 PUSH4 0x3E032A3B EQ PUSH2 0x52F JUMPI DUP1 PUSH4 0x54FD4D50 EQ PUSH2 0x55A JUMPI PUSH2 0x2BD JUMP JUMPDEST DUP1 PUSH4 0x2F2FF15D EQ PUSH2 0x40F JUMPI DUP1 PUSH4 0x2FFE9942 EQ PUSH2 0x438 JUMPI DUP1 PUSH4 0x310495AB EQ PUSH2 0x461 JUMPI DUP1 PUSH4 0x32CC815D EQ PUSH2 0x49E JUMPI PUSH2 0x2BD JUMP JUMPDEST DUP1 PUSH4 0x15AC7358 GT PUSH2 0x1AB JUMPI DUP1 PUSH4 0x15AC7358 EQ PUSH2 0x353 JUMPI DUP1 PUSH4 0x212F6039 EQ PUSH2 0x37E JUMPI DUP1 PUSH4 0x248A9CA3 EQ PUSH2 0x3A7 JUMPI DUP1 PUSH4 0x2AD753E4 EQ PUSH2 0x3E4 JUMPI PUSH2 0x2BD JUMP JUMPDEST DUP1 PUSH3 0x113E08 EQ PUSH2 0x2C2 JUMPI DUP1 PUSH4 0x1FFC9A7 EQ PUSH2 0x2ED JUMPI DUP1 PUSH4 0x828C404 EQ PUSH2 0x32A JUMPI PUSH2 0x2BD JUMP JUMPDEST CALLDATASIZE PUSH2 0x2BD JUMPI PUSH1 0x1E CHAINID SUB PUSH2 0x280 JUMPI PUSH2 0x103 PUSH1 0x40 MLOAD PUSH2 0x1EC SWAP1 PUSH2 0x315F JUMP JUMPDEST SWAP1 DUP2 MSTORE PUSH1 0x20 ADD PUSH1 0x40 MLOAD DUP1 SWAP2 SUB SWAP1 KECCAK256 PUSH1 0x0 SWAP1 SLOAD SWAP1 PUSH2 0x100 EXP SWAP1 DIV PUSH20 0xFFFFFFFFFFFFFFFFFFFFFFFFFFFFFFFFFFFFFFFF AND PUSH20 0xFFFFFFFFFFFFFFFFFFFFFFFFFFFFFFFFFFFFFFFF AND PUSH4 0xD0E30DB0 CALLVALUE PUSH1 0x40 MLOAD DUP3 PUSH4 0xFFFFFFFF AND PUSH1 0xE0 SHL DUP2 MSTORE PUSH1 0x4 ADD PUSH1 0x0 PUSH1 0x40 MLOAD DUP1 DUP4 SUB DUP2 DUP6 DUP9 DUP1 EXTCODESIZE ISZERO DUP1 ISZERO PUSH2 0x262 JUMPI PUSH1 0x0 DUP1 REVERT JUMPDEST POP GAS CALL ISZERO DUP1 ISZERO PUSH2 0x276 JUMPI RETURNDATASIZE PUSH1 0x0 DUP1 RETURNDATACOPY RETURNDATASIZE PUSH1 0x0 REVERT JUMPDEST POP POP POP POP POP PUSH2 0x2BB JUMP JUMPDEST PUSH1 0x40 MLOAD PUSH32 0x8C379A000000000000000000000000000000000000000000000000000000000 DUP2 MSTORE PUSH1 0x4 ADD PUSH2 0x2B2 SWAP1 PUSH2 0x31D1 JUMP JUMPDEST PUSH1 0x40 MLOAD DUP1 SWAP2 SUB SWAP1 REVERT JUMPDEST STOP JUMPDEST PUSH1 0x0 DUP1 REVERT JUMPDEST CALLVALUE DUP1 ISZERO PUSH2 0x2CE JUMPI PUSH1 0x0 DUP1 REVERT JUMPDEST POP PUSH2 0x2D7 PUSH2 0x86E JUMP JUMPDEST PUSH1 0x40 MLOAD PUSH2 0x2E4 SWAP2 SWAP1 PUSH2 0x32B9 JUMP JUMPDEST PUSH1 0x40 MLOAD DUP1 SWAP2 SUB SWAP1 RETURN JUMPDEST CALLVALUE DUP1 ISZERO PUSH2 0x2F9 JUMPI PUSH1 0x0 DUP1 REVERT JUMPDEST POP PUSH2 0x314 PUSH1 0x4 DUP1 CALLDATASIZE SUB DUP2 ADD SWAP1 PUSH2 0x30F SWAP2 SWAP1 PUSH2 0x3347 JUMP JUMPDEST PUSH2 0x9E6 JUMP JUMPDEST PUSH1 0x40 MLOAD PUSH2 0x321 SWAP2 SWAP1 PUSH2 0x338F JUMP JUMPDEST PUSH1 0x40 MLOAD DUP1 SWAP2 SUB SWAP1 RETURN JUMPDEST CALLVALUE DUP1 ISZERO PUSH2 0x336 JUMPI PUSH1 0x0 DUP1 REVERT JUMPDEST POP PUSH2 0x351 PUSH1 0x4 DUP1 CALLDATASIZE SUB DUP2 ADD SWAP1 PUSH2 0x34C SWAP2 SWAP1 PUSH2 0x343B JUMP JUMPDEST PUSH2 0xA60 JUMP JUMPDEST STOP JUMPDEST CALLVALUE DUP1 ISZERO PUSH2 0x35F JUMPI PUSH1 0x0 DUP1 REVERT JUMPDEST POP PUSH2 0x368 PUSH2 0xB78 JUMP JUMPDEST PUSH1 0x40 MLOAD PUSH2 0x375 SWAP2 SWAP1 PUSH2 0x34DC JUMP JUMPDEST PUSH1 0x40 MLOAD DUP1 SWAP2 SUB SWAP1 RETURN JUMPDEST CALLVALUE DUP1 ISZERO PUSH2 0x38A JUMPI PUSH1 0x0 DUP1 REVERT JUMPDEST POP PUSH2 0x3A5 PUSH1 0x4 DUP1 CALLDATASIZE SUB DUP2 ADD SWAP1 PUSH2 0x3A0 SWAP2 SWAP1 PUSH2 0x3523 JUMP JUMPDEST PUSH2 0xB9F JUMP JUMPDEST STOP JUMPDEST CALLVALUE DUP1 ISZERO PUSH2 0x3B3 JUMPI PUSH1 0x0 DUP1 REVERT JUMPDEST POP PUSH2 0x3CE PUSH1 0x4 DUP1 CALLDATASIZE SUB DUP2 ADD SWAP1 PUSH2 0x3C9 SWAP2 SWAP1 PUSH2 0x3586 JUMP JUMPDEST PUSH2 0xC75 JUMP JUMPDEST PUSH1 0x40 MLOAD PUSH2 0x3DB SWAP2 SWAP1 PUSH2 0x35C2 JUMP JUMPDEST PUSH1 0x40 MLOAD DUP1 SWAP2 SUB SWAP1 RETURN JUMPDEST CALLVALUE DUP1 ISZERO PUSH2 0x3F0 JUMPI PUSH1 0x0 DUP1 REVERT JUMPDEST POP PUSH2 0x3F9 PUSH2 0xC95 JUMP JUMPDEST PUSH1 0x40 MLOAD PUSH2 0x406 SWAP2 SWAP1 PUSH2 0x3723 JUMP JUMPDEST PUSH1 0x40 MLOAD DUP1 SWAP2 SUB SWAP1 RETURN JUMPDEST CALLVALUE DUP1 ISZERO PUSH2 0x41B JUMPI PUSH1 0x0 DUP1 REVERT JUMPDEST POP PUSH2 0x436 PUSH1 0x4 DUP1 CALLDATASIZE SUB DUP2 ADD SWAP1 PUSH2 0x431 SWAP2 SWAP1 PUSH2 0x3745 JUMP JUMPDEST PUSH2 0xD62 JUMP JUMPDEST STOP JUMPDEST CALLVALUE DUP1 ISZERO PUSH2 0x444 JUMPI PUSH1 0x0 DUP1 REVERT JUMPDEST POP PUSH2 0x45F PUSH1 0x4 DUP1 CALLDATASIZE SUB DUP2 ADD SWAP1 PUSH2 0x45A SWAP2 SWAP1 PUSH2 0x37DB JUMP JUMPDEST PUSH2 0xD83 JUMP JUMPDEST STOP JUMPDEST CALLVALUE DUP1 ISZERO PUSH2 0x46D JUMPI PUSH1 0x0 DUP1 REVERT JUMPDEST POP PUSH2 0x488 PUSH1 0x4 DUP1 CALLDATASIZE SUB DUP2 ADD SWAP1 PUSH2 0x483 SWAP2 SWAP1 PUSH2 0x3828 JUMP JUMPDEST PUSH2 0x1502 JUMP JUMPDEST PUSH1 0x40 MLOAD PUSH2 0x495 SWAP2 SWAP1 PUSH2 0x388E JUMP JUMPDEST PUSH1 0x40 MLOAD DUP1 SWAP2 SUB SWAP1 RETURN JUMPDEST CALLVALUE DUP1 ISZERO PUSH2 0x4AA JUMPI PUSH1 0x0 DUP1 REVERT JUMPDEST POP PUSH2 0x4B3 PUSH2 0x15A5 JUMP JUMPDEST PUSH1 0x40 MLOAD PUSH2 0x4C0 SWAP2 SWAP1 PUSH2 0x35C2 JUMP JUMPDEST PUSH1 0x40 MLOAD DUP1 SWAP2 SUB SWAP1 RETURN JUMPDEST CALLVALUE DUP1 ISZERO PUSH2 0x4D5 JUMPI PUSH1 0x0 DUP1 REVERT JUMPDEST POP PUSH2 0x4F0 PUSH1 0x4 DUP1 CALLDATASIZE SUB DUP2 ADD SWAP1 PUSH2 0x4EB SWAP2 SWAP1 PUSH2 0x39E0 JUMP JUMPDEST PUSH2 0x15C9 JUMP JUMPDEST PUSH1 0x40 MLOAD PUSH2 0x4FD SWAP2 SWAP1 PUSH2 0x3A38 JUMP JUMPDEST PUSH1 0x40 MLOAD DUP1 SWAP2 SUB SWAP1 RETURN JUMPDEST CALLVALUE DUP1 ISZERO PUSH2 0x512 JUMPI PUSH1 0x0 DUP1 REVERT JUMPDEST POP PUSH2 0x52D PUSH1 0x4 DUP1 CALLDATASIZE SUB DUP2 ADD SWAP1 PUSH2 0x528 SWAP2 SWAP1 PUSH2 0x3745 JUMP JUMPDEST PUSH2 0x1690 JUMP JUMPDEST STOP JUMPDEST CALLVALUE DUP1 ISZERO PUSH2 0x53B JUMPI PUSH1 0x0 DUP1 REVERT JUMPDEST POP PUSH2 0x544 PUSH2 0x1713 JUMP JUMPDEST PUSH1 0x40 MLOAD PUSH2 0x551 SWAP2 SWAP1 PUSH2 0x3A38 JUMP JUMPDEST PUSH1 0x40 MLOAD DUP1 SWAP2 SUB SWAP1 RETURN JUMPDEST CALLVALUE DUP1 ISZERO PUSH2 0x566 JUMPI PUSH1 0x0 DUP1 REVERT JUMPDEST POP PUSH2 0x56F PUSH2 0x1719 JUMP JUMPDEST PUSH1 0x40 MLOAD PUSH2 0x57C SWAP2 SWAP1 PUSH2 0x388E JUMP JUMPDEST PUSH1 0x40 MLOAD DUP1 SWAP2 SUB SWAP1 RETURN JUMPDEST CALLVALUE DUP1 ISZERO PUSH2 0x591 JUMPI PUSH1 0x0 DUP1 REVERT JUMPDEST POP PUSH2 0x5AC PUSH1 0x4 DUP1 CALLDATASIZE SUB DUP2 ADD SWAP1 PUSH2 0x5A7 SWAP2 SWAP1 PUSH2 0x39E0 JUMP JUMPDEST PUSH2 0x1756 JUMP JUMPDEST PUSH1 0x40 MLOAD PUSH2 0x5B9 SWAP2 SWAP1 PUSH2 0x34DC JUMP JUMPDEST PUSH1 0x40 MLOAD DUP1 SWAP2 SUB SWAP1 RETURN JUMPDEST CALLVALUE DUP1 ISZERO PUSH2 0x5CE JUMPI PUSH1 0x0 DUP1 REVERT JUMPDEST POP PUSH2 0x5D7 PUSH2 0x17A0 JUMP JUMPDEST PUSH1 0x40 MLOAD PUSH2 0x5E4 SWAP2 SWAP1 PUSH2 0x35C2 JUMP JUMPDEST PUSH1 0x40 MLOAD DUP1 SWAP2 SUB SWAP1 RETURN JUMPDEST CALLVALUE DUP1 ISZERO PUSH2 0x5F9 JUMPI PUSH1 0x0 DUP1 REVERT JUMPDEST POP PUSH2 0x614 PUSH1 0x4 DUP1 CALLDATASIZE SUB DUP2 ADD SWAP1 PUSH2 0x60F SWAP2 SWAP1 PUSH2 0x3AFD JUMP JUMPDEST PUSH2 0x17C4 JUMP JUMPDEST STOP JUMPDEST CALLVALUE DUP1 ISZERO PUSH2 0x622 JUMPI PUSH1 0x0 DUP1 REVERT JUMPDEST POP PUSH2 0x63D PUSH1 0x4 DUP1 CALLDATASIZE SUB DUP2 ADD SWAP1 PUSH2 0x638 SWAP2 SWAP1 PUSH2 0x3C18 JUMP JUMPDEST PUSH2 0x1F91 JUMP JUMPDEST PUSH1 0x40 MLOAD PUSH2 0x64A SWAP2 SWAP1 PUSH2 0x34DC JUMP JUMPDEST PUSH1 0x40 MLOAD DUP1 SWAP2 SUB SWAP1 RETURN JUMPDEST CALLVALUE DUP1 ISZERO PUSH2 0x65F JUMPI PUSH1 0x0 DUP1 REVERT JUMPDEST POP PUSH2 0x67A PUSH1 0x4 DUP1 CALLDATASIZE SUB DUP2 ADD SWAP1 PUSH2 0x675 SWAP2 SWAP1 PUSH2 0x3745 JUMP JUMPDEST PUSH2 0x1FC0 JUMP JUMPDEST PUSH1 0x40 MLOAD PUSH2 0x687 SWAP2 SWAP1 PUSH2 0x338F JUMP JUMPDEST PUSH1 0x40 MLOAD DUP1 SWAP2 SUB SWAP1 RETURN JUMPDEST CALLVALUE DUP1 ISZERO PUSH2 0x69C JUMPI PUSH1 0x0 DUP1 REVERT JUMPDEST POP PUSH2 0x6A5 PUSH2 0x202B JUMP JUMPDEST PUSH1 0x40 MLOAD PUSH2 0x6B2 SWAP2 SWAP1 PUSH2 0x35C2 JUMP JUMPDEST PUSH1 0x40 MLOAD DUP1 SWAP2 SUB SWAP1 RETURN JUMPDEST CALLVALUE DUP1 ISZERO PUSH2 0x6C7 JUMPI PUSH1 0x0 DUP1 REVERT JUMPDEST POP PUSH2 0x6D0 PUSH2 0x2032 JUMP JUMPDEST PUSH1 0x40 MLOAD PUSH2 0x6DD SWAP2 SWAP1 PUSH2 0x34DC JUMP JUMPDEST PUSH1 0x40 MLOAD DUP1 SWAP2 SUB SWAP1 RETURN JUMPDEST CALLVALUE DUP1 ISZERO PUSH2 0x6F2 JUMPI PUSH1 0x0 DUP1 REVERT JUMPDEST POP PUSH2 0x70D PUSH1 0x4 DUP1 CALLDATASIZE SUB DUP2 ADD SWAP1 PUSH2 0x708 SWAP2 SWAP1 PUSH2 0x3586 JUMP JUMPDEST PUSH2 0x2059 JUMP JUMPDEST PUSH1 0x40 MLOAD PUSH2 0x71A SWAP2 SWAP1 PUSH2 0x3A38 JUMP JUMPDEST PUSH1 0x40 MLOAD DUP1 SWAP2 SUB SWAP1 RETURN JUMPDEST CALLVALUE DUP1 ISZERO PUSH2 0x72F JUMPI PUSH1 0x0 DUP1 REVERT JUMPDEST POP PUSH2 0x74A PUSH1 0x4 DUP1 CALLDATASIZE SUB DUP2 ADD SWAP1 PUSH2 0x745 SWAP2 SWAP1 PUSH2 0x3523 JUMP JUMPDEST PUSH2 0x207D JUMP JUMPDEST STOP JUMPDEST CALLVALUE DUP1 ISZERO PUSH2 0x758 JUMPI PUSH1 0x0 DUP1 REVERT JUMPDEST POP PUSH2 0x773 PUSH1 0x4 DUP1 CALLDATASIZE SUB DUP2 ADD SWAP1 PUSH2 0x76E SWAP2 SWAP1 PUSH2 0x3745 JUMP JUMPDEST PUSH2 0x2153 JUMP JUMPDEST STOP JUMPDEST CALLVALUE DUP1 ISZERO PUSH2 0x781 JUMPI PUSH1 0x0 DUP1 REVERT JUMPDEST POP PUSH2 0x79C PUSH1 0x4 DUP1 CALLDATASIZE SUB DUP2 ADD SWAP1 PUSH2 0x797 SWAP2 SWAP1 PUSH2 0x343B JUMP JUMPDEST PUSH2 0x2174 JUMP JUMPDEST STOP JUMPDEST CALLVALUE DUP1 ISZERO PUSH2 0x7AA JUMPI PUSH1 0x0 DUP1 REVERT JUMPDEST POP PUSH2 0x7C5 PUSH1 0x4 DUP1 CALLDATASIZE SUB DUP2 ADD SWAP1 PUSH2 0x7C0 SWAP2 SWAP1 PUSH2 0x3828 JUMP JUMPDEST PUSH2 0x2283 JUMP JUMPDEST PUSH1 0x40 MLOAD PUSH2 0x7D2 SWAP2 SWAP1 PUSH2 0x388E JUMP JUMPDEST PUSH1 0x40 MLOAD DUP1 SWAP2 SUB SWAP1 RETURN JUMPDEST CALLVALUE DUP1 ISZERO PUSH2 0x7E7 JUMPI PUSH1 0x0 DUP1 REVERT JUMPDEST POP PUSH2 0x7F0 PUSH2 0x2327 JUMP JUMPDEST PUSH1 0x40 MLOAD PUSH2 0x7FD SWAP2 SWAP1 PUSH2 0x35C2 JUMP JUMPDEST PUSH1 0x40 MLOAD DUP1 SWAP2 SUB SWAP1 RETURN JUMPDEST CALLVALUE DUP1 ISZERO PUSH2 0x812 JUMPI PUSH1 0x0 DUP1 REVERT JUMPDEST POP PUSH2 0x81B PUSH2 0x234B JUMP JUMPDEST PUSH1 0x40 MLOAD PUSH2 0x828 SWAP2 SWAP1 PUSH2 0x35C2 JUMP JUMPDEST PUSH1 0x40 MLOAD DUP1 SWAP2 SUB SWAP1 RETURN JUMPDEST CALLVALUE DUP1 ISZERO PUSH2 0x83D JUMPI PUSH1 0x0 DUP1 REVERT JUMPDEST POP PUSH2 0x858 PUSH1 0x4 DUP1 CALLDATASIZE SUB DUP2 ADD SWAP1 PUSH2 0x853 SWAP2 SWAP1 PUSH2 0x39E0 JUMP JUMPDEST PUSH2 0x236F JUMP JUMPDEST PUSH1 0x40 MLOAD PUSH2 0x865 SWAP2 SWAP1 PUSH2 0x34DC JUMP JUMPDEST PUSH1 0x40 MLOAD DUP1 SWAP2 SUB SWAP1 RETURN JUMPDEST PUSH1 0x60 PUSH1 0x0 PUSH1 0x1 PUSH1 0x5 PUSH2 0x880 SWAP2 SWAP1 PUSH2 0x3C87 JUMP JUMPDEST PUSH8 0xFFFFFFFFFFFFFFFF DUP2 GT ISZERO PUSH2 0x899 JUMPI PUSH2 0x898 PUSH2 0x38B5 JUMP JUMPDEST JUMPDEST PUSH1 0x40 MLOAD SWAP1 DUP1 DUP3 MSTORE DUP1 PUSH1 0x20 MUL PUSH1 0x20 ADD DUP3 ADD PUSH1 0x40 MSTORE DUP1 ISZERO PUSH2 0x8C7 JUMPI DUP2 PUSH1 0x20 ADD PUSH1 0x20 DUP3 MUL DUP1 CALLDATASIZE DUP4 CALLDATACOPY DUP1 DUP3 ADD SWAP2 POP POP SWAP1 POP JUMPDEST POP SWAP1 POP SELFBALANCE DUP2 PUSH1 0x0 DUP2 MLOAD DUP2 LT PUSH2 0x8DF JUMPI PUSH2 0x8DE PUSH2 0x3CBB JUMP JUMPDEST JUMPDEST PUSH1 0x20 MUL PUSH1 0x20 ADD ADD DUP2 DUP2 MSTORE POP POP PUSH1 0x0 PUSH1 0x1 SWAP1 POP JUMPDEST PUSH1 0x5 DUP2 GT PUSH2 0x9DE JUMPI PUSH2 0x9AC PUSH1 0xFE PUSH1 0x1 DUP4 PUSH2 0x90C SWAP2 SWAP1 PUSH2 0x3CEA JUMP JUMPDEST PUSH1 0x5 DUP2 LT PUSH2 0x91D JUMPI PUSH2 0x91C PUSH2 0x3CBB JUMP JUMPDEST JUMPDEST ADD DUP1 SLOAD PUSH2 0x929 SWAP1 PUSH2 0x3D4D JUMP JUMPDEST DUP1 PUSH1 0x1F ADD PUSH1 0x20 DUP1 SWAP2 DIV MUL PUSH1 0x20 ADD PUSH1 0x40 MLOAD SWAP1 DUP2 ADD PUSH1 0x40 MSTORE DUP1 SWAP3 SWAP2 SWAP1 DUP2 DUP2 MSTORE PUSH1 0x20 ADD DUP3 DUP1 SLOAD PUSH2 0x955 SWAP1 PUSH2 0x3D4D JUMP JUMPDEST DUP1 ISZERO PUSH2 0x9A2 JUMPI DUP1 PUSH1 0x1F LT PUSH2 0x977 JUMPI PUSH2 0x100 DUP1 DUP4 SLOAD DIV MUL DUP4 MSTORE SWAP2 PUSH1 0x20 ADD SWAP2 PUSH2 0x9A2 JUMP JUMPDEST DUP3 ADD SWAP2 SWAP1 PUSH1 0x0 MSTORE PUSH1 0x20 PUSH1 0x0 KECCAK256 SWAP1 JUMPDEST DUP2 SLOAD DUP2 MSTORE SWAP1 PUSH1 0x1 ADD SWAP1 PUSH1 0x20 ADD DUP1 DUP4 GT PUSH2 0x985 JUMPI DUP3 SWAP1 SUB PUSH1 0x1F AND DUP3 ADD SWAP2 JUMPDEST POP POP POP POP POP PUSH2 0x15C9 JUMP JUMPDEST DUP3 DUP3 DUP2 MLOAD DUP2 LT PUSH2 0x9BF JUMPI PUSH2 0x9BE PUSH2 0x3CBB JUMP JUMPDEST JUMPDEST PUSH1 0x20 MUL PUSH1 0x20 ADD ADD DUP2 DUP2 MSTORE POP POP DUP1 DUP1 PUSH2 0x9D6 SWAP1 PUSH2 0x3D7E JUMP JUMPDEST SWAP2 POP POP PUSH2 0x8F2 JUMP JUMPDEST POP DUP1 SWAP2 POP POP SWAP1 JUMP JUMPDEST PUSH1 0x0 PUSH32 0x5A05180F00000000000000000000000000000000000000000000000000000000 PUSH28 0xFFFFFFFFFFFFFFFFFFFFFFFFFFFFFFFFFFFFFFFFFFFFFFFFFFFFFFFF NOT AND DUP3 PUSH28 0xFFFFFFFFFFFFFFFFFFFFFFFFFFFFFFFFFFFFFFFFFFFFFFFFFFFFFFFF NOT AND EQ DUP1 PUSH2 0xA59 JUMPI POP PUSH2 0xA58 DUP3 PUSH2 0x23B9 JUMP JUMPDEST JUMPDEST SWAP1 POP SWAP2 SWAP1 POP JUMP JUMPDEST PUSH32 0xBFFB4FAF8A508F503A2CA036EFFD0BC1F82615D3EBFDDB934EDF718F23672707 PUSH2 0xA8A DUP2 PUSH2 0x2433 JUMP JUMPDEST PUSH2 0xA92 PUSH2 0x2447 JUMP JUMPDEST PUSH2 0xB01 PUSH2 0x103 DUP5 DUP5 PUSH1 0x40 MLOAD PUSH2 0xAA8 SWAP3 SWAP2 SWAP1 PUSH2 0x3DEB JUMP JUMPDEST SWAP1 DUP2 MSTORE PUSH1 0x20 ADD PUSH1 0x40 MLOAD DUP1 SWAP2 SUB SWAP1 KECCAK256 PUSH1 0x0 SWAP1 SLOAD SWAP1 PUSH2 0x100 EXP SWAP1 DIV PUSH20 0xFFFFFFFFFFFFFFFFFFFFFFFFFFFFFFFFFFFFFFFF AND PUSH2 0x104 PUSH1 0x0 SWAP1 SLOAD SWAP1 PUSH2 0x100 EXP SWAP1 DIV PUSH20 0xFFFFFFFFFFFFFFFFFFFFFFFFFFFFFFFFFFFFFFFF AND DUP7 PUSH2 0x2496 JUMP JUMPDEST PUSH32 0x22CB89E6358014BB27F5658E2B820189F8F4C9E3F7165ECF266EDC53BE12D9FA PUSH2 0xB2A PUSH2 0x251C JUMP JUMPDEST DUP5 DUP5 DUP8 PUSH2 0x104 PUSH1 0x0 SWAP1 SLOAD SWAP1 PUSH2 0x100 EXP SWAP1 DIV PUSH20 0xFFFFFFFFFFFFFFFFFFFFFFFFFFFFFFFFFFFFFFFF AND PUSH1 0x40 MLOAD PUSH2 0xB62 SWAP6 SWAP5 SWAP4 SWAP3 SWAP2 SWAP1 PUSH2 0x3E31 JUMP JUMPDEST PUSH1 0x40 MLOAD DUP1 SWAP2 SUB SWAP1 LOG1 PUSH2 0xB72 PUSH2 0x2524 JUMP JUMPDEST POP POP POP POP JUMP JUMPDEST PUSH2 0x104 PUSH1 0x0 SWAP1 SLOAD SWAP1 PUSH2 0x100 EXP SWAP1 DIV PUSH20 0xFFFFFFFFFFFFFFFFFFFFFFFFFFFFFFFFFFFFFFFF AND DUP2 JUMP JUMPDEST PUSH32 0xFAAD79A708D82D095486F5A83B18341F12A8F717D3011AB929D43135C1AF73E2 PUSH2 0xBC9 DUP2 PUSH2 0x2433 JUMP JUMPDEST PUSH1 0x0 PUSH20 0xFFFFFFFFFFFFFFFFFFFFFFFFFFFFFFFFFFFFFFFF AND DUP3 PUSH20 0xFFFFFFFFFFFFFFFFFFFFFFFFFFFFFFFFFFFFFFFF AND SUB PUSH2 0xC2F JUMPI PUSH1 0x40 MLOAD PUSH32 0xD766085D00000000000000000000000000000000000000000000000000000000 DUP2 MSTORE PUSH1 0x4 ADD PUSH1 0x40 MLOAD DUP1 SWAP2 SUB SWAP1 REVERT JUMPDEST DUP2 PUSH2 0x105 PUSH1 0x0 PUSH2 0x100 EXP DUP2 SLOAD DUP2 PUSH20 0xFFFFFFFFFFFFFFFFFFFFFFFFFFFFFFFFFFFFFFFF MUL NOT AND SWAP1 DUP4 PUSH20 0xFFFFFFFFFFFFFFFFFFFFFFFFFFFFFFFFFFFFFFFF AND MUL OR SWAP1 SSTORE POP POP POP JUMP JUMPDEST PUSH1 0x0 PUSH1 0x65 PUSH1 0x0 DUP4 DUP2 MSTORE PUSH1 0x20 ADD SWAP1 DUP2 MSTORE PUSH1 0x20 ADD PUSH1 0x0 KECCAK256 PUSH1 0x1 ADD SLOAD SWAP1 POP SWAP2 SWAP1 POP JUMP JUMPDEST PUSH2 0xC9D PUSH2 0x30E1 JUMP JUMPDEST PUSH1 0xFE PUSH1 0x5 DUP1 PUSH1 0x20 MUL PUSH1 0x40 MLOAD SWAP1 DUP2 ADD PUSH1 0x40 MSTORE DUP1 SWAP3 SWAP2 SWAP1 PUSH1 0x0 SWAP1 JUMPDEST DUP3 DUP3 LT ISZERO PUSH2 0xD59 JUMPI DUP4 DUP3 ADD DUP1 SLOAD PUSH2 0xCCC SWAP1 PUSH2 0x3D4D JUMP JUMPDEST DUP1 PUSH1 0x1F ADD PUSH1 0x20 DUP1 SWAP2 DIV MUL PUSH1 0x20 ADD PUSH1 0x40 MLOAD SWAP1 DUP2 ADD PUSH1 0x40 MSTORE DUP1 SWAP3 SWAP2 SWAP1 DUP2 DUP2 MSTORE PUSH1 0x20 ADD DUP3 DUP1 SLOAD PUSH2 0xCF8 SWAP1 PUSH2 0x3D4D JUMP JUMPDEST DUP1 ISZERO PUSH2 0xD45 JUMPI DUP1 PUSH1 0x1F LT PUSH2 0xD1A JUMPI PUSH2 0x100 DUP1 DUP4 SLOAD DIV MUL DUP4 MSTORE SWAP2 PUSH1 0x20 ADD SWAP2 PUSH2 0xD45 JUMP JUMPDEST DUP3 ADD SWAP2 SWAP1 PUSH1 0x0 MSTORE PUSH1 0x20 PUSH1 0x0 KECCAK256 SWAP1 JUMPDEST DUP2 SLOAD DUP2 MSTORE SWAP1 PUSH1 0x1 ADD SWAP1 PUSH1 0x20 ADD DUP1 DUP4 GT PUSH2 0xD28 JUMPI DUP3 SWAP1 SUB PUSH1 0x1F AND DUP3 ADD SWAP2 JUMPDEST POP POP POP POP POP DUP2 MSTORE PUSH1 0x20 ADD SWAP1 PUSH1 0x1 ADD SWAP1 PUSH2 0xCB6 JUMP JUMPDEST POP POP POP POP SWAP1 POP SWAP1 JUMP JUMPDEST PUSH2 0xD6B DUP3 PUSH2 0xC75 JUMP JUMPDEST PUSH2 0xD74 DUP2 PUSH2 0x2433 JUMP JUMPDEST PUSH2 0xD7E DUP4 DUP4 PUSH2 0x252E JUMP JUMPDEST POP POP POP JUMP JUMPDEST PUSH32 0xD2761B102BDA9831F4AF400CC824B8CECB9CC5C1C85C51ACB1479DB9735FBFC6 PUSH2 0xDAD DUP2 PUSH2 0x2433 JUMP JUMPDEST PUSH1 0x0 JUMPDEST DUP4 DUP4 SWAP1 POP DUP2 LT ISZERO PUSH2 0x14FC JUMPI CALLDATASIZE DUP5 DUP5 DUP4 DUP2 DUP2 LT PUSH2 0xDCF JUMPI PUSH2 0xDCE PUSH2 0x3CBB JUMP JUMPDEST JUMPDEST SWAP1 POP PUSH1 0x20 MUL DUP2 ADD SWAP1 PUSH2 0xDE1 SWAP2 SWAP1 PUSH2 0x3E8E JUMP JUMPDEST SWAP1 POP DUP1 PUSH1 0x40 ADD PUSH1 0x20 DUP2 ADD SWAP1 PUSH2 0xDF6 SWAP2 SWAP1 PUSH2 0x3523 JUMP JUMPDEST PUSH20 0xFFFFFFFFFFFFFFFFFFFFFFFFFFFFFFFFFFFFFFFF AND DUP2 PUSH1 0x20 ADD PUSH1 0x20 DUP2 ADD SWAP1 PUSH2 0xE1F SWAP2 SWAP1 PUSH2 0x3523 JUMP JUMPDEST PUSH20 0xFFFFFFFFFFFFFFFFFFFFFFFFFFFFFFFFFFFFFFFF AND PUSH32 0x2F79E80ECE3E0AF8A6ECD3CFBBA44F8D0F477E3FD3332DD5F406E0C0E6E4AA4 DUP4 DUP1 PUSH1 0x0 ADD SWAP1 PUSH2 0xE66 SWAP2 SWAP1 PUSH2 0x3EB6 JUMP JUMPDEST PUSH1 0x60 ADD CALLDATALOAD PUSH1 0x40 MLOAD PUSH2 0xE77 SWAP2 SWAP1 PUSH2 0x3A38 JUMP JUMPDEST PUSH1 0x40 MLOAD DUP1 SWAP2 SUB SWAP1 LOG3 PUSH2 0x10A PUSH1 0x0 SWAP1 SLOAD SWAP1 PUSH2 0x100 EXP SWAP1 DIV PUSH20 0xFFFFFFFFFFFFFFFFFFFFFFFFFFFFFFFFFFFFFFFF AND PUSH20 0xFFFFFFFFFFFFFFFFFFFFFFFFFFFFFFFFFFFFFFFF AND PUSH4 0xC4A5849A ADDRESS DUP4 PUSH1 0x40 MLOAD DUP4 PUSH4 0xFFFFFFFF AND PUSH1 0xE0 SHL DUP2 MSTORE PUSH1 0x4 ADD PUSH2 0xEDD SWAP3 SWAP2 SWAP1 PUSH2 0x40FB JUMP JUMPDEST PUSH1 0x0 PUSH1 0x40 MLOAD DUP1 DUP4 SUB DUP2 DUP7 DUP1 EXTCODESIZE ISZERO DUP1 ISZERO PUSH2 0xEF5 JUMPI PUSH1 0x0 DUP1 REVERT JUMPDEST POP GAS STATICCALL ISZERO DUP1 ISZERO PUSH2 0xF09 JUMPI RETURNDATASIZE PUSH1 0x0 DUP1 RETURNDATACOPY RETURNDATASIZE PUSH1 0x0 REVERT JUMPDEST POP POP POP POP PUSH1 0x0 DUP2 PUSH1 0x40 ADD PUSH1 0x20 DUP2 ADD SWAP1 PUSH2 0xF22 SWAP2 SWAP1 PUSH2 0x3523 JUMP JUMPDEST PUSH20 0xFFFFFFFFFFFFFFFFFFFFFFFFFFFFFFFFFFFFFFFF AND PUSH4 0x70A08231 ADDRESS PUSH1 0x40 MLOAD DUP3 PUSH4 0xFFFFFFFF AND PUSH1 0xE0 SHL DUP2 MSTORE PUSH1 0x4 ADD PUSH2 0xF5A SWAP2 SWAP1 PUSH2 0x34DC JUMP JUMPDEST PUSH1 0x20 PUSH1 0x40 MLOAD DUP1 DUP4 SUB DUP2 DUP7 GAS STATICCALL ISZERO DUP1 ISZERO PUSH2 0xF77 JUMPI RETURNDATASIZE PUSH1 0x0 DUP1 RETURNDATACOPY RETURNDATASIZE PUSH1 0x0 REVERT JUMPDEST POP POP POP POP PUSH1 0x40 MLOAD RETURNDATASIZE PUSH1 0x1F NOT PUSH1 0x1F DUP3 ADD AND DUP3 ADD DUP1 PUSH1 0x40 MSTORE POP DUP2 ADD SWAP1 PUSH2 0xF9B SWAP2 SWAP1 PUSH2 0x4140 JUMP JUMPDEST SWAP1 POP PUSH1 0x0 DUP1 DUP4 PUSH1 0x20 ADD PUSH1 0x20 DUP2 ADD SWAP1 PUSH2 0xFB3 SWAP2 SWAP1 PUSH2 0x3523 JUMP JUMPDEST SWAP1 POP PUSH2 0x1010 DUP2 PUSH2 0x109 PUSH1 0x40 MLOAD PUSH2 0xFC8 SWAP1 PUSH2 0x41B9 JUMP JUMPDEST SWAP1 DUP2 MSTORE PUSH1 0x20 ADD PUSH1 0x40 MLOAD DUP1 SWAP2 SUB SWAP1 KECCAK256 PUSH1 0x0 SWAP1 SLOAD SWAP1 PUSH2 0x100 EXP SWAP1 DIV PUSH20 0xFFFFFFFFFFFFFFFFFFFFFFFFFFFFFFFFFFFFFFFF AND DUP7 DUP1 PUSH1 0x0 ADD SWAP1 PUSH2 0x1007 SWAP2 SWAP1 PUSH2 0x3EB6 JUMP JUMPDEST PUSH1 0x60 ADD CALLDATALOAD PUSH2 0x2496 JUMP JUMPDEST PUSH1 0x0 DUP1 PUSH1 0xF8 SHL PUSH1 0x40 MLOAD PUSH1 0x20 ADD PUSH2 0x1026 SWAP2 SWAP1 PUSH2 0x421B JUMP JUMPDEST PUSH1 0x40 MLOAD PUSH1 0x20 DUP2 DUP4 SUB SUB DUP2 MSTORE SWAP1 PUSH1 0x40 MSTORE SWAP1 POP PUSH1 0x0 PUSH1 0x1 PUSH8 0xFFFFFFFFFFFFFFFF DUP2 GT ISZERO PUSH2 0x1054 JUMPI PUSH2 0x1053 PUSH2 0x38B5 JUMP JUMPDEST JUMPDEST PUSH1 0x40 MLOAD SWAP1 DUP1 DUP3 MSTORE DUP1 PUSH1 0x20 MUL PUSH1 0x20 ADD DUP3 ADD PUSH1 0x40 MSTORE DUP1 ISZERO PUSH2 0x1087 JUMPI DUP2 PUSH1 0x20 ADD JUMPDEST PUSH1 0x60 DUP2 MSTORE PUSH1 0x20 ADD SWAP1 PUSH1 0x1 SWAP1 SUB SWAP1 DUP2 PUSH2 0x1072 JUMPI SWAP1 POP JUMPDEST POP SWAP1 POP DUP6 DUP1 PUSH1 0x0 ADD SWAP1 PUSH2 0x109A SWAP2 SWAP1 PUSH2 0x3EB6 JUMP JUMPDEST PUSH1 0x20 ADD PUSH1 0x20 DUP2 ADD SWAP1 PUSH2 0x10AC SWAP2 SWAP1 PUSH2 0x3523 JUMP JUMPDEST DUP7 DUP1 PUSH1 0x0 ADD SWAP1 PUSH2 0x10BC SWAP2 SWAP1 PUSH2 0x3EB6 JUMP JUMPDEST PUSH1 0x60 ADD CALLDATALOAD DUP8 DUP1 PUSH1 0x0 ADD SWAP1 PUSH2 0x10D0 SWAP2 SWAP1 PUSH2 0x3EB6 JUMP JUMPDEST PUSH1 0x80 ADD CALLDATALOAD DUP9 DUP1 PUSH1 0x0 ADD SWAP1 PUSH2 0x10E4 SWAP2 SWAP1 PUSH2 0x3EB6 JUMP JUMPDEST DUP1 PUSH1 0x0 ADD SWAP1 PUSH2 0x10F3 SWAP2 SWAP1 PUSH2 0x4236 JUMP JUMPDEST PUSH1 0x0 PUSH1 0x40 MLOAD PUSH1 0x20 ADD PUSH2 0x110A SWAP7 SWAP6 SWAP5 SWAP4 SWAP3 SWAP2 SWAP1 PUSH2 0x42D7 JUMP JUMPDEST PUSH1 0x40 MLOAD PUSH1 0x20 DUP2 DUP4 SUB SUB DUP2 MSTORE SWAP1 PUSH1 0x40 MSTORE DUP2 PUSH1 0x0 DUP2 MLOAD DUP2 LT PUSH2 0x112D JUMPI PUSH2 0x112C PUSH2 0x3CBB JUMP JUMPDEST JUMPDEST PUSH1 0x20 MUL PUSH1 0x20 ADD ADD DUP2 SWAP1 MSTORE POP PUSH2 0x109 PUSH1 0x40 MLOAD PUSH2 0x1147 SWAP1 PUSH2 0x41B9 JUMP JUMPDEST SWAP1 DUP2 MSTORE PUSH1 0x20 ADD PUSH1 0x40 MLOAD DUP1 SWAP2 SUB SWAP1 KECCAK256 PUSH1 0x0 SWAP1 SLOAD SWAP1 PUSH2 0x100 EXP SWAP1 DIV PUSH20 0xFFFFFFFFFFFFFFFFFFFFFFFFFFFFFFFFFFFFFFFF AND PUSH20 0xFFFFFFFFFFFFFFFFFFFFFFFFFFFFFFFFFFFFFFFF AND PUSH4 0x3593564C DUP4 DUP4 DUP10 DUP1 PUSH1 0x0 ADD SWAP1 PUSH2 0x11A3 SWAP2 SWAP1 PUSH2 0x3EB6 JUMP JUMPDEST PUSH1 0x40 ADD CALLDATALOAD PUSH1 0x40 MLOAD DUP5 PUSH4 0xFFFFFFFF AND PUSH1 0xE0 SHL DUP2 MSTORE PUSH1 0x4 ADD PUSH2 0x11C5 SWAP4 SWAP3 SWAP2 SWAP1 PUSH2 0x4472 JUMP JUMPDEST PUSH1 0x0 PUSH1 0x40 MLOAD DUP1 DUP4 SUB DUP2 PUSH1 0x0 DUP8 DUP1 EXTCODESIZE ISZERO DUP1 ISZERO PUSH2 0x11DF JUMPI PUSH1 0x0 DUP1 REVERT JUMPDEST POP GAS CALL SWAP3 POP POP POP DUP1 ISZERO PUSH2 0x11F0 JUMPI POP PUSH1 0x1 JUMPDEST PUSH2 0x12D2 JUMPI PUSH2 0x11FC PUSH2 0x44C4 JUMP JUMPDEST DUP1 PUSH4 0x8C379A0 SUB PUSH2 0x12C1 JUMPI POP PUSH2 0x1210 PUSH2 0x44E6 JUMP JUMPDEST DUP1 PUSH2 0x121B JUMPI POP PUSH2 0x12C3 JUMP JUMPDEST DUP7 PUSH1 0x40 ADD PUSH1 0x20 DUP2 ADD SWAP1 PUSH2 0x122E SWAP2 SWAP1 PUSH2 0x3523 JUMP JUMPDEST PUSH20 0xFFFFFFFFFFFFFFFFFFFFFFFFFFFFFFFFFFFFFFFF AND DUP8 PUSH1 0x20 ADD PUSH1 0x20 DUP2 ADD SWAP1 PUSH2 0x1257 SWAP2 SWAP1 PUSH2 0x3523 JUMP JUMPDEST PUSH20 0xFFFFFFFFFFFFFFFFFFFFFFFFFFFFFFFFFFFFFFFF AND PUSH32 0x26205EB01C8BB7FCE6C5DE8F590381B9D33AAC206B0CE1B7EF65572571993708 DUP10 DUP1 PUSH1 0x0 ADD SWAP1 PUSH2 0x129E SWAP2 SWAP1 PUSH2 0x3EB6 JUMP JUMPDEST PUSH1 0x60 ADD CALLDATALOAD DUP9 DUP6 PUSH1 0x40 MLOAD PUSH2 0x12B3 SWAP4 SWAP3 SWAP2 SWAP1 PUSH2 0x4576 JUMP JUMPDEST PUSH1 0x40 MLOAD DUP1 SWAP2 SUB SWAP1 LOG3 POP PUSH2 0x12CD JUMP JUMPDEST POP JUMPDEST RETURNDATASIZE PUSH1 0x0 DUP1 RETURNDATACOPY RETURNDATASIZE PUSH1 0x0 REVERT JUMPDEST PUSH2 0x14E3 JUMP JUMPDEST DUP6 PUSH1 0x40 ADD PUSH1 0x20 DUP2 ADD SWAP1 PUSH2 0x12E5 SWAP2 SWAP1 PUSH2 0x3523 JUMP JUMPDEST PUSH20 0xFFFFFFFFFFFFFFFFFFFFFFFFFFFFFFFFFFFFFFFF AND PUSH4 0x70A08231 ADDRESS PUSH1 0x40 MLOAD DUP3 PUSH4 0xFFFFFFFF AND PUSH1 0xE0 SHL DUP2 MSTORE PUSH1 0x4 ADD PUSH2 0x131D SWAP2 SWAP1 PUSH2 0x34DC JUMP JUMPDEST PUSH1 0x20 PUSH1 0x40 MLOAD DUP1 DUP4 SUB DUP2 DUP7 GAS STATICCALL ISZERO DUP1 ISZERO PUSH2 0x133A JUMPI RETURNDATASIZE PUSH1 0x0 DUP1 RETURNDATACOPY RETURNDATASIZE PUSH1 0x0 REVERT JUMPDEST POP POP POP POP PUSH1 0x40 MLOAD RETURNDATASIZE PUSH1 0x1F NOT PUSH1 0x1F DUP3 ADD AND DUP3 ADD DUP1 PUSH1 0x40 MSTORE POP DUP2 ADD SWAP1 PUSH2 0x135E SWAP2 SWAP1 PUSH2 0x4140 JUMP JUMPDEST SWAP4 POP PUSH1 0x64 PUSH1 0xFD SLOAD DUP6 PUSH2 0x1370 SWAP2 SWAP1 PUSH2 0x45B4 JUMP JUMPDEST PUSH2 0x137A SWAP2 SWAP1 PUSH2 0x4625 JUMP JUMPDEST DUP7 DUP1 PUSH1 0x0 ADD SWAP1 PUSH2 0x138A SWAP2 SWAP1 PUSH2 0x3EB6 JUMP JUMPDEST PUSH1 0x80 ADD CALLDATALOAD LT PUSH2 0x1463 JUMPI DUP6 PUSH1 0x40 ADD PUSH1 0x20 DUP2 ADD SWAP1 PUSH2 0x13A6 SWAP2 SWAP1 PUSH2 0x3523 JUMP JUMPDEST PUSH20 0xFFFFFFFFFFFFFFFFFFFFFFFFFFFFFFFFFFFFFFFF AND DUP7 PUSH1 0x20 ADD PUSH1 0x20 DUP2 ADD SWAP1 PUSH2 0x13CF SWAP2 SWAP1 PUSH2 0x3523 JUMP JUMPDEST PUSH20 0xFFFFFFFFFFFFFFFFFFFFFFFFFFFFFFFFFFFFFFFF AND PUSH32 0x26205EB01C8BB7FCE6C5DE8F590381B9D33AAC206B0CE1B7EF65572571993708 DUP9 DUP1 PUSH1 0x0 ADD SWAP1 PUSH2 0x1416 SWAP2 SWAP1 PUSH2 0x3EB6 JUMP JUMPDEST PUSH1 0x60 ADD CALLDATALOAD DUP8 PUSH1 0x40 MLOAD PUSH2 0x1429 SWAP3 SWAP2 SWAP1 PUSH2 0x46A2 JUMP JUMPDEST PUSH1 0x40 MLOAD DUP1 SWAP2 SUB SWAP1 LOG3 PUSH1 0x40 MLOAD PUSH32 0x1792539F00000000000000000000000000000000000000000000000000000000 DUP2 MSTORE PUSH1 0x4 ADD PUSH1 0x40 MLOAD DUP1 SWAP2 SUB SWAP1 REVERT JUMPDEST PUSH32 0xFA2DDA1CC1B86E41239702756B13EFFBC1A092B5C57E3AD320FBE4F3B13FE235 DUP7 PUSH1 0x20 ADD PUSH1 0x20 DUP2 ADD SWAP1 PUSH2 0x1497 SWAP2 SWAP1 PUSH2 0x3523 JUMP JUMPDEST DUP8 PUSH1 0x40 ADD PUSH1 0x20 DUP2 ADD SWAP1 PUSH2 0x14AA SWAP2 SWAP1 PUSH2 0x3523 JUMP JUMPDEST DUP9 DUP1 PUSH1 0x0 ADD SWAP1 PUSH2 0x14BA SWAP2 SWAP1 PUSH2 0x3EB6 JUMP JUMPDEST PUSH1 0x60 ADD CALLDATALOAD DUP9 DUP9 PUSH2 0x14CA SWAP2 SWAP1 PUSH2 0x3CEA JUMP JUMPDEST PUSH1 0x40 MLOAD PUSH2 0x14DA SWAP5 SWAP4 SWAP3 SWAP2 SWAP1 PUSH2 0x46DE JUMP JUMPDEST PUSH1 0x40 MLOAD DUP1 SWAP2 SUB SWAP1 LOG1 JUMPDEST POP POP POP POP POP POP DUP1 DUP1 PUSH2 0x14F4 SWAP1 PUSH2 0x3D7E JUMP JUMPDEST SWAP2 POP POP PUSH2 0xDB0 JUMP JUMPDEST POP POP POP POP JUMP JUMPDEST PUSH1 0xFE DUP2 PUSH1 0x5 DUP2 LT PUSH2 0x1512 JUMPI PUSH1 0x0 DUP1 REVERT JUMPDEST ADD PUSH1 0x0 SWAP2 POP SWAP1 POP DUP1 SLOAD PUSH2 0x1524 SWAP1 PUSH2 0x3D4D JUMP JUMPDEST DUP1 PUSH1 0x1F ADD PUSH1 0x20 DUP1 SWAP2 DIV MUL PUSH1 0x20 ADD PUSH1 0x40 MLOAD SWAP1 DUP2 ADD PUSH1 0x40 MSTORE DUP1 SWAP3 SWAP2 SWAP1 DUP2 DUP2 MSTORE PUSH1 0x20 ADD DUP3 DUP1 SLOAD PUSH2 0x1550 SWAP1 PUSH2 0x3D4D JUMP JUMPDEST DUP1 ISZERO PUSH2 0x159D JUMPI DUP1 PUSH1 0x1F LT PUSH2 0x1572 JUMPI PUSH2 0x100 DUP1 DUP4 SLOAD DIV MUL DUP4 MSTORE SWAP2 PUSH1 0x20 ADD SWAP2 PUSH2 0x159D JUMP JUMPDEST DUP3 ADD SWAP2 SWAP1 PUSH1 0x0 MSTORE PUSH1 0x20 PUSH1 0x0 KECCAK256 SWAP1 JUMPDEST DUP2 SLOAD DUP2 MSTORE SWAP1 PUSH1 0x1 ADD SWAP1 PUSH1 0x20 ADD DUP1 DUP4 GT PUSH2 0x1580 JUMPI DUP3 SWAP1 SUB PUSH1 0x1F AND DUP3 ADD SWAP2 JUMPDEST POP POP POP POP POP DUP2 JUMP JUMPDEST PUSH32 0xFD37F88A14D7ED985885A1AF8F2AD5B64DD7EB00AB89168649791632BB9BB4A6 DUP2 JUMP JUMPDEST PUSH1 0x0 DUP1 PUSH2 0x103 DUP4 PUSH1 0x40 MLOAD PUSH2 0x15DD SWAP2 SWAP1 PUSH2 0x4754 JUMP JUMPDEST SWAP1 DUP2 MSTORE PUSH1 0x20 ADD PUSH1 0x40 MLOAD DUP1 SWAP2 SUB SWAP1 KECCAK256 PUSH1 0x0 SWAP1 SLOAD SWAP1 PUSH2 0x100 EXP SWAP1 DIV PUSH20 0xFFFFFFFFFFFFFFFFFFFFFFFFFFFFFFFFFFFFFFFF AND SWAP1 POP DUP1 PUSH20 0xFFFFFFFFFFFFFFFFFFFFFFFFFFFFFFFFFFFFFFFF AND PUSH4 0x70A08231 ADDRESS PUSH1 0x40 MLOAD DUP3 PUSH4 0xFFFFFFFF AND PUSH1 0xE0 SHL DUP2 MSTORE PUSH1 0x4 ADD PUSH2 0x1647 SWAP2 SWAP1 PUSH2 0x34DC JUMP JUMPDEST PUSH1 0x20 PUSH1 0x40 MLOAD DUP1 DUP4 SUB DUP2 DUP7 GAS STATICCALL ISZERO DUP1 ISZERO PUSH2 0x1664 JUMPI RETURNDATASIZE PUSH1 0x0 DUP1 RETURNDATACOPY RETURNDATASIZE PUSH1 0x0 REVERT JUMPDEST POP POP POP POP PUSH1 0x40 MLOAD RETURNDATASIZE PUSH1 0x1F NOT PUSH1 0x1F DUP3 ADD AND DUP3 ADD DUP1 PUSH1 0x40 MSTORE POP DUP2 ADD SWAP1 PUSH2 0x1688 SWAP2 SWAP1 PUSH2 0x4140 JUMP JUMPDEST SWAP2 POP POP SWAP2 SWAP1 POP JUMP JUMPDEST PUSH2 0x1698 PUSH2 0x251C JUMP JUMPDEST PUSH20 0xFFFFFFFFFFFFFFFFFFFFFFFFFFFFFFFFFFFFFFFF AND DUP2 PUSH20 0xFFFFFFFFFFFFFFFFFFFFFFFFFFFFFFFFFFFFFFFF AND EQ PUSH2 0x1705 JUMPI PUSH1 0x40 MLOAD PUSH32 0x8C379A000000000000000000000000000000000000000000000000000000000 DUP2 MSTORE PUSH1 0x4 ADD PUSH2 0x16FC SWAP1 PUSH2 0x47DD JUMP JUMPDEST PUSH1 0x40 MLOAD DUP1 SWAP2 SUB SWAP1 REVERT JUMPDEST PUSH2 0x170F DUP3 DUP3 PUSH2 0x2562 JUMP JUMPDEST POP POP JUMP JUMPDEST PUSH1 0xFD SLOAD DUP2 JUMP JUMPDEST PUSH1 0x60 PUSH1 0x40 MLOAD DUP1 PUSH1 0x40 ADD PUSH1 0x40 MSTORE DUP1 PUSH1 0x5 DUP2 MSTORE PUSH1 0x20 ADD PUSH32 0x322E312E30000000000000000000000000000000000000000000000000000000 DUP2 MSTORE POP SWAP1 POP SWAP1 JUMP JUMPDEST PUSH2 0x103 DUP2 DUP1 MLOAD PUSH1 0x20 DUP2 ADD DUP3 ADD DUP1 MLOAD DUP5 DUP3 MSTORE PUSH1 0x20 DUP4 ADD PUSH1 0x20 DUP6 ADD KECCAK256 DUP2 DUP4 MSTORE DUP1 SWAP6 POP POP POP POP POP POP PUSH1 0x0 SWAP2 POP SLOAD SWAP1 PUSH2 0x100 EXP SWAP1 DIV PUSH20 0xFFFFFFFFFFFFFFFFFFFFFFFFFFFFFFFFFFFFFFFF AND DUP2 JUMP JUMPDEST PUSH32 0xBFFB4FAF8A508F503A2CA036EFFD0BC1F82615D3EBFDDB934EDF718F23672707 DUP2 JUMP JUMPDEST PUSH1 0x0 DUP1 PUSH1 0x1 SWAP1 SLOAD SWAP1 PUSH2 0x100 EXP SWAP1 DIV PUSH1 0xFF AND ISZERO SWAP1 POP DUP1 DUP1 ISZERO PUSH2 0x17F5 JUMPI POP PUSH1 0x1 PUSH1 0x0 DUP1 SLOAD SWAP1 PUSH2 0x100 EXP SWAP1 DIV PUSH1 0xFF AND PUSH1 0xFF AND LT JUMPDEST DUP1 PUSH2 0x1822 JUMPI POP PUSH2 0x1804 ADDRESS PUSH2 0x2596 JUMP JUMPDEST ISZERO DUP1 ISZERO PUSH2 0x1821 JUMPI POP PUSH1 0x1 PUSH1 0x0 DUP1 SLOAD SWAP1 PUSH2 0x100 EXP SWAP1 DIV PUSH1 0xFF AND PUSH1 0xFF AND EQ JUMPDEST JUMPDEST PUSH2 0x1861 JUMPI PUSH1 0x40 MLOAD PUSH32 0x8C379A000000000000000000000000000000000000000000000000000000000 DUP2 MSTORE PUSH1 0x4 ADD PUSH2 0x1858 SWAP1 PUSH2 0x486F JUMP JUMPDEST PUSH1 0x40 MLOAD DUP1 SWAP2 SUB SWAP1 REVERT JUMPDEST PUSH1 0x1 PUSH1 0x0 DUP1 PUSH2 0x100 EXP DUP2 SLOAD DUP2 PUSH1 0xFF MUL NOT AND SWAP1 DUP4 PUSH1 0xFF AND MUL OR SWAP1 SSTORE POP DUP1 ISZERO PUSH2 0x189E JUMPI PUSH1 0x1 PUSH1 0x0 PUSH1 0x1 PUSH2 0x100 EXP DUP2 SLOAD DUP2 PUSH1 0xFF MUL NOT AND SWAP1 DUP4 ISZERO ISZERO MUL OR SWAP1 SSTORE POP JUMPDEST DUP11 PUSH2 0x10A PUSH1 0x0 PUSH2 0x100 EXP DUP2 SLOAD DUP2 PUSH20 0xFFFFFFFFFFFFFFFFFFFFFFFFFFFFFFFFFFFFFFFF MUL NOT AND SWAP1 DUP4 PUSH20 0xFFFFFFFFFFFFFFFFFFFFFFFFFFFFFFFFFFFFFFFF AND MUL OR SWAP1 SSTORE POP PUSH2 0x10A PUSH1 0x0 SWAP1 SLOAD SWAP1 PUSH2 0x100 EXP SWAP1 DIV PUSH20 0xFFFFFFFFFFFFFFFFFFFFFFFFFFFFFFFFFFFFFFFF AND PUSH20 0xFFFFFFFFFFFFFFFFFFFFFFFFFFFFFFFFFFFFFFFF AND PUSH4 0x3D255B11 DUP12 DUP12 DUP12 DUP12 DUP12 DUP12 DUP12 DUP12 DUP12 PUSH1 0x40 MLOAD DUP11 PUSH4 0xFFFFFFFF AND PUSH1 0xE0 SHL DUP2 MSTORE PUSH1 0x4 ADD PUSH2 0x194C SWAP10 SWAP9 SWAP8 SWAP7 SWAP6 SWAP5 SWAP4 SWAP3 SWAP2 SWAP1 PUSH2 0x4C3E JUMP JUMPDEST PUSH1 0x0 PUSH1 0x40 MLOAD DUP1 DUP4 SUB DUP2 DUP7 DUP1 EXTCODESIZE ISZERO DUP1 ISZERO PUSH2 0x1964 JUMPI PUSH1 0x0 DUP1 REVERT JUMPDEST POP GAS STATICCALL ISZERO DUP1 ISZERO PUSH2 0x1978 JUMPI RETURNDATASIZE PUSH1 0x0 DUP1 RETURNDATACOPY RETURNDATASIZE PUSH1 0x0 REVERT JUMPDEST POP POP POP POP PUSH2 0x1984 PUSH2 0x25B9 JUMP JUMPDEST PUSH2 0x198C PUSH2 0x260A JUMP JUMPDEST PUSH1 0x0 JUMPDEST PUSH1 0x5 DUP2 LT ISZERO PUSH2 0x1A97 JUMPI DUP10 DUP2 PUSH1 0x5 DUP2 LT PUSH2 0x19AB JUMPI PUSH2 0x19AA PUSH2 0x3CBB JUMP JUMPDEST JUMPDEST PUSH1 0x20 MUL ADD PUSH1 0x20 DUP2 ADD SWAP1 PUSH2 0x19BE SWAP2 SWAP1 PUSH2 0x3523 JUMP JUMPDEST PUSH2 0x103 DUP13 DUP4 PUSH1 0x5 DUP2 LT PUSH2 0x19D4 JUMPI PUSH2 0x19D3 PUSH2 0x3CBB JUMP JUMPDEST JUMPDEST PUSH1 0x20 MUL DUP2 ADD SWAP1 PUSH2 0x19E4 SWAP2 SWAP1 PUSH2 0x4CDE JUMP JUMPDEST PUSH1 0x40 MLOAD PUSH2 0x19F2 SWAP3 SWAP2 SWAP1 PUSH2 0x3DEB JUMP JUMPDEST SWAP1 DUP2 MSTORE PUSH1 0x20 ADD PUSH1 0x40 MLOAD DUP1 SWAP2 SUB SWAP1 KECCAK256 PUSH1 0x0 PUSH2 0x100 EXP DUP2 SLOAD DUP2 PUSH20 0xFFFFFFFFFFFFFFFFFFFFFFFFFFFFFFFFFFFFFFFF MUL NOT AND SWAP1 DUP4 PUSH20 0xFFFFFFFFFFFFFFFFFFFFFFFFFFFFFFFFFFFFFFFF AND MUL OR SWAP1 SSTORE POP DUP11 DUP2 PUSH1 0x5 DUP2 LT PUSH2 0x1A51 JUMPI PUSH2 0x1A50 PUSH2 0x3CBB JUMP JUMPDEST JUMPDEST PUSH1 0x20 MUL DUP2 ADD SWAP1 PUSH2 0x1A61 SWAP2 SWAP1 PUSH2 0x4CDE JUMP JUMPDEST PUSH1 0xFE DUP4 PUSH1 0x5 DUP2 LT PUSH2 0x1A75 JUMPI PUSH2 0x1A74 PUSH2 0x3CBB JUMP JUMPDEST JUMPDEST ADD SWAP2 DUP3 PUSH2 0x1A83 SWAP3 SWAP2 SWAP1 PUSH2 0x4EF8 JUMP JUMPDEST POP DUP1 DUP1 PUSH2 0x1A8F SWAP1 PUSH2 0x3D7E JUMP JUMPDEST SWAP2 POP POP PUSH2 0x198F JUMP JUMPDEST POP DUP6 PUSH2 0x105 PUSH1 0x0 PUSH2 0x100 EXP DUP2 SLOAD DUP2 PUSH20 0xFFFFFFFFFFFFFFFFFFFFFFFFFFFFFFFFFFFFFFFF MUL NOT AND SWAP1 DUP4 PUSH20 0xFFFFFFFFFFFFFFFFFFFFFFFFFFFFFFFFFFFFFFFF AND MUL OR SWAP1 SSTORE POP DUP7 PUSH2 0x104 PUSH1 0x0 PUSH2 0x100 EXP DUP2 SLOAD DUP2 PUSH20 0xFFFFFFFFFFFFFFFFFFFFFFFFFFFFFFFFFFFFFFFF MUL NOT AND SWAP1 DUP4 PUSH20 0xFFFFFFFFFFFFFFFFFFFFFFFFFFFFFFFFFFFFFFFF AND MUL OR SWAP1 SSTORE POP PUSH1 0x0 JUMPDEST PUSH1 0x2 DUP2 LT ISZERO PUSH2 0x1C1A JUMPI DUP4 DUP2 PUSH1 0x2 DUP2 LT PUSH2 0x1B3B JUMPI PUSH2 0x1B3A PUSH2 0x3CBB JUMP JUMPDEST JUMPDEST PUSH1 0x20 MUL DUP2 ADD SWAP1 PUSH2 0x1B4B SWAP2 SWAP1 PUSH2 0x4CDE JUMP JUMPDEST PUSH2 0x106 DUP4 PUSH1 0x3 DUP2 LT PUSH2 0x1B60 JUMPI PUSH2 0x1B5F PUSH2 0x3CBB JUMP JUMPDEST JUMPDEST ADD SWAP2 DUP3 PUSH2 0x1B6E SWAP3 SWAP2 SWAP1 PUSH2 0x4EF8 JUMP JUMPDEST POP DUP3 DUP2 PUSH1 0x2 DUP2 LT PUSH2 0x1B82 JUMPI PUSH2 0x1B81 PUSH2 0x3CBB JUMP JUMPDEST JUMPDEST PUSH1 0x20 MUL ADD PUSH1 0x20 DUP2 ADD SWAP1 PUSH2 0x1B95 SWAP2 SWAP1 PUSH2 0x3523 JUMP JUMPDEST PUSH2 0x109 PUSH2 0x106 DUP4 PUSH1 0x3 DUP2 LT PUSH2 0x1BAD JUMPI PUSH2 0x1BAC PUSH2 0x3CBB JUMP JUMPDEST JUMPDEST ADD PUSH1 0x40 MLOAD PUSH2 0x1BBB SWAP2 SWAP1 PUSH2 0x504B JUMP JUMPDEST SWAP1 DUP2 MSTORE PUSH1 0x20 ADD PUSH1 0x40 MLOAD DUP1 SWAP2 SUB SWAP1 KECCAK256 PUSH1 0x0 PUSH2 0x100 EXP DUP2 SLOAD DUP2 PUSH20 0xFFFFFFFFFFFFFFFFFFFFFFFFFFFFFFFFFFFFFFFF MUL NOT AND SWAP1 DUP4 PUSH20 0xFFFFFFFFFFFFFFFFFFFFFFFFFFFFFFFFFFFFFFFF AND MUL OR SWAP1 SSTORE POP DUP1 DUP1 PUSH2 0x1C12 SWAP1 PUSH2 0x3D7E JUMP JUMPDEST SWAP2 POP POP PUSH2 0x1B1F JUMP JUMPDEST POP PUSH2 0x1C6B PUSH32 0xFAAD79A708D82D095486F5A83B18341F12A8F717D3011AB929D43135C1AF73E2 DUP10 PUSH1 0x0 PUSH1 0x3 DUP2 LT PUSH2 0x1C53 JUMPI PUSH2 0x1C52 PUSH2 0x3CBB JUMP JUMPDEST JUMPDEST PUSH1 0x20 MUL ADD PUSH1 0x20 DUP2 ADD SWAP1 PUSH2 0x1C66 SWAP2 SWAP1 PUSH2 0x3523 JUMP JUMPDEST PUSH2 0x252E JUMP JUMPDEST PUSH2 0x1CBB PUSH32 0xFAAD79A708D82D095486F5A83B18341F12A8F717D3011AB929D43135C1AF73E2 DUP10 PUSH1 0x1 PUSH1 0x3 DUP2 LT PUSH2 0x1CA3 JUMPI PUSH2 0x1CA2 PUSH2 0x3CBB JUMP JUMPDEST JUMPDEST PUSH1 0x20 MUL ADD PUSH1 0x20 DUP2 ADD SWAP1 PUSH2 0x1CB6 SWAP2 SWAP1 PUSH2 0x3523 JUMP JUMPDEST PUSH2 0x252E JUMP JUMPDEST PUSH2 0x1D0B PUSH32 0xFAAD79A708D82D095486F5A83B18341F12A8F717D3011AB929D43135C1AF73E2 DUP10 PUSH1 0x2 PUSH1 0x3 DUP2 LT PUSH2 0x1CF3 JUMPI PUSH2 0x1CF2 PUSH2 0x3CBB JUMP JUMPDEST JUMPDEST PUSH1 0x20 MUL ADD PUSH1 0x20 DUP2 ADD SWAP1 PUSH2 0x1D06 SWAP2 SWAP1 PUSH2 0x3523 JUMP JUMPDEST PUSH2 0x252E JUMP JUMPDEST PUSH2 0x1D35 PUSH32 0xFD37F88A14D7ED985885A1AF8F2AD5B64DD7EB00AB89168649791632BB9BB4A6 DUP7 PUSH2 0x252E JUMP JUMPDEST PUSH2 0x1D5F PUSH32 0xFD37F88A14D7ED985885A1AF8F2AD5B64DD7EB00AB89168649791632BB9BB4A6 DUP6 PUSH2 0x252E JUMP JUMPDEST PUSH2 0x1D89 PUSH32 0xBFFB4FAF8A508F503A2CA036EFFD0BC1F82615D3EBFDDB934EDF718F23672707 DUP7 PUSH2 0x252E JUMP JUMPDEST PUSH2 0x1DB3 PUSH32 0xBFFB4FAF8A508F503A2CA036EFFD0BC1F82615D3EBFDDB934EDF718F23672707 DUP6 PUSH2 0x252E JUMP JUMPDEST PUSH2 0x1E1A PUSH32 0xD2761B102BDA9831F4AF400CC824B8CECB9CC5C1C85C51ACB1479DB9735FBFC6 PUSH2 0x109 PUSH1 0x40 MLOAD PUSH2 0x1DE6 SWAP1 PUSH2 0x50AE JUMP JUMPDEST SWAP1 DUP2 MSTORE PUSH1 0x20 ADD PUSH1 0x40 MLOAD DUP1 SWAP2 SUB SWAP1 KECCAK256 PUSH1 0x0 SWAP1 SLOAD SWAP1 PUSH2 0x100 EXP SWAP1 DIV PUSH20 0xFFFFFFFFFFFFFFFFFFFFFFFFFFFFFFFFFFFFFFFF AND PUSH2 0x252E JUMP JUMPDEST PUSH2 0x1E44 PUSH32 0xFAAD79A708D82D095486F5A83B18341F12A8F717D3011AB929D43135C1AF73E2 DUP1 PUSH2 0x2663 JUMP JUMPDEST PUSH2 0x1E6E PUSH32 0xFD37F88A14D7ED985885A1AF8F2AD5B64DD7EB00AB89168649791632BB9BB4A6 DUP1 PUSH2 0x2663 JUMP JUMPDEST PUSH2 0x1E98 PUSH32 0xBFFB4FAF8A508F503A2CA036EFFD0BC1F82615D3EBFDDB934EDF718F23672707 DUP1 PUSH2 0x2663 JUMP JUMPDEST PUSH2 0x1EE2 PUSH32 0xD2761B102BDA9831F4AF400CC824B8CECB9CC5C1C85C51ACB1479DB9735FBFC6 PUSH32 0xFAAD79A708D82D095486F5A83B18341F12A8F717D3011AB929D43135C1AF73E2 PUSH2 0x2663 JUMP JUMPDEST PUSH32 0x4185272184BEDEA7DE0EA28A815902A29E62119008CF980DB82F3AF6877C40D CALLER DUP12 DUP12 DUP12 DUP12 DUP12 DUP12 DUP12 DUP12 DUP12 PUSH1 0x40 MLOAD PUSH2 0x1F23 SWAP11 SWAP10 SWAP9 SWAP8 SWAP7 SWAP6 SWAP5 SWAP4 SWAP3 SWAP2 SWAP1 PUSH2 0x50C3 JUMP JUMPDEST PUSH1 0x40 MLOAD DUP1 SWAP2 SUB SWAP1 LOG1 DUP1 ISZERO PUSH2 0x1F84 JUMPI PUSH1 0x0 DUP1 PUSH1 0x1 PUSH2 0x100 EXP DUP2 SLOAD DUP2 PUSH1 0xFF MUL NOT AND SWAP1 DUP4 ISZERO ISZERO MUL OR SWAP1 SSTORE POP PUSH32 0x7F26B83FF96E1F2B6A682F133852F6798A09C465DA95921460CEFB3847402498 PUSH1 0x1 PUSH1 0x40 MLOAD PUSH2 0x1F7B SWAP2 SWAP1 PUSH2 0x51B9 JUMP JUMPDEST PUSH1 0x40 MLOAD DUP1 SWAP2 SUB SWAP1 LOG1 JUMPDEST POP POP POP POP POP POP POP POP POP POP POP JUMP JUMPDEST PUSH1 0x0 PUSH2 0x1FB8 DUP3 PUSH1 0x97 PUSH1 0x0 DUP7 DUP2 MSTORE PUSH1 0x20 ADD SWAP1 DUP2 MSTORE PUSH1 0x20 ADD PUSH1 0x0 KECCAK256 PUSH2 0x26BF SWAP1 SWAP2 SWAP1 PUSH4 0xFFFFFFFF AND JUMP JUMPDEST SWAP1 POP SWAP3 SWAP2 POP POP JUMP JUMPDEST PUSH1 0x0 PUSH1 0x65 PUSH1 0x0 DUP5 DUP2 MSTORE PUSH1 0x20 ADD SWAP1 DUP2 MSTORE PUSH1 0x20 ADD PUSH1 0x0 KECCAK256 PUSH1 0x0 ADD PUSH1 0x0 DUP4 PUSH20 0xFFFFFFFFFFFFFFFFFFFFFFFFFFFFFFFFFFFFFFFF AND PUSH20 0xFFFFFFFFFFFFFFFFFFFFFFFFFFFFFFFFFFFFFFFF AND DUP2 MSTORE PUSH1 0x20 ADD SWAP1 DUP2 MSTORE PUSH1 0x20 ADD PUSH1 0x0 KECCAK256 PUSH1 0x0 SWAP1 SLOAD SWAP1 PUSH2 0x100 EXP SWAP1 DIV PUSH1 0xFF AND SWAP1 POP SWAP3 SWAP2 POP POP JUMP JUMPDEST PUSH1 0x0 DUP1 SHL DUP2 JUMP JUMPDEST PUSH2 0x105 PUSH1 0x0 SWAP1 SLOAD SWAP1 PUSH2 0x100 EXP SWAP1 DIV PUSH20 0xFFFFFFFFFFFFFFFFFFFFFFFFFFFFFFFFFFFFFFFF AND DUP2 JUMP JUMPDEST PUSH1 0x0 PUSH2 0x2076 PUSH1 0x97 PUSH1 0x0 DUP5 DUP2 MSTORE PUSH1 0x20 ADD SWAP1 DUP2 MSTORE PUSH1 0x20 ADD PUSH1 0x0 KECCAK256 PUSH2 0x26D9 JUMP JUMPDEST SWAP1 POP SWAP2 SWAP1 POP JUMP JUMPDEST PUSH32 0xFAAD79A708D82D095486F5A83B18341F12A8F717D3011AB929D43135C1AF73E2 PUSH2 0x20A7 DUP2 PUSH2 0x2433 JUMP JUMPDEST PUSH1 0x0 PUSH20 0xFFFFFFFFFFFFFFFFFFFFFFFFFFFFFFFFFFFFFFFF AND DUP3 PUSH20 0xFFFFFFFFFFFFFFFFFFFFFFFFFFFFFFFFFFFFFFFF AND SUB PUSH2 0x210D JUMPI PUSH1 0x40 MLOAD PUSH32 0xDF51A0D100000000000000000000000000000000000000000000000000000000 DUP2 MSTORE PUSH1 0x4 ADD PUSH1 0x40 MLOAD DUP1 SWAP2 SUB SWAP1 REVERT JUMPDEST DUP2 PUSH2 0x104 PUSH1 0x0 PUSH2 0x100 EXP DUP2 SLOAD DUP2 PUSH20 0xFFFFFFFFFFFFFFFFFFFFFFFFFFFFFFFFFFFFFFFF MUL NOT AND SWAP1 DUP4 PUSH20 0xFFFFFFFFFFFFFFFFFFFFFFFFFFFFFFFFFFFFFFFF AND MUL OR SWAP1 SSTORE POP POP POP JUMP JUMPDEST PUSH2 0x215C DUP3 PUSH2 0xC75 JUMP JUMPDEST PUSH2 0x2165 DUP2 PUSH2 0x2433 JUMP JUMPDEST PUSH2 0x216F DUP4 DUP4 PUSH2 0x2562 JUMP JUMPDEST POP POP POP JUMP JUMPDEST PUSH32 0xFD37F88A14D7ED985885A1AF8F2AD5B64DD7EB00AB89168649791632BB9BB4A6 PUSH2 0x219E DUP2 PUSH2 0x2433 JUMP JUMPDEST PUSH2 0x21A6 PUSH2 0x2447 JUMP JUMPDEST PUSH2 0x2215 PUSH2 0x103 DUP5 DUP5 PUSH1 0x40 MLOAD PUSH2 0x21BC SWAP3 SWAP2 SWAP1 PUSH2 0x3DEB JUMP JUMPDEST SWAP1 DUP2 MSTORE PUSH1 0x20 ADD PUSH1 0x40 MLOAD DUP1 SWAP2 SUB SWAP1 KECCAK256 PUSH1 0x0 SWAP1 SLOAD SWAP1 PUSH2 0x100 EXP SWAP1 DIV PUSH20 0xFFFFFFFFFFFFFFFFFFFFFFFFFFFFFFFFFFFFFFFF AND PUSH2 0x105 PUSH1 0x0 SWAP1 SLOAD SWAP1 PUSH2 0x100 EXP SWAP1 DIV PUSH20 0xFFFFFFFFFFFFFFFFFFFFFFFFFFFFFFFFFFFFFFFF AND DUP7 PUSH2 0x2496 JUMP JUMPDEST PUSH32 0x901C03DA5D88EB3D62AB4617E7B7D17D86DB16356823A7971127D5181A842FEF PUSH2 0x105 PUSH1 0x0 SWAP1 SLOAD SWAP1 PUSH2 0x100 EXP SWAP1 DIV PUSH20 0xFFFFFFFFFFFFFFFFFFFFFFFFFFFFFFFFFFFFFFFF AND DUP5 DUP5 DUP8 PUSH1 0x40 MLOAD PUSH2 0x226D SWAP5 SWAP4 SWAP3 SWAP2 SWAP1 PUSH2 0x51D4 JUMP JUMPDEST PUSH1 0x40 MLOAD DUP1 SWAP2 SUB SWAP1 LOG1 PUSH2 0x227D PUSH2 0x2524 JUMP JUMPDEST POP POP POP POP JUMP JUMPDEST PUSH2 0x106 DUP2 PUSH1 0x3 DUP2 LT PUSH2 0x2294 JUMPI PUSH1 0x0 DUP1 REVERT JUMPDEST ADD PUSH1 0x0 SWAP2 POP SWAP1 POP DUP1 SLOAD PUSH2 0x22A6 SWAP1 PUSH2 0x3D4D JUMP JUMPDEST DUP1 PUSH1 0x1F ADD PUSH1 0x20 DUP1 SWAP2 DIV MUL PUSH1 0x20 ADD PUSH1 0x40 MLOAD SWAP1 DUP2 ADD PUSH1 0x40 MSTORE DUP1 SWAP3 SWAP2 SWAP1 DUP2 DUP2 MSTORE PUSH1 0x20 ADD DUP3 DUP1 SLOAD PUSH2 0x22D2 SWAP1 PUSH2 0x3D4D JUMP JUMPDEST DUP1 ISZERO PUSH2 0x231F JUMPI DUP1 PUSH1 0x1F LT PUSH2 0x22F4 JUMPI PUSH2 0x100 DUP1 DUP4 SLOAD DIV MUL DUP4 MSTORE SWAP2 PUSH1 0x20 ADD SWAP2 PUSH2 0x231F JUMP JUMPDEST DUP3 ADD SWAP2 SWAP1 PUSH1 0x0 MSTORE PUSH1 0x20 PUSH1 0x0 KECCAK256 SWAP1 JUMPDEST DUP2 SLOAD DUP2 MSTORE SWAP1 PUSH1 0x1 ADD SWAP1 PUSH1 0x20 ADD DUP1 DUP4 GT PUSH2 0x2302 JUMPI DUP3 SWAP1 SUB PUSH1 0x1F AND DUP3 ADD SWAP2 JUMPDEST POP POP POP POP POP DUP2 JUMP JUMPDEST PUSH32 0xD2761B102BDA9831F4AF400CC824B8CECB9CC5C1C85C51ACB1479DB9735FBFC6 DUP2 JUMP JUMPDEST PUSH32 0xFAAD79A708D82D095486F5A83B18341F12A8F717D3011AB929D43135C1AF73E2 DUP2 JUMP JUMPDEST PUSH2 0x109 DUP2 DUP1 MLOAD PUSH1 0x20 DUP2 ADD DUP3 ADD DUP1 MLOAD DUP5 DUP3 MSTORE PUSH1 0x20 DUP4 ADD PUSH1 0x20 DUP6 ADD KECCAK256 DUP2 DUP4 MSTORE DUP1 SWAP6 POP POP POP POP POP POP PUSH1 0x0 SWAP2 POP SLOAD SWAP1 PUSH2 0x100 EXP SWAP1 DIV PUSH20 0xFFFFFFFFFFFFFFFFFFFFFFFFFFFFFFFFFFFFFFFF AND DUP2 JUMP JUMPDEST PUSH1 0x0 PUSH32 0x7965DB0B00000000000000000000000000000000000000000000000000000000 PUSH28 0xFFFFFFFFFFFFFFFFFFFFFFFFFFFFFFFFFFFFFFFFFFFFFFFFFFFFFFFF NOT AND DUP3 PUSH28 0xFFFFFFFFFFFFFFFFFFFFFFFFFFFFFFFFFFFFFFFFFFFFFFFFFFFFFFFF NOT AND EQ DUP1 PUSH2 0x242C JUMPI POP PUSH2 0x242B DUP3 PUSH2 0x26EE JUMP JUMPDEST JUMPDEST SWAP1 POP SWAP2 SWAP1 POP JUMP JUMPDEST PUSH2 0x2444 DUP2 PUSH2 0x243F PUSH2 0x251C JUMP JUMPDEST PUSH2 0x2758 JUMP JUMPDEST POP JUMP JUMPDEST PUSH1 0x2 PUSH1 0xC9 SLOAD SUB PUSH2 0x248C JUMPI PUSH1 0x40 MLOAD PUSH32 0x8C379A000000000000000000000000000000000000000000000000000000000 DUP2 MSTORE PUSH1 0x4 ADD PUSH2 0x2483 SWAP1 PUSH2 0x5260 JUMP JUMPDEST PUSH1 0x40 MLOAD DUP1 SWAP2 SUB SWAP1 REVERT JUMPDEST PUSH1 0x2 PUSH1 0xC9 DUP2 SWAP1 SSTORE POP JUMP JUMPDEST PUSH2 0x2517 DUP4 PUSH4 0xA9059CBB PUSH1 0xE0 SHL DUP5 DUP5 PUSH1 0x40 MLOAD PUSH1 0x24 ADD PUSH2 0x24B5 SWAP3 SWAP2 SWAP1 PUSH2 0x5280 JUMP JUMPDEST PUSH1 0x40 MLOAD PUSH1 0x20 DUP2 DUP4 SUB SUB DUP2 MSTORE SWAP1 PUSH1 0x40 MSTORE SWAP1 PUSH28 0xFFFFFFFFFFFFFFFFFFFFFFFFFFFFFFFFFFFFFFFFFFFFFFFFFFFFFFFF NOT AND PUSH1 0x20 DUP3 ADD DUP1 MLOAD PUSH28 0xFFFFFFFFFFFFFFFFFFFFFFFFFFFFFFFFFFFFFFFFFFFFFFFFFFFFFFFF DUP4 DUP2 DUP4 AND OR DUP4 MSTORE POP POP POP POP PUSH2 0x27DD JUMP JUMPDEST POP POP POP JUMP JUMPDEST PUSH1 0x0 CALLER SWAP1 POP SWAP1 JUMP JUMPDEST PUSH1 0x1 PUSH1 0xC9 DUP2 SWAP1 SSTORE POP JUMP JUMPDEST PUSH2 0x2538 DUP3 DUP3 PUSH2 0x28A5 JUMP JUMPDEST PUSH2 0x255D DUP2 PUSH1 0x97 PUSH1 0x0 DUP6 DUP2 MSTORE PUSH1 0x20 ADD SWAP1 DUP2 MSTORE PUSH1 0x20 ADD PUSH1 0x0 KECCAK256 PUSH2 0x2986 SWAP1 SWAP2 SWAP1 PUSH4 0xFFFFFFFF AND JUMP JUMPDEST POP POP POP JUMP JUMPDEST PUSH2 0x256C DUP3 DUP3 PUSH2 0x29B6 JUMP JUMPDEST PUSH2 0x2591 DUP2 PUSH1 0x97 PUSH1 0x0 DUP6 DUP2 MSTORE PUSH1 0x20 ADD SWAP1 DUP2 MSTORE PUSH1 0x20 ADD PUSH1 0x0 KECCAK256 PUSH2 0x2A98 SWAP1 SWAP2 SWAP1 PUSH4 0xFFFFFFFF AND JUMP JUMPDEST POP POP POP JUMP JUMPDEST PUSH1 0x0 DUP1 DUP3 PUSH20 0xFFFFFFFFFFFFFFFFFFFFFFFFFFFFFFFFFFFFFFFF AND EXTCODESIZE GT SWAP1 POP SWAP2 SWAP1 POP JUMP JUMPDEST PUSH1 0x0 PUSH1 0x1 SWAP1 SLOAD SWAP1 PUSH2 0x100 EXP SWAP1 DIV PUSH1 0xFF AND PUSH2 0x2608 JUMPI PUSH1 0x40 MLOAD PUSH32 0x8C379A000000000000000000000000000000000000000000000000000000000 DUP2 MSTORE PUSH1 0x4 ADD PUSH2 0x25FF SWAP1 PUSH2 0x531B JUMP JUMPDEST PUSH1 0x40 MLOAD DUP1 SWAP2 SUB SWAP1 REVERT JUMPDEST JUMP JUMPDEST PUSH1 0x0 PUSH1 0x1 SWAP1 SLOAD SWAP1 PUSH2 0x100 EXP SWAP1 DIV PUSH1 0xFF AND PUSH2 0x2659 JUMPI PUSH1 0x40 MLOAD PUSH32 0x8C379A000000000000000000000000000000000000000000000000000000000 DUP2 MSTORE PUSH1 0x4 ADD PUSH2 0x2650 SWAP1 PUSH2 0x531B JUMP JUMPDEST PUSH1 0x40 MLOAD DUP1 SWAP2 SUB SWAP1 REVERT JUMPDEST PUSH1 0x1 PUSH1 0xC9 DUP2 SWAP1 SSTORE POP JUMP JUMPDEST PUSH1 0x0 PUSH2 0x266E DUP4 PUSH2 0xC75 JUMP JUMPDEST SWAP1 POP DUP2 PUSH1 0x65 PUSH1 0x0 DUP6 DUP2 MSTORE PUSH1 0x20 ADD SWAP1 DUP2 MSTORE PUSH1 0x20 ADD PUSH1 0x0 KECCAK256 PUSH1 0x1 ADD DUP2 SWAP1 SSTORE POP DUP2 DUP2 DUP5 PUSH32 0xBD79B86FFE0AB8E8776151514217CD7CACD52C909F66475C3AF44E129F0B00FF PUSH1 0x40 MLOAD PUSH1 0x40 MLOAD DUP1 SWAP2 SUB SWAP1 LOG4 POP POP POP JUMP JUMPDEST PUSH1 0x0 PUSH2 0x26CE DUP4 PUSH1 0x0 ADD DUP4 PUSH2 0x2AC8 JUMP JUMPDEST PUSH1 0x0 SHR SWAP1 POP SWAP3 SWAP2 POP POP JUMP JUMPDEST PUSH1 0x0 PUSH2 0x26E7 DUP3 PUSH1 0x0 ADD PUSH2 0x2AF3 JUMP JUMPDEST SWAP1 POP SWAP2 SWAP1 POP JUMP JUMPDEST PUSH1 0x0 PUSH32 0x1FFC9A700000000000000000000000000000000000000000000000000000000 PUSH28 0xFFFFFFFFFFFFFFFFFFFFFFFFFFFFFFFFFFFFFFFFFFFFFFFFFFFFFFFF NOT AND DUP3 PUSH28 0xFFFFFFFFFFFFFFFFFFFFFFFFFFFFFFFFFFFFFFFFFFFFFFFFFFFFFFFF NOT AND EQ SWAP1 POP SWAP2 SWAP1 POP JUMP JUMPDEST PUSH2 0x2762 DUP3 DUP3 PUSH2 0x1FC0 JUMP JUMPDEST PUSH2 0x27D9 JUMPI PUSH2 0x276F DUP2 PUSH2 0x2B04 JUMP JUMPDEST PUSH2 0x277D DUP4 PUSH1 0x0 SHR PUSH1 0x20 PUSH2 0x2B31 JUMP JUMPDEST PUSH1 0x40 MLOAD PUSH1 0x20 ADD PUSH2 0x278E SWAP3 SWAP2 SWAP1 PUSH2 0x53D3 JUMP JUMPDEST PUSH1 0x40 MLOAD PUSH1 0x20 DUP2 DUP4 SUB SUB DUP2 MSTORE SWAP1 PUSH1 0x40 MSTORE PUSH1 0x40 MLOAD PUSH32 0x8C379A000000000000000000000000000000000000000000000000000000000 DUP2 MSTORE PUSH1 0x4 ADD PUSH2 0x27D0 SWAP2 SWAP1 PUSH2 0x388E JUMP JUMPDEST PUSH1 0x40 MLOAD DUP1 SWAP2 SUB SWAP1 REVERT JUMPDEST POP POP JUMP JUMPDEST PUSH1 0x0 PUSH2 0x283F DUP3 PUSH1 0x40 MLOAD DUP1 PUSH1 0x40 ADD PUSH1 0x40 MSTORE DUP1 PUSH1 0x20 DUP2 MSTORE PUSH1 0x20 ADD PUSH32 0x5361666545524332303A206C6F772D6C6576656C2063616C6C206661696C6564 DUP2 MSTORE POP DUP6 PUSH20 0xFFFFFFFFFFFFFFFFFFFFFFFFFFFFFFFFFFFFFFFF AND PUSH2 0x2D6D SWAP1 SWAP3 SWAP2 SWAP1 PUSH4 0xFFFFFFFF AND JUMP JUMPDEST SWAP1 POP PUSH1 0x0 DUP2 MLOAD EQ DUP1 PUSH2 0x2861 JUMPI POP DUP1 DUP1 PUSH1 0x20 ADD SWAP1 MLOAD DUP2 ADD SWAP1 PUSH2 0x2860 SWAP2 SWAP1 PUSH2 0x5439 JUMP JUMPDEST JUMPDEST PUSH2 0x28A0 JUMPI PUSH1 0x40 MLOAD PUSH32 0x8C379A000000000000000000000000000000000000000000000000000000000 DUP2 MSTORE PUSH1 0x4 ADD PUSH2 0x2897 SWAP1 PUSH2 0x54D8 JUMP JUMPDEST PUSH1 0x40 MLOAD DUP1 SWAP2 SUB SWAP1 REVERT JUMPDEST POP POP POP JUMP JUMPDEST PUSH2 0x28AF DUP3 DUP3 PUSH2 0x1FC0 JUMP JUMPDEST PUSH2 0x2982 JUMPI PUSH1 0x1 PUSH1 0x65 PUSH1 0x0 DUP5 DUP2 MSTORE PUSH1 0x20 ADD SWAP1 DUP2 MSTORE PUSH1 0x20 ADD PUSH1 0x0 KECCAK256 PUSH1 0x0 ADD PUSH1 0x0 DUP4 PUSH20 0xFFFFFFFFFFFFFFFFFFFFFFFFFFFFFFFFFFFFFFFF AND PUSH20 0xFFFFFFFFFFFFFFFFFFFFFFFFFFFFFFFFFFFFFFFF AND DUP2 MSTORE PUSH1 0x20 ADD SWAP1 DUP2 MSTORE PUSH1 0x20 ADD PUSH1 0x0 KECCAK256 PUSH1 0x0 PUSH2 0x100 EXP DUP2 SLOAD DUP2 PUSH1 0xFF MUL NOT AND SWAP1 DUP4 ISZERO ISZERO MUL OR SWAP1 SSTORE POP PUSH2 0x2927 PUSH2 0x251C JUMP JUMPDEST PUSH20 0xFFFFFFFFFFFFFFFFFFFFFFFFFFFFFFFFFFFFFFFF AND DUP2 PUSH20 0xFFFFFFFFFFFFFFFFFFFFFFFFFFFFFFFFFFFFFFFF AND DUP4 PUSH32 0x2F8788117E7EFF1D82E926EC794901D17C78024A50270940304540A733656F0D PUSH1 0x40 MLOAD PUSH1 0x40 MLOAD DUP1 SWAP2 SUB SWAP1 LOG4 JUMPDEST POP POP JUMP JUMPDEST PUSH1 0x0 PUSH2 0x29AE DUP4 PUSH1 0x0 ADD DUP4 PUSH20 0xFFFFFFFFFFFFFFFFFFFFFFFFFFFFFFFFFFFFFFFF AND PUSH1 0x0 SHL PUSH2 0x2D85 JUMP JUMPDEST SWAP1 POP SWAP3 SWAP2 POP POP JUMP JUMPDEST PUSH2 0x29C0 DUP3 DUP3 PUSH2 0x1FC0 JUMP JUMPDEST ISZERO PUSH2 0x2A94 JUMPI PUSH1 0x0 PUSH1 0x65 PUSH1 0x0 DUP5 DUP2 MSTORE PUSH1 0x20 ADD SWAP1 DUP2 MSTORE PUSH1 0x20 ADD PUSH1 0x0 KECCAK256 PUSH1 0x0 ADD PUSH1 0x0 DUP4 PUSH20 0xFFFFFFFFFFFFFFFFFFFFFFFFFFFFFFFFFFFFFFFF AND PUSH20 0xFFFFFFFFFFFFFFFFFFFFFFFFFFFFFFFFFFFFFFFF AND DUP2 MSTORE PUSH1 0x20 ADD SWAP1 DUP2 MSTORE PUSH1 0x20 ADD PUSH1 0x0 KECCAK256 PUSH1 0x0 PUSH2 0x100 EXP DUP2 SLOAD DUP2 PUSH1 0xFF MUL NOT AND SWAP1 DUP4 ISZERO ISZERO MUL OR SWAP1 SSTORE POP PUSH2 0x2A39 PUSH2 0x251C JUMP JUMPDEST PUSH20 0xFFFFFFFFFFFFFFFFFFFFFFFFFFFFFFFFFFFFFFFF AND DUP2 PUSH20 0xFFFFFFFFFFFFFFFFFFFFFFFFFFFFFFFFFFFFFFFF AND DUP4 PUSH32 0xF6391F5C32D9C69D2A47EA670B442974B53935D1EDC7FD64EB21E047A839171B PUSH1 0x40 MLOAD PUSH1 0x40 MLOAD DUP1 SWAP2 SUB SWAP1 LOG4 JUMPDEST POP POP JUMP JUMPDEST PUSH1 0x0 PUSH2 0x2AC0 DUP4 PUSH1 0x0 ADD DUP4 PUSH20 0xFFFFFFFFFFFFFFFFFFFFFFFFFFFFFFFFFFFFFFFF AND PUSH1 0x0 SHL PUSH2 0x2DF5 JUMP JUMPDEST SWAP1 POP SWAP3 SWAP2 POP POP JUMP JUMPDEST PUSH1 0x0 DUP3 PUSH1 0x0 ADD DUP3 DUP2 SLOAD DUP2 LT PUSH2 0x2AE0 JUMPI PUSH2 0x2ADF PUSH2 0x3CBB JUMP JUMPDEST JUMPDEST SWAP1 PUSH1 0x0 MSTORE PUSH1 0x20 PUSH1 0x0 KECCAK256 ADD SLOAD SWAP1 POP SWAP3 SWAP2 POP POP JUMP JUMPDEST PUSH1 0x0 DUP2 PUSH1 0x0 ADD DUP1 SLOAD SWAP1 POP SWAP1 POP SWAP2 SWAP1 POP JUMP JUMPDEST PUSH1 0x60 PUSH2 0x2B2A DUP3 PUSH20 0xFFFFFFFFFFFFFFFFFFFFFFFFFFFFFFFFFFFFFFFF AND PUSH1 0x14 PUSH1 0xFF AND PUSH2 0x2B31 JUMP JUMPDEST SWAP1 POP SWAP2 SWAP1 POP JUMP JUMPDEST PUSH1 0x60 PUSH1 0x0 PUSH1 0x2 DUP4 PUSH1 0x2 PUSH2 0x2B44 SWAP2 SWAP1 PUSH2 0x45B4 JUMP JUMPDEST PUSH2 0x2B4E SWAP2 SWAP1 PUSH2 0x3C87 JUMP JUMPDEST PUSH8 0xFFFFFFFFFFFFFFFF DUP2 GT ISZERO PUSH2 0x2B67 JUMPI PUSH2 0x2B66 PUSH2 0x38B5 JUMP JUMPDEST JUMPDEST PUSH1 0x40 MLOAD SWAP1 DUP1 DUP3 MSTORE DUP1 PUSH1 0x1F ADD PUSH1 0x1F NOT AND PUSH1 0x20 ADD DUP3 ADD PUSH1 0x40 MSTORE DUP1 ISZERO PUSH2 0x2B99 JUMPI DUP2 PUSH1 0x20 ADD PUSH1 0x1 DUP3 MUL DUP1 CALLDATASIZE DUP4 CALLDATACOPY DUP1 DUP3 ADD SWAP2 POP POP SWAP1 POP JUMPDEST POP SWAP1 POP PUSH32 0x3000000000000000000000000000000000000000000000000000000000000000 DUP2 PUSH1 0x0 DUP2 MLOAD DUP2 LT PUSH2 0x2BD1 JUMPI PUSH2 0x2BD0 PUSH2 0x3CBB JUMP JUMPDEST JUMPDEST PUSH1 0x20 ADD ADD SWAP1 PUSH31 0xFFFFFFFFFFFFFFFFFFFFFFFFFFFFFFFFFFFFFFFFFFFFFFFFFFFFFFFFFFFFFF NOT AND SWAP1 DUP2 PUSH1 0x0 BYTE SWAP1 MSTORE8 POP PUSH32 0x7800000000000000000000000000000000000000000000000000000000000000 DUP2 PUSH1 0x1 DUP2 MLOAD DUP2 LT PUSH2 0x2C35 JUMPI PUSH2 0x2C34 PUSH2 0x3CBB JUMP JUMPDEST JUMPDEST PUSH1 0x20 ADD ADD SWAP1 PUSH31 0xFFFFFFFFFFFFFFFFFFFFFFFFFFFFFFFFFFFFFFFFFFFFFFFFFFFFFFFFFFFFFF NOT AND SWAP1 DUP2 PUSH1 0x0 BYTE SWAP1 MSTORE8 POP PUSH1 0x0 PUSH1 0x1 DUP5 PUSH1 0x2 PUSH2 0x2C75 SWAP2 SWAP1 PUSH2 0x45B4 JUMP JUMPDEST PUSH2 0x2C7F SWAP2 SWAP1 PUSH2 0x3C87 JUMP JUMPDEST SWAP1 POP JUMPDEST PUSH1 0x1 DUP2 GT ISZERO PUSH2 0x2D1F JUMPI PUSH32 0x3031323334353637383961626364656600000000000000000000000000000000 PUSH1 0xF DUP7 AND PUSH1 0x10 DUP2 LT PUSH2 0x2CC1 JUMPI PUSH2 0x2CC0 PUSH2 0x3CBB JUMP JUMPDEST JUMPDEST BYTE PUSH1 0xF8 SHL DUP3 DUP3 DUP2 MLOAD DUP2 LT PUSH2 0x2CD8 JUMPI PUSH2 0x2CD7 PUSH2 0x3CBB JUMP JUMPDEST JUMPDEST PUSH1 0x20 ADD ADD SWAP1 PUSH31 0xFFFFFFFFFFFFFFFFFFFFFFFFFFFFFFFFFFFFFFFFFFFFFFFFFFFFFFFFFFFFFF NOT AND SWAP1 DUP2 PUSH1 0x0 BYTE SWAP1 MSTORE8 POP PUSH1 0x4 DUP6 SWAP1 SHR SWAP5 POP DUP1 PUSH2 0x2D18 SWAP1 PUSH2 0x54F8 JUMP JUMPDEST SWAP1 POP PUSH2 0x2C82 JUMP JUMPDEST POP PUSH1 0x0 DUP5 EQ PUSH2 0x2D63 JUMPI PUSH1 0x40 MLOAD PUSH32 0x8C379A000000000000000000000000000000000000000000000000000000000 DUP2 MSTORE PUSH1 0x4 ADD PUSH2 0x2D5A SWAP1 PUSH2 0x556D JUMP JUMPDEST PUSH1 0x40 MLOAD DUP1 SWAP2 SUB SWAP1 REVERT JUMPDEST DUP1 SWAP2 POP POP SWAP3 SWAP2 POP POP JUMP JUMPDEST PUSH1 0x60 PUSH2 0x2D7C DUP5 DUP5 PUSH1 0x0 DUP6 PUSH2 0x2F09 JUMP JUMPDEST SWAP1 POP SWAP4 SWAP3 POP POP POP JUMP JUMPDEST PUSH1 0x0 PUSH2 0x2D91 DUP4 DUP4 PUSH2 0x2FD6 JUMP JUMPDEST PUSH2 0x2DEA JUMPI DUP3 PUSH1 0x0 ADD DUP3 SWAP1 DUP1 PUSH1 0x1 DUP2 SLOAD ADD DUP1 DUP3 SSTORE DUP1 SWAP2 POP POP PUSH1 0x1 SWAP1 SUB SWAP1 PUSH1 0x0 MSTORE PUSH1 0x20 PUSH1 0x0 KECCAK256 ADD PUSH1 0x0 SWAP1 SWAP2 SWAP1 SWAP2 SWAP1 SWAP2 POP SSTORE DUP3 PUSH1 0x0 ADD DUP1 SLOAD SWAP1 POP DUP4 PUSH1 0x1 ADD PUSH1 0x0 DUP5 DUP2 MSTORE PUSH1 0x20 ADD SWAP1 DUP2 MSTORE PUSH1 0x20 ADD PUSH1 0x0 KECCAK256 DUP2 SWAP1 SSTORE POP PUSH1 0x1 SWAP1 POP PUSH2 0x2DEF JUMP JUMPDEST PUSH1 0x0 SWAP1 POP JUMPDEST SWAP3 SWAP2 POP POP JUMP JUMPDEST PUSH1 0x0 DUP1 DUP4 PUSH1 0x1 ADD PUSH1 0x0 DUP5 DUP2 MSTORE PUSH1 0x20 ADD SWAP1 DUP2 MSTORE PUSH1 0x20 ADD PUSH1 0x0 KECCAK256 SLOAD SWAP1 POP PUSH1 0x0 DUP2 EQ PUSH2 0x2EFD JUMPI PUSH1 0x0 PUSH1 0x1 DUP3 PUSH2 0x2E27 SWAP2 SWAP1 PUSH2 0x3CEA JUMP JUMPDEST SWAP1 POP PUSH1 0x0 PUSH1 0x1 DUP7 PUSH1 0x0 ADD DUP1 SLOAD SWAP1 POP PUSH2 0x2E3F SWAP2 SWAP1 PUSH2 0x3CEA JUMP JUMPDEST SWAP1 POP DUP2 DUP2 EQ PUSH2 0x2EAE JUMPI PUSH1 0x0 DUP7 PUSH1 0x0 ADD DUP3 DUP2 SLOAD DUP2 LT PUSH2 0x2E60 JUMPI PUSH2 0x2E5F PUSH2 0x3CBB JUMP JUMPDEST JUMPDEST SWAP1 PUSH1 0x0 MSTORE PUSH1 0x20 PUSH1 0x0 KECCAK256 ADD SLOAD SWAP1 POP DUP1 DUP8 PUSH1 0x0 ADD DUP5 DUP2 SLOAD DUP2 LT PUSH2 0x2E84 JUMPI PUSH2 0x2E83 PUSH2 0x3CBB JUMP JUMPDEST JUMPDEST SWAP1 PUSH1 0x0 MSTORE PUSH1 0x20 PUSH1 0x0 KECCAK256 ADD DUP2 SWAP1 SSTORE POP DUP4 DUP8 PUSH1 0x1 ADD PUSH1 0x0 DUP4 DUP2 MSTORE PUSH1 0x20 ADD SWAP1 DUP2 MSTORE PUSH1 0x20 ADD PUSH1 0x0 KECCAK256 DUP2 SWAP1 SSTORE POP POP JUMPDEST DUP6 PUSH1 0x0 ADD DUP1 SLOAD DUP1 PUSH2 0x2EC2 JUMPI PUSH2 0x2EC1 PUSH2 0x558D JUMP JUMPDEST JUMPDEST PUSH1 0x1 SWAP1 SUB DUP2 DUP2 SWAP1 PUSH1 0x0 MSTORE PUSH1 0x20 PUSH1 0x0 KECCAK256 ADD PUSH1 0x0 SWAP1 SSTORE SWAP1 SSTORE DUP6 PUSH1 0x1 ADD PUSH1 0x0 DUP7 DUP2 MSTORE PUSH1 0x20 ADD SWAP1 DUP2 MSTORE PUSH1 0x20 ADD PUSH1 0x0 KECCAK256 PUSH1 0x0 SWAP1 SSTORE PUSH1 0x1 SWAP4 POP POP POP POP PUSH2 0x2F03 JUMP JUMPDEST PUSH1 0x0 SWAP2 POP POP JUMPDEST SWAP3 SWAP2 POP POP JUMP JUMPDEST PUSH1 0x60 DUP3 SELFBALANCE LT ISZERO PUSH2 0x2F4E JUMPI PUSH1 0x40 MLOAD PUSH32 0x8C379A000000000000000000000000000000000000000000000000000000000 DUP2 MSTORE PUSH1 0x4 ADD PUSH2 0x2F45 SWAP1 PUSH2 0x562E JUMP JUMPDEST PUSH1 0x40 MLOAD DUP1 SWAP2 SUB SWAP1 REVERT JUMPDEST PUSH1 0x0 DUP1 DUP7 PUSH20 0xFFFFFFFFFFFFFFFFFFFFFFFFFFFFFFFFFFFFFFFF AND DUP6 DUP8 PUSH1 0x40 MLOAD PUSH2 0x2F77 SWAP2 SWAP1 PUSH2 0x568A JUMP JUMPDEST PUSH1 0x0 PUSH1 0x40 MLOAD DUP1 DUP4 SUB DUP2 DUP6 DUP8 GAS CALL SWAP3 POP POP POP RETURNDATASIZE DUP1 PUSH1 0x0 DUP2 EQ PUSH2 0x2FB4 JUMPI PUSH1 0x40 MLOAD SWAP2 POP PUSH1 0x1F NOT PUSH1 0x3F RETURNDATASIZE ADD AND DUP3 ADD PUSH1 0x40 MSTORE RETURNDATASIZE DUP3 MSTORE RETURNDATASIZE PUSH1 0x0 PUSH1 0x20 DUP5 ADD RETURNDATACOPY PUSH2 0x2FB9 JUMP JUMPDEST PUSH1 0x60 SWAP2 POP JUMPDEST POP SWAP2 POP SWAP2 POP PUSH2 0x2FCA DUP8 DUP4 DUP4 DUP8 PUSH2 0x2FF9 JUMP JUMPDEST SWAP3 POP POP POP SWAP5 SWAP4 POP POP POP POP JUMP JUMPDEST PUSH1 0x0 DUP1 DUP4 PUSH1 0x1 ADD PUSH1 0x0 DUP5 DUP2 MSTORE PUSH1 0x20 ADD SWAP1 DUP2 MSTORE PUSH1 0x20 ADD PUSH1 0x0 KECCAK256 SLOAD EQ ISZERO SWAP1 POP SWAP3 SWAP2 POP POP JUMP JUMPDEST PUSH1 0x60 DUP4 ISZERO PUSH2 0x305B JUMPI PUSH1 0x0 DUP4 MLOAD SUB PUSH2 0x3053 JUMPI PUSH2 0x3013 DUP6 PUSH2 0x306E JUMP JUMPDEST PUSH2 0x3052 JUMPI PUSH1 0x40 MLOAD PUSH32 0x8C379A000000000000000000000000000000000000000000000000000000000 DUP2 MSTORE PUSH1 0x4 ADD PUSH2 0x3049 SWAP1 PUSH2 0x56ED JUMP JUMPDEST PUSH1 0x40 MLOAD DUP1 SWAP2 SUB SWAP1 REVERT JUMPDEST JUMPDEST DUP3 SWAP1 POP PUSH2 0x3066 JUMP JUMPDEST PUSH2 0x3065 DUP4 DUP4 PUSH2 0x3091 JUMP JUMPDEST JUMPDEST SWAP5 SWAP4 POP POP POP POP JUMP JUMPDEST PUSH1 0x0 DUP1 DUP3 PUSH20 0xFFFFFFFFFFFFFFFFFFFFFFFFFFFFFFFFFFFFFFFF AND EXTCODESIZE GT SWAP1 POP SWAP2 SWAP1 POP JUMP JUMPDEST PUSH1 0x0 DUP3 MLOAD GT ISZERO PUSH2 0x30A4 JUMPI DUP2 MLOAD DUP1 DUP4 PUSH1 0x20 ADD REVERT JUMPDEST DUP1 PUSH1 0x40 MLOAD PUSH32 0x8C379A000000000000000000000000000000000000000000000000000000000 DUP2 MSTORE PUSH1 0x4 ADD PUSH2 0x30D8 SWAP2 SWAP1 PUSH2 0x388E JUMP JUMPDEST PUSH1 0x40 MLOAD DUP1 SWAP2 SUB SWAP1 REVERT JUMPDEST PUSH1 0x40 MLOAD DUP1 PUSH1 0xA0 ADD PUSH1 0x40 MSTORE DUP1 PUSH1 0x5 SWAP1 JUMPDEST PUSH1 0x60 DUP2 MSTORE PUSH1 0x20 ADD SWAP1 PUSH1 0x1 SWAP1 SUB SWAP1 DUP2 PUSH2 0x30F0 JUMPI SWAP1 POP POP SWAP1 JUMP JUMPDEST PUSH1 0x0 DUP2 SWAP1 POP SWAP3 SWAP2 POP POP JUMP JUMPDEST PUSH32 0x5745544800000000000000000000000000000000000000000000000000000000 PUSH1 0x0 DUP3 ADD MSTORE POP JUMP JUMPDEST PUSH1 0x0 PUSH2 0x3149 PUSH1 0x4 DUP4 PUSH2 0x3108 JUMP JUMPDEST SWAP2 POP PUSH2 0x3154 DUP3 PUSH2 0x3113 JUMP JUMPDEST PUSH1 0x4 DUP3 ADD SWAP1 POP SWAP2 SWAP1 POP JUMP JUMPDEST PUSH1 0x0 PUSH2 0x316A DUP3 PUSH2 0x313C JUMP JUMPDEST SWAP2 POP DUP2 SWAP1 POP SWAP2 SWAP1 POP JUMP JUMPDEST PUSH1 0x0 DUP3 DUP3 MSTORE PUSH1 0x20 DUP3 ADD SWAP1 POP SWAP3 SWAP2 POP POP JUMP JUMPDEST PUSH32 0x4E6F742070617961626C65206F6E207468697320636861696E00000000000000 PUSH1 0x0 DUP3 ADD MSTORE POP JUMP JUMPDEST PUSH1 0x0 PUSH2 0x31BB PUSH1 0x19 DUP4 PUSH2 0x3174 JUMP JUMPDEST SWAP2 POP PUSH2 0x31C6 DUP3 PUSH2 0x3185 JUMP JUMPDEST PUSH1 0x20 DUP3 ADD SWAP1 POP SWAP2 SWAP1 POP JUMP JUMPDEST PUSH1 0x0 PUSH1 0x20 DUP3 ADD SWAP1 POP DUP2 DUP2 SUB PUSH1 0x0 DUP4 ADD MSTORE PUSH2 0x31EA DUP2 PUSH2 0x31AE JUMP JUMPDEST SWAP1 POP SWAP2 SWAP1 POP JUMP JUMPDEST PUSH1 0x0 DUP2 MLOAD SWAP1 POP SWAP2 SWAP1 POP JUMP JUMPDEST PUSH1 0x0 DUP3 DUP3 MSTORE PUSH1 0x20 DUP3 ADD SWAP1 POP SWAP3 SWAP2 POP POP JUMP JUMPDEST PUSH1 0x0 DUP2 SWAP1 POP PUSH1 0x20 DUP3 ADD SWAP1 POP SWAP2 SWAP1 POP JUMP JUMPDEST PUSH1 0x0 DUP2 SWAP1 POP SWAP2 SWAP1 POP JUMP JUMPDEST PUSH2 0x3230 DUP2 PUSH2 0x321D JUMP JUMPDEST DUP3 MSTORE POP POP JUMP JUMPDEST PUSH1 0x0 PUSH2 0x3242 DUP4 DUP4 PUSH2 0x3227 JUMP JUMPDEST PUSH1 0x20 DUP4 ADD SWAP1 POP SWAP3 SWAP2 POP POP JUMP JUMPDEST PUSH1 0x0 PUSH1 0x20 DUP3 ADD SWAP1 POP SWAP2 SWAP1 POP JUMP JUMPDEST PUSH1 0x0 PUSH2 0x3266 DUP3 PUSH2 0x31F1 JUMP JUMPDEST PUSH2 0x3270 DUP2 DUP6 PUSH2 0x31FC JUMP JUMPDEST SWAP4 POP PUSH2 0x327B DUP4 PUSH2 0x320D JUMP JUMPDEST DUP1 PUSH1 0x0 JUMPDEST DUP4 DUP2 LT ISZERO PUSH2 0x32AC JUMPI DUP2 MLOAD PUSH2 0x3293 DUP9 DUP3 PUSH2 0x3236 JUMP JUMPDEST SWAP8 POP PUSH2 0x329E DUP4 PUSH2 0x324E JUMP JUMPDEST SWAP3 POP POP PUSH1 0x1 DUP2 ADD SWAP1 POP PUSH2 0x327F JUMP JUMPDEST POP DUP6 SWAP4 POP POP POP POP SWAP3 SWAP2 POP POP JUMP JUMPDEST PUSH1 0x0 PUSH1 0x20 DUP3 ADD SWAP1 POP DUP2 DUP2 SUB PUSH1 0x0 DUP4 ADD MSTORE PUSH2 0x32D3 DUP2 DUP5 PUSH2 0x325B JUMP JUMPDEST SWAP1 POP SWAP3 SWAP2 POP POP JUMP JUMPDEST PUSH1 0x0 PUSH1 0x40 MLOAD SWAP1 POP SWAP1 JUMP JUMPDEST PUSH1 0x0 DUP1 REVERT JUMPDEST PUSH1 0x0 DUP1 REVERT JUMPDEST PUSH1 0x0 PUSH32 0xFFFFFFFF00000000000000000000000000000000000000000000000000000000 DUP3 AND SWAP1 POP SWAP2 SWAP1 POP JUMP JUMPDEST PUSH2 0x3324 DUP2 PUSH2 0x32EF JUMP JUMPDEST DUP2 EQ PUSH2 0x332F JUMPI PUSH1 0x0 DUP1 REVERT JUMPDEST POP JUMP JUMPDEST PUSH1 0x0 DUP2 CALLDATALOAD SWAP1 POP PUSH2 0x3341 DUP2 PUSH2 0x331B JUMP JUMPDEST SWAP3 SWAP2 POP POP JUMP JUMPDEST PUSH1 0x0 PUSH1 0x20 DUP3 DUP5 SUB SLT ISZERO PUSH2 0x335D JUMPI PUSH2 0x335C PUSH2 0x32E5 JUMP JUMPDEST JUMPDEST PUSH1 0x0 PUSH2 0x336B DUP5 DUP3 DUP6 ADD PUSH2 0x3332 JUMP JUMPDEST SWAP2 POP POP SWAP3 SWAP2 POP POP JUMP JUMPDEST PUSH1 0x0 DUP2 ISZERO ISZERO SWAP1 POP SWAP2 SWAP1 POP JUMP JUMPDEST PUSH2 0x3389 DUP2 PUSH2 0x3374 JUMP JUMPDEST DUP3 MSTORE POP POP JUMP JUMPDEST PUSH1 0x0 PUSH1 0x20 DUP3 ADD SWAP1 POP PUSH2 0x33A4 PUSH1 0x0 DUP4 ADD DUP5 PUSH2 0x3380 JUMP JUMPDEST SWAP3 SWAP2 POP POP JUMP JUMPDEST PUSH2 0x33B3 DUP2 PUSH2 0x321D JUMP JUMPDEST DUP2 EQ PUSH2 0x33BE JUMPI PUSH1 0x0 DUP1 REVERT JUMPDEST POP JUMP JUMPDEST PUSH1 0x0 DUP2 CALLDATALOAD SWAP1 POP PUSH2 0x33D0 DUP2 PUSH2 0x33AA JUMP JUMPDEST SWAP3 SWAP2 POP POP JUMP JUMPDEST PUSH1 0x0 DUP1 REVERT JUMPDEST PUSH1 0x0 DUP1 REVERT JUMPDEST PUSH1 0x0 DUP1 REVERT JUMPDEST PUSH1 0x0 DUP1 DUP4 PUSH1 0x1F DUP5 ADD SLT PUSH2 0x33FB JUMPI PUSH2 0x33FA PUSH2 0x33D6 JUMP JUMPDEST JUMPDEST DUP3 CALLDATALOAD SWAP1 POP PUSH8 0xFFFFFFFFFFFFFFFF DUP2 GT ISZERO PUSH2 0x3418 JUMPI PUSH2 0x3417 PUSH2 0x33DB JUMP JUMPDEST JUMPDEST PUSH1 0x20 DUP4 ADD SWAP2 POP DUP4 PUSH1 0x1 DUP3 MUL DUP4 ADD GT ISZERO PUSH2 0x3434 JUMPI PUSH2 0x3433 PUSH2 0x33E0 JUMP JUMPDEST JUMPDEST SWAP3 POP SWAP3 SWAP1 POP JUMP JUMPDEST PUSH1 0x0 DUP1 PUSH1 0x0 PUSH1 0x40 DUP5 DUP7 SUB SLT ISZERO PUSH2 0x3454 JUMPI PUSH2 0x3453 PUSH2 0x32E5 JUMP JUMPDEST JUMPDEST PUSH1 0x0 PUSH2 0x3462 DUP7 DUP3 DUP8 ADD PUSH2 0x33C1 JUMP JUMPDEST SWAP4 POP POP PUSH1 0x20 DUP5 ADD CALLDATALOAD PUSH8 0xFFFFFFFFFFFFFFFF DUP2 GT ISZERO PUSH2 0x3483 JUMPI PUSH2 0x3482 PUSH2 0x32EA JUMP JUMPDEST JUMPDEST PUSH2 0x348F DUP7 DUP3 DUP8 ADD PUSH2 0x33E5 JUMP JUMPDEST SWAP3 POP SWAP3 POP POP SWAP3 POP SWAP3 POP SWAP3 JUMP JUMPDEST PUSH1 0x0 PUSH20 0xFFFFFFFFFFFFFFFFFFFFFFFFFFFFFFFFFFFFFFFF DUP3 AND SWAP1 POP SWAP2 SWAP1 POP JUMP JUMPDEST PUSH1 0x0 PUSH2 0x34C6 DUP3 PUSH2 0x349B JUMP JUMPDEST SWAP1 POP SWAP2 SWAP1 POP JUMP JUMPDEST PUSH2 0x34D6 DUP2 PUSH2 0x34BB JUMP JUMPDEST DUP3 MSTORE POP POP JUMP JUMPDEST PUSH1 0x0 PUSH1 0x20 DUP3 ADD SWAP1 POP PUSH2 0x34F1 PUSH1 0x0 DUP4 ADD DUP5 PUSH2 0x34CD JUMP JUMPDEST SWAP3 SWAP2 POP POP JUMP JUMPDEST PUSH2 0x3500 DUP2 PUSH2 0x34BB JUMP JUMPDEST DUP2 EQ PUSH2 0x350B JUMPI PUSH1 0x0 DUP1 REVERT JUMPDEST POP JUMP JUMPDEST PUSH1 0x0 DUP2 CALLDATALOAD SWAP1 POP PUSH2 0x351D DUP2 PUSH2 0x34F7 JUMP JUMPDEST SWAP3 SWAP2 POP POP JUMP JUMPDEST PUSH1 0x0 PUSH1 0x20 DUP3 DUP5 SUB SLT ISZERO PUSH2 0x3539 JUMPI PUSH2 0x3538 PUSH2 0x32E5 JUMP JUMPDEST JUMPDEST PUSH1 0x0 PUSH2 0x3547 DUP5 DUP3 DUP6 ADD PUSH2 0x350E JUMP JUMPDEST SWAP2 POP POP SWAP3 SWAP2 POP POP JUMP JUMPDEST PUSH1 0x0 DUP2 SWAP1 POP SWAP2 SWAP1 POP JUMP JUMPDEST PUSH2 0x3563 DUP2 PUSH2 0x3550 JUMP JUMPDEST DUP2 EQ PUSH2 0x356E JUMPI PUSH1 0x0 DUP1 REVERT JUMPDEST POP JUMP JUMPDEST PUSH1 0x0 DUP2 CALLDATALOAD SWAP1 POP PUSH2 0x3580 DUP2 PUSH2 0x355A JUMP JUMPDEST SWAP3 SWAP2 POP POP JUMP JUMPDEST PUSH1 0x0 PUSH1 0x20 DUP3 DUP5 SUB SLT ISZERO PUSH2 0x359C JUMPI PUSH2 0x359B PUSH2 0x32E5 JUMP JUMPDEST JUMPDEST PUSH1 0x0 PUSH2 0x35AA DUP5 DUP3 DUP6 ADD PUSH2 0x3571 JUMP JUMPDEST SWAP2 POP POP SWAP3 SWAP2 POP POP JUMP JUMPDEST PUSH2 0x35BC DUP2 PUSH2 0x3550 JUMP JUMPDEST DUP3 MSTORE POP POP JUMP JUMPDEST PUSH1 0x0 PUSH1 0x20 DUP3 ADD SWAP1 POP PUSH2 0x35D7 PUSH1 0x0 DUP4 ADD DUP5 PUSH2 0x35B3 JUMP JUMPDEST SWAP3 SWAP2 POP POP JUMP JUMPDEST PUSH1 0x0 PUSH1 0x5 SWAP1 POP SWAP2 SWAP1 POP JUMP JUMPDEST PUSH1 0x0 DUP2 SWAP1 POP SWAP3 SWAP2 POP POP JUMP JUMPDEST PUSH1 0x0 DUP2 SWAP1 POP SWAP2 SWAP1 POP JUMP JUMPDEST PUSH1 0x0 DUP2 MLOAD SWAP1 POP SWAP2 SWAP1 POP JUMP JUMPDEST PUSH1 0x0 DUP3 DUP3 MSTORE PUSH1 0x20 DUP3 ADD SWAP1 POP SWAP3 SWAP2 POP POP JUMP JUMPDEST PUSH1 0x0 JUMPDEST DUP4 DUP2 LT ISZERO PUSH2 0x3637 JUMPI DUP1 DUP3 ADD MLOAD DUP2 DUP5 ADD MSTORE PUSH1 0x20 DUP2 ADD SWAP1 POP PUSH2 0x361C JUMP JUMPDEST PUSH1 0x0 DUP5 DUP5 ADD MSTORE POP POP POP POP JUMP JUMPDEST PUSH1 0x0 PUSH1 0x1F NOT PUSH1 0x1F DUP4 ADD AND SWAP1 POP SWAP2 SWAP1 POP JUMP JUMPDEST PUSH1 0x0 PUSH2 0x365F DUP3 PUSH2 0x35FD JUMP JUMPDEST PUSH2 0x3669 DUP2 DUP6 PUSH2 0x3608 JUMP JUMPDEST SWAP4 POP PUSH2 0x3679 DUP2 DUP6 PUSH1 0x20 DUP7 ADD PUSH2 0x3619 JUMP JUMPDEST PUSH2 0x3682 DUP2 PUSH2 0x3643 JUMP JUMPDEST DUP5 ADD SWAP2 POP POP SWAP3 SWAP2 POP POP JUMP JUMPDEST PUSH1 0x0 PUSH2 0x3699 DUP4 DUP4 PUSH2 0x3654 JUMP JUMPDEST SWAP1 POP SWAP3 SWAP2 POP POP JUMP JUMPDEST PUSH1 0x0 PUSH1 0x20 DUP3 ADD SWAP1 POP SWAP2 SWAP1 POP JUMP JUMPDEST PUSH1 0x0 PUSH2 0x36B9 DUP3 PUSH2 0x35DD JUMP JUMPDEST PUSH2 0x36C3 DUP2 DUP6 PUSH2 0x35E8 JUMP JUMPDEST SWAP4 POP DUP4 PUSH1 0x20 DUP3 MUL DUP6 ADD PUSH2 0x36D5 DUP6 PUSH2 0x35F3 JUMP JUMPDEST DUP1 PUSH1 0x0 JUMPDEST DUP6 DUP2 LT ISZERO PUSH2 0x3711 JUMPI DUP5 DUP5 SUB DUP10 MSTORE DUP2 MLOAD PUSH2 0x36F2 DUP6 DUP3 PUSH2 0x368D JUMP JUMPDEST SWAP5 POP PUSH2 0x36FD DUP4 PUSH2 0x36A1 JUMP JUMPDEST SWAP3 POP PUSH1 0x20 DUP11 ADD SWAP10 POP POP PUSH1 0x1 DUP2 ADD SWAP1 POP PUSH2 0x36D9 JUMP JUMPDEST POP DUP3 SWAP8 POP DUP8 SWAP6 POP POP POP POP POP POP SWAP3 SWAP2 POP POP JUMP JUMPDEST PUSH1 0x0 PUSH1 0x20 DUP3 ADD SWAP1 POP DUP2 DUP2 SUB PUSH1 0x0 DUP4 ADD MSTORE PUSH2 0x373D DUP2 DUP5 PUSH2 0x36AE JUMP JUMPDEST SWAP1 POP SWAP3 SWAP2 POP POP JUMP JUMPDEST PUSH1 0x0 DUP1 PUSH1 0x40 DUP4 DUP6 SUB SLT ISZERO PUSH2 0x375C JUMPI PUSH2 0x375B PUSH2 0x32E5 JUMP JUMPDEST JUMPDEST PUSH1 0x0 PUSH2 0x376A DUP6 DUP3 DUP7 ADD PUSH2 0x3571 JUMP JUMPDEST SWAP3 POP POP PUSH1 0x20 PUSH2 0x377B DUP6 DUP3 DUP7 ADD PUSH2 0x350E JUMP JUMPDEST SWAP2 POP POP SWAP3 POP SWAP3 SWAP1 POP JUMP JUMPDEST PUSH1 0x0 DUP1 DUP4 PUSH1 0x1F DUP5 ADD SLT PUSH2 0x379B JUMPI PUSH2 0x379A PUSH2 0x33D6 JUMP JUMPDEST JUMPDEST DUP3 CALLDATALOAD SWAP1 POP PUSH8 0xFFFFFFFFFFFFFFFF DUP2 GT ISZERO PUSH2 0x37B8 JUMPI PUSH2 0x37B7 PUSH2 0x33DB JUMP JUMPDEST JUMPDEST PUSH1 0x20 DUP4 ADD SWAP2 POP DUP4 PUSH1 0x20 DUP3 MUL DUP4 ADD GT ISZERO PUSH2 0x37D4 JUMPI PUSH2 0x37D3 PUSH2 0x33E0 JUMP JUMPDEST JUMPDEST SWAP3 POP SWAP3 SWAP1 POP JUMP JUMPDEST PUSH1 0x0 DUP1 PUSH1 0x20 DUP4 DUP6 SUB SLT ISZERO PUSH2 0x37F2 JUMPI PUSH2 0x37F1 PUSH2 0x32E5 JUMP JUMPDEST JUMPDEST PUSH1 0x0 DUP4 ADD CALLDATALOAD PUSH8 0xFFFFFFFFFFFFFFFF DUP2 GT ISZERO PUSH2 0x3810 JUMPI PUSH2 0x380F PUSH2 0x32EA JUMP JUMPDEST JUMPDEST PUSH2 0x381C DUP6 DUP3 DUP7 ADD PUSH2 0x3785 JUMP JUMPDEST SWAP3 POP SWAP3 POP POP SWAP3 POP SWAP3 SWAP1 POP JUMP JUMPDEST PUSH1 0x0 PUSH1 0x20 DUP3 DUP5 SUB SLT ISZERO PUSH2 0x383E JUMPI PUSH2 0x383D PUSH2 0x32E5 JUMP JUMPDEST JUMPDEST PUSH1 0x0 PUSH2 0x384C DUP5 DUP3 DUP6 ADD PUSH2 0x33C1 JUMP JUMPDEST SWAP2 POP POP SWAP3 SWAP2 POP POP JUMP JUMPDEST PUSH1 0x0 PUSH2 0x3860 DUP3 PUSH2 0x35FD JUMP JUMPDEST PUSH2 0x386A DUP2 DUP6 PUSH2 0x3174 JUMP JUMPDEST SWAP4 POP PUSH2 0x387A DUP2 DUP6 PUSH1 0x20 DUP7 ADD PUSH2 0x3619 JUMP JUMPDEST PUSH2 0x3883 DUP2 PUSH2 0x3643 JUMP JUMPDEST DUP5 ADD SWAP2 POP POP SWAP3 SWAP2 POP POP JUMP JUMPDEST PUSH1 0x0 PUSH1 0x20 DUP3 ADD SWAP1 POP DUP2 DUP2 SUB PUSH1 0x0 DUP4 ADD MSTORE PUSH2 0x38A8 DUP2 DUP5 PUSH2 0x3855 JUMP JUMPDEST SWAP1 POP SWAP3 SWAP2 POP POP JUMP JUMPDEST PUSH1 0x0 DUP1 REVERT JUMPDEST PUSH32 0x4E487B7100000000000000000000000000000000000000000000000000000000 PUSH1 0x0 MSTORE PUSH1 0x41 PUSH1 0x4 MSTORE PUSH1 0x24 PUSH1 0x0 REVERT JUMPDEST PUSH2 0x38ED DUP3 PUSH2 0x3643 JUMP JUMPDEST DUP2 ADD DUP2 DUP2 LT PUSH8 0xFFFFFFFFFFFFFFFF DUP3 GT OR ISZERO PUSH2 0x390C JUMPI PUSH2 0x390B PUSH2 0x38B5 JUMP JUMPDEST JUMPDEST DUP1 PUSH1 0x40 MSTORE POP POP POP JUMP JUMPDEST PUSH1 0x0 PUSH2 0x391F PUSH2 0x32DB JUMP JUMPDEST SWAP1 POP PUSH2 0x392B DUP3 DUP3 PUSH2 0x38E4 JUMP JUMPDEST SWAP2 SWAP1 POP JUMP JUMPDEST PUSH1 0x0 PUSH8 0xFFFFFFFFFFFFFFFF DUP3 GT ISZERO PUSH2 0x394B JUMPI PUSH2 0x394A PUSH2 0x38B5 JUMP JUMPDEST JUMPDEST PUSH2 0x3954 DUP3 PUSH2 0x3643 JUMP JUMPDEST SWAP1 POP PUSH1 0x20 DUP2 ADD SWAP1 POP SWAP2 SWAP1 POP JUMP JUMPDEST DUP3 DUP2 DUP4 CALLDATACOPY PUSH1 0x0 DUP4 DUP4 ADD MSTORE POP POP POP JUMP JUMPDEST PUSH1 0x0 PUSH2 0x3983 PUSH2 0x397E DUP5 PUSH2 0x3930 JUMP JUMPDEST PUSH2 0x3915 JUMP JUMPDEST SWAP1 POP DUP3 DUP2 MSTORE PUSH1 0x20 DUP2 ADD DUP5 DUP5 DUP5 ADD GT ISZERO PUSH2 0x399F JUMPI PUSH2 0x399E PUSH2 0x38B0 JUMP JUMPDEST JUMPDEST PUSH2 0x39AA DUP5 DUP3 DUP6 PUSH2 0x3961 JUMP JUMPDEST POP SWAP4 SWAP3 POP POP POP JUMP JUMPDEST PUSH1 0x0 DUP3 PUSH1 0x1F DUP4 ADD SLT PUSH2 0x39C7 JUMPI PUSH2 0x39C6 PUSH2 0x33D6 JUMP JUMPDEST JUMPDEST DUP2 CALLDATALOAD PUSH2 0x39D7 DUP5 DUP3 PUSH1 0x20 DUP7 ADD PUSH2 0x3970 JUMP JUMPDEST SWAP2 POP POP SWAP3 SWAP2 POP POP JUMP JUMPDEST PUSH1 0x0 PUSH1 0x20 DUP3 DUP5 SUB SLT ISZERO PUSH2 0x39F6 JUMPI PUSH2 0x39F5 PUSH2 0x32E5 JUMP JUMPDEST JUMPDEST PUSH1 0x0 DUP3 ADD CALLDATALOAD PUSH8 0xFFFFFFFFFFFFFFFF DUP2 GT ISZERO PUSH2 0x3A14 JUMPI PUSH2 0x3A13 PUSH2 0x32EA JUMP JUMPDEST JUMPDEST PUSH2 0x3A20 DUP5 DUP3 DUP6 ADD PUSH2 0x39B2 JUMP JUMPDEST SWAP2 POP POP SWAP3 SWAP2 POP POP JUMP JUMPDEST PUSH2 0x3A32 DUP2 PUSH2 0x321D JUMP JUMPDEST DUP3 MSTORE POP POP JUMP JUMPDEST PUSH1 0x0 PUSH1 0x20 DUP3 ADD SWAP1 POP PUSH2 0x3A4D PUSH1 0x0 DUP4 ADD DUP5 PUSH2 0x3A29 JUMP JUMPDEST SWAP3 SWAP2 POP POP JUMP JUMPDEST PUSH1 0x0 DUP2 SWAP1 POP DUP3 PUSH1 0x20 PUSH1 0x5 MUL DUP3 ADD GT ISZERO PUSH2 0x3A6F JUMPI PUSH2 0x3A6E PUSH2 0x33E0 JUMP JUMPDEST JUMPDEST SWAP3 SWAP2 POP POP JUMP JUMPDEST PUSH1 0x0 DUP2 SWAP1 POP DUP3 PUSH1 0x20 PUSH1 0x5 MUL DUP3 ADD GT ISZERO PUSH2 0x3A91 JUMPI PUSH2 0x3A90 PUSH2 0x33E0 JUMP JUMPDEST JUMPDEST SWAP3 SWAP2 POP POP JUMP JUMPDEST PUSH1 0x0 DUP2 SWAP1 POP DUP3 PUSH1 0x20 PUSH1 0x3 MUL DUP3 ADD GT ISZERO PUSH2 0x3AB3 JUMPI PUSH2 0x3AB2 PUSH2 0x33E0 JUMP JUMPDEST JUMPDEST SWAP3 SWAP2 POP POP JUMP JUMPDEST PUSH1 0x0 DUP2 SWAP1 POP DUP3 PUSH1 0x20 PUSH1 0x2 MUL DUP3 ADD GT ISZERO PUSH2 0x3AD5 JUMPI PUSH2 0x3AD4 PUSH2 0x33E0 JUMP JUMPDEST JUMPDEST SWAP3 SWAP2 POP POP JUMP JUMPDEST PUSH1 0x0 DUP2 SWAP1 POP DUP3 PUSH1 0x20 PUSH1 0x2 MUL DUP3 ADD GT ISZERO PUSH2 0x3AF7 JUMPI PUSH2 0x3AF6 PUSH2 0x33E0 JUMP JUMPDEST JUMPDEST SWAP3 SWAP2 POP POP JUMP JUMPDEST PUSH1 0x0 DUP1 PUSH1 0x0 DUP1 PUSH1 0x0 DUP1 PUSH1 0x0 DUP1 PUSH1 0x0 DUP1 PUSH2 0x220 DUP12 DUP14 SUB SLT ISZERO PUSH2 0x3B21 JUMPI PUSH2 0x3B20 PUSH2 0x32E5 JUMP JUMPDEST JUMPDEST PUSH1 0x0 PUSH2 0x3B2F DUP14 DUP3 DUP15 ADD PUSH2 0x350E JUMP JUMPDEST SWAP11 POP POP PUSH1 0x20 DUP12 ADD CALLDATALOAD PUSH8 0xFFFFFFFFFFFFFFFF DUP2 GT ISZERO PUSH2 0x3B50 JUMPI PUSH2 0x3B4F PUSH2 0x32EA JUMP JUMPDEST JUMPDEST PUSH2 0x3B5C DUP14 DUP3 DUP15 ADD PUSH2 0x3A53 JUMP JUMPDEST SWAP10 POP POP PUSH1 0x40 PUSH2 0x3B6D DUP14 DUP3 DUP15 ADD PUSH2 0x3A75 JUMP JUMPDEST SWAP9 POP POP PUSH1 0xE0 PUSH2 0x3B7E DUP14 DUP3 DUP15 ADD PUSH2 0x3A97 JUMP JUMPDEST SWAP8 POP POP PUSH2 0x140 PUSH2 0x3B90 DUP14 DUP3 DUP15 ADD PUSH2 0x350E JUMP JUMPDEST SWAP7 POP POP PUSH2 0x160 PUSH2 0x3BA2 DUP14 DUP3 DUP15 ADD PUSH2 0x350E JUMP JUMPDEST SWAP6 POP POP PUSH2 0x180 PUSH2 0x3BB4 DUP14 DUP3 DUP15 ADD PUSH2 0x350E JUMP JUMPDEST SWAP5 POP POP PUSH2 0x1A0 PUSH2 0x3BC6 DUP14 DUP3 DUP15 ADD PUSH2 0x350E JUMP JUMPDEST SWAP4 POP POP PUSH2 0x1C0 DUP12 ADD CALLDATALOAD PUSH8 0xFFFFFFFFFFFFFFFF DUP2 GT ISZERO PUSH2 0x3BE8 JUMPI PUSH2 0x3BE7 PUSH2 0x32EA JUMP JUMPDEST JUMPDEST PUSH2 0x3BF4 DUP14 DUP3 DUP15 ADD PUSH2 0x3AB9 JUMP JUMPDEST SWAP3 POP POP PUSH2 0x1E0 PUSH2 0x3C06 DUP14 DUP3 DUP15 ADD PUSH2 0x3ADB JUMP JUMPDEST SWAP2 POP POP SWAP3 SWAP6 SWAP9 SWAP12 SWAP2 SWAP5 SWAP8 SWAP11 POP SWAP3 SWAP6 SWAP9 POP JUMP JUMPDEST PUSH1 0x0 DUP1 PUSH1 0x40 DUP4 DUP6 SUB SLT ISZERO PUSH2 0x3C2F JUMPI PUSH2 0x3C2E PUSH2 0x32E5 JUMP JUMPDEST JUMPDEST PUSH1 0x0 PUSH2 0x3C3D DUP6 DUP3 DUP7 ADD PUSH2 0x3571 JUMP JUMPDEST SWAP3 POP POP PUSH1 0x20 PUSH2 0x3C4E DUP6 DUP3 DUP7 ADD PUSH2 0x33C1 JUMP JUMPDEST SWAP2 POP POP SWAP3 POP SWAP3 SWAP1 POP JUMP JUMPDEST PUSH32 0x4E487B7100000000000000000000000000000000000000000000000000000000 PUSH1 0x0 MSTORE PUSH1 0x11 PUSH1 0x4 MSTORE PUSH1 0x24 PUSH1 0x0 REVERT JUMPDEST PUSH1 0x0 PUSH2 0x3C92 DUP3 PUSH2 0x321D JUMP JUMPDEST SWAP2 POP PUSH2 0x3C9D DUP4 PUSH2 0x321D JUMP JUMPDEST SWAP3 POP DUP3 DUP3 ADD SWAP1 POP DUP1 DUP3 GT ISZERO PUSH2 0x3CB5 JUMPI PUSH2 0x3CB4 PUSH2 0x3C58 JUMP JUMPDEST JUMPDEST SWAP3 SWAP2 POP POP JUMP JUMPDEST PUSH32 0x4E487B7100000000000000000000000000000000000000000000000000000000 PUSH1 0x0 MSTORE PUSH1 0x32 PUSH1 0x4 MSTORE PUSH1 0x24 PUSH1 0x0 REVERT JUMPDEST PUSH1 0x0 PUSH2 0x3CF5 DUP3 PUSH2 0x321D JUMP JUMPDEST SWAP2 POP PUSH2 0x3D00 DUP4 PUSH2 0x321D JUMP JUMPDEST SWAP3 POP DUP3 DUP3 SUB SWAP1 POP DUP2 DUP2 GT ISZERO PUSH2 0x3D18 JUMPI PUSH2 0x3D17 PUSH2 0x3C58 JUMP JUMPDEST JUMPDEST SWAP3 SWAP2 POP POP JUMP JUMPDEST PUSH32 0x4E487B7100000000000000000000000000000000000000000000000000000000 PUSH1 0x0 MSTORE PUSH1 0x22 PUSH1 0x4 MSTORE PUSH1 0x24 PUSH1 0x0 REVERT JUMPDEST PUSH1 0x0 PUSH1 0x2 DUP3 DIV SWAP1 POP PUSH1 0x1 DUP3 AND DUP1 PUSH2 0x3D65 JUMPI PUSH1 0x7F DUP3 AND SWAP2 POP JUMPDEST PUSH1 0x20 DUP3 LT DUP2 SUB PUSH2 0x3D78 JUMPI PUSH2 0x3D77 PUSH2 0x3D1E JUMP JUMPDEST JUMPDEST POP SWAP2 SWAP1 POP JUMP JUMPDEST PUSH1 0x0 PUSH2 0x3D89 DUP3 PUSH2 0x321D JUMP JUMPDEST SWAP2 POP PUSH32 0xFFFFFFFFFFFFFFFFFFFFFFFFFFFFFFFFFFFFFFFFFFFFFFFFFFFFFFFFFFFFFFFF DUP3 SUB PUSH2 0x3DBB JUMPI PUSH2 0x3DBA PUSH2 0x3C58 JUMP JUMPDEST JUMPDEST PUSH1 0x1 DUP3 ADD SWAP1 POP SWAP2 SWAP1 POP JUMP JUMPDEST PUSH1 0x0 PUSH2 0x3DD2 DUP4 DUP6 PUSH2 0x3108 JUMP JUMPDEST SWAP4 POP PUSH2 0x3DDF DUP4 DUP6 DUP5 PUSH2 0x3961 JUMP JUMPDEST DUP3 DUP5 ADD SWAP1 POP SWAP4 SWAP3 POP POP POP JUMP JUMPDEST PUSH1 0x0 PUSH2 0x3DF8 DUP3 DUP5 DUP7 PUSH2 0x3DC6 JUMP JUMPDEST SWAP2 POP DUP2 SWAP1 POP SWAP4 SWAP3 POP POP POP JUMP JUMPDEST PUSH1 0x0 PUSH2 0x3E10 DUP4 DUP6 PUSH2 0x3174 JUMP JUMPDEST SWAP4 POP PUSH2 0x3E1D DUP4 DUP6 DUP5 PUSH2 0x3961 JUMP JUMPDEST PUSH2 0x3E26 DUP4 PUSH2 0x3643 JUMP JUMPDEST DUP5 ADD SWAP1 POP SWAP4 SWAP3 POP POP POP JUMP JUMPDEST PUSH1 0x0 PUSH1 0x80 DUP3 ADD SWAP1 POP PUSH2 0x3E46 PUSH1 0x0 DUP4 ADD DUP9 PUSH2 0x34CD JUMP JUMPDEST DUP2 DUP2 SUB PUSH1 0x20 DUP4 ADD MSTORE PUSH2 0x3E59 DUP2 DUP7 DUP9 PUSH2 0x3E04 JUMP JUMPDEST SWAP1 POP PUSH2 0x3E68 PUSH1 0x40 DUP4 ADD DUP6 PUSH2 0x3A29 JUMP JUMPDEST PUSH2 0x3E75 PUSH1 0x60 DUP4 ADD DUP5 PUSH2 0x34CD JUMP JUMPDEST SWAP7 SWAP6 POP POP POP POP POP POP JUMP JUMPDEST PUSH1 0x0 DUP1 REVERT JUMPDEST PUSH1 0x0 DUP1 REVERT JUMPDEST PUSH1 0x0 DUP1 REVERT JUMPDEST PUSH1 0x0 DUP3 CALLDATALOAD PUSH1 0x1 PUSH1 0x60 SUB DUP4 CALLDATASIZE SUB SUB DUP2 SLT PUSH2 0x3EAA JUMPI PUSH2 0x3EA9 PUSH2 0x3E7F JUMP JUMPDEST JUMPDEST DUP1 DUP4 ADD SWAP2 POP POP SWAP3 SWAP2 POP POP JUMP JUMPDEST PUSH1 0x0 DUP3 CALLDATALOAD PUSH1 0x1 PUSH1 0xA0 SUB DUP4 CALLDATASIZE SUB SUB DUP2 SLT PUSH2 0x3ED2 JUMPI PUSH2 0x3ED1 PUSH2 0x3E7F JUMP JUMPDEST JUMPDEST DUP1 DUP4 ADD SWAP2 POP POP SWAP3 SWAP2 POP POP JUMP JUMPDEST PUSH1 0x0 DUP1 REVERT JUMPDEST PUSH1 0x0 DUP3 CALLDATALOAD PUSH1 0x1 PUSH1 0xA0 SUB DUP4 CALLDATASIZE SUB SUB DUP2 SLT PUSH2 0x3EFF JUMPI PUSH2 0x3EFE PUSH2 0x3EDE JUMP JUMPDEST JUMPDEST DUP3 DUP2 ADD SWAP2 POP POP SWAP3 SWAP2 POP POP JUMP JUMPDEST PUSH1 0x0 DUP1 REVERT JUMPDEST PUSH1 0x0 DUP1 REVERT JUMPDEST PUSH1 0x0 DUP1 DUP4 CALLDATALOAD PUSH1 0x1 PUSH1 0x20 SUB DUP5 CALLDATASIZE SUB SUB DUP2 SLT PUSH2 0x3F32 JUMPI PUSH2 0x3F31 PUSH2 0x3EDE JUMP JUMPDEST JUMPDEST DUP4 DUP2 ADD SWAP3 POP DUP3 CALLDATALOAD SWAP2 POP PUSH1 0x20 DUP4 ADD SWAP3 POP PUSH8 0xFFFFFFFFFFFFFFFF DUP3 GT ISZERO PUSH2 0x3F5A JUMPI PUSH2 0x3F59 PUSH2 0x3F0B JUMP JUMPDEST JUMPDEST PUSH1 0x1 DUP3 MUL CALLDATASIZE SUB DUP4 SGT ISZERO PUSH2 0x3F70 JUMPI PUSH2 0x3F6F PUSH2 0x3F10 JUMP JUMPDEST JUMPDEST POP SWAP3 POP SWAP3 SWAP1 POP JUMP JUMPDEST PUSH1 0x0 DUP3 DUP3 MSTORE PUSH1 0x20 DUP3 ADD SWAP1 POP SWAP3 SWAP2 POP POP JUMP JUMPDEST PUSH1 0x0 PUSH2 0x3F95 DUP4 DUP6 PUSH2 0x3F78 JUMP JUMPDEST SWAP4 POP PUSH2 0x3FA2 DUP4 DUP6 DUP5 PUSH2 0x3961 JUMP JUMPDEST PUSH2 0x3FAB DUP4 PUSH2 0x3643 JUMP JUMPDEST DUP5 ADD SWAP1 POP SWAP4 SWAP3 POP POP POP JUMP JUMPDEST PUSH1 0x0 PUSH2 0x3FC5 PUSH1 0x20 DUP5 ADD DUP5 PUSH2 0x350E JUMP JUMPDEST SWAP1 POP SWAP3 SWAP2 POP POP JUMP JUMPDEST PUSH2 0x3FD6 DUP2 PUSH2 0x34BB JUMP JUMPDEST DUP3 MSTORE POP POP JUMP JUMPDEST PUSH1 0x0 PUSH2 0x3FEB PUSH1 0x20 DUP5 ADD DUP5 PUSH2 0x33C1 JUMP JUMPDEST SWAP1 POP SWAP3 SWAP2 POP POP JUMP JUMPDEST PUSH1 0x0 PUSH1 0xA0 DUP4 ADD PUSH2 0x4006 PUSH1 0x0 DUP5 ADD DUP5 PUSH2 0x3F15 JUMP JUMPDEST DUP6 DUP4 SUB PUSH1 0x0 DUP8 ADD MSTORE PUSH2 0x4019 DUP4 DUP3 DUP5 PUSH2 0x3F89 JUMP JUMPDEST SWAP3 POP POP POP PUSH2 0x402A PUSH1 0x20 DUP5 ADD DUP5 PUSH2 0x3FB6 JUMP JUMPDEST PUSH2 0x4037 PUSH1 0x20 DUP7 ADD DUP3 PUSH2 0x3FCD JUMP JUMPDEST POP PUSH2 0x4045 PUSH1 0x40 DUP5 ADD DUP5 PUSH2 0x3FDC JUMP JUMPDEST PUSH2 0x4052 PUSH1 0x40 DUP7 ADD DUP3 PUSH2 0x3227 JUMP JUMPDEST POP PUSH2 0x4060 PUSH1 0x60 DUP5 ADD DUP5 PUSH2 0x3FDC JUMP JUMPDEST PUSH2 0x406D PUSH1 0x60 DUP7 ADD DUP3 PUSH2 0x3227 JUMP JUMPDEST POP PUSH2 0x407B PUSH1 0x80 DUP5 ADD DUP5 PUSH2 0x3FDC JUMP JUMPDEST PUSH2 0x4088 PUSH1 0x80 DUP7 ADD DUP3 PUSH2 0x3227 JUMP JUMPDEST POP DUP1 SWAP2 POP POP SWAP3 SWAP2 POP POP JUMP JUMPDEST PUSH1 0x0 PUSH1 0x60 DUP4 ADD PUSH2 0x40A6 PUSH1 0x0 DUP5 ADD DUP5 PUSH2 0x3EE3 JUMP JUMPDEST DUP5 DUP3 SUB PUSH1 0x0 DUP7 ADD MSTORE PUSH2 0x40B8 DUP3 DUP3 PUSH2 0x3FF3 JUMP JUMPDEST SWAP2 POP POP PUSH2 0x40C8 PUSH1 0x20 DUP5 ADD DUP5 PUSH2 0x3FB6 JUMP JUMPDEST PUSH2 0x40D5 PUSH1 0x20 DUP7 ADD DUP3 PUSH2 0x3FCD JUMP JUMPDEST POP PUSH2 0x40E3 PUSH1 0x40 DUP5 ADD DUP5 PUSH2 0x3FB6 JUMP JUMPDEST PUSH2 0x40F0 PUSH1 0x40 DUP7 ADD DUP3 PUSH2 0x3FCD JUMP JUMPDEST POP DUP1 SWAP2 POP POP SWAP3 SWAP2 POP POP JUMP JUMPDEST PUSH1 0x0 PUSH1 0x40 DUP3 ADD SWAP1 POP PUSH2 0x4110 PUSH1 0x0 DUP4 ADD DUP6 PUSH2 0x34CD JUMP JUMPDEST DUP2 DUP2 SUB PUSH1 0x20 DUP4 ADD MSTORE PUSH2 0x4122 DUP2 DUP5 PUSH2 0x4093 JUMP JUMPDEST SWAP1 POP SWAP4 SWAP3 POP POP POP JUMP JUMPDEST PUSH1 0x0 DUP2 MLOAD SWAP1 POP PUSH2 0x413A DUP2 PUSH2 0x33AA JUMP JUMPDEST SWAP3 SWAP2 POP POP JUMP JUMPDEST PUSH1 0x0 PUSH1 0x20 DUP3 DUP5 SUB SLT ISZERO PUSH2 0x4156 JUMPI PUSH2 0x4155 PUSH2 0x32E5 JUMP JUMPDEST JUMPDEST PUSH1 0x0 PUSH2 0x4164 DUP5 DUP3 DUP6 ADD PUSH2 0x412B JUMP JUMPDEST SWAP2 POP POP SWAP3 SWAP2 POP POP JUMP JUMPDEST PUSH32 0x726F757465720000000000000000000000000000000000000000000000000000 PUSH1 0x0 DUP3 ADD MSTORE POP JUMP JUMPDEST PUSH1 0x0 PUSH2 0x41A3 PUSH1 0x6 DUP4 PUSH2 0x3108 JUMP JUMPDEST SWAP2 POP PUSH2 0x41AE DUP3 PUSH2 0x416D JUMP JUMPDEST PUSH1 0x6 DUP3 ADD SWAP1 POP SWAP2 SWAP1 POP JUMP JUMPDEST PUSH1 0x0 PUSH2 0x41C4 DUP3 PUSH2 0x4196 JUMP JUMPDEST SWAP2 POP DUP2 SWAP1 POP SWAP2 SWAP1 POP JUMP JUMPDEST PUSH1 0x0 PUSH32 0xFF00000000000000000000000000000000000000000000000000000000000000 DUP3 AND SWAP1 POP SWAP2 SWAP1 POP JUMP JUMPDEST PUSH1 0x0 DUP2 SWAP1 POP SWAP2 SWAP1 POP JUMP JUMPDEST PUSH2 0x4215 PUSH2 0x4210 DUP3 PUSH2 0x41CE JUMP JUMPDEST PUSH2 0x41FA JUMP JUMPDEST DUP3 MSTORE POP POP JUMP JUMPDEST PUSH1 0x0 PUSH2 0x4227 DUP3 DUP5 PUSH2 0x4204 JUMP JUMPDEST PUSH1 0x1 DUP3 ADD SWAP2 POP DUP2 SWAP1 POP SWAP3 SWAP2 POP POP JUMP JUMPDEST PUSH1 0x0 DUP1 DUP4 CALLDATALOAD PUSH1 0x1 PUSH1 0x20 SUB DUP5 CALLDATASIZE SUB SUB DUP2 SLT PUSH2 0x4253 JUMPI PUSH2 0x4252 PUSH2 0x3E7F JUMP JUMPDEST JUMPDEST DUP1 DUP5 ADD SWAP3 POP DUP3 CALLDATALOAD SWAP2 POP PUSH8 0xFFFFFFFFFFFFFFFF DUP3 GT ISZERO PUSH2 0x4275 JUMPI PUSH2 0x4274 PUSH2 0x3E84 JUMP JUMPDEST JUMPDEST PUSH1 0x20 DUP4 ADD SWAP3 POP PUSH1 0x1 DUP3 MUL CALLDATASIZE SUB DUP4 SGT ISZERO PUSH2 0x4291 JUMPI PUSH2 0x4290 PUSH2 0x3E89 JUMP JUMPDEST JUMPDEST POP SWAP3 POP SWAP3 SWAP1 POP JUMP JUMPDEST PUSH1 0x0 DUP3 DUP3 MSTORE PUSH1 0x20 DUP3 ADD SWAP1 POP SWAP3 SWAP2 POP POP JUMP JUMPDEST PUSH1 0x0 PUSH2 0x42B6 DUP4 DUP6 PUSH2 0x4299 JUMP JUMPDEST SWAP4 POP PUSH2 0x42C3 DUP4 DUP6 DUP5 PUSH2 0x3961 JUMP JUMPDEST PUSH2 0x42CC DUP4 PUSH2 0x3643 JUMP JUMPDEST DUP5 ADD SWAP1 POP SWAP4 SWAP3 POP POP POP JUMP JUMPDEST PUSH1 0x0 PUSH1 0xA0 DUP3 ADD SWAP1 POP PUSH2 0x42EC PUSH1 0x0 DUP4 ADD DUP10 PUSH2 0x34CD JUMP JUMPDEST PUSH2 0x42F9 PUSH1 0x20 DUP4 ADD DUP9 PUSH2 0x3A29 JUMP JUMPDEST PUSH2 0x4306 PUSH1 0x40 DUP4 ADD DUP8 PUSH2 0x3A29 JUMP JUMPDEST DUP2 DUP2 SUB PUSH1 0x60 DUP4 ADD MSTORE PUSH2 0x4319 DUP2 DUP6 DUP8 PUSH2 0x42AA JUMP JUMPDEST SWAP1 POP PUSH2 0x4328 PUSH1 0x80 DUP4 ADD DUP5 PUSH2 0x3380 JUMP JUMPDEST SWAP8 SWAP7 POP POP POP POP POP POP POP JUMP JUMPDEST PUSH1 0x0 DUP2 MLOAD SWAP1 POP SWAP2 SWAP1 POP JUMP JUMPDEST PUSH1 0x0 PUSH2 0x4349 DUP3 PUSH2 0x4333 JUMP JUMPDEST PUSH2 0x4353 DUP2 DUP6 PUSH2 0x4299 JUMP JUMPDEST SWAP4 POP PUSH2 0x4363 DUP2 DUP6 PUSH1 0x20 DUP7 ADD PUSH2 0x3619 JUMP JUMPDEST PUSH2 0x436C DUP2 PUSH2 0x3643 JUMP JUMPDEST DUP5 ADD SWAP2 POP POP SWAP3 SWAP2 POP POP JUMP JUMPDEST PUSH1 0x0 DUP2 MLOAD SWAP1 POP SWAP2 SWAP1 POP JUMP JUMPDEST PUSH1 0x0 DUP3 DUP3 MSTORE PUSH1 0x20 DUP3 ADD SWAP1 POP SWAP3 SWAP2 POP POP JUMP JUMPDEST PUSH1 0x0 DUP2 SWAP1 POP PUSH1 0x20 DUP3 ADD SWAP1 POP SWAP2 SWAP1 POP JUMP JUMPDEST PUSH1 0x0 PUSH2 0x43AE DUP3 PUSH2 0x4333 JUMP JUMPDEST PUSH2 0x43B8 DUP2 DUP6 PUSH2 0x3F78 JUMP JUMPDEST SWAP4 POP PUSH2 0x43C8 DUP2 DUP6 PUSH1 0x20 DUP7 ADD PUSH2 0x3619 JUMP JUMPDEST PUSH2 0x43D1 DUP2 PUSH2 0x3643 JUMP JUMPDEST DUP5 ADD SWAP2 POP POP SWAP3 SWAP2 POP POP JUMP JUMPDEST PUSH1 0x0 PUSH2 0x43E8 DUP4 DUP4 PUSH2 0x43A3 JUMP JUMPDEST SWAP1 POP SWAP3 SWAP2 POP POP JUMP JUMPDEST PUSH1 0x0 PUSH1 0x20 DUP3 ADD SWAP1 POP SWAP2 SWAP1 POP JUMP JUMPDEST PUSH1 0x0 PUSH2 0x4408 DUP3 PUSH2 0x4377 JUMP JUMPDEST PUSH2 0x4412 DUP2 DUP6 PUSH2 0x4382 JUMP JUMPDEST SWAP4 POP DUP4 PUSH1 0x20 DUP3 MUL DUP6 ADD PUSH2 0x4424 DUP6 PUSH2 0x4393 JUMP JUMPDEST DUP1 PUSH1 0x0 JUMPDEST DUP6 DUP2 LT ISZERO PUSH2 0x4460 JUMPI DUP5 DUP5 SUB DUP10 MSTORE DUP2 MLOAD PUSH2 0x4441 DUP6 DUP3 PUSH2 0x43DC JUMP JUMPDEST SWAP5 POP PUSH2 0x444C DUP4 PUSH2 0x43F0 JUMP JUMPDEST SWAP3 POP PUSH1 0x20 DUP11 ADD SWAP10 POP POP PUSH1 0x1 DUP2 ADD SWAP1 POP PUSH2 0x4428 JUMP JUMPDEST POP DUP3 SWAP8 POP DUP8 SWAP6 POP POP POP POP POP POP SWAP3 SWAP2 POP POP JUMP JUMPDEST PUSH1 0x0 PUSH1 0x60 DUP3 ADD SWAP1 POP DUP2 DUP2 SUB PUSH1 0x0 DUP4 ADD MSTORE PUSH2 0x448C DUP2 DUP7 PUSH2 0x433E JUMP JUMPDEST SWAP1 POP DUP2 DUP2 SUB PUSH1 0x20 DUP4 ADD MSTORE PUSH2 0x44A0 DUP2 DUP6 PUSH2 0x43FD JUMP JUMPDEST SWAP1 POP PUSH2 0x44AF PUSH1 0x40 DUP4 ADD DUP5 PUSH2 0x3A29 JUMP JUMPDEST SWAP5 SWAP4 POP POP POP POP JUMP JUMPDEST PUSH1 0x0 DUP2 PUSH1 0xE0 SHR SWAP1 POP SWAP2 SWAP1 POP JUMP JUMPDEST PUSH1 0x0 PUSH1 0x3 RETURNDATASIZE GT ISZERO PUSH2 0x44E3 JUMPI PUSH1 0x4 PUSH1 0x0 DUP1 RETURNDATACOPY PUSH2 0x44E0 PUSH1 0x0 MLOAD PUSH2 0x44B7 JUMP JUMPDEST SWAP1 POP JUMPDEST SWAP1 JUMP JUMPDEST PUSH1 0x0 PUSH1 0x44 RETURNDATASIZE LT PUSH2 0x4573 JUMPI PUSH2 0x44F8 PUSH2 0x32DB JUMP JUMPDEST PUSH1 0x4 RETURNDATASIZE SUB PUSH1 0x4 DUP3 RETURNDATACOPY DUP1 MLOAD RETURNDATASIZE PUSH1 0x24 DUP3 ADD GT PUSH8 0xFFFFFFFFFFFFFFFF DUP3 GT OR ISZERO PUSH2 0x4520 JUMPI POP POP PUSH2 0x4573 JUMP JUMPDEST DUP1 DUP3 ADD DUP1 MLOAD PUSH8 0xFFFFFFFFFFFFFFFF DUP2 GT ISZERO PUSH2 0x453E JUMPI POP POP POP POP PUSH2 0x4573 JUMP JUMPDEST DUP1 PUSH1 0x20 DUP4 ADD ADD PUSH1 0x4 RETURNDATASIZE SUB DUP6 ADD DUP2 GT ISZERO PUSH2 0x455B JUMPI POP POP POP POP POP PUSH2 0x4573 JUMP JUMPDEST PUSH2 0x456A DUP3 PUSH1 0x20 ADD DUP6 ADD DUP7 PUSH2 0x38E4 JUMP JUMPDEST DUP3 SWAP6 POP POP POP POP POP POP JUMPDEST SWAP1 JUMP JUMPDEST PUSH1 0x0 PUSH1 0x60 DUP3 ADD SWAP1 POP PUSH2 0x458B PUSH1 0x0 DUP4 ADD DUP7 PUSH2 0x3A29 JUMP JUMPDEST PUSH2 0x4598 PUSH1 0x20 DUP4 ADD DUP6 PUSH2 0x3A29 JUMP JUMPDEST DUP2 DUP2 SUB PUSH1 0x40 DUP4 ADD MSTORE PUSH2 0x45AA DUP2 DUP5 PUSH2 0x3855 JUMP JUMPDEST SWAP1 POP SWAP5 SWAP4 POP POP POP POP JUMP JUMPDEST PUSH1 0x0 PUSH2 0x45BF DUP3 PUSH2 0x321D JUMP JUMPDEST SWAP2 POP PUSH2 0x45CA DUP4 PUSH2 0x321D JUMP JUMPDEST SWAP3 POP DUP3 DUP3 MUL PUSH2 0x45D8 DUP2 PUSH2 0x321D JUMP JUMPDEST SWAP2 POP DUP3 DUP3 DIV DUP5 EQ DUP4 ISZERO OR PUSH2 0x45EF JUMPI PUSH2 0x45EE PUSH2 0x3C58 JUMP JUMPDEST JUMPDEST POP SWAP3 SWAP2 POP POP JUMP JUMPDEST PUSH32 0x4E487B7100000000000000000000000000000000000000000000000000000000 PUSH1 0x0 MSTORE PUSH1 0x12 PUSH1 0x4 MSTORE PUSH1 0x24 PUSH1 0x0 REVERT JUMPDEST PUSH1 0x0 PUSH2 0x4630 DUP3 PUSH2 0x321D JUMP JUMPDEST SWAP2 POP PUSH2 0x463B DUP4 PUSH2 0x321D JUMP JUMPDEST SWAP3 POP DUP3 PUSH2 0x464B JUMPI PUSH2 0x464A PUSH2 0x45F6 JUMP JUMPDEST JUMPDEST DUP3 DUP3 DIV SWAP1 POP SWAP3 SWAP2 POP POP JUMP JUMPDEST PUSH32 0x416D6F756E744F75744D696E696D756D546F6F4C6F7700000000000000000000 PUSH1 0x0 DUP3 ADD MSTORE POP JUMP JUMPDEST PUSH1 0x0 PUSH2 0x468C PUSH1 0x16 DUP4 PUSH2 0x3174 JUMP JUMPDEST SWAP2 POP PUSH2 0x4697 DUP3 PUSH2 0x4656 JUMP JUMPDEST PUSH1 0x20 DUP3 ADD SWAP1 POP SWAP2 SWAP1 POP JUMP JUMPDEST PUSH1 0x0 PUSH1 0x60 DUP3 ADD SWAP1 POP PUSH2 0x46B7 PUSH1 0x0 DUP4 ADD DUP6 PUSH2 0x3A29 JUMP JUMPDEST PUSH2 0x46C4 PUSH1 0x20 DUP4 ADD DUP5 PUSH2 0x3A29 JUMP JUMPDEST DUP2 DUP2 SUB PUSH1 0x40 DUP4 ADD MSTORE PUSH2 0x46D5 DUP2 PUSH2 0x467F JUMP JUMPDEST SWAP1 POP SWAP4 SWAP3 POP POP POP JUMP JUMPDEST PUSH1 0x0 PUSH1 0x80 DUP3 ADD SWAP1 POP PUSH2 0x46F3 PUSH1 0x0 DUP4 ADD DUP8 PUSH2 0x34CD JUMP JUMPDEST PUSH2 0x4700 PUSH1 0x20 DUP4 ADD DUP7 PUSH2 0x34CD JUMP JUMPDEST PUSH2 0x470D PUSH1 0x40 DUP4 ADD DUP6 PUSH2 0x3A29 JUMP JUMPDEST PUSH2 0x471A PUSH1 0x60 DUP4 ADD DUP5 PUSH2 0x3A29 JUMP JUMPDEST SWAP6 SWAP5 POP POP POP POP POP JUMP JUMPDEST PUSH1 0x0 PUSH2 0x472E DUP3 PUSH2 0x35FD JUMP JUMPDEST PUSH2 0x4738 DUP2 DUP6 PUSH2 0x3108 JUMP JUMPDEST SWAP4 POP PUSH2 0x4748 DUP2 DUP6 PUSH1 0x20 DUP7 ADD PUSH2 0x3619 JUMP JUMPDEST DUP1 DUP5 ADD SWAP2 POP POP SWAP3 SWAP2 POP POP JUMP JUMPDEST PUSH1 0x0 PUSH2 0x4760 DUP3 DUP5 PUSH2 0x4723 JUMP JUMPDEST SWAP2 POP DUP2 SWAP1 POP SWAP3 SWAP2 POP POP JUMP JUMPDEST PUSH32 0x416363657373436F6E74726F6C3A2063616E206F6E6C792072656E6F756E6365 PUSH1 0x0 DUP3 ADD MSTORE PUSH32 0x20726F6C657320666F722073656C660000000000000000000000000000000000 PUSH1 0x20 DUP3 ADD MSTORE POP JUMP JUMPDEST PUSH1 0x0 PUSH2 0x47C7 PUSH1 0x2F DUP4 PUSH2 0x3174 JUMP JUMPDEST SWAP2 POP PUSH2 0x47D2 DUP3 PUSH2 0x476B JUMP JUMPDEST PUSH1 0x40 DUP3 ADD SWAP1 POP SWAP2 SWAP1 POP JUMP JUMPDEST PUSH1 0x0 PUSH1 0x20 DUP3 ADD SWAP1 POP DUP2 DUP2 SUB PUSH1 0x0 DUP4 ADD MSTORE PUSH2 0x47F6 DUP2 PUSH2 0x47BA JUMP JUMPDEST SWAP1 POP SWAP2 SWAP1 POP JUMP JUMPDEST PUSH32 0x496E697469616C697A61626C653A20636F6E747261637420697320616C726561 PUSH1 0x0 DUP3 ADD MSTORE PUSH32 0x647920696E697469616C697A6564000000000000000000000000000000000000 PUSH1 0x20 DUP3 ADD MSTORE POP JUMP JUMPDEST PUSH1 0x0 PUSH2 0x4859 PUSH1 0x2E DUP4 PUSH2 0x3174 JUMP JUMPDEST SWAP2 POP PUSH2 0x4864 DUP3 PUSH2 0x47FD JUMP JUMPDEST PUSH1 0x40 DUP3 ADD SWAP1 POP SWAP2 SWAP1 POP JUMP JUMPDEST PUSH1 0x0 PUSH1 0x20 DUP3 ADD SWAP1 POP DUP2 DUP2 SUB PUSH1 0x0 DUP4 ADD MSTORE PUSH2 0x4888 DUP2 PUSH2 0x484C JUMP JUMPDEST SWAP1 POP SWAP2 SWAP1 POP JUMP JUMPDEST PUSH1 0x0 PUSH1 0x5 SWAP1 POP SWAP2 SWAP1 POP JUMP JUMPDEST PUSH1 0x0 DUP2 SWAP1 POP SWAP2 SWAP1 POP JUMP JUMPDEST PUSH1 0x0 PUSH2 0x48B0 DUP4 DUP6 PUSH2 0x3608 JUMP JUMPDEST SWAP4 POP PUSH2 0x48BD DUP4 DUP6 DUP5 PUSH2 0x3961 JUMP JUMPDEST PUSH2 0x48C6 DUP4 PUSH2 0x3643 JUMP JUMPDEST DUP5 ADD SWAP1 POP SWAP4 SWAP3 POP POP POP JUMP JUMPDEST PUSH1 0x0 PUSH2 0x48DE DUP5 DUP5 DUP5 PUSH2 0x48A4 JUMP JUMPDEST SWAP1 POP SWAP4 SWAP3 POP POP POP JUMP JUMPDEST PUSH1 0x0 DUP1 DUP4 CALLDATALOAD PUSH1 0x1 PUSH1 0x20 SUB DUP5 CALLDATASIZE SUB SUB DUP2 SLT PUSH2 0x4904 JUMPI PUSH2 0x4903 PUSH2 0x3EDE JUMP JUMPDEST JUMPDEST DUP4 DUP2 ADD SWAP3 POP DUP3 CALLDATALOAD SWAP2 POP PUSH1 0x20 DUP4 ADD SWAP3 POP PUSH8 0xFFFFFFFFFFFFFFFF DUP3 GT ISZERO PUSH2 0x492C JUMPI PUSH2 0x492B PUSH2 0x3F0B JUMP JUMPDEST JUMPDEST PUSH1 0x1 DUP3 MUL CALLDATASIZE SUB DUP4 SGT ISZERO PUSH2 0x4942 JUMPI PUSH2 0x4941 PUSH2 0x3F10 JUMP JUMPDEST JUMPDEST POP SWAP3 POP SWAP3 SWAP1 POP JUMP JUMPDEST PUSH1 0x0 PUSH1 0x20 DUP3 ADD SWAP1 POP SWAP2 SWAP1 POP JUMP JUMPDEST PUSH1 0x0 PUSH2 0x4962 DUP3 PUSH2 0x488F JUMP JUMPDEST PUSH2 0x496C DUP2 DUP6 PUSH2 0x35E8 JUMP JUMPDEST SWAP4 POP DUP4 PUSH1 0x20 DUP3 MUL DUP6 ADD PUSH2 0x497E DUP6 PUSH2 0x489A JUMP JUMPDEST DUP1 PUSH1 0x0 JUMPDEST DUP6 DUP2 LT ISZERO PUSH2 0x49C4 JUMPI DUP5 DUP5 SUB DUP10 MSTORE PUSH2 0x4999 DUP3 DUP5 PUSH2 0x48E7 JUMP JUMPDEST PUSH2 0x49A4 DUP7 DUP3 DUP5 PUSH2 0x48D1 JUMP JUMPDEST SWAP6 POP PUSH2 0x49AF DUP5 PUSH2 0x494A JUMP JUMPDEST SWAP4 POP PUSH1 0x20 DUP12 ADD SWAP11 POP POP POP PUSH1 0x1 DUP2 ADD SWAP1 POP PUSH2 0x4982 JUMP JUMPDEST POP DUP3 SWAP8 POP DUP8 SWAP6 POP POP POP POP POP POP SWAP3 SWAP2 POP POP JUMP JUMPDEST PUSH1 0x0 PUSH1 0x5 SWAP1 POP SWAP2 SWAP1 POP JUMP JUMPDEST PUSH1 0x0 DUP2 SWAP1 POP SWAP3 SWAP2 POP POP JUMP JUMPDEST PUSH1 0x0 DUP2 SWAP1 POP SWAP2 SWAP1 POP JUMP JUMPDEST PUSH1 0x0 PUSH2 0x4A02 DUP4 DUP4 PUSH2 0x3FCD JUMP JUMPDEST PUSH1 0x20 DUP4 ADD SWAP1 POP SWAP3 SWAP2 POP POP JUMP JUMPDEST PUSH1 0x0 PUSH1 0x20 DUP3 ADD SWAP1 POP SWAP2 SWAP1 POP JUMP JUMPDEST PUSH2 0x4A24 DUP2 PUSH2 0x49D6 JUMP JUMPDEST PUSH2 0x4A2E DUP2 DUP5 PUSH2 0x49E1 JUMP JUMPDEST SWAP3 POP PUSH2 0x4A39 DUP3 PUSH2 0x49EC JUMP JUMPDEST DUP1 PUSH1 0x0 JUMPDEST DUP4 DUP2 LT ISZERO PUSH2 0x4A72 JUMPI PUSH2 0x4A4F DUP3 DUP5 PUSH2 0x3FB6 JUMP JUMPDEST PUSH2 0x4A59 DUP8 DUP3 PUSH2 0x49F6 JUMP JUMPDEST SWAP7 POP PUSH2 0x4A64 DUP4 PUSH2 0x4A0E JUMP JUMPDEST SWAP3 POP POP PUSH1 0x1 DUP2 ADD SWAP1 POP PUSH2 0x4A3D JUMP JUMPDEST POP POP POP POP POP POP JUMP JUMPDEST PUSH1 0x0 PUSH1 0x3 SWAP1 POP SWAP2 SWAP1 POP JUMP JUMPDEST PUSH1 0x0 DUP2 SWAP1 POP SWAP3 SWAP2 POP POP JUMP JUMPDEST PUSH1 0x0 DUP2 SWAP1 POP SWAP2 SWAP1 POP JUMP JUMPDEST PUSH1 0x0 PUSH1 0x20 DUP3 ADD SWAP1 POP SWAP2 SWAP1 POP JUMP JUMPDEST PUSH2 0x4AB0 DUP2 PUSH2 0x4A7A JUMP JUMPDEST PUSH2 0x4ABA DUP2 DUP5 PUSH2 0x4A85 JUMP JUMPDEST SWAP3 POP PUSH2 0x4AC5 DUP3 PUSH2 0x4A90 JUMP JUMPDEST DUP1 PUSH1 0x0 JUMPDEST DUP4 DUP2 LT ISZERO PUSH2 0x4AFE JUMPI PUSH2 0x4ADB DUP3 DUP5 PUSH2 0x3FB6 JUMP JUMPDEST PUSH2 0x4AE5 DUP8 DUP3 PUSH2 0x49F6 JUMP JUMPDEST SWAP7 POP PUSH2 0x4AF0 DUP4 PUSH2 0x4A9A JUMP JUMPDEST SWAP3 POP POP PUSH1 0x1 DUP2 ADD SWAP1 POP PUSH2 0x4AC9 JUMP JUMPDEST POP POP POP POP POP POP JUMP JUMPDEST PUSH1 0x0 PUSH1 0x2 SWAP1 POP SWAP2 SWAP1 POP JUMP JUMPDEST PUSH1 0x0 DUP2 SWAP1 POP SWAP3 SWAP2 POP POP JUMP JUMPDEST PUSH1 0x0 DUP2 SWAP1 POP SWAP2 SWAP1 POP JUMP JUMPDEST PUSH1 0x0 PUSH1 0x20 DUP3 ADD SWAP1 POP SWAP2 SWAP1 POP JUMP JUMPDEST PUSH1 0x0 PUSH2 0x4B3E DUP3 PUSH2 0x4B06 JUMP JUMPDEST PUSH2 0x4B48 DUP2 DUP6 PUSH2 0x4B11 JUMP JUMPDEST SWAP4 POP DUP4 PUSH1 0x20 DUP3 MUL DUP6 ADD PUSH2 0x4B5A DUP6 PUSH2 0x4B1C JUMP JUMPDEST DUP1 PUSH1 0x0 JUMPDEST DUP6 DUP2 LT ISZERO PUSH2 0x4BA0 JUMPI DUP5 DUP5 SUB DUP10 MSTORE PUSH2 0x4B75 DUP3 DUP5 PUSH2 0x48E7 JUMP JUMPDEST PUSH2 0x4B80 DUP7 DUP3 DUP5 PUSH2 0x48D1 JUMP JUMPDEST SWAP6 POP PUSH2 0x4B8B DUP5 PUSH2 0x4B26 JUMP JUMPDEST SWAP4 POP PUSH1 0x20 DUP12 ADD SWAP11 POP POP POP PUSH1 0x1 DUP2 ADD SWAP1 POP PUSH2 0x4B5E JUMP JUMPDEST POP DUP3 SWAP8 POP DUP8 SWAP6 POP POP POP POP POP POP SWAP3 SWAP2 POP POP JUMP JUMPDEST PUSH1 0x0 PUSH1 0x2 SWAP1 POP SWAP2 SWAP1 POP JUMP JUMPDEST PUSH1 0x0 DUP2 SWAP1 POP SWAP3 SWAP2 POP POP JUMP JUMPDEST PUSH1 0x0 DUP2 SWAP1 POP SWAP2 SWAP1 POP JUMP JUMPDEST PUSH1 0x0 PUSH1 0x20 DUP3 ADD SWAP1 POP SWAP2 SWAP1 POP JUMP JUMPDEST PUSH2 0x4BE8 DUP2 PUSH2 0x4BB2 JUMP JUMPDEST PUSH2 0x4BF2 DUP2 DUP5 PUSH2 0x4BBD JUMP JUMPDEST SWAP3 POP PUSH2 0x4BFD DUP3 PUSH2 0x4BC8 JUMP JUMPDEST DUP1 PUSH1 0x0 JUMPDEST DUP4 DUP2 LT ISZERO PUSH2 0x4C36 JUMPI PUSH2 0x4C13 DUP3 DUP5 PUSH2 0x3FB6 JUMP JUMPDEST PUSH2 0x4C1D DUP8 DUP3 PUSH2 0x49F6 JUMP JUMPDEST SWAP7 POP PUSH2 0x4C28 DUP4 PUSH2 0x4BD2 JUMP JUMPDEST SWAP3 POP POP PUSH1 0x1 DUP2 ADD SWAP1 POP PUSH2 0x4C01 JUMP JUMPDEST POP POP POP POP POP POP JUMP JUMPDEST PUSH1 0x0 PUSH2 0x200 DUP3 ADD SWAP1 POP DUP2 DUP2 SUB PUSH1 0x0 DUP4 ADD MSTORE PUSH2 0x4C59 DUP2 DUP13 PUSH2 0x4957 JUMP JUMPDEST SWAP1 POP PUSH2 0x4C68 PUSH1 0x20 DUP4 ADD DUP12 PUSH2 0x4A1B JUMP JUMPDEST PUSH2 0x4C75 PUSH1 0xC0 DUP4 ADD DUP11 PUSH2 0x4AA7 JUMP JUMPDEST PUSH2 0x4C83 PUSH2 0x120 DUP4 ADD DUP10 PUSH2 0x34CD JUMP JUMPDEST PUSH2 0x4C91 PUSH2 0x140 DUP4 ADD DUP9 PUSH2 0x34CD JUMP JUMPDEST PUSH2 0x4C9F PUSH2 0x160 DUP4 ADD DUP8 PUSH2 0x34CD JUMP JUMPDEST PUSH2 0x4CAD PUSH2 0x180 DUP4 ADD DUP7 PUSH2 0x34CD JUMP JUMPDEST DUP2 DUP2 SUB PUSH2 0x1A0 DUP4 ADD MSTORE PUSH2 0x4CC0 DUP2 DUP6 PUSH2 0x4B33 JUMP JUMPDEST SWAP1 POP PUSH2 0x4CD0 PUSH2 0x1C0 DUP4 ADD DUP5 PUSH2 0x4BDF JUMP JUMPDEST SWAP11 SWAP10 POP POP POP POP POP POP POP POP POP POP JUMP JUMPDEST PUSH1 0x0 DUP1 DUP4 CALLDATALOAD PUSH1 0x1 PUSH1 0x20 SUB DUP5 CALLDATASIZE SUB SUB DUP2 SLT PUSH2 0x4CFB JUMPI PUSH2 0x4CFA PUSH2 0x3E7F JUMP JUMPDEST JUMPDEST DUP1 DUP5 ADD SWAP3 POP DUP3 CALLDATALOAD SWAP2 POP PUSH8 0xFFFFFFFFFFFFFFFF DUP3 GT ISZERO PUSH2 0x4D1D JUMPI PUSH2 0x4D1C PUSH2 0x3E84 JUMP JUMPDEST JUMPDEST PUSH1 0x20 DUP4 ADD SWAP3 POP PUSH1 0x1 DUP3 MUL CALLDATASIZE SUB DUP4 SGT ISZERO PUSH2 0x4D39 JUMPI PUSH2 0x4D38 PUSH2 0x3E89 JUMP JUMPDEST JUMPDEST POP SWAP3 POP SWAP3 SWAP1 POP JUMP JUMPDEST PUSH1 0x0 DUP3 SWAP1 POP SWAP3 SWAP2 POP POP JUMP JUMPDEST PUSH1 0x0 DUP2 SWAP1 POP DUP2 PUSH1 0x0 MSTORE PUSH1 0x20 PUSH1 0x0 KECCAK256 SWAP1 POP SWAP2 SWAP1 POP JUMP JUMPDEST PUSH1 0x0 PUSH1 0x20 PUSH1 0x1F DUP4 ADD DIV SWAP1 POP SWAP2 SWAP1 POP JUMP JUMPDEST PUSH1 0x0 DUP3 DUP3 SHL SWAP1 POP SWAP3 SWAP2 POP POP JUMP JUMPDEST PUSH1 0x0 PUSH1 0x8 DUP4 MUL PUSH2 0x4DAE PUSH32 0xFFFFFFFFFFFFFFFFFFFFFFFFFFFFFFFFFFFFFFFFFFFFFFFFFFFFFFFFFFFFFFFF DUP3 PUSH2 0x4D71 JUMP JUMPDEST PUSH2 0x4DB8 DUP7 DUP4 PUSH2 0x4D71 JUMP JUMPDEST SWAP6 POP DUP1 NOT DUP5 AND SWAP4 POP DUP1 DUP7 AND DUP5 OR SWAP3 POP POP POP SWAP4 SWAP3 POP POP POP JUMP JUMPDEST PUSH1 0x0 DUP2 SWAP1 POP SWAP2 SWAP1 POP JUMP JUMPDEST PUSH1 0x0 PUSH2 0x4DF5 PUSH2 0x4DF0 PUSH2 0x4DEB DUP5 PUSH2 0x321D JUMP JUMPDEST PUSH2 0x4DD0 JUMP JUMPDEST PUSH2 0x321D JUMP JUMPDEST SWAP1 POP SWAP2 SWAP1 POP JUMP JUMPDEST PUSH1 0x0 DUP2 SWAP1 POP SWAP2 SWAP1 POP JUMP JUMPDEST PUSH2 0x4E0F DUP4 PUSH2 0x4DDA JUMP JUMPDEST PUSH2 0x4E23 PUSH2 0x4E1B DUP3 PUSH2 0x4DFC JUMP JUMPDEST DUP5 DUP5 SLOAD PUSH2 0x4D7E JUMP JUMPDEST DUP3 SSTORE POP POP POP POP JUMP JUMPDEST PUSH1 0x0 SWAP1 JUMP JUMPDEST PUSH2 0x4E38 PUSH2 0x4E2B JUMP JUMPDEST PUSH2 0x4E43 DUP2 DUP5 DUP5 PUSH2 0x4E06 JUMP JUMPDEST POP POP POP JUMP JUMPDEST JUMPDEST DUP2 DUP2 LT ISZERO PUSH2 0x4E67 JUMPI PUSH2 0x4E5C PUSH1 0x0 DUP3 PUSH2 0x4E30 JUMP JUMPDEST PUSH1 0x1 DUP2 ADD SWAP1 POP PUSH2 0x4E49 JUMP JUMPDEST POP POP JUMP JUMPDEST PUSH1 0x1F DUP3 GT ISZERO PUSH2 0x4EAC JUMPI PUSH2 0x4E7D DUP2 PUSH2 0x4D4C JUMP JUMPDEST PUSH2 0x4E86 DUP5 PUSH2 0x4D61 JUMP JUMPDEST DUP2 ADD PUSH1 0x20 DUP6 LT ISZERO PUSH2 0x4E95 JUMPI DUP2 SWAP1 POP JUMPDEST PUSH2 0x4EA9 PUSH2 0x4EA1 DUP6 PUSH2 0x4D61 JUMP JUMPDEST DUP4 ADD DUP3 PUSH2 0x4E48 JUMP JUMPDEST POP POP JUMPDEST POP POP POP JUMP JUMPDEST PUSH1 0x0 DUP3 DUP3 SHR SWAP1 POP SWAP3 SWAP2 POP POP JUMP JUMPDEST PUSH1 0x0 PUSH2 0x4ECF PUSH1 0x0 NOT DUP5 PUSH1 0x8 MUL PUSH2 0x4EB1 JUMP JUMPDEST NOT DUP1 DUP4 AND SWAP2 POP POP SWAP3 SWAP2 POP POP JUMP JUMPDEST PUSH1 0x0 PUSH2 0x4EE8 DUP4 DUP4 PUSH2 0x4EBE JUMP JUMPDEST SWAP2 POP DUP3 PUSH1 0x2 MUL DUP3 OR SWAP1 POP SWAP3 SWAP2 POP POP JUMP JUMPDEST PUSH2 0x4F02 DUP4 DUP4 PUSH2 0x4D41 JUMP JUMPDEST PUSH8 0xFFFFFFFFFFFFFFFF DUP2 GT ISZERO PUSH2 0x4F1B JUMPI PUSH2 0x4F1A PUSH2 0x38B5 JUMP JUMPDEST JUMPDEST PUSH2 0x4F25 DUP3 SLOAD PUSH2 0x3D4D JUMP JUMPDEST PUSH2 0x4F30 DUP3 DUP3 DUP6 PUSH2 0x4E6B JUMP JUMPDEST PUSH1 0x0 PUSH1 0x1F DUP4 GT PUSH1 0x1 DUP2 EQ PUSH2 0x4F5F JUMPI PUSH1 0x0 DUP5 ISZERO PUSH2 0x4F4D JUMPI DUP3 DUP8 ADD CALLDATALOAD SWAP1 POP JUMPDEST PUSH2 0x4F57 DUP6 DUP3 PUSH2 0x4EDC JUMP JUMPDEST DUP7 SSTORE POP PUSH2 0x4FBF JUMP JUMPDEST PUSH1 0x1F NOT DUP5 AND PUSH2 0x4F6D DUP7 PUSH2 0x4D4C JUMP JUMPDEST PUSH1 0x0 JUMPDEST DUP3 DUP2 LT ISZERO PUSH2 0x4F95 JUMPI DUP5 DUP10 ADD CALLDATALOAD DUP3 SSTORE PUSH1 0x1 DUP3 ADD SWAP2 POP PUSH1 0x20 DUP6 ADD SWAP5 POP PUSH1 0x20 DUP2 ADD SWAP1 POP PUSH2 0x4F70 JUMP JUMPDEST DUP7 DUP4 LT ISZERO PUSH2 0x4FB2 JUMPI DUP5 DUP10 ADD CALLDATALOAD PUSH2 0x4FAE PUSH1 0x1F DUP10 AND DUP3 PUSH2 0x4EBE JUMP JUMPDEST DUP4 SSTORE POP JUMPDEST PUSH1 0x1 PUSH1 0x2 DUP9 MUL ADD DUP9 SSTORE POP POP POP JUMPDEST POP POP POP POP POP POP POP JUMP JUMPDEST PUSH1 0x0 DUP2 SLOAD PUSH2 0x4FD5 DUP2 PUSH2 0x3D4D JUMP JUMPDEST PUSH2 0x4FDF DUP2 DUP7 PUSH2 0x3108 JUMP JUMPDEST SWAP5 POP PUSH1 0x1 DUP3 AND PUSH1 0x0 DUP2 EQ PUSH2 0x4FFA JUMPI PUSH1 0x1 DUP2 EQ PUSH2 0x500F JUMPI PUSH2 0x5042 JUMP JUMPDEST PUSH1 0xFF NOT DUP4 AND DUP7 MSTORE DUP2 ISZERO ISZERO DUP3 MUL DUP7 ADD SWAP4 POP PUSH2 0x5042 JUMP JUMPDEST PUSH2 0x5018 DUP6 PUSH2 0x4D4C JUMP JUMPDEST PUSH1 0x0 JUMPDEST DUP4 DUP2 LT ISZERO PUSH2 0x503A JUMPI DUP2 SLOAD DUP2 DUP10 ADD MSTORE PUSH1 0x1 DUP3 ADD SWAP2 POP PUSH1 0x20 DUP2 ADD SWAP1 POP PUSH2 0x501B JUMP JUMPDEST DUP4 DUP9 ADD SWAP6 POP POP POP JUMPDEST POP POP POP SWAP3 SWAP2 POP POP JUMP JUMPDEST PUSH1 0x0 PUSH2 0x5057 DUP3 DUP5 PUSH2 0x4FC8 JUMP JUMPDEST SWAP2 POP DUP2 SWAP1 POP SWAP3 SWAP2 POP POP JUMP JUMPDEST PUSH32 0x7377617070657200000000000000000000000000000000000000000000000000 PUSH1 0x0 DUP3 ADD MSTORE POP JUMP JUMPDEST PUSH1 0x0 PUSH2 0x5098 PUSH1 0x7 DUP4 PUSH2 0x3108 JUMP JUMPDEST SWAP2 POP PUSH2 0x50A3 DUP3 PUSH2 0x5062 JUMP JUMPDEST PUSH1 0x7 DUP3 ADD SWAP1 POP SWAP2 SWAP1 POP JUMP JUMPDEST PUSH1 0x0 PUSH2 0x50B9 DUP3 PUSH2 0x508B JUMP JUMPDEST SWAP2 POP DUP2 SWAP1 POP SWAP2 SWAP1 POP JUMP JUMPDEST PUSH1 0x0 PUSH2 0x220 DUP3 ADD SWAP1 POP PUSH2 0x50D9 PUSH1 0x0 DUP4 ADD DUP14 PUSH2 0x34CD JUMP JUMPDEST DUP2 DUP2 SUB PUSH1 0x20 DUP4 ADD MSTORE PUSH2 0x50EB DUP2 DUP13 PUSH2 0x4957 JUMP JUMPDEST SWAP1 POP PUSH2 0x50FA PUSH1 0x40 DUP4 ADD DUP12 PUSH2 0x4A1B JUMP JUMPDEST PUSH2 0x5107 PUSH1 0xE0 DUP4 ADD DUP11 PUSH2 0x4AA7 JUMP JUMPDEST PUSH2 0x5115 PUSH2 0x140 DUP4 ADD DUP10 PUSH2 0x34CD JUMP JUMPDEST PUSH2 0x5123 PUSH2 0x160 DUP4 ADD DUP9 PUSH2 0x34CD JUMP JUMPDEST PUSH2 0x5131 PUSH2 0x180 DUP4 ADD DUP8 PUSH2 0x34CD JUMP JUMPDEST PUSH2 0x513F PUSH2 0x1A0 DUP4 ADD DUP7 PUSH2 0x34CD JUMP JUMPDEST DUP2 DUP2 SUB PUSH2 0x1C0 DUP4 ADD MSTORE PUSH2 0x5152 DUP2 DUP6 PUSH2 0x4B33 JUMP JUMPDEST SWAP1 POP PUSH2 0x5162 PUSH2 0x1E0 DUP4 ADD DUP5 PUSH2 0x4BDF JUMP JUMPDEST SWAP12 SWAP11 POP POP POP POP POP POP POP POP POP POP POP JUMP JUMPDEST PUSH1 0x0 DUP2 SWAP1 POP SWAP2 SWAP1 POP JUMP JUMPDEST PUSH1 0x0 PUSH1 0xFF DUP3 AND SWAP1 POP SWAP2 SWAP1 POP JUMP JUMPDEST PUSH1 0x0 PUSH2 0x51A3 PUSH2 0x519E PUSH2 0x5199 DUP5 PUSH2 0x5171 JUMP JUMPDEST PUSH2 0x4DD0 JUMP JUMPDEST PUSH2 0x517B JUMP JUMPDEST SWAP1 POP SWAP2 SWAP1 POP JUMP JUMPDEST PUSH2 0x51B3 DUP2 PUSH2 0x5188 JUMP JUMPDEST DUP3 MSTORE POP POP JUMP JUMPDEST PUSH1 0x0 PUSH1 0x20 DUP3 ADD SWAP1 POP PUSH2 0x51CE PUSH1 0x0 DUP4 ADD DUP5 PUSH2 0x51AA JUMP JUMPDEST SWAP3 SWAP2 POP POP JUMP JUMPDEST PUSH1 0x0 PUSH1 0x60 DUP3 ADD SWAP1 POP PUSH2 0x51E9 PUSH1 0x0 DUP4 ADD DUP8 PUSH2 0x34CD JUMP JUMPDEST DUP2 DUP2 SUB PUSH1 0x20 DUP4 ADD MSTORE PUSH2 0x51FC DUP2 DUP6 DUP8 PUSH2 0x3E04 JUMP JUMPDEST SWAP1 POP PUSH2 0x520B PUSH1 0x40 DUP4 ADD DUP5 PUSH2 0x3A29 JUMP JUMPDEST SWAP6 SWAP5 POP POP POP POP POP JUMP JUMPDEST PUSH32 0x5265656E7472616E637947756172643A207265656E7472616E742063616C6C00 PUSH1 0x0 DUP3 ADD MSTORE POP JUMP JUMPDEST PUSH1 0x0 PUSH2 0x524A PUSH1 0x1F DUP4 PUSH2 0x3174 JUMP JUMPDEST SWAP2 POP PUSH2 0x5255 DUP3 PUSH2 0x5214 JUMP JUMPDEST PUSH1 0x20 DUP3 ADD SWAP1 POP SWAP2 SWAP1 POP JUMP JUMPDEST PUSH1 0x0 PUSH1 0x20 DUP3 ADD SWAP1 POP DUP2 DUP2 SUB PUSH1 0x0 DUP4 ADD MSTORE PUSH2 0x5279 DUP2 PUSH2 0x523D JUMP JUMPDEST SWAP1 POP SWAP2 SWAP1 POP JUMP JUMPDEST PUSH1 0x0 PUSH1 0x40 DUP3 ADD SWAP1 POP PUSH2 0x5295 PUSH1 0x0 DUP4 ADD DUP6 PUSH2 0x34CD JUMP JUMPDEST PUSH2 0x52A2 PUSH1 0x20 DUP4 ADD DUP5 PUSH2 0x3A29 JUMP JUMPDEST SWAP4 SWAP3 POP POP POP JUMP JUMPDEST PUSH32 0x496E697469616C697A61626C653A20636F6E7472616374206973206E6F742069 PUSH1 0x0 DUP3 ADD MSTORE PUSH32 0x6E697469616C697A696E67000000000000000000000000000000000000000000 PUSH1 0x20 DUP3 ADD MSTORE POP JUMP JUMPDEST PUSH1 0x0 PUSH2 0x5305 PUSH1 0x2B DUP4 PUSH2 0x3174 JUMP JUMPDEST SWAP2 POP PUSH2 0x5310 DUP3 PUSH2 0x52A9 JUMP JUMPDEST PUSH1 0x40 DUP3 ADD SWAP1 POP SWAP2 SWAP1 POP JUMP JUMPDEST PUSH1 0x0 PUSH1 0x20 DUP3 ADD SWAP1 POP DUP2 DUP2 SUB PUSH1 0x0 DUP4 ADD MSTORE PUSH2 0x5334 DUP2 PUSH2 0x52F8 JUMP JUMPDEST SWAP1 POP SWAP2 SWAP1 POP JUMP JUMPDEST PUSH32 0x416363657373436F6E74726F6C3A206163636F756E7420000000000000000000 PUSH1 0x0 DUP3 ADD MSTORE POP JUMP JUMPDEST PUSH1 0x0 PUSH2 0x5371 PUSH1 0x17 DUP4 PUSH2 0x3108 JUMP JUMPDEST SWAP2 POP PUSH2 0x537C DUP3 PUSH2 0x533B JUMP JUMPDEST PUSH1 0x17 DUP3 ADD SWAP1 POP SWAP2 SWAP1 POP JUMP JUMPDEST PUSH32 0x206973206D697373696E6720726F6C6520000000000000000000000000000000 PUSH1 0x0 DUP3 ADD MSTORE POP JUMP JUMPDEST PUSH1 0x0 PUSH2 0x53BD PUSH1 0x11 DUP4 PUSH2 0x3108 JUMP JUMPDEST SWAP2 POP PUSH2 0x53C8 DUP3 PUSH2 0x5387 JUMP JUMPDEST PUSH1 0x11 DUP3 ADD SWAP1 POP SWAP2 SWAP1 POP JUMP JUMPDEST PUSH1 0x0 PUSH2 0x53DE DUP3 PUSH2 0x5364 JUMP JUMPDEST SWAP2 POP PUSH2 0x53EA DUP3 DUP6 PUSH2 0x4723 JUMP JUMPDEST SWAP2 POP PUSH2 0x53F5 DUP3 PUSH2 0x53B0 JUMP JUMPDEST SWAP2 POP PUSH2 0x5401 DUP3 DUP5 PUSH2 0x4723 JUMP JUMPDEST SWAP2 POP DUP2 SWAP1 POP SWAP4 SWAP3 POP POP POP JUMP JUMPDEST PUSH2 0x5416 DUP2 PUSH2 0x3374 JUMP JUMPDEST DUP2 EQ PUSH2 0x5421 JUMPI PUSH1 0x0 DUP1 REVERT JUMPDEST POP JUMP JUMPDEST PUSH1 0x0 DUP2 MLOAD SWAP1 POP PUSH2 0x5433 DUP2 PUSH2 0x540D JUMP JUMPDEST SWAP3 SWAP2 POP POP JUMP JUMPDEST PUSH1 0x0 PUSH1 0x20 DUP3 DUP5 SUB SLT ISZERO PUSH2 0x544F JUMPI PUSH2 0x544E PUSH2 0x32E5 JUMP JUMPDEST JUMPDEST PUSH1 0x0 PUSH2 0x545D DUP5 DUP3 DUP6 ADD PUSH2 0x5424 JUMP JUMPDEST SWAP2 POP POP SWAP3 SWAP2 POP POP JUMP JUMPDEST PUSH32 0x5361666545524332303A204552433230206F7065726174696F6E20646964206E PUSH1 0x0 DUP3 ADD MSTORE PUSH32 0x6F74207375636365656400000000000000000000000000000000000000000000 PUSH1 0x20 DUP3 ADD MSTORE POP JUMP JUMPDEST PUSH1 0x0 PUSH2 0x54C2 PUSH1 0x2A DUP4 PUSH2 0x3174 JUMP JUMPDEST SWAP2 POP PUSH2 0x54CD DUP3 PUSH2 0x5466 JUMP JUMPDEST PUSH1 0x40 DUP3 ADD SWAP1 POP SWAP2 SWAP1 POP JUMP JUMPDEST PUSH1 0x0 PUSH1 0x20 DUP3 ADD SWAP1 POP DUP2 DUP2 SUB PUSH1 0x0 DUP4 ADD MSTORE PUSH2 0x54F1 DUP2 PUSH2 0x54B5 JUMP JUMPDEST SWAP1 POP SWAP2 SWAP1 POP JUMP JUMPDEST PUSH1 0x0 PUSH2 0x5503 DUP3 PUSH2 0x321D JUMP JUMPDEST SWAP2 POP PUSH1 0x0 DUP3 SUB PUSH2 0x5516 JUMPI PUSH2 0x5515 PUSH2 0x3C58 JUMP JUMPDEST JUMPDEST PUSH1 0x1 DUP3 SUB SWAP1 POP SWAP2 SWAP1 POP JUMP JUMPDEST PUSH32 0x537472696E67733A20686578206C656E67746820696E73756666696369656E74 PUSH1 0x0 DUP3 ADD MSTORE POP JUMP JUMPDEST PUSH1 0x0 PUSH2 0x5557 PUSH1 0x20 DUP4 PUSH2 0x3174 JUMP JUMPDEST SWAP2 POP PUSH2 0x5562 DUP3 PUSH2 0x5521 JUMP JUMPDEST PUSH1 0x20 DUP3 ADD SWAP1 POP SWAP2 SWAP1 POP JUMP JUMPDEST PUSH1 0x0 PUSH1 0x20 DUP3 ADD SWAP1 POP DUP2 DUP2 SUB PUSH1 0x0 DUP4 ADD MSTORE PUSH2 0x5586 DUP2 PUSH2 0x554A JUMP JUMPDEST SWAP1 POP SWAP2 SWAP1 POP JUMP JUMPDEST PUSH32 0x4E487B7100000000000000000000000000000000000000000000000000000000 PUSH1 0x0 MSTORE PUSH1 0x31 PUSH1 0x4 MSTORE PUSH1 0x24 PUSH1 0x0 REVERT JUMPDEST PUSH32 0x416464726573733A20696E73756666696369656E742062616C616E636520666F PUSH1 0x0 DUP3 ADD MSTORE PUSH32 0x722063616C6C0000000000000000000000000000000000000000000000000000 PUSH1 0x20 DUP3 ADD MSTORE POP JUMP JUMPDEST PUSH1 0x0 PUSH2 0x5618 PUSH1 0x26 DUP4 PUSH2 0x3174 JUMP JUMPDEST SWAP2 POP PUSH2 0x5623 DUP3 PUSH2 0x55BC JUMP JUMPDEST PUSH1 0x40 DUP3 ADD SWAP1 POP SWAP2 SWAP1 POP JUMP JUMPDEST PUSH1 0x0 PUSH1 0x20 DUP3 ADD SWAP1 POP DUP2 DUP2 SUB PUSH1 0x0 DUP4 ADD MSTORE PUSH2 0x5647 DUP2 PUSH2 0x560B JUMP JUMPDEST SWAP1 POP SWAP2 SWAP1 POP JUMP JUMPDEST PUSH1 0x0 DUP2 SWAP1 POP SWAP3 SWAP2 POP POP JUMP JUMPDEST PUSH1 0x0 PUSH2 0x5664 DUP3 PUSH2 0x4333 JUMP JUMPDEST PUSH2 0x566E DUP2 DUP6 PUSH2 0x564E JUMP JUMPDEST SWAP4 POP PUSH2 0x567E DUP2 DUP6 PUSH1 0x20 DUP7 ADD PUSH2 0x3619 JUMP JUMPDEST DUP1 DUP5 ADD SWAP2 POP POP SWAP3 SWAP2 POP POP JUMP JUMPDEST PUSH1 0x0 PUSH2 0x5696 DUP3 DUP5 PUSH2 0x5659 JUMP JUMPDEST SWAP2 POP DUP2 SWAP1 POP SWAP3 SWAP2 POP POP JUMP JUMPDEST PUSH32 0x416464726573733A2063616C6C20746F206E6F6E2D636F6E7472616374000000 PUSH1 0x0 DUP3 ADD MSTORE POP JUMP JUMPDEST PUSH1 0x0 PUSH2 0x56D7 PUSH1 0x1D DUP4 PUSH2 0x3174 JUMP JUMPDEST SWAP2 POP PUSH2 0x56E2 DUP3 PUSH2 0x56A1 JUMP JUMPDEST PUSH1 0x20 DUP3 ADD SWAP1 POP SWAP2 SWAP1 POP JUMP JUMPDEST PUSH1 0x0 PUSH1 0x20 DUP3 ADD SWAP1 POP DUP2 DUP2 SUB PUSH1 0x0 DUP4 ADD MSTORE PUSH2 0x5706 DUP2 PUSH2 0x56CA JUMP JUMPDEST SWAP1 POP SWAP2 SWAP1 POP JUMP INVALID LOG2 PUSH5 0x6970667358 0x22 SLT KECCAK256 0xD6 PUSH8 0xC3095966F29E728D 0xF 0xD3 GASPRICE 0xB1 DELEGATECALL 0xB8 ADD 0x22 0x22 SLT DUP4 CODECOPY MSIZE BYTE DELEGATECALL DUP16 0xF SUB 0xEE DUP15 0xE2 0xB4 PUSH5 0x736F6C6343 STOP ADDMOD SLT STOP CALLER "},"methodIdentifiers":{"ACONCAGUA_ROLE()":"e5df800a","DEFAULT_ADMIN_ROLE()":"a217fddf","LENDER_LIQ_ROLE()":"32cc815d","RESCUER_ROLE()":"71372544","SWAPPER_ROLE()":"df668eca","balanceOf(string)":"35ee5f87","contractAddresses(string)":"ee67cc2a","contractKeys(uint256)":"de6bd687","getBalances()":"00113e08","getRoleAdmin(bytes32)":"248a9ca3","getRoleMember(bytes32,uint256)":"9010d07c","getRoleMemberCount(bytes32)":"ca15c873","getTokenNames()":"2ad753e4","grantRole(bytes32,address)":"2f2ff15d","hasRole(bytes32,address)":"91d14854","initialize(address,string[5],address[5],address[3],address,address,address,address,string[2],address[2])":"82828cbe","renounceRole(bytes32,address)":"36568abe","rescue(uint256,string)":"0828c404","rescueWalletAddress()":"15ac7358","revokeRole(bytes32,address)":"d547741f","setRescueWalletAddress(address)":"d00411c9","setWithdrawWalletAddress(address)":"212f6039","slippage()":"3e032a3b","supportsInterface(bytes4)":"01ffc9a7","swapExactInputs(((bytes,address,uint256,uint256,uint256),address,address)[])":"2ffe9942","tokenNames(uint256)":"310495ab","tokenTable(string)":"55452d04","version()":"54fd4d50","withdraw(uint256,string)":"dc048cf2","withdrawWalletAddress()":"b14ec101"}}}}}