{"contracts/ColateralContract2.sol":{"ColateralContract2":{"abi":[{"inputs":[],"stateMutability":"nonpayable","type":"constructor"},{"anonymous":false,"inputs":[{"indexed":false,"internalType":"address","name":"sender","type":"address"},{"indexed":false,"internalType":"string[]","name":"_tokenNames","type":"string[]"},{"indexed":false,"internalType":"address[]","name":"_tokenAddresses","type":"address[]"},{"indexed":false,"internalType":"address[3]","name":"_aconcagua","type":"address[3]"},{"indexed":false,"internalType":"address","name":"_rescueWalletAddress","type":"address"},{"indexed":false,"internalType":"address","name":"_withdrawWalletAddress","type":"address"},{"indexed":false,"internalType":"address","name":"_firstLenderLiq","type":"address"},{"indexed":false,"internalType":"address","name":"_secondLenderLiq","type":"address"},{"indexed":false,"internalType":"address","name":"_swapRouterAddress","type":"address"},{"indexed":false,"internalType":"address","name":"_swapper","type":"address"}],"name":"Initialize","type":"event"},{"anonymous":false,"inputs":[{"indexed":false,"internalType":"uint8","name":"version","type":"uint8"}],"name":"Initialized","type":"event"},{"anonymous":false,"inputs":[{"indexed":false,"internalType":"address","name":"sender","type":"address"},{"indexed":false,"internalType":"string","name":"token","type":"string"},{"indexed":false,"internalType":"uint256","name":"amount","type":"uint256"},{"indexed":false,"internalType":"address","name":"to","type":"address"}],"name":"Rescue","type":"event"},{"anonymous":false,"inputs":[{"indexed":true,"internalType":"bytes32","name":"role","type":"bytes32"},{"indexed":true,"internalType":"bytes32","name":"previousAdminRole","type":"bytes32"},{"indexed":true,"internalType":"bytes32","name":"newAdminRole","type":"bytes32"}],"name":"RoleAdminChanged","type":"event"},{"anonymous":false,"inputs":[{"indexed":true,"internalType":"bytes32","name":"role","type":"bytes32"},{"indexed":true,"internalType":"address","name":"account","type":"address"},{"indexed":true,"internalType":"address","name":"sender","type":"address"}],"name":"RoleGranted","type":"event"},{"anonymous":false,"inputs":[{"indexed":true,"internalType":"bytes32","name":"role","type":"bytes32"},{"indexed":true,"internalType":"address","name":"account","type":"address"},{"indexed":true,"internalType":"address","name":"sender","type":"address"}],"name":"RoleRevoked","type":"event"},{"anonymous":false,"inputs":[{"indexed":false,"internalType":"address","name":"tokenIn","type":"address"},{"indexed":false,"internalType":"address","name":"tokenOut","type":"address"},{"indexed":false,"internalType":"uint256","name":"amountIn","type":"uint256"},{"indexed":false,"internalType":"uint256","name":"amountOut","type":"uint256"}],"name":"Swap","type":"event"},{"anonymous":false,"inputs":[{"indexed":false,"internalType":"address","name":"tokenIn","type":"address"},{"indexed":false,"internalType":"string","name":"msg","type":"string"}],"name":"SwapError","type":"event"},{"anonymous":false,"inputs":[{"indexed":false,"internalType":"address","name":"sender","type":"address"},{"indexed":false,"internalType":"string","name":"token","type":"string"},{"indexed":false,"internalType":"address","name":"oldTokenAddress","type":"address"},{"indexed":false,"internalType":"address","name":"newTokenAddress","type":"address"}],"name":"TokenAddressChange","type":"event"},{"anonymous":false,"inputs":[{"indexed":false,"internalType":"address","name":"sender","type":"address"},{"indexed":false,"internalType":"string","name":"token","type":"string"},{"indexed":false,"internalType":"uint256","name":"amount","type":"uint256"}],"name":"Withdraw","type":"event"},{"anonymous":false,"inputs":[{"indexed":false,"internalType":"address","name":"sender","type":"address"},{"indexed":false,"internalType":"string","name":"token","type":"string"},{"indexed":false,"internalType":"uint256","name":"oldWithdrawalLimit","type":"uint256"},{"indexed":false,"internalType":"uint256","name":"newWithdrawalLimit","type":"uint256"}],"name":"WithdrawalLimitChange","type":"event"},{"inputs":[],"name":"ACONCAGUA_ROLE","outputs":[{"internalType":"bytes32","name":"","type":"bytes32"}],"stateMutability":"view","type":"function"},{"inputs":[],"name":"DEFAULT_ADMIN_ROLE","outputs":[{"internalType":"bytes32","name":"","type":"bytes32"}],"stateMutability":"view","type":"function"},{"inputs":[],"name":"LENDER_LIQ_ROLE","outputs":[{"internalType":"bytes32","name":"","type":"bytes32"}],"stateMutability":"view","type":"function"},{"inputs":[],"name":"PAUSER_ROLE","outputs":[{"internalType":"bytes32","name":"","type":"bytes32"}],"stateMutability":"view","type":"function"},{"inputs":[],"name":"RESCUER_ROLE","outputs":[{"internalType":"bytes32","name":"","type":"bytes32"}],"stateMutability":"view","type":"function"},{"inputs":[],"name":"SWAPPER_ROLE","outputs":[{"internalType":"bytes32","name":"","type":"bytes32"}],"stateMutability":"view","type":"function"},{"inputs":[{"internalType":"string","name":"_tokenSymbol","type":"string"}],"name":"balanceOf","outputs":[{"internalType":"uint256","name":"","type":"uint256"}],"stateMutability":"view","type":"function"},{"inputs":[],"name":"getBalances","outputs":[{"internalType":"uint256[]","name":"","type":"uint256[]"}],"stateMutability":"view","type":"function"},{"inputs":[{"internalType":"bytes32","name":"role","type":"bytes32"}],"name":"getRoleAdmin","outputs":[{"internalType":"bytes32","name":"","type":"bytes32"}],"stateMutability":"view","type":"function"},{"inputs":[{"internalType":"uint256","name":"index","type":"uint256"}],"name":"getRoleByIndex","outputs":[{"internalType":"bytes32","name":"","type":"bytes32"}],"stateMutability":"view","type":"function"},{"inputs":[],"name":"getRoleCount","outputs":[{"internalType":"uint256","name":"","type":"uint256"}],"stateMutability":"view","type":"function"},{"inputs":[{"internalType":"bytes32","name":"role","type":"bytes32"},{"internalType":"uint256","name":"index","type":"uint256"}],"name":"getRoleMember","outputs":[{"internalType":"address","name":"","type":"address"}],"stateMutability":"view","type":"function"},{"inputs":[{"internalType":"bytes32","name":"role","type":"bytes32"}],"name":"getRoleMemberCount","outputs":[{"internalType":"uint256","name":"","type":"uint256"}],"stateMutability":"view","type":"function"},{"inputs":[],"name":"getTokenNames","outputs":[{"internalType":"string[]","name":"","type":"string[]"}],"stateMutability":"view","type":"function"},{"inputs":[{"internalType":"bytes32","name":"role","type":"bytes32"},{"internalType":"address","name":"account","type":"address"}],"name":"grantRole","outputs":[],"stateMutability":"nonpayable","type":"function"},{"inputs":[{"internalType":"bytes32","name":"role","type":"bytes32"},{"internalType":"address","name":"account","type":"address"}],"name":"hasRole","outputs":[{"internalType":"bool","name":"","type":"bool"}],"stateMutability":"view","type":"function"},{"inputs":[{"internalType":"string[]","name":"_tokenNames","type":"string[]"},{"internalType":"address[]","name":"_tokenAddresses","type":"address[]"},{"internalType":"address[3]","name":"_aconcagua","type":"address[3]"},{"internalType":"address","name":"_rescueWalletAddress","type":"address"},{"internalType":"address","name":"_withdrawWalletAddress","type":"address"},{"internalType":"address","name":"_firstLenderLiq","type":"address"},{"internalType":"address","name":"_secondLenderLiq","type":"address"},{"internalType":"address","name":"_swapRouterAddress","type":"address"},{"internalType":"address","name":"_swapper","type":"address"}],"name":"initialize","outputs":[],"stateMutability":"nonpayable","type":"function"},{"inputs":[{"internalType":"bytes32","name":"role","type":"bytes32"},{"internalType":"address","name":"account","type":"address"}],"name":"renounceRole","outputs":[],"stateMutability":"nonpayable","type":"function"},{"inputs":[{"internalType":"uint256","name":"_amount","type":"uint256"},{"internalType":"string","name":"_tokenSymbol","type":"string"}],"name":"rescue","outputs":[],"stateMutability":"nonpayable","type":"function"},{"inputs":[],"name":"rescueWalletAddress","outputs":[{"internalType":"address","name":"","type":"address"}],"stateMutability":"view","type":"function"},{"inputs":[{"internalType":"bytes32","name":"role","type":"bytes32"},{"internalType":"address","name":"account","type":"address"}],"name":"revokeRole","outputs":[],"stateMutability":"nonpayable","type":"function"},{"inputs":[{"internalType":"address","name":"_rescueWalletAddress","type":"address"}],"name":"setRescueWalletAddress","outputs":[],"stateMutability":"nonpayable","type":"function"},{"inputs":[{"internalType":"address","name":"_withdrawWalletAddress","type":"address"}],"name":"setWithdrawWalletAddress","outputs":[],"stateMutability":"nonpayable","type":"function"},{"inputs":[{"internalType":"bytes4","name":"interfaceId","type":"bytes4"}],"name":"supportsInterface","outputs":[{"internalType":"bool","name":"","type":"bool"}],"stateMutability":"view","type":"function"},{"inputs":[{"components":[{"components":[{"internalType":"bytes","name":"path","type":"bytes"},{"internalType":"address","name":"recipient","type":"address"},{"internalType":"uint256","name":"deadline","type":"uint256"},{"internalType":"uint256","name":"amountIn","type":"uint256"},{"internalType":"uint256","name":"amountOutMinimum","type":"uint256"}],"internalType":"struct ISwapRouter.ExactInputParams","name":"params","type":"tuple"},{"internalType":"address","name":"tokenIn","type":"address"},{"internalType":"address","name":"tokenOut","type":"address"}],"internalType":"struct IColateralContract2.SwapParams[]","name":"swapsParams","type":"tuple[]"}],"name":"swapExactInputs","outputs":[],"stateMutability":"nonpayable","type":"function"},{"inputs":[{"internalType":"uint256","name":"","type":"uint256"}],"name":"tokenNames","outputs":[{"internalType":"string","name":"","type":"string"}],"stateMutability":"view","type":"function"},{"inputs":[{"internalType":"string","name":"","type":"string"}],"name":"tokenTable","outputs":[{"internalType":"address","name":"","type":"address"}],"stateMutability":"view","type":"function"},{"inputs":[],"name":"version","outputs":[{"internalType":"string","name":"","type":"string"}],"stateMutability":"pure","type":"function"},{"inputs":[{"internalType":"uint256","name":"_amount","type":"uint256"},{"internalType":"string","name":"_tokenSymbol","type":"string"}],"name":"withdraw","outputs":[],"stateMutability":"nonpayable","type":"function"},{"inputs":[],"name":"withdrawWalletAddress","outputs":[{"internalType":"address","name":"","type":"address"}],"stateMutability":"view","type":"function"},{"stateMutability":"payable","type":"receive"}],"evm":{"bytecode":{"linkReferences":{},"object":"608060405273fcf5986450e4a014ffe7ad4ae24921b589d039b560fd60006101000a81548173ffffffffffffffffffffffffffffffffffffffff021916908373ffffffffffffffffffffffffffffffffffffffff1602179055503480156200006657600080fd5b50620000776200007d60201b60201c565b62000227565b600060019054906101000a900460ff1615620000d0576040517f08c379a0000000000000000000000000000000000000000000000000000000008152600401620000c790620001ca565b60405180910390fd5b60ff801660008054906101000a900460ff1660ff1614620001415760ff6000806101000a81548160ff021916908360ff1602179055507f7f26b83ff96e1f2b6a682f133852f6798a09c465da95921460cefb384740249860ff6040516200013891906200020a565b60405180910390a15b565b600082825260208201905092915050565b7f496e697469616c697a61626c653a20636f6e747261637420697320696e69746960008201527f616c697a696e6700000000000000000000000000000000000000000000000000602082015250565b6000620001b260278362000143565b9150620001bf8262000154565b604082019050919050565b60006020820190508181036000830152620001e581620001a3565b9050919050565b600060ff82169050919050565b6200020481620001ec565b82525050565b6000602082019050620002216000830184620001f9565b92915050565b615af780620002376000396000f3fe6080604052600436106101d05760003560e01c806355452d04116100f7578063b14ec10111610095578063dc048cf211610064578063dc048cf2146107b1578063df668eca146107da578063e5df800a14610805578063e63ab1e914610830576102bc565b8063b14ec101146106f7578063ca15c87314610722578063d00411c91461075f578063d547741f14610788576102bc565b806383d33319116100d157806383d33319146106275780639010d07c1461065257806391d148541461068f578063a217fddf146106cc576102bc565b806355452d041461059657806371372544146105d357806372626285146105fe576102bc565b80632ad753e41161016f57806332cc815d1161013e57806332cc815d146104da57806335ee5f871461050557806336568abe1461054257806354fd4d501461056b576102bc565b80632ad753e4146104205780632f2ff15d1461044b5780632ffe994214610474578063310495ab1461049d576102bc565b806315ac7358116101ab57806315ac735814610352578063212f60391461037d578063248a9ca3146103a657806325acc985146103e3576102bc565b8062113e08146102c157806301ffc9a7146102ec5780630828c40414610329576102bc565b366102bc57601e460361027f5760ff6040516101eb90613492565b908152602001604051809103902060009054906101000a900473ffffffffffffffffffffffffffffffffffffffff1673ffffffffffffffffffffffffffffffffffffffff1663d0e30db0346040518263ffffffff1660e01b81526004016000604051808303818588803b15801561026157600080fd5b505af1158015610275573d6000803e3d6000fd5b50505050506102ba565b6040517f08c379a00000000000000000000000000000000000000000000000000000000081526004016102b190613504565b60405180910390fd5b005b600080fd5b3480156102cd57600080fd5b506102d661085b565b6040516102e391906135ec565b60405180910390f35b3480156102f857600080fd5b50610313600480360381019061030e919061367a565b6109e4565b60405161032091906136c2565b60405180910390f35b34801561033557600080fd5b50610350600480360381019061034b919061376e565b610a5e565b005b34801561035e57600080fd5b50610367610b75565b604051610374919061380f565b60405180910390f35b34801561038957600080fd5b506103a4600480360381019061039f9190613856565b610b9c565b005b3480156103b257600080fd5b506103cd60048036038101906103c891906138b9565b610c7b565b6040516103da91906138f5565b60405180910390f35b3480156103ef57600080fd5b5061040a60048036038101906104059190613910565b610c9b565b60405161041791906138f5565b60405180910390f35b34801561042c57600080fd5b50610435610cb8565b6040516104429190613a8f565b60405180910390f35b34801561045757600080fd5b50610472600480360381019061046d9190613ab1565b610d91565b005b34801561048057600080fd5b5061049b60048036038101906104969190613b47565b610db2565b005b3480156104a957600080fd5b506104c460048036038101906104bf9190613910565b6114a9565b6040516104d19190613bcd565b60405180910390f35b3480156104e657600080fd5b506104ef611555565b6040516104fc91906138f5565b60405180910390f35b34801561051157600080fd5b5061052c60048036038101906105279190613d1f565b611579565b6040516105399190613d77565b60405180910390f35b34801561054e57600080fd5b5061056960048036038101906105649190613ab1565b61163f565b005b34801561057757600080fd5b506105806116c2565b60405161058d9190613bcd565b60405180910390f35b3480156105a257600080fd5b506105bd60048036038101906105b89190613d1f565b6116ff565b6040516105ca919061380f565b60405180910390f35b3480156105df57600080fd5b506105e8611748565b6040516105f591906138f5565b60405180910390f35b34801561060a57600080fd5b5061062560048036038101906106209190613e60565b61176c565b005b34801561063357600080fd5b5061063c61228e565b6040516106499190613d77565b60405180910390f35b34801561065e57600080fd5b5061067960048036038101906106749190613f6e565b61229f565b604051610686919061380f565b60405180910390f35b34801561069b57600080fd5b506106b660048036038101906106b19190613ab1565b6122ce565b6040516106c391906136c2565b60405180910390f35b3480156106d857600080fd5b506106e1612339565b6040516106ee91906138f5565b60405180910390f35b34801561070357600080fd5b5061070c612340565b604051610719919061380f565b60405180910390f35b34801561072e57600080fd5b50610749600480360381019061074491906138b9565b612367565b6040516107569190613d77565b60405180910390f35b34801561076b57600080fd5b5061078660048036038101906107819190613856565b61238b565b005b34801561079457600080fd5b506107af60048036038101906107aa9190613ab1565b61246a565b005b3480156107bd57600080fd5b506107d860048036038101906107d3919061376e565b61248b565b005b3480156107e657600080fd5b506107ef612599565b6040516107fc91906138f5565b60405180910390f35b34801561081157600080fd5b5061081a6125bd565b60405161082791906138f5565b60405180910390f35b34801561083c57600080fd5b506108456125e1565b60405161085291906138f5565b60405180910390f35b60606000600160fe805490506108719190613fdd565b67ffffffffffffffff81111561088a57610889613bf4565b5b6040519080825280602002602001820160405280156108b85781602001602082028036833780820191505090505b50905047816000815181106108d0576108cf614011565b5b6020026020010181815250506000600190505b60fe8054905081116109dc576109aa60fe6001836109019190614040565b8154811061091257610911614011565b5b906000526020600020018054610927906140a3565b80601f0160208091040260200160405190810160405280929190818152602001828054610953906140a3565b80156109a05780601f10610975576101008083540402835291602001916109a0565b820191906000526020600020905b81548152906001019060200180831161098357829003601f168201915b5050505050611579565b8282815181106109bd576109bc614011565b5b60200260200101818152505080806109d4906140d4565b9150506108e3565b508091505090565b60007f5a05180f000000000000000000000000000000000000000000000000000000007bffffffffffffffffffffffffffffffffffffffffffffffffffffffff1916827bffffffffffffffffffffffffffffffffffffffffffffffffffffffff19161480610a575750610a5682612605565b5b9050919050565b7fbffb4faf8a508f503a2ca036effd0bc1f82615d3ebfddb934edf718f23672707610a888161267f565b610a90612693565b610afe60ff8484604051610aa5929190614141565b908152602001604051809103902060009054906101000a900473ffffffffffffffffffffffffffffffffffffffff1661010060009054906101000a900473ffffffffffffffffffffffffffffffffffffffff16866126e2565b7f22cb89e6358014bb27f5658e2b820189f8f4c9e3f7165ecf266edc53be12d9fa610b27612768565b84848761010060009054906101000a900473ffffffffffffffffffffffffffffffffffffffff16604051610b5f959493929190614187565b60405180910390a1610b6f612770565b50505050565b61010060009054906101000a900473ffffffffffffffffffffffffffffffffffffffff1681565b7ffaad79a708d82d095486f5a83b18341f12a8f717d3011ab929d43135c1af73e2610bc68161267f565b600073ffffffffffffffffffffffffffffffffffffffff168273ffffffffffffffffffffffffffffffffffffffff1603610c35576040517f08c379a0000000000000000000000000000000000000000000000000000000008152600401610c2c90614221565b60405180910390fd5b8161010160006101000a81548173ffffffffffffffffffffffffffffffffffffffff021916908373ffffffffffffffffffffffffffffffffffffffff1602179055505050565b600060656000838152602001908152602001600020600101549050919050565b6000610cb18260fb61277a90919063ffffffff16565b9050919050565b606060fe805480602002602001604051908101604052809291908181526020016000905b82821015610d88578382906000526020600020018054610cfb906140a3565b80601f0160208091040260200160405190810160405280929190818152602001828054610d27906140a3565b8015610d745780601f10610d4957610100808354040283529160200191610d74565b820191906000526020600020905b815481529060010190602001808311610d5757829003601f168201915b505050505081526020019060010190610cdc565b50505050905090565b610d9a82610c7b565b610da38161267f565b610dad8383612791565b505050565b7fd2761b102bda9831f4af400cc824b8cecb9cc5c1c85c51acb1479db9735fbfc6610ddc8161267f565b60005b838390508110156114a35736848483818110610dfe57610dfd614011565b5b9050602002810190610e109190614250565b90503073ffffffffffffffffffffffffffffffffffffffff16818060000190610e399190614278565b6020016020810190610e4b9190613856565b73ffffffffffffffffffffffffffffffffffffffff1614610ea1576040517f08c379a0000000000000000000000000000000000000000000000000000000008152600401610e98906142ec565b60405180910390fd5b6000818060000190610eb39190614278565b6080013511610ef7576040517f08c379a0000000000000000000000000000000000000000000000000000000008152600401610eee90614358565b60405180910390fd5b610f12816040016020810190610f0d9190613856565b6127c5565b610f51576040517f08c379a0000000000000000000000000000000000000000000000000000000008152600401610f48906143c4565b60405180910390fd5b6000816020016020810190610f669190613856565b90506000828060000190610f7a9190614278565b6060013511801561101757508073ffffffffffffffffffffffffffffffffffffffff166370a08231306040518263ffffffff1660e01b8152600401610fbf919061380f565b602060405180830381865afa158015610fdc573d6000803e3d6000fd5b505050506040513d601f19601f8201168201806040525081019061100091906143f9565b8280600001906110109190614278565b6060013511155b611056576040517f08c379a000000000000000000000000000000000000000000000000000000000815260040161104d90614472565b60405180910390fd5b600082604001602081019061106b9190613856565b73ffffffffffffffffffffffffffffffffffffffff166370a08231306040518263ffffffff1660e01b81526004016110a3919061380f565b602060405180830381865afa1580156110c0573d6000803e3d6000fd5b505050506040513d601f19601f820116820180604052508101906110e491906143f9565b90506111278261010260009054906101000a900473ffffffffffffffffffffffffffffffffffffffff1685806000019061111e9190614278565b606001356126e2565b60008060f81b60405160200161113d91906144df565b60405160208183030381529060405290506000600167ffffffffffffffff81111561116b5761116a613bf4565b5b60405190808252806020026020018201604052801561119e57816020015b60608152602001906001900390816111895790505b5090508480600001906111b19190614278565b60200160208101906111c39190613856565b8580600001906111d39190614278565b606001358680600001906111e79190614278565b608001358780600001906111fb9190614278565b806000019061120a91906144fa565b60006040516020016112219695949392919061459b565b6040516020818303038152906040528160008151811061124457611243614011565b5b602002602001018190525061010260009054906101000a900473ffffffffffffffffffffffffffffffffffffffff1673ffffffffffffffffffffffffffffffffffffffff16633593564c83838880600001906112a09190614278565b604001356040518463ffffffff1660e01b81526004016112c293929190614747565b600060405180830381600087803b1580156112dc57600080fd5b505af19250505080156112ed575060015b61137a576112f9614799565b806308c379a003611369575061130d6147bb565b80611318575061136b565b7f48dbf1f65dc9fb918dcf47a87d0d7dbfe9cd78bcfaea409049ee36785201cb9186602001602081019061134c9190613856565b8260405161135b92919061484b565b60405180910390a150611375565b505b3d6000803e3d6000fd5b61148b565b600085604001602081019061138f9190613856565b73ffffffffffffffffffffffffffffffffffffffff166370a08231306040518263ffffffff1660e01b81526004016113c7919061380f565b602060405180830381865afa1580156113e4573d6000803e3d6000fd5b505050506040513d601f19601f8201168201806040525081019061140891906143f9565b90507ffa2dda1cc1b86e41239702756b13effbc1a092b5c57e3ad320fbe4f3b13fe23586602001602081019061143e9190613856565b8760400160208101906114519190613856565b8880600001906114619190614278565b6060013587856114719190614040565b604051611481949392919061487b565b60405180910390a1505b5050505050808061149b906140d4565b915050610ddf565b50505050565b60fe81815481106114b957600080fd5b9060005260206000200160009150905080546114d4906140a3565b80601f0160208091040260200160405190810160405280929190818152602001828054611500906140a3565b801561154d5780601f106115225761010080835404028352916020019161154d565b820191906000526020600020905b81548152906001019060200180831161153057829003601f168201915b505050505081565b7ffd37f88a14d7ed985885a1af8f2ad5b64dd7eb00ab89168649791632bb9bb4a681565b60008060ff8360405161158c91906148f1565b908152602001604051809103902060009054906101000a900473ffffffffffffffffffffffffffffffffffffffff1690508073ffffffffffffffffffffffffffffffffffffffff166370a08231306040518263ffffffff1660e01b81526004016115f6919061380f565b602060405180830381865afa158015611613573d6000803e3d6000fd5b505050506040513d601f19601f8201168201806040525081019061163791906143f9565b915050919050565b611647612768565b73ffffffffffffffffffffffffffffffffffffffff168173ffffffffffffffffffffffffffffffffffffffff16146116b4576040517f08c379a00000000000000000000000000000000000000000000000000000000081526004016116ab9061497a565b60405180910390fd5b6116be8282612890565b5050565b60606040518060400160405280600581526020017f322e302e30000000000000000000000000000000000000000000000000000000815250905090565b60ff818051602081018201805184825260208301602085012081835280955050505050506000915054906101000a900473ffffffffffffffffffffffffffffffffffffffff1681565b7fbffb4faf8a508f503a2ca036effd0bc1f82615d3ebfddb934edf718f2367270781565b60008060019054906101000a900460ff1615905080801561179d5750600160008054906101000a900460ff1660ff16105b806117ca57506117ac306128c4565b1580156117c95750600160008054906101000a900460ff1660ff16145b5b611809576040517f08c379a000000000000000000000000000000000000000000000000000000000815260040161180090614a0c565b60405180910390fd5b60016000806101000a81548160ff021916908360ff1602179055508015611846576001600060016101000a81548160ff0219169083151502179055505b600073ffffffffffffffffffffffffffffffffffffffff168860006003811061187257611871614011565b5b6020020160208101906118859190613856565b73ffffffffffffffffffffffffffffffffffffffff161415806118fb5750600073ffffffffffffffffffffffffffffffffffffffff16886001600381106118cf576118ce614011565b5b6020020160208101906118e29190613856565b73ffffffffffffffffffffffffffffffffffffffff1614155b806119595750600073ffffffffffffffffffffffffffffffffffffffff168860026003811061192d5761192c614011565b5b6020020160208101906119409190613856565b73ffffffffffffffffffffffffffffffffffffffff1614155b611998576040517f08c379a000000000000000000000000000000000000000000000000000000000815260040161198f90614a78565b60405180910390fd5b600073ffffffffffffffffffffffffffffffffffffffff168773ffffffffffffffffffffffffffffffffffffffff1603611a07576040517f08c379a00000000000000000000000000000000000000000000000000000000081526004016119fe90614ae4565b60405180910390fd5b600073ffffffffffffffffffffffffffffffffffffffff168673ffffffffffffffffffffffffffffffffffffffff1603611a76576040517f08c379a0000000000000000000000000000000000000000000000000000000008152600401611a6d90614b50565b60405180910390fd5b600073ffffffffffffffffffffffffffffffffffffffff168573ffffffffffffffffffffffffffffffffffffffff1603611ae5576040517f08c379a0000000000000000000000000000000000000000000000000000000008152600401611adc90614bbc565b60405180910390fd5b600073ffffffffffffffffffffffffffffffffffffffff168473ffffffffffffffffffffffffffffffffffffffff1603611b54576040517f08c379a0000000000000000000000000000000000000000000000000000000008152600401611b4b90614c28565b60405180910390fd5b600073ffffffffffffffffffffffffffffffffffffffff168373ffffffffffffffffffffffffffffffffffffffff1603611bc3576040517f08c379a0000000000000000000000000000000000000000000000000000000008152600401611bba90614c94565b60405180910390fd5b600073ffffffffffffffffffffffffffffffffffffffff168273ffffffffffffffffffffffffffffffffffffffff1603611c32576040517f08c379a0000000000000000000000000000000000000000000000000000000008152600401611c2990614d00565b60405180910390fd5b611c3a6128e7565b611c42612938565b898990508c8c905014611c8a576040517f08c379a0000000000000000000000000000000000000000000000000000000008152600401611c8190614d92565b60405180910390fd5b60005b8c8c9050811015611db5578a8a82818110611cab57611caa614011565b5b9050602002016020810190611cc09190613856565b60ff8e8e84818110611cd557611cd4614011565b5b9050602002810190611ce79190614db2565b604051611cf5929190614141565b908152602001604051809103902060006101000a81548173ffffffffffffffffffffffffffffffffffffffff021916908373ffffffffffffffffffffffffffffffffffffffff16021790555060fe8d8d83818110611d5657611d55614011565b5b9050602002810190611d689190614db2565b90918060018154018082558091505060019003906000526020600020016000909192909192909192909192509182611da1929190614fcc565b508080611dad906140d4565b915050611c8d565b508561010160006101000a81548173ffffffffffffffffffffffffffffffffffffffff021916908373ffffffffffffffffffffffffffffffffffffffff1602179055508661010060006101000a81548173ffffffffffffffffffffffffffffffffffffffff021916908373ffffffffffffffffffffffffffffffffffffffff1602179055508261010260006101000a81548173ffffffffffffffffffffffffffffffffffffffff021916908373ffffffffffffffffffffffffffffffffffffffff160217905550611eb07ffaad79a708d82d095486f5a83b18341f12a8f717d3011ab929d43135c1af73e260fb61299190919063ffffffff16565b50611ee57ffd37f88a14d7ed985885a1af8f2ad5b64dd7eb00ab89168649791632bb9bb4a660fb61299190919063ffffffff16565b50611f1a7fbffb4faf8a508f503a2ca036effd0bc1f82615d3ebfddb934edf718f2367270760fb61299190919063ffffffff16565b50611f4f7fd2761b102bda9831f4af400cc824b8cecb9cc5c1c85c51acb1479db9735fbfc660fb61299190919063ffffffff16565b50611fa07ffaad79a708d82d095486f5a83b18341f12a8f717d3011ab929d43135c1af73e289600060038110611f8857611f87614011565b5b602002016020810190611f9b9190613856565b612791565b611ff07ffaad79a708d82d095486f5a83b18341f12a8f717d3011ab929d43135c1af73e289600160038110611fd857611fd7614011565b5b602002016020810190611feb9190613856565b612791565b6120407ffaad79a708d82d095486f5a83b18341f12a8f717d3011ab929d43135c1af73e28960026003811061202857612027614011565b5b60200201602081019061203b9190613856565b612791565b61206a7ffd37f88a14d7ed985885a1af8f2ad5b64dd7eb00ab89168649791632bb9bb4a686612791565b6120947ffd37f88a14d7ed985885a1af8f2ad5b64dd7eb00ab89168649791632bb9bb4a685612791565b6120be7fbffb4faf8a508f503a2ca036effd0bc1f82615d3ebfddb934edf718f2367270786612791565b6120e87fbffb4faf8a508f503a2ca036effd0bc1f82615d3ebfddb934edf718f2367270785612791565b6121127fd2761b102bda9831f4af400cc824b8cecb9cc5c1c85c51acb1479db9735fbfc683612791565b61213c7ffaad79a708d82d095486f5a83b18341f12a8f717d3011ab929d43135c1af73e2806129a8565b6121667ffd37f88a14d7ed985885a1af8f2ad5b64dd7eb00ab89168649791632bb9bb4a6806129a8565b6121907fbffb4faf8a508f503a2ca036effd0bc1f82615d3ebfddb934edf718f23672707806129a8565b6121da7fd2761b102bda9831f4af400cc824b8cecb9cc5c1c85c51acb1479db9735fbfc67ffaad79a708d82d095486f5a83b18341f12a8f717d3011ab929d43135c1af73e26129a8565b7f601edfe63b019dab49ada69a178b64e0c3ff132d08bbdcdf1ebe6d6da15fef0a338d8d8d8d8d8d8d8d8d8d8d60405161221f9c9b9a9998979695949392919061532d565b60405180910390a180156122805760008060016101000a81548160ff0219169083151502179055507f7f26b83ff96e1f2b6a682f133852f6798a09c465da95921460cefb384740249860016040516122779190615425565b60405180910390a15b505050505050505050505050565b600061229a60fb612a04565b905090565b60006122c68260976000868152602001908152602001600020612a1990919063ffffffff16565b905092915050565b60006065600084815260200190815260200160002060000160008373ffffffffffffffffffffffffffffffffffffffff1673ffffffffffffffffffffffffffffffffffffffff16815260200190815260200160002060009054906101000a900460ff16905092915050565b6000801b81565b61010160009054906101000a900473ffffffffffffffffffffffffffffffffffffffff1681565b600061238460976000848152602001908152602001600020612a33565b9050919050565b7ffaad79a708d82d095486f5a83b18341f12a8f717d3011ab929d43135c1af73e26123b58161267f565b600073ffffffffffffffffffffffffffffffffffffffff168273ffffffffffffffffffffffffffffffffffffffff1603612424576040517f08c379a000000000000000000000000000000000000000000000000000000000815260040161241b9061548c565b60405180910390fd5b8161010060006101000a81548173ffffffffffffffffffffffffffffffffffffffff021916908373ffffffffffffffffffffffffffffffffffffffff1602179055505050565b61247382610c7b565b61247c8161267f565b6124868383612890565b505050565b7ffd37f88a14d7ed985885a1af8f2ad5b64dd7eb00ab89168649791632bb9bb4a66124b58161267f565b6124bd612693565b61252b60ff84846040516124d2929190614141565b908152602001604051809103902060009054906101000a900473ffffffffffffffffffffffffffffffffffffffff1661010160009054906101000a900473ffffffffffffffffffffffffffffffffffffffff16866126e2565b7f901c03da5d88eb3d62ab4617e7b7d17d86db16356823a7971127d5181a842fef61010160009054906101000a900473ffffffffffffffffffffffffffffffffffffffff1684848760405161258394939291906154ac565b60405180910390a1612593612770565b50505050565b7fd2761b102bda9831f4af400cc824b8cecb9cc5c1c85c51acb1479db9735fbfc681565b7ffaad79a708d82d095486f5a83b18341f12a8f717d3011ab929d43135c1af73e281565b7f539440820030c4994db4e31b6b800deafd503688728f932addfe7a410515c14c81565b60007f7965db0b000000000000000000000000000000000000000000000000000000007bffffffffffffffffffffffffffffffffffffffffffffffffffffffff1916827bffffffffffffffffffffffffffffffffffffffffffffffffffffffff19161480612678575061267782612a48565b5b9050919050565b6126908161268b612768565b612ab2565b50565b600260c954036126d8576040517f08c379a00000000000000000000000000000000000000000000000000000000081526004016126cf90615538565b60405180910390fd5b600260c981905550565b6127638363a9059cbb60e01b8484604051602401612701929190615558565b604051602081830303815290604052907bffffffffffffffffffffffffffffffffffffffffffffffffffffffff19166020820180517bffffffffffffffffffffffffffffffffffffffffffffffffffffffff8381831617835250505050612b37565b505050565b600033905090565b600160c981905550565b60006127898360000183612bff565b905092915050565b61279b8282612c2a565b6127c08160976000858152602001908152602001600020612d0b90919063ffffffff16565b505050565b600080600090505b60fe80549050811015612885578273ffffffffffffffffffffffffffffffffffffffff1660ff60fe838154811061280757612806614011565b5b9060005260206000200160405161281e9190615604565b908152602001604051809103902060009054906101000a900473ffffffffffffffffffffffffffffffffffffffff1673ffffffffffffffffffffffffffffffffffffffff160361287257600191505061288b565b808061287d906140d4565b9150506127cd565b50600090505b919050565b61289a8282612d3b565b6128bf8160976000858152602001908152602001600020612e1d90919063ffffffff16565b505050565b6000808273ffffffffffffffffffffffffffffffffffffffff163b119050919050565b600060019054906101000a900460ff16612936576040517f08c379a000000000000000000000000000000000000000000000000000000000815260040161292d9061568d565b60405180910390fd5b565b600060019054906101000a900460ff16612987576040517f08c379a000000000000000000000000000000000000000000000000000000000815260040161297e9061568d565b60405180910390fd5b600160c981905550565b60006129a08360000183612e4d565b905092915050565b60006129b383610c7b565b90508160656000858152602001908152602001600020600101819055508181847fbd79b86ffe0ab8e8776151514217cd7cacd52c909f66475c3af44e129f0b00ff60405160405180910390a4505050565b6000612a1282600001612ebd565b9050919050565b6000612a288360000183612bff565b60001c905092915050565b6000612a4182600001612ebd565b9050919050565b60007f01ffc9a7000000000000000000000000000000000000000000000000000000007bffffffffffffffffffffffffffffffffffffffffffffffffffffffff1916827bffffffffffffffffffffffffffffffffffffffffffffffffffffffff1916149050919050565b612abc82826122ce565b612b3357612ac981612ece565b612ad78360001c6020612efb565b604051602001612ae8929190615745565b6040516020818303038152906040526040517f08c379a0000000000000000000000000000000000000000000000000000000008152600401612b2a9190613bcd565b60405180910390fd5b5050565b6000612b99826040518060400160405280602081526020017f5361666545524332303a206c6f772d6c6576656c2063616c6c206661696c65648152508573ffffffffffffffffffffffffffffffffffffffff166131379092919063ffffffff16565b9050600081511480612bbb575080806020019051810190612bba91906157ab565b5b612bfa576040517f08c379a0000000000000000000000000000000000000000000000000000000008152600401612bf19061584a565b60405180910390fd5b505050565b6000826000018281548110612c1757612c16614011565b5b9060005260206000200154905092915050565b612c3482826122ce565b612d075760016065600084815260200190815260200160002060000160008373ffffffffffffffffffffffffffffffffffffffff1673ffffffffffffffffffffffffffffffffffffffff16815260200190815260200160002060006101000a81548160ff021916908315150217905550612cac612768565b73ffffffffffffffffffffffffffffffffffffffff168173ffffffffffffffffffffffffffffffffffffffff16837f2f8788117e7eff1d82e926ec794901d17c78024a50270940304540a733656f0d60405160405180910390a45b5050565b6000612d33836000018373ffffffffffffffffffffffffffffffffffffffff1660001b612e4d565b905092915050565b612d4582826122ce565b15612e195760006065600084815260200190815260200160002060000160008373ffffffffffffffffffffffffffffffffffffffff1673ffffffffffffffffffffffffffffffffffffffff16815260200190815260200160002060006101000a81548160ff021916908315150217905550612dbe612768565b73ffffffffffffffffffffffffffffffffffffffff168173ffffffffffffffffffffffffffffffffffffffff16837ff6391f5c32d9c69d2a47ea670b442974b53935d1edc7fd64eb21e047a839171b60405160405180910390a45b5050565b6000612e45836000018373ffffffffffffffffffffffffffffffffffffffff1660001b61314f565b905092915050565b6000612e598383613263565b612eb2578260000182908060018154018082558091505060019003906000526020600020016000909190919091505582600001805490508360010160008481526020019081526020016000208190555060019050612eb7565b600090505b92915050565b600081600001805490509050919050565b6060612ef48273ffffffffffffffffffffffffffffffffffffffff16601460ff16612efb565b9050919050565b606060006002836002612f0e919061586a565b612f189190613fdd565b67ffffffffffffffff811115612f3157612f30613bf4565b5b6040519080825280601f01601f191660200182016040528015612f635781602001600182028036833780820191505090505b5090507f300000000000000000000000000000000000000000000000000000000000000081600081518110612f9b57612f9a614011565b5b60200101907effffffffffffffffffffffffffffffffffffffffffffffffffffffffffffff1916908160001a9053507f780000000000000000000000000000000000000000000000000000000000000081600181518110612fff57612ffe614011565b5b60200101907effffffffffffffffffffffffffffffffffffffffffffffffffffffffffffff1916908160001a9053506000600184600261303f919061586a565b6130499190613fdd565b90505b60018111156130e9577f3031323334353637383961626364656600000000000000000000000000000000600f86166010811061308b5761308a614011565b5b1a60f81b8282815181106130a2576130a1614011565b5b60200101907effffffffffffffffffffffffffffffffffffffffffffffffffffffffffffff1916908160001a905350600485901c9450806130e2906158ac565b905061304c565b506000841461312d576040517f08c379a000000000000000000000000000000000000000000000000000000000815260040161312490615921565b60405180910390fd5b8091505092915050565b60606131468484600085613286565b90509392505050565b600080836001016000848152602001908152602001600020549050600081146132575760006001826131819190614040565b90506000600186600001805490506131999190614040565b90508181146132085760008660000182815481106131ba576131b9614011565b5b90600052602060002001549050808760000184815481106131de576131dd614011565b5b90600052602060002001819055508387600101600083815260200190815260200160002081905550505b8560000180548061321c5761321b615941565b5b60019003818190600052602060002001600090559055856001016000868152602001908152602001600020600090556001935050505061325d565b60009150505b92915050565b600080836001016000848152602001908152602001600020541415905092915050565b6060824710156132cb576040517f08c379a00000000000000000000000000000000000000000000000000000000081526004016132c2906159e2565b60405180910390fd5b6000808673ffffffffffffffffffffffffffffffffffffffff1685876040516132f49190615a3e565b60006040518083038185875af1925050503d8060008114613331576040519150601f19603f3d011682016040523d82523d6000602084013e613336565b606091505b509150915061334787838387613353565b92505050949350505050565b606083156133b55760008351036133ad5761336d856133c8565b6133ac576040517f08c379a00000000000000000000000000000000000000000000000000000000081526004016133a390615aa1565b60405180910390fd5b5b8290506133c0565b6133bf83836133eb565b5b949350505050565b6000808273ffffffffffffffffffffffffffffffffffffffff163b119050919050565b6000825111156133fe5781518083602001fd5b806040517f08c379a00000000000000000000000000000000000000000000000000000000081526004016134329190613bcd565b60405180910390fd5b600081905092915050565b7f5745544800000000000000000000000000000000000000000000000000000000600082015250565b600061347c60048361343b565b915061348782613446565b600482019050919050565b600061349d8261346f565b9150819050919050565b600082825260208201905092915050565b7f4e6f742070617961626c65206f6e207468697320636861696e00000000000000600082015250565b60006134ee6019836134a7565b91506134f9826134b8565b602082019050919050565b6000602082019050818103600083015261351d816134e1565b9050919050565b600081519050919050565b600082825260208201905092915050565b6000819050602082019050919050565b6000819050919050565b61356381613550565b82525050565b6000613575838361355a565b60208301905092915050565b6000602082019050919050565b600061359982613524565b6135a3818561352f565b93506135ae83613540565b8060005b838110156135df5781516135c68882613569565b97506135d183613581565b9250506001810190506135b2565b5085935050505092915050565b60006020820190508181036000830152613606818461358e565b905092915050565b6000604051905090565b600080fd5b600080fd5b60007fffffffff0000000000000000000000000000000000000000000000000000000082169050919050565b61365781613622565b811461366257600080fd5b50565b6000813590506136748161364e565b92915050565b6000602082840312156136905761368f613618565b5b600061369e84828501613665565b91505092915050565b60008115159050919050565b6136bc816136a7565b82525050565b60006020820190506136d760008301846136b3565b92915050565b6136e681613550565b81146136f157600080fd5b50565b600081359050613703816136dd565b92915050565b600080fd5b600080fd5b600080fd5b60008083601f84011261372e5761372d613709565b5b8235905067ffffffffffffffff81111561374b5761374a61370e565b5b60208301915083600182028301111561376757613766613713565b5b9250929050565b60008060006040848603121561378757613786613618565b5b6000613795868287016136f4565b935050602084013567ffffffffffffffff8111156137b6576137b561361d565b5b6137c286828701613718565b92509250509250925092565b600073ffffffffffffffffffffffffffffffffffffffff82169050919050565b60006137f9826137ce565b9050919050565b613809816137ee565b82525050565b60006020820190506138246000830184613800565b92915050565b613833816137ee565b811461383e57600080fd5b50565b6000813590506138508161382a565b92915050565b60006020828403121561386c5761386b613618565b5b600061387a84828501613841565b91505092915050565b6000819050919050565b61389681613883565b81146138a157600080fd5b50565b6000813590506138b38161388d565b92915050565b6000602082840312156138cf576138ce613618565b5b60006138dd848285016138a4565b91505092915050565b6138ef81613883565b82525050565b600060208201905061390a60008301846138e6565b92915050565b60006020828403121561392657613925613618565b5b6000613934848285016136f4565b91505092915050565b600081519050919050565b600082825260208201905092915050565b6000819050602082019050919050565b600081519050919050565b600082825260208201905092915050565b60005b838110156139a3578082015181840152602081019050613988565b60008484015250505050565b6000601f19601f8301169050919050565b60006139cb82613969565b6139d58185613974565b93506139e5818560208601613985565b6139ee816139af565b840191505092915050565b6000613a0583836139c0565b905092915050565b6000602082019050919050565b6000613a258261393d565b613a2f8185613948565b935083602082028501613a4185613959565b8060005b85811015613a7d5784840389528151613a5e85826139f9565b9450613a6983613a0d565b925060208a01995050600181019050613a45565b50829750879550505050505092915050565b60006020820190508181036000830152613aa98184613a1a565b905092915050565b60008060408385031215613ac857613ac7613618565b5b6000613ad6858286016138a4565b9250506020613ae785828601613841565b9150509250929050565b60008083601f840112613b0757613b06613709565b5b8235905067ffffffffffffffff811115613b2457613b2361370e565b5b602083019150836020820283011115613b4057613b3f613713565b5b9250929050565b60008060208385031215613b5e57613b5d613618565b5b600083013567ffffffffffffffff811115613b7c57613b7b61361d565b5b613b8885828601613af1565b92509250509250929050565b6000613b9f82613969565b613ba981856134a7565b9350613bb9818560208601613985565b613bc2816139af565b840191505092915050565b60006020820190508181036000830152613be78184613b94565b905092915050565b600080fd5b7f4e487b7100000000000000000000000000000000000000000000000000000000600052604160045260246000fd5b613c2c826139af565b810181811067ffffffffffffffff82111715613c4b57613c4a613bf4565b5b80604052505050565b6000613c5e61360e565b9050613c6a8282613c23565b919050565b600067ffffffffffffffff821115613c8a57613c89613bf4565b5b613c93826139af565b9050602081019050919050565b82818337600083830152505050565b6000613cc2613cbd84613c6f565b613c54565b905082815260208101848484011115613cde57613cdd613bef565b5b613ce9848285613ca0565b509392505050565b600082601f830112613d0657613d05613709565b5b8135613d16848260208601613caf565b91505092915050565b600060208284031215613d3557613d34613618565b5b600082013567ffffffffffffffff811115613d5357613d5261361d565b5b613d5f84828501613cf1565b91505092915050565b613d7181613550565b82525050565b6000602082019050613d8c6000830184613d68565b92915050565b60008083601f840112613da857613da7613709565b5b8235905067ffffffffffffffff811115613dc557613dc461370e565b5b602083019150836020820283011115613de157613de0613713565b5b9250929050565b60008083601f840112613dfe57613dfd613709565b5b8235905067ffffffffffffffff811115613e1b57613e1a61370e565b5b602083019150836020820283011115613e3757613e36613713565b5b9250929050565b600081905082602060030282011115613e5a57613e59613713565b5b92915050565b60008060008060008060008060008060006101608c8e031215613e8657613e85613618565b5b60008c013567ffffffffffffffff811115613ea457613ea361361d565b5b613eb08e828f01613d92565b9b509b505060208c013567ffffffffffffffff811115613ed357613ed261361d565b5b613edf8e828f01613de8565b99509950506040613ef28e828f01613e3e565b97505060a0613f038e828f01613841565b96505060c0613f148e828f01613841565b95505060e0613f258e828f01613841565b945050610100613f378e828f01613841565b935050610120613f498e828f01613841565b925050610140613f5b8e828f01613841565b9150509295989b509295989b9093969950565b60008060408385031215613f8557613f84613618565b5b6000613f93858286016138a4565b9250506020613fa4858286016136f4565b9150509250929050565b7f4e487b7100000000000000000000000000000000000000000000000000000000600052601160045260246000fd5b6000613fe882613550565b9150613ff383613550565b925082820190508082111561400b5761400a613fae565b5b92915050565b7f4e487b7100000000000000000000000000000000000000000000000000000000600052603260045260246000fd5b600061404b82613550565b915061405683613550565b925082820390508181111561406e5761406d613fae565b5b92915050565b7f4e487b7100000000000000000000000000000000000000000000000000000000600052602260045260246000fd5b600060028204905060018216806140bb57607f821691505b6020821081036140ce576140cd614074565b5b50919050565b60006140df82613550565b91507fffffffffffffffffffffffffffffffffffffffffffffffffffffffffffffffff820361411157614110613fae565b5b600182019050919050565b6000614128838561343b565b9350614135838584613ca0565b82840190509392505050565b600061414e82848661411c565b91508190509392505050565b600061416683856134a7565b9350614173838584613ca0565b61417c836139af565b840190509392505050565b600060808201905061419c6000830188613800565b81810360208301526141af81868861415a565b90506141be6040830185613d68565b6141cb6060830184613800565b9695505050505050565b7f5769746864726177304164647200000000000000000000000000000000000000600082015250565b600061420b600d836134a7565b9150614216826141d5565b602082019050919050565b6000602082019050818103600083015261423a816141fe565b9050919050565b600080fd5b600080fd5b600080fd5b60008235600160600383360303811261426c5761426b614241565b5b80830191505092915050565b60008235600160a00383360303811261429457614293614241565b5b80830191505092915050565b7f45727220726563697069656e7400000000000000000000000000000000000000600082015250565b60006142d6600d836134a7565b91506142e1826142a0565b602082019050919050565b60006020820190508181036000830152614305816142c9565b9050919050565b7f45727220536c6970700000000000000000000000000000000000000000000000600082015250565b60006143426009836134a7565b915061434d8261430c565b602082019050919050565b6000602082019050818103600083015261437181614335565b9050919050565b7f45727220546f6b656e4f75740000000000000000000000000000000000000000600082015250565b60006143ae600c836134a7565b91506143b982614378565b602082019050919050565b600060208201905081810360008301526143dd816143a1565b9050919050565b6000815190506143f3816136dd565b92915050565b60006020828403121561440f5761440e613618565b5b600061441d848285016143e4565b91505092915050565b7f45727220416d6f756e74496e0000000000000000000000000000000000000000600082015250565b600061445c600c836134a7565b915061446782614426565b602082019050919050565b6000602082019050818103600083015261448b8161444f565b9050919050565b60007fff0000000000000000000000000000000000000000000000000000000000000082169050919050565b6000819050919050565b6144d96144d482614492565b6144be565b82525050565b60006144eb82846144c8565b60018201915081905092915050565b6000808335600160200384360303811261451757614516614241565b5b80840192508235915067ffffffffffffffff82111561453957614538614246565b5b6020830192506001820236038313156145555761455461424b565b5b509250929050565b600082825260208201905092915050565b600061457a838561455d565b9350614587838584613ca0565b614590836139af565b840190509392505050565b600060a0820190506145b06000830189613800565b6145bd6020830188613d68565b6145ca6040830187613d68565b81810360608301526145dd81858761456e565b90506145ec60808301846136b3565b979650505050505050565b600081519050919050565b600061460d826145f7565b614617818561455d565b9350614627818560208601613985565b614630816139af565b840191505092915050565b600081519050919050565b600082825260208201905092915050565b6000819050602082019050919050565b600082825260208201905092915050565b6000614683826145f7565b61468d8185614667565b935061469d818560208601613985565b6146a6816139af565b840191505092915050565b60006146bd8383614678565b905092915050565b6000602082019050919050565b60006146dd8261463b565b6146e78185614646565b9350836020820285016146f985614657565b8060005b85811015614735578484038952815161471685826146b1565b9450614721836146c5565b925060208a019950506001810190506146fd565b50829750879550505050505092915050565b600060608201905081810360008301526147618186614602565b9050818103602083015261477581856146d2565b90506147846040830184613d68565b949350505050565b60008160e01c9050919050565b600060033d11156147b85760046000803e6147b560005161478c565b90505b90565b600060443d10614848576147cd61360e565b60043d036004823e80513d602482011167ffffffffffffffff821117156147f5575050614848565b808201805167ffffffffffffffff8111156148135750505050614848565b80602083010160043d038501811115614830575050505050614848565b61483f82602001850186613c23565b82955050505050505b90565b60006040820190506148606000830185613800565b81810360208301526148728184613b94565b90509392505050565b60006080820190506148906000830187613800565b61489d6020830186613800565b6148aa6040830185613d68565b6148b76060830184613d68565b95945050505050565b60006148cb82613969565b6148d5818561343b565b93506148e5818560208601613985565b80840191505092915050565b60006148fd82846148c0565b915081905092915050565b7f416363657373436f6e74726f6c3a2063616e206f6e6c792072656e6f756e636560008201527f20726f6c657320666f722073656c660000000000000000000000000000000000602082015250565b6000614964602f836134a7565b915061496f82614908565b604082019050919050565b6000602082019050818103600083015261499381614957565b9050919050565b7f496e697469616c697a61626c653a20636f6e747261637420697320616c72656160008201527f647920696e697469616c697a6564000000000000000000000000000000000000602082015250565b60006149f6602e836134a7565b9150614a018261499a565b604082019050919050565b60006020820190508181036000830152614a25816149e9565b9050919050565b7f41646d696e416464720000000000000000000000000000000000000000000000600082015250565b6000614a626009836134a7565b9150614a6d82614a2c565b602082019050919050565b60006020820190508181036000830152614a9181614a55565b9050919050565b7f5265736375654164647200000000000000000000000000000000000000000000600082015250565b6000614ace600a836134a7565b9150614ad982614a98565b602082019050919050565b60006020820190508181036000830152614afd81614ac1565b9050919050565b7f5769746864726177416464720000000000000000000000000000000000000000600082015250565b6000614b3a600c836134a7565b9150614b4582614b04565b602082019050919050565b60006020820190508181036000830152614b6981614b2d565b9050919050565b7f46697273744c656e6465724c6971416464720000000000000000000000000000600082015250565b6000614ba66012836134a7565b9150614bb182614b70565b602082019050919050565b60006020820190508181036000830152614bd581614b99565b9050919050565b7f5365636f6e644c656e6465724c69714164647200000000000000000000000000600082015250565b6000614c126013836134a7565b9150614c1d82614bdc565b602082019050919050565b60006020820190508181036000830152614c4181614c05565b9050919050565b7f53776170526f7574657241646472000000000000000000000000000000000000600082015250565b6000614c7e600e836134a7565b9150614c8982614c48565b602082019050919050565b60006020820190508181036000830152614cad81614c71565b9050919050565b7f5377617070657241646472000000000000000000000000000000000000000000600082015250565b6000614cea600b836134a7565b9150614cf582614cb4565b602082019050919050565b60006020820190508181036000830152614d1981614cdd565b9050919050565b7f546f6b656e206e616d6520616e642061646472657373206172726179206c656e60008201527f67746873206d757374206d617463680000000000000000000000000000000000602082015250565b6000614d7c602f836134a7565b9150614d8782614d20565b604082019050919050565b60006020820190508181036000830152614dab81614d6f565b9050919050565b60008083356001602003843603038112614dcf57614dce614241565b5b80840192508235915067ffffffffffffffff821115614df157614df0614246565b5b602083019250600182023603831315614e0d57614e0c61424b565b5b509250929050565b600082905092915050565b60008190508160005260206000209050919050565b60006020601f8301049050919050565b600082821b905092915050565b600060088302614e827fffffffffffffffffffffffffffffffffffffffffffffffffffffffffffffffff82614e45565b614e8c8683614e45565b95508019841693508086168417925050509392505050565b6000819050919050565b6000614ec9614ec4614ebf84613550565b614ea4565b613550565b9050919050565b6000819050919050565b614ee383614eae565b614ef7614eef82614ed0565b848454614e52565b825550505050565b600090565b614f0c614eff565b614f17818484614eda565b505050565b5b81811015614f3b57614f30600082614f04565b600181019050614f1d565b5050565b601f821115614f8057614f5181614e20565b614f5a84614e35565b81016020851015614f69578190505b614f7d614f7585614e35565b830182614f1c565b50505b505050565b600082821c905092915050565b6000614fa360001984600802614f85565b1980831691505092915050565b6000614fbc8383614f92565b9150826002028217905092915050565b614fd68383614e15565b67ffffffffffffffff811115614fef57614fee613bf4565b5b614ff982546140a3565b615004828285614f3f565b6000601f8311600181146150335760008415615021578287013590505b61502b8582614fb0565b865550615093565b601f19841661504186614e20565b60005b8281101561506957848901358255600182019150602085019450602081019050615044565b868310156150865784890135615082601f891682614f92565b8355505b6001600288020188555050505b50505050505050565b6000819050919050565b60006150b28385613974565b93506150bf838584613ca0565b6150c8836139af565b840190509392505050565b60006150e08484846150a6565b90509392505050565b600080fd5b600080fd5b600080fd5b60008083356001602003843603038112615115576151146150f3565b5b83810192508235915060208301925067ffffffffffffffff82111561513d5761513c6150e9565b5b600182023603831315615153576151526150ee565b5b509250929050565b6000602082019050919050565b60006151748385613948565b9350836020840285016151868461509c565b8060005b878110156151cc5784840389526151a182846150f8565b6151ac8682846150d3565b95506151b78461515b565b935060208b019a50505060018101905061518a565b50829750879450505050509392505050565b600082825260208201905092915050565b6000819050919050565b615202816137ee565b82525050565b600061521483836151f9565b60208301905092915050565b600061522f6020840184613841565b905092915050565b6000602082019050919050565b600061525083856151de565b935061525b826151ef565b8060005b85811015615294576152718284615220565b61527b8882615208565b975061528683615237565b92505060018101905061525f565b5085925050509392505050565b600060039050919050565b600081905092915050565b6000819050919050565b6000602082019050919050565b6152d7816152a1565b6152e181846152ac565b92506152ec826152b7565b8060005b83811015615325576153028284615220565b61530c8782615208565b9650615317836152c1565b9250506001810190506152f0565b505050505050565b600061018082019050615343600083018f613800565b8181036020830152615356818d8f615168565b9050818103604083015261536b818b8d615244565b905061537a606083018a6152ce565b61538760c0830189613800565b61539460e0830188613800565b6153a2610100830187613800565b6153b0610120830186613800565b6153be610140830185613800565b6153cc610160830184613800565b9d9c50505050505050505050505050565b6000819050919050565b600060ff82169050919050565b600061540f61540a615405846153dd565b614ea4565b6153e7565b9050919050565b61541f816153f4565b82525050565b600060208201905061543a6000830184615416565b92915050565b7f5265736375653041646472000000000000000000000000000000000000000000600082015250565b6000615476600b836134a7565b915061548182615440565b602082019050919050565b600060208201905081810360008301526154a581615469565b9050919050565b60006060820190506154c16000830187613800565b81810360208301526154d481858761415a565b90506154e36040830184613d68565b95945050505050565b7f5265656e7472616e637947756172643a207265656e7472616e742063616c6c00600082015250565b6000615522601f836134a7565b915061552d826154ec565b602082019050919050565b6000602082019050818103600083015261555181615515565b9050919050565b600060408201905061556d6000830185613800565b61557a6020830184613d68565b9392505050565b6000815461558e816140a3565b615598818661343b565b945060018216600081146155b357600181146155c8576155fb565b60ff19831686528115158202860193506155fb565b6155d185614e20565b60005b838110156155f3578154818901526001820191506020810190506155d4565b838801955050505b50505092915050565b60006156108284615581565b915081905092915050565b7f496e697469616c697a61626c653a20636f6e7472616374206973206e6f74206960008201527f6e697469616c697a696e67000000000000000000000000000000000000000000602082015250565b6000615677602b836134a7565b91506156828261561b565b604082019050919050565b600060208201905081810360008301526156a68161566a565b9050919050565b7f416363657373436f6e74726f6c3a206163636f756e7420000000000000000000600082015250565b60006156e360178361343b565b91506156ee826156ad565b601782019050919050565b7f206973206d697373696e6720726f6c6520000000000000000000000000000000600082015250565b600061572f60118361343b565b915061573a826156f9565b601182019050919050565b6000615750826156d6565b915061575c82856148c0565b915061576782615722565b915061577382846148c0565b91508190509392505050565b615788816136a7565b811461579357600080fd5b50565b6000815190506157a58161577f565b92915050565b6000602082840312156157c1576157c0613618565b5b60006157cf84828501615796565b91505092915050565b7f5361666545524332303a204552433230206f7065726174696f6e20646964206e60008201527f6f74207375636365656400000000000000000000000000000000000000000000602082015250565b6000615834602a836134a7565b915061583f826157d8565b604082019050919050565b6000602082019050818103600083015261586381615827565b9050919050565b600061587582613550565b915061588083613550565b925082820261588e81613550565b915082820484148315176158a5576158a4613fae565b5b5092915050565b60006158b782613550565b9150600082036158ca576158c9613fae565b5b600182039050919050565b7f537472696e67733a20686578206c656e67746820696e73756666696369656e74600082015250565b600061590b6020836134a7565b9150615916826158d5565b602082019050919050565b6000602082019050818103600083015261593a816158fe565b9050919050565b7f4e487b7100000000000000000000000000000000000000000000000000000000600052603160045260246000fd5b7f416464726573733a20696e73756666696369656e742062616c616e636520666f60008201527f722063616c6c0000000000000000000000000000000000000000000000000000602082015250565b60006159cc6026836134a7565b91506159d782615970565b604082019050919050565b600060208201905081810360008301526159fb816159bf565b9050919050565b600081905092915050565b6000615a18826145f7565b615a228185615a02565b9350615a32818560208601613985565b80840191505092915050565b6000615a4a8284615a0d565b915081905092915050565b7f416464726573733a2063616c6c20746f206e6f6e2d636f6e7472616374000000600082015250565b6000615a8b601d836134a7565b9150615a9682615a55565b602082019050919050565b60006020820190508181036000830152615aba81615a7e565b905091905056fea2646970667358221220882331417813167b1507284a0f51e77f438d6f4aa91a52e721cfef81db43f8a564736f6c63430008120033","opcodes":"PUSH1 0x80 PUSH1 0x40 MSTORE PUSH20 0xFCF5986450E4A014FFE7AD4AE24921B589D039B5 PUSH1 0xFD PUSH1 0x0 PUSH2 0x100 EXP DUP2 SLOAD DUP2 PUSH20 0xFFFFFFFFFFFFFFFFFFFFFFFFFFFFFFFFFFFFFFFF MUL NOT AND SWAP1 DUP4 PUSH20 0xFFFFFFFFFFFFFFFFFFFFFFFFFFFFFFFFFFFFFFFF AND MUL OR SWAP1 SSTORE POP CALLVALUE DUP1 ISZERO PUSH3 0x66 JUMPI PUSH1 0x0 DUP1 REVERT JUMPDEST POP PUSH3 0x77 PUSH3 0x7D PUSH1 0x20 SHL PUSH1 0x20 SHR JUMP JUMPDEST PUSH3 0x227 JUMP JUMPDEST PUSH1 0x0 PUSH1 0x1 SWAP1 SLOAD SWAP1 PUSH2 0x100 EXP SWAP1 DIV PUSH1 0xFF AND ISZERO PUSH3 0xD0 JUMPI PUSH1 0x40 MLOAD PUSH32 0x8C379A000000000000000000000000000000000000000000000000000000000 DUP2 MSTORE PUSH1 0x4 ADD PUSH3 0xC7 SWAP1 PUSH3 0x1CA JUMP JUMPDEST PUSH1 0x40 MLOAD DUP1 SWAP2 SUB SWAP1 REVERT JUMPDEST PUSH1 0xFF DUP1 AND PUSH1 0x0 DUP1 SLOAD SWAP1 PUSH2 0x100 EXP SWAP1 DIV PUSH1 0xFF AND PUSH1 0xFF AND EQ PUSH3 0x141 JUMPI PUSH1 0xFF PUSH1 0x0 DUP1 PUSH2 0x100 EXP DUP2 SLOAD DUP2 PUSH1 0xFF MUL NOT AND SWAP1 DUP4 PUSH1 0xFF AND MUL OR SWAP1 SSTORE POP PUSH32 0x7F26B83FF96E1F2B6A682F133852F6798A09C465DA95921460CEFB3847402498 PUSH1 0xFF PUSH1 0x40 MLOAD PUSH3 0x138 SWAP2 SWAP1 PUSH3 0x20A JUMP JUMPDEST PUSH1 0x40 MLOAD DUP1 SWAP2 SUB SWAP1 LOG1 JUMPDEST JUMP JUMPDEST PUSH1 0x0 DUP3 DUP3 MSTORE PUSH1 0x20 DUP3 ADD SWAP1 POP SWAP3 SWAP2 POP POP JUMP JUMPDEST PUSH32 0x496E697469616C697A61626C653A20636F6E747261637420697320696E697469 PUSH1 0x0 DUP3 ADD MSTORE PUSH32 0x616C697A696E6700000000000000000000000000000000000000000000000000 PUSH1 0x20 DUP3 ADD MSTORE POP JUMP JUMPDEST PUSH1 0x0 PUSH3 0x1B2 PUSH1 0x27 DUP4 PUSH3 0x143 JUMP JUMPDEST SWAP2 POP PUSH3 0x1BF DUP3 PUSH3 0x154 JUMP JUMPDEST PUSH1 0x40 DUP3 ADD SWAP1 POP SWAP2 SWAP1 POP JUMP JUMPDEST PUSH1 0x0 PUSH1 0x20 DUP3 ADD SWAP1 POP DUP2 DUP2 SUB PUSH1 0x0 DUP4 ADD MSTORE PUSH3 0x1E5 DUP2 PUSH3 0x1A3 JUMP JUMPDEST SWAP1 POP SWAP2 SWAP1 POP JUMP JUMPDEST PUSH1 0x0 PUSH1 0xFF DUP3 AND SWAP1 POP SWAP2 SWAP1 POP JUMP JUMPDEST PUSH3 0x204 DUP2 PUSH3 0x1EC JUMP JUMPDEST DUP3 MSTORE POP POP JUMP JUMPDEST PUSH1 0x0 PUSH1 0x20 DUP3 ADD SWAP1 POP PUSH3 0x221 PUSH1 0x0 DUP4 ADD DUP5 PUSH3 0x1F9 JUMP JUMPDEST SWAP3 SWAP2 POP POP JUMP JUMPDEST PUSH2 0x5AF7 DUP1 PUSH3 0x237 PUSH1 0x0 CODECOPY PUSH1 0x0 RETURN INVALID PUSH1 0x80 PUSH1 0x40 MSTORE PUSH1 0x4 CALLDATASIZE LT PUSH2 0x1D0 JUMPI PUSH1 0x0 CALLDATALOAD PUSH1 0xE0 SHR DUP1 PUSH4 0x55452D04 GT PUSH2 0xF7 JUMPI DUP1 PUSH4 0xB14EC101 GT PUSH2 0x95 JUMPI DUP1 PUSH4 0xDC048CF2 GT PUSH2 0x64 JUMPI DUP1 PUSH4 0xDC048CF2 EQ PUSH2 0x7B1 JUMPI DUP1 PUSH4 0xDF668ECA EQ PUSH2 0x7DA JUMPI DUP1 PUSH4 0xE5DF800A EQ PUSH2 0x805 JUMPI DUP1 PUSH4 0xE63AB1E9 EQ PUSH2 0x830 JUMPI PUSH2 0x2BC JUMP JUMPDEST DUP1 PUSH4 0xB14EC101 EQ PUSH2 0x6F7 JUMPI DUP1 PUSH4 0xCA15C873 EQ PUSH2 0x722 JUMPI DUP1 PUSH4 0xD00411C9 EQ PUSH2 0x75F JUMPI DUP1 PUSH4 0xD547741F EQ PUSH2 0x788 JUMPI PUSH2 0x2BC JUMP JUMPDEST DUP1 PUSH4 0x83D33319 GT PUSH2 0xD1 JUMPI DUP1 PUSH4 0x83D33319 EQ PUSH2 0x627 JUMPI DUP1 PUSH4 0x9010D07C EQ PUSH2 0x652 JUMPI DUP1 PUSH4 0x91D14854 EQ PUSH2 0x68F JUMPI DUP1 PUSH4 0xA217FDDF EQ PUSH2 0x6CC JUMPI PUSH2 0x2BC JUMP JUMPDEST DUP1 PUSH4 0x55452D04 EQ PUSH2 0x596 JUMPI DUP1 PUSH4 0x71372544 EQ PUSH2 0x5D3 JUMPI DUP1 PUSH4 0x72626285 EQ PUSH2 0x5FE JUMPI PUSH2 0x2BC JUMP JUMPDEST DUP1 PUSH4 0x2AD753E4 GT PUSH2 0x16F JUMPI DUP1 PUSH4 0x32CC815D GT PUSH2 0x13E JUMPI DUP1 PUSH4 0x32CC815D EQ PUSH2 0x4DA JUMPI DUP1 PUSH4 0x35EE5F87 EQ PUSH2 0x505 JUMPI DUP1 PUSH4 0x36568ABE EQ PUSH2 0x542 JUMPI DUP1 PUSH4 0x54FD4D50 EQ PUSH2 0x56B JUMPI PUSH2 0x2BC JUMP JUMPDEST DUP1 PUSH4 0x2AD753E4 EQ PUSH2 0x420 JUMPI DUP1 PUSH4 0x2F2FF15D EQ PUSH2 0x44B JUMPI DUP1 PUSH4 0x2FFE9942 EQ PUSH2 0x474 JUMPI DUP1 PUSH4 0x310495AB EQ PUSH2 0x49D JUMPI PUSH2 0x2BC JUMP JUMPDEST DUP1 PUSH4 0x15AC7358 GT PUSH2 0x1AB JUMPI DUP1 PUSH4 0x15AC7358 EQ PUSH2 0x352 JUMPI DUP1 PUSH4 0x212F6039 EQ PUSH2 0x37D JUMPI DUP1 PUSH4 0x248A9CA3 EQ PUSH2 0x3A6 JUMPI DUP1 PUSH4 0x25ACC985 EQ PUSH2 0x3E3 JUMPI PUSH2 0x2BC JUMP JUMPDEST DUP1 PUSH3 0x113E08 EQ PUSH2 0x2C1 JUMPI DUP1 PUSH4 0x1FFC9A7 EQ PUSH2 0x2EC JUMPI DUP1 PUSH4 0x828C404 EQ PUSH2 0x329 JUMPI PUSH2 0x2BC JUMP JUMPDEST CALLDATASIZE PUSH2 0x2BC JUMPI PUSH1 0x1E CHAINID SUB PUSH2 0x27F JUMPI PUSH1 0xFF PUSH1 0x40 MLOAD PUSH2 0x1EB SWAP1 PUSH2 0x3492 JUMP JUMPDEST SWAP1 DUP2 MSTORE PUSH1 0x20 ADD PUSH1 0x40 MLOAD DUP1 SWAP2 SUB SWAP1 KECCAK256 PUSH1 0x0 SWAP1 SLOAD SWAP1 PUSH2 0x100 EXP SWAP1 DIV PUSH20 0xFFFFFFFFFFFFFFFFFFFFFFFFFFFFFFFFFFFFFFFF AND PUSH20 0xFFFFFFFFFFFFFFFFFFFFFFFFFFFFFFFFFFFFFFFF AND PUSH4 0xD0E30DB0 CALLVALUE PUSH1 0x40 MLOAD DUP3 PUSH4 0xFFFFFFFF AND PUSH1 0xE0 SHL DUP2 MSTORE PUSH1 0x4 ADD PUSH1 0x0 PUSH1 0x40 MLOAD DUP1 DUP4 SUB DUP2 DUP6 DUP9 DUP1 EXTCODESIZE ISZERO DUP1 ISZERO PUSH2 0x261 JUMPI PUSH1 0x0 DUP1 REVERT JUMPDEST POP GAS CALL ISZERO DUP1 ISZERO PUSH2 0x275 JUMPI RETURNDATASIZE PUSH1 0x0 DUP1 RETURNDATACOPY RETURNDATASIZE PUSH1 0x0 REVERT JUMPDEST POP POP POP POP POP PUSH2 0x2BA JUMP JUMPDEST PUSH1 0x40 MLOAD PUSH32 0x8C379A000000000000000000000000000000000000000000000000000000000 DUP2 MSTORE PUSH1 0x4 ADD PUSH2 0x2B1 SWAP1 PUSH2 0x3504 JUMP JUMPDEST PUSH1 0x40 MLOAD DUP1 SWAP2 SUB SWAP1 REVERT JUMPDEST STOP JUMPDEST PUSH1 0x0 DUP1 REVERT JUMPDEST CALLVALUE DUP1 ISZERO PUSH2 0x2CD JUMPI PUSH1 0x0 DUP1 REVERT JUMPDEST POP PUSH2 0x2D6 PUSH2 0x85B JUMP JUMPDEST PUSH1 0x40 MLOAD PUSH2 0x2E3 SWAP2 SWAP1 PUSH2 0x35EC JUMP JUMPDEST PUSH1 0x40 MLOAD DUP1 SWAP2 SUB SWAP1 RETURN JUMPDEST CALLVALUE DUP1 ISZERO PUSH2 0x2F8 JUMPI PUSH1 0x0 DUP1 REVERT JUMPDEST POP PUSH2 0x313 PUSH1 0x4 DUP1 CALLDATASIZE SUB DUP2 ADD SWAP1 PUSH2 0x30E SWAP2 SWAP1 PUSH2 0x367A JUMP JUMPDEST PUSH2 0x9E4 JUMP JUMPDEST PUSH1 0x40 MLOAD PUSH2 0x320 SWAP2 SWAP1 PUSH2 0x36C2 JUMP JUMPDEST PUSH1 0x40 MLOAD DUP1 SWAP2 SUB SWAP1 RETURN JUMPDEST CALLVALUE DUP1 ISZERO PUSH2 0x335 JUMPI PUSH1 0x0 DUP1 REVERT JUMPDEST POP PUSH2 0x350 PUSH1 0x4 DUP1 CALLDATASIZE SUB DUP2 ADD SWAP1 PUSH2 0x34B SWAP2 SWAP1 PUSH2 0x376E JUMP JUMPDEST PUSH2 0xA5E JUMP JUMPDEST STOP JUMPDEST CALLVALUE DUP1 ISZERO PUSH2 0x35E JUMPI PUSH1 0x0 DUP1 REVERT JUMPDEST POP PUSH2 0x367 PUSH2 0xB75 JUMP JUMPDEST PUSH1 0x40 MLOAD PUSH2 0x374 SWAP2 SWAP1 PUSH2 0x380F JUMP JUMPDEST PUSH1 0x40 MLOAD DUP1 SWAP2 SUB SWAP1 RETURN JUMPDEST CALLVALUE DUP1 ISZERO PUSH2 0x389 JUMPI PUSH1 0x0 DUP1 REVERT JUMPDEST POP PUSH2 0x3A4 PUSH1 0x4 DUP1 CALLDATASIZE SUB DUP2 ADD SWAP1 PUSH2 0x39F SWAP2 SWAP1 PUSH2 0x3856 JUMP JUMPDEST PUSH2 0xB9C JUMP JUMPDEST STOP JUMPDEST CALLVALUE DUP1 ISZERO PUSH2 0x3B2 JUMPI PUSH1 0x0 DUP1 REVERT JUMPDEST POP PUSH2 0x3CD PUSH1 0x4 DUP1 CALLDATASIZE SUB DUP2 ADD SWAP1 PUSH2 0x3C8 SWAP2 SWAP1 PUSH2 0x38B9 JUMP JUMPDEST PUSH2 0xC7B JUMP JUMPDEST PUSH1 0x40 MLOAD PUSH2 0x3DA SWAP2 SWAP1 PUSH2 0x38F5 JUMP JUMPDEST PUSH1 0x40 MLOAD DUP1 SWAP2 SUB SWAP1 RETURN JUMPDEST CALLVALUE DUP1 ISZERO PUSH2 0x3EF JUMPI PUSH1 0x0 DUP1 REVERT JUMPDEST POP PUSH2 0x40A PUSH1 0x4 DUP1 CALLDATASIZE SUB DUP2 ADD SWAP1 PUSH2 0x405 SWAP2 SWAP1 PUSH2 0x3910 JUMP JUMPDEST PUSH2 0xC9B JUMP JUMPDEST PUSH1 0x40 MLOAD PUSH2 0x417 SWAP2 SWAP1 PUSH2 0x38F5 JUMP JUMPDEST PUSH1 0x40 MLOAD DUP1 SWAP2 SUB SWAP1 RETURN JUMPDEST CALLVALUE DUP1 ISZERO PUSH2 0x42C JUMPI PUSH1 0x0 DUP1 REVERT JUMPDEST POP PUSH2 0x435 PUSH2 0xCB8 JUMP JUMPDEST PUSH1 0x40 MLOAD PUSH2 0x442 SWAP2 SWAP1 PUSH2 0x3A8F JUMP JUMPDEST PUSH1 0x40 MLOAD DUP1 SWAP2 SUB SWAP1 RETURN JUMPDEST CALLVALUE DUP1 ISZERO PUSH2 0x457 JUMPI PUSH1 0x0 DUP1 REVERT JUMPDEST POP PUSH2 0x472 PUSH1 0x4 DUP1 CALLDATASIZE SUB DUP2 ADD SWAP1 PUSH2 0x46D SWAP2 SWAP1 PUSH2 0x3AB1 JUMP JUMPDEST PUSH2 0xD91 JUMP JUMPDEST STOP JUMPDEST CALLVALUE DUP1 ISZERO PUSH2 0x480 JUMPI PUSH1 0x0 DUP1 REVERT JUMPDEST POP PUSH2 0x49B PUSH1 0x4 DUP1 CALLDATASIZE SUB DUP2 ADD SWAP1 PUSH2 0x496 SWAP2 SWAP1 PUSH2 0x3B47 JUMP JUMPDEST PUSH2 0xDB2 JUMP JUMPDEST STOP JUMPDEST CALLVALUE DUP1 ISZERO PUSH2 0x4A9 JUMPI PUSH1 0x0 DUP1 REVERT JUMPDEST POP PUSH2 0x4C4 PUSH1 0x4 DUP1 CALLDATASIZE SUB DUP2 ADD SWAP1 PUSH2 0x4BF SWAP2 SWAP1 PUSH2 0x3910 JUMP JUMPDEST PUSH2 0x14A9 JUMP JUMPDEST PUSH1 0x40 MLOAD PUSH2 0x4D1 SWAP2 SWAP1 PUSH2 0x3BCD JUMP JUMPDEST PUSH1 0x40 MLOAD DUP1 SWAP2 SUB SWAP1 RETURN JUMPDEST CALLVALUE DUP1 ISZERO PUSH2 0x4E6 JUMPI PUSH1 0x0 DUP1 REVERT JUMPDEST POP PUSH2 0x4EF PUSH2 0x1555 JUMP JUMPDEST PUSH1 0x40 MLOAD PUSH2 0x4FC SWAP2 SWAP1 PUSH2 0x38F5 JUMP JUMPDEST PUSH1 0x40 MLOAD DUP1 SWAP2 SUB SWAP1 RETURN JUMPDEST CALLVALUE DUP1 ISZERO PUSH2 0x511 JUMPI PUSH1 0x0 DUP1 REVERT JUMPDEST POP PUSH2 0x52C PUSH1 0x4 DUP1 CALLDATASIZE SUB DUP2 ADD SWAP1 PUSH2 0x527 SWAP2 SWAP1 PUSH2 0x3D1F JUMP JUMPDEST PUSH2 0x1579 JUMP JUMPDEST PUSH1 0x40 MLOAD PUSH2 0x539 SWAP2 SWAP1 PUSH2 0x3D77 JUMP JUMPDEST PUSH1 0x40 MLOAD DUP1 SWAP2 SUB SWAP1 RETURN JUMPDEST CALLVALUE DUP1 ISZERO PUSH2 0x54E JUMPI PUSH1 0x0 DUP1 REVERT JUMPDEST POP PUSH2 0x569 PUSH1 0x4 DUP1 CALLDATASIZE SUB DUP2 ADD SWAP1 PUSH2 0x564 SWAP2 SWAP1 PUSH2 0x3AB1 JUMP JUMPDEST PUSH2 0x163F JUMP JUMPDEST STOP JUMPDEST CALLVALUE DUP1 ISZERO PUSH2 0x577 JUMPI PUSH1 0x0 DUP1 REVERT JUMPDEST POP PUSH2 0x580 PUSH2 0x16C2 JUMP JUMPDEST PUSH1 0x40 MLOAD PUSH2 0x58D SWAP2 SWAP1 PUSH2 0x3BCD JUMP JUMPDEST PUSH1 0x40 MLOAD DUP1 SWAP2 SUB SWAP1 RETURN JUMPDEST CALLVALUE DUP1 ISZERO PUSH2 0x5A2 JUMPI PUSH1 0x0 DUP1 REVERT JUMPDEST POP PUSH2 0x5BD PUSH1 0x4 DUP1 CALLDATASIZE SUB DUP2 ADD SWAP1 PUSH2 0x5B8 SWAP2 SWAP1 PUSH2 0x3D1F JUMP JUMPDEST PUSH2 0x16FF JUMP JUMPDEST PUSH1 0x40 MLOAD PUSH2 0x5CA SWAP2 SWAP1 PUSH2 0x380F JUMP JUMPDEST PUSH1 0x40 MLOAD DUP1 SWAP2 SUB SWAP1 RETURN JUMPDEST CALLVALUE DUP1 ISZERO PUSH2 0x5DF JUMPI PUSH1 0x0 DUP1 REVERT JUMPDEST POP PUSH2 0x5E8 PUSH2 0x1748 JUMP JUMPDEST PUSH1 0x40 MLOAD PUSH2 0x5F5 SWAP2 SWAP1 PUSH2 0x38F5 JUMP JUMPDEST PUSH1 0x40 MLOAD DUP1 SWAP2 SUB SWAP1 RETURN JUMPDEST CALLVALUE DUP1 ISZERO PUSH2 0x60A JUMPI PUSH1 0x0 DUP1 REVERT JUMPDEST POP PUSH2 0x625 PUSH1 0x4 DUP1 CALLDATASIZE SUB DUP2 ADD SWAP1 PUSH2 0x620 SWAP2 SWAP1 PUSH2 0x3E60 JUMP JUMPDEST PUSH2 0x176C JUMP JUMPDEST STOP JUMPDEST CALLVALUE DUP1 ISZERO PUSH2 0x633 JUMPI PUSH1 0x0 DUP1 REVERT JUMPDEST POP PUSH2 0x63C PUSH2 0x228E JUMP JUMPDEST PUSH1 0x40 MLOAD PUSH2 0x649 SWAP2 SWAP1 PUSH2 0x3D77 JUMP JUMPDEST PUSH1 0x40 MLOAD DUP1 SWAP2 SUB SWAP1 RETURN JUMPDEST CALLVALUE DUP1 ISZERO PUSH2 0x65E JUMPI PUSH1 0x0 DUP1 REVERT JUMPDEST POP PUSH2 0x679 PUSH1 0x4 DUP1 CALLDATASIZE SUB DUP2 ADD SWAP1 PUSH2 0x674 SWAP2 SWAP1 PUSH2 0x3F6E JUMP JUMPDEST PUSH2 0x229F JUMP JUMPDEST PUSH1 0x40 MLOAD PUSH2 0x686 SWAP2 SWAP1 PUSH2 0x380F JUMP JUMPDEST PUSH1 0x40 MLOAD DUP1 SWAP2 SUB SWAP1 RETURN JUMPDEST CALLVALUE DUP1 ISZERO PUSH2 0x69B JUMPI PUSH1 0x0 DUP1 REVERT JUMPDEST POP PUSH2 0x6B6 PUSH1 0x4 DUP1 CALLDATASIZE SUB DUP2 ADD SWAP1 PUSH2 0x6B1 SWAP2 SWAP1 PUSH2 0x3AB1 JUMP JUMPDEST PUSH2 0x22CE JUMP JUMPDEST PUSH1 0x40 MLOAD PUSH2 0x6C3 SWAP2 SWAP1 PUSH2 0x36C2 JUMP JUMPDEST PUSH1 0x40 MLOAD DUP1 SWAP2 SUB SWAP1 RETURN JUMPDEST CALLVALUE DUP1 ISZERO PUSH2 0x6D8 JUMPI PUSH1 0x0 DUP1 REVERT JUMPDEST POP PUSH2 0x6E1 PUSH2 0x2339 JUMP JUMPDEST PUSH1 0x40 MLOAD PUSH2 0x6EE SWAP2 SWAP1 PUSH2 0x38F5 JUMP JUMPDEST PUSH1 0x40 MLOAD DUP1 SWAP2 SUB SWAP1 RETURN JUMPDEST CALLVALUE DUP1 ISZERO PUSH2 0x703 JUMPI PUSH1 0x0 DUP1 REVERT JUMPDEST POP PUSH2 0x70C PUSH2 0x2340 JUMP JUMPDEST PUSH1 0x40 MLOAD PUSH2 0x719 SWAP2 SWAP1 PUSH2 0x380F JUMP JUMPDEST PUSH1 0x40 MLOAD DUP1 SWAP2 SUB SWAP1 RETURN JUMPDEST CALLVALUE DUP1 ISZERO PUSH2 0x72E JUMPI PUSH1 0x0 DUP1 REVERT JUMPDEST POP PUSH2 0x749 PUSH1 0x4 DUP1 CALLDATASIZE SUB DUP2 ADD SWAP1 PUSH2 0x744 SWAP2 SWAP1 PUSH2 0x38B9 JUMP JUMPDEST PUSH2 0x2367 JUMP JUMPDEST PUSH1 0x40 MLOAD PUSH2 0x756 SWAP2 SWAP1 PUSH2 0x3D77 JUMP JUMPDEST PUSH1 0x40 MLOAD DUP1 SWAP2 SUB SWAP1 RETURN JUMPDEST CALLVALUE DUP1 ISZERO PUSH2 0x76B JUMPI PUSH1 0x0 DUP1 REVERT JUMPDEST POP PUSH2 0x786 PUSH1 0x4 DUP1 CALLDATASIZE SUB DUP2 ADD SWAP1 PUSH2 0x781 SWAP2 SWAP1 PUSH2 0x3856 JUMP JUMPDEST PUSH2 0x238B JUMP JUMPDEST STOP JUMPDEST CALLVALUE DUP1 ISZERO PUSH2 0x794 JUMPI PUSH1 0x0 DUP1 REVERT JUMPDEST POP PUSH2 0x7AF PUSH1 0x4 DUP1 CALLDATASIZE SUB DUP2 ADD SWAP1 PUSH2 0x7AA SWAP2 SWAP1 PUSH2 0x3AB1 JUMP JUMPDEST PUSH2 0x246A JUMP JUMPDEST STOP JUMPDEST CALLVALUE DUP1 ISZERO PUSH2 0x7BD JUMPI PUSH1 0x0 DUP1 REVERT JUMPDEST POP PUSH2 0x7D8 PUSH1 0x4 DUP1 CALLDATASIZE SUB DUP2 ADD SWAP1 PUSH2 0x7D3 SWAP2 SWAP1 PUSH2 0x376E JUMP JUMPDEST PUSH2 0x248B JUMP JUMPDEST STOP JUMPDEST CALLVALUE DUP1 ISZERO PUSH2 0x7E6 JUMPI PUSH1 0x0 DUP1 REVERT JUMPDEST POP PUSH2 0x7EF PUSH2 0x2599 JUMP JUMPDEST PUSH1 0x40 MLOAD PUSH2 0x7FC SWAP2 SWAP1 PUSH2 0x38F5 JUMP JUMPDEST PUSH1 0x40 MLOAD DUP1 SWAP2 SUB SWAP1 RETURN JUMPDEST CALLVALUE DUP1 ISZERO PUSH2 0x811 JUMPI PUSH1 0x0 DUP1 REVERT JUMPDEST POP PUSH2 0x81A PUSH2 0x25BD JUMP JUMPDEST PUSH1 0x40 MLOAD PUSH2 0x827 SWAP2 SWAP1 PUSH2 0x38F5 JUMP JUMPDEST PUSH1 0x40 MLOAD DUP1 SWAP2 SUB SWAP1 RETURN JUMPDEST CALLVALUE DUP1 ISZERO PUSH2 0x83C JUMPI PUSH1 0x0 DUP1 REVERT JUMPDEST POP PUSH2 0x845 PUSH2 0x25E1 JUMP JUMPDEST PUSH1 0x40 MLOAD PUSH2 0x852 SWAP2 SWAP1 PUSH2 0x38F5 JUMP JUMPDEST PUSH1 0x40 MLOAD DUP1 SWAP2 SUB SWAP1 RETURN JUMPDEST PUSH1 0x60 PUSH1 0x0 PUSH1 0x1 PUSH1 0xFE DUP1 SLOAD SWAP1 POP PUSH2 0x871 SWAP2 SWAP1 PUSH2 0x3FDD JUMP JUMPDEST PUSH8 0xFFFFFFFFFFFFFFFF DUP2 GT ISZERO PUSH2 0x88A JUMPI PUSH2 0x889 PUSH2 0x3BF4 JUMP JUMPDEST JUMPDEST PUSH1 0x40 MLOAD SWAP1 DUP1 DUP3 MSTORE DUP1 PUSH1 0x20 MUL PUSH1 0x20 ADD DUP3 ADD PUSH1 0x40 MSTORE DUP1 ISZERO PUSH2 0x8B8 JUMPI DUP2 PUSH1 0x20 ADD PUSH1 0x20 DUP3 MUL DUP1 CALLDATASIZE DUP4 CALLDATACOPY DUP1 DUP3 ADD SWAP2 POP POP SWAP1 POP JUMPDEST POP SWAP1 POP SELFBALANCE DUP2 PUSH1 0x0 DUP2 MLOAD DUP2 LT PUSH2 0x8D0 JUMPI PUSH2 0x8CF PUSH2 0x4011 JUMP JUMPDEST JUMPDEST PUSH1 0x20 MUL PUSH1 0x20 ADD ADD DUP2 DUP2 MSTORE POP POP PUSH1 0x0 PUSH1 0x1 SWAP1 POP JUMPDEST PUSH1 0xFE DUP1 SLOAD SWAP1 POP DUP2 GT PUSH2 0x9DC JUMPI PUSH2 0x9AA PUSH1 0xFE PUSH1 0x1 DUP4 PUSH2 0x901 SWAP2 SWAP1 PUSH2 0x4040 JUMP JUMPDEST DUP2 SLOAD DUP2 LT PUSH2 0x912 JUMPI PUSH2 0x911 PUSH2 0x4011 JUMP JUMPDEST JUMPDEST SWAP1 PUSH1 0x0 MSTORE PUSH1 0x20 PUSH1 0x0 KECCAK256 ADD DUP1 SLOAD PUSH2 0x927 SWAP1 PUSH2 0x40A3 JUMP JUMPDEST DUP1 PUSH1 0x1F ADD PUSH1 0x20 DUP1 SWAP2 DIV MUL PUSH1 0x20 ADD PUSH1 0x40 MLOAD SWAP1 DUP2 ADD PUSH1 0x40 MSTORE DUP1 SWAP3 SWAP2 SWAP1 DUP2 DUP2 MSTORE PUSH1 0x20 ADD DUP3 DUP1 SLOAD PUSH2 0x953 SWAP1 PUSH2 0x40A3 JUMP JUMPDEST DUP1 ISZERO PUSH2 0x9A0 JUMPI DUP1 PUSH1 0x1F LT PUSH2 0x975 JUMPI PUSH2 0x100 DUP1 DUP4 SLOAD DIV MUL DUP4 MSTORE SWAP2 PUSH1 0x20 ADD SWAP2 PUSH2 0x9A0 JUMP JUMPDEST DUP3 ADD SWAP2 SWAP1 PUSH1 0x0 MSTORE PUSH1 0x20 PUSH1 0x0 KECCAK256 SWAP1 JUMPDEST DUP2 SLOAD DUP2 MSTORE SWAP1 PUSH1 0x1 ADD SWAP1 PUSH1 0x20 ADD DUP1 DUP4 GT PUSH2 0x983 JUMPI DUP3 SWAP1 SUB PUSH1 0x1F AND DUP3 ADD SWAP2 JUMPDEST POP POP POP POP POP PUSH2 0x1579 JUMP JUMPDEST DUP3 DUP3 DUP2 MLOAD DUP2 LT PUSH2 0x9BD JUMPI PUSH2 0x9BC PUSH2 0x4011 JUMP JUMPDEST JUMPDEST PUSH1 0x20 MUL PUSH1 0x20 ADD ADD DUP2 DUP2 MSTORE POP POP DUP1 DUP1 PUSH2 0x9D4 SWAP1 PUSH2 0x40D4 JUMP JUMPDEST SWAP2 POP POP PUSH2 0x8E3 JUMP JUMPDEST POP DUP1 SWAP2 POP POP SWAP1 JUMP JUMPDEST PUSH1 0x0 PUSH32 0x5A05180F00000000000000000000000000000000000000000000000000000000 PUSH28 0xFFFFFFFFFFFFFFFFFFFFFFFFFFFFFFFFFFFFFFFFFFFFFFFFFFFFFFFF NOT AND DUP3 PUSH28 0xFFFFFFFFFFFFFFFFFFFFFFFFFFFFFFFFFFFFFFFFFFFFFFFFFFFFFFFF NOT AND EQ DUP1 PUSH2 0xA57 JUMPI POP PUSH2 0xA56 DUP3 PUSH2 0x2605 JUMP JUMPDEST JUMPDEST SWAP1 POP SWAP2 SWAP1 POP JUMP JUMPDEST PUSH32 0xBFFB4FAF8A508F503A2CA036EFFD0BC1F82615D3EBFDDB934EDF718F23672707 PUSH2 0xA88 DUP2 PUSH2 0x267F JUMP JUMPDEST PUSH2 0xA90 PUSH2 0x2693 JUMP JUMPDEST PUSH2 0xAFE PUSH1 0xFF DUP5 DUP5 PUSH1 0x40 MLOAD PUSH2 0xAA5 SWAP3 SWAP2 SWAP1 PUSH2 0x4141 JUMP JUMPDEST SWAP1 DUP2 MSTORE PUSH1 0x20 ADD PUSH1 0x40 MLOAD DUP1 SWAP2 SUB SWAP1 KECCAK256 PUSH1 0x0 SWAP1 SLOAD SWAP1 PUSH2 0x100 EXP SWAP1 DIV PUSH20 0xFFFFFFFFFFFFFFFFFFFFFFFFFFFFFFFFFFFFFFFF AND PUSH2 0x100 PUSH1 0x0 SWAP1 SLOAD SWAP1 PUSH2 0x100 EXP SWAP1 DIV PUSH20 0xFFFFFFFFFFFFFFFFFFFFFFFFFFFFFFFFFFFFFFFF AND DUP7 PUSH2 0x26E2 JUMP JUMPDEST PUSH32 0x22CB89E6358014BB27F5658E2B820189F8F4C9E3F7165ECF266EDC53BE12D9FA PUSH2 0xB27 PUSH2 0x2768 JUMP JUMPDEST DUP5 DUP5 DUP8 PUSH2 0x100 PUSH1 0x0 SWAP1 SLOAD SWAP1 PUSH2 0x100 EXP SWAP1 DIV PUSH20 0xFFFFFFFFFFFFFFFFFFFFFFFFFFFFFFFFFFFFFFFF AND PUSH1 0x40 MLOAD PUSH2 0xB5F SWAP6 SWAP5 SWAP4 SWAP3 SWAP2 SWAP1 PUSH2 0x4187 JUMP JUMPDEST PUSH1 0x40 MLOAD DUP1 SWAP2 SUB SWAP1 LOG1 PUSH2 0xB6F PUSH2 0x2770 JUMP JUMPDEST POP POP POP POP JUMP JUMPDEST PUSH2 0x100 PUSH1 0x0 SWAP1 SLOAD SWAP1 PUSH2 0x100 EXP SWAP1 DIV PUSH20 0xFFFFFFFFFFFFFFFFFFFFFFFFFFFFFFFFFFFFFFFF AND DUP2 JUMP JUMPDEST PUSH32 0xFAAD79A708D82D095486F5A83B18341F12A8F717D3011AB929D43135C1AF73E2 PUSH2 0xBC6 DUP2 PUSH2 0x267F JUMP JUMPDEST PUSH1 0x0 PUSH20 0xFFFFFFFFFFFFFFFFFFFFFFFFFFFFFFFFFFFFFFFF AND DUP3 PUSH20 0xFFFFFFFFFFFFFFFFFFFFFFFFFFFFFFFFFFFFFFFF AND SUB PUSH2 0xC35 JUMPI PUSH1 0x40 MLOAD PUSH32 0x8C379A000000000000000000000000000000000000000000000000000000000 DUP2 MSTORE PUSH1 0x4 ADD PUSH2 0xC2C SWAP1 PUSH2 0x4221 JUMP JUMPDEST PUSH1 0x40 MLOAD DUP1 SWAP2 SUB SWAP1 REVERT JUMPDEST DUP2 PUSH2 0x101 PUSH1 0x0 PUSH2 0x100 EXP DUP2 SLOAD DUP2 PUSH20 0xFFFFFFFFFFFFFFFFFFFFFFFFFFFFFFFFFFFFFFFF MUL NOT AND SWAP1 DUP4 PUSH20 0xFFFFFFFFFFFFFFFFFFFFFFFFFFFFFFFFFFFFFFFF AND MUL OR SWAP1 SSTORE POP POP POP JUMP JUMPDEST PUSH1 0x0 PUSH1 0x65 PUSH1 0x0 DUP4 DUP2 MSTORE PUSH1 0x20 ADD SWAP1 DUP2 MSTORE PUSH1 0x20 ADD PUSH1 0x0 KECCAK256 PUSH1 0x1 ADD SLOAD SWAP1 POP SWAP2 SWAP1 POP JUMP JUMPDEST PUSH1 0x0 PUSH2 0xCB1 DUP3 PUSH1 0xFB PUSH2 0x277A SWAP1 SWAP2 SWAP1 PUSH4 0xFFFFFFFF AND JUMP JUMPDEST SWAP1 POP SWAP2 SWAP1 POP JUMP JUMPDEST PUSH1 0x60 PUSH1 0xFE DUP1 SLOAD DUP1 PUSH1 0x20 MUL PUSH1 0x20 ADD PUSH1 0x40 MLOAD SWAP1 DUP2 ADD PUSH1 0x40 MSTORE DUP1 SWAP3 SWAP2 SWAP1 DUP2 DUP2 MSTORE PUSH1 0x20 ADD PUSH1 0x0 SWAP1 JUMPDEST DUP3 DUP3 LT ISZERO PUSH2 0xD88 JUMPI DUP4 DUP3 SWAP1 PUSH1 0x0 MSTORE PUSH1 0x20 PUSH1 0x0 KECCAK256 ADD DUP1 SLOAD PUSH2 0xCFB SWAP1 PUSH2 0x40A3 JUMP JUMPDEST DUP1 PUSH1 0x1F ADD PUSH1 0x20 DUP1 SWAP2 DIV MUL PUSH1 0x20 ADD PUSH1 0x40 MLOAD SWAP1 DUP2 ADD PUSH1 0x40 MSTORE DUP1 SWAP3 SWAP2 SWAP1 DUP2 DUP2 MSTORE PUSH1 0x20 ADD DUP3 DUP1 SLOAD PUSH2 0xD27 SWAP1 PUSH2 0x40A3 JUMP JUMPDEST DUP1 ISZERO PUSH2 0xD74 JUMPI DUP1 PUSH1 0x1F LT PUSH2 0xD49 JUMPI PUSH2 0x100 DUP1 DUP4 SLOAD DIV MUL DUP4 MSTORE SWAP2 PUSH1 0x20 ADD SWAP2 PUSH2 0xD74 JUMP JUMPDEST DUP3 ADD SWAP2 SWAP1 PUSH1 0x0 MSTORE PUSH1 0x20 PUSH1 0x0 KECCAK256 SWAP1 JUMPDEST DUP2 SLOAD DUP2 MSTORE SWAP1 PUSH1 0x1 ADD SWAP1 PUSH1 0x20 ADD DUP1 DUP4 GT PUSH2 0xD57 JUMPI DUP3 SWAP1 SUB PUSH1 0x1F AND DUP3 ADD SWAP2 JUMPDEST POP POP POP POP POP DUP2 MSTORE PUSH1 0x20 ADD SWAP1 PUSH1 0x1 ADD SWAP1 PUSH2 0xCDC JUMP JUMPDEST POP POP POP POP SWAP1 POP SWAP1 JUMP JUMPDEST PUSH2 0xD9A DUP3 PUSH2 0xC7B JUMP JUMPDEST PUSH2 0xDA3 DUP2 PUSH2 0x267F JUMP JUMPDEST PUSH2 0xDAD DUP4 DUP4 PUSH2 0x2791 JUMP JUMPDEST POP POP POP JUMP JUMPDEST PUSH32 0xD2761B102BDA9831F4AF400CC824B8CECB9CC5C1C85C51ACB1479DB9735FBFC6 PUSH2 0xDDC DUP2 PUSH2 0x267F JUMP JUMPDEST PUSH1 0x0 JUMPDEST DUP4 DUP4 SWAP1 POP DUP2 LT ISZERO PUSH2 0x14A3 JUMPI CALLDATASIZE DUP5 DUP5 DUP4 DUP2 DUP2 LT PUSH2 0xDFE JUMPI PUSH2 0xDFD PUSH2 0x4011 JUMP JUMPDEST JUMPDEST SWAP1 POP PUSH1 0x20 MUL DUP2 ADD SWAP1 PUSH2 0xE10 SWAP2 SWAP1 PUSH2 0x4250 JUMP JUMPDEST SWAP1 POP ADDRESS PUSH20 0xFFFFFFFFFFFFFFFFFFFFFFFFFFFFFFFFFFFFFFFF AND DUP2 DUP1 PUSH1 0x0 ADD SWAP1 PUSH2 0xE39 SWAP2 SWAP1 PUSH2 0x4278 JUMP JUMPDEST PUSH1 0x20 ADD PUSH1 0x20 DUP2 ADD SWAP1 PUSH2 0xE4B SWAP2 SWAP1 PUSH2 0x3856 JUMP JUMPDEST PUSH20 0xFFFFFFFFFFFFFFFFFFFFFFFFFFFFFFFFFFFFFFFF AND EQ PUSH2 0xEA1 JUMPI PUSH1 0x40 MLOAD PUSH32 0x8C379A000000000000000000000000000000000000000000000000000000000 DUP2 MSTORE PUSH1 0x4 ADD PUSH2 0xE98 SWAP1 PUSH2 0x42EC JUMP JUMPDEST PUSH1 0x40 MLOAD DUP1 SWAP2 SUB SWAP1 REVERT JUMPDEST PUSH1 0x0 DUP2 DUP1 PUSH1 0x0 ADD SWAP1 PUSH2 0xEB3 SWAP2 SWAP1 PUSH2 0x4278 JUMP JUMPDEST PUSH1 0x80 ADD CALLDATALOAD GT PUSH2 0xEF7 JUMPI PUSH1 0x40 MLOAD PUSH32 0x8C379A000000000000000000000000000000000000000000000000000000000 DUP2 MSTORE PUSH1 0x4 ADD PUSH2 0xEEE SWAP1 PUSH2 0x4358 JUMP JUMPDEST PUSH1 0x40 MLOAD DUP1 SWAP2 SUB SWAP1 REVERT JUMPDEST PUSH2 0xF12 DUP2 PUSH1 0x40 ADD PUSH1 0x20 DUP2 ADD SWAP1 PUSH2 0xF0D SWAP2 SWAP1 PUSH2 0x3856 JUMP JUMPDEST PUSH2 0x27C5 JUMP JUMPDEST PUSH2 0xF51 JUMPI PUSH1 0x40 MLOAD PUSH32 0x8C379A000000000000000000000000000000000000000000000000000000000 DUP2 MSTORE PUSH1 0x4 ADD PUSH2 0xF48 SWAP1 PUSH2 0x43C4 JUMP JUMPDEST PUSH1 0x40 MLOAD DUP1 SWAP2 SUB SWAP1 REVERT JUMPDEST PUSH1 0x0 DUP2 PUSH1 0x20 ADD PUSH1 0x20 DUP2 ADD SWAP1 PUSH2 0xF66 SWAP2 SWAP1 PUSH2 0x3856 JUMP JUMPDEST SWAP1 POP PUSH1 0x0 DUP3 DUP1 PUSH1 0x0 ADD SWAP1 PUSH2 0xF7A SWAP2 SWAP1 PUSH2 0x4278 JUMP JUMPDEST PUSH1 0x60 ADD CALLDATALOAD GT DUP1 ISZERO PUSH2 0x1017 JUMPI POP DUP1 PUSH20 0xFFFFFFFFFFFFFFFFFFFFFFFFFFFFFFFFFFFFFFFF AND PUSH4 0x70A08231 ADDRESS PUSH1 0x40 MLOAD DUP3 PUSH4 0xFFFFFFFF AND PUSH1 0xE0 SHL DUP2 MSTORE PUSH1 0x4 ADD PUSH2 0xFBF SWAP2 SWAP1 PUSH2 0x380F JUMP JUMPDEST PUSH1 0x20 PUSH1 0x40 MLOAD DUP1 DUP4 SUB DUP2 DUP7 GAS STATICCALL ISZERO DUP1 ISZERO PUSH2 0xFDC JUMPI RETURNDATASIZE PUSH1 0x0 DUP1 RETURNDATACOPY RETURNDATASIZE PUSH1 0x0 REVERT JUMPDEST POP POP POP POP PUSH1 0x40 MLOAD RETURNDATASIZE PUSH1 0x1F NOT PUSH1 0x1F DUP3 ADD AND DUP3 ADD DUP1 PUSH1 0x40 MSTORE POP DUP2 ADD SWAP1 PUSH2 0x1000 SWAP2 SWAP1 PUSH2 0x43F9 JUMP JUMPDEST DUP3 DUP1 PUSH1 0x0 ADD SWAP1 PUSH2 0x1010 SWAP2 SWAP1 PUSH2 0x4278 JUMP JUMPDEST PUSH1 0x60 ADD CALLDATALOAD GT ISZERO JUMPDEST PUSH2 0x1056 JUMPI PUSH1 0x40 MLOAD PUSH32 0x8C379A000000000000000000000000000000000000000000000000000000000 DUP2 MSTORE PUSH1 0x4 ADD PUSH2 0x104D SWAP1 PUSH2 0x4472 JUMP JUMPDEST PUSH1 0x40 MLOAD DUP1 SWAP2 SUB SWAP1 REVERT JUMPDEST PUSH1 0x0 DUP3 PUSH1 0x40 ADD PUSH1 0x20 DUP2 ADD SWAP1 PUSH2 0x106B SWAP2 SWAP1 PUSH2 0x3856 JUMP JUMPDEST PUSH20 0xFFFFFFFFFFFFFFFFFFFFFFFFFFFFFFFFFFFFFFFF AND PUSH4 0x70A08231 ADDRESS PUSH1 0x40 MLOAD DUP3 PUSH4 0xFFFFFFFF AND PUSH1 0xE0 SHL DUP2 MSTORE PUSH1 0x4 ADD PUSH2 0x10A3 SWAP2 SWAP1 PUSH2 0x380F JUMP JUMPDEST PUSH1 0x20 PUSH1 0x40 MLOAD DUP1 DUP4 SUB DUP2 DUP7 GAS STATICCALL ISZERO DUP1 ISZERO PUSH2 0x10C0 JUMPI RETURNDATASIZE PUSH1 0x0 DUP1 RETURNDATACOPY RETURNDATASIZE PUSH1 0x0 REVERT JUMPDEST POP POP POP POP PUSH1 0x40 MLOAD RETURNDATASIZE PUSH1 0x1F NOT PUSH1 0x1F DUP3 ADD AND DUP3 ADD DUP1 PUSH1 0x40 MSTORE POP DUP2 ADD SWAP1 PUSH2 0x10E4 SWAP2 SWAP1 PUSH2 0x43F9 JUMP JUMPDEST SWAP1 POP PUSH2 0x1127 DUP3 PUSH2 0x102 PUSH1 0x0 SWAP1 SLOAD SWAP1 PUSH2 0x100 EXP SWAP1 DIV PUSH20 0xFFFFFFFFFFFFFFFFFFFFFFFFFFFFFFFFFFFFFFFF AND DUP6 DUP1 PUSH1 0x0 ADD SWAP1 PUSH2 0x111E SWAP2 SWAP1 PUSH2 0x4278 JUMP JUMPDEST PUSH1 0x60 ADD CALLDATALOAD PUSH2 0x26E2 JUMP JUMPDEST PUSH1 0x0 DUP1 PUSH1 0xF8 SHL PUSH1 0x40 MLOAD PUSH1 0x20 ADD PUSH2 0x113D SWAP2 SWAP1 PUSH2 0x44DF JUMP JUMPDEST PUSH1 0x40 MLOAD PUSH1 0x20 DUP2 DUP4 SUB SUB DUP2 MSTORE SWAP1 PUSH1 0x40 MSTORE SWAP1 POP PUSH1 0x0 PUSH1 0x1 PUSH8 0xFFFFFFFFFFFFFFFF DUP2 GT ISZERO PUSH2 0x116B JUMPI PUSH2 0x116A PUSH2 0x3BF4 JUMP JUMPDEST JUMPDEST PUSH1 0x40 MLOAD SWAP1 DUP1 DUP3 MSTORE DUP1 PUSH1 0x20 MUL PUSH1 0x20 ADD DUP3 ADD PUSH1 0x40 MSTORE DUP1 ISZERO PUSH2 0x119E JUMPI DUP2 PUSH1 0x20 ADD JUMPDEST PUSH1 0x60 DUP2 MSTORE PUSH1 0x20 ADD SWAP1 PUSH1 0x1 SWAP1 SUB SWAP1 DUP2 PUSH2 0x1189 JUMPI SWAP1 POP JUMPDEST POP SWAP1 POP DUP5 DUP1 PUSH1 0x0 ADD SWAP1 PUSH2 0x11B1 SWAP2 SWAP1 PUSH2 0x4278 JUMP JUMPDEST PUSH1 0x20 ADD PUSH1 0x20 DUP2 ADD SWAP1 PUSH2 0x11C3 SWAP2 SWAP1 PUSH2 0x3856 JUMP JUMPDEST DUP6 DUP1 PUSH1 0x0 ADD SWAP1 PUSH2 0x11D3 SWAP2 SWAP1 PUSH2 0x4278 JUMP JUMPDEST PUSH1 0x60 ADD CALLDATALOAD DUP7 DUP1 PUSH1 0x0 ADD SWAP1 PUSH2 0x11E7 SWAP2 SWAP1 PUSH2 0x4278 JUMP JUMPDEST PUSH1 0x80 ADD CALLDATALOAD DUP8 DUP1 PUSH1 0x0 ADD SWAP1 PUSH2 0x11FB SWAP2 SWAP1 PUSH2 0x4278 JUMP JUMPDEST DUP1 PUSH1 0x0 ADD SWAP1 PUSH2 0x120A SWAP2 SWAP1 PUSH2 0x44FA JUMP JUMPDEST PUSH1 0x0 PUSH1 0x40 MLOAD PUSH1 0x20 ADD PUSH2 0x1221 SWAP7 SWAP6 SWAP5 SWAP4 SWAP3 SWAP2 SWAP1 PUSH2 0x459B JUMP JUMPDEST PUSH1 0x40 MLOAD PUSH1 0x20 DUP2 DUP4 SUB SUB DUP2 MSTORE SWAP1 PUSH1 0x40 MSTORE DUP2 PUSH1 0x0 DUP2 MLOAD DUP2 LT PUSH2 0x1244 JUMPI PUSH2 0x1243 PUSH2 0x4011 JUMP JUMPDEST JUMPDEST PUSH1 0x20 MUL PUSH1 0x20 ADD ADD DUP2 SWAP1 MSTORE POP PUSH2 0x102 PUSH1 0x0 SWAP1 SLOAD SWAP1 PUSH2 0x100 EXP SWAP1 DIV PUSH20 0xFFFFFFFFFFFFFFFFFFFFFFFFFFFFFFFFFFFFFFFF AND PUSH20 0xFFFFFFFFFFFFFFFFFFFFFFFFFFFFFFFFFFFFFFFF AND PUSH4 0x3593564C DUP4 DUP4 DUP9 DUP1 PUSH1 0x0 ADD SWAP1 PUSH2 0x12A0 SWAP2 SWAP1 PUSH2 0x4278 JUMP JUMPDEST PUSH1 0x40 ADD CALLDATALOAD PUSH1 0x40 MLOAD DUP5 PUSH4 0xFFFFFFFF AND PUSH1 0xE0 SHL DUP2 MSTORE PUSH1 0x4 ADD PUSH2 0x12C2 SWAP4 SWAP3 SWAP2 SWAP1 PUSH2 0x4747 JUMP JUMPDEST PUSH1 0x0 PUSH1 0x40 MLOAD DUP1 DUP4 SUB DUP2 PUSH1 0x0 DUP8 DUP1 EXTCODESIZE ISZERO DUP1 ISZERO PUSH2 0x12DC JUMPI PUSH1 0x0 DUP1 REVERT JUMPDEST POP GAS CALL SWAP3 POP POP POP DUP1 ISZERO PUSH2 0x12ED JUMPI POP PUSH1 0x1 JUMPDEST PUSH2 0x137A JUMPI PUSH2 0x12F9 PUSH2 0x4799 JUMP JUMPDEST DUP1 PUSH4 0x8C379A0 SUB PUSH2 0x1369 JUMPI POP PUSH2 0x130D PUSH2 0x47BB JUMP JUMPDEST DUP1 PUSH2 0x1318 JUMPI POP PUSH2 0x136B JUMP JUMPDEST PUSH32 0x48DBF1F65DC9FB918DCF47A87D0D7DBFE9CD78BCFAEA409049EE36785201CB91 DUP7 PUSH1 0x20 ADD PUSH1 0x20 DUP2 ADD SWAP1 PUSH2 0x134C SWAP2 SWAP1 PUSH2 0x3856 JUMP JUMPDEST DUP3 PUSH1 0x40 MLOAD PUSH2 0x135B SWAP3 SWAP2 SWAP1 PUSH2 0x484B JUMP JUMPDEST PUSH1 0x40 MLOAD DUP1 SWAP2 SUB SWAP1 LOG1 POP PUSH2 0x1375 JUMP JUMPDEST POP JUMPDEST RETURNDATASIZE PUSH1 0x0 DUP1 RETURNDATACOPY RETURNDATASIZE PUSH1 0x0 REVERT JUMPDEST PUSH2 0x148B JUMP JUMPDEST PUSH1 0x0 DUP6 PUSH1 0x40 ADD PUSH1 0x20 DUP2 ADD SWAP1 PUSH2 0x138F SWAP2 SWAP1 PUSH2 0x3856 JUMP JUMPDEST PUSH20 0xFFFFFFFFFFFFFFFFFFFFFFFFFFFFFFFFFFFFFFFF AND PUSH4 0x70A08231 ADDRESS PUSH1 0x40 MLOAD DUP3 PUSH4 0xFFFFFFFF AND PUSH1 0xE0 SHL DUP2 MSTORE PUSH1 0x4 ADD PUSH2 0x13C7 SWAP2 SWAP1 PUSH2 0x380F JUMP JUMPDEST PUSH1 0x20 PUSH1 0x40 MLOAD DUP1 DUP4 SUB DUP2 DUP7 GAS STATICCALL ISZERO DUP1 ISZERO PUSH2 0x13E4 JUMPI RETURNDATASIZE PUSH1 0x0 DUP1 RETURNDATACOPY RETURNDATASIZE PUSH1 0x0 REVERT JUMPDEST POP POP POP POP PUSH1 0x40 MLOAD RETURNDATASIZE PUSH1 0x1F NOT PUSH1 0x1F DUP3 ADD AND DUP3 ADD DUP1 PUSH1 0x40 MSTORE POP DUP2 ADD SWAP1 PUSH2 0x1408 SWAP2 SWAP1 PUSH2 0x43F9 JUMP JUMPDEST SWAP1 POP PUSH32 0xFA2DDA1CC1B86E41239702756B13EFFBC1A092B5C57E3AD320FBE4F3B13FE235 DUP7 PUSH1 0x20 ADD PUSH1 0x20 DUP2 ADD SWAP1 PUSH2 0x143E SWAP2 SWAP1 PUSH2 0x3856 JUMP JUMPDEST DUP8 PUSH1 0x40 ADD PUSH1 0x20 DUP2 ADD SWAP1 PUSH2 0x1451 SWAP2 SWAP1 PUSH2 0x3856 JUMP JUMPDEST DUP9 DUP1 PUSH1 0x0 ADD SWAP1 PUSH2 0x1461 SWAP2 SWAP1 PUSH2 0x4278 JUMP JUMPDEST PUSH1 0x60 ADD CALLDATALOAD DUP8 DUP6 PUSH2 0x1471 SWAP2 SWAP1 PUSH2 0x4040 JUMP JUMPDEST PUSH1 0x40 MLOAD PUSH2 0x1481 SWAP5 SWAP4 SWAP3 SWAP2 SWAP1 PUSH2 0x487B JUMP JUMPDEST PUSH1 0x40 MLOAD DUP1 SWAP2 SUB SWAP1 LOG1 POP JUMPDEST POP POP POP POP POP DUP1 DUP1 PUSH2 0x149B SWAP1 PUSH2 0x40D4 JUMP JUMPDEST SWAP2 POP POP PUSH2 0xDDF JUMP JUMPDEST POP POP POP POP JUMP JUMPDEST PUSH1 0xFE DUP2 DUP2 SLOAD DUP2 LT PUSH2 0x14B9 JUMPI PUSH1 0x0 DUP1 REVERT JUMPDEST SWAP1 PUSH1 0x0 MSTORE PUSH1 0x20 PUSH1 0x0 KECCAK256 ADD PUSH1 0x0 SWAP2 POP SWAP1 POP DUP1 SLOAD PUSH2 0x14D4 SWAP1 PUSH2 0x40A3 JUMP JUMPDEST DUP1 PUSH1 0x1F ADD PUSH1 0x20 DUP1 SWAP2 DIV MUL PUSH1 0x20 ADD PUSH1 0x40 MLOAD SWAP1 DUP2 ADD PUSH1 0x40 MSTORE DUP1 SWAP3 SWAP2 SWAP1 DUP2 DUP2 MSTORE PUSH1 0x20 ADD DUP3 DUP1 SLOAD PUSH2 0x1500 SWAP1 PUSH2 0x40A3 JUMP JUMPDEST DUP1 ISZERO PUSH2 0x154D JUMPI DUP1 PUSH1 0x1F LT PUSH2 0x1522 JUMPI PUSH2 0x100 DUP1 DUP4 SLOAD DIV MUL DUP4 MSTORE SWAP2 PUSH1 0x20 ADD SWAP2 PUSH2 0x154D JUMP JUMPDEST DUP3 ADD SWAP2 SWAP1 PUSH1 0x0 MSTORE PUSH1 0x20 PUSH1 0x0 KECCAK256 SWAP1 JUMPDEST DUP2 SLOAD DUP2 MSTORE SWAP1 PUSH1 0x1 ADD SWAP1 PUSH1 0x20 ADD DUP1 DUP4 GT PUSH2 0x1530 JUMPI DUP3 SWAP1 SUB PUSH1 0x1F AND DUP3 ADD SWAP2 JUMPDEST POP POP POP POP POP DUP2 JUMP JUMPDEST PUSH32 0xFD37F88A14D7ED985885A1AF8F2AD5B64DD7EB00AB89168649791632BB9BB4A6 DUP2 JUMP JUMPDEST PUSH1 0x0 DUP1 PUSH1 0xFF DUP4 PUSH1 0x40 MLOAD PUSH2 0x158C SWAP2 SWAP1 PUSH2 0x48F1 JUMP JUMPDEST SWAP1 DUP2 MSTORE PUSH1 0x20 ADD PUSH1 0x40 MLOAD DUP1 SWAP2 SUB SWAP1 KECCAK256 PUSH1 0x0 SWAP1 SLOAD SWAP1 PUSH2 0x100 EXP SWAP1 DIV PUSH20 0xFFFFFFFFFFFFFFFFFFFFFFFFFFFFFFFFFFFFFFFF AND SWAP1 POP DUP1 PUSH20 0xFFFFFFFFFFFFFFFFFFFFFFFFFFFFFFFFFFFFFFFF AND PUSH4 0x70A08231 ADDRESS PUSH1 0x40 MLOAD DUP3 PUSH4 0xFFFFFFFF AND PUSH1 0xE0 SHL DUP2 MSTORE PUSH1 0x4 ADD PUSH2 0x15F6 SWAP2 SWAP1 PUSH2 0x380F JUMP JUMPDEST PUSH1 0x20 PUSH1 0x40 MLOAD DUP1 DUP4 SUB DUP2 DUP7 GAS STATICCALL ISZERO DUP1 ISZERO PUSH2 0x1613 JUMPI RETURNDATASIZE PUSH1 0x0 DUP1 RETURNDATACOPY RETURNDATASIZE PUSH1 0x0 REVERT JUMPDEST POP POP POP POP PUSH1 0x40 MLOAD RETURNDATASIZE PUSH1 0x1F NOT PUSH1 0x1F DUP3 ADD AND DUP3 ADD DUP1 PUSH1 0x40 MSTORE POP DUP2 ADD SWAP1 PUSH2 0x1637 SWAP2 SWAP1 PUSH2 0x43F9 JUMP JUMPDEST SWAP2 POP POP SWAP2 SWAP1 POP JUMP JUMPDEST PUSH2 0x1647 PUSH2 0x2768 JUMP JUMPDEST PUSH20 0xFFFFFFFFFFFFFFFFFFFFFFFFFFFFFFFFFFFFFFFF AND DUP2 PUSH20 0xFFFFFFFFFFFFFFFFFFFFFFFFFFFFFFFFFFFFFFFF AND EQ PUSH2 0x16B4 JUMPI PUSH1 0x40 MLOAD PUSH32 0x8C379A000000000000000000000000000000000000000000000000000000000 DUP2 MSTORE PUSH1 0x4 ADD PUSH2 0x16AB SWAP1 PUSH2 0x497A JUMP JUMPDEST PUSH1 0x40 MLOAD DUP1 SWAP2 SUB SWAP1 REVERT JUMPDEST PUSH2 0x16BE DUP3 DUP3 PUSH2 0x2890 JUMP JUMPDEST POP POP JUMP JUMPDEST PUSH1 0x60 PUSH1 0x40 MLOAD DUP1 PUSH1 0x40 ADD PUSH1 0x40 MSTORE DUP1 PUSH1 0x5 DUP2 MSTORE PUSH1 0x20 ADD PUSH32 0x322E302E30000000000000000000000000000000000000000000000000000000 DUP2 MSTORE POP SWAP1 POP SWAP1 JUMP JUMPDEST PUSH1 0xFF DUP2 DUP1 MLOAD PUSH1 0x20 DUP2 ADD DUP3 ADD DUP1 MLOAD DUP5 DUP3 MSTORE PUSH1 0x20 DUP4 ADD PUSH1 0x20 DUP6 ADD KECCAK256 DUP2 DUP4 MSTORE DUP1 SWAP6 POP POP POP POP POP POP PUSH1 0x0 SWAP2 POP SLOAD SWAP1 PUSH2 0x100 EXP SWAP1 DIV PUSH20 0xFFFFFFFFFFFFFFFFFFFFFFFFFFFFFFFFFFFFFFFF AND DUP2 JUMP JUMPDEST PUSH32 0xBFFB4FAF8A508F503A2CA036EFFD0BC1F82615D3EBFDDB934EDF718F23672707 DUP2 JUMP JUMPDEST PUSH1 0x0 DUP1 PUSH1 0x1 SWAP1 SLOAD SWAP1 PUSH2 0x100 EXP SWAP1 DIV PUSH1 0xFF AND ISZERO SWAP1 POP DUP1 DUP1 ISZERO PUSH2 0x179D JUMPI POP PUSH1 0x1 PUSH1 0x0 DUP1 SLOAD SWAP1 PUSH2 0x100 EXP SWAP1 DIV PUSH1 0xFF AND PUSH1 0xFF AND LT JUMPDEST DUP1 PUSH2 0x17CA JUMPI POP PUSH2 0x17AC ADDRESS PUSH2 0x28C4 JUMP JUMPDEST ISZERO DUP1 ISZERO PUSH2 0x17C9 JUMPI POP PUSH1 0x1 PUSH1 0x0 DUP1 SLOAD SWAP1 PUSH2 0x100 EXP SWAP1 DIV PUSH1 0xFF AND PUSH1 0xFF AND EQ JUMPDEST JUMPDEST PUSH2 0x1809 JUMPI PUSH1 0x40 MLOAD PUSH32 0x8C379A000000000000000000000000000000000000000000000000000000000 DUP2 MSTORE PUSH1 0x4 ADD PUSH2 0x1800 SWAP1 PUSH2 0x4A0C JUMP JUMPDEST PUSH1 0x40 MLOAD DUP1 SWAP2 SUB SWAP1 REVERT JUMPDEST PUSH1 0x1 PUSH1 0x0 DUP1 PUSH2 0x100 EXP DUP2 SLOAD DUP2 PUSH1 0xFF MUL NOT AND SWAP1 DUP4 PUSH1 0xFF AND MUL OR SWAP1 SSTORE POP DUP1 ISZERO PUSH2 0x1846 JUMPI PUSH1 0x1 PUSH1 0x0 PUSH1 0x1 PUSH2 0x100 EXP DUP2 SLOAD DUP2 PUSH1 0xFF MUL NOT AND SWAP1 DUP4 ISZERO ISZERO MUL OR SWAP1 SSTORE POP JUMPDEST PUSH1 0x0 PUSH20 0xFFFFFFFFFFFFFFFFFFFFFFFFFFFFFFFFFFFFFFFF AND DUP9 PUSH1 0x0 PUSH1 0x3 DUP2 LT PUSH2 0x1872 JUMPI PUSH2 0x1871 PUSH2 0x4011 JUMP JUMPDEST JUMPDEST PUSH1 0x20 MUL ADD PUSH1 0x20 DUP2 ADD SWAP1 PUSH2 0x1885 SWAP2 SWAP1 PUSH2 0x3856 JUMP JUMPDEST PUSH20 0xFFFFFFFFFFFFFFFFFFFFFFFFFFFFFFFFFFFFFFFF AND EQ ISZERO DUP1 PUSH2 0x18FB JUMPI POP PUSH1 0x0 PUSH20 0xFFFFFFFFFFFFFFFFFFFFFFFFFFFFFFFFFFFFFFFF AND DUP9 PUSH1 0x1 PUSH1 0x3 DUP2 LT PUSH2 0x18CF JUMPI PUSH2 0x18CE PUSH2 0x4011 JUMP JUMPDEST JUMPDEST PUSH1 0x20 MUL ADD PUSH1 0x20 DUP2 ADD SWAP1 PUSH2 0x18E2 SWAP2 SWAP1 PUSH2 0x3856 JUMP JUMPDEST PUSH20 0xFFFFFFFFFFFFFFFFFFFFFFFFFFFFFFFFFFFFFFFF AND EQ ISZERO JUMPDEST DUP1 PUSH2 0x1959 JUMPI POP PUSH1 0x0 PUSH20 0xFFFFFFFFFFFFFFFFFFFFFFFFFFFFFFFFFFFFFFFF AND DUP9 PUSH1 0x2 PUSH1 0x3 DUP2 LT PUSH2 0x192D JUMPI PUSH2 0x192C PUSH2 0x4011 JUMP JUMPDEST JUMPDEST PUSH1 0x20 MUL ADD PUSH1 0x20 DUP2 ADD SWAP1 PUSH2 0x1940 SWAP2 SWAP1 PUSH2 0x3856 JUMP JUMPDEST PUSH20 0xFFFFFFFFFFFFFFFFFFFFFFFFFFFFFFFFFFFFFFFF AND EQ ISZERO JUMPDEST PUSH2 0x1998 JUMPI PUSH1 0x40 MLOAD PUSH32 0x8C379A000000000000000000000000000000000000000000000000000000000 DUP2 MSTORE PUSH1 0x4 ADD PUSH2 0x198F SWAP1 PUSH2 0x4A78 JUMP JUMPDEST PUSH1 0x40 MLOAD DUP1 SWAP2 SUB SWAP1 REVERT JUMPDEST PUSH1 0x0 PUSH20 0xFFFFFFFFFFFFFFFFFFFFFFFFFFFFFFFFFFFFFFFF AND DUP8 PUSH20 0xFFFFFFFFFFFFFFFFFFFFFFFFFFFFFFFFFFFFFFFF AND SUB PUSH2 0x1A07 JUMPI PUSH1 0x40 MLOAD PUSH32 0x8C379A000000000000000000000000000000000000000000000000000000000 DUP2 MSTORE PUSH1 0x4 ADD PUSH2 0x19FE SWAP1 PUSH2 0x4AE4 JUMP JUMPDEST PUSH1 0x40 MLOAD DUP1 SWAP2 SUB SWAP1 REVERT JUMPDEST PUSH1 0x0 PUSH20 0xFFFFFFFFFFFFFFFFFFFFFFFFFFFFFFFFFFFFFFFF AND DUP7 PUSH20 0xFFFFFFFFFFFFFFFFFFFFFFFFFFFFFFFFFFFFFFFF AND SUB PUSH2 0x1A76 JUMPI PUSH1 0x40 MLOAD PUSH32 0x8C379A000000000000000000000000000000000000000000000000000000000 DUP2 MSTORE PUSH1 0x4 ADD PUSH2 0x1A6D SWAP1 PUSH2 0x4B50 JUMP JUMPDEST PUSH1 0x40 MLOAD DUP1 SWAP2 SUB SWAP1 REVERT JUMPDEST PUSH1 0x0 PUSH20 0xFFFFFFFFFFFFFFFFFFFFFFFFFFFFFFFFFFFFFFFF AND DUP6 PUSH20 0xFFFFFFFFFFFFFFFFFFFFFFFFFFFFFFFFFFFFFFFF AND SUB PUSH2 0x1AE5 JUMPI PUSH1 0x40 MLOAD PUSH32 0x8C379A000000000000000000000000000000000000000000000000000000000 DUP2 MSTORE PUSH1 0x4 ADD PUSH2 0x1ADC SWAP1 PUSH2 0x4BBC JUMP JUMPDEST PUSH1 0x40 MLOAD DUP1 SWAP2 SUB SWAP1 REVERT JUMPDEST PUSH1 0x0 PUSH20 0xFFFFFFFFFFFFFFFFFFFFFFFFFFFFFFFFFFFFFFFF AND DUP5 PUSH20 0xFFFFFFFFFFFFFFFFFFFFFFFFFFFFFFFFFFFFFFFF AND SUB PUSH2 0x1B54 JUMPI PUSH1 0x40 MLOAD PUSH32 0x8C379A000000000000000000000000000000000000000000000000000000000 DUP2 MSTORE PUSH1 0x4 ADD PUSH2 0x1B4B SWAP1 PUSH2 0x4C28 JUMP JUMPDEST PUSH1 0x40 MLOAD DUP1 SWAP2 SUB SWAP1 REVERT JUMPDEST PUSH1 0x0 PUSH20 0xFFFFFFFFFFFFFFFFFFFFFFFFFFFFFFFFFFFFFFFF AND DUP4 PUSH20 0xFFFFFFFFFFFFFFFFFFFFFFFFFFFFFFFFFFFFFFFF AND SUB PUSH2 0x1BC3 JUMPI PUSH1 0x40 MLOAD PUSH32 0x8C379A000000000000000000000000000000000000000000000000000000000 DUP2 MSTORE PUSH1 0x4 ADD PUSH2 0x1BBA SWAP1 PUSH2 0x4C94 JUMP JUMPDEST PUSH1 0x40 MLOAD DUP1 SWAP2 SUB SWAP1 REVERT JUMPDEST PUSH1 0x0 PUSH20 0xFFFFFFFFFFFFFFFFFFFFFFFFFFFFFFFFFFFFFFFF AND DUP3 PUSH20 0xFFFFFFFFFFFFFFFFFFFFFFFFFFFFFFFFFFFFFFFF AND SUB PUSH2 0x1C32 JUMPI PUSH1 0x40 MLOAD PUSH32 0x8C379A000000000000000000000000000000000000000000000000000000000 DUP2 MSTORE PUSH1 0x4 ADD PUSH2 0x1C29 SWAP1 PUSH2 0x4D00 JUMP JUMPDEST PUSH1 0x40 MLOAD DUP1 SWAP2 SUB SWAP1 REVERT JUMPDEST PUSH2 0x1C3A PUSH2 0x28E7 JUMP JUMPDEST PUSH2 0x1C42 PUSH2 0x2938 JUMP JUMPDEST DUP10 DUP10 SWAP1 POP DUP13 DUP13 SWAP1 POP EQ PUSH2 0x1C8A JUMPI PUSH1 0x40 MLOAD PUSH32 0x8C379A000000000000000000000000000000000000000000000000000000000 DUP2 MSTORE PUSH1 0x4 ADD PUSH2 0x1C81 SWAP1 PUSH2 0x4D92 JUMP JUMPDEST PUSH1 0x40 MLOAD DUP1 SWAP2 SUB SWAP1 REVERT JUMPDEST PUSH1 0x0 JUMPDEST DUP13 DUP13 SWAP1 POP DUP2 LT ISZERO PUSH2 0x1DB5 JUMPI DUP11 DUP11 DUP3 DUP2 DUP2 LT PUSH2 0x1CAB JUMPI PUSH2 0x1CAA PUSH2 0x4011 JUMP JUMPDEST JUMPDEST SWAP1 POP PUSH1 0x20 MUL ADD PUSH1 0x20 DUP2 ADD SWAP1 PUSH2 0x1CC0 SWAP2 SWAP1 PUSH2 0x3856 JUMP JUMPDEST PUSH1 0xFF DUP15 DUP15 DUP5 DUP2 DUP2 LT PUSH2 0x1CD5 JUMPI PUSH2 0x1CD4 PUSH2 0x4011 JUMP JUMPDEST JUMPDEST SWAP1 POP PUSH1 0x20 MUL DUP2 ADD SWAP1 PUSH2 0x1CE7 SWAP2 SWAP1 PUSH2 0x4DB2 JUMP JUMPDEST PUSH1 0x40 MLOAD PUSH2 0x1CF5 SWAP3 SWAP2 SWAP1 PUSH2 0x4141 JUMP JUMPDEST SWAP1 DUP2 MSTORE PUSH1 0x20 ADD PUSH1 0x40 MLOAD DUP1 SWAP2 SUB SWAP1 KECCAK256 PUSH1 0x0 PUSH2 0x100 EXP DUP2 SLOAD DUP2 PUSH20 0xFFFFFFFFFFFFFFFFFFFFFFFFFFFFFFFFFFFFFFFF MUL NOT AND SWAP1 DUP4 PUSH20 0xFFFFFFFFFFFFFFFFFFFFFFFFFFFFFFFFFFFFFFFF AND MUL OR SWAP1 SSTORE POP PUSH1 0xFE DUP14 DUP14 DUP4 DUP2 DUP2 LT PUSH2 0x1D56 JUMPI PUSH2 0x1D55 PUSH2 0x4011 JUMP JUMPDEST JUMPDEST SWAP1 POP PUSH1 0x20 MUL DUP2 ADD SWAP1 PUSH2 0x1D68 SWAP2 SWAP1 PUSH2 0x4DB2 JUMP JUMPDEST SWAP1 SWAP2 DUP1 PUSH1 0x1 DUP2 SLOAD ADD DUP1 DUP3 SSTORE DUP1 SWAP2 POP POP PUSH1 0x1 SWAP1 SUB SWAP1 PUSH1 0x0 MSTORE PUSH1 0x20 PUSH1 0x0 KECCAK256 ADD PUSH1 0x0 SWAP1 SWAP2 SWAP3 SWAP1 SWAP2 SWAP3 SWAP1 SWAP2 SWAP3 SWAP1 SWAP2 SWAP3 POP SWAP2 DUP3 PUSH2 0x1DA1 SWAP3 SWAP2 SWAP1 PUSH2 0x4FCC JUMP JUMPDEST POP DUP1 DUP1 PUSH2 0x1DAD SWAP1 PUSH2 0x40D4 JUMP JUMPDEST SWAP2 POP POP PUSH2 0x1C8D JUMP JUMPDEST POP DUP6 PUSH2 0x101 PUSH1 0x0 PUSH2 0x100 EXP DUP2 SLOAD DUP2 PUSH20 0xFFFFFFFFFFFFFFFFFFFFFFFFFFFFFFFFFFFFFFFF MUL NOT AND SWAP1 DUP4 PUSH20 0xFFFFFFFFFFFFFFFFFFFFFFFFFFFFFFFFFFFFFFFF AND MUL OR SWAP1 SSTORE POP DUP7 PUSH2 0x100 PUSH1 0x0 PUSH2 0x100 EXP DUP2 SLOAD DUP2 PUSH20 0xFFFFFFFFFFFFFFFFFFFFFFFFFFFFFFFFFFFFFFFF MUL NOT AND SWAP1 DUP4 PUSH20 0xFFFFFFFFFFFFFFFFFFFFFFFFFFFFFFFFFFFFFFFF AND MUL OR SWAP1 SSTORE POP DUP3 PUSH2 0x102 PUSH1 0x0 PUSH2 0x100 EXP DUP2 SLOAD DUP2 PUSH20 0xFFFFFFFFFFFFFFFFFFFFFFFFFFFFFFFFFFFFFFFF MUL NOT AND SWAP1 DUP4 PUSH20 0xFFFFFFFFFFFFFFFFFFFFFFFFFFFFFFFFFFFFFFFF AND MUL OR SWAP1 SSTORE POP PUSH2 0x1EB0 PUSH32 0xFAAD79A708D82D095486F5A83B18341F12A8F717D3011AB929D43135C1AF73E2 PUSH1 0xFB PUSH2 0x2991 SWAP1 SWAP2 SWAP1 PUSH4 0xFFFFFFFF AND JUMP JUMPDEST POP PUSH2 0x1EE5 PUSH32 0xFD37F88A14D7ED985885A1AF8F2AD5B64DD7EB00AB89168649791632BB9BB4A6 PUSH1 0xFB PUSH2 0x2991 SWAP1 SWAP2 SWAP1 PUSH4 0xFFFFFFFF AND JUMP JUMPDEST POP PUSH2 0x1F1A PUSH32 0xBFFB4FAF8A508F503A2CA036EFFD0BC1F82615D3EBFDDB934EDF718F23672707 PUSH1 0xFB PUSH2 0x2991 SWAP1 SWAP2 SWAP1 PUSH4 0xFFFFFFFF AND JUMP JUMPDEST POP PUSH2 0x1F4F PUSH32 0xD2761B102BDA9831F4AF400CC824B8CECB9CC5C1C85C51ACB1479DB9735FBFC6 PUSH1 0xFB PUSH2 0x2991 SWAP1 SWAP2 SWAP1 PUSH4 0xFFFFFFFF AND JUMP JUMPDEST POP PUSH2 0x1FA0 PUSH32 0xFAAD79A708D82D095486F5A83B18341F12A8F717D3011AB929D43135C1AF73E2 DUP10 PUSH1 0x0 PUSH1 0x3 DUP2 LT PUSH2 0x1F88 JUMPI PUSH2 0x1F87 PUSH2 0x4011 JUMP JUMPDEST JUMPDEST PUSH1 0x20 MUL ADD PUSH1 0x20 DUP2 ADD SWAP1 PUSH2 0x1F9B SWAP2 SWAP1 PUSH2 0x3856 JUMP JUMPDEST PUSH2 0x2791 JUMP JUMPDEST PUSH2 0x1FF0 PUSH32 0xFAAD79A708D82D095486F5A83B18341F12A8F717D3011AB929D43135C1AF73E2 DUP10 PUSH1 0x1 PUSH1 0x3 DUP2 LT PUSH2 0x1FD8 JUMPI PUSH2 0x1FD7 PUSH2 0x4011 JUMP JUMPDEST JUMPDEST PUSH1 0x20 MUL ADD PUSH1 0x20 DUP2 ADD SWAP1 PUSH2 0x1FEB SWAP2 SWAP1 PUSH2 0x3856 JUMP JUMPDEST PUSH2 0x2791 JUMP JUMPDEST PUSH2 0x2040 PUSH32 0xFAAD79A708D82D095486F5A83B18341F12A8F717D3011AB929D43135C1AF73E2 DUP10 PUSH1 0x2 PUSH1 0x3 DUP2 LT PUSH2 0x2028 JUMPI PUSH2 0x2027 PUSH2 0x4011 JUMP JUMPDEST JUMPDEST PUSH1 0x20 MUL ADD PUSH1 0x20 DUP2 ADD SWAP1 PUSH2 0x203B SWAP2 SWAP1 PUSH2 0x3856 JUMP JUMPDEST PUSH2 0x2791 JUMP JUMPDEST PUSH2 0x206A PUSH32 0xFD37F88A14D7ED985885A1AF8F2AD5B64DD7EB00AB89168649791632BB9BB4A6 DUP7 PUSH2 0x2791 JUMP JUMPDEST PUSH2 0x2094 PUSH32 0xFD37F88A14D7ED985885A1AF8F2AD5B64DD7EB00AB89168649791632BB9BB4A6 DUP6 PUSH2 0x2791 JUMP JUMPDEST PUSH2 0x20BE PUSH32 0xBFFB4FAF8A508F503A2CA036EFFD0BC1F82615D3EBFDDB934EDF718F23672707 DUP7 PUSH2 0x2791 JUMP JUMPDEST PUSH2 0x20E8 PUSH32 0xBFFB4FAF8A508F503A2CA036EFFD0BC1F82615D3EBFDDB934EDF718F23672707 DUP6 PUSH2 0x2791 JUMP JUMPDEST PUSH2 0x2112 PUSH32 0xD2761B102BDA9831F4AF400CC824B8CECB9CC5C1C85C51ACB1479DB9735FBFC6 DUP4 PUSH2 0x2791 JUMP JUMPDEST PUSH2 0x213C PUSH32 0xFAAD79A708D82D095486F5A83B18341F12A8F717D3011AB929D43135C1AF73E2 DUP1 PUSH2 0x29A8 JUMP JUMPDEST PUSH2 0x2166 PUSH32 0xFD37F88A14D7ED985885A1AF8F2AD5B64DD7EB00AB89168649791632BB9BB4A6 DUP1 PUSH2 0x29A8 JUMP JUMPDEST PUSH2 0x2190 PUSH32 0xBFFB4FAF8A508F503A2CA036EFFD0BC1F82615D3EBFDDB934EDF718F23672707 DUP1 PUSH2 0x29A8 JUMP JUMPDEST PUSH2 0x21DA PUSH32 0xD2761B102BDA9831F4AF400CC824B8CECB9CC5C1C85C51ACB1479DB9735FBFC6 PUSH32 0xFAAD79A708D82D095486F5A83B18341F12A8F717D3011AB929D43135C1AF73E2 PUSH2 0x29A8 JUMP JUMPDEST PUSH32 0x601EDFE63B019DAB49ADA69A178B64E0C3FF132D08BBDCDF1EBE6D6DA15FEF0A CALLER DUP14 DUP14 DUP14 DUP14 DUP14 DUP14 DUP14 DUP14 DUP14 DUP14 DUP14 PUSH1 0x40 MLOAD PUSH2 0x221F SWAP13 SWAP12 SWAP11 SWAP10 SWAP9 SWAP8 SWAP7 SWAP6 SWAP5 SWAP4 SWAP3 SWAP2 SWAP1 PUSH2 0x532D JUMP JUMPDEST PUSH1 0x40 MLOAD DUP1 SWAP2 SUB SWAP1 LOG1 DUP1 ISZERO PUSH2 0x2280 JUMPI PUSH1 0x0 DUP1 PUSH1 0x1 PUSH2 0x100 EXP DUP2 SLOAD DUP2 PUSH1 0xFF MUL NOT AND SWAP1 DUP4 ISZERO ISZERO MUL OR SWAP1 SSTORE POP PUSH32 0x7F26B83FF96E1F2B6A682F133852F6798A09C465DA95921460CEFB3847402498 PUSH1 0x1 PUSH1 0x40 MLOAD PUSH2 0x2277 SWAP2 SWAP1 PUSH2 0x5425 JUMP JUMPDEST PUSH1 0x40 MLOAD DUP1 SWAP2 SUB SWAP1 LOG1 JUMPDEST POP POP POP POP POP POP POP POP POP POP POP POP JUMP JUMPDEST PUSH1 0x0 PUSH2 0x229A PUSH1 0xFB PUSH2 0x2A04 JUMP JUMPDEST SWAP1 POP SWAP1 JUMP JUMPDEST PUSH1 0x0 PUSH2 0x22C6 DUP3 PUSH1 0x97 PUSH1 0x0 DUP7 DUP2 MSTORE PUSH1 0x20 ADD SWAP1 DUP2 MSTORE PUSH1 0x20 ADD PUSH1 0x0 KECCAK256 PUSH2 0x2A19 SWAP1 SWAP2 SWAP1 PUSH4 0xFFFFFFFF AND JUMP JUMPDEST SWAP1 POP SWAP3 SWAP2 POP POP JUMP JUMPDEST PUSH1 0x0 PUSH1 0x65 PUSH1 0x0 DUP5 DUP2 MSTORE PUSH1 0x20 ADD SWAP1 DUP2 MSTORE PUSH1 0x20 ADD PUSH1 0x0 KECCAK256 PUSH1 0x0 ADD PUSH1 0x0 DUP4 PUSH20 0xFFFFFFFFFFFFFFFFFFFFFFFFFFFFFFFFFFFFFFFF AND PUSH20 0xFFFFFFFFFFFFFFFFFFFFFFFFFFFFFFFFFFFFFFFF AND DUP2 MSTORE PUSH1 0x20 ADD SWAP1 DUP2 MSTORE PUSH1 0x20 ADD PUSH1 0x0 KECCAK256 PUSH1 0x0 SWAP1 SLOAD SWAP1 PUSH2 0x100 EXP SWAP1 DIV PUSH1 0xFF AND SWAP1 POP SWAP3 SWAP2 POP POP JUMP JUMPDEST PUSH1 0x0 DUP1 SHL DUP2 JUMP JUMPDEST PUSH2 0x101 PUSH1 0x0 SWAP1 SLOAD SWAP1 PUSH2 0x100 EXP SWAP1 DIV PUSH20 0xFFFFFFFFFFFFFFFFFFFFFFFFFFFFFFFFFFFFFFFF AND DUP2 JUMP JUMPDEST PUSH1 0x0 PUSH2 0x2384 PUSH1 0x97 PUSH1 0x0 DUP5 DUP2 MSTORE PUSH1 0x20 ADD SWAP1 DUP2 MSTORE PUSH1 0x20 ADD PUSH1 0x0 KECCAK256 PUSH2 0x2A33 JUMP JUMPDEST SWAP1 POP SWAP2 SWAP1 POP JUMP JUMPDEST PUSH32 0xFAAD79A708D82D095486F5A83B18341F12A8F717D3011AB929D43135C1AF73E2 PUSH2 0x23B5 DUP2 PUSH2 0x267F JUMP JUMPDEST PUSH1 0x0 PUSH20 0xFFFFFFFFFFFFFFFFFFFFFFFFFFFFFFFFFFFFFFFF AND DUP3 PUSH20 0xFFFFFFFFFFFFFFFFFFFFFFFFFFFFFFFFFFFFFFFF AND SUB PUSH2 0x2424 JUMPI PUSH1 0x40 MLOAD PUSH32 0x8C379A000000000000000000000000000000000000000000000000000000000 DUP2 MSTORE PUSH1 0x4 ADD PUSH2 0x241B SWAP1 PUSH2 0x548C JUMP JUMPDEST PUSH1 0x40 MLOAD DUP1 SWAP2 SUB SWAP1 REVERT JUMPDEST DUP2 PUSH2 0x100 PUSH1 0x0 PUSH2 0x100 EXP DUP2 SLOAD DUP2 PUSH20 0xFFFFFFFFFFFFFFFFFFFFFFFFFFFFFFFFFFFFFFFF MUL NOT AND SWAP1 DUP4 PUSH20 0xFFFFFFFFFFFFFFFFFFFFFFFFFFFFFFFFFFFFFFFF AND MUL OR SWAP1 SSTORE POP POP POP JUMP JUMPDEST PUSH2 0x2473 DUP3 PUSH2 0xC7B JUMP JUMPDEST PUSH2 0x247C DUP2 PUSH2 0x267F JUMP JUMPDEST PUSH2 0x2486 DUP4 DUP4 PUSH2 0x2890 JUMP JUMPDEST POP POP POP JUMP JUMPDEST PUSH32 0xFD37F88A14D7ED985885A1AF8F2AD5B64DD7EB00AB89168649791632BB9BB4A6 PUSH2 0x24B5 DUP2 PUSH2 0x267F JUMP JUMPDEST PUSH2 0x24BD PUSH2 0x2693 JUMP JUMPDEST PUSH2 0x252B PUSH1 0xFF DUP5 DUP5 PUSH1 0x40 MLOAD PUSH2 0x24D2 SWAP3 SWAP2 SWAP1 PUSH2 0x4141 JUMP JUMPDEST SWAP1 DUP2 MSTORE PUSH1 0x20 ADD PUSH1 0x40 MLOAD DUP1 SWAP2 SUB SWAP1 KECCAK256 PUSH1 0x0 SWAP1 SLOAD SWAP1 PUSH2 0x100 EXP SWAP1 DIV PUSH20 0xFFFFFFFFFFFFFFFFFFFFFFFFFFFFFFFFFFFFFFFF AND PUSH2 0x101 PUSH1 0x0 SWAP1 SLOAD SWAP1 PUSH2 0x100 EXP SWAP1 DIV PUSH20 0xFFFFFFFFFFFFFFFFFFFFFFFFFFFFFFFFFFFFFFFF AND DUP7 PUSH2 0x26E2 JUMP JUMPDEST PUSH32 0x901C03DA5D88EB3D62AB4617E7B7D17D86DB16356823A7971127D5181A842FEF PUSH2 0x101 PUSH1 0x0 SWAP1 SLOAD SWAP1 PUSH2 0x100 EXP SWAP1 DIV PUSH20 0xFFFFFFFFFFFFFFFFFFFFFFFFFFFFFFFFFFFFFFFF AND DUP5 DUP5 DUP8 PUSH1 0x40 MLOAD PUSH2 0x2583 SWAP5 SWAP4 SWAP3 SWAP2 SWAP1 PUSH2 0x54AC JUMP JUMPDEST PUSH1 0x40 MLOAD DUP1 SWAP2 SUB SWAP1 LOG1 PUSH2 0x2593 PUSH2 0x2770 JUMP JUMPDEST POP POP POP POP JUMP JUMPDEST PUSH32 0xD2761B102BDA9831F4AF400CC824B8CECB9CC5C1C85C51ACB1479DB9735FBFC6 DUP2 JUMP JUMPDEST PUSH32 0xFAAD79A708D82D095486F5A83B18341F12A8F717D3011AB929D43135C1AF73E2 DUP2 JUMP JUMPDEST PUSH32 0x539440820030C4994DB4E31B6B800DEAFD503688728F932ADDFE7A410515C14C DUP2 JUMP JUMPDEST PUSH1 0x0 PUSH32 0x7965DB0B00000000000000000000000000000000000000000000000000000000 PUSH28 0xFFFFFFFFFFFFFFFFFFFFFFFFFFFFFFFFFFFFFFFFFFFFFFFFFFFFFFFF NOT AND DUP3 PUSH28 0xFFFFFFFFFFFFFFFFFFFFFFFFFFFFFFFFFFFFFFFFFFFFFFFFFFFFFFFF NOT AND EQ DUP1 PUSH2 0x2678 JUMPI POP PUSH2 0x2677 DUP3 PUSH2 0x2A48 JUMP JUMPDEST JUMPDEST SWAP1 POP SWAP2 SWAP1 POP JUMP JUMPDEST PUSH2 0x2690 DUP2 PUSH2 0x268B PUSH2 0x2768 JUMP JUMPDEST PUSH2 0x2AB2 JUMP JUMPDEST POP JUMP JUMPDEST PUSH1 0x2 PUSH1 0xC9 SLOAD SUB PUSH2 0x26D8 JUMPI PUSH1 0x40 MLOAD PUSH32 0x8C379A000000000000000000000000000000000000000000000000000000000 DUP2 MSTORE PUSH1 0x4 ADD PUSH2 0x26CF SWAP1 PUSH2 0x5538 JUMP JUMPDEST PUSH1 0x40 MLOAD DUP1 SWAP2 SUB SWAP1 REVERT JUMPDEST PUSH1 0x2 PUSH1 0xC9 DUP2 SWAP1 SSTORE POP JUMP JUMPDEST PUSH2 0x2763 DUP4 PUSH4 0xA9059CBB PUSH1 0xE0 SHL DUP5 DUP5 PUSH1 0x40 MLOAD PUSH1 0x24 ADD PUSH2 0x2701 SWAP3 SWAP2 SWAP1 PUSH2 0x5558 JUMP JUMPDEST PUSH1 0x40 MLOAD PUSH1 0x20 DUP2 DUP4 SUB SUB DUP2 MSTORE SWAP1 PUSH1 0x40 MSTORE SWAP1 PUSH28 0xFFFFFFFFFFFFFFFFFFFFFFFFFFFFFFFFFFFFFFFFFFFFFFFFFFFFFFFF NOT AND PUSH1 0x20 DUP3 ADD DUP1 MLOAD PUSH28 0xFFFFFFFFFFFFFFFFFFFFFFFFFFFFFFFFFFFFFFFFFFFFFFFFFFFFFFFF DUP4 DUP2 DUP4 AND OR DUP4 MSTORE POP POP POP POP PUSH2 0x2B37 JUMP JUMPDEST POP POP POP JUMP JUMPDEST PUSH1 0x0 CALLER SWAP1 POP SWAP1 JUMP JUMPDEST PUSH1 0x1 PUSH1 0xC9 DUP2 SWAP1 SSTORE POP JUMP JUMPDEST PUSH1 0x0 PUSH2 0x2789 DUP4 PUSH1 0x0 ADD DUP4 PUSH2 0x2BFF JUMP JUMPDEST SWAP1 POP SWAP3 SWAP2 POP POP JUMP JUMPDEST PUSH2 0x279B DUP3 DUP3 PUSH2 0x2C2A JUMP JUMPDEST PUSH2 0x27C0 DUP2 PUSH1 0x97 PUSH1 0x0 DUP6 DUP2 MSTORE PUSH1 0x20 ADD SWAP1 DUP2 MSTORE PUSH1 0x20 ADD PUSH1 0x0 KECCAK256 PUSH2 0x2D0B SWAP1 SWAP2 SWAP1 PUSH4 0xFFFFFFFF AND JUMP JUMPDEST POP POP POP JUMP JUMPDEST PUSH1 0x0 DUP1 PUSH1 0x0 SWAP1 POP JUMPDEST PUSH1 0xFE DUP1 SLOAD SWAP1 POP DUP2 LT ISZERO PUSH2 0x2885 JUMPI DUP3 PUSH20 0xFFFFFFFFFFFFFFFFFFFFFFFFFFFFFFFFFFFFFFFF AND PUSH1 0xFF PUSH1 0xFE DUP4 DUP2 SLOAD DUP2 LT PUSH2 0x2807 JUMPI PUSH2 0x2806 PUSH2 0x4011 JUMP JUMPDEST JUMPDEST SWAP1 PUSH1 0x0 MSTORE PUSH1 0x20 PUSH1 0x0 KECCAK256 ADD PUSH1 0x40 MLOAD PUSH2 0x281E SWAP2 SWAP1 PUSH2 0x5604 JUMP JUMPDEST SWAP1 DUP2 MSTORE PUSH1 0x20 ADD PUSH1 0x40 MLOAD DUP1 SWAP2 SUB SWAP1 KECCAK256 PUSH1 0x0 SWAP1 SLOAD SWAP1 PUSH2 0x100 EXP SWAP1 DIV PUSH20 0xFFFFFFFFFFFFFFFFFFFFFFFFFFFFFFFFFFFFFFFF AND PUSH20 0xFFFFFFFFFFFFFFFFFFFFFFFFFFFFFFFFFFFFFFFF AND SUB PUSH2 0x2872 JUMPI PUSH1 0x1 SWAP2 POP POP PUSH2 0x288B JUMP JUMPDEST DUP1 DUP1 PUSH2 0x287D SWAP1 PUSH2 0x40D4 JUMP JUMPDEST SWAP2 POP POP PUSH2 0x27CD JUMP JUMPDEST POP PUSH1 0x0 SWAP1 POP JUMPDEST SWAP2 SWAP1 POP JUMP JUMPDEST PUSH2 0x289A DUP3 DUP3 PUSH2 0x2D3B JUMP JUMPDEST PUSH2 0x28BF DUP2 PUSH1 0x97 PUSH1 0x0 DUP6 DUP2 MSTORE PUSH1 0x20 ADD SWAP1 DUP2 MSTORE PUSH1 0x20 ADD PUSH1 0x0 KECCAK256 PUSH2 0x2E1D SWAP1 SWAP2 SWAP1 PUSH4 0xFFFFFFFF AND JUMP JUMPDEST POP POP POP JUMP JUMPDEST PUSH1 0x0 DUP1 DUP3 PUSH20 0xFFFFFFFFFFFFFFFFFFFFFFFFFFFFFFFFFFFFFFFF AND EXTCODESIZE GT SWAP1 POP SWAP2 SWAP1 POP JUMP JUMPDEST PUSH1 0x0 PUSH1 0x1 SWAP1 SLOAD SWAP1 PUSH2 0x100 EXP SWAP1 DIV PUSH1 0xFF AND PUSH2 0x2936 JUMPI PUSH1 0x40 MLOAD PUSH32 0x8C379A000000000000000000000000000000000000000000000000000000000 DUP2 MSTORE PUSH1 0x4 ADD PUSH2 0x292D SWAP1 PUSH2 0x568D JUMP JUMPDEST PUSH1 0x40 MLOAD DUP1 SWAP2 SUB SWAP1 REVERT JUMPDEST JUMP JUMPDEST PUSH1 0x0 PUSH1 0x1 SWAP1 SLOAD SWAP1 PUSH2 0x100 EXP SWAP1 DIV PUSH1 0xFF AND PUSH2 0x2987 JUMPI PUSH1 0x40 MLOAD PUSH32 0x8C379A000000000000000000000000000000000000000000000000000000000 DUP2 MSTORE PUSH1 0x4 ADD PUSH2 0x297E SWAP1 PUSH2 0x568D JUMP JUMPDEST PUSH1 0x40 MLOAD DUP1 SWAP2 SUB SWAP1 REVERT JUMPDEST PUSH1 0x1 PUSH1 0xC9 DUP2 SWAP1 SSTORE POP JUMP JUMPDEST PUSH1 0x0 PUSH2 0x29A0 DUP4 PUSH1 0x0 ADD DUP4 PUSH2 0x2E4D JUMP JUMPDEST SWAP1 POP SWAP3 SWAP2 POP POP JUMP JUMPDEST PUSH1 0x0 PUSH2 0x29B3 DUP4 PUSH2 0xC7B JUMP JUMPDEST SWAP1 POP DUP2 PUSH1 0x65 PUSH1 0x0 DUP6 DUP2 MSTORE PUSH1 0x20 ADD SWAP1 DUP2 MSTORE PUSH1 0x20 ADD PUSH1 0x0 KECCAK256 PUSH1 0x1 ADD DUP2 SWAP1 SSTORE POP DUP2 DUP2 DUP5 PUSH32 0xBD79B86FFE0AB8E8776151514217CD7CACD52C909F66475C3AF44E129F0B00FF PUSH1 0x40 MLOAD PUSH1 0x40 MLOAD DUP1 SWAP2 SUB SWAP1 LOG4 POP POP POP JUMP JUMPDEST PUSH1 0x0 PUSH2 0x2A12 DUP3 PUSH1 0x0 ADD PUSH2 0x2EBD JUMP JUMPDEST SWAP1 POP SWAP2 SWAP1 POP JUMP JUMPDEST PUSH1 0x0 PUSH2 0x2A28 DUP4 PUSH1 0x0 ADD DUP4 PUSH2 0x2BFF JUMP JUMPDEST PUSH1 0x0 SHR SWAP1 POP SWAP3 SWAP2 POP POP JUMP JUMPDEST PUSH1 0x0 PUSH2 0x2A41 DUP3 PUSH1 0x0 ADD PUSH2 0x2EBD JUMP JUMPDEST SWAP1 POP SWAP2 SWAP1 POP JUMP JUMPDEST PUSH1 0x0 PUSH32 0x1FFC9A700000000000000000000000000000000000000000000000000000000 PUSH28 0xFFFFFFFFFFFFFFFFFFFFFFFFFFFFFFFFFFFFFFFFFFFFFFFFFFFFFFFF NOT AND DUP3 PUSH28 0xFFFFFFFFFFFFFFFFFFFFFFFFFFFFFFFFFFFFFFFFFFFFFFFFFFFFFFFF NOT AND EQ SWAP1 POP SWAP2 SWAP1 POP JUMP JUMPDEST PUSH2 0x2ABC DUP3 DUP3 PUSH2 0x22CE JUMP JUMPDEST PUSH2 0x2B33 JUMPI PUSH2 0x2AC9 DUP2 PUSH2 0x2ECE JUMP JUMPDEST PUSH2 0x2AD7 DUP4 PUSH1 0x0 SHR PUSH1 0x20 PUSH2 0x2EFB JUMP JUMPDEST PUSH1 0x40 MLOAD PUSH1 0x20 ADD PUSH2 0x2AE8 SWAP3 SWAP2 SWAP1 PUSH2 0x5745 JUMP JUMPDEST PUSH1 0x40 MLOAD PUSH1 0x20 DUP2 DUP4 SUB SUB DUP2 MSTORE SWAP1 PUSH1 0x40 MSTORE PUSH1 0x40 MLOAD PUSH32 0x8C379A000000000000000000000000000000000000000000000000000000000 DUP2 MSTORE PUSH1 0x4 ADD PUSH2 0x2B2A SWAP2 SWAP1 PUSH2 0x3BCD JUMP JUMPDEST PUSH1 0x40 MLOAD DUP1 SWAP2 SUB SWAP1 REVERT JUMPDEST POP POP JUMP JUMPDEST PUSH1 0x0 PUSH2 0x2B99 DUP3 PUSH1 0x40 MLOAD DUP1 PUSH1 0x40 ADD PUSH1 0x40 MSTORE DUP1 PUSH1 0x20 DUP2 MSTORE PUSH1 0x20 ADD PUSH32 0x5361666545524332303A206C6F772D6C6576656C2063616C6C206661696C6564 DUP2 MSTORE POP DUP6 PUSH20 0xFFFFFFFFFFFFFFFFFFFFFFFFFFFFFFFFFFFFFFFF AND PUSH2 0x3137 SWAP1 SWAP3 SWAP2 SWAP1 PUSH4 0xFFFFFFFF AND JUMP JUMPDEST SWAP1 POP PUSH1 0x0 DUP2 MLOAD EQ DUP1 PUSH2 0x2BBB JUMPI POP DUP1 DUP1 PUSH1 0x20 ADD SWAP1 MLOAD DUP2 ADD SWAP1 PUSH2 0x2BBA SWAP2 SWAP1 PUSH2 0x57AB JUMP JUMPDEST JUMPDEST PUSH2 0x2BFA JUMPI PUSH1 0x40 MLOAD PUSH32 0x8C379A000000000000000000000000000000000000000000000000000000000 DUP2 MSTORE PUSH1 0x4 ADD PUSH2 0x2BF1 SWAP1 PUSH2 0x584A JUMP JUMPDEST PUSH1 0x40 MLOAD DUP1 SWAP2 SUB SWAP1 REVERT JUMPDEST POP POP POP JUMP JUMPDEST PUSH1 0x0 DUP3 PUSH1 0x0 ADD DUP3 DUP2 SLOAD DUP2 LT PUSH2 0x2C17 JUMPI PUSH2 0x2C16 PUSH2 0x4011 JUMP JUMPDEST JUMPDEST SWAP1 PUSH1 0x0 MSTORE PUSH1 0x20 PUSH1 0x0 KECCAK256 ADD SLOAD SWAP1 POP SWAP3 SWAP2 POP POP JUMP JUMPDEST PUSH2 0x2C34 DUP3 DUP3 PUSH2 0x22CE JUMP JUMPDEST PUSH2 0x2D07 JUMPI PUSH1 0x1 PUSH1 0x65 PUSH1 0x0 DUP5 DUP2 MSTORE PUSH1 0x20 ADD SWAP1 DUP2 MSTORE PUSH1 0x20 ADD PUSH1 0x0 KECCAK256 PUSH1 0x0 ADD PUSH1 0x0 DUP4 PUSH20 0xFFFFFFFFFFFFFFFFFFFFFFFFFFFFFFFFFFFFFFFF AND PUSH20 0xFFFFFFFFFFFFFFFFFFFFFFFFFFFFFFFFFFFFFFFF AND DUP2 MSTORE PUSH1 0x20 ADD SWAP1 DUP2 MSTORE PUSH1 0x20 ADD PUSH1 0x0 KECCAK256 PUSH1 0x0 PUSH2 0x100 EXP DUP2 SLOAD DUP2 PUSH1 0xFF MUL NOT AND SWAP1 DUP4 ISZERO ISZERO MUL OR SWAP1 SSTORE POP PUSH2 0x2CAC PUSH2 0x2768 JUMP JUMPDEST PUSH20 0xFFFFFFFFFFFFFFFFFFFFFFFFFFFFFFFFFFFFFFFF AND DUP2 PUSH20 0xFFFFFFFFFFFFFFFFFFFFFFFFFFFFFFFFFFFFFFFF AND DUP4 PUSH32 0x2F8788117E7EFF1D82E926EC794901D17C78024A50270940304540A733656F0D PUSH1 0x40 MLOAD PUSH1 0x40 MLOAD DUP1 SWAP2 SUB SWAP1 LOG4 JUMPDEST POP POP JUMP JUMPDEST PUSH1 0x0 PUSH2 0x2D33 DUP4 PUSH1 0x0 ADD DUP4 PUSH20 0xFFFFFFFFFFFFFFFFFFFFFFFFFFFFFFFFFFFFFFFF AND PUSH1 0x0 SHL PUSH2 0x2E4D JUMP JUMPDEST SWAP1 POP SWAP3 SWAP2 POP POP JUMP JUMPDEST PUSH2 0x2D45 DUP3 DUP3 PUSH2 0x22CE JUMP JUMPDEST ISZERO PUSH2 0x2E19 JUMPI PUSH1 0x0 PUSH1 0x65 PUSH1 0x0 DUP5 DUP2 MSTORE PUSH1 0x20 ADD SWAP1 DUP2 MSTORE PUSH1 0x20 ADD PUSH1 0x0 KECCAK256 PUSH1 0x0 ADD PUSH1 0x0 DUP4 PUSH20 0xFFFFFFFFFFFFFFFFFFFFFFFFFFFFFFFFFFFFFFFF AND PUSH20 0xFFFFFFFFFFFFFFFFFFFFFFFFFFFFFFFFFFFFFFFF AND DUP2 MSTORE PUSH1 0x20 ADD SWAP1 DUP2 MSTORE PUSH1 0x20 ADD PUSH1 0x0 KECCAK256 PUSH1 0x0 PUSH2 0x100 EXP DUP2 SLOAD DUP2 PUSH1 0xFF MUL NOT AND SWAP1 DUP4 ISZERO ISZERO MUL OR SWAP1 SSTORE POP PUSH2 0x2DBE PUSH2 0x2768 JUMP JUMPDEST PUSH20 0xFFFFFFFFFFFFFFFFFFFFFFFFFFFFFFFFFFFFFFFF AND DUP2 PUSH20 0xFFFFFFFFFFFFFFFFFFFFFFFFFFFFFFFFFFFFFFFF AND DUP4 PUSH32 0xF6391F5C32D9C69D2A47EA670B442974B53935D1EDC7FD64EB21E047A839171B PUSH1 0x40 MLOAD PUSH1 0x40 MLOAD DUP1 SWAP2 SUB SWAP1 LOG4 JUMPDEST POP POP JUMP JUMPDEST PUSH1 0x0 PUSH2 0x2E45 DUP4 PUSH1 0x0 ADD DUP4 PUSH20 0xFFFFFFFFFFFFFFFFFFFFFFFFFFFFFFFFFFFFFFFF AND PUSH1 0x0 SHL PUSH2 0x314F JUMP JUMPDEST SWAP1 POP SWAP3 SWAP2 POP POP JUMP JUMPDEST PUSH1 0x0 PUSH2 0x2E59 DUP4 DUP4 PUSH2 0x3263 JUMP JUMPDEST PUSH2 0x2EB2 JUMPI DUP3 PUSH1 0x0 ADD DUP3 SWAP1 DUP1 PUSH1 0x1 DUP2 SLOAD ADD DUP1 DUP3 SSTORE DUP1 SWAP2 POP POP PUSH1 0x1 SWAP1 SUB SWAP1 PUSH1 0x0 MSTORE PUSH1 0x20 PUSH1 0x0 KECCAK256 ADD PUSH1 0x0 SWAP1 SWAP2 SWAP1 SWAP2 SWAP1 SWAP2 POP SSTORE DUP3 PUSH1 0x0 ADD DUP1 SLOAD SWAP1 POP DUP4 PUSH1 0x1 ADD PUSH1 0x0 DUP5 DUP2 MSTORE PUSH1 0x20 ADD SWAP1 DUP2 MSTORE PUSH1 0x20 ADD PUSH1 0x0 KECCAK256 DUP2 SWAP1 SSTORE POP PUSH1 0x1 SWAP1 POP PUSH2 0x2EB7 JUMP JUMPDEST PUSH1 0x0 SWAP1 POP JUMPDEST SWAP3 SWAP2 POP POP JUMP JUMPDEST PUSH1 0x0 DUP2 PUSH1 0x0 ADD DUP1 SLOAD SWAP1 POP SWAP1 POP SWAP2 SWAP1 POP JUMP JUMPDEST PUSH1 0x60 PUSH2 0x2EF4 DUP3 PUSH20 0xFFFFFFFFFFFFFFFFFFFFFFFFFFFFFFFFFFFFFFFF AND PUSH1 0x14 PUSH1 0xFF AND PUSH2 0x2EFB JUMP JUMPDEST SWAP1 POP SWAP2 SWAP1 POP JUMP JUMPDEST PUSH1 0x60 PUSH1 0x0 PUSH1 0x2 DUP4 PUSH1 0x2 PUSH2 0x2F0E SWAP2 SWAP1 PUSH2 0x586A JUMP JUMPDEST PUSH2 0x2F18 SWAP2 SWAP1 PUSH2 0x3FDD JUMP JUMPDEST PUSH8 0xFFFFFFFFFFFFFFFF DUP2 GT ISZERO PUSH2 0x2F31 JUMPI PUSH2 0x2F30 PUSH2 0x3BF4 JUMP JUMPDEST JUMPDEST PUSH1 0x40 MLOAD SWAP1 DUP1 DUP3 MSTORE DUP1 PUSH1 0x1F ADD PUSH1 0x1F NOT AND PUSH1 0x20 ADD DUP3 ADD PUSH1 0x40 MSTORE DUP1 ISZERO PUSH2 0x2F63 JUMPI DUP2 PUSH1 0x20 ADD PUSH1 0x1 DUP3 MUL DUP1 CALLDATASIZE DUP4 CALLDATACOPY DUP1 DUP3 ADD SWAP2 POP POP SWAP1 POP JUMPDEST POP SWAP1 POP PUSH32 0x3000000000000000000000000000000000000000000000000000000000000000 DUP2 PUSH1 0x0 DUP2 MLOAD DUP2 LT PUSH2 0x2F9B JUMPI PUSH2 0x2F9A PUSH2 0x4011 JUMP JUMPDEST JUMPDEST PUSH1 0x20 ADD ADD SWAP1 PUSH31 0xFFFFFFFFFFFFFFFFFFFFFFFFFFFFFFFFFFFFFFFFFFFFFFFFFFFFFFFFFFFFFF NOT AND SWAP1 DUP2 PUSH1 0x0 BYTE SWAP1 MSTORE8 POP PUSH32 0x7800000000000000000000000000000000000000000000000000000000000000 DUP2 PUSH1 0x1 DUP2 MLOAD DUP2 LT PUSH2 0x2FFF JUMPI PUSH2 0x2FFE PUSH2 0x4011 JUMP JUMPDEST JUMPDEST PUSH1 0x20 ADD ADD SWAP1 PUSH31 0xFFFFFFFFFFFFFFFFFFFFFFFFFFFFFFFFFFFFFFFFFFFFFFFFFFFFFFFFFFFFFF NOT AND SWAP1 DUP2 PUSH1 0x0 BYTE SWAP1 MSTORE8 POP PUSH1 0x0 PUSH1 0x1 DUP5 PUSH1 0x2 PUSH2 0x303F SWAP2 SWAP1 PUSH2 0x586A JUMP JUMPDEST PUSH2 0x3049 SWAP2 SWAP1 PUSH2 0x3FDD JUMP JUMPDEST SWAP1 POP JUMPDEST PUSH1 0x1 DUP2 GT ISZERO PUSH2 0x30E9 JUMPI PUSH32 0x3031323334353637383961626364656600000000000000000000000000000000 PUSH1 0xF DUP7 AND PUSH1 0x10 DUP2 LT PUSH2 0x308B JUMPI PUSH2 0x308A PUSH2 0x4011 JUMP JUMPDEST JUMPDEST BYTE PUSH1 0xF8 SHL DUP3 DUP3 DUP2 MLOAD DUP2 LT PUSH2 0x30A2 JUMPI PUSH2 0x30A1 PUSH2 0x4011 JUMP JUMPDEST JUMPDEST PUSH1 0x20 ADD ADD SWAP1 PUSH31 0xFFFFFFFFFFFFFFFFFFFFFFFFFFFFFFFFFFFFFFFFFFFFFFFFFFFFFFFFFFFFFF NOT AND SWAP1 DUP2 PUSH1 0x0 BYTE SWAP1 MSTORE8 POP PUSH1 0x4 DUP6 SWAP1 SHR SWAP5 POP DUP1 PUSH2 0x30E2 SWAP1 PUSH2 0x58AC JUMP JUMPDEST SWAP1 POP PUSH2 0x304C JUMP JUMPDEST POP PUSH1 0x0 DUP5 EQ PUSH2 0x312D JUMPI PUSH1 0x40 MLOAD PUSH32 0x8C379A000000000000000000000000000000000000000000000000000000000 DUP2 MSTORE PUSH1 0x4 ADD PUSH2 0x3124 SWAP1 PUSH2 0x5921 JUMP JUMPDEST PUSH1 0x40 MLOAD DUP1 SWAP2 SUB SWAP1 REVERT JUMPDEST DUP1 SWAP2 POP POP SWAP3 SWAP2 POP POP JUMP JUMPDEST PUSH1 0x60 PUSH2 0x3146 DUP5 DUP5 PUSH1 0x0 DUP6 PUSH2 0x3286 JUMP JUMPDEST SWAP1 POP SWAP4 SWAP3 POP POP POP JUMP JUMPDEST PUSH1 0x0 DUP1 DUP4 PUSH1 0x1 ADD PUSH1 0x0 DUP5 DUP2 MSTORE PUSH1 0x20 ADD SWAP1 DUP2 MSTORE PUSH1 0x20 ADD PUSH1 0x0 KECCAK256 SLOAD SWAP1 POP PUSH1 0x0 DUP2 EQ PUSH2 0x3257 JUMPI PUSH1 0x0 PUSH1 0x1 DUP3 PUSH2 0x3181 SWAP2 SWAP1 PUSH2 0x4040 JUMP JUMPDEST SWAP1 POP PUSH1 0x0 PUSH1 0x1 DUP7 PUSH1 0x0 ADD DUP1 SLOAD SWAP1 POP PUSH2 0x3199 SWAP2 SWAP1 PUSH2 0x4040 JUMP JUMPDEST SWAP1 POP DUP2 DUP2 EQ PUSH2 0x3208 JUMPI PUSH1 0x0 DUP7 PUSH1 0x0 ADD DUP3 DUP2 SLOAD DUP2 LT PUSH2 0x31BA JUMPI PUSH2 0x31B9 PUSH2 0x4011 JUMP JUMPDEST JUMPDEST SWAP1 PUSH1 0x0 MSTORE PUSH1 0x20 PUSH1 0x0 KECCAK256 ADD SLOAD SWAP1 POP DUP1 DUP8 PUSH1 0x0 ADD DUP5 DUP2 SLOAD DUP2 LT PUSH2 0x31DE JUMPI PUSH2 0x31DD PUSH2 0x4011 JUMP JUMPDEST JUMPDEST SWAP1 PUSH1 0x0 MSTORE PUSH1 0x20 PUSH1 0x0 KECCAK256 ADD DUP2 SWAP1 SSTORE POP DUP4 DUP8 PUSH1 0x1 ADD PUSH1 0x0 DUP4 DUP2 MSTORE PUSH1 0x20 ADD SWAP1 DUP2 MSTORE PUSH1 0x20 ADD PUSH1 0x0 KECCAK256 DUP2 SWAP1 SSTORE POP POP JUMPDEST DUP6 PUSH1 0x0 ADD DUP1 SLOAD DUP1 PUSH2 0x321C JUMPI PUSH2 0x321B PUSH2 0x5941 JUMP JUMPDEST JUMPDEST PUSH1 0x1 SWAP1 SUB DUP2 DUP2 SWAP1 PUSH1 0x0 MSTORE PUSH1 0x20 PUSH1 0x0 KECCAK256 ADD PUSH1 0x0 SWAP1 SSTORE SWAP1 SSTORE DUP6 PUSH1 0x1 ADD PUSH1 0x0 DUP7 DUP2 MSTORE PUSH1 0x20 ADD SWAP1 DUP2 MSTORE PUSH1 0x20 ADD PUSH1 0x0 KECCAK256 PUSH1 0x0 SWAP1 SSTORE PUSH1 0x1 SWAP4 POP POP POP POP PUSH2 0x325D JUMP JUMPDEST PUSH1 0x0 SWAP2 POP POP JUMPDEST SWAP3 SWAP2 POP POP JUMP JUMPDEST PUSH1 0x0 DUP1 DUP4 PUSH1 0x1 ADD PUSH1 0x0 DUP5 DUP2 MSTORE PUSH1 0x20 ADD SWAP1 DUP2 MSTORE PUSH1 0x20 ADD PUSH1 0x0 KECCAK256 SLOAD EQ ISZERO SWAP1 POP SWAP3 SWAP2 POP POP JUMP JUMPDEST PUSH1 0x60 DUP3 SELFBALANCE LT ISZERO PUSH2 0x32CB JUMPI PUSH1 0x40 MLOAD PUSH32 0x8C379A000000000000000000000000000000000000000000000000000000000 DUP2 MSTORE PUSH1 0x4 ADD PUSH2 0x32C2 SWAP1 PUSH2 0x59E2 JUMP JUMPDEST PUSH1 0x40 MLOAD DUP1 SWAP2 SUB SWAP1 REVERT JUMPDEST PUSH1 0x0 DUP1 DUP7 PUSH20 0xFFFFFFFFFFFFFFFFFFFFFFFFFFFFFFFFFFFFFFFF AND DUP6 DUP8 PUSH1 0x40 MLOAD PUSH2 0x32F4 SWAP2 SWAP1 PUSH2 0x5A3E JUMP JUMPDEST PUSH1 0x0 PUSH1 0x40 MLOAD DUP1 DUP4 SUB DUP2 DUP6 DUP8 GAS CALL SWAP3 POP POP POP RETURNDATASIZE DUP1 PUSH1 0x0 DUP2 EQ PUSH2 0x3331 JUMPI PUSH1 0x40 MLOAD SWAP2 POP PUSH1 0x1F NOT PUSH1 0x3F RETURNDATASIZE ADD AND DUP3 ADD PUSH1 0x40 MSTORE RETURNDATASIZE DUP3 MSTORE RETURNDATASIZE PUSH1 0x0 PUSH1 0x20 DUP5 ADD RETURNDATACOPY PUSH2 0x3336 JUMP JUMPDEST PUSH1 0x60 SWAP2 POP JUMPDEST POP SWAP2 POP SWAP2 POP PUSH2 0x3347 DUP8 DUP4 DUP4 DUP8 PUSH2 0x3353 JUMP JUMPDEST SWAP3 POP POP POP SWAP5 SWAP4 POP POP POP POP JUMP JUMPDEST PUSH1 0x60 DUP4 ISZERO PUSH2 0x33B5 JUMPI PUSH1 0x0 DUP4 MLOAD SUB PUSH2 0x33AD JUMPI PUSH2 0x336D DUP6 PUSH2 0x33C8 JUMP JUMPDEST PUSH2 0x33AC JUMPI PUSH1 0x40 MLOAD PUSH32 0x8C379A000000000000000000000000000000000000000000000000000000000 DUP2 MSTORE PUSH1 0x4 ADD PUSH2 0x33A3 SWAP1 PUSH2 0x5AA1 JUMP JUMPDEST PUSH1 0x40 MLOAD DUP1 SWAP2 SUB SWAP1 REVERT JUMPDEST JUMPDEST DUP3 SWAP1 POP PUSH2 0x33C0 JUMP JUMPDEST PUSH2 0x33BF DUP4 DUP4 PUSH2 0x33EB JUMP JUMPDEST JUMPDEST SWAP5 SWAP4 POP POP POP POP JUMP JUMPDEST PUSH1 0x0 DUP1 DUP3 PUSH20 0xFFFFFFFFFFFFFFFFFFFFFFFFFFFFFFFFFFFFFFFF AND EXTCODESIZE GT SWAP1 POP SWAP2 SWAP1 POP JUMP JUMPDEST PUSH1 0x0 DUP3 MLOAD GT ISZERO PUSH2 0x33FE JUMPI DUP2 MLOAD DUP1 DUP4 PUSH1 0x20 ADD REVERT JUMPDEST DUP1 PUSH1 0x40 MLOAD PUSH32 0x8C379A000000000000000000000000000000000000000000000000000000000 DUP2 MSTORE PUSH1 0x4 ADD PUSH2 0x3432 SWAP2 SWAP1 PUSH2 0x3BCD JUMP JUMPDEST PUSH1 0x40 MLOAD DUP1 SWAP2 SUB SWAP1 REVERT JUMPDEST PUSH1 0x0 DUP2 SWAP1 POP SWAP3 SWAP2 POP POP JUMP JUMPDEST PUSH32 0x5745544800000000000000000000000000000000000000000000000000000000 PUSH1 0x0 DUP3 ADD MSTORE POP JUMP JUMPDEST PUSH1 0x0 PUSH2 0x347C PUSH1 0x4 DUP4 PUSH2 0x343B JUMP JUMPDEST SWAP2 POP PUSH2 0x3487 DUP3 PUSH2 0x3446 JUMP JUMPDEST PUSH1 0x4 DUP3 ADD SWAP1 POP SWAP2 SWAP1 POP JUMP JUMPDEST PUSH1 0x0 PUSH2 0x349D DUP3 PUSH2 0x346F JUMP JUMPDEST SWAP2 POP DUP2 SWAP1 POP SWAP2 SWAP1 POP JUMP JUMPDEST PUSH1 0x0 DUP3 DUP3 MSTORE PUSH1 0x20 DUP3 ADD SWAP1 POP SWAP3 SWAP2 POP POP JUMP JUMPDEST PUSH32 0x4E6F742070617961626C65206F6E207468697320636861696E00000000000000 PUSH1 0x0 DUP3 ADD MSTORE POP JUMP JUMPDEST PUSH1 0x0 PUSH2 0x34EE PUSH1 0x19 DUP4 PUSH2 0x34A7 JUMP JUMPDEST SWAP2 POP PUSH2 0x34F9 DUP3 PUSH2 0x34B8 JUMP JUMPDEST PUSH1 0x20 DUP3 ADD SWAP1 POP SWAP2 SWAP1 POP JUMP JUMPDEST PUSH1 0x0 PUSH1 0x20 DUP3 ADD SWAP1 POP DUP2 DUP2 SUB PUSH1 0x0 DUP4 ADD MSTORE PUSH2 0x351D DUP2 PUSH2 0x34E1 JUMP JUMPDEST SWAP1 POP SWAP2 SWAP1 POP JUMP JUMPDEST PUSH1 0x0 DUP2 MLOAD SWAP1 POP SWAP2 SWAP1 POP JUMP JUMPDEST PUSH1 0x0 DUP3 DUP3 MSTORE PUSH1 0x20 DUP3 ADD SWAP1 POP SWAP3 SWAP2 POP POP JUMP JUMPDEST PUSH1 0x0 DUP2 SWAP1 POP PUSH1 0x20 DUP3 ADD SWAP1 POP SWAP2 SWAP1 POP JUMP JUMPDEST PUSH1 0x0 DUP2 SWAP1 POP SWAP2 SWAP1 POP JUMP JUMPDEST PUSH2 0x3563 DUP2 PUSH2 0x3550 JUMP JUMPDEST DUP3 MSTORE POP POP JUMP JUMPDEST PUSH1 0x0 PUSH2 0x3575 DUP4 DUP4 PUSH2 0x355A JUMP JUMPDEST PUSH1 0x20 DUP4 ADD SWAP1 POP SWAP3 SWAP2 POP POP JUMP JUMPDEST PUSH1 0x0 PUSH1 0x20 DUP3 ADD SWAP1 POP SWAP2 SWAP1 POP JUMP JUMPDEST PUSH1 0x0 PUSH2 0x3599 DUP3 PUSH2 0x3524 JUMP JUMPDEST PUSH2 0x35A3 DUP2 DUP6 PUSH2 0x352F JUMP JUMPDEST SWAP4 POP PUSH2 0x35AE DUP4 PUSH2 0x3540 JUMP JUMPDEST DUP1 PUSH1 0x0 JUMPDEST DUP4 DUP2 LT ISZERO PUSH2 0x35DF JUMPI DUP2 MLOAD PUSH2 0x35C6 DUP9 DUP3 PUSH2 0x3569 JUMP JUMPDEST SWAP8 POP PUSH2 0x35D1 DUP4 PUSH2 0x3581 JUMP JUMPDEST SWAP3 POP POP PUSH1 0x1 DUP2 ADD SWAP1 POP PUSH2 0x35B2 JUMP JUMPDEST POP DUP6 SWAP4 POP POP POP POP SWAP3 SWAP2 POP POP JUMP JUMPDEST PUSH1 0x0 PUSH1 0x20 DUP3 ADD SWAP1 POP DUP2 DUP2 SUB PUSH1 0x0 DUP4 ADD MSTORE PUSH2 0x3606 DUP2 DUP5 PUSH2 0x358E JUMP JUMPDEST SWAP1 POP SWAP3 SWAP2 POP POP JUMP JUMPDEST PUSH1 0x0 PUSH1 0x40 MLOAD SWAP1 POP SWAP1 JUMP JUMPDEST PUSH1 0x0 DUP1 REVERT JUMPDEST PUSH1 0x0 DUP1 REVERT JUMPDEST PUSH1 0x0 PUSH32 0xFFFFFFFF00000000000000000000000000000000000000000000000000000000 DUP3 AND SWAP1 POP SWAP2 SWAP1 POP JUMP JUMPDEST PUSH2 0x3657 DUP2 PUSH2 0x3622 JUMP JUMPDEST DUP2 EQ PUSH2 0x3662 JUMPI PUSH1 0x0 DUP1 REVERT JUMPDEST POP JUMP JUMPDEST PUSH1 0x0 DUP2 CALLDATALOAD SWAP1 POP PUSH2 0x3674 DUP2 PUSH2 0x364E JUMP JUMPDEST SWAP3 SWAP2 POP POP JUMP JUMPDEST PUSH1 0x0 PUSH1 0x20 DUP3 DUP5 SUB SLT ISZERO PUSH2 0x3690 JUMPI PUSH2 0x368F PUSH2 0x3618 JUMP JUMPDEST JUMPDEST PUSH1 0x0 PUSH2 0x369E DUP5 DUP3 DUP6 ADD PUSH2 0x3665 JUMP JUMPDEST SWAP2 POP POP SWAP3 SWAP2 POP POP JUMP JUMPDEST PUSH1 0x0 DUP2 ISZERO ISZERO SWAP1 POP SWAP2 SWAP1 POP JUMP JUMPDEST PUSH2 0x36BC DUP2 PUSH2 0x36A7 JUMP JUMPDEST DUP3 MSTORE POP POP JUMP JUMPDEST PUSH1 0x0 PUSH1 0x20 DUP3 ADD SWAP1 POP PUSH2 0x36D7 PUSH1 0x0 DUP4 ADD DUP5 PUSH2 0x36B3 JUMP JUMPDEST SWAP3 SWAP2 POP POP JUMP JUMPDEST PUSH2 0x36E6 DUP2 PUSH2 0x3550 JUMP JUMPDEST DUP2 EQ PUSH2 0x36F1 JUMPI PUSH1 0x0 DUP1 REVERT JUMPDEST POP JUMP JUMPDEST PUSH1 0x0 DUP2 CALLDATALOAD SWAP1 POP PUSH2 0x3703 DUP2 PUSH2 0x36DD JUMP JUMPDEST SWAP3 SWAP2 POP POP JUMP JUMPDEST PUSH1 0x0 DUP1 REVERT JUMPDEST PUSH1 0x0 DUP1 REVERT JUMPDEST PUSH1 0x0 DUP1 REVERT JUMPDEST PUSH1 0x0 DUP1 DUP4 PUSH1 0x1F DUP5 ADD SLT PUSH2 0x372E JUMPI PUSH2 0x372D PUSH2 0x3709 JUMP JUMPDEST JUMPDEST DUP3 CALLDATALOAD SWAP1 POP PUSH8 0xFFFFFFFFFFFFFFFF DUP2 GT ISZERO PUSH2 0x374B JUMPI PUSH2 0x374A PUSH2 0x370E JUMP JUMPDEST JUMPDEST PUSH1 0x20 DUP4 ADD SWAP2 POP DUP4 PUSH1 0x1 DUP3 MUL DUP4 ADD GT ISZERO PUSH2 0x3767 JUMPI PUSH2 0x3766 PUSH2 0x3713 JUMP JUMPDEST JUMPDEST SWAP3 POP SWAP3 SWAP1 POP JUMP JUMPDEST PUSH1 0x0 DUP1 PUSH1 0x0 PUSH1 0x40 DUP5 DUP7 SUB SLT ISZERO PUSH2 0x3787 JUMPI PUSH2 0x3786 PUSH2 0x3618 JUMP JUMPDEST JUMPDEST PUSH1 0x0 PUSH2 0x3795 DUP7 DUP3 DUP8 ADD PUSH2 0x36F4 JUMP JUMPDEST SWAP4 POP POP PUSH1 0x20 DUP5 ADD CALLDATALOAD PUSH8 0xFFFFFFFFFFFFFFFF DUP2 GT ISZERO PUSH2 0x37B6 JUMPI PUSH2 0x37B5 PUSH2 0x361D JUMP JUMPDEST JUMPDEST PUSH2 0x37C2 DUP7 DUP3 DUP8 ADD PUSH2 0x3718 JUMP JUMPDEST SWAP3 POP SWAP3 POP POP SWAP3 POP SWAP3 POP SWAP3 JUMP JUMPDEST PUSH1 0x0 PUSH20 0xFFFFFFFFFFFFFFFFFFFFFFFFFFFFFFFFFFFFFFFF DUP3 AND SWAP1 POP SWAP2 SWAP1 POP JUMP JUMPDEST PUSH1 0x0 PUSH2 0x37F9 DUP3 PUSH2 0x37CE JUMP JUMPDEST SWAP1 POP SWAP2 SWAP1 POP JUMP JUMPDEST PUSH2 0x3809 DUP2 PUSH2 0x37EE JUMP JUMPDEST DUP3 MSTORE POP POP JUMP JUMPDEST PUSH1 0x0 PUSH1 0x20 DUP3 ADD SWAP1 POP PUSH2 0x3824 PUSH1 0x0 DUP4 ADD DUP5 PUSH2 0x3800 JUMP JUMPDEST SWAP3 SWAP2 POP POP JUMP JUMPDEST PUSH2 0x3833 DUP2 PUSH2 0x37EE JUMP JUMPDEST DUP2 EQ PUSH2 0x383E JUMPI PUSH1 0x0 DUP1 REVERT JUMPDEST POP JUMP JUMPDEST PUSH1 0x0 DUP2 CALLDATALOAD SWAP1 POP PUSH2 0x3850 DUP2 PUSH2 0x382A JUMP JUMPDEST SWAP3 SWAP2 POP POP JUMP JUMPDEST PUSH1 0x0 PUSH1 0x20 DUP3 DUP5 SUB SLT ISZERO PUSH2 0x386C JUMPI PUSH2 0x386B PUSH2 0x3618 JUMP JUMPDEST JUMPDEST PUSH1 0x0 PUSH2 0x387A DUP5 DUP3 DUP6 ADD PUSH2 0x3841 JUMP JUMPDEST SWAP2 POP POP SWAP3 SWAP2 POP POP JUMP JUMPDEST PUSH1 0x0 DUP2 SWAP1 POP SWAP2 SWAP1 POP JUMP JUMPDEST PUSH2 0x3896 DUP2 PUSH2 0x3883 JUMP JUMPDEST DUP2 EQ PUSH2 0x38A1 JUMPI PUSH1 0x0 DUP1 REVERT JUMPDEST POP JUMP JUMPDEST PUSH1 0x0 DUP2 CALLDATALOAD SWAP1 POP PUSH2 0x38B3 DUP2 PUSH2 0x388D JUMP JUMPDEST SWAP3 SWAP2 POP POP JUMP JUMPDEST PUSH1 0x0 PUSH1 0x20 DUP3 DUP5 SUB SLT ISZERO PUSH2 0x38CF JUMPI PUSH2 0x38CE PUSH2 0x3618 JUMP JUMPDEST JUMPDEST PUSH1 0x0 PUSH2 0x38DD DUP5 DUP3 DUP6 ADD PUSH2 0x38A4 JUMP JUMPDEST SWAP2 POP POP SWAP3 SWAP2 POP POP JUMP JUMPDEST PUSH2 0x38EF DUP2 PUSH2 0x3883 JUMP JUMPDEST DUP3 MSTORE POP POP JUMP JUMPDEST PUSH1 0x0 PUSH1 0x20 DUP3 ADD SWAP1 POP PUSH2 0x390A PUSH1 0x0 DUP4 ADD DUP5 PUSH2 0x38E6 JUMP JUMPDEST SWAP3 SWAP2 POP POP JUMP JUMPDEST PUSH1 0x0 PUSH1 0x20 DUP3 DUP5 SUB SLT ISZERO PUSH2 0x3926 JUMPI PUSH2 0x3925 PUSH2 0x3618 JUMP JUMPDEST JUMPDEST PUSH1 0x0 PUSH2 0x3934 DUP5 DUP3 DUP6 ADD PUSH2 0x36F4 JUMP JUMPDEST SWAP2 POP POP SWAP3 SWAP2 POP POP JUMP JUMPDEST PUSH1 0x0 DUP2 MLOAD SWAP1 POP SWAP2 SWAP1 POP JUMP JUMPDEST PUSH1 0x0 DUP3 DUP3 MSTORE PUSH1 0x20 DUP3 ADD SWAP1 POP SWAP3 SWAP2 POP POP JUMP JUMPDEST PUSH1 0x0 DUP2 SWAP1 POP PUSH1 0x20 DUP3 ADD SWAP1 POP SWAP2 SWAP1 POP JUMP JUMPDEST PUSH1 0x0 DUP2 MLOAD SWAP1 POP SWAP2 SWAP1 POP JUMP JUMPDEST PUSH1 0x0 DUP3 DUP3 MSTORE PUSH1 0x20 DUP3 ADD SWAP1 POP SWAP3 SWAP2 POP POP JUMP JUMPDEST PUSH1 0x0 JUMPDEST DUP4 DUP2 LT ISZERO PUSH2 0x39A3 JUMPI DUP1 DUP3 ADD MLOAD DUP2 DUP5 ADD MSTORE PUSH1 0x20 DUP2 ADD SWAP1 POP PUSH2 0x3988 JUMP JUMPDEST PUSH1 0x0 DUP5 DUP5 ADD MSTORE POP POP POP POP JUMP JUMPDEST PUSH1 0x0 PUSH1 0x1F NOT PUSH1 0x1F DUP4 ADD AND SWAP1 POP SWAP2 SWAP1 POP JUMP JUMPDEST PUSH1 0x0 PUSH2 0x39CB DUP3 PUSH2 0x3969 JUMP JUMPDEST PUSH2 0x39D5 DUP2 DUP6 PUSH2 0x3974 JUMP JUMPDEST SWAP4 POP PUSH2 0x39E5 DUP2 DUP6 PUSH1 0x20 DUP7 ADD PUSH2 0x3985 JUMP JUMPDEST PUSH2 0x39EE DUP2 PUSH2 0x39AF JUMP JUMPDEST DUP5 ADD SWAP2 POP POP SWAP3 SWAP2 POP POP JUMP JUMPDEST PUSH1 0x0 PUSH2 0x3A05 DUP4 DUP4 PUSH2 0x39C0 JUMP JUMPDEST SWAP1 POP SWAP3 SWAP2 POP POP JUMP JUMPDEST PUSH1 0x0 PUSH1 0x20 DUP3 ADD SWAP1 POP SWAP2 SWAP1 POP JUMP JUMPDEST PUSH1 0x0 PUSH2 0x3A25 DUP3 PUSH2 0x393D JUMP JUMPDEST PUSH2 0x3A2F DUP2 DUP6 PUSH2 0x3948 JUMP JUMPDEST SWAP4 POP DUP4 PUSH1 0x20 DUP3 MUL DUP6 ADD PUSH2 0x3A41 DUP6 PUSH2 0x3959 JUMP JUMPDEST DUP1 PUSH1 0x0 JUMPDEST DUP6 DUP2 LT ISZERO PUSH2 0x3A7D JUMPI DUP5 DUP5 SUB DUP10 MSTORE DUP2 MLOAD PUSH2 0x3A5E DUP6 DUP3 PUSH2 0x39F9 JUMP JUMPDEST SWAP5 POP PUSH2 0x3A69 DUP4 PUSH2 0x3A0D JUMP JUMPDEST SWAP3 POP PUSH1 0x20 DUP11 ADD SWAP10 POP POP PUSH1 0x1 DUP2 ADD SWAP1 POP PUSH2 0x3A45 JUMP JUMPDEST POP DUP3 SWAP8 POP DUP8 SWAP6 POP POP POP POP POP POP SWAP3 SWAP2 POP POP JUMP JUMPDEST PUSH1 0x0 PUSH1 0x20 DUP3 ADD SWAP1 POP DUP2 DUP2 SUB PUSH1 0x0 DUP4 ADD MSTORE PUSH2 0x3AA9 DUP2 DUP5 PUSH2 0x3A1A JUMP JUMPDEST SWAP1 POP SWAP3 SWAP2 POP POP JUMP JUMPDEST PUSH1 0x0 DUP1 PUSH1 0x40 DUP4 DUP6 SUB SLT ISZERO PUSH2 0x3AC8 JUMPI PUSH2 0x3AC7 PUSH2 0x3618 JUMP JUMPDEST JUMPDEST PUSH1 0x0 PUSH2 0x3AD6 DUP6 DUP3 DUP7 ADD PUSH2 0x38A4 JUMP JUMPDEST SWAP3 POP POP PUSH1 0x20 PUSH2 0x3AE7 DUP6 DUP3 DUP7 ADD PUSH2 0x3841 JUMP JUMPDEST SWAP2 POP POP SWAP3 POP SWAP3 SWAP1 POP JUMP JUMPDEST PUSH1 0x0 DUP1 DUP4 PUSH1 0x1F DUP5 ADD SLT PUSH2 0x3B07 JUMPI PUSH2 0x3B06 PUSH2 0x3709 JUMP JUMPDEST JUMPDEST DUP3 CALLDATALOAD SWAP1 POP PUSH8 0xFFFFFFFFFFFFFFFF DUP2 GT ISZERO PUSH2 0x3B24 JUMPI PUSH2 0x3B23 PUSH2 0x370E JUMP JUMPDEST JUMPDEST PUSH1 0x20 DUP4 ADD SWAP2 POP DUP4 PUSH1 0x20 DUP3 MUL DUP4 ADD GT ISZERO PUSH2 0x3B40 JUMPI PUSH2 0x3B3F PUSH2 0x3713 JUMP JUMPDEST JUMPDEST SWAP3 POP SWAP3 SWAP1 POP JUMP JUMPDEST PUSH1 0x0 DUP1 PUSH1 0x20 DUP4 DUP6 SUB SLT ISZERO PUSH2 0x3B5E JUMPI PUSH2 0x3B5D PUSH2 0x3618 JUMP JUMPDEST JUMPDEST PUSH1 0x0 DUP4 ADD CALLDATALOAD PUSH8 0xFFFFFFFFFFFFFFFF DUP2 GT ISZERO PUSH2 0x3B7C JUMPI PUSH2 0x3B7B PUSH2 0x361D JUMP JUMPDEST JUMPDEST PUSH2 0x3B88 DUP6 DUP3 DUP7 ADD PUSH2 0x3AF1 JUMP JUMPDEST SWAP3 POP SWAP3 POP POP SWAP3 POP SWAP3 SWAP1 POP JUMP JUMPDEST PUSH1 0x0 PUSH2 0x3B9F DUP3 PUSH2 0x3969 JUMP JUMPDEST PUSH2 0x3BA9 DUP2 DUP6 PUSH2 0x34A7 JUMP JUMPDEST SWAP4 POP PUSH2 0x3BB9 DUP2 DUP6 PUSH1 0x20 DUP7 ADD PUSH2 0x3985 JUMP JUMPDEST PUSH2 0x3BC2 DUP2 PUSH2 0x39AF JUMP JUMPDEST DUP5 ADD SWAP2 POP POP SWAP3 SWAP2 POP POP JUMP JUMPDEST PUSH1 0x0 PUSH1 0x20 DUP3 ADD SWAP1 POP DUP2 DUP2 SUB PUSH1 0x0 DUP4 ADD MSTORE PUSH2 0x3BE7 DUP2 DUP5 PUSH2 0x3B94 JUMP JUMPDEST SWAP1 POP SWAP3 SWAP2 POP POP JUMP JUMPDEST PUSH1 0x0 DUP1 REVERT JUMPDEST PUSH32 0x4E487B7100000000000000000000000000000000000000000000000000000000 PUSH1 0x0 MSTORE PUSH1 0x41 PUSH1 0x4 MSTORE PUSH1 0x24 PUSH1 0x0 REVERT JUMPDEST PUSH2 0x3C2C DUP3 PUSH2 0x39AF JUMP JUMPDEST DUP2 ADD DUP2 DUP2 LT PUSH8 0xFFFFFFFFFFFFFFFF DUP3 GT OR ISZERO PUSH2 0x3C4B JUMPI PUSH2 0x3C4A PUSH2 0x3BF4 JUMP JUMPDEST JUMPDEST DUP1 PUSH1 0x40 MSTORE POP POP POP JUMP JUMPDEST PUSH1 0x0 PUSH2 0x3C5E PUSH2 0x360E JUMP JUMPDEST SWAP1 POP PUSH2 0x3C6A DUP3 DUP3 PUSH2 0x3C23 JUMP JUMPDEST SWAP2 SWAP1 POP JUMP JUMPDEST PUSH1 0x0 PUSH8 0xFFFFFFFFFFFFFFFF DUP3 GT ISZERO PUSH2 0x3C8A JUMPI PUSH2 0x3C89 PUSH2 0x3BF4 JUMP JUMPDEST JUMPDEST PUSH2 0x3C93 DUP3 PUSH2 0x39AF JUMP JUMPDEST SWAP1 POP PUSH1 0x20 DUP2 ADD SWAP1 POP SWAP2 SWAP1 POP JUMP JUMPDEST DUP3 DUP2 DUP4 CALLDATACOPY PUSH1 0x0 DUP4 DUP4 ADD MSTORE POP POP POP JUMP JUMPDEST PUSH1 0x0 PUSH2 0x3CC2 PUSH2 0x3CBD DUP5 PUSH2 0x3C6F JUMP JUMPDEST PUSH2 0x3C54 JUMP JUMPDEST SWAP1 POP DUP3 DUP2 MSTORE PUSH1 0x20 DUP2 ADD DUP5 DUP5 DUP5 ADD GT ISZERO PUSH2 0x3CDE JUMPI PUSH2 0x3CDD PUSH2 0x3BEF JUMP JUMPDEST JUMPDEST PUSH2 0x3CE9 DUP5 DUP3 DUP6 PUSH2 0x3CA0 JUMP JUMPDEST POP SWAP4 SWAP3 POP POP POP JUMP JUMPDEST PUSH1 0x0 DUP3 PUSH1 0x1F DUP4 ADD SLT PUSH2 0x3D06 JUMPI PUSH2 0x3D05 PUSH2 0x3709 JUMP JUMPDEST JUMPDEST DUP2 CALLDATALOAD PUSH2 0x3D16 DUP5 DUP3 PUSH1 0x20 DUP7 ADD PUSH2 0x3CAF JUMP JUMPDEST SWAP2 POP POP SWAP3 SWAP2 POP POP JUMP JUMPDEST PUSH1 0x0 PUSH1 0x20 DUP3 DUP5 SUB SLT ISZERO PUSH2 0x3D35 JUMPI PUSH2 0x3D34 PUSH2 0x3618 JUMP JUMPDEST JUMPDEST PUSH1 0x0 DUP3 ADD CALLDATALOAD PUSH8 0xFFFFFFFFFFFFFFFF DUP2 GT ISZERO PUSH2 0x3D53 JUMPI PUSH2 0x3D52 PUSH2 0x361D JUMP JUMPDEST JUMPDEST PUSH2 0x3D5F DUP5 DUP3 DUP6 ADD PUSH2 0x3CF1 JUMP JUMPDEST SWAP2 POP POP SWAP3 SWAP2 POP POP JUMP JUMPDEST PUSH2 0x3D71 DUP2 PUSH2 0x3550 JUMP JUMPDEST DUP3 MSTORE POP POP JUMP JUMPDEST PUSH1 0x0 PUSH1 0x20 DUP3 ADD SWAP1 POP PUSH2 0x3D8C PUSH1 0x0 DUP4 ADD DUP5 PUSH2 0x3D68 JUMP JUMPDEST SWAP3 SWAP2 POP POP JUMP JUMPDEST PUSH1 0x0 DUP1 DUP4 PUSH1 0x1F DUP5 ADD SLT PUSH2 0x3DA8 JUMPI PUSH2 0x3DA7 PUSH2 0x3709 JUMP JUMPDEST JUMPDEST DUP3 CALLDATALOAD SWAP1 POP PUSH8 0xFFFFFFFFFFFFFFFF DUP2 GT ISZERO PUSH2 0x3DC5 JUMPI PUSH2 0x3DC4 PUSH2 0x370E JUMP JUMPDEST JUMPDEST PUSH1 0x20 DUP4 ADD SWAP2 POP DUP4 PUSH1 0x20 DUP3 MUL DUP4 ADD GT ISZERO PUSH2 0x3DE1 JUMPI PUSH2 0x3DE0 PUSH2 0x3713 JUMP JUMPDEST JUMPDEST SWAP3 POP SWAP3 SWAP1 POP JUMP JUMPDEST PUSH1 0x0 DUP1 DUP4 PUSH1 0x1F DUP5 ADD SLT PUSH2 0x3DFE JUMPI PUSH2 0x3DFD PUSH2 0x3709 JUMP JUMPDEST JUMPDEST DUP3 CALLDATALOAD SWAP1 POP PUSH8 0xFFFFFFFFFFFFFFFF DUP2 GT ISZERO PUSH2 0x3E1B JUMPI PUSH2 0x3E1A PUSH2 0x370E JUMP JUMPDEST JUMPDEST PUSH1 0x20 DUP4 ADD SWAP2 POP DUP4 PUSH1 0x20 DUP3 MUL DUP4 ADD GT ISZERO PUSH2 0x3E37 JUMPI PUSH2 0x3E36 PUSH2 0x3713 JUMP JUMPDEST JUMPDEST SWAP3 POP SWAP3 SWAP1 POP JUMP JUMPDEST PUSH1 0x0 DUP2 SWAP1 POP DUP3 PUSH1 0x20 PUSH1 0x3 MUL DUP3 ADD GT ISZERO PUSH2 0x3E5A JUMPI PUSH2 0x3E59 PUSH2 0x3713 JUMP JUMPDEST JUMPDEST SWAP3 SWAP2 POP POP JUMP JUMPDEST PUSH1 0x0 DUP1 PUSH1 0x0 DUP1 PUSH1 0x0 DUP1 PUSH1 0x0 DUP1 PUSH1 0x0 DUP1 PUSH1 0x0 PUSH2 0x160 DUP13 DUP15 SUB SLT ISZERO PUSH2 0x3E86 JUMPI PUSH2 0x3E85 PUSH2 0x3618 JUMP JUMPDEST JUMPDEST PUSH1 0x0 DUP13 ADD CALLDATALOAD PUSH8 0xFFFFFFFFFFFFFFFF DUP2 GT ISZERO PUSH2 0x3EA4 JUMPI PUSH2 0x3EA3 PUSH2 0x361D JUMP JUMPDEST JUMPDEST PUSH2 0x3EB0 DUP15 DUP3 DUP16 ADD PUSH2 0x3D92 JUMP JUMPDEST SWAP12 POP SWAP12 POP POP PUSH1 0x20 DUP13 ADD CALLDATALOAD PUSH8 0xFFFFFFFFFFFFFFFF DUP2 GT ISZERO PUSH2 0x3ED3 JUMPI PUSH2 0x3ED2 PUSH2 0x361D JUMP JUMPDEST JUMPDEST PUSH2 0x3EDF DUP15 DUP3 DUP16 ADD PUSH2 0x3DE8 JUMP JUMPDEST SWAP10 POP SWAP10 POP POP PUSH1 0x40 PUSH2 0x3EF2 DUP15 DUP3 DUP16 ADD PUSH2 0x3E3E JUMP JUMPDEST SWAP8 POP POP PUSH1 0xA0 PUSH2 0x3F03 DUP15 DUP3 DUP16 ADD PUSH2 0x3841 JUMP JUMPDEST SWAP7 POP POP PUSH1 0xC0 PUSH2 0x3F14 DUP15 DUP3 DUP16 ADD PUSH2 0x3841 JUMP JUMPDEST SWAP6 POP POP PUSH1 0xE0 PUSH2 0x3F25 DUP15 DUP3 DUP16 ADD PUSH2 0x3841 JUMP JUMPDEST SWAP5 POP POP PUSH2 0x100 PUSH2 0x3F37 DUP15 DUP3 DUP16 ADD PUSH2 0x3841 JUMP JUMPDEST SWAP4 POP POP PUSH2 0x120 PUSH2 0x3F49 DUP15 DUP3 DUP16 ADD PUSH2 0x3841 JUMP JUMPDEST SWAP3 POP POP PUSH2 0x140 PUSH2 0x3F5B DUP15 DUP3 DUP16 ADD PUSH2 0x3841 JUMP JUMPDEST SWAP2 POP POP SWAP3 SWAP6 SWAP9 SWAP12 POP SWAP3 SWAP6 SWAP9 SWAP12 SWAP1 SWAP4 SWAP7 SWAP10 POP JUMP JUMPDEST PUSH1 0x0 DUP1 PUSH1 0x40 DUP4 DUP6 SUB SLT ISZERO PUSH2 0x3F85 JUMPI PUSH2 0x3F84 PUSH2 0x3618 JUMP JUMPDEST JUMPDEST PUSH1 0x0 PUSH2 0x3F93 DUP6 DUP3 DUP7 ADD PUSH2 0x38A4 JUMP JUMPDEST SWAP3 POP POP PUSH1 0x20 PUSH2 0x3FA4 DUP6 DUP3 DUP7 ADD PUSH2 0x36F4 JUMP JUMPDEST SWAP2 POP POP SWAP3 POP SWAP3 SWAP1 POP JUMP JUMPDEST PUSH32 0x4E487B7100000000000000000000000000000000000000000000000000000000 PUSH1 0x0 MSTORE PUSH1 0x11 PUSH1 0x4 MSTORE PUSH1 0x24 PUSH1 0x0 REVERT JUMPDEST PUSH1 0x0 PUSH2 0x3FE8 DUP3 PUSH2 0x3550 JUMP JUMPDEST SWAP2 POP PUSH2 0x3FF3 DUP4 PUSH2 0x3550 JUMP JUMPDEST SWAP3 POP DUP3 DUP3 ADD SWAP1 POP DUP1 DUP3 GT ISZERO PUSH2 0x400B JUMPI PUSH2 0x400A PUSH2 0x3FAE JUMP JUMPDEST JUMPDEST SWAP3 SWAP2 POP POP JUMP JUMPDEST PUSH32 0x4E487B7100000000000000000000000000000000000000000000000000000000 PUSH1 0x0 MSTORE PUSH1 0x32 PUSH1 0x4 MSTORE PUSH1 0x24 PUSH1 0x0 REVERT JUMPDEST PUSH1 0x0 PUSH2 0x404B DUP3 PUSH2 0x3550 JUMP JUMPDEST SWAP2 POP PUSH2 0x4056 DUP4 PUSH2 0x3550 JUMP JUMPDEST SWAP3 POP DUP3 DUP3 SUB SWAP1 POP DUP2 DUP2 GT ISZERO PUSH2 0x406E JUMPI PUSH2 0x406D PUSH2 0x3FAE JUMP JUMPDEST JUMPDEST SWAP3 SWAP2 POP POP JUMP JUMPDEST PUSH32 0x4E487B7100000000000000000000000000000000000000000000000000000000 PUSH1 0x0 MSTORE PUSH1 0x22 PUSH1 0x4 MSTORE PUSH1 0x24 PUSH1 0x0 REVERT JUMPDEST PUSH1 0x0 PUSH1 0x2 DUP3 DIV SWAP1 POP PUSH1 0x1 DUP3 AND DUP1 PUSH2 0x40BB JUMPI PUSH1 0x7F DUP3 AND SWAP2 POP JUMPDEST PUSH1 0x20 DUP3 LT DUP2 SUB PUSH2 0x40CE JUMPI PUSH2 0x40CD PUSH2 0x4074 JUMP JUMPDEST JUMPDEST POP SWAP2 SWAP1 POP JUMP JUMPDEST PUSH1 0x0 PUSH2 0x40DF DUP3 PUSH2 0x3550 JUMP JUMPDEST SWAP2 POP PUSH32 0xFFFFFFFFFFFFFFFFFFFFFFFFFFFFFFFFFFFFFFFFFFFFFFFFFFFFFFFFFFFFFFFF DUP3 SUB PUSH2 0x4111 JUMPI PUSH2 0x4110 PUSH2 0x3FAE JUMP JUMPDEST JUMPDEST PUSH1 0x1 DUP3 ADD SWAP1 POP SWAP2 SWAP1 POP JUMP JUMPDEST PUSH1 0x0 PUSH2 0x4128 DUP4 DUP6 PUSH2 0x343B JUMP JUMPDEST SWAP4 POP PUSH2 0x4135 DUP4 DUP6 DUP5 PUSH2 0x3CA0 JUMP JUMPDEST DUP3 DUP5 ADD SWAP1 POP SWAP4 SWAP3 POP POP POP JUMP JUMPDEST PUSH1 0x0 PUSH2 0x414E DUP3 DUP5 DUP7 PUSH2 0x411C JUMP JUMPDEST SWAP2 POP DUP2 SWAP1 POP SWAP4 SWAP3 POP POP POP JUMP JUMPDEST PUSH1 0x0 PUSH2 0x4166 DUP4 DUP6 PUSH2 0x34A7 JUMP JUMPDEST SWAP4 POP PUSH2 0x4173 DUP4 DUP6 DUP5 PUSH2 0x3CA0 JUMP JUMPDEST PUSH2 0x417C DUP4 PUSH2 0x39AF JUMP JUMPDEST DUP5 ADD SWAP1 POP SWAP4 SWAP3 POP POP POP JUMP JUMPDEST PUSH1 0x0 PUSH1 0x80 DUP3 ADD SWAP1 POP PUSH2 0x419C PUSH1 0x0 DUP4 ADD DUP9 PUSH2 0x3800 JUMP JUMPDEST DUP2 DUP2 SUB PUSH1 0x20 DUP4 ADD MSTORE PUSH2 0x41AF DUP2 DUP7 DUP9 PUSH2 0x415A JUMP JUMPDEST SWAP1 POP PUSH2 0x41BE PUSH1 0x40 DUP4 ADD DUP6 PUSH2 0x3D68 JUMP JUMPDEST PUSH2 0x41CB PUSH1 0x60 DUP4 ADD DUP5 PUSH2 0x3800 JUMP JUMPDEST SWAP7 SWAP6 POP POP POP POP POP POP JUMP JUMPDEST PUSH32 0x5769746864726177304164647200000000000000000000000000000000000000 PUSH1 0x0 DUP3 ADD MSTORE POP JUMP JUMPDEST PUSH1 0x0 PUSH2 0x420B PUSH1 0xD DUP4 PUSH2 0x34A7 JUMP JUMPDEST SWAP2 POP PUSH2 0x4216 DUP3 PUSH2 0x41D5 JUMP JUMPDEST PUSH1 0x20 DUP3 ADD SWAP1 POP SWAP2 SWAP1 POP JUMP JUMPDEST PUSH1 0x0 PUSH1 0x20 DUP3 ADD SWAP1 POP DUP2 DUP2 SUB PUSH1 0x0 DUP4 ADD MSTORE PUSH2 0x423A DUP2 PUSH2 0x41FE JUMP JUMPDEST SWAP1 POP SWAP2 SWAP1 POP JUMP JUMPDEST PUSH1 0x0 DUP1 REVERT JUMPDEST PUSH1 0x0 DUP1 REVERT JUMPDEST PUSH1 0x0 DUP1 REVERT JUMPDEST PUSH1 0x0 DUP3 CALLDATALOAD PUSH1 0x1 PUSH1 0x60 SUB DUP4 CALLDATASIZE SUB SUB DUP2 SLT PUSH2 0x426C JUMPI PUSH2 0x426B PUSH2 0x4241 JUMP JUMPDEST JUMPDEST DUP1 DUP4 ADD SWAP2 POP POP SWAP3 SWAP2 POP POP JUMP JUMPDEST PUSH1 0x0 DUP3 CALLDATALOAD PUSH1 0x1 PUSH1 0xA0 SUB DUP4 CALLDATASIZE SUB SUB DUP2 SLT PUSH2 0x4294 JUMPI PUSH2 0x4293 PUSH2 0x4241 JUMP JUMPDEST JUMPDEST DUP1 DUP4 ADD SWAP2 POP POP SWAP3 SWAP2 POP POP JUMP JUMPDEST PUSH32 0x45727220726563697069656E7400000000000000000000000000000000000000 PUSH1 0x0 DUP3 ADD MSTORE POP JUMP JUMPDEST PUSH1 0x0 PUSH2 0x42D6 PUSH1 0xD DUP4 PUSH2 0x34A7 JUMP JUMPDEST SWAP2 POP PUSH2 0x42E1 DUP3 PUSH2 0x42A0 JUMP JUMPDEST PUSH1 0x20 DUP3 ADD SWAP1 POP SWAP2 SWAP1 POP JUMP JUMPDEST PUSH1 0x0 PUSH1 0x20 DUP3 ADD SWAP1 POP DUP2 DUP2 SUB PUSH1 0x0 DUP4 ADD MSTORE PUSH2 0x4305 DUP2 PUSH2 0x42C9 JUMP JUMPDEST SWAP1 POP SWAP2 SWAP1 POP JUMP JUMPDEST PUSH32 0x45727220536C6970700000000000000000000000000000000000000000000000 PUSH1 0x0 DUP3 ADD MSTORE POP JUMP JUMPDEST PUSH1 0x0 PUSH2 0x4342 PUSH1 0x9 DUP4 PUSH2 0x34A7 JUMP JUMPDEST SWAP2 POP PUSH2 0x434D DUP3 PUSH2 0x430C JUMP JUMPDEST PUSH1 0x20 DUP3 ADD SWAP1 POP SWAP2 SWAP1 POP JUMP JUMPDEST PUSH1 0x0 PUSH1 0x20 DUP3 ADD SWAP1 POP DUP2 DUP2 SUB PUSH1 0x0 DUP4 ADD MSTORE PUSH2 0x4371 DUP2 PUSH2 0x4335 JUMP JUMPDEST SWAP1 POP SWAP2 SWAP1 POP JUMP JUMPDEST PUSH32 0x45727220546F6B656E4F75740000000000000000000000000000000000000000 PUSH1 0x0 DUP3 ADD MSTORE POP JUMP JUMPDEST PUSH1 0x0 PUSH2 0x43AE PUSH1 0xC DUP4 PUSH2 0x34A7 JUMP JUMPDEST SWAP2 POP PUSH2 0x43B9 DUP3 PUSH2 0x4378 JUMP JUMPDEST PUSH1 0x20 DUP3 ADD SWAP1 POP SWAP2 SWAP1 POP JUMP JUMPDEST PUSH1 0x0 PUSH1 0x20 DUP3 ADD SWAP1 POP DUP2 DUP2 SUB PUSH1 0x0 DUP4 ADD MSTORE PUSH2 0x43DD DUP2 PUSH2 0x43A1 JUMP JUMPDEST SWAP1 POP SWAP2 SWAP1 POP JUMP JUMPDEST PUSH1 0x0 DUP2 MLOAD SWAP1 POP PUSH2 0x43F3 DUP2 PUSH2 0x36DD JUMP JUMPDEST SWAP3 SWAP2 POP POP JUMP JUMPDEST PUSH1 0x0 PUSH1 0x20 DUP3 DUP5 SUB SLT ISZERO PUSH2 0x440F JUMPI PUSH2 0x440E PUSH2 0x3618 JUMP JUMPDEST JUMPDEST PUSH1 0x0 PUSH2 0x441D DUP5 DUP3 DUP6 ADD PUSH2 0x43E4 JUMP JUMPDEST SWAP2 POP POP SWAP3 SWAP2 POP POP JUMP JUMPDEST PUSH32 0x45727220416D6F756E74496E0000000000000000000000000000000000000000 PUSH1 0x0 DUP3 ADD MSTORE POP JUMP JUMPDEST PUSH1 0x0 PUSH2 0x445C PUSH1 0xC DUP4 PUSH2 0x34A7 JUMP JUMPDEST SWAP2 POP PUSH2 0x4467 DUP3 PUSH2 0x4426 JUMP JUMPDEST PUSH1 0x20 DUP3 ADD SWAP1 POP SWAP2 SWAP1 POP JUMP JUMPDEST PUSH1 0x0 PUSH1 0x20 DUP3 ADD SWAP1 POP DUP2 DUP2 SUB PUSH1 0x0 DUP4 ADD MSTORE PUSH2 0x448B DUP2 PUSH2 0x444F JUMP JUMPDEST SWAP1 POP SWAP2 SWAP1 POP JUMP JUMPDEST PUSH1 0x0 PUSH32 0xFF00000000000000000000000000000000000000000000000000000000000000 DUP3 AND SWAP1 POP SWAP2 SWAP1 POP JUMP JUMPDEST PUSH1 0x0 DUP2 SWAP1 POP SWAP2 SWAP1 POP JUMP JUMPDEST PUSH2 0x44D9 PUSH2 0x44D4 DUP3 PUSH2 0x4492 JUMP JUMPDEST PUSH2 0x44BE JUMP JUMPDEST DUP3 MSTORE POP POP JUMP JUMPDEST PUSH1 0x0 PUSH2 0x44EB DUP3 DUP5 PUSH2 0x44C8 JUMP JUMPDEST PUSH1 0x1 DUP3 ADD SWAP2 POP DUP2 SWAP1 POP SWAP3 SWAP2 POP POP JUMP JUMPDEST PUSH1 0x0 DUP1 DUP4 CALLDATALOAD PUSH1 0x1 PUSH1 0x20 SUB DUP5 CALLDATASIZE SUB SUB DUP2 SLT PUSH2 0x4517 JUMPI PUSH2 0x4516 PUSH2 0x4241 JUMP JUMPDEST JUMPDEST DUP1 DUP5 ADD SWAP3 POP DUP3 CALLDATALOAD SWAP2 POP PUSH8 0xFFFFFFFFFFFFFFFF DUP3 GT ISZERO PUSH2 0x4539 JUMPI PUSH2 0x4538 PUSH2 0x4246 JUMP JUMPDEST JUMPDEST PUSH1 0x20 DUP4 ADD SWAP3 POP PUSH1 0x1 DUP3 MUL CALLDATASIZE SUB DUP4 SGT ISZERO PUSH2 0x4555 JUMPI PUSH2 0x4554 PUSH2 0x424B JUMP JUMPDEST JUMPDEST POP SWAP3 POP SWAP3 SWAP1 POP JUMP JUMPDEST PUSH1 0x0 DUP3 DUP3 MSTORE PUSH1 0x20 DUP3 ADD SWAP1 POP SWAP3 SWAP2 POP POP JUMP JUMPDEST PUSH1 0x0 PUSH2 0x457A DUP4 DUP6 PUSH2 0x455D JUMP JUMPDEST SWAP4 POP PUSH2 0x4587 DUP4 DUP6 DUP5 PUSH2 0x3CA0 JUMP JUMPDEST PUSH2 0x4590 DUP4 PUSH2 0x39AF JUMP JUMPDEST DUP5 ADD SWAP1 POP SWAP4 SWAP3 POP POP POP JUMP JUMPDEST PUSH1 0x0 PUSH1 0xA0 DUP3 ADD SWAP1 POP PUSH2 0x45B0 PUSH1 0x0 DUP4 ADD DUP10 PUSH2 0x3800 JUMP JUMPDEST PUSH2 0x45BD PUSH1 0x20 DUP4 ADD DUP9 PUSH2 0x3D68 JUMP JUMPDEST PUSH2 0x45CA PUSH1 0x40 DUP4 ADD DUP8 PUSH2 0x3D68 JUMP JUMPDEST DUP2 DUP2 SUB PUSH1 0x60 DUP4 ADD MSTORE PUSH2 0x45DD DUP2 DUP6 DUP8 PUSH2 0x456E JUMP JUMPDEST SWAP1 POP PUSH2 0x45EC PUSH1 0x80 DUP4 ADD DUP5 PUSH2 0x36B3 JUMP JUMPDEST SWAP8 SWAP7 POP POP POP POP POP POP POP JUMP JUMPDEST PUSH1 0x0 DUP2 MLOAD SWAP1 POP SWAP2 SWAP1 POP JUMP JUMPDEST PUSH1 0x0 PUSH2 0x460D DUP3 PUSH2 0x45F7 JUMP JUMPDEST PUSH2 0x4617 DUP2 DUP6 PUSH2 0x455D JUMP JUMPDEST SWAP4 POP PUSH2 0x4627 DUP2 DUP6 PUSH1 0x20 DUP7 ADD PUSH2 0x3985 JUMP JUMPDEST PUSH2 0x4630 DUP2 PUSH2 0x39AF JUMP JUMPDEST DUP5 ADD SWAP2 POP POP SWAP3 SWAP2 POP POP JUMP JUMPDEST PUSH1 0x0 DUP2 MLOAD SWAP1 POP SWAP2 SWAP1 POP JUMP JUMPDEST PUSH1 0x0 DUP3 DUP3 MSTORE PUSH1 0x20 DUP3 ADD SWAP1 POP SWAP3 SWAP2 POP POP JUMP JUMPDEST PUSH1 0x0 DUP2 SWAP1 POP PUSH1 0x20 DUP3 ADD SWAP1 POP SWAP2 SWAP1 POP JUMP JUMPDEST PUSH1 0x0 DUP3 DUP3 MSTORE PUSH1 0x20 DUP3 ADD SWAP1 POP SWAP3 SWAP2 POP POP JUMP JUMPDEST PUSH1 0x0 PUSH2 0x4683 DUP3 PUSH2 0x45F7 JUMP JUMPDEST PUSH2 0x468D DUP2 DUP6 PUSH2 0x4667 JUMP JUMPDEST SWAP4 POP PUSH2 0x469D DUP2 DUP6 PUSH1 0x20 DUP7 ADD PUSH2 0x3985 JUMP JUMPDEST PUSH2 0x46A6 DUP2 PUSH2 0x39AF JUMP JUMPDEST DUP5 ADD SWAP2 POP POP SWAP3 SWAP2 POP POP JUMP JUMPDEST PUSH1 0x0 PUSH2 0x46BD DUP4 DUP4 PUSH2 0x4678 JUMP JUMPDEST SWAP1 POP SWAP3 SWAP2 POP POP JUMP JUMPDEST PUSH1 0x0 PUSH1 0x20 DUP3 ADD SWAP1 POP SWAP2 SWAP1 POP JUMP JUMPDEST PUSH1 0x0 PUSH2 0x46DD DUP3 PUSH2 0x463B JUMP JUMPDEST PUSH2 0x46E7 DUP2 DUP6 PUSH2 0x4646 JUMP JUMPDEST SWAP4 POP DUP4 PUSH1 0x20 DUP3 MUL DUP6 ADD PUSH2 0x46F9 DUP6 PUSH2 0x4657 JUMP JUMPDEST DUP1 PUSH1 0x0 JUMPDEST DUP6 DUP2 LT ISZERO PUSH2 0x4735 JUMPI DUP5 DUP5 SUB DUP10 MSTORE DUP2 MLOAD PUSH2 0x4716 DUP6 DUP3 PUSH2 0x46B1 JUMP JUMPDEST SWAP5 POP PUSH2 0x4721 DUP4 PUSH2 0x46C5 JUMP JUMPDEST SWAP3 POP PUSH1 0x20 DUP11 ADD SWAP10 POP POP PUSH1 0x1 DUP2 ADD SWAP1 POP PUSH2 0x46FD JUMP JUMPDEST POP DUP3 SWAP8 POP DUP8 SWAP6 POP POP POP POP POP POP SWAP3 SWAP2 POP POP JUMP JUMPDEST PUSH1 0x0 PUSH1 0x60 DUP3 ADD SWAP1 POP DUP2 DUP2 SUB PUSH1 0x0 DUP4 ADD MSTORE PUSH2 0x4761 DUP2 DUP7 PUSH2 0x4602 JUMP JUMPDEST SWAP1 POP DUP2 DUP2 SUB PUSH1 0x20 DUP4 ADD MSTORE PUSH2 0x4775 DUP2 DUP6 PUSH2 0x46D2 JUMP JUMPDEST SWAP1 POP PUSH2 0x4784 PUSH1 0x40 DUP4 ADD DUP5 PUSH2 0x3D68 JUMP JUMPDEST SWAP5 SWAP4 POP POP POP POP JUMP JUMPDEST PUSH1 0x0 DUP2 PUSH1 0xE0 SHR SWAP1 POP SWAP2 SWAP1 POP JUMP JUMPDEST PUSH1 0x0 PUSH1 0x3 RETURNDATASIZE GT ISZERO PUSH2 0x47B8 JUMPI PUSH1 0x4 PUSH1 0x0 DUP1 RETURNDATACOPY PUSH2 0x47B5 PUSH1 0x0 MLOAD PUSH2 0x478C JUMP JUMPDEST SWAP1 POP JUMPDEST SWAP1 JUMP JUMPDEST PUSH1 0x0 PUSH1 0x44 RETURNDATASIZE LT PUSH2 0x4848 JUMPI PUSH2 0x47CD PUSH2 0x360E JUMP JUMPDEST PUSH1 0x4 RETURNDATASIZE SUB PUSH1 0x4 DUP3 RETURNDATACOPY DUP1 MLOAD RETURNDATASIZE PUSH1 0x24 DUP3 ADD GT PUSH8 0xFFFFFFFFFFFFFFFF DUP3 GT OR ISZERO PUSH2 0x47F5 JUMPI POP POP PUSH2 0x4848 JUMP JUMPDEST DUP1 DUP3 ADD DUP1 MLOAD PUSH8 0xFFFFFFFFFFFFFFFF DUP2 GT ISZERO PUSH2 0x4813 JUMPI POP POP POP POP PUSH2 0x4848 JUMP JUMPDEST DUP1 PUSH1 0x20 DUP4 ADD ADD PUSH1 0x4 RETURNDATASIZE SUB DUP6 ADD DUP2 GT ISZERO PUSH2 0x4830 JUMPI POP POP POP POP POP PUSH2 0x4848 JUMP JUMPDEST PUSH2 0x483F DUP3 PUSH1 0x20 ADD DUP6 ADD DUP7 PUSH2 0x3C23 JUMP JUMPDEST DUP3 SWAP6 POP POP POP POP POP POP JUMPDEST SWAP1 JUMP JUMPDEST PUSH1 0x0 PUSH1 0x40 DUP3 ADD SWAP1 POP PUSH2 0x4860 PUSH1 0x0 DUP4 ADD DUP6 PUSH2 0x3800 JUMP JUMPDEST DUP2 DUP2 SUB PUSH1 0x20 DUP4 ADD MSTORE PUSH2 0x4872 DUP2 DUP5 PUSH2 0x3B94 JUMP JUMPDEST SWAP1 POP SWAP4 SWAP3 POP POP POP JUMP JUMPDEST PUSH1 0x0 PUSH1 0x80 DUP3 ADD SWAP1 POP PUSH2 0x4890 PUSH1 0x0 DUP4 ADD DUP8 PUSH2 0x3800 JUMP JUMPDEST PUSH2 0x489D PUSH1 0x20 DUP4 ADD DUP7 PUSH2 0x3800 JUMP JUMPDEST PUSH2 0x48AA PUSH1 0x40 DUP4 ADD DUP6 PUSH2 0x3D68 JUMP JUMPDEST PUSH2 0x48B7 PUSH1 0x60 DUP4 ADD DUP5 PUSH2 0x3D68 JUMP JUMPDEST SWAP6 SWAP5 POP POP POP POP POP JUMP JUMPDEST PUSH1 0x0 PUSH2 0x48CB DUP3 PUSH2 0x3969 JUMP JUMPDEST PUSH2 0x48D5 DUP2 DUP6 PUSH2 0x343B JUMP JUMPDEST SWAP4 POP PUSH2 0x48E5 DUP2 DUP6 PUSH1 0x20 DUP7 ADD PUSH2 0x3985 JUMP JUMPDEST DUP1 DUP5 ADD SWAP2 POP POP SWAP3 SWAP2 POP POP JUMP JUMPDEST PUSH1 0x0 PUSH2 0x48FD DUP3 DUP5 PUSH2 0x48C0 JUMP JUMPDEST SWAP2 POP DUP2 SWAP1 POP SWAP3 SWAP2 POP POP JUMP JUMPDEST PUSH32 0x416363657373436F6E74726F6C3A2063616E206F6E6C792072656E6F756E6365 PUSH1 0x0 DUP3 ADD MSTORE PUSH32 0x20726F6C657320666F722073656C660000000000000000000000000000000000 PUSH1 0x20 DUP3 ADD MSTORE POP JUMP JUMPDEST PUSH1 0x0 PUSH2 0x4964 PUSH1 0x2F DUP4 PUSH2 0x34A7 JUMP JUMPDEST SWAP2 POP PUSH2 0x496F DUP3 PUSH2 0x4908 JUMP JUMPDEST PUSH1 0x40 DUP3 ADD SWAP1 POP SWAP2 SWAP1 POP JUMP JUMPDEST PUSH1 0x0 PUSH1 0x20 DUP3 ADD SWAP1 POP DUP2 DUP2 SUB PUSH1 0x0 DUP4 ADD MSTORE PUSH2 0x4993 DUP2 PUSH2 0x4957 JUMP JUMPDEST SWAP1 POP SWAP2 SWAP1 POP JUMP JUMPDEST PUSH32 0x496E697469616C697A61626C653A20636F6E747261637420697320616C726561 PUSH1 0x0 DUP3 ADD MSTORE PUSH32 0x647920696E697469616C697A6564000000000000000000000000000000000000 PUSH1 0x20 DUP3 ADD MSTORE POP JUMP JUMPDEST PUSH1 0x0 PUSH2 0x49F6 PUSH1 0x2E DUP4 PUSH2 0x34A7 JUMP JUMPDEST SWAP2 POP PUSH2 0x4A01 DUP3 PUSH2 0x499A JUMP JUMPDEST PUSH1 0x40 DUP3 ADD SWAP1 POP SWAP2 SWAP1 POP JUMP JUMPDEST PUSH1 0x0 PUSH1 0x20 DUP3 ADD SWAP1 POP DUP2 DUP2 SUB PUSH1 0x0 DUP4 ADD MSTORE PUSH2 0x4A25 DUP2 PUSH2 0x49E9 JUMP JUMPDEST SWAP1 POP SWAP2 SWAP1 POP JUMP JUMPDEST PUSH32 0x41646D696E416464720000000000000000000000000000000000000000000000 PUSH1 0x0 DUP3 ADD MSTORE POP JUMP JUMPDEST PUSH1 0x0 PUSH2 0x4A62 PUSH1 0x9 DUP4 PUSH2 0x34A7 JUMP JUMPDEST SWAP2 POP PUSH2 0x4A6D DUP3 PUSH2 0x4A2C JUMP JUMPDEST PUSH1 0x20 DUP3 ADD SWAP1 POP SWAP2 SWAP1 POP JUMP JUMPDEST PUSH1 0x0 PUSH1 0x20 DUP3 ADD SWAP1 POP DUP2 DUP2 SUB PUSH1 0x0 DUP4 ADD MSTORE PUSH2 0x4A91 DUP2 PUSH2 0x4A55 JUMP JUMPDEST SWAP1 POP SWAP2 SWAP1 POP JUMP JUMPDEST PUSH32 0x5265736375654164647200000000000000000000000000000000000000000000 PUSH1 0x0 DUP3 ADD MSTORE POP JUMP JUMPDEST PUSH1 0x0 PUSH2 0x4ACE PUSH1 0xA DUP4 PUSH2 0x34A7 JUMP JUMPDEST SWAP2 POP PUSH2 0x4AD9 DUP3 PUSH2 0x4A98 JUMP JUMPDEST PUSH1 0x20 DUP3 ADD SWAP1 POP SWAP2 SWAP1 POP JUMP JUMPDEST PUSH1 0x0 PUSH1 0x20 DUP3 ADD SWAP1 POP DUP2 DUP2 SUB PUSH1 0x0 DUP4 ADD MSTORE PUSH2 0x4AFD DUP2 PUSH2 0x4AC1 JUMP JUMPDEST SWAP1 POP SWAP2 SWAP1 POP JUMP JUMPDEST PUSH32 0x5769746864726177416464720000000000000000000000000000000000000000 PUSH1 0x0 DUP3 ADD MSTORE POP JUMP JUMPDEST PUSH1 0x0 PUSH2 0x4B3A PUSH1 0xC DUP4 PUSH2 0x34A7 JUMP JUMPDEST SWAP2 POP PUSH2 0x4B45 DUP3 PUSH2 0x4B04 JUMP JUMPDEST PUSH1 0x20 DUP3 ADD SWAP1 POP SWAP2 SWAP1 POP JUMP JUMPDEST PUSH1 0x0 PUSH1 0x20 DUP3 ADD SWAP1 POP DUP2 DUP2 SUB PUSH1 0x0 DUP4 ADD MSTORE PUSH2 0x4B69 DUP2 PUSH2 0x4B2D JUMP JUMPDEST SWAP1 POP SWAP2 SWAP1 POP JUMP JUMPDEST PUSH32 0x46697273744C656E6465724C6971416464720000000000000000000000000000 PUSH1 0x0 DUP3 ADD MSTORE POP JUMP JUMPDEST PUSH1 0x0 PUSH2 0x4BA6 PUSH1 0x12 DUP4 PUSH2 0x34A7 JUMP JUMPDEST SWAP2 POP PUSH2 0x4BB1 DUP3 PUSH2 0x4B70 JUMP JUMPDEST PUSH1 0x20 DUP3 ADD SWAP1 POP SWAP2 SWAP1 POP JUMP JUMPDEST PUSH1 0x0 PUSH1 0x20 DUP3 ADD SWAP1 POP DUP2 DUP2 SUB PUSH1 0x0 DUP4 ADD MSTORE PUSH2 0x4BD5 DUP2 PUSH2 0x4B99 JUMP JUMPDEST SWAP1 POP SWAP2 SWAP1 POP JUMP JUMPDEST PUSH32 0x5365636F6E644C656E6465724C69714164647200000000000000000000000000 PUSH1 0x0 DUP3 ADD MSTORE POP JUMP JUMPDEST PUSH1 0x0 PUSH2 0x4C12 PUSH1 0x13 DUP4 PUSH2 0x34A7 JUMP JUMPDEST SWAP2 POP PUSH2 0x4C1D DUP3 PUSH2 0x4BDC JUMP JUMPDEST PUSH1 0x20 DUP3 ADD SWAP1 POP SWAP2 SWAP1 POP JUMP JUMPDEST PUSH1 0x0 PUSH1 0x20 DUP3 ADD SWAP1 POP DUP2 DUP2 SUB PUSH1 0x0 DUP4 ADD MSTORE PUSH2 0x4C41 DUP2 PUSH2 0x4C05 JUMP JUMPDEST SWAP1 POP SWAP2 SWAP1 POP JUMP JUMPDEST PUSH32 0x53776170526F7574657241646472000000000000000000000000000000000000 PUSH1 0x0 DUP3 ADD MSTORE POP JUMP JUMPDEST PUSH1 0x0 PUSH2 0x4C7E PUSH1 0xE DUP4 PUSH2 0x34A7 JUMP JUMPDEST SWAP2 POP PUSH2 0x4C89 DUP3 PUSH2 0x4C48 JUMP JUMPDEST PUSH1 0x20 DUP3 ADD SWAP1 POP SWAP2 SWAP1 POP JUMP JUMPDEST PUSH1 0x0 PUSH1 0x20 DUP3 ADD SWAP1 POP DUP2 DUP2 SUB PUSH1 0x0 DUP4 ADD MSTORE PUSH2 0x4CAD DUP2 PUSH2 0x4C71 JUMP JUMPDEST SWAP1 POP SWAP2 SWAP1 POP JUMP JUMPDEST PUSH32 0x5377617070657241646472000000000000000000000000000000000000000000 PUSH1 0x0 DUP3 ADD MSTORE POP JUMP JUMPDEST PUSH1 0x0 PUSH2 0x4CEA PUSH1 0xB DUP4 PUSH2 0x34A7 JUMP JUMPDEST SWAP2 POP PUSH2 0x4CF5 DUP3 PUSH2 0x4CB4 JUMP JUMPDEST PUSH1 0x20 DUP3 ADD SWAP1 POP SWAP2 SWAP1 POP JUMP JUMPDEST PUSH1 0x0 PUSH1 0x20 DUP3 ADD SWAP1 POP DUP2 DUP2 SUB PUSH1 0x0 DUP4 ADD MSTORE PUSH2 0x4D19 DUP2 PUSH2 0x4CDD JUMP JUMPDEST SWAP1 POP SWAP2 SWAP1 POP JUMP JUMPDEST PUSH32 0x546F6B656E206E616D6520616E642061646472657373206172726179206C656E PUSH1 0x0 DUP3 ADD MSTORE PUSH32 0x67746873206D757374206D617463680000000000000000000000000000000000 PUSH1 0x20 DUP3 ADD MSTORE POP JUMP JUMPDEST PUSH1 0x0 PUSH2 0x4D7C PUSH1 0x2F DUP4 PUSH2 0x34A7 JUMP JUMPDEST SWAP2 POP PUSH2 0x4D87 DUP3 PUSH2 0x4D20 JUMP JUMPDEST PUSH1 0x40 DUP3 ADD SWAP1 POP SWAP2 SWAP1 POP JUMP JUMPDEST PUSH1 0x0 PUSH1 0x20 DUP3 ADD SWAP1 POP DUP2 DUP2 SUB PUSH1 0x0 DUP4 ADD MSTORE PUSH2 0x4DAB DUP2 PUSH2 0x4D6F JUMP JUMPDEST SWAP1 POP SWAP2 SWAP1 POP JUMP JUMPDEST PUSH1 0x0 DUP1 DUP4 CALLDATALOAD PUSH1 0x1 PUSH1 0x20 SUB DUP5 CALLDATASIZE SUB SUB DUP2 SLT PUSH2 0x4DCF JUMPI PUSH2 0x4DCE PUSH2 0x4241 JUMP JUMPDEST JUMPDEST DUP1 DUP5 ADD SWAP3 POP DUP3 CALLDATALOAD SWAP2 POP PUSH8 0xFFFFFFFFFFFFFFFF DUP3 GT ISZERO PUSH2 0x4DF1 JUMPI PUSH2 0x4DF0 PUSH2 0x4246 JUMP JUMPDEST JUMPDEST PUSH1 0x20 DUP4 ADD SWAP3 POP PUSH1 0x1 DUP3 MUL CALLDATASIZE SUB DUP4 SGT ISZERO PUSH2 0x4E0D JUMPI PUSH2 0x4E0C PUSH2 0x424B JUMP JUMPDEST JUMPDEST POP SWAP3 POP SWAP3 SWAP1 POP JUMP JUMPDEST PUSH1 0x0 DUP3 SWAP1 POP SWAP3 SWAP2 POP POP JUMP JUMPDEST PUSH1 0x0 DUP2 SWAP1 POP DUP2 PUSH1 0x0 MSTORE PUSH1 0x20 PUSH1 0x0 KECCAK256 SWAP1 POP SWAP2 SWAP1 POP JUMP JUMPDEST PUSH1 0x0 PUSH1 0x20 PUSH1 0x1F DUP4 ADD DIV SWAP1 POP SWAP2 SWAP1 POP JUMP JUMPDEST PUSH1 0x0 DUP3 DUP3 SHL SWAP1 POP SWAP3 SWAP2 POP POP JUMP JUMPDEST PUSH1 0x0 PUSH1 0x8 DUP4 MUL PUSH2 0x4E82 PUSH32 0xFFFFFFFFFFFFFFFFFFFFFFFFFFFFFFFFFFFFFFFFFFFFFFFFFFFFFFFFFFFFFFFF DUP3 PUSH2 0x4E45 JUMP JUMPDEST PUSH2 0x4E8C DUP7 DUP4 PUSH2 0x4E45 JUMP JUMPDEST SWAP6 POP DUP1 NOT DUP5 AND SWAP4 POP DUP1 DUP7 AND DUP5 OR SWAP3 POP POP POP SWAP4 SWAP3 POP POP POP JUMP JUMPDEST PUSH1 0x0 DUP2 SWAP1 POP SWAP2 SWAP1 POP JUMP JUMPDEST PUSH1 0x0 PUSH2 0x4EC9 PUSH2 0x4EC4 PUSH2 0x4EBF DUP5 PUSH2 0x3550 JUMP JUMPDEST PUSH2 0x4EA4 JUMP JUMPDEST PUSH2 0x3550 JUMP JUMPDEST SWAP1 POP SWAP2 SWAP1 POP JUMP JUMPDEST PUSH1 0x0 DUP2 SWAP1 POP SWAP2 SWAP1 POP JUMP JUMPDEST PUSH2 0x4EE3 DUP4 PUSH2 0x4EAE JUMP JUMPDEST PUSH2 0x4EF7 PUSH2 0x4EEF DUP3 PUSH2 0x4ED0 JUMP JUMPDEST DUP5 DUP5 SLOAD PUSH2 0x4E52 JUMP JUMPDEST DUP3 SSTORE POP POP POP POP JUMP JUMPDEST PUSH1 0x0 SWAP1 JUMP JUMPDEST PUSH2 0x4F0C PUSH2 0x4EFF JUMP JUMPDEST PUSH2 0x4F17 DUP2 DUP5 DUP5 PUSH2 0x4EDA JUMP JUMPDEST POP POP POP JUMP JUMPDEST JUMPDEST DUP2 DUP2 LT ISZERO PUSH2 0x4F3B JUMPI PUSH2 0x4F30 PUSH1 0x0 DUP3 PUSH2 0x4F04 JUMP JUMPDEST PUSH1 0x1 DUP2 ADD SWAP1 POP PUSH2 0x4F1D JUMP JUMPDEST POP POP JUMP JUMPDEST PUSH1 0x1F DUP3 GT ISZERO PUSH2 0x4F80 JUMPI PUSH2 0x4F51 DUP2 PUSH2 0x4E20 JUMP JUMPDEST PUSH2 0x4F5A DUP5 PUSH2 0x4E35 JUMP JUMPDEST DUP2 ADD PUSH1 0x20 DUP6 LT ISZERO PUSH2 0x4F69 JUMPI DUP2 SWAP1 POP JUMPDEST PUSH2 0x4F7D PUSH2 0x4F75 DUP6 PUSH2 0x4E35 JUMP JUMPDEST DUP4 ADD DUP3 PUSH2 0x4F1C JUMP JUMPDEST POP POP JUMPDEST POP POP POP JUMP JUMPDEST PUSH1 0x0 DUP3 DUP3 SHR SWAP1 POP SWAP3 SWAP2 POP POP JUMP JUMPDEST PUSH1 0x0 PUSH2 0x4FA3 PUSH1 0x0 NOT DUP5 PUSH1 0x8 MUL PUSH2 0x4F85 JUMP JUMPDEST NOT DUP1 DUP4 AND SWAP2 POP POP SWAP3 SWAP2 POP POP JUMP JUMPDEST PUSH1 0x0 PUSH2 0x4FBC DUP4 DUP4 PUSH2 0x4F92 JUMP JUMPDEST SWAP2 POP DUP3 PUSH1 0x2 MUL DUP3 OR SWAP1 POP SWAP3 SWAP2 POP POP JUMP JUMPDEST PUSH2 0x4FD6 DUP4 DUP4 PUSH2 0x4E15 JUMP JUMPDEST PUSH8 0xFFFFFFFFFFFFFFFF DUP2 GT ISZERO PUSH2 0x4FEF JUMPI PUSH2 0x4FEE PUSH2 0x3BF4 JUMP JUMPDEST JUMPDEST PUSH2 0x4FF9 DUP3 SLOAD PUSH2 0x40A3 JUMP JUMPDEST PUSH2 0x5004 DUP3 DUP3 DUP6 PUSH2 0x4F3F JUMP JUMPDEST PUSH1 0x0 PUSH1 0x1F DUP4 GT PUSH1 0x1 DUP2 EQ PUSH2 0x5033 JUMPI PUSH1 0x0 DUP5 ISZERO PUSH2 0x5021 JUMPI DUP3 DUP8 ADD CALLDATALOAD SWAP1 POP JUMPDEST PUSH2 0x502B DUP6 DUP3 PUSH2 0x4FB0 JUMP JUMPDEST DUP7 SSTORE POP PUSH2 0x5093 JUMP JUMPDEST PUSH1 0x1F NOT DUP5 AND PUSH2 0x5041 DUP7 PUSH2 0x4E20 JUMP JUMPDEST PUSH1 0x0 JUMPDEST DUP3 DUP2 LT ISZERO PUSH2 0x5069 JUMPI DUP5 DUP10 ADD CALLDATALOAD DUP3 SSTORE PUSH1 0x1 DUP3 ADD SWAP2 POP PUSH1 0x20 DUP6 ADD SWAP5 POP PUSH1 0x20 DUP2 ADD SWAP1 POP PUSH2 0x5044 JUMP JUMPDEST DUP7 DUP4 LT ISZERO PUSH2 0x5086 JUMPI DUP5 DUP10 ADD CALLDATALOAD PUSH2 0x5082 PUSH1 0x1F DUP10 AND DUP3 PUSH2 0x4F92 JUMP JUMPDEST DUP4 SSTORE POP JUMPDEST PUSH1 0x1 PUSH1 0x2 DUP9 MUL ADD DUP9 SSTORE POP POP POP JUMPDEST POP POP POP POP POP POP POP JUMP JUMPDEST PUSH1 0x0 DUP2 SWAP1 POP SWAP2 SWAP1 POP JUMP JUMPDEST PUSH1 0x0 PUSH2 0x50B2 DUP4 DUP6 PUSH2 0x3974 JUMP JUMPDEST SWAP4 POP PUSH2 0x50BF DUP4 DUP6 DUP5 PUSH2 0x3CA0 JUMP JUMPDEST PUSH2 0x50C8 DUP4 PUSH2 0x39AF JUMP JUMPDEST DUP5 ADD SWAP1 POP SWAP4 SWAP3 POP POP POP JUMP JUMPDEST PUSH1 0x0 PUSH2 0x50E0 DUP5 DUP5 DUP5 PUSH2 0x50A6 JUMP JUMPDEST SWAP1 POP SWAP4 SWAP3 POP POP POP JUMP JUMPDEST PUSH1 0x0 DUP1 REVERT JUMPDEST PUSH1 0x0 DUP1 REVERT JUMPDEST PUSH1 0x0 DUP1 REVERT JUMPDEST PUSH1 0x0 DUP1 DUP4 CALLDATALOAD PUSH1 0x1 PUSH1 0x20 SUB DUP5 CALLDATASIZE SUB SUB DUP2 SLT PUSH2 0x5115 JUMPI PUSH2 0x5114 PUSH2 0x50F3 JUMP JUMPDEST JUMPDEST DUP4 DUP2 ADD SWAP3 POP DUP3 CALLDATALOAD SWAP2 POP PUSH1 0x20 DUP4 ADD SWAP3 POP PUSH8 0xFFFFFFFFFFFFFFFF DUP3 GT ISZERO PUSH2 0x513D JUMPI PUSH2 0x513C PUSH2 0x50E9 JUMP JUMPDEST JUMPDEST PUSH1 0x1 DUP3 MUL CALLDATASIZE SUB DUP4 SGT ISZERO PUSH2 0x5153 JUMPI PUSH2 0x5152 PUSH2 0x50EE JUMP JUMPDEST JUMPDEST POP SWAP3 POP SWAP3 SWAP1 POP JUMP JUMPDEST PUSH1 0x0 PUSH1 0x20 DUP3 ADD SWAP1 POP SWAP2 SWAP1 POP JUMP JUMPDEST PUSH1 0x0 PUSH2 0x5174 DUP4 DUP6 PUSH2 0x3948 JUMP JUMPDEST SWAP4 POP DUP4 PUSH1 0x20 DUP5 MUL DUP6 ADD PUSH2 0x5186 DUP5 PUSH2 0x509C JUMP JUMPDEST DUP1 PUSH1 0x0 JUMPDEST DUP8 DUP2 LT ISZERO PUSH2 0x51CC JUMPI DUP5 DUP5 SUB DUP10 MSTORE PUSH2 0x51A1 DUP3 DUP5 PUSH2 0x50F8 JUMP JUMPDEST PUSH2 0x51AC DUP7 DUP3 DUP5 PUSH2 0x50D3 JUMP JUMPDEST SWAP6 POP PUSH2 0x51B7 DUP5 PUSH2 0x515B JUMP JUMPDEST SWAP4 POP PUSH1 0x20 DUP12 ADD SWAP11 POP POP POP PUSH1 0x1 DUP2 ADD SWAP1 POP PUSH2 0x518A JUMP JUMPDEST POP DUP3 SWAP8 POP DUP8 SWAP5 POP POP POP POP POP SWAP4 SWAP3 POP POP POP JUMP JUMPDEST PUSH1 0x0 DUP3 DUP3 MSTORE PUSH1 0x20 DUP3 ADD SWAP1 POP SWAP3 SWAP2 POP POP JUMP JUMPDEST PUSH1 0x0 DUP2 SWAP1 POP SWAP2 SWAP1 POP JUMP JUMPDEST PUSH2 0x5202 DUP2 PUSH2 0x37EE JUMP JUMPDEST DUP3 MSTORE POP POP JUMP JUMPDEST PUSH1 0x0 PUSH2 0x5214 DUP4 DUP4 PUSH2 0x51F9 JUMP JUMPDEST PUSH1 0x20 DUP4 ADD SWAP1 POP SWAP3 SWAP2 POP POP JUMP JUMPDEST PUSH1 0x0 PUSH2 0x522F PUSH1 0x20 DUP5 ADD DUP5 PUSH2 0x3841 JUMP JUMPDEST SWAP1 POP SWAP3 SWAP2 POP POP JUMP JUMPDEST PUSH1 0x0 PUSH1 0x20 DUP3 ADD SWAP1 POP SWAP2 SWAP1 POP JUMP JUMPDEST PUSH1 0x0 PUSH2 0x5250 DUP4 DUP6 PUSH2 0x51DE JUMP JUMPDEST SWAP4 POP PUSH2 0x525B DUP3 PUSH2 0x51EF JUMP JUMPDEST DUP1 PUSH1 0x0 JUMPDEST DUP6 DUP2 LT ISZERO PUSH2 0x5294 JUMPI PUSH2 0x5271 DUP3 DUP5 PUSH2 0x5220 JUMP JUMPDEST PUSH2 0x527B DUP9 DUP3 PUSH2 0x5208 JUMP JUMPDEST SWAP8 POP PUSH2 0x5286 DUP4 PUSH2 0x5237 JUMP JUMPDEST SWAP3 POP POP PUSH1 0x1 DUP2 ADD SWAP1 POP PUSH2 0x525F JUMP JUMPDEST POP DUP6 SWAP3 POP POP POP SWAP4 SWAP3 POP POP POP JUMP JUMPDEST PUSH1 0x0 PUSH1 0x3 SWAP1 POP SWAP2 SWAP1 POP JUMP JUMPDEST PUSH1 0x0 DUP2 SWAP1 POP SWAP3 SWAP2 POP POP JUMP JUMPDEST PUSH1 0x0 DUP2 SWAP1 POP SWAP2 SWAP1 POP JUMP JUMPDEST PUSH1 0x0 PUSH1 0x20 DUP3 ADD SWAP1 POP SWAP2 SWAP1 POP JUMP JUMPDEST PUSH2 0x52D7 DUP2 PUSH2 0x52A1 JUMP JUMPDEST PUSH2 0x52E1 DUP2 DUP5 PUSH2 0x52AC JUMP JUMPDEST SWAP3 POP PUSH2 0x52EC DUP3 PUSH2 0x52B7 JUMP JUMPDEST DUP1 PUSH1 0x0 JUMPDEST DUP4 DUP2 LT ISZERO PUSH2 0x5325 JUMPI PUSH2 0x5302 DUP3 DUP5 PUSH2 0x5220 JUMP JUMPDEST PUSH2 0x530C DUP8 DUP3 PUSH2 0x5208 JUMP JUMPDEST SWAP7 POP PUSH2 0x5317 DUP4 PUSH2 0x52C1 JUMP JUMPDEST SWAP3 POP POP PUSH1 0x1 DUP2 ADD SWAP1 POP PUSH2 0x52F0 JUMP JUMPDEST POP POP POP POP POP POP JUMP JUMPDEST PUSH1 0x0 PUSH2 0x180 DUP3 ADD SWAP1 POP PUSH2 0x5343 PUSH1 0x0 DUP4 ADD DUP16 PUSH2 0x3800 JUMP JUMPDEST DUP2 DUP2 SUB PUSH1 0x20 DUP4 ADD MSTORE PUSH2 0x5356 DUP2 DUP14 DUP16 PUSH2 0x5168 JUMP JUMPDEST SWAP1 POP DUP2 DUP2 SUB PUSH1 0x40 DUP4 ADD MSTORE PUSH2 0x536B DUP2 DUP12 DUP14 PUSH2 0x5244 JUMP JUMPDEST SWAP1 POP PUSH2 0x537A PUSH1 0x60 DUP4 ADD DUP11 PUSH2 0x52CE JUMP JUMPDEST PUSH2 0x5387 PUSH1 0xC0 DUP4 ADD DUP10 PUSH2 0x3800 JUMP JUMPDEST PUSH2 0x5394 PUSH1 0xE0 DUP4 ADD DUP9 PUSH2 0x3800 JUMP JUMPDEST PUSH2 0x53A2 PUSH2 0x100 DUP4 ADD DUP8 PUSH2 0x3800 JUMP JUMPDEST PUSH2 0x53B0 PUSH2 0x120 DUP4 ADD DUP7 PUSH2 0x3800 JUMP JUMPDEST PUSH2 0x53BE PUSH2 0x140 DUP4 ADD DUP6 PUSH2 0x3800 JUMP JUMPDEST PUSH2 0x53CC PUSH2 0x160 DUP4 ADD DUP5 PUSH2 0x3800 JUMP JUMPDEST SWAP14 SWAP13 POP POP POP POP POP POP POP POP POP POP POP POP POP JUMP JUMPDEST PUSH1 0x0 DUP2 SWAP1 POP SWAP2 SWAP1 POP JUMP JUMPDEST PUSH1 0x0 PUSH1 0xFF DUP3 AND SWAP1 POP SWAP2 SWAP1 POP JUMP JUMPDEST PUSH1 0x0 PUSH2 0x540F PUSH2 0x540A PUSH2 0x5405 DUP5 PUSH2 0x53DD JUMP JUMPDEST PUSH2 0x4EA4 JUMP JUMPDEST PUSH2 0x53E7 JUMP JUMPDEST SWAP1 POP SWAP2 SWAP1 POP JUMP JUMPDEST PUSH2 0x541F DUP2 PUSH2 0x53F4 JUMP JUMPDEST DUP3 MSTORE POP POP JUMP JUMPDEST PUSH1 0x0 PUSH1 0x20 DUP3 ADD SWAP1 POP PUSH2 0x543A PUSH1 0x0 DUP4 ADD DUP5 PUSH2 0x5416 JUMP JUMPDEST SWAP3 SWAP2 POP POP JUMP JUMPDEST PUSH32 0x5265736375653041646472000000000000000000000000000000000000000000 PUSH1 0x0 DUP3 ADD MSTORE POP JUMP JUMPDEST PUSH1 0x0 PUSH2 0x5476 PUSH1 0xB DUP4 PUSH2 0x34A7 JUMP JUMPDEST SWAP2 POP PUSH2 0x5481 DUP3 PUSH2 0x5440 JUMP JUMPDEST PUSH1 0x20 DUP3 ADD SWAP1 POP SWAP2 SWAP1 POP JUMP JUMPDEST PUSH1 0x0 PUSH1 0x20 DUP3 ADD SWAP1 POP DUP2 DUP2 SUB PUSH1 0x0 DUP4 ADD MSTORE PUSH2 0x54A5 DUP2 PUSH2 0x5469 JUMP JUMPDEST SWAP1 POP SWAP2 SWAP1 POP JUMP JUMPDEST PUSH1 0x0 PUSH1 0x60 DUP3 ADD SWAP1 POP PUSH2 0x54C1 PUSH1 0x0 DUP4 ADD DUP8 PUSH2 0x3800 JUMP JUMPDEST DUP2 DUP2 SUB PUSH1 0x20 DUP4 ADD MSTORE PUSH2 0x54D4 DUP2 DUP6 DUP8 PUSH2 0x415A JUMP JUMPDEST SWAP1 POP PUSH2 0x54E3 PUSH1 0x40 DUP4 ADD DUP5 PUSH2 0x3D68 JUMP JUMPDEST SWAP6 SWAP5 POP POP POP POP POP JUMP JUMPDEST PUSH32 0x5265656E7472616E637947756172643A207265656E7472616E742063616C6C00 PUSH1 0x0 DUP3 ADD MSTORE POP JUMP JUMPDEST PUSH1 0x0 PUSH2 0x5522 PUSH1 0x1F DUP4 PUSH2 0x34A7 JUMP JUMPDEST SWAP2 POP PUSH2 0x552D DUP3 PUSH2 0x54EC JUMP JUMPDEST PUSH1 0x20 DUP3 ADD SWAP1 POP SWAP2 SWAP1 POP JUMP JUMPDEST PUSH1 0x0 PUSH1 0x20 DUP3 ADD SWAP1 POP DUP2 DUP2 SUB PUSH1 0x0 DUP4 ADD MSTORE PUSH2 0x5551 DUP2 PUSH2 0x5515 JUMP JUMPDEST SWAP1 POP SWAP2 SWAP1 POP JUMP JUMPDEST PUSH1 0x0 PUSH1 0x40 DUP3 ADD SWAP1 POP PUSH2 0x556D PUSH1 0x0 DUP4 ADD DUP6 PUSH2 0x3800 JUMP JUMPDEST PUSH2 0x557A PUSH1 0x20 DUP4 ADD DUP5 PUSH2 0x3D68 JUMP JUMPDEST SWAP4 SWAP3 POP POP POP JUMP JUMPDEST PUSH1 0x0 DUP2 SLOAD PUSH2 0x558E DUP2 PUSH2 0x40A3 JUMP JUMPDEST PUSH2 0x5598 DUP2 DUP7 PUSH2 0x343B JUMP JUMPDEST SWAP5 POP PUSH1 0x1 DUP3 AND PUSH1 0x0 DUP2 EQ PUSH2 0x55B3 JUMPI PUSH1 0x1 DUP2 EQ PUSH2 0x55C8 JUMPI PUSH2 0x55FB JUMP JUMPDEST PUSH1 0xFF NOT DUP4 AND DUP7 MSTORE DUP2 ISZERO ISZERO DUP3 MUL DUP7 ADD SWAP4 POP PUSH2 0x55FB JUMP JUMPDEST PUSH2 0x55D1 DUP6 PUSH2 0x4E20 JUMP JUMPDEST PUSH1 0x0 JUMPDEST DUP4 DUP2 LT ISZERO PUSH2 0x55F3 JUMPI DUP2 SLOAD DUP2 DUP10 ADD MSTORE PUSH1 0x1 DUP3 ADD SWAP2 POP PUSH1 0x20 DUP2 ADD SWAP1 POP PUSH2 0x55D4 JUMP JUMPDEST DUP4 DUP9 ADD SWAP6 POP POP POP JUMPDEST POP POP POP SWAP3 SWAP2 POP POP JUMP JUMPDEST PUSH1 0x0 PUSH2 0x5610 DUP3 DUP5 PUSH2 0x5581 JUMP JUMPDEST SWAP2 POP DUP2 SWAP1 POP SWAP3 SWAP2 POP POP JUMP JUMPDEST PUSH32 0x496E697469616C697A61626C653A20636F6E7472616374206973206E6F742069 PUSH1 0x0 DUP3 ADD MSTORE PUSH32 0x6E697469616C697A696E67000000000000000000000000000000000000000000 PUSH1 0x20 DUP3 ADD MSTORE POP JUMP JUMPDEST PUSH1 0x0 PUSH2 0x5677 PUSH1 0x2B DUP4 PUSH2 0x34A7 JUMP JUMPDEST SWAP2 POP PUSH2 0x5682 DUP3 PUSH2 0x561B JUMP JUMPDEST PUSH1 0x40 DUP3 ADD SWAP1 POP SWAP2 SWAP1 POP JUMP JUMPDEST PUSH1 0x0 PUSH1 0x20 DUP3 ADD SWAP1 POP DUP2 DUP2 SUB PUSH1 0x0 DUP4 ADD MSTORE PUSH2 0x56A6 DUP2 PUSH2 0x566A JUMP JUMPDEST SWAP1 POP SWAP2 SWAP1 POP JUMP JUMPDEST PUSH32 0x416363657373436F6E74726F6C3A206163636F756E7420000000000000000000 PUSH1 0x0 DUP3 ADD MSTORE POP JUMP JUMPDEST PUSH1 0x0 PUSH2 0x56E3 PUSH1 0x17 DUP4 PUSH2 0x343B JUMP JUMPDEST SWAP2 POP PUSH2 0x56EE DUP3 PUSH2 0x56AD JUMP JUMPDEST PUSH1 0x17 DUP3 ADD SWAP1 POP SWAP2 SWAP1 POP JUMP JUMPDEST PUSH32 0x206973206D697373696E6720726F6C6520000000000000000000000000000000 PUSH1 0x0 DUP3 ADD MSTORE POP JUMP JUMPDEST PUSH1 0x0 PUSH2 0x572F PUSH1 0x11 DUP4 PUSH2 0x343B JUMP JUMPDEST SWAP2 POP PUSH2 0x573A DUP3 PUSH2 0x56F9 JUMP JUMPDEST PUSH1 0x11 DUP3 ADD SWAP1 POP SWAP2 SWAP1 POP JUMP JUMPDEST PUSH1 0x0 PUSH2 0x5750 DUP3 PUSH2 0x56D6 JUMP JUMPDEST SWAP2 POP PUSH2 0x575C DUP3 DUP6 PUSH2 0x48C0 JUMP JUMPDEST SWAP2 POP PUSH2 0x5767 DUP3 PUSH2 0x5722 JUMP JUMPDEST SWAP2 POP PUSH2 0x5773 DUP3 DUP5 PUSH2 0x48C0 JUMP JUMPDEST SWAP2 POP DUP2 SWAP1 POP SWAP4 SWAP3 POP POP POP JUMP JUMPDEST PUSH2 0x5788 DUP2 PUSH2 0x36A7 JUMP JUMPDEST DUP2 EQ PUSH2 0x5793 JUMPI PUSH1 0x0 DUP1 REVERT JUMPDEST POP JUMP JUMPDEST PUSH1 0x0 DUP2 MLOAD SWAP1 POP PUSH2 0x57A5 DUP2 PUSH2 0x577F JUMP JUMPDEST SWAP3 SWAP2 POP POP JUMP JUMPDEST PUSH1 0x0 PUSH1 0x20 DUP3 DUP5 SUB SLT ISZERO PUSH2 0x57C1 JUMPI PUSH2 0x57C0 PUSH2 0x3618 JUMP JUMPDEST JUMPDEST PUSH1 0x0 PUSH2 0x57CF DUP5 DUP3 DUP6 ADD PUSH2 0x5796 JUMP JUMPDEST SWAP2 POP POP SWAP3 SWAP2 POP POP JUMP JUMPDEST PUSH32 0x5361666545524332303A204552433230206F7065726174696F6E20646964206E PUSH1 0x0 DUP3 ADD MSTORE PUSH32 0x6F74207375636365656400000000000000000000000000000000000000000000 PUSH1 0x20 DUP3 ADD MSTORE POP JUMP JUMPDEST PUSH1 0x0 PUSH2 0x5834 PUSH1 0x2A DUP4 PUSH2 0x34A7 JUMP JUMPDEST SWAP2 POP PUSH2 0x583F DUP3 PUSH2 0x57D8 JUMP JUMPDEST PUSH1 0x40 DUP3 ADD SWAP1 POP SWAP2 SWAP1 POP JUMP JUMPDEST PUSH1 0x0 PUSH1 0x20 DUP3 ADD SWAP1 POP DUP2 DUP2 SUB PUSH1 0x0 DUP4 ADD MSTORE PUSH2 0x5863 DUP2 PUSH2 0x5827 JUMP JUMPDEST SWAP1 POP SWAP2 SWAP1 POP JUMP JUMPDEST PUSH1 0x0 PUSH2 0x5875 DUP3 PUSH2 0x3550 JUMP JUMPDEST SWAP2 POP PUSH2 0x5880 DUP4 PUSH2 0x3550 JUMP JUMPDEST SWAP3 POP DUP3 DUP3 MUL PUSH2 0x588E DUP2 PUSH2 0x3550 JUMP JUMPDEST SWAP2 POP DUP3 DUP3 DIV DUP5 EQ DUP4 ISZERO OR PUSH2 0x58A5 JUMPI PUSH2 0x58A4 PUSH2 0x3FAE JUMP JUMPDEST JUMPDEST POP SWAP3 SWAP2 POP POP JUMP JUMPDEST PUSH1 0x0 PUSH2 0x58B7 DUP3 PUSH2 0x3550 JUMP JUMPDEST SWAP2 POP PUSH1 0x0 DUP3 SUB PUSH2 0x58CA JUMPI PUSH2 0x58C9 PUSH2 0x3FAE JUMP JUMPDEST JUMPDEST PUSH1 0x1 DUP3 SUB SWAP1 POP SWAP2 SWAP1 POP JUMP JUMPDEST PUSH32 0x537472696E67733A20686578206C656E67746820696E73756666696369656E74 PUSH1 0x0 DUP3 ADD MSTORE POP JUMP JUMPDEST PUSH1 0x0 PUSH2 0x590B PUSH1 0x20 DUP4 PUSH2 0x34A7 JUMP JUMPDEST SWAP2 POP PUSH2 0x5916 DUP3 PUSH2 0x58D5 JUMP JUMPDEST PUSH1 0x20 DUP3 ADD SWAP1 POP SWAP2 SWAP1 POP JUMP JUMPDEST PUSH1 0x0 PUSH1 0x20 DUP3 ADD SWAP1 POP DUP2 DUP2 SUB PUSH1 0x0 DUP4 ADD MSTORE PUSH2 0x593A DUP2 PUSH2 0x58FE JUMP JUMPDEST SWAP1 POP SWAP2 SWAP1 POP JUMP JUMPDEST PUSH32 0x4E487B7100000000000000000000000000000000000000000000000000000000 PUSH1 0x0 MSTORE PUSH1 0x31 PUSH1 0x4 MSTORE PUSH1 0x24 PUSH1 0x0 REVERT JUMPDEST PUSH32 0x416464726573733A20696E73756666696369656E742062616C616E636520666F PUSH1 0x0 DUP3 ADD MSTORE PUSH32 0x722063616C6C0000000000000000000000000000000000000000000000000000 PUSH1 0x20 DUP3 ADD MSTORE POP JUMP JUMPDEST PUSH1 0x0 PUSH2 0x59CC PUSH1 0x26 DUP4 PUSH2 0x34A7 JUMP JUMPDEST SWAP2 POP PUSH2 0x59D7 DUP3 PUSH2 0x5970 JUMP JUMPDEST PUSH1 0x40 DUP3 ADD SWAP1 POP SWAP2 SWAP1 POP JUMP JUMPDEST PUSH1 0x0 PUSH1 0x20 DUP3 ADD SWAP1 POP DUP2 DUP2 SUB PUSH1 0x0 DUP4 ADD MSTORE PUSH2 0x59FB DUP2 PUSH2 0x59BF JUMP JUMPDEST SWAP1 POP SWAP2 SWAP1 POP JUMP JUMPDEST PUSH1 0x0 DUP2 SWAP1 POP SWAP3 SWAP2 POP POP JUMP JUMPDEST PUSH1 0x0 PUSH2 0x5A18 DUP3 PUSH2 0x45F7 JUMP JUMPDEST PUSH2 0x5A22 DUP2 DUP6 PUSH2 0x5A02 JUMP JUMPDEST SWAP4 POP PUSH2 0x5A32 DUP2 DUP6 PUSH1 0x20 DUP7 ADD PUSH2 0x3985 JUMP JUMPDEST DUP1 DUP5 ADD SWAP2 POP POP SWAP3 SWAP2 POP POP JUMP JUMPDEST PUSH1 0x0 PUSH2 0x5A4A DUP3 DUP5 PUSH2 0x5A0D JUMP JUMPDEST SWAP2 POP DUP2 SWAP1 POP SWAP3 SWAP2 POP POP JUMP JUMPDEST PUSH32 0x416464726573733A2063616C6C20746F206E6F6E2D636F6E7472616374000000 PUSH1 0x0 DUP3 ADD MSTORE POP JUMP JUMPDEST PUSH1 0x0 PUSH2 0x5A8B PUSH1 0x1D DUP4 PUSH2 0x34A7 JUMP JUMPDEST SWAP2 POP PUSH2 0x5A96 DUP3 PUSH2 0x5A55 JUMP JUMPDEST PUSH1 0x20 DUP3 ADD SWAP1 POP SWAP2 SWAP1 POP JUMP JUMPDEST PUSH1 0x0 PUSH1 0x20 DUP3 ADD SWAP1 POP DUP2 DUP2 SUB PUSH1 0x0 DUP4 ADD MSTORE PUSH2 0x5ABA DUP2 PUSH2 0x5A7E JUMP JUMPDEST SWAP1 POP SWAP2 SWAP1 POP JUMP INVALID LOG2 PUSH5 0x6970667358 0x22 SLT KECCAK256 DUP9 0x23 BALANCE COINBASE PUSH25 0x13167B1507284A0F51E77F438D6F4AA91A52E721CFEF81DB43 0xF8 0xA5 PUSH5 0x736F6C6343 STOP ADDMOD SLT STOP CALLER "},"methodIdentifiers":{"ACONCAGUA_ROLE()":"e5df800a","DEFAULT_ADMIN_ROLE()":"a217fddf","LENDER_LIQ_ROLE()":"32cc815d","PAUSER_ROLE()":"e63ab1e9","RESCUER_ROLE()":"71372544","SWAPPER_ROLE()":"df668eca","balanceOf(string)":"35ee5f87","getBalances()":"00113e08","getRoleAdmin(bytes32)":"248a9ca3","getRoleByIndex(uint256)":"25acc985","getRoleCount()":"83d33319","getRoleMember(bytes32,uint256)":"9010d07c","getRoleMemberCount(bytes32)":"ca15c873","getTokenNames()":"2ad753e4","grantRole(bytes32,address)":"2f2ff15d","hasRole(bytes32,address)":"91d14854","initialize(string[],address[],address[3],address,address,address,address,address,address)":"72626285","renounceRole(bytes32,address)":"36568abe","rescue(uint256,string)":"0828c404","rescueWalletAddress()":"15ac7358","revokeRole(bytes32,address)":"d547741f","setRescueWalletAddress(address)":"d00411c9","setWithdrawWalletAddress(address)":"212f6039","supportsInterface(bytes4)":"01ffc9a7","swapExactInputs(((bytes,address,uint256,uint256,uint256),address,address)[])":"2ffe9942","tokenNames(uint256)":"310495ab","tokenTable(string)":"55452d04","version()":"54fd4d50","withdraw(uint256,string)":"dc048cf2","withdrawWalletAddress()":"b14ec101"}}}}}