{"contracts/ColateralContract2.sol":{"ColateralContract2":{"abi":[{"inputs":[],"stateMutability":"nonpayable","type":"constructor"},{"anonymous":false,"inputs":[{"indexed":false,"internalType":"address","name":"sender","type":"address"},{"indexed":false,"internalType":"string[]","name":"_tokenNames","type":"string[]"},{"indexed":false,"internalType":"address[]","name":"_tokenAddresses","type":"address[]"},{"indexed":false,"internalType":"address[3]","name":"_aconcagua","type":"address[3]"},{"indexed":false,"internalType":"address","name":"_rescueWalletAddress","type":"address"},{"indexed":false,"internalType":"address","name":"_withdrawWalletAddress","type":"address"},{"indexed":false,"internalType":"address","name":"_firstLenderLiq","type":"address"},{"indexed":false,"internalType":"address","name":"_secondLenderLiq","type":"address"},{"indexed":false,"internalType":"string[3]","name":"_contractKeys","type":"string[3]"},{"indexed":false,"internalType":"address[3]","name":"_contractAddresses","type":"address[3]"}],"name":"Initialize","type":"event"},{"anonymous":false,"inputs":[{"indexed":false,"internalType":"uint8","name":"version","type":"uint8"}],"name":"Initialized","type":"event"},{"anonymous":false,"inputs":[{"indexed":false,"internalType":"address","name":"sender","type":"address"},{"indexed":false,"internalType":"string","name":"token","type":"string"},{"indexed":false,"internalType":"uint256","name":"amount","type":"uint256"},{"indexed":false,"internalType":"address","name":"to","type":"address"}],"name":"Rescue","type":"event"},{"anonymous":false,"inputs":[{"indexed":true,"internalType":"bytes32","name":"role","type":"bytes32"},{"indexed":true,"internalType":"bytes32","name":"previousAdminRole","type":"bytes32"},{"indexed":true,"internalType":"bytes32","name":"newAdminRole","type":"bytes32"}],"name":"RoleAdminChanged","type":"event"},{"anonymous":false,"inputs":[{"indexed":true,"internalType":"bytes32","name":"role","type":"bytes32"},{"indexed":true,"internalType":"address","name":"account","type":"address"},{"indexed":true,"internalType":"address","name":"sender","type":"address"}],"name":"RoleGranted","type":"event"},{"anonymous":false,"inputs":[{"indexed":true,"internalType":"bytes32","name":"role","type":"bytes32"},{"indexed":true,"internalType":"address","name":"account","type":"address"},{"indexed":true,"internalType":"address","name":"sender","type":"address"}],"name":"RoleRevoked","type":"event"},{"anonymous":false,"inputs":[{"indexed":false,"internalType":"address","name":"tokenIn","type":"address"},{"indexed":false,"internalType":"address","name":"tokenOut","type":"address"},{"indexed":false,"internalType":"uint256","name":"amountIn","type":"uint256"},{"indexed":false,"internalType":"uint256","name":"amountOut","type":"uint256"}],"name":"Swap","type":"event"},{"anonymous":false,"inputs":[{"indexed":false,"internalType":"address","name":"tokenIn","type":"address"},{"indexed":false,"internalType":"string","name":"msg","type":"string"}],"name":"SwapError","type":"event"},{"anonymous":false,"inputs":[{"indexed":false,"internalType":"address","name":"sender","type":"address"},{"indexed":false,"internalType":"string","name":"token","type":"string"},{"indexed":false,"internalType":"uint256","name":"amount","type":"uint256"}],"name":"Withdraw","type":"event"},{"inputs":[],"name":"ACONCAGUA_ROLE","outputs":[{"internalType":"bytes32","name":"","type":"bytes32"}],"stateMutability":"view","type":"function"},{"inputs":[],"name":"DEFAULT_ADMIN_ROLE","outputs":[{"internalType":"bytes32","name":"","type":"bytes32"}],"stateMutability":"view","type":"function"},{"inputs":[],"name":"LENDER_LIQ_ROLE","outputs":[{"internalType":"bytes32","name":"","type":"bytes32"}],"stateMutability":"view","type":"function"},{"inputs":[],"name":"RESCUER_ROLE","outputs":[{"internalType":"bytes32","name":"","type":"bytes32"}],"stateMutability":"view","type":"function"},{"inputs":[],"name":"SWAPPER_ROLE","outputs":[{"internalType":"bytes32","name":"","type":"bytes32"}],"stateMutability":"view","type":"function"},{"inputs":[{"internalType":"string","name":"_tokenSymbol","type":"string"}],"name":"balanceOf","outputs":[{"internalType":"uint256","name":"","type":"uint256"}],"stateMutability":"view","type":"function"},{"inputs":[{"internalType":"string","name":"","type":"string"}],"name":"contractAddresses","outputs":[{"internalType":"address","name":"","type":"address"}],"stateMutability":"view","type":"function"},{"inputs":[{"internalType":"uint256","name":"","type":"uint256"}],"name":"contractKeys","outputs":[{"internalType":"string","name":"","type":"string"}],"stateMutability":"view","type":"function"},{"inputs":[],"name":"getBalances","outputs":[{"internalType":"uint256[]","name":"","type":"uint256[]"}],"stateMutability":"view","type":"function"},{"inputs":[{"internalType":"bytes32","name":"role","type":"bytes32"}],"name":"getRoleAdmin","outputs":[{"internalType":"bytes32","name":"","type":"bytes32"}],"stateMutability":"view","type":"function"},{"inputs":[{"internalType":"uint256","name":"index","type":"uint256"}],"name":"getRoleByIndex","outputs":[{"internalType":"bytes32","name":"","type":"bytes32"}],"stateMutability":"view","type":"function"},{"inputs":[],"name":"getRoleCount","outputs":[{"internalType":"uint256","name":"","type":"uint256"}],"stateMutability":"view","type":"function"},{"inputs":[{"internalType":"bytes32","name":"role","type":"bytes32"},{"internalType":"uint256","name":"index","type":"uint256"}],"name":"getRoleMember","outputs":[{"internalType":"address","name":"","type":"address"}],"stateMutability":"view","type":"function"},{"inputs":[{"internalType":"bytes32","name":"role","type":"bytes32"}],"name":"getRoleMemberCount","outputs":[{"internalType":"uint256","name":"","type":"uint256"}],"stateMutability":"view","type":"function"},{"inputs":[],"name":"getTokenNames","outputs":[{"internalType":"string[]","name":"","type":"string[]"}],"stateMutability":"view","type":"function"},{"inputs":[{"internalType":"bytes32","name":"role","type":"bytes32"},{"internalType":"address","name":"account","type":"address"}],"name":"grantRole","outputs":[],"stateMutability":"nonpayable","type":"function"},{"inputs":[{"internalType":"bytes32","name":"role","type":"bytes32"},{"internalType":"address","name":"account","type":"address"}],"name":"hasRole","outputs":[{"internalType":"bool","name":"","type":"bool"}],"stateMutability":"view","type":"function"},{"inputs":[{"internalType":"string[]","name":"_tokenNames","type":"string[]"},{"internalType":"address[]","name":"_tokenAddresses","type":"address[]"},{"internalType":"address[3]","name":"_aconcagua","type":"address[3]"},{"internalType":"address","name":"_rescueWalletAddress","type":"address"},{"internalType":"address","name":"_withdrawWalletAddress","type":"address"},{"internalType":"address","name":"_firstLenderLiq","type":"address"},{"internalType":"address","name":"_secondLenderLiq","type":"address"},{"internalType":"address[3]","name":"_contractAddresses","type":"address[3]"}],"name":"initialize","outputs":[],"stateMutability":"nonpayable","type":"function"},{"inputs":[{"internalType":"address","name":"tokenIn","type":"address"},{"internalType":"uint256","name":"amountIn","type":"uint256"}],"name":"quoteToUSDC","outputs":[{"internalType":"uint256","name":"","type":"uint256"}],"stateMutability":"nonpayable","type":"function"},{"inputs":[{"internalType":"bytes32","name":"role","type":"bytes32"},{"internalType":"address","name":"account","type":"address"}],"name":"renounceRole","outputs":[],"stateMutability":"nonpayable","type":"function"},{"inputs":[{"internalType":"uint256","name":"_amount","type":"uint256"},{"internalType":"string","name":"_tokenSymbol","type":"string"}],"name":"rescue","outputs":[],"stateMutability":"nonpayable","type":"function"},{"inputs":[],"name":"rescueWalletAddress","outputs":[{"internalType":"address","name":"","type":"address"}],"stateMutability":"view","type":"function"},{"inputs":[{"internalType":"bytes32","name":"role","type":"bytes32"},{"internalType":"address","name":"account","type":"address"}],"name":"revokeRole","outputs":[],"stateMutability":"nonpayable","type":"function"},{"inputs":[{"internalType":"address","name":"_rescueWalletAddress","type":"address"}],"name":"setRescueWalletAddress","outputs":[],"stateMutability":"nonpayable","type":"function"},{"inputs":[{"internalType":"address","name":"_withdrawWalletAddress","type":"address"}],"name":"setWithdrawWalletAddress","outputs":[],"stateMutability":"nonpayable","type":"function"},{"inputs":[{"internalType":"bytes4","name":"interfaceId","type":"bytes4"}],"name":"supportsInterface","outputs":[{"internalType":"bool","name":"","type":"bool"}],"stateMutability":"view","type":"function"},{"inputs":[{"components":[{"components":[{"internalType":"bytes","name":"path","type":"bytes"},{"internalType":"address","name":"recipient","type":"address"},{"internalType":"uint256","name":"deadline","type":"uint256"},{"internalType":"uint256","name":"amountIn","type":"uint256"},{"internalType":"uint256","name":"amountOutMinimum","type":"uint256"}],"internalType":"struct ISwapRouter.ExactInputParams","name":"params","type":"tuple"},{"internalType":"address","name":"tokenIn","type":"address"},{"internalType":"address","name":"tokenOut","type":"address"}],"internalType":"struct IColateralContract2.SwapParams[]","name":"swapsParams","type":"tuple[]"}],"name":"swapExactInputs","outputs":[],"stateMutability":"nonpayable","type":"function"},{"inputs":[{"internalType":"uint256","name":"","type":"uint256"}],"name":"tokenNames","outputs":[{"internalType":"string","name":"","type":"string"}],"stateMutability":"view","type":"function"},{"inputs":[{"internalType":"string","name":"","type":"string"}],"name":"tokenTable","outputs":[{"internalType":"address","name":"","type":"address"}],"stateMutability":"view","type":"function"},{"inputs":[],"name":"version","outputs":[{"internalType":"string","name":"","type":"string"}],"stateMutability":"pure","type":"function"},{"inputs":[{"internalType":"uint256","name":"_amount","type":"uint256"},{"internalType":"string","name":"_tokenSymbol","type":"string"}],"name":"withdraw","outputs":[],"stateMutability":"nonpayable","type":"function"},{"inputs":[],"name":"withdrawWalletAddress","outputs":[{"internalType":"address","name":"","type":"address"}],"stateMutability":"view","type":"function"},{"stateMutability":"payable","type":"receive"}],"evm":{"bytecode":{"linkReferences":{},"object":"608060405260405180606001604052806040518060400160405280600681526020017f726f75746572000000000000000000000000000000000000000000000000000081525081526020016040518060400160405280600781526020017f737761707065720000000000000000000000000000000000000000000000000081525081526020016040518060400160405280600681526020017f71756f7465720000000000000000000000000000000000000000000000000000815250815250610102906003620000d1929190620001bc565b50348015620000df57600080fd5b50620000f0620000f660201b60201c565b620006e1565b600060019054906101000a900460ff161562000149576040517f08c379a0000000000000000000000000000000000000000000000000000000008152600401620001409062000323565b60405180910390fd5b60ff801660008054906101000a900460ff1660ff1614620001ba5760ff6000806101000a81548160ff021916908360ff1602179055507f7f26b83ff96e1f2b6a682f133852f6798a09c465da95921460cefb384740249860ff604051620001b1919062000363565b60405180910390a15b565b8260038101928215620001fc579160200282015b82811115620001fb578251829081620001ea9190620005fa565b5091602001919060010190620001d0565b5b5090506200020b91906200020f565b5090565b5b8082111562000233576000818162000229919062000237565b5060010162000210565b5090565b5080546200024590620003e9565b6000825580601f106200025957506200027a565b601f0160209004906000526020600020908101906200027991906200027d565b5b50565b5b80821115620002985760008160009055506001016200027e565b5090565b600082825260208201905092915050565b7f496e697469616c697a61626c653a20636f6e747261637420697320696e69746960008201527f616c697a696e6700000000000000000000000000000000000000000000000000602082015250565b60006200030b6027836200029c565b91506200031882620002ad565b604082019050919050565b600060208201905081810360008301526200033e81620002fc565b9050919050565b600060ff82169050919050565b6200035d8162000345565b82525050565b60006020820190506200037a600083018462000352565b92915050565b600081519050919050565b7f4e487b7100000000000000000000000000000000000000000000000000000000600052604160045260246000fd5b7f4e487b7100000000000000000000000000000000000000000000000000000000600052602260045260246000fd5b600060028204905060018216806200040257607f821691505b602082108103620004185762000417620003ba565b5b50919050565b60008190508160005260206000209050919050565b60006020601f8301049050919050565b600082821b905092915050565b600060088302620004827fffffffffffffffffffffffffffffffffffffffffffffffffffffffffffffffff8262000443565b6200048e868362000443565b95508019841693508086168417925050509392505050565b6000819050919050565b6000819050919050565b6000620004db620004d5620004cf84620004a6565b620004b0565b620004a6565b9050919050565b6000819050919050565b620004f783620004ba565b6200050f6200050682620004e2565b84845462000450565b825550505050565b600090565b6200052662000517565b62000533818484620004ec565b505050565b5b818110156200055b576200054f6000826200051c565b60018101905062000539565b5050565b601f821115620005aa5762000574816200041e565b6200057f8462000433565b810160208510156200058f578190505b620005a76200059e8562000433565b83018262000538565b50505b505050565b600082821c905092915050565b6000620005cf60001984600802620005af565b1980831691505092915050565b6000620005ea8383620005bc565b9150826002028217905092915050565b620006058262000380565b67ffffffffffffffff8111156200062157620006206200038b565b5b6200062d8254620003e9565b6200063a8282856200055f565b600060209050601f8311600181146200067257600084156200065d578287015190505b620006698582620005dc565b865550620006d9565b601f19841662000682866200041e565b60005b82811015620006ac5784890151825560018201915060208501945060208101905062000685565b86831015620006cc5784890151620006c8601f891682620005bc565b8355505b6001600288020188555050505b505050505050565b61676180620006f16000396000f3fe6080604052600436106101e65760003560e01c806355452d0411610102578063ca15c87311610095578063de6bd68711610064578063de6bd6871461082d578063df668eca1461086a578063e5df800a14610895578063ee67cc2a146108c0576102d2565b8063ca15c87314610775578063d00411c9146107b2578063d547741f146107db578063dc048cf214610804576102d2565b80639010d07c116100d15780639010d07c146106a557806391d14854146106e2578063a217fddf1461071f578063b14ec1011461074a576102d2565b806355452d04146105d5578063581ceca814610612578063713725441461064f57806383d333191461067a576102d2565b80632ad753e41161017a57806332cc815d1161014957806332cc815d1461051957806335ee5f871461054457806336568abe1461058157806354fd4d50146105aa576102d2565b80632ad753e41461045f5780632f2ff15d1461048a5780632ffe9942146104b3578063310495ab146104dc576102d2565b80631e08dec9116101b65780631e08dec914610393578063212f6039146103bc578063248a9ca3146103e557806325acc98514610422576102d2565b8062113e08146102d757806301ffc9a7146103025780630828c4041461033f57806315ac735814610368576102d2565b366102d257601e46036102955760fe60405161020190613ae3565b908152602001604051809103902060009054906101000a900473ffffffffffffffffffffffffffffffffffffffff1673ffffffffffffffffffffffffffffffffffffffff1663d0e30db0346040518263ffffffff1660e01b81526004016000604051808303818588803b15801561027757600080fd5b505af115801561028b573d6000803e3d6000fd5b50505050506102d0565b6040517f08c379a00000000000000000000000000000000000000000000000000000000081526004016102c790613b55565b60405180910390fd5b005b600080fd5b3480156102e357600080fd5b506102ec6108fd565b6040516102f99190613c3d565b60405180910390f35b34801561030e57600080fd5b5061032960048036038101906103249190613ccb565b610a86565b6040516103369190613d13565b60405180910390f35b34801561034b57600080fd5b5061036660048036038101906103619190613dbf565b610b00565b005b34801561037457600080fd5b5061037d610c15565b60405161038a9190613e60565b60405180910390f35b34801561039f57600080fd5b506103ba60048036038101906103b59190613f75565b610c3b565b005b3480156103c857600080fd5b506103e360048036038101906103de919061406e565b611830565b005b3480156103f157600080fd5b5061040c600480360381019061040791906140d1565b61190f565b604051610419919061410d565b60405180910390f35b34801561042e57600080fd5b5061044960048036038101906104449190614128565b61192f565b604051610456919061410d565b60405180910390f35b34801561046b57600080fd5b5061047461194c565b60405161048191906142a7565b60405180910390f35b34801561049657600080fd5b506104b160048036038101906104ac91906142c9565b611a25565b005b3480156104bf57600080fd5b506104da60048036038101906104d5919061435f565b611a46565b005b3480156104e857600080fd5b5061050360048036038101906104fe9190614128565b6122bd565b60405161051091906143e5565b60405180910390f35b34801561052557600080fd5b5061052e612369565b60405161053b919061410d565b60405180910390f35b34801561055057600080fd5b5061056b60048036038101906105669190614537565b61238d565b604051610578919061458f565b60405180910390f35b34801561058d57600080fd5b506105a860048036038101906105a391906142c9565b612453565b005b3480156105b657600080fd5b506105bf6124d6565b6040516105cc91906143e5565b60405180910390f35b3480156105e157600080fd5b506105fc60048036038101906105f79190614537565b612513565b6040516106099190613e60565b60405180910390f35b34801561061e57600080fd5b50610639600480360381019061063491906145aa565b61255c565b604051610646919061458f565b60405180910390f35b34801561065b57600080fd5b506106646127f2565b604051610671919061410d565b60405180910390f35b34801561068657600080fd5b5061068f612816565b60405161069c919061458f565b60405180910390f35b3480156106b157600080fd5b506106cc60048036038101906106c791906145ea565b612827565b6040516106d99190613e60565b60405180910390f35b3480156106ee57600080fd5b50610709600480360381019061070491906142c9565b612856565b6040516107169190613d13565b60405180910390f35b34801561072b57600080fd5b506107346128c1565b604051610741919061410d565b60405180910390f35b34801561075657600080fd5b5061075f6128c8565b60405161076c9190613e60565b60405180910390f35b34801561078157600080fd5b5061079c600480360381019061079791906140d1565b6128ef565b6040516107a9919061458f565b60405180910390f35b3480156107be57600080fd5b506107d960048036038101906107d4919061406e565b612913565b005b3480156107e757600080fd5b5061080260048036038101906107fd91906142c9565b6129f1565b005b34801561081057600080fd5b5061082b60048036038101906108269190613dbf565b612a12565b005b34801561083957600080fd5b50610854600480360381019061084f9190614128565b612b20565b60405161086191906143e5565b60405180910390f35b34801561087657600080fd5b5061087f612bc4565b60405161088c919061410d565b60405180910390f35b3480156108a157600080fd5b506108aa612be8565b6040516108b7919061410d565b60405180910390f35b3480156108cc57600080fd5b506108e760048036038101906108e29190614537565b612c0c565b6040516108f49190613e60565b60405180910390f35b60606000600160fd805490506109139190614659565b67ffffffffffffffff81111561092c5761092b61440c565b5b60405190808252806020026020018201604052801561095a5781602001602082028036833780820191505090505b50905047816000815181106109725761097161468d565b5b6020026020010181815250506000600190505b60fd805490508111610a7e57610a4c60fd6001836109a391906146bc565b815481106109b4576109b361468d565b5b9060005260206000200180546109c99061471f565b80601f01602080910402602001604051908101604052809291908181526020018280546109f59061471f565b8015610a425780601f10610a1757610100808354040283529160200191610a42565b820191906000526020600020905b815481529060010190602001808311610a2557829003601f168201915b505050505061238d565b828281518110610a5f57610a5e61468d565b5b6020026020010181815250508080610a7690614750565b915050610985565b508091505090565b60007f5a05180f000000000000000000000000000000000000000000000000000000007bffffffffffffffffffffffffffffffffffffffffffffffffffffffff1916827bffffffffffffffffffffffffffffffffffffffffffffffffffffffff19161480610af95750610af882612c56565b5b9050919050565b7fbffb4faf8a508f503a2ca036effd0bc1f82615d3ebfddb934edf718f23672707610b2a81612cd0565b610b32612ce4565b610b9f60fe8484604051610b479291906147bd565b908152602001604051809103902060009054906101000a900473ffffffffffffffffffffffffffffffffffffffff1660ff60009054906101000a900473ffffffffffffffffffffffffffffffffffffffff1686612d33565b7f22cb89e6358014bb27f5658e2b820189f8f4c9e3f7165ecf266edc53be12d9fa610bc8612db9565b84848760ff60009054906101000a900473ffffffffffffffffffffffffffffffffffffffff16604051610bff959493929190614803565b60405180910390a1610c0f612dc1565b50505050565b60ff60009054906101000a900473ffffffffffffffffffffffffffffffffffffffff1681565b60008060019054906101000a900460ff16159050808015610c6c5750600160008054906101000a900460ff1660ff16105b80610c995750610c7b30612dcb565b158015610c985750600160008054906101000a900460ff1660ff16145b5b610cd8576040517f08c379a0000000000000000000000000000000000000000000000000000000008152600401610ccf906148c3565b60405180910390fd5b60016000806101000a81548160ff021916908360ff1602179055508015610d15576001600060016101000a81548160ff0219169083151502179055505b600073ffffffffffffffffffffffffffffffffffffffff1687600060038110610d4157610d4061468d565b5b602002016020810190610d54919061406e565b73ffffffffffffffffffffffffffffffffffffffff16141580610dca5750600073ffffffffffffffffffffffffffffffffffffffff1687600160038110610d9e57610d9d61468d565b5b602002016020810190610db1919061406e565b73ffffffffffffffffffffffffffffffffffffffff1614155b80610e285750600073ffffffffffffffffffffffffffffffffffffffff1687600260038110610dfc57610dfb61468d565b5b602002016020810190610e0f919061406e565b73ffffffffffffffffffffffffffffffffffffffff1614155b610e67576040517f08c379a0000000000000000000000000000000000000000000000000000000008152600401610e5e9061492f565b60405180910390fd5b600073ffffffffffffffffffffffffffffffffffffffff168673ffffffffffffffffffffffffffffffffffffffff1603610ed6576040517f08c379a0000000000000000000000000000000000000000000000000000000008152600401610ecd9061499b565b60405180910390fd5b600073ffffffffffffffffffffffffffffffffffffffff168573ffffffffffffffffffffffffffffffffffffffff1603610f45576040517f08c379a0000000000000000000000000000000000000000000000000000000008152600401610f3c90614a07565b60405180910390fd5b600073ffffffffffffffffffffffffffffffffffffffff168473ffffffffffffffffffffffffffffffffffffffff1603610fb4576040517f08c379a0000000000000000000000000000000000000000000000000000000008152600401610fab90614a73565b60405180910390fd5b600073ffffffffffffffffffffffffffffffffffffffff168373ffffffffffffffffffffffffffffffffffffffff1603611023576040517f08c379a000000000000000000000000000000000000000000000000000000000815260040161101a90614adf565b60405180910390fd5b61102b612dee565b611033612e3f565b888890508b8b90501461107b576040517f08c379a000000000000000000000000000000000000000000000000000000000815260040161107290614b71565b60405180910390fd5b60005b8b8b90508110156111a65789898281811061109c5761109b61468d565b5b90506020020160208101906110b1919061406e565b60fe8d8d848181106110c6576110c561468d565b5b90506020028101906110d89190614ba0565b6040516110e69291906147bd565b908152602001604051809103902060006101000a81548173ffffffffffffffffffffffffffffffffffffffff021916908373ffffffffffffffffffffffffffffffffffffffff16021790555060fd8c8c838181106111475761114661468d565b5b90506020028101906111599190614ba0565b90918060018154018082558091505060019003906000526020600020016000909192909192909192909192509182611192929190614dba565b50808061119e90614750565b91505061107e565b508461010060006101000a81548173ffffffffffffffffffffffffffffffffffffffff021916908373ffffffffffffffffffffffffffffffffffffffff1602179055508560ff60006101000a81548173ffffffffffffffffffffffffffffffffffffffff021916908373ffffffffffffffffffffffffffffffffffffffff16021790555060005b60038110156112e1578281600381106112495761124861468d565b5b60200201602081019061125c919061406e565b61010161010283600381106112745761127361468d565b5b016040516112829190614f0d565b908152602001604051809103902060006101000a81548173ffffffffffffffffffffffffffffffffffffffff021916908373ffffffffffffffffffffffffffffffffffffffff16021790555080806112d990614750565b91505061122d565b506101016040516112f190614f70565b908152602001604051809103902060009054906101000a900473ffffffffffffffffffffffffffffffffffffffff1661010560006101000a81548173ffffffffffffffffffffffffffffffffffffffff021916908373ffffffffffffffffffffffffffffffffffffffff16021790555061010160405161137090614fd1565b908152602001604051809103902060009054906101000a900473ffffffffffffffffffffffffffffffffffffffff1661010660006101000a81548173ffffffffffffffffffffffffffffffffffffffff021916908373ffffffffffffffffffffffffffffffffffffffff1602179055506114147ffaad79a708d82d095486f5a83b18341f12a8f717d3011ab929d43135c1af73e260fb612e9890919063ffffffff16565b506114497ffd37f88a14d7ed985885a1af8f2ad5b64dd7eb00ab89168649791632bb9bb4a660fb612e9890919063ffffffff16565b5061147e7fbffb4faf8a508f503a2ca036effd0bc1f82615d3ebfddb934edf718f2367270760fb612e9890919063ffffffff16565b506114b37fd2761b102bda9831f4af400cc824b8cecb9cc5c1c85c51acb1479db9735fbfc660fb612e9890919063ffffffff16565b506115047ffaad79a708d82d095486f5a83b18341f12a8f717d3011ab929d43135c1af73e2886000600381106114ec576114eb61468d565b5b6020020160208101906114ff919061406e565b612eaf565b6115547ffaad79a708d82d095486f5a83b18341f12a8f717d3011ab929d43135c1af73e28860016003811061153c5761153b61468d565b5b60200201602081019061154f919061406e565b612eaf565b6115a47ffaad79a708d82d095486f5a83b18341f12a8f717d3011ab929d43135c1af73e28860026003811061158c5761158b61468d565b5b60200201602081019061159f919061406e565b612eaf565b6115ce7ffd37f88a14d7ed985885a1af8f2ad5b64dd7eb00ab89168649791632bb9bb4a685612eaf565b6115f87ffd37f88a14d7ed985885a1af8f2ad5b64dd7eb00ab89168649791632bb9bb4a684612eaf565b6116227fbffb4faf8a508f503a2ca036effd0bc1f82615d3ebfddb934edf718f2367270785612eaf565b61164c7fbffb4faf8a508f503a2ca036effd0bc1f82615d3ebfddb934edf718f2367270784612eaf565b6116b37fd2761b102bda9831f4af400cc824b8cecb9cc5c1c85c51acb1479db9735fbfc661010160405161167f90615032565b908152602001604051809103902060009054906101000a900473ffffffffffffffffffffffffffffffffffffffff16612eaf565b6116dd7ffaad79a708d82d095486f5a83b18341f12a8f717d3011ab929d43135c1af73e280612ee3565b6117077ffd37f88a14d7ed985885a1af8f2ad5b64dd7eb00ab89168649791632bb9bb4a680612ee3565b6117317fbffb4faf8a508f503a2ca036effd0bc1f82615d3ebfddb934edf718f2367270780612ee3565b61177b7fd2761b102bda9831f4af400cc824b8cecb9cc5c1c85c51acb1479db9735fbfc67ffaad79a708d82d095486f5a83b18341f12a8f717d3011ab929d43135c1af73e2612ee3565b7f0c4e9cb2514fd5c0a9dc8982a257f2fef7bf64b1ddff0baaa409ad4deebc8e53338c8c8c8c8c8c8c8c8c6101028d6040516117c29c9b9a99989796959493929190615411565b60405180910390a180156118235760008060016101000a81548160ff0219169083151502179055507f7f26b83ff96e1f2b6a682f133852f6798a09c465da95921460cefb3847402498600160405161181a9190615510565b60405180910390a15b5050505050505050505050565b7ffaad79a708d82d095486f5a83b18341f12a8f717d3011ab929d43135c1af73e261185a81612cd0565b600073ffffffffffffffffffffffffffffffffffffffff168273ffffffffffffffffffffffffffffffffffffffff16036118c9576040517f08c379a00000000000000000000000000000000000000000000000000000000081526004016118c090615577565b60405180910390fd5b8161010060006101000a81548173ffffffffffffffffffffffffffffffffffffffff021916908373ffffffffffffffffffffffffffffffffffffffff1602179055505050565b600060656000838152602001908152602001600020600101549050919050565b60006119458260fb612f3f90919063ffffffff16565b9050919050565b606060fd805480602002602001604051908101604052809291908181526020016000905b82821015611a1c57838290600052602060002001805461198f9061471f565b80601f01602080910402602001604051908101604052809291908181526020018280546119bb9061471f565b8015611a085780601f106119dd57610100808354040283529160200191611a08565b820191906000526020600020905b8154815290600101906020018083116119eb57829003601f168201915b505050505081526020019060010190611970565b50505050905090565b611a2e8261190f565b611a3781612cd0565b611a418383612eaf565b505050565b7fd2761b102bda9831f4af400cc824b8cecb9cc5c1c85c51acb1479db9735fbfc6611a7081612cd0565b600060fe604051611a8090613ae3565b908152602001604051809103902060009054906101000a900473ffffffffffffffffffffffffffffffffffffffff169050600060fe604051611ac1906155e3565b908152602001604051809103902060009054906101000a900473ffffffffffffffffffffffffffffffffffffffff16905060005b858590508110156122b55736868683818110611b1457611b1361468d565b5b9050602002810190611b2691906155f8565b90503073ffffffffffffffffffffffffffffffffffffffff16818060000190611b4f9190615620565b6020016020810190611b61919061406e565b73ffffffffffffffffffffffffffffffffffffffff1614611bb7576040517f08c379a0000000000000000000000000000000000000000000000000000000008152600401611bae90615694565b60405180910390fd5b6000818060000190611bc99190615620565b6080013511611c0d576040517f08c379a0000000000000000000000000000000000000000000000000000000008152600401611c0490615700565b60405180910390fd5b611c28816040016020810190611c23919061406e565b612f56565b611c67576040517f08c379a0000000000000000000000000000000000000000000000000000000008152600401611c5e9061576c565b60405180910390fd5b8373ffffffffffffffffffffffffffffffffffffffff16816020016020810190611c91919061406e565b73ffffffffffffffffffffffffffffffffffffffff161480611cf057508273ffffffffffffffffffffffffffffffffffffffff16816020016020810190611cd8919061406e565b73ffffffffffffffffffffffffffffffffffffffff16145b611d2f576040517f08c379a0000000000000000000000000000000000000000000000000000000008152600401611d26906157d8565b60405180910390fd5b6000816020016020810190611d44919061406e565b90506000828060000190611d589190615620565b60600135118015611df557508073ffffffffffffffffffffffffffffffffffffffff166370a08231306040518263ffffffff1660e01b8152600401611d9d9190613e60565b602060405180830381865afa158015611dba573d6000803e3d6000fd5b505050506040513d601f19601f82011682018060405250810190611dde919061580d565b828060000190611dee9190615620565b6060013511155b611e34576040517f08c379a0000000000000000000000000000000000000000000000000000000008152600401611e2b90615886565b60405180910390fd5b6000826040016020810190611e49919061406e565b73ffffffffffffffffffffffffffffffffffffffff166370a08231306040518263ffffffff1660e01b8152600401611e819190613e60565b602060405180830381865afa158015611e9e573d6000803e3d6000fd5b505050506040513d601f19601f82011682018060405250810190611ec2919061580d565b9050611f1f82610101604051611ed790614f70565b908152602001604051809103902060009054906101000a900473ffffffffffffffffffffffffffffffffffffffff16858060000190611f169190615620565b60600135612d33565b60008060f81b604051602001611f3591906158f3565b60405160208183030381529060405290506000600167ffffffffffffffff811115611f6357611f6261440c565b5b604051908082528060200260200182016040528015611f9657816020015b6060815260200190600190039081611f815790505b509050848060000190611fa99190615620565b6020016020810190611fbb919061406e565b858060000190611fcb9190615620565b60600135868060000190611fdf9190615620565b60800135878060000190611ff39190615620565b8060000190612002919061590e565b6000604051602001612019969594939291906159af565b6040516020818303038152906040528160008151811061203c5761203b61468d565b5b602002602001018190525061010160405161205690614f70565b908152602001604051809103902060009054906101000a900473ffffffffffffffffffffffffffffffffffffffff1673ffffffffffffffffffffffffffffffffffffffff16633593564c83838880600001906120b29190615620565b604001356040518463ffffffff1660e01b81526004016120d493929190615b5b565b600060405180830381600087803b1580156120ee57600080fd5b505af19250505080156120ff575060015b61218c5761210b615bad565b806308c379a00361217b575061211f615bcf565b8061212a575061217d565b7f48dbf1f65dc9fb918dcf47a87d0d7dbfe9cd78bcfaea409049ee36785201cb9186602001602081019061215e919061406e565b8260405161216d929190615c5f565b60405180910390a150612187565b505b3d6000803e3d6000fd5b61229d565b60008560400160208101906121a1919061406e565b73ffffffffffffffffffffffffffffffffffffffff166370a08231306040518263ffffffff1660e01b81526004016121d99190613e60565b602060405180830381865afa1580156121f6573d6000803e3d6000fd5b505050506040513d601f19601f8201168201806040525081019061221a919061580d565b90507ffa2dda1cc1b86e41239702756b13effbc1a092b5c57e3ad320fbe4f3b13fe235866020016020810190612250919061406e565b876040016020810190612263919061406e565b8880600001906122739190615620565b60600135878561228391906146bc565b6040516122939493929190615c8f565b60405180910390a1505b505050505080806122ad90614750565b915050611af5565b505050505050565b60fd81815481106122cd57600080fd5b9060005260206000200160009150905080546122e89061471f565b80601f01602080910402602001604051908101604052809291908181526020018280546123149061471f565b80156123615780601f1061233657610100808354040283529160200191612361565b820191906000526020600020905b81548152906001019060200180831161234457829003601f168201915b505050505081565b7ffd37f88a14d7ed985885a1af8f2ad5b64dd7eb00ab89168649791632bb9bb4a681565b60008060fe836040516123a09190615d05565b908152602001604051809103902060009054906101000a900473ffffffffffffffffffffffffffffffffffffffff1690508073ffffffffffffffffffffffffffffffffffffffff166370a08231306040518263ffffffff1660e01b815260040161240a9190613e60565b602060405180830381865afa158015612427573d6000803e3d6000fd5b505050506040513d601f19601f8201168201806040525081019061244b919061580d565b915050919050565b61245b612db9565b73ffffffffffffffffffffffffffffffffffffffff168173ffffffffffffffffffffffffffffffffffffffff16146124c8576040517f08c379a00000000000000000000000000000000000000000000000000000000081526004016124bf90615d8e565b60405180910390fd5b6124d28282613021565b5050565b60606040518060400160405280600581526020017f322e302e30000000000000000000000000000000000000000000000000000000815250905090565b60fe818051602081018201805184825260208301602085012081835280955050505050506000915054906101000a900473ffffffffffffffffffffffffffffffffffffffff1681565b60008273ffffffffffffffffffffffffffffffffffffffff1660fe604051612583906155e3565b908152602001604051809103902060009054906101000a900473ffffffffffffffffffffffffffffffffffffffff1673ffffffffffffffffffffffffffffffffffffffff16148061263b57508273ffffffffffffffffffffffffffffffffffffffff1660fe6040516125f490613ae3565b908152602001604051809103902060009054906101000a900473ffffffffffffffffffffffffffffffffffffffff1673ffffffffffffffffffffffffffffffffffffffff16145b61267a576040517f08c379a000000000000000000000000000000000000000000000000000000000815260040161267190615dfa565b60405180910390fd5b606060fe60405161268a906155e3565b908152602001604051809103902060009054906101000a900473ffffffffffffffffffffffffffffffffffffffff1673ffffffffffffffffffffffffffffffffffffffff168473ffffffffffffffffffffffffffffffffffffffff160361270b576040518060800160405280604281526020016166ea604291399050612727565b6040518060600160405280602b81526020016166bf602b913990505b6000606080600061010660009054906101000a900473ffffffffffffffffffffffffffffffffffffffff1673ffffffffffffffffffffffffffffffffffffffff1663cdca175386896040518363ffffffff1660e01b815260040161278c929190615e1a565b6000604051808303816000875af11580156127ab573d6000803e3d6000fd5b505050506040513d6000823e3d601f19601f820116820180604052508101906127d49190616038565b80945081955082965083975050505050839550505050505092915050565b7fbffb4faf8a508f503a2ca036effd0bc1f82615d3ebfddb934edf718f2367270781565b600061282260fb613055565b905090565b600061284e826097600086815260200190815260200160002061306a90919063ffffffff16565b905092915050565b60006065600084815260200190815260200160002060000160008373ffffffffffffffffffffffffffffffffffffffff1673ffffffffffffffffffffffffffffffffffffffff16815260200190815260200160002060009054906101000a900460ff16905092915050565b6000801b81565b61010060009054906101000a900473ffffffffffffffffffffffffffffffffffffffff1681565b600061290c60976000848152602001908152602001600020613084565b9050919050565b7ffaad79a708d82d095486f5a83b18341f12a8f717d3011ab929d43135c1af73e261293d81612cd0565b600073ffffffffffffffffffffffffffffffffffffffff168273ffffffffffffffffffffffffffffffffffffffff16036129ac576040517f08c379a00000000000000000000000000000000000000000000000000000000081526004016129a390616123565b60405180910390fd5b8160ff60006101000a81548173ffffffffffffffffffffffffffffffffffffffff021916908373ffffffffffffffffffffffffffffffffffffffff1602179055505050565b6129fa8261190f565b612a0381612cd0565b612a0d8383613021565b505050565b7ffd37f88a14d7ed985885a1af8f2ad5b64dd7eb00ab89168649791632bb9bb4a6612a3c81612cd0565b612a44612ce4565b612ab260fe8484604051612a599291906147bd565b908152602001604051809103902060009054906101000a900473ffffffffffffffffffffffffffffffffffffffff1661010060009054906101000a900473ffffffffffffffffffffffffffffffffffffffff1686612d33565b7f901c03da5d88eb3d62ab4617e7b7d17d86db16356823a7971127d5181a842fef61010060009054906101000a900473ffffffffffffffffffffffffffffffffffffffff16848487604051612b0a9493929190616143565b60405180910390a1612b1a612dc1565b50505050565b6101028160038110612b3157600080fd5b016000915090508054612b439061471f565b80601f0160208091040260200160405190810160405280929190818152602001828054612b6f9061471f565b8015612bbc5780601f10612b9157610100808354040283529160200191612bbc565b820191906000526020600020905b815481529060010190602001808311612b9f57829003601f168201915b505050505081565b7fd2761b102bda9831f4af400cc824b8cecb9cc5c1c85c51acb1479db9735fbfc681565b7ffaad79a708d82d095486f5a83b18341f12a8f717d3011ab929d43135c1af73e281565b610101818051602081018201805184825260208301602085012081835280955050505050506000915054906101000a900473ffffffffffffffffffffffffffffffffffffffff1681565b60007f7965db0b000000000000000000000000000000000000000000000000000000007bffffffffffffffffffffffffffffffffffffffffffffffffffffffff1916827bffffffffffffffffffffffffffffffffffffffffffffffffffffffff19161480612cc95750612cc882613099565b5b9050919050565b612ce181612cdc612db9565b613103565b50565b600260c95403612d29576040517f08c379a0000000000000000000000000000000000000000000000000000000008152600401612d20906161cf565b60405180910390fd5b600260c981905550565b612db48363a9059cbb60e01b8484604051602401612d529291906161ef565b604051602081830303815290604052907bffffffffffffffffffffffffffffffffffffffffffffffffffffffff19166020820180517bffffffffffffffffffffffffffffffffffffffffffffffffffffffff8381831617835250505050613188565b505050565b600033905090565b600160c981905550565b6000808273ffffffffffffffffffffffffffffffffffffffff163b119050919050565b600060019054906101000a900460ff16612e3d576040517f08c379a0000000000000000000000000000000000000000000000000000000008152600401612e349061628a565b60405180910390fd5b565b600060019054906101000a900460ff16612e8e576040517f08c379a0000000000000000000000000000000000000000000000000000000008152600401612e859061628a565b60405180910390fd5b600160c981905550565b6000612ea78360000183613250565b905092915050565b612eb982826132c0565b612ede81609760008581526020019081526020016000206133a190919063ffffffff16565b505050565b6000612eee8361190f565b90508160656000858152602001908152602001600020600101819055508181847fbd79b86ffe0ab8e8776151514217cd7cacd52c909f66475c3af44e129f0b00ff60405160405180910390a4505050565b6000612f4e83600001836133d1565b905092915050565b600080600090505b60fd80549050811015613016578273ffffffffffffffffffffffffffffffffffffffff1660fe60fd8381548110612f9857612f9761468d565b5b90600052602060002001604051612faf9190614f0d565b908152602001604051809103902060009054906101000a900473ffffffffffffffffffffffffffffffffffffffff1673ffffffffffffffffffffffffffffffffffffffff160361300357600191505061301c565b808061300e90614750565b915050612f5e565b50600090505b919050565b61302b82826133fc565b61305081609760008581526020019081526020016000206134de90919063ffffffff16565b505050565b60006130638260000161350e565b9050919050565b600061307983600001836133d1565b60001c905092915050565b60006130928260000161350e565b9050919050565b60007f01ffc9a7000000000000000000000000000000000000000000000000000000007bffffffffffffffffffffffffffffffffffffffffffffffffffffffff1916827bffffffffffffffffffffffffffffffffffffffffffffffffffffffff1916149050919050565b61310d8282612856565b6131845761311a8161351f565b6131288360001c602061354c565b604051602001613139929190616342565b6040516020818303038152906040526040517f08c379a000000000000000000000000000000000000000000000000000000000815260040161317b91906143e5565b60405180910390fd5b5050565b60006131ea826040518060400160405280602081526020017f5361666545524332303a206c6f772d6c6576656c2063616c6c206661696c65648152508573ffffffffffffffffffffffffffffffffffffffff166137889092919063ffffffff16565b905060008151148061320c57508080602001905181019061320b91906163a8565b5b61324b576040517f08c379a000000000000000000000000000000000000000000000000000000000815260040161324290616447565b60405180910390fd5b505050565b600061325c83836137a0565b6132b55782600001829080600181540180825580915050600190039060005260206000200160009091909190915055826000018054905083600101600084815260200190815260200160002081905550600190506132ba565b600090505b92915050565b6132ca8282612856565b61339d5760016065600084815260200190815260200160002060000160008373ffffffffffffffffffffffffffffffffffffffff1673ffffffffffffffffffffffffffffffffffffffff16815260200190815260200160002060006101000a81548160ff021916908315150217905550613342612db9565b73ffffffffffffffffffffffffffffffffffffffff168173ffffffffffffffffffffffffffffffffffffffff16837f2f8788117e7eff1d82e926ec794901d17c78024a50270940304540a733656f0d60405160405180910390a45b5050565b60006133c9836000018373ffffffffffffffffffffffffffffffffffffffff1660001b613250565b905092915050565b60008260000182815481106133e9576133e861468d565b5b9060005260206000200154905092915050565b6134068282612856565b156134da5760006065600084815260200190815260200160002060000160008373ffffffffffffffffffffffffffffffffffffffff1673ffffffffffffffffffffffffffffffffffffffff16815260200190815260200160002060006101000a81548160ff02191690831515021790555061347f612db9565b73ffffffffffffffffffffffffffffffffffffffff168173ffffffffffffffffffffffffffffffffffffffff16837ff6391f5c32d9c69d2a47ea670b442974b53935d1edc7fd64eb21e047a839171b60405160405180910390a45b5050565b6000613506836000018373ffffffffffffffffffffffffffffffffffffffff1660001b6137c3565b905092915050565b600081600001805490509050919050565b60606135458273ffffffffffffffffffffffffffffffffffffffff16601460ff1661354c565b9050919050565b60606000600283600261355f9190616467565b6135699190614659565b67ffffffffffffffff8111156135825761358161440c565b5b6040519080825280601f01601f1916602001820160405280156135b45781602001600182028036833780820191505090505b5090507f3000000000000000000000000000000000000000000000000000000000000000816000815181106135ec576135eb61468d565b5b60200101907effffffffffffffffffffffffffffffffffffffffffffffffffffffffffffff1916908160001a9053507f7800000000000000000000000000000000000000000000000000000000000000816001815181106136505761364f61468d565b5b60200101907effffffffffffffffffffffffffffffffffffffffffffffffffffffffffffff1916908160001a905350600060018460026136909190616467565b61369a9190614659565b90505b600181111561373a577f3031323334353637383961626364656600000000000000000000000000000000600f8616601081106136dc576136db61468d565b5b1a60f81b8282815181106136f3576136f261468d565b5b60200101907effffffffffffffffffffffffffffffffffffffffffffffffffffffffffffff1916908160001a905350600485901c945080613733906164a9565b905061369d565b506000841461377e576040517f08c379a00000000000000000000000000000000000000000000000000000000081526004016137759061651e565b60405180910390fd5b8091505092915050565b606061379784846000856138d7565b90509392505050565b600080836001016000848152602001908152602001600020541415905092915050565b600080836001016000848152602001908152602001600020549050600081146138cb5760006001826137f591906146bc565b905060006001866000018054905061380d91906146bc565b905081811461387c57600086600001828154811061382e5761382d61468d565b5b90600052602060002001549050808760000184815481106138525761385161468d565b5b90600052602060002001819055508387600101600083815260200190815260200160002081905550505b856000018054806138905761388f61653e565b5b6001900381819060005260206000200160009055905585600101600086815260200190815260200160002060009055600193505050506138d1565b60009150505b92915050565b60608247101561391c576040517f08c379a0000000000000000000000000000000000000000000000000000000008152600401613913906165df565b60405180910390fd5b6000808673ffffffffffffffffffffffffffffffffffffffff168587604051613945919061663b565b60006040518083038185875af1925050503d8060008114613982576040519150601f19603f3d011682016040523d82523d6000602084013e613987565b606091505b5091509150613998878383876139a4565b92505050949350505050565b60608315613a065760008351036139fe576139be85613a19565b6139fd576040517f08c379a00000000000000000000000000000000000000000000000000000000081526004016139f49061669e565b60405180910390fd5b5b829050613a11565b613a108383613a3c565b5b949350505050565b6000808273ffffffffffffffffffffffffffffffffffffffff163b119050919050565b600082511115613a4f5781518083602001fd5b806040517f08c379a0000000000000000000000000000000000000000000000000000000008152600401613a8391906143e5565b60405180910390fd5b600081905092915050565b7f5745544800000000000000000000000000000000000000000000000000000000600082015250565b6000613acd600483613a8c565b9150613ad882613a97565b600482019050919050565b6000613aee82613ac0565b9150819050919050565b600082825260208201905092915050565b7f4e6f742070617961626c65206f6e207468697320636861696e00000000000000600082015250565b6000613b3f601983613af8565b9150613b4a82613b09565b602082019050919050565b60006020820190508181036000830152613b6e81613b32565b9050919050565b600081519050919050565b600082825260208201905092915050565b6000819050602082019050919050565b6000819050919050565b613bb481613ba1565b82525050565b6000613bc68383613bab565b60208301905092915050565b6000602082019050919050565b6000613bea82613b75565b613bf48185613b80565b9350613bff83613b91565b8060005b83811015613c30578151613c178882613bba565b9750613c2283613bd2565b925050600181019050613c03565b5085935050505092915050565b60006020820190508181036000830152613c578184613bdf565b905092915050565b6000604051905090565b600080fd5b600080fd5b60007fffffffff0000000000000000000000000000000000000000000000000000000082169050919050565b613ca881613c73565b8114613cb357600080fd5b50565b600081359050613cc581613c9f565b92915050565b600060208284031215613ce157613ce0613c69565b5b6000613cef84828501613cb6565b91505092915050565b60008115159050919050565b613d0d81613cf8565b82525050565b6000602082019050613d286000830184613d04565b92915050565b613d3781613ba1565b8114613d4257600080fd5b50565b600081359050613d5481613d2e565b92915050565b600080fd5b600080fd5b600080fd5b60008083601f840112613d7f57613d7e613d5a565b5b8235905067ffffffffffffffff811115613d9c57613d9b613d5f565b5b602083019150836001820283011115613db857613db7613d64565b5b9250929050565b600080600060408486031215613dd857613dd7613c69565b5b6000613de686828701613d45565b935050602084013567ffffffffffffffff811115613e0757613e06613c6e565b5b613e1386828701613d69565b92509250509250925092565b600073ffffffffffffffffffffffffffffffffffffffff82169050919050565b6000613e4a82613e1f565b9050919050565b613e5a81613e3f565b82525050565b6000602082019050613e756000830184613e51565b92915050565b60008083601f840112613e9157613e90613d5a565b5b8235905067ffffffffffffffff811115613eae57613ead613d5f565b5b602083019150836020820283011115613eca57613ec9613d64565b5b9250929050565b60008083601f840112613ee757613ee6613d5a565b5b8235905067ffffffffffffffff811115613f0457613f03613d5f565b5b602083019150836020820283011115613f2057613f1f613d64565b5b9250929050565b600081905082602060030282011115613f4357613f42613d64565b5b92915050565b613f5281613e3f565b8114613f5d57600080fd5b50565b600081359050613f6f81613f49565b92915050565b6000806000806000806000806000806101808b8d031215613f9957613f98613c69565b5b60008b013567ffffffffffffffff811115613fb757613fb6613c6e565b5b613fc38d828e01613e7b565b9a509a505060208b013567ffffffffffffffff811115613fe657613fe5613c6e565b5b613ff28d828e01613ed1565b985098505060406140058d828e01613f27565b96505060a06140168d828e01613f60565b95505060c06140278d828e01613f60565b94505060e06140388d828e01613f60565b93505061010061404a8d828e01613f60565b92505061012061405c8d828e01613f27565b9150509295989b9194979a5092959850565b60006020828403121561408457614083613c69565b5b600061409284828501613f60565b91505092915050565b6000819050919050565b6140ae8161409b565b81146140b957600080fd5b50565b6000813590506140cb816140a5565b92915050565b6000602082840312156140e7576140e6613c69565b5b60006140f5848285016140bc565b91505092915050565b6141078161409b565b82525050565b600060208201905061412260008301846140fe565b92915050565b60006020828403121561413e5761413d613c69565b5b600061414c84828501613d45565b91505092915050565b600081519050919050565b600082825260208201905092915050565b6000819050602082019050919050565b600081519050919050565b600082825260208201905092915050565b60005b838110156141bb5780820151818401526020810190506141a0565b60008484015250505050565b6000601f19601f8301169050919050565b60006141e382614181565b6141ed818561418c565b93506141fd81856020860161419d565b614206816141c7565b840191505092915050565b600061421d83836141d8565b905092915050565b6000602082019050919050565b600061423d82614155565b6142478185614160565b93508360208202850161425985614171565b8060005b8581101561429557848403895281516142768582614211565b945061428183614225565b925060208a0199505060018101905061425d565b50829750879550505050505092915050565b600060208201905081810360008301526142c18184614232565b905092915050565b600080604083850312156142e0576142df613c69565b5b60006142ee858286016140bc565b92505060206142ff85828601613f60565b9150509250929050565b60008083601f84011261431f5761431e613d5a565b5b8235905067ffffffffffffffff81111561433c5761433b613d5f565b5b60208301915083602082028301111561435857614357613d64565b5b9250929050565b6000806020838503121561437657614375613c69565b5b600083013567ffffffffffffffff81111561439457614393613c6e565b5b6143a085828601614309565b92509250509250929050565b60006143b782614181565b6143c18185613af8565b93506143d181856020860161419d565b6143da816141c7565b840191505092915050565b600060208201905081810360008301526143ff81846143ac565b905092915050565b600080fd5b7f4e487b7100000000000000000000000000000000000000000000000000000000600052604160045260246000fd5b614444826141c7565b810181811067ffffffffffffffff821117156144635761446261440c565b5b80604052505050565b6000614476613c5f565b9050614482828261443b565b919050565b600067ffffffffffffffff8211156144a2576144a161440c565b5b6144ab826141c7565b9050602081019050919050565b82818337600083830152505050565b60006144da6144d584614487565b61446c565b9050828152602081018484840111156144f6576144f5614407565b5b6145018482856144b8565b509392505050565b600082601f83011261451e5761451d613d5a565b5b813561452e8482602086016144c7565b91505092915050565b60006020828403121561454d5761454c613c69565b5b600082013567ffffffffffffffff81111561456b5761456a613c6e565b5b61457784828501614509565b91505092915050565b61458981613ba1565b82525050565b60006020820190506145a46000830184614580565b92915050565b600080604083850312156145c1576145c0613c69565b5b60006145cf85828601613f60565b92505060206145e085828601613d45565b9150509250929050565b6000806040838503121561460157614600613c69565b5b600061460f858286016140bc565b925050602061462085828601613d45565b9150509250929050565b7f4e487b7100000000000000000000000000000000000000000000000000000000600052601160045260246000fd5b600061466482613ba1565b915061466f83613ba1565b92508282019050808211156146875761468661462a565b5b92915050565b7f4e487b7100000000000000000000000000000000000000000000000000000000600052603260045260246000fd5b60006146c782613ba1565b91506146d283613ba1565b92508282039050818111156146ea576146e961462a565b5b92915050565b7f4e487b7100000000000000000000000000000000000000000000000000000000600052602260045260246000fd5b6000600282049050600182168061473757607f821691505b60208210810361474a576147496146f0565b5b50919050565b600061475b82613ba1565b91507fffffffffffffffffffffffffffffffffffffffffffffffffffffffffffffffff820361478d5761478c61462a565b5b600182019050919050565b60006147a48385613a8c565b93506147b18385846144b8565b82840190509392505050565b60006147ca828486614798565b91508190509392505050565b60006147e28385613af8565b93506147ef8385846144b8565b6147f8836141c7565b840190509392505050565b60006080820190506148186000830188613e51565b818103602083015261482b8186886147d6565b905061483a6040830185614580565b6148476060830184613e51565b9695505050505050565b7f496e697469616c697a61626c653a20636f6e747261637420697320616c72656160008201527f647920696e697469616c697a6564000000000000000000000000000000000000602082015250565b60006148ad602e83613af8565b91506148b882614851565b604082019050919050565b600060208201905081810360008301526148dc816148a0565b9050919050565b7f41646d696e416464720000000000000000000000000000000000000000000000600082015250565b6000614919600983613af8565b9150614924826148e3565b602082019050919050565b600060208201905081810360008301526149488161490c565b9050919050565b7f5265736375654164647200000000000000000000000000000000000000000000600082015250565b6000614985600a83613af8565b91506149908261494f565b602082019050919050565b600060208201905081810360008301526149b481614978565b9050919050565b7f5769746864726177416464720000000000000000000000000000000000000000600082015250565b60006149f1600c83613af8565b91506149fc826149bb565b602082019050919050565b60006020820190508181036000830152614a20816149e4565b9050919050565b7f46697273744c656e6465724c6971416464720000000000000000000000000000600082015250565b6000614a5d601283613af8565b9150614a6882614a27565b602082019050919050565b60006020820190508181036000830152614a8c81614a50565b9050919050565b7f5365636f6e644c656e6465724c69714164647200000000000000000000000000600082015250565b6000614ac9601383613af8565b9150614ad482614a93565b602082019050919050565b60006020820190508181036000830152614af881614abc565b9050919050565b7f546f6b656e206e616d6520616e642061646472657373206172726179206c656e60008201527f67746873206d757374206d617463680000000000000000000000000000000000602082015250565b6000614b5b602f83613af8565b9150614b6682614aff565b604082019050919050565b60006020820190508181036000830152614b8a81614b4e565b9050919050565b600080fd5b600080fd5b600080fd5b60008083356001602003843603038112614bbd57614bbc614b91565b5b80840192508235915067ffffffffffffffff821115614bdf57614bde614b96565b5b602083019250600182023603831315614bfb57614bfa614b9b565b5b509250929050565b600082905092915050565b60008190508160005260206000209050919050565b60006020601f8301049050919050565b600082821b905092915050565b600060088302614c707fffffffffffffffffffffffffffffffffffffffffffffffffffffffffffffffff82614c33565b614c7a8683614c33565b95508019841693508086168417925050509392505050565b6000819050919050565b6000614cb7614cb2614cad84613ba1565b614c92565b613ba1565b9050919050565b6000819050919050565b614cd183614c9c565b614ce5614cdd82614cbe565b848454614c40565b825550505050565b600090565b614cfa614ced565b614d05818484614cc8565b505050565b5b81811015614d2957614d1e600082614cf2565b600181019050614d0b565b5050565b601f821115614d6e57614d3f81614c0e565b614d4884614c23565b81016020851015614d57578190505b614d6b614d6385614c23565b830182614d0a565b50505b505050565b600082821c905092915050565b6000614d9160001984600802614d73565b1980831691505092915050565b6000614daa8383614d80565b9150826002028217905092915050565b614dc48383614c03565b67ffffffffffffffff811115614ddd57614ddc61440c565b5b614de7825461471f565b614df2828285614d2d565b6000601f831160018114614e215760008415614e0f578287013590505b614e198582614d9e565b865550614e81565b601f198416614e2f86614c0e565b60005b82811015614e5757848901358255600182019150602085019450602081019050614e32565b86831015614e745784890135614e70601f891682614d80565b8355505b6001600288020188555050505b50505050505050565b60008154614e978161471f565b614ea18186613a8c565b94506001821660008114614ebc5760018114614ed157614f04565b60ff1983168652811515820286019350614f04565b614eda85614c0e565b60005b83811015614efc57815481890152600182019150602081019050614edd565b838801955050505b50505092915050565b6000614f198284614e8a565b915081905092915050565b7f726f757465720000000000000000000000000000000000000000000000000000600082015250565b6000614f5a600683613a8c565b9150614f6582614f24565b600682019050919050565b6000614f7b82614f4d565b9150819050919050565b7f71756f7465720000000000000000000000000000000000000000000000000000600082015250565b6000614fbb600683613a8c565b9150614fc682614f85565b600682019050919050565b6000614fdc82614fae565b9150819050919050565b7f7377617070657200000000000000000000000000000000000000000000000000600082015250565b600061501c600783613a8c565b915061502782614fe6565b600782019050919050565b600061503d8261500f565b9150819050919050565b6000819050919050565b600061505d838561418c565b935061506a8385846144b8565b615073836141c7565b840190509392505050565b600061508b848484615051565b90509392505050565b600080fd5b600080fd5b600080fd5b600080833560016020038436030381126150c0576150bf61509e565b5b83810192508235915060208301925067ffffffffffffffff8211156150e8576150e7615094565b5b6001820236038313156150fe576150fd615099565b5b509250929050565b6000602082019050919050565b600061511f8385614160565b93508360208402850161513184615047565b8060005b8781101561517757848403895261514c82846150a3565b61515786828461507e565b955061516284615106565b935060208b019a505050600181019050615135565b50829750879450505050509392505050565b600082825260208201905092915050565b6000819050919050565b6151ad81613e3f565b82525050565b60006151bf83836151a4565b60208301905092915050565b60006151da6020840184613f60565b905092915050565b6000602082019050919050565b60006151fb8385615189565b93506152068261519a565b8060005b8581101561523f5761521c82846151cb565b61522688826151b3565b9750615231836151e2565b92505060018101905061520a565b5085925050509392505050565b600060039050919050565b600081905092915050565b6000819050919050565b6000602082019050919050565b6152828161524c565b61528c8184615257565b925061529782615262565b8060005b838110156152d0576152ad82846151cb565b6152b787826151b3565b96506152c28361526c565b92505060018101905061529b565b505050505050565b600060039050919050565b600081905092915050565b6000819050919050565b600081546153058161471f565b61530f818661418c565b9450600182166000811461532a576001811461534057615373565b60ff198316865281151560200286019350615373565b61534985614c0e565b60005b8381101561536b5781548189015260018201915060208101905061534c565b808801955050505b50505092915050565b600061538883836152f8565b905092915050565b6000600182019050919050565b60006153a8826152d8565b6153b281856152e3565b9350836020820285016153c4856152ee565b8060005b858110156153ff578484038952816153e0858261537c565b94506153eb83615390565b925060208a019950506001810190506153c8565b50829750879550505050505092915050565b60006101c082019050615427600083018f613e51565b818103602083015261543a818d8f615113565b9050818103604083015261544f818b8d6151ef565b905061545e606083018a615279565b61546b60c0830189613e51565b61547860e0830188613e51565b615486610100830187613e51565b615494610120830186613e51565b8181036101408301526154a7818561539d565b90506154b7610160830184615279565b9d9c50505050505050505050505050565b6000819050919050565b600060ff82169050919050565b60006154fa6154f56154f0846154c8565b614c92565b6154d2565b9050919050565b61550a816154df565b82525050565b60006020820190506155256000830184615501565b92915050565b7f5769746864726177304164647200000000000000000000000000000000000000600082015250565b6000615561600d83613af8565b915061556c8261552b565b602082019050919050565b6000602082019050818103600083015261559081615554565b9050919050565b7f5742544300000000000000000000000000000000000000000000000000000000600082015250565b60006155cd600483613a8c565b91506155d882615597565b600482019050919050565b60006155ee826155c0565b9150819050919050565b60008235600160600383360303811261561457615613614b91565b5b80830191505092915050565b60008235600160a00383360303811261563c5761563b614b91565b5b80830191505092915050565b7f45727220726563697069656e7400000000000000000000000000000000000000600082015250565b600061567e600d83613af8565b915061568982615648565b602082019050919050565b600060208201905081810360008301526156ad81615671565b9050919050565b7f45727220536c6970700000000000000000000000000000000000000000000000600082015250565b60006156ea600983613af8565b91506156f5826156b4565b602082019050919050565b60006020820190508181036000830152615719816156dd565b9050919050565b7f45727220546f6b656e4f75740000000000000000000000000000000000000000600082015250565b6000615756600c83613af8565b915061576182615720565b602082019050919050565b6000602082019050818103600083015261578581615749565b9050919050565b7f45727220546f6b656e496e000000000000000000000000000000000000000000600082015250565b60006157c2600b83613af8565b91506157cd8261578c565b602082019050919050565b600060208201905081810360008301526157f1816157b5565b9050919050565b60008151905061580781613d2e565b92915050565b60006020828403121561582357615822613c69565b5b6000615831848285016157f8565b91505092915050565b7f45727220416d6f756e74496e0000000000000000000000000000000000000000600082015250565b6000615870600c83613af8565b915061587b8261583a565b602082019050919050565b6000602082019050818103600083015261589f81615863565b9050919050565b60007fff0000000000000000000000000000000000000000000000000000000000000082169050919050565b6000819050919050565b6158ed6158e8826158a6565b6158d2565b82525050565b60006158ff82846158dc565b60018201915081905092915050565b6000808335600160200384360303811261592b5761592a614b91565b5b80840192508235915067ffffffffffffffff82111561594d5761594c614b96565b5b60208301925060018202360383131561596957615968614b9b565b5b509250929050565b600082825260208201905092915050565b600061598e8385615971565b935061599b8385846144b8565b6159a4836141c7565b840190509392505050565b600060a0820190506159c46000830189613e51565b6159d16020830188614580565b6159de6040830187614580565b81810360608301526159f1818587615982565b9050615a006080830184613d04565b979650505050505050565b600081519050919050565b6000615a2182615a0b565b615a2b8185615971565b9350615a3b81856020860161419d565b615a44816141c7565b840191505092915050565b600081519050919050565b600082825260208201905092915050565b6000819050602082019050919050565b600082825260208201905092915050565b6000615a9782615a0b565b615aa18185615a7b565b9350615ab181856020860161419d565b615aba816141c7565b840191505092915050565b6000615ad18383615a8c565b905092915050565b6000602082019050919050565b6000615af182615a4f565b615afb8185615a5a565b935083602082028501615b0d85615a6b565b8060005b85811015615b495784840389528151615b2a8582615ac5565b9450615b3583615ad9565b925060208a01995050600181019050615b11565b50829750879550505050505092915050565b60006060820190508181036000830152615b758186615a16565b90508181036020830152615b898185615ae6565b9050615b986040830184614580565b949350505050565b60008160e01c9050919050565b600060033d1115615bcc5760046000803e615bc9600051615ba0565b90505b90565b600060443d10615c5c57615be1613c5f565b60043d036004823e80513d602482011167ffffffffffffffff82111715615c09575050615c5c565b808201805167ffffffffffffffff811115615c275750505050615c5c565b80602083010160043d038501811115615c44575050505050615c5c565b615c538260200185018661443b565b82955050505050505b90565b6000604082019050615c746000830185613e51565b8181036020830152615c8681846143ac565b90509392505050565b6000608082019050615ca46000830187613e51565b615cb16020830186613e51565b615cbe6040830185614580565b615ccb6060830184614580565b95945050505050565b6000615cdf82614181565b615ce98185613a8c565b9350615cf981856020860161419d565b80840191505092915050565b6000615d118284615cd4565b915081905092915050565b7f416363657373436f6e74726f6c3a2063616e206f6e6c792072656e6f756e636560008201527f20726f6c657320666f722073656c660000000000000000000000000000000000602082015250565b6000615d78602f83613af8565b9150615d8382615d1c565b604082019050919050565b60006020820190508181036000830152615da781615d6b565b9050919050565b7f496e76616c696420746f6b656e496e0000000000000000000000000000000000600082015250565b6000615de4600f83613af8565b9150615def82615dae565b602082019050919050565b60006020820190508181036000830152615e1381615dd7565b9050919050565b60006040820190508181036000830152615e348185615a16565b9050615e436020830184614580565b9392505050565b600067ffffffffffffffff821115615e6557615e6461440c565b5b602082029050602081019050919050565b615e7f81613e1f565b8114615e8a57600080fd5b50565b600081519050615e9c81615e76565b92915050565b6000615eb5615eb084615e4a565b61446c565b90508083825260208201905060208402830185811115615ed857615ed7613d64565b5b835b81811015615f015780615eed8882615e8d565b845260208401935050602081019050615eda565b5050509392505050565b600082601f830112615f2057615f1f613d5a565b5b8151615f30848260208601615ea2565b91505092915050565b600067ffffffffffffffff821115615f5457615f5361440c565b5b602082029050602081019050919050565b600063ffffffff82169050919050565b615f7e81615f65565b8114615f8957600080fd5b50565b600081519050615f9b81615f75565b92915050565b6000615fb4615faf84615f39565b61446c565b90508083825260208201905060208402830185811115615fd757615fd6613d64565b5b835b818110156160005780615fec8882615f8c565b845260208401935050602081019050615fd9565b5050509392505050565b600082601f83011261601f5761601e613d5a565b5b815161602f848260208601615fa1565b91505092915050565b6000806000806080858703121561605257616051613c69565b5b6000616060878288016157f8565b945050602085015167ffffffffffffffff81111561608157616080613c6e565b5b61608d87828801615f0b565b935050604085015167ffffffffffffffff8111156160ae576160ad613c6e565b5b6160ba8782880161600a565b92505060606160cb878288016157f8565b91505092959194509250565b7f5265736375653041646472000000000000000000000000000000000000000000600082015250565b600061610d600b83613af8565b9150616118826160d7565b602082019050919050565b6000602082019050818103600083015261613c81616100565b9050919050565b60006060820190506161586000830187613e51565b818103602083015261616b8185876147d6565b905061617a6040830184614580565b95945050505050565b7f5265656e7472616e637947756172643a207265656e7472616e742063616c6c00600082015250565b60006161b9601f83613af8565b91506161c482616183565b602082019050919050565b600060208201905081810360008301526161e8816161ac565b9050919050565b60006040820190506162046000830185613e51565b6162116020830184614580565b9392505050565b7f496e697469616c697a61626c653a20636f6e7472616374206973206e6f74206960008201527f6e697469616c697a696e67000000000000000000000000000000000000000000602082015250565b6000616274602b83613af8565b915061627f82616218565b604082019050919050565b600060208201905081810360008301526162a381616267565b9050919050565b7f416363657373436f6e74726f6c3a206163636f756e7420000000000000000000600082015250565b60006162e0601783613a8c565b91506162eb826162aa565b601782019050919050565b7f206973206d697373696e6720726f6c6520000000000000000000000000000000600082015250565b600061632c601183613a8c565b9150616337826162f6565b601182019050919050565b600061634d826162d3565b91506163598285615cd4565b91506163648261631f565b91506163708284615cd4565b91508190509392505050565b61638581613cf8565b811461639057600080fd5b50565b6000815190506163a28161637c565b92915050565b6000602082840312156163be576163bd613c69565b5b60006163cc84828501616393565b91505092915050565b7f5361666545524332303a204552433230206f7065726174696f6e20646964206e60008201527f6f74207375636365656400000000000000000000000000000000000000000000602082015250565b6000616431602a83613af8565b915061643c826163d5565b604082019050919050565b6000602082019050818103600083015261646081616424565b9050919050565b600061647282613ba1565b915061647d83613ba1565b925082820261648b81613ba1565b915082820484148315176164a2576164a161462a565b5b5092915050565b60006164b482613ba1565b9150600082036164c7576164c661462a565b5b600182039050919050565b7f537472696e67733a20686578206c656e67746820696e73756666696369656e74600082015250565b6000616508602083613af8565b9150616513826164d2565b602082019050919050565b60006020820190508181036000830152616537816164fb565b9050919050565b7f4e487b7100000000000000000000000000000000000000000000000000000000600052603160045260246000fd5b7f416464726573733a20696e73756666696369656e742062616c616e636520666f60008201527f722063616c6c0000000000000000000000000000000000000000000000000000602082015250565b60006165c9602683613af8565b91506165d48261656d565b604082019050919050565b600060208201905081810360008301526165f8816165bc565b9050919050565b600081905092915050565b600061661582615a0b565b61661f81856165ff565b935061662f81856020860161419d565b80840191505092915050565b6000616647828461660a565b915081905092915050565b7f416464726573733a2063616c6c20746f206e6f6e2d636f6e7472616374000000600082015250565b6000616688601d83613af8565b915061669382616652565b602082019050919050565b600060208201905081810360008301526166b78161667b565b905091905056fe7ceb23fd6bc0add59e62ac25578270cff1b9f6190001f43c499c542cef5e3811e1192ce70d8cc03d5c33591bfd67037b42cf73acf2047067bd4f2c47d9bfd60001f47ceb23fd6bc0add59e62ac25578270cff1b9f6190001f43c499c542cef5e3811e1192ce70d8cc03d5c3359a2646970667358221220c9aefd0d8a900a1b260614db93c91993cfc93b1107ab92805c75b98c36393eb164736f6c63430008120033","opcodes":"PUSH1 0x80 PUSH1 0x40 MSTORE PUSH1 0x40 MLOAD DUP1 PUSH1 0x60 ADD PUSH1 0x40 MSTORE DUP1 PUSH1 0x40 MLOAD DUP1 PUSH1 0x40 ADD PUSH1 0x40 MSTORE DUP1 PUSH1 0x6 DUP2 MSTORE PUSH1 0x20 ADD PUSH32 0x726F757465720000000000000000000000000000000000000000000000000000 DUP2 MSTORE POP DUP2 MSTORE PUSH1 0x20 ADD PUSH1 0x40 MLOAD DUP1 PUSH1 0x40 ADD PUSH1 0x40 MSTORE DUP1 PUSH1 0x7 DUP2 MSTORE PUSH1 0x20 ADD PUSH32 0x7377617070657200000000000000000000000000000000000000000000000000 DUP2 MSTORE POP DUP2 MSTORE PUSH1 0x20 ADD PUSH1 0x40 MLOAD DUP1 PUSH1 0x40 ADD PUSH1 0x40 MSTORE DUP1 PUSH1 0x6 DUP2 MSTORE PUSH1 0x20 ADD PUSH32 0x71756F7465720000000000000000000000000000000000000000000000000000 DUP2 MSTORE POP DUP2 MSTORE POP PUSH2 0x102 SWAP1 PUSH1 0x3 PUSH3 0xD1 SWAP3 SWAP2 SWAP1 PUSH3 0x1BC JUMP JUMPDEST POP CALLVALUE DUP1 ISZERO PUSH3 0xDF JUMPI PUSH1 0x0 DUP1 REVERT JUMPDEST POP PUSH3 0xF0 PUSH3 0xF6 PUSH1 0x20 SHL PUSH1 0x20 SHR JUMP JUMPDEST PUSH3 0x6E1 JUMP JUMPDEST PUSH1 0x0 PUSH1 0x1 SWAP1 SLOAD SWAP1 PUSH2 0x100 EXP SWAP1 DIV PUSH1 0xFF AND ISZERO PUSH3 0x149 JUMPI PUSH1 0x40 MLOAD PUSH32 0x8C379A000000000000000000000000000000000000000000000000000000000 DUP2 MSTORE PUSH1 0x4 ADD PUSH3 0x140 SWAP1 PUSH3 0x323 JUMP JUMPDEST PUSH1 0x40 MLOAD DUP1 SWAP2 SUB SWAP1 REVERT JUMPDEST PUSH1 0xFF DUP1 AND PUSH1 0x0 DUP1 SLOAD SWAP1 PUSH2 0x100 EXP SWAP1 DIV PUSH1 0xFF AND PUSH1 0xFF AND EQ PUSH3 0x1BA JUMPI PUSH1 0xFF PUSH1 0x0 DUP1 PUSH2 0x100 EXP DUP2 SLOAD DUP2 PUSH1 0xFF MUL NOT AND SWAP1 DUP4 PUSH1 0xFF AND MUL OR SWAP1 SSTORE POP PUSH32 0x7F26B83FF96E1F2B6A682F133852F6798A09C465DA95921460CEFB3847402498 PUSH1 0xFF PUSH1 0x40 MLOAD PUSH3 0x1B1 SWAP2 SWAP1 PUSH3 0x363 JUMP JUMPDEST PUSH1 0x40 MLOAD DUP1 SWAP2 SUB SWAP1 LOG1 JUMPDEST JUMP JUMPDEST DUP3 PUSH1 0x3 DUP2 ADD SWAP3 DUP3 ISZERO PUSH3 0x1FC JUMPI SWAP2 PUSH1 0x20 MUL DUP3 ADD JUMPDEST DUP3 DUP2 GT ISZERO PUSH3 0x1FB JUMPI DUP3 MLOAD DUP3 SWAP1 DUP2 PUSH3 0x1EA SWAP2 SWAP1 PUSH3 0x5FA JUMP JUMPDEST POP SWAP2 PUSH1 0x20 ADD SWAP2 SWAP1 PUSH1 0x1 ADD SWAP1 PUSH3 0x1D0 JUMP JUMPDEST JUMPDEST POP SWAP1 POP PUSH3 0x20B SWAP2 SWAP1 PUSH3 0x20F JUMP JUMPDEST POP SWAP1 JUMP JUMPDEST JUMPDEST DUP1 DUP3 GT ISZERO PUSH3 0x233 JUMPI PUSH1 0x0 DUP2 DUP2 PUSH3 0x229 SWAP2 SWAP1 PUSH3 0x237 JUMP JUMPDEST POP PUSH1 0x1 ADD PUSH3 0x210 JUMP JUMPDEST POP SWAP1 JUMP JUMPDEST POP DUP1 SLOAD PUSH3 0x245 SWAP1 PUSH3 0x3E9 JUMP JUMPDEST PUSH1 0x0 DUP3 SSTORE DUP1 PUSH1 0x1F LT PUSH3 0x259 JUMPI POP PUSH3 0x27A JUMP JUMPDEST PUSH1 0x1F ADD PUSH1 0x20 SWAP1 DIV SWAP1 PUSH1 0x0 MSTORE PUSH1 0x20 PUSH1 0x0 KECCAK256 SWAP1 DUP2 ADD SWAP1 PUSH3 0x279 SWAP2 SWAP1 PUSH3 0x27D JUMP JUMPDEST JUMPDEST POP JUMP JUMPDEST JUMPDEST DUP1 DUP3 GT ISZERO PUSH3 0x298 JUMPI PUSH1 0x0 DUP2 PUSH1 0x0 SWAP1 SSTORE POP PUSH1 0x1 ADD PUSH3 0x27E JUMP JUMPDEST POP SWAP1 JUMP JUMPDEST PUSH1 0x0 DUP3 DUP3 MSTORE PUSH1 0x20 DUP3 ADD SWAP1 POP SWAP3 SWAP2 POP POP JUMP JUMPDEST PUSH32 0x496E697469616C697A61626C653A20636F6E747261637420697320696E697469 PUSH1 0x0 DUP3 ADD MSTORE PUSH32 0x616C697A696E6700000000000000000000000000000000000000000000000000 PUSH1 0x20 DUP3 ADD MSTORE POP JUMP JUMPDEST PUSH1 0x0 PUSH3 0x30B PUSH1 0x27 DUP4 PUSH3 0x29C JUMP JUMPDEST SWAP2 POP PUSH3 0x318 DUP3 PUSH3 0x2AD JUMP JUMPDEST PUSH1 0x40 DUP3 ADD SWAP1 POP SWAP2 SWAP1 POP JUMP JUMPDEST PUSH1 0x0 PUSH1 0x20 DUP3 ADD SWAP1 POP DUP2 DUP2 SUB PUSH1 0x0 DUP4 ADD MSTORE PUSH3 0x33E DUP2 PUSH3 0x2FC JUMP JUMPDEST SWAP1 POP SWAP2 SWAP1 POP JUMP JUMPDEST PUSH1 0x0 PUSH1 0xFF DUP3 AND SWAP1 POP SWAP2 SWAP1 POP JUMP JUMPDEST PUSH3 0x35D DUP2 PUSH3 0x345 JUMP JUMPDEST DUP3 MSTORE POP POP JUMP JUMPDEST PUSH1 0x0 PUSH1 0x20 DUP3 ADD SWAP1 POP PUSH3 0x37A PUSH1 0x0 DUP4 ADD DUP5 PUSH3 0x352 JUMP JUMPDEST SWAP3 SWAP2 POP POP JUMP JUMPDEST PUSH1 0x0 DUP2 MLOAD SWAP1 POP SWAP2 SWAP1 POP JUMP JUMPDEST PUSH32 0x4E487B7100000000000000000000000000000000000000000000000000000000 PUSH1 0x0 MSTORE PUSH1 0x41 PUSH1 0x4 MSTORE PUSH1 0x24 PUSH1 0x0 REVERT JUMPDEST PUSH32 0x4E487B7100000000000000000000000000000000000000000000000000000000 PUSH1 0x0 MSTORE PUSH1 0x22 PUSH1 0x4 MSTORE PUSH1 0x24 PUSH1 0x0 REVERT JUMPDEST PUSH1 0x0 PUSH1 0x2 DUP3 DIV SWAP1 POP PUSH1 0x1 DUP3 AND DUP1 PUSH3 0x402 JUMPI PUSH1 0x7F DUP3 AND SWAP2 POP JUMPDEST PUSH1 0x20 DUP3 LT DUP2 SUB PUSH3 0x418 JUMPI PUSH3 0x417 PUSH3 0x3BA JUMP JUMPDEST JUMPDEST POP SWAP2 SWAP1 POP JUMP JUMPDEST PUSH1 0x0 DUP2 SWAP1 POP DUP2 PUSH1 0x0 MSTORE PUSH1 0x20 PUSH1 0x0 KECCAK256 SWAP1 POP SWAP2 SWAP1 POP JUMP JUMPDEST PUSH1 0x0 PUSH1 0x20 PUSH1 0x1F DUP4 ADD DIV SWAP1 POP SWAP2 SWAP1 POP JUMP JUMPDEST PUSH1 0x0 DUP3 DUP3 SHL SWAP1 POP SWAP3 SWAP2 POP POP JUMP JUMPDEST PUSH1 0x0 PUSH1 0x8 DUP4 MUL PUSH3 0x482 PUSH32 0xFFFFFFFFFFFFFFFFFFFFFFFFFFFFFFFFFFFFFFFFFFFFFFFFFFFFFFFFFFFFFFFF DUP3 PUSH3 0x443 JUMP JUMPDEST PUSH3 0x48E DUP7 DUP4 PUSH3 0x443 JUMP JUMPDEST SWAP6 POP DUP1 NOT DUP5 AND SWAP4 POP DUP1 DUP7 AND DUP5 OR SWAP3 POP POP POP SWAP4 SWAP3 POP POP POP JUMP JUMPDEST PUSH1 0x0 DUP2 SWAP1 POP SWAP2 SWAP1 POP JUMP JUMPDEST PUSH1 0x0 DUP2 SWAP1 POP SWAP2 SWAP1 POP JUMP JUMPDEST PUSH1 0x0 PUSH3 0x4DB PUSH3 0x4D5 PUSH3 0x4CF DUP5 PUSH3 0x4A6 JUMP JUMPDEST PUSH3 0x4B0 JUMP JUMPDEST PUSH3 0x4A6 JUMP JUMPDEST SWAP1 POP SWAP2 SWAP1 POP JUMP JUMPDEST PUSH1 0x0 DUP2 SWAP1 POP SWAP2 SWAP1 POP JUMP JUMPDEST PUSH3 0x4F7 DUP4 PUSH3 0x4BA JUMP JUMPDEST PUSH3 0x50F PUSH3 0x506 DUP3 PUSH3 0x4E2 JUMP JUMPDEST DUP5 DUP5 SLOAD PUSH3 0x450 JUMP JUMPDEST DUP3 SSTORE POP POP POP POP JUMP JUMPDEST PUSH1 0x0 SWAP1 JUMP JUMPDEST PUSH3 0x526 PUSH3 0x517 JUMP JUMPDEST PUSH3 0x533 DUP2 DUP5 DUP5 PUSH3 0x4EC JUMP JUMPDEST POP POP POP JUMP JUMPDEST JUMPDEST DUP2 DUP2 LT ISZERO PUSH3 0x55B JUMPI PUSH3 0x54F PUSH1 0x0 DUP3 PUSH3 0x51C JUMP JUMPDEST PUSH1 0x1 DUP2 ADD SWAP1 POP PUSH3 0x539 JUMP JUMPDEST POP POP JUMP JUMPDEST PUSH1 0x1F DUP3 GT ISZERO PUSH3 0x5AA JUMPI PUSH3 0x574 DUP2 PUSH3 0x41E JUMP JUMPDEST PUSH3 0x57F DUP5 PUSH3 0x433 JUMP JUMPDEST DUP2 ADD PUSH1 0x20 DUP6 LT ISZERO PUSH3 0x58F JUMPI DUP2 SWAP1 POP JUMPDEST PUSH3 0x5A7 PUSH3 0x59E DUP6 PUSH3 0x433 JUMP JUMPDEST DUP4 ADD DUP3 PUSH3 0x538 JUMP JUMPDEST POP POP JUMPDEST POP POP POP JUMP JUMPDEST PUSH1 0x0 DUP3 DUP3 SHR SWAP1 POP SWAP3 SWAP2 POP POP JUMP JUMPDEST PUSH1 0x0 PUSH3 0x5CF PUSH1 0x0 NOT DUP5 PUSH1 0x8 MUL PUSH3 0x5AF JUMP JUMPDEST NOT DUP1 DUP4 AND SWAP2 POP POP SWAP3 SWAP2 POP POP JUMP JUMPDEST PUSH1 0x0 PUSH3 0x5EA DUP4 DUP4 PUSH3 0x5BC JUMP JUMPDEST SWAP2 POP DUP3 PUSH1 0x2 MUL DUP3 OR SWAP1 POP SWAP3 SWAP2 POP POP JUMP JUMPDEST PUSH3 0x605 DUP3 PUSH3 0x380 JUMP JUMPDEST PUSH8 0xFFFFFFFFFFFFFFFF DUP2 GT ISZERO PUSH3 0x621 JUMPI PUSH3 0x620 PUSH3 0x38B JUMP JUMPDEST JUMPDEST PUSH3 0x62D DUP3 SLOAD PUSH3 0x3E9 JUMP JUMPDEST PUSH3 0x63A DUP3 DUP3 DUP6 PUSH3 0x55F JUMP JUMPDEST PUSH1 0x0 PUSH1 0x20 SWAP1 POP PUSH1 0x1F DUP4 GT PUSH1 0x1 DUP2 EQ PUSH3 0x672 JUMPI PUSH1 0x0 DUP5 ISZERO PUSH3 0x65D JUMPI DUP3 DUP8 ADD MLOAD SWAP1 POP JUMPDEST PUSH3 0x669 DUP6 DUP3 PUSH3 0x5DC JUMP JUMPDEST DUP7 SSTORE POP PUSH3 0x6D9 JUMP JUMPDEST PUSH1 0x1F NOT DUP5 AND PUSH3 0x682 DUP7 PUSH3 0x41E JUMP JUMPDEST PUSH1 0x0 JUMPDEST DUP3 DUP2 LT ISZERO PUSH3 0x6AC JUMPI DUP5 DUP10 ADD MLOAD DUP3 SSTORE PUSH1 0x1 DUP3 ADD SWAP2 POP PUSH1 0x20 DUP6 ADD SWAP5 POP PUSH1 0x20 DUP2 ADD SWAP1 POP PUSH3 0x685 JUMP JUMPDEST DUP7 DUP4 LT ISZERO PUSH3 0x6CC JUMPI DUP5 DUP10 ADD MLOAD PUSH3 0x6C8 PUSH1 0x1F DUP10 AND DUP3 PUSH3 0x5BC JUMP JUMPDEST DUP4 SSTORE POP JUMPDEST PUSH1 0x1 PUSH1 0x2 DUP9 MUL ADD DUP9 SSTORE POP POP POP JUMPDEST POP POP POP POP POP POP JUMP JUMPDEST PUSH2 0x6761 DUP1 PUSH3 0x6F1 PUSH1 0x0 CODECOPY PUSH1 0x0 RETURN INVALID PUSH1 0x80 PUSH1 0x40 MSTORE PUSH1 0x4 CALLDATASIZE LT PUSH2 0x1E6 JUMPI PUSH1 0x0 CALLDATALOAD PUSH1 0xE0 SHR DUP1 PUSH4 0x55452D04 GT PUSH2 0x102 JUMPI DUP1 PUSH4 0xCA15C873 GT PUSH2 0x95 JUMPI DUP1 PUSH4 0xDE6BD687 GT PUSH2 0x64 JUMPI DUP1 PUSH4 0xDE6BD687 EQ PUSH2 0x82D JUMPI DUP1 PUSH4 0xDF668ECA EQ PUSH2 0x86A JUMPI DUP1 PUSH4 0xE5DF800A EQ PUSH2 0x895 JUMPI DUP1 PUSH4 0xEE67CC2A EQ PUSH2 0x8C0 JUMPI PUSH2 0x2D2 JUMP JUMPDEST DUP1 PUSH4 0xCA15C873 EQ PUSH2 0x775 JUMPI DUP1 PUSH4 0xD00411C9 EQ PUSH2 0x7B2 JUMPI DUP1 PUSH4 0xD547741F EQ PUSH2 0x7DB JUMPI DUP1 PUSH4 0xDC048CF2 EQ PUSH2 0x804 JUMPI PUSH2 0x2D2 JUMP JUMPDEST DUP1 PUSH4 0x9010D07C GT PUSH2 0xD1 JUMPI DUP1 PUSH4 0x9010D07C EQ PUSH2 0x6A5 JUMPI DUP1 PUSH4 0x91D14854 EQ PUSH2 0x6E2 JUMPI DUP1 PUSH4 0xA217FDDF EQ PUSH2 0x71F JUMPI DUP1 PUSH4 0xB14EC101 EQ PUSH2 0x74A JUMPI PUSH2 0x2D2 JUMP JUMPDEST DUP1 PUSH4 0x55452D04 EQ PUSH2 0x5D5 JUMPI DUP1 PUSH4 0x581CECA8 EQ PUSH2 0x612 JUMPI DUP1 PUSH4 0x71372544 EQ PUSH2 0x64F JUMPI DUP1 PUSH4 0x83D33319 EQ PUSH2 0x67A JUMPI PUSH2 0x2D2 JUMP JUMPDEST DUP1 PUSH4 0x2AD753E4 GT PUSH2 0x17A JUMPI DUP1 PUSH4 0x32CC815D GT PUSH2 0x149 JUMPI DUP1 PUSH4 0x32CC815D EQ PUSH2 0x519 JUMPI DUP1 PUSH4 0x35EE5F87 EQ PUSH2 0x544 JUMPI DUP1 PUSH4 0x36568ABE EQ PUSH2 0x581 JUMPI DUP1 PUSH4 0x54FD4D50 EQ PUSH2 0x5AA JUMPI PUSH2 0x2D2 JUMP JUMPDEST DUP1 PUSH4 0x2AD753E4 EQ PUSH2 0x45F JUMPI DUP1 PUSH4 0x2F2FF15D EQ PUSH2 0x48A JUMPI DUP1 PUSH4 0x2FFE9942 EQ PUSH2 0x4B3 JUMPI DUP1 PUSH4 0x310495AB EQ PUSH2 0x4DC JUMPI PUSH2 0x2D2 JUMP JUMPDEST DUP1 PUSH4 0x1E08DEC9 GT PUSH2 0x1B6 JUMPI DUP1 PUSH4 0x1E08DEC9 EQ PUSH2 0x393 JUMPI DUP1 PUSH4 0x212F6039 EQ PUSH2 0x3BC JUMPI DUP1 PUSH4 0x248A9CA3 EQ PUSH2 0x3E5 JUMPI DUP1 PUSH4 0x25ACC985 EQ PUSH2 0x422 JUMPI PUSH2 0x2D2 JUMP JUMPDEST DUP1 PUSH3 0x113E08 EQ PUSH2 0x2D7 JUMPI DUP1 PUSH4 0x1FFC9A7 EQ PUSH2 0x302 JUMPI DUP1 PUSH4 0x828C404 EQ PUSH2 0x33F JUMPI DUP1 PUSH4 0x15AC7358 EQ PUSH2 0x368 JUMPI PUSH2 0x2D2 JUMP JUMPDEST CALLDATASIZE PUSH2 0x2D2 JUMPI PUSH1 0x1E CHAINID SUB PUSH2 0x295 JUMPI PUSH1 0xFE PUSH1 0x40 MLOAD PUSH2 0x201 SWAP1 PUSH2 0x3AE3 JUMP JUMPDEST SWAP1 DUP2 MSTORE PUSH1 0x20 ADD PUSH1 0x40 MLOAD DUP1 SWAP2 SUB SWAP1 KECCAK256 PUSH1 0x0 SWAP1 SLOAD SWAP1 PUSH2 0x100 EXP SWAP1 DIV PUSH20 0xFFFFFFFFFFFFFFFFFFFFFFFFFFFFFFFFFFFFFFFF AND PUSH20 0xFFFFFFFFFFFFFFFFFFFFFFFFFFFFFFFFFFFFFFFF AND PUSH4 0xD0E30DB0 CALLVALUE PUSH1 0x40 MLOAD DUP3 PUSH4 0xFFFFFFFF AND PUSH1 0xE0 SHL DUP2 MSTORE PUSH1 0x4 ADD PUSH1 0x0 PUSH1 0x40 MLOAD DUP1 DUP4 SUB DUP2 DUP6 DUP9 DUP1 EXTCODESIZE ISZERO DUP1 ISZERO PUSH2 0x277 JUMPI PUSH1 0x0 DUP1 REVERT JUMPDEST POP GAS CALL ISZERO DUP1 ISZERO PUSH2 0x28B JUMPI RETURNDATASIZE PUSH1 0x0 DUP1 RETURNDATACOPY RETURNDATASIZE PUSH1 0x0 REVERT JUMPDEST POP POP POP POP POP PUSH2 0x2D0 JUMP JUMPDEST PUSH1 0x40 MLOAD PUSH32 0x8C379A000000000000000000000000000000000000000000000000000000000 DUP2 MSTORE PUSH1 0x4 ADD PUSH2 0x2C7 SWAP1 PUSH2 0x3B55 JUMP JUMPDEST PUSH1 0x40 MLOAD DUP1 SWAP2 SUB SWAP1 REVERT JUMPDEST STOP JUMPDEST PUSH1 0x0 DUP1 REVERT JUMPDEST CALLVALUE DUP1 ISZERO PUSH2 0x2E3 JUMPI PUSH1 0x0 DUP1 REVERT JUMPDEST POP PUSH2 0x2EC PUSH2 0x8FD JUMP JUMPDEST PUSH1 0x40 MLOAD PUSH2 0x2F9 SWAP2 SWAP1 PUSH2 0x3C3D JUMP JUMPDEST PUSH1 0x40 MLOAD DUP1 SWAP2 SUB SWAP1 RETURN JUMPDEST CALLVALUE DUP1 ISZERO PUSH2 0x30E JUMPI PUSH1 0x0 DUP1 REVERT JUMPDEST POP PUSH2 0x329 PUSH1 0x4 DUP1 CALLDATASIZE SUB DUP2 ADD SWAP1 PUSH2 0x324 SWAP2 SWAP1 PUSH2 0x3CCB JUMP JUMPDEST PUSH2 0xA86 JUMP JUMPDEST PUSH1 0x40 MLOAD PUSH2 0x336 SWAP2 SWAP1 PUSH2 0x3D13 JUMP JUMPDEST PUSH1 0x40 MLOAD DUP1 SWAP2 SUB SWAP1 RETURN JUMPDEST CALLVALUE DUP1 ISZERO PUSH2 0x34B JUMPI PUSH1 0x0 DUP1 REVERT JUMPDEST POP PUSH2 0x366 PUSH1 0x4 DUP1 CALLDATASIZE SUB DUP2 ADD SWAP1 PUSH2 0x361 SWAP2 SWAP1 PUSH2 0x3DBF JUMP JUMPDEST PUSH2 0xB00 JUMP JUMPDEST STOP JUMPDEST CALLVALUE DUP1 ISZERO PUSH2 0x374 JUMPI PUSH1 0x0 DUP1 REVERT JUMPDEST POP PUSH2 0x37D PUSH2 0xC15 JUMP JUMPDEST PUSH1 0x40 MLOAD PUSH2 0x38A SWAP2 SWAP1 PUSH2 0x3E60 JUMP JUMPDEST PUSH1 0x40 MLOAD DUP1 SWAP2 SUB SWAP1 RETURN JUMPDEST CALLVALUE DUP1 ISZERO PUSH2 0x39F JUMPI PUSH1 0x0 DUP1 REVERT JUMPDEST POP PUSH2 0x3BA PUSH1 0x4 DUP1 CALLDATASIZE SUB DUP2 ADD SWAP1 PUSH2 0x3B5 SWAP2 SWAP1 PUSH2 0x3F75 JUMP JUMPDEST PUSH2 0xC3B JUMP JUMPDEST STOP JUMPDEST CALLVALUE DUP1 ISZERO PUSH2 0x3C8 JUMPI PUSH1 0x0 DUP1 REVERT JUMPDEST POP PUSH2 0x3E3 PUSH1 0x4 DUP1 CALLDATASIZE SUB DUP2 ADD SWAP1 PUSH2 0x3DE SWAP2 SWAP1 PUSH2 0x406E JUMP JUMPDEST PUSH2 0x1830 JUMP JUMPDEST STOP JUMPDEST CALLVALUE DUP1 ISZERO PUSH2 0x3F1 JUMPI PUSH1 0x0 DUP1 REVERT JUMPDEST POP PUSH2 0x40C PUSH1 0x4 DUP1 CALLDATASIZE SUB DUP2 ADD SWAP1 PUSH2 0x407 SWAP2 SWAP1 PUSH2 0x40D1 JUMP JUMPDEST PUSH2 0x190F JUMP JUMPDEST PUSH1 0x40 MLOAD PUSH2 0x419 SWAP2 SWAP1 PUSH2 0x410D JUMP JUMPDEST PUSH1 0x40 MLOAD DUP1 SWAP2 SUB SWAP1 RETURN JUMPDEST CALLVALUE DUP1 ISZERO PUSH2 0x42E JUMPI PUSH1 0x0 DUP1 REVERT JUMPDEST POP PUSH2 0x449 PUSH1 0x4 DUP1 CALLDATASIZE SUB DUP2 ADD SWAP1 PUSH2 0x444 SWAP2 SWAP1 PUSH2 0x4128 JUMP JUMPDEST PUSH2 0x192F JUMP JUMPDEST PUSH1 0x40 MLOAD PUSH2 0x456 SWAP2 SWAP1 PUSH2 0x410D JUMP JUMPDEST PUSH1 0x40 MLOAD DUP1 SWAP2 SUB SWAP1 RETURN JUMPDEST CALLVALUE DUP1 ISZERO PUSH2 0x46B JUMPI PUSH1 0x0 DUP1 REVERT JUMPDEST POP PUSH2 0x474 PUSH2 0x194C JUMP JUMPDEST PUSH1 0x40 MLOAD PUSH2 0x481 SWAP2 SWAP1 PUSH2 0x42A7 JUMP JUMPDEST PUSH1 0x40 MLOAD DUP1 SWAP2 SUB SWAP1 RETURN JUMPDEST CALLVALUE DUP1 ISZERO PUSH2 0x496 JUMPI PUSH1 0x0 DUP1 REVERT JUMPDEST POP PUSH2 0x4B1 PUSH1 0x4 DUP1 CALLDATASIZE SUB DUP2 ADD SWAP1 PUSH2 0x4AC SWAP2 SWAP1 PUSH2 0x42C9 JUMP JUMPDEST PUSH2 0x1A25 JUMP JUMPDEST STOP JUMPDEST CALLVALUE DUP1 ISZERO PUSH2 0x4BF JUMPI PUSH1 0x0 DUP1 REVERT JUMPDEST POP PUSH2 0x4DA PUSH1 0x4 DUP1 CALLDATASIZE SUB DUP2 ADD SWAP1 PUSH2 0x4D5 SWAP2 SWAP1 PUSH2 0x435F JUMP JUMPDEST PUSH2 0x1A46 JUMP JUMPDEST STOP JUMPDEST CALLVALUE DUP1 ISZERO PUSH2 0x4E8 JUMPI PUSH1 0x0 DUP1 REVERT JUMPDEST POP PUSH2 0x503 PUSH1 0x4 DUP1 CALLDATASIZE SUB DUP2 ADD SWAP1 PUSH2 0x4FE SWAP2 SWAP1 PUSH2 0x4128 JUMP JUMPDEST PUSH2 0x22BD JUMP JUMPDEST PUSH1 0x40 MLOAD PUSH2 0x510 SWAP2 SWAP1 PUSH2 0x43E5 JUMP JUMPDEST PUSH1 0x40 MLOAD DUP1 SWAP2 SUB SWAP1 RETURN JUMPDEST CALLVALUE DUP1 ISZERO PUSH2 0x525 JUMPI PUSH1 0x0 DUP1 REVERT JUMPDEST POP PUSH2 0x52E PUSH2 0x2369 JUMP JUMPDEST PUSH1 0x40 MLOAD PUSH2 0x53B SWAP2 SWAP1 PUSH2 0x410D JUMP JUMPDEST PUSH1 0x40 MLOAD DUP1 SWAP2 SUB SWAP1 RETURN JUMPDEST CALLVALUE DUP1 ISZERO PUSH2 0x550 JUMPI PUSH1 0x0 DUP1 REVERT JUMPDEST POP PUSH2 0x56B PUSH1 0x4 DUP1 CALLDATASIZE SUB DUP2 ADD SWAP1 PUSH2 0x566 SWAP2 SWAP1 PUSH2 0x4537 JUMP JUMPDEST PUSH2 0x238D JUMP JUMPDEST PUSH1 0x40 MLOAD PUSH2 0x578 SWAP2 SWAP1 PUSH2 0x458F JUMP JUMPDEST PUSH1 0x40 MLOAD DUP1 SWAP2 SUB SWAP1 RETURN JUMPDEST CALLVALUE DUP1 ISZERO PUSH2 0x58D JUMPI PUSH1 0x0 DUP1 REVERT JUMPDEST POP PUSH2 0x5A8 PUSH1 0x4 DUP1 CALLDATASIZE SUB DUP2 ADD SWAP1 PUSH2 0x5A3 SWAP2 SWAP1 PUSH2 0x42C9 JUMP JUMPDEST PUSH2 0x2453 JUMP JUMPDEST STOP JUMPDEST CALLVALUE DUP1 ISZERO PUSH2 0x5B6 JUMPI PUSH1 0x0 DUP1 REVERT JUMPDEST POP PUSH2 0x5BF PUSH2 0x24D6 JUMP JUMPDEST PUSH1 0x40 MLOAD PUSH2 0x5CC SWAP2 SWAP1 PUSH2 0x43E5 JUMP JUMPDEST PUSH1 0x40 MLOAD DUP1 SWAP2 SUB SWAP1 RETURN JUMPDEST CALLVALUE DUP1 ISZERO PUSH2 0x5E1 JUMPI PUSH1 0x0 DUP1 REVERT JUMPDEST POP PUSH2 0x5FC PUSH1 0x4 DUP1 CALLDATASIZE SUB DUP2 ADD SWAP1 PUSH2 0x5F7 SWAP2 SWAP1 PUSH2 0x4537 JUMP JUMPDEST PUSH2 0x2513 JUMP JUMPDEST PUSH1 0x40 MLOAD PUSH2 0x609 SWAP2 SWAP1 PUSH2 0x3E60 JUMP JUMPDEST PUSH1 0x40 MLOAD DUP1 SWAP2 SUB SWAP1 RETURN JUMPDEST CALLVALUE DUP1 ISZERO PUSH2 0x61E JUMPI PUSH1 0x0 DUP1 REVERT JUMPDEST POP PUSH2 0x639 PUSH1 0x4 DUP1 CALLDATASIZE SUB DUP2 ADD SWAP1 PUSH2 0x634 SWAP2 SWAP1 PUSH2 0x45AA JUMP JUMPDEST PUSH2 0x255C JUMP JUMPDEST PUSH1 0x40 MLOAD PUSH2 0x646 SWAP2 SWAP1 PUSH2 0x458F JUMP JUMPDEST PUSH1 0x40 MLOAD DUP1 SWAP2 SUB SWAP1 RETURN JUMPDEST CALLVALUE DUP1 ISZERO PUSH2 0x65B JUMPI PUSH1 0x0 DUP1 REVERT JUMPDEST POP PUSH2 0x664 PUSH2 0x27F2 JUMP JUMPDEST PUSH1 0x40 MLOAD PUSH2 0x671 SWAP2 SWAP1 PUSH2 0x410D JUMP JUMPDEST PUSH1 0x40 MLOAD DUP1 SWAP2 SUB SWAP1 RETURN JUMPDEST CALLVALUE DUP1 ISZERO PUSH2 0x686 JUMPI PUSH1 0x0 DUP1 REVERT JUMPDEST POP PUSH2 0x68F PUSH2 0x2816 JUMP JUMPDEST PUSH1 0x40 MLOAD PUSH2 0x69C SWAP2 SWAP1 PUSH2 0x458F JUMP JUMPDEST PUSH1 0x40 MLOAD DUP1 SWAP2 SUB SWAP1 RETURN JUMPDEST CALLVALUE DUP1 ISZERO PUSH2 0x6B1 JUMPI PUSH1 0x0 DUP1 REVERT JUMPDEST POP PUSH2 0x6CC PUSH1 0x4 DUP1 CALLDATASIZE SUB DUP2 ADD SWAP1 PUSH2 0x6C7 SWAP2 SWAP1 PUSH2 0x45EA JUMP JUMPDEST PUSH2 0x2827 JUMP JUMPDEST PUSH1 0x40 MLOAD PUSH2 0x6D9 SWAP2 SWAP1 PUSH2 0x3E60 JUMP JUMPDEST PUSH1 0x40 MLOAD DUP1 SWAP2 SUB SWAP1 RETURN JUMPDEST CALLVALUE DUP1 ISZERO PUSH2 0x6EE JUMPI PUSH1 0x0 DUP1 REVERT JUMPDEST POP PUSH2 0x709 PUSH1 0x4 DUP1 CALLDATASIZE SUB DUP2 ADD SWAP1 PUSH2 0x704 SWAP2 SWAP1 PUSH2 0x42C9 JUMP JUMPDEST PUSH2 0x2856 JUMP JUMPDEST PUSH1 0x40 MLOAD PUSH2 0x716 SWAP2 SWAP1 PUSH2 0x3D13 JUMP JUMPDEST PUSH1 0x40 MLOAD DUP1 SWAP2 SUB SWAP1 RETURN JUMPDEST CALLVALUE DUP1 ISZERO PUSH2 0x72B JUMPI PUSH1 0x0 DUP1 REVERT JUMPDEST POP PUSH2 0x734 PUSH2 0x28C1 JUMP JUMPDEST PUSH1 0x40 MLOAD PUSH2 0x741 SWAP2 SWAP1 PUSH2 0x410D JUMP JUMPDEST PUSH1 0x40 MLOAD DUP1 SWAP2 SUB SWAP1 RETURN JUMPDEST CALLVALUE DUP1 ISZERO PUSH2 0x756 JUMPI PUSH1 0x0 DUP1 REVERT JUMPDEST POP PUSH2 0x75F PUSH2 0x28C8 JUMP JUMPDEST PUSH1 0x40 MLOAD PUSH2 0x76C SWAP2 SWAP1 PUSH2 0x3E60 JUMP JUMPDEST PUSH1 0x40 MLOAD DUP1 SWAP2 SUB SWAP1 RETURN JUMPDEST CALLVALUE DUP1 ISZERO PUSH2 0x781 JUMPI PUSH1 0x0 DUP1 REVERT JUMPDEST POP PUSH2 0x79C PUSH1 0x4 DUP1 CALLDATASIZE SUB DUP2 ADD SWAP1 PUSH2 0x797 SWAP2 SWAP1 PUSH2 0x40D1 JUMP JUMPDEST PUSH2 0x28EF JUMP JUMPDEST PUSH1 0x40 MLOAD PUSH2 0x7A9 SWAP2 SWAP1 PUSH2 0x458F JUMP JUMPDEST PUSH1 0x40 MLOAD DUP1 SWAP2 SUB SWAP1 RETURN JUMPDEST CALLVALUE DUP1 ISZERO PUSH2 0x7BE JUMPI PUSH1 0x0 DUP1 REVERT JUMPDEST POP PUSH2 0x7D9 PUSH1 0x4 DUP1 CALLDATASIZE SUB DUP2 ADD SWAP1 PUSH2 0x7D4 SWAP2 SWAP1 PUSH2 0x406E JUMP JUMPDEST PUSH2 0x2913 JUMP JUMPDEST STOP JUMPDEST CALLVALUE DUP1 ISZERO PUSH2 0x7E7 JUMPI PUSH1 0x0 DUP1 REVERT JUMPDEST POP PUSH2 0x802 PUSH1 0x4 DUP1 CALLDATASIZE SUB DUP2 ADD SWAP1 PUSH2 0x7FD SWAP2 SWAP1 PUSH2 0x42C9 JUMP JUMPDEST PUSH2 0x29F1 JUMP JUMPDEST STOP JUMPDEST CALLVALUE DUP1 ISZERO PUSH2 0x810 JUMPI PUSH1 0x0 DUP1 REVERT JUMPDEST POP PUSH2 0x82B PUSH1 0x4 DUP1 CALLDATASIZE SUB DUP2 ADD SWAP1 PUSH2 0x826 SWAP2 SWAP1 PUSH2 0x3DBF JUMP JUMPDEST PUSH2 0x2A12 JUMP JUMPDEST STOP JUMPDEST CALLVALUE DUP1 ISZERO PUSH2 0x839 JUMPI PUSH1 0x0 DUP1 REVERT JUMPDEST POP PUSH2 0x854 PUSH1 0x4 DUP1 CALLDATASIZE SUB DUP2 ADD SWAP1 PUSH2 0x84F SWAP2 SWAP1 PUSH2 0x4128 JUMP JUMPDEST PUSH2 0x2B20 JUMP JUMPDEST PUSH1 0x40 MLOAD PUSH2 0x861 SWAP2 SWAP1 PUSH2 0x43E5 JUMP JUMPDEST PUSH1 0x40 MLOAD DUP1 SWAP2 SUB SWAP1 RETURN JUMPDEST CALLVALUE DUP1 ISZERO PUSH2 0x876 JUMPI PUSH1 0x0 DUP1 REVERT JUMPDEST POP PUSH2 0x87F PUSH2 0x2BC4 JUMP JUMPDEST PUSH1 0x40 MLOAD PUSH2 0x88C SWAP2 SWAP1 PUSH2 0x410D JUMP JUMPDEST PUSH1 0x40 MLOAD DUP1 SWAP2 SUB SWAP1 RETURN JUMPDEST CALLVALUE DUP1 ISZERO PUSH2 0x8A1 JUMPI PUSH1 0x0 DUP1 REVERT JUMPDEST POP PUSH2 0x8AA PUSH2 0x2BE8 JUMP JUMPDEST PUSH1 0x40 MLOAD PUSH2 0x8B7 SWAP2 SWAP1 PUSH2 0x410D JUMP JUMPDEST PUSH1 0x40 MLOAD DUP1 SWAP2 SUB SWAP1 RETURN JUMPDEST CALLVALUE DUP1 ISZERO PUSH2 0x8CC JUMPI PUSH1 0x0 DUP1 REVERT JUMPDEST POP PUSH2 0x8E7 PUSH1 0x4 DUP1 CALLDATASIZE SUB DUP2 ADD SWAP1 PUSH2 0x8E2 SWAP2 SWAP1 PUSH2 0x4537 JUMP JUMPDEST PUSH2 0x2C0C JUMP JUMPDEST PUSH1 0x40 MLOAD PUSH2 0x8F4 SWAP2 SWAP1 PUSH2 0x3E60 JUMP JUMPDEST PUSH1 0x40 MLOAD DUP1 SWAP2 SUB SWAP1 RETURN JUMPDEST PUSH1 0x60 PUSH1 0x0 PUSH1 0x1 PUSH1 0xFD DUP1 SLOAD SWAP1 POP PUSH2 0x913 SWAP2 SWAP1 PUSH2 0x4659 JUMP JUMPDEST PUSH8 0xFFFFFFFFFFFFFFFF DUP2 GT ISZERO PUSH2 0x92C JUMPI PUSH2 0x92B PUSH2 0x440C JUMP JUMPDEST JUMPDEST PUSH1 0x40 MLOAD SWAP1 DUP1 DUP3 MSTORE DUP1 PUSH1 0x20 MUL PUSH1 0x20 ADD DUP3 ADD PUSH1 0x40 MSTORE DUP1 ISZERO PUSH2 0x95A JUMPI DUP2 PUSH1 0x20 ADD PUSH1 0x20 DUP3 MUL DUP1 CALLDATASIZE DUP4 CALLDATACOPY DUP1 DUP3 ADD SWAP2 POP POP SWAP1 POP JUMPDEST POP SWAP1 POP SELFBALANCE DUP2 PUSH1 0x0 DUP2 MLOAD DUP2 LT PUSH2 0x972 JUMPI PUSH2 0x971 PUSH2 0x468D JUMP JUMPDEST JUMPDEST PUSH1 0x20 MUL PUSH1 0x20 ADD ADD DUP2 DUP2 MSTORE POP POP PUSH1 0x0 PUSH1 0x1 SWAP1 POP JUMPDEST PUSH1 0xFD DUP1 SLOAD SWAP1 POP DUP2 GT PUSH2 0xA7E JUMPI PUSH2 0xA4C PUSH1 0xFD PUSH1 0x1 DUP4 PUSH2 0x9A3 SWAP2 SWAP1 PUSH2 0x46BC JUMP JUMPDEST DUP2 SLOAD DUP2 LT PUSH2 0x9B4 JUMPI PUSH2 0x9B3 PUSH2 0x468D JUMP JUMPDEST JUMPDEST SWAP1 PUSH1 0x0 MSTORE PUSH1 0x20 PUSH1 0x0 KECCAK256 ADD DUP1 SLOAD PUSH2 0x9C9 SWAP1 PUSH2 0x471F JUMP JUMPDEST DUP1 PUSH1 0x1F ADD PUSH1 0x20 DUP1 SWAP2 DIV MUL PUSH1 0x20 ADD PUSH1 0x40 MLOAD SWAP1 DUP2 ADD PUSH1 0x40 MSTORE DUP1 SWAP3 SWAP2 SWAP1 DUP2 DUP2 MSTORE PUSH1 0x20 ADD DUP3 DUP1 SLOAD PUSH2 0x9F5 SWAP1 PUSH2 0x471F JUMP JUMPDEST DUP1 ISZERO PUSH2 0xA42 JUMPI DUP1 PUSH1 0x1F LT PUSH2 0xA17 JUMPI PUSH2 0x100 DUP1 DUP4 SLOAD DIV MUL DUP4 MSTORE SWAP2 PUSH1 0x20 ADD SWAP2 PUSH2 0xA42 JUMP JUMPDEST DUP3 ADD SWAP2 SWAP1 PUSH1 0x0 MSTORE PUSH1 0x20 PUSH1 0x0 KECCAK256 SWAP1 JUMPDEST DUP2 SLOAD DUP2 MSTORE SWAP1 PUSH1 0x1 ADD SWAP1 PUSH1 0x20 ADD DUP1 DUP4 GT PUSH2 0xA25 JUMPI DUP3 SWAP1 SUB PUSH1 0x1F AND DUP3 ADD SWAP2 JUMPDEST POP POP POP POP POP PUSH2 0x238D JUMP JUMPDEST DUP3 DUP3 DUP2 MLOAD DUP2 LT PUSH2 0xA5F JUMPI PUSH2 0xA5E PUSH2 0x468D JUMP JUMPDEST JUMPDEST PUSH1 0x20 MUL PUSH1 0x20 ADD ADD DUP2 DUP2 MSTORE POP POP DUP1 DUP1 PUSH2 0xA76 SWAP1 PUSH2 0x4750 JUMP JUMPDEST SWAP2 POP POP PUSH2 0x985 JUMP JUMPDEST POP DUP1 SWAP2 POP POP SWAP1 JUMP JUMPDEST PUSH1 0x0 PUSH32 0x5A05180F00000000000000000000000000000000000000000000000000000000 PUSH28 0xFFFFFFFFFFFFFFFFFFFFFFFFFFFFFFFFFFFFFFFFFFFFFFFFFFFFFFFF NOT AND DUP3 PUSH28 0xFFFFFFFFFFFFFFFFFFFFFFFFFFFFFFFFFFFFFFFFFFFFFFFFFFFFFFFF NOT AND EQ DUP1 PUSH2 0xAF9 JUMPI POP PUSH2 0xAF8 DUP3 PUSH2 0x2C56 JUMP JUMPDEST JUMPDEST SWAP1 POP SWAP2 SWAP1 POP JUMP JUMPDEST PUSH32 0xBFFB4FAF8A508F503A2CA036EFFD0BC1F82615D3EBFDDB934EDF718F23672707 PUSH2 0xB2A DUP2 PUSH2 0x2CD0 JUMP JUMPDEST PUSH2 0xB32 PUSH2 0x2CE4 JUMP JUMPDEST PUSH2 0xB9F PUSH1 0xFE DUP5 DUP5 PUSH1 0x40 MLOAD PUSH2 0xB47 SWAP3 SWAP2 SWAP1 PUSH2 0x47BD JUMP JUMPDEST SWAP1 DUP2 MSTORE PUSH1 0x20 ADD PUSH1 0x40 MLOAD DUP1 SWAP2 SUB SWAP1 KECCAK256 PUSH1 0x0 SWAP1 SLOAD SWAP1 PUSH2 0x100 EXP SWAP1 DIV PUSH20 0xFFFFFFFFFFFFFFFFFFFFFFFFFFFFFFFFFFFFFFFF AND PUSH1 0xFF PUSH1 0x0 SWAP1 SLOAD SWAP1 PUSH2 0x100 EXP SWAP1 DIV PUSH20 0xFFFFFFFFFFFFFFFFFFFFFFFFFFFFFFFFFFFFFFFF AND DUP7 PUSH2 0x2D33 JUMP JUMPDEST PUSH32 0x22CB89E6358014BB27F5658E2B820189F8F4C9E3F7165ECF266EDC53BE12D9FA PUSH2 0xBC8 PUSH2 0x2DB9 JUMP JUMPDEST DUP5 DUP5 DUP8 PUSH1 0xFF PUSH1 0x0 SWAP1 SLOAD SWAP1 PUSH2 0x100 EXP SWAP1 DIV PUSH20 0xFFFFFFFFFFFFFFFFFFFFFFFFFFFFFFFFFFFFFFFF AND PUSH1 0x40 MLOAD PUSH2 0xBFF SWAP6 SWAP5 SWAP4 SWAP3 SWAP2 SWAP1 PUSH2 0x4803 JUMP JUMPDEST PUSH1 0x40 MLOAD DUP1 SWAP2 SUB SWAP1 LOG1 PUSH2 0xC0F PUSH2 0x2DC1 JUMP JUMPDEST POP POP POP POP JUMP JUMPDEST PUSH1 0xFF PUSH1 0x0 SWAP1 SLOAD SWAP1 PUSH2 0x100 EXP SWAP1 DIV PUSH20 0xFFFFFFFFFFFFFFFFFFFFFFFFFFFFFFFFFFFFFFFF AND DUP2 JUMP JUMPDEST PUSH1 0x0 DUP1 PUSH1 0x1 SWAP1 SLOAD SWAP1 PUSH2 0x100 EXP SWAP1 DIV PUSH1 0xFF AND ISZERO SWAP1 POP DUP1 DUP1 ISZERO PUSH2 0xC6C JUMPI POP PUSH1 0x1 PUSH1 0x0 DUP1 SLOAD SWAP1 PUSH2 0x100 EXP SWAP1 DIV PUSH1 0xFF AND PUSH1 0xFF AND LT JUMPDEST DUP1 PUSH2 0xC99 JUMPI POP PUSH2 0xC7B ADDRESS PUSH2 0x2DCB JUMP JUMPDEST ISZERO DUP1 ISZERO PUSH2 0xC98 JUMPI POP PUSH1 0x1 PUSH1 0x0 DUP1 SLOAD SWAP1 PUSH2 0x100 EXP SWAP1 DIV PUSH1 0xFF AND PUSH1 0xFF AND EQ JUMPDEST JUMPDEST PUSH2 0xCD8 JUMPI PUSH1 0x40 MLOAD PUSH32 0x8C379A000000000000000000000000000000000000000000000000000000000 DUP2 MSTORE PUSH1 0x4 ADD PUSH2 0xCCF SWAP1 PUSH2 0x48C3 JUMP JUMPDEST PUSH1 0x40 MLOAD DUP1 SWAP2 SUB SWAP1 REVERT JUMPDEST PUSH1 0x1 PUSH1 0x0 DUP1 PUSH2 0x100 EXP DUP2 SLOAD DUP2 PUSH1 0xFF MUL NOT AND SWAP1 DUP4 PUSH1 0xFF AND MUL OR SWAP1 SSTORE POP DUP1 ISZERO PUSH2 0xD15 JUMPI PUSH1 0x1 PUSH1 0x0 PUSH1 0x1 PUSH2 0x100 EXP DUP2 SLOAD DUP2 PUSH1 0xFF MUL NOT AND SWAP1 DUP4 ISZERO ISZERO MUL OR SWAP1 SSTORE POP JUMPDEST PUSH1 0x0 PUSH20 0xFFFFFFFFFFFFFFFFFFFFFFFFFFFFFFFFFFFFFFFF AND DUP8 PUSH1 0x0 PUSH1 0x3 DUP2 LT PUSH2 0xD41 JUMPI PUSH2 0xD40 PUSH2 0x468D JUMP JUMPDEST JUMPDEST PUSH1 0x20 MUL ADD PUSH1 0x20 DUP2 ADD SWAP1 PUSH2 0xD54 SWAP2 SWAP1 PUSH2 0x406E JUMP JUMPDEST PUSH20 0xFFFFFFFFFFFFFFFFFFFFFFFFFFFFFFFFFFFFFFFF AND EQ ISZERO DUP1 PUSH2 0xDCA JUMPI POP PUSH1 0x0 PUSH20 0xFFFFFFFFFFFFFFFFFFFFFFFFFFFFFFFFFFFFFFFF AND DUP8 PUSH1 0x1 PUSH1 0x3 DUP2 LT PUSH2 0xD9E JUMPI PUSH2 0xD9D PUSH2 0x468D JUMP JUMPDEST JUMPDEST PUSH1 0x20 MUL ADD PUSH1 0x20 DUP2 ADD SWAP1 PUSH2 0xDB1 SWAP2 SWAP1 PUSH2 0x406E JUMP JUMPDEST PUSH20 0xFFFFFFFFFFFFFFFFFFFFFFFFFFFFFFFFFFFFFFFF AND EQ ISZERO JUMPDEST DUP1 PUSH2 0xE28 JUMPI POP PUSH1 0x0 PUSH20 0xFFFFFFFFFFFFFFFFFFFFFFFFFFFFFFFFFFFFFFFF AND DUP8 PUSH1 0x2 PUSH1 0x3 DUP2 LT PUSH2 0xDFC JUMPI PUSH2 0xDFB PUSH2 0x468D JUMP JUMPDEST JUMPDEST PUSH1 0x20 MUL ADD PUSH1 0x20 DUP2 ADD SWAP1 PUSH2 0xE0F SWAP2 SWAP1 PUSH2 0x406E JUMP JUMPDEST PUSH20 0xFFFFFFFFFFFFFFFFFFFFFFFFFFFFFFFFFFFFFFFF AND EQ ISZERO JUMPDEST PUSH2 0xE67 JUMPI PUSH1 0x40 MLOAD PUSH32 0x8C379A000000000000000000000000000000000000000000000000000000000 DUP2 MSTORE PUSH1 0x4 ADD PUSH2 0xE5E SWAP1 PUSH2 0x492F JUMP JUMPDEST PUSH1 0x40 MLOAD DUP1 SWAP2 SUB SWAP1 REVERT JUMPDEST PUSH1 0x0 PUSH20 0xFFFFFFFFFFFFFFFFFFFFFFFFFFFFFFFFFFFFFFFF AND DUP7 PUSH20 0xFFFFFFFFFFFFFFFFFFFFFFFFFFFFFFFFFFFFFFFF AND SUB PUSH2 0xED6 JUMPI PUSH1 0x40 MLOAD PUSH32 0x8C379A000000000000000000000000000000000000000000000000000000000 DUP2 MSTORE PUSH1 0x4 ADD PUSH2 0xECD SWAP1 PUSH2 0x499B JUMP JUMPDEST PUSH1 0x40 MLOAD DUP1 SWAP2 SUB SWAP1 REVERT JUMPDEST PUSH1 0x0 PUSH20 0xFFFFFFFFFFFFFFFFFFFFFFFFFFFFFFFFFFFFFFFF AND DUP6 PUSH20 0xFFFFFFFFFFFFFFFFFFFFFFFFFFFFFFFFFFFFFFFF AND SUB PUSH2 0xF45 JUMPI PUSH1 0x40 MLOAD PUSH32 0x8C379A000000000000000000000000000000000000000000000000000000000 DUP2 MSTORE PUSH1 0x4 ADD PUSH2 0xF3C SWAP1 PUSH2 0x4A07 JUMP JUMPDEST PUSH1 0x40 MLOAD DUP1 SWAP2 SUB SWAP1 REVERT JUMPDEST PUSH1 0x0 PUSH20 0xFFFFFFFFFFFFFFFFFFFFFFFFFFFFFFFFFFFFFFFF AND DUP5 PUSH20 0xFFFFFFFFFFFFFFFFFFFFFFFFFFFFFFFFFFFFFFFF AND SUB PUSH2 0xFB4 JUMPI PUSH1 0x40 MLOAD PUSH32 0x8C379A000000000000000000000000000000000000000000000000000000000 DUP2 MSTORE PUSH1 0x4 ADD PUSH2 0xFAB SWAP1 PUSH2 0x4A73 JUMP JUMPDEST PUSH1 0x40 MLOAD DUP1 SWAP2 SUB SWAP1 REVERT JUMPDEST PUSH1 0x0 PUSH20 0xFFFFFFFFFFFFFFFFFFFFFFFFFFFFFFFFFFFFFFFF AND DUP4 PUSH20 0xFFFFFFFFFFFFFFFFFFFFFFFFFFFFFFFFFFFFFFFF AND SUB PUSH2 0x1023 JUMPI PUSH1 0x40 MLOAD PUSH32 0x8C379A000000000000000000000000000000000000000000000000000000000 DUP2 MSTORE PUSH1 0x4 ADD PUSH2 0x101A SWAP1 PUSH2 0x4ADF JUMP JUMPDEST PUSH1 0x40 MLOAD DUP1 SWAP2 SUB SWAP1 REVERT JUMPDEST PUSH2 0x102B PUSH2 0x2DEE JUMP JUMPDEST PUSH2 0x1033 PUSH2 0x2E3F JUMP JUMPDEST DUP9 DUP9 SWAP1 POP DUP12 DUP12 SWAP1 POP EQ PUSH2 0x107B JUMPI PUSH1 0x40 MLOAD PUSH32 0x8C379A000000000000000000000000000000000000000000000000000000000 DUP2 MSTORE PUSH1 0x4 ADD PUSH2 0x1072 SWAP1 PUSH2 0x4B71 JUMP JUMPDEST PUSH1 0x40 MLOAD DUP1 SWAP2 SUB SWAP1 REVERT JUMPDEST PUSH1 0x0 JUMPDEST DUP12 DUP12 SWAP1 POP DUP2 LT ISZERO PUSH2 0x11A6 JUMPI DUP10 DUP10 DUP3 DUP2 DUP2 LT PUSH2 0x109C JUMPI PUSH2 0x109B PUSH2 0x468D JUMP JUMPDEST JUMPDEST SWAP1 POP PUSH1 0x20 MUL ADD PUSH1 0x20 DUP2 ADD SWAP1 PUSH2 0x10B1 SWAP2 SWAP1 PUSH2 0x406E JUMP JUMPDEST PUSH1 0xFE DUP14 DUP14 DUP5 DUP2 DUP2 LT PUSH2 0x10C6 JUMPI PUSH2 0x10C5 PUSH2 0x468D JUMP JUMPDEST JUMPDEST SWAP1 POP PUSH1 0x20 MUL DUP2 ADD SWAP1 PUSH2 0x10D8 SWAP2 SWAP1 PUSH2 0x4BA0 JUMP JUMPDEST PUSH1 0x40 MLOAD PUSH2 0x10E6 SWAP3 SWAP2 SWAP1 PUSH2 0x47BD JUMP JUMPDEST SWAP1 DUP2 MSTORE PUSH1 0x20 ADD PUSH1 0x40 MLOAD DUP1 SWAP2 SUB SWAP1 KECCAK256 PUSH1 0x0 PUSH2 0x100 EXP DUP2 SLOAD DUP2 PUSH20 0xFFFFFFFFFFFFFFFFFFFFFFFFFFFFFFFFFFFFFFFF MUL NOT AND SWAP1 DUP4 PUSH20 0xFFFFFFFFFFFFFFFFFFFFFFFFFFFFFFFFFFFFFFFF AND MUL OR SWAP1 SSTORE POP PUSH1 0xFD DUP13 DUP13 DUP4 DUP2 DUP2 LT PUSH2 0x1147 JUMPI PUSH2 0x1146 PUSH2 0x468D JUMP JUMPDEST JUMPDEST SWAP1 POP PUSH1 0x20 MUL DUP2 ADD SWAP1 PUSH2 0x1159 SWAP2 SWAP1 PUSH2 0x4BA0 JUMP JUMPDEST SWAP1 SWAP2 DUP1 PUSH1 0x1 DUP2 SLOAD ADD DUP1 DUP3 SSTORE DUP1 SWAP2 POP POP PUSH1 0x1 SWAP1 SUB SWAP1 PUSH1 0x0 MSTORE PUSH1 0x20 PUSH1 0x0 KECCAK256 ADD PUSH1 0x0 SWAP1 SWAP2 SWAP3 SWAP1 SWAP2 SWAP3 SWAP1 SWAP2 SWAP3 SWAP1 SWAP2 SWAP3 POP SWAP2 DUP3 PUSH2 0x1192 SWAP3 SWAP2 SWAP1 PUSH2 0x4DBA JUMP JUMPDEST POP DUP1 DUP1 PUSH2 0x119E SWAP1 PUSH2 0x4750 JUMP JUMPDEST SWAP2 POP POP PUSH2 0x107E JUMP JUMPDEST POP DUP5 PUSH2 0x100 PUSH1 0x0 PUSH2 0x100 EXP DUP2 SLOAD DUP2 PUSH20 0xFFFFFFFFFFFFFFFFFFFFFFFFFFFFFFFFFFFFFFFF MUL NOT AND SWAP1 DUP4 PUSH20 0xFFFFFFFFFFFFFFFFFFFFFFFFFFFFFFFFFFFFFFFF AND MUL OR SWAP1 SSTORE POP DUP6 PUSH1 0xFF PUSH1 0x0 PUSH2 0x100 EXP DUP2 SLOAD DUP2 PUSH20 0xFFFFFFFFFFFFFFFFFFFFFFFFFFFFFFFFFFFFFFFF MUL NOT AND SWAP1 DUP4 PUSH20 0xFFFFFFFFFFFFFFFFFFFFFFFFFFFFFFFFFFFFFFFF AND MUL OR SWAP1 SSTORE POP PUSH1 0x0 JUMPDEST PUSH1 0x3 DUP2 LT ISZERO PUSH2 0x12E1 JUMPI DUP3 DUP2 PUSH1 0x3 DUP2 LT PUSH2 0x1249 JUMPI PUSH2 0x1248 PUSH2 0x468D JUMP JUMPDEST JUMPDEST PUSH1 0x20 MUL ADD PUSH1 0x20 DUP2 ADD SWAP1 PUSH2 0x125C SWAP2 SWAP1 PUSH2 0x406E JUMP JUMPDEST PUSH2 0x101 PUSH2 0x102 DUP4 PUSH1 0x3 DUP2 LT PUSH2 0x1274 JUMPI PUSH2 0x1273 PUSH2 0x468D JUMP JUMPDEST JUMPDEST ADD PUSH1 0x40 MLOAD PUSH2 0x1282 SWAP2 SWAP1 PUSH2 0x4F0D JUMP JUMPDEST SWAP1 DUP2 MSTORE PUSH1 0x20 ADD PUSH1 0x40 MLOAD DUP1 SWAP2 SUB SWAP1 KECCAK256 PUSH1 0x0 PUSH2 0x100 EXP DUP2 SLOAD DUP2 PUSH20 0xFFFFFFFFFFFFFFFFFFFFFFFFFFFFFFFFFFFFFFFF MUL NOT AND SWAP1 DUP4 PUSH20 0xFFFFFFFFFFFFFFFFFFFFFFFFFFFFFFFFFFFFFFFF AND MUL OR SWAP1 SSTORE POP DUP1 DUP1 PUSH2 0x12D9 SWAP1 PUSH2 0x4750 JUMP JUMPDEST SWAP2 POP POP PUSH2 0x122D JUMP JUMPDEST POP PUSH2 0x101 PUSH1 0x40 MLOAD PUSH2 0x12F1 SWAP1 PUSH2 0x4F70 JUMP JUMPDEST SWAP1 DUP2 MSTORE PUSH1 0x20 ADD PUSH1 0x40 MLOAD DUP1 SWAP2 SUB SWAP1 KECCAK256 PUSH1 0x0 SWAP1 SLOAD SWAP1 PUSH2 0x100 EXP SWAP1 DIV PUSH20 0xFFFFFFFFFFFFFFFFFFFFFFFFFFFFFFFFFFFFFFFF AND PUSH2 0x105 PUSH1 0x0 PUSH2 0x100 EXP DUP2 SLOAD DUP2 PUSH20 0xFFFFFFFFFFFFFFFFFFFFFFFFFFFFFFFFFFFFFFFF MUL NOT AND SWAP1 DUP4 PUSH20 0xFFFFFFFFFFFFFFFFFFFFFFFFFFFFFFFFFFFFFFFF AND MUL OR SWAP1 SSTORE POP PUSH2 0x101 PUSH1 0x40 MLOAD PUSH2 0x1370 SWAP1 PUSH2 0x4FD1 JUMP JUMPDEST SWAP1 DUP2 MSTORE PUSH1 0x20 ADD PUSH1 0x40 MLOAD DUP1 SWAP2 SUB SWAP1 KECCAK256 PUSH1 0x0 SWAP1 SLOAD SWAP1 PUSH2 0x100 EXP SWAP1 DIV PUSH20 0xFFFFFFFFFFFFFFFFFFFFFFFFFFFFFFFFFFFFFFFF AND PUSH2 0x106 PUSH1 0x0 PUSH2 0x100 EXP DUP2 SLOAD DUP2 PUSH20 0xFFFFFFFFFFFFFFFFFFFFFFFFFFFFFFFFFFFFFFFF MUL NOT AND SWAP1 DUP4 PUSH20 0xFFFFFFFFFFFFFFFFFFFFFFFFFFFFFFFFFFFFFFFF AND MUL OR SWAP1 SSTORE POP PUSH2 0x1414 PUSH32 0xFAAD79A708D82D095486F5A83B18341F12A8F717D3011AB929D43135C1AF73E2 PUSH1 0xFB PUSH2 0x2E98 SWAP1 SWAP2 SWAP1 PUSH4 0xFFFFFFFF AND JUMP JUMPDEST POP PUSH2 0x1449 PUSH32 0xFD37F88A14D7ED985885A1AF8F2AD5B64DD7EB00AB89168649791632BB9BB4A6 PUSH1 0xFB PUSH2 0x2E98 SWAP1 SWAP2 SWAP1 PUSH4 0xFFFFFFFF AND JUMP JUMPDEST POP PUSH2 0x147E PUSH32 0xBFFB4FAF8A508F503A2CA036EFFD0BC1F82615D3EBFDDB934EDF718F23672707 PUSH1 0xFB PUSH2 0x2E98 SWAP1 SWAP2 SWAP1 PUSH4 0xFFFFFFFF AND JUMP JUMPDEST POP PUSH2 0x14B3 PUSH32 0xD2761B102BDA9831F4AF400CC824B8CECB9CC5C1C85C51ACB1479DB9735FBFC6 PUSH1 0xFB PUSH2 0x2E98 SWAP1 SWAP2 SWAP1 PUSH4 0xFFFFFFFF AND JUMP JUMPDEST POP PUSH2 0x1504 PUSH32 0xFAAD79A708D82D095486F5A83B18341F12A8F717D3011AB929D43135C1AF73E2 DUP9 PUSH1 0x0 PUSH1 0x3 DUP2 LT PUSH2 0x14EC JUMPI PUSH2 0x14EB PUSH2 0x468D JUMP JUMPDEST JUMPDEST PUSH1 0x20 MUL ADD PUSH1 0x20 DUP2 ADD SWAP1 PUSH2 0x14FF SWAP2 SWAP1 PUSH2 0x406E JUMP JUMPDEST PUSH2 0x2EAF JUMP JUMPDEST PUSH2 0x1554 PUSH32 0xFAAD79A708D82D095486F5A83B18341F12A8F717D3011AB929D43135C1AF73E2 DUP9 PUSH1 0x1 PUSH1 0x3 DUP2 LT PUSH2 0x153C JUMPI PUSH2 0x153B PUSH2 0x468D JUMP JUMPDEST JUMPDEST PUSH1 0x20 MUL ADD PUSH1 0x20 DUP2 ADD SWAP1 PUSH2 0x154F SWAP2 SWAP1 PUSH2 0x406E JUMP JUMPDEST PUSH2 0x2EAF JUMP JUMPDEST PUSH2 0x15A4 PUSH32 0xFAAD79A708D82D095486F5A83B18341F12A8F717D3011AB929D43135C1AF73E2 DUP9 PUSH1 0x2 PUSH1 0x3 DUP2 LT PUSH2 0x158C JUMPI PUSH2 0x158B PUSH2 0x468D JUMP JUMPDEST JUMPDEST PUSH1 0x20 MUL ADD PUSH1 0x20 DUP2 ADD SWAP1 PUSH2 0x159F SWAP2 SWAP1 PUSH2 0x406E JUMP JUMPDEST PUSH2 0x2EAF JUMP JUMPDEST PUSH2 0x15CE PUSH32 0xFD37F88A14D7ED985885A1AF8F2AD5B64DD7EB00AB89168649791632BB9BB4A6 DUP6 PUSH2 0x2EAF JUMP JUMPDEST PUSH2 0x15F8 PUSH32 0xFD37F88A14D7ED985885A1AF8F2AD5B64DD7EB00AB89168649791632BB9BB4A6 DUP5 PUSH2 0x2EAF JUMP JUMPDEST PUSH2 0x1622 PUSH32 0xBFFB4FAF8A508F503A2CA036EFFD0BC1F82615D3EBFDDB934EDF718F23672707 DUP6 PUSH2 0x2EAF JUMP JUMPDEST PUSH2 0x164C PUSH32 0xBFFB4FAF8A508F503A2CA036EFFD0BC1F82615D3EBFDDB934EDF718F23672707 DUP5 PUSH2 0x2EAF JUMP JUMPDEST PUSH2 0x16B3 PUSH32 0xD2761B102BDA9831F4AF400CC824B8CECB9CC5C1C85C51ACB1479DB9735FBFC6 PUSH2 0x101 PUSH1 0x40 MLOAD PUSH2 0x167F SWAP1 PUSH2 0x5032 JUMP JUMPDEST SWAP1 DUP2 MSTORE PUSH1 0x20 ADD PUSH1 0x40 MLOAD DUP1 SWAP2 SUB SWAP1 KECCAK256 PUSH1 0x0 SWAP1 SLOAD SWAP1 PUSH2 0x100 EXP SWAP1 DIV PUSH20 0xFFFFFFFFFFFFFFFFFFFFFFFFFFFFFFFFFFFFFFFF AND PUSH2 0x2EAF JUMP JUMPDEST PUSH2 0x16DD PUSH32 0xFAAD79A708D82D095486F5A83B18341F12A8F717D3011AB929D43135C1AF73E2 DUP1 PUSH2 0x2EE3 JUMP JUMPDEST PUSH2 0x1707 PUSH32 0xFD37F88A14D7ED985885A1AF8F2AD5B64DD7EB00AB89168649791632BB9BB4A6 DUP1 PUSH2 0x2EE3 JUMP JUMPDEST PUSH2 0x1731 PUSH32 0xBFFB4FAF8A508F503A2CA036EFFD0BC1F82615D3EBFDDB934EDF718F23672707 DUP1 PUSH2 0x2EE3 JUMP JUMPDEST PUSH2 0x177B PUSH32 0xD2761B102BDA9831F4AF400CC824B8CECB9CC5C1C85C51ACB1479DB9735FBFC6 PUSH32 0xFAAD79A708D82D095486F5A83B18341F12A8F717D3011AB929D43135C1AF73E2 PUSH2 0x2EE3 JUMP JUMPDEST PUSH32 0xC4E9CB2514FD5C0A9DC8982A257F2FEF7BF64B1DDFF0BAAA409AD4DEEBC8E53 CALLER DUP13 DUP13 DUP13 DUP13 DUP13 DUP13 DUP13 DUP13 DUP13 PUSH2 0x102 DUP14 PUSH1 0x40 MLOAD PUSH2 0x17C2 SWAP13 SWAP12 SWAP11 SWAP10 SWAP9 SWAP8 SWAP7 SWAP6 SWAP5 SWAP4 SWAP3 SWAP2 SWAP1 PUSH2 0x5411 JUMP JUMPDEST PUSH1 0x40 MLOAD DUP1 SWAP2 SUB SWAP1 LOG1 DUP1 ISZERO PUSH2 0x1823 JUMPI PUSH1 0x0 DUP1 PUSH1 0x1 PUSH2 0x100 EXP DUP2 SLOAD DUP2 PUSH1 0xFF MUL NOT AND SWAP1 DUP4 ISZERO ISZERO MUL OR SWAP1 SSTORE POP PUSH32 0x7F26B83FF96E1F2B6A682F133852F6798A09C465DA95921460CEFB3847402498 PUSH1 0x1 PUSH1 0x40 MLOAD PUSH2 0x181A SWAP2 SWAP1 PUSH2 0x5510 JUMP JUMPDEST PUSH1 0x40 MLOAD DUP1 SWAP2 SUB SWAP1 LOG1 JUMPDEST POP POP POP POP POP POP POP POP POP POP POP JUMP JUMPDEST PUSH32 0xFAAD79A708D82D095486F5A83B18341F12A8F717D3011AB929D43135C1AF73E2 PUSH2 0x185A DUP2 PUSH2 0x2CD0 JUMP JUMPDEST PUSH1 0x0 PUSH20 0xFFFFFFFFFFFFFFFFFFFFFFFFFFFFFFFFFFFFFFFF AND DUP3 PUSH20 0xFFFFFFFFFFFFFFFFFFFFFFFFFFFFFFFFFFFFFFFF AND SUB PUSH2 0x18C9 JUMPI PUSH1 0x40 MLOAD PUSH32 0x8C379A000000000000000000000000000000000000000000000000000000000 DUP2 MSTORE PUSH1 0x4 ADD PUSH2 0x18C0 SWAP1 PUSH2 0x5577 JUMP JUMPDEST PUSH1 0x40 MLOAD DUP1 SWAP2 SUB SWAP1 REVERT JUMPDEST DUP2 PUSH2 0x100 PUSH1 0x0 PUSH2 0x100 EXP DUP2 SLOAD DUP2 PUSH20 0xFFFFFFFFFFFFFFFFFFFFFFFFFFFFFFFFFFFFFFFF MUL NOT AND SWAP1 DUP4 PUSH20 0xFFFFFFFFFFFFFFFFFFFFFFFFFFFFFFFFFFFFFFFF AND MUL OR SWAP1 SSTORE POP POP POP JUMP JUMPDEST PUSH1 0x0 PUSH1 0x65 PUSH1 0x0 DUP4 DUP2 MSTORE PUSH1 0x20 ADD SWAP1 DUP2 MSTORE PUSH1 0x20 ADD PUSH1 0x0 KECCAK256 PUSH1 0x1 ADD SLOAD SWAP1 POP SWAP2 SWAP1 POP JUMP JUMPDEST PUSH1 0x0 PUSH2 0x1945 DUP3 PUSH1 0xFB PUSH2 0x2F3F SWAP1 SWAP2 SWAP1 PUSH4 0xFFFFFFFF AND JUMP JUMPDEST SWAP1 POP SWAP2 SWAP1 POP JUMP JUMPDEST PUSH1 0x60 PUSH1 0xFD DUP1 SLOAD DUP1 PUSH1 0x20 MUL PUSH1 0x20 ADD PUSH1 0x40 MLOAD SWAP1 DUP2 ADD PUSH1 0x40 MSTORE DUP1 SWAP3 SWAP2 SWAP1 DUP2 DUP2 MSTORE PUSH1 0x20 ADD PUSH1 0x0 SWAP1 JUMPDEST DUP3 DUP3 LT ISZERO PUSH2 0x1A1C JUMPI DUP4 DUP3 SWAP1 PUSH1 0x0 MSTORE PUSH1 0x20 PUSH1 0x0 KECCAK256 ADD DUP1 SLOAD PUSH2 0x198F SWAP1 PUSH2 0x471F JUMP JUMPDEST DUP1 PUSH1 0x1F ADD PUSH1 0x20 DUP1 SWAP2 DIV MUL PUSH1 0x20 ADD PUSH1 0x40 MLOAD SWAP1 DUP2 ADD PUSH1 0x40 MSTORE DUP1 SWAP3 SWAP2 SWAP1 DUP2 DUP2 MSTORE PUSH1 0x20 ADD DUP3 DUP1 SLOAD PUSH2 0x19BB SWAP1 PUSH2 0x471F JUMP JUMPDEST DUP1 ISZERO PUSH2 0x1A08 JUMPI DUP1 PUSH1 0x1F LT PUSH2 0x19DD JUMPI PUSH2 0x100 DUP1 DUP4 SLOAD DIV MUL DUP4 MSTORE SWAP2 PUSH1 0x20 ADD SWAP2 PUSH2 0x1A08 JUMP JUMPDEST DUP3 ADD SWAP2 SWAP1 PUSH1 0x0 MSTORE PUSH1 0x20 PUSH1 0x0 KECCAK256 SWAP1 JUMPDEST DUP2 SLOAD DUP2 MSTORE SWAP1 PUSH1 0x1 ADD SWAP1 PUSH1 0x20 ADD DUP1 DUP4 GT PUSH2 0x19EB JUMPI DUP3 SWAP1 SUB PUSH1 0x1F AND DUP3 ADD SWAP2 JUMPDEST POP POP POP POP POP DUP2 MSTORE PUSH1 0x20 ADD SWAP1 PUSH1 0x1 ADD SWAP1 PUSH2 0x1970 JUMP JUMPDEST POP POP POP POP SWAP1 POP SWAP1 JUMP JUMPDEST PUSH2 0x1A2E DUP3 PUSH2 0x190F JUMP JUMPDEST PUSH2 0x1A37 DUP2 PUSH2 0x2CD0 JUMP JUMPDEST PUSH2 0x1A41 DUP4 DUP4 PUSH2 0x2EAF JUMP JUMPDEST POP POP POP JUMP JUMPDEST PUSH32 0xD2761B102BDA9831F4AF400CC824B8CECB9CC5C1C85C51ACB1479DB9735FBFC6 PUSH2 0x1A70 DUP2 PUSH2 0x2CD0 JUMP JUMPDEST PUSH1 0x0 PUSH1 0xFE PUSH1 0x40 MLOAD PUSH2 0x1A80 SWAP1 PUSH2 0x3AE3 JUMP JUMPDEST SWAP1 DUP2 MSTORE PUSH1 0x20 ADD PUSH1 0x40 MLOAD DUP1 SWAP2 SUB SWAP1 KECCAK256 PUSH1 0x0 SWAP1 SLOAD SWAP1 PUSH2 0x100 EXP SWAP1 DIV PUSH20 0xFFFFFFFFFFFFFFFFFFFFFFFFFFFFFFFFFFFFFFFF AND SWAP1 POP PUSH1 0x0 PUSH1 0xFE PUSH1 0x40 MLOAD PUSH2 0x1AC1 SWAP1 PUSH2 0x55E3 JUMP JUMPDEST SWAP1 DUP2 MSTORE PUSH1 0x20 ADD PUSH1 0x40 MLOAD DUP1 SWAP2 SUB SWAP1 KECCAK256 PUSH1 0x0 SWAP1 SLOAD SWAP1 PUSH2 0x100 EXP SWAP1 DIV PUSH20 0xFFFFFFFFFFFFFFFFFFFFFFFFFFFFFFFFFFFFFFFF AND SWAP1 POP PUSH1 0x0 JUMPDEST DUP6 DUP6 SWAP1 POP DUP2 LT ISZERO PUSH2 0x22B5 JUMPI CALLDATASIZE DUP7 DUP7 DUP4 DUP2 DUP2 LT PUSH2 0x1B14 JUMPI PUSH2 0x1B13 PUSH2 0x468D JUMP JUMPDEST JUMPDEST SWAP1 POP PUSH1 0x20 MUL DUP2 ADD SWAP1 PUSH2 0x1B26 SWAP2 SWAP1 PUSH2 0x55F8 JUMP JUMPDEST SWAP1 POP ADDRESS PUSH20 0xFFFFFFFFFFFFFFFFFFFFFFFFFFFFFFFFFFFFFFFF AND DUP2 DUP1 PUSH1 0x0 ADD SWAP1 PUSH2 0x1B4F SWAP2 SWAP1 PUSH2 0x5620 JUMP JUMPDEST PUSH1 0x20 ADD PUSH1 0x20 DUP2 ADD SWAP1 PUSH2 0x1B61 SWAP2 SWAP1 PUSH2 0x406E JUMP JUMPDEST PUSH20 0xFFFFFFFFFFFFFFFFFFFFFFFFFFFFFFFFFFFFFFFF AND EQ PUSH2 0x1BB7 JUMPI PUSH1 0x40 MLOAD PUSH32 0x8C379A000000000000000000000000000000000000000000000000000000000 DUP2 MSTORE PUSH1 0x4 ADD PUSH2 0x1BAE SWAP1 PUSH2 0x5694 JUMP JUMPDEST PUSH1 0x40 MLOAD DUP1 SWAP2 SUB SWAP1 REVERT JUMPDEST PUSH1 0x0 DUP2 DUP1 PUSH1 0x0 ADD SWAP1 PUSH2 0x1BC9 SWAP2 SWAP1 PUSH2 0x5620 JUMP JUMPDEST PUSH1 0x80 ADD CALLDATALOAD GT PUSH2 0x1C0D JUMPI PUSH1 0x40 MLOAD PUSH32 0x8C379A000000000000000000000000000000000000000000000000000000000 DUP2 MSTORE PUSH1 0x4 ADD PUSH2 0x1C04 SWAP1 PUSH2 0x5700 JUMP JUMPDEST PUSH1 0x40 MLOAD DUP1 SWAP2 SUB SWAP1 REVERT JUMPDEST PUSH2 0x1C28 DUP2 PUSH1 0x40 ADD PUSH1 0x20 DUP2 ADD SWAP1 PUSH2 0x1C23 SWAP2 SWAP1 PUSH2 0x406E JUMP JUMPDEST PUSH2 0x2F56 JUMP JUMPDEST PUSH2 0x1C67 JUMPI PUSH1 0x40 MLOAD PUSH32 0x8C379A000000000000000000000000000000000000000000000000000000000 DUP2 MSTORE PUSH1 0x4 ADD PUSH2 0x1C5E SWAP1 PUSH2 0x576C JUMP JUMPDEST PUSH1 0x40 MLOAD DUP1 SWAP2 SUB SWAP1 REVERT JUMPDEST DUP4 PUSH20 0xFFFFFFFFFFFFFFFFFFFFFFFFFFFFFFFFFFFFFFFF AND DUP2 PUSH1 0x20 ADD PUSH1 0x20 DUP2 ADD SWAP1 PUSH2 0x1C91 SWAP2 SWAP1 PUSH2 0x406E JUMP JUMPDEST PUSH20 0xFFFFFFFFFFFFFFFFFFFFFFFFFFFFFFFFFFFFFFFF AND EQ DUP1 PUSH2 0x1CF0 JUMPI POP DUP3 PUSH20 0xFFFFFFFFFFFFFFFFFFFFFFFFFFFFFFFFFFFFFFFF AND DUP2 PUSH1 0x20 ADD PUSH1 0x20 DUP2 ADD SWAP1 PUSH2 0x1CD8 SWAP2 SWAP1 PUSH2 0x406E JUMP JUMPDEST PUSH20 0xFFFFFFFFFFFFFFFFFFFFFFFFFFFFFFFFFFFFFFFF AND EQ JUMPDEST PUSH2 0x1D2F JUMPI PUSH1 0x40 MLOAD PUSH32 0x8C379A000000000000000000000000000000000000000000000000000000000 DUP2 MSTORE PUSH1 0x4 ADD PUSH2 0x1D26 SWAP1 PUSH2 0x57D8 JUMP JUMPDEST PUSH1 0x40 MLOAD DUP1 SWAP2 SUB SWAP1 REVERT JUMPDEST PUSH1 0x0 DUP2 PUSH1 0x20 ADD PUSH1 0x20 DUP2 ADD SWAP1 PUSH2 0x1D44 SWAP2 SWAP1 PUSH2 0x406E JUMP JUMPDEST SWAP1 POP PUSH1 0x0 DUP3 DUP1 PUSH1 0x0 ADD SWAP1 PUSH2 0x1D58 SWAP2 SWAP1 PUSH2 0x5620 JUMP JUMPDEST PUSH1 0x60 ADD CALLDATALOAD GT DUP1 ISZERO PUSH2 0x1DF5 JUMPI POP DUP1 PUSH20 0xFFFFFFFFFFFFFFFFFFFFFFFFFFFFFFFFFFFFFFFF AND PUSH4 0x70A08231 ADDRESS PUSH1 0x40 MLOAD DUP3 PUSH4 0xFFFFFFFF AND PUSH1 0xE0 SHL DUP2 MSTORE PUSH1 0x4 ADD PUSH2 0x1D9D SWAP2 SWAP1 PUSH2 0x3E60 JUMP JUMPDEST PUSH1 0x20 PUSH1 0x40 MLOAD DUP1 DUP4 SUB DUP2 DUP7 GAS STATICCALL ISZERO DUP1 ISZERO PUSH2 0x1DBA JUMPI RETURNDATASIZE PUSH1 0x0 DUP1 RETURNDATACOPY RETURNDATASIZE PUSH1 0x0 REVERT JUMPDEST POP POP POP POP PUSH1 0x40 MLOAD RETURNDATASIZE PUSH1 0x1F NOT PUSH1 0x1F DUP3 ADD AND DUP3 ADD DUP1 PUSH1 0x40 MSTORE POP DUP2 ADD SWAP1 PUSH2 0x1DDE SWAP2 SWAP1 PUSH2 0x580D JUMP JUMPDEST DUP3 DUP1 PUSH1 0x0 ADD SWAP1 PUSH2 0x1DEE SWAP2 SWAP1 PUSH2 0x5620 JUMP JUMPDEST PUSH1 0x60 ADD CALLDATALOAD GT ISZERO JUMPDEST PUSH2 0x1E34 JUMPI PUSH1 0x40 MLOAD PUSH32 0x8C379A000000000000000000000000000000000000000000000000000000000 DUP2 MSTORE PUSH1 0x4 ADD PUSH2 0x1E2B SWAP1 PUSH2 0x5886 JUMP JUMPDEST PUSH1 0x40 MLOAD DUP1 SWAP2 SUB SWAP1 REVERT JUMPDEST PUSH1 0x0 DUP3 PUSH1 0x40 ADD PUSH1 0x20 DUP2 ADD SWAP1 PUSH2 0x1E49 SWAP2 SWAP1 PUSH2 0x406E JUMP JUMPDEST PUSH20 0xFFFFFFFFFFFFFFFFFFFFFFFFFFFFFFFFFFFFFFFF AND PUSH4 0x70A08231 ADDRESS PUSH1 0x40 MLOAD DUP3 PUSH4 0xFFFFFFFF AND PUSH1 0xE0 SHL DUP2 MSTORE PUSH1 0x4 ADD PUSH2 0x1E81 SWAP2 SWAP1 PUSH2 0x3E60 JUMP JUMPDEST PUSH1 0x20 PUSH1 0x40 MLOAD DUP1 DUP4 SUB DUP2 DUP7 GAS STATICCALL ISZERO DUP1 ISZERO PUSH2 0x1E9E JUMPI RETURNDATASIZE PUSH1 0x0 DUP1 RETURNDATACOPY RETURNDATASIZE PUSH1 0x0 REVERT JUMPDEST POP POP POP POP PUSH1 0x40 MLOAD RETURNDATASIZE PUSH1 0x1F NOT PUSH1 0x1F DUP3 ADD AND DUP3 ADD DUP1 PUSH1 0x40 MSTORE POP DUP2 ADD SWAP1 PUSH2 0x1EC2 SWAP2 SWAP1 PUSH2 0x580D JUMP JUMPDEST SWAP1 POP PUSH2 0x1F1F DUP3 PUSH2 0x101 PUSH1 0x40 MLOAD PUSH2 0x1ED7 SWAP1 PUSH2 0x4F70 JUMP JUMPDEST SWAP1 DUP2 MSTORE PUSH1 0x20 ADD PUSH1 0x40 MLOAD DUP1 SWAP2 SUB SWAP1 KECCAK256 PUSH1 0x0 SWAP1 SLOAD SWAP1 PUSH2 0x100 EXP SWAP1 DIV PUSH20 0xFFFFFFFFFFFFFFFFFFFFFFFFFFFFFFFFFFFFFFFF AND DUP6 DUP1 PUSH1 0x0 ADD SWAP1 PUSH2 0x1F16 SWAP2 SWAP1 PUSH2 0x5620 JUMP JUMPDEST PUSH1 0x60 ADD CALLDATALOAD PUSH2 0x2D33 JUMP JUMPDEST PUSH1 0x0 DUP1 PUSH1 0xF8 SHL PUSH1 0x40 MLOAD PUSH1 0x20 ADD PUSH2 0x1F35 SWAP2 SWAP1 PUSH2 0x58F3 JUMP JUMPDEST PUSH1 0x40 MLOAD PUSH1 0x20 DUP2 DUP4 SUB SUB DUP2 MSTORE SWAP1 PUSH1 0x40 MSTORE SWAP1 POP PUSH1 0x0 PUSH1 0x1 PUSH8 0xFFFFFFFFFFFFFFFF DUP2 GT ISZERO PUSH2 0x1F63 JUMPI PUSH2 0x1F62 PUSH2 0x440C JUMP JUMPDEST JUMPDEST PUSH1 0x40 MLOAD SWAP1 DUP1 DUP3 MSTORE DUP1 PUSH1 0x20 MUL PUSH1 0x20 ADD DUP3 ADD PUSH1 0x40 MSTORE DUP1 ISZERO PUSH2 0x1F96 JUMPI DUP2 PUSH1 0x20 ADD JUMPDEST PUSH1 0x60 DUP2 MSTORE PUSH1 0x20 ADD SWAP1 PUSH1 0x1 SWAP1 SUB SWAP1 DUP2 PUSH2 0x1F81 JUMPI SWAP1 POP JUMPDEST POP SWAP1 POP DUP5 DUP1 PUSH1 0x0 ADD SWAP1 PUSH2 0x1FA9 SWAP2 SWAP1 PUSH2 0x5620 JUMP JUMPDEST PUSH1 0x20 ADD PUSH1 0x20 DUP2 ADD SWAP1 PUSH2 0x1FBB SWAP2 SWAP1 PUSH2 0x406E JUMP JUMPDEST DUP6 DUP1 PUSH1 0x0 ADD SWAP1 PUSH2 0x1FCB SWAP2 SWAP1 PUSH2 0x5620 JUMP JUMPDEST PUSH1 0x60 ADD CALLDATALOAD DUP7 DUP1 PUSH1 0x0 ADD SWAP1 PUSH2 0x1FDF SWAP2 SWAP1 PUSH2 0x5620 JUMP JUMPDEST PUSH1 0x80 ADD CALLDATALOAD DUP8 DUP1 PUSH1 0x0 ADD SWAP1 PUSH2 0x1FF3 SWAP2 SWAP1 PUSH2 0x5620 JUMP JUMPDEST DUP1 PUSH1 0x0 ADD SWAP1 PUSH2 0x2002 SWAP2 SWAP1 PUSH2 0x590E JUMP JUMPDEST PUSH1 0x0 PUSH1 0x40 MLOAD PUSH1 0x20 ADD PUSH2 0x2019 SWAP7 SWAP6 SWAP5 SWAP4 SWAP3 SWAP2 SWAP1 PUSH2 0x59AF JUMP JUMPDEST PUSH1 0x40 MLOAD PUSH1 0x20 DUP2 DUP4 SUB SUB DUP2 MSTORE SWAP1 PUSH1 0x40 MSTORE DUP2 PUSH1 0x0 DUP2 MLOAD DUP2 LT PUSH2 0x203C JUMPI PUSH2 0x203B PUSH2 0x468D JUMP JUMPDEST JUMPDEST PUSH1 0x20 MUL PUSH1 0x20 ADD ADD DUP2 SWAP1 MSTORE POP PUSH2 0x101 PUSH1 0x40 MLOAD PUSH2 0x2056 SWAP1 PUSH2 0x4F70 JUMP JUMPDEST SWAP1 DUP2 MSTORE PUSH1 0x20 ADD PUSH1 0x40 MLOAD DUP1 SWAP2 SUB SWAP1 KECCAK256 PUSH1 0x0 SWAP1 SLOAD SWAP1 PUSH2 0x100 EXP SWAP1 DIV PUSH20 0xFFFFFFFFFFFFFFFFFFFFFFFFFFFFFFFFFFFFFFFF AND PUSH20 0xFFFFFFFFFFFFFFFFFFFFFFFFFFFFFFFFFFFFFFFF AND PUSH4 0x3593564C DUP4 DUP4 DUP9 DUP1 PUSH1 0x0 ADD SWAP1 PUSH2 0x20B2 SWAP2 SWAP1 PUSH2 0x5620 JUMP JUMPDEST PUSH1 0x40 ADD CALLDATALOAD PUSH1 0x40 MLOAD DUP5 PUSH4 0xFFFFFFFF AND PUSH1 0xE0 SHL DUP2 MSTORE PUSH1 0x4 ADD PUSH2 0x20D4 SWAP4 SWAP3 SWAP2 SWAP1 PUSH2 0x5B5B JUMP JUMPDEST PUSH1 0x0 PUSH1 0x40 MLOAD DUP1 DUP4 SUB DUP2 PUSH1 0x0 DUP8 DUP1 EXTCODESIZE ISZERO DUP1 ISZERO PUSH2 0x20EE JUMPI PUSH1 0x0 DUP1 REVERT JUMPDEST POP GAS CALL SWAP3 POP POP POP DUP1 ISZERO PUSH2 0x20FF JUMPI POP PUSH1 0x1 JUMPDEST PUSH2 0x218C JUMPI PUSH2 0x210B PUSH2 0x5BAD JUMP JUMPDEST DUP1 PUSH4 0x8C379A0 SUB PUSH2 0x217B JUMPI POP PUSH2 0x211F PUSH2 0x5BCF JUMP JUMPDEST DUP1 PUSH2 0x212A JUMPI POP PUSH2 0x217D JUMP JUMPDEST PUSH32 0x48DBF1F65DC9FB918DCF47A87D0D7DBFE9CD78BCFAEA409049EE36785201CB91 DUP7 PUSH1 0x20 ADD PUSH1 0x20 DUP2 ADD SWAP1 PUSH2 0x215E SWAP2 SWAP1 PUSH2 0x406E JUMP JUMPDEST DUP3 PUSH1 0x40 MLOAD PUSH2 0x216D SWAP3 SWAP2 SWAP1 PUSH2 0x5C5F JUMP JUMPDEST PUSH1 0x40 MLOAD DUP1 SWAP2 SUB SWAP1 LOG1 POP PUSH2 0x2187 JUMP JUMPDEST POP JUMPDEST RETURNDATASIZE PUSH1 0x0 DUP1 RETURNDATACOPY RETURNDATASIZE PUSH1 0x0 REVERT JUMPDEST PUSH2 0x229D JUMP JUMPDEST PUSH1 0x0 DUP6 PUSH1 0x40 ADD PUSH1 0x20 DUP2 ADD SWAP1 PUSH2 0x21A1 SWAP2 SWAP1 PUSH2 0x406E JUMP JUMPDEST PUSH20 0xFFFFFFFFFFFFFFFFFFFFFFFFFFFFFFFFFFFFFFFF AND PUSH4 0x70A08231 ADDRESS PUSH1 0x40 MLOAD DUP3 PUSH4 0xFFFFFFFF AND PUSH1 0xE0 SHL DUP2 MSTORE PUSH1 0x4 ADD PUSH2 0x21D9 SWAP2 SWAP1 PUSH2 0x3E60 JUMP JUMPDEST PUSH1 0x20 PUSH1 0x40 MLOAD DUP1 DUP4 SUB DUP2 DUP7 GAS STATICCALL ISZERO DUP1 ISZERO PUSH2 0x21F6 JUMPI RETURNDATASIZE PUSH1 0x0 DUP1 RETURNDATACOPY RETURNDATASIZE PUSH1 0x0 REVERT JUMPDEST POP POP POP POP PUSH1 0x40 MLOAD RETURNDATASIZE PUSH1 0x1F NOT PUSH1 0x1F DUP3 ADD AND DUP3 ADD DUP1 PUSH1 0x40 MSTORE POP DUP2 ADD SWAP1 PUSH2 0x221A SWAP2 SWAP1 PUSH2 0x580D JUMP JUMPDEST SWAP1 POP PUSH32 0xFA2DDA1CC1B86E41239702756B13EFFBC1A092B5C57E3AD320FBE4F3B13FE235 DUP7 PUSH1 0x20 ADD PUSH1 0x20 DUP2 ADD SWAP1 PUSH2 0x2250 SWAP2 SWAP1 PUSH2 0x406E JUMP JUMPDEST DUP8 PUSH1 0x40 ADD PUSH1 0x20 DUP2 ADD SWAP1 PUSH2 0x2263 SWAP2 SWAP1 PUSH2 0x406E JUMP JUMPDEST DUP9 DUP1 PUSH1 0x0 ADD SWAP1 PUSH2 0x2273 SWAP2 SWAP1 PUSH2 0x5620 JUMP JUMPDEST PUSH1 0x60 ADD CALLDATALOAD DUP8 DUP6 PUSH2 0x2283 SWAP2 SWAP1 PUSH2 0x46BC JUMP JUMPDEST PUSH1 0x40 MLOAD PUSH2 0x2293 SWAP5 SWAP4 SWAP3 SWAP2 SWAP1 PUSH2 0x5C8F JUMP JUMPDEST PUSH1 0x40 MLOAD DUP1 SWAP2 SUB SWAP1 LOG1 POP JUMPDEST POP POP POP POP POP DUP1 DUP1 PUSH2 0x22AD SWAP1 PUSH2 0x4750 JUMP JUMPDEST SWAP2 POP POP PUSH2 0x1AF5 JUMP JUMPDEST POP POP POP POP POP POP JUMP JUMPDEST PUSH1 0xFD DUP2 DUP2 SLOAD DUP2 LT PUSH2 0x22CD JUMPI PUSH1 0x0 DUP1 REVERT JUMPDEST SWAP1 PUSH1 0x0 MSTORE PUSH1 0x20 PUSH1 0x0 KECCAK256 ADD PUSH1 0x0 SWAP2 POP SWAP1 POP DUP1 SLOAD PUSH2 0x22E8 SWAP1 PUSH2 0x471F JUMP JUMPDEST DUP1 PUSH1 0x1F ADD PUSH1 0x20 DUP1 SWAP2 DIV MUL PUSH1 0x20 ADD PUSH1 0x40 MLOAD SWAP1 DUP2 ADD PUSH1 0x40 MSTORE DUP1 SWAP3 SWAP2 SWAP1 DUP2 DUP2 MSTORE PUSH1 0x20 ADD DUP3 DUP1 SLOAD PUSH2 0x2314 SWAP1 PUSH2 0x471F JUMP JUMPDEST DUP1 ISZERO PUSH2 0x2361 JUMPI DUP1 PUSH1 0x1F LT PUSH2 0x2336 JUMPI PUSH2 0x100 DUP1 DUP4 SLOAD DIV MUL DUP4 MSTORE SWAP2 PUSH1 0x20 ADD SWAP2 PUSH2 0x2361 JUMP JUMPDEST DUP3 ADD SWAP2 SWAP1 PUSH1 0x0 MSTORE PUSH1 0x20 PUSH1 0x0 KECCAK256 SWAP1 JUMPDEST DUP2 SLOAD DUP2 MSTORE SWAP1 PUSH1 0x1 ADD SWAP1 PUSH1 0x20 ADD DUP1 DUP4 GT PUSH2 0x2344 JUMPI DUP3 SWAP1 SUB PUSH1 0x1F AND DUP3 ADD SWAP2 JUMPDEST POP POP POP POP POP DUP2 JUMP JUMPDEST PUSH32 0xFD37F88A14D7ED985885A1AF8F2AD5B64DD7EB00AB89168649791632BB9BB4A6 DUP2 JUMP JUMPDEST PUSH1 0x0 DUP1 PUSH1 0xFE DUP4 PUSH1 0x40 MLOAD PUSH2 0x23A0 SWAP2 SWAP1 PUSH2 0x5D05 JUMP JUMPDEST SWAP1 DUP2 MSTORE PUSH1 0x20 ADD PUSH1 0x40 MLOAD DUP1 SWAP2 SUB SWAP1 KECCAK256 PUSH1 0x0 SWAP1 SLOAD SWAP1 PUSH2 0x100 EXP SWAP1 DIV PUSH20 0xFFFFFFFFFFFFFFFFFFFFFFFFFFFFFFFFFFFFFFFF AND SWAP1 POP DUP1 PUSH20 0xFFFFFFFFFFFFFFFFFFFFFFFFFFFFFFFFFFFFFFFF AND PUSH4 0x70A08231 ADDRESS PUSH1 0x40 MLOAD DUP3 PUSH4 0xFFFFFFFF AND PUSH1 0xE0 SHL DUP2 MSTORE PUSH1 0x4 ADD PUSH2 0x240A SWAP2 SWAP1 PUSH2 0x3E60 JUMP JUMPDEST PUSH1 0x20 PUSH1 0x40 MLOAD DUP1 DUP4 SUB DUP2 DUP7 GAS STATICCALL ISZERO DUP1 ISZERO PUSH2 0x2427 JUMPI RETURNDATASIZE PUSH1 0x0 DUP1 RETURNDATACOPY RETURNDATASIZE PUSH1 0x0 REVERT JUMPDEST POP POP POP POP PUSH1 0x40 MLOAD RETURNDATASIZE PUSH1 0x1F NOT PUSH1 0x1F DUP3 ADD AND DUP3 ADD DUP1 PUSH1 0x40 MSTORE POP DUP2 ADD SWAP1 PUSH2 0x244B SWAP2 SWAP1 PUSH2 0x580D JUMP JUMPDEST SWAP2 POP POP SWAP2 SWAP1 POP JUMP JUMPDEST PUSH2 0x245B PUSH2 0x2DB9 JUMP JUMPDEST PUSH20 0xFFFFFFFFFFFFFFFFFFFFFFFFFFFFFFFFFFFFFFFF AND DUP2 PUSH20 0xFFFFFFFFFFFFFFFFFFFFFFFFFFFFFFFFFFFFFFFF AND EQ PUSH2 0x24C8 JUMPI PUSH1 0x40 MLOAD PUSH32 0x8C379A000000000000000000000000000000000000000000000000000000000 DUP2 MSTORE PUSH1 0x4 ADD PUSH2 0x24BF SWAP1 PUSH2 0x5D8E JUMP JUMPDEST PUSH1 0x40 MLOAD DUP1 SWAP2 SUB SWAP1 REVERT JUMPDEST PUSH2 0x24D2 DUP3 DUP3 PUSH2 0x3021 JUMP JUMPDEST POP POP JUMP JUMPDEST PUSH1 0x60 PUSH1 0x40 MLOAD DUP1 PUSH1 0x40 ADD PUSH1 0x40 MSTORE DUP1 PUSH1 0x5 DUP2 MSTORE PUSH1 0x20 ADD PUSH32 0x322E302E30000000000000000000000000000000000000000000000000000000 DUP2 MSTORE POP SWAP1 POP SWAP1 JUMP JUMPDEST PUSH1 0xFE DUP2 DUP1 MLOAD PUSH1 0x20 DUP2 ADD DUP3 ADD DUP1 MLOAD DUP5 DUP3 MSTORE PUSH1 0x20 DUP4 ADD PUSH1 0x20 DUP6 ADD KECCAK256 DUP2 DUP4 MSTORE DUP1 SWAP6 POP POP POP POP POP POP PUSH1 0x0 SWAP2 POP SLOAD SWAP1 PUSH2 0x100 EXP SWAP1 DIV PUSH20 0xFFFFFFFFFFFFFFFFFFFFFFFFFFFFFFFFFFFFFFFF AND DUP2 JUMP JUMPDEST PUSH1 0x0 DUP3 PUSH20 0xFFFFFFFFFFFFFFFFFFFFFFFFFFFFFFFFFFFFFFFF AND PUSH1 0xFE PUSH1 0x40 MLOAD PUSH2 0x2583 SWAP1 PUSH2 0x55E3 JUMP JUMPDEST SWAP1 DUP2 MSTORE PUSH1 0x20 ADD PUSH1 0x40 MLOAD DUP1 SWAP2 SUB SWAP1 KECCAK256 PUSH1 0x0 SWAP1 SLOAD SWAP1 PUSH2 0x100 EXP SWAP1 DIV PUSH20 0xFFFFFFFFFFFFFFFFFFFFFFFFFFFFFFFFFFFFFFFF AND PUSH20 0xFFFFFFFFFFFFFFFFFFFFFFFFFFFFFFFFFFFFFFFF AND EQ DUP1 PUSH2 0x263B JUMPI POP DUP3 PUSH20 0xFFFFFFFFFFFFFFFFFFFFFFFFFFFFFFFFFFFFFFFF AND PUSH1 0xFE PUSH1 0x40 MLOAD PUSH2 0x25F4 SWAP1 PUSH2 0x3AE3 JUMP JUMPDEST SWAP1 DUP2 MSTORE PUSH1 0x20 ADD PUSH1 0x40 MLOAD DUP1 SWAP2 SUB SWAP1 KECCAK256 PUSH1 0x0 SWAP1 SLOAD SWAP1 PUSH2 0x100 EXP SWAP1 DIV PUSH20 0xFFFFFFFFFFFFFFFFFFFFFFFFFFFFFFFFFFFFFFFF AND PUSH20 0xFFFFFFFFFFFFFFFFFFFFFFFFFFFFFFFFFFFFFFFF AND EQ JUMPDEST PUSH2 0x267A JUMPI PUSH1 0x40 MLOAD PUSH32 0x8C379A000000000000000000000000000000000000000000000000000000000 DUP2 MSTORE PUSH1 0x4 ADD PUSH2 0x2671 SWAP1 PUSH2 0x5DFA JUMP JUMPDEST PUSH1 0x40 MLOAD DUP1 SWAP2 SUB SWAP1 REVERT JUMPDEST PUSH1 0x60 PUSH1 0xFE PUSH1 0x40 MLOAD PUSH2 0x268A SWAP1 PUSH2 0x55E3 JUMP JUMPDEST SWAP1 DUP2 MSTORE PUSH1 0x20 ADD PUSH1 0x40 MLOAD DUP1 SWAP2 SUB SWAP1 KECCAK256 PUSH1 0x0 SWAP1 SLOAD SWAP1 PUSH2 0x100 EXP SWAP1 DIV PUSH20 0xFFFFFFFFFFFFFFFFFFFFFFFFFFFFFFFFFFFFFFFF AND PUSH20 0xFFFFFFFFFFFFFFFFFFFFFFFFFFFFFFFFFFFFFFFF AND DUP5 PUSH20 0xFFFFFFFFFFFFFFFFFFFFFFFFFFFFFFFFFFFFFFFF AND SUB PUSH2 0x270B JUMPI PUSH1 0x40 MLOAD DUP1 PUSH1 0x80 ADD PUSH1 0x40 MSTORE DUP1 PUSH1 0x42 DUP2 MSTORE PUSH1 0x20 ADD PUSH2 0x66EA PUSH1 0x42 SWAP2 CODECOPY SWAP1 POP PUSH2 0x2727 JUMP JUMPDEST PUSH1 0x40 MLOAD DUP1 PUSH1 0x60 ADD PUSH1 0x40 MSTORE DUP1 PUSH1 0x2B DUP2 MSTORE PUSH1 0x20 ADD PUSH2 0x66BF PUSH1 0x2B SWAP2 CODECOPY SWAP1 POP JUMPDEST PUSH1 0x0 PUSH1 0x60 DUP1 PUSH1 0x0 PUSH2 0x106 PUSH1 0x0 SWAP1 SLOAD SWAP1 PUSH2 0x100 EXP SWAP1 DIV PUSH20 0xFFFFFFFFFFFFFFFFFFFFFFFFFFFFFFFFFFFFFFFF AND PUSH20 0xFFFFFFFFFFFFFFFFFFFFFFFFFFFFFFFFFFFFFFFF AND PUSH4 0xCDCA1753 DUP7 DUP10 PUSH1 0x40 MLOAD DUP4 PUSH4 0xFFFFFFFF AND PUSH1 0xE0 SHL DUP2 MSTORE PUSH1 0x4 ADD PUSH2 0x278C SWAP3 SWAP2 SWAP1 PUSH2 0x5E1A JUMP JUMPDEST PUSH1 0x0 PUSH1 0x40 MLOAD DUP1 DUP4 SUB DUP2 PUSH1 0x0 DUP8 GAS CALL ISZERO DUP1 ISZERO PUSH2 0x27AB JUMPI RETURNDATASIZE PUSH1 0x0 DUP1 RETURNDATACOPY RETURNDATASIZE PUSH1 0x0 REVERT JUMPDEST POP POP POP POP PUSH1 0x40 MLOAD RETURNDATASIZE PUSH1 0x0 DUP3 RETURNDATACOPY RETURNDATASIZE PUSH1 0x1F NOT PUSH1 0x1F DUP3 ADD AND DUP3 ADD DUP1 PUSH1 0x40 MSTORE POP DUP2 ADD SWAP1 PUSH2 0x27D4 SWAP2 SWAP1 PUSH2 0x6038 JUMP JUMPDEST DUP1 SWAP5 POP DUP2 SWAP6 POP DUP3 SWAP7 POP DUP4 SWAP8 POP POP POP POP POP DUP4 SWAP6 POP POP POP POP POP POP SWAP3 SWAP2 POP POP JUMP JUMPDEST PUSH32 0xBFFB4FAF8A508F503A2CA036EFFD0BC1F82615D3EBFDDB934EDF718F23672707 DUP2 JUMP JUMPDEST PUSH1 0x0 PUSH2 0x2822 PUSH1 0xFB PUSH2 0x3055 JUMP JUMPDEST SWAP1 POP SWAP1 JUMP JUMPDEST PUSH1 0x0 PUSH2 0x284E DUP3 PUSH1 0x97 PUSH1 0x0 DUP7 DUP2 MSTORE PUSH1 0x20 ADD SWAP1 DUP2 MSTORE PUSH1 0x20 ADD PUSH1 0x0 KECCAK256 PUSH2 0x306A SWAP1 SWAP2 SWAP1 PUSH4 0xFFFFFFFF AND JUMP JUMPDEST SWAP1 POP SWAP3 SWAP2 POP POP JUMP JUMPDEST PUSH1 0x0 PUSH1 0x65 PUSH1 0x0 DUP5 DUP2 MSTORE PUSH1 0x20 ADD SWAP1 DUP2 MSTORE PUSH1 0x20 ADD PUSH1 0x0 KECCAK256 PUSH1 0x0 ADD PUSH1 0x0 DUP4 PUSH20 0xFFFFFFFFFFFFFFFFFFFFFFFFFFFFFFFFFFFFFFFF AND PUSH20 0xFFFFFFFFFFFFFFFFFFFFFFFFFFFFFFFFFFFFFFFF AND DUP2 MSTORE PUSH1 0x20 ADD SWAP1 DUP2 MSTORE PUSH1 0x20 ADD PUSH1 0x0 KECCAK256 PUSH1 0x0 SWAP1 SLOAD SWAP1 PUSH2 0x100 EXP SWAP1 DIV PUSH1 0xFF AND SWAP1 POP SWAP3 SWAP2 POP POP JUMP JUMPDEST PUSH1 0x0 DUP1 SHL DUP2 JUMP JUMPDEST PUSH2 0x100 PUSH1 0x0 SWAP1 SLOAD SWAP1 PUSH2 0x100 EXP SWAP1 DIV PUSH20 0xFFFFFFFFFFFFFFFFFFFFFFFFFFFFFFFFFFFFFFFF AND DUP2 JUMP JUMPDEST PUSH1 0x0 PUSH2 0x290C PUSH1 0x97 PUSH1 0x0 DUP5 DUP2 MSTORE PUSH1 0x20 ADD SWAP1 DUP2 MSTORE PUSH1 0x20 ADD PUSH1 0x0 KECCAK256 PUSH2 0x3084 JUMP JUMPDEST SWAP1 POP SWAP2 SWAP1 POP JUMP JUMPDEST PUSH32 0xFAAD79A708D82D095486F5A83B18341F12A8F717D3011AB929D43135C1AF73E2 PUSH2 0x293D DUP2 PUSH2 0x2CD0 JUMP JUMPDEST PUSH1 0x0 PUSH20 0xFFFFFFFFFFFFFFFFFFFFFFFFFFFFFFFFFFFFFFFF AND DUP3 PUSH20 0xFFFFFFFFFFFFFFFFFFFFFFFFFFFFFFFFFFFFFFFF AND SUB PUSH2 0x29AC JUMPI PUSH1 0x40 MLOAD PUSH32 0x8C379A000000000000000000000000000000000000000000000000000000000 DUP2 MSTORE PUSH1 0x4 ADD PUSH2 0x29A3 SWAP1 PUSH2 0x6123 JUMP JUMPDEST PUSH1 0x40 MLOAD DUP1 SWAP2 SUB SWAP1 REVERT JUMPDEST DUP2 PUSH1 0xFF PUSH1 0x0 PUSH2 0x100 EXP DUP2 SLOAD DUP2 PUSH20 0xFFFFFFFFFFFFFFFFFFFFFFFFFFFFFFFFFFFFFFFF MUL NOT AND SWAP1 DUP4 PUSH20 0xFFFFFFFFFFFFFFFFFFFFFFFFFFFFFFFFFFFFFFFF AND MUL OR SWAP1 SSTORE POP POP POP JUMP JUMPDEST PUSH2 0x29FA DUP3 PUSH2 0x190F JUMP JUMPDEST PUSH2 0x2A03 DUP2 PUSH2 0x2CD0 JUMP JUMPDEST PUSH2 0x2A0D DUP4 DUP4 PUSH2 0x3021 JUMP JUMPDEST POP POP POP JUMP JUMPDEST PUSH32 0xFD37F88A14D7ED985885A1AF8F2AD5B64DD7EB00AB89168649791632BB9BB4A6 PUSH2 0x2A3C DUP2 PUSH2 0x2CD0 JUMP JUMPDEST PUSH2 0x2A44 PUSH2 0x2CE4 JUMP JUMPDEST PUSH2 0x2AB2 PUSH1 0xFE DUP5 DUP5 PUSH1 0x40 MLOAD PUSH2 0x2A59 SWAP3 SWAP2 SWAP1 PUSH2 0x47BD JUMP JUMPDEST SWAP1 DUP2 MSTORE PUSH1 0x20 ADD PUSH1 0x40 MLOAD DUP1 SWAP2 SUB SWAP1 KECCAK256 PUSH1 0x0 SWAP1 SLOAD SWAP1 PUSH2 0x100 EXP SWAP1 DIV PUSH20 0xFFFFFFFFFFFFFFFFFFFFFFFFFFFFFFFFFFFFFFFF AND PUSH2 0x100 PUSH1 0x0 SWAP1 SLOAD SWAP1 PUSH2 0x100 EXP SWAP1 DIV PUSH20 0xFFFFFFFFFFFFFFFFFFFFFFFFFFFFFFFFFFFFFFFF AND DUP7 PUSH2 0x2D33 JUMP JUMPDEST PUSH32 0x901C03DA5D88EB3D62AB4617E7B7D17D86DB16356823A7971127D5181A842FEF PUSH2 0x100 PUSH1 0x0 SWAP1 SLOAD SWAP1 PUSH2 0x100 EXP SWAP1 DIV PUSH20 0xFFFFFFFFFFFFFFFFFFFFFFFFFFFFFFFFFFFFFFFF AND DUP5 DUP5 DUP8 PUSH1 0x40 MLOAD PUSH2 0x2B0A SWAP5 SWAP4 SWAP3 SWAP2 SWAP1 PUSH2 0x6143 JUMP JUMPDEST PUSH1 0x40 MLOAD DUP1 SWAP2 SUB SWAP1 LOG1 PUSH2 0x2B1A PUSH2 0x2DC1 JUMP JUMPDEST POP POP POP POP JUMP JUMPDEST PUSH2 0x102 DUP2 PUSH1 0x3 DUP2 LT PUSH2 0x2B31 JUMPI PUSH1 0x0 DUP1 REVERT JUMPDEST ADD PUSH1 0x0 SWAP2 POP SWAP1 POP DUP1 SLOAD PUSH2 0x2B43 SWAP1 PUSH2 0x471F JUMP JUMPDEST DUP1 PUSH1 0x1F ADD PUSH1 0x20 DUP1 SWAP2 DIV MUL PUSH1 0x20 ADD PUSH1 0x40 MLOAD SWAP1 DUP2 ADD PUSH1 0x40 MSTORE DUP1 SWAP3 SWAP2 SWAP1 DUP2 DUP2 MSTORE PUSH1 0x20 ADD DUP3 DUP1 SLOAD PUSH2 0x2B6F SWAP1 PUSH2 0x471F JUMP JUMPDEST DUP1 ISZERO PUSH2 0x2BBC JUMPI DUP1 PUSH1 0x1F LT PUSH2 0x2B91 JUMPI PUSH2 0x100 DUP1 DUP4 SLOAD DIV MUL DUP4 MSTORE SWAP2 PUSH1 0x20 ADD SWAP2 PUSH2 0x2BBC JUMP JUMPDEST DUP3 ADD SWAP2 SWAP1 PUSH1 0x0 MSTORE PUSH1 0x20 PUSH1 0x0 KECCAK256 SWAP1 JUMPDEST DUP2 SLOAD DUP2 MSTORE SWAP1 PUSH1 0x1 ADD SWAP1 PUSH1 0x20 ADD DUP1 DUP4 GT PUSH2 0x2B9F JUMPI DUP3 SWAP1 SUB PUSH1 0x1F AND DUP3 ADD SWAP2 JUMPDEST POP POP POP POP POP DUP2 JUMP JUMPDEST PUSH32 0xD2761B102BDA9831F4AF400CC824B8CECB9CC5C1C85C51ACB1479DB9735FBFC6 DUP2 JUMP JUMPDEST PUSH32 0xFAAD79A708D82D095486F5A83B18341F12A8F717D3011AB929D43135C1AF73E2 DUP2 JUMP JUMPDEST PUSH2 0x101 DUP2 DUP1 MLOAD PUSH1 0x20 DUP2 ADD DUP3 ADD DUP1 MLOAD DUP5 DUP3 MSTORE PUSH1 0x20 DUP4 ADD PUSH1 0x20 DUP6 ADD KECCAK256 DUP2 DUP4 MSTORE DUP1 SWAP6 POP POP POP POP POP POP PUSH1 0x0 SWAP2 POP SLOAD SWAP1 PUSH2 0x100 EXP SWAP1 DIV PUSH20 0xFFFFFFFFFFFFFFFFFFFFFFFFFFFFFFFFFFFFFFFF AND DUP2 JUMP JUMPDEST PUSH1 0x0 PUSH32 0x7965DB0B00000000000000000000000000000000000000000000000000000000 PUSH28 0xFFFFFFFFFFFFFFFFFFFFFFFFFFFFFFFFFFFFFFFFFFFFFFFFFFFFFFFF NOT AND DUP3 PUSH28 0xFFFFFFFFFFFFFFFFFFFFFFFFFFFFFFFFFFFFFFFFFFFFFFFFFFFFFFFF NOT AND EQ DUP1 PUSH2 0x2CC9 JUMPI POP PUSH2 0x2CC8 DUP3 PUSH2 0x3099 JUMP JUMPDEST JUMPDEST SWAP1 POP SWAP2 SWAP1 POP JUMP JUMPDEST PUSH2 0x2CE1 DUP2 PUSH2 0x2CDC PUSH2 0x2DB9 JUMP JUMPDEST PUSH2 0x3103 JUMP JUMPDEST POP JUMP JUMPDEST PUSH1 0x2 PUSH1 0xC9 SLOAD SUB PUSH2 0x2D29 JUMPI PUSH1 0x40 MLOAD PUSH32 0x8C379A000000000000000000000000000000000000000000000000000000000 DUP2 MSTORE PUSH1 0x4 ADD PUSH2 0x2D20 SWAP1 PUSH2 0x61CF JUMP JUMPDEST PUSH1 0x40 MLOAD DUP1 SWAP2 SUB SWAP1 REVERT JUMPDEST PUSH1 0x2 PUSH1 0xC9 DUP2 SWAP1 SSTORE POP JUMP JUMPDEST PUSH2 0x2DB4 DUP4 PUSH4 0xA9059CBB PUSH1 0xE0 SHL DUP5 DUP5 PUSH1 0x40 MLOAD PUSH1 0x24 ADD PUSH2 0x2D52 SWAP3 SWAP2 SWAP1 PUSH2 0x61EF JUMP JUMPDEST PUSH1 0x40 MLOAD PUSH1 0x20 DUP2 DUP4 SUB SUB DUP2 MSTORE SWAP1 PUSH1 0x40 MSTORE SWAP1 PUSH28 0xFFFFFFFFFFFFFFFFFFFFFFFFFFFFFFFFFFFFFFFFFFFFFFFFFFFFFFFF NOT AND PUSH1 0x20 DUP3 ADD DUP1 MLOAD PUSH28 0xFFFFFFFFFFFFFFFFFFFFFFFFFFFFFFFFFFFFFFFFFFFFFFFFFFFFFFFF DUP4 DUP2 DUP4 AND OR DUP4 MSTORE POP POP POP POP PUSH2 0x3188 JUMP JUMPDEST POP POP POP JUMP JUMPDEST PUSH1 0x0 CALLER SWAP1 POP SWAP1 JUMP JUMPDEST PUSH1 0x1 PUSH1 0xC9 DUP2 SWAP1 SSTORE POP JUMP JUMPDEST PUSH1 0x0 DUP1 DUP3 PUSH20 0xFFFFFFFFFFFFFFFFFFFFFFFFFFFFFFFFFFFFFFFF AND EXTCODESIZE GT SWAP1 POP SWAP2 SWAP1 POP JUMP JUMPDEST PUSH1 0x0 PUSH1 0x1 SWAP1 SLOAD SWAP1 PUSH2 0x100 EXP SWAP1 DIV PUSH1 0xFF AND PUSH2 0x2E3D JUMPI PUSH1 0x40 MLOAD PUSH32 0x8C379A000000000000000000000000000000000000000000000000000000000 DUP2 MSTORE PUSH1 0x4 ADD PUSH2 0x2E34 SWAP1 PUSH2 0x628A JUMP JUMPDEST PUSH1 0x40 MLOAD DUP1 SWAP2 SUB SWAP1 REVERT JUMPDEST JUMP JUMPDEST PUSH1 0x0 PUSH1 0x1 SWAP1 SLOAD SWAP1 PUSH2 0x100 EXP SWAP1 DIV PUSH1 0xFF AND PUSH2 0x2E8E JUMPI PUSH1 0x40 MLOAD PUSH32 0x8C379A000000000000000000000000000000000000000000000000000000000 DUP2 MSTORE PUSH1 0x4 ADD PUSH2 0x2E85 SWAP1 PUSH2 0x628A JUMP JUMPDEST PUSH1 0x40 MLOAD DUP1 SWAP2 SUB SWAP1 REVERT JUMPDEST PUSH1 0x1 PUSH1 0xC9 DUP2 SWAP1 SSTORE POP JUMP JUMPDEST PUSH1 0x0 PUSH2 0x2EA7 DUP4 PUSH1 0x0 ADD DUP4 PUSH2 0x3250 JUMP JUMPDEST SWAP1 POP SWAP3 SWAP2 POP POP JUMP JUMPDEST PUSH2 0x2EB9 DUP3 DUP3 PUSH2 0x32C0 JUMP JUMPDEST PUSH2 0x2EDE DUP2 PUSH1 0x97 PUSH1 0x0 DUP6 DUP2 MSTORE PUSH1 0x20 ADD SWAP1 DUP2 MSTORE PUSH1 0x20 ADD PUSH1 0x0 KECCAK256 PUSH2 0x33A1 SWAP1 SWAP2 SWAP1 PUSH4 0xFFFFFFFF AND JUMP JUMPDEST POP POP POP JUMP JUMPDEST PUSH1 0x0 PUSH2 0x2EEE DUP4 PUSH2 0x190F JUMP JUMPDEST SWAP1 POP DUP2 PUSH1 0x65 PUSH1 0x0 DUP6 DUP2 MSTORE PUSH1 0x20 ADD SWAP1 DUP2 MSTORE PUSH1 0x20 ADD PUSH1 0x0 KECCAK256 PUSH1 0x1 ADD DUP2 SWAP1 SSTORE POP DUP2 DUP2 DUP5 PUSH32 0xBD79B86FFE0AB8E8776151514217CD7CACD52C909F66475C3AF44E129F0B00FF PUSH1 0x40 MLOAD PUSH1 0x40 MLOAD DUP1 SWAP2 SUB SWAP1 LOG4 POP POP POP JUMP JUMPDEST PUSH1 0x0 PUSH2 0x2F4E DUP4 PUSH1 0x0 ADD DUP4 PUSH2 0x33D1 JUMP JUMPDEST SWAP1 POP SWAP3 SWAP2 POP POP JUMP JUMPDEST PUSH1 0x0 DUP1 PUSH1 0x0 SWAP1 POP JUMPDEST PUSH1 0xFD DUP1 SLOAD SWAP1 POP DUP2 LT ISZERO PUSH2 0x3016 JUMPI DUP3 PUSH20 0xFFFFFFFFFFFFFFFFFFFFFFFFFFFFFFFFFFFFFFFF AND PUSH1 0xFE PUSH1 0xFD DUP4 DUP2 SLOAD DUP2 LT PUSH2 0x2F98 JUMPI PUSH2 0x2F97 PUSH2 0x468D JUMP JUMPDEST JUMPDEST SWAP1 PUSH1 0x0 MSTORE PUSH1 0x20 PUSH1 0x0 KECCAK256 ADD PUSH1 0x40 MLOAD PUSH2 0x2FAF SWAP2 SWAP1 PUSH2 0x4F0D JUMP JUMPDEST SWAP1 DUP2 MSTORE PUSH1 0x20 ADD PUSH1 0x40 MLOAD DUP1 SWAP2 SUB SWAP1 KECCAK256 PUSH1 0x0 SWAP1 SLOAD SWAP1 PUSH2 0x100 EXP SWAP1 DIV PUSH20 0xFFFFFFFFFFFFFFFFFFFFFFFFFFFFFFFFFFFFFFFF AND PUSH20 0xFFFFFFFFFFFFFFFFFFFFFFFFFFFFFFFFFFFFFFFF AND SUB PUSH2 0x3003 JUMPI PUSH1 0x1 SWAP2 POP POP PUSH2 0x301C JUMP JUMPDEST DUP1 DUP1 PUSH2 0x300E SWAP1 PUSH2 0x4750 JUMP JUMPDEST SWAP2 POP POP PUSH2 0x2F5E JUMP JUMPDEST POP PUSH1 0x0 SWAP1 POP JUMPDEST SWAP2 SWAP1 POP JUMP JUMPDEST PUSH2 0x302B DUP3 DUP3 PUSH2 0x33FC JUMP JUMPDEST PUSH2 0x3050 DUP2 PUSH1 0x97 PUSH1 0x0 DUP6 DUP2 MSTORE PUSH1 0x20 ADD SWAP1 DUP2 MSTORE PUSH1 0x20 ADD PUSH1 0x0 KECCAK256 PUSH2 0x34DE SWAP1 SWAP2 SWAP1 PUSH4 0xFFFFFFFF AND JUMP JUMPDEST POP POP POP JUMP JUMPDEST PUSH1 0x0 PUSH2 0x3063 DUP3 PUSH1 0x0 ADD PUSH2 0x350E JUMP JUMPDEST SWAP1 POP SWAP2 SWAP1 POP JUMP JUMPDEST PUSH1 0x0 PUSH2 0x3079 DUP4 PUSH1 0x0 ADD DUP4 PUSH2 0x33D1 JUMP JUMPDEST PUSH1 0x0 SHR SWAP1 POP SWAP3 SWAP2 POP POP JUMP JUMPDEST PUSH1 0x0 PUSH2 0x3092 DUP3 PUSH1 0x0 ADD PUSH2 0x350E JUMP JUMPDEST SWAP1 POP SWAP2 SWAP1 POP JUMP JUMPDEST PUSH1 0x0 PUSH32 0x1FFC9A700000000000000000000000000000000000000000000000000000000 PUSH28 0xFFFFFFFFFFFFFFFFFFFFFFFFFFFFFFFFFFFFFFFFFFFFFFFFFFFFFFFF NOT AND DUP3 PUSH28 0xFFFFFFFFFFFFFFFFFFFFFFFFFFFFFFFFFFFFFFFFFFFFFFFFFFFFFFFF NOT AND EQ SWAP1 POP SWAP2 SWAP1 POP JUMP JUMPDEST PUSH2 0x310D DUP3 DUP3 PUSH2 0x2856 JUMP JUMPDEST PUSH2 0x3184 JUMPI PUSH2 0x311A DUP2 PUSH2 0x351F JUMP JUMPDEST PUSH2 0x3128 DUP4 PUSH1 0x0 SHR PUSH1 0x20 PUSH2 0x354C JUMP JUMPDEST PUSH1 0x40 MLOAD PUSH1 0x20 ADD PUSH2 0x3139 SWAP3 SWAP2 SWAP1 PUSH2 0x6342 JUMP JUMPDEST PUSH1 0x40 MLOAD PUSH1 0x20 DUP2 DUP4 SUB SUB DUP2 MSTORE SWAP1 PUSH1 0x40 MSTORE PUSH1 0x40 MLOAD PUSH32 0x8C379A000000000000000000000000000000000000000000000000000000000 DUP2 MSTORE PUSH1 0x4 ADD PUSH2 0x317B SWAP2 SWAP1 PUSH2 0x43E5 JUMP JUMPDEST PUSH1 0x40 MLOAD DUP1 SWAP2 SUB SWAP1 REVERT JUMPDEST POP POP JUMP JUMPDEST PUSH1 0x0 PUSH2 0x31EA DUP3 PUSH1 0x40 MLOAD DUP1 PUSH1 0x40 ADD PUSH1 0x40 MSTORE DUP1 PUSH1 0x20 DUP2 MSTORE PUSH1 0x20 ADD PUSH32 0x5361666545524332303A206C6F772D6C6576656C2063616C6C206661696C6564 DUP2 MSTORE POP DUP6 PUSH20 0xFFFFFFFFFFFFFFFFFFFFFFFFFFFFFFFFFFFFFFFF AND PUSH2 0x3788 SWAP1 SWAP3 SWAP2 SWAP1 PUSH4 0xFFFFFFFF AND JUMP JUMPDEST SWAP1 POP PUSH1 0x0 DUP2 MLOAD EQ DUP1 PUSH2 0x320C JUMPI POP DUP1 DUP1 PUSH1 0x20 ADD SWAP1 MLOAD DUP2 ADD SWAP1 PUSH2 0x320B SWAP2 SWAP1 PUSH2 0x63A8 JUMP JUMPDEST JUMPDEST PUSH2 0x324B JUMPI PUSH1 0x40 MLOAD PUSH32 0x8C379A000000000000000000000000000000000000000000000000000000000 DUP2 MSTORE PUSH1 0x4 ADD PUSH2 0x3242 SWAP1 PUSH2 0x6447 JUMP JUMPDEST PUSH1 0x40 MLOAD DUP1 SWAP2 SUB SWAP1 REVERT JUMPDEST POP POP POP JUMP JUMPDEST PUSH1 0x0 PUSH2 0x325C DUP4 DUP4 PUSH2 0x37A0 JUMP JUMPDEST PUSH2 0x32B5 JUMPI DUP3 PUSH1 0x0 ADD DUP3 SWAP1 DUP1 PUSH1 0x1 DUP2 SLOAD ADD DUP1 DUP3 SSTORE DUP1 SWAP2 POP POP PUSH1 0x1 SWAP1 SUB SWAP1 PUSH1 0x0 MSTORE PUSH1 0x20 PUSH1 0x0 KECCAK256 ADD PUSH1 0x0 SWAP1 SWAP2 SWAP1 SWAP2 SWAP1 SWAP2 POP SSTORE DUP3 PUSH1 0x0 ADD DUP1 SLOAD SWAP1 POP DUP4 PUSH1 0x1 ADD PUSH1 0x0 DUP5 DUP2 MSTORE PUSH1 0x20 ADD SWAP1 DUP2 MSTORE PUSH1 0x20 ADD PUSH1 0x0 KECCAK256 DUP2 SWAP1 SSTORE POP PUSH1 0x1 SWAP1 POP PUSH2 0x32BA JUMP JUMPDEST PUSH1 0x0 SWAP1 POP JUMPDEST SWAP3 SWAP2 POP POP JUMP JUMPDEST PUSH2 0x32CA DUP3 DUP3 PUSH2 0x2856 JUMP JUMPDEST PUSH2 0x339D JUMPI PUSH1 0x1 PUSH1 0x65 PUSH1 0x0 DUP5 DUP2 MSTORE PUSH1 0x20 ADD SWAP1 DUP2 MSTORE PUSH1 0x20 ADD PUSH1 0x0 KECCAK256 PUSH1 0x0 ADD PUSH1 0x0 DUP4 PUSH20 0xFFFFFFFFFFFFFFFFFFFFFFFFFFFFFFFFFFFFFFFF AND PUSH20 0xFFFFFFFFFFFFFFFFFFFFFFFFFFFFFFFFFFFFFFFF AND DUP2 MSTORE PUSH1 0x20 ADD SWAP1 DUP2 MSTORE PUSH1 0x20 ADD PUSH1 0x0 KECCAK256 PUSH1 0x0 PUSH2 0x100 EXP DUP2 SLOAD DUP2 PUSH1 0xFF MUL NOT AND SWAP1 DUP4 ISZERO ISZERO MUL OR SWAP1 SSTORE POP PUSH2 0x3342 PUSH2 0x2DB9 JUMP JUMPDEST PUSH20 0xFFFFFFFFFFFFFFFFFFFFFFFFFFFFFFFFFFFFFFFF AND DUP2 PUSH20 0xFFFFFFFFFFFFFFFFFFFFFFFFFFFFFFFFFFFFFFFF AND DUP4 PUSH32 0x2F8788117E7EFF1D82E926EC794901D17C78024A50270940304540A733656F0D PUSH1 0x40 MLOAD PUSH1 0x40 MLOAD DUP1 SWAP2 SUB SWAP1 LOG4 JUMPDEST POP POP JUMP JUMPDEST PUSH1 0x0 PUSH2 0x33C9 DUP4 PUSH1 0x0 ADD DUP4 PUSH20 0xFFFFFFFFFFFFFFFFFFFFFFFFFFFFFFFFFFFFFFFF AND PUSH1 0x0 SHL PUSH2 0x3250 JUMP JUMPDEST SWAP1 POP SWAP3 SWAP2 POP POP JUMP JUMPDEST PUSH1 0x0 DUP3 PUSH1 0x0 ADD DUP3 DUP2 SLOAD DUP2 LT PUSH2 0x33E9 JUMPI PUSH2 0x33E8 PUSH2 0x468D JUMP JUMPDEST JUMPDEST SWAP1 PUSH1 0x0 MSTORE PUSH1 0x20 PUSH1 0x0 KECCAK256 ADD SLOAD SWAP1 POP SWAP3 SWAP2 POP POP JUMP JUMPDEST PUSH2 0x3406 DUP3 DUP3 PUSH2 0x2856 JUMP JUMPDEST ISZERO PUSH2 0x34DA JUMPI PUSH1 0x0 PUSH1 0x65 PUSH1 0x0 DUP5 DUP2 MSTORE PUSH1 0x20 ADD SWAP1 DUP2 MSTORE PUSH1 0x20 ADD PUSH1 0x0 KECCAK256 PUSH1 0x0 ADD PUSH1 0x0 DUP4 PUSH20 0xFFFFFFFFFFFFFFFFFFFFFFFFFFFFFFFFFFFFFFFF AND PUSH20 0xFFFFFFFFFFFFFFFFFFFFFFFFFFFFFFFFFFFFFFFF AND DUP2 MSTORE PUSH1 0x20 ADD SWAP1 DUP2 MSTORE PUSH1 0x20 ADD PUSH1 0x0 KECCAK256 PUSH1 0x0 PUSH2 0x100 EXP DUP2 SLOAD DUP2 PUSH1 0xFF MUL NOT AND SWAP1 DUP4 ISZERO ISZERO MUL OR SWAP1 SSTORE POP PUSH2 0x347F PUSH2 0x2DB9 JUMP JUMPDEST PUSH20 0xFFFFFFFFFFFFFFFFFFFFFFFFFFFFFFFFFFFFFFFF AND DUP2 PUSH20 0xFFFFFFFFFFFFFFFFFFFFFFFFFFFFFFFFFFFFFFFF AND DUP4 PUSH32 0xF6391F5C32D9C69D2A47EA670B442974B53935D1EDC7FD64EB21E047A839171B PUSH1 0x40 MLOAD PUSH1 0x40 MLOAD DUP1 SWAP2 SUB SWAP1 LOG4 JUMPDEST POP POP JUMP JUMPDEST PUSH1 0x0 PUSH2 0x3506 DUP4 PUSH1 0x0 ADD DUP4 PUSH20 0xFFFFFFFFFFFFFFFFFFFFFFFFFFFFFFFFFFFFFFFF AND PUSH1 0x0 SHL PUSH2 0x37C3 JUMP JUMPDEST SWAP1 POP SWAP3 SWAP2 POP POP JUMP JUMPDEST PUSH1 0x0 DUP2 PUSH1 0x0 ADD DUP1 SLOAD SWAP1 POP SWAP1 POP SWAP2 SWAP1 POP JUMP JUMPDEST PUSH1 0x60 PUSH2 0x3545 DUP3 PUSH20 0xFFFFFFFFFFFFFFFFFFFFFFFFFFFFFFFFFFFFFFFF AND PUSH1 0x14 PUSH1 0xFF AND PUSH2 0x354C JUMP JUMPDEST SWAP1 POP SWAP2 SWAP1 POP JUMP JUMPDEST PUSH1 0x60 PUSH1 0x0 PUSH1 0x2 DUP4 PUSH1 0x2 PUSH2 0x355F SWAP2 SWAP1 PUSH2 0x6467 JUMP JUMPDEST PUSH2 0x3569 SWAP2 SWAP1 PUSH2 0x4659 JUMP JUMPDEST PUSH8 0xFFFFFFFFFFFFFFFF DUP2 GT ISZERO PUSH2 0x3582 JUMPI PUSH2 0x3581 PUSH2 0x440C JUMP JUMPDEST JUMPDEST PUSH1 0x40 MLOAD SWAP1 DUP1 DUP3 MSTORE DUP1 PUSH1 0x1F ADD PUSH1 0x1F NOT AND PUSH1 0x20 ADD DUP3 ADD PUSH1 0x40 MSTORE DUP1 ISZERO PUSH2 0x35B4 JUMPI DUP2 PUSH1 0x20 ADD PUSH1 0x1 DUP3 MUL DUP1 CALLDATASIZE DUP4 CALLDATACOPY DUP1 DUP3 ADD SWAP2 POP POP SWAP1 POP JUMPDEST POP SWAP1 POP PUSH32 0x3000000000000000000000000000000000000000000000000000000000000000 DUP2 PUSH1 0x0 DUP2 MLOAD DUP2 LT PUSH2 0x35EC JUMPI PUSH2 0x35EB PUSH2 0x468D JUMP JUMPDEST JUMPDEST PUSH1 0x20 ADD ADD SWAP1 PUSH31 0xFFFFFFFFFFFFFFFFFFFFFFFFFFFFFFFFFFFFFFFFFFFFFFFFFFFFFFFFFFFFFF NOT AND SWAP1 DUP2 PUSH1 0x0 BYTE SWAP1 MSTORE8 POP PUSH32 0x7800000000000000000000000000000000000000000000000000000000000000 DUP2 PUSH1 0x1 DUP2 MLOAD DUP2 LT PUSH2 0x3650 JUMPI PUSH2 0x364F PUSH2 0x468D JUMP JUMPDEST JUMPDEST PUSH1 0x20 ADD ADD SWAP1 PUSH31 0xFFFFFFFFFFFFFFFFFFFFFFFFFFFFFFFFFFFFFFFFFFFFFFFFFFFFFFFFFFFFFF NOT AND SWAP1 DUP2 PUSH1 0x0 BYTE SWAP1 MSTORE8 POP PUSH1 0x0 PUSH1 0x1 DUP5 PUSH1 0x2 PUSH2 0x3690 SWAP2 SWAP1 PUSH2 0x6467 JUMP JUMPDEST PUSH2 0x369A SWAP2 SWAP1 PUSH2 0x4659 JUMP JUMPDEST SWAP1 POP JUMPDEST PUSH1 0x1 DUP2 GT ISZERO PUSH2 0x373A JUMPI PUSH32 0x3031323334353637383961626364656600000000000000000000000000000000 PUSH1 0xF DUP7 AND PUSH1 0x10 DUP2 LT PUSH2 0x36DC JUMPI PUSH2 0x36DB PUSH2 0x468D JUMP JUMPDEST JUMPDEST BYTE PUSH1 0xF8 SHL DUP3 DUP3 DUP2 MLOAD DUP2 LT PUSH2 0x36F3 JUMPI PUSH2 0x36F2 PUSH2 0x468D JUMP JUMPDEST JUMPDEST PUSH1 0x20 ADD ADD SWAP1 PUSH31 0xFFFFFFFFFFFFFFFFFFFFFFFFFFFFFFFFFFFFFFFFFFFFFFFFFFFFFFFFFFFFFF NOT AND SWAP1 DUP2 PUSH1 0x0 BYTE SWAP1 MSTORE8 POP PUSH1 0x4 DUP6 SWAP1 SHR SWAP5 POP DUP1 PUSH2 0x3733 SWAP1 PUSH2 0x64A9 JUMP JUMPDEST SWAP1 POP PUSH2 0x369D JUMP JUMPDEST POP PUSH1 0x0 DUP5 EQ PUSH2 0x377E JUMPI PUSH1 0x40 MLOAD PUSH32 0x8C379A000000000000000000000000000000000000000000000000000000000 DUP2 MSTORE PUSH1 0x4 ADD PUSH2 0x3775 SWAP1 PUSH2 0x651E JUMP JUMPDEST PUSH1 0x40 MLOAD DUP1 SWAP2 SUB SWAP1 REVERT JUMPDEST DUP1 SWAP2 POP POP SWAP3 SWAP2 POP POP JUMP JUMPDEST PUSH1 0x60 PUSH2 0x3797 DUP5 DUP5 PUSH1 0x0 DUP6 PUSH2 0x38D7 JUMP JUMPDEST SWAP1 POP SWAP4 SWAP3 POP POP POP JUMP JUMPDEST PUSH1 0x0 DUP1 DUP4 PUSH1 0x1 ADD PUSH1 0x0 DUP5 DUP2 MSTORE PUSH1 0x20 ADD SWAP1 DUP2 MSTORE PUSH1 0x20 ADD PUSH1 0x0 KECCAK256 SLOAD EQ ISZERO SWAP1 POP SWAP3 SWAP2 POP POP JUMP JUMPDEST PUSH1 0x0 DUP1 DUP4 PUSH1 0x1 ADD PUSH1 0x0 DUP5 DUP2 MSTORE PUSH1 0x20 ADD SWAP1 DUP2 MSTORE PUSH1 0x20 ADD PUSH1 0x0 KECCAK256 SLOAD SWAP1 POP PUSH1 0x0 DUP2 EQ PUSH2 0x38CB JUMPI PUSH1 0x0 PUSH1 0x1 DUP3 PUSH2 0x37F5 SWAP2 SWAP1 PUSH2 0x46BC JUMP JUMPDEST SWAP1 POP PUSH1 0x0 PUSH1 0x1 DUP7 PUSH1 0x0 ADD DUP1 SLOAD SWAP1 POP PUSH2 0x380D SWAP2 SWAP1 PUSH2 0x46BC JUMP JUMPDEST SWAP1 POP DUP2 DUP2 EQ PUSH2 0x387C JUMPI PUSH1 0x0 DUP7 PUSH1 0x0 ADD DUP3 DUP2 SLOAD DUP2 LT PUSH2 0x382E JUMPI PUSH2 0x382D PUSH2 0x468D JUMP JUMPDEST JUMPDEST SWAP1 PUSH1 0x0 MSTORE PUSH1 0x20 PUSH1 0x0 KECCAK256 ADD SLOAD SWAP1 POP DUP1 DUP8 PUSH1 0x0 ADD DUP5 DUP2 SLOAD DUP2 LT PUSH2 0x3852 JUMPI PUSH2 0x3851 PUSH2 0x468D JUMP JUMPDEST JUMPDEST SWAP1 PUSH1 0x0 MSTORE PUSH1 0x20 PUSH1 0x0 KECCAK256 ADD DUP2 SWAP1 SSTORE POP DUP4 DUP8 PUSH1 0x1 ADD PUSH1 0x0 DUP4 DUP2 MSTORE PUSH1 0x20 ADD SWAP1 DUP2 MSTORE PUSH1 0x20 ADD PUSH1 0x0 KECCAK256 DUP2 SWAP1 SSTORE POP POP JUMPDEST DUP6 PUSH1 0x0 ADD DUP1 SLOAD DUP1 PUSH2 0x3890 JUMPI PUSH2 0x388F PUSH2 0x653E JUMP JUMPDEST JUMPDEST PUSH1 0x1 SWAP1 SUB DUP2 DUP2 SWAP1 PUSH1 0x0 MSTORE PUSH1 0x20 PUSH1 0x0 KECCAK256 ADD PUSH1 0x0 SWAP1 SSTORE SWAP1 SSTORE DUP6 PUSH1 0x1 ADD PUSH1 0x0 DUP7 DUP2 MSTORE PUSH1 0x20 ADD SWAP1 DUP2 MSTORE PUSH1 0x20 ADD PUSH1 0x0 KECCAK256 PUSH1 0x0 SWAP1 SSTORE PUSH1 0x1 SWAP4 POP POP POP POP PUSH2 0x38D1 JUMP JUMPDEST PUSH1 0x0 SWAP2 POP POP JUMPDEST SWAP3 SWAP2 POP POP JUMP JUMPDEST PUSH1 0x60 DUP3 SELFBALANCE LT ISZERO PUSH2 0x391C JUMPI PUSH1 0x40 MLOAD PUSH32 0x8C379A000000000000000000000000000000000000000000000000000000000 DUP2 MSTORE PUSH1 0x4 ADD PUSH2 0x3913 SWAP1 PUSH2 0x65DF JUMP JUMPDEST PUSH1 0x40 MLOAD DUP1 SWAP2 SUB SWAP1 REVERT JUMPDEST PUSH1 0x0 DUP1 DUP7 PUSH20 0xFFFFFFFFFFFFFFFFFFFFFFFFFFFFFFFFFFFFFFFF AND DUP6 DUP8 PUSH1 0x40 MLOAD PUSH2 0x3945 SWAP2 SWAP1 PUSH2 0x663B JUMP JUMPDEST PUSH1 0x0 PUSH1 0x40 MLOAD DUP1 DUP4 SUB DUP2 DUP6 DUP8 GAS CALL SWAP3 POP POP POP RETURNDATASIZE DUP1 PUSH1 0x0 DUP2 EQ PUSH2 0x3982 JUMPI PUSH1 0x40 MLOAD SWAP2 POP PUSH1 0x1F NOT PUSH1 0x3F RETURNDATASIZE ADD AND DUP3 ADD PUSH1 0x40 MSTORE RETURNDATASIZE DUP3 MSTORE RETURNDATASIZE PUSH1 0x0 PUSH1 0x20 DUP5 ADD RETURNDATACOPY PUSH2 0x3987 JUMP JUMPDEST PUSH1 0x60 SWAP2 POP JUMPDEST POP SWAP2 POP SWAP2 POP PUSH2 0x3998 DUP8 DUP4 DUP4 DUP8 PUSH2 0x39A4 JUMP JUMPDEST SWAP3 POP POP POP SWAP5 SWAP4 POP POP POP POP JUMP JUMPDEST PUSH1 0x60 DUP4 ISZERO PUSH2 0x3A06 JUMPI PUSH1 0x0 DUP4 MLOAD SUB PUSH2 0x39FE JUMPI PUSH2 0x39BE DUP6 PUSH2 0x3A19 JUMP JUMPDEST PUSH2 0x39FD JUMPI PUSH1 0x40 MLOAD PUSH32 0x8C379A000000000000000000000000000000000000000000000000000000000 DUP2 MSTORE PUSH1 0x4 ADD PUSH2 0x39F4 SWAP1 PUSH2 0x669E JUMP JUMPDEST PUSH1 0x40 MLOAD DUP1 SWAP2 SUB SWAP1 REVERT JUMPDEST JUMPDEST DUP3 SWAP1 POP PUSH2 0x3A11 JUMP JUMPDEST PUSH2 0x3A10 DUP4 DUP4 PUSH2 0x3A3C JUMP JUMPDEST JUMPDEST SWAP5 SWAP4 POP POP POP POP JUMP JUMPDEST PUSH1 0x0 DUP1 DUP3 PUSH20 0xFFFFFFFFFFFFFFFFFFFFFFFFFFFFFFFFFFFFFFFF AND EXTCODESIZE GT SWAP1 POP SWAP2 SWAP1 POP JUMP JUMPDEST PUSH1 0x0 DUP3 MLOAD GT ISZERO PUSH2 0x3A4F JUMPI DUP2 MLOAD DUP1 DUP4 PUSH1 0x20 ADD REVERT JUMPDEST DUP1 PUSH1 0x40 MLOAD PUSH32 0x8C379A000000000000000000000000000000000000000000000000000000000 DUP2 MSTORE PUSH1 0x4 ADD PUSH2 0x3A83 SWAP2 SWAP1 PUSH2 0x43E5 JUMP JUMPDEST PUSH1 0x40 MLOAD DUP1 SWAP2 SUB SWAP1 REVERT JUMPDEST PUSH1 0x0 DUP2 SWAP1 POP SWAP3 SWAP2 POP POP JUMP JUMPDEST PUSH32 0x5745544800000000000000000000000000000000000000000000000000000000 PUSH1 0x0 DUP3 ADD MSTORE POP JUMP JUMPDEST PUSH1 0x0 PUSH2 0x3ACD PUSH1 0x4 DUP4 PUSH2 0x3A8C JUMP JUMPDEST SWAP2 POP PUSH2 0x3AD8 DUP3 PUSH2 0x3A97 JUMP JUMPDEST PUSH1 0x4 DUP3 ADD SWAP1 POP SWAP2 SWAP1 POP JUMP JUMPDEST PUSH1 0x0 PUSH2 0x3AEE DUP3 PUSH2 0x3AC0 JUMP JUMPDEST SWAP2 POP DUP2 SWAP1 POP SWAP2 SWAP1 POP JUMP JUMPDEST PUSH1 0x0 DUP3 DUP3 MSTORE PUSH1 0x20 DUP3 ADD SWAP1 POP SWAP3 SWAP2 POP POP JUMP JUMPDEST PUSH32 0x4E6F742070617961626C65206F6E207468697320636861696E00000000000000 PUSH1 0x0 DUP3 ADD MSTORE POP JUMP JUMPDEST PUSH1 0x0 PUSH2 0x3B3F PUSH1 0x19 DUP4 PUSH2 0x3AF8 JUMP JUMPDEST SWAP2 POP PUSH2 0x3B4A DUP3 PUSH2 0x3B09 JUMP JUMPDEST PUSH1 0x20 DUP3 ADD SWAP1 POP SWAP2 SWAP1 POP JUMP JUMPDEST PUSH1 0x0 PUSH1 0x20 DUP3 ADD SWAP1 POP DUP2 DUP2 SUB PUSH1 0x0 DUP4 ADD MSTORE PUSH2 0x3B6E DUP2 PUSH2 0x3B32 JUMP JUMPDEST SWAP1 POP SWAP2 SWAP1 POP JUMP JUMPDEST PUSH1 0x0 DUP2 MLOAD SWAP1 POP SWAP2 SWAP1 POP JUMP JUMPDEST PUSH1 0x0 DUP3 DUP3 MSTORE PUSH1 0x20 DUP3 ADD SWAP1 POP SWAP3 SWAP2 POP POP JUMP JUMPDEST PUSH1 0x0 DUP2 SWAP1 POP PUSH1 0x20 DUP3 ADD SWAP1 POP SWAP2 SWAP1 POP JUMP JUMPDEST PUSH1 0x0 DUP2 SWAP1 POP SWAP2 SWAP1 POP JUMP JUMPDEST PUSH2 0x3BB4 DUP2 PUSH2 0x3BA1 JUMP JUMPDEST DUP3 MSTORE POP POP JUMP JUMPDEST PUSH1 0x0 PUSH2 0x3BC6 DUP4 DUP4 PUSH2 0x3BAB JUMP JUMPDEST PUSH1 0x20 DUP4 ADD SWAP1 POP SWAP3 SWAP2 POP POP JUMP JUMPDEST PUSH1 0x0 PUSH1 0x20 DUP3 ADD SWAP1 POP SWAP2 SWAP1 POP JUMP JUMPDEST PUSH1 0x0 PUSH2 0x3BEA DUP3 PUSH2 0x3B75 JUMP JUMPDEST PUSH2 0x3BF4 DUP2 DUP6 PUSH2 0x3B80 JUMP JUMPDEST SWAP4 POP PUSH2 0x3BFF DUP4 PUSH2 0x3B91 JUMP JUMPDEST DUP1 PUSH1 0x0 JUMPDEST DUP4 DUP2 LT ISZERO PUSH2 0x3C30 JUMPI DUP2 MLOAD PUSH2 0x3C17 DUP9 DUP3 PUSH2 0x3BBA JUMP JUMPDEST SWAP8 POP PUSH2 0x3C22 DUP4 PUSH2 0x3BD2 JUMP JUMPDEST SWAP3 POP POP PUSH1 0x1 DUP2 ADD SWAP1 POP PUSH2 0x3C03 JUMP JUMPDEST POP DUP6 SWAP4 POP POP POP POP SWAP3 SWAP2 POP POP JUMP JUMPDEST PUSH1 0x0 PUSH1 0x20 DUP3 ADD SWAP1 POP DUP2 DUP2 SUB PUSH1 0x0 DUP4 ADD MSTORE PUSH2 0x3C57 DUP2 DUP5 PUSH2 0x3BDF JUMP JUMPDEST SWAP1 POP SWAP3 SWAP2 POP POP JUMP JUMPDEST PUSH1 0x0 PUSH1 0x40 MLOAD SWAP1 POP SWAP1 JUMP JUMPDEST PUSH1 0x0 DUP1 REVERT JUMPDEST PUSH1 0x0 DUP1 REVERT JUMPDEST PUSH1 0x0 PUSH32 0xFFFFFFFF00000000000000000000000000000000000000000000000000000000 DUP3 AND SWAP1 POP SWAP2 SWAP1 POP JUMP JUMPDEST PUSH2 0x3CA8 DUP2 PUSH2 0x3C73 JUMP JUMPDEST DUP2 EQ PUSH2 0x3CB3 JUMPI PUSH1 0x0 DUP1 REVERT JUMPDEST POP JUMP JUMPDEST PUSH1 0x0 DUP2 CALLDATALOAD SWAP1 POP PUSH2 0x3CC5 DUP2 PUSH2 0x3C9F JUMP JUMPDEST SWAP3 SWAP2 POP POP JUMP JUMPDEST PUSH1 0x0 PUSH1 0x20 DUP3 DUP5 SUB SLT ISZERO PUSH2 0x3CE1 JUMPI PUSH2 0x3CE0 PUSH2 0x3C69 JUMP JUMPDEST JUMPDEST PUSH1 0x0 PUSH2 0x3CEF DUP5 DUP3 DUP6 ADD PUSH2 0x3CB6 JUMP JUMPDEST SWAP2 POP POP SWAP3 SWAP2 POP POP JUMP JUMPDEST PUSH1 0x0 DUP2 ISZERO ISZERO SWAP1 POP SWAP2 SWAP1 POP JUMP JUMPDEST PUSH2 0x3D0D DUP2 PUSH2 0x3CF8 JUMP JUMPDEST DUP3 MSTORE POP POP JUMP JUMPDEST PUSH1 0x0 PUSH1 0x20 DUP3 ADD SWAP1 POP PUSH2 0x3D28 PUSH1 0x0 DUP4 ADD DUP5 PUSH2 0x3D04 JUMP JUMPDEST SWAP3 SWAP2 POP POP JUMP JUMPDEST PUSH2 0x3D37 DUP2 PUSH2 0x3BA1 JUMP JUMPDEST DUP2 EQ PUSH2 0x3D42 JUMPI PUSH1 0x0 DUP1 REVERT JUMPDEST POP JUMP JUMPDEST PUSH1 0x0 DUP2 CALLDATALOAD SWAP1 POP PUSH2 0x3D54 DUP2 PUSH2 0x3D2E JUMP JUMPDEST SWAP3 SWAP2 POP POP JUMP JUMPDEST PUSH1 0x0 DUP1 REVERT JUMPDEST PUSH1 0x0 DUP1 REVERT JUMPDEST PUSH1 0x0 DUP1 REVERT JUMPDEST PUSH1 0x0 DUP1 DUP4 PUSH1 0x1F DUP5 ADD SLT PUSH2 0x3D7F JUMPI PUSH2 0x3D7E PUSH2 0x3D5A JUMP JUMPDEST JUMPDEST DUP3 CALLDATALOAD SWAP1 POP PUSH8 0xFFFFFFFFFFFFFFFF DUP2 GT ISZERO PUSH2 0x3D9C JUMPI PUSH2 0x3D9B PUSH2 0x3D5F JUMP JUMPDEST JUMPDEST PUSH1 0x20 DUP4 ADD SWAP2 POP DUP4 PUSH1 0x1 DUP3 MUL DUP4 ADD GT ISZERO PUSH2 0x3DB8 JUMPI PUSH2 0x3DB7 PUSH2 0x3D64 JUMP JUMPDEST JUMPDEST SWAP3 POP SWAP3 SWAP1 POP JUMP JUMPDEST PUSH1 0x0 DUP1 PUSH1 0x0 PUSH1 0x40 DUP5 DUP7 SUB SLT ISZERO PUSH2 0x3DD8 JUMPI PUSH2 0x3DD7 PUSH2 0x3C69 JUMP JUMPDEST JUMPDEST PUSH1 0x0 PUSH2 0x3DE6 DUP7 DUP3 DUP8 ADD PUSH2 0x3D45 JUMP JUMPDEST SWAP4 POP POP PUSH1 0x20 DUP5 ADD CALLDATALOAD PUSH8 0xFFFFFFFFFFFFFFFF DUP2 GT ISZERO PUSH2 0x3E07 JUMPI PUSH2 0x3E06 PUSH2 0x3C6E JUMP JUMPDEST JUMPDEST PUSH2 0x3E13 DUP7 DUP3 DUP8 ADD PUSH2 0x3D69 JUMP JUMPDEST SWAP3 POP SWAP3 POP POP SWAP3 POP SWAP3 POP SWAP3 JUMP JUMPDEST PUSH1 0x0 PUSH20 0xFFFFFFFFFFFFFFFFFFFFFFFFFFFFFFFFFFFFFFFF DUP3 AND SWAP1 POP SWAP2 SWAP1 POP JUMP JUMPDEST PUSH1 0x0 PUSH2 0x3E4A DUP3 PUSH2 0x3E1F JUMP JUMPDEST SWAP1 POP SWAP2 SWAP1 POP JUMP JUMPDEST PUSH2 0x3E5A DUP2 PUSH2 0x3E3F JUMP JUMPDEST DUP3 MSTORE POP POP JUMP JUMPDEST PUSH1 0x0 PUSH1 0x20 DUP3 ADD SWAP1 POP PUSH2 0x3E75 PUSH1 0x0 DUP4 ADD DUP5 PUSH2 0x3E51 JUMP JUMPDEST SWAP3 SWAP2 POP POP JUMP JUMPDEST PUSH1 0x0 DUP1 DUP4 PUSH1 0x1F DUP5 ADD SLT PUSH2 0x3E91 JUMPI PUSH2 0x3E90 PUSH2 0x3D5A JUMP JUMPDEST JUMPDEST DUP3 CALLDATALOAD SWAP1 POP PUSH8 0xFFFFFFFFFFFFFFFF DUP2 GT ISZERO PUSH2 0x3EAE JUMPI PUSH2 0x3EAD PUSH2 0x3D5F JUMP JUMPDEST JUMPDEST PUSH1 0x20 DUP4 ADD SWAP2 POP DUP4 PUSH1 0x20 DUP3 MUL DUP4 ADD GT ISZERO PUSH2 0x3ECA JUMPI PUSH2 0x3EC9 PUSH2 0x3D64 JUMP JUMPDEST JUMPDEST SWAP3 POP SWAP3 SWAP1 POP JUMP JUMPDEST PUSH1 0x0 DUP1 DUP4 PUSH1 0x1F DUP5 ADD SLT PUSH2 0x3EE7 JUMPI PUSH2 0x3EE6 PUSH2 0x3D5A JUMP JUMPDEST JUMPDEST DUP3 CALLDATALOAD SWAP1 POP PUSH8 0xFFFFFFFFFFFFFFFF DUP2 GT ISZERO PUSH2 0x3F04 JUMPI PUSH2 0x3F03 PUSH2 0x3D5F JUMP JUMPDEST JUMPDEST PUSH1 0x20 DUP4 ADD SWAP2 POP DUP4 PUSH1 0x20 DUP3 MUL DUP4 ADD GT ISZERO PUSH2 0x3F20 JUMPI PUSH2 0x3F1F PUSH2 0x3D64 JUMP JUMPDEST JUMPDEST SWAP3 POP SWAP3 SWAP1 POP JUMP JUMPDEST PUSH1 0x0 DUP2 SWAP1 POP DUP3 PUSH1 0x20 PUSH1 0x3 MUL DUP3 ADD GT ISZERO PUSH2 0x3F43 JUMPI PUSH2 0x3F42 PUSH2 0x3D64 JUMP JUMPDEST JUMPDEST SWAP3 SWAP2 POP POP JUMP JUMPDEST PUSH2 0x3F52 DUP2 PUSH2 0x3E3F JUMP JUMPDEST DUP2 EQ PUSH2 0x3F5D JUMPI PUSH1 0x0 DUP1 REVERT JUMPDEST POP JUMP JUMPDEST PUSH1 0x0 DUP2 CALLDATALOAD SWAP1 POP PUSH2 0x3F6F DUP2 PUSH2 0x3F49 JUMP JUMPDEST SWAP3 SWAP2 POP POP JUMP JUMPDEST PUSH1 0x0 DUP1 PUSH1 0x0 DUP1 PUSH1 0x0 DUP1 PUSH1 0x0 DUP1 PUSH1 0x0 DUP1 PUSH2 0x180 DUP12 DUP14 SUB SLT ISZERO PUSH2 0x3F99 JUMPI PUSH2 0x3F98 PUSH2 0x3C69 JUMP JUMPDEST JUMPDEST PUSH1 0x0 DUP12 ADD CALLDATALOAD PUSH8 0xFFFFFFFFFFFFFFFF DUP2 GT ISZERO PUSH2 0x3FB7 JUMPI PUSH2 0x3FB6 PUSH2 0x3C6E JUMP JUMPDEST JUMPDEST PUSH2 0x3FC3 DUP14 DUP3 DUP15 ADD PUSH2 0x3E7B JUMP JUMPDEST SWAP11 POP SWAP11 POP POP PUSH1 0x20 DUP12 ADD CALLDATALOAD PUSH8 0xFFFFFFFFFFFFFFFF DUP2 GT ISZERO PUSH2 0x3FE6 JUMPI PUSH2 0x3FE5 PUSH2 0x3C6E JUMP JUMPDEST JUMPDEST PUSH2 0x3FF2 DUP14 DUP3 DUP15 ADD PUSH2 0x3ED1 JUMP JUMPDEST SWAP9 POP SWAP9 POP POP PUSH1 0x40 PUSH2 0x4005 DUP14 DUP3 DUP15 ADD PUSH2 0x3F27 JUMP JUMPDEST SWAP7 POP POP PUSH1 0xA0 PUSH2 0x4016 DUP14 DUP3 DUP15 ADD PUSH2 0x3F60 JUMP JUMPDEST SWAP6 POP POP PUSH1 0xC0 PUSH2 0x4027 DUP14 DUP3 DUP15 ADD PUSH2 0x3F60 JUMP JUMPDEST SWAP5 POP POP PUSH1 0xE0 PUSH2 0x4038 DUP14 DUP3 DUP15 ADD PUSH2 0x3F60 JUMP JUMPDEST SWAP4 POP POP PUSH2 0x100 PUSH2 0x404A DUP14 DUP3 DUP15 ADD PUSH2 0x3F60 JUMP JUMPDEST SWAP3 POP POP PUSH2 0x120 PUSH2 0x405C DUP14 DUP3 DUP15 ADD PUSH2 0x3F27 JUMP JUMPDEST SWAP2 POP POP SWAP3 SWAP6 SWAP9 SWAP12 SWAP2 SWAP5 SWAP8 SWAP11 POP SWAP3 SWAP6 SWAP9 POP JUMP JUMPDEST PUSH1 0x0 PUSH1 0x20 DUP3 DUP5 SUB SLT ISZERO PUSH2 0x4084 JUMPI PUSH2 0x4083 PUSH2 0x3C69 JUMP JUMPDEST JUMPDEST PUSH1 0x0 PUSH2 0x4092 DUP5 DUP3 DUP6 ADD PUSH2 0x3F60 JUMP JUMPDEST SWAP2 POP POP SWAP3 SWAP2 POP POP JUMP JUMPDEST PUSH1 0x0 DUP2 SWAP1 POP SWAP2 SWAP1 POP JUMP JUMPDEST PUSH2 0x40AE DUP2 PUSH2 0x409B JUMP JUMPDEST DUP2 EQ PUSH2 0x40B9 JUMPI PUSH1 0x0 DUP1 REVERT JUMPDEST POP JUMP JUMPDEST PUSH1 0x0 DUP2 CALLDATALOAD SWAP1 POP PUSH2 0x40CB DUP2 PUSH2 0x40A5 JUMP JUMPDEST SWAP3 SWAP2 POP POP JUMP JUMPDEST PUSH1 0x0 PUSH1 0x20 DUP3 DUP5 SUB SLT ISZERO PUSH2 0x40E7 JUMPI PUSH2 0x40E6 PUSH2 0x3C69 JUMP JUMPDEST JUMPDEST PUSH1 0x0 PUSH2 0x40F5 DUP5 DUP3 DUP6 ADD PUSH2 0x40BC JUMP JUMPDEST SWAP2 POP POP SWAP3 SWAP2 POP POP JUMP JUMPDEST PUSH2 0x4107 DUP2 PUSH2 0x409B JUMP JUMPDEST DUP3 MSTORE POP POP JUMP JUMPDEST PUSH1 0x0 PUSH1 0x20 DUP3 ADD SWAP1 POP PUSH2 0x4122 PUSH1 0x0 DUP4 ADD DUP5 PUSH2 0x40FE JUMP JUMPDEST SWAP3 SWAP2 POP POP JUMP JUMPDEST PUSH1 0x0 PUSH1 0x20 DUP3 DUP5 SUB SLT ISZERO PUSH2 0x413E JUMPI PUSH2 0x413D PUSH2 0x3C69 JUMP JUMPDEST JUMPDEST PUSH1 0x0 PUSH2 0x414C DUP5 DUP3 DUP6 ADD PUSH2 0x3D45 JUMP JUMPDEST SWAP2 POP POP SWAP3 SWAP2 POP POP JUMP JUMPDEST PUSH1 0x0 DUP2 MLOAD SWAP1 POP SWAP2 SWAP1 POP JUMP JUMPDEST PUSH1 0x0 DUP3 DUP3 MSTORE PUSH1 0x20 DUP3 ADD SWAP1 POP SWAP3 SWAP2 POP POP JUMP JUMPDEST PUSH1 0x0 DUP2 SWAP1 POP PUSH1 0x20 DUP3 ADD SWAP1 POP SWAP2 SWAP1 POP JUMP JUMPDEST PUSH1 0x0 DUP2 MLOAD SWAP1 POP SWAP2 SWAP1 POP JUMP JUMPDEST PUSH1 0x0 DUP3 DUP3 MSTORE PUSH1 0x20 DUP3 ADD SWAP1 POP SWAP3 SWAP2 POP POP JUMP JUMPDEST PUSH1 0x0 JUMPDEST DUP4 DUP2 LT ISZERO PUSH2 0x41BB JUMPI DUP1 DUP3 ADD MLOAD DUP2 DUP5 ADD MSTORE PUSH1 0x20 DUP2 ADD SWAP1 POP PUSH2 0x41A0 JUMP JUMPDEST PUSH1 0x0 DUP5 DUP5 ADD MSTORE POP POP POP POP JUMP JUMPDEST PUSH1 0x0 PUSH1 0x1F NOT PUSH1 0x1F DUP4 ADD AND SWAP1 POP SWAP2 SWAP1 POP JUMP JUMPDEST PUSH1 0x0 PUSH2 0x41E3 DUP3 PUSH2 0x4181 JUMP JUMPDEST PUSH2 0x41ED DUP2 DUP6 PUSH2 0x418C JUMP JUMPDEST SWAP4 POP PUSH2 0x41FD DUP2 DUP6 PUSH1 0x20 DUP7 ADD PUSH2 0x419D JUMP JUMPDEST PUSH2 0x4206 DUP2 PUSH2 0x41C7 JUMP JUMPDEST DUP5 ADD SWAP2 POP POP SWAP3 SWAP2 POP POP JUMP JUMPDEST PUSH1 0x0 PUSH2 0x421D DUP4 DUP4 PUSH2 0x41D8 JUMP JUMPDEST SWAP1 POP SWAP3 SWAP2 POP POP JUMP JUMPDEST PUSH1 0x0 PUSH1 0x20 DUP3 ADD SWAP1 POP SWAP2 SWAP1 POP JUMP JUMPDEST PUSH1 0x0 PUSH2 0x423D DUP3 PUSH2 0x4155 JUMP JUMPDEST PUSH2 0x4247 DUP2 DUP6 PUSH2 0x4160 JUMP JUMPDEST SWAP4 POP DUP4 PUSH1 0x20 DUP3 MUL DUP6 ADD PUSH2 0x4259 DUP6 PUSH2 0x4171 JUMP JUMPDEST DUP1 PUSH1 0x0 JUMPDEST DUP6 DUP2 LT ISZERO PUSH2 0x4295 JUMPI DUP5 DUP5 SUB DUP10 MSTORE DUP2 MLOAD PUSH2 0x4276 DUP6 DUP3 PUSH2 0x4211 JUMP JUMPDEST SWAP5 POP PUSH2 0x4281 DUP4 PUSH2 0x4225 JUMP JUMPDEST SWAP3 POP PUSH1 0x20 DUP11 ADD SWAP10 POP POP PUSH1 0x1 DUP2 ADD SWAP1 POP PUSH2 0x425D JUMP JUMPDEST POP DUP3 SWAP8 POP DUP8 SWAP6 POP POP POP POP POP POP SWAP3 SWAP2 POP POP JUMP JUMPDEST PUSH1 0x0 PUSH1 0x20 DUP3 ADD SWAP1 POP DUP2 DUP2 SUB PUSH1 0x0 DUP4 ADD MSTORE PUSH2 0x42C1 DUP2 DUP5 PUSH2 0x4232 JUMP JUMPDEST SWAP1 POP SWAP3 SWAP2 POP POP JUMP JUMPDEST PUSH1 0x0 DUP1 PUSH1 0x40 DUP4 DUP6 SUB SLT ISZERO PUSH2 0x42E0 JUMPI PUSH2 0x42DF PUSH2 0x3C69 JUMP JUMPDEST JUMPDEST PUSH1 0x0 PUSH2 0x42EE DUP6 DUP3 DUP7 ADD PUSH2 0x40BC JUMP JUMPDEST SWAP3 POP POP PUSH1 0x20 PUSH2 0x42FF DUP6 DUP3 DUP7 ADD PUSH2 0x3F60 JUMP JUMPDEST SWAP2 POP POP SWAP3 POP SWAP3 SWAP1 POP JUMP JUMPDEST PUSH1 0x0 DUP1 DUP4 PUSH1 0x1F DUP5 ADD SLT PUSH2 0x431F JUMPI PUSH2 0x431E PUSH2 0x3D5A JUMP JUMPDEST JUMPDEST DUP3 CALLDATALOAD SWAP1 POP PUSH8 0xFFFFFFFFFFFFFFFF DUP2 GT ISZERO PUSH2 0x433C JUMPI PUSH2 0x433B PUSH2 0x3D5F JUMP JUMPDEST JUMPDEST PUSH1 0x20 DUP4 ADD SWAP2 POP DUP4 PUSH1 0x20 DUP3 MUL DUP4 ADD GT ISZERO PUSH2 0x4358 JUMPI PUSH2 0x4357 PUSH2 0x3D64 JUMP JUMPDEST JUMPDEST SWAP3 POP SWAP3 SWAP1 POP JUMP JUMPDEST PUSH1 0x0 DUP1 PUSH1 0x20 DUP4 DUP6 SUB SLT ISZERO PUSH2 0x4376 JUMPI PUSH2 0x4375 PUSH2 0x3C69 JUMP JUMPDEST JUMPDEST PUSH1 0x0 DUP4 ADD CALLDATALOAD PUSH8 0xFFFFFFFFFFFFFFFF DUP2 GT ISZERO PUSH2 0x4394 JUMPI PUSH2 0x4393 PUSH2 0x3C6E JUMP JUMPDEST JUMPDEST PUSH2 0x43A0 DUP6 DUP3 DUP7 ADD PUSH2 0x4309 JUMP JUMPDEST SWAP3 POP SWAP3 POP POP SWAP3 POP SWAP3 SWAP1 POP JUMP JUMPDEST PUSH1 0x0 PUSH2 0x43B7 DUP3 PUSH2 0x4181 JUMP JUMPDEST PUSH2 0x43C1 DUP2 DUP6 PUSH2 0x3AF8 JUMP JUMPDEST SWAP4 POP PUSH2 0x43D1 DUP2 DUP6 PUSH1 0x20 DUP7 ADD PUSH2 0x419D JUMP JUMPDEST PUSH2 0x43DA DUP2 PUSH2 0x41C7 JUMP JUMPDEST DUP5 ADD SWAP2 POP POP SWAP3 SWAP2 POP POP JUMP JUMPDEST PUSH1 0x0 PUSH1 0x20 DUP3 ADD SWAP1 POP DUP2 DUP2 SUB PUSH1 0x0 DUP4 ADD MSTORE PUSH2 0x43FF DUP2 DUP5 PUSH2 0x43AC JUMP JUMPDEST SWAP1 POP SWAP3 SWAP2 POP POP JUMP JUMPDEST PUSH1 0x0 DUP1 REVERT JUMPDEST PUSH32 0x4E487B7100000000000000000000000000000000000000000000000000000000 PUSH1 0x0 MSTORE PUSH1 0x41 PUSH1 0x4 MSTORE PUSH1 0x24 PUSH1 0x0 REVERT JUMPDEST PUSH2 0x4444 DUP3 PUSH2 0x41C7 JUMP JUMPDEST DUP2 ADD DUP2 DUP2 LT PUSH8 0xFFFFFFFFFFFFFFFF DUP3 GT OR ISZERO PUSH2 0x4463 JUMPI PUSH2 0x4462 PUSH2 0x440C JUMP JUMPDEST JUMPDEST DUP1 PUSH1 0x40 MSTORE POP POP POP JUMP JUMPDEST PUSH1 0x0 PUSH2 0x4476 PUSH2 0x3C5F JUMP JUMPDEST SWAP1 POP PUSH2 0x4482 DUP3 DUP3 PUSH2 0x443B JUMP JUMPDEST SWAP2 SWAP1 POP JUMP JUMPDEST PUSH1 0x0 PUSH8 0xFFFFFFFFFFFFFFFF DUP3 GT ISZERO PUSH2 0x44A2 JUMPI PUSH2 0x44A1 PUSH2 0x440C JUMP JUMPDEST JUMPDEST PUSH2 0x44AB DUP3 PUSH2 0x41C7 JUMP JUMPDEST SWAP1 POP PUSH1 0x20 DUP2 ADD SWAP1 POP SWAP2 SWAP1 POP JUMP JUMPDEST DUP3 DUP2 DUP4 CALLDATACOPY PUSH1 0x0 DUP4 DUP4 ADD MSTORE POP POP POP JUMP JUMPDEST PUSH1 0x0 PUSH2 0x44DA PUSH2 0x44D5 DUP5 PUSH2 0x4487 JUMP JUMPDEST PUSH2 0x446C JUMP JUMPDEST SWAP1 POP DUP3 DUP2 MSTORE PUSH1 0x20 DUP2 ADD DUP5 DUP5 DUP5 ADD GT ISZERO PUSH2 0x44F6 JUMPI PUSH2 0x44F5 PUSH2 0x4407 JUMP JUMPDEST JUMPDEST PUSH2 0x4501 DUP5 DUP3 DUP6 PUSH2 0x44B8 JUMP JUMPDEST POP SWAP4 SWAP3 POP POP POP JUMP JUMPDEST PUSH1 0x0 DUP3 PUSH1 0x1F DUP4 ADD SLT PUSH2 0x451E JUMPI PUSH2 0x451D PUSH2 0x3D5A JUMP JUMPDEST JUMPDEST DUP2 CALLDATALOAD PUSH2 0x452E DUP5 DUP3 PUSH1 0x20 DUP7 ADD PUSH2 0x44C7 JUMP JUMPDEST SWAP2 POP POP SWAP3 SWAP2 POP POP JUMP JUMPDEST PUSH1 0x0 PUSH1 0x20 DUP3 DUP5 SUB SLT ISZERO PUSH2 0x454D JUMPI PUSH2 0x454C PUSH2 0x3C69 JUMP JUMPDEST JUMPDEST PUSH1 0x0 DUP3 ADD CALLDATALOAD PUSH8 0xFFFFFFFFFFFFFFFF DUP2 GT ISZERO PUSH2 0x456B JUMPI PUSH2 0x456A PUSH2 0x3C6E JUMP JUMPDEST JUMPDEST PUSH2 0x4577 DUP5 DUP3 DUP6 ADD PUSH2 0x4509 JUMP JUMPDEST SWAP2 POP POP SWAP3 SWAP2 POP POP JUMP JUMPDEST PUSH2 0x4589 DUP2 PUSH2 0x3BA1 JUMP JUMPDEST DUP3 MSTORE POP POP JUMP JUMPDEST PUSH1 0x0 PUSH1 0x20 DUP3 ADD SWAP1 POP PUSH2 0x45A4 PUSH1 0x0 DUP4 ADD DUP5 PUSH2 0x4580 JUMP JUMPDEST SWAP3 SWAP2 POP POP JUMP JUMPDEST PUSH1 0x0 DUP1 PUSH1 0x40 DUP4 DUP6 SUB SLT ISZERO PUSH2 0x45C1 JUMPI PUSH2 0x45C0 PUSH2 0x3C69 JUMP JUMPDEST JUMPDEST PUSH1 0x0 PUSH2 0x45CF DUP6 DUP3 DUP7 ADD PUSH2 0x3F60 JUMP JUMPDEST SWAP3 POP POP PUSH1 0x20 PUSH2 0x45E0 DUP6 DUP3 DUP7 ADD PUSH2 0x3D45 JUMP JUMPDEST SWAP2 POP POP SWAP3 POP SWAP3 SWAP1 POP JUMP JUMPDEST PUSH1 0x0 DUP1 PUSH1 0x40 DUP4 DUP6 SUB SLT ISZERO PUSH2 0x4601 JUMPI PUSH2 0x4600 PUSH2 0x3C69 JUMP JUMPDEST JUMPDEST PUSH1 0x0 PUSH2 0x460F DUP6 DUP3 DUP7 ADD PUSH2 0x40BC JUMP JUMPDEST SWAP3 POP POP PUSH1 0x20 PUSH2 0x4620 DUP6 DUP3 DUP7 ADD PUSH2 0x3D45 JUMP JUMPDEST SWAP2 POP POP SWAP3 POP SWAP3 SWAP1 POP JUMP JUMPDEST PUSH32 0x4E487B7100000000000000000000000000000000000000000000000000000000 PUSH1 0x0 MSTORE PUSH1 0x11 PUSH1 0x4 MSTORE PUSH1 0x24 PUSH1 0x0 REVERT JUMPDEST PUSH1 0x0 PUSH2 0x4664 DUP3 PUSH2 0x3BA1 JUMP JUMPDEST SWAP2 POP PUSH2 0x466F DUP4 PUSH2 0x3BA1 JUMP JUMPDEST SWAP3 POP DUP3 DUP3 ADD SWAP1 POP DUP1 DUP3 GT ISZERO PUSH2 0x4687 JUMPI PUSH2 0x4686 PUSH2 0x462A JUMP JUMPDEST JUMPDEST SWAP3 SWAP2 POP POP JUMP JUMPDEST PUSH32 0x4E487B7100000000000000000000000000000000000000000000000000000000 PUSH1 0x0 MSTORE PUSH1 0x32 PUSH1 0x4 MSTORE PUSH1 0x24 PUSH1 0x0 REVERT JUMPDEST PUSH1 0x0 PUSH2 0x46C7 DUP3 PUSH2 0x3BA1 JUMP JUMPDEST SWAP2 POP PUSH2 0x46D2 DUP4 PUSH2 0x3BA1 JUMP JUMPDEST SWAP3 POP DUP3 DUP3 SUB SWAP1 POP DUP2 DUP2 GT ISZERO PUSH2 0x46EA JUMPI PUSH2 0x46E9 PUSH2 0x462A JUMP JUMPDEST JUMPDEST SWAP3 SWAP2 POP POP JUMP JUMPDEST PUSH32 0x4E487B7100000000000000000000000000000000000000000000000000000000 PUSH1 0x0 MSTORE PUSH1 0x22 PUSH1 0x4 MSTORE PUSH1 0x24 PUSH1 0x0 REVERT JUMPDEST PUSH1 0x0 PUSH1 0x2 DUP3 DIV SWAP1 POP PUSH1 0x1 DUP3 AND DUP1 PUSH2 0x4737 JUMPI PUSH1 0x7F DUP3 AND SWAP2 POP JUMPDEST PUSH1 0x20 DUP3 LT DUP2 SUB PUSH2 0x474A JUMPI PUSH2 0x4749 PUSH2 0x46F0 JUMP JUMPDEST JUMPDEST POP SWAP2 SWAP1 POP JUMP JUMPDEST PUSH1 0x0 PUSH2 0x475B DUP3 PUSH2 0x3BA1 JUMP JUMPDEST SWAP2 POP PUSH32 0xFFFFFFFFFFFFFFFFFFFFFFFFFFFFFFFFFFFFFFFFFFFFFFFFFFFFFFFFFFFFFFFF DUP3 SUB PUSH2 0x478D JUMPI PUSH2 0x478C PUSH2 0x462A JUMP JUMPDEST JUMPDEST PUSH1 0x1 DUP3 ADD SWAP1 POP SWAP2 SWAP1 POP JUMP JUMPDEST PUSH1 0x0 PUSH2 0x47A4 DUP4 DUP6 PUSH2 0x3A8C JUMP JUMPDEST SWAP4 POP PUSH2 0x47B1 DUP4 DUP6 DUP5 PUSH2 0x44B8 JUMP JUMPDEST DUP3 DUP5 ADD SWAP1 POP SWAP4 SWAP3 POP POP POP JUMP JUMPDEST PUSH1 0x0 PUSH2 0x47CA DUP3 DUP5 DUP7 PUSH2 0x4798 JUMP JUMPDEST SWAP2 POP DUP2 SWAP1 POP SWAP4 SWAP3 POP POP POP JUMP JUMPDEST PUSH1 0x0 PUSH2 0x47E2 DUP4 DUP6 PUSH2 0x3AF8 JUMP JUMPDEST SWAP4 POP PUSH2 0x47EF DUP4 DUP6 DUP5 PUSH2 0x44B8 JUMP JUMPDEST PUSH2 0x47F8 DUP4 PUSH2 0x41C7 JUMP JUMPDEST DUP5 ADD SWAP1 POP SWAP4 SWAP3 POP POP POP JUMP JUMPDEST PUSH1 0x0 PUSH1 0x80 DUP3 ADD SWAP1 POP PUSH2 0x4818 PUSH1 0x0 DUP4 ADD DUP9 PUSH2 0x3E51 JUMP JUMPDEST DUP2 DUP2 SUB PUSH1 0x20 DUP4 ADD MSTORE PUSH2 0x482B DUP2 DUP7 DUP9 PUSH2 0x47D6 JUMP JUMPDEST SWAP1 POP PUSH2 0x483A PUSH1 0x40 DUP4 ADD DUP6 PUSH2 0x4580 JUMP JUMPDEST PUSH2 0x4847 PUSH1 0x60 DUP4 ADD DUP5 PUSH2 0x3E51 JUMP JUMPDEST SWAP7 SWAP6 POP POP POP POP POP POP JUMP JUMPDEST PUSH32 0x496E697469616C697A61626C653A20636F6E747261637420697320616C726561 PUSH1 0x0 DUP3 ADD MSTORE PUSH32 0x647920696E697469616C697A6564000000000000000000000000000000000000 PUSH1 0x20 DUP3 ADD MSTORE POP JUMP JUMPDEST PUSH1 0x0 PUSH2 0x48AD PUSH1 0x2E DUP4 PUSH2 0x3AF8 JUMP JUMPDEST SWAP2 POP PUSH2 0x48B8 DUP3 PUSH2 0x4851 JUMP JUMPDEST PUSH1 0x40 DUP3 ADD SWAP1 POP SWAP2 SWAP1 POP JUMP JUMPDEST PUSH1 0x0 PUSH1 0x20 DUP3 ADD SWAP1 POP DUP2 DUP2 SUB PUSH1 0x0 DUP4 ADD MSTORE PUSH2 0x48DC DUP2 PUSH2 0x48A0 JUMP JUMPDEST SWAP1 POP SWAP2 SWAP1 POP JUMP JUMPDEST PUSH32 0x41646D696E416464720000000000000000000000000000000000000000000000 PUSH1 0x0 DUP3 ADD MSTORE POP JUMP JUMPDEST PUSH1 0x0 PUSH2 0x4919 PUSH1 0x9 DUP4 PUSH2 0x3AF8 JUMP JUMPDEST SWAP2 POP PUSH2 0x4924 DUP3 PUSH2 0x48E3 JUMP JUMPDEST PUSH1 0x20 DUP3 ADD SWAP1 POP SWAP2 SWAP1 POP JUMP JUMPDEST PUSH1 0x0 PUSH1 0x20 DUP3 ADD SWAP1 POP DUP2 DUP2 SUB PUSH1 0x0 DUP4 ADD MSTORE PUSH2 0x4948 DUP2 PUSH2 0x490C JUMP JUMPDEST SWAP1 POP SWAP2 SWAP1 POP JUMP JUMPDEST PUSH32 0x5265736375654164647200000000000000000000000000000000000000000000 PUSH1 0x0 DUP3 ADD MSTORE POP JUMP JUMPDEST PUSH1 0x0 PUSH2 0x4985 PUSH1 0xA DUP4 PUSH2 0x3AF8 JUMP JUMPDEST SWAP2 POP PUSH2 0x4990 DUP3 PUSH2 0x494F JUMP JUMPDEST PUSH1 0x20 DUP3 ADD SWAP1 POP SWAP2 SWAP1 POP JUMP JUMPDEST PUSH1 0x0 PUSH1 0x20 DUP3 ADD SWAP1 POP DUP2 DUP2 SUB PUSH1 0x0 DUP4 ADD MSTORE PUSH2 0x49B4 DUP2 PUSH2 0x4978 JUMP JUMPDEST SWAP1 POP SWAP2 SWAP1 POP JUMP JUMPDEST PUSH32 0x5769746864726177416464720000000000000000000000000000000000000000 PUSH1 0x0 DUP3 ADD MSTORE POP JUMP JUMPDEST PUSH1 0x0 PUSH2 0x49F1 PUSH1 0xC DUP4 PUSH2 0x3AF8 JUMP JUMPDEST SWAP2 POP PUSH2 0x49FC DUP3 PUSH2 0x49BB JUMP JUMPDEST PUSH1 0x20 DUP3 ADD SWAP1 POP SWAP2 SWAP1 POP JUMP JUMPDEST PUSH1 0x0 PUSH1 0x20 DUP3 ADD SWAP1 POP DUP2 DUP2 SUB PUSH1 0x0 DUP4 ADD MSTORE PUSH2 0x4A20 DUP2 PUSH2 0x49E4 JUMP JUMPDEST SWAP1 POP SWAP2 SWAP1 POP JUMP JUMPDEST PUSH32 0x46697273744C656E6465724C6971416464720000000000000000000000000000 PUSH1 0x0 DUP3 ADD MSTORE POP JUMP JUMPDEST PUSH1 0x0 PUSH2 0x4A5D PUSH1 0x12 DUP4 PUSH2 0x3AF8 JUMP JUMPDEST SWAP2 POP PUSH2 0x4A68 DUP3 PUSH2 0x4A27 JUMP JUMPDEST PUSH1 0x20 DUP3 ADD SWAP1 POP SWAP2 SWAP1 POP JUMP JUMPDEST PUSH1 0x0 PUSH1 0x20 DUP3 ADD SWAP1 POP DUP2 DUP2 SUB PUSH1 0x0 DUP4 ADD MSTORE PUSH2 0x4A8C DUP2 PUSH2 0x4A50 JUMP JUMPDEST SWAP1 POP SWAP2 SWAP1 POP JUMP JUMPDEST PUSH32 0x5365636F6E644C656E6465724C69714164647200000000000000000000000000 PUSH1 0x0 DUP3 ADD MSTORE POP JUMP JUMPDEST PUSH1 0x0 PUSH2 0x4AC9 PUSH1 0x13 DUP4 PUSH2 0x3AF8 JUMP JUMPDEST SWAP2 POP PUSH2 0x4AD4 DUP3 PUSH2 0x4A93 JUMP JUMPDEST PUSH1 0x20 DUP3 ADD SWAP1 POP SWAP2 SWAP1 POP JUMP JUMPDEST PUSH1 0x0 PUSH1 0x20 DUP3 ADD SWAP1 POP DUP2 DUP2 SUB PUSH1 0x0 DUP4 ADD MSTORE PUSH2 0x4AF8 DUP2 PUSH2 0x4ABC JUMP JUMPDEST SWAP1 POP SWAP2 SWAP1 POP JUMP JUMPDEST PUSH32 0x546F6B656E206E616D6520616E642061646472657373206172726179206C656E PUSH1 0x0 DUP3 ADD MSTORE PUSH32 0x67746873206D757374206D617463680000000000000000000000000000000000 PUSH1 0x20 DUP3 ADD MSTORE POP JUMP JUMPDEST PUSH1 0x0 PUSH2 0x4B5B PUSH1 0x2F DUP4 PUSH2 0x3AF8 JUMP JUMPDEST SWAP2 POP PUSH2 0x4B66 DUP3 PUSH2 0x4AFF JUMP JUMPDEST PUSH1 0x40 DUP3 ADD SWAP1 POP SWAP2 SWAP1 POP JUMP JUMPDEST PUSH1 0x0 PUSH1 0x20 DUP3 ADD SWAP1 POP DUP2 DUP2 SUB PUSH1 0x0 DUP4 ADD MSTORE PUSH2 0x4B8A DUP2 PUSH2 0x4B4E JUMP JUMPDEST SWAP1 POP SWAP2 SWAP1 POP JUMP JUMPDEST PUSH1 0x0 DUP1 REVERT JUMPDEST PUSH1 0x0 DUP1 REVERT JUMPDEST PUSH1 0x0 DUP1 REVERT JUMPDEST PUSH1 0x0 DUP1 DUP4 CALLDATALOAD PUSH1 0x1 PUSH1 0x20 SUB DUP5 CALLDATASIZE SUB SUB DUP2 SLT PUSH2 0x4BBD JUMPI PUSH2 0x4BBC PUSH2 0x4B91 JUMP JUMPDEST JUMPDEST DUP1 DUP5 ADD SWAP3 POP DUP3 CALLDATALOAD SWAP2 POP PUSH8 0xFFFFFFFFFFFFFFFF DUP3 GT ISZERO PUSH2 0x4BDF JUMPI PUSH2 0x4BDE PUSH2 0x4B96 JUMP JUMPDEST JUMPDEST PUSH1 0x20 DUP4 ADD SWAP3 POP PUSH1 0x1 DUP3 MUL CALLDATASIZE SUB DUP4 SGT ISZERO PUSH2 0x4BFB JUMPI PUSH2 0x4BFA PUSH2 0x4B9B JUMP JUMPDEST JUMPDEST POP SWAP3 POP SWAP3 SWAP1 POP JUMP JUMPDEST PUSH1 0x0 DUP3 SWAP1 POP SWAP3 SWAP2 POP POP JUMP JUMPDEST PUSH1 0x0 DUP2 SWAP1 POP DUP2 PUSH1 0x0 MSTORE PUSH1 0x20 PUSH1 0x0 KECCAK256 SWAP1 POP SWAP2 SWAP1 POP JUMP JUMPDEST PUSH1 0x0 PUSH1 0x20 PUSH1 0x1F DUP4 ADD DIV SWAP1 POP SWAP2 SWAP1 POP JUMP JUMPDEST PUSH1 0x0 DUP3 DUP3 SHL SWAP1 POP SWAP3 SWAP2 POP POP JUMP JUMPDEST PUSH1 0x0 PUSH1 0x8 DUP4 MUL PUSH2 0x4C70 PUSH32 0xFFFFFFFFFFFFFFFFFFFFFFFFFFFFFFFFFFFFFFFFFFFFFFFFFFFFFFFFFFFFFFFF DUP3 PUSH2 0x4C33 JUMP JUMPDEST PUSH2 0x4C7A DUP7 DUP4 PUSH2 0x4C33 JUMP JUMPDEST SWAP6 POP DUP1 NOT DUP5 AND SWAP4 POP DUP1 DUP7 AND DUP5 OR SWAP3 POP POP POP SWAP4 SWAP3 POP POP POP JUMP JUMPDEST PUSH1 0x0 DUP2 SWAP1 POP SWAP2 SWAP1 POP JUMP JUMPDEST PUSH1 0x0 PUSH2 0x4CB7 PUSH2 0x4CB2 PUSH2 0x4CAD DUP5 PUSH2 0x3BA1 JUMP JUMPDEST PUSH2 0x4C92 JUMP JUMPDEST PUSH2 0x3BA1 JUMP JUMPDEST SWAP1 POP SWAP2 SWAP1 POP JUMP JUMPDEST PUSH1 0x0 DUP2 SWAP1 POP SWAP2 SWAP1 POP JUMP JUMPDEST PUSH2 0x4CD1 DUP4 PUSH2 0x4C9C JUMP JUMPDEST PUSH2 0x4CE5 PUSH2 0x4CDD DUP3 PUSH2 0x4CBE JUMP JUMPDEST DUP5 DUP5 SLOAD PUSH2 0x4C40 JUMP JUMPDEST DUP3 SSTORE POP POP POP POP JUMP JUMPDEST PUSH1 0x0 SWAP1 JUMP JUMPDEST PUSH2 0x4CFA PUSH2 0x4CED JUMP JUMPDEST PUSH2 0x4D05 DUP2 DUP5 DUP5 PUSH2 0x4CC8 JUMP JUMPDEST POP POP POP JUMP JUMPDEST JUMPDEST DUP2 DUP2 LT ISZERO PUSH2 0x4D29 JUMPI PUSH2 0x4D1E PUSH1 0x0 DUP3 PUSH2 0x4CF2 JUMP JUMPDEST PUSH1 0x1 DUP2 ADD SWAP1 POP PUSH2 0x4D0B JUMP JUMPDEST POP POP JUMP JUMPDEST PUSH1 0x1F DUP3 GT ISZERO PUSH2 0x4D6E JUMPI PUSH2 0x4D3F DUP2 PUSH2 0x4C0E JUMP JUMPDEST PUSH2 0x4D48 DUP5 PUSH2 0x4C23 JUMP JUMPDEST DUP2 ADD PUSH1 0x20 DUP6 LT ISZERO PUSH2 0x4D57 JUMPI DUP2 SWAP1 POP JUMPDEST PUSH2 0x4D6B PUSH2 0x4D63 DUP6 PUSH2 0x4C23 JUMP JUMPDEST DUP4 ADD DUP3 PUSH2 0x4D0A JUMP JUMPDEST POP POP JUMPDEST POP POP POP JUMP JUMPDEST PUSH1 0x0 DUP3 DUP3 SHR SWAP1 POP SWAP3 SWAP2 POP POP JUMP JUMPDEST PUSH1 0x0 PUSH2 0x4D91 PUSH1 0x0 NOT DUP5 PUSH1 0x8 MUL PUSH2 0x4D73 JUMP JUMPDEST NOT DUP1 DUP4 AND SWAP2 POP POP SWAP3 SWAP2 POP POP JUMP JUMPDEST PUSH1 0x0 PUSH2 0x4DAA DUP4 DUP4 PUSH2 0x4D80 JUMP JUMPDEST SWAP2 POP DUP3 PUSH1 0x2 MUL DUP3 OR SWAP1 POP SWAP3 SWAP2 POP POP JUMP JUMPDEST PUSH2 0x4DC4 DUP4 DUP4 PUSH2 0x4C03 JUMP JUMPDEST PUSH8 0xFFFFFFFFFFFFFFFF DUP2 GT ISZERO PUSH2 0x4DDD JUMPI PUSH2 0x4DDC PUSH2 0x440C JUMP JUMPDEST JUMPDEST PUSH2 0x4DE7 DUP3 SLOAD PUSH2 0x471F JUMP JUMPDEST PUSH2 0x4DF2 DUP3 DUP3 DUP6 PUSH2 0x4D2D JUMP JUMPDEST PUSH1 0x0 PUSH1 0x1F DUP4 GT PUSH1 0x1 DUP2 EQ PUSH2 0x4E21 JUMPI PUSH1 0x0 DUP5 ISZERO PUSH2 0x4E0F JUMPI DUP3 DUP8 ADD CALLDATALOAD SWAP1 POP JUMPDEST PUSH2 0x4E19 DUP6 DUP3 PUSH2 0x4D9E JUMP JUMPDEST DUP7 SSTORE POP PUSH2 0x4E81 JUMP JUMPDEST PUSH1 0x1F NOT DUP5 AND PUSH2 0x4E2F DUP7 PUSH2 0x4C0E JUMP JUMPDEST PUSH1 0x0 JUMPDEST DUP3 DUP2 LT ISZERO PUSH2 0x4E57 JUMPI DUP5 DUP10 ADD CALLDATALOAD DUP3 SSTORE PUSH1 0x1 DUP3 ADD SWAP2 POP PUSH1 0x20 DUP6 ADD SWAP5 POP PUSH1 0x20 DUP2 ADD SWAP1 POP PUSH2 0x4E32 JUMP JUMPDEST DUP7 DUP4 LT ISZERO PUSH2 0x4E74 JUMPI DUP5 DUP10 ADD CALLDATALOAD PUSH2 0x4E70 PUSH1 0x1F DUP10 AND DUP3 PUSH2 0x4D80 JUMP JUMPDEST DUP4 SSTORE POP JUMPDEST PUSH1 0x1 PUSH1 0x2 DUP9 MUL ADD DUP9 SSTORE POP POP POP JUMPDEST POP POP POP POP POP POP POP JUMP JUMPDEST PUSH1 0x0 DUP2 SLOAD PUSH2 0x4E97 DUP2 PUSH2 0x471F JUMP JUMPDEST PUSH2 0x4EA1 DUP2 DUP7 PUSH2 0x3A8C JUMP JUMPDEST SWAP5 POP PUSH1 0x1 DUP3 AND PUSH1 0x0 DUP2 EQ PUSH2 0x4EBC JUMPI PUSH1 0x1 DUP2 EQ PUSH2 0x4ED1 JUMPI PUSH2 0x4F04 JUMP JUMPDEST PUSH1 0xFF NOT DUP4 AND DUP7 MSTORE DUP2 ISZERO ISZERO DUP3 MUL DUP7 ADD SWAP4 POP PUSH2 0x4F04 JUMP JUMPDEST PUSH2 0x4EDA DUP6 PUSH2 0x4C0E JUMP JUMPDEST PUSH1 0x0 JUMPDEST DUP4 DUP2 LT ISZERO PUSH2 0x4EFC JUMPI DUP2 SLOAD DUP2 DUP10 ADD MSTORE PUSH1 0x1 DUP3 ADD SWAP2 POP PUSH1 0x20 DUP2 ADD SWAP1 POP PUSH2 0x4EDD JUMP JUMPDEST DUP4 DUP9 ADD SWAP6 POP POP POP JUMPDEST POP POP POP SWAP3 SWAP2 POP POP JUMP JUMPDEST PUSH1 0x0 PUSH2 0x4F19 DUP3 DUP5 PUSH2 0x4E8A JUMP JUMPDEST SWAP2 POP DUP2 SWAP1 POP SWAP3 SWAP2 POP POP JUMP JUMPDEST PUSH32 0x726F757465720000000000000000000000000000000000000000000000000000 PUSH1 0x0 DUP3 ADD MSTORE POP JUMP JUMPDEST PUSH1 0x0 PUSH2 0x4F5A PUSH1 0x6 DUP4 PUSH2 0x3A8C JUMP JUMPDEST SWAP2 POP PUSH2 0x4F65 DUP3 PUSH2 0x4F24 JUMP JUMPDEST PUSH1 0x6 DUP3 ADD SWAP1 POP SWAP2 SWAP1 POP JUMP JUMPDEST PUSH1 0x0 PUSH2 0x4F7B DUP3 PUSH2 0x4F4D JUMP JUMPDEST SWAP2 POP DUP2 SWAP1 POP SWAP2 SWAP1 POP JUMP JUMPDEST PUSH32 0x71756F7465720000000000000000000000000000000000000000000000000000 PUSH1 0x0 DUP3 ADD MSTORE POP JUMP JUMPDEST PUSH1 0x0 PUSH2 0x4FBB PUSH1 0x6 DUP4 PUSH2 0x3A8C JUMP JUMPDEST SWAP2 POP PUSH2 0x4FC6 DUP3 PUSH2 0x4F85 JUMP JUMPDEST PUSH1 0x6 DUP3 ADD SWAP1 POP SWAP2 SWAP1 POP JUMP JUMPDEST PUSH1 0x0 PUSH2 0x4FDC DUP3 PUSH2 0x4FAE JUMP JUMPDEST SWAP2 POP DUP2 SWAP1 POP SWAP2 SWAP1 POP JUMP JUMPDEST PUSH32 0x7377617070657200000000000000000000000000000000000000000000000000 PUSH1 0x0 DUP3 ADD MSTORE POP JUMP JUMPDEST PUSH1 0x0 PUSH2 0x501C PUSH1 0x7 DUP4 PUSH2 0x3A8C JUMP JUMPDEST SWAP2 POP PUSH2 0x5027 DUP3 PUSH2 0x4FE6 JUMP JUMPDEST PUSH1 0x7 DUP3 ADD SWAP1 POP SWAP2 SWAP1 POP JUMP JUMPDEST PUSH1 0x0 PUSH2 0x503D DUP3 PUSH2 0x500F JUMP JUMPDEST SWAP2 POP DUP2 SWAP1 POP SWAP2 SWAP1 POP JUMP JUMPDEST PUSH1 0x0 DUP2 SWAP1 POP SWAP2 SWAP1 POP JUMP JUMPDEST PUSH1 0x0 PUSH2 0x505D DUP4 DUP6 PUSH2 0x418C JUMP JUMPDEST SWAP4 POP PUSH2 0x506A DUP4 DUP6 DUP5 PUSH2 0x44B8 JUMP JUMPDEST PUSH2 0x5073 DUP4 PUSH2 0x41C7 JUMP JUMPDEST DUP5 ADD SWAP1 POP SWAP4 SWAP3 POP POP POP JUMP JUMPDEST PUSH1 0x0 PUSH2 0x508B DUP5 DUP5 DUP5 PUSH2 0x5051 JUMP JUMPDEST SWAP1 POP SWAP4 SWAP3 POP POP POP JUMP JUMPDEST PUSH1 0x0 DUP1 REVERT JUMPDEST PUSH1 0x0 DUP1 REVERT JUMPDEST PUSH1 0x0 DUP1 REVERT JUMPDEST PUSH1 0x0 DUP1 DUP4 CALLDATALOAD PUSH1 0x1 PUSH1 0x20 SUB DUP5 CALLDATASIZE SUB SUB DUP2 SLT PUSH2 0x50C0 JUMPI PUSH2 0x50BF PUSH2 0x509E JUMP JUMPDEST JUMPDEST DUP4 DUP2 ADD SWAP3 POP DUP3 CALLDATALOAD SWAP2 POP PUSH1 0x20 DUP4 ADD SWAP3 POP PUSH8 0xFFFFFFFFFFFFFFFF DUP3 GT ISZERO PUSH2 0x50E8 JUMPI PUSH2 0x50E7 PUSH2 0x5094 JUMP JUMPDEST JUMPDEST PUSH1 0x1 DUP3 MUL CALLDATASIZE SUB DUP4 SGT ISZERO PUSH2 0x50FE JUMPI PUSH2 0x50FD PUSH2 0x5099 JUMP JUMPDEST JUMPDEST POP SWAP3 POP SWAP3 SWAP1 POP JUMP JUMPDEST PUSH1 0x0 PUSH1 0x20 DUP3 ADD SWAP1 POP SWAP2 SWAP1 POP JUMP JUMPDEST PUSH1 0x0 PUSH2 0x511F DUP4 DUP6 PUSH2 0x4160 JUMP JUMPDEST SWAP4 POP DUP4 PUSH1 0x20 DUP5 MUL DUP6 ADD PUSH2 0x5131 DUP5 PUSH2 0x5047 JUMP JUMPDEST DUP1 PUSH1 0x0 JUMPDEST DUP8 DUP2 LT ISZERO PUSH2 0x5177 JUMPI DUP5 DUP5 SUB DUP10 MSTORE PUSH2 0x514C DUP3 DUP5 PUSH2 0x50A3 JUMP JUMPDEST PUSH2 0x5157 DUP7 DUP3 DUP5 PUSH2 0x507E JUMP JUMPDEST SWAP6 POP PUSH2 0x5162 DUP5 PUSH2 0x5106 JUMP JUMPDEST SWAP4 POP PUSH1 0x20 DUP12 ADD SWAP11 POP POP POP PUSH1 0x1 DUP2 ADD SWAP1 POP PUSH2 0x5135 JUMP JUMPDEST POP DUP3 SWAP8 POP DUP8 SWAP5 POP POP POP POP POP SWAP4 SWAP3 POP POP POP JUMP JUMPDEST PUSH1 0x0 DUP3 DUP3 MSTORE PUSH1 0x20 DUP3 ADD SWAP1 POP SWAP3 SWAP2 POP POP JUMP JUMPDEST PUSH1 0x0 DUP2 SWAP1 POP SWAP2 SWAP1 POP JUMP JUMPDEST PUSH2 0x51AD DUP2 PUSH2 0x3E3F JUMP JUMPDEST DUP3 MSTORE POP POP JUMP JUMPDEST PUSH1 0x0 PUSH2 0x51BF DUP4 DUP4 PUSH2 0x51A4 JUMP JUMPDEST PUSH1 0x20 DUP4 ADD SWAP1 POP SWAP3 SWAP2 POP POP JUMP JUMPDEST PUSH1 0x0 PUSH2 0x51DA PUSH1 0x20 DUP5 ADD DUP5 PUSH2 0x3F60 JUMP JUMPDEST SWAP1 POP SWAP3 SWAP2 POP POP JUMP JUMPDEST PUSH1 0x0 PUSH1 0x20 DUP3 ADD SWAP1 POP SWAP2 SWAP1 POP JUMP JUMPDEST PUSH1 0x0 PUSH2 0x51FB DUP4 DUP6 PUSH2 0x5189 JUMP JUMPDEST SWAP4 POP PUSH2 0x5206 DUP3 PUSH2 0x519A JUMP JUMPDEST DUP1 PUSH1 0x0 JUMPDEST DUP6 DUP2 LT ISZERO PUSH2 0x523F JUMPI PUSH2 0x521C DUP3 DUP5 PUSH2 0x51CB JUMP JUMPDEST PUSH2 0x5226 DUP9 DUP3 PUSH2 0x51B3 JUMP JUMPDEST SWAP8 POP PUSH2 0x5231 DUP4 PUSH2 0x51E2 JUMP JUMPDEST SWAP3 POP POP PUSH1 0x1 DUP2 ADD SWAP1 POP PUSH2 0x520A JUMP JUMPDEST POP DUP6 SWAP3 POP POP POP SWAP4 SWAP3 POP POP POP JUMP JUMPDEST PUSH1 0x0 PUSH1 0x3 SWAP1 POP SWAP2 SWAP1 POP JUMP JUMPDEST PUSH1 0x0 DUP2 SWAP1 POP SWAP3 SWAP2 POP POP JUMP JUMPDEST PUSH1 0x0 DUP2 SWAP1 POP SWAP2 SWAP1 POP JUMP JUMPDEST PUSH1 0x0 PUSH1 0x20 DUP3 ADD SWAP1 POP SWAP2 SWAP1 POP JUMP JUMPDEST PUSH2 0x5282 DUP2 PUSH2 0x524C JUMP JUMPDEST PUSH2 0x528C DUP2 DUP5 PUSH2 0x5257 JUMP JUMPDEST SWAP3 POP PUSH2 0x5297 DUP3 PUSH2 0x5262 JUMP JUMPDEST DUP1 PUSH1 0x0 JUMPDEST DUP4 DUP2 LT ISZERO PUSH2 0x52D0 JUMPI PUSH2 0x52AD DUP3 DUP5 PUSH2 0x51CB JUMP JUMPDEST PUSH2 0x52B7 DUP8 DUP3 PUSH2 0x51B3 JUMP JUMPDEST SWAP7 POP PUSH2 0x52C2 DUP4 PUSH2 0x526C JUMP JUMPDEST SWAP3 POP POP PUSH1 0x1 DUP2 ADD SWAP1 POP PUSH2 0x529B JUMP JUMPDEST POP POP POP POP POP POP JUMP JUMPDEST PUSH1 0x0 PUSH1 0x3 SWAP1 POP SWAP2 SWAP1 POP JUMP JUMPDEST PUSH1 0x0 DUP2 SWAP1 POP SWAP3 SWAP2 POP POP JUMP JUMPDEST PUSH1 0x0 DUP2 SWAP1 POP SWAP2 SWAP1 POP JUMP JUMPDEST PUSH1 0x0 DUP2 SLOAD PUSH2 0x5305 DUP2 PUSH2 0x471F JUMP JUMPDEST PUSH2 0x530F DUP2 DUP7 PUSH2 0x418C JUMP JUMPDEST SWAP5 POP PUSH1 0x1 DUP3 AND PUSH1 0x0 DUP2 EQ PUSH2 0x532A JUMPI PUSH1 0x1 DUP2 EQ PUSH2 0x5340 JUMPI PUSH2 0x5373 JUMP JUMPDEST PUSH1 0xFF NOT DUP4 AND DUP7 MSTORE DUP2 ISZERO ISZERO PUSH1 0x20 MUL DUP7 ADD SWAP4 POP PUSH2 0x5373 JUMP JUMPDEST PUSH2 0x5349 DUP6 PUSH2 0x4C0E JUMP JUMPDEST PUSH1 0x0 JUMPDEST DUP4 DUP2 LT ISZERO PUSH2 0x536B JUMPI DUP2 SLOAD DUP2 DUP10 ADD MSTORE PUSH1 0x1 DUP3 ADD SWAP2 POP PUSH1 0x20 DUP2 ADD SWAP1 POP PUSH2 0x534C JUMP JUMPDEST DUP1 DUP9 ADD SWAP6 POP POP POP JUMPDEST POP POP POP SWAP3 SWAP2 POP POP JUMP JUMPDEST PUSH1 0x0 PUSH2 0x5388 DUP4 DUP4 PUSH2 0x52F8 JUMP JUMPDEST SWAP1 POP SWAP3 SWAP2 POP POP JUMP JUMPDEST PUSH1 0x0 PUSH1 0x1 DUP3 ADD SWAP1 POP SWAP2 SWAP1 POP JUMP JUMPDEST PUSH1 0x0 PUSH2 0x53A8 DUP3 PUSH2 0x52D8 JUMP JUMPDEST PUSH2 0x53B2 DUP2 DUP6 PUSH2 0x52E3 JUMP JUMPDEST SWAP4 POP DUP4 PUSH1 0x20 DUP3 MUL DUP6 ADD PUSH2 0x53C4 DUP6 PUSH2 0x52EE JUMP JUMPDEST DUP1 PUSH1 0x0 JUMPDEST DUP6 DUP2 LT ISZERO PUSH2 0x53FF JUMPI DUP5 DUP5 SUB DUP10 MSTORE DUP2 PUSH2 0x53E0 DUP6 DUP3 PUSH2 0x537C JUMP JUMPDEST SWAP5 POP PUSH2 0x53EB DUP4 PUSH2 0x5390 JUMP JUMPDEST SWAP3 POP PUSH1 0x20 DUP11 ADD SWAP10 POP POP PUSH1 0x1 DUP2 ADD SWAP1 POP PUSH2 0x53C8 JUMP JUMPDEST POP DUP3 SWAP8 POP DUP8 SWAP6 POP POP POP POP POP POP SWAP3 SWAP2 POP POP JUMP JUMPDEST PUSH1 0x0 PUSH2 0x1C0 DUP3 ADD SWAP1 POP PUSH2 0x5427 PUSH1 0x0 DUP4 ADD DUP16 PUSH2 0x3E51 JUMP JUMPDEST DUP2 DUP2 SUB PUSH1 0x20 DUP4 ADD MSTORE PUSH2 0x543A DUP2 DUP14 DUP16 PUSH2 0x5113 JUMP JUMPDEST SWAP1 POP DUP2 DUP2 SUB PUSH1 0x40 DUP4 ADD MSTORE PUSH2 0x544F DUP2 DUP12 DUP14 PUSH2 0x51EF JUMP JUMPDEST SWAP1 POP PUSH2 0x545E PUSH1 0x60 DUP4 ADD DUP11 PUSH2 0x5279 JUMP JUMPDEST PUSH2 0x546B PUSH1 0xC0 DUP4 ADD DUP10 PUSH2 0x3E51 JUMP JUMPDEST PUSH2 0x5478 PUSH1 0xE0 DUP4 ADD DUP9 PUSH2 0x3E51 JUMP JUMPDEST PUSH2 0x5486 PUSH2 0x100 DUP4 ADD DUP8 PUSH2 0x3E51 JUMP JUMPDEST PUSH2 0x5494 PUSH2 0x120 DUP4 ADD DUP7 PUSH2 0x3E51 JUMP JUMPDEST DUP2 DUP2 SUB PUSH2 0x140 DUP4 ADD MSTORE PUSH2 0x54A7 DUP2 DUP6 PUSH2 0x539D JUMP JUMPDEST SWAP1 POP PUSH2 0x54B7 PUSH2 0x160 DUP4 ADD DUP5 PUSH2 0x5279 JUMP JUMPDEST SWAP14 SWAP13 POP POP POP POP POP POP POP POP POP POP POP POP POP JUMP JUMPDEST PUSH1 0x0 DUP2 SWAP1 POP SWAP2 SWAP1 POP JUMP JUMPDEST PUSH1 0x0 PUSH1 0xFF DUP3 AND SWAP1 POP SWAP2 SWAP1 POP JUMP JUMPDEST PUSH1 0x0 PUSH2 0x54FA PUSH2 0x54F5 PUSH2 0x54F0 DUP5 PUSH2 0x54C8 JUMP JUMPDEST PUSH2 0x4C92 JUMP JUMPDEST PUSH2 0x54D2 JUMP JUMPDEST SWAP1 POP SWAP2 SWAP1 POP JUMP JUMPDEST PUSH2 0x550A DUP2 PUSH2 0x54DF JUMP JUMPDEST DUP3 MSTORE POP POP JUMP JUMPDEST PUSH1 0x0 PUSH1 0x20 DUP3 ADD SWAP1 POP PUSH2 0x5525 PUSH1 0x0 DUP4 ADD DUP5 PUSH2 0x5501 JUMP JUMPDEST SWAP3 SWAP2 POP POP JUMP JUMPDEST PUSH32 0x5769746864726177304164647200000000000000000000000000000000000000 PUSH1 0x0 DUP3 ADD MSTORE POP JUMP JUMPDEST PUSH1 0x0 PUSH2 0x5561 PUSH1 0xD DUP4 PUSH2 0x3AF8 JUMP JUMPDEST SWAP2 POP PUSH2 0x556C DUP3 PUSH2 0x552B JUMP JUMPDEST PUSH1 0x20 DUP3 ADD SWAP1 POP SWAP2 SWAP1 POP JUMP JUMPDEST PUSH1 0x0 PUSH1 0x20 DUP3 ADD SWAP1 POP DUP2 DUP2 SUB PUSH1 0x0 DUP4 ADD MSTORE PUSH2 0x5590 DUP2 PUSH2 0x5554 JUMP JUMPDEST SWAP1 POP SWAP2 SWAP1 POP JUMP JUMPDEST PUSH32 0x5742544300000000000000000000000000000000000000000000000000000000 PUSH1 0x0 DUP3 ADD MSTORE POP JUMP JUMPDEST PUSH1 0x0 PUSH2 0x55CD PUSH1 0x4 DUP4 PUSH2 0x3A8C JUMP JUMPDEST SWAP2 POP PUSH2 0x55D8 DUP3 PUSH2 0x5597 JUMP JUMPDEST PUSH1 0x4 DUP3 ADD SWAP1 POP SWAP2 SWAP1 POP JUMP JUMPDEST PUSH1 0x0 PUSH2 0x55EE DUP3 PUSH2 0x55C0 JUMP JUMPDEST SWAP2 POP DUP2 SWAP1 POP SWAP2 SWAP1 POP JUMP JUMPDEST PUSH1 0x0 DUP3 CALLDATALOAD PUSH1 0x1 PUSH1 0x60 SUB DUP4 CALLDATASIZE SUB SUB DUP2 SLT PUSH2 0x5614 JUMPI PUSH2 0x5613 PUSH2 0x4B91 JUMP JUMPDEST JUMPDEST DUP1 DUP4 ADD SWAP2 POP POP SWAP3 SWAP2 POP POP JUMP JUMPDEST PUSH1 0x0 DUP3 CALLDATALOAD PUSH1 0x1 PUSH1 0xA0 SUB DUP4 CALLDATASIZE SUB SUB DUP2 SLT PUSH2 0x563C JUMPI PUSH2 0x563B PUSH2 0x4B91 JUMP JUMPDEST JUMPDEST DUP1 DUP4 ADD SWAP2 POP POP SWAP3 SWAP2 POP POP JUMP JUMPDEST PUSH32 0x45727220726563697069656E7400000000000000000000000000000000000000 PUSH1 0x0 DUP3 ADD MSTORE POP JUMP JUMPDEST PUSH1 0x0 PUSH2 0x567E PUSH1 0xD DUP4 PUSH2 0x3AF8 JUMP JUMPDEST SWAP2 POP PUSH2 0x5689 DUP3 PUSH2 0x5648 JUMP JUMPDEST PUSH1 0x20 DUP3 ADD SWAP1 POP SWAP2 SWAP1 POP JUMP JUMPDEST PUSH1 0x0 PUSH1 0x20 DUP3 ADD SWAP1 POP DUP2 DUP2 SUB PUSH1 0x0 DUP4 ADD MSTORE PUSH2 0x56AD DUP2 PUSH2 0x5671 JUMP JUMPDEST SWAP1 POP SWAP2 SWAP1 POP JUMP JUMPDEST PUSH32 0x45727220536C6970700000000000000000000000000000000000000000000000 PUSH1 0x0 DUP3 ADD MSTORE POP JUMP JUMPDEST PUSH1 0x0 PUSH2 0x56EA PUSH1 0x9 DUP4 PUSH2 0x3AF8 JUMP JUMPDEST SWAP2 POP PUSH2 0x56F5 DUP3 PUSH2 0x56B4 JUMP JUMPDEST PUSH1 0x20 DUP3 ADD SWAP1 POP SWAP2 SWAP1 POP JUMP JUMPDEST PUSH1 0x0 PUSH1 0x20 DUP3 ADD SWAP1 POP DUP2 DUP2 SUB PUSH1 0x0 DUP4 ADD MSTORE PUSH2 0x5719 DUP2 PUSH2 0x56DD JUMP JUMPDEST SWAP1 POP SWAP2 SWAP1 POP JUMP JUMPDEST PUSH32 0x45727220546F6B656E4F75740000000000000000000000000000000000000000 PUSH1 0x0 DUP3 ADD MSTORE POP JUMP JUMPDEST PUSH1 0x0 PUSH2 0x5756 PUSH1 0xC DUP4 PUSH2 0x3AF8 JUMP JUMPDEST SWAP2 POP PUSH2 0x5761 DUP3 PUSH2 0x5720 JUMP JUMPDEST PUSH1 0x20 DUP3 ADD SWAP1 POP SWAP2 SWAP1 POP JUMP JUMPDEST PUSH1 0x0 PUSH1 0x20 DUP3 ADD SWAP1 POP DUP2 DUP2 SUB PUSH1 0x0 DUP4 ADD MSTORE PUSH2 0x5785 DUP2 PUSH2 0x5749 JUMP JUMPDEST SWAP1 POP SWAP2 SWAP1 POP JUMP JUMPDEST PUSH32 0x45727220546F6B656E496E000000000000000000000000000000000000000000 PUSH1 0x0 DUP3 ADD MSTORE POP JUMP JUMPDEST PUSH1 0x0 PUSH2 0x57C2 PUSH1 0xB DUP4 PUSH2 0x3AF8 JUMP JUMPDEST SWAP2 POP PUSH2 0x57CD DUP3 PUSH2 0x578C JUMP JUMPDEST PUSH1 0x20 DUP3 ADD SWAP1 POP SWAP2 SWAP1 POP JUMP JUMPDEST PUSH1 0x0 PUSH1 0x20 DUP3 ADD SWAP1 POP DUP2 DUP2 SUB PUSH1 0x0 DUP4 ADD MSTORE PUSH2 0x57F1 DUP2 PUSH2 0x57B5 JUMP JUMPDEST SWAP1 POP SWAP2 SWAP1 POP JUMP JUMPDEST PUSH1 0x0 DUP2 MLOAD SWAP1 POP PUSH2 0x5807 DUP2 PUSH2 0x3D2E JUMP JUMPDEST SWAP3 SWAP2 POP POP JUMP JUMPDEST PUSH1 0x0 PUSH1 0x20 DUP3 DUP5 SUB SLT ISZERO PUSH2 0x5823 JUMPI PUSH2 0x5822 PUSH2 0x3C69 JUMP JUMPDEST JUMPDEST PUSH1 0x0 PUSH2 0x5831 DUP5 DUP3 DUP6 ADD PUSH2 0x57F8 JUMP JUMPDEST SWAP2 POP POP SWAP3 SWAP2 POP POP JUMP JUMPDEST PUSH32 0x45727220416D6F756E74496E0000000000000000000000000000000000000000 PUSH1 0x0 DUP3 ADD MSTORE POP JUMP JUMPDEST PUSH1 0x0 PUSH2 0x5870 PUSH1 0xC DUP4 PUSH2 0x3AF8 JUMP JUMPDEST SWAP2 POP PUSH2 0x587B DUP3 PUSH2 0x583A JUMP JUMPDEST PUSH1 0x20 DUP3 ADD SWAP1 POP SWAP2 SWAP1 POP JUMP JUMPDEST PUSH1 0x0 PUSH1 0x20 DUP3 ADD SWAP1 POP DUP2 DUP2 SUB PUSH1 0x0 DUP4 ADD MSTORE PUSH2 0x589F DUP2 PUSH2 0x5863 JUMP JUMPDEST SWAP1 POP SWAP2 SWAP1 POP JUMP JUMPDEST PUSH1 0x0 PUSH32 0xFF00000000000000000000000000000000000000000000000000000000000000 DUP3 AND SWAP1 POP SWAP2 SWAP1 POP JUMP JUMPDEST PUSH1 0x0 DUP2 SWAP1 POP SWAP2 SWAP1 POP JUMP JUMPDEST PUSH2 0x58ED PUSH2 0x58E8 DUP3 PUSH2 0x58A6 JUMP JUMPDEST PUSH2 0x58D2 JUMP JUMPDEST DUP3 MSTORE POP POP JUMP JUMPDEST PUSH1 0x0 PUSH2 0x58FF DUP3 DUP5 PUSH2 0x58DC JUMP JUMPDEST PUSH1 0x1 DUP3 ADD SWAP2 POP DUP2 SWAP1 POP SWAP3 SWAP2 POP POP JUMP JUMPDEST PUSH1 0x0 DUP1 DUP4 CALLDATALOAD PUSH1 0x1 PUSH1 0x20 SUB DUP5 CALLDATASIZE SUB SUB DUP2 SLT PUSH2 0x592B JUMPI PUSH2 0x592A PUSH2 0x4B91 JUMP JUMPDEST JUMPDEST DUP1 DUP5 ADD SWAP3 POP DUP3 CALLDATALOAD SWAP2 POP PUSH8 0xFFFFFFFFFFFFFFFF DUP3 GT ISZERO PUSH2 0x594D JUMPI PUSH2 0x594C PUSH2 0x4B96 JUMP JUMPDEST JUMPDEST PUSH1 0x20 DUP4 ADD SWAP3 POP PUSH1 0x1 DUP3 MUL CALLDATASIZE SUB DUP4 SGT ISZERO PUSH2 0x5969 JUMPI PUSH2 0x5968 PUSH2 0x4B9B JUMP JUMPDEST JUMPDEST POP SWAP3 POP SWAP3 SWAP1 POP JUMP JUMPDEST PUSH1 0x0 DUP3 DUP3 MSTORE PUSH1 0x20 DUP3 ADD SWAP1 POP SWAP3 SWAP2 POP POP JUMP JUMPDEST PUSH1 0x0 PUSH2 0x598E DUP4 DUP6 PUSH2 0x5971 JUMP JUMPDEST SWAP4 POP PUSH2 0x599B DUP4 DUP6 DUP5 PUSH2 0x44B8 JUMP JUMPDEST PUSH2 0x59A4 DUP4 PUSH2 0x41C7 JUMP JUMPDEST DUP5 ADD SWAP1 POP SWAP4 SWAP3 POP POP POP JUMP JUMPDEST PUSH1 0x0 PUSH1 0xA0 DUP3 ADD SWAP1 POP PUSH2 0x59C4 PUSH1 0x0 DUP4 ADD DUP10 PUSH2 0x3E51 JUMP JUMPDEST PUSH2 0x59D1 PUSH1 0x20 DUP4 ADD DUP9 PUSH2 0x4580 JUMP JUMPDEST PUSH2 0x59DE PUSH1 0x40 DUP4 ADD DUP8 PUSH2 0x4580 JUMP JUMPDEST DUP2 DUP2 SUB PUSH1 0x60 DUP4 ADD MSTORE PUSH2 0x59F1 DUP2 DUP6 DUP8 PUSH2 0x5982 JUMP JUMPDEST SWAP1 POP PUSH2 0x5A00 PUSH1 0x80 DUP4 ADD DUP5 PUSH2 0x3D04 JUMP JUMPDEST SWAP8 SWAP7 POP POP POP POP POP POP POP JUMP JUMPDEST PUSH1 0x0 DUP2 MLOAD SWAP1 POP SWAP2 SWAP1 POP JUMP JUMPDEST PUSH1 0x0 PUSH2 0x5A21 DUP3 PUSH2 0x5A0B JUMP JUMPDEST PUSH2 0x5A2B DUP2 DUP6 PUSH2 0x5971 JUMP JUMPDEST SWAP4 POP PUSH2 0x5A3B DUP2 DUP6 PUSH1 0x20 DUP7 ADD PUSH2 0x419D JUMP JUMPDEST PUSH2 0x5A44 DUP2 PUSH2 0x41C7 JUMP JUMPDEST DUP5 ADD SWAP2 POP POP SWAP3 SWAP2 POP POP JUMP JUMPDEST PUSH1 0x0 DUP2 MLOAD SWAP1 POP SWAP2 SWAP1 POP JUMP JUMPDEST PUSH1 0x0 DUP3 DUP3 MSTORE PUSH1 0x20 DUP3 ADD SWAP1 POP SWAP3 SWAP2 POP POP JUMP JUMPDEST PUSH1 0x0 DUP2 SWAP1 POP PUSH1 0x20 DUP3 ADD SWAP1 POP SWAP2 SWAP1 POP JUMP JUMPDEST PUSH1 0x0 DUP3 DUP3 MSTORE PUSH1 0x20 DUP3 ADD SWAP1 POP SWAP3 SWAP2 POP POP JUMP JUMPDEST PUSH1 0x0 PUSH2 0x5A97 DUP3 PUSH2 0x5A0B JUMP JUMPDEST PUSH2 0x5AA1 DUP2 DUP6 PUSH2 0x5A7B JUMP JUMPDEST SWAP4 POP PUSH2 0x5AB1 DUP2 DUP6 PUSH1 0x20 DUP7 ADD PUSH2 0x419D JUMP JUMPDEST PUSH2 0x5ABA DUP2 PUSH2 0x41C7 JUMP JUMPDEST DUP5 ADD SWAP2 POP POP SWAP3 SWAP2 POP POP JUMP JUMPDEST PUSH1 0x0 PUSH2 0x5AD1 DUP4 DUP4 PUSH2 0x5A8C JUMP JUMPDEST SWAP1 POP SWAP3 SWAP2 POP POP JUMP JUMPDEST PUSH1 0x0 PUSH1 0x20 DUP3 ADD SWAP1 POP SWAP2 SWAP1 POP JUMP JUMPDEST PUSH1 0x0 PUSH2 0x5AF1 DUP3 PUSH2 0x5A4F JUMP JUMPDEST PUSH2 0x5AFB DUP2 DUP6 PUSH2 0x5A5A JUMP JUMPDEST SWAP4 POP DUP4 PUSH1 0x20 DUP3 MUL DUP6 ADD PUSH2 0x5B0D DUP6 PUSH2 0x5A6B JUMP JUMPDEST DUP1 PUSH1 0x0 JUMPDEST DUP6 DUP2 LT ISZERO PUSH2 0x5B49 JUMPI DUP5 DUP5 SUB DUP10 MSTORE DUP2 MLOAD PUSH2 0x5B2A DUP6 DUP3 PUSH2 0x5AC5 JUMP JUMPDEST SWAP5 POP PUSH2 0x5B35 DUP4 PUSH2 0x5AD9 JUMP JUMPDEST SWAP3 POP PUSH1 0x20 DUP11 ADD SWAP10 POP POP PUSH1 0x1 DUP2 ADD SWAP1 POP PUSH2 0x5B11 JUMP JUMPDEST POP DUP3 SWAP8 POP DUP8 SWAP6 POP POP POP POP POP POP SWAP3 SWAP2 POP POP JUMP JUMPDEST PUSH1 0x0 PUSH1 0x60 DUP3 ADD SWAP1 POP DUP2 DUP2 SUB PUSH1 0x0 DUP4 ADD MSTORE PUSH2 0x5B75 DUP2 DUP7 PUSH2 0x5A16 JUMP JUMPDEST SWAP1 POP DUP2 DUP2 SUB PUSH1 0x20 DUP4 ADD MSTORE PUSH2 0x5B89 DUP2 DUP6 PUSH2 0x5AE6 JUMP JUMPDEST SWAP1 POP PUSH2 0x5B98 PUSH1 0x40 DUP4 ADD DUP5 PUSH2 0x4580 JUMP JUMPDEST SWAP5 SWAP4 POP POP POP POP JUMP JUMPDEST PUSH1 0x0 DUP2 PUSH1 0xE0 SHR SWAP1 POP SWAP2 SWAP1 POP JUMP JUMPDEST PUSH1 0x0 PUSH1 0x3 RETURNDATASIZE GT ISZERO PUSH2 0x5BCC JUMPI PUSH1 0x4 PUSH1 0x0 DUP1 RETURNDATACOPY PUSH2 0x5BC9 PUSH1 0x0 MLOAD PUSH2 0x5BA0 JUMP JUMPDEST SWAP1 POP JUMPDEST SWAP1 JUMP JUMPDEST PUSH1 0x0 PUSH1 0x44 RETURNDATASIZE LT PUSH2 0x5C5C JUMPI PUSH2 0x5BE1 PUSH2 0x3C5F JUMP JUMPDEST PUSH1 0x4 RETURNDATASIZE SUB PUSH1 0x4 DUP3 RETURNDATACOPY DUP1 MLOAD RETURNDATASIZE PUSH1 0x24 DUP3 ADD GT PUSH8 0xFFFFFFFFFFFFFFFF DUP3 GT OR ISZERO PUSH2 0x5C09 JUMPI POP POP PUSH2 0x5C5C JUMP JUMPDEST DUP1 DUP3 ADD DUP1 MLOAD PUSH8 0xFFFFFFFFFFFFFFFF DUP2 GT ISZERO PUSH2 0x5C27 JUMPI POP POP POP POP PUSH2 0x5C5C JUMP JUMPDEST DUP1 PUSH1 0x20 DUP4 ADD ADD PUSH1 0x4 RETURNDATASIZE SUB DUP6 ADD DUP2 GT ISZERO PUSH2 0x5C44 JUMPI POP POP POP POP POP PUSH2 0x5C5C JUMP JUMPDEST PUSH2 0x5C53 DUP3 PUSH1 0x20 ADD DUP6 ADD DUP7 PUSH2 0x443B JUMP JUMPDEST DUP3 SWAP6 POP POP POP POP POP POP JUMPDEST SWAP1 JUMP JUMPDEST PUSH1 0x0 PUSH1 0x40 DUP3 ADD SWAP1 POP PUSH2 0x5C74 PUSH1 0x0 DUP4 ADD DUP6 PUSH2 0x3E51 JUMP JUMPDEST DUP2 DUP2 SUB PUSH1 0x20 DUP4 ADD MSTORE PUSH2 0x5C86 DUP2 DUP5 PUSH2 0x43AC JUMP JUMPDEST SWAP1 POP SWAP4 SWAP3 POP POP POP JUMP JUMPDEST PUSH1 0x0 PUSH1 0x80 DUP3 ADD SWAP1 POP PUSH2 0x5CA4 PUSH1 0x0 DUP4 ADD DUP8 PUSH2 0x3E51 JUMP JUMPDEST PUSH2 0x5CB1 PUSH1 0x20 DUP4 ADD DUP7 PUSH2 0x3E51 JUMP JUMPDEST PUSH2 0x5CBE PUSH1 0x40 DUP4 ADD DUP6 PUSH2 0x4580 JUMP JUMPDEST PUSH2 0x5CCB PUSH1 0x60 DUP4 ADD DUP5 PUSH2 0x4580 JUMP JUMPDEST SWAP6 SWAP5 POP POP POP POP POP JUMP JUMPDEST PUSH1 0x0 PUSH2 0x5CDF DUP3 PUSH2 0x4181 JUMP JUMPDEST PUSH2 0x5CE9 DUP2 DUP6 PUSH2 0x3A8C JUMP JUMPDEST SWAP4 POP PUSH2 0x5CF9 DUP2 DUP6 PUSH1 0x20 DUP7 ADD PUSH2 0x419D JUMP JUMPDEST DUP1 DUP5 ADD SWAP2 POP POP SWAP3 SWAP2 POP POP JUMP JUMPDEST PUSH1 0x0 PUSH2 0x5D11 DUP3 DUP5 PUSH2 0x5CD4 JUMP JUMPDEST SWAP2 POP DUP2 SWAP1 POP SWAP3 SWAP2 POP POP JUMP JUMPDEST PUSH32 0x416363657373436F6E74726F6C3A2063616E206F6E6C792072656E6F756E6365 PUSH1 0x0 DUP3 ADD MSTORE PUSH32 0x20726F6C657320666F722073656C660000000000000000000000000000000000 PUSH1 0x20 DUP3 ADD MSTORE POP JUMP JUMPDEST PUSH1 0x0 PUSH2 0x5D78 PUSH1 0x2F DUP4 PUSH2 0x3AF8 JUMP JUMPDEST SWAP2 POP PUSH2 0x5D83 DUP3 PUSH2 0x5D1C JUMP JUMPDEST PUSH1 0x40 DUP3 ADD SWAP1 POP SWAP2 SWAP1 POP JUMP JUMPDEST PUSH1 0x0 PUSH1 0x20 DUP3 ADD SWAP1 POP DUP2 DUP2 SUB PUSH1 0x0 DUP4 ADD MSTORE PUSH2 0x5DA7 DUP2 PUSH2 0x5D6B JUMP JUMPDEST SWAP1 POP SWAP2 SWAP1 POP JUMP JUMPDEST PUSH32 0x496E76616C696420746F6B656E496E0000000000000000000000000000000000 PUSH1 0x0 DUP3 ADD MSTORE POP JUMP JUMPDEST PUSH1 0x0 PUSH2 0x5DE4 PUSH1 0xF DUP4 PUSH2 0x3AF8 JUMP JUMPDEST SWAP2 POP PUSH2 0x5DEF DUP3 PUSH2 0x5DAE JUMP JUMPDEST PUSH1 0x20 DUP3 ADD SWAP1 POP SWAP2 SWAP1 POP JUMP JUMPDEST PUSH1 0x0 PUSH1 0x20 DUP3 ADD SWAP1 POP DUP2 DUP2 SUB PUSH1 0x0 DUP4 ADD MSTORE PUSH2 0x5E13 DUP2 PUSH2 0x5DD7 JUMP JUMPDEST SWAP1 POP SWAP2 SWAP1 POP JUMP JUMPDEST PUSH1 0x0 PUSH1 0x40 DUP3 ADD SWAP1 POP DUP2 DUP2 SUB PUSH1 0x0 DUP4 ADD MSTORE PUSH2 0x5E34 DUP2 DUP6 PUSH2 0x5A16 JUMP JUMPDEST SWAP1 POP PUSH2 0x5E43 PUSH1 0x20 DUP4 ADD DUP5 PUSH2 0x4580 JUMP JUMPDEST SWAP4 SWAP3 POP POP POP JUMP JUMPDEST PUSH1 0x0 PUSH8 0xFFFFFFFFFFFFFFFF DUP3 GT ISZERO PUSH2 0x5E65 JUMPI PUSH2 0x5E64 PUSH2 0x440C JUMP JUMPDEST JUMPDEST PUSH1 0x20 DUP3 MUL SWAP1 POP PUSH1 0x20 DUP2 ADD SWAP1 POP SWAP2 SWAP1 POP JUMP JUMPDEST PUSH2 0x5E7F DUP2 PUSH2 0x3E1F JUMP JUMPDEST DUP2 EQ PUSH2 0x5E8A JUMPI PUSH1 0x0 DUP1 REVERT JUMPDEST POP JUMP JUMPDEST PUSH1 0x0 DUP2 MLOAD SWAP1 POP PUSH2 0x5E9C DUP2 PUSH2 0x5E76 JUMP JUMPDEST SWAP3 SWAP2 POP POP JUMP JUMPDEST PUSH1 0x0 PUSH2 0x5EB5 PUSH2 0x5EB0 DUP5 PUSH2 0x5E4A JUMP JUMPDEST PUSH2 0x446C JUMP JUMPDEST SWAP1 POP DUP1 DUP4 DUP3 MSTORE PUSH1 0x20 DUP3 ADD SWAP1 POP PUSH1 0x20 DUP5 MUL DUP4 ADD DUP6 DUP2 GT ISZERO PUSH2 0x5ED8 JUMPI PUSH2 0x5ED7 PUSH2 0x3D64 JUMP JUMPDEST JUMPDEST DUP4 JUMPDEST DUP2 DUP2 LT ISZERO PUSH2 0x5F01 JUMPI DUP1 PUSH2 0x5EED DUP9 DUP3 PUSH2 0x5E8D JUMP JUMPDEST DUP5 MSTORE PUSH1 0x20 DUP5 ADD SWAP4 POP POP PUSH1 0x20 DUP2 ADD SWAP1 POP PUSH2 0x5EDA JUMP JUMPDEST POP POP POP SWAP4 SWAP3 POP POP POP JUMP JUMPDEST PUSH1 0x0 DUP3 PUSH1 0x1F DUP4 ADD SLT PUSH2 0x5F20 JUMPI PUSH2 0x5F1F PUSH2 0x3D5A JUMP JUMPDEST JUMPDEST DUP2 MLOAD PUSH2 0x5F30 DUP5 DUP3 PUSH1 0x20 DUP7 ADD PUSH2 0x5EA2 JUMP JUMPDEST SWAP2 POP POP SWAP3 SWAP2 POP POP JUMP JUMPDEST PUSH1 0x0 PUSH8 0xFFFFFFFFFFFFFFFF DUP3 GT ISZERO PUSH2 0x5F54 JUMPI PUSH2 0x5F53 PUSH2 0x440C JUMP JUMPDEST JUMPDEST PUSH1 0x20 DUP3 MUL SWAP1 POP PUSH1 0x20 DUP2 ADD SWAP1 POP SWAP2 SWAP1 POP JUMP JUMPDEST PUSH1 0x0 PUSH4 0xFFFFFFFF DUP3 AND SWAP1 POP SWAP2 SWAP1 POP JUMP JUMPDEST PUSH2 0x5F7E DUP2 PUSH2 0x5F65 JUMP JUMPDEST DUP2 EQ PUSH2 0x5F89 JUMPI PUSH1 0x0 DUP1 REVERT JUMPDEST POP JUMP JUMPDEST PUSH1 0x0 DUP2 MLOAD SWAP1 POP PUSH2 0x5F9B DUP2 PUSH2 0x5F75 JUMP JUMPDEST SWAP3 SWAP2 POP POP JUMP JUMPDEST PUSH1 0x0 PUSH2 0x5FB4 PUSH2 0x5FAF DUP5 PUSH2 0x5F39 JUMP JUMPDEST PUSH2 0x446C JUMP JUMPDEST SWAP1 POP DUP1 DUP4 DUP3 MSTORE PUSH1 0x20 DUP3 ADD SWAP1 POP PUSH1 0x20 DUP5 MUL DUP4 ADD DUP6 DUP2 GT ISZERO PUSH2 0x5FD7 JUMPI PUSH2 0x5FD6 PUSH2 0x3D64 JUMP JUMPDEST JUMPDEST DUP4 JUMPDEST DUP2 DUP2 LT ISZERO PUSH2 0x6000 JUMPI DUP1 PUSH2 0x5FEC DUP9 DUP3 PUSH2 0x5F8C JUMP JUMPDEST DUP5 MSTORE PUSH1 0x20 DUP5 ADD SWAP4 POP POP PUSH1 0x20 DUP2 ADD SWAP1 POP PUSH2 0x5FD9 JUMP JUMPDEST POP POP POP SWAP4 SWAP3 POP POP POP JUMP JUMPDEST PUSH1 0x0 DUP3 PUSH1 0x1F DUP4 ADD SLT PUSH2 0x601F JUMPI PUSH2 0x601E PUSH2 0x3D5A JUMP JUMPDEST JUMPDEST DUP2 MLOAD PUSH2 0x602F DUP5 DUP3 PUSH1 0x20 DUP7 ADD PUSH2 0x5FA1 JUMP JUMPDEST SWAP2 POP POP SWAP3 SWAP2 POP POP JUMP JUMPDEST PUSH1 0x0 DUP1 PUSH1 0x0 DUP1 PUSH1 0x80 DUP6 DUP8 SUB SLT ISZERO PUSH2 0x6052 JUMPI PUSH2 0x6051 PUSH2 0x3C69 JUMP JUMPDEST JUMPDEST PUSH1 0x0 PUSH2 0x6060 DUP8 DUP3 DUP9 ADD PUSH2 0x57F8 JUMP JUMPDEST SWAP5 POP POP PUSH1 0x20 DUP6 ADD MLOAD PUSH8 0xFFFFFFFFFFFFFFFF DUP2 GT ISZERO PUSH2 0x6081 JUMPI PUSH2 0x6080 PUSH2 0x3C6E JUMP JUMPDEST JUMPDEST PUSH2 0x608D DUP8 DUP3 DUP9 ADD PUSH2 0x5F0B JUMP JUMPDEST SWAP4 POP POP PUSH1 0x40 DUP6 ADD MLOAD PUSH8 0xFFFFFFFFFFFFFFFF DUP2 GT ISZERO PUSH2 0x60AE JUMPI PUSH2 0x60AD PUSH2 0x3C6E JUMP JUMPDEST JUMPDEST PUSH2 0x60BA DUP8 DUP3 DUP9 ADD PUSH2 0x600A JUMP JUMPDEST SWAP3 POP POP PUSH1 0x60 PUSH2 0x60CB DUP8 DUP3 DUP9 ADD PUSH2 0x57F8 JUMP JUMPDEST SWAP2 POP POP SWAP3 SWAP6 SWAP2 SWAP5 POP SWAP3 POP JUMP JUMPDEST PUSH32 0x5265736375653041646472000000000000000000000000000000000000000000 PUSH1 0x0 DUP3 ADD MSTORE POP JUMP JUMPDEST PUSH1 0x0 PUSH2 0x610D PUSH1 0xB DUP4 PUSH2 0x3AF8 JUMP JUMPDEST SWAP2 POP PUSH2 0x6118 DUP3 PUSH2 0x60D7 JUMP JUMPDEST PUSH1 0x20 DUP3 ADD SWAP1 POP SWAP2 SWAP1 POP JUMP JUMPDEST PUSH1 0x0 PUSH1 0x20 DUP3 ADD SWAP1 POP DUP2 DUP2 SUB PUSH1 0x0 DUP4 ADD MSTORE PUSH2 0x613C DUP2 PUSH2 0x6100 JUMP JUMPDEST SWAP1 POP SWAP2 SWAP1 POP JUMP JUMPDEST PUSH1 0x0 PUSH1 0x60 DUP3 ADD SWAP1 POP PUSH2 0x6158 PUSH1 0x0 DUP4 ADD DUP8 PUSH2 0x3E51 JUMP JUMPDEST DUP2 DUP2 SUB PUSH1 0x20 DUP4 ADD MSTORE PUSH2 0x616B DUP2 DUP6 DUP8 PUSH2 0x47D6 JUMP JUMPDEST SWAP1 POP PUSH2 0x617A PUSH1 0x40 DUP4 ADD DUP5 PUSH2 0x4580 JUMP JUMPDEST SWAP6 SWAP5 POP POP POP POP POP JUMP JUMPDEST PUSH32 0x5265656E7472616E637947756172643A207265656E7472616E742063616C6C00 PUSH1 0x0 DUP3 ADD MSTORE POP JUMP JUMPDEST PUSH1 0x0 PUSH2 0x61B9 PUSH1 0x1F DUP4 PUSH2 0x3AF8 JUMP JUMPDEST SWAP2 POP PUSH2 0x61C4 DUP3 PUSH2 0x6183 JUMP JUMPDEST PUSH1 0x20 DUP3 ADD SWAP1 POP SWAP2 SWAP1 POP JUMP JUMPDEST PUSH1 0x0 PUSH1 0x20 DUP3 ADD SWAP1 POP DUP2 DUP2 SUB PUSH1 0x0 DUP4 ADD MSTORE PUSH2 0x61E8 DUP2 PUSH2 0x61AC JUMP JUMPDEST SWAP1 POP SWAP2 SWAP1 POP JUMP JUMPDEST PUSH1 0x0 PUSH1 0x40 DUP3 ADD SWAP1 POP PUSH2 0x6204 PUSH1 0x0 DUP4 ADD DUP6 PUSH2 0x3E51 JUMP JUMPDEST PUSH2 0x6211 PUSH1 0x20 DUP4 ADD DUP5 PUSH2 0x4580 JUMP JUMPDEST SWAP4 SWAP3 POP POP POP JUMP JUMPDEST PUSH32 0x496E697469616C697A61626C653A20636F6E7472616374206973206E6F742069 PUSH1 0x0 DUP3 ADD MSTORE PUSH32 0x6E697469616C697A696E67000000000000000000000000000000000000000000 PUSH1 0x20 DUP3 ADD MSTORE POP JUMP JUMPDEST PUSH1 0x0 PUSH2 0x6274 PUSH1 0x2B DUP4 PUSH2 0x3AF8 JUMP JUMPDEST SWAP2 POP PUSH2 0x627F DUP3 PUSH2 0x6218 JUMP JUMPDEST PUSH1 0x40 DUP3 ADD SWAP1 POP SWAP2 SWAP1 POP JUMP JUMPDEST PUSH1 0x0 PUSH1 0x20 DUP3 ADD SWAP1 POP DUP2 DUP2 SUB PUSH1 0x0 DUP4 ADD MSTORE PUSH2 0x62A3 DUP2 PUSH2 0x6267 JUMP JUMPDEST SWAP1 POP SWAP2 SWAP1 POP JUMP JUMPDEST PUSH32 0x416363657373436F6E74726F6C3A206163636F756E7420000000000000000000 PUSH1 0x0 DUP3 ADD MSTORE POP JUMP JUMPDEST PUSH1 0x0 PUSH2 0x62E0 PUSH1 0x17 DUP4 PUSH2 0x3A8C JUMP JUMPDEST SWAP2 POP PUSH2 0x62EB DUP3 PUSH2 0x62AA JUMP JUMPDEST PUSH1 0x17 DUP3 ADD SWAP1 POP SWAP2 SWAP1 POP JUMP JUMPDEST PUSH32 0x206973206D697373696E6720726F6C6520000000000000000000000000000000 PUSH1 0x0 DUP3 ADD MSTORE POP JUMP JUMPDEST PUSH1 0x0 PUSH2 0x632C PUSH1 0x11 DUP4 PUSH2 0x3A8C JUMP JUMPDEST SWAP2 POP PUSH2 0x6337 DUP3 PUSH2 0x62F6 JUMP JUMPDEST PUSH1 0x11 DUP3 ADD SWAP1 POP SWAP2 SWAP1 POP JUMP JUMPDEST PUSH1 0x0 PUSH2 0x634D DUP3 PUSH2 0x62D3 JUMP JUMPDEST SWAP2 POP PUSH2 0x6359 DUP3 DUP6 PUSH2 0x5CD4 JUMP JUMPDEST SWAP2 POP PUSH2 0x6364 DUP3 PUSH2 0x631F JUMP JUMPDEST SWAP2 POP PUSH2 0x6370 DUP3 DUP5 PUSH2 0x5CD4 JUMP JUMPDEST SWAP2 POP DUP2 SWAP1 POP SWAP4 SWAP3 POP POP POP JUMP JUMPDEST PUSH2 0x6385 DUP2 PUSH2 0x3CF8 JUMP JUMPDEST DUP2 EQ PUSH2 0x6390 JUMPI PUSH1 0x0 DUP1 REVERT JUMPDEST POP JUMP JUMPDEST PUSH1 0x0 DUP2 MLOAD SWAP1 POP PUSH2 0x63A2 DUP2 PUSH2 0x637C JUMP JUMPDEST SWAP3 SWAP2 POP POP JUMP JUMPDEST PUSH1 0x0 PUSH1 0x20 DUP3 DUP5 SUB SLT ISZERO PUSH2 0x63BE JUMPI PUSH2 0x63BD PUSH2 0x3C69 JUMP JUMPDEST JUMPDEST PUSH1 0x0 PUSH2 0x63CC DUP5 DUP3 DUP6 ADD PUSH2 0x6393 JUMP JUMPDEST SWAP2 POP POP SWAP3 SWAP2 POP POP JUMP JUMPDEST PUSH32 0x5361666545524332303A204552433230206F7065726174696F6E20646964206E PUSH1 0x0 DUP3 ADD MSTORE PUSH32 0x6F74207375636365656400000000000000000000000000000000000000000000 PUSH1 0x20 DUP3 ADD MSTORE POP JUMP JUMPDEST PUSH1 0x0 PUSH2 0x6431 PUSH1 0x2A DUP4 PUSH2 0x3AF8 JUMP JUMPDEST SWAP2 POP PUSH2 0x643C DUP3 PUSH2 0x63D5 JUMP JUMPDEST PUSH1 0x40 DUP3 ADD SWAP1 POP SWAP2 SWAP1 POP JUMP JUMPDEST PUSH1 0x0 PUSH1 0x20 DUP3 ADD SWAP1 POP DUP2 DUP2 SUB PUSH1 0x0 DUP4 ADD MSTORE PUSH2 0x6460 DUP2 PUSH2 0x6424 JUMP JUMPDEST SWAP1 POP SWAP2 SWAP1 POP JUMP JUMPDEST PUSH1 0x0 PUSH2 0x6472 DUP3 PUSH2 0x3BA1 JUMP JUMPDEST SWAP2 POP PUSH2 0x647D DUP4 PUSH2 0x3BA1 JUMP JUMPDEST SWAP3 POP DUP3 DUP3 MUL PUSH2 0x648B DUP2 PUSH2 0x3BA1 JUMP JUMPDEST SWAP2 POP DUP3 DUP3 DIV DUP5 EQ DUP4 ISZERO OR PUSH2 0x64A2 JUMPI PUSH2 0x64A1 PUSH2 0x462A JUMP JUMPDEST JUMPDEST POP SWAP3 SWAP2 POP POP JUMP JUMPDEST PUSH1 0x0 PUSH2 0x64B4 DUP3 PUSH2 0x3BA1 JUMP JUMPDEST SWAP2 POP PUSH1 0x0 DUP3 SUB PUSH2 0x64C7 JUMPI PUSH2 0x64C6 PUSH2 0x462A JUMP JUMPDEST JUMPDEST PUSH1 0x1 DUP3 SUB SWAP1 POP SWAP2 SWAP1 POP JUMP JUMPDEST PUSH32 0x537472696E67733A20686578206C656E67746820696E73756666696369656E74 PUSH1 0x0 DUP3 ADD MSTORE POP JUMP JUMPDEST PUSH1 0x0 PUSH2 0x6508 PUSH1 0x20 DUP4 PUSH2 0x3AF8 JUMP JUMPDEST SWAP2 POP PUSH2 0x6513 DUP3 PUSH2 0x64D2 JUMP JUMPDEST PUSH1 0x20 DUP3 ADD SWAP1 POP SWAP2 SWAP1 POP JUMP JUMPDEST PUSH1 0x0 PUSH1 0x20 DUP3 ADD SWAP1 POP DUP2 DUP2 SUB PUSH1 0x0 DUP4 ADD MSTORE PUSH2 0x6537 DUP2 PUSH2 0x64FB JUMP JUMPDEST SWAP1 POP SWAP2 SWAP1 POP JUMP JUMPDEST PUSH32 0x4E487B7100000000000000000000000000000000000000000000000000000000 PUSH1 0x0 MSTORE PUSH1 0x31 PUSH1 0x4 MSTORE PUSH1 0x24 PUSH1 0x0 REVERT JUMPDEST PUSH32 0x416464726573733A20696E73756666696369656E742062616C616E636520666F PUSH1 0x0 DUP3 ADD MSTORE PUSH32 0x722063616C6C0000000000000000000000000000000000000000000000000000 PUSH1 0x20 DUP3 ADD MSTORE POP JUMP JUMPDEST PUSH1 0x0 PUSH2 0x65C9 PUSH1 0x26 DUP4 PUSH2 0x3AF8 JUMP JUMPDEST SWAP2 POP PUSH2 0x65D4 DUP3 PUSH2 0x656D JUMP JUMPDEST PUSH1 0x40 DUP3 ADD SWAP1 POP SWAP2 SWAP1 POP JUMP JUMPDEST PUSH1 0x0 PUSH1 0x20 DUP3 ADD SWAP1 POP DUP2 DUP2 SUB PUSH1 0x0 DUP4 ADD MSTORE PUSH2 0x65F8 DUP2 PUSH2 0x65BC JUMP JUMPDEST SWAP1 POP SWAP2 SWAP1 POP JUMP JUMPDEST PUSH1 0x0 DUP2 SWAP1 POP SWAP3 SWAP2 POP POP JUMP JUMPDEST PUSH1 0x0 PUSH2 0x6615 DUP3 PUSH2 0x5A0B JUMP JUMPDEST PUSH2 0x661F DUP2 DUP6 PUSH2 0x65FF JUMP JUMPDEST SWAP4 POP PUSH2 0x662F DUP2 DUP6 PUSH1 0x20 DUP7 ADD PUSH2 0x419D JUMP JUMPDEST DUP1 DUP5 ADD SWAP2 POP POP SWAP3 SWAP2 POP POP JUMP JUMPDEST PUSH1 0x0 PUSH2 0x6647 DUP3 DUP5 PUSH2 0x660A JUMP JUMPDEST SWAP2 POP DUP2 SWAP1 POP SWAP3 SWAP2 POP POP JUMP JUMPDEST PUSH32 0x416464726573733A2063616C6C20746F206E6F6E2D636F6E7472616374000000 PUSH1 0x0 DUP3 ADD MSTORE POP JUMP JUMPDEST PUSH1 0x0 PUSH2 0x6688 PUSH1 0x1D DUP4 PUSH2 0x3AF8 JUMP JUMPDEST SWAP2 POP PUSH2 0x6693 DUP3 PUSH2 0x6652 JUMP JUMPDEST PUSH1 0x20 DUP3 ADD SWAP1 POP SWAP2 SWAP1 POP JUMP JUMPDEST PUSH1 0x0 PUSH1 0x20 DUP3 ADD SWAP1 POP DUP2 DUP2 SUB PUSH1 0x0 DUP4 ADD MSTORE PUSH2 0x66B7 DUP2 PUSH2 0x667B JUMP JUMPDEST SWAP1 POP SWAP2 SWAP1 POP JUMP INVALID PUSH29 0xEB23FD6BC0ADD59E62AC25578270CFF1B9F6190001F43C499C542CEF5E CODESIZE GT 0xE1 NOT 0x2C 0xE7 0xD DUP13 0xC0 RETURNDATASIZE 0x5C CALLER MSIZE SHL REVERT PUSH8 0x37B42CF73ACF204 PUSH17 0x67BD4F2C47D9BFD60001F47CEB23FD6BC0 0xAD 0xD5 SWAP15 PUSH3 0xAC2557 DUP3 PUSH17 0xCFF1B9F6190001F43C499C542CEF5E3811 0xE1 NOT 0x2C 0xE7 0xD DUP13 0xC0 RETURNDATASIZE 0x5C CALLER MSIZE LOG2 PUSH5 0x6970667358 0x22 SLT KECCAK256 0xC9 0xAE REVERT 0xD DUP11 SWAP1 EXP SHL 0x26 MOD EQ 0xDB SWAP4 0xC9 NOT SWAP4 0xCF 0xC9 EXTCODESIZE GT SMOD 0xAB SWAP3 DUP1 0x5C PUSH22 0xB98C36393EB164736F6C634300081200330000000000 "},"methodIdentifiers":{"ACONCAGUA_ROLE()":"e5df800a","DEFAULT_ADMIN_ROLE()":"a217fddf","LENDER_LIQ_ROLE()":"32cc815d","RESCUER_ROLE()":"71372544","SWAPPER_ROLE()":"df668eca","balanceOf(string)":"35ee5f87","contractAddresses(string)":"ee67cc2a","contractKeys(uint256)":"de6bd687","getBalances()":"00113e08","getRoleAdmin(bytes32)":"248a9ca3","getRoleByIndex(uint256)":"25acc985","getRoleCount()":"83d33319","getRoleMember(bytes32,uint256)":"9010d07c","getRoleMemberCount(bytes32)":"ca15c873","getTokenNames()":"2ad753e4","grantRole(bytes32,address)":"2f2ff15d","hasRole(bytes32,address)":"91d14854","initialize(string[],address[],address[3],address,address,address,address,address[3])":"1e08dec9","quoteToUSDC(address,uint256)":"581ceca8","renounceRole(bytes32,address)":"36568abe","rescue(uint256,string)":"0828c404","rescueWalletAddress()":"15ac7358","revokeRole(bytes32,address)":"d547741f","setRescueWalletAddress(address)":"d00411c9","setWithdrawWalletAddress(address)":"212f6039","supportsInterface(bytes4)":"01ffc9a7","swapExactInputs(((bytes,address,uint256,uint256,uint256),address,address)[])":"2ffe9942","tokenNames(uint256)":"310495ab","tokenTable(string)":"55452d04","version()":"54fd4d50","withdraw(uint256,string)":"dc048cf2","withdrawWalletAddress()":"b14ec101"}}}}}