{"contracts/ColateralContract2.sol":{"ColateralContract2":{"abi":[{"inputs":[],"name":"AmountOutMinimumTooLow","type":"error"},{"inputs":[],"name":"RescueAddressInvalid","type":"error"},{"inputs":[],"name":"WithdrawAddressInvalid","type":"error"},{"anonymous":false,"inputs":[{"indexed":false,"internalType":"address","name":"sender","type":"address"},{"indexed":false,"internalType":"string[5]","name":"_tokenNames","type":"string[5]"},{"indexed":false,"internalType":"address[5]","name":"_tokenAddresses","type":"address[5]"},{"indexed":false,"internalType":"address[3]","name":"_aconcagua","type":"address[3]"},{"indexed":false,"internalType":"address","name":"_rescueWalletAddress","type":"address"},{"indexed":false,"internalType":"address","name":"_withdrawWalletAddress","type":"address"},{"indexed":false,"internalType":"address","name":"_firstLenderLiq","type":"address"},{"indexed":false,"internalType":"address","name":"_secondLenderLiq","type":"address"},{"indexed":false,"internalType":"string[2]","name":"_contractKeys","type":"string[2]"},{"indexed":false,"internalType":"address[2]","name":"_contractAddresses","type":"address[2]"}],"name":"Initialize","type":"event"},{"anonymous":false,"inputs":[{"indexed":false,"internalType":"uint8","name":"version","type":"uint8"}],"name":"Initialized","type":"event"},{"anonymous":false,"inputs":[{"indexed":false,"internalType":"address","name":"tokenIn","type":"address"},{"indexed":false,"internalType":"address","name":"tokenOut","type":"address"},{"indexed":false,"internalType":"uint256","name":"amountIn","type":"uint256"},{"indexed":false,"internalType":"uint256","name":"quotedAmountOut","type":"uint256"}],"name":"Quote","type":"event"},{"anonymous":false,"inputs":[{"indexed":false,"internalType":"address","name":"tokenIn","type":"address"},{"indexed":false,"internalType":"address","name":"tokenOut","type":"address"},{"indexed":false,"internalType":"uint256","name":"amountIn","type":"uint256"},{"indexed":false,"internalType":"string","name":"msg","type":"string"}],"name":"QuoteError","type":"event"},{"anonymous":false,"inputs":[{"indexed":false,"internalType":"address","name":"sender","type":"address"},{"indexed":false,"internalType":"string","name":"token","type":"string"},{"indexed":false,"internalType":"uint256","name":"amount","type":"uint256"},{"indexed":false,"internalType":"address","name":"to","type":"address"}],"name":"Rescue","type":"event"},{"anonymous":false,"inputs":[{"indexed":true,"internalType":"bytes32","name":"role","type":"bytes32"},{"indexed":true,"internalType":"bytes32","name":"previousAdminRole","type":"bytes32"},{"indexed":true,"internalType":"bytes32","name":"newAdminRole","type":"bytes32"}],"name":"RoleAdminChanged","type":"event"},{"anonymous":false,"inputs":[{"indexed":true,"internalType":"bytes32","name":"role","type":"bytes32"},{"indexed":true,"internalType":"address","name":"account","type":"address"},{"indexed":true,"internalType":"address","name":"sender","type":"address"}],"name":"RoleGranted","type":"event"},{"anonymous":false,"inputs":[{"indexed":true,"internalType":"bytes32","name":"role","type":"bytes32"},{"indexed":true,"internalType":"address","name":"account","type":"address"},{"indexed":true,"internalType":"address","name":"sender","type":"address"}],"name":"RoleRevoked","type":"event"},{"anonymous":false,"inputs":[{"indexed":false,"internalType":"address","name":"tokenIn","type":"address"},{"indexed":false,"internalType":"address","name":"tokenOut","type":"address"},{"indexed":false,"internalType":"uint256","name":"amountIn","type":"uint256"},{"indexed":false,"internalType":"uint256","name":"amountOut","type":"uint256"}],"name":"Swap","type":"event"},{"anonymous":false,"inputs":[{"indexed":true,"internalType":"address","name":"tokenIn","type":"address"},{"indexed":true,"internalType":"address","name":"tokenOut","type":"address"},{"indexed":false,"internalType":"uint256","name":"amountIn","type":"uint256"},{"indexed":false,"internalType":"uint256","name":"amountOut","type":"uint256"},{"indexed":false,"internalType":"string","name":"reason","type":"string"}],"name":"SwapError","type":"event"},{"anonymous":false,"inputs":[{"indexed":true,"internalType":"address","name":"tokenIn","type":"address"},{"indexed":true,"internalType":"address","name":"tokenOut","type":"address"},{"indexed":false,"internalType":"uint256","name":"amountIn","type":"uint256"}],"name":"SwapStarted","type":"event"},{"anonymous":false,"inputs":[{"indexed":false,"internalType":"address","name":"sender","type":"address"},{"indexed":false,"internalType":"string","name":"token","type":"string"},{"indexed":false,"internalType":"uint256","name":"amount","type":"uint256"}],"name":"Withdraw","type":"event"},{"inputs":[],"name":"ACONCAGUA_ROLE","outputs":[{"internalType":"bytes32","name":"","type":"bytes32"}],"stateMutability":"view","type":"function"},{"inputs":[],"name":"DEFAULT_ADMIN_ROLE","outputs":[{"internalType":"bytes32","name":"","type":"bytes32"}],"stateMutability":"view","type":"function"},{"inputs":[],"name":"LENDER_LIQ_ROLE","outputs":[{"internalType":"bytes32","name":"","type":"bytes32"}],"stateMutability":"view","type":"function"},{"inputs":[],"name":"RESCUER_ROLE","outputs":[{"internalType":"bytes32","name":"","type":"bytes32"}],"stateMutability":"view","type":"function"},{"inputs":[],"name":"SWAPPER_ROLE","outputs":[{"internalType":"bytes32","name":"","type":"bytes32"}],"stateMutability":"view","type":"function"},{"inputs":[{"internalType":"string","name":"_tokenSymbol","type":"string"}],"name":"balanceOf","outputs":[{"internalType":"uint256","name":"","type":"uint256"}],"stateMutability":"view","type":"function"},{"inputs":[{"internalType":"string","name":"","type":"string"}],"name":"contractAddresses","outputs":[{"internalType":"address","name":"","type":"address"}],"stateMutability":"view","type":"function"},{"inputs":[{"internalType":"uint256","name":"","type":"uint256"}],"name":"contractKeys","outputs":[{"internalType":"string","name":"","type":"string"}],"stateMutability":"view","type":"function"},{"inputs":[],"name":"getBalances","outputs":[{"internalType":"uint256[]","name":"","type":"uint256[]"}],"stateMutability":"view","type":"function"},{"inputs":[{"internalType":"bytes32","name":"role","type":"bytes32"}],"name":"getRoleAdmin","outputs":[{"internalType":"bytes32","name":"","type":"bytes32"}],"stateMutability":"view","type":"function"},{"inputs":[{"internalType":"bytes32","name":"role","type":"bytes32"},{"internalType":"uint256","name":"index","type":"uint256"}],"name":"getRoleMember","outputs":[{"internalType":"address","name":"","type":"address"}],"stateMutability":"view","type":"function"},{"inputs":[{"internalType":"bytes32","name":"role","type":"bytes32"}],"name":"getRoleMemberCount","outputs":[{"internalType":"uint256","name":"","type":"uint256"}],"stateMutability":"view","type":"function"},{"inputs":[],"name":"getTokenNames","outputs":[{"internalType":"string[5]","name":"","type":"string[5]"}],"stateMutability":"view","type":"function"},{"inputs":[{"internalType":"bytes32","name":"role","type":"bytes32"},{"internalType":"address","name":"account","type":"address"}],"name":"grantRole","outputs":[],"stateMutability":"nonpayable","type":"function"},{"inputs":[{"internalType":"bytes32","name":"role","type":"bytes32"},{"internalType":"address","name":"account","type":"address"}],"name":"hasRole","outputs":[{"internalType":"bool","name":"","type":"bool"}],"stateMutability":"view","type":"function"},{"inputs":[{"internalType":"address","name":"_validator","type":"address"},{"internalType":"string[5]","name":"_tokenNames","type":"string[5]"},{"internalType":"address[5]","name":"_tokenAddresses","type":"address[5]"},{"internalType":"address[3]","name":"_aconcagua","type":"address[3]"},{"internalType":"address","name":"_rescueWalletAddress","type":"address"},{"internalType":"address","name":"_withdrawWalletAddress","type":"address"},{"internalType":"address","name":"_firstLenderLiq","type":"address"},{"internalType":"address","name":"_secondLenderLiq","type":"address"},{"internalType":"string[2]","name":"_contractKeys","type":"string[2]"},{"internalType":"address[2]","name":"_contractAddresses","type":"address[2]"}],"name":"initialize","outputs":[],"stateMutability":"nonpayable","type":"function"},{"inputs":[{"internalType":"bytes32","name":"role","type":"bytes32"},{"internalType":"address","name":"account","type":"address"}],"name":"renounceRole","outputs":[],"stateMutability":"nonpayable","type":"function"},{"inputs":[{"internalType":"uint256","name":"_amount","type":"uint256"},{"internalType":"string","name":"_tokenSymbol","type":"string"}],"name":"rescue","outputs":[],"stateMutability":"nonpayable","type":"function"},{"inputs":[],"name":"rescueWalletAddress","outputs":[{"internalType":"address","name":"","type":"address"}],"stateMutability":"view","type":"function"},{"inputs":[{"internalType":"bytes32","name":"role","type":"bytes32"},{"internalType":"address","name":"account","type":"address"}],"name":"revokeRole","outputs":[],"stateMutability":"nonpayable","type":"function"},{"inputs":[{"internalType":"address","name":"_rescueWalletAddress","type":"address"}],"name":"setRescueWalletAddress","outputs":[],"stateMutability":"nonpayable","type":"function"},{"inputs":[{"internalType":"address","name":"_withdrawWalletAddress","type":"address"}],"name":"setWithdrawWalletAddress","outputs":[],"stateMutability":"nonpayable","type":"function"},{"inputs":[{"internalType":"bytes4","name":"interfaceId","type":"bytes4"}],"name":"supportsInterface","outputs":[{"internalType":"bool","name":"","type":"bool"}],"stateMutability":"view","type":"function"},{"inputs":[{"components":[{"components":[{"internalType":"bytes","name":"path","type":"bytes"},{"internalType":"address","name":"recipient","type":"address"},{"internalType":"uint256","name":"deadline","type":"uint256"},{"internalType":"uint256","name":"amountIn","type":"uint256"},{"internalType":"uint256","name":"amountOutMinimum","type":"uint256"}],"internalType":"struct ISwapRouter.ExactInputParams","name":"params","type":"tuple"},{"internalType":"address","name":"tokenIn","type":"address"},{"internalType":"address","name":"tokenOut","type":"address"}],"internalType":"struct IColateralContract2.SwapParams[]","name":"swapsParams","type":"tuple[]"}],"name":"swapExactInputs","outputs":[],"stateMutability":"nonpayable","type":"function"},{"inputs":[{"internalType":"uint256","name":"","type":"uint256"}],"name":"tokenNames","outputs":[{"internalType":"string","name":"","type":"string"}],"stateMutability":"view","type":"function"},{"inputs":[{"internalType":"string","name":"","type":"string"}],"name":"tokenTable","outputs":[{"internalType":"address","name":"","type":"address"}],"stateMutability":"view","type":"function"},{"inputs":[],"name":"version","outputs":[{"internalType":"string","name":"","type":"string"}],"stateMutability":"pure","type":"function"},{"inputs":[{"internalType":"uint256","name":"_amount","type":"uint256"},{"internalType":"string","name":"_tokenSymbol","type":"string"}],"name":"withdraw","outputs":[],"stateMutability":"nonpayable","type":"function"},{"inputs":[],"name":"withdrawWalletAddress","outputs":[{"internalType":"address","name":"","type":"address"}],"stateMutability":"view","type":"function"},{"stateMutability":"payable","type":"receive"}],"evm":{"bytecode":{"linkReferences":{},"object":"608060405234801561001057600080fd5b5061568f80620000216000396000f3fe6080604052600436106101c55760003560e01c806355452d04116100f7578063ca15c87311610095578063de6bd68711610064578063de6bd68714610768578063df668eca146107a5578063e5df800a146107d0578063ee67cc2a146107fb576102b2565b8063ca15c873146106b0578063d00411c9146106ed578063d547741f14610716578063dc048cf21461073f576102b2565b80639010d07c116100d15780639010d07c146105e057806391d148541461061d578063a217fddf1461065a578063b14ec10114610685576102b2565b806355452d041461054f578063713725441461058c57806382828cbe146105b7576102b2565b80632f2ff15d1161016457806332cc815d1161013e57806332cc815d1461049357806335ee5f87146104be57806336568abe146104fb57806354fd4d5014610524576102b2565b80632f2ff15d146104045780632ffe99421461042d578063310495ab14610456576102b2565b806315ac7358116101a057806315ac735814610348578063212f603914610373578063248a9ca31461039c5780632ad753e4146103d9576102b2565b8062113e08146102b757806301ffc9a7146102e25780630828c4041461031f576102b2565b366102b257601e4603610275576101026040516101e19061310b565b908152602001604051809103902060009054906101000a900473ffffffffffffffffffffffffffffffffffffffff1673ffffffffffffffffffffffffffffffffffffffff1663d0e30db0346040518263ffffffff1660e01b81526004016000604051808303818588803b15801561025757600080fd5b505af115801561026b573d6000803e3d6000fd5b50505050506102b0565b6040517f08c379a00000000000000000000000000000000000000000000000000000000081526004016102a79061317d565b60405180910390fd5b005b600080fd5b3480156102c357600080fd5b506102cc610838565b6040516102d99190613265565b60405180910390f35b3480156102ee57600080fd5b50610309600480360381019061030491906132f3565b6109b0565b604051610316919061333b565b60405180910390f35b34801561032b57600080fd5b50610346600480360381019061034191906133e7565b610a2a565b005b34801561035457600080fd5b5061035d610b42565b60405161036a9190613488565b60405180910390f35b34801561037f57600080fd5b5061039a600480360381019061039591906134cf565b610b69565b005b3480156103a857600080fd5b506103c360048036038101906103be9190613532565b610c3f565b6040516103d0919061356e565b60405180910390f35b3480156103e557600080fd5b506103ee610c5f565b6040516103fb91906136cf565b60405180910390f35b34801561041057600080fd5b5061042b600480360381019061042691906136f1565b610d2c565b005b34801561043957600080fd5b50610454600480360381019061044f9190613787565b610d4d565b005b34801561046257600080fd5b5061047d600480360381019061047891906137d4565b6114b4565b60405161048a919061383a565b60405180910390f35b34801561049f57600080fd5b506104a8611557565b6040516104b5919061356e565b60405180910390f35b3480156104ca57600080fd5b506104e560048036038101906104e0919061398c565b61157b565b6040516104f291906139e4565b60405180910390f35b34801561050757600080fd5b50610522600480360381019061051d91906136f1565b611642565b005b34801561053057600080fd5b506105396116c5565b604051610546919061383a565b60405180910390f35b34801561055b57600080fd5b506105766004803603810190610571919061398c565b611702565b6040516105839190613488565b60405180910390f35b34801561059857600080fd5b506105a161174c565b6040516105ae919061356e565b60405180910390f35b3480156105c357600080fd5b506105de60048036038101906105d99190613aa9565b611770565b005b3480156105ec57600080fd5b5061060760048036038101906106029190613bc4565b611f3d565b6040516106149190613488565b60405180910390f35b34801561062957600080fd5b50610644600480360381019061063f91906136f1565b611f6c565b604051610651919061333b565b60405180910390f35b34801561066657600080fd5b5061066f611fd7565b60405161067c919061356e565b60405180910390f35b34801561069157600080fd5b5061069a611fde565b6040516106a79190613488565b60405180910390f35b3480156106bc57600080fd5b506106d760048036038101906106d29190613532565b612005565b6040516106e491906139e4565b60405180910390f35b3480156106f957600080fd5b50610714600480360381019061070f91906134cf565b612029565b005b34801561072257600080fd5b5061073d600480360381019061073891906136f1565b6120ff565b005b34801561074b57600080fd5b50610766600480360381019061076191906133e7565b612120565b005b34801561077457600080fd5b5061078f600480360381019061078a91906137d4565b61222f565b60405161079c919061383a565b60405180910390f35b3480156107b157600080fd5b506107ba6122d3565b6040516107c7919061356e565b60405180910390f35b3480156107dc57600080fd5b506107e56122f7565b6040516107f2919061356e565b60405180910390f35b34801561080757600080fd5b50610822600480360381019061081d919061398c565b61231b565b60405161082f9190613488565b60405180910390f35b606060006001600561084a9190613c33565b67ffffffffffffffff81111561086357610862613861565b5b6040519080825280602002602001820160405280156108915781602001602082028036833780820191505090505b50905047816000815181106108a9576108a8613c67565b5b6020026020010181815250506000600190505b600581116109a85761097660fd6001836108d69190613c96565b600581106108e7576108e6613c67565b5b0180546108f390613cf9565b80601f016020809104026020016040519081016040528092919081815260200182805461091f90613cf9565b801561096c5780601f106109415761010080835404028352916020019161096c565b820191906000526020600020905b81548152906001019060200180831161094f57829003601f168201915b505050505061157b565b82828151811061098957610988613c67565b5b60200260200101818152505080806109a090613d2a565b9150506108bc565b508091505090565b60007f5a05180f000000000000000000000000000000000000000000000000000000007bffffffffffffffffffffffffffffffffffffffffffffffffffffffff1916827bffffffffffffffffffffffffffffffffffffffffffffffffffffffff19161480610a235750610a2282612365565b5b9050919050565b7fbffb4faf8a508f503a2ca036effd0bc1f82615d3ebfddb934edf718f23672707610a54816123df565b610a5c6123f3565b610acb6101028484604051610a72929190613d97565b908152602001604051809103902060009054906101000a900473ffffffffffffffffffffffffffffffffffffffff1661010360009054906101000a900473ffffffffffffffffffffffffffffffffffffffff1686612442565b7f22cb89e6358014bb27f5658e2b820189f8f4c9e3f7165ecf266edc53be12d9fa610af46124c8565b84848761010360009054906101000a900473ffffffffffffffffffffffffffffffffffffffff16604051610b2c959493929190613ddd565b60405180910390a1610b3c6124d0565b50505050565b61010360009054906101000a900473ffffffffffffffffffffffffffffffffffffffff1681565b7ffaad79a708d82d095486f5a83b18341f12a8f717d3011ab929d43135c1af73e2610b93816123df565b600073ffffffffffffffffffffffffffffffffffffffff168273ffffffffffffffffffffffffffffffffffffffff1603610bf9576040517fd766085d00000000000000000000000000000000000000000000000000000000815260040160405180910390fd5b8161010460006101000a81548173ffffffffffffffffffffffffffffffffffffffff021916908373ffffffffffffffffffffffffffffffffffffffff1602179055505050565b600060656000838152602001908152602001600020600101549050919050565b610c6761308d565b60fd600580602002604051908101604052809291906000905b82821015610d23578382018054610c9690613cf9565b80601f0160208091040260200160405190810160405280929190818152602001828054610cc290613cf9565b8015610d0f5780601f10610ce457610100808354040283529160200191610d0f565b820191906000526020600020905b815481529060010190602001808311610cf257829003601f168201915b505050505081526020019060010190610c80565b50505050905090565b610d3582610c3f565b610d3e816123df565b610d4883836124da565b505050565b7fd2761b102bda9831f4af400cc824b8cecb9cc5c1c85c51acb1479db9735fbfc6610d77816123df565b60005b838390508110156114ae5736848483818110610d9957610d98613c67565b5b9050602002810190610dab9190613e3a565b9050806040016020810190610dc091906134cf565b73ffffffffffffffffffffffffffffffffffffffff16816020016020810190610de991906134cf565b73ffffffffffffffffffffffffffffffffffffffff167f02f79e80ece3e0af8a6ecd3cfbba44f8d0f477e3fd3332dd5f406e0c0e6e4aa4838060000190610e309190613e62565b60600135604051610e4191906139e4565b60405180910390a361010960009054906101000a900473ffffffffffffffffffffffffffffffffffffffff1673ffffffffffffffffffffffffffffffffffffffff1663c4a5849a30836040518363ffffffff1660e01b8152600401610ea79291906140a7565b60006040518083038186803b158015610ebf57600080fd5b505afa158015610ed3573d6000803e3d6000fd5b505050506000816040016020810190610eec91906134cf565b73ffffffffffffffffffffffffffffffffffffffff166370a08231306040518263ffffffff1660e01b8152600401610f249190613488565b602060405180830381865afa158015610f41573d6000803e3d6000fd5b505050506040513d601f19601f82011682018060405250810190610f6591906140ec565b9050600080836020016020810190610f7d91906134cf565b9050610fda81610108604051610f9290614165565b908152602001604051809103902060009054906101000a900473ffffffffffffffffffffffffffffffffffffffff16868060000190610fd19190613e62565b60600135612442565b60008060f81b604051602001610ff091906141c7565b60405160208183030381529060405290506000600167ffffffffffffffff81111561101e5761101d613861565b5b60405190808252806020026020018201604052801561105157816020015b606081526020019060019003908161103c5790505b5090508580600001906110649190613e62565b602001602081019061107691906134cf565b8680600001906110869190613e62565b6060013587806000019061109a9190613e62565b608001358880600001906110ae9190613e62565b80600001906110bd91906141e2565b60006040516020016110d496959493929190614283565b604051602081830303815290604052816000815181106110f7576110f6613c67565b5b602002602001018190525061010860405161111190614165565b908152602001604051809103902060009054906101000a900473ffffffffffffffffffffffffffffffffffffffff1673ffffffffffffffffffffffffffffffffffffffff16633593564c838389806000019061116d9190613e62565b604001356040518463ffffffff1660e01b815260040161118f9392919061441e565b600060405180830381600087803b1580156111a957600080fd5b505af19250505080156111ba575060015b61129c576111c6614470565b806308c379a00361128b57506111da614492565b806111e5575061128d565b8660400160208101906111f891906134cf565b73ffffffffffffffffffffffffffffffffffffffff1687602001602081019061122191906134cf565b73ffffffffffffffffffffffffffffffffffffffff167f26205eb01c8bb7fce6c5de8f590381b9d33aac206b0ce1b7ef655725719937088980600001906112689190613e62565b60600135888560405161127d93929190614522565b60405180910390a350611297565b505b3d6000803e3d6000fd5b611495565b8560400160208101906112af91906134cf565b73ffffffffffffffffffffffffffffffffffffffff166370a08231306040518263ffffffff1660e01b81526004016112e79190613488565b602060405180830381865afa158015611304573d6000803e3d6000fd5b505050506040513d601f19601f8201168201806040525081019061132891906140ec565b935085806000019061133a9190613e62565b608001358410156114155785604001602081019061135891906134cf565b73ffffffffffffffffffffffffffffffffffffffff1686602001602081019061138191906134cf565b73ffffffffffffffffffffffffffffffffffffffff167f26205eb01c8bb7fce6c5de8f590381b9d33aac206b0ce1b7ef655725719937088880600001906113c89190613e62565b60600135876040516113db9291906145ac565b60405180910390a36040517f1792539f00000000000000000000000000000000000000000000000000000000815260040160405180910390fd5b7ffa2dda1cc1b86e41239702756b13effbc1a092b5c57e3ad320fbe4f3b13fe23586602001602081019061144991906134cf565b87604001602081019061145c91906134cf565b88806000019061146c9190613e62565b60600135888861147c9190613c96565b60405161148c94939291906145e8565b60405180910390a15b50505050505080806114a690613d2a565b915050610d7a565b50505050565b60fd81600581106114c457600080fd5b0160009150905080546114d690613cf9565b80601f016020809104026020016040519081016040528092919081815260200182805461150290613cf9565b801561154f5780601f106115245761010080835404028352916020019161154f565b820191906000526020600020905b81548152906001019060200180831161153257829003601f168201915b505050505081565b7ffd37f88a14d7ed985885a1af8f2ad5b64dd7eb00ab89168649791632bb9bb4a681565b6000806101028360405161158f919061465e565b908152602001604051809103902060009054906101000a900473ffffffffffffffffffffffffffffffffffffffff1690508073ffffffffffffffffffffffffffffffffffffffff166370a08231306040518263ffffffff1660e01b81526004016115f99190613488565b602060405180830381865afa158015611616573d6000803e3d6000fd5b505050506040513d601f19601f8201168201806040525081019061163a91906140ec565b915050919050565b61164a6124c8565b73ffffffffffffffffffffffffffffffffffffffff168173ffffffffffffffffffffffffffffffffffffffff16146116b7576040517f08c379a00000000000000000000000000000000000000000000000000000000081526004016116ae906146e7565b60405180910390fd5b6116c1828261250e565b5050565b60606040518060400160405280600581526020017f322e302e30000000000000000000000000000000000000000000000000000000815250905090565b610102818051602081018201805184825260208301602085012081835280955050505050506000915054906101000a900473ffffffffffffffffffffffffffffffffffffffff1681565b7fbffb4faf8a508f503a2ca036effd0bc1f82615d3ebfddb934edf718f2367270781565b60008060019054906101000a900460ff161590508080156117a15750600160008054906101000a900460ff1660ff16105b806117ce57506117b030612542565b1580156117cd5750600160008054906101000a900460ff1660ff16145b5b61180d576040517f08c379a000000000000000000000000000000000000000000000000000000000815260040161180490614779565b60405180910390fd5b60016000806101000a81548160ff021916908360ff160217905550801561184a576001600060016101000a81548160ff0219169083151502179055505b8a61010960006101000a81548173ffffffffffffffffffffffffffffffffffffffff021916908373ffffffffffffffffffffffffffffffffffffffff16021790555061010960009054906101000a900473ffffffffffffffffffffffffffffffffffffffff1673ffffffffffffffffffffffffffffffffffffffff16633d255b118b8b8b8b8b8b8b8b8b6040518a63ffffffff1660e01b81526004016118f899989796959493929190614b48565b60006040518083038186803b15801561191057600080fd5b505afa158015611924573d6000803e3d6000fd5b50505050611930612565565b6119386125b6565b60005b6005811015611a435789816005811061195757611956613c67565b5b60200201602081019061196a91906134cf565b6101028c83600581106119805761197f613c67565b5b6020028101906119909190614be8565b60405161199e929190613d97565b908152602001604051809103902060006101000a81548173ffffffffffffffffffffffffffffffffffffffff021916908373ffffffffffffffffffffffffffffffffffffffff1602179055508a81600581106119fd576119fc613c67565b5b602002810190611a0d9190614be8565b60fd8360058110611a2157611a20613c67565b5b019182611a2f929190614e02565b508080611a3b90613d2a565b91505061193b565b508561010460006101000a81548173ffffffffffffffffffffffffffffffffffffffff021916908373ffffffffffffffffffffffffffffffffffffffff1602179055508661010360006101000a81548173ffffffffffffffffffffffffffffffffffffffff021916908373ffffffffffffffffffffffffffffffffffffffff16021790555060005b6002811015611bc657838160028110611ae757611ae6613c67565b5b602002810190611af79190614be8565b6101058360038110611b0c57611b0b613c67565b5b019182611b1a929190614e02565b50828160028110611b2e57611b2d613c67565b5b602002016020810190611b4191906134cf565b6101086101058360038110611b5957611b58613c67565b5b01604051611b679190614f55565b908152602001604051809103902060006101000a81548173ffffffffffffffffffffffffffffffffffffffff021916908373ffffffffffffffffffffffffffffffffffffffff1602179055508080611bbe90613d2a565b915050611acb565b50611c177ffaad79a708d82d095486f5a83b18341f12a8f717d3011ab929d43135c1af73e289600060038110611bff57611bfe613c67565b5b602002016020810190611c1291906134cf565b6124da565b611c677ffaad79a708d82d095486f5a83b18341f12a8f717d3011ab929d43135c1af73e289600160038110611c4f57611c4e613c67565b5b602002016020810190611c6291906134cf565b6124da565b611cb77ffaad79a708d82d095486f5a83b18341f12a8f717d3011ab929d43135c1af73e289600260038110611c9f57611c9e613c67565b5b602002016020810190611cb291906134cf565b6124da565b611ce17ffd37f88a14d7ed985885a1af8f2ad5b64dd7eb00ab89168649791632bb9bb4a6866124da565b611d0b7ffd37f88a14d7ed985885a1af8f2ad5b64dd7eb00ab89168649791632bb9bb4a6856124da565b611d357fbffb4faf8a508f503a2ca036effd0bc1f82615d3ebfddb934edf718f23672707866124da565b611d5f7fbffb4faf8a508f503a2ca036effd0bc1f82615d3ebfddb934edf718f23672707856124da565b611dc67fd2761b102bda9831f4af400cc824b8cecb9cc5c1c85c51acb1479db9735fbfc6610108604051611d9290614fb8565b908152602001604051809103902060009054906101000a900473ffffffffffffffffffffffffffffffffffffffff166124da565b611df07ffaad79a708d82d095486f5a83b18341f12a8f717d3011ab929d43135c1af73e28061260f565b611e1a7ffd37f88a14d7ed985885a1af8f2ad5b64dd7eb00ab89168649791632bb9bb4a68061260f565b611e447fbffb4faf8a508f503a2ca036effd0bc1f82615d3ebfddb934edf718f236727078061260f565b611e8e7fd2761b102bda9831f4af400cc824b8cecb9cc5c1c85c51acb1479db9735fbfc67ffaad79a708d82d095486f5a83b18341f12a8f717d3011ab929d43135c1af73e261260f565b7f04185272184bedea7de0ea28a815902a29e62119008cf980db82f3af6877c40d338b8b8b8b8b8b8b8b8b604051611ecf9a99989796959493929190614fcd565b60405180910390a18015611f305760008060016101000a81548160ff0219169083151502179055507f7f26b83ff96e1f2b6a682f133852f6798a09c465da95921460cefb38474024986001604051611f2791906150c3565b60405180910390a15b5050505050505050505050565b6000611f64826097600086815260200190815260200160002061266b90919063ffffffff16565b905092915050565b60006065600084815260200190815260200160002060000160008373ffffffffffffffffffffffffffffffffffffffff1673ffffffffffffffffffffffffffffffffffffffff16815260200190815260200160002060009054906101000a900460ff16905092915050565b6000801b81565b61010460009054906101000a900473ffffffffffffffffffffffffffffffffffffffff1681565b600061202260976000848152602001908152602001600020612685565b9050919050565b7ffaad79a708d82d095486f5a83b18341f12a8f717d3011ab929d43135c1af73e2612053816123df565b600073ffffffffffffffffffffffffffffffffffffffff168273ffffffffffffffffffffffffffffffffffffffff16036120b9576040517fdf51a0d100000000000000000000000000000000000000000000000000000000815260040160405180910390fd5b8161010360006101000a81548173ffffffffffffffffffffffffffffffffffffffff021916908373ffffffffffffffffffffffffffffffffffffffff1602179055505050565b61210882610c3f565b612111816123df565b61211b838361250e565b505050565b7ffd37f88a14d7ed985885a1af8f2ad5b64dd7eb00ab89168649791632bb9bb4a661214a816123df565b6121526123f3565b6121c16101028484604051612168929190613d97565b908152602001604051809103902060009054906101000a900473ffffffffffffffffffffffffffffffffffffffff1661010460009054906101000a900473ffffffffffffffffffffffffffffffffffffffff1686612442565b7f901c03da5d88eb3d62ab4617e7b7d17d86db16356823a7971127d5181a842fef61010460009054906101000a900473ffffffffffffffffffffffffffffffffffffffff1684848760405161221994939291906150de565b60405180910390a16122296124d0565b50505050565b610105816003811061224057600080fd5b01600091509050805461225290613cf9565b80601f016020809104026020016040519081016040528092919081815260200182805461227e90613cf9565b80156122cb5780601f106122a0576101008083540402835291602001916122cb565b820191906000526020600020905b8154815290600101906020018083116122ae57829003601f168201915b505050505081565b7fd2761b102bda9831f4af400cc824b8cecb9cc5c1c85c51acb1479db9735fbfc681565b7ffaad79a708d82d095486f5a83b18341f12a8f717d3011ab929d43135c1af73e281565b610108818051602081018201805184825260208301602085012081835280955050505050506000915054906101000a900473ffffffffffffffffffffffffffffffffffffffff1681565b60007f7965db0b000000000000000000000000000000000000000000000000000000007bffffffffffffffffffffffffffffffffffffffffffffffffffffffff1916827bffffffffffffffffffffffffffffffffffffffffffffffffffffffff191614806123d857506123d78261269a565b5b9050919050565b6123f0816123eb6124c8565b612704565b50565b600260c95403612438576040517f08c379a000000000000000000000000000000000000000000000000000000000815260040161242f9061516a565b60405180910390fd5b600260c981905550565b6124c38363a9059cbb60e01b848460405160240161246192919061518a565b604051602081830303815290604052907bffffffffffffffffffffffffffffffffffffffffffffffffffffffff19166020820180517bffffffffffffffffffffffffffffffffffffffffffffffffffffffff8381831617835250505050612789565b505050565b600033905090565b600160c981905550565b6124e48282612851565b612509816097600085815260200190815260200160002061293290919063ffffffff16565b505050565b6125188282612962565b61253d8160976000858152602001908152602001600020612a4490919063ffffffff16565b505050565b6000808273ffffffffffffffffffffffffffffffffffffffff163b119050919050565b600060019054906101000a900460ff166125b4576040517f08c379a00000000000000000000000000000000000000000000000000000000081526004016125ab90615225565b60405180910390fd5b565b600060019054906101000a900460ff16612605576040517f08c379a00000000000000000000000000000000000000000000000000000000081526004016125fc90615225565b60405180910390fd5b600160c981905550565b600061261a83610c3f565b90508160656000858152602001908152602001600020600101819055508181847fbd79b86ffe0ab8e8776151514217cd7cacd52c909f66475c3af44e129f0b00ff60405160405180910390a4505050565b600061267a8360000183612a74565b60001c905092915050565b600061269382600001612a9f565b9050919050565b60007f01ffc9a7000000000000000000000000000000000000000000000000000000007bffffffffffffffffffffffffffffffffffffffffffffffffffffffff1916827bffffffffffffffffffffffffffffffffffffffffffffffffffffffff1916149050919050565b61270e8282611f6c565b6127855761271b81612ab0565b6127298360001c6020612add565b60405160200161273a9291906152dd565b6040516020818303038152906040526040517f08c379a000000000000000000000000000000000000000000000000000000000815260040161277c919061383a565b60405180910390fd5b5050565b60006127eb826040518060400160405280602081526020017f5361666545524332303a206c6f772d6c6576656c2063616c6c206661696c65648152508573ffffffffffffffffffffffffffffffffffffffff16612d199092919063ffffffff16565b905060008151148061280d57508080602001905181019061280c9190615343565b5b61284c576040517f08c379a0000000000000000000000000000000000000000000000000000000008152600401612843906153e2565b60405180910390fd5b505050565b61285b8282611f6c565b61292e5760016065600084815260200190815260200160002060000160008373ffffffffffffffffffffffffffffffffffffffff1673ffffffffffffffffffffffffffffffffffffffff16815260200190815260200160002060006101000a81548160ff0219169083151502179055506128d36124c8565b73ffffffffffffffffffffffffffffffffffffffff168173ffffffffffffffffffffffffffffffffffffffff16837f2f8788117e7eff1d82e926ec794901d17c78024a50270940304540a733656f0d60405160405180910390a45b5050565b600061295a836000018373ffffffffffffffffffffffffffffffffffffffff1660001b612d31565b905092915050565b61296c8282611f6c565b15612a405760006065600084815260200190815260200160002060000160008373ffffffffffffffffffffffffffffffffffffffff1673ffffffffffffffffffffffffffffffffffffffff16815260200190815260200160002060006101000a81548160ff0219169083151502179055506129e56124c8565b73ffffffffffffffffffffffffffffffffffffffff168173ffffffffffffffffffffffffffffffffffffffff16837ff6391f5c32d9c69d2a47ea670b442974b53935d1edc7fd64eb21e047a839171b60405160405180910390a45b5050565b6000612a6c836000018373ffffffffffffffffffffffffffffffffffffffff1660001b612da1565b905092915050565b6000826000018281548110612a8c57612a8b613c67565b5b9060005260206000200154905092915050565b600081600001805490509050919050565b6060612ad68273ffffffffffffffffffffffffffffffffffffffff16601460ff16612add565b9050919050565b606060006002836002612af09190615402565b612afa9190613c33565b67ffffffffffffffff811115612b1357612b12613861565b5b6040519080825280601f01601f191660200182016040528015612b455781602001600182028036833780820191505090505b5090507f300000000000000000000000000000000000000000000000000000000000000081600081518110612b7d57612b7c613c67565b5b60200101907effffffffffffffffffffffffffffffffffffffffffffffffffffffffffffff1916908160001a9053507f780000000000000000000000000000000000000000000000000000000000000081600181518110612be157612be0613c67565b5b60200101907effffffffffffffffffffffffffffffffffffffffffffffffffffffffffffff1916908160001a90535060006001846002612c219190615402565b612c2b9190613c33565b90505b6001811115612ccb577f3031323334353637383961626364656600000000000000000000000000000000600f861660108110612c6d57612c6c613c67565b5b1a60f81b828281518110612c8457612c83613c67565b5b60200101907effffffffffffffffffffffffffffffffffffffffffffffffffffffffffffff1916908160001a905350600485901c945080612cc490615444565b9050612c2e565b5060008414612d0f576040517f08c379a0000000000000000000000000000000000000000000000000000000008152600401612d06906154b9565b60405180910390fd5b8091505092915050565b6060612d288484600085612eb5565b90509392505050565b6000612d3d8383612f82565b612d96578260000182908060018154018082558091505060019003906000526020600020016000909190919091505582600001805490508360010160008481526020019081526020016000208190555060019050612d9b565b600090505b92915050565b60008083600101600084815260200190815260200160002054905060008114612ea9576000600182612dd39190613c96565b9050600060018660000180549050612deb9190613c96565b9050818114612e5a576000866000018281548110612e0c57612e0b613c67565b5b9060005260206000200154905080876000018481548110612e3057612e2f613c67565b5b90600052602060002001819055508387600101600083815260200190815260200160002081905550505b85600001805480612e6e57612e6d6154d9565b5b600190038181906000526020600020016000905590558560010160008681526020019081526020016000206000905560019350505050612eaf565b60009150505b92915050565b606082471015612efa576040517f08c379a0000000000000000000000000000000000000000000000000000000008152600401612ef19061557a565b60405180910390fd5b6000808673ffffffffffffffffffffffffffffffffffffffff168587604051612f2391906155d6565b60006040518083038185875af1925050503d8060008114612f60576040519150601f19603f3d011682016040523d82523d6000602084013e612f65565b606091505b5091509150612f7687838387612fa5565b92505050949350505050565b600080836001016000848152602001908152602001600020541415905092915050565b60608315613007576000835103612fff57612fbf8561301a565b612ffe576040517f08c379a0000000000000000000000000000000000000000000000000000000008152600401612ff590615639565b60405180910390fd5b5b829050613012565b613011838361303d565b5b949350505050565b6000808273ffffffffffffffffffffffffffffffffffffffff163b119050919050565b6000825111156130505781518083602001fd5b806040517f08c379a0000000000000000000000000000000000000000000000000000000008152600401613084919061383a565b60405180910390fd5b6040518060a001604052806005905b606081526020019060019003908161309c5790505090565b600081905092915050565b7f5745544800000000000000000000000000000000000000000000000000000000600082015250565b60006130f56004836130b4565b9150613100826130bf565b600482019050919050565b6000613116826130e8565b9150819050919050565b600082825260208201905092915050565b7f4e6f742070617961626c65206f6e207468697320636861696e00000000000000600082015250565b6000613167601983613120565b915061317282613131565b602082019050919050565b600060208201905081810360008301526131968161315a565b9050919050565b600081519050919050565b600082825260208201905092915050565b6000819050602082019050919050565b6000819050919050565b6131dc816131c9565b82525050565b60006131ee83836131d3565b60208301905092915050565b6000602082019050919050565b60006132128261319d565b61321c81856131a8565b9350613227836131b9565b8060005b8381101561325857815161323f88826131e2565b975061324a836131fa565b92505060018101905061322b565b5085935050505092915050565b6000602082019050818103600083015261327f8184613207565b905092915050565b6000604051905090565b600080fd5b600080fd5b60007fffffffff0000000000000000000000000000000000000000000000000000000082169050919050565b6132d08161329b565b81146132db57600080fd5b50565b6000813590506132ed816132c7565b92915050565b60006020828403121561330957613308613291565b5b6000613317848285016132de565b91505092915050565b60008115159050919050565b61333581613320565b82525050565b6000602082019050613350600083018461332c565b92915050565b61335f816131c9565b811461336a57600080fd5b50565b60008135905061337c81613356565b92915050565b600080fd5b600080fd5b600080fd5b60008083601f8401126133a7576133a6613382565b5b8235905067ffffffffffffffff8111156133c4576133c3613387565b5b6020830191508360018202830111156133e0576133df61338c565b5b9250929050565b600080600060408486031215613400576133ff613291565b5b600061340e8682870161336d565b935050602084013567ffffffffffffffff81111561342f5761342e613296565b5b61343b86828701613391565b92509250509250925092565b600073ffffffffffffffffffffffffffffffffffffffff82169050919050565b600061347282613447565b9050919050565b61348281613467565b82525050565b600060208201905061349d6000830184613479565b92915050565b6134ac81613467565b81146134b757600080fd5b50565b6000813590506134c9816134a3565b92915050565b6000602082840312156134e5576134e4613291565b5b60006134f3848285016134ba565b91505092915050565b6000819050919050565b61350f816134fc565b811461351a57600080fd5b50565b60008135905061352c81613506565b92915050565b60006020828403121561354857613547613291565b5b60006135568482850161351d565b91505092915050565b613568816134fc565b82525050565b6000602082019050613583600083018461355f565b92915050565b600060059050919050565b600081905092915050565b6000819050919050565b600081519050919050565b600082825260208201905092915050565b60005b838110156135e35780820151818401526020810190506135c8565b60008484015250505050565b6000601f19601f8301169050919050565b600061360b826135a9565b61361581856135b4565b93506136258185602086016135c5565b61362e816135ef565b840191505092915050565b60006136458383613600565b905092915050565b6000602082019050919050565b600061366582613589565b61366f8185613594565b9350836020820285016136818561359f565b8060005b858110156136bd578484038952815161369e8582613639565b94506136a98361364d565b925060208a01995050600181019050613685565b50829750879550505050505092915050565b600060208201905081810360008301526136e9818461365a565b905092915050565b6000806040838503121561370857613707613291565b5b60006137168582860161351d565b9250506020613727858286016134ba565b9150509250929050565b60008083601f84011261374757613746613382565b5b8235905067ffffffffffffffff81111561376457613763613387565b5b6020830191508360208202830111156137805761377f61338c565b5b9250929050565b6000806020838503121561379e5761379d613291565b5b600083013567ffffffffffffffff8111156137bc576137bb613296565b5b6137c885828601613731565b92509250509250929050565b6000602082840312156137ea576137e9613291565b5b60006137f88482850161336d565b91505092915050565b600061380c826135a9565b6138168185613120565b93506138268185602086016135c5565b61382f816135ef565b840191505092915050565b600060208201905081810360008301526138548184613801565b905092915050565b600080fd5b7f4e487b7100000000000000000000000000000000000000000000000000000000600052604160045260246000fd5b613899826135ef565b810181811067ffffffffffffffff821117156138b8576138b7613861565b5b80604052505050565b60006138cb613287565b90506138d78282613890565b919050565b600067ffffffffffffffff8211156138f7576138f6613861565b5b613900826135ef565b9050602081019050919050565b82818337600083830152505050565b600061392f61392a846138dc565b6138c1565b90508281526020810184848401111561394b5761394a61385c565b5b61395684828561390d565b509392505050565b600082601f83011261397357613972613382565b5b813561398384826020860161391c565b91505092915050565b6000602082840312156139a2576139a1613291565b5b600082013567ffffffffffffffff8111156139c0576139bf613296565b5b6139cc8482850161395e565b91505092915050565b6139de816131c9565b82525050565b60006020820190506139f960008301846139d5565b92915050565b600081905082602060050282011115613a1b57613a1a61338c565b5b92915050565b600081905082602060050282011115613a3d57613a3c61338c565b5b92915050565b600081905082602060030282011115613a5f57613a5e61338c565b5b92915050565b600081905082602060020282011115613a8157613a8061338c565b5b92915050565b600081905082602060020282011115613aa357613aa261338c565b5b92915050565b6000806000806000806000806000806102208b8d031215613acd57613acc613291565b5b6000613adb8d828e016134ba565b9a505060208b013567ffffffffffffffff811115613afc57613afb613296565b5b613b088d828e016139ff565b9950506040613b198d828e01613a21565b98505060e0613b2a8d828e01613a43565b975050610140613b3c8d828e016134ba565b965050610160613b4e8d828e016134ba565b955050610180613b608d828e016134ba565b9450506101a0613b728d828e016134ba565b9350506101c08b013567ffffffffffffffff811115613b9457613b93613296565b5b613ba08d828e01613a65565b9250506101e0613bb28d828e01613a87565b9150509295989b9194979a5092959850565b60008060408385031215613bdb57613bda613291565b5b6000613be98582860161351d565b9250506020613bfa8582860161336d565b9150509250929050565b7f4e487b7100000000000000000000000000000000000000000000000000000000600052601160045260246000fd5b6000613c3e826131c9565b9150613c49836131c9565b9250828201905080821115613c6157613c60613c04565b5b92915050565b7f4e487b7100000000000000000000000000000000000000000000000000000000600052603260045260246000fd5b6000613ca1826131c9565b9150613cac836131c9565b9250828203905081811115613cc457613cc3613c04565b5b92915050565b7f4e487b7100000000000000000000000000000000000000000000000000000000600052602260045260246000fd5b60006002820490506001821680613d1157607f821691505b602082108103613d2457613d23613cca565b5b50919050565b6000613d35826131c9565b91507fffffffffffffffffffffffffffffffffffffffffffffffffffffffffffffffff8203613d6757613d66613c04565b5b600182019050919050565b6000613d7e83856130b4565b9350613d8b83858461390d565b82840190509392505050565b6000613da4828486613d72565b91508190509392505050565b6000613dbc8385613120565b9350613dc983858461390d565b613dd2836135ef565b840190509392505050565b6000608082019050613df26000830188613479565b8181036020830152613e05818688613db0565b9050613e1460408301856139d5565b613e216060830184613479565b9695505050505050565b600080fd5b600080fd5b600080fd5b600082356001606003833603038112613e5657613e55613e2b565b5b80830191505092915050565b60008235600160a003833603038112613e7e57613e7d613e2b565b5b80830191505092915050565b600080fd5b60008235600160a003833603038112613eab57613eaa613e8a565b5b82810191505092915050565b600080fd5b600080fd5b60008083356001602003843603038112613ede57613edd613e8a565b5b83810192508235915060208301925067ffffffffffffffff821115613f0657613f05613eb7565b5b600182023603831315613f1c57613f1b613ebc565b5b509250929050565b600082825260208201905092915050565b6000613f418385613f24565b9350613f4e83858461390d565b613f57836135ef565b840190509392505050565b6000613f7160208401846134ba565b905092915050565b613f8281613467565b82525050565b6000613f97602084018461336d565b905092915050565b600060a08301613fb26000840184613ec1565b8583036000870152613fc5838284613f35565b92505050613fd66020840184613f62565b613fe36020860182613f79565b50613ff16040840184613f88565b613ffe60408601826131d3565b5061400c6060840184613f88565b61401960608601826131d3565b506140276080840184613f88565b61403460808601826131d3565b508091505092915050565b6000606083016140526000840184613e8f565b84820360008601526140648282613f9f565b9150506140746020840184613f62565b6140816020860182613f79565b5061408f6040840184613f62565b61409c6040860182613f79565b508091505092915050565b60006040820190506140bc6000830185613479565b81810360208301526140ce818461403f565b90509392505050565b6000815190506140e681613356565b92915050565b60006020828403121561410257614101613291565b5b6000614110848285016140d7565b91505092915050565b7f726f757465720000000000000000000000000000000000000000000000000000600082015250565b600061414f6006836130b4565b915061415a82614119565b600682019050919050565b600061417082614142565b9150819050919050565b60007fff0000000000000000000000000000000000000000000000000000000000000082169050919050565b6000819050919050565b6141c16141bc8261417a565b6141a6565b82525050565b60006141d382846141b0565b60018201915081905092915050565b600080833560016020038436030381126141ff576141fe613e2b565b5b80840192508235915067ffffffffffffffff82111561422157614220613e30565b5b60208301925060018202360383131561423d5761423c613e35565b5b509250929050565b600082825260208201905092915050565b60006142628385614245565b935061426f83858461390d565b614278836135ef565b840190509392505050565b600060a0820190506142986000830189613479565b6142a560208301886139d5565b6142b260408301876139d5565b81810360608301526142c5818587614256565b90506142d4608083018461332c565b979650505050505050565b600081519050919050565b60006142f5826142df565b6142ff8185614245565b935061430f8185602086016135c5565b614318816135ef565b840191505092915050565b600081519050919050565b600082825260208201905092915050565b6000819050602082019050919050565b600061435a826142df565b6143648185613f24565b93506143748185602086016135c5565b61437d816135ef565b840191505092915050565b6000614394838361434f565b905092915050565b6000602082019050919050565b60006143b482614323565b6143be818561432e565b9350836020820285016143d08561433f565b8060005b8581101561440c57848403895281516143ed8582614388565b94506143f88361439c565b925060208a019950506001810190506143d4565b50829750879550505050505092915050565b6000606082019050818103600083015261443881866142ea565b9050818103602083015261444c81856143a9565b905061445b60408301846139d5565b949350505050565b60008160e01c9050919050565b600060033d111561448f5760046000803e61448c600051614463565b90505b90565b600060443d1061451f576144a4613287565b60043d036004823e80513d602482011167ffffffffffffffff821117156144cc57505061451f565b808201805167ffffffffffffffff8111156144ea575050505061451f565b80602083010160043d03850181111561450757505050505061451f565b61451682602001850186613890565b82955050505050505b90565b600060608201905061453760008301866139d5565b61454460208301856139d5565b81810360408301526145568184613801565b9050949350505050565b7f416d6f756e744f75744d696e696d756d546f6f4c6f7700000000000000000000600082015250565b6000614596601683613120565b91506145a182614560565b602082019050919050565b60006060820190506145c160008301856139d5565b6145ce60208301846139d5565b81810360408301526145df81614589565b90509392505050565b60006080820190506145fd6000830187613479565b61460a6020830186613479565b61461760408301856139d5565b61462460608301846139d5565b95945050505050565b6000614638826135a9565b61464281856130b4565b93506146528185602086016135c5565b80840191505092915050565b600061466a828461462d565b915081905092915050565b7f416363657373436f6e74726f6c3a2063616e206f6e6c792072656e6f756e636560008201527f20726f6c657320666f722073656c660000000000000000000000000000000000602082015250565b60006146d1602f83613120565b91506146dc82614675565b604082019050919050565b60006020820190508181036000830152614700816146c4565b9050919050565b7f496e697469616c697a61626c653a20636f6e747261637420697320616c72656160008201527f647920696e697469616c697a6564000000000000000000000000000000000000602082015250565b6000614763602e83613120565b915061476e82614707565b604082019050919050565b6000602082019050818103600083015261479281614756565b9050919050565b600060059050919050565b6000819050919050565b60006147ba83856135b4565b93506147c783858461390d565b6147d0836135ef565b840190509392505050565b60006147e88484846147ae565b90509392505050565b6000808335600160200384360303811261480e5761480d613e8a565b5b83810192508235915060208301925067ffffffffffffffff82111561483657614835613eb7565b5b60018202360383131561484c5761484b613ebc565b5b509250929050565b6000602082019050919050565b600061486c82614799565b6148768185613594565b935083602082028501614888856147a4565b8060005b858110156148ce5784840389526148a382846147f1565b6148ae8682846147db565b95506148b984614854565b935060208b019a50505060018101905061488c565b50829750879550505050505092915050565b600060059050919050565b600081905092915050565b6000819050919050565b600061490c8383613f79565b60208301905092915050565b6000602082019050919050565b61492e816148e0565b61493881846148eb565b9250614943826148f6565b8060005b8381101561497c576149598284613f62565b6149638782614900565b965061496e83614918565b925050600181019050614947565b505050505050565b600060039050919050565b600081905092915050565b6000819050919050565b6000602082019050919050565b6149ba81614984565b6149c4818461498f565b92506149cf8261499a565b8060005b83811015614a08576149e58284613f62565b6149ef8782614900565b96506149fa836149a4565b9250506001810190506149d3565b505050505050565b600060029050919050565b600081905092915050565b6000819050919050565b6000602082019050919050565b6000614a4882614a10565b614a528185614a1b565b935083602082028501614a6485614a26565b8060005b85811015614aaa578484038952614a7f82846147f1565b614a8a8682846147db565b9550614a9584614a30565b935060208b019a505050600181019050614a68565b50829750879550505050505092915050565b600060029050919050565b600081905092915050565b6000819050919050565b6000602082019050919050565b614af281614abc565b614afc8184614ac7565b9250614b0782614ad2565b8060005b83811015614b4057614b1d8284613f62565b614b278782614900565b9650614b3283614adc565b925050600181019050614b0b565b505050505050565b6000610200820190508181036000830152614b63818c614861565b9050614b72602083018b614925565b614b7f60c083018a6149b1565b614b8d610120830189613479565b614b9b610140830188613479565b614ba9610160830187613479565b614bb7610180830186613479565b8181036101a0830152614bca8185614a3d565b9050614bda6101c0830184614ae9565b9a9950505050505050505050565b60008083356001602003843603038112614c0557614c04613e2b565b5b80840192508235915067ffffffffffffffff821115614c2757614c26613e30565b5b602083019250600182023603831315614c4357614c42613e35565b5b509250929050565b600082905092915050565b60008190508160005260206000209050919050565b60006020601f8301049050919050565b600082821b905092915050565b600060088302614cb87fffffffffffffffffffffffffffffffffffffffffffffffffffffffffffffffff82614c7b565b614cc28683614c7b565b95508019841693508086168417925050509392505050565b6000819050919050565b6000614cff614cfa614cf5846131c9565b614cda565b6131c9565b9050919050565b6000819050919050565b614d1983614ce4565b614d2d614d2582614d06565b848454614c88565b825550505050565b600090565b614d42614d35565b614d4d818484614d10565b505050565b5b81811015614d7157614d66600082614d3a565b600181019050614d53565b5050565b601f821115614db657614d8781614c56565b614d9084614c6b565b81016020851015614d9f578190505b614db3614dab85614c6b565b830182614d52565b50505b505050565b600082821c905092915050565b6000614dd960001984600802614dbb565b1980831691505092915050565b6000614df28383614dc8565b9150826002028217905092915050565b614e0c8383614c4b565b67ffffffffffffffff811115614e2557614e24613861565b5b614e2f8254613cf9565b614e3a828285614d75565b6000601f831160018114614e695760008415614e57578287013590505b614e618582614de6565b865550614ec9565b601f198416614e7786614c56565b60005b82811015614e9f57848901358255600182019150602085019450602081019050614e7a565b86831015614ebc5784890135614eb8601f891682614dc8565b8355505b6001600288020188555050505b50505050505050565b60008154614edf81613cf9565b614ee981866130b4565b94506001821660008114614f045760018114614f1957614f4c565b60ff1983168652811515820286019350614f4c565b614f2285614c56565b60005b83811015614f4457815481890152600182019150602081019050614f25565b838801955050505b50505092915050565b6000614f618284614ed2565b915081905092915050565b7f7377617070657200000000000000000000000000000000000000000000000000600082015250565b6000614fa26007836130b4565b9150614fad82614f6c565b600782019050919050565b6000614fc382614f95565b9150819050919050565b600061022082019050614fe3600083018d613479565b8181036020830152614ff5818c614861565b9050615004604083018b614925565b61501160e083018a6149b1565b61501f610140830189613479565b61502d610160830188613479565b61503b610180830187613479565b6150496101a0830186613479565b8181036101c083015261505c8185614a3d565b905061506c6101e0830184614ae9565b9b9a5050505050505050505050565b6000819050919050565b600060ff82169050919050565b60006150ad6150a86150a38461507b565b614cda565b615085565b9050919050565b6150bd81615092565b82525050565b60006020820190506150d860008301846150b4565b92915050565b60006060820190506150f36000830187613479565b8181036020830152615106818587613db0565b905061511560408301846139d5565b95945050505050565b7f5265656e7472616e637947756172643a207265656e7472616e742063616c6c00600082015250565b6000615154601f83613120565b915061515f8261511e565b602082019050919050565b6000602082019050818103600083015261518381615147565b9050919050565b600060408201905061519f6000830185613479565b6151ac60208301846139d5565b9392505050565b7f496e697469616c697a61626c653a20636f6e7472616374206973206e6f74206960008201527f6e697469616c697a696e67000000000000000000000000000000000000000000602082015250565b600061520f602b83613120565b915061521a826151b3565b604082019050919050565b6000602082019050818103600083015261523e81615202565b9050919050565b7f416363657373436f6e74726f6c3a206163636f756e7420000000000000000000600082015250565b600061527b6017836130b4565b915061528682615245565b601782019050919050565b7f206973206d697373696e6720726f6c6520000000000000000000000000000000600082015250565b60006152c76011836130b4565b91506152d282615291565b601182019050919050565b60006152e88261526e565b91506152f4828561462d565b91506152ff826152ba565b915061530b828461462d565b91508190509392505050565b61532081613320565b811461532b57600080fd5b50565b60008151905061533d81615317565b92915050565b60006020828403121561535957615358613291565b5b60006153678482850161532e565b91505092915050565b7f5361666545524332303a204552433230206f7065726174696f6e20646964206e60008201527f6f74207375636365656400000000000000000000000000000000000000000000602082015250565b60006153cc602a83613120565b91506153d782615370565b604082019050919050565b600060208201905081810360008301526153fb816153bf565b9050919050565b600061540d826131c9565b9150615418836131c9565b9250828202615426816131c9565b9150828204841483151761543d5761543c613c04565b5b5092915050565b600061544f826131c9565b91506000820361546257615461613c04565b5b600182039050919050565b7f537472696e67733a20686578206c656e67746820696e73756666696369656e74600082015250565b60006154a3602083613120565b91506154ae8261546d565b602082019050919050565b600060208201905081810360008301526154d281615496565b9050919050565b7f4e487b7100000000000000000000000000000000000000000000000000000000600052603160045260246000fd5b7f416464726573733a20696e73756666696369656e742062616c616e636520666f60008201527f722063616c6c0000000000000000000000000000000000000000000000000000602082015250565b6000615564602683613120565b915061556f82615508565b604082019050919050565b6000602082019050818103600083015261559381615557565b9050919050565b600081905092915050565b60006155b0826142df565b6155ba818561559a565b93506155ca8185602086016135c5565b80840191505092915050565b60006155e282846155a5565b915081905092915050565b7f416464726573733a2063616c6c20746f206e6f6e2d636f6e7472616374000000600082015250565b6000615623601d83613120565b915061562e826155ed565b602082019050919050565b6000602082019050818103600083015261565281615616565b905091905056fea26469706673582212208935119042a791ff50637b587c4004e63bf4290ac01d4db48644818151db5eac64736f6c63430008120033","opcodes":"PUSH1 0x80 PUSH1 0x40 MSTORE CALLVALUE DUP1 ISZERO PUSH2 0x10 JUMPI PUSH1 0x0 DUP1 REVERT JUMPDEST POP PUSH2 0x568F DUP1 PUSH3 0x21 PUSH1 0x0 CODECOPY PUSH1 0x0 RETURN INVALID PUSH1 0x80 PUSH1 0x40 MSTORE PUSH1 0x4 CALLDATASIZE LT PUSH2 0x1C5 JUMPI PUSH1 0x0 CALLDATALOAD PUSH1 0xE0 SHR DUP1 PUSH4 0x55452D04 GT PUSH2 0xF7 JUMPI DUP1 PUSH4 0xCA15C873 GT PUSH2 0x95 JUMPI DUP1 PUSH4 0xDE6BD687 GT PUSH2 0x64 JUMPI DUP1 PUSH4 0xDE6BD687 EQ PUSH2 0x768 JUMPI DUP1 PUSH4 0xDF668ECA EQ PUSH2 0x7A5 JUMPI DUP1 PUSH4 0xE5DF800A EQ PUSH2 0x7D0 JUMPI DUP1 PUSH4 0xEE67CC2A EQ PUSH2 0x7FB JUMPI PUSH2 0x2B2 JUMP JUMPDEST DUP1 PUSH4 0xCA15C873 EQ PUSH2 0x6B0 JUMPI DUP1 PUSH4 0xD00411C9 EQ PUSH2 0x6ED JUMPI DUP1 PUSH4 0xD547741F EQ PUSH2 0x716 JUMPI DUP1 PUSH4 0xDC048CF2 EQ PUSH2 0x73F JUMPI PUSH2 0x2B2 JUMP JUMPDEST DUP1 PUSH4 0x9010D07C GT PUSH2 0xD1 JUMPI DUP1 PUSH4 0x9010D07C EQ PUSH2 0x5E0 JUMPI DUP1 PUSH4 0x91D14854 EQ PUSH2 0x61D JUMPI DUP1 PUSH4 0xA217FDDF EQ PUSH2 0x65A JUMPI DUP1 PUSH4 0xB14EC101 EQ PUSH2 0x685 JUMPI PUSH2 0x2B2 JUMP JUMPDEST DUP1 PUSH4 0x55452D04 EQ PUSH2 0x54F JUMPI DUP1 PUSH4 0x71372544 EQ PUSH2 0x58C JUMPI DUP1 PUSH4 0x82828CBE EQ PUSH2 0x5B7 JUMPI PUSH2 0x2B2 JUMP JUMPDEST DUP1 PUSH4 0x2F2FF15D GT PUSH2 0x164 JUMPI DUP1 PUSH4 0x32CC815D GT PUSH2 0x13E JUMPI DUP1 PUSH4 0x32CC815D EQ PUSH2 0x493 JUMPI DUP1 PUSH4 0x35EE5F87 EQ PUSH2 0x4BE JUMPI DUP1 PUSH4 0x36568ABE EQ PUSH2 0x4FB JUMPI DUP1 PUSH4 0x54FD4D50 EQ PUSH2 0x524 JUMPI PUSH2 0x2B2 JUMP JUMPDEST DUP1 PUSH4 0x2F2FF15D EQ PUSH2 0x404 JUMPI DUP1 PUSH4 0x2FFE9942 EQ PUSH2 0x42D JUMPI DUP1 PUSH4 0x310495AB EQ PUSH2 0x456 JUMPI PUSH2 0x2B2 JUMP JUMPDEST DUP1 PUSH4 0x15AC7358 GT PUSH2 0x1A0 JUMPI DUP1 PUSH4 0x15AC7358 EQ PUSH2 0x348 JUMPI DUP1 PUSH4 0x212F6039 EQ PUSH2 0x373 JUMPI DUP1 PUSH4 0x248A9CA3 EQ PUSH2 0x39C JUMPI DUP1 PUSH4 0x2AD753E4 EQ PUSH2 0x3D9 JUMPI PUSH2 0x2B2 JUMP JUMPDEST DUP1 PUSH3 0x113E08 EQ PUSH2 0x2B7 JUMPI DUP1 PUSH4 0x1FFC9A7 EQ PUSH2 0x2E2 JUMPI DUP1 PUSH4 0x828C404 EQ PUSH2 0x31F JUMPI PUSH2 0x2B2 JUMP JUMPDEST CALLDATASIZE PUSH2 0x2B2 JUMPI PUSH1 0x1E CHAINID SUB PUSH2 0x275 JUMPI PUSH2 0x102 PUSH1 0x40 MLOAD PUSH2 0x1E1 SWAP1 PUSH2 0x310B JUMP JUMPDEST SWAP1 DUP2 MSTORE PUSH1 0x20 ADD PUSH1 0x40 MLOAD DUP1 SWAP2 SUB SWAP1 KECCAK256 PUSH1 0x0 SWAP1 SLOAD SWAP1 PUSH2 0x100 EXP SWAP1 DIV PUSH20 0xFFFFFFFFFFFFFFFFFFFFFFFFFFFFFFFFFFFFFFFF AND PUSH20 0xFFFFFFFFFFFFFFFFFFFFFFFFFFFFFFFFFFFFFFFF AND PUSH4 0xD0E30DB0 CALLVALUE PUSH1 0x40 MLOAD DUP3 PUSH4 0xFFFFFFFF AND PUSH1 0xE0 SHL DUP2 MSTORE PUSH1 0x4 ADD PUSH1 0x0 PUSH1 0x40 MLOAD DUP1 DUP4 SUB DUP2 DUP6 DUP9 DUP1 EXTCODESIZE ISZERO DUP1 ISZERO PUSH2 0x257 JUMPI PUSH1 0x0 DUP1 REVERT JUMPDEST POP GAS CALL ISZERO DUP1 ISZERO PUSH2 0x26B JUMPI RETURNDATASIZE PUSH1 0x0 DUP1 RETURNDATACOPY RETURNDATASIZE PUSH1 0x0 REVERT JUMPDEST POP POP POP POP POP PUSH2 0x2B0 JUMP JUMPDEST PUSH1 0x40 MLOAD PUSH32 0x8C379A000000000000000000000000000000000000000000000000000000000 DUP2 MSTORE PUSH1 0x4 ADD PUSH2 0x2A7 SWAP1 PUSH2 0x317D JUMP JUMPDEST PUSH1 0x40 MLOAD DUP1 SWAP2 SUB SWAP1 REVERT JUMPDEST STOP JUMPDEST PUSH1 0x0 DUP1 REVERT JUMPDEST CALLVALUE DUP1 ISZERO PUSH2 0x2C3 JUMPI PUSH1 0x0 DUP1 REVERT JUMPDEST POP PUSH2 0x2CC PUSH2 0x838 JUMP JUMPDEST PUSH1 0x40 MLOAD PUSH2 0x2D9 SWAP2 SWAP1 PUSH2 0x3265 JUMP JUMPDEST PUSH1 0x40 MLOAD DUP1 SWAP2 SUB SWAP1 RETURN JUMPDEST CALLVALUE DUP1 ISZERO PUSH2 0x2EE JUMPI PUSH1 0x0 DUP1 REVERT JUMPDEST POP PUSH2 0x309 PUSH1 0x4 DUP1 CALLDATASIZE SUB DUP2 ADD SWAP1 PUSH2 0x304 SWAP2 SWAP1 PUSH2 0x32F3 JUMP JUMPDEST PUSH2 0x9B0 JUMP JUMPDEST PUSH1 0x40 MLOAD PUSH2 0x316 SWAP2 SWAP1 PUSH2 0x333B JUMP JUMPDEST PUSH1 0x40 MLOAD DUP1 SWAP2 SUB SWAP1 RETURN JUMPDEST CALLVALUE DUP1 ISZERO PUSH2 0x32B JUMPI PUSH1 0x0 DUP1 REVERT JUMPDEST POP PUSH2 0x346 PUSH1 0x4 DUP1 CALLDATASIZE SUB DUP2 ADD SWAP1 PUSH2 0x341 SWAP2 SWAP1 PUSH2 0x33E7 JUMP JUMPDEST PUSH2 0xA2A JUMP JUMPDEST STOP JUMPDEST CALLVALUE DUP1 ISZERO PUSH2 0x354 JUMPI PUSH1 0x0 DUP1 REVERT JUMPDEST POP PUSH2 0x35D PUSH2 0xB42 JUMP JUMPDEST PUSH1 0x40 MLOAD PUSH2 0x36A SWAP2 SWAP1 PUSH2 0x3488 JUMP JUMPDEST PUSH1 0x40 MLOAD DUP1 SWAP2 SUB SWAP1 RETURN JUMPDEST CALLVALUE DUP1 ISZERO PUSH2 0x37F JUMPI PUSH1 0x0 DUP1 REVERT JUMPDEST POP PUSH2 0x39A PUSH1 0x4 DUP1 CALLDATASIZE SUB DUP2 ADD SWAP1 PUSH2 0x395 SWAP2 SWAP1 PUSH2 0x34CF JUMP JUMPDEST PUSH2 0xB69 JUMP JUMPDEST STOP JUMPDEST CALLVALUE DUP1 ISZERO PUSH2 0x3A8 JUMPI PUSH1 0x0 DUP1 REVERT JUMPDEST POP PUSH2 0x3C3 PUSH1 0x4 DUP1 CALLDATASIZE SUB DUP2 ADD SWAP1 PUSH2 0x3BE SWAP2 SWAP1 PUSH2 0x3532 JUMP JUMPDEST PUSH2 0xC3F JUMP JUMPDEST PUSH1 0x40 MLOAD PUSH2 0x3D0 SWAP2 SWAP1 PUSH2 0x356E JUMP JUMPDEST PUSH1 0x40 MLOAD DUP1 SWAP2 SUB SWAP1 RETURN JUMPDEST CALLVALUE DUP1 ISZERO PUSH2 0x3E5 JUMPI PUSH1 0x0 DUP1 REVERT JUMPDEST POP PUSH2 0x3EE PUSH2 0xC5F JUMP JUMPDEST PUSH1 0x40 MLOAD PUSH2 0x3FB SWAP2 SWAP1 PUSH2 0x36CF JUMP JUMPDEST PUSH1 0x40 MLOAD DUP1 SWAP2 SUB SWAP1 RETURN JUMPDEST CALLVALUE DUP1 ISZERO PUSH2 0x410 JUMPI PUSH1 0x0 DUP1 REVERT JUMPDEST POP PUSH2 0x42B PUSH1 0x4 DUP1 CALLDATASIZE SUB DUP2 ADD SWAP1 PUSH2 0x426 SWAP2 SWAP1 PUSH2 0x36F1 JUMP JUMPDEST PUSH2 0xD2C JUMP JUMPDEST STOP JUMPDEST CALLVALUE DUP1 ISZERO PUSH2 0x439 JUMPI PUSH1 0x0 DUP1 REVERT JUMPDEST POP PUSH2 0x454 PUSH1 0x4 DUP1 CALLDATASIZE SUB DUP2 ADD SWAP1 PUSH2 0x44F SWAP2 SWAP1 PUSH2 0x3787 JUMP JUMPDEST PUSH2 0xD4D JUMP JUMPDEST STOP JUMPDEST CALLVALUE DUP1 ISZERO PUSH2 0x462 JUMPI PUSH1 0x0 DUP1 REVERT JUMPDEST POP PUSH2 0x47D PUSH1 0x4 DUP1 CALLDATASIZE SUB DUP2 ADD SWAP1 PUSH2 0x478 SWAP2 SWAP1 PUSH2 0x37D4 JUMP JUMPDEST PUSH2 0x14B4 JUMP JUMPDEST PUSH1 0x40 MLOAD PUSH2 0x48A SWAP2 SWAP1 PUSH2 0x383A JUMP JUMPDEST PUSH1 0x40 MLOAD DUP1 SWAP2 SUB SWAP1 RETURN JUMPDEST CALLVALUE DUP1 ISZERO PUSH2 0x49F JUMPI PUSH1 0x0 DUP1 REVERT JUMPDEST POP PUSH2 0x4A8 PUSH2 0x1557 JUMP JUMPDEST PUSH1 0x40 MLOAD PUSH2 0x4B5 SWAP2 SWAP1 PUSH2 0x356E JUMP JUMPDEST PUSH1 0x40 MLOAD DUP1 SWAP2 SUB SWAP1 RETURN JUMPDEST CALLVALUE DUP1 ISZERO PUSH2 0x4CA JUMPI PUSH1 0x0 DUP1 REVERT JUMPDEST POP PUSH2 0x4E5 PUSH1 0x4 DUP1 CALLDATASIZE SUB DUP2 ADD SWAP1 PUSH2 0x4E0 SWAP2 SWAP1 PUSH2 0x398C JUMP JUMPDEST PUSH2 0x157B JUMP JUMPDEST PUSH1 0x40 MLOAD PUSH2 0x4F2 SWAP2 SWAP1 PUSH2 0x39E4 JUMP JUMPDEST PUSH1 0x40 MLOAD DUP1 SWAP2 SUB SWAP1 RETURN JUMPDEST CALLVALUE DUP1 ISZERO PUSH2 0x507 JUMPI PUSH1 0x0 DUP1 REVERT JUMPDEST POP PUSH2 0x522 PUSH1 0x4 DUP1 CALLDATASIZE SUB DUP2 ADD SWAP1 PUSH2 0x51D SWAP2 SWAP1 PUSH2 0x36F1 JUMP JUMPDEST PUSH2 0x1642 JUMP JUMPDEST STOP JUMPDEST CALLVALUE DUP1 ISZERO PUSH2 0x530 JUMPI PUSH1 0x0 DUP1 REVERT JUMPDEST POP PUSH2 0x539 PUSH2 0x16C5 JUMP JUMPDEST PUSH1 0x40 MLOAD PUSH2 0x546 SWAP2 SWAP1 PUSH2 0x383A JUMP JUMPDEST PUSH1 0x40 MLOAD DUP1 SWAP2 SUB SWAP1 RETURN JUMPDEST CALLVALUE DUP1 ISZERO PUSH2 0x55B JUMPI PUSH1 0x0 DUP1 REVERT JUMPDEST POP PUSH2 0x576 PUSH1 0x4 DUP1 CALLDATASIZE SUB DUP2 ADD SWAP1 PUSH2 0x571 SWAP2 SWAP1 PUSH2 0x398C JUMP JUMPDEST PUSH2 0x1702 JUMP JUMPDEST PUSH1 0x40 MLOAD PUSH2 0x583 SWAP2 SWAP1 PUSH2 0x3488 JUMP JUMPDEST PUSH1 0x40 MLOAD DUP1 SWAP2 SUB SWAP1 RETURN JUMPDEST CALLVALUE DUP1 ISZERO PUSH2 0x598 JUMPI PUSH1 0x0 DUP1 REVERT JUMPDEST POP PUSH2 0x5A1 PUSH2 0x174C JUMP JUMPDEST PUSH1 0x40 MLOAD PUSH2 0x5AE SWAP2 SWAP1 PUSH2 0x356E JUMP JUMPDEST PUSH1 0x40 MLOAD DUP1 SWAP2 SUB SWAP1 RETURN JUMPDEST CALLVALUE DUP1 ISZERO PUSH2 0x5C3 JUMPI PUSH1 0x0 DUP1 REVERT JUMPDEST POP PUSH2 0x5DE PUSH1 0x4 DUP1 CALLDATASIZE SUB DUP2 ADD SWAP1 PUSH2 0x5D9 SWAP2 SWAP1 PUSH2 0x3AA9 JUMP JUMPDEST PUSH2 0x1770 JUMP JUMPDEST STOP JUMPDEST CALLVALUE DUP1 ISZERO PUSH2 0x5EC JUMPI PUSH1 0x0 DUP1 REVERT JUMPDEST POP PUSH2 0x607 PUSH1 0x4 DUP1 CALLDATASIZE SUB DUP2 ADD SWAP1 PUSH2 0x602 SWAP2 SWAP1 PUSH2 0x3BC4 JUMP JUMPDEST PUSH2 0x1F3D JUMP JUMPDEST PUSH1 0x40 MLOAD PUSH2 0x614 SWAP2 SWAP1 PUSH2 0x3488 JUMP JUMPDEST PUSH1 0x40 MLOAD DUP1 SWAP2 SUB SWAP1 RETURN JUMPDEST CALLVALUE DUP1 ISZERO PUSH2 0x629 JUMPI PUSH1 0x0 DUP1 REVERT JUMPDEST POP PUSH2 0x644 PUSH1 0x4 DUP1 CALLDATASIZE SUB DUP2 ADD SWAP1 PUSH2 0x63F SWAP2 SWAP1 PUSH2 0x36F1 JUMP JUMPDEST PUSH2 0x1F6C JUMP JUMPDEST PUSH1 0x40 MLOAD PUSH2 0x651 SWAP2 SWAP1 PUSH2 0x333B JUMP JUMPDEST PUSH1 0x40 MLOAD DUP1 SWAP2 SUB SWAP1 RETURN JUMPDEST CALLVALUE DUP1 ISZERO PUSH2 0x666 JUMPI PUSH1 0x0 DUP1 REVERT JUMPDEST POP PUSH2 0x66F PUSH2 0x1FD7 JUMP JUMPDEST PUSH1 0x40 MLOAD PUSH2 0x67C SWAP2 SWAP1 PUSH2 0x356E JUMP JUMPDEST PUSH1 0x40 MLOAD DUP1 SWAP2 SUB SWAP1 RETURN JUMPDEST CALLVALUE DUP1 ISZERO PUSH2 0x691 JUMPI PUSH1 0x0 DUP1 REVERT JUMPDEST POP PUSH2 0x69A PUSH2 0x1FDE JUMP JUMPDEST PUSH1 0x40 MLOAD PUSH2 0x6A7 SWAP2 SWAP1 PUSH2 0x3488 JUMP JUMPDEST PUSH1 0x40 MLOAD DUP1 SWAP2 SUB SWAP1 RETURN JUMPDEST CALLVALUE DUP1 ISZERO PUSH2 0x6BC JUMPI PUSH1 0x0 DUP1 REVERT JUMPDEST POP PUSH2 0x6D7 PUSH1 0x4 DUP1 CALLDATASIZE SUB DUP2 ADD SWAP1 PUSH2 0x6D2 SWAP2 SWAP1 PUSH2 0x3532 JUMP JUMPDEST PUSH2 0x2005 JUMP JUMPDEST PUSH1 0x40 MLOAD PUSH2 0x6E4 SWAP2 SWAP1 PUSH2 0x39E4 JUMP JUMPDEST PUSH1 0x40 MLOAD DUP1 SWAP2 SUB SWAP1 RETURN JUMPDEST CALLVALUE DUP1 ISZERO PUSH2 0x6F9 JUMPI PUSH1 0x0 DUP1 REVERT JUMPDEST POP PUSH2 0x714 PUSH1 0x4 DUP1 CALLDATASIZE SUB DUP2 ADD SWAP1 PUSH2 0x70F SWAP2 SWAP1 PUSH2 0x34CF JUMP JUMPDEST PUSH2 0x2029 JUMP JUMPDEST STOP JUMPDEST CALLVALUE DUP1 ISZERO PUSH2 0x722 JUMPI PUSH1 0x0 DUP1 REVERT JUMPDEST POP PUSH2 0x73D PUSH1 0x4 DUP1 CALLDATASIZE SUB DUP2 ADD SWAP1 PUSH2 0x738 SWAP2 SWAP1 PUSH2 0x36F1 JUMP JUMPDEST PUSH2 0x20FF JUMP JUMPDEST STOP JUMPDEST CALLVALUE DUP1 ISZERO PUSH2 0x74B JUMPI PUSH1 0x0 DUP1 REVERT JUMPDEST POP PUSH2 0x766 PUSH1 0x4 DUP1 CALLDATASIZE SUB DUP2 ADD SWAP1 PUSH2 0x761 SWAP2 SWAP1 PUSH2 0x33E7 JUMP JUMPDEST PUSH2 0x2120 JUMP JUMPDEST STOP JUMPDEST CALLVALUE DUP1 ISZERO PUSH2 0x774 JUMPI PUSH1 0x0 DUP1 REVERT JUMPDEST POP PUSH2 0x78F PUSH1 0x4 DUP1 CALLDATASIZE SUB DUP2 ADD SWAP1 PUSH2 0x78A SWAP2 SWAP1 PUSH2 0x37D4 JUMP JUMPDEST PUSH2 0x222F JUMP JUMPDEST PUSH1 0x40 MLOAD PUSH2 0x79C SWAP2 SWAP1 PUSH2 0x383A JUMP JUMPDEST PUSH1 0x40 MLOAD DUP1 SWAP2 SUB SWAP1 RETURN JUMPDEST CALLVALUE DUP1 ISZERO PUSH2 0x7B1 JUMPI PUSH1 0x0 DUP1 REVERT JUMPDEST POP PUSH2 0x7BA PUSH2 0x22D3 JUMP JUMPDEST PUSH1 0x40 MLOAD PUSH2 0x7C7 SWAP2 SWAP1 PUSH2 0x356E JUMP JUMPDEST PUSH1 0x40 MLOAD DUP1 SWAP2 SUB SWAP1 RETURN JUMPDEST CALLVALUE DUP1 ISZERO PUSH2 0x7DC JUMPI PUSH1 0x0 DUP1 REVERT JUMPDEST POP PUSH2 0x7E5 PUSH2 0x22F7 JUMP JUMPDEST PUSH1 0x40 MLOAD PUSH2 0x7F2 SWAP2 SWAP1 PUSH2 0x356E JUMP JUMPDEST PUSH1 0x40 MLOAD DUP1 SWAP2 SUB SWAP1 RETURN JUMPDEST CALLVALUE DUP1 ISZERO PUSH2 0x807 JUMPI PUSH1 0x0 DUP1 REVERT JUMPDEST POP PUSH2 0x822 PUSH1 0x4 DUP1 CALLDATASIZE SUB DUP2 ADD SWAP1 PUSH2 0x81D SWAP2 SWAP1 PUSH2 0x398C JUMP JUMPDEST PUSH2 0x231B JUMP JUMPDEST PUSH1 0x40 MLOAD PUSH2 0x82F SWAP2 SWAP1 PUSH2 0x3488 JUMP JUMPDEST PUSH1 0x40 MLOAD DUP1 SWAP2 SUB SWAP1 RETURN JUMPDEST PUSH1 0x60 PUSH1 0x0 PUSH1 0x1 PUSH1 0x5 PUSH2 0x84A SWAP2 SWAP1 PUSH2 0x3C33 JUMP JUMPDEST PUSH8 0xFFFFFFFFFFFFFFFF DUP2 GT ISZERO PUSH2 0x863 JUMPI PUSH2 0x862 PUSH2 0x3861 JUMP JUMPDEST JUMPDEST PUSH1 0x40 MLOAD SWAP1 DUP1 DUP3 MSTORE DUP1 PUSH1 0x20 MUL PUSH1 0x20 ADD DUP3 ADD PUSH1 0x40 MSTORE DUP1 ISZERO PUSH2 0x891 JUMPI DUP2 PUSH1 0x20 ADD PUSH1 0x20 DUP3 MUL DUP1 CALLDATASIZE DUP4 CALLDATACOPY DUP1 DUP3 ADD SWAP2 POP POP SWAP1 POP JUMPDEST POP SWAP1 POP SELFBALANCE DUP2 PUSH1 0x0 DUP2 MLOAD DUP2 LT PUSH2 0x8A9 JUMPI PUSH2 0x8A8 PUSH2 0x3C67 JUMP JUMPDEST JUMPDEST PUSH1 0x20 MUL PUSH1 0x20 ADD ADD DUP2 DUP2 MSTORE POP POP PUSH1 0x0 PUSH1 0x1 SWAP1 POP JUMPDEST PUSH1 0x5 DUP2 GT PUSH2 0x9A8 JUMPI PUSH2 0x976 PUSH1 0xFD PUSH1 0x1 DUP4 PUSH2 0x8D6 SWAP2 SWAP1 PUSH2 0x3C96 JUMP JUMPDEST PUSH1 0x5 DUP2 LT PUSH2 0x8E7 JUMPI PUSH2 0x8E6 PUSH2 0x3C67 JUMP JUMPDEST JUMPDEST ADD DUP1 SLOAD PUSH2 0x8F3 SWAP1 PUSH2 0x3CF9 JUMP JUMPDEST DUP1 PUSH1 0x1F ADD PUSH1 0x20 DUP1 SWAP2 DIV MUL PUSH1 0x20 ADD PUSH1 0x40 MLOAD SWAP1 DUP2 ADD PUSH1 0x40 MSTORE DUP1 SWAP3 SWAP2 SWAP1 DUP2 DUP2 MSTORE PUSH1 0x20 ADD DUP3 DUP1 SLOAD PUSH2 0x91F SWAP1 PUSH2 0x3CF9 JUMP JUMPDEST DUP1 ISZERO PUSH2 0x96C JUMPI DUP1 PUSH1 0x1F LT PUSH2 0x941 JUMPI PUSH2 0x100 DUP1 DUP4 SLOAD DIV MUL DUP4 MSTORE SWAP2 PUSH1 0x20 ADD SWAP2 PUSH2 0x96C JUMP JUMPDEST DUP3 ADD SWAP2 SWAP1 PUSH1 0x0 MSTORE PUSH1 0x20 PUSH1 0x0 KECCAK256 SWAP1 JUMPDEST DUP2 SLOAD DUP2 MSTORE SWAP1 PUSH1 0x1 ADD SWAP1 PUSH1 0x20 ADD DUP1 DUP4 GT PUSH2 0x94F JUMPI DUP3 SWAP1 SUB PUSH1 0x1F AND DUP3 ADD SWAP2 JUMPDEST POP POP POP POP POP PUSH2 0x157B JUMP JUMPDEST DUP3 DUP3 DUP2 MLOAD DUP2 LT PUSH2 0x989 JUMPI PUSH2 0x988 PUSH2 0x3C67 JUMP JUMPDEST JUMPDEST PUSH1 0x20 MUL PUSH1 0x20 ADD ADD DUP2 DUP2 MSTORE POP POP DUP1 DUP1 PUSH2 0x9A0 SWAP1 PUSH2 0x3D2A JUMP JUMPDEST SWAP2 POP POP PUSH2 0x8BC JUMP JUMPDEST POP DUP1 SWAP2 POP POP SWAP1 JUMP JUMPDEST PUSH1 0x0 PUSH32 0x5A05180F00000000000000000000000000000000000000000000000000000000 PUSH28 0xFFFFFFFFFFFFFFFFFFFFFFFFFFFFFFFFFFFFFFFFFFFFFFFFFFFFFFFF NOT AND DUP3 PUSH28 0xFFFFFFFFFFFFFFFFFFFFFFFFFFFFFFFFFFFFFFFFFFFFFFFFFFFFFFFF NOT AND EQ DUP1 PUSH2 0xA23 JUMPI POP PUSH2 0xA22 DUP3 PUSH2 0x2365 JUMP JUMPDEST JUMPDEST SWAP1 POP SWAP2 SWAP1 POP JUMP JUMPDEST PUSH32 0xBFFB4FAF8A508F503A2CA036EFFD0BC1F82615D3EBFDDB934EDF718F23672707 PUSH2 0xA54 DUP2 PUSH2 0x23DF JUMP JUMPDEST PUSH2 0xA5C PUSH2 0x23F3 JUMP JUMPDEST PUSH2 0xACB PUSH2 0x102 DUP5 DUP5 PUSH1 0x40 MLOAD PUSH2 0xA72 SWAP3 SWAP2 SWAP1 PUSH2 0x3D97 JUMP JUMPDEST SWAP1 DUP2 MSTORE PUSH1 0x20 ADD PUSH1 0x40 MLOAD DUP1 SWAP2 SUB SWAP1 KECCAK256 PUSH1 0x0 SWAP1 SLOAD SWAP1 PUSH2 0x100 EXP SWAP1 DIV PUSH20 0xFFFFFFFFFFFFFFFFFFFFFFFFFFFFFFFFFFFFFFFF AND PUSH2 0x103 PUSH1 0x0 SWAP1 SLOAD SWAP1 PUSH2 0x100 EXP SWAP1 DIV PUSH20 0xFFFFFFFFFFFFFFFFFFFFFFFFFFFFFFFFFFFFFFFF AND DUP7 PUSH2 0x2442 JUMP JUMPDEST PUSH32 0x22CB89E6358014BB27F5658E2B820189F8F4C9E3F7165ECF266EDC53BE12D9FA PUSH2 0xAF4 PUSH2 0x24C8 JUMP JUMPDEST DUP5 DUP5 DUP8 PUSH2 0x103 PUSH1 0x0 SWAP1 SLOAD SWAP1 PUSH2 0x100 EXP SWAP1 DIV PUSH20 0xFFFFFFFFFFFFFFFFFFFFFFFFFFFFFFFFFFFFFFFF AND PUSH1 0x40 MLOAD PUSH2 0xB2C SWAP6 SWAP5 SWAP4 SWAP3 SWAP2 SWAP1 PUSH2 0x3DDD JUMP JUMPDEST PUSH1 0x40 MLOAD DUP1 SWAP2 SUB SWAP1 LOG1 PUSH2 0xB3C PUSH2 0x24D0 JUMP JUMPDEST POP POP POP POP JUMP JUMPDEST PUSH2 0x103 PUSH1 0x0 SWAP1 SLOAD SWAP1 PUSH2 0x100 EXP SWAP1 DIV PUSH20 0xFFFFFFFFFFFFFFFFFFFFFFFFFFFFFFFFFFFFFFFF AND DUP2 JUMP JUMPDEST PUSH32 0xFAAD79A708D82D095486F5A83B18341F12A8F717D3011AB929D43135C1AF73E2 PUSH2 0xB93 DUP2 PUSH2 0x23DF JUMP JUMPDEST PUSH1 0x0 PUSH20 0xFFFFFFFFFFFFFFFFFFFFFFFFFFFFFFFFFFFFFFFF AND DUP3 PUSH20 0xFFFFFFFFFFFFFFFFFFFFFFFFFFFFFFFFFFFFFFFF AND SUB PUSH2 0xBF9 JUMPI PUSH1 0x40 MLOAD PUSH32 0xD766085D00000000000000000000000000000000000000000000000000000000 DUP2 MSTORE PUSH1 0x4 ADD PUSH1 0x40 MLOAD DUP1 SWAP2 SUB SWAP1 REVERT JUMPDEST DUP2 PUSH2 0x104 PUSH1 0x0 PUSH2 0x100 EXP DUP2 SLOAD DUP2 PUSH20 0xFFFFFFFFFFFFFFFFFFFFFFFFFFFFFFFFFFFFFFFF MUL NOT AND SWAP1 DUP4 PUSH20 0xFFFFFFFFFFFFFFFFFFFFFFFFFFFFFFFFFFFFFFFF AND MUL OR SWAP1 SSTORE POP POP POP JUMP JUMPDEST PUSH1 0x0 PUSH1 0x65 PUSH1 0x0 DUP4 DUP2 MSTORE PUSH1 0x20 ADD SWAP1 DUP2 MSTORE PUSH1 0x20 ADD PUSH1 0x0 KECCAK256 PUSH1 0x1 ADD SLOAD SWAP1 POP SWAP2 SWAP1 POP JUMP JUMPDEST PUSH2 0xC67 PUSH2 0x308D JUMP JUMPDEST PUSH1 0xFD PUSH1 0x5 DUP1 PUSH1 0x20 MUL PUSH1 0x40 MLOAD SWAP1 DUP2 ADD PUSH1 0x40 MSTORE DUP1 SWAP3 SWAP2 SWAP1 PUSH1 0x0 SWAP1 JUMPDEST DUP3 DUP3 LT ISZERO PUSH2 0xD23 JUMPI DUP4 DUP3 ADD DUP1 SLOAD PUSH2 0xC96 SWAP1 PUSH2 0x3CF9 JUMP JUMPDEST DUP1 PUSH1 0x1F ADD PUSH1 0x20 DUP1 SWAP2 DIV MUL PUSH1 0x20 ADD PUSH1 0x40 MLOAD SWAP1 DUP2 ADD PUSH1 0x40 MSTORE DUP1 SWAP3 SWAP2 SWAP1 DUP2 DUP2 MSTORE PUSH1 0x20 ADD DUP3 DUP1 SLOAD PUSH2 0xCC2 SWAP1 PUSH2 0x3CF9 JUMP JUMPDEST DUP1 ISZERO PUSH2 0xD0F JUMPI DUP1 PUSH1 0x1F LT PUSH2 0xCE4 JUMPI PUSH2 0x100 DUP1 DUP4 SLOAD DIV MUL DUP4 MSTORE SWAP2 PUSH1 0x20 ADD SWAP2 PUSH2 0xD0F JUMP JUMPDEST DUP3 ADD SWAP2 SWAP1 PUSH1 0x0 MSTORE PUSH1 0x20 PUSH1 0x0 KECCAK256 SWAP1 JUMPDEST DUP2 SLOAD DUP2 MSTORE SWAP1 PUSH1 0x1 ADD SWAP1 PUSH1 0x20 ADD DUP1 DUP4 GT PUSH2 0xCF2 JUMPI DUP3 SWAP1 SUB PUSH1 0x1F AND DUP3 ADD SWAP2 JUMPDEST POP POP POP POP POP DUP2 MSTORE PUSH1 0x20 ADD SWAP1 PUSH1 0x1 ADD SWAP1 PUSH2 0xC80 JUMP JUMPDEST POP POP POP POP SWAP1 POP SWAP1 JUMP JUMPDEST PUSH2 0xD35 DUP3 PUSH2 0xC3F JUMP JUMPDEST PUSH2 0xD3E DUP2 PUSH2 0x23DF JUMP JUMPDEST PUSH2 0xD48 DUP4 DUP4 PUSH2 0x24DA JUMP JUMPDEST POP POP POP JUMP JUMPDEST PUSH32 0xD2761B102BDA9831F4AF400CC824B8CECB9CC5C1C85C51ACB1479DB9735FBFC6 PUSH2 0xD77 DUP2 PUSH2 0x23DF JUMP JUMPDEST PUSH1 0x0 JUMPDEST DUP4 DUP4 SWAP1 POP DUP2 LT ISZERO PUSH2 0x14AE JUMPI CALLDATASIZE DUP5 DUP5 DUP4 DUP2 DUP2 LT PUSH2 0xD99 JUMPI PUSH2 0xD98 PUSH2 0x3C67 JUMP JUMPDEST JUMPDEST SWAP1 POP PUSH1 0x20 MUL DUP2 ADD SWAP1 PUSH2 0xDAB SWAP2 SWAP1 PUSH2 0x3E3A JUMP JUMPDEST SWAP1 POP DUP1 PUSH1 0x40 ADD PUSH1 0x20 DUP2 ADD SWAP1 PUSH2 0xDC0 SWAP2 SWAP1 PUSH2 0x34CF JUMP JUMPDEST PUSH20 0xFFFFFFFFFFFFFFFFFFFFFFFFFFFFFFFFFFFFFFFF AND DUP2 PUSH1 0x20 ADD PUSH1 0x20 DUP2 ADD SWAP1 PUSH2 0xDE9 SWAP2 SWAP1 PUSH2 0x34CF JUMP JUMPDEST PUSH20 0xFFFFFFFFFFFFFFFFFFFFFFFFFFFFFFFFFFFFFFFF AND PUSH32 0x2F79E80ECE3E0AF8A6ECD3CFBBA44F8D0F477E3FD3332DD5F406E0C0E6E4AA4 DUP4 DUP1 PUSH1 0x0 ADD SWAP1 PUSH2 0xE30 SWAP2 SWAP1 PUSH2 0x3E62 JUMP JUMPDEST PUSH1 0x60 ADD CALLDATALOAD PUSH1 0x40 MLOAD PUSH2 0xE41 SWAP2 SWAP1 PUSH2 0x39E4 JUMP JUMPDEST PUSH1 0x40 MLOAD DUP1 SWAP2 SUB SWAP1 LOG3 PUSH2 0x109 PUSH1 0x0 SWAP1 SLOAD SWAP1 PUSH2 0x100 EXP SWAP1 DIV PUSH20 0xFFFFFFFFFFFFFFFFFFFFFFFFFFFFFFFFFFFFFFFF AND PUSH20 0xFFFFFFFFFFFFFFFFFFFFFFFFFFFFFFFFFFFFFFFF AND PUSH4 0xC4A5849A ADDRESS DUP4 PUSH1 0x40 MLOAD DUP4 PUSH4 0xFFFFFFFF AND PUSH1 0xE0 SHL DUP2 MSTORE PUSH1 0x4 ADD PUSH2 0xEA7 SWAP3 SWAP2 SWAP1 PUSH2 0x40A7 JUMP JUMPDEST PUSH1 0x0 PUSH1 0x40 MLOAD DUP1 DUP4 SUB DUP2 DUP7 DUP1 EXTCODESIZE ISZERO DUP1 ISZERO PUSH2 0xEBF JUMPI PUSH1 0x0 DUP1 REVERT JUMPDEST POP GAS STATICCALL ISZERO DUP1 ISZERO PUSH2 0xED3 JUMPI RETURNDATASIZE PUSH1 0x0 DUP1 RETURNDATACOPY RETURNDATASIZE PUSH1 0x0 REVERT JUMPDEST POP POP POP POP PUSH1 0x0 DUP2 PUSH1 0x40 ADD PUSH1 0x20 DUP2 ADD SWAP1 PUSH2 0xEEC SWAP2 SWAP1 PUSH2 0x34CF JUMP JUMPDEST PUSH20 0xFFFFFFFFFFFFFFFFFFFFFFFFFFFFFFFFFFFFFFFF AND PUSH4 0x70A08231 ADDRESS PUSH1 0x40 MLOAD DUP3 PUSH4 0xFFFFFFFF AND PUSH1 0xE0 SHL DUP2 MSTORE PUSH1 0x4 ADD PUSH2 0xF24 SWAP2 SWAP1 PUSH2 0x3488 JUMP JUMPDEST PUSH1 0x20 PUSH1 0x40 MLOAD DUP1 DUP4 SUB DUP2 DUP7 GAS STATICCALL ISZERO DUP1 ISZERO PUSH2 0xF41 JUMPI RETURNDATASIZE PUSH1 0x0 DUP1 RETURNDATACOPY RETURNDATASIZE PUSH1 0x0 REVERT JUMPDEST POP POP POP POP PUSH1 0x40 MLOAD RETURNDATASIZE PUSH1 0x1F NOT PUSH1 0x1F DUP3 ADD AND DUP3 ADD DUP1 PUSH1 0x40 MSTORE POP DUP2 ADD SWAP1 PUSH2 0xF65 SWAP2 SWAP1 PUSH2 0x40EC JUMP JUMPDEST SWAP1 POP PUSH1 0x0 DUP1 DUP4 PUSH1 0x20 ADD PUSH1 0x20 DUP2 ADD SWAP1 PUSH2 0xF7D SWAP2 SWAP1 PUSH2 0x34CF JUMP JUMPDEST SWAP1 POP PUSH2 0xFDA DUP2 PUSH2 0x108 PUSH1 0x40 MLOAD PUSH2 0xF92 SWAP1 PUSH2 0x4165 JUMP JUMPDEST SWAP1 DUP2 MSTORE PUSH1 0x20 ADD PUSH1 0x40 MLOAD DUP1 SWAP2 SUB SWAP1 KECCAK256 PUSH1 0x0 SWAP1 SLOAD SWAP1 PUSH2 0x100 EXP SWAP1 DIV PUSH20 0xFFFFFFFFFFFFFFFFFFFFFFFFFFFFFFFFFFFFFFFF AND DUP7 DUP1 PUSH1 0x0 ADD SWAP1 PUSH2 0xFD1 SWAP2 SWAP1 PUSH2 0x3E62 JUMP JUMPDEST PUSH1 0x60 ADD CALLDATALOAD PUSH2 0x2442 JUMP JUMPDEST PUSH1 0x0 DUP1 PUSH1 0xF8 SHL PUSH1 0x40 MLOAD PUSH1 0x20 ADD PUSH2 0xFF0 SWAP2 SWAP1 PUSH2 0x41C7 JUMP JUMPDEST PUSH1 0x40 MLOAD PUSH1 0x20 DUP2 DUP4 SUB SUB DUP2 MSTORE SWAP1 PUSH1 0x40 MSTORE SWAP1 POP PUSH1 0x0 PUSH1 0x1 PUSH8 0xFFFFFFFFFFFFFFFF DUP2 GT ISZERO PUSH2 0x101E JUMPI PUSH2 0x101D PUSH2 0x3861 JUMP JUMPDEST JUMPDEST PUSH1 0x40 MLOAD SWAP1 DUP1 DUP3 MSTORE DUP1 PUSH1 0x20 MUL PUSH1 0x20 ADD DUP3 ADD PUSH1 0x40 MSTORE DUP1 ISZERO PUSH2 0x1051 JUMPI DUP2 PUSH1 0x20 ADD JUMPDEST PUSH1 0x60 DUP2 MSTORE PUSH1 0x20 ADD SWAP1 PUSH1 0x1 SWAP1 SUB SWAP1 DUP2 PUSH2 0x103C JUMPI SWAP1 POP JUMPDEST POP SWAP1 POP DUP6 DUP1 PUSH1 0x0 ADD SWAP1 PUSH2 0x1064 SWAP2 SWAP1 PUSH2 0x3E62 JUMP JUMPDEST PUSH1 0x20 ADD PUSH1 0x20 DUP2 ADD SWAP1 PUSH2 0x1076 SWAP2 SWAP1 PUSH2 0x34CF JUMP JUMPDEST DUP7 DUP1 PUSH1 0x0 ADD SWAP1 PUSH2 0x1086 SWAP2 SWAP1 PUSH2 0x3E62 JUMP JUMPDEST PUSH1 0x60 ADD CALLDATALOAD DUP8 DUP1 PUSH1 0x0 ADD SWAP1 PUSH2 0x109A SWAP2 SWAP1 PUSH2 0x3E62 JUMP JUMPDEST PUSH1 0x80 ADD CALLDATALOAD DUP9 DUP1 PUSH1 0x0 ADD SWAP1 PUSH2 0x10AE SWAP2 SWAP1 PUSH2 0x3E62 JUMP JUMPDEST DUP1 PUSH1 0x0 ADD SWAP1 PUSH2 0x10BD SWAP2 SWAP1 PUSH2 0x41E2 JUMP JUMPDEST PUSH1 0x0 PUSH1 0x40 MLOAD PUSH1 0x20 ADD PUSH2 0x10D4 SWAP7 SWAP6 SWAP5 SWAP4 SWAP3 SWAP2 SWAP1 PUSH2 0x4283 JUMP JUMPDEST PUSH1 0x40 MLOAD PUSH1 0x20 DUP2 DUP4 SUB SUB DUP2 MSTORE SWAP1 PUSH1 0x40 MSTORE DUP2 PUSH1 0x0 DUP2 MLOAD DUP2 LT PUSH2 0x10F7 JUMPI PUSH2 0x10F6 PUSH2 0x3C67 JUMP JUMPDEST JUMPDEST PUSH1 0x20 MUL PUSH1 0x20 ADD ADD DUP2 SWAP1 MSTORE POP PUSH2 0x108 PUSH1 0x40 MLOAD PUSH2 0x1111 SWAP1 PUSH2 0x4165 JUMP JUMPDEST SWAP1 DUP2 MSTORE PUSH1 0x20 ADD PUSH1 0x40 MLOAD DUP1 SWAP2 SUB SWAP1 KECCAK256 PUSH1 0x0 SWAP1 SLOAD SWAP1 PUSH2 0x100 EXP SWAP1 DIV PUSH20 0xFFFFFFFFFFFFFFFFFFFFFFFFFFFFFFFFFFFFFFFF AND PUSH20 0xFFFFFFFFFFFFFFFFFFFFFFFFFFFFFFFFFFFFFFFF AND PUSH4 0x3593564C DUP4 DUP4 DUP10 DUP1 PUSH1 0x0 ADD SWAP1 PUSH2 0x116D SWAP2 SWAP1 PUSH2 0x3E62 JUMP JUMPDEST PUSH1 0x40 ADD CALLDATALOAD PUSH1 0x40 MLOAD DUP5 PUSH4 0xFFFFFFFF AND PUSH1 0xE0 SHL DUP2 MSTORE PUSH1 0x4 ADD PUSH2 0x118F SWAP4 SWAP3 SWAP2 SWAP1 PUSH2 0x441E JUMP JUMPDEST PUSH1 0x0 PUSH1 0x40 MLOAD DUP1 DUP4 SUB DUP2 PUSH1 0x0 DUP8 DUP1 EXTCODESIZE ISZERO DUP1 ISZERO PUSH2 0x11A9 JUMPI PUSH1 0x0 DUP1 REVERT JUMPDEST POP GAS CALL SWAP3 POP POP POP DUP1 ISZERO PUSH2 0x11BA JUMPI POP PUSH1 0x1 JUMPDEST PUSH2 0x129C JUMPI PUSH2 0x11C6 PUSH2 0x4470 JUMP JUMPDEST DUP1 PUSH4 0x8C379A0 SUB PUSH2 0x128B JUMPI POP PUSH2 0x11DA PUSH2 0x4492 JUMP JUMPDEST DUP1 PUSH2 0x11E5 JUMPI POP PUSH2 0x128D JUMP JUMPDEST DUP7 PUSH1 0x40 ADD PUSH1 0x20 DUP2 ADD SWAP1 PUSH2 0x11F8 SWAP2 SWAP1 PUSH2 0x34CF JUMP JUMPDEST PUSH20 0xFFFFFFFFFFFFFFFFFFFFFFFFFFFFFFFFFFFFFFFF AND DUP8 PUSH1 0x20 ADD PUSH1 0x20 DUP2 ADD SWAP1 PUSH2 0x1221 SWAP2 SWAP1 PUSH2 0x34CF JUMP JUMPDEST PUSH20 0xFFFFFFFFFFFFFFFFFFFFFFFFFFFFFFFFFFFFFFFF AND PUSH32 0x26205EB01C8BB7FCE6C5DE8F590381B9D33AAC206B0CE1B7EF65572571993708 DUP10 DUP1 PUSH1 0x0 ADD SWAP1 PUSH2 0x1268 SWAP2 SWAP1 PUSH2 0x3E62 JUMP JUMPDEST PUSH1 0x60 ADD CALLDATALOAD DUP9 DUP6 PUSH1 0x40 MLOAD PUSH2 0x127D SWAP4 SWAP3 SWAP2 SWAP1 PUSH2 0x4522 JUMP JUMPDEST PUSH1 0x40 MLOAD DUP1 SWAP2 SUB SWAP1 LOG3 POP PUSH2 0x1297 JUMP JUMPDEST POP JUMPDEST RETURNDATASIZE PUSH1 0x0 DUP1 RETURNDATACOPY RETURNDATASIZE PUSH1 0x0 REVERT JUMPDEST PUSH2 0x1495 JUMP JUMPDEST DUP6 PUSH1 0x40 ADD PUSH1 0x20 DUP2 ADD SWAP1 PUSH2 0x12AF SWAP2 SWAP1 PUSH2 0x34CF JUMP JUMPDEST PUSH20 0xFFFFFFFFFFFFFFFFFFFFFFFFFFFFFFFFFFFFFFFF AND PUSH4 0x70A08231 ADDRESS PUSH1 0x40 MLOAD DUP3 PUSH4 0xFFFFFFFF AND PUSH1 0xE0 SHL DUP2 MSTORE PUSH1 0x4 ADD PUSH2 0x12E7 SWAP2 SWAP1 PUSH2 0x3488 JUMP JUMPDEST PUSH1 0x20 PUSH1 0x40 MLOAD DUP1 DUP4 SUB DUP2 DUP7 GAS STATICCALL ISZERO DUP1 ISZERO PUSH2 0x1304 JUMPI RETURNDATASIZE PUSH1 0x0 DUP1 RETURNDATACOPY RETURNDATASIZE PUSH1 0x0 REVERT JUMPDEST POP POP POP POP PUSH1 0x40 MLOAD RETURNDATASIZE PUSH1 0x1F NOT PUSH1 0x1F DUP3 ADD AND DUP3 ADD DUP1 PUSH1 0x40 MSTORE POP DUP2 ADD SWAP1 PUSH2 0x1328 SWAP2 SWAP1 PUSH2 0x40EC JUMP JUMPDEST SWAP4 POP DUP6 DUP1 PUSH1 0x0 ADD SWAP1 PUSH2 0x133A SWAP2 SWAP1 PUSH2 0x3E62 JUMP JUMPDEST PUSH1 0x80 ADD CALLDATALOAD DUP5 LT ISZERO PUSH2 0x1415 JUMPI DUP6 PUSH1 0x40 ADD PUSH1 0x20 DUP2 ADD SWAP1 PUSH2 0x1358 SWAP2 SWAP1 PUSH2 0x34CF JUMP JUMPDEST PUSH20 0xFFFFFFFFFFFFFFFFFFFFFFFFFFFFFFFFFFFFFFFF AND DUP7 PUSH1 0x20 ADD PUSH1 0x20 DUP2 ADD SWAP1 PUSH2 0x1381 SWAP2 SWAP1 PUSH2 0x34CF JUMP JUMPDEST PUSH20 0xFFFFFFFFFFFFFFFFFFFFFFFFFFFFFFFFFFFFFFFF AND PUSH32 0x26205EB01C8BB7FCE6C5DE8F590381B9D33AAC206B0CE1B7EF65572571993708 DUP9 DUP1 PUSH1 0x0 ADD SWAP1 PUSH2 0x13C8 SWAP2 SWAP1 PUSH2 0x3E62 JUMP JUMPDEST PUSH1 0x60 ADD CALLDATALOAD DUP8 PUSH1 0x40 MLOAD PUSH2 0x13DB SWAP3 SWAP2 SWAP1 PUSH2 0x45AC JUMP JUMPDEST PUSH1 0x40 MLOAD DUP1 SWAP2 SUB SWAP1 LOG3 PUSH1 0x40 MLOAD PUSH32 0x1792539F00000000000000000000000000000000000000000000000000000000 DUP2 MSTORE PUSH1 0x4 ADD PUSH1 0x40 MLOAD DUP1 SWAP2 SUB SWAP1 REVERT JUMPDEST PUSH32 0xFA2DDA1CC1B86E41239702756B13EFFBC1A092B5C57E3AD320FBE4F3B13FE235 DUP7 PUSH1 0x20 ADD PUSH1 0x20 DUP2 ADD SWAP1 PUSH2 0x1449 SWAP2 SWAP1 PUSH2 0x34CF JUMP JUMPDEST DUP8 PUSH1 0x40 ADD PUSH1 0x20 DUP2 ADD SWAP1 PUSH2 0x145C SWAP2 SWAP1 PUSH2 0x34CF JUMP JUMPDEST DUP9 DUP1 PUSH1 0x0 ADD SWAP1 PUSH2 0x146C SWAP2 SWAP1 PUSH2 0x3E62 JUMP JUMPDEST PUSH1 0x60 ADD CALLDATALOAD DUP9 DUP9 PUSH2 0x147C SWAP2 SWAP1 PUSH2 0x3C96 JUMP JUMPDEST PUSH1 0x40 MLOAD PUSH2 0x148C SWAP5 SWAP4 SWAP3 SWAP2 SWAP1 PUSH2 0x45E8 JUMP JUMPDEST PUSH1 0x40 MLOAD DUP1 SWAP2 SUB SWAP1 LOG1 JUMPDEST POP POP POP POP POP POP DUP1 DUP1 PUSH2 0x14A6 SWAP1 PUSH2 0x3D2A JUMP JUMPDEST SWAP2 POP POP PUSH2 0xD7A JUMP JUMPDEST POP POP POP POP JUMP JUMPDEST PUSH1 0xFD DUP2 PUSH1 0x5 DUP2 LT PUSH2 0x14C4 JUMPI PUSH1 0x0 DUP1 REVERT JUMPDEST ADD PUSH1 0x0 SWAP2 POP SWAP1 POP DUP1 SLOAD PUSH2 0x14D6 SWAP1 PUSH2 0x3CF9 JUMP JUMPDEST DUP1 PUSH1 0x1F ADD PUSH1 0x20 DUP1 SWAP2 DIV MUL PUSH1 0x20 ADD PUSH1 0x40 MLOAD SWAP1 DUP2 ADD PUSH1 0x40 MSTORE DUP1 SWAP3 SWAP2 SWAP1 DUP2 DUP2 MSTORE PUSH1 0x20 ADD DUP3 DUP1 SLOAD PUSH2 0x1502 SWAP1 PUSH2 0x3CF9 JUMP JUMPDEST DUP1 ISZERO PUSH2 0x154F JUMPI DUP1 PUSH1 0x1F LT PUSH2 0x1524 JUMPI PUSH2 0x100 DUP1 DUP4 SLOAD DIV MUL DUP4 MSTORE SWAP2 PUSH1 0x20 ADD SWAP2 PUSH2 0x154F JUMP JUMPDEST DUP3 ADD SWAP2 SWAP1 PUSH1 0x0 MSTORE PUSH1 0x20 PUSH1 0x0 KECCAK256 SWAP1 JUMPDEST DUP2 SLOAD DUP2 MSTORE SWAP1 PUSH1 0x1 ADD SWAP1 PUSH1 0x20 ADD DUP1 DUP4 GT PUSH2 0x1532 JUMPI DUP3 SWAP1 SUB PUSH1 0x1F AND DUP3 ADD SWAP2 JUMPDEST POP POP POP POP POP DUP2 JUMP JUMPDEST PUSH32 0xFD37F88A14D7ED985885A1AF8F2AD5B64DD7EB00AB89168649791632BB9BB4A6 DUP2 JUMP JUMPDEST PUSH1 0x0 DUP1 PUSH2 0x102 DUP4 PUSH1 0x40 MLOAD PUSH2 0x158F SWAP2 SWAP1 PUSH2 0x465E JUMP JUMPDEST SWAP1 DUP2 MSTORE PUSH1 0x20 ADD PUSH1 0x40 MLOAD DUP1 SWAP2 SUB SWAP1 KECCAK256 PUSH1 0x0 SWAP1 SLOAD SWAP1 PUSH2 0x100 EXP SWAP1 DIV PUSH20 0xFFFFFFFFFFFFFFFFFFFFFFFFFFFFFFFFFFFFFFFF AND SWAP1 POP DUP1 PUSH20 0xFFFFFFFFFFFFFFFFFFFFFFFFFFFFFFFFFFFFFFFF AND PUSH4 0x70A08231 ADDRESS PUSH1 0x40 MLOAD DUP3 PUSH4 0xFFFFFFFF AND PUSH1 0xE0 SHL DUP2 MSTORE PUSH1 0x4 ADD PUSH2 0x15F9 SWAP2 SWAP1 PUSH2 0x3488 JUMP JUMPDEST PUSH1 0x20 PUSH1 0x40 MLOAD DUP1 DUP4 SUB DUP2 DUP7 GAS STATICCALL ISZERO DUP1 ISZERO PUSH2 0x1616 JUMPI RETURNDATASIZE PUSH1 0x0 DUP1 RETURNDATACOPY RETURNDATASIZE PUSH1 0x0 REVERT JUMPDEST POP POP POP POP PUSH1 0x40 MLOAD RETURNDATASIZE PUSH1 0x1F NOT PUSH1 0x1F DUP3 ADD AND DUP3 ADD DUP1 PUSH1 0x40 MSTORE POP DUP2 ADD SWAP1 PUSH2 0x163A SWAP2 SWAP1 PUSH2 0x40EC JUMP JUMPDEST SWAP2 POP POP SWAP2 SWAP1 POP JUMP JUMPDEST PUSH2 0x164A PUSH2 0x24C8 JUMP JUMPDEST PUSH20 0xFFFFFFFFFFFFFFFFFFFFFFFFFFFFFFFFFFFFFFFF AND DUP2 PUSH20 0xFFFFFFFFFFFFFFFFFFFFFFFFFFFFFFFFFFFFFFFF AND EQ PUSH2 0x16B7 JUMPI PUSH1 0x40 MLOAD PUSH32 0x8C379A000000000000000000000000000000000000000000000000000000000 DUP2 MSTORE PUSH1 0x4 ADD PUSH2 0x16AE SWAP1 PUSH2 0x46E7 JUMP JUMPDEST PUSH1 0x40 MLOAD DUP1 SWAP2 SUB SWAP1 REVERT JUMPDEST PUSH2 0x16C1 DUP3 DUP3 PUSH2 0x250E JUMP JUMPDEST POP POP JUMP JUMPDEST PUSH1 0x60 PUSH1 0x40 MLOAD DUP1 PUSH1 0x40 ADD PUSH1 0x40 MSTORE DUP1 PUSH1 0x5 DUP2 MSTORE PUSH1 0x20 ADD PUSH32 0x322E302E30000000000000000000000000000000000000000000000000000000 DUP2 MSTORE POP SWAP1 POP SWAP1 JUMP JUMPDEST PUSH2 0x102 DUP2 DUP1 MLOAD PUSH1 0x20 DUP2 ADD DUP3 ADD DUP1 MLOAD DUP5 DUP3 MSTORE PUSH1 0x20 DUP4 ADD PUSH1 0x20 DUP6 ADD KECCAK256 DUP2 DUP4 MSTORE DUP1 SWAP6 POP POP POP POP POP POP PUSH1 0x0 SWAP2 POP SLOAD SWAP1 PUSH2 0x100 EXP SWAP1 DIV PUSH20 0xFFFFFFFFFFFFFFFFFFFFFFFFFFFFFFFFFFFFFFFF AND DUP2 JUMP JUMPDEST PUSH32 0xBFFB4FAF8A508F503A2CA036EFFD0BC1F82615D3EBFDDB934EDF718F23672707 DUP2 JUMP JUMPDEST PUSH1 0x0 DUP1 PUSH1 0x1 SWAP1 SLOAD SWAP1 PUSH2 0x100 EXP SWAP1 DIV PUSH1 0xFF AND ISZERO SWAP1 POP DUP1 DUP1 ISZERO PUSH2 0x17A1 JUMPI POP PUSH1 0x1 PUSH1 0x0 DUP1 SLOAD SWAP1 PUSH2 0x100 EXP SWAP1 DIV PUSH1 0xFF AND PUSH1 0xFF AND LT JUMPDEST DUP1 PUSH2 0x17CE JUMPI POP PUSH2 0x17B0 ADDRESS PUSH2 0x2542 JUMP JUMPDEST ISZERO DUP1 ISZERO PUSH2 0x17CD JUMPI POP PUSH1 0x1 PUSH1 0x0 DUP1 SLOAD SWAP1 PUSH2 0x100 EXP SWAP1 DIV PUSH1 0xFF AND PUSH1 0xFF AND EQ JUMPDEST JUMPDEST PUSH2 0x180D JUMPI PUSH1 0x40 MLOAD PUSH32 0x8C379A000000000000000000000000000000000000000000000000000000000 DUP2 MSTORE PUSH1 0x4 ADD PUSH2 0x1804 SWAP1 PUSH2 0x4779 JUMP JUMPDEST PUSH1 0x40 MLOAD DUP1 SWAP2 SUB SWAP1 REVERT JUMPDEST PUSH1 0x1 PUSH1 0x0 DUP1 PUSH2 0x100 EXP DUP2 SLOAD DUP2 PUSH1 0xFF MUL NOT AND SWAP1 DUP4 PUSH1 0xFF AND MUL OR SWAP1 SSTORE POP DUP1 ISZERO PUSH2 0x184A JUMPI PUSH1 0x1 PUSH1 0x0 PUSH1 0x1 PUSH2 0x100 EXP DUP2 SLOAD DUP2 PUSH1 0xFF MUL NOT AND SWAP1 DUP4 ISZERO ISZERO MUL OR SWAP1 SSTORE POP JUMPDEST DUP11 PUSH2 0x109 PUSH1 0x0 PUSH2 0x100 EXP DUP2 SLOAD DUP2 PUSH20 0xFFFFFFFFFFFFFFFFFFFFFFFFFFFFFFFFFFFFFFFF MUL NOT AND SWAP1 DUP4 PUSH20 0xFFFFFFFFFFFFFFFFFFFFFFFFFFFFFFFFFFFFFFFF AND MUL OR SWAP1 SSTORE POP PUSH2 0x109 PUSH1 0x0 SWAP1 SLOAD SWAP1 PUSH2 0x100 EXP SWAP1 DIV PUSH20 0xFFFFFFFFFFFFFFFFFFFFFFFFFFFFFFFFFFFFFFFF AND PUSH20 0xFFFFFFFFFFFFFFFFFFFFFFFFFFFFFFFFFFFFFFFF AND PUSH4 0x3D255B11 DUP12 DUP12 DUP12 DUP12 DUP12 DUP12 DUP12 DUP12 DUP12 PUSH1 0x40 MLOAD DUP11 PUSH4 0xFFFFFFFF AND PUSH1 0xE0 SHL DUP2 MSTORE PUSH1 0x4 ADD PUSH2 0x18F8 SWAP10 SWAP9 SWAP8 SWAP7 SWAP6 SWAP5 SWAP4 SWAP3 SWAP2 SWAP1 PUSH2 0x4B48 JUMP JUMPDEST PUSH1 0x0 PUSH1 0x40 MLOAD DUP1 DUP4 SUB DUP2 DUP7 DUP1 EXTCODESIZE ISZERO DUP1 ISZERO PUSH2 0x1910 JUMPI PUSH1 0x0 DUP1 REVERT JUMPDEST POP GAS STATICCALL ISZERO DUP1 ISZERO PUSH2 0x1924 JUMPI RETURNDATASIZE PUSH1 0x0 DUP1 RETURNDATACOPY RETURNDATASIZE PUSH1 0x0 REVERT JUMPDEST POP POP POP POP PUSH2 0x1930 PUSH2 0x2565 JUMP JUMPDEST PUSH2 0x1938 PUSH2 0x25B6 JUMP JUMPDEST PUSH1 0x0 JUMPDEST PUSH1 0x5 DUP2 LT ISZERO PUSH2 0x1A43 JUMPI DUP10 DUP2 PUSH1 0x5 DUP2 LT PUSH2 0x1957 JUMPI PUSH2 0x1956 PUSH2 0x3C67 JUMP JUMPDEST JUMPDEST PUSH1 0x20 MUL ADD PUSH1 0x20 DUP2 ADD SWAP1 PUSH2 0x196A SWAP2 SWAP1 PUSH2 0x34CF JUMP JUMPDEST PUSH2 0x102 DUP13 DUP4 PUSH1 0x5 DUP2 LT PUSH2 0x1980 JUMPI PUSH2 0x197F PUSH2 0x3C67 JUMP JUMPDEST JUMPDEST PUSH1 0x20 MUL DUP2 ADD SWAP1 PUSH2 0x1990 SWAP2 SWAP1 PUSH2 0x4BE8 JUMP JUMPDEST PUSH1 0x40 MLOAD PUSH2 0x199E SWAP3 SWAP2 SWAP1 PUSH2 0x3D97 JUMP JUMPDEST SWAP1 DUP2 MSTORE PUSH1 0x20 ADD PUSH1 0x40 MLOAD DUP1 SWAP2 SUB SWAP1 KECCAK256 PUSH1 0x0 PUSH2 0x100 EXP DUP2 SLOAD DUP2 PUSH20 0xFFFFFFFFFFFFFFFFFFFFFFFFFFFFFFFFFFFFFFFF MUL NOT AND SWAP1 DUP4 PUSH20 0xFFFFFFFFFFFFFFFFFFFFFFFFFFFFFFFFFFFFFFFF AND MUL OR SWAP1 SSTORE POP DUP11 DUP2 PUSH1 0x5 DUP2 LT PUSH2 0x19FD JUMPI PUSH2 0x19FC PUSH2 0x3C67 JUMP JUMPDEST JUMPDEST PUSH1 0x20 MUL DUP2 ADD SWAP1 PUSH2 0x1A0D SWAP2 SWAP1 PUSH2 0x4BE8 JUMP JUMPDEST PUSH1 0xFD DUP4 PUSH1 0x5 DUP2 LT PUSH2 0x1A21 JUMPI PUSH2 0x1A20 PUSH2 0x3C67 JUMP JUMPDEST JUMPDEST ADD SWAP2 DUP3 PUSH2 0x1A2F SWAP3 SWAP2 SWAP1 PUSH2 0x4E02 JUMP JUMPDEST POP DUP1 DUP1 PUSH2 0x1A3B SWAP1 PUSH2 0x3D2A JUMP JUMPDEST SWAP2 POP POP PUSH2 0x193B JUMP JUMPDEST POP DUP6 PUSH2 0x104 PUSH1 0x0 PUSH2 0x100 EXP DUP2 SLOAD DUP2 PUSH20 0xFFFFFFFFFFFFFFFFFFFFFFFFFFFFFFFFFFFFFFFF MUL NOT AND SWAP1 DUP4 PUSH20 0xFFFFFFFFFFFFFFFFFFFFFFFFFFFFFFFFFFFFFFFF AND MUL OR SWAP1 SSTORE POP DUP7 PUSH2 0x103 PUSH1 0x0 PUSH2 0x100 EXP DUP2 SLOAD DUP2 PUSH20 0xFFFFFFFFFFFFFFFFFFFFFFFFFFFFFFFFFFFFFFFF MUL NOT AND SWAP1 DUP4 PUSH20 0xFFFFFFFFFFFFFFFFFFFFFFFFFFFFFFFFFFFFFFFF AND MUL OR SWAP1 SSTORE POP PUSH1 0x0 JUMPDEST PUSH1 0x2 DUP2 LT ISZERO PUSH2 0x1BC6 JUMPI DUP4 DUP2 PUSH1 0x2 DUP2 LT PUSH2 0x1AE7 JUMPI PUSH2 0x1AE6 PUSH2 0x3C67 JUMP JUMPDEST JUMPDEST PUSH1 0x20 MUL DUP2 ADD SWAP1 PUSH2 0x1AF7 SWAP2 SWAP1 PUSH2 0x4BE8 JUMP JUMPDEST PUSH2 0x105 DUP4 PUSH1 0x3 DUP2 LT PUSH2 0x1B0C JUMPI PUSH2 0x1B0B PUSH2 0x3C67 JUMP JUMPDEST JUMPDEST ADD SWAP2 DUP3 PUSH2 0x1B1A SWAP3 SWAP2 SWAP1 PUSH2 0x4E02 JUMP JUMPDEST POP DUP3 DUP2 PUSH1 0x2 DUP2 LT PUSH2 0x1B2E JUMPI PUSH2 0x1B2D PUSH2 0x3C67 JUMP JUMPDEST JUMPDEST PUSH1 0x20 MUL ADD PUSH1 0x20 DUP2 ADD SWAP1 PUSH2 0x1B41 SWAP2 SWAP1 PUSH2 0x34CF JUMP JUMPDEST PUSH2 0x108 PUSH2 0x105 DUP4 PUSH1 0x3 DUP2 LT PUSH2 0x1B59 JUMPI PUSH2 0x1B58 PUSH2 0x3C67 JUMP JUMPDEST JUMPDEST ADD PUSH1 0x40 MLOAD PUSH2 0x1B67 SWAP2 SWAP1 PUSH2 0x4F55 JUMP JUMPDEST SWAP1 DUP2 MSTORE PUSH1 0x20 ADD PUSH1 0x40 MLOAD DUP1 SWAP2 SUB SWAP1 KECCAK256 PUSH1 0x0 PUSH2 0x100 EXP DUP2 SLOAD DUP2 PUSH20 0xFFFFFFFFFFFFFFFFFFFFFFFFFFFFFFFFFFFFFFFF MUL NOT AND SWAP1 DUP4 PUSH20 0xFFFFFFFFFFFFFFFFFFFFFFFFFFFFFFFFFFFFFFFF AND MUL OR SWAP1 SSTORE POP DUP1 DUP1 PUSH2 0x1BBE SWAP1 PUSH2 0x3D2A JUMP JUMPDEST SWAP2 POP POP PUSH2 0x1ACB JUMP JUMPDEST POP PUSH2 0x1C17 PUSH32 0xFAAD79A708D82D095486F5A83B18341F12A8F717D3011AB929D43135C1AF73E2 DUP10 PUSH1 0x0 PUSH1 0x3 DUP2 LT PUSH2 0x1BFF JUMPI PUSH2 0x1BFE PUSH2 0x3C67 JUMP JUMPDEST JUMPDEST PUSH1 0x20 MUL ADD PUSH1 0x20 DUP2 ADD SWAP1 PUSH2 0x1C12 SWAP2 SWAP1 PUSH2 0x34CF JUMP JUMPDEST PUSH2 0x24DA JUMP JUMPDEST PUSH2 0x1C67 PUSH32 0xFAAD79A708D82D095486F5A83B18341F12A8F717D3011AB929D43135C1AF73E2 DUP10 PUSH1 0x1 PUSH1 0x3 DUP2 LT PUSH2 0x1C4F JUMPI PUSH2 0x1C4E PUSH2 0x3C67 JUMP JUMPDEST JUMPDEST PUSH1 0x20 MUL ADD PUSH1 0x20 DUP2 ADD SWAP1 PUSH2 0x1C62 SWAP2 SWAP1 PUSH2 0x34CF JUMP JUMPDEST PUSH2 0x24DA JUMP JUMPDEST PUSH2 0x1CB7 PUSH32 0xFAAD79A708D82D095486F5A83B18341F12A8F717D3011AB929D43135C1AF73E2 DUP10 PUSH1 0x2 PUSH1 0x3 DUP2 LT PUSH2 0x1C9F JUMPI PUSH2 0x1C9E PUSH2 0x3C67 JUMP JUMPDEST JUMPDEST PUSH1 0x20 MUL ADD PUSH1 0x20 DUP2 ADD SWAP1 PUSH2 0x1CB2 SWAP2 SWAP1 PUSH2 0x34CF JUMP JUMPDEST PUSH2 0x24DA JUMP JUMPDEST PUSH2 0x1CE1 PUSH32 0xFD37F88A14D7ED985885A1AF8F2AD5B64DD7EB00AB89168649791632BB9BB4A6 DUP7 PUSH2 0x24DA JUMP JUMPDEST PUSH2 0x1D0B PUSH32 0xFD37F88A14D7ED985885A1AF8F2AD5B64DD7EB00AB89168649791632BB9BB4A6 DUP6 PUSH2 0x24DA JUMP JUMPDEST PUSH2 0x1D35 PUSH32 0xBFFB4FAF8A508F503A2CA036EFFD0BC1F82615D3EBFDDB934EDF718F23672707 DUP7 PUSH2 0x24DA JUMP JUMPDEST PUSH2 0x1D5F PUSH32 0xBFFB4FAF8A508F503A2CA036EFFD0BC1F82615D3EBFDDB934EDF718F23672707 DUP6 PUSH2 0x24DA JUMP JUMPDEST PUSH2 0x1DC6 PUSH32 0xD2761B102BDA9831F4AF400CC824B8CECB9CC5C1C85C51ACB1479DB9735FBFC6 PUSH2 0x108 PUSH1 0x40 MLOAD PUSH2 0x1D92 SWAP1 PUSH2 0x4FB8 JUMP JUMPDEST SWAP1 DUP2 MSTORE PUSH1 0x20 ADD PUSH1 0x40 MLOAD DUP1 SWAP2 SUB SWAP1 KECCAK256 PUSH1 0x0 SWAP1 SLOAD SWAP1 PUSH2 0x100 EXP SWAP1 DIV PUSH20 0xFFFFFFFFFFFFFFFFFFFFFFFFFFFFFFFFFFFFFFFF AND PUSH2 0x24DA JUMP JUMPDEST PUSH2 0x1DF0 PUSH32 0xFAAD79A708D82D095486F5A83B18341F12A8F717D3011AB929D43135C1AF73E2 DUP1 PUSH2 0x260F JUMP JUMPDEST PUSH2 0x1E1A PUSH32 0xFD37F88A14D7ED985885A1AF8F2AD5B64DD7EB00AB89168649791632BB9BB4A6 DUP1 PUSH2 0x260F JUMP JUMPDEST PUSH2 0x1E44 PUSH32 0xBFFB4FAF8A508F503A2CA036EFFD0BC1F82615D3EBFDDB934EDF718F23672707 DUP1 PUSH2 0x260F JUMP JUMPDEST PUSH2 0x1E8E PUSH32 0xD2761B102BDA9831F4AF400CC824B8CECB9CC5C1C85C51ACB1479DB9735FBFC6 PUSH32 0xFAAD79A708D82D095486F5A83B18341F12A8F717D3011AB929D43135C1AF73E2 PUSH2 0x260F JUMP JUMPDEST PUSH32 0x4185272184BEDEA7DE0EA28A815902A29E62119008CF980DB82F3AF6877C40D CALLER DUP12 DUP12 DUP12 DUP12 DUP12 DUP12 DUP12 DUP12 DUP12 PUSH1 0x40 MLOAD PUSH2 0x1ECF SWAP11 SWAP10 SWAP9 SWAP8 SWAP7 SWAP6 SWAP5 SWAP4 SWAP3 SWAP2 SWAP1 PUSH2 0x4FCD JUMP JUMPDEST PUSH1 0x40 MLOAD DUP1 SWAP2 SUB SWAP1 LOG1 DUP1 ISZERO PUSH2 0x1F30 JUMPI PUSH1 0x0 DUP1 PUSH1 0x1 PUSH2 0x100 EXP DUP2 SLOAD DUP2 PUSH1 0xFF MUL NOT AND SWAP1 DUP4 ISZERO ISZERO MUL OR SWAP1 SSTORE POP PUSH32 0x7F26B83FF96E1F2B6A682F133852F6798A09C465DA95921460CEFB3847402498 PUSH1 0x1 PUSH1 0x40 MLOAD PUSH2 0x1F27 SWAP2 SWAP1 PUSH2 0x50C3 JUMP JUMPDEST PUSH1 0x40 MLOAD DUP1 SWAP2 SUB SWAP1 LOG1 JUMPDEST POP POP POP POP POP POP POP POP POP POP POP JUMP JUMPDEST PUSH1 0x0 PUSH2 0x1F64 DUP3 PUSH1 0x97 PUSH1 0x0 DUP7 DUP2 MSTORE PUSH1 0x20 ADD SWAP1 DUP2 MSTORE PUSH1 0x20 ADD PUSH1 0x0 KECCAK256 PUSH2 0x266B SWAP1 SWAP2 SWAP1 PUSH4 0xFFFFFFFF AND JUMP JUMPDEST SWAP1 POP SWAP3 SWAP2 POP POP JUMP JUMPDEST PUSH1 0x0 PUSH1 0x65 PUSH1 0x0 DUP5 DUP2 MSTORE PUSH1 0x20 ADD SWAP1 DUP2 MSTORE PUSH1 0x20 ADD PUSH1 0x0 KECCAK256 PUSH1 0x0 ADD PUSH1 0x0 DUP4 PUSH20 0xFFFFFFFFFFFFFFFFFFFFFFFFFFFFFFFFFFFFFFFF AND PUSH20 0xFFFFFFFFFFFFFFFFFFFFFFFFFFFFFFFFFFFFFFFF AND DUP2 MSTORE PUSH1 0x20 ADD SWAP1 DUP2 MSTORE PUSH1 0x20 ADD PUSH1 0x0 KECCAK256 PUSH1 0x0 SWAP1 SLOAD SWAP1 PUSH2 0x100 EXP SWAP1 DIV PUSH1 0xFF AND SWAP1 POP SWAP3 SWAP2 POP POP JUMP JUMPDEST PUSH1 0x0 DUP1 SHL DUP2 JUMP JUMPDEST PUSH2 0x104 PUSH1 0x0 SWAP1 SLOAD SWAP1 PUSH2 0x100 EXP SWAP1 DIV PUSH20 0xFFFFFFFFFFFFFFFFFFFFFFFFFFFFFFFFFFFFFFFF AND DUP2 JUMP JUMPDEST PUSH1 0x0 PUSH2 0x2022 PUSH1 0x97 PUSH1 0x0 DUP5 DUP2 MSTORE PUSH1 0x20 ADD SWAP1 DUP2 MSTORE PUSH1 0x20 ADD PUSH1 0x0 KECCAK256 PUSH2 0x2685 JUMP JUMPDEST SWAP1 POP SWAP2 SWAP1 POP JUMP JUMPDEST PUSH32 0xFAAD79A708D82D095486F5A83B18341F12A8F717D3011AB929D43135C1AF73E2 PUSH2 0x2053 DUP2 PUSH2 0x23DF JUMP JUMPDEST PUSH1 0x0 PUSH20 0xFFFFFFFFFFFFFFFFFFFFFFFFFFFFFFFFFFFFFFFF AND DUP3 PUSH20 0xFFFFFFFFFFFFFFFFFFFFFFFFFFFFFFFFFFFFFFFF AND SUB PUSH2 0x20B9 JUMPI PUSH1 0x40 MLOAD PUSH32 0xDF51A0D100000000000000000000000000000000000000000000000000000000 DUP2 MSTORE PUSH1 0x4 ADD PUSH1 0x40 MLOAD DUP1 SWAP2 SUB SWAP1 REVERT JUMPDEST DUP2 PUSH2 0x103 PUSH1 0x0 PUSH2 0x100 EXP DUP2 SLOAD DUP2 PUSH20 0xFFFFFFFFFFFFFFFFFFFFFFFFFFFFFFFFFFFFFFFF MUL NOT AND SWAP1 DUP4 PUSH20 0xFFFFFFFFFFFFFFFFFFFFFFFFFFFFFFFFFFFFFFFF AND MUL OR SWAP1 SSTORE POP POP POP JUMP JUMPDEST PUSH2 0x2108 DUP3 PUSH2 0xC3F JUMP JUMPDEST PUSH2 0x2111 DUP2 PUSH2 0x23DF JUMP JUMPDEST PUSH2 0x211B DUP4 DUP4 PUSH2 0x250E JUMP JUMPDEST POP POP POP JUMP JUMPDEST PUSH32 0xFD37F88A14D7ED985885A1AF8F2AD5B64DD7EB00AB89168649791632BB9BB4A6 PUSH2 0x214A DUP2 PUSH2 0x23DF JUMP JUMPDEST PUSH2 0x2152 PUSH2 0x23F3 JUMP JUMPDEST PUSH2 0x21C1 PUSH2 0x102 DUP5 DUP5 PUSH1 0x40 MLOAD PUSH2 0x2168 SWAP3 SWAP2 SWAP1 PUSH2 0x3D97 JUMP JUMPDEST SWAP1 DUP2 MSTORE PUSH1 0x20 ADD PUSH1 0x40 MLOAD DUP1 SWAP2 SUB SWAP1 KECCAK256 PUSH1 0x0 SWAP1 SLOAD SWAP1 PUSH2 0x100 EXP SWAP1 DIV PUSH20 0xFFFFFFFFFFFFFFFFFFFFFFFFFFFFFFFFFFFFFFFF AND PUSH2 0x104 PUSH1 0x0 SWAP1 SLOAD SWAP1 PUSH2 0x100 EXP SWAP1 DIV PUSH20 0xFFFFFFFFFFFFFFFFFFFFFFFFFFFFFFFFFFFFFFFF AND DUP7 PUSH2 0x2442 JUMP JUMPDEST PUSH32 0x901C03DA5D88EB3D62AB4617E7B7D17D86DB16356823A7971127D5181A842FEF PUSH2 0x104 PUSH1 0x0 SWAP1 SLOAD SWAP1 PUSH2 0x100 EXP SWAP1 DIV PUSH20 0xFFFFFFFFFFFFFFFFFFFFFFFFFFFFFFFFFFFFFFFF AND DUP5 DUP5 DUP8 PUSH1 0x40 MLOAD PUSH2 0x2219 SWAP5 SWAP4 SWAP3 SWAP2 SWAP1 PUSH2 0x50DE JUMP JUMPDEST PUSH1 0x40 MLOAD DUP1 SWAP2 SUB SWAP1 LOG1 PUSH2 0x2229 PUSH2 0x24D0 JUMP JUMPDEST POP POP POP POP JUMP JUMPDEST PUSH2 0x105 DUP2 PUSH1 0x3 DUP2 LT PUSH2 0x2240 JUMPI PUSH1 0x0 DUP1 REVERT JUMPDEST ADD PUSH1 0x0 SWAP2 POP SWAP1 POP DUP1 SLOAD PUSH2 0x2252 SWAP1 PUSH2 0x3CF9 JUMP JUMPDEST DUP1 PUSH1 0x1F ADD PUSH1 0x20 DUP1 SWAP2 DIV MUL PUSH1 0x20 ADD PUSH1 0x40 MLOAD SWAP1 DUP2 ADD PUSH1 0x40 MSTORE DUP1 SWAP3 SWAP2 SWAP1 DUP2 DUP2 MSTORE PUSH1 0x20 ADD DUP3 DUP1 SLOAD PUSH2 0x227E SWAP1 PUSH2 0x3CF9 JUMP JUMPDEST DUP1 ISZERO PUSH2 0x22CB JUMPI DUP1 PUSH1 0x1F LT PUSH2 0x22A0 JUMPI PUSH2 0x100 DUP1 DUP4 SLOAD DIV MUL DUP4 MSTORE SWAP2 PUSH1 0x20 ADD SWAP2 PUSH2 0x22CB JUMP JUMPDEST DUP3 ADD SWAP2 SWAP1 PUSH1 0x0 MSTORE PUSH1 0x20 PUSH1 0x0 KECCAK256 SWAP1 JUMPDEST DUP2 SLOAD DUP2 MSTORE SWAP1 PUSH1 0x1 ADD SWAP1 PUSH1 0x20 ADD DUP1 DUP4 GT PUSH2 0x22AE JUMPI DUP3 SWAP1 SUB PUSH1 0x1F AND DUP3 ADD SWAP2 JUMPDEST POP POP POP POP POP DUP2 JUMP JUMPDEST PUSH32 0xD2761B102BDA9831F4AF400CC824B8CECB9CC5C1C85C51ACB1479DB9735FBFC6 DUP2 JUMP JUMPDEST PUSH32 0xFAAD79A708D82D095486F5A83B18341F12A8F717D3011AB929D43135C1AF73E2 DUP2 JUMP JUMPDEST PUSH2 0x108 DUP2 DUP1 MLOAD PUSH1 0x20 DUP2 ADD DUP3 ADD DUP1 MLOAD DUP5 DUP3 MSTORE PUSH1 0x20 DUP4 ADD PUSH1 0x20 DUP6 ADD KECCAK256 DUP2 DUP4 MSTORE DUP1 SWAP6 POP POP POP POP POP POP PUSH1 0x0 SWAP2 POP SLOAD SWAP1 PUSH2 0x100 EXP SWAP1 DIV PUSH20 0xFFFFFFFFFFFFFFFFFFFFFFFFFFFFFFFFFFFFFFFF AND DUP2 JUMP JUMPDEST PUSH1 0x0 PUSH32 0x7965DB0B00000000000000000000000000000000000000000000000000000000 PUSH28 0xFFFFFFFFFFFFFFFFFFFFFFFFFFFFFFFFFFFFFFFFFFFFFFFFFFFFFFFF NOT AND DUP3 PUSH28 0xFFFFFFFFFFFFFFFFFFFFFFFFFFFFFFFFFFFFFFFFFFFFFFFFFFFFFFFF NOT AND EQ DUP1 PUSH2 0x23D8 JUMPI POP PUSH2 0x23D7 DUP3 PUSH2 0x269A JUMP JUMPDEST JUMPDEST SWAP1 POP SWAP2 SWAP1 POP JUMP JUMPDEST PUSH2 0x23F0 DUP2 PUSH2 0x23EB PUSH2 0x24C8 JUMP JUMPDEST PUSH2 0x2704 JUMP JUMPDEST POP JUMP JUMPDEST PUSH1 0x2 PUSH1 0xC9 SLOAD SUB PUSH2 0x2438 JUMPI PUSH1 0x40 MLOAD PUSH32 0x8C379A000000000000000000000000000000000000000000000000000000000 DUP2 MSTORE PUSH1 0x4 ADD PUSH2 0x242F SWAP1 PUSH2 0x516A JUMP JUMPDEST PUSH1 0x40 MLOAD DUP1 SWAP2 SUB SWAP1 REVERT JUMPDEST PUSH1 0x2 PUSH1 0xC9 DUP2 SWAP1 SSTORE POP JUMP JUMPDEST PUSH2 0x24C3 DUP4 PUSH4 0xA9059CBB PUSH1 0xE0 SHL DUP5 DUP5 PUSH1 0x40 MLOAD PUSH1 0x24 ADD PUSH2 0x2461 SWAP3 SWAP2 SWAP1 PUSH2 0x518A JUMP JUMPDEST PUSH1 0x40 MLOAD PUSH1 0x20 DUP2 DUP4 SUB SUB DUP2 MSTORE SWAP1 PUSH1 0x40 MSTORE SWAP1 PUSH28 0xFFFFFFFFFFFFFFFFFFFFFFFFFFFFFFFFFFFFFFFFFFFFFFFFFFFFFFFF NOT AND PUSH1 0x20 DUP3 ADD DUP1 MLOAD PUSH28 0xFFFFFFFFFFFFFFFFFFFFFFFFFFFFFFFFFFFFFFFFFFFFFFFFFFFFFFFF DUP4 DUP2 DUP4 AND OR DUP4 MSTORE POP POP POP POP PUSH2 0x2789 JUMP JUMPDEST POP POP POP JUMP JUMPDEST PUSH1 0x0 CALLER SWAP1 POP SWAP1 JUMP JUMPDEST PUSH1 0x1 PUSH1 0xC9 DUP2 SWAP1 SSTORE POP JUMP JUMPDEST PUSH2 0x24E4 DUP3 DUP3 PUSH2 0x2851 JUMP JUMPDEST PUSH2 0x2509 DUP2 PUSH1 0x97 PUSH1 0x0 DUP6 DUP2 MSTORE PUSH1 0x20 ADD SWAP1 DUP2 MSTORE PUSH1 0x20 ADD PUSH1 0x0 KECCAK256 PUSH2 0x2932 SWAP1 SWAP2 SWAP1 PUSH4 0xFFFFFFFF AND JUMP JUMPDEST POP POP POP JUMP JUMPDEST PUSH2 0x2518 DUP3 DUP3 PUSH2 0x2962 JUMP JUMPDEST PUSH2 0x253D DUP2 PUSH1 0x97 PUSH1 0x0 DUP6 DUP2 MSTORE PUSH1 0x20 ADD SWAP1 DUP2 MSTORE PUSH1 0x20 ADD PUSH1 0x0 KECCAK256 PUSH2 0x2A44 SWAP1 SWAP2 SWAP1 PUSH4 0xFFFFFFFF AND JUMP JUMPDEST POP POP POP JUMP JUMPDEST PUSH1 0x0 DUP1 DUP3 PUSH20 0xFFFFFFFFFFFFFFFFFFFFFFFFFFFFFFFFFFFFFFFF AND EXTCODESIZE GT SWAP1 POP SWAP2 SWAP1 POP JUMP JUMPDEST PUSH1 0x0 PUSH1 0x1 SWAP1 SLOAD SWAP1 PUSH2 0x100 EXP SWAP1 DIV PUSH1 0xFF AND PUSH2 0x25B4 JUMPI PUSH1 0x40 MLOAD PUSH32 0x8C379A000000000000000000000000000000000000000000000000000000000 DUP2 MSTORE PUSH1 0x4 ADD PUSH2 0x25AB SWAP1 PUSH2 0x5225 JUMP JUMPDEST PUSH1 0x40 MLOAD DUP1 SWAP2 SUB SWAP1 REVERT JUMPDEST JUMP JUMPDEST PUSH1 0x0 PUSH1 0x1 SWAP1 SLOAD SWAP1 PUSH2 0x100 EXP SWAP1 DIV PUSH1 0xFF AND PUSH2 0x2605 JUMPI PUSH1 0x40 MLOAD PUSH32 0x8C379A000000000000000000000000000000000000000000000000000000000 DUP2 MSTORE PUSH1 0x4 ADD PUSH2 0x25FC SWAP1 PUSH2 0x5225 JUMP JUMPDEST PUSH1 0x40 MLOAD DUP1 SWAP2 SUB SWAP1 REVERT JUMPDEST PUSH1 0x1 PUSH1 0xC9 DUP2 SWAP1 SSTORE POP JUMP JUMPDEST PUSH1 0x0 PUSH2 0x261A DUP4 PUSH2 0xC3F JUMP JUMPDEST SWAP1 POP DUP2 PUSH1 0x65 PUSH1 0x0 DUP6 DUP2 MSTORE PUSH1 0x20 ADD SWAP1 DUP2 MSTORE PUSH1 0x20 ADD PUSH1 0x0 KECCAK256 PUSH1 0x1 ADD DUP2 SWAP1 SSTORE POP DUP2 DUP2 DUP5 PUSH32 0xBD79B86FFE0AB8E8776151514217CD7CACD52C909F66475C3AF44E129F0B00FF PUSH1 0x40 MLOAD PUSH1 0x40 MLOAD DUP1 SWAP2 SUB SWAP1 LOG4 POP POP POP JUMP JUMPDEST PUSH1 0x0 PUSH2 0x267A DUP4 PUSH1 0x0 ADD DUP4 PUSH2 0x2A74 JUMP JUMPDEST PUSH1 0x0 SHR SWAP1 POP SWAP3 SWAP2 POP POP JUMP JUMPDEST PUSH1 0x0 PUSH2 0x2693 DUP3 PUSH1 0x0 ADD PUSH2 0x2A9F JUMP JUMPDEST SWAP1 POP SWAP2 SWAP1 POP JUMP JUMPDEST PUSH1 0x0 PUSH32 0x1FFC9A700000000000000000000000000000000000000000000000000000000 PUSH28 0xFFFFFFFFFFFFFFFFFFFFFFFFFFFFFFFFFFFFFFFFFFFFFFFFFFFFFFFF NOT AND DUP3 PUSH28 0xFFFFFFFFFFFFFFFFFFFFFFFFFFFFFFFFFFFFFFFFFFFFFFFFFFFFFFFF NOT AND EQ SWAP1 POP SWAP2 SWAP1 POP JUMP JUMPDEST PUSH2 0x270E DUP3 DUP3 PUSH2 0x1F6C JUMP JUMPDEST PUSH2 0x2785 JUMPI PUSH2 0x271B DUP2 PUSH2 0x2AB0 JUMP JUMPDEST PUSH2 0x2729 DUP4 PUSH1 0x0 SHR PUSH1 0x20 PUSH2 0x2ADD JUMP JUMPDEST PUSH1 0x40 MLOAD PUSH1 0x20 ADD PUSH2 0x273A SWAP3 SWAP2 SWAP1 PUSH2 0x52DD JUMP JUMPDEST PUSH1 0x40 MLOAD PUSH1 0x20 DUP2 DUP4 SUB SUB DUP2 MSTORE SWAP1 PUSH1 0x40 MSTORE PUSH1 0x40 MLOAD PUSH32 0x8C379A000000000000000000000000000000000000000000000000000000000 DUP2 MSTORE PUSH1 0x4 ADD PUSH2 0x277C SWAP2 SWAP1 PUSH2 0x383A JUMP JUMPDEST PUSH1 0x40 MLOAD DUP1 SWAP2 SUB SWAP1 REVERT JUMPDEST POP POP JUMP JUMPDEST PUSH1 0x0 PUSH2 0x27EB DUP3 PUSH1 0x40 MLOAD DUP1 PUSH1 0x40 ADD PUSH1 0x40 MSTORE DUP1 PUSH1 0x20 DUP2 MSTORE PUSH1 0x20 ADD PUSH32 0x5361666545524332303A206C6F772D6C6576656C2063616C6C206661696C6564 DUP2 MSTORE POP DUP6 PUSH20 0xFFFFFFFFFFFFFFFFFFFFFFFFFFFFFFFFFFFFFFFF AND PUSH2 0x2D19 SWAP1 SWAP3 SWAP2 SWAP1 PUSH4 0xFFFFFFFF AND JUMP JUMPDEST SWAP1 POP PUSH1 0x0 DUP2 MLOAD EQ DUP1 PUSH2 0x280D JUMPI POP DUP1 DUP1 PUSH1 0x20 ADD SWAP1 MLOAD DUP2 ADD SWAP1 PUSH2 0x280C SWAP2 SWAP1 PUSH2 0x5343 JUMP JUMPDEST JUMPDEST PUSH2 0x284C JUMPI PUSH1 0x40 MLOAD PUSH32 0x8C379A000000000000000000000000000000000000000000000000000000000 DUP2 MSTORE PUSH1 0x4 ADD PUSH2 0x2843 SWAP1 PUSH2 0x53E2 JUMP JUMPDEST PUSH1 0x40 MLOAD DUP1 SWAP2 SUB SWAP1 REVERT JUMPDEST POP POP POP JUMP JUMPDEST PUSH2 0x285B DUP3 DUP3 PUSH2 0x1F6C JUMP JUMPDEST PUSH2 0x292E JUMPI PUSH1 0x1 PUSH1 0x65 PUSH1 0x0 DUP5 DUP2 MSTORE PUSH1 0x20 ADD SWAP1 DUP2 MSTORE PUSH1 0x20 ADD PUSH1 0x0 KECCAK256 PUSH1 0x0 ADD PUSH1 0x0 DUP4 PUSH20 0xFFFFFFFFFFFFFFFFFFFFFFFFFFFFFFFFFFFFFFFF AND PUSH20 0xFFFFFFFFFFFFFFFFFFFFFFFFFFFFFFFFFFFFFFFF AND DUP2 MSTORE PUSH1 0x20 ADD SWAP1 DUP2 MSTORE PUSH1 0x20 ADD PUSH1 0x0 KECCAK256 PUSH1 0x0 PUSH2 0x100 EXP DUP2 SLOAD DUP2 PUSH1 0xFF MUL NOT AND SWAP1 DUP4 ISZERO ISZERO MUL OR SWAP1 SSTORE POP PUSH2 0x28D3 PUSH2 0x24C8 JUMP JUMPDEST PUSH20 0xFFFFFFFFFFFFFFFFFFFFFFFFFFFFFFFFFFFFFFFF AND DUP2 PUSH20 0xFFFFFFFFFFFFFFFFFFFFFFFFFFFFFFFFFFFFFFFF AND DUP4 PUSH32 0x2F8788117E7EFF1D82E926EC794901D17C78024A50270940304540A733656F0D PUSH1 0x40 MLOAD PUSH1 0x40 MLOAD DUP1 SWAP2 SUB SWAP1 LOG4 JUMPDEST POP POP JUMP JUMPDEST PUSH1 0x0 PUSH2 0x295A DUP4 PUSH1 0x0 ADD DUP4 PUSH20 0xFFFFFFFFFFFFFFFFFFFFFFFFFFFFFFFFFFFFFFFF AND PUSH1 0x0 SHL PUSH2 0x2D31 JUMP JUMPDEST SWAP1 POP SWAP3 SWAP2 POP POP JUMP JUMPDEST PUSH2 0x296C DUP3 DUP3 PUSH2 0x1F6C JUMP JUMPDEST ISZERO PUSH2 0x2A40 JUMPI PUSH1 0x0 PUSH1 0x65 PUSH1 0x0 DUP5 DUP2 MSTORE PUSH1 0x20 ADD SWAP1 DUP2 MSTORE PUSH1 0x20 ADD PUSH1 0x0 KECCAK256 PUSH1 0x0 ADD PUSH1 0x0 DUP4 PUSH20 0xFFFFFFFFFFFFFFFFFFFFFFFFFFFFFFFFFFFFFFFF AND PUSH20 0xFFFFFFFFFFFFFFFFFFFFFFFFFFFFFFFFFFFFFFFF AND DUP2 MSTORE PUSH1 0x20 ADD SWAP1 DUP2 MSTORE PUSH1 0x20 ADD PUSH1 0x0 KECCAK256 PUSH1 0x0 PUSH2 0x100 EXP DUP2 SLOAD DUP2 PUSH1 0xFF MUL NOT AND SWAP1 DUP4 ISZERO ISZERO MUL OR SWAP1 SSTORE POP PUSH2 0x29E5 PUSH2 0x24C8 JUMP JUMPDEST PUSH20 0xFFFFFFFFFFFFFFFFFFFFFFFFFFFFFFFFFFFFFFFF AND DUP2 PUSH20 0xFFFFFFFFFFFFFFFFFFFFFFFFFFFFFFFFFFFFFFFF AND DUP4 PUSH32 0xF6391F5C32D9C69D2A47EA670B442974B53935D1EDC7FD64EB21E047A839171B PUSH1 0x40 MLOAD PUSH1 0x40 MLOAD DUP1 SWAP2 SUB SWAP1 LOG4 JUMPDEST POP POP JUMP JUMPDEST PUSH1 0x0 PUSH2 0x2A6C DUP4 PUSH1 0x0 ADD DUP4 PUSH20 0xFFFFFFFFFFFFFFFFFFFFFFFFFFFFFFFFFFFFFFFF AND PUSH1 0x0 SHL PUSH2 0x2DA1 JUMP JUMPDEST SWAP1 POP SWAP3 SWAP2 POP POP JUMP JUMPDEST PUSH1 0x0 DUP3 PUSH1 0x0 ADD DUP3 DUP2 SLOAD DUP2 LT PUSH2 0x2A8C JUMPI PUSH2 0x2A8B PUSH2 0x3C67 JUMP JUMPDEST JUMPDEST SWAP1 PUSH1 0x0 MSTORE PUSH1 0x20 PUSH1 0x0 KECCAK256 ADD SLOAD SWAP1 POP SWAP3 SWAP2 POP POP JUMP JUMPDEST PUSH1 0x0 DUP2 PUSH1 0x0 ADD DUP1 SLOAD SWAP1 POP SWAP1 POP SWAP2 SWAP1 POP JUMP JUMPDEST PUSH1 0x60 PUSH2 0x2AD6 DUP3 PUSH20 0xFFFFFFFFFFFFFFFFFFFFFFFFFFFFFFFFFFFFFFFF AND PUSH1 0x14 PUSH1 0xFF AND PUSH2 0x2ADD JUMP JUMPDEST SWAP1 POP SWAP2 SWAP1 POP JUMP JUMPDEST PUSH1 0x60 PUSH1 0x0 PUSH1 0x2 DUP4 PUSH1 0x2 PUSH2 0x2AF0 SWAP2 SWAP1 PUSH2 0x5402 JUMP JUMPDEST PUSH2 0x2AFA SWAP2 SWAP1 PUSH2 0x3C33 JUMP JUMPDEST PUSH8 0xFFFFFFFFFFFFFFFF DUP2 GT ISZERO PUSH2 0x2B13 JUMPI PUSH2 0x2B12 PUSH2 0x3861 JUMP JUMPDEST JUMPDEST PUSH1 0x40 MLOAD SWAP1 DUP1 DUP3 MSTORE DUP1 PUSH1 0x1F ADD PUSH1 0x1F NOT AND PUSH1 0x20 ADD DUP3 ADD PUSH1 0x40 MSTORE DUP1 ISZERO PUSH2 0x2B45 JUMPI DUP2 PUSH1 0x20 ADD PUSH1 0x1 DUP3 MUL DUP1 CALLDATASIZE DUP4 CALLDATACOPY DUP1 DUP3 ADD SWAP2 POP POP SWAP1 POP JUMPDEST POP SWAP1 POP PUSH32 0x3000000000000000000000000000000000000000000000000000000000000000 DUP2 PUSH1 0x0 DUP2 MLOAD DUP2 LT PUSH2 0x2B7D JUMPI PUSH2 0x2B7C PUSH2 0x3C67 JUMP JUMPDEST JUMPDEST PUSH1 0x20 ADD ADD SWAP1 PUSH31 0xFFFFFFFFFFFFFFFFFFFFFFFFFFFFFFFFFFFFFFFFFFFFFFFFFFFFFFFFFFFFFF NOT AND SWAP1 DUP2 PUSH1 0x0 BYTE SWAP1 MSTORE8 POP PUSH32 0x7800000000000000000000000000000000000000000000000000000000000000 DUP2 PUSH1 0x1 DUP2 MLOAD DUP2 LT PUSH2 0x2BE1 JUMPI PUSH2 0x2BE0 PUSH2 0x3C67 JUMP JUMPDEST JUMPDEST PUSH1 0x20 ADD ADD SWAP1 PUSH31 0xFFFFFFFFFFFFFFFFFFFFFFFFFFFFFFFFFFFFFFFFFFFFFFFFFFFFFFFFFFFFFF NOT AND SWAP1 DUP2 PUSH1 0x0 BYTE SWAP1 MSTORE8 POP PUSH1 0x0 PUSH1 0x1 DUP5 PUSH1 0x2 PUSH2 0x2C21 SWAP2 SWAP1 PUSH2 0x5402 JUMP JUMPDEST PUSH2 0x2C2B SWAP2 SWAP1 PUSH2 0x3C33 JUMP JUMPDEST SWAP1 POP JUMPDEST PUSH1 0x1 DUP2 GT ISZERO PUSH2 0x2CCB JUMPI PUSH32 0x3031323334353637383961626364656600000000000000000000000000000000 PUSH1 0xF DUP7 AND PUSH1 0x10 DUP2 LT PUSH2 0x2C6D JUMPI PUSH2 0x2C6C PUSH2 0x3C67 JUMP JUMPDEST JUMPDEST BYTE PUSH1 0xF8 SHL DUP3 DUP3 DUP2 MLOAD DUP2 LT PUSH2 0x2C84 JUMPI PUSH2 0x2C83 PUSH2 0x3C67 JUMP JUMPDEST JUMPDEST PUSH1 0x20 ADD ADD SWAP1 PUSH31 0xFFFFFFFFFFFFFFFFFFFFFFFFFFFFFFFFFFFFFFFFFFFFFFFFFFFFFFFFFFFFFF NOT AND SWAP1 DUP2 PUSH1 0x0 BYTE SWAP1 MSTORE8 POP PUSH1 0x4 DUP6 SWAP1 SHR SWAP5 POP DUP1 PUSH2 0x2CC4 SWAP1 PUSH2 0x5444 JUMP JUMPDEST SWAP1 POP PUSH2 0x2C2E JUMP JUMPDEST POP PUSH1 0x0 DUP5 EQ PUSH2 0x2D0F JUMPI PUSH1 0x40 MLOAD PUSH32 0x8C379A000000000000000000000000000000000000000000000000000000000 DUP2 MSTORE PUSH1 0x4 ADD PUSH2 0x2D06 SWAP1 PUSH2 0x54B9 JUMP JUMPDEST PUSH1 0x40 MLOAD DUP1 SWAP2 SUB SWAP1 REVERT JUMPDEST DUP1 SWAP2 POP POP SWAP3 SWAP2 POP POP JUMP JUMPDEST PUSH1 0x60 PUSH2 0x2D28 DUP5 DUP5 PUSH1 0x0 DUP6 PUSH2 0x2EB5 JUMP JUMPDEST SWAP1 POP SWAP4 SWAP3 POP POP POP JUMP JUMPDEST PUSH1 0x0 PUSH2 0x2D3D DUP4 DUP4 PUSH2 0x2F82 JUMP JUMPDEST PUSH2 0x2D96 JUMPI DUP3 PUSH1 0x0 ADD DUP3 SWAP1 DUP1 PUSH1 0x1 DUP2 SLOAD ADD DUP1 DUP3 SSTORE DUP1 SWAP2 POP POP PUSH1 0x1 SWAP1 SUB SWAP1 PUSH1 0x0 MSTORE PUSH1 0x20 PUSH1 0x0 KECCAK256 ADD PUSH1 0x0 SWAP1 SWAP2 SWAP1 SWAP2 SWAP1 SWAP2 POP SSTORE DUP3 PUSH1 0x0 ADD DUP1 SLOAD SWAP1 POP DUP4 PUSH1 0x1 ADD PUSH1 0x0 DUP5 DUP2 MSTORE PUSH1 0x20 ADD SWAP1 DUP2 MSTORE PUSH1 0x20 ADD PUSH1 0x0 KECCAK256 DUP2 SWAP1 SSTORE POP PUSH1 0x1 SWAP1 POP PUSH2 0x2D9B JUMP JUMPDEST PUSH1 0x0 SWAP1 POP JUMPDEST SWAP3 SWAP2 POP POP JUMP JUMPDEST PUSH1 0x0 DUP1 DUP4 PUSH1 0x1 ADD PUSH1 0x0 DUP5 DUP2 MSTORE PUSH1 0x20 ADD SWAP1 DUP2 MSTORE PUSH1 0x20 ADD PUSH1 0x0 KECCAK256 SLOAD SWAP1 POP PUSH1 0x0 DUP2 EQ PUSH2 0x2EA9 JUMPI PUSH1 0x0 PUSH1 0x1 DUP3 PUSH2 0x2DD3 SWAP2 SWAP1 PUSH2 0x3C96 JUMP JUMPDEST SWAP1 POP PUSH1 0x0 PUSH1 0x1 DUP7 PUSH1 0x0 ADD DUP1 SLOAD SWAP1 POP PUSH2 0x2DEB SWAP2 SWAP1 PUSH2 0x3C96 JUMP JUMPDEST SWAP1 POP DUP2 DUP2 EQ PUSH2 0x2E5A JUMPI PUSH1 0x0 DUP7 PUSH1 0x0 ADD DUP3 DUP2 SLOAD DUP2 LT PUSH2 0x2E0C JUMPI PUSH2 0x2E0B PUSH2 0x3C67 JUMP JUMPDEST JUMPDEST SWAP1 PUSH1 0x0 MSTORE PUSH1 0x20 PUSH1 0x0 KECCAK256 ADD SLOAD SWAP1 POP DUP1 DUP8 PUSH1 0x0 ADD DUP5 DUP2 SLOAD DUP2 LT PUSH2 0x2E30 JUMPI PUSH2 0x2E2F PUSH2 0x3C67 JUMP JUMPDEST JUMPDEST SWAP1 PUSH1 0x0 MSTORE PUSH1 0x20 PUSH1 0x0 KECCAK256 ADD DUP2 SWAP1 SSTORE POP DUP4 DUP8 PUSH1 0x1 ADD PUSH1 0x0 DUP4 DUP2 MSTORE PUSH1 0x20 ADD SWAP1 DUP2 MSTORE PUSH1 0x20 ADD PUSH1 0x0 KECCAK256 DUP2 SWAP1 SSTORE POP POP JUMPDEST DUP6 PUSH1 0x0 ADD DUP1 SLOAD DUP1 PUSH2 0x2E6E JUMPI PUSH2 0x2E6D PUSH2 0x54D9 JUMP JUMPDEST JUMPDEST PUSH1 0x1 SWAP1 SUB DUP2 DUP2 SWAP1 PUSH1 0x0 MSTORE PUSH1 0x20 PUSH1 0x0 KECCAK256 ADD PUSH1 0x0 SWAP1 SSTORE SWAP1 SSTORE DUP6 PUSH1 0x1 ADD PUSH1 0x0 DUP7 DUP2 MSTORE PUSH1 0x20 ADD SWAP1 DUP2 MSTORE PUSH1 0x20 ADD PUSH1 0x0 KECCAK256 PUSH1 0x0 SWAP1 SSTORE PUSH1 0x1 SWAP4 POP POP POP POP PUSH2 0x2EAF JUMP JUMPDEST PUSH1 0x0 SWAP2 POP POP JUMPDEST SWAP3 SWAP2 POP POP JUMP JUMPDEST PUSH1 0x60 DUP3 SELFBALANCE LT ISZERO PUSH2 0x2EFA JUMPI PUSH1 0x40 MLOAD PUSH32 0x8C379A000000000000000000000000000000000000000000000000000000000 DUP2 MSTORE PUSH1 0x4 ADD PUSH2 0x2EF1 SWAP1 PUSH2 0x557A JUMP JUMPDEST PUSH1 0x40 MLOAD DUP1 SWAP2 SUB SWAP1 REVERT JUMPDEST PUSH1 0x0 DUP1 DUP7 PUSH20 0xFFFFFFFFFFFFFFFFFFFFFFFFFFFFFFFFFFFFFFFF AND DUP6 DUP8 PUSH1 0x40 MLOAD PUSH2 0x2F23 SWAP2 SWAP1 PUSH2 0x55D6 JUMP JUMPDEST PUSH1 0x0 PUSH1 0x40 MLOAD DUP1 DUP4 SUB DUP2 DUP6 DUP8 GAS CALL SWAP3 POP POP POP RETURNDATASIZE DUP1 PUSH1 0x0 DUP2 EQ PUSH2 0x2F60 JUMPI PUSH1 0x40 MLOAD SWAP2 POP PUSH1 0x1F NOT PUSH1 0x3F RETURNDATASIZE ADD AND DUP3 ADD PUSH1 0x40 MSTORE RETURNDATASIZE DUP3 MSTORE RETURNDATASIZE PUSH1 0x0 PUSH1 0x20 DUP5 ADD RETURNDATACOPY PUSH2 0x2F65 JUMP JUMPDEST PUSH1 0x60 SWAP2 POP JUMPDEST POP SWAP2 POP SWAP2 POP PUSH2 0x2F76 DUP8 DUP4 DUP4 DUP8 PUSH2 0x2FA5 JUMP JUMPDEST SWAP3 POP POP POP SWAP5 SWAP4 POP POP POP POP JUMP JUMPDEST PUSH1 0x0 DUP1 DUP4 PUSH1 0x1 ADD PUSH1 0x0 DUP5 DUP2 MSTORE PUSH1 0x20 ADD SWAP1 DUP2 MSTORE PUSH1 0x20 ADD PUSH1 0x0 KECCAK256 SLOAD EQ ISZERO SWAP1 POP SWAP3 SWAP2 POP POP JUMP JUMPDEST PUSH1 0x60 DUP4 ISZERO PUSH2 0x3007 JUMPI PUSH1 0x0 DUP4 MLOAD SUB PUSH2 0x2FFF JUMPI PUSH2 0x2FBF DUP6 PUSH2 0x301A JUMP JUMPDEST PUSH2 0x2FFE JUMPI PUSH1 0x40 MLOAD PUSH32 0x8C379A000000000000000000000000000000000000000000000000000000000 DUP2 MSTORE PUSH1 0x4 ADD PUSH2 0x2FF5 SWAP1 PUSH2 0x5639 JUMP JUMPDEST PUSH1 0x40 MLOAD DUP1 SWAP2 SUB SWAP1 REVERT JUMPDEST JUMPDEST DUP3 SWAP1 POP PUSH2 0x3012 JUMP JUMPDEST PUSH2 0x3011 DUP4 DUP4 PUSH2 0x303D JUMP JUMPDEST JUMPDEST SWAP5 SWAP4 POP POP POP POP JUMP JUMPDEST PUSH1 0x0 DUP1 DUP3 PUSH20 0xFFFFFFFFFFFFFFFFFFFFFFFFFFFFFFFFFFFFFFFF AND EXTCODESIZE GT SWAP1 POP SWAP2 SWAP1 POP JUMP JUMPDEST PUSH1 0x0 DUP3 MLOAD GT ISZERO PUSH2 0x3050 JUMPI DUP2 MLOAD DUP1 DUP4 PUSH1 0x20 ADD REVERT JUMPDEST DUP1 PUSH1 0x40 MLOAD PUSH32 0x8C379A000000000000000000000000000000000000000000000000000000000 DUP2 MSTORE PUSH1 0x4 ADD PUSH2 0x3084 SWAP2 SWAP1 PUSH2 0x383A JUMP JUMPDEST PUSH1 0x40 MLOAD DUP1 SWAP2 SUB SWAP1 REVERT JUMPDEST PUSH1 0x40 MLOAD DUP1 PUSH1 0xA0 ADD PUSH1 0x40 MSTORE DUP1 PUSH1 0x5 SWAP1 JUMPDEST PUSH1 0x60 DUP2 MSTORE PUSH1 0x20 ADD SWAP1 PUSH1 0x1 SWAP1 SUB SWAP1 DUP2 PUSH2 0x309C JUMPI SWAP1 POP POP SWAP1 JUMP JUMPDEST PUSH1 0x0 DUP2 SWAP1 POP SWAP3 SWAP2 POP POP JUMP JUMPDEST PUSH32 0x5745544800000000000000000000000000000000000000000000000000000000 PUSH1 0x0 DUP3 ADD MSTORE POP JUMP JUMPDEST PUSH1 0x0 PUSH2 0x30F5 PUSH1 0x4 DUP4 PUSH2 0x30B4 JUMP JUMPDEST SWAP2 POP PUSH2 0x3100 DUP3 PUSH2 0x30BF JUMP JUMPDEST PUSH1 0x4 DUP3 ADD SWAP1 POP SWAP2 SWAP1 POP JUMP JUMPDEST PUSH1 0x0 PUSH2 0x3116 DUP3 PUSH2 0x30E8 JUMP JUMPDEST SWAP2 POP DUP2 SWAP1 POP SWAP2 SWAP1 POP JUMP JUMPDEST PUSH1 0x0 DUP3 DUP3 MSTORE PUSH1 0x20 DUP3 ADD SWAP1 POP SWAP3 SWAP2 POP POP JUMP JUMPDEST PUSH32 0x4E6F742070617961626C65206F6E207468697320636861696E00000000000000 PUSH1 0x0 DUP3 ADD MSTORE POP JUMP JUMPDEST PUSH1 0x0 PUSH2 0x3167 PUSH1 0x19 DUP4 PUSH2 0x3120 JUMP JUMPDEST SWAP2 POP PUSH2 0x3172 DUP3 PUSH2 0x3131 JUMP JUMPDEST PUSH1 0x20 DUP3 ADD SWAP1 POP SWAP2 SWAP1 POP JUMP JUMPDEST PUSH1 0x0 PUSH1 0x20 DUP3 ADD SWAP1 POP DUP2 DUP2 SUB PUSH1 0x0 DUP4 ADD MSTORE PUSH2 0x3196 DUP2 PUSH2 0x315A JUMP JUMPDEST SWAP1 POP SWAP2 SWAP1 POP JUMP JUMPDEST PUSH1 0x0 DUP2 MLOAD SWAP1 POP SWAP2 SWAP1 POP JUMP JUMPDEST PUSH1 0x0 DUP3 DUP3 MSTORE PUSH1 0x20 DUP3 ADD SWAP1 POP SWAP3 SWAP2 POP POP JUMP JUMPDEST PUSH1 0x0 DUP2 SWAP1 POP PUSH1 0x20 DUP3 ADD SWAP1 POP SWAP2 SWAP1 POP JUMP JUMPDEST PUSH1 0x0 DUP2 SWAP1 POP SWAP2 SWAP1 POP JUMP JUMPDEST PUSH2 0x31DC DUP2 PUSH2 0x31C9 JUMP JUMPDEST DUP3 MSTORE POP POP JUMP JUMPDEST PUSH1 0x0 PUSH2 0x31EE DUP4 DUP4 PUSH2 0x31D3 JUMP JUMPDEST PUSH1 0x20 DUP4 ADD SWAP1 POP SWAP3 SWAP2 POP POP JUMP JUMPDEST PUSH1 0x0 PUSH1 0x20 DUP3 ADD SWAP1 POP SWAP2 SWAP1 POP JUMP JUMPDEST PUSH1 0x0 PUSH2 0x3212 DUP3 PUSH2 0x319D JUMP JUMPDEST PUSH2 0x321C DUP2 DUP6 PUSH2 0x31A8 JUMP JUMPDEST SWAP4 POP PUSH2 0x3227 DUP4 PUSH2 0x31B9 JUMP JUMPDEST DUP1 PUSH1 0x0 JUMPDEST DUP4 DUP2 LT ISZERO PUSH2 0x3258 JUMPI DUP2 MLOAD PUSH2 0x323F DUP9 DUP3 PUSH2 0x31E2 JUMP JUMPDEST SWAP8 POP PUSH2 0x324A DUP4 PUSH2 0x31FA JUMP JUMPDEST SWAP3 POP POP PUSH1 0x1 DUP2 ADD SWAP1 POP PUSH2 0x322B JUMP JUMPDEST POP DUP6 SWAP4 POP POP POP POP SWAP3 SWAP2 POP POP JUMP JUMPDEST PUSH1 0x0 PUSH1 0x20 DUP3 ADD SWAP1 POP DUP2 DUP2 SUB PUSH1 0x0 DUP4 ADD MSTORE PUSH2 0x327F DUP2 DUP5 PUSH2 0x3207 JUMP JUMPDEST SWAP1 POP SWAP3 SWAP2 POP POP JUMP JUMPDEST PUSH1 0x0 PUSH1 0x40 MLOAD SWAP1 POP SWAP1 JUMP JUMPDEST PUSH1 0x0 DUP1 REVERT JUMPDEST PUSH1 0x0 DUP1 REVERT JUMPDEST PUSH1 0x0 PUSH32 0xFFFFFFFF00000000000000000000000000000000000000000000000000000000 DUP3 AND SWAP1 POP SWAP2 SWAP1 POP JUMP JUMPDEST PUSH2 0x32D0 DUP2 PUSH2 0x329B JUMP JUMPDEST DUP2 EQ PUSH2 0x32DB JUMPI PUSH1 0x0 DUP1 REVERT JUMPDEST POP JUMP JUMPDEST PUSH1 0x0 DUP2 CALLDATALOAD SWAP1 POP PUSH2 0x32ED DUP2 PUSH2 0x32C7 JUMP JUMPDEST SWAP3 SWAP2 POP POP JUMP JUMPDEST PUSH1 0x0 PUSH1 0x20 DUP3 DUP5 SUB SLT ISZERO PUSH2 0x3309 JUMPI PUSH2 0x3308 PUSH2 0x3291 JUMP JUMPDEST JUMPDEST PUSH1 0x0 PUSH2 0x3317 DUP5 DUP3 DUP6 ADD PUSH2 0x32DE JUMP JUMPDEST SWAP2 POP POP SWAP3 SWAP2 POP POP JUMP JUMPDEST PUSH1 0x0 DUP2 ISZERO ISZERO SWAP1 POP SWAP2 SWAP1 POP JUMP JUMPDEST PUSH2 0x3335 DUP2 PUSH2 0x3320 JUMP JUMPDEST DUP3 MSTORE POP POP JUMP JUMPDEST PUSH1 0x0 PUSH1 0x20 DUP3 ADD SWAP1 POP PUSH2 0x3350 PUSH1 0x0 DUP4 ADD DUP5 PUSH2 0x332C JUMP JUMPDEST SWAP3 SWAP2 POP POP JUMP JUMPDEST PUSH2 0x335F DUP2 PUSH2 0x31C9 JUMP JUMPDEST DUP2 EQ PUSH2 0x336A JUMPI PUSH1 0x0 DUP1 REVERT JUMPDEST POP JUMP JUMPDEST PUSH1 0x0 DUP2 CALLDATALOAD SWAP1 POP PUSH2 0x337C DUP2 PUSH2 0x3356 JUMP JUMPDEST SWAP3 SWAP2 POP POP JUMP JUMPDEST PUSH1 0x0 DUP1 REVERT JUMPDEST PUSH1 0x0 DUP1 REVERT JUMPDEST PUSH1 0x0 DUP1 REVERT JUMPDEST PUSH1 0x0 DUP1 DUP4 PUSH1 0x1F DUP5 ADD SLT PUSH2 0x33A7 JUMPI PUSH2 0x33A6 PUSH2 0x3382 JUMP JUMPDEST JUMPDEST DUP3 CALLDATALOAD SWAP1 POP PUSH8 0xFFFFFFFFFFFFFFFF DUP2 GT ISZERO PUSH2 0x33C4 JUMPI PUSH2 0x33C3 PUSH2 0x3387 JUMP JUMPDEST JUMPDEST PUSH1 0x20 DUP4 ADD SWAP2 POP DUP4 PUSH1 0x1 DUP3 MUL DUP4 ADD GT ISZERO PUSH2 0x33E0 JUMPI PUSH2 0x33DF PUSH2 0x338C JUMP JUMPDEST JUMPDEST SWAP3 POP SWAP3 SWAP1 POP JUMP JUMPDEST PUSH1 0x0 DUP1 PUSH1 0x0 PUSH1 0x40 DUP5 DUP7 SUB SLT ISZERO PUSH2 0x3400 JUMPI PUSH2 0x33FF PUSH2 0x3291 JUMP JUMPDEST JUMPDEST PUSH1 0x0 PUSH2 0x340E DUP7 DUP3 DUP8 ADD PUSH2 0x336D JUMP JUMPDEST SWAP4 POP POP PUSH1 0x20 DUP5 ADD CALLDATALOAD PUSH8 0xFFFFFFFFFFFFFFFF DUP2 GT ISZERO PUSH2 0x342F JUMPI PUSH2 0x342E PUSH2 0x3296 JUMP JUMPDEST JUMPDEST PUSH2 0x343B DUP7 DUP3 DUP8 ADD PUSH2 0x3391 JUMP JUMPDEST SWAP3 POP SWAP3 POP POP SWAP3 POP SWAP3 POP SWAP3 JUMP JUMPDEST PUSH1 0x0 PUSH20 0xFFFFFFFFFFFFFFFFFFFFFFFFFFFFFFFFFFFFFFFF DUP3 AND SWAP1 POP SWAP2 SWAP1 POP JUMP JUMPDEST PUSH1 0x0 PUSH2 0x3472 DUP3 PUSH2 0x3447 JUMP JUMPDEST SWAP1 POP SWAP2 SWAP1 POP JUMP JUMPDEST PUSH2 0x3482 DUP2 PUSH2 0x3467 JUMP JUMPDEST DUP3 MSTORE POP POP JUMP JUMPDEST PUSH1 0x0 PUSH1 0x20 DUP3 ADD SWAP1 POP PUSH2 0x349D PUSH1 0x0 DUP4 ADD DUP5 PUSH2 0x3479 JUMP JUMPDEST SWAP3 SWAP2 POP POP JUMP JUMPDEST PUSH2 0x34AC DUP2 PUSH2 0x3467 JUMP JUMPDEST DUP2 EQ PUSH2 0x34B7 JUMPI PUSH1 0x0 DUP1 REVERT JUMPDEST POP JUMP JUMPDEST PUSH1 0x0 DUP2 CALLDATALOAD SWAP1 POP PUSH2 0x34C9 DUP2 PUSH2 0x34A3 JUMP JUMPDEST SWAP3 SWAP2 POP POP JUMP JUMPDEST PUSH1 0x0 PUSH1 0x20 DUP3 DUP5 SUB SLT ISZERO PUSH2 0x34E5 JUMPI PUSH2 0x34E4 PUSH2 0x3291 JUMP JUMPDEST JUMPDEST PUSH1 0x0 PUSH2 0x34F3 DUP5 DUP3 DUP6 ADD PUSH2 0x34BA JUMP JUMPDEST SWAP2 POP POP SWAP3 SWAP2 POP POP JUMP JUMPDEST PUSH1 0x0 DUP2 SWAP1 POP SWAP2 SWAP1 POP JUMP JUMPDEST PUSH2 0x350F DUP2 PUSH2 0x34FC JUMP JUMPDEST DUP2 EQ PUSH2 0x351A JUMPI PUSH1 0x0 DUP1 REVERT JUMPDEST POP JUMP JUMPDEST PUSH1 0x0 DUP2 CALLDATALOAD SWAP1 POP PUSH2 0x352C DUP2 PUSH2 0x3506 JUMP JUMPDEST SWAP3 SWAP2 POP POP JUMP JUMPDEST PUSH1 0x0 PUSH1 0x20 DUP3 DUP5 SUB SLT ISZERO PUSH2 0x3548 JUMPI PUSH2 0x3547 PUSH2 0x3291 JUMP JUMPDEST JUMPDEST PUSH1 0x0 PUSH2 0x3556 DUP5 DUP3 DUP6 ADD PUSH2 0x351D JUMP JUMPDEST SWAP2 POP POP SWAP3 SWAP2 POP POP JUMP JUMPDEST PUSH2 0x3568 DUP2 PUSH2 0x34FC JUMP JUMPDEST DUP3 MSTORE POP POP JUMP JUMPDEST PUSH1 0x0 PUSH1 0x20 DUP3 ADD SWAP1 POP PUSH2 0x3583 PUSH1 0x0 DUP4 ADD DUP5 PUSH2 0x355F JUMP JUMPDEST SWAP3 SWAP2 POP POP JUMP JUMPDEST PUSH1 0x0 PUSH1 0x5 SWAP1 POP SWAP2 SWAP1 POP JUMP JUMPDEST PUSH1 0x0 DUP2 SWAP1 POP SWAP3 SWAP2 POP POP JUMP JUMPDEST PUSH1 0x0 DUP2 SWAP1 POP SWAP2 SWAP1 POP JUMP JUMPDEST PUSH1 0x0 DUP2 MLOAD SWAP1 POP SWAP2 SWAP1 POP JUMP JUMPDEST PUSH1 0x0 DUP3 DUP3 MSTORE PUSH1 0x20 DUP3 ADD SWAP1 POP SWAP3 SWAP2 POP POP JUMP JUMPDEST PUSH1 0x0 JUMPDEST DUP4 DUP2 LT ISZERO PUSH2 0x35E3 JUMPI DUP1 DUP3 ADD MLOAD DUP2 DUP5 ADD MSTORE PUSH1 0x20 DUP2 ADD SWAP1 POP PUSH2 0x35C8 JUMP JUMPDEST PUSH1 0x0 DUP5 DUP5 ADD MSTORE POP POP POP POP JUMP JUMPDEST PUSH1 0x0 PUSH1 0x1F NOT PUSH1 0x1F DUP4 ADD AND SWAP1 POP SWAP2 SWAP1 POP JUMP JUMPDEST PUSH1 0x0 PUSH2 0x360B DUP3 PUSH2 0x35A9 JUMP JUMPDEST PUSH2 0x3615 DUP2 DUP6 PUSH2 0x35B4 JUMP JUMPDEST SWAP4 POP PUSH2 0x3625 DUP2 DUP6 PUSH1 0x20 DUP7 ADD PUSH2 0x35C5 JUMP JUMPDEST PUSH2 0x362E DUP2 PUSH2 0x35EF JUMP JUMPDEST DUP5 ADD SWAP2 POP POP SWAP3 SWAP2 POP POP JUMP JUMPDEST PUSH1 0x0 PUSH2 0x3645 DUP4 DUP4 PUSH2 0x3600 JUMP JUMPDEST SWAP1 POP SWAP3 SWAP2 POP POP JUMP JUMPDEST PUSH1 0x0 PUSH1 0x20 DUP3 ADD SWAP1 POP SWAP2 SWAP1 POP JUMP JUMPDEST PUSH1 0x0 PUSH2 0x3665 DUP3 PUSH2 0x3589 JUMP JUMPDEST PUSH2 0x366F DUP2 DUP6 PUSH2 0x3594 JUMP JUMPDEST SWAP4 POP DUP4 PUSH1 0x20 DUP3 MUL DUP6 ADD PUSH2 0x3681 DUP6 PUSH2 0x359F JUMP JUMPDEST DUP1 PUSH1 0x0 JUMPDEST DUP6 DUP2 LT ISZERO PUSH2 0x36BD JUMPI DUP5 DUP5 SUB DUP10 MSTORE DUP2 MLOAD PUSH2 0x369E DUP6 DUP3 PUSH2 0x3639 JUMP JUMPDEST SWAP5 POP PUSH2 0x36A9 DUP4 PUSH2 0x364D JUMP JUMPDEST SWAP3 POP PUSH1 0x20 DUP11 ADD SWAP10 POP POP PUSH1 0x1 DUP2 ADD SWAP1 POP PUSH2 0x3685 JUMP JUMPDEST POP DUP3 SWAP8 POP DUP8 SWAP6 POP POP POP POP POP POP SWAP3 SWAP2 POP POP JUMP JUMPDEST PUSH1 0x0 PUSH1 0x20 DUP3 ADD SWAP1 POP DUP2 DUP2 SUB PUSH1 0x0 DUP4 ADD MSTORE PUSH2 0x36E9 DUP2 DUP5 PUSH2 0x365A JUMP JUMPDEST SWAP1 POP SWAP3 SWAP2 POP POP JUMP JUMPDEST PUSH1 0x0 DUP1 PUSH1 0x40 DUP4 DUP6 SUB SLT ISZERO PUSH2 0x3708 JUMPI PUSH2 0x3707 PUSH2 0x3291 JUMP JUMPDEST JUMPDEST PUSH1 0x0 PUSH2 0x3716 DUP6 DUP3 DUP7 ADD PUSH2 0x351D JUMP JUMPDEST SWAP3 POP POP PUSH1 0x20 PUSH2 0x3727 DUP6 DUP3 DUP7 ADD PUSH2 0x34BA JUMP JUMPDEST SWAP2 POP POP SWAP3 POP SWAP3 SWAP1 POP JUMP JUMPDEST PUSH1 0x0 DUP1 DUP4 PUSH1 0x1F DUP5 ADD SLT PUSH2 0x3747 JUMPI PUSH2 0x3746 PUSH2 0x3382 JUMP JUMPDEST JUMPDEST DUP3 CALLDATALOAD SWAP1 POP PUSH8 0xFFFFFFFFFFFFFFFF DUP2 GT ISZERO PUSH2 0x3764 JUMPI PUSH2 0x3763 PUSH2 0x3387 JUMP JUMPDEST JUMPDEST PUSH1 0x20 DUP4 ADD SWAP2 POP DUP4 PUSH1 0x20 DUP3 MUL DUP4 ADD GT ISZERO PUSH2 0x3780 JUMPI PUSH2 0x377F PUSH2 0x338C JUMP JUMPDEST JUMPDEST SWAP3 POP SWAP3 SWAP1 POP JUMP JUMPDEST PUSH1 0x0 DUP1 PUSH1 0x20 DUP4 DUP6 SUB SLT ISZERO PUSH2 0x379E JUMPI PUSH2 0x379D PUSH2 0x3291 JUMP JUMPDEST JUMPDEST PUSH1 0x0 DUP4 ADD CALLDATALOAD PUSH8 0xFFFFFFFFFFFFFFFF DUP2 GT ISZERO PUSH2 0x37BC JUMPI PUSH2 0x37BB PUSH2 0x3296 JUMP JUMPDEST JUMPDEST PUSH2 0x37C8 DUP6 DUP3 DUP7 ADD PUSH2 0x3731 JUMP JUMPDEST SWAP3 POP SWAP3 POP POP SWAP3 POP SWAP3 SWAP1 POP JUMP JUMPDEST PUSH1 0x0 PUSH1 0x20 DUP3 DUP5 SUB SLT ISZERO PUSH2 0x37EA JUMPI PUSH2 0x37E9 PUSH2 0x3291 JUMP JUMPDEST JUMPDEST PUSH1 0x0 PUSH2 0x37F8 DUP5 DUP3 DUP6 ADD PUSH2 0x336D JUMP JUMPDEST SWAP2 POP POP SWAP3 SWAP2 POP POP JUMP JUMPDEST PUSH1 0x0 PUSH2 0x380C DUP3 PUSH2 0x35A9 JUMP JUMPDEST PUSH2 0x3816 DUP2 DUP6 PUSH2 0x3120 JUMP JUMPDEST SWAP4 POP PUSH2 0x3826 DUP2 DUP6 PUSH1 0x20 DUP7 ADD PUSH2 0x35C5 JUMP JUMPDEST PUSH2 0x382F DUP2 PUSH2 0x35EF JUMP JUMPDEST DUP5 ADD SWAP2 POP POP SWAP3 SWAP2 POP POP JUMP JUMPDEST PUSH1 0x0 PUSH1 0x20 DUP3 ADD SWAP1 POP DUP2 DUP2 SUB PUSH1 0x0 DUP4 ADD MSTORE PUSH2 0x3854 DUP2 DUP5 PUSH2 0x3801 JUMP JUMPDEST SWAP1 POP SWAP3 SWAP2 POP POP JUMP JUMPDEST PUSH1 0x0 DUP1 REVERT JUMPDEST PUSH32 0x4E487B7100000000000000000000000000000000000000000000000000000000 PUSH1 0x0 MSTORE PUSH1 0x41 PUSH1 0x4 MSTORE PUSH1 0x24 PUSH1 0x0 REVERT JUMPDEST PUSH2 0x3899 DUP3 PUSH2 0x35EF JUMP JUMPDEST DUP2 ADD DUP2 DUP2 LT PUSH8 0xFFFFFFFFFFFFFFFF DUP3 GT OR ISZERO PUSH2 0x38B8 JUMPI PUSH2 0x38B7 PUSH2 0x3861 JUMP JUMPDEST JUMPDEST DUP1 PUSH1 0x40 MSTORE POP POP POP JUMP JUMPDEST PUSH1 0x0 PUSH2 0x38CB PUSH2 0x3287 JUMP JUMPDEST SWAP1 POP PUSH2 0x38D7 DUP3 DUP3 PUSH2 0x3890 JUMP JUMPDEST SWAP2 SWAP1 POP JUMP JUMPDEST PUSH1 0x0 PUSH8 0xFFFFFFFFFFFFFFFF DUP3 GT ISZERO PUSH2 0x38F7 JUMPI PUSH2 0x38F6 PUSH2 0x3861 JUMP JUMPDEST JUMPDEST PUSH2 0x3900 DUP3 PUSH2 0x35EF JUMP JUMPDEST SWAP1 POP PUSH1 0x20 DUP2 ADD SWAP1 POP SWAP2 SWAP1 POP JUMP JUMPDEST DUP3 DUP2 DUP4 CALLDATACOPY PUSH1 0x0 DUP4 DUP4 ADD MSTORE POP POP POP JUMP JUMPDEST PUSH1 0x0 PUSH2 0x392F PUSH2 0x392A DUP5 PUSH2 0x38DC JUMP JUMPDEST PUSH2 0x38C1 JUMP JUMPDEST SWAP1 POP DUP3 DUP2 MSTORE PUSH1 0x20 DUP2 ADD DUP5 DUP5 DUP5 ADD GT ISZERO PUSH2 0x394B JUMPI PUSH2 0x394A PUSH2 0x385C JUMP JUMPDEST JUMPDEST PUSH2 0x3956 DUP5 DUP3 DUP6 PUSH2 0x390D JUMP JUMPDEST POP SWAP4 SWAP3 POP POP POP JUMP JUMPDEST PUSH1 0x0 DUP3 PUSH1 0x1F DUP4 ADD SLT PUSH2 0x3973 JUMPI PUSH2 0x3972 PUSH2 0x3382 JUMP JUMPDEST JUMPDEST DUP2 CALLDATALOAD PUSH2 0x3983 DUP5 DUP3 PUSH1 0x20 DUP7 ADD PUSH2 0x391C JUMP JUMPDEST SWAP2 POP POP SWAP3 SWAP2 POP POP JUMP JUMPDEST PUSH1 0x0 PUSH1 0x20 DUP3 DUP5 SUB SLT ISZERO PUSH2 0x39A2 JUMPI PUSH2 0x39A1 PUSH2 0x3291 JUMP JUMPDEST JUMPDEST PUSH1 0x0 DUP3 ADD CALLDATALOAD PUSH8 0xFFFFFFFFFFFFFFFF DUP2 GT ISZERO PUSH2 0x39C0 JUMPI PUSH2 0x39BF PUSH2 0x3296 JUMP JUMPDEST JUMPDEST PUSH2 0x39CC DUP5 DUP3 DUP6 ADD PUSH2 0x395E JUMP JUMPDEST SWAP2 POP POP SWAP3 SWAP2 POP POP JUMP JUMPDEST PUSH2 0x39DE DUP2 PUSH2 0x31C9 JUMP JUMPDEST DUP3 MSTORE POP POP JUMP JUMPDEST PUSH1 0x0 PUSH1 0x20 DUP3 ADD SWAP1 POP PUSH2 0x39F9 PUSH1 0x0 DUP4 ADD DUP5 PUSH2 0x39D5 JUMP JUMPDEST SWAP3 SWAP2 POP POP JUMP JUMPDEST PUSH1 0x0 DUP2 SWAP1 POP DUP3 PUSH1 0x20 PUSH1 0x5 MUL DUP3 ADD GT ISZERO PUSH2 0x3A1B JUMPI PUSH2 0x3A1A PUSH2 0x338C JUMP JUMPDEST JUMPDEST SWAP3 SWAP2 POP POP JUMP JUMPDEST PUSH1 0x0 DUP2 SWAP1 POP DUP3 PUSH1 0x20 PUSH1 0x5 MUL DUP3 ADD GT ISZERO PUSH2 0x3A3D JUMPI PUSH2 0x3A3C PUSH2 0x338C JUMP JUMPDEST JUMPDEST SWAP3 SWAP2 POP POP JUMP JUMPDEST PUSH1 0x0 DUP2 SWAP1 POP DUP3 PUSH1 0x20 PUSH1 0x3 MUL DUP3 ADD GT ISZERO PUSH2 0x3A5F JUMPI PUSH2 0x3A5E PUSH2 0x338C JUMP JUMPDEST JUMPDEST SWAP3 SWAP2 POP POP JUMP JUMPDEST PUSH1 0x0 DUP2 SWAP1 POP DUP3 PUSH1 0x20 PUSH1 0x2 MUL DUP3 ADD GT ISZERO PUSH2 0x3A81 JUMPI PUSH2 0x3A80 PUSH2 0x338C JUMP JUMPDEST JUMPDEST SWAP3 SWAP2 POP POP JUMP JUMPDEST PUSH1 0x0 DUP2 SWAP1 POP DUP3 PUSH1 0x20 PUSH1 0x2 MUL DUP3 ADD GT ISZERO PUSH2 0x3AA3 JUMPI PUSH2 0x3AA2 PUSH2 0x338C JUMP JUMPDEST JUMPDEST SWAP3 SWAP2 POP POP JUMP JUMPDEST PUSH1 0x0 DUP1 PUSH1 0x0 DUP1 PUSH1 0x0 DUP1 PUSH1 0x0 DUP1 PUSH1 0x0 DUP1 PUSH2 0x220 DUP12 DUP14 SUB SLT ISZERO PUSH2 0x3ACD JUMPI PUSH2 0x3ACC PUSH2 0x3291 JUMP JUMPDEST JUMPDEST PUSH1 0x0 PUSH2 0x3ADB DUP14 DUP3 DUP15 ADD PUSH2 0x34BA JUMP JUMPDEST SWAP11 POP POP PUSH1 0x20 DUP12 ADD CALLDATALOAD PUSH8 0xFFFFFFFFFFFFFFFF DUP2 GT ISZERO PUSH2 0x3AFC JUMPI PUSH2 0x3AFB PUSH2 0x3296 JUMP JUMPDEST JUMPDEST PUSH2 0x3B08 DUP14 DUP3 DUP15 ADD PUSH2 0x39FF JUMP JUMPDEST SWAP10 POP POP PUSH1 0x40 PUSH2 0x3B19 DUP14 DUP3 DUP15 ADD PUSH2 0x3A21 JUMP JUMPDEST SWAP9 POP POP PUSH1 0xE0 PUSH2 0x3B2A DUP14 DUP3 DUP15 ADD PUSH2 0x3A43 JUMP JUMPDEST SWAP8 POP POP PUSH2 0x140 PUSH2 0x3B3C DUP14 DUP3 DUP15 ADD PUSH2 0x34BA JUMP JUMPDEST SWAP7 POP POP PUSH2 0x160 PUSH2 0x3B4E DUP14 DUP3 DUP15 ADD PUSH2 0x34BA JUMP JUMPDEST SWAP6 POP POP PUSH2 0x180 PUSH2 0x3B60 DUP14 DUP3 DUP15 ADD PUSH2 0x34BA JUMP JUMPDEST SWAP5 POP POP PUSH2 0x1A0 PUSH2 0x3B72 DUP14 DUP3 DUP15 ADD PUSH2 0x34BA JUMP JUMPDEST SWAP4 POP POP PUSH2 0x1C0 DUP12 ADD CALLDATALOAD PUSH8 0xFFFFFFFFFFFFFFFF DUP2 GT ISZERO PUSH2 0x3B94 JUMPI PUSH2 0x3B93 PUSH2 0x3296 JUMP JUMPDEST JUMPDEST PUSH2 0x3BA0 DUP14 DUP3 DUP15 ADD PUSH2 0x3A65 JUMP JUMPDEST SWAP3 POP POP PUSH2 0x1E0 PUSH2 0x3BB2 DUP14 DUP3 DUP15 ADD PUSH2 0x3A87 JUMP JUMPDEST SWAP2 POP POP SWAP3 SWAP6 SWAP9 SWAP12 SWAP2 SWAP5 SWAP8 SWAP11 POP SWAP3 SWAP6 SWAP9 POP JUMP JUMPDEST PUSH1 0x0 DUP1 PUSH1 0x40 DUP4 DUP6 SUB SLT ISZERO PUSH2 0x3BDB JUMPI PUSH2 0x3BDA PUSH2 0x3291 JUMP JUMPDEST JUMPDEST PUSH1 0x0 PUSH2 0x3BE9 DUP6 DUP3 DUP7 ADD PUSH2 0x351D JUMP JUMPDEST SWAP3 POP POP PUSH1 0x20 PUSH2 0x3BFA DUP6 DUP3 DUP7 ADD PUSH2 0x336D JUMP JUMPDEST SWAP2 POP POP SWAP3 POP SWAP3 SWAP1 POP JUMP JUMPDEST PUSH32 0x4E487B7100000000000000000000000000000000000000000000000000000000 PUSH1 0x0 MSTORE PUSH1 0x11 PUSH1 0x4 MSTORE PUSH1 0x24 PUSH1 0x0 REVERT JUMPDEST PUSH1 0x0 PUSH2 0x3C3E DUP3 PUSH2 0x31C9 JUMP JUMPDEST SWAP2 POP PUSH2 0x3C49 DUP4 PUSH2 0x31C9 JUMP JUMPDEST SWAP3 POP DUP3 DUP3 ADD SWAP1 POP DUP1 DUP3 GT ISZERO PUSH2 0x3C61 JUMPI PUSH2 0x3C60 PUSH2 0x3C04 JUMP JUMPDEST JUMPDEST SWAP3 SWAP2 POP POP JUMP JUMPDEST PUSH32 0x4E487B7100000000000000000000000000000000000000000000000000000000 PUSH1 0x0 MSTORE PUSH1 0x32 PUSH1 0x4 MSTORE PUSH1 0x24 PUSH1 0x0 REVERT JUMPDEST PUSH1 0x0 PUSH2 0x3CA1 DUP3 PUSH2 0x31C9 JUMP JUMPDEST SWAP2 POP PUSH2 0x3CAC DUP4 PUSH2 0x31C9 JUMP JUMPDEST SWAP3 POP DUP3 DUP3 SUB SWAP1 POP DUP2 DUP2 GT ISZERO PUSH2 0x3CC4 JUMPI PUSH2 0x3CC3 PUSH2 0x3C04 JUMP JUMPDEST JUMPDEST SWAP3 SWAP2 POP POP JUMP JUMPDEST PUSH32 0x4E487B7100000000000000000000000000000000000000000000000000000000 PUSH1 0x0 MSTORE PUSH1 0x22 PUSH1 0x4 MSTORE PUSH1 0x24 PUSH1 0x0 REVERT JUMPDEST PUSH1 0x0 PUSH1 0x2 DUP3 DIV SWAP1 POP PUSH1 0x1 DUP3 AND DUP1 PUSH2 0x3D11 JUMPI PUSH1 0x7F DUP3 AND SWAP2 POP JUMPDEST PUSH1 0x20 DUP3 LT DUP2 SUB PUSH2 0x3D24 JUMPI PUSH2 0x3D23 PUSH2 0x3CCA JUMP JUMPDEST JUMPDEST POP SWAP2 SWAP1 POP JUMP JUMPDEST PUSH1 0x0 PUSH2 0x3D35 DUP3 PUSH2 0x31C9 JUMP JUMPDEST SWAP2 POP PUSH32 0xFFFFFFFFFFFFFFFFFFFFFFFFFFFFFFFFFFFFFFFFFFFFFFFFFFFFFFFFFFFFFFFF DUP3 SUB PUSH2 0x3D67 JUMPI PUSH2 0x3D66 PUSH2 0x3C04 JUMP JUMPDEST JUMPDEST PUSH1 0x1 DUP3 ADD SWAP1 POP SWAP2 SWAP1 POP JUMP JUMPDEST PUSH1 0x0 PUSH2 0x3D7E DUP4 DUP6 PUSH2 0x30B4 JUMP JUMPDEST SWAP4 POP PUSH2 0x3D8B DUP4 DUP6 DUP5 PUSH2 0x390D JUMP JUMPDEST DUP3 DUP5 ADD SWAP1 POP SWAP4 SWAP3 POP POP POP JUMP JUMPDEST PUSH1 0x0 PUSH2 0x3DA4 DUP3 DUP5 DUP7 PUSH2 0x3D72 JUMP JUMPDEST SWAP2 POP DUP2 SWAP1 POP SWAP4 SWAP3 POP POP POP JUMP JUMPDEST PUSH1 0x0 PUSH2 0x3DBC DUP4 DUP6 PUSH2 0x3120 JUMP JUMPDEST SWAP4 POP PUSH2 0x3DC9 DUP4 DUP6 DUP5 PUSH2 0x390D JUMP JUMPDEST PUSH2 0x3DD2 DUP4 PUSH2 0x35EF JUMP JUMPDEST DUP5 ADD SWAP1 POP SWAP4 SWAP3 POP POP POP JUMP JUMPDEST PUSH1 0x0 PUSH1 0x80 DUP3 ADD SWAP1 POP PUSH2 0x3DF2 PUSH1 0x0 DUP4 ADD DUP9 PUSH2 0x3479 JUMP JUMPDEST DUP2 DUP2 SUB PUSH1 0x20 DUP4 ADD MSTORE PUSH2 0x3E05 DUP2 DUP7 DUP9 PUSH2 0x3DB0 JUMP JUMPDEST SWAP1 POP PUSH2 0x3E14 PUSH1 0x40 DUP4 ADD DUP6 PUSH2 0x39D5 JUMP JUMPDEST PUSH2 0x3E21 PUSH1 0x60 DUP4 ADD DUP5 PUSH2 0x3479 JUMP JUMPDEST SWAP7 SWAP6 POP POP POP POP POP POP JUMP JUMPDEST PUSH1 0x0 DUP1 REVERT JUMPDEST PUSH1 0x0 DUP1 REVERT JUMPDEST PUSH1 0x0 DUP1 REVERT JUMPDEST PUSH1 0x0 DUP3 CALLDATALOAD PUSH1 0x1 PUSH1 0x60 SUB DUP4 CALLDATASIZE SUB SUB DUP2 SLT PUSH2 0x3E56 JUMPI PUSH2 0x3E55 PUSH2 0x3E2B JUMP JUMPDEST JUMPDEST DUP1 DUP4 ADD SWAP2 POP POP SWAP3 SWAP2 POP POP JUMP JUMPDEST PUSH1 0x0 DUP3 CALLDATALOAD PUSH1 0x1 PUSH1 0xA0 SUB DUP4 CALLDATASIZE SUB SUB DUP2 SLT PUSH2 0x3E7E JUMPI PUSH2 0x3E7D PUSH2 0x3E2B JUMP JUMPDEST JUMPDEST DUP1 DUP4 ADD SWAP2 POP POP SWAP3 SWAP2 POP POP JUMP JUMPDEST PUSH1 0x0 DUP1 REVERT JUMPDEST PUSH1 0x0 DUP3 CALLDATALOAD PUSH1 0x1 PUSH1 0xA0 SUB DUP4 CALLDATASIZE SUB SUB DUP2 SLT PUSH2 0x3EAB JUMPI PUSH2 0x3EAA PUSH2 0x3E8A JUMP JUMPDEST JUMPDEST DUP3 DUP2 ADD SWAP2 POP POP SWAP3 SWAP2 POP POP JUMP JUMPDEST PUSH1 0x0 DUP1 REVERT JUMPDEST PUSH1 0x0 DUP1 REVERT JUMPDEST PUSH1 0x0 DUP1 DUP4 CALLDATALOAD PUSH1 0x1 PUSH1 0x20 SUB DUP5 CALLDATASIZE SUB SUB DUP2 SLT PUSH2 0x3EDE JUMPI PUSH2 0x3EDD PUSH2 0x3E8A JUMP JUMPDEST JUMPDEST DUP4 DUP2 ADD SWAP3 POP DUP3 CALLDATALOAD SWAP2 POP PUSH1 0x20 DUP4 ADD SWAP3 POP PUSH8 0xFFFFFFFFFFFFFFFF DUP3 GT ISZERO PUSH2 0x3F06 JUMPI PUSH2 0x3F05 PUSH2 0x3EB7 JUMP JUMPDEST JUMPDEST PUSH1 0x1 DUP3 MUL CALLDATASIZE SUB DUP4 SGT ISZERO PUSH2 0x3F1C JUMPI PUSH2 0x3F1B PUSH2 0x3EBC JUMP JUMPDEST JUMPDEST POP SWAP3 POP SWAP3 SWAP1 POP JUMP JUMPDEST PUSH1 0x0 DUP3 DUP3 MSTORE PUSH1 0x20 DUP3 ADD SWAP1 POP SWAP3 SWAP2 POP POP JUMP JUMPDEST PUSH1 0x0 PUSH2 0x3F41 DUP4 DUP6 PUSH2 0x3F24 JUMP JUMPDEST SWAP4 POP PUSH2 0x3F4E DUP4 DUP6 DUP5 PUSH2 0x390D JUMP JUMPDEST PUSH2 0x3F57 DUP4 PUSH2 0x35EF JUMP JUMPDEST DUP5 ADD SWAP1 POP SWAP4 SWAP3 POP POP POP JUMP JUMPDEST PUSH1 0x0 PUSH2 0x3F71 PUSH1 0x20 DUP5 ADD DUP5 PUSH2 0x34BA JUMP JUMPDEST SWAP1 POP SWAP3 SWAP2 POP POP JUMP JUMPDEST PUSH2 0x3F82 DUP2 PUSH2 0x3467 JUMP JUMPDEST DUP3 MSTORE POP POP JUMP JUMPDEST PUSH1 0x0 PUSH2 0x3F97 PUSH1 0x20 DUP5 ADD DUP5 PUSH2 0x336D JUMP JUMPDEST SWAP1 POP SWAP3 SWAP2 POP POP JUMP JUMPDEST PUSH1 0x0 PUSH1 0xA0 DUP4 ADD PUSH2 0x3FB2 PUSH1 0x0 DUP5 ADD DUP5 PUSH2 0x3EC1 JUMP JUMPDEST DUP6 DUP4 SUB PUSH1 0x0 DUP8 ADD MSTORE PUSH2 0x3FC5 DUP4 DUP3 DUP5 PUSH2 0x3F35 JUMP JUMPDEST SWAP3 POP POP POP PUSH2 0x3FD6 PUSH1 0x20 DUP5 ADD DUP5 PUSH2 0x3F62 JUMP JUMPDEST PUSH2 0x3FE3 PUSH1 0x20 DUP7 ADD DUP3 PUSH2 0x3F79 JUMP JUMPDEST POP PUSH2 0x3FF1 PUSH1 0x40 DUP5 ADD DUP5 PUSH2 0x3F88 JUMP JUMPDEST PUSH2 0x3FFE PUSH1 0x40 DUP7 ADD DUP3 PUSH2 0x31D3 JUMP JUMPDEST POP PUSH2 0x400C PUSH1 0x60 DUP5 ADD DUP5 PUSH2 0x3F88 JUMP JUMPDEST PUSH2 0x4019 PUSH1 0x60 DUP7 ADD DUP3 PUSH2 0x31D3 JUMP JUMPDEST POP PUSH2 0x4027 PUSH1 0x80 DUP5 ADD DUP5 PUSH2 0x3F88 JUMP JUMPDEST PUSH2 0x4034 PUSH1 0x80 DUP7 ADD DUP3 PUSH2 0x31D3 JUMP JUMPDEST POP DUP1 SWAP2 POP POP SWAP3 SWAP2 POP POP JUMP JUMPDEST PUSH1 0x0 PUSH1 0x60 DUP4 ADD PUSH2 0x4052 PUSH1 0x0 DUP5 ADD DUP5 PUSH2 0x3E8F JUMP JUMPDEST DUP5 DUP3 SUB PUSH1 0x0 DUP7 ADD MSTORE PUSH2 0x4064 DUP3 DUP3 PUSH2 0x3F9F JUMP JUMPDEST SWAP2 POP POP PUSH2 0x4074 PUSH1 0x20 DUP5 ADD DUP5 PUSH2 0x3F62 JUMP JUMPDEST PUSH2 0x4081 PUSH1 0x20 DUP7 ADD DUP3 PUSH2 0x3F79 JUMP JUMPDEST POP PUSH2 0x408F PUSH1 0x40 DUP5 ADD DUP5 PUSH2 0x3F62 JUMP JUMPDEST PUSH2 0x409C PUSH1 0x40 DUP7 ADD DUP3 PUSH2 0x3F79 JUMP JUMPDEST POP DUP1 SWAP2 POP POP SWAP3 SWAP2 POP POP JUMP JUMPDEST PUSH1 0x0 PUSH1 0x40 DUP3 ADD SWAP1 POP PUSH2 0x40BC PUSH1 0x0 DUP4 ADD DUP6 PUSH2 0x3479 JUMP JUMPDEST DUP2 DUP2 SUB PUSH1 0x20 DUP4 ADD MSTORE PUSH2 0x40CE DUP2 DUP5 PUSH2 0x403F JUMP JUMPDEST SWAP1 POP SWAP4 SWAP3 POP POP POP JUMP JUMPDEST PUSH1 0x0 DUP2 MLOAD SWAP1 POP PUSH2 0x40E6 DUP2 PUSH2 0x3356 JUMP JUMPDEST SWAP3 SWAP2 POP POP JUMP JUMPDEST PUSH1 0x0 PUSH1 0x20 DUP3 DUP5 SUB SLT ISZERO PUSH2 0x4102 JUMPI PUSH2 0x4101 PUSH2 0x3291 JUMP JUMPDEST JUMPDEST PUSH1 0x0 PUSH2 0x4110 DUP5 DUP3 DUP6 ADD PUSH2 0x40D7 JUMP JUMPDEST SWAP2 POP POP SWAP3 SWAP2 POP POP JUMP JUMPDEST PUSH32 0x726F757465720000000000000000000000000000000000000000000000000000 PUSH1 0x0 DUP3 ADD MSTORE POP JUMP JUMPDEST PUSH1 0x0 PUSH2 0x414F PUSH1 0x6 DUP4 PUSH2 0x30B4 JUMP JUMPDEST SWAP2 POP PUSH2 0x415A DUP3 PUSH2 0x4119 JUMP JUMPDEST PUSH1 0x6 DUP3 ADD SWAP1 POP SWAP2 SWAP1 POP JUMP JUMPDEST PUSH1 0x0 PUSH2 0x4170 DUP3 PUSH2 0x4142 JUMP JUMPDEST SWAP2 POP DUP2 SWAP1 POP SWAP2 SWAP1 POP JUMP JUMPDEST PUSH1 0x0 PUSH32 0xFF00000000000000000000000000000000000000000000000000000000000000 DUP3 AND SWAP1 POP SWAP2 SWAP1 POP JUMP JUMPDEST PUSH1 0x0 DUP2 SWAP1 POP SWAP2 SWAP1 POP JUMP JUMPDEST PUSH2 0x41C1 PUSH2 0x41BC DUP3 PUSH2 0x417A JUMP JUMPDEST PUSH2 0x41A6 JUMP JUMPDEST DUP3 MSTORE POP POP JUMP JUMPDEST PUSH1 0x0 PUSH2 0x41D3 DUP3 DUP5 PUSH2 0x41B0 JUMP JUMPDEST PUSH1 0x1 DUP3 ADD SWAP2 POP DUP2 SWAP1 POP SWAP3 SWAP2 POP POP JUMP JUMPDEST PUSH1 0x0 DUP1 DUP4 CALLDATALOAD PUSH1 0x1 PUSH1 0x20 SUB DUP5 CALLDATASIZE SUB SUB DUP2 SLT PUSH2 0x41FF JUMPI PUSH2 0x41FE PUSH2 0x3E2B JUMP JUMPDEST JUMPDEST DUP1 DUP5 ADD SWAP3 POP DUP3 CALLDATALOAD SWAP2 POP PUSH8 0xFFFFFFFFFFFFFFFF DUP3 GT ISZERO PUSH2 0x4221 JUMPI PUSH2 0x4220 PUSH2 0x3E30 JUMP JUMPDEST JUMPDEST PUSH1 0x20 DUP4 ADD SWAP3 POP PUSH1 0x1 DUP3 MUL CALLDATASIZE SUB DUP4 SGT ISZERO PUSH2 0x423D JUMPI PUSH2 0x423C PUSH2 0x3E35 JUMP JUMPDEST JUMPDEST POP SWAP3 POP SWAP3 SWAP1 POP JUMP JUMPDEST PUSH1 0x0 DUP3 DUP3 MSTORE PUSH1 0x20 DUP3 ADD SWAP1 POP SWAP3 SWAP2 POP POP JUMP JUMPDEST PUSH1 0x0 PUSH2 0x4262 DUP4 DUP6 PUSH2 0x4245 JUMP JUMPDEST SWAP4 POP PUSH2 0x426F DUP4 DUP6 DUP5 PUSH2 0x390D JUMP JUMPDEST PUSH2 0x4278 DUP4 PUSH2 0x35EF JUMP JUMPDEST DUP5 ADD SWAP1 POP SWAP4 SWAP3 POP POP POP JUMP JUMPDEST PUSH1 0x0 PUSH1 0xA0 DUP3 ADD SWAP1 POP PUSH2 0x4298 PUSH1 0x0 DUP4 ADD DUP10 PUSH2 0x3479 JUMP JUMPDEST PUSH2 0x42A5 PUSH1 0x20 DUP4 ADD DUP9 PUSH2 0x39D5 JUMP JUMPDEST PUSH2 0x42B2 PUSH1 0x40 DUP4 ADD DUP8 PUSH2 0x39D5 JUMP JUMPDEST DUP2 DUP2 SUB PUSH1 0x60 DUP4 ADD MSTORE PUSH2 0x42C5 DUP2 DUP6 DUP8 PUSH2 0x4256 JUMP JUMPDEST SWAP1 POP PUSH2 0x42D4 PUSH1 0x80 DUP4 ADD DUP5 PUSH2 0x332C JUMP JUMPDEST SWAP8 SWAP7 POP POP POP POP POP POP POP JUMP JUMPDEST PUSH1 0x0 DUP2 MLOAD SWAP1 POP SWAP2 SWAP1 POP JUMP JUMPDEST PUSH1 0x0 PUSH2 0x42F5 DUP3 PUSH2 0x42DF JUMP JUMPDEST PUSH2 0x42FF DUP2 DUP6 PUSH2 0x4245 JUMP JUMPDEST SWAP4 POP PUSH2 0x430F DUP2 DUP6 PUSH1 0x20 DUP7 ADD PUSH2 0x35C5 JUMP JUMPDEST PUSH2 0x4318 DUP2 PUSH2 0x35EF JUMP JUMPDEST DUP5 ADD SWAP2 POP POP SWAP3 SWAP2 POP POP JUMP JUMPDEST PUSH1 0x0 DUP2 MLOAD SWAP1 POP SWAP2 SWAP1 POP JUMP JUMPDEST PUSH1 0x0 DUP3 DUP3 MSTORE PUSH1 0x20 DUP3 ADD SWAP1 POP SWAP3 SWAP2 POP POP JUMP JUMPDEST PUSH1 0x0 DUP2 SWAP1 POP PUSH1 0x20 DUP3 ADD SWAP1 POP SWAP2 SWAP1 POP JUMP JUMPDEST PUSH1 0x0 PUSH2 0x435A DUP3 PUSH2 0x42DF JUMP JUMPDEST PUSH2 0x4364 DUP2 DUP6 PUSH2 0x3F24 JUMP JUMPDEST SWAP4 POP PUSH2 0x4374 DUP2 DUP6 PUSH1 0x20 DUP7 ADD PUSH2 0x35C5 JUMP JUMPDEST PUSH2 0x437D DUP2 PUSH2 0x35EF JUMP JUMPDEST DUP5 ADD SWAP2 POP POP SWAP3 SWAP2 POP POP JUMP JUMPDEST PUSH1 0x0 PUSH2 0x4394 DUP4 DUP4 PUSH2 0x434F JUMP JUMPDEST SWAP1 POP SWAP3 SWAP2 POP POP JUMP JUMPDEST PUSH1 0x0 PUSH1 0x20 DUP3 ADD SWAP1 POP SWAP2 SWAP1 POP JUMP JUMPDEST PUSH1 0x0 PUSH2 0x43B4 DUP3 PUSH2 0x4323 JUMP JUMPDEST PUSH2 0x43BE DUP2 DUP6 PUSH2 0x432E JUMP JUMPDEST SWAP4 POP DUP4 PUSH1 0x20 DUP3 MUL DUP6 ADD PUSH2 0x43D0 DUP6 PUSH2 0x433F JUMP JUMPDEST DUP1 PUSH1 0x0 JUMPDEST DUP6 DUP2 LT ISZERO PUSH2 0x440C JUMPI DUP5 DUP5 SUB DUP10 MSTORE DUP2 MLOAD PUSH2 0x43ED DUP6 DUP3 PUSH2 0x4388 JUMP JUMPDEST SWAP5 POP PUSH2 0x43F8 DUP4 PUSH2 0x439C JUMP JUMPDEST SWAP3 POP PUSH1 0x20 DUP11 ADD SWAP10 POP POP PUSH1 0x1 DUP2 ADD SWAP1 POP PUSH2 0x43D4 JUMP JUMPDEST POP DUP3 SWAP8 POP DUP8 SWAP6 POP POP POP POP POP POP SWAP3 SWAP2 POP POP JUMP JUMPDEST PUSH1 0x0 PUSH1 0x60 DUP3 ADD SWAP1 POP DUP2 DUP2 SUB PUSH1 0x0 DUP4 ADD MSTORE PUSH2 0x4438 DUP2 DUP7 PUSH2 0x42EA JUMP JUMPDEST SWAP1 POP DUP2 DUP2 SUB PUSH1 0x20 DUP4 ADD MSTORE PUSH2 0x444C DUP2 DUP6 PUSH2 0x43A9 JUMP JUMPDEST SWAP1 POP PUSH2 0x445B PUSH1 0x40 DUP4 ADD DUP5 PUSH2 0x39D5 JUMP JUMPDEST SWAP5 SWAP4 POP POP POP POP JUMP JUMPDEST PUSH1 0x0 DUP2 PUSH1 0xE0 SHR SWAP1 POP SWAP2 SWAP1 POP JUMP JUMPDEST PUSH1 0x0 PUSH1 0x3 RETURNDATASIZE GT ISZERO PUSH2 0x448F JUMPI PUSH1 0x4 PUSH1 0x0 DUP1 RETURNDATACOPY PUSH2 0x448C PUSH1 0x0 MLOAD PUSH2 0x4463 JUMP JUMPDEST SWAP1 POP JUMPDEST SWAP1 JUMP JUMPDEST PUSH1 0x0 PUSH1 0x44 RETURNDATASIZE LT PUSH2 0x451F JUMPI PUSH2 0x44A4 PUSH2 0x3287 JUMP JUMPDEST PUSH1 0x4 RETURNDATASIZE SUB PUSH1 0x4 DUP3 RETURNDATACOPY DUP1 MLOAD RETURNDATASIZE PUSH1 0x24 DUP3 ADD GT PUSH8 0xFFFFFFFFFFFFFFFF DUP3 GT OR ISZERO PUSH2 0x44CC JUMPI POP POP PUSH2 0x451F JUMP JUMPDEST DUP1 DUP3 ADD DUP1 MLOAD PUSH8 0xFFFFFFFFFFFFFFFF DUP2 GT ISZERO PUSH2 0x44EA JUMPI POP POP POP POP PUSH2 0x451F JUMP JUMPDEST DUP1 PUSH1 0x20 DUP4 ADD ADD PUSH1 0x4 RETURNDATASIZE SUB DUP6 ADD DUP2 GT ISZERO PUSH2 0x4507 JUMPI POP POP POP POP POP PUSH2 0x451F JUMP JUMPDEST PUSH2 0x4516 DUP3 PUSH1 0x20 ADD DUP6 ADD DUP7 PUSH2 0x3890 JUMP JUMPDEST DUP3 SWAP6 POP POP POP POP POP POP JUMPDEST SWAP1 JUMP JUMPDEST PUSH1 0x0 PUSH1 0x60 DUP3 ADD SWAP1 POP PUSH2 0x4537 PUSH1 0x0 DUP4 ADD DUP7 PUSH2 0x39D5 JUMP JUMPDEST PUSH2 0x4544 PUSH1 0x20 DUP4 ADD DUP6 PUSH2 0x39D5 JUMP JUMPDEST DUP2 DUP2 SUB PUSH1 0x40 DUP4 ADD MSTORE PUSH2 0x4556 DUP2 DUP5 PUSH2 0x3801 JUMP JUMPDEST SWAP1 POP SWAP5 SWAP4 POP POP POP POP JUMP JUMPDEST PUSH32 0x416D6F756E744F75744D696E696D756D546F6F4C6F7700000000000000000000 PUSH1 0x0 DUP3 ADD MSTORE POP JUMP JUMPDEST PUSH1 0x0 PUSH2 0x4596 PUSH1 0x16 DUP4 PUSH2 0x3120 JUMP JUMPDEST SWAP2 POP PUSH2 0x45A1 DUP3 PUSH2 0x4560 JUMP JUMPDEST PUSH1 0x20 DUP3 ADD SWAP1 POP SWAP2 SWAP1 POP JUMP JUMPDEST PUSH1 0x0 PUSH1 0x60 DUP3 ADD SWAP1 POP PUSH2 0x45C1 PUSH1 0x0 DUP4 ADD DUP6 PUSH2 0x39D5 JUMP JUMPDEST PUSH2 0x45CE PUSH1 0x20 DUP4 ADD DUP5 PUSH2 0x39D5 JUMP JUMPDEST DUP2 DUP2 SUB PUSH1 0x40 DUP4 ADD MSTORE PUSH2 0x45DF DUP2 PUSH2 0x4589 JUMP JUMPDEST SWAP1 POP SWAP4 SWAP3 POP POP POP JUMP JUMPDEST PUSH1 0x0 PUSH1 0x80 DUP3 ADD SWAP1 POP PUSH2 0x45FD PUSH1 0x0 DUP4 ADD DUP8 PUSH2 0x3479 JUMP JUMPDEST PUSH2 0x460A PUSH1 0x20 DUP4 ADD DUP7 PUSH2 0x3479 JUMP JUMPDEST PUSH2 0x4617 PUSH1 0x40 DUP4 ADD DUP6 PUSH2 0x39D5 JUMP JUMPDEST PUSH2 0x4624 PUSH1 0x60 DUP4 ADD DUP5 PUSH2 0x39D5 JUMP JUMPDEST SWAP6 SWAP5 POP POP POP POP POP JUMP JUMPDEST PUSH1 0x0 PUSH2 0x4638 DUP3 PUSH2 0x35A9 JUMP JUMPDEST PUSH2 0x4642 DUP2 DUP6 PUSH2 0x30B4 JUMP JUMPDEST SWAP4 POP PUSH2 0x4652 DUP2 DUP6 PUSH1 0x20 DUP7 ADD PUSH2 0x35C5 JUMP JUMPDEST DUP1 DUP5 ADD SWAP2 POP POP SWAP3 SWAP2 POP POP JUMP JUMPDEST PUSH1 0x0 PUSH2 0x466A DUP3 DUP5 PUSH2 0x462D JUMP JUMPDEST SWAP2 POP DUP2 SWAP1 POP SWAP3 SWAP2 POP POP JUMP JUMPDEST PUSH32 0x416363657373436F6E74726F6C3A2063616E206F6E6C792072656E6F756E6365 PUSH1 0x0 DUP3 ADD MSTORE PUSH32 0x20726F6C657320666F722073656C660000000000000000000000000000000000 PUSH1 0x20 DUP3 ADD MSTORE POP JUMP JUMPDEST PUSH1 0x0 PUSH2 0x46D1 PUSH1 0x2F DUP4 PUSH2 0x3120 JUMP JUMPDEST SWAP2 POP PUSH2 0x46DC DUP3 PUSH2 0x4675 JUMP JUMPDEST PUSH1 0x40 DUP3 ADD SWAP1 POP SWAP2 SWAP1 POP JUMP JUMPDEST PUSH1 0x0 PUSH1 0x20 DUP3 ADD SWAP1 POP DUP2 DUP2 SUB PUSH1 0x0 DUP4 ADD MSTORE PUSH2 0x4700 DUP2 PUSH2 0x46C4 JUMP JUMPDEST SWAP1 POP SWAP2 SWAP1 POP JUMP JUMPDEST PUSH32 0x496E697469616C697A61626C653A20636F6E747261637420697320616C726561 PUSH1 0x0 DUP3 ADD MSTORE PUSH32 0x647920696E697469616C697A6564000000000000000000000000000000000000 PUSH1 0x20 DUP3 ADD MSTORE POP JUMP JUMPDEST PUSH1 0x0 PUSH2 0x4763 PUSH1 0x2E DUP4 PUSH2 0x3120 JUMP JUMPDEST SWAP2 POP PUSH2 0x476E DUP3 PUSH2 0x4707 JUMP JUMPDEST PUSH1 0x40 DUP3 ADD SWAP1 POP SWAP2 SWAP1 POP JUMP JUMPDEST PUSH1 0x0 PUSH1 0x20 DUP3 ADD SWAP1 POP DUP2 DUP2 SUB PUSH1 0x0 DUP4 ADD MSTORE PUSH2 0x4792 DUP2 PUSH2 0x4756 JUMP JUMPDEST SWAP1 POP SWAP2 SWAP1 POP JUMP JUMPDEST PUSH1 0x0 PUSH1 0x5 SWAP1 POP SWAP2 SWAP1 POP JUMP JUMPDEST PUSH1 0x0 DUP2 SWAP1 POP SWAP2 SWAP1 POP JUMP JUMPDEST PUSH1 0x0 PUSH2 0x47BA DUP4 DUP6 PUSH2 0x35B4 JUMP JUMPDEST SWAP4 POP PUSH2 0x47C7 DUP4 DUP6 DUP5 PUSH2 0x390D JUMP JUMPDEST PUSH2 0x47D0 DUP4 PUSH2 0x35EF JUMP JUMPDEST DUP5 ADD SWAP1 POP SWAP4 SWAP3 POP POP POP JUMP JUMPDEST PUSH1 0x0 PUSH2 0x47E8 DUP5 DUP5 DUP5 PUSH2 0x47AE JUMP JUMPDEST SWAP1 POP SWAP4 SWAP3 POP POP POP JUMP JUMPDEST PUSH1 0x0 DUP1 DUP4 CALLDATALOAD PUSH1 0x1 PUSH1 0x20 SUB DUP5 CALLDATASIZE SUB SUB DUP2 SLT PUSH2 0x480E JUMPI PUSH2 0x480D PUSH2 0x3E8A JUMP JUMPDEST JUMPDEST DUP4 DUP2 ADD SWAP3 POP DUP3 CALLDATALOAD SWAP2 POP PUSH1 0x20 DUP4 ADD SWAP3 POP PUSH8 0xFFFFFFFFFFFFFFFF DUP3 GT ISZERO PUSH2 0x4836 JUMPI PUSH2 0x4835 PUSH2 0x3EB7 JUMP JUMPDEST JUMPDEST PUSH1 0x1 DUP3 MUL CALLDATASIZE SUB DUP4 SGT ISZERO PUSH2 0x484C JUMPI PUSH2 0x484B PUSH2 0x3EBC JUMP JUMPDEST JUMPDEST POP SWAP3 POP SWAP3 SWAP1 POP JUMP JUMPDEST PUSH1 0x0 PUSH1 0x20 DUP3 ADD SWAP1 POP SWAP2 SWAP1 POP JUMP JUMPDEST PUSH1 0x0 PUSH2 0x486C DUP3 PUSH2 0x4799 JUMP JUMPDEST PUSH2 0x4876 DUP2 DUP6 PUSH2 0x3594 JUMP JUMPDEST SWAP4 POP DUP4 PUSH1 0x20 DUP3 MUL DUP6 ADD PUSH2 0x4888 DUP6 PUSH2 0x47A4 JUMP JUMPDEST DUP1 PUSH1 0x0 JUMPDEST DUP6 DUP2 LT ISZERO PUSH2 0x48CE JUMPI DUP5 DUP5 SUB DUP10 MSTORE PUSH2 0x48A3 DUP3 DUP5 PUSH2 0x47F1 JUMP JUMPDEST PUSH2 0x48AE DUP7 DUP3 DUP5 PUSH2 0x47DB JUMP JUMPDEST SWAP6 POP PUSH2 0x48B9 DUP5 PUSH2 0x4854 JUMP JUMPDEST SWAP4 POP PUSH1 0x20 DUP12 ADD SWAP11 POP POP POP PUSH1 0x1 DUP2 ADD SWAP1 POP PUSH2 0x488C JUMP JUMPDEST POP DUP3 SWAP8 POP DUP8 SWAP6 POP POP POP POP POP POP SWAP3 SWAP2 POP POP JUMP JUMPDEST PUSH1 0x0 PUSH1 0x5 SWAP1 POP SWAP2 SWAP1 POP JUMP JUMPDEST PUSH1 0x0 DUP2 SWAP1 POP SWAP3 SWAP2 POP POP JUMP JUMPDEST PUSH1 0x0 DUP2 SWAP1 POP SWAP2 SWAP1 POP JUMP JUMPDEST PUSH1 0x0 PUSH2 0x490C DUP4 DUP4 PUSH2 0x3F79 JUMP JUMPDEST PUSH1 0x20 DUP4 ADD SWAP1 POP SWAP3 SWAP2 POP POP JUMP JUMPDEST PUSH1 0x0 PUSH1 0x20 DUP3 ADD SWAP1 POP SWAP2 SWAP1 POP JUMP JUMPDEST PUSH2 0x492E DUP2 PUSH2 0x48E0 JUMP JUMPDEST PUSH2 0x4938 DUP2 DUP5 PUSH2 0x48EB JUMP JUMPDEST SWAP3 POP PUSH2 0x4943 DUP3 PUSH2 0x48F6 JUMP JUMPDEST DUP1 PUSH1 0x0 JUMPDEST DUP4 DUP2 LT ISZERO PUSH2 0x497C JUMPI PUSH2 0x4959 DUP3 DUP5 PUSH2 0x3F62 JUMP JUMPDEST PUSH2 0x4963 DUP8 DUP3 PUSH2 0x4900 JUMP JUMPDEST SWAP7 POP PUSH2 0x496E DUP4 PUSH2 0x4918 JUMP JUMPDEST SWAP3 POP POP PUSH1 0x1 DUP2 ADD SWAP1 POP PUSH2 0x4947 JUMP JUMPDEST POP POP POP POP POP POP JUMP JUMPDEST PUSH1 0x0 PUSH1 0x3 SWAP1 POP SWAP2 SWAP1 POP JUMP JUMPDEST PUSH1 0x0 DUP2 SWAP1 POP SWAP3 SWAP2 POP POP JUMP JUMPDEST PUSH1 0x0 DUP2 SWAP1 POP SWAP2 SWAP1 POP JUMP JUMPDEST PUSH1 0x0 PUSH1 0x20 DUP3 ADD SWAP1 POP SWAP2 SWAP1 POP JUMP JUMPDEST PUSH2 0x49BA DUP2 PUSH2 0x4984 JUMP JUMPDEST PUSH2 0x49C4 DUP2 DUP5 PUSH2 0x498F JUMP JUMPDEST SWAP3 POP PUSH2 0x49CF DUP3 PUSH2 0x499A JUMP JUMPDEST DUP1 PUSH1 0x0 JUMPDEST DUP4 DUP2 LT ISZERO PUSH2 0x4A08 JUMPI PUSH2 0x49E5 DUP3 DUP5 PUSH2 0x3F62 JUMP JUMPDEST PUSH2 0x49EF DUP8 DUP3 PUSH2 0x4900 JUMP JUMPDEST SWAP7 POP PUSH2 0x49FA DUP4 PUSH2 0x49A4 JUMP JUMPDEST SWAP3 POP POP PUSH1 0x1 DUP2 ADD SWAP1 POP PUSH2 0x49D3 JUMP JUMPDEST POP POP POP POP POP POP JUMP JUMPDEST PUSH1 0x0 PUSH1 0x2 SWAP1 POP SWAP2 SWAP1 POP JUMP JUMPDEST PUSH1 0x0 DUP2 SWAP1 POP SWAP3 SWAP2 POP POP JUMP JUMPDEST PUSH1 0x0 DUP2 SWAP1 POP SWAP2 SWAP1 POP JUMP JUMPDEST PUSH1 0x0 PUSH1 0x20 DUP3 ADD SWAP1 POP SWAP2 SWAP1 POP JUMP JUMPDEST PUSH1 0x0 PUSH2 0x4A48 DUP3 PUSH2 0x4A10 JUMP JUMPDEST PUSH2 0x4A52 DUP2 DUP6 PUSH2 0x4A1B JUMP JUMPDEST SWAP4 POP DUP4 PUSH1 0x20 DUP3 MUL DUP6 ADD PUSH2 0x4A64 DUP6 PUSH2 0x4A26 JUMP JUMPDEST DUP1 PUSH1 0x0 JUMPDEST DUP6 DUP2 LT ISZERO PUSH2 0x4AAA JUMPI DUP5 DUP5 SUB DUP10 MSTORE PUSH2 0x4A7F DUP3 DUP5 PUSH2 0x47F1 JUMP JUMPDEST PUSH2 0x4A8A DUP7 DUP3 DUP5 PUSH2 0x47DB JUMP JUMPDEST SWAP6 POP PUSH2 0x4A95 DUP5 PUSH2 0x4A30 JUMP JUMPDEST SWAP4 POP PUSH1 0x20 DUP12 ADD SWAP11 POP POP POP PUSH1 0x1 DUP2 ADD SWAP1 POP PUSH2 0x4A68 JUMP JUMPDEST POP DUP3 SWAP8 POP DUP8 SWAP6 POP POP POP POP POP POP SWAP3 SWAP2 POP POP JUMP JUMPDEST PUSH1 0x0 PUSH1 0x2 SWAP1 POP SWAP2 SWAP1 POP JUMP JUMPDEST PUSH1 0x0 DUP2 SWAP1 POP SWAP3 SWAP2 POP POP JUMP JUMPDEST PUSH1 0x0 DUP2 SWAP1 POP SWAP2 SWAP1 POP JUMP JUMPDEST PUSH1 0x0 PUSH1 0x20 DUP3 ADD SWAP1 POP SWAP2 SWAP1 POP JUMP JUMPDEST PUSH2 0x4AF2 DUP2 PUSH2 0x4ABC JUMP JUMPDEST PUSH2 0x4AFC DUP2 DUP5 PUSH2 0x4AC7 JUMP JUMPDEST SWAP3 POP PUSH2 0x4B07 DUP3 PUSH2 0x4AD2 JUMP JUMPDEST DUP1 PUSH1 0x0 JUMPDEST DUP4 DUP2 LT ISZERO PUSH2 0x4B40 JUMPI PUSH2 0x4B1D DUP3 DUP5 PUSH2 0x3F62 JUMP JUMPDEST PUSH2 0x4B27 DUP8 DUP3 PUSH2 0x4900 JUMP JUMPDEST SWAP7 POP PUSH2 0x4B32 DUP4 PUSH2 0x4ADC JUMP JUMPDEST SWAP3 POP POP PUSH1 0x1 DUP2 ADD SWAP1 POP PUSH2 0x4B0B JUMP JUMPDEST POP POP POP POP POP POP JUMP JUMPDEST PUSH1 0x0 PUSH2 0x200 DUP3 ADD SWAP1 POP DUP2 DUP2 SUB PUSH1 0x0 DUP4 ADD MSTORE PUSH2 0x4B63 DUP2 DUP13 PUSH2 0x4861 JUMP JUMPDEST SWAP1 POP PUSH2 0x4B72 PUSH1 0x20 DUP4 ADD DUP12 PUSH2 0x4925 JUMP JUMPDEST PUSH2 0x4B7F PUSH1 0xC0 DUP4 ADD DUP11 PUSH2 0x49B1 JUMP JUMPDEST PUSH2 0x4B8D PUSH2 0x120 DUP4 ADD DUP10 PUSH2 0x3479 JUMP JUMPDEST PUSH2 0x4B9B PUSH2 0x140 DUP4 ADD DUP9 PUSH2 0x3479 JUMP JUMPDEST PUSH2 0x4BA9 PUSH2 0x160 DUP4 ADD DUP8 PUSH2 0x3479 JUMP JUMPDEST PUSH2 0x4BB7 PUSH2 0x180 DUP4 ADD DUP7 PUSH2 0x3479 JUMP JUMPDEST DUP2 DUP2 SUB PUSH2 0x1A0 DUP4 ADD MSTORE PUSH2 0x4BCA DUP2 DUP6 PUSH2 0x4A3D JUMP JUMPDEST SWAP1 POP PUSH2 0x4BDA PUSH2 0x1C0 DUP4 ADD DUP5 PUSH2 0x4AE9 JUMP JUMPDEST SWAP11 SWAP10 POP POP POP POP POP POP POP POP POP POP JUMP JUMPDEST PUSH1 0x0 DUP1 DUP4 CALLDATALOAD PUSH1 0x1 PUSH1 0x20 SUB DUP5 CALLDATASIZE SUB SUB DUP2 SLT PUSH2 0x4C05 JUMPI PUSH2 0x4C04 PUSH2 0x3E2B JUMP JUMPDEST JUMPDEST DUP1 DUP5 ADD SWAP3 POP DUP3 CALLDATALOAD SWAP2 POP PUSH8 0xFFFFFFFFFFFFFFFF DUP3 GT ISZERO PUSH2 0x4C27 JUMPI PUSH2 0x4C26 PUSH2 0x3E30 JUMP JUMPDEST JUMPDEST PUSH1 0x20 DUP4 ADD SWAP3 POP PUSH1 0x1 DUP3 MUL CALLDATASIZE SUB DUP4 SGT ISZERO PUSH2 0x4C43 JUMPI PUSH2 0x4C42 PUSH2 0x3E35 JUMP JUMPDEST JUMPDEST POP SWAP3 POP SWAP3 SWAP1 POP JUMP JUMPDEST PUSH1 0x0 DUP3 SWAP1 POP SWAP3 SWAP2 POP POP JUMP JUMPDEST PUSH1 0x0 DUP2 SWAP1 POP DUP2 PUSH1 0x0 MSTORE PUSH1 0x20 PUSH1 0x0 KECCAK256 SWAP1 POP SWAP2 SWAP1 POP JUMP JUMPDEST PUSH1 0x0 PUSH1 0x20 PUSH1 0x1F DUP4 ADD DIV SWAP1 POP SWAP2 SWAP1 POP JUMP JUMPDEST PUSH1 0x0 DUP3 DUP3 SHL SWAP1 POP SWAP3 SWAP2 POP POP JUMP JUMPDEST PUSH1 0x0 PUSH1 0x8 DUP4 MUL PUSH2 0x4CB8 PUSH32 0xFFFFFFFFFFFFFFFFFFFFFFFFFFFFFFFFFFFFFFFFFFFFFFFFFFFFFFFFFFFFFFFF DUP3 PUSH2 0x4C7B JUMP JUMPDEST PUSH2 0x4CC2 DUP7 DUP4 PUSH2 0x4C7B JUMP JUMPDEST SWAP6 POP DUP1 NOT DUP5 AND SWAP4 POP DUP1 DUP7 AND DUP5 OR SWAP3 POP POP POP SWAP4 SWAP3 POP POP POP JUMP JUMPDEST PUSH1 0x0 DUP2 SWAP1 POP SWAP2 SWAP1 POP JUMP JUMPDEST PUSH1 0x0 PUSH2 0x4CFF PUSH2 0x4CFA PUSH2 0x4CF5 DUP5 PUSH2 0x31C9 JUMP JUMPDEST PUSH2 0x4CDA JUMP JUMPDEST PUSH2 0x31C9 JUMP JUMPDEST SWAP1 POP SWAP2 SWAP1 POP JUMP JUMPDEST PUSH1 0x0 DUP2 SWAP1 POP SWAP2 SWAP1 POP JUMP JUMPDEST PUSH2 0x4D19 DUP4 PUSH2 0x4CE4 JUMP JUMPDEST PUSH2 0x4D2D PUSH2 0x4D25 DUP3 PUSH2 0x4D06 JUMP JUMPDEST DUP5 DUP5 SLOAD PUSH2 0x4C88 JUMP JUMPDEST DUP3 SSTORE POP POP POP POP JUMP JUMPDEST PUSH1 0x0 SWAP1 JUMP JUMPDEST PUSH2 0x4D42 PUSH2 0x4D35 JUMP JUMPDEST PUSH2 0x4D4D DUP2 DUP5 DUP5 PUSH2 0x4D10 JUMP JUMPDEST POP POP POP JUMP JUMPDEST JUMPDEST DUP2 DUP2 LT ISZERO PUSH2 0x4D71 JUMPI PUSH2 0x4D66 PUSH1 0x0 DUP3 PUSH2 0x4D3A JUMP JUMPDEST PUSH1 0x1 DUP2 ADD SWAP1 POP PUSH2 0x4D53 JUMP JUMPDEST POP POP JUMP JUMPDEST PUSH1 0x1F DUP3 GT ISZERO PUSH2 0x4DB6 JUMPI PUSH2 0x4D87 DUP2 PUSH2 0x4C56 JUMP JUMPDEST PUSH2 0x4D90 DUP5 PUSH2 0x4C6B JUMP JUMPDEST DUP2 ADD PUSH1 0x20 DUP6 LT ISZERO PUSH2 0x4D9F JUMPI DUP2 SWAP1 POP JUMPDEST PUSH2 0x4DB3 PUSH2 0x4DAB DUP6 PUSH2 0x4C6B JUMP JUMPDEST DUP4 ADD DUP3 PUSH2 0x4D52 JUMP JUMPDEST POP POP JUMPDEST POP POP POP JUMP JUMPDEST PUSH1 0x0 DUP3 DUP3 SHR SWAP1 POP SWAP3 SWAP2 POP POP JUMP JUMPDEST PUSH1 0x0 PUSH2 0x4DD9 PUSH1 0x0 NOT DUP5 PUSH1 0x8 MUL PUSH2 0x4DBB JUMP JUMPDEST NOT DUP1 DUP4 AND SWAP2 POP POP SWAP3 SWAP2 POP POP JUMP JUMPDEST PUSH1 0x0 PUSH2 0x4DF2 DUP4 DUP4 PUSH2 0x4DC8 JUMP JUMPDEST SWAP2 POP DUP3 PUSH1 0x2 MUL DUP3 OR SWAP1 POP SWAP3 SWAP2 POP POP JUMP JUMPDEST PUSH2 0x4E0C DUP4 DUP4 PUSH2 0x4C4B JUMP JUMPDEST PUSH8 0xFFFFFFFFFFFFFFFF DUP2 GT ISZERO PUSH2 0x4E25 JUMPI PUSH2 0x4E24 PUSH2 0x3861 JUMP JUMPDEST JUMPDEST PUSH2 0x4E2F DUP3 SLOAD PUSH2 0x3CF9 JUMP JUMPDEST PUSH2 0x4E3A DUP3 DUP3 DUP6 PUSH2 0x4D75 JUMP JUMPDEST PUSH1 0x0 PUSH1 0x1F DUP4 GT PUSH1 0x1 DUP2 EQ PUSH2 0x4E69 JUMPI PUSH1 0x0 DUP5 ISZERO PUSH2 0x4E57 JUMPI DUP3 DUP8 ADD CALLDATALOAD SWAP1 POP JUMPDEST PUSH2 0x4E61 DUP6 DUP3 PUSH2 0x4DE6 JUMP JUMPDEST DUP7 SSTORE POP PUSH2 0x4EC9 JUMP JUMPDEST PUSH1 0x1F NOT DUP5 AND PUSH2 0x4E77 DUP7 PUSH2 0x4C56 JUMP JUMPDEST PUSH1 0x0 JUMPDEST DUP3 DUP2 LT ISZERO PUSH2 0x4E9F JUMPI DUP5 DUP10 ADD CALLDATALOAD DUP3 SSTORE PUSH1 0x1 DUP3 ADD SWAP2 POP PUSH1 0x20 DUP6 ADD SWAP5 POP PUSH1 0x20 DUP2 ADD SWAP1 POP PUSH2 0x4E7A JUMP JUMPDEST DUP7 DUP4 LT ISZERO PUSH2 0x4EBC JUMPI DUP5 DUP10 ADD CALLDATALOAD PUSH2 0x4EB8 PUSH1 0x1F DUP10 AND DUP3 PUSH2 0x4DC8 JUMP JUMPDEST DUP4 SSTORE POP JUMPDEST PUSH1 0x1 PUSH1 0x2 DUP9 MUL ADD DUP9 SSTORE POP POP POP JUMPDEST POP POP POP POP POP POP POP JUMP JUMPDEST PUSH1 0x0 DUP2 SLOAD PUSH2 0x4EDF DUP2 PUSH2 0x3CF9 JUMP JUMPDEST PUSH2 0x4EE9 DUP2 DUP7 PUSH2 0x30B4 JUMP JUMPDEST SWAP5 POP PUSH1 0x1 DUP3 AND PUSH1 0x0 DUP2 EQ PUSH2 0x4F04 JUMPI PUSH1 0x1 DUP2 EQ PUSH2 0x4F19 JUMPI PUSH2 0x4F4C JUMP JUMPDEST PUSH1 0xFF NOT DUP4 AND DUP7 MSTORE DUP2 ISZERO ISZERO DUP3 MUL DUP7 ADD SWAP4 POP PUSH2 0x4F4C JUMP JUMPDEST PUSH2 0x4F22 DUP6 PUSH2 0x4C56 JUMP JUMPDEST PUSH1 0x0 JUMPDEST DUP4 DUP2 LT ISZERO PUSH2 0x4F44 JUMPI DUP2 SLOAD DUP2 DUP10 ADD MSTORE PUSH1 0x1 DUP3 ADD SWAP2 POP PUSH1 0x20 DUP2 ADD SWAP1 POP PUSH2 0x4F25 JUMP JUMPDEST DUP4 DUP9 ADD SWAP6 POP POP POP JUMPDEST POP POP POP SWAP3 SWAP2 POP POP JUMP JUMPDEST PUSH1 0x0 PUSH2 0x4F61 DUP3 DUP5 PUSH2 0x4ED2 JUMP JUMPDEST SWAP2 POP DUP2 SWAP1 POP SWAP3 SWAP2 POP POP JUMP JUMPDEST PUSH32 0x7377617070657200000000000000000000000000000000000000000000000000 PUSH1 0x0 DUP3 ADD MSTORE POP JUMP JUMPDEST PUSH1 0x0 PUSH2 0x4FA2 PUSH1 0x7 DUP4 PUSH2 0x30B4 JUMP JUMPDEST SWAP2 POP PUSH2 0x4FAD DUP3 PUSH2 0x4F6C JUMP JUMPDEST PUSH1 0x7 DUP3 ADD SWAP1 POP SWAP2 SWAP1 POP JUMP JUMPDEST PUSH1 0x0 PUSH2 0x4FC3 DUP3 PUSH2 0x4F95 JUMP JUMPDEST SWAP2 POP DUP2 SWAP1 POP SWAP2 SWAP1 POP JUMP JUMPDEST PUSH1 0x0 PUSH2 0x220 DUP3 ADD SWAP1 POP PUSH2 0x4FE3 PUSH1 0x0 DUP4 ADD DUP14 PUSH2 0x3479 JUMP JUMPDEST DUP2 DUP2 SUB PUSH1 0x20 DUP4 ADD MSTORE PUSH2 0x4FF5 DUP2 DUP13 PUSH2 0x4861 JUMP JUMPDEST SWAP1 POP PUSH2 0x5004 PUSH1 0x40 DUP4 ADD DUP12 PUSH2 0x4925 JUMP JUMPDEST PUSH2 0x5011 PUSH1 0xE0 DUP4 ADD DUP11 PUSH2 0x49B1 JUMP JUMPDEST PUSH2 0x501F PUSH2 0x140 DUP4 ADD DUP10 PUSH2 0x3479 JUMP JUMPDEST PUSH2 0x502D PUSH2 0x160 DUP4 ADD DUP9 PUSH2 0x3479 JUMP JUMPDEST PUSH2 0x503B PUSH2 0x180 DUP4 ADD DUP8 PUSH2 0x3479 JUMP JUMPDEST PUSH2 0x5049 PUSH2 0x1A0 DUP4 ADD DUP7 PUSH2 0x3479 JUMP JUMPDEST DUP2 DUP2 SUB PUSH2 0x1C0 DUP4 ADD MSTORE PUSH2 0x505C DUP2 DUP6 PUSH2 0x4A3D JUMP JUMPDEST SWAP1 POP PUSH2 0x506C PUSH2 0x1E0 DUP4 ADD DUP5 PUSH2 0x4AE9 JUMP JUMPDEST SWAP12 SWAP11 POP POP POP POP POP POP POP POP POP POP POP JUMP JUMPDEST PUSH1 0x0 DUP2 SWAP1 POP SWAP2 SWAP1 POP JUMP JUMPDEST PUSH1 0x0 PUSH1 0xFF DUP3 AND SWAP1 POP SWAP2 SWAP1 POP JUMP JUMPDEST PUSH1 0x0 PUSH2 0x50AD PUSH2 0x50A8 PUSH2 0x50A3 DUP5 PUSH2 0x507B JUMP JUMPDEST PUSH2 0x4CDA JUMP JUMPDEST PUSH2 0x5085 JUMP JUMPDEST SWAP1 POP SWAP2 SWAP1 POP JUMP JUMPDEST PUSH2 0x50BD DUP2 PUSH2 0x5092 JUMP JUMPDEST DUP3 MSTORE POP POP JUMP JUMPDEST PUSH1 0x0 PUSH1 0x20 DUP3 ADD SWAP1 POP PUSH2 0x50D8 PUSH1 0x0 DUP4 ADD DUP5 PUSH2 0x50B4 JUMP JUMPDEST SWAP3 SWAP2 POP POP JUMP JUMPDEST PUSH1 0x0 PUSH1 0x60 DUP3 ADD SWAP1 POP PUSH2 0x50F3 PUSH1 0x0 DUP4 ADD DUP8 PUSH2 0x3479 JUMP JUMPDEST DUP2 DUP2 SUB PUSH1 0x20 DUP4 ADD MSTORE PUSH2 0x5106 DUP2 DUP6 DUP8 PUSH2 0x3DB0 JUMP JUMPDEST SWAP1 POP PUSH2 0x5115 PUSH1 0x40 DUP4 ADD DUP5 PUSH2 0x39D5 JUMP JUMPDEST SWAP6 SWAP5 POP POP POP POP POP JUMP JUMPDEST PUSH32 0x5265656E7472616E637947756172643A207265656E7472616E742063616C6C00 PUSH1 0x0 DUP3 ADD MSTORE POP JUMP JUMPDEST PUSH1 0x0 PUSH2 0x5154 PUSH1 0x1F DUP4 PUSH2 0x3120 JUMP JUMPDEST SWAP2 POP PUSH2 0x515F DUP3 PUSH2 0x511E JUMP JUMPDEST PUSH1 0x20 DUP3 ADD SWAP1 POP SWAP2 SWAP1 POP JUMP JUMPDEST PUSH1 0x0 PUSH1 0x20 DUP3 ADD SWAP1 POP DUP2 DUP2 SUB PUSH1 0x0 DUP4 ADD MSTORE PUSH2 0x5183 DUP2 PUSH2 0x5147 JUMP JUMPDEST SWAP1 POP SWAP2 SWAP1 POP JUMP JUMPDEST PUSH1 0x0 PUSH1 0x40 DUP3 ADD SWAP1 POP PUSH2 0x519F PUSH1 0x0 DUP4 ADD DUP6 PUSH2 0x3479 JUMP JUMPDEST PUSH2 0x51AC PUSH1 0x20 DUP4 ADD DUP5 PUSH2 0x39D5 JUMP JUMPDEST SWAP4 SWAP3 POP POP POP JUMP JUMPDEST PUSH32 0x496E697469616C697A61626C653A20636F6E7472616374206973206E6F742069 PUSH1 0x0 DUP3 ADD MSTORE PUSH32 0x6E697469616C697A696E67000000000000000000000000000000000000000000 PUSH1 0x20 DUP3 ADD MSTORE POP JUMP JUMPDEST PUSH1 0x0 PUSH2 0x520F PUSH1 0x2B DUP4 PUSH2 0x3120 JUMP JUMPDEST SWAP2 POP PUSH2 0x521A DUP3 PUSH2 0x51B3 JUMP JUMPDEST PUSH1 0x40 DUP3 ADD SWAP1 POP SWAP2 SWAP1 POP JUMP JUMPDEST PUSH1 0x0 PUSH1 0x20 DUP3 ADD SWAP1 POP DUP2 DUP2 SUB PUSH1 0x0 DUP4 ADD MSTORE PUSH2 0x523E DUP2 PUSH2 0x5202 JUMP JUMPDEST SWAP1 POP SWAP2 SWAP1 POP JUMP JUMPDEST PUSH32 0x416363657373436F6E74726F6C3A206163636F756E7420000000000000000000 PUSH1 0x0 DUP3 ADD MSTORE POP JUMP JUMPDEST PUSH1 0x0 PUSH2 0x527B PUSH1 0x17 DUP4 PUSH2 0x30B4 JUMP JUMPDEST SWAP2 POP PUSH2 0x5286 DUP3 PUSH2 0x5245 JUMP JUMPDEST PUSH1 0x17 DUP3 ADD SWAP1 POP SWAP2 SWAP1 POP JUMP JUMPDEST PUSH32 0x206973206D697373696E6720726F6C6520000000000000000000000000000000 PUSH1 0x0 DUP3 ADD MSTORE POP JUMP JUMPDEST PUSH1 0x0 PUSH2 0x52C7 PUSH1 0x11 DUP4 PUSH2 0x30B4 JUMP JUMPDEST SWAP2 POP PUSH2 0x52D2 DUP3 PUSH2 0x5291 JUMP JUMPDEST PUSH1 0x11 DUP3 ADD SWAP1 POP SWAP2 SWAP1 POP JUMP JUMPDEST PUSH1 0x0 PUSH2 0x52E8 DUP3 PUSH2 0x526E JUMP JUMPDEST SWAP2 POP PUSH2 0x52F4 DUP3 DUP6 PUSH2 0x462D JUMP JUMPDEST SWAP2 POP PUSH2 0x52FF DUP3 PUSH2 0x52BA JUMP JUMPDEST SWAP2 POP PUSH2 0x530B DUP3 DUP5 PUSH2 0x462D JUMP JUMPDEST SWAP2 POP DUP2 SWAP1 POP SWAP4 SWAP3 POP POP POP JUMP JUMPDEST PUSH2 0x5320 DUP2 PUSH2 0x3320 JUMP JUMPDEST DUP2 EQ PUSH2 0x532B JUMPI PUSH1 0x0 DUP1 REVERT JUMPDEST POP JUMP JUMPDEST PUSH1 0x0 DUP2 MLOAD SWAP1 POP PUSH2 0x533D DUP2 PUSH2 0x5317 JUMP JUMPDEST SWAP3 SWAP2 POP POP JUMP JUMPDEST PUSH1 0x0 PUSH1 0x20 DUP3 DUP5 SUB SLT ISZERO PUSH2 0x5359 JUMPI PUSH2 0x5358 PUSH2 0x3291 JUMP JUMPDEST JUMPDEST PUSH1 0x0 PUSH2 0x5367 DUP5 DUP3 DUP6 ADD PUSH2 0x532E JUMP JUMPDEST SWAP2 POP POP SWAP3 SWAP2 POP POP JUMP JUMPDEST PUSH32 0x5361666545524332303A204552433230206F7065726174696F6E20646964206E PUSH1 0x0 DUP3 ADD MSTORE PUSH32 0x6F74207375636365656400000000000000000000000000000000000000000000 PUSH1 0x20 DUP3 ADD MSTORE POP JUMP JUMPDEST PUSH1 0x0 PUSH2 0x53CC PUSH1 0x2A DUP4 PUSH2 0x3120 JUMP JUMPDEST SWAP2 POP PUSH2 0x53D7 DUP3 PUSH2 0x5370 JUMP JUMPDEST PUSH1 0x40 DUP3 ADD SWAP1 POP SWAP2 SWAP1 POP JUMP JUMPDEST PUSH1 0x0 PUSH1 0x20 DUP3 ADD SWAP1 POP DUP2 DUP2 SUB PUSH1 0x0 DUP4 ADD MSTORE PUSH2 0x53FB DUP2 PUSH2 0x53BF JUMP JUMPDEST SWAP1 POP SWAP2 SWAP1 POP JUMP JUMPDEST PUSH1 0x0 PUSH2 0x540D DUP3 PUSH2 0x31C9 JUMP JUMPDEST SWAP2 POP PUSH2 0x5418 DUP4 PUSH2 0x31C9 JUMP JUMPDEST SWAP3 POP DUP3 DUP3 MUL PUSH2 0x5426 DUP2 PUSH2 0x31C9 JUMP JUMPDEST SWAP2 POP DUP3 DUP3 DIV DUP5 EQ DUP4 ISZERO OR PUSH2 0x543D JUMPI PUSH2 0x543C PUSH2 0x3C04 JUMP JUMPDEST JUMPDEST POP SWAP3 SWAP2 POP POP JUMP JUMPDEST PUSH1 0x0 PUSH2 0x544F DUP3 PUSH2 0x31C9 JUMP JUMPDEST SWAP2 POP PUSH1 0x0 DUP3 SUB PUSH2 0x5462 JUMPI PUSH2 0x5461 PUSH2 0x3C04 JUMP JUMPDEST JUMPDEST PUSH1 0x1 DUP3 SUB SWAP1 POP SWAP2 SWAP1 POP JUMP JUMPDEST PUSH32 0x537472696E67733A20686578206C656E67746820696E73756666696369656E74 PUSH1 0x0 DUP3 ADD MSTORE POP JUMP JUMPDEST PUSH1 0x0 PUSH2 0x54A3 PUSH1 0x20 DUP4 PUSH2 0x3120 JUMP JUMPDEST SWAP2 POP PUSH2 0x54AE DUP3 PUSH2 0x546D JUMP JUMPDEST PUSH1 0x20 DUP3 ADD SWAP1 POP SWAP2 SWAP1 POP JUMP JUMPDEST PUSH1 0x0 PUSH1 0x20 DUP3 ADD SWAP1 POP DUP2 DUP2 SUB PUSH1 0x0 DUP4 ADD MSTORE PUSH2 0x54D2 DUP2 PUSH2 0x5496 JUMP JUMPDEST SWAP1 POP SWAP2 SWAP1 POP JUMP JUMPDEST PUSH32 0x4E487B7100000000000000000000000000000000000000000000000000000000 PUSH1 0x0 MSTORE PUSH1 0x31 PUSH1 0x4 MSTORE PUSH1 0x24 PUSH1 0x0 REVERT JUMPDEST PUSH32 0x416464726573733A20696E73756666696369656E742062616C616E636520666F PUSH1 0x0 DUP3 ADD MSTORE PUSH32 0x722063616C6C0000000000000000000000000000000000000000000000000000 PUSH1 0x20 DUP3 ADD MSTORE POP JUMP JUMPDEST PUSH1 0x0 PUSH2 0x5564 PUSH1 0x26 DUP4 PUSH2 0x3120 JUMP JUMPDEST SWAP2 POP PUSH2 0x556F DUP3 PUSH2 0x5508 JUMP JUMPDEST PUSH1 0x40 DUP3 ADD SWAP1 POP SWAP2 SWAP1 POP JUMP JUMPDEST PUSH1 0x0 PUSH1 0x20 DUP3 ADD SWAP1 POP DUP2 DUP2 SUB PUSH1 0x0 DUP4 ADD MSTORE PUSH2 0x5593 DUP2 PUSH2 0x5557 JUMP JUMPDEST SWAP1 POP SWAP2 SWAP1 POP JUMP JUMPDEST PUSH1 0x0 DUP2 SWAP1 POP SWAP3 SWAP2 POP POP JUMP JUMPDEST PUSH1 0x0 PUSH2 0x55B0 DUP3 PUSH2 0x42DF JUMP JUMPDEST PUSH2 0x55BA DUP2 DUP6 PUSH2 0x559A JUMP JUMPDEST SWAP4 POP PUSH2 0x55CA DUP2 DUP6 PUSH1 0x20 DUP7 ADD PUSH2 0x35C5 JUMP JUMPDEST DUP1 DUP5 ADD SWAP2 POP POP SWAP3 SWAP2 POP POP JUMP JUMPDEST PUSH1 0x0 PUSH2 0x55E2 DUP3 DUP5 PUSH2 0x55A5 JUMP JUMPDEST SWAP2 POP DUP2 SWAP1 POP SWAP3 SWAP2 POP POP JUMP JUMPDEST PUSH32 0x416464726573733A2063616C6C20746F206E6F6E2D636F6E7472616374000000 PUSH1 0x0 DUP3 ADD MSTORE POP JUMP JUMPDEST PUSH1 0x0 PUSH2 0x5623 PUSH1 0x1D DUP4 PUSH2 0x3120 JUMP JUMPDEST SWAP2 POP PUSH2 0x562E DUP3 PUSH2 0x55ED JUMP JUMPDEST PUSH1 0x20 DUP3 ADD SWAP1 POP SWAP2 SWAP1 POP JUMP JUMPDEST PUSH1 0x0 PUSH1 0x20 DUP3 ADD SWAP1 POP DUP2 DUP2 SUB PUSH1 0x0 DUP4 ADD MSTORE PUSH2 0x5652 DUP2 PUSH2 0x5616 JUMP JUMPDEST SWAP1 POP SWAP2 SWAP1 POP JUMP INVALID LOG2 PUSH5 0x6970667358 0x22 SLT KECCAK256 DUP10 CALLDATALOAD GT SWAP1 TIMESTAMP 0xA7 SWAP2 SELFDESTRUCT POP PUSH4 0x7B587C40 DIV 0xE6 EXTCODESIZE DELEGATECALL 0x29 EXP 0xC0 SAR 0x4D 0xB4 DUP7 PREVRANDAO DUP2 DUP2 MLOAD 0xDB 0x5E 0xAC PUSH5 0x736F6C6343 STOP ADDMOD SLT STOP CALLER "},"methodIdentifiers":{"ACONCAGUA_ROLE()":"e5df800a","DEFAULT_ADMIN_ROLE()":"a217fddf","LENDER_LIQ_ROLE()":"32cc815d","RESCUER_ROLE()":"71372544","SWAPPER_ROLE()":"df668eca","balanceOf(string)":"35ee5f87","contractAddresses(string)":"ee67cc2a","contractKeys(uint256)":"de6bd687","getBalances()":"00113e08","getRoleAdmin(bytes32)":"248a9ca3","getRoleMember(bytes32,uint256)":"9010d07c","getRoleMemberCount(bytes32)":"ca15c873","getTokenNames()":"2ad753e4","grantRole(bytes32,address)":"2f2ff15d","hasRole(bytes32,address)":"91d14854","initialize(address,string[5],address[5],address[3],address,address,address,address,string[2],address[2])":"82828cbe","renounceRole(bytes32,address)":"36568abe","rescue(uint256,string)":"0828c404","rescueWalletAddress()":"15ac7358","revokeRole(bytes32,address)":"d547741f","setRescueWalletAddress(address)":"d00411c9","setWithdrawWalletAddress(address)":"212f6039","supportsInterface(bytes4)":"01ffc9a7","swapExactInputs(((bytes,address,uint256,uint256,uint256),address,address)[])":"2ffe9942","tokenNames(uint256)":"310495ab","tokenTable(string)":"55452d04","version()":"54fd4d50","withdraw(uint256,string)":"dc048cf2","withdrawWalletAddress()":"b14ec101"}}}}}