{"contracts/ColateralContractOper.sol":{"ColateralContractOper":{"abi":[{"anonymous":false,"inputs":[{"indexed":false,"internalType":"uint8","name":"version","type":"uint8"}],"name":"Initialized","type":"event"},{"anonymous":false,"inputs":[{"indexed":true,"internalType":"bytes32","name":"role","type":"bytes32"},{"indexed":true,"internalType":"bytes32","name":"previousAdminRole","type":"bytes32"},{"indexed":true,"internalType":"bytes32","name":"newAdminRole","type":"bytes32"}],"name":"RoleAdminChanged","type":"event"},{"anonymous":false,"inputs":[{"indexed":true,"internalType":"bytes32","name":"role","type":"bytes32"},{"indexed":true,"internalType":"address","name":"account","type":"address"},{"indexed":true,"internalType":"address","name":"sender","type":"address"}],"name":"RoleGranted","type":"event"},{"anonymous":false,"inputs":[{"indexed":true,"internalType":"bytes32","name":"role","type":"bytes32"},{"indexed":true,"internalType":"address","name":"account","type":"address"},{"indexed":true,"internalType":"address","name":"sender","type":"address"}],"name":"RoleRevoked","type":"event"},{"anonymous":false,"inputs":[{"indexed":true,"internalType":"address","name":"withdrawWalletAddress","type":"address"},{"indexed":true,"internalType":"address","name":"tokenAddress","type":"address"},{"indexed":false,"internalType":"uint256","name":"amount","type":"uint256"}],"name":"Withdraw","type":"event"},{"inputs":[],"name":"DEFAULT_ADMIN_ROLE","outputs":[{"internalType":"bytes32","name":"","type":"bytes32"}],"stateMutability":"view","type":"function"},{"inputs":[],"name":"LENDER_LIQ_ROLE","outputs":[{"internalType":"bytes32","name":"","type":"bytes32"}],"stateMutability":"view","type":"function"},{"inputs":[{"internalType":"bytes32","name":"role","type":"bytes32"}],"name":"getRoleAdmin","outputs":[{"internalType":"bytes32","name":"","type":"bytes32"}],"stateMutability":"view","type":"function"},{"inputs":[{"internalType":"bytes32","name":"role","type":"bytes32"},{"internalType":"uint256","name":"index","type":"uint256"}],"name":"getRoleMember","outputs":[{"internalType":"address","name":"","type":"address"}],"stateMutability":"view","type":"function"},{"inputs":[{"internalType":"bytes32","name":"role","type":"bytes32"}],"name":"getRoleMemberCount","outputs":[{"internalType":"uint256","name":"","type":"uint256"}],"stateMutability":"view","type":"function"},{"inputs":[{"internalType":"bytes32","name":"role","type":"bytes32"},{"internalType":"address","name":"account","type":"address"}],"name":"grantRole","outputs":[],"stateMutability":"nonpayable","type":"function"},{"inputs":[{"internalType":"bytes32","name":"role","type":"bytes32"},{"internalType":"address","name":"account","type":"address"}],"name":"hasRole","outputs":[{"internalType":"bool","name":"","type":"bool"}],"stateMutability":"view","type":"function"},{"inputs":[{"internalType":"address","name":"_withdrawWalletAddress","type":"address"},{"internalType":"address","name":"_firstLenderLiq","type":"address"},{"internalType":"address","name":"_secondLenderLiq","type":"address"}],"name":"initialize","outputs":[],"stateMutability":"nonpayable","type":"function"},{"inputs":[{"internalType":"bytes32","name":"role","type":"bytes32"},{"internalType":"address","name":"account","type":"address"}],"name":"renounceRole","outputs":[],"stateMutability":"nonpayable","type":"function"},{"inputs":[{"internalType":"bytes32","name":"role","type":"bytes32"},{"internalType":"address","name":"account","type":"address"}],"name":"revokeRole","outputs":[],"stateMutability":"nonpayable","type":"function"},{"inputs":[{"internalType":"bytes4","name":"interfaceId","type":"bytes4"}],"name":"supportsInterface","outputs":[{"internalType":"bool","name":"","type":"bool"}],"stateMutability":"view","type":"function"},{"inputs":[],"name":"withdrawWalletAddress","outputs":[{"internalType":"address","name":"","type":"address"}],"stateMutability":"view","type":"function"},{"inputs":[{"internalType":"uint256","name":"_amount","type":"uint256"},{"internalType":"address","name":"_tokenAddress","type":"address"}],"name":"withdrawX","outputs":[],"stateMutability":"nonpayable","type":"function"}],"evm":{"bytecode":{"linkReferences":{},"object":"608060405234801561001057600080fd5b50612405806100206000396000f3fe608060405234801561001057600080fd5b50600436106100cf5760003560e01c80639010d07c1161008c578063b14ec10111610066578063b14ec10114610224578063c0c53b8b14610242578063ca15c8731461025e578063d547741f1461028e576100cf565b80639010d07c146101a657806391d14854146101d6578063a217fddf14610206576100cf565b806301ffc9a7146100d45780630307a77c14610104578063248a9ca3146101205780632f2ff15d1461015057806332cc815d1461016c57806336568abe1461018a575b600080fd5b6100ee60048036038101906100e991906116e6565b6102aa565b6040516100fb919061172e565b60405180910390f35b61011e600480360381019061011991906117dd565b610324565b005b61013a60048036038101906101359190611853565b610437565b604051610147919061188f565b60405180910390f35b61016a600480360381019061016591906118aa565b610457565b005b610174610478565b604051610181919061188f565b60405180910390f35b6101a4600480360381019061019f91906118aa565b61049c565b005b6101c060048036038101906101bb91906118ea565b61051f565b6040516101cd9190611939565b60405180910390f35b6101f060048036038101906101eb91906118aa565b61054e565b6040516101fd919061172e565b60405180910390f35b61020e6105b9565b60405161021b919061188f565b60405180910390f35b61022c6105c0565b6040516102399190611939565b60405180910390f35b61025c60048036038101906102579190611954565b6105e6565b005b61027860048036038101906102739190611853565b610911565b60405161028591906119b6565b60405180910390f35b6102a860048036038101906102a391906118aa565b610935565b005b60007f5a05180f000000000000000000000000000000000000000000000000000000007bffffffffffffffffffffffffffffffffffffffffffffffffffffffff1916827bffffffffffffffffffffffffffffffffffffffffffffffffffffffff1916148061031d575061031c82610956565b5b9050919050565b7ffd37f88a14d7ed985885a1af8f2ad5b64dd7eb00ab89168649791632bb9bb4a661034e816109d0565b6103566109e4565b6103a360fb60009054906101000a900473ffffffffffffffffffffffffffffffffffffffff16848473ffffffffffffffffffffffffffffffffffffffff16610a339092919063ffffffff16565b8173ffffffffffffffffffffffffffffffffffffffff1660fb60009054906101000a900473ffffffffffffffffffffffffffffffffffffffff1673ffffffffffffffffffffffffffffffffffffffff167f9b1bfa7fa9ee420a16e124f794c35ac9f90472acc99140eb2f6447c714cad8eb8560405161042291906119b6565b60405180910390a3610432610ab9565b505050565b600060656000838152602001908152602001600020600101549050919050565b61046082610437565b610469816109d0565b6104738383610ac3565b505050565b7ffd37f88a14d7ed985885a1af8f2ad5b64dd7eb00ab89168649791632bb9bb4a681565b6104a4610af7565b73ffffffffffffffffffffffffffffffffffffffff168173ffffffffffffffffffffffffffffffffffffffff1614610511576040517f08c379a000000000000000000000000000000000000000000000000000000000815260040161050890611a54565b60405180910390fd5b61051b8282610aff565b5050565b60006105468260976000868152602001908152602001600020610b3390919063ffffffff16565b905092915050565b60006065600084815260200190815260200160002060000160008373ffffffffffffffffffffffffffffffffffffffff1673ffffffffffffffffffffffffffffffffffffffff16815260200190815260200160002060009054906101000a900460ff16905092915050565b6000801b81565b60fb60009054906101000a900473ffffffffffffffffffffffffffffffffffffffff1681565b60008060019054906101000a900460ff161590508080156106175750600160008054906101000a900460ff1660ff16105b80610644575061062630610b4d565b1580156106435750600160008054906101000a900460ff1660ff16145b5b610683576040517f08c379a000000000000000000000000000000000000000000000000000000000815260040161067a90611ae6565b60405180910390fd5b60016000806101000a81548160ff021916908360ff16021790555080156106c0576001600060016101000a81548160ff0219169083151502179055505b600073ffffffffffffffffffffffffffffffffffffffff168473ffffffffffffffffffffffffffffffffffffffff160361072f576040517f08c379a000000000000000000000000000000000000000000000000000000000815260040161072690611b52565b60405180910390fd5b600073ffffffffffffffffffffffffffffffffffffffff168373ffffffffffffffffffffffffffffffffffffffff160361079e576040517f08c379a000000000000000000000000000000000000000000000000000000000815260040161079590611bbe565b60405180910390fd5b600073ffffffffffffffffffffffffffffffffffffffff168273ffffffffffffffffffffffffffffffffffffffff160361080d576040517f08c379a000000000000000000000000000000000000000000000000000000000815260040161080490611c2a565b60405180910390fd5b610815610b70565b61081d610bc1565b8360fb60006101000a81548173ffffffffffffffffffffffffffffffffffffffff021916908373ffffffffffffffffffffffffffffffffffffffff1602179055506108887ffd37f88a14d7ed985885a1af8f2ad5b64dd7eb00ab89168649791632bb9bb4a684610c1a565b6108b27ffd37f88a14d7ed985885a1af8f2ad5b64dd7eb00ab89168649791632bb9bb4a683610c1a565b801561090b5760008060016101000a81548160ff0219169083151502179055507f7f26b83ff96e1f2b6a682f133852f6798a09c465da95921460cefb384740249860016040516109029190611c9c565b60405180910390a15b50505050565b600061092e60976000848152602001908152602001600020610c28565b9050919050565b61093e82610437565b610947816109d0565b6109518383610aff565b505050565b60007f7965db0b000000000000000000000000000000000000000000000000000000007bffffffffffffffffffffffffffffffffffffffffffffffffffffffff1916827bffffffffffffffffffffffffffffffffffffffffffffffffffffffff191614806109c957506109c882610c3d565b5b9050919050565b6109e1816109dc610af7565b610ca7565b50565b600260c95403610a29576040517f08c379a0000000000000000000000000000000000000000000000000000000008152600401610a2090611d03565b60405180910390fd5b600260c981905550565b610ab48363a9059cbb60e01b8484604051602401610a52929190611d23565b604051602081830303815290604052907bffffffffffffffffffffffffffffffffffffffffffffffffffffffff19166020820180517bffffffffffffffffffffffffffffffffffffffffffffffffffffffff8381831617835250505050610d2c565b505050565b600160c981905550565b610acd8282610df4565b610af28160976000858152602001908152602001600020610ed590919063ffffffff16565b505050565b600033905090565b610b098282610f05565b610b2e8160976000858152602001908152602001600020610fe790919063ffffffff16565b505050565b6000610b428360000183611017565b60001c905092915050565b6000808273ffffffffffffffffffffffffffffffffffffffff163b119050919050565b600060019054906101000a900460ff16610bbf576040517f08c379a0000000000000000000000000000000000000000000000000000000008152600401610bb690611dbe565b60405180910390fd5b565b600060019054906101000a900460ff16610c10576040517f08c379a0000000000000000000000000000000000000000000000000000000008152600401610c0790611dbe565b60405180910390fd5b610c18611042565b565b610c248282610ac3565b5050565b6000610c368260000161109b565b9050919050565b60007f01ffc9a7000000000000000000000000000000000000000000000000000000007bffffffffffffffffffffffffffffffffffffffffffffffffffffffff1916827bffffffffffffffffffffffffffffffffffffffffffffffffffffffff1916149050919050565b610cb1828261054e565b610d2857610cbe816110ac565b610ccc8360001c60206110d9565b604051602001610cdd929190611ee7565b6040516020818303038152906040526040517f08c379a0000000000000000000000000000000000000000000000000000000008152600401610d1f9190611f6b565b60405180910390fd5b5050565b6000610d8e826040518060400160405280602081526020017f5361666545524332303a206c6f772d6c6576656c2063616c6c206661696c65648152508573ffffffffffffffffffffffffffffffffffffffff166113159092919063ffffffff16565b9050600081511480610db0575080806020019051810190610daf9190611fb9565b5b610def576040517f08c379a0000000000000000000000000000000000000000000000000000000008152600401610de690612058565b60405180910390fd5b505050565b610dfe828261054e565b610ed15760016065600084815260200190815260200160002060000160008373ffffffffffffffffffffffffffffffffffffffff1673ffffffffffffffffffffffffffffffffffffffff16815260200190815260200160002060006101000a81548160ff021916908315150217905550610e76610af7565b73ffffffffffffffffffffffffffffffffffffffff168173ffffffffffffffffffffffffffffffffffffffff16837f2f8788117e7eff1d82e926ec794901d17c78024a50270940304540a733656f0d60405160405180910390a45b5050565b6000610efd836000018373ffffffffffffffffffffffffffffffffffffffff1660001b61132d565b905092915050565b610f0f828261054e565b15610fe35760006065600084815260200190815260200160002060000160008373ffffffffffffffffffffffffffffffffffffffff1673ffffffffffffffffffffffffffffffffffffffff16815260200190815260200160002060006101000a81548160ff021916908315150217905550610f88610af7565b73ffffffffffffffffffffffffffffffffffffffff168173ffffffffffffffffffffffffffffffffffffffff16837ff6391f5c32d9c69d2a47ea670b442974b53935d1edc7fd64eb21e047a839171b60405160405180910390a45b5050565b600061100f836000018373ffffffffffffffffffffffffffffffffffffffff1660001b61139d565b905092915050565b600082600001828154811061102f5761102e612078565b5b9060005260206000200154905092915050565b600060019054906101000a900460ff16611091576040517f08c379a000000000000000000000000000000000000000000000000000000000815260040161108890611dbe565b60405180910390fd5b600160c981905550565b600081600001805490509050919050565b60606110d28273ffffffffffffffffffffffffffffffffffffffff16601460ff166110d9565b9050919050565b6060600060028360026110ec91906120d6565b6110f69190612118565b67ffffffffffffffff81111561110f5761110e61214c565b5b6040519080825280601f01601f1916602001820160405280156111415781602001600182028036833780820191505090505b5090507f30000000000000000000000000000000000000000000000000000000000000008160008151811061117957611178612078565b5b60200101907effffffffffffffffffffffffffffffffffffffffffffffffffffffffffffff1916908160001a9053507f7800000000000000000000000000000000000000000000000000000000000000816001815181106111dd576111dc612078565b5b60200101907effffffffffffffffffffffffffffffffffffffffffffffffffffffffffffff1916908160001a9053506000600184600261121d91906120d6565b6112279190612118565b90505b60018111156112c7577f3031323334353637383961626364656600000000000000000000000000000000600f86166010811061126957611268612078565b5b1a60f81b8282815181106112805761127f612078565b5b60200101907effffffffffffffffffffffffffffffffffffffffffffffffffffffffffffff1916908160001a905350600485901c9450806112c09061217b565b905061122a565b506000841461130b576040517f08c379a0000000000000000000000000000000000000000000000000000000008152600401611302906121f0565b60405180910390fd5b8091505092915050565b606061132484846000856114b1565b90509392505050565b6000611339838361157e565b611392578260000182908060018154018082558091505060019003906000526020600020016000909190919091505582600001805490508360010160008481526020019081526020016000208190555060019050611397565b600090505b92915050565b600080836001016000848152602001908152602001600020549050600081146114a55760006001826113cf9190612210565b90506000600186600001805490506113e79190612210565b905081811461145657600086600001828154811061140857611407612078565b5b906000526020600020015490508087600001848154811061142c5761142b612078565b5b90600052602060002001819055508387600101600083815260200190815260200160002081905550505b8560000180548061146a57611469612244565b5b6001900381819060005260206000200160009055905585600101600086815260200190815260200160002060009055600193505050506114ab565b60009150505b92915050565b6060824710156114f6576040517f08c379a00000000000000000000000000000000000000000000000000000000081526004016114ed906122e5565b60405180910390fd5b6000808673ffffffffffffffffffffffffffffffffffffffff16858760405161151f919061234c565b60006040518083038185875af1925050503d806000811461155c576040519150601f19603f3d011682016040523d82523d6000602084013e611561565b606091505b5091509150611572878383876115a1565b92505050949350505050565b600080836001016000848152602001908152602001600020541415905092915050565b606083156116035760008351036115fb576115bb85611616565b6115fa576040517f08c379a00000000000000000000000000000000000000000000000000000000081526004016115f1906123af565b60405180910390fd5b5b82905061160e565b61160d8383611639565b5b949350505050565b6000808273ffffffffffffffffffffffffffffffffffffffff163b119050919050565b60008251111561164c5781518083602001fd5b806040517f08c379a00000000000000000000000000000000000000000000000000000000081526004016116809190611f6b565b60405180910390fd5b600080fd5b60007fffffffff0000000000000000000000000000000000000000000000000000000082169050919050565b6116c38161168e565b81146116ce57600080fd5b50565b6000813590506116e0816116ba565b92915050565b6000602082840312156116fc576116fb611689565b5b600061170a848285016116d1565b91505092915050565b60008115159050919050565b61172881611713565b82525050565b6000602082019050611743600083018461171f565b92915050565b6000819050919050565b61175c81611749565b811461176757600080fd5b50565b60008135905061177981611753565b92915050565b600073ffffffffffffffffffffffffffffffffffffffff82169050919050565b60006117aa8261177f565b9050919050565b6117ba8161179f565b81146117c557600080fd5b50565b6000813590506117d7816117b1565b92915050565b600080604083850312156117f4576117f3611689565b5b60006118028582860161176a565b9250506020611813858286016117c8565b9150509250929050565b6000819050919050565b6118308161181d565b811461183b57600080fd5b50565b60008135905061184d81611827565b92915050565b60006020828403121561186957611868611689565b5b60006118778482850161183e565b91505092915050565b6118898161181d565b82525050565b60006020820190506118a46000830184611880565b92915050565b600080604083850312156118c1576118c0611689565b5b60006118cf8582860161183e565b92505060206118e0858286016117c8565b9150509250929050565b6000806040838503121561190157611900611689565b5b600061190f8582860161183e565b92505060206119208582860161176a565b9150509250929050565b6119338161179f565b82525050565b600060208201905061194e600083018461192a565b92915050565b60008060006060848603121561196d5761196c611689565b5b600061197b868287016117c8565b935050602061198c868287016117c8565b925050604061199d868287016117c8565b9150509250925092565b6119b081611749565b82525050565b60006020820190506119cb60008301846119a7565b92915050565b600082825260208201905092915050565b7f416363657373436f6e74726f6c3a2063616e206f6e6c792072656e6f756e636560008201527f20726f6c657320666f722073656c660000000000000000000000000000000000602082015250565b6000611a3e602f836119d1565b9150611a49826119e2565b604082019050919050565b60006020820190508181036000830152611a6d81611a31565b9050919050565b7f496e697469616c697a61626c653a20636f6e747261637420697320616c72656160008201527f647920696e697469616c697a6564000000000000000000000000000000000000602082015250565b6000611ad0602e836119d1565b9150611adb82611a74565b604082019050919050565b60006020820190508181036000830152611aff81611ac3565b9050919050565b7f5769746864726177416464720000000000000000000000000000000000000000600082015250565b6000611b3c600c836119d1565b9150611b4782611b06565b602082019050919050565b60006020820190508181036000830152611b6b81611b2f565b9050919050565b7f46697273744c656e6465724c6971416464720000000000000000000000000000600082015250565b6000611ba86012836119d1565b9150611bb382611b72565b602082019050919050565b60006020820190508181036000830152611bd781611b9b565b9050919050565b7f5365636f6e644c656e6465724c69714164647200000000000000000000000000600082015250565b6000611c146013836119d1565b9150611c1f82611bde565b602082019050919050565b60006020820190508181036000830152611c4381611c07565b9050919050565b6000819050919050565b600060ff82169050919050565b6000819050919050565b6000611c86611c81611c7c84611c4a565b611c61565b611c54565b9050919050565b611c9681611c6b565b82525050565b6000602082019050611cb16000830184611c8d565b92915050565b7f5265656e7472616e637947756172643a207265656e7472616e742063616c6c00600082015250565b6000611ced601f836119d1565b9150611cf882611cb7565b602082019050919050565b60006020820190508181036000830152611d1c81611ce0565b9050919050565b6000604082019050611d38600083018561192a565b611d4560208301846119a7565b9392505050565b7f496e697469616c697a61626c653a20636f6e7472616374206973206e6f74206960008201527f6e697469616c697a696e67000000000000000000000000000000000000000000602082015250565b6000611da8602b836119d1565b9150611db382611d4c565b604082019050919050565b60006020820190508181036000830152611dd781611d9b565b9050919050565b600081905092915050565b7f416363657373436f6e74726f6c3a206163636f756e7420000000000000000000600082015250565b6000611e1f601783611dde565b9150611e2a82611de9565b601782019050919050565b600081519050919050565b60005b83811015611e5e578082015181840152602081019050611e43565b60008484015250505050565b6000611e7582611e35565b611e7f8185611dde565b9350611e8f818560208601611e40565b80840191505092915050565b7f206973206d697373696e6720726f6c6520000000000000000000000000000000600082015250565b6000611ed1601183611dde565b9150611edc82611e9b565b601182019050919050565b6000611ef282611e12565b9150611efe8285611e6a565b9150611f0982611ec4565b9150611f158284611e6a565b91508190509392505050565b6000601f19601f8301169050919050565b6000611f3d82611e35565b611f4781856119d1565b9350611f57818560208601611e40565b611f6081611f21565b840191505092915050565b60006020820190508181036000830152611f858184611f32565b905092915050565b611f9681611713565b8114611fa157600080fd5b50565b600081519050611fb381611f8d565b92915050565b600060208284031215611fcf57611fce611689565b5b6000611fdd84828501611fa4565b91505092915050565b7f5361666545524332303a204552433230206f7065726174696f6e20646964206e60008201527f6f74207375636365656400000000000000000000000000000000000000000000602082015250565b6000612042602a836119d1565b915061204d82611fe6565b604082019050919050565b6000602082019050818103600083015261207181612035565b9050919050565b7f4e487b7100000000000000000000000000000000000000000000000000000000600052603260045260246000fd5b7f4e487b7100000000000000000000000000000000000000000000000000000000600052601160045260246000fd5b60006120e182611749565b91506120ec83611749565b92508282026120fa81611749565b91508282048414831517612111576121106120a7565b5b5092915050565b600061212382611749565b915061212e83611749565b9250828201905080821115612146576121456120a7565b5b92915050565b7f4e487b7100000000000000000000000000000000000000000000000000000000600052604160045260246000fd5b600061218682611749565b915060008203612199576121986120a7565b5b600182039050919050565b7f537472696e67733a20686578206c656e67746820696e73756666696369656e74600082015250565b60006121da6020836119d1565b91506121e5826121a4565b602082019050919050565b60006020820190508181036000830152612209816121cd565b9050919050565b600061221b82611749565b915061222683611749565b925082820390508181111561223e5761223d6120a7565b5b92915050565b7f4e487b7100000000000000000000000000000000000000000000000000000000600052603160045260246000fd5b7f416464726573733a20696e73756666696369656e742062616c616e636520666f60008201527f722063616c6c0000000000000000000000000000000000000000000000000000602082015250565b60006122cf6026836119d1565b91506122da82612273565b604082019050919050565b600060208201905081810360008301526122fe816122c2565b9050919050565b600081519050919050565b600081905092915050565b600061232682612305565b6123308185612310565b9350612340818560208601611e40565b80840191505092915050565b6000612358828461231b565b915081905092915050565b7f416464726573733a2063616c6c20746f206e6f6e2d636f6e7472616374000000600082015250565b6000612399601d836119d1565b91506123a482612363565b602082019050919050565b600060208201905081810360008301526123c88161238c565b905091905056fea2646970667358221220dbc2b304911d5b1ef37ae99b9ac22af643265951a522cb148037f145cc5c70df64736f6c63430008120033","opcodes":"PUSH1 0x80 PUSH1 0x40 MSTORE CALLVALUE DUP1 ISZERO PUSH2 0x10 JUMPI PUSH1 0x0 DUP1 REVERT JUMPDEST POP PUSH2 0x2405 DUP1 PUSH2 0x20 PUSH1 0x0 CODECOPY PUSH1 0x0 RETURN INVALID PUSH1 0x80 PUSH1 0x40 MSTORE CALLVALUE DUP1 ISZERO PUSH2 0x10 JUMPI PUSH1 0x0 DUP1 REVERT JUMPDEST POP PUSH1 0x4 CALLDATASIZE LT PUSH2 0xCF JUMPI PUSH1 0x0 CALLDATALOAD PUSH1 0xE0 SHR DUP1 PUSH4 0x9010D07C GT PUSH2 0x8C JUMPI DUP1 PUSH4 0xB14EC101 GT PUSH2 0x66 JUMPI DUP1 PUSH4 0xB14EC101 EQ PUSH2 0x224 JUMPI DUP1 PUSH4 0xC0C53B8B EQ PUSH2 0x242 JUMPI DUP1 PUSH4 0xCA15C873 EQ PUSH2 0x25E JUMPI DUP1 PUSH4 0xD547741F EQ PUSH2 0x28E JUMPI PUSH2 0xCF JUMP JUMPDEST DUP1 PUSH4 0x9010D07C EQ PUSH2 0x1A6 JUMPI DUP1 PUSH4 0x91D14854 EQ PUSH2 0x1D6 JUMPI DUP1 PUSH4 0xA217FDDF EQ PUSH2 0x206 JUMPI PUSH2 0xCF JUMP JUMPDEST DUP1 PUSH4 0x1FFC9A7 EQ PUSH2 0xD4 JUMPI DUP1 PUSH4 0x307A77C EQ PUSH2 0x104 JUMPI DUP1 PUSH4 0x248A9CA3 EQ PUSH2 0x120 JUMPI DUP1 PUSH4 0x2F2FF15D EQ PUSH2 0x150 JUMPI DUP1 PUSH4 0x32CC815D EQ PUSH2 0x16C JUMPI DUP1 PUSH4 0x36568ABE EQ PUSH2 0x18A JUMPI JUMPDEST PUSH1 0x0 DUP1 REVERT JUMPDEST PUSH2 0xEE PUSH1 0x4 DUP1 CALLDATASIZE SUB DUP2 ADD SWAP1 PUSH2 0xE9 SWAP2 SWAP1 PUSH2 0x16E6 JUMP JUMPDEST PUSH2 0x2AA JUMP JUMPDEST PUSH1 0x40 MLOAD PUSH2 0xFB SWAP2 SWAP1 PUSH2 0x172E JUMP JUMPDEST PUSH1 0x40 MLOAD DUP1 SWAP2 SUB SWAP1 RETURN JUMPDEST PUSH2 0x11E PUSH1 0x4 DUP1 CALLDATASIZE SUB DUP2 ADD SWAP1 PUSH2 0x119 SWAP2 SWAP1 PUSH2 0x17DD JUMP JUMPDEST PUSH2 0x324 JUMP JUMPDEST STOP JUMPDEST PUSH2 0x13A PUSH1 0x4 DUP1 CALLDATASIZE SUB DUP2 ADD SWAP1 PUSH2 0x135 SWAP2 SWAP1 PUSH2 0x1853 JUMP JUMPDEST PUSH2 0x437 JUMP JUMPDEST PUSH1 0x40 MLOAD PUSH2 0x147 SWAP2 SWAP1 PUSH2 0x188F JUMP JUMPDEST PUSH1 0x40 MLOAD DUP1 SWAP2 SUB SWAP1 RETURN JUMPDEST PUSH2 0x16A PUSH1 0x4 DUP1 CALLDATASIZE SUB DUP2 ADD SWAP1 PUSH2 0x165 SWAP2 SWAP1 PUSH2 0x18AA JUMP JUMPDEST PUSH2 0x457 JUMP JUMPDEST STOP JUMPDEST PUSH2 0x174 PUSH2 0x478 JUMP JUMPDEST PUSH1 0x40 MLOAD PUSH2 0x181 SWAP2 SWAP1 PUSH2 0x188F JUMP JUMPDEST PUSH1 0x40 MLOAD DUP1 SWAP2 SUB SWAP1 RETURN JUMPDEST PUSH2 0x1A4 PUSH1 0x4 DUP1 CALLDATASIZE SUB DUP2 ADD SWAP1 PUSH2 0x19F SWAP2 SWAP1 PUSH2 0x18AA JUMP JUMPDEST PUSH2 0x49C JUMP JUMPDEST STOP JUMPDEST PUSH2 0x1C0 PUSH1 0x4 DUP1 CALLDATASIZE SUB DUP2 ADD SWAP1 PUSH2 0x1BB SWAP2 SWAP1 PUSH2 0x18EA JUMP JUMPDEST PUSH2 0x51F JUMP JUMPDEST PUSH1 0x40 MLOAD PUSH2 0x1CD SWAP2 SWAP1 PUSH2 0x1939 JUMP JUMPDEST PUSH1 0x40 MLOAD DUP1 SWAP2 SUB SWAP1 RETURN JUMPDEST PUSH2 0x1F0 PUSH1 0x4 DUP1 CALLDATASIZE SUB DUP2 ADD SWAP1 PUSH2 0x1EB SWAP2 SWAP1 PUSH2 0x18AA JUMP JUMPDEST PUSH2 0x54E JUMP JUMPDEST PUSH1 0x40 MLOAD PUSH2 0x1FD SWAP2 SWAP1 PUSH2 0x172E JUMP JUMPDEST PUSH1 0x40 MLOAD DUP1 SWAP2 SUB SWAP1 RETURN JUMPDEST PUSH2 0x20E PUSH2 0x5B9 JUMP JUMPDEST PUSH1 0x40 MLOAD PUSH2 0x21B SWAP2 SWAP1 PUSH2 0x188F JUMP JUMPDEST PUSH1 0x40 MLOAD DUP1 SWAP2 SUB SWAP1 RETURN JUMPDEST PUSH2 0x22C PUSH2 0x5C0 JUMP JUMPDEST PUSH1 0x40 MLOAD PUSH2 0x239 SWAP2 SWAP1 PUSH2 0x1939 JUMP JUMPDEST PUSH1 0x40 MLOAD DUP1 SWAP2 SUB SWAP1 RETURN JUMPDEST PUSH2 0x25C PUSH1 0x4 DUP1 CALLDATASIZE SUB DUP2 ADD SWAP1 PUSH2 0x257 SWAP2 SWAP1 PUSH2 0x1954 JUMP JUMPDEST PUSH2 0x5E6 JUMP JUMPDEST STOP JUMPDEST PUSH2 0x278 PUSH1 0x4 DUP1 CALLDATASIZE SUB DUP2 ADD SWAP1 PUSH2 0x273 SWAP2 SWAP1 PUSH2 0x1853 JUMP JUMPDEST PUSH2 0x911 JUMP JUMPDEST PUSH1 0x40 MLOAD PUSH2 0x285 SWAP2 SWAP1 PUSH2 0x19B6 JUMP JUMPDEST PUSH1 0x40 MLOAD DUP1 SWAP2 SUB SWAP1 RETURN JUMPDEST PUSH2 0x2A8 PUSH1 0x4 DUP1 CALLDATASIZE SUB DUP2 ADD SWAP1 PUSH2 0x2A3 SWAP2 SWAP1 PUSH2 0x18AA JUMP JUMPDEST PUSH2 0x935 JUMP JUMPDEST STOP JUMPDEST PUSH1 0x0 PUSH32 0x5A05180F00000000000000000000000000000000000000000000000000000000 PUSH28 0xFFFFFFFFFFFFFFFFFFFFFFFFFFFFFFFFFFFFFFFFFFFFFFFFFFFFFFFF NOT AND DUP3 PUSH28 0xFFFFFFFFFFFFFFFFFFFFFFFFFFFFFFFFFFFFFFFFFFFFFFFFFFFFFFFF NOT AND EQ DUP1 PUSH2 0x31D JUMPI POP PUSH2 0x31C DUP3 PUSH2 0x956 JUMP JUMPDEST JUMPDEST SWAP1 POP SWAP2 SWAP1 POP JUMP JUMPDEST PUSH32 0xFD37F88A14D7ED985885A1AF8F2AD5B64DD7EB00AB89168649791632BB9BB4A6 PUSH2 0x34E DUP2 PUSH2 0x9D0 JUMP JUMPDEST PUSH2 0x356 PUSH2 0x9E4 JUMP JUMPDEST PUSH2 0x3A3 PUSH1 0xFB PUSH1 0x0 SWAP1 SLOAD SWAP1 PUSH2 0x100 EXP SWAP1 DIV PUSH20 0xFFFFFFFFFFFFFFFFFFFFFFFFFFFFFFFFFFFFFFFF AND DUP5 DUP5 PUSH20 0xFFFFFFFFFFFFFFFFFFFFFFFFFFFFFFFFFFFFFFFF AND PUSH2 0xA33 SWAP1 SWAP3 SWAP2 SWAP1 PUSH4 0xFFFFFFFF AND JUMP JUMPDEST DUP2 PUSH20 0xFFFFFFFFFFFFFFFFFFFFFFFFFFFFFFFFFFFFFFFF AND PUSH1 0xFB PUSH1 0x0 SWAP1 SLOAD SWAP1 PUSH2 0x100 EXP SWAP1 DIV PUSH20 0xFFFFFFFFFFFFFFFFFFFFFFFFFFFFFFFFFFFFFFFF AND PUSH20 0xFFFFFFFFFFFFFFFFFFFFFFFFFFFFFFFFFFFFFFFF AND PUSH32 0x9B1BFA7FA9EE420A16E124F794C35AC9F90472ACC99140EB2F6447C714CAD8EB DUP6 PUSH1 0x40 MLOAD PUSH2 0x422 SWAP2 SWAP1 PUSH2 0x19B6 JUMP JUMPDEST PUSH1 0x40 MLOAD DUP1 SWAP2 SUB SWAP1 LOG3 PUSH2 0x432 PUSH2 0xAB9 JUMP JUMPDEST POP POP POP JUMP JUMPDEST PUSH1 0x0 PUSH1 0x65 PUSH1 0x0 DUP4 DUP2 MSTORE PUSH1 0x20 ADD SWAP1 DUP2 MSTORE PUSH1 0x20 ADD PUSH1 0x0 KECCAK256 PUSH1 0x1 ADD SLOAD SWAP1 POP SWAP2 SWAP1 POP JUMP JUMPDEST PUSH2 0x460 DUP3 PUSH2 0x437 JUMP JUMPDEST PUSH2 0x469 DUP2 PUSH2 0x9D0 JUMP JUMPDEST PUSH2 0x473 DUP4 DUP4 PUSH2 0xAC3 JUMP JUMPDEST POP POP POP JUMP JUMPDEST PUSH32 0xFD37F88A14D7ED985885A1AF8F2AD5B64DD7EB00AB89168649791632BB9BB4A6 DUP2 JUMP JUMPDEST PUSH2 0x4A4 PUSH2 0xAF7 JUMP JUMPDEST PUSH20 0xFFFFFFFFFFFFFFFFFFFFFFFFFFFFFFFFFFFFFFFF AND DUP2 PUSH20 0xFFFFFFFFFFFFFFFFFFFFFFFFFFFFFFFFFFFFFFFF AND EQ PUSH2 0x511 JUMPI PUSH1 0x40 MLOAD PUSH32 0x8C379A000000000000000000000000000000000000000000000000000000000 DUP2 MSTORE PUSH1 0x4 ADD PUSH2 0x508 SWAP1 PUSH2 0x1A54 JUMP JUMPDEST PUSH1 0x40 MLOAD DUP1 SWAP2 SUB SWAP1 REVERT JUMPDEST PUSH2 0x51B DUP3 DUP3 PUSH2 0xAFF JUMP JUMPDEST POP POP JUMP JUMPDEST PUSH1 0x0 PUSH2 0x546 DUP3 PUSH1 0x97 PUSH1 0x0 DUP7 DUP2 MSTORE PUSH1 0x20 ADD SWAP1 DUP2 MSTORE PUSH1 0x20 ADD PUSH1 0x0 KECCAK256 PUSH2 0xB33 SWAP1 SWAP2 SWAP1 PUSH4 0xFFFFFFFF AND JUMP JUMPDEST SWAP1 POP SWAP3 SWAP2 POP POP JUMP JUMPDEST PUSH1 0x0 PUSH1 0x65 PUSH1 0x0 DUP5 DUP2 MSTORE PUSH1 0x20 ADD SWAP1 DUP2 MSTORE PUSH1 0x20 ADD PUSH1 0x0 KECCAK256 PUSH1 0x0 ADD PUSH1 0x0 DUP4 PUSH20 0xFFFFFFFFFFFFFFFFFFFFFFFFFFFFFFFFFFFFFFFF AND PUSH20 0xFFFFFFFFFFFFFFFFFFFFFFFFFFFFFFFFFFFFFFFF AND DUP2 MSTORE PUSH1 0x20 ADD SWAP1 DUP2 MSTORE PUSH1 0x20 ADD PUSH1 0x0 KECCAK256 PUSH1 0x0 SWAP1 SLOAD SWAP1 PUSH2 0x100 EXP SWAP1 DIV PUSH1 0xFF AND SWAP1 POP SWAP3 SWAP2 POP POP JUMP JUMPDEST PUSH1 0x0 DUP1 SHL DUP2 JUMP JUMPDEST PUSH1 0xFB PUSH1 0x0 SWAP1 SLOAD SWAP1 PUSH2 0x100 EXP SWAP1 DIV PUSH20 0xFFFFFFFFFFFFFFFFFFFFFFFFFFFFFFFFFFFFFFFF AND DUP2 JUMP JUMPDEST PUSH1 0x0 DUP1 PUSH1 0x1 SWAP1 SLOAD SWAP1 PUSH2 0x100 EXP SWAP1 DIV PUSH1 0xFF AND ISZERO SWAP1 POP DUP1 DUP1 ISZERO PUSH2 0x617 JUMPI POP PUSH1 0x1 PUSH1 0x0 DUP1 SLOAD SWAP1 PUSH2 0x100 EXP SWAP1 DIV PUSH1 0xFF AND PUSH1 0xFF AND LT JUMPDEST DUP1 PUSH2 0x644 JUMPI POP PUSH2 0x626 ADDRESS PUSH2 0xB4D JUMP JUMPDEST ISZERO DUP1 ISZERO PUSH2 0x643 JUMPI POP PUSH1 0x1 PUSH1 0x0 DUP1 SLOAD SWAP1 PUSH2 0x100 EXP SWAP1 DIV PUSH1 0xFF AND PUSH1 0xFF AND EQ JUMPDEST JUMPDEST PUSH2 0x683 JUMPI PUSH1 0x40 MLOAD PUSH32 0x8C379A000000000000000000000000000000000000000000000000000000000 DUP2 MSTORE PUSH1 0x4 ADD PUSH2 0x67A SWAP1 PUSH2 0x1AE6 JUMP JUMPDEST PUSH1 0x40 MLOAD DUP1 SWAP2 SUB SWAP1 REVERT JUMPDEST PUSH1 0x1 PUSH1 0x0 DUP1 PUSH2 0x100 EXP DUP2 SLOAD DUP2 PUSH1 0xFF MUL NOT AND SWAP1 DUP4 PUSH1 0xFF AND MUL OR SWAP1 SSTORE POP DUP1 ISZERO PUSH2 0x6C0 JUMPI PUSH1 0x1 PUSH1 0x0 PUSH1 0x1 PUSH2 0x100 EXP DUP2 SLOAD DUP2 PUSH1 0xFF MUL NOT AND SWAP1 DUP4 ISZERO ISZERO MUL OR SWAP1 SSTORE POP JUMPDEST PUSH1 0x0 PUSH20 0xFFFFFFFFFFFFFFFFFFFFFFFFFFFFFFFFFFFFFFFF AND DUP5 PUSH20 0xFFFFFFFFFFFFFFFFFFFFFFFFFFFFFFFFFFFFFFFF AND SUB PUSH2 0x72F JUMPI PUSH1 0x40 MLOAD PUSH32 0x8C379A000000000000000000000000000000000000000000000000000000000 DUP2 MSTORE PUSH1 0x4 ADD PUSH2 0x726 SWAP1 PUSH2 0x1B52 JUMP JUMPDEST PUSH1 0x40 MLOAD DUP1 SWAP2 SUB SWAP1 REVERT JUMPDEST PUSH1 0x0 PUSH20 0xFFFFFFFFFFFFFFFFFFFFFFFFFFFFFFFFFFFFFFFF AND DUP4 PUSH20 0xFFFFFFFFFFFFFFFFFFFFFFFFFFFFFFFFFFFFFFFF AND SUB PUSH2 0x79E JUMPI PUSH1 0x40 MLOAD PUSH32 0x8C379A000000000000000000000000000000000000000000000000000000000 DUP2 MSTORE PUSH1 0x4 ADD PUSH2 0x795 SWAP1 PUSH2 0x1BBE JUMP JUMPDEST PUSH1 0x40 MLOAD DUP1 SWAP2 SUB SWAP1 REVERT JUMPDEST PUSH1 0x0 PUSH20 0xFFFFFFFFFFFFFFFFFFFFFFFFFFFFFFFFFFFFFFFF AND DUP3 PUSH20 0xFFFFFFFFFFFFFFFFFFFFFFFFFFFFFFFFFFFFFFFF AND SUB PUSH2 0x80D JUMPI PUSH1 0x40 MLOAD PUSH32 0x8C379A000000000000000000000000000000000000000000000000000000000 DUP2 MSTORE PUSH1 0x4 ADD PUSH2 0x804 SWAP1 PUSH2 0x1C2A JUMP JUMPDEST PUSH1 0x40 MLOAD DUP1 SWAP2 SUB SWAP1 REVERT JUMPDEST PUSH2 0x815 PUSH2 0xB70 JUMP JUMPDEST PUSH2 0x81D PUSH2 0xBC1 JUMP JUMPDEST DUP4 PUSH1 0xFB PUSH1 0x0 PUSH2 0x100 EXP DUP2 SLOAD DUP2 PUSH20 0xFFFFFFFFFFFFFFFFFFFFFFFFFFFFFFFFFFFFFFFF MUL NOT AND SWAP1 DUP4 PUSH20 0xFFFFFFFFFFFFFFFFFFFFFFFFFFFFFFFFFFFFFFFF AND MUL OR SWAP1 SSTORE POP PUSH2 0x888 PUSH32 0xFD37F88A14D7ED985885A1AF8F2AD5B64DD7EB00AB89168649791632BB9BB4A6 DUP5 PUSH2 0xC1A JUMP JUMPDEST PUSH2 0x8B2 PUSH32 0xFD37F88A14D7ED985885A1AF8F2AD5B64DD7EB00AB89168649791632BB9BB4A6 DUP4 PUSH2 0xC1A JUMP JUMPDEST DUP1 ISZERO PUSH2 0x90B JUMPI PUSH1 0x0 DUP1 PUSH1 0x1 PUSH2 0x100 EXP DUP2 SLOAD DUP2 PUSH1 0xFF MUL NOT AND SWAP1 DUP4 ISZERO ISZERO MUL OR SWAP1 SSTORE POP PUSH32 0x7F26B83FF96E1F2B6A682F133852F6798A09C465DA95921460CEFB3847402498 PUSH1 0x1 PUSH1 0x40 MLOAD PUSH2 0x902 SWAP2 SWAP1 PUSH2 0x1C9C JUMP JUMPDEST PUSH1 0x40 MLOAD DUP1 SWAP2 SUB SWAP1 LOG1 JUMPDEST POP POP POP POP JUMP JUMPDEST PUSH1 0x0 PUSH2 0x92E PUSH1 0x97 PUSH1 0x0 DUP5 DUP2 MSTORE PUSH1 0x20 ADD SWAP1 DUP2 MSTORE PUSH1 0x20 ADD PUSH1 0x0 KECCAK256 PUSH2 0xC28 JUMP JUMPDEST SWAP1 POP SWAP2 SWAP1 POP JUMP JUMPDEST PUSH2 0x93E DUP3 PUSH2 0x437 JUMP JUMPDEST PUSH2 0x947 DUP2 PUSH2 0x9D0 JUMP JUMPDEST PUSH2 0x951 DUP4 DUP4 PUSH2 0xAFF JUMP JUMPDEST POP POP POP JUMP JUMPDEST PUSH1 0x0 PUSH32 0x7965DB0B00000000000000000000000000000000000000000000000000000000 PUSH28 0xFFFFFFFFFFFFFFFFFFFFFFFFFFFFFFFFFFFFFFFFFFFFFFFFFFFFFFFF NOT AND DUP3 PUSH28 0xFFFFFFFFFFFFFFFFFFFFFFFFFFFFFFFFFFFFFFFFFFFFFFFFFFFFFFFF NOT AND EQ DUP1 PUSH2 0x9C9 JUMPI POP PUSH2 0x9C8 DUP3 PUSH2 0xC3D JUMP JUMPDEST JUMPDEST SWAP1 POP SWAP2 SWAP1 POP JUMP JUMPDEST PUSH2 0x9E1 DUP2 PUSH2 0x9DC PUSH2 0xAF7 JUMP JUMPDEST PUSH2 0xCA7 JUMP JUMPDEST POP JUMP JUMPDEST PUSH1 0x2 PUSH1 0xC9 SLOAD SUB PUSH2 0xA29 JUMPI PUSH1 0x40 MLOAD PUSH32 0x8C379A000000000000000000000000000000000000000000000000000000000 DUP2 MSTORE PUSH1 0x4 ADD PUSH2 0xA20 SWAP1 PUSH2 0x1D03 JUMP JUMPDEST PUSH1 0x40 MLOAD DUP1 SWAP2 SUB SWAP1 REVERT JUMPDEST PUSH1 0x2 PUSH1 0xC9 DUP2 SWAP1 SSTORE POP JUMP JUMPDEST PUSH2 0xAB4 DUP4 PUSH4 0xA9059CBB PUSH1 0xE0 SHL DUP5 DUP5 PUSH1 0x40 MLOAD PUSH1 0x24 ADD PUSH2 0xA52 SWAP3 SWAP2 SWAP1 PUSH2 0x1D23 JUMP JUMPDEST PUSH1 0x40 MLOAD PUSH1 0x20 DUP2 DUP4 SUB SUB DUP2 MSTORE SWAP1 PUSH1 0x40 MSTORE SWAP1 PUSH28 0xFFFFFFFFFFFFFFFFFFFFFFFFFFFFFFFFFFFFFFFFFFFFFFFFFFFFFFFF NOT AND PUSH1 0x20 DUP3 ADD DUP1 MLOAD PUSH28 0xFFFFFFFFFFFFFFFFFFFFFFFFFFFFFFFFFFFFFFFFFFFFFFFFFFFFFFFF DUP4 DUP2 DUP4 AND OR DUP4 MSTORE POP POP POP POP PUSH2 0xD2C JUMP JUMPDEST POP POP POP JUMP JUMPDEST PUSH1 0x1 PUSH1 0xC9 DUP2 SWAP1 SSTORE POP JUMP JUMPDEST PUSH2 0xACD DUP3 DUP3 PUSH2 0xDF4 JUMP JUMPDEST PUSH2 0xAF2 DUP2 PUSH1 0x97 PUSH1 0x0 DUP6 DUP2 MSTORE PUSH1 0x20 ADD SWAP1 DUP2 MSTORE PUSH1 0x20 ADD PUSH1 0x0 KECCAK256 PUSH2 0xED5 SWAP1 SWAP2 SWAP1 PUSH4 0xFFFFFFFF AND JUMP JUMPDEST POP POP POP JUMP JUMPDEST PUSH1 0x0 CALLER SWAP1 POP SWAP1 JUMP JUMPDEST PUSH2 0xB09 DUP3 DUP3 PUSH2 0xF05 JUMP JUMPDEST PUSH2 0xB2E DUP2 PUSH1 0x97 PUSH1 0x0 DUP6 DUP2 MSTORE PUSH1 0x20 ADD SWAP1 DUP2 MSTORE PUSH1 0x20 ADD PUSH1 0x0 KECCAK256 PUSH2 0xFE7 SWAP1 SWAP2 SWAP1 PUSH4 0xFFFFFFFF AND JUMP JUMPDEST POP POP POP JUMP JUMPDEST PUSH1 0x0 PUSH2 0xB42 DUP4 PUSH1 0x0 ADD DUP4 PUSH2 0x1017 JUMP JUMPDEST PUSH1 0x0 SHR SWAP1 POP SWAP3 SWAP2 POP POP JUMP JUMPDEST PUSH1 0x0 DUP1 DUP3 PUSH20 0xFFFFFFFFFFFFFFFFFFFFFFFFFFFFFFFFFFFFFFFF AND EXTCODESIZE GT SWAP1 POP SWAP2 SWAP1 POP JUMP JUMPDEST PUSH1 0x0 PUSH1 0x1 SWAP1 SLOAD SWAP1 PUSH2 0x100 EXP SWAP1 DIV PUSH1 0xFF AND PUSH2 0xBBF JUMPI PUSH1 0x40 MLOAD PUSH32 0x8C379A000000000000000000000000000000000000000000000000000000000 DUP2 MSTORE PUSH1 0x4 ADD PUSH2 0xBB6 SWAP1 PUSH2 0x1DBE JUMP JUMPDEST PUSH1 0x40 MLOAD DUP1 SWAP2 SUB SWAP1 REVERT JUMPDEST JUMP JUMPDEST PUSH1 0x0 PUSH1 0x1 SWAP1 SLOAD SWAP1 PUSH2 0x100 EXP SWAP1 DIV PUSH1 0xFF AND PUSH2 0xC10 JUMPI PUSH1 0x40 MLOAD PUSH32 0x8C379A000000000000000000000000000000000000000000000000000000000 DUP2 MSTORE PUSH1 0x4 ADD PUSH2 0xC07 SWAP1 PUSH2 0x1DBE JUMP JUMPDEST PUSH1 0x40 MLOAD DUP1 SWAP2 SUB SWAP1 REVERT JUMPDEST PUSH2 0xC18 PUSH2 0x1042 JUMP JUMPDEST JUMP JUMPDEST PUSH2 0xC24 DUP3 DUP3 PUSH2 0xAC3 JUMP JUMPDEST POP POP JUMP JUMPDEST PUSH1 0x0 PUSH2 0xC36 DUP3 PUSH1 0x0 ADD PUSH2 0x109B JUMP JUMPDEST SWAP1 POP SWAP2 SWAP1 POP JUMP JUMPDEST PUSH1 0x0 PUSH32 0x1FFC9A700000000000000000000000000000000000000000000000000000000 PUSH28 0xFFFFFFFFFFFFFFFFFFFFFFFFFFFFFFFFFFFFFFFFFFFFFFFFFFFFFFFF NOT AND DUP3 PUSH28 0xFFFFFFFFFFFFFFFFFFFFFFFFFFFFFFFFFFFFFFFFFFFFFFFFFFFFFFFF NOT AND EQ SWAP1 POP SWAP2 SWAP1 POP JUMP JUMPDEST PUSH2 0xCB1 DUP3 DUP3 PUSH2 0x54E JUMP JUMPDEST PUSH2 0xD28 JUMPI PUSH2 0xCBE DUP2 PUSH2 0x10AC JUMP JUMPDEST PUSH2 0xCCC DUP4 PUSH1 0x0 SHR PUSH1 0x20 PUSH2 0x10D9 JUMP JUMPDEST PUSH1 0x40 MLOAD PUSH1 0x20 ADD PUSH2 0xCDD SWAP3 SWAP2 SWAP1 PUSH2 0x1EE7 JUMP JUMPDEST PUSH1 0x40 MLOAD PUSH1 0x20 DUP2 DUP4 SUB SUB DUP2 MSTORE SWAP1 PUSH1 0x40 MSTORE PUSH1 0x40 MLOAD PUSH32 0x8C379A000000000000000000000000000000000000000000000000000000000 DUP2 MSTORE PUSH1 0x4 ADD PUSH2 0xD1F SWAP2 SWAP1 PUSH2 0x1F6B JUMP JUMPDEST PUSH1 0x40 MLOAD DUP1 SWAP2 SUB SWAP1 REVERT JUMPDEST POP POP JUMP JUMPDEST PUSH1 0x0 PUSH2 0xD8E DUP3 PUSH1 0x40 MLOAD DUP1 PUSH1 0x40 ADD PUSH1 0x40 MSTORE DUP1 PUSH1 0x20 DUP2 MSTORE PUSH1 0x20 ADD PUSH32 0x5361666545524332303A206C6F772D6C6576656C2063616C6C206661696C6564 DUP2 MSTORE POP DUP6 PUSH20 0xFFFFFFFFFFFFFFFFFFFFFFFFFFFFFFFFFFFFFFFF AND PUSH2 0x1315 SWAP1 SWAP3 SWAP2 SWAP1 PUSH4 0xFFFFFFFF AND JUMP JUMPDEST SWAP1 POP PUSH1 0x0 DUP2 MLOAD EQ DUP1 PUSH2 0xDB0 JUMPI POP DUP1 DUP1 PUSH1 0x20 ADD SWAP1 MLOAD DUP2 ADD SWAP1 PUSH2 0xDAF SWAP2 SWAP1 PUSH2 0x1FB9 JUMP JUMPDEST JUMPDEST PUSH2 0xDEF JUMPI PUSH1 0x40 MLOAD PUSH32 0x8C379A000000000000000000000000000000000000000000000000000000000 DUP2 MSTORE PUSH1 0x4 ADD PUSH2 0xDE6 SWAP1 PUSH2 0x2058 JUMP JUMPDEST PUSH1 0x40 MLOAD DUP1 SWAP2 SUB SWAP1 REVERT JUMPDEST POP POP POP JUMP JUMPDEST PUSH2 0xDFE DUP3 DUP3 PUSH2 0x54E JUMP JUMPDEST PUSH2 0xED1 JUMPI PUSH1 0x1 PUSH1 0x65 PUSH1 0x0 DUP5 DUP2 MSTORE PUSH1 0x20 ADD SWAP1 DUP2 MSTORE PUSH1 0x20 ADD PUSH1 0x0 KECCAK256 PUSH1 0x0 ADD PUSH1 0x0 DUP4 PUSH20 0xFFFFFFFFFFFFFFFFFFFFFFFFFFFFFFFFFFFFFFFF AND PUSH20 0xFFFFFFFFFFFFFFFFFFFFFFFFFFFFFFFFFFFFFFFF AND DUP2 MSTORE PUSH1 0x20 ADD SWAP1 DUP2 MSTORE PUSH1 0x20 ADD PUSH1 0x0 KECCAK256 PUSH1 0x0 PUSH2 0x100 EXP DUP2 SLOAD DUP2 PUSH1 0xFF MUL NOT AND SWAP1 DUP4 ISZERO ISZERO MUL OR SWAP1 SSTORE POP PUSH2 0xE76 PUSH2 0xAF7 JUMP JUMPDEST PUSH20 0xFFFFFFFFFFFFFFFFFFFFFFFFFFFFFFFFFFFFFFFF AND DUP2 PUSH20 0xFFFFFFFFFFFFFFFFFFFFFFFFFFFFFFFFFFFFFFFF AND DUP4 PUSH32 0x2F8788117E7EFF1D82E926EC794901D17C78024A50270940304540A733656F0D PUSH1 0x40 MLOAD PUSH1 0x40 MLOAD DUP1 SWAP2 SUB SWAP1 LOG4 JUMPDEST POP POP JUMP JUMPDEST PUSH1 0x0 PUSH2 0xEFD DUP4 PUSH1 0x0 ADD DUP4 PUSH20 0xFFFFFFFFFFFFFFFFFFFFFFFFFFFFFFFFFFFFFFFF AND PUSH1 0x0 SHL PUSH2 0x132D JUMP JUMPDEST SWAP1 POP SWAP3 SWAP2 POP POP JUMP JUMPDEST PUSH2 0xF0F DUP3 DUP3 PUSH2 0x54E JUMP JUMPDEST ISZERO PUSH2 0xFE3 JUMPI PUSH1 0x0 PUSH1 0x65 PUSH1 0x0 DUP5 DUP2 MSTORE PUSH1 0x20 ADD SWAP1 DUP2 MSTORE PUSH1 0x20 ADD PUSH1 0x0 KECCAK256 PUSH1 0x0 ADD PUSH1 0x0 DUP4 PUSH20 0xFFFFFFFFFFFFFFFFFFFFFFFFFFFFFFFFFFFFFFFF AND PUSH20 0xFFFFFFFFFFFFFFFFFFFFFFFFFFFFFFFFFFFFFFFF AND DUP2 MSTORE PUSH1 0x20 ADD SWAP1 DUP2 MSTORE PUSH1 0x20 ADD PUSH1 0x0 KECCAK256 PUSH1 0x0 PUSH2 0x100 EXP DUP2 SLOAD DUP2 PUSH1 0xFF MUL NOT AND SWAP1 DUP4 ISZERO ISZERO MUL OR SWAP1 SSTORE POP PUSH2 0xF88 PUSH2 0xAF7 JUMP JUMPDEST PUSH20 0xFFFFFFFFFFFFFFFFFFFFFFFFFFFFFFFFFFFFFFFF AND DUP2 PUSH20 0xFFFFFFFFFFFFFFFFFFFFFFFFFFFFFFFFFFFFFFFF AND DUP4 PUSH32 0xF6391F5C32D9C69D2A47EA670B442974B53935D1EDC7FD64EB21E047A839171B PUSH1 0x40 MLOAD PUSH1 0x40 MLOAD DUP1 SWAP2 SUB SWAP1 LOG4 JUMPDEST POP POP JUMP JUMPDEST PUSH1 0x0 PUSH2 0x100F DUP4 PUSH1 0x0 ADD DUP4 PUSH20 0xFFFFFFFFFFFFFFFFFFFFFFFFFFFFFFFFFFFFFFFF AND PUSH1 0x0 SHL PUSH2 0x139D JUMP JUMPDEST SWAP1 POP SWAP3 SWAP2 POP POP JUMP JUMPDEST PUSH1 0x0 DUP3 PUSH1 0x0 ADD DUP3 DUP2 SLOAD DUP2 LT PUSH2 0x102F JUMPI PUSH2 0x102E PUSH2 0x2078 JUMP JUMPDEST JUMPDEST SWAP1 PUSH1 0x0 MSTORE PUSH1 0x20 PUSH1 0x0 KECCAK256 ADD SLOAD SWAP1 POP SWAP3 SWAP2 POP POP JUMP JUMPDEST PUSH1 0x0 PUSH1 0x1 SWAP1 SLOAD SWAP1 PUSH2 0x100 EXP SWAP1 DIV PUSH1 0xFF AND PUSH2 0x1091 JUMPI PUSH1 0x40 MLOAD PUSH32 0x8C379A000000000000000000000000000000000000000000000000000000000 DUP2 MSTORE PUSH1 0x4 ADD PUSH2 0x1088 SWAP1 PUSH2 0x1DBE JUMP JUMPDEST PUSH1 0x40 MLOAD DUP1 SWAP2 SUB SWAP1 REVERT JUMPDEST PUSH1 0x1 PUSH1 0xC9 DUP2 SWAP1 SSTORE POP JUMP JUMPDEST PUSH1 0x0 DUP2 PUSH1 0x0 ADD DUP1 SLOAD SWAP1 POP SWAP1 POP SWAP2 SWAP1 POP JUMP JUMPDEST PUSH1 0x60 PUSH2 0x10D2 DUP3 PUSH20 0xFFFFFFFFFFFFFFFFFFFFFFFFFFFFFFFFFFFFFFFF AND PUSH1 0x14 PUSH1 0xFF AND PUSH2 0x10D9 JUMP JUMPDEST SWAP1 POP SWAP2 SWAP1 POP JUMP JUMPDEST PUSH1 0x60 PUSH1 0x0 PUSH1 0x2 DUP4 PUSH1 0x2 PUSH2 0x10EC SWAP2 SWAP1 PUSH2 0x20D6 JUMP JUMPDEST PUSH2 0x10F6 SWAP2 SWAP1 PUSH2 0x2118 JUMP JUMPDEST PUSH8 0xFFFFFFFFFFFFFFFF DUP2 GT ISZERO PUSH2 0x110F JUMPI PUSH2 0x110E PUSH2 0x214C JUMP JUMPDEST JUMPDEST PUSH1 0x40 MLOAD SWAP1 DUP1 DUP3 MSTORE DUP1 PUSH1 0x1F ADD PUSH1 0x1F NOT AND PUSH1 0x20 ADD DUP3 ADD PUSH1 0x40 MSTORE DUP1 ISZERO PUSH2 0x1141 JUMPI DUP2 PUSH1 0x20 ADD PUSH1 0x1 DUP3 MUL DUP1 CALLDATASIZE DUP4 CALLDATACOPY DUP1 DUP3 ADD SWAP2 POP POP SWAP1 POP JUMPDEST POP SWAP1 POP PUSH32 0x3000000000000000000000000000000000000000000000000000000000000000 DUP2 PUSH1 0x0 DUP2 MLOAD DUP2 LT PUSH2 0x1179 JUMPI PUSH2 0x1178 PUSH2 0x2078 JUMP JUMPDEST JUMPDEST PUSH1 0x20 ADD ADD SWAP1 PUSH31 0xFFFFFFFFFFFFFFFFFFFFFFFFFFFFFFFFFFFFFFFFFFFFFFFFFFFFFFFFFFFFFF NOT AND SWAP1 DUP2 PUSH1 0x0 BYTE SWAP1 MSTORE8 POP PUSH32 0x7800000000000000000000000000000000000000000000000000000000000000 DUP2 PUSH1 0x1 DUP2 MLOAD DUP2 LT PUSH2 0x11DD JUMPI PUSH2 0x11DC PUSH2 0x2078 JUMP JUMPDEST JUMPDEST PUSH1 0x20 ADD ADD SWAP1 PUSH31 0xFFFFFFFFFFFFFFFFFFFFFFFFFFFFFFFFFFFFFFFFFFFFFFFFFFFFFFFFFFFFFF NOT AND SWAP1 DUP2 PUSH1 0x0 BYTE SWAP1 MSTORE8 POP PUSH1 0x0 PUSH1 0x1 DUP5 PUSH1 0x2 PUSH2 0x121D SWAP2 SWAP1 PUSH2 0x20D6 JUMP JUMPDEST PUSH2 0x1227 SWAP2 SWAP1 PUSH2 0x2118 JUMP JUMPDEST SWAP1 POP JUMPDEST PUSH1 0x1 DUP2 GT ISZERO PUSH2 0x12C7 JUMPI PUSH32 0x3031323334353637383961626364656600000000000000000000000000000000 PUSH1 0xF DUP7 AND PUSH1 0x10 DUP2 LT PUSH2 0x1269 JUMPI PUSH2 0x1268 PUSH2 0x2078 JUMP JUMPDEST JUMPDEST BYTE PUSH1 0xF8 SHL DUP3 DUP3 DUP2 MLOAD DUP2 LT PUSH2 0x1280 JUMPI PUSH2 0x127F PUSH2 0x2078 JUMP JUMPDEST JUMPDEST PUSH1 0x20 ADD ADD SWAP1 PUSH31 0xFFFFFFFFFFFFFFFFFFFFFFFFFFFFFFFFFFFFFFFFFFFFFFFFFFFFFFFFFFFFFF NOT AND SWAP1 DUP2 PUSH1 0x0 BYTE SWAP1 MSTORE8 POP PUSH1 0x4 DUP6 SWAP1 SHR SWAP5 POP DUP1 PUSH2 0x12C0 SWAP1 PUSH2 0x217B JUMP JUMPDEST SWAP1 POP PUSH2 0x122A JUMP JUMPDEST POP PUSH1 0x0 DUP5 EQ PUSH2 0x130B JUMPI PUSH1 0x40 MLOAD PUSH32 0x8C379A000000000000000000000000000000000000000000000000000000000 DUP2 MSTORE PUSH1 0x4 ADD PUSH2 0x1302 SWAP1 PUSH2 0x21F0 JUMP JUMPDEST PUSH1 0x40 MLOAD DUP1 SWAP2 SUB SWAP1 REVERT JUMPDEST DUP1 SWAP2 POP POP SWAP3 SWAP2 POP POP JUMP JUMPDEST PUSH1 0x60 PUSH2 0x1324 DUP5 DUP5 PUSH1 0x0 DUP6 PUSH2 0x14B1 JUMP JUMPDEST SWAP1 POP SWAP4 SWAP3 POP POP POP JUMP JUMPDEST PUSH1 0x0 PUSH2 0x1339 DUP4 DUP4 PUSH2 0x157E JUMP JUMPDEST PUSH2 0x1392 JUMPI DUP3 PUSH1 0x0 ADD DUP3 SWAP1 DUP1 PUSH1 0x1 DUP2 SLOAD ADD DUP1 DUP3 SSTORE DUP1 SWAP2 POP POP PUSH1 0x1 SWAP1 SUB SWAP1 PUSH1 0x0 MSTORE PUSH1 0x20 PUSH1 0x0 KECCAK256 ADD PUSH1 0x0 SWAP1 SWAP2 SWAP1 SWAP2 SWAP1 SWAP2 POP SSTORE DUP3 PUSH1 0x0 ADD DUP1 SLOAD SWAP1 POP DUP4 PUSH1 0x1 ADD PUSH1 0x0 DUP5 DUP2 MSTORE PUSH1 0x20 ADD SWAP1 DUP2 MSTORE PUSH1 0x20 ADD PUSH1 0x0 KECCAK256 DUP2 SWAP1 SSTORE POP PUSH1 0x1 SWAP1 POP PUSH2 0x1397 JUMP JUMPDEST PUSH1 0x0 SWAP1 POP JUMPDEST SWAP3 SWAP2 POP POP JUMP JUMPDEST PUSH1 0x0 DUP1 DUP4 PUSH1 0x1 ADD PUSH1 0x0 DUP5 DUP2 MSTORE PUSH1 0x20 ADD SWAP1 DUP2 MSTORE PUSH1 0x20 ADD PUSH1 0x0 KECCAK256 SLOAD SWAP1 POP PUSH1 0x0 DUP2 EQ PUSH2 0x14A5 JUMPI PUSH1 0x0 PUSH1 0x1 DUP3 PUSH2 0x13CF SWAP2 SWAP1 PUSH2 0x2210 JUMP JUMPDEST SWAP1 POP PUSH1 0x0 PUSH1 0x1 DUP7 PUSH1 0x0 ADD DUP1 SLOAD SWAP1 POP PUSH2 0x13E7 SWAP2 SWAP1 PUSH2 0x2210 JUMP JUMPDEST SWAP1 POP DUP2 DUP2 EQ PUSH2 0x1456 JUMPI PUSH1 0x0 DUP7 PUSH1 0x0 ADD DUP3 DUP2 SLOAD DUP2 LT PUSH2 0x1408 JUMPI PUSH2 0x1407 PUSH2 0x2078 JUMP JUMPDEST JUMPDEST SWAP1 PUSH1 0x0 MSTORE PUSH1 0x20 PUSH1 0x0 KECCAK256 ADD SLOAD SWAP1 POP DUP1 DUP8 PUSH1 0x0 ADD DUP5 DUP2 SLOAD DUP2 LT PUSH2 0x142C JUMPI PUSH2 0x142B PUSH2 0x2078 JUMP JUMPDEST JUMPDEST SWAP1 PUSH1 0x0 MSTORE PUSH1 0x20 PUSH1 0x0 KECCAK256 ADD DUP2 SWAP1 SSTORE POP DUP4 DUP8 PUSH1 0x1 ADD PUSH1 0x0 DUP4 DUP2 MSTORE PUSH1 0x20 ADD SWAP1 DUP2 MSTORE PUSH1 0x20 ADD PUSH1 0x0 KECCAK256 DUP2 SWAP1 SSTORE POP POP JUMPDEST DUP6 PUSH1 0x0 ADD DUP1 SLOAD DUP1 PUSH2 0x146A JUMPI PUSH2 0x1469 PUSH2 0x2244 JUMP JUMPDEST JUMPDEST PUSH1 0x1 SWAP1 SUB DUP2 DUP2 SWAP1 PUSH1 0x0 MSTORE PUSH1 0x20 PUSH1 0x0 KECCAK256 ADD PUSH1 0x0 SWAP1 SSTORE SWAP1 SSTORE DUP6 PUSH1 0x1 ADD PUSH1 0x0 DUP7 DUP2 MSTORE PUSH1 0x20 ADD SWAP1 DUP2 MSTORE PUSH1 0x20 ADD PUSH1 0x0 KECCAK256 PUSH1 0x0 SWAP1 SSTORE PUSH1 0x1 SWAP4 POP POP POP POP PUSH2 0x14AB JUMP JUMPDEST PUSH1 0x0 SWAP2 POP POP JUMPDEST SWAP3 SWAP2 POP POP JUMP JUMPDEST PUSH1 0x60 DUP3 SELFBALANCE LT ISZERO PUSH2 0x14F6 JUMPI PUSH1 0x40 MLOAD PUSH32 0x8C379A000000000000000000000000000000000000000000000000000000000 DUP2 MSTORE PUSH1 0x4 ADD PUSH2 0x14ED SWAP1 PUSH2 0x22E5 JUMP JUMPDEST PUSH1 0x40 MLOAD DUP1 SWAP2 SUB SWAP1 REVERT JUMPDEST PUSH1 0x0 DUP1 DUP7 PUSH20 0xFFFFFFFFFFFFFFFFFFFFFFFFFFFFFFFFFFFFFFFF AND DUP6 DUP8 PUSH1 0x40 MLOAD PUSH2 0x151F SWAP2 SWAP1 PUSH2 0x234C JUMP JUMPDEST PUSH1 0x0 PUSH1 0x40 MLOAD DUP1 DUP4 SUB DUP2 DUP6 DUP8 GAS CALL SWAP3 POP POP POP RETURNDATASIZE DUP1 PUSH1 0x0 DUP2 EQ PUSH2 0x155C JUMPI PUSH1 0x40 MLOAD SWAP2 POP PUSH1 0x1F NOT PUSH1 0x3F RETURNDATASIZE ADD AND DUP3 ADD PUSH1 0x40 MSTORE RETURNDATASIZE DUP3 MSTORE RETURNDATASIZE PUSH1 0x0 PUSH1 0x20 DUP5 ADD RETURNDATACOPY PUSH2 0x1561 JUMP JUMPDEST PUSH1 0x60 SWAP2 POP JUMPDEST POP SWAP2 POP SWAP2 POP PUSH2 0x1572 DUP8 DUP4 DUP4 DUP8 PUSH2 0x15A1 JUMP JUMPDEST SWAP3 POP POP POP SWAP5 SWAP4 POP POP POP POP JUMP JUMPDEST PUSH1 0x0 DUP1 DUP4 PUSH1 0x1 ADD PUSH1 0x0 DUP5 DUP2 MSTORE PUSH1 0x20 ADD SWAP1 DUP2 MSTORE PUSH1 0x20 ADD PUSH1 0x0 KECCAK256 SLOAD EQ ISZERO SWAP1 POP SWAP3 SWAP2 POP POP JUMP JUMPDEST PUSH1 0x60 DUP4 ISZERO PUSH2 0x1603 JUMPI PUSH1 0x0 DUP4 MLOAD SUB PUSH2 0x15FB JUMPI PUSH2 0x15BB DUP6 PUSH2 0x1616 JUMP JUMPDEST PUSH2 0x15FA JUMPI PUSH1 0x40 MLOAD PUSH32 0x8C379A000000000000000000000000000000000000000000000000000000000 DUP2 MSTORE PUSH1 0x4 ADD PUSH2 0x15F1 SWAP1 PUSH2 0x23AF JUMP JUMPDEST PUSH1 0x40 MLOAD DUP1 SWAP2 SUB SWAP1 REVERT JUMPDEST JUMPDEST DUP3 SWAP1 POP PUSH2 0x160E JUMP JUMPDEST PUSH2 0x160D DUP4 DUP4 PUSH2 0x1639 JUMP JUMPDEST JUMPDEST SWAP5 SWAP4 POP POP POP POP JUMP JUMPDEST PUSH1 0x0 DUP1 DUP3 PUSH20 0xFFFFFFFFFFFFFFFFFFFFFFFFFFFFFFFFFFFFFFFF AND EXTCODESIZE GT SWAP1 POP SWAP2 SWAP1 POP JUMP JUMPDEST PUSH1 0x0 DUP3 MLOAD GT ISZERO PUSH2 0x164C JUMPI DUP2 MLOAD DUP1 DUP4 PUSH1 0x20 ADD REVERT JUMPDEST DUP1 PUSH1 0x40 MLOAD PUSH32 0x8C379A000000000000000000000000000000000000000000000000000000000 DUP2 MSTORE PUSH1 0x4 ADD PUSH2 0x1680 SWAP2 SWAP1 PUSH2 0x1F6B JUMP JUMPDEST PUSH1 0x40 MLOAD DUP1 SWAP2 SUB SWAP1 REVERT JUMPDEST PUSH1 0x0 DUP1 REVERT JUMPDEST PUSH1 0x0 PUSH32 0xFFFFFFFF00000000000000000000000000000000000000000000000000000000 DUP3 AND SWAP1 POP SWAP2 SWAP1 POP JUMP JUMPDEST PUSH2 0x16C3 DUP2 PUSH2 0x168E JUMP JUMPDEST DUP2 EQ PUSH2 0x16CE JUMPI PUSH1 0x0 DUP1 REVERT JUMPDEST POP JUMP JUMPDEST PUSH1 0x0 DUP2 CALLDATALOAD SWAP1 POP PUSH2 0x16E0 DUP2 PUSH2 0x16BA JUMP JUMPDEST SWAP3 SWAP2 POP POP JUMP JUMPDEST PUSH1 0x0 PUSH1 0x20 DUP3 DUP5 SUB SLT ISZERO PUSH2 0x16FC JUMPI PUSH2 0x16FB PUSH2 0x1689 JUMP JUMPDEST JUMPDEST PUSH1 0x0 PUSH2 0x170A DUP5 DUP3 DUP6 ADD PUSH2 0x16D1 JUMP JUMPDEST SWAP2 POP POP SWAP3 SWAP2 POP POP JUMP JUMPDEST PUSH1 0x0 DUP2 ISZERO ISZERO SWAP1 POP SWAP2 SWAP1 POP JUMP JUMPDEST PUSH2 0x1728 DUP2 PUSH2 0x1713 JUMP JUMPDEST DUP3 MSTORE POP POP JUMP JUMPDEST PUSH1 0x0 PUSH1 0x20 DUP3 ADD SWAP1 POP PUSH2 0x1743 PUSH1 0x0 DUP4 ADD DUP5 PUSH2 0x171F JUMP JUMPDEST SWAP3 SWAP2 POP POP JUMP JUMPDEST PUSH1 0x0 DUP2 SWAP1 POP SWAP2 SWAP1 POP JUMP JUMPDEST PUSH2 0x175C DUP2 PUSH2 0x1749 JUMP JUMPDEST DUP2 EQ PUSH2 0x1767 JUMPI PUSH1 0x0 DUP1 REVERT JUMPDEST POP JUMP JUMPDEST PUSH1 0x0 DUP2 CALLDATALOAD SWAP1 POP PUSH2 0x1779 DUP2 PUSH2 0x1753 JUMP JUMPDEST SWAP3 SWAP2 POP POP JUMP JUMPDEST PUSH1 0x0 PUSH20 0xFFFFFFFFFFFFFFFFFFFFFFFFFFFFFFFFFFFFFFFF DUP3 AND SWAP1 POP SWAP2 SWAP1 POP JUMP JUMPDEST PUSH1 0x0 PUSH2 0x17AA DUP3 PUSH2 0x177F JUMP JUMPDEST SWAP1 POP SWAP2 SWAP1 POP JUMP JUMPDEST PUSH2 0x17BA DUP2 PUSH2 0x179F JUMP JUMPDEST DUP2 EQ PUSH2 0x17C5 JUMPI PUSH1 0x0 DUP1 REVERT JUMPDEST POP JUMP JUMPDEST PUSH1 0x0 DUP2 CALLDATALOAD SWAP1 POP PUSH2 0x17D7 DUP2 PUSH2 0x17B1 JUMP JUMPDEST SWAP3 SWAP2 POP POP JUMP JUMPDEST PUSH1 0x0 DUP1 PUSH1 0x40 DUP4 DUP6 SUB SLT ISZERO PUSH2 0x17F4 JUMPI PUSH2 0x17F3 PUSH2 0x1689 JUMP JUMPDEST JUMPDEST PUSH1 0x0 PUSH2 0x1802 DUP6 DUP3 DUP7 ADD PUSH2 0x176A JUMP JUMPDEST SWAP3 POP POP PUSH1 0x20 PUSH2 0x1813 DUP6 DUP3 DUP7 ADD PUSH2 0x17C8 JUMP JUMPDEST SWAP2 POP POP SWAP3 POP SWAP3 SWAP1 POP JUMP JUMPDEST PUSH1 0x0 DUP2 SWAP1 POP SWAP2 SWAP1 POP JUMP JUMPDEST PUSH2 0x1830 DUP2 PUSH2 0x181D JUMP JUMPDEST DUP2 EQ PUSH2 0x183B JUMPI PUSH1 0x0 DUP1 REVERT JUMPDEST POP JUMP JUMPDEST PUSH1 0x0 DUP2 CALLDATALOAD SWAP1 POP PUSH2 0x184D DUP2 PUSH2 0x1827 JUMP JUMPDEST SWAP3 SWAP2 POP POP JUMP JUMPDEST PUSH1 0x0 PUSH1 0x20 DUP3 DUP5 SUB SLT ISZERO PUSH2 0x1869 JUMPI PUSH2 0x1868 PUSH2 0x1689 JUMP JUMPDEST JUMPDEST PUSH1 0x0 PUSH2 0x1877 DUP5 DUP3 DUP6 ADD PUSH2 0x183E JUMP JUMPDEST SWAP2 POP POP SWAP3 SWAP2 POP POP JUMP JUMPDEST PUSH2 0x1889 DUP2 PUSH2 0x181D JUMP JUMPDEST DUP3 MSTORE POP POP JUMP JUMPDEST PUSH1 0x0 PUSH1 0x20 DUP3 ADD SWAP1 POP PUSH2 0x18A4 PUSH1 0x0 DUP4 ADD DUP5 PUSH2 0x1880 JUMP JUMPDEST SWAP3 SWAP2 POP POP JUMP JUMPDEST PUSH1 0x0 DUP1 PUSH1 0x40 DUP4 DUP6 SUB SLT ISZERO PUSH2 0x18C1 JUMPI PUSH2 0x18C0 PUSH2 0x1689 JUMP JUMPDEST JUMPDEST PUSH1 0x0 PUSH2 0x18CF DUP6 DUP3 DUP7 ADD PUSH2 0x183E JUMP JUMPDEST SWAP3 POP POP PUSH1 0x20 PUSH2 0x18E0 DUP6 DUP3 DUP7 ADD PUSH2 0x17C8 JUMP JUMPDEST SWAP2 POP POP SWAP3 POP SWAP3 SWAP1 POP JUMP JUMPDEST PUSH1 0x0 DUP1 PUSH1 0x40 DUP4 DUP6 SUB SLT ISZERO PUSH2 0x1901 JUMPI PUSH2 0x1900 PUSH2 0x1689 JUMP JUMPDEST JUMPDEST PUSH1 0x0 PUSH2 0x190F DUP6 DUP3 DUP7 ADD PUSH2 0x183E JUMP JUMPDEST SWAP3 POP POP PUSH1 0x20 PUSH2 0x1920 DUP6 DUP3 DUP7 ADD PUSH2 0x176A JUMP JUMPDEST SWAP2 POP POP SWAP3 POP SWAP3 SWAP1 POP JUMP JUMPDEST PUSH2 0x1933 DUP2 PUSH2 0x179F JUMP JUMPDEST DUP3 MSTORE POP POP JUMP JUMPDEST PUSH1 0x0 PUSH1 0x20 DUP3 ADD SWAP1 POP PUSH2 0x194E PUSH1 0x0 DUP4 ADD DUP5 PUSH2 0x192A JUMP JUMPDEST SWAP3 SWAP2 POP POP JUMP JUMPDEST PUSH1 0x0 DUP1 PUSH1 0x0 PUSH1 0x60 DUP5 DUP7 SUB SLT ISZERO PUSH2 0x196D JUMPI PUSH2 0x196C PUSH2 0x1689 JUMP JUMPDEST JUMPDEST PUSH1 0x0 PUSH2 0x197B DUP7 DUP3 DUP8 ADD PUSH2 0x17C8 JUMP JUMPDEST SWAP4 POP POP PUSH1 0x20 PUSH2 0x198C DUP7 DUP3 DUP8 ADD PUSH2 0x17C8 JUMP JUMPDEST SWAP3 POP POP PUSH1 0x40 PUSH2 0x199D DUP7 DUP3 DUP8 ADD PUSH2 0x17C8 JUMP JUMPDEST SWAP2 POP POP SWAP3 POP SWAP3 POP SWAP3 JUMP JUMPDEST PUSH2 0x19B0 DUP2 PUSH2 0x1749 JUMP JUMPDEST DUP3 MSTORE POP POP JUMP JUMPDEST PUSH1 0x0 PUSH1 0x20 DUP3 ADD SWAP1 POP PUSH2 0x19CB PUSH1 0x0 DUP4 ADD DUP5 PUSH2 0x19A7 JUMP JUMPDEST SWAP3 SWAP2 POP POP JUMP JUMPDEST PUSH1 0x0 DUP3 DUP3 MSTORE PUSH1 0x20 DUP3 ADD SWAP1 POP SWAP3 SWAP2 POP POP JUMP JUMPDEST PUSH32 0x416363657373436F6E74726F6C3A2063616E206F6E6C792072656E6F756E6365 PUSH1 0x0 DUP3 ADD MSTORE PUSH32 0x20726F6C657320666F722073656C660000000000000000000000000000000000 PUSH1 0x20 DUP3 ADD MSTORE POP JUMP JUMPDEST PUSH1 0x0 PUSH2 0x1A3E PUSH1 0x2F DUP4 PUSH2 0x19D1 JUMP JUMPDEST SWAP2 POP PUSH2 0x1A49 DUP3 PUSH2 0x19E2 JUMP JUMPDEST PUSH1 0x40 DUP3 ADD SWAP1 POP SWAP2 SWAP1 POP JUMP JUMPDEST PUSH1 0x0 PUSH1 0x20 DUP3 ADD SWAP1 POP DUP2 DUP2 SUB PUSH1 0x0 DUP4 ADD MSTORE PUSH2 0x1A6D DUP2 PUSH2 0x1A31 JUMP JUMPDEST SWAP1 POP SWAP2 SWAP1 POP JUMP JUMPDEST PUSH32 0x496E697469616C697A61626C653A20636F6E747261637420697320616C726561 PUSH1 0x0 DUP3 ADD MSTORE PUSH32 0x647920696E697469616C697A6564000000000000000000000000000000000000 PUSH1 0x20 DUP3 ADD MSTORE POP JUMP JUMPDEST PUSH1 0x0 PUSH2 0x1AD0 PUSH1 0x2E DUP4 PUSH2 0x19D1 JUMP JUMPDEST SWAP2 POP PUSH2 0x1ADB DUP3 PUSH2 0x1A74 JUMP JUMPDEST PUSH1 0x40 DUP3 ADD SWAP1 POP SWAP2 SWAP1 POP JUMP JUMPDEST PUSH1 0x0 PUSH1 0x20 DUP3 ADD SWAP1 POP DUP2 DUP2 SUB PUSH1 0x0 DUP4 ADD MSTORE PUSH2 0x1AFF DUP2 PUSH2 0x1AC3 JUMP JUMPDEST SWAP1 POP SWAP2 SWAP1 POP JUMP JUMPDEST PUSH32 0x5769746864726177416464720000000000000000000000000000000000000000 PUSH1 0x0 DUP3 ADD MSTORE POP JUMP JUMPDEST PUSH1 0x0 PUSH2 0x1B3C PUSH1 0xC DUP4 PUSH2 0x19D1 JUMP JUMPDEST SWAP2 POP PUSH2 0x1B47 DUP3 PUSH2 0x1B06 JUMP JUMPDEST PUSH1 0x20 DUP3 ADD SWAP1 POP SWAP2 SWAP1 POP JUMP JUMPDEST PUSH1 0x0 PUSH1 0x20 DUP3 ADD SWAP1 POP DUP2 DUP2 SUB PUSH1 0x0 DUP4 ADD MSTORE PUSH2 0x1B6B DUP2 PUSH2 0x1B2F JUMP JUMPDEST SWAP1 POP SWAP2 SWAP1 POP JUMP JUMPDEST PUSH32 0x46697273744C656E6465724C6971416464720000000000000000000000000000 PUSH1 0x0 DUP3 ADD MSTORE POP JUMP JUMPDEST PUSH1 0x0 PUSH2 0x1BA8 PUSH1 0x12 DUP4 PUSH2 0x19D1 JUMP JUMPDEST SWAP2 POP PUSH2 0x1BB3 DUP3 PUSH2 0x1B72 JUMP JUMPDEST PUSH1 0x20 DUP3 ADD SWAP1 POP SWAP2 SWAP1 POP JUMP JUMPDEST PUSH1 0x0 PUSH1 0x20 DUP3 ADD SWAP1 POP DUP2 DUP2 SUB PUSH1 0x0 DUP4 ADD MSTORE PUSH2 0x1BD7 DUP2 PUSH2 0x1B9B JUMP JUMPDEST SWAP1 POP SWAP2 SWAP1 POP JUMP JUMPDEST PUSH32 0x5365636F6E644C656E6465724C69714164647200000000000000000000000000 PUSH1 0x0 DUP3 ADD MSTORE POP JUMP JUMPDEST PUSH1 0x0 PUSH2 0x1C14 PUSH1 0x13 DUP4 PUSH2 0x19D1 JUMP JUMPDEST SWAP2 POP PUSH2 0x1C1F DUP3 PUSH2 0x1BDE JUMP JUMPDEST PUSH1 0x20 DUP3 ADD SWAP1 POP SWAP2 SWAP1 POP JUMP JUMPDEST PUSH1 0x0 PUSH1 0x20 DUP3 ADD SWAP1 POP DUP2 DUP2 SUB PUSH1 0x0 DUP4 ADD MSTORE PUSH2 0x1C43 DUP2 PUSH2 0x1C07 JUMP JUMPDEST SWAP1 POP SWAP2 SWAP1 POP JUMP JUMPDEST PUSH1 0x0 DUP2 SWAP1 POP SWAP2 SWAP1 POP JUMP JUMPDEST PUSH1 0x0 PUSH1 0xFF DUP3 AND SWAP1 POP SWAP2 SWAP1 POP JUMP JUMPDEST PUSH1 0x0 DUP2 SWAP1 POP SWAP2 SWAP1 POP JUMP JUMPDEST PUSH1 0x0 PUSH2 0x1C86 PUSH2 0x1C81 PUSH2 0x1C7C DUP5 PUSH2 0x1C4A JUMP JUMPDEST PUSH2 0x1C61 JUMP JUMPDEST PUSH2 0x1C54 JUMP JUMPDEST SWAP1 POP SWAP2 SWAP1 POP JUMP JUMPDEST PUSH2 0x1C96 DUP2 PUSH2 0x1C6B JUMP JUMPDEST DUP3 MSTORE POP POP JUMP JUMPDEST PUSH1 0x0 PUSH1 0x20 DUP3 ADD SWAP1 POP PUSH2 0x1CB1 PUSH1 0x0 DUP4 ADD DUP5 PUSH2 0x1C8D JUMP JUMPDEST SWAP3 SWAP2 POP POP JUMP JUMPDEST PUSH32 0x5265656E7472616E637947756172643A207265656E7472616E742063616C6C00 PUSH1 0x0 DUP3 ADD MSTORE POP JUMP JUMPDEST PUSH1 0x0 PUSH2 0x1CED PUSH1 0x1F DUP4 PUSH2 0x19D1 JUMP JUMPDEST SWAP2 POP PUSH2 0x1CF8 DUP3 PUSH2 0x1CB7 JUMP JUMPDEST PUSH1 0x20 DUP3 ADD SWAP1 POP SWAP2 SWAP1 POP JUMP JUMPDEST PUSH1 0x0 PUSH1 0x20 DUP3 ADD SWAP1 POP DUP2 DUP2 SUB PUSH1 0x0 DUP4 ADD MSTORE PUSH2 0x1D1C DUP2 PUSH2 0x1CE0 JUMP JUMPDEST SWAP1 POP SWAP2 SWAP1 POP JUMP JUMPDEST PUSH1 0x0 PUSH1 0x40 DUP3 ADD SWAP1 POP PUSH2 0x1D38 PUSH1 0x0 DUP4 ADD DUP6 PUSH2 0x192A JUMP JUMPDEST PUSH2 0x1D45 PUSH1 0x20 DUP4 ADD DUP5 PUSH2 0x19A7 JUMP JUMPDEST SWAP4 SWAP3 POP POP POP JUMP JUMPDEST PUSH32 0x496E697469616C697A61626C653A20636F6E7472616374206973206E6F742069 PUSH1 0x0 DUP3 ADD MSTORE PUSH32 0x6E697469616C697A696E67000000000000000000000000000000000000000000 PUSH1 0x20 DUP3 ADD MSTORE POP JUMP JUMPDEST PUSH1 0x0 PUSH2 0x1DA8 PUSH1 0x2B DUP4 PUSH2 0x19D1 JUMP JUMPDEST SWAP2 POP PUSH2 0x1DB3 DUP3 PUSH2 0x1D4C JUMP JUMPDEST PUSH1 0x40 DUP3 ADD SWAP1 POP SWAP2 SWAP1 POP JUMP JUMPDEST PUSH1 0x0 PUSH1 0x20 DUP3 ADD SWAP1 POP DUP2 DUP2 SUB PUSH1 0x0 DUP4 ADD MSTORE PUSH2 0x1DD7 DUP2 PUSH2 0x1D9B JUMP JUMPDEST SWAP1 POP SWAP2 SWAP1 POP JUMP JUMPDEST PUSH1 0x0 DUP2 SWAP1 POP SWAP3 SWAP2 POP POP JUMP JUMPDEST PUSH32 0x416363657373436F6E74726F6C3A206163636F756E7420000000000000000000 PUSH1 0x0 DUP3 ADD MSTORE POP JUMP JUMPDEST PUSH1 0x0 PUSH2 0x1E1F PUSH1 0x17 DUP4 PUSH2 0x1DDE JUMP JUMPDEST SWAP2 POP PUSH2 0x1E2A DUP3 PUSH2 0x1DE9 JUMP JUMPDEST PUSH1 0x17 DUP3 ADD SWAP1 POP SWAP2 SWAP1 POP JUMP JUMPDEST PUSH1 0x0 DUP2 MLOAD SWAP1 POP SWAP2 SWAP1 POP JUMP JUMPDEST PUSH1 0x0 JUMPDEST DUP4 DUP2 LT ISZERO PUSH2 0x1E5E JUMPI DUP1 DUP3 ADD MLOAD DUP2 DUP5 ADD MSTORE PUSH1 0x20 DUP2 ADD SWAP1 POP PUSH2 0x1E43 JUMP JUMPDEST PUSH1 0x0 DUP5 DUP5 ADD MSTORE POP POP POP POP JUMP JUMPDEST PUSH1 0x0 PUSH2 0x1E75 DUP3 PUSH2 0x1E35 JUMP JUMPDEST PUSH2 0x1E7F DUP2 DUP6 PUSH2 0x1DDE JUMP JUMPDEST SWAP4 POP PUSH2 0x1E8F DUP2 DUP6 PUSH1 0x20 DUP7 ADD PUSH2 0x1E40 JUMP JUMPDEST DUP1 DUP5 ADD SWAP2 POP POP SWAP3 SWAP2 POP POP JUMP JUMPDEST PUSH32 0x206973206D697373696E6720726F6C6520000000000000000000000000000000 PUSH1 0x0 DUP3 ADD MSTORE POP JUMP JUMPDEST PUSH1 0x0 PUSH2 0x1ED1 PUSH1 0x11 DUP4 PUSH2 0x1DDE JUMP JUMPDEST SWAP2 POP PUSH2 0x1EDC DUP3 PUSH2 0x1E9B JUMP JUMPDEST PUSH1 0x11 DUP3 ADD SWAP1 POP SWAP2 SWAP1 POP JUMP JUMPDEST PUSH1 0x0 PUSH2 0x1EF2 DUP3 PUSH2 0x1E12 JUMP JUMPDEST SWAP2 POP PUSH2 0x1EFE DUP3 DUP6 PUSH2 0x1E6A JUMP JUMPDEST SWAP2 POP PUSH2 0x1F09 DUP3 PUSH2 0x1EC4 JUMP JUMPDEST SWAP2 POP PUSH2 0x1F15 DUP3 DUP5 PUSH2 0x1E6A JUMP JUMPDEST SWAP2 POP DUP2 SWAP1 POP SWAP4 SWAP3 POP POP POP JUMP JUMPDEST PUSH1 0x0 PUSH1 0x1F NOT PUSH1 0x1F DUP4 ADD AND SWAP1 POP SWAP2 SWAP1 POP JUMP JUMPDEST PUSH1 0x0 PUSH2 0x1F3D DUP3 PUSH2 0x1E35 JUMP JUMPDEST PUSH2 0x1F47 DUP2 DUP6 PUSH2 0x19D1 JUMP JUMPDEST SWAP4 POP PUSH2 0x1F57 DUP2 DUP6 PUSH1 0x20 DUP7 ADD PUSH2 0x1E40 JUMP JUMPDEST PUSH2 0x1F60 DUP2 PUSH2 0x1F21 JUMP JUMPDEST DUP5 ADD SWAP2 POP POP SWAP3 SWAP2 POP POP JUMP JUMPDEST PUSH1 0x0 PUSH1 0x20 DUP3 ADD SWAP1 POP DUP2 DUP2 SUB PUSH1 0x0 DUP4 ADD MSTORE PUSH2 0x1F85 DUP2 DUP5 PUSH2 0x1F32 JUMP JUMPDEST SWAP1 POP SWAP3 SWAP2 POP POP JUMP JUMPDEST PUSH2 0x1F96 DUP2 PUSH2 0x1713 JUMP JUMPDEST DUP2 EQ PUSH2 0x1FA1 JUMPI PUSH1 0x0 DUP1 REVERT JUMPDEST POP JUMP JUMPDEST PUSH1 0x0 DUP2 MLOAD SWAP1 POP PUSH2 0x1FB3 DUP2 PUSH2 0x1F8D JUMP JUMPDEST SWAP3 SWAP2 POP POP JUMP JUMPDEST PUSH1 0x0 PUSH1 0x20 DUP3 DUP5 SUB SLT ISZERO PUSH2 0x1FCF JUMPI PUSH2 0x1FCE PUSH2 0x1689 JUMP JUMPDEST JUMPDEST PUSH1 0x0 PUSH2 0x1FDD DUP5 DUP3 DUP6 ADD PUSH2 0x1FA4 JUMP JUMPDEST SWAP2 POP POP SWAP3 SWAP2 POP POP JUMP JUMPDEST PUSH32 0x5361666545524332303A204552433230206F7065726174696F6E20646964206E PUSH1 0x0 DUP3 ADD MSTORE PUSH32 0x6F74207375636365656400000000000000000000000000000000000000000000 PUSH1 0x20 DUP3 ADD MSTORE POP JUMP JUMPDEST PUSH1 0x0 PUSH2 0x2042 PUSH1 0x2A DUP4 PUSH2 0x19D1 JUMP JUMPDEST SWAP2 POP PUSH2 0x204D DUP3 PUSH2 0x1FE6 JUMP JUMPDEST PUSH1 0x40 DUP3 ADD SWAP1 POP SWAP2 SWAP1 POP JUMP JUMPDEST PUSH1 0x0 PUSH1 0x20 DUP3 ADD SWAP1 POP DUP2 DUP2 SUB PUSH1 0x0 DUP4 ADD MSTORE PUSH2 0x2071 DUP2 PUSH2 0x2035 JUMP JUMPDEST SWAP1 POP SWAP2 SWAP1 POP JUMP JUMPDEST PUSH32 0x4E487B7100000000000000000000000000000000000000000000000000000000 PUSH1 0x0 MSTORE PUSH1 0x32 PUSH1 0x4 MSTORE PUSH1 0x24 PUSH1 0x0 REVERT JUMPDEST PUSH32 0x4E487B7100000000000000000000000000000000000000000000000000000000 PUSH1 0x0 MSTORE PUSH1 0x11 PUSH1 0x4 MSTORE PUSH1 0x24 PUSH1 0x0 REVERT JUMPDEST PUSH1 0x0 PUSH2 0x20E1 DUP3 PUSH2 0x1749 JUMP JUMPDEST SWAP2 POP PUSH2 0x20EC DUP4 PUSH2 0x1749 JUMP JUMPDEST SWAP3 POP DUP3 DUP3 MUL PUSH2 0x20FA DUP2 PUSH2 0x1749 JUMP JUMPDEST SWAP2 POP DUP3 DUP3 DIV DUP5 EQ DUP4 ISZERO OR PUSH2 0x2111 JUMPI PUSH2 0x2110 PUSH2 0x20A7 JUMP JUMPDEST JUMPDEST POP SWAP3 SWAP2 POP POP JUMP JUMPDEST PUSH1 0x0 PUSH2 0x2123 DUP3 PUSH2 0x1749 JUMP JUMPDEST SWAP2 POP PUSH2 0x212E DUP4 PUSH2 0x1749 JUMP JUMPDEST SWAP3 POP DUP3 DUP3 ADD SWAP1 POP DUP1 DUP3 GT ISZERO PUSH2 0x2146 JUMPI PUSH2 0x2145 PUSH2 0x20A7 JUMP JUMPDEST JUMPDEST SWAP3 SWAP2 POP POP JUMP JUMPDEST PUSH32 0x4E487B7100000000000000000000000000000000000000000000000000000000 PUSH1 0x0 MSTORE PUSH1 0x41 PUSH1 0x4 MSTORE PUSH1 0x24 PUSH1 0x0 REVERT JUMPDEST PUSH1 0x0 PUSH2 0x2186 DUP3 PUSH2 0x1749 JUMP JUMPDEST SWAP2 POP PUSH1 0x0 DUP3 SUB PUSH2 0x2199 JUMPI PUSH2 0x2198 PUSH2 0x20A7 JUMP JUMPDEST JUMPDEST PUSH1 0x1 DUP3 SUB SWAP1 POP SWAP2 SWAP1 POP JUMP JUMPDEST PUSH32 0x537472696E67733A20686578206C656E67746820696E73756666696369656E74 PUSH1 0x0 DUP3 ADD MSTORE POP JUMP JUMPDEST PUSH1 0x0 PUSH2 0x21DA PUSH1 0x20 DUP4 PUSH2 0x19D1 JUMP JUMPDEST SWAP2 POP PUSH2 0x21E5 DUP3 PUSH2 0x21A4 JUMP JUMPDEST PUSH1 0x20 DUP3 ADD SWAP1 POP SWAP2 SWAP1 POP JUMP JUMPDEST PUSH1 0x0 PUSH1 0x20 DUP3 ADD SWAP1 POP DUP2 DUP2 SUB PUSH1 0x0 DUP4 ADD MSTORE PUSH2 0x2209 DUP2 PUSH2 0x21CD JUMP JUMPDEST SWAP1 POP SWAP2 SWAP1 POP JUMP JUMPDEST PUSH1 0x0 PUSH2 0x221B DUP3 PUSH2 0x1749 JUMP JUMPDEST SWAP2 POP PUSH2 0x2226 DUP4 PUSH2 0x1749 JUMP JUMPDEST SWAP3 POP DUP3 DUP3 SUB SWAP1 POP DUP2 DUP2 GT ISZERO PUSH2 0x223E JUMPI PUSH2 0x223D PUSH2 0x20A7 JUMP JUMPDEST JUMPDEST SWAP3 SWAP2 POP POP JUMP JUMPDEST PUSH32 0x4E487B7100000000000000000000000000000000000000000000000000000000 PUSH1 0x0 MSTORE PUSH1 0x31 PUSH1 0x4 MSTORE PUSH1 0x24 PUSH1 0x0 REVERT JUMPDEST PUSH32 0x416464726573733A20696E73756666696369656E742062616C616E636520666F PUSH1 0x0 DUP3 ADD MSTORE PUSH32 0x722063616C6C0000000000000000000000000000000000000000000000000000 PUSH1 0x20 DUP3 ADD MSTORE POP JUMP JUMPDEST PUSH1 0x0 PUSH2 0x22CF PUSH1 0x26 DUP4 PUSH2 0x19D1 JUMP JUMPDEST SWAP2 POP PUSH2 0x22DA DUP3 PUSH2 0x2273 JUMP JUMPDEST PUSH1 0x40 DUP3 ADD SWAP1 POP SWAP2 SWAP1 POP JUMP JUMPDEST PUSH1 0x0 PUSH1 0x20 DUP3 ADD SWAP1 POP DUP2 DUP2 SUB PUSH1 0x0 DUP4 ADD MSTORE PUSH2 0x22FE DUP2 PUSH2 0x22C2 JUMP JUMPDEST SWAP1 POP SWAP2 SWAP1 POP JUMP JUMPDEST PUSH1 0x0 DUP2 MLOAD SWAP1 POP SWAP2 SWAP1 POP JUMP JUMPDEST PUSH1 0x0 DUP2 SWAP1 POP SWAP3 SWAP2 POP POP JUMP JUMPDEST PUSH1 0x0 PUSH2 0x2326 DUP3 PUSH2 0x2305 JUMP JUMPDEST PUSH2 0x2330 DUP2 DUP6 PUSH2 0x2310 JUMP JUMPDEST SWAP4 POP PUSH2 0x2340 DUP2 DUP6 PUSH1 0x20 DUP7 ADD PUSH2 0x1E40 JUMP JUMPDEST DUP1 DUP5 ADD SWAP2 POP POP SWAP3 SWAP2 POP POP JUMP JUMPDEST PUSH1 0x0 PUSH2 0x2358 DUP3 DUP5 PUSH2 0x231B JUMP JUMPDEST SWAP2 POP DUP2 SWAP1 POP SWAP3 SWAP2 POP POP JUMP JUMPDEST PUSH32 0x416464726573733A2063616C6C20746F206E6F6E2D636F6E7472616374000000 PUSH1 0x0 DUP3 ADD MSTORE POP JUMP JUMPDEST PUSH1 0x0 PUSH2 0x2399 PUSH1 0x1D DUP4 PUSH2 0x19D1 JUMP JUMPDEST SWAP2 POP PUSH2 0x23A4 DUP3 PUSH2 0x2363 JUMP JUMPDEST PUSH1 0x20 DUP3 ADD SWAP1 POP SWAP2 SWAP1 POP JUMP JUMPDEST PUSH1 0x0 PUSH1 0x20 DUP3 ADD SWAP1 POP DUP2 DUP2 SUB PUSH1 0x0 DUP4 ADD MSTORE PUSH2 0x23C8 DUP2 PUSH2 0x238C JUMP JUMPDEST SWAP1 POP SWAP2 SWAP1 POP JUMP INVALID LOG2 PUSH5 0x6970667358 0x22 SLT KECCAK256 0xDB 0xC2 0xB3 DIV SWAP2 SAR JUMPDEST 0x1E RETURN PUSH27 0xE99B9AC22AF643265951A522CB148037F145CC5C70DF64736F6C63 NUMBER STOP ADDMOD SLT STOP CALLER "},"methodIdentifiers":{"DEFAULT_ADMIN_ROLE()":"a217fddf","LENDER_LIQ_ROLE()":"32cc815d","getRoleAdmin(bytes32)":"248a9ca3","getRoleMember(bytes32,uint256)":"9010d07c","getRoleMemberCount(bytes32)":"ca15c873","grantRole(bytes32,address)":"2f2ff15d","hasRole(bytes32,address)":"91d14854","initialize(address,address,address)":"c0c53b8b","renounceRole(bytes32,address)":"36568abe","revokeRole(bytes32,address)":"d547741f","supportsInterface(bytes4)":"01ffc9a7","withdrawWalletAddress()":"b14ec101","withdrawX(uint256,address)":"0307a77c"}}}}}