{
  "_format": "hh-sol-artifact-1",
  "contractName": "ColateralContract_v1_0_0",
  "sourceName": "contracts/ColateralContract_v1_0_0.sol",
  "abi": [
    {
      "inputs": [
        {
          "internalType": "address",
          "name": "_usdcTokenAddress",
          "type": "address"
        },
        {
          "internalType": "address",
          "name": "_usdtTokenAddress",
          "type": "address"
        }
      ],
      "stateMutability": "nonpayable",
      "type": "constructor"
    },
    {
      "anonymous": false,
      "inputs": [
        {
          "indexed": true,
          "internalType": "address",
          "name": "previousOwner",
          "type": "address"
        },
        {
          "indexed": true,
          "internalType": "address",
          "name": "newOwner",
          "type": "address"
        }
      ],
      "name": "OwnershipTransferred",
      "type": "event"
    },
    {
      "inputs": [],
      "name": "balanceOfUSDC",
      "outputs": [
        {
          "internalType": "uint256",
          "name": "",
          "type": "uint256"
        }
      ],
      "stateMutability": "view",
      "type": "function"
    },
    {
      "inputs": [],
      "name": "balanceOfUSDT",
      "outputs": [
        {
          "internalType": "uint256",
          "name": "",
          "type": "uint256"
        }
      ],
      "stateMutability": "view",
      "type": "function"
    },
    {
      "inputs": [],
      "name": "contractName",
      "outputs": [
        {
          "internalType": "string",
          "name": "",
          "type": "string"
        }
      ],
      "stateMutability": "view",
      "type": "function"
    },
    {
      "inputs": [],
      "name": "getBalances",
      "outputs": [
        {
          "internalType": "uint256[3]",
          "name": "",
          "type": "uint256[3]"
        }
      ],
      "stateMutability": "view",
      "type": "function"
    },
    {
      "inputs": [],
      "name": "owner",
      "outputs": [
        {
          "internalType": "address",
          "name": "",
          "type": "address"
        }
      ],
      "stateMutability": "view",
      "type": "function"
    },
    {
      "inputs": [],
      "name": "renounceOwnership",
      "outputs": [],
      "stateMutability": "nonpayable",
      "type": "function"
    },
    {
      "inputs": [
        {
          "internalType": "uint256",
          "name": "_amount",
          "type": "uint256"
        }
      ],
      "name": "rescue",
      "outputs": [],
      "stateMutability": "payable",
      "type": "function"
    },
    {
      "inputs": [],
      "name": "rescueBalance",
      "outputs": [],
      "stateMutability": "payable",
      "type": "function"
    },
    {
      "inputs": [
        {
          "internalType": "uint256",
          "name": "_amount",
          "type": "uint256"
        }
      ],
      "name": "rescueUSDC",
      "outputs": [],
      "stateMutability": "nonpayable",
      "type": "function"
    },
    {
      "inputs": [
        {
          "internalType": "uint256",
          "name": "_amount",
          "type": "uint256"
        }
      ],
      "name": "rescueUSDT",
      "outputs": [],
      "stateMutability": "nonpayable",
      "type": "function"
    },
    {
      "inputs": [],
      "name": "rescueWalletAccount",
      "outputs": [
        {
          "internalType": "address",
          "name": "",
          "type": "address"
        }
      ],
      "stateMutability": "view",
      "type": "function"
    },
    {
      "inputs": [
        {
          "internalType": "address",
          "name": "_rescueWalletAccount",
          "type": "address"
        }
      ],
      "name": "setRescueWalletAccount",
      "outputs": [],
      "stateMutability": "nonpayable",
      "type": "function"
    },
    {
      "inputs": [
        {
          "internalType": "address",
          "name": "_usdcTokenAddress",
          "type": "address"
        }
      ],
      "name": "setUSDCTokenAddress",
      "outputs": [],
      "stateMutability": "nonpayable",
      "type": "function"
    },
    {
      "inputs": [
        {
          "internalType": "address",
          "name": "_usdtTokenAddress",
          "type": "address"
        }
      ],
      "name": "setUSDTTokenAddress",
      "outputs": [],
      "stateMutability": "nonpayable",
      "type": "function"
    },
    {
      "inputs": [
        {
          "internalType": "address",
          "name": "newOwner",
          "type": "address"
        }
      ],
      "name": "transferOwnership",
      "outputs": [],
      "stateMutability": "nonpayable",
      "type": "function"
    },
    {
      "inputs": [],
      "name": "usdcTokenAddress",
      "outputs": [
        {
          "internalType": "address",
          "name": "",
          "type": "address"
        }
      ],
      "stateMutability": "view",
      "type": "function"
    },
    {
      "inputs": [],
      "name": "usdtTokenAddress",
      "outputs": [
        {
          "internalType": "address",
          "name": "",
          "type": "address"
        }
      ],
      "stateMutability": "view",
      "type": "function"
    },
    {
      "inputs": [
        {
          "internalType": "uint256",
          "name": "_amount",
          "type": "uint256"
        }
      ],
      "name": "withdraw",
      "outputs": [],
      "stateMutability": "payable",
      "type": "function"
    },
    {
      "inputs": [],
      "name": "withdrawBalance",
      "outputs": [],
      "stateMutability": "payable",
      "type": "function"
    },
    {
      "inputs": [
        {
          "internalType": "uint256",
          "name": "_amount",
          "type": "uint256"
        }
      ],
      "name": "withdrawUSDC",
      "outputs": [],
      "stateMutability": "nonpayable",
      "type": "function"
    },
    {
      "inputs": [
        {
          "internalType": "uint256",
          "name": "_amount",
          "type": "uint256"
        }
      ],
      "name": "withdrawUSDT",
      "outputs": [],
      "stateMutability": "nonpayable",
      "type": "function"
    }
  ],
  "bytecode": "0x60806040523480156200001157600080fd5b5060405162001fad38038062001fad8339818101604052810190620000379190620001c4565b620000576200004b620000e160201b60201c565b620000e960201b60201c565b81600260006101000a81548173ffffffffffffffffffffffffffffffffffffffff021916908373ffffffffffffffffffffffffffffffffffffffff16021790555080600160006101000a81548173ffffffffffffffffffffffffffffffffffffffff021916908373ffffffffffffffffffffffffffffffffffffffff160217905550505062000253565b600033905090565b60008060009054906101000a900473ffffffffffffffffffffffffffffffffffffffff169050816000806101000a81548173ffffffffffffffffffffffffffffffffffffffff021916908373ffffffffffffffffffffffffffffffffffffffff1602179055508173ffffffffffffffffffffffffffffffffffffffff168173ffffffffffffffffffffffffffffffffffffffff167f8be0079c531659141344cd1fd0a4f28419497f9722a3daafe3b4186f6b6457e060405160405180910390a35050565b600081519050620001be8162000239565b92915050565b60008060408385031215620001d857600080fd5b6000620001e885828601620001ad565b9250506020620001fb85828601620001ad565b9150509250929050565b6000620002128262000219565b9050919050565b600073ffffffffffffffffffffffffffffffffffffffff82169050919050565b620002448162000205565b81146200025057600080fd5b50565b611d4a80620002636000396000f3fe6080604052600436106101295760003560e01c806375d0c0dc116100ab578063982fdf471161006f578063982fdf47146103355780639d741e5d1461035e578063a7deac3914610389578063db81f99b146103b4578063e59fba30146103dd578063f2fde38b1461040857610129565b806375d0c0dc1461028157806377b53ece146102ac5780638da5cb5b146102d75780638ee75bb6146103025780639807185c1461030c57610129565b806352173ba8116100f257806352173ba8146101f25780635fd8c7101461021b578063653a908d146102255780636ac053ad1461024e578063715018a61461026a57610129565b8062113e081461012e57806314c258db146101595780631aab3474146101825780632e1a7d4d146101ad5780633ea521ef146101c9575b600080fd5b34801561013a57600080fd5b50610143610431565b6040516101509190611a0c565b60405180910390f35b34801561016557600080fd5b50610180600480360381019061017b9190611800565b61047f565b005b34801561018e57600080fd5b50610197610668565b6040516101a49190611aa9565b60405180910390f35b6101c760048036038101906101c29190611800565b61071f565b005b3480156101d557600080fd5b506101f060048036038101906101eb9190611800565b61081c565b005b3480156101fe57600080fd5b50610219600480360381019061021491906117ae565b610958565b005b610223610a18565b005b34801561023157600080fd5b5061024c600480360381019061024791906117ae565b610b14565b005b61026860048036038101906102639190611800565b610bd4565b005b34801561027657600080fd5b5061027f610d7e565b005b34801561028d57600080fd5b50610296610e06565b6040516102a39190611a27565b60405180910390f35b3480156102b857600080fd5b506102c1610e94565b6040516102ce91906119c8565b60405180910390f35b3480156102e357600080fd5b506102ec610eba565b6040516102f991906119c8565b60405180910390f35b61030a610ee3565b005b34801561031857600080fd5b50610333600480360381019061032e9190611800565b61108c565b005b34801561034157600080fd5b5061035c600480360381019061035791906117ae565b611275565b005b34801561036a57600080fd5b50610373611335565b60405161038091906119c8565b60405180910390f35b34801561039557600080fd5b5061039e61135b565b6040516103ab9190611aa9565b60405180910390f35b3480156103c057600080fd5b506103db60048036038101906103d69190611800565b611412565b005b3480156103e957600080fd5b506103f261154e565b6040516103ff91906119c8565b60405180910390f35b34801561041457600080fd5b5061042f600480360381019061042a91906117ae565b611574565b005b610439611738565b6000479050600061044861135b565b90506000610454610668565b9050600060405180606001604052808581526020018481526020018381525090508094505050505090565b61048761166c565b73ffffffffffffffffffffffffffffffffffffffff166104a5610eba565b73ffffffffffffffffffffffffffffffffffffffff16146104fb576040517f08c379a00000000000000000000000000000000000000000000000000000000081526004016104f290611a89565b60405180910390fd5b600073ffffffffffffffffffffffffffffffffffffffff16600360009054906101000a900473ffffffffffffffffffffffffffffffffffffffff1673ffffffffffffffffffffffffffffffffffffffff16141561058d576040517f08c379a000000000000000000000000000000000000000000000000000000000815260040161058490611a69565b60405180910390fd5b6000600260009054906101000a900473ffffffffffffffffffffffffffffffffffffffff1690508073ffffffffffffffffffffffffffffffffffffffff1663a9059cbb600360009054906101000a900473ffffffffffffffffffffffffffffffffffffffff16846040518363ffffffff1660e01b81526004016106119291906119e3565b602060405180830381600087803b15801561062b57600080fd5b505af115801561063f573d6000803e3d6000fd5b505050506040513d601f19601f8201168201806040525081019061066391906117d7565b505050565b600080600160009054906101000a900473ffffffffffffffffffffffffffffffffffffffff1690508073ffffffffffffffffffffffffffffffffffffffff166370a08231306040518263ffffffff1660e01b81526004016106c991906119c8565b60206040518083038186803b1580156106e157600080fd5b505afa1580156106f5573d6000803e3d6000fd5b505050506040513d601f19601f820116820180604052508101906107199190611829565b91505090565b61072761166c565b73ffffffffffffffffffffffffffffffffffffffff16610745610eba565b73ffffffffffffffffffffffffffffffffffffffff161461079b576040517f08c379a000000000000000000000000000000000000000000000000000000000815260040161079290611a89565b60405180910390fd5b60006107a5610eba565b73ffffffffffffffffffffffffffffffffffffffff16826040516107c8906119b3565b60006040518083038185875af1925050503d8060008114610805576040519150601f19603f3d011682016040523d82523d6000602084013e61080a565b606091505b505090508061081857600080fd5b5050565b61082461166c565b73ffffffffffffffffffffffffffffffffffffffff16610842610eba565b73ffffffffffffffffffffffffffffffffffffffff1614610898576040517f08c379a000000000000000000000000000000000000000000000000000000000815260040161088f90611a89565b60405180910390fd5b6000600160009054906101000a900473ffffffffffffffffffffffffffffffffffffffff1690508073ffffffffffffffffffffffffffffffffffffffff1663a9059cbb6108e3610eba565b846040518363ffffffff1660e01b81526004016109019291906119e3565b602060405180830381600087803b15801561091b57600080fd5b505af115801561092f573d6000803e3d6000fd5b505050506040513d601f19601f8201168201806040525081019061095391906117d7565b505050565b61096061166c565b73ffffffffffffffffffffffffffffffffffffffff1661097e610eba565b73ffffffffffffffffffffffffffffffffffffffff16146109d4576040517f08c379a00000000000000000000000000000000000000000000000000000000081526004016109cb90611a89565b60405180910390fd5b80600160006101000a81548173ffffffffffffffffffffffffffffffffffffffff021916908373ffffffffffffffffffffffffffffffffffffffff16021790555050565b610a2061166c565b73ffffffffffffffffffffffffffffffffffffffff16610a3e610eba565b73ffffffffffffffffffffffffffffffffffffffff1614610a94576040517f08c379a0000000000000000000000000000000000000000000000000000000008152600401610a8b90611a89565b60405180910390fd5b6000610a9e610eba565b73ffffffffffffffffffffffffffffffffffffffff1647604051610ac1906119b3565b60006040518083038185875af1925050503d8060008114610afe576040519150601f19603f3d011682016040523d82523d6000602084013e610b03565b606091505b5050905080610b1157600080fd5b50565b610b1c61166c565b73ffffffffffffffffffffffffffffffffffffffff16610b3a610eba565b73ffffffffffffffffffffffffffffffffffffffff1614610b90576040517f08c379a0000000000000000000000000000000000000000000000000000000008152600401610b8790611a89565b60405180910390fd5b80600260006101000a81548173ffffffffffffffffffffffffffffffffffffffff021916908373ffffffffffffffffffffffffffffffffffffffff16021790555050565b610bdc61166c565b73ffffffffffffffffffffffffffffffffffffffff16610bfa610eba565b73ffffffffffffffffffffffffffffffffffffffff1614610c50576040517f08c379a0000000000000000000000000000000000000000000000000000000008152600401610c4790611a89565b60405180910390fd5b600073ffffffffffffffffffffffffffffffffffffffff16600360009054906101000a900473ffffffffffffffffffffffffffffffffffffffff1673ffffffffffffffffffffffffffffffffffffffff161415610ce2576040517f08c379a0000000000000000000000000000000000000000000000000000000008152600401610cd990611a69565b60405180910390fd5b6000600360009054906101000a900473ffffffffffffffffffffffffffffffffffffffff1673ffffffffffffffffffffffffffffffffffffffff1682604051610d2a906119b3565b60006040518083038185875af1925050503d8060008114610d67576040519150601f19603f3d011682016040523d82523d6000602084013e610d6c565b606091505b5050905080610d7a57600080fd5b5050565b610d8661166c565b73ffffffffffffffffffffffffffffffffffffffff16610da4610eba565b73ffffffffffffffffffffffffffffffffffffffff1614610dfa576040517f08c379a0000000000000000000000000000000000000000000000000000000008152600401610df190611a89565b60405180910390fd5b610e046000611674565b565b60048054610e1390611b93565b80601f0160208091040260200160405190810160405280929190818152602001828054610e3f90611b93565b8015610e8c5780601f10610e6157610100808354040283529160200191610e8c565b820191906000526020600020905b815481529060010190602001808311610e6f57829003601f168201915b505050505081565b600260009054906101000a900473ffffffffffffffffffffffffffffffffffffffff1681565b60008060009054906101000a900473ffffffffffffffffffffffffffffffffffffffff16905090565b610eeb61166c565b73ffffffffffffffffffffffffffffffffffffffff16610f09610eba565b73ffffffffffffffffffffffffffffffffffffffff1614610f5f576040517f08c379a0000000000000000000000000000000000000000000000000000000008152600401610f5690611a89565b60405180910390fd5b600073ffffffffffffffffffffffffffffffffffffffff16600360009054906101000a900473ffffffffffffffffffffffffffffffffffffffff1673ffffffffffffffffffffffffffffffffffffffff161415610ff1576040517f08c379a0000000000000000000000000000000000000000000000000000000008152600401610fe890611a69565b60405180910390fd5b6000600360009054906101000a900473ffffffffffffffffffffffffffffffffffffffff1673ffffffffffffffffffffffffffffffffffffffff1647604051611039906119b3565b60006040518083038185875af1925050503d8060008114611076576040519150601f19603f3d011682016040523d82523d6000602084013e61107b565b606091505b505090508061108957600080fd5b50565b61109461166c565b73ffffffffffffffffffffffffffffffffffffffff166110b2610eba565b73ffffffffffffffffffffffffffffffffffffffff1614611108576040517f08c379a00000000000000000000000000000000000000000000000000000000081526004016110ff90611a89565b60405180910390fd5b600073ffffffffffffffffffffffffffffffffffffffff16600360009054906101000a900473ffffffffffffffffffffffffffffffffffffffff1673ffffffffffffffffffffffffffffffffffffffff16141561119a576040517f08c379a000000000000000000000000000000000000000000000000000000000815260040161119190611a69565b60405180910390fd5b6000600160009054906101000a900473ffffffffffffffffffffffffffffffffffffffff1690508073ffffffffffffffffffffffffffffffffffffffff1663a9059cbb600360009054906101000a900473ffffffffffffffffffffffffffffffffffffffff16846040518363ffffffff1660e01b815260040161121e9291906119e3565b602060405180830381600087803b15801561123857600080fd5b505af115801561124c573d6000803e3d6000fd5b505050506040513d601f19601f8201168201806040525081019061127091906117d7565b505050565b61127d61166c565b73ffffffffffffffffffffffffffffffffffffffff1661129b610eba565b73ffffffffffffffffffffffffffffffffffffffff16146112f1576040517f08c379a00000000000000000000000000000000000000000000000000000000081526004016112e890611a89565b60405180910390fd5b80600360006101000a81548173ffffffffffffffffffffffffffffffffffffffff021916908373ffffffffffffffffffffffffffffffffffffffff16021790555050565b600160009054906101000a900473ffffffffffffffffffffffffffffffffffffffff1681565b600080600260009054906101000a900473ffffffffffffffffffffffffffffffffffffffff1690508073ffffffffffffffffffffffffffffffffffffffff166370a08231306040518263ffffffff1660e01b81526004016113bc91906119c8565b60206040518083038186803b1580156113d457600080fd5b505afa1580156113e8573d6000803e3d6000fd5b505050506040513d601f19601f8201168201806040525081019061140c9190611829565b91505090565b61141a61166c565b73ffffffffffffffffffffffffffffffffffffffff16611438610eba565b73ffffffffffffffffffffffffffffffffffffffff161461148e576040517f08c379a000000000000000000000000000000000000000000000000000000000815260040161148590611a89565b60405180910390fd5b6000600260009054906101000a900473ffffffffffffffffffffffffffffffffffffffff1690508073ffffffffffffffffffffffffffffffffffffffff1663a9059cbb6114d9610eba565b846040518363ffffffff1660e01b81526004016114f79291906119e3565b602060405180830381600087803b15801561151157600080fd5b505af1158015611525573d6000803e3d6000fd5b505050506040513d601f19601f8201168201806040525081019061154991906117d7565b505050565b600360009054906101000a900473ffffffffffffffffffffffffffffffffffffffff1681565b61157c61166c565b73ffffffffffffffffffffffffffffffffffffffff1661159a610eba565b73ffffffffffffffffffffffffffffffffffffffff16146115f0576040517f08c379a00000000000000000000000000000000000000000000000000000000081526004016115e790611a89565b60405180910390fd5b600073ffffffffffffffffffffffffffffffffffffffff168173ffffffffffffffffffffffffffffffffffffffff161415611660576040517f08c379a000000000000000000000000000000000000000000000000000000000815260040161165790611a49565b60405180910390fd5b61166981611674565b50565b600033905090565b60008060009054906101000a900473ffffffffffffffffffffffffffffffffffffffff169050816000806101000a81548173ffffffffffffffffffffffffffffffffffffffff021916908373ffffffffffffffffffffffffffffffffffffffff1602179055508173ffffffffffffffffffffffffffffffffffffffff168173ffffffffffffffffffffffffffffffffffffffff167f8be0079c531659141344cd1fd0a4f28419497f9722a3daafe3b4186f6b6457e060405160405180910390a35050565b6040518060600160405280600390602082028036833780820191505090505090565b60008135905061176981611ccf565b92915050565b60008151905061177e81611ce6565b92915050565b60008135905061179381611cfd565b92915050565b6000815190506117a881611cfd565b92915050565b6000602082840312156117c057600080fd5b60006117ce8482850161175a565b91505092915050565b6000602082840312156117e957600080fd5b60006117f78482850161176f565b91505092915050565b60006020828403121561181257600080fd5b600061182084828501611784565b91505092915050565b60006020828403121561183b57600080fd5b600061184984828501611799565b91505092915050565b600061185e8383611995565b60208301905092915050565b61187381611b18565b82525050565b61188281611ace565b61188c8184611af1565b925061189782611ac4565b8060005b838110156118c85781516118af8782611852565b96506118ba83611ae4565b92505060018101905061189b565b505050505050565b60006118db82611ad9565b6118e58185611b07565b93506118f5818560208601611b60565b6118fe81611bf4565b840191505092915050565b6000611916602683611b07565b915061192182611c05565b604082019050919050565b6000611939602183611b07565b915061194482611c54565b604082019050919050565b600061195c602083611b07565b915061196782611ca3565b602082019050919050565b600061197f600083611afc565b915061198a82611ccc565b600082019050919050565b61199e81611b56565b82525050565b6119ad81611b56565b82525050565b60006119be82611972565b9150819050919050565b60006020820190506119dd600083018461186a565b92915050565b60006040820190506119f8600083018561186a565b611a0560208301846119a4565b9392505050565b6000606082019050611a216000830184611879565b92915050565b60006020820190508181036000830152611a4181846118d0565b905092915050565b60006020820190508181036000830152611a6281611909565b9050919050565b60006020820190508181036000830152611a828161192c565b9050919050565b60006020820190508181036000830152611aa28161194f565b9050919050565b6000602082019050611abe60008301846119a4565b92915050565b6000819050919050565b600060039050919050565b600081519050919050565b6000602082019050919050565b600081905092915050565b600081905092915050565b600082825260208201905092915050565b6000611b2382611b36565b9050919050565b60008115159050919050565b600073ffffffffffffffffffffffffffffffffffffffff82169050919050565b6000819050919050565b60005b83811015611b7e578082015181840152602081019050611b63565b83811115611b8d576000848401525b50505050565b60006002820490506001821680611bab57607f821691505b60208210811415611bbf57611bbe611bc5565b5b50919050565b7f4e487b7100000000000000000000000000000000000000000000000000000000600052602260045260246000fd5b6000601f19601f8301169050919050565b7f4f776e61626c653a206e6577206f776e657220697320746865207a65726f206160008201527f6464726573730000000000000000000000000000000000000000000000000000602082015250565b7f5265736375652077616c6c657420697320746865207a65726f2061646472657360008201527f7300000000000000000000000000000000000000000000000000000000000000602082015250565b7f4f776e61626c653a2063616c6c6572206973206e6f7420746865206f776e6572600082015250565b50565b611cd881611b18565b8114611ce357600080fd5b50565b611cef81611b2a565b8114611cfa57600080fd5b50565b611d0681611b56565b8114611d1157600080fd5b5056fea264697066735822122074ca1bd98629f866afc9b2767871636a0d3246f15d680a69e997cc23da3dc19e64736f6c63430008040033",
  "linkReferences": {},
  "deployedLinkReferences": {}
}