{
  "_format": "hh-sol-artifact-1",
  "contractName": "ColateralContract_v1_0_0",
  "sourceName": "contracts/ColateralContract_v1_0_0.sol",
  "abi": [
    {
      "inputs": [
        {
          "internalType": "address",
          "name": "_usdcTokenAddress",
          "type": "address"
        },
        {
          "internalType": "address",
          "name": "_usdtTokenAddress",
          "type": "address"
        },
        {
          "internalType": "address",
          "name": "_wbtcTokenAddress",
          "type": "address"
        },
        {
          "internalType": "address",
          "name": "_wethTokenAddress",
          "type": "address"
        },
        {
          "internalType": "address",
          "name": "_swapRouterAddress",
          "type": "address"
        }
      ],
      "stateMutability": "nonpayable",
      "type": "constructor"
    },
    {
      "anonymous": false,
      "inputs": [
        {
          "indexed": true,
          "internalType": "address",
          "name": "previousOwner",
          "type": "address"
        },
        {
          "indexed": true,
          "internalType": "address",
          "name": "newOwner",
          "type": "address"
        }
      ],
      "name": "OwnershipTransferred",
      "type": "event"
    },
    {
      "anonymous": false,
      "inputs": [
        {
          "indexed": false,
          "internalType": "address",
          "name": "tokenIn",
          "type": "address"
        },
        {
          "indexed": false,
          "internalType": "address",
          "name": "tokenOut",
          "type": "address"
        },
        {
          "indexed": false,
          "internalType": "uint256",
          "name": "amountIn",
          "type": "uint256"
        },
        {
          "indexed": false,
          "internalType": "uint256",
          "name": "amountOut",
          "type": "uint256"
        }
      ],
      "name": "Swap",
      "type": "event"
    },
    {
      "anonymous": false,
      "inputs": [
        {
          "indexed": false,
          "internalType": "string",
          "name": "msg",
          "type": "string"
        }
      ],
      "name": "SwapError",
      "type": "event"
    },
    {
      "inputs": [],
      "name": "balanceOfUSDC",
      "outputs": [
        {
          "internalType": "uint256",
          "name": "",
          "type": "uint256"
        }
      ],
      "stateMutability": "view",
      "type": "function"
    },
    {
      "inputs": [],
      "name": "balanceOfUSDT",
      "outputs": [
        {
          "internalType": "uint256",
          "name": "",
          "type": "uint256"
        }
      ],
      "stateMutability": "view",
      "type": "function"
    },
    {
      "inputs": [],
      "name": "balanceOfWBTC",
      "outputs": [
        {
          "internalType": "uint256",
          "name": "",
          "type": "uint256"
        }
      ],
      "stateMutability": "view",
      "type": "function"
    },
    {
      "inputs": [],
      "name": "balanceOfWETH",
      "outputs": [
        {
          "internalType": "uint256",
          "name": "",
          "type": "uint256"
        }
      ],
      "stateMutability": "view",
      "type": "function"
    },
    {
      "inputs": [],
      "name": "contractName",
      "outputs": [
        {
          "internalType": "string",
          "name": "",
          "type": "string"
        }
      ],
      "stateMutability": "view",
      "type": "function"
    },
    {
      "inputs": [],
      "name": "getBalances",
      "outputs": [
        {
          "internalType": "uint256[5]",
          "name": "",
          "type": "uint256[5]"
        }
      ],
      "stateMutability": "view",
      "type": "function"
    },
    {
      "inputs": [],
      "name": "owner",
      "outputs": [
        {
          "internalType": "address",
          "name": "",
          "type": "address"
        }
      ],
      "stateMutability": "view",
      "type": "function"
    },
    {
      "inputs": [],
      "name": "renounceOwnership",
      "outputs": [],
      "stateMutability": "nonpayable",
      "type": "function"
    },
    {
      "inputs": [
        {
          "internalType": "uint256",
          "name": "_amount",
          "type": "uint256"
        }
      ],
      "name": "rescue",
      "outputs": [],
      "stateMutability": "payable",
      "type": "function"
    },
    {
      "inputs": [],
      "name": "rescueBalance",
      "outputs": [],
      "stateMutability": "payable",
      "type": "function"
    },
    {
      "inputs": [
        {
          "internalType": "uint256",
          "name": "_amount",
          "type": "uint256"
        }
      ],
      "name": "rescueUSDC",
      "outputs": [],
      "stateMutability": "nonpayable",
      "type": "function"
    },
    {
      "inputs": [
        {
          "internalType": "uint256",
          "name": "_amount",
          "type": "uint256"
        }
      ],
      "name": "rescueUSDT",
      "outputs": [],
      "stateMutability": "nonpayable",
      "type": "function"
    },
    {
      "inputs": [
        {
          "internalType": "uint256",
          "name": "_amount",
          "type": "uint256"
        }
      ],
      "name": "rescueWBTC",
      "outputs": [],
      "stateMutability": "nonpayable",
      "type": "function"
    },
    {
      "inputs": [
        {
          "internalType": "uint256",
          "name": "_amount",
          "type": "uint256"
        }
      ],
      "name": "rescueWETH",
      "outputs": [],
      "stateMutability": "nonpayable",
      "type": "function"
    },
    {
      "inputs": [],
      "name": "rescueWalletAccount",
      "outputs": [
        {
          "internalType": "address",
          "name": "",
          "type": "address"
        }
      ],
      "stateMutability": "view",
      "type": "function"
    },
    {
      "inputs": [
        {
          "internalType": "address",
          "name": "_rescueWalletAccount",
          "type": "address"
        }
      ],
      "name": "setRescueWalletAccount",
      "outputs": [],
      "stateMutability": "nonpayable",
      "type": "function"
    },
    {
      "inputs": [
        {
          "internalType": "address",
          "name": "_usdcTokenAddress",
          "type": "address"
        }
      ],
      "name": "setUSDCTokenAddress",
      "outputs": [],
      "stateMutability": "nonpayable",
      "type": "function"
    },
    {
      "inputs": [
        {
          "internalType": "address",
          "name": "_usdtTokenAddress",
          "type": "address"
        }
      ],
      "name": "setUSDTTokenAddress",
      "outputs": [],
      "stateMutability": "nonpayable",
      "type": "function"
    },
    {
      "inputs": [
        {
          "internalType": "address",
          "name": "_wbtcTokenAddress",
          "type": "address"
        }
      ],
      "name": "setWBTCTokenAddress",
      "outputs": [],
      "stateMutability": "nonpayable",
      "type": "function"
    },
    {
      "inputs": [
        {
          "internalType": "address",
          "name": "_wethTokenAddress",
          "type": "address"
        }
      ],
      "name": "setWETHTokenAddress",
      "outputs": [],
      "stateMutability": "nonpayable",
      "type": "function"
    },
    {
      "inputs": [
        {
          "internalType": "address",
          "name": "",
          "type": "address"
        }
      ],
      "name": "supportedTokens",
      "outputs": [
        {
          "internalType": "bool",
          "name": "",
          "type": "bool"
        }
      ],
      "stateMutability": "view",
      "type": "function"
    },
    {
      "inputs": [
        {
          "components": [
            {
              "components": [
                {
                  "internalType": "bytes",
                  "name": "path",
                  "type": "bytes"
                },
                {
                  "internalType": "address",
                  "name": "recipient",
                  "type": "address"
                },
                {
                  "internalType": "uint256",
                  "name": "deadline",
                  "type": "uint256"
                },
                {
                  "internalType": "uint256",
                  "name": "amountIn",
                  "type": "uint256"
                },
                {
                  "internalType": "uint256",
                  "name": "amountOutMinimum",
                  "type": "uint256"
                }
              ],
              "internalType": "struct ISwapRouter.ExactInputParams",
              "name": "params",
              "type": "tuple"
            },
            {
              "internalType": "address",
              "name": "tokenIn",
              "type": "address"
            },
            {
              "internalType": "address",
              "name": "tokenOut",
              "type": "address"
            }
          ],
          "internalType": "struct ColateralContract_v1_0_0.SwapParams[]",
          "name": "swapsParams",
          "type": "tuple[]"
        }
      ],
      "name": "swapExactInputs",
      "outputs": [],
      "stateMutability": "nonpayable",
      "type": "function"
    },
    {
      "inputs": [],
      "name": "swapRouter",
      "outputs": [
        {
          "internalType": "contract ISwapRouter",
          "name": "",
          "type": "address"
        }
      ],
      "stateMutability": "view",
      "type": "function"
    },
    {
      "inputs": [
        {
          "internalType": "address",
          "name": "newOwner",
          "type": "address"
        }
      ],
      "name": "transferOwnership",
      "outputs": [],
      "stateMutability": "nonpayable",
      "type": "function"
    },
    {
      "inputs": [],
      "name": "usdcTokenAddress",
      "outputs": [
        {
          "internalType": "address",
          "name": "",
          "type": "address"
        }
      ],
      "stateMutability": "view",
      "type": "function"
    },
    {
      "inputs": [],
      "name": "usdtTokenAddress",
      "outputs": [
        {
          "internalType": "address",
          "name": "",
          "type": "address"
        }
      ],
      "stateMutability": "view",
      "type": "function"
    },
    {
      "inputs": [],
      "name": "wbtcTokenAddress",
      "outputs": [
        {
          "internalType": "address",
          "name": "",
          "type": "address"
        }
      ],
      "stateMutability": "view",
      "type": "function"
    },
    {
      "inputs": [],
      "name": "wethTokenAddress",
      "outputs": [
        {
          "internalType": "address",
          "name": "",
          "type": "address"
        }
      ],
      "stateMutability": "view",
      "type": "function"
    },
    {
      "inputs": [
        {
          "internalType": "uint256",
          "name": "_amount",
          "type": "uint256"
        }
      ],
      "name": "withdraw",
      "outputs": [],
      "stateMutability": "payable",
      "type": "function"
    },
    {
      "inputs": [],
      "name": "withdrawBalance",
      "outputs": [],
      "stateMutability": "payable",
      "type": "function"
    },
    {
      "inputs": [
        {
          "internalType": "uint256",
          "name": "_amount",
          "type": "uint256"
        }
      ],
      "name": "withdrawUSDC",
      "outputs": [],
      "stateMutability": "nonpayable",
      "type": "function"
    },
    {
      "inputs": [
        {
          "internalType": "uint256",
          "name": "_amount",
          "type": "uint256"
        }
      ],
      "name": "withdrawUSDT",
      "outputs": [],
      "stateMutability": "nonpayable",
      "type": "function"
    },
    {
      "inputs": [
        {
          "internalType": "uint256",
          "name": "_amount",
          "type": "uint256"
        }
      ],
      "name": "withdrawWBTC",
      "outputs": [],
      "stateMutability": "nonpayable",
      "type": "function"
    },
    {
      "inputs": [
        {
          "internalType": "uint256",
          "name": "_amount",
          "type": "uint256"
        }
      ],
      "name": "withdrawWETH",
      "outputs": [],
      "stateMutability": "nonpayable",
      "type": "function"
    }
  ],
  "bytecode": "0x60a06040523480156200001157600080fd5b506040516200405f3803806200405f833981810160405281019062000037919062000430565b620000576200004b620002fa60201b60201c565b6200030260201b60201c565b84600260006101000a81548173ffffffffffffffffffffffffffffffffffffffff021916908373ffffffffffffffffffffffffffffffffffffffff16021790555083600160006101000a81548173ffffffffffffffffffffffffffffffffffffffff021916908373ffffffffffffffffffffffffffffffffffffffff16021790555082600360006101000a81548173ffffffffffffffffffffffffffffffffffffffff021916908373ffffffffffffffffffffffffffffffffffffffff16021790555081600460006101000a81548173ffffffffffffffffffffffffffffffffffffffff021916908373ffffffffffffffffffffffffffffffffffffffff1602179055508073ffffffffffffffffffffffffffffffffffffffff1660808173ffffffffffffffffffffffffffffffffffffffff16815250506001600660008773ffffffffffffffffffffffffffffffffffffffff1673ffffffffffffffffffffffffffffffffffffffff16815260200190815260200160002060006101000a81548160ff0219169083151502179055506001600660008673ffffffffffffffffffffffffffffffffffffffff1673ffffffffffffffffffffffffffffffffffffffff16815260200190815260200160002060006101000a81548160ff0219169083151502179055506001600660008573ffffffffffffffffffffffffffffffffffffffff1673ffffffffffffffffffffffffffffffffffffffff16815260200190815260200160002060006101000a81548160ff0219169083151502179055506001600660008473ffffffffffffffffffffffffffffffffffffffff1673ffffffffffffffffffffffffffffffffffffffff16815260200190815260200160002060006101000a81548160ff0219169083151502179055505050505050620004b8565b600033905090565b60008060009054906101000a900473ffffffffffffffffffffffffffffffffffffffff169050816000806101000a81548173ffffffffffffffffffffffffffffffffffffffff021916908373ffffffffffffffffffffffffffffffffffffffff1602179055508173ffffffffffffffffffffffffffffffffffffffff168173ffffffffffffffffffffffffffffffffffffffff167f8be0079c531659141344cd1fd0a4f28419497f9722a3daafe3b4186f6b6457e060405160405180910390a35050565b600080fd5b600073ffffffffffffffffffffffffffffffffffffffff82169050919050565b6000620003f882620003cb565b9050919050565b6200040a81620003eb565b81146200041657600080fd5b50565b6000815190506200042a81620003ff565b92915050565b600080600080600060a086880312156200044f576200044e620003c6565b5b60006200045f8882890162000419565b9550506020620004728882890162000419565b9450506040620004858882890162000419565b9350506060620004988882890162000419565b9250506080620004ab8882890162000419565b9150509295509295909350565b608051613b76620004e9600039600081816113f5015281816114c9015281816116a6015261244f0152613b766000f3fe6080604052600436106101f85760003560e01c8063715018a61161010d5780639d741e5d116100a0578063ce66c71e1161006f578063ce66c71e14610662578063db81f99b1461068d578063e59fba30146106b6578063f2fde38b146106e1578063fc4dd3331461070a576101f8565b80639d741e5d146105b8578063a7deac39146105e3578063c31c9c071461060e578063c853c4bc14610639576101f8565b80638ee75bb6116100dc5780638ee75bb614610533578063933ca16f1461053d5780639807185c14610566578063982fdf471461058f576101f8565b8063715018a61461049b57806375d0c0dc146104b257806377b53ece146104dd5780638da5cb5b14610508576101f8565b80632e1a7d4d1161019057806352173ba81161015f57806352173ba8146103e65780635fd8c7101461040f578063653a908d1461041957806368c4ac26146104425780636ac053ad1461047f576101f8565b80632e1a7d4d1461034d5780632ffe9942146103695780633ea521ef146103925780634c526bdb146103bb576101f8565b80631aab3474116101cc5780631aab3474146102a557806320ce0c8c146102d057806324815018146102f95780632a525f3214610324576101f8565b8062113e08146101fd5780630f9dad711461022857806314c258db1461025357806319689e971461027c575b600080fd5b34801561020957600080fd5b50610212610733565b60405161021f9190612c0c565b60405180910390f35b34801561023457600080fd5b5061023d6107a7565b60405161024a9190612c68565b60405180910390f35b34801561025f57600080fd5b5061027a60048036038101906102759190612cc3565b6107cd565b005b34801561028857600080fd5b506102a3600480360381019061029e9190612d1c565b6109a6565b005b3480156102b157600080fd5b506102ba610a66565b6040516102c79190612d58565b60405180910390f35b3480156102dc57600080fd5b506102f760048036038101906102f29190612cc3565b610b0e565b005b34801561030557600080fd5b5061030e610c3b565b60405161031b9190612d58565b60405180910390f35b34801561033057600080fd5b5061034b60048036038101906103469190612cc3565b610ce3565b005b61036760048036038101906103629190612cc3565b610ebc565b005b34801561037557600080fd5b50610390600480360381019061038b9190612dd8565b610fb9565b005b34801561039e57600080fd5b506103b960048036038101906103b49190612cc3565b611781565b005b3480156103c757600080fd5b506103d06118ae565b6040516103dd9190612c68565b60405180910390f35b3480156103f257600080fd5b5061040d60048036038101906104089190612d1c565b6118d4565b005b610417611994565b005b34801561042557600080fd5b50610440600480360381019061043b9190612d1c565b611a90565b005b34801561044e57600080fd5b5061046960048036038101906104649190612d1c565b611b50565b6040516104769190612e40565b60405180910390f35b61049960048036038101906104949190612cc3565b611b70565b005b3480156104a757600080fd5b506104b0611d19565b005b3480156104be57600080fd5b506104c7611da1565b6040516104d49190612eeb565b60405180910390f35b3480156104e957600080fd5b506104f2611e2f565b6040516104ff9190612c68565b60405180910390f35b34801561051457600080fd5b5061051d611e55565b60405161052a9190612c68565b60405180910390f35b61053b611e7e565b005b34801561054957600080fd5b50610564600480360381019061055f9190612d1c565b612026565b005b34801561057257600080fd5b5061058d60048036038101906105889190612cc3565b6120e6565b005b34801561059b57600080fd5b506105b660048036038101906105b19190612d1c565b6122bf565b005b3480156105c457600080fd5b506105cd61237f565b6040516105da9190612c68565b60405180910390f35b3480156105ef57600080fd5b506105f86123a5565b6040516106059190612d58565b60405180910390f35b34801561061a57600080fd5b5061062361244d565b6040516106309190612f6c565b60405180910390f35b34801561064557600080fd5b50610660600480360381019061065b9190612cc3565b612471565b005b34801561066e57600080fd5b5061067761264a565b6040516106849190612d58565b60405180910390f35b34801561069957600080fd5b506106b460048036038101906106af9190612cc3565b6126f2565b005b3480156106c257600080fd5b506106cb61281f565b6040516106d89190612c68565b60405180910390f35b3480156106ed57600080fd5b5061070860048036038101906107039190612d1c565b612845565b005b34801561071657600080fd5b50610731600480360381019061072c9190612cc3565b61293c565b005b61073b612b35565b6000479050600061074a6123a5565b90506000610756610a66565b9050600061076261264a565b9050600061076e610c3b565b905060006040518060a0016040528087815260200186815260200185815260200184815260200183815250905080965050505050505090565b600460009054906101000a900473ffffffffffffffffffffffffffffffffffffffff1681565b6107d5612a69565b73ffffffffffffffffffffffffffffffffffffffff166107f3611e55565b73ffffffffffffffffffffffffffffffffffffffff1614610849576040517f08c379a000000000000000000000000000000000000000000000000000000000815260040161084090612fd3565b60405180910390fd5b600073ffffffffffffffffffffffffffffffffffffffff16600560009054906101000a900473ffffffffffffffffffffffffffffffffffffffff1673ffffffffffffffffffffffffffffffffffffffff16036108da576040517f08c379a00000000000000000000000000000000000000000000000000000000081526004016108d190613065565b60405180910390fd5b6000600260009054906101000a900473ffffffffffffffffffffffffffffffffffffffff1690508073ffffffffffffffffffffffffffffffffffffffff1663a9059cbb600560009054906101000a900473ffffffffffffffffffffffffffffffffffffffff16846040518363ffffffff1660e01b815260040161095e929190613085565b6020604051808303816000875af115801561097d573d6000803e3d6000fd5b505050506040513d601f19601f820116820180604052508101906109a191906130da565b505050565b6109ae612a69565b73ffffffffffffffffffffffffffffffffffffffff166109cc611e55565b73ffffffffffffffffffffffffffffffffffffffff1614610a22576040517f08c379a0000000000000000000000000000000000000000000000000000000008152600401610a1990612fd3565b60405180910390fd5b80600360006101000a81548173ffffffffffffffffffffffffffffffffffffffff021916908373ffffffffffffffffffffffffffffffffffffffff16021790555050565b600080600160009054906101000a900473ffffffffffffffffffffffffffffffffffffffff1690508073ffffffffffffffffffffffffffffffffffffffff166370a08231306040518263ffffffff1660e01b8152600401610ac79190612c68565b602060405180830381865afa158015610ae4573d6000803e3d6000fd5b505050506040513d601f19601f82011682018060405250810190610b08919061311c565b91505090565b610b16612a69565b73ffffffffffffffffffffffffffffffffffffffff16610b34611e55565b73ffffffffffffffffffffffffffffffffffffffff1614610b8a576040517f08c379a0000000000000000000000000000000000000000000000000000000008152600401610b8190612fd3565b60405180910390fd5b6000600360009054906101000a900473ffffffffffffffffffffffffffffffffffffffff1690508073ffffffffffffffffffffffffffffffffffffffff1663a9059cbb610bd5611e55565b846040518363ffffffff1660e01b8152600401610bf3929190613085565b6020604051808303816000875af1158015610c12573d6000803e3d6000fd5b505050506040513d601f19601f82011682018060405250810190610c3691906130da565b505050565b600080600460009054906101000a900473ffffffffffffffffffffffffffffffffffffffff1690508073ffffffffffffffffffffffffffffffffffffffff166370a08231306040518263ffffffff1660e01b8152600401610c9c9190612c68565b602060405180830381865afa158015610cb9573d6000803e3d6000fd5b505050506040513d601f19601f82011682018060405250810190610cdd919061311c565b91505090565b610ceb612a69565b73ffffffffffffffffffffffffffffffffffffffff16610d09611e55565b73ffffffffffffffffffffffffffffffffffffffff1614610d5f576040517f08c379a0000000000000000000000000000000000000000000000000000000008152600401610d5690612fd3565b60405180910390fd5b600073ffffffffffffffffffffffffffffffffffffffff16600560009054906101000a900473ffffffffffffffffffffffffffffffffffffffff1673ffffffffffffffffffffffffffffffffffffffff1603610df0576040517f08c379a0000000000000000000000000000000000000000000000000000000008152600401610de790613065565b60405180910390fd5b6000600360009054906101000a900473ffffffffffffffffffffffffffffffffffffffff1690508073ffffffffffffffffffffffffffffffffffffffff1663a9059cbb600560009054906101000a900473ffffffffffffffffffffffffffffffffffffffff16846040518363ffffffff1660e01b8152600401610e74929190613085565b6020604051808303816000875af1158015610e93573d6000803e3d6000fd5b505050506040513d601f19601f82011682018060405250810190610eb791906130da565b505050565b610ec4612a69565b73ffffffffffffffffffffffffffffffffffffffff16610ee2611e55565b73ffffffffffffffffffffffffffffffffffffffff1614610f38576040517f08c379a0000000000000000000000000000000000000000000000000000000008152600401610f2f90612fd3565b60405180910390fd5b6000610f42611e55565b73ffffffffffffffffffffffffffffffffffffffff1682604051610f659061317a565b60006040518083038185875af1925050503d8060008114610fa2576040519150601f19603f3d011682016040523d82523d6000602084013e610fa7565b606091505b5050905080610fb557600080fd5b5050565b610fc1612a69565b73ffffffffffffffffffffffffffffffffffffffff16610fdf611e55565b73ffffffffffffffffffffffffffffffffffffffff1614611035576040517f08c379a000000000000000000000000000000000000000000000000000000000815260040161102c90612fd3565b60405180910390fd5b6000828290501161107b576040517f08c379a0000000000000000000000000000000000000000000000000000000008152600401611072906131db565b60405180910390fd5b60005b8282905081101561177c573683838381811061109d5761109c6131fb565b5b90506020028101906110af919061322f565b9050600660008260200160208101906110c89190612d1c565b73ffffffffffffffffffffffffffffffffffffffff1673ffffffffffffffffffffffffffffffffffffffff16815260200190815260200160002060009054906101000a900460ff1661114f576040517f08c379a0000000000000000000000000000000000000000000000000000000008152600401611146906132a3565b60405180910390fd5b600660008260400160208101906111669190612d1c565b73ffffffffffffffffffffffffffffffffffffffff1673ffffffffffffffffffffffffffffffffffffffff16815260200190815260200160002060009054906101000a900460ff166111ed576040517f08c379a00000000000000000000000000000000000000000000000000000000081526004016111e49061330f565b60405180910390fd5b3073ffffffffffffffffffffffffffffffffffffffff16818060000190611214919061332f565b60200160208101906112269190612d1c565b73ffffffffffffffffffffffffffffffffffffffff161461127c576040517f08c379a0000000000000000000000000000000000000000000000000000000008152600401611273906133c9565b60405180910390fd5b600081806000019061128e919061332f565b60800135116112d2576040517f08c379a00000000000000000000000000000000000000000000000000000000081526004016112c99061345b565b60405180910390fd5b60008160200160208101906112e79190612d1c565b905060008280600001906112fb919061332f565b6060013511801561139857508073ffffffffffffffffffffffffffffffffffffffff166370a08231306040518263ffffffff1660e01b81526004016113409190612c68565b602060405180830381865afa15801561135d573d6000803e3d6000fd5b505050506040513d601f19601f82011682018060405250810190611381919061311c565b828060000190611391919061332f565b6060013511155b6113d7576040517f08c379a00000000000000000000000000000000000000000000000000000000081526004016113ce906134ed565b60405180910390fd5b8073ffffffffffffffffffffffffffffffffffffffff1663095ea7b37f0000000000000000000000000000000000000000000000000000000000000000848060000190611424919061332f565b606001356040518363ffffffff1660e01b8152600401611445929190613085565b6020604051808303816000875af1158015611464573d6000803e3d6000fd5b505050506040513d601f19601f8201168201806040525081019061148891906130da565b6114c7576040517f08c379a00000000000000000000000000000000000000000000000000000000081526004016114be90613559565b60405180910390fd5b7f000000000000000000000000000000000000000000000000000000000000000073ffffffffffffffffffffffffffffffffffffffff1663c04b8d59838060000190611513919061332f565b6040518263ffffffff1660e01b815260040161152f9190613715565b6020604051808303816000875af192505050801561156b57506040513d601f19601f82011682018060405250810190611568919061311c565b60015b61161457611577613744565b806308c379a003611608575061158b6137c6565b80611596575061160a565b7f970ef7c807c5ad787d3e8256db0475684ecd017a76b911039080b701b57c5f54816040516115c59190612eeb565b60405180910390a16040517f08c379a00000000000000000000000000000000000000000000000000000000081526004016115ff906138a2565b60405180910390fd5b505b3d6000803e3d6000fd5b7ffa2dda1cc1b86e41239702756b13effbc1a092b5c57e3ad320fbe4f3b13fe2358360200160208101906116489190612d1c565b84604001602081019061165b9190612d1c565b85806000019061166b919061332f565b606001358460405161168094939291906138c2565b60405180910390a18173ffffffffffffffffffffffffffffffffffffffff1663095ea7b37f000000000000000000000000000000000000000000000000000000000000000060006040518363ffffffff1660e01b81526004016116e4929190613942565b6020604051808303816000875af1158015611703573d6000803e3d6000fd5b505050506040513d601f19601f8201168201806040525081019061172791906130da565b611766576040517f08c379a000000000000000000000000000000000000000000000000000000000815260040161175d906139b7565b60405180910390fd5b505050808061177490613a06565b91505061107e565b505050565b611789612a69565b73ffffffffffffffffffffffffffffffffffffffff166117a7611e55565b73ffffffffffffffffffffffffffffffffffffffff16146117fd576040517f08c379a00000000000000000000000000000000000000000000000000000000081526004016117f490612fd3565b60405180910390fd5b6000600160009054906101000a900473ffffffffffffffffffffffffffffffffffffffff1690508073ffffffffffffffffffffffffffffffffffffffff1663a9059cbb611848611e55565b846040518363ffffffff1660e01b8152600401611866929190613085565b6020604051808303816000875af1158015611885573d6000803e3d6000fd5b505050506040513d601f19601f820116820180604052508101906118a991906130da565b505050565b600360009054906101000a900473ffffffffffffffffffffffffffffffffffffffff1681565b6118dc612a69565b73ffffffffffffffffffffffffffffffffffffffff166118fa611e55565b73ffffffffffffffffffffffffffffffffffffffff1614611950576040517f08c379a000000000000000000000000000000000000000000000000000000000815260040161194790612fd3565b60405180910390fd5b80600160006101000a81548173ffffffffffffffffffffffffffffffffffffffff021916908373ffffffffffffffffffffffffffffffffffffffff16021790555050565b61199c612a69565b73ffffffffffffffffffffffffffffffffffffffff166119ba611e55565b73ffffffffffffffffffffffffffffffffffffffff1614611a10576040517f08c379a0000000000000000000000000000000000000000000000000000000008152600401611a0790612fd3565b60405180910390fd5b6000611a1a611e55565b73ffffffffffffffffffffffffffffffffffffffff1647604051611a3d9061317a565b60006040518083038185875af1925050503d8060008114611a7a576040519150601f19603f3d011682016040523d82523d6000602084013e611a7f565b606091505b5050905080611a8d57600080fd5b50565b611a98612a69565b73ffffffffffffffffffffffffffffffffffffffff16611ab6611e55565b73ffffffffffffffffffffffffffffffffffffffff1614611b0c576040517f08c379a0000000000000000000000000000000000000000000000000000000008152600401611b0390612fd3565b60405180910390fd5b80600260006101000a81548173ffffffffffffffffffffffffffffffffffffffff021916908373ffffffffffffffffffffffffffffffffffffffff16021790555050565b60066020528060005260406000206000915054906101000a900460ff1681565b611b78612a69565b73ffffffffffffffffffffffffffffffffffffffff16611b96611e55565b73ffffffffffffffffffffffffffffffffffffffff1614611bec576040517f08c379a0000000000000000000000000000000000000000000000000000000008152600401611be390612fd3565b60405180910390fd5b600073ffffffffffffffffffffffffffffffffffffffff16600560009054906101000a900473ffffffffffffffffffffffffffffffffffffffff1673ffffffffffffffffffffffffffffffffffffffff1603611c7d576040517f08c379a0000000000000000000000000000000000000000000000000000000008152600401611c7490613065565b60405180910390fd5b6000600560009054906101000a900473ffffffffffffffffffffffffffffffffffffffff1673ffffffffffffffffffffffffffffffffffffffff1682604051611cc59061317a565b60006040518083038185875af1925050503d8060008114611d02576040519150601f19603f3d011682016040523d82523d6000602084013e611d07565b606091505b5050905080611d1557600080fd5b5050565b611d21612a69565b73ffffffffffffffffffffffffffffffffffffffff16611d3f611e55565b73ffffffffffffffffffffffffffffffffffffffff1614611d95576040517f08c379a0000000000000000000000000000000000000000000000000000000008152600401611d8c90612fd3565b60405180910390fd5b611d9f6000612a71565b565b60078054611dae90613a7d565b80601f0160208091040260200160405190810160405280929190818152602001828054611dda90613a7d565b8015611e275780601f10611dfc57610100808354040283529160200191611e27565b820191906000526020600020905b815481529060010190602001808311611e0a57829003601f168201915b505050505081565b600260009054906101000a900473ffffffffffffffffffffffffffffffffffffffff1681565b60008060009054906101000a900473ffffffffffffffffffffffffffffffffffffffff16905090565b611e86612a69565b73ffffffffffffffffffffffffffffffffffffffff16611ea4611e55565b73ffffffffffffffffffffffffffffffffffffffff1614611efa576040517f08c379a0000000000000000000000000000000000000000000000000000000008152600401611ef190612fd3565b60405180910390fd5b600073ffffffffffffffffffffffffffffffffffffffff16600560009054906101000a900473ffffffffffffffffffffffffffffffffffffffff1673ffffffffffffffffffffffffffffffffffffffff1603611f8b576040517f08c379a0000000000000000000000000000000000000000000000000000000008152600401611f8290613065565b60405180910390fd5b6000600560009054906101000a900473ffffffffffffffffffffffffffffffffffffffff1673ffffffffffffffffffffffffffffffffffffffff1647604051611fd39061317a565b60006040518083038185875af1925050503d8060008114612010576040519150601f19603f3d011682016040523d82523d6000602084013e612015565b606091505b505090508061202357600080fd5b50565b61202e612a69565b73ffffffffffffffffffffffffffffffffffffffff1661204c611e55565b73ffffffffffffffffffffffffffffffffffffffff16146120a2576040517f08c379a000000000000000000000000000000000000000000000000000000000815260040161209990612fd3565b60405180910390fd5b80600460006101000a81548173ffffffffffffffffffffffffffffffffffffffff021916908373ffffffffffffffffffffffffffffffffffffffff16021790555050565b6120ee612a69565b73ffffffffffffffffffffffffffffffffffffffff1661210c611e55565b73ffffffffffffffffffffffffffffffffffffffff1614612162576040517f08c379a000000000000000000000000000000000000000000000000000000000815260040161215990612fd3565b60405180910390fd5b600073ffffffffffffffffffffffffffffffffffffffff16600560009054906101000a900473ffffffffffffffffffffffffffffffffffffffff1673ffffffffffffffffffffffffffffffffffffffff16036121f3576040517f08c379a00000000000000000000000000000000000000000000000000000000081526004016121ea90613065565b60405180910390fd5b6000600160009054906101000a900473ffffffffffffffffffffffffffffffffffffffff1690508073ffffffffffffffffffffffffffffffffffffffff1663a9059cbb600560009054906101000a900473ffffffffffffffffffffffffffffffffffffffff16846040518363ffffffff1660e01b8152600401612277929190613085565b6020604051808303816000875af1158015612296573d6000803e3d6000fd5b505050506040513d601f19601f820116820180604052508101906122ba91906130da565b505050565b6122c7612a69565b73ffffffffffffffffffffffffffffffffffffffff166122e5611e55565b73ffffffffffffffffffffffffffffffffffffffff161461233b576040517f08c379a000000000000000000000000000000000000000000000000000000000815260040161233290612fd3565b60405180910390fd5b80600560006101000a81548173ffffffffffffffffffffffffffffffffffffffff021916908373ffffffffffffffffffffffffffffffffffffffff16021790555050565b600160009054906101000a900473ffffffffffffffffffffffffffffffffffffffff1681565b600080600260009054906101000a900473ffffffffffffffffffffffffffffffffffffffff1690508073ffffffffffffffffffffffffffffffffffffffff166370a08231306040518263ffffffff1660e01b81526004016124069190612c68565b602060405180830381865afa158015612423573d6000803e3d6000fd5b505050506040513d601f19601f82011682018060405250810190612447919061311c565b91505090565b7f000000000000000000000000000000000000000000000000000000000000000081565b612479612a69565b73ffffffffffffffffffffffffffffffffffffffff16612497611e55565b73ffffffffffffffffffffffffffffffffffffffff16146124ed576040517f08c379a00000000000000000000000000000000000000000000000000000000081526004016124e490612fd3565b60405180910390fd5b600073ffffffffffffffffffffffffffffffffffffffff16600560009054906101000a900473ffffffffffffffffffffffffffffffffffffffff1673ffffffffffffffffffffffffffffffffffffffff160361257e576040517f08c379a000000000000000000000000000000000000000000000000000000000815260040161257590613065565b60405180910390fd5b6000600460009054906101000a900473ffffffffffffffffffffffffffffffffffffffff1690508073ffffffffffffffffffffffffffffffffffffffff1663a9059cbb600560009054906101000a900473ffffffffffffffffffffffffffffffffffffffff16846040518363ffffffff1660e01b8152600401612602929190613085565b6020604051808303816000875af1158015612621573d6000803e3d6000fd5b505050506040513d601f19601f8201168201806040525081019061264591906130da565b505050565b600080600360009054906101000a900473ffffffffffffffffffffffffffffffffffffffff1690508073ffffffffffffffffffffffffffffffffffffffff166370a08231306040518263ffffffff1660e01b81526004016126ab9190612c68565b602060405180830381865afa1580156126c8573d6000803e3d6000fd5b505050506040513d601f19601f820116820180604052508101906126ec919061311c565b91505090565b6126fa612a69565b73ffffffffffffffffffffffffffffffffffffffff16612718611e55565b73ffffffffffffffffffffffffffffffffffffffff161461276e576040517f08c379a000000000000000000000000000000000000000000000000000000000815260040161276590612fd3565b60405180910390fd5b6000600260009054906101000a900473ffffffffffffffffffffffffffffffffffffffff1690508073ffffffffffffffffffffffffffffffffffffffff1663a9059cbb6127b9611e55565b846040518363ffffffff1660e01b81526004016127d7929190613085565b6020604051808303816000875af11580156127f6573d6000803e3d6000fd5b505050506040513d601f19601f8201168201806040525081019061281a91906130da565b505050565b600560009054906101000a900473ffffffffffffffffffffffffffffffffffffffff1681565b61284d612a69565b73ffffffffffffffffffffffffffffffffffffffff1661286b611e55565b73ffffffffffffffffffffffffffffffffffffffff16146128c1576040517f08c379a00000000000000000000000000000000000000000000000000000000081526004016128b890612fd3565b60405180910390fd5b600073ffffffffffffffffffffffffffffffffffffffff168173ffffffffffffffffffffffffffffffffffffffff1603612930576040517f08c379a000000000000000000000000000000000000000000000000000000000815260040161292790613b20565b60405180910390fd5b61293981612a71565b50565b612944612a69565b73ffffffffffffffffffffffffffffffffffffffff16612962611e55565b73ffffffffffffffffffffffffffffffffffffffff16146129b8576040517f08c379a00000000000000000000000000000000000000000000000000000000081526004016129af90612fd3565b60405180910390fd5b6000600460009054906101000a900473ffffffffffffffffffffffffffffffffffffffff1690508073ffffffffffffffffffffffffffffffffffffffff1663a9059cbb612a03611e55565b846040518363ffffffff1660e01b8152600401612a21929190613085565b6020604051808303816000875af1158015612a40573d6000803e3d6000fd5b505050506040513d601f19601f82011682018060405250810190612a6491906130da565b505050565b600033905090565b60008060009054906101000a900473ffffffffffffffffffffffffffffffffffffffff169050816000806101000a81548173ffffffffffffffffffffffffffffffffffffffff021916908373ffffffffffffffffffffffffffffffffffffffff1602179055508173ffffffffffffffffffffffffffffffffffffffff168173ffffffffffffffffffffffffffffffffffffffff167f8be0079c531659141344cd1fd0a4f28419497f9722a3daafe3b4186f6b6457e060405160405180910390a35050565b6040518060a00160405280600590602082028036833780820191505090505090565b600060059050919050565b600081905092915050565b6000819050919050565b6000819050919050565b612b8a81612b77565b82525050565b6000612b9c8383612b81565b60208301905092915050565b6000602082019050919050565b612bbe81612b57565b612bc88184612b62565b9250612bd382612b6d565b8060005b83811015612c04578151612beb8782612b90565b9650612bf683612ba8565b925050600181019050612bd7565b505050505050565b600060a082019050612c216000830184612bb5565b92915050565b600073ffffffffffffffffffffffffffffffffffffffff82169050919050565b6000612c5282612c27565b9050919050565b612c6281612c47565b82525050565b6000602082019050612c7d6000830184612c59565b92915050565b6000604051905090565b600080fd5b600080fd5b612ca081612b77565b8114612cab57600080fd5b50565b600081359050612cbd81612c97565b92915050565b600060208284031215612cd957612cd8612c8d565b5b6000612ce784828501612cae565b91505092915050565b612cf981612c47565b8114612d0457600080fd5b50565b600081359050612d1681612cf0565b92915050565b600060208284031215612d3257612d31612c8d565b5b6000612d4084828501612d07565b91505092915050565b612d5281612b77565b82525050565b6000602082019050612d6d6000830184612d49565b92915050565b600080fd5b600080fd5b600080fd5b60008083601f840112612d9857612d97612d73565b5b8235905067ffffffffffffffff811115612db557612db4612d78565b5b602083019150836020820283011115612dd157612dd0612d7d565b5b9250929050565b60008060208385031215612def57612dee612c8d565b5b600083013567ffffffffffffffff811115612e0d57612e0c612c92565b5b612e1985828601612d82565b92509250509250929050565b60008115159050919050565b612e3a81612e25565b82525050565b6000602082019050612e556000830184612e31565b92915050565b600081519050919050565b600082825260208201905092915050565b60005b83811015612e95578082015181840152602081019050612e7a565b60008484015250505050565b6000601f19601f8301169050919050565b6000612ebd82612e5b565b612ec78185612e66565b9350612ed7818560208601612e77565b612ee081612ea1565b840191505092915050565b60006020820190508181036000830152612f058184612eb2565b905092915050565b6000819050919050565b6000612f32612f2d612f2884612c27565b612f0d565b612c27565b9050919050565b6000612f4482612f17565b9050919050565b6000612f5682612f39565b9050919050565b612f6681612f4b565b82525050565b6000602082019050612f816000830184612f5d565b92915050565b7f4f776e61626c653a2063616c6c6572206973206e6f7420746865206f776e6572600082015250565b6000612fbd602083612e66565b9150612fc882612f87565b602082019050919050565b60006020820190508181036000830152612fec81612fb0565b9050919050565b7f5265736375652077616c6c657420697320746865207a65726f2061646472657360008201527f7300000000000000000000000000000000000000000000000000000000000000602082015250565b600061304f602183612e66565b915061305a82612ff3565b604082019050919050565b6000602082019050818103600083015261307e81613042565b9050919050565b600060408201905061309a6000830185612c59565b6130a76020830184612d49565b9392505050565b6130b781612e25565b81146130c257600080fd5b50565b6000815190506130d4816130ae565b92915050565b6000602082840312156130f0576130ef612c8d565b5b60006130fe848285016130c5565b91505092915050565b60008151905061311681612c97565b92915050565b60006020828403121561313257613131612c8d565b5b600061314084828501613107565b91505092915050565b600081905092915050565b50565b6000613164600083613149565b915061316f82613154565b600082019050919050565b600061318582613157565b9150819050919050565b7f456d70747920696e707574206172726179000000000000000000000000000000600082015250565b60006131c5601183612e66565b91506131d08261318f565b602082019050919050565b600060208201905081810360008301526131f4816131b8565b9050919050565b7f4e487b7100000000000000000000000000000000000000000000000000000000600052603260045260246000fd5b600080fd5b60008235600160600383360303811261324b5761324a61322a565b5b80830191505092915050565b7f546f6b656e496e206e6f7420737570706f727465640000000000000000000000600082015250565b600061328d601583612e66565b915061329882613257565b602082019050919050565b600060208201905081810360008301526132bc81613280565b9050919050565b7f546f6b656e4f7574206e6f7420737570706f7274656400000000000000000000600082015250565b60006132f9601683612e66565b9150613304826132c3565b602082019050919050565b60006020820190508181036000830152613328816132ec565b9050919050565b60008235600160a00383360303811261334b5761334a61322a565b5b80830191505092915050565b7f5377617020726563697069656e74206973206e6f7420746865205661756c742060008201527f6164647265737300000000000000000000000000000000000000000000000000602082015250565b60006133b3602783612e66565b91506133be82613357565b604082019050919050565b600060208201905081810360008301526133e2816133a6565b9050919050565b7f416d6f756e744f75744d696e696d756d2073686f756c6420626520706f73697460008201527f6976650000000000000000000000000000000000000000000000000000000000602082015250565b6000613445602383612e66565b9150613450826133e9565b604082019050919050565b6000602082019050818103600083015261347481613438565b9050919050565b7f416d6f756e74732073686f756c6420626520706f73697469766520616e64207760008201527f697468696e2062616c616e636500000000000000000000000000000000000000602082015250565b60006134d7602d83612e66565b91506134e28261347b565b604082019050919050565b60006020820190508181036000830152613506816134ca565b9050919050565b7f417070726f76616c206661696c65640000000000000000000000000000000000600082015250565b6000613543600f83612e66565b915061354e8261350d565b602082019050919050565b6000602082019050818103600083015261357281613536565b9050919050565b600080fd5b600080fd5b600080fd5b600080833560016020038436030381126135a5576135a4613583565b5b83810192508235915060208301925067ffffffffffffffff8211156135cd576135cc613579565b5b6001820236038313156135e3576135e261357e565b5b509250929050565b600082825260208201905092915050565b82818337600083830152505050565b600061361783856135eb565b93506136248385846135fc565b61362d83612ea1565b840190509392505050565b60006136476020840184612d07565b905092915050565b61365881612c47565b82525050565b600061366d6020840184612cae565b905092915050565b600060a083016136886000840184613588565b858303600087015261369b83828461360b565b925050506136ac6020840184613638565b6136b9602086018261364f565b506136c7604084018461365e565b6136d46040860182612b81565b506136e2606084018461365e565b6136ef6060860182612b81565b506136fd608084018461365e565b61370a6080860182612b81565b508091505092915050565b6000602082019050818103600083015261372f8184613675565b905092915050565b60008160e01c9050919050565b600060033d11156137635760046000803e613760600051613737565b90505b90565b7f4e487b7100000000000000000000000000000000000000000000000000000000600052604160045260246000fd5b61379e82612ea1565b810181811067ffffffffffffffff821117156137bd576137bc613766565b5b80604052505050565b600060443d10613853576137d8612c83565b60043d036004823e80513d602482011167ffffffffffffffff82111715613800575050613853565b808201805167ffffffffffffffff81111561381e5750505050613853565b80602083010160043d03850181111561383b575050505050613853565b61384a82602001850186613795565b82955050505050505b90565b7f53776170206661696c6564000000000000000000000000000000000000000000600082015250565b600061388c600b83612e66565b915061389782613856565b602082019050919050565b600060208201905081810360008301526138bb8161387f565b9050919050565b60006080820190506138d76000830187612c59565b6138e46020830186612c59565b6138f16040830185612d49565b6138fe6060830184612d49565b95945050505050565b6000819050919050565b600061392c61392761392284613907565b612f0d565b612b77565b9050919050565b61393c81613911565b82525050565b60006040820190506139576000830185612c59565b6139646020830184613933565b9392505050565b7f5265766f6b6520417070726f76616c206661696c656400000000000000000000600082015250565b60006139a1601683612e66565b91506139ac8261396b565b602082019050919050565b600060208201905081810360008301526139d081613994565b9050919050565b7f4e487b7100000000000000000000000000000000000000000000000000000000600052601160045260246000fd5b6000613a1182612b77565b91507fffffffffffffffffffffffffffffffffffffffffffffffffffffffffffffffff8203613a4357613a426139d7565b5b600182019050919050565b7f4e487b7100000000000000000000000000000000000000000000000000000000600052602260045260246000fd5b60006002820490506001821680613a9557607f821691505b602082108103613aa857613aa7613a4e565b5b50919050565b7f4f776e61626c653a206e6577206f776e657220697320746865207a65726f206160008201527f6464726573730000000000000000000000000000000000000000000000000000602082015250565b6000613b0a602683612e66565b9150613b1582613aae565b604082019050919050565b60006020820190508181036000830152613b3981613afd565b905091905056fea2646970667358221220e77427ddd9483634d82a404a9dacdd5abaa7384448f99a22adf6af08a76b2fd664736f6c63430008120033",
  "linkReferences": {},
  "deployedLinkReferences": {}
}