{
  "_format": "hh-sol-artifact-1",
  "contractName": "ColateralContract_v1_0_0",
  "sourceName": "contracts/ColateralContract_v1_0_0.sol",
  "abi": [
    {
      "inputs": [
        {
          "internalType": "address",
          "name": "_usdcTokenAddress",
          "type": "address"
        },
        {
          "internalType": "address",
          "name": "_usdtTokenAddress",
          "type": "address"
        },
        {
          "internalType": "address",
          "name": "_wbtcTokenAddress",
          "type": "address"
        },
        {
          "internalType": "address",
          "name": "_wethTokenAddress",
          "type": "address"
        }
      ],
      "stateMutability": "nonpayable",
      "type": "constructor"
    },
    {
      "anonymous": false,
      "inputs": [
        {
          "indexed": true,
          "internalType": "address",
          "name": "previousOwner",
          "type": "address"
        },
        {
          "indexed": true,
          "internalType": "address",
          "name": "newOwner",
          "type": "address"
        }
      ],
      "name": "OwnershipTransferred",
      "type": "event"
    },
    {
      "inputs": [],
      "name": "balanceOfUSDC",
      "outputs": [
        {
          "internalType": "uint256",
          "name": "",
          "type": "uint256"
        }
      ],
      "stateMutability": "view",
      "type": "function"
    },
    {
      "inputs": [],
      "name": "balanceOfUSDT",
      "outputs": [
        {
          "internalType": "uint256",
          "name": "",
          "type": "uint256"
        }
      ],
      "stateMutability": "view",
      "type": "function"
    },
    {
      "inputs": [],
      "name": "balanceOfWBTC",
      "outputs": [
        {
          "internalType": "uint256",
          "name": "",
          "type": "uint256"
        }
      ],
      "stateMutability": "view",
      "type": "function"
    },
    {
      "inputs": [],
      "name": "balanceOfWETH",
      "outputs": [
        {
          "internalType": "uint256",
          "name": "",
          "type": "uint256"
        }
      ],
      "stateMutability": "view",
      "type": "function"
    },
    {
      "inputs": [],
      "name": "contractName",
      "outputs": [
        {
          "internalType": "string",
          "name": "",
          "type": "string"
        }
      ],
      "stateMutability": "view",
      "type": "function"
    },
    {
      "inputs": [],
      "name": "getBalances",
      "outputs": [
        {
          "internalType": "uint256[5]",
          "name": "",
          "type": "uint256[5]"
        }
      ],
      "stateMutability": "view",
      "type": "function"
    },
    {
      "inputs": [],
      "name": "owner",
      "outputs": [
        {
          "internalType": "address",
          "name": "",
          "type": "address"
        }
      ],
      "stateMutability": "view",
      "type": "function"
    },
    {
      "inputs": [],
      "name": "renounceOwnership",
      "outputs": [],
      "stateMutability": "nonpayable",
      "type": "function"
    },
    {
      "inputs": [
        {
          "internalType": "uint256",
          "name": "_amount",
          "type": "uint256"
        }
      ],
      "name": "rescue",
      "outputs": [],
      "stateMutability": "payable",
      "type": "function"
    },
    {
      "inputs": [],
      "name": "rescueBalance",
      "outputs": [],
      "stateMutability": "payable",
      "type": "function"
    },
    {
      "inputs": [
        {
          "internalType": "uint256",
          "name": "_amount",
          "type": "uint256"
        }
      ],
      "name": "rescueUSDC",
      "outputs": [],
      "stateMutability": "nonpayable",
      "type": "function"
    },
    {
      "inputs": [
        {
          "internalType": "uint256",
          "name": "_amount",
          "type": "uint256"
        }
      ],
      "name": "rescueUSDT",
      "outputs": [],
      "stateMutability": "nonpayable",
      "type": "function"
    },
    {
      "inputs": [
        {
          "internalType": "uint256",
          "name": "_amount",
          "type": "uint256"
        }
      ],
      "name": "rescueWBTC",
      "outputs": [],
      "stateMutability": "nonpayable",
      "type": "function"
    },
    {
      "inputs": [
        {
          "internalType": "uint256",
          "name": "_amount",
          "type": "uint256"
        }
      ],
      "name": "rescueWETH",
      "outputs": [],
      "stateMutability": "nonpayable",
      "type": "function"
    },
    {
      "inputs": [],
      "name": "rescueWalletAccount",
      "outputs": [
        {
          "internalType": "address",
          "name": "",
          "type": "address"
        }
      ],
      "stateMutability": "view",
      "type": "function"
    },
    {
      "inputs": [
        {
          "internalType": "address",
          "name": "_rescueWalletAccount",
          "type": "address"
        }
      ],
      "name": "setRescueWalletAccount",
      "outputs": [],
      "stateMutability": "nonpayable",
      "type": "function"
    },
    {
      "inputs": [
        {
          "internalType": "address",
          "name": "_usdcTokenAddress",
          "type": "address"
        }
      ],
      "name": "setUSDCTokenAddress",
      "outputs": [],
      "stateMutability": "nonpayable",
      "type": "function"
    },
    {
      "inputs": [
        {
          "internalType": "address",
          "name": "_usdtTokenAddress",
          "type": "address"
        }
      ],
      "name": "setUSDTTokenAddress",
      "outputs": [],
      "stateMutability": "nonpayable",
      "type": "function"
    },
    {
      "inputs": [
        {
          "internalType": "address",
          "name": "_wbtcTokenAddress",
          "type": "address"
        }
      ],
      "name": "setWBTCTokenAddress",
      "outputs": [],
      "stateMutability": "nonpayable",
      "type": "function"
    },
    {
      "inputs": [
        {
          "internalType": "address",
          "name": "_wethTokenAddress",
          "type": "address"
        }
      ],
      "name": "setWETHTokenAddress",
      "outputs": [],
      "stateMutability": "nonpayable",
      "type": "function"
    },
    {
      "inputs": [
        {
          "internalType": "address",
          "name": "newOwner",
          "type": "address"
        }
      ],
      "name": "transferOwnership",
      "outputs": [],
      "stateMutability": "nonpayable",
      "type": "function"
    },
    {
      "inputs": [],
      "name": "usdcTokenAddress",
      "outputs": [
        {
          "internalType": "address",
          "name": "",
          "type": "address"
        }
      ],
      "stateMutability": "view",
      "type": "function"
    },
    {
      "inputs": [],
      "name": "usdtTokenAddress",
      "outputs": [
        {
          "internalType": "address",
          "name": "",
          "type": "address"
        }
      ],
      "stateMutability": "view",
      "type": "function"
    },
    {
      "inputs": [],
      "name": "wbtcTokenAddress",
      "outputs": [
        {
          "internalType": "address",
          "name": "",
          "type": "address"
        }
      ],
      "stateMutability": "view",
      "type": "function"
    },
    {
      "inputs": [],
      "name": "wethTokenAddress",
      "outputs": [
        {
          "internalType": "address",
          "name": "",
          "type": "address"
        }
      ],
      "stateMutability": "view",
      "type": "function"
    },
    {
      "inputs": [
        {
          "internalType": "uint256",
          "name": "_amount",
          "type": "uint256"
        }
      ],
      "name": "withdraw",
      "outputs": [],
      "stateMutability": "payable",
      "type": "function"
    },
    {
      "inputs": [],
      "name": "withdrawBalance",
      "outputs": [],
      "stateMutability": "payable",
      "type": "function"
    },
    {
      "inputs": [
        {
          "internalType": "uint256",
          "name": "_amount",
          "type": "uint256"
        }
      ],
      "name": "withdrawUSDC",
      "outputs": [],
      "stateMutability": "nonpayable",
      "type": "function"
    },
    {
      "inputs": [
        {
          "internalType": "uint256",
          "name": "_amount",
          "type": "uint256"
        }
      ],
      "name": "withdrawUSDT",
      "outputs": [],
      "stateMutability": "nonpayable",
      "type": "function"
    },
    {
      "inputs": [
        {
          "internalType": "uint256",
          "name": "_amount",
          "type": "uint256"
        }
      ],
      "name": "withdrawWBTC",
      "outputs": [],
      "stateMutability": "nonpayable",
      "type": "function"
    },
    {
      "inputs": [
        {
          "internalType": "uint256",
          "name": "_amount",
          "type": "uint256"
        }
      ],
      "name": "withdrawWETH",
      "outputs": [],
      "stateMutability": "nonpayable",
      "type": "function"
    }
  ],
  "bytecode": "0x60806040523480156200001157600080fd5b5060405162002c5638038062002c56833981810160405281019062000037919062000248565b620000576200004b6200016560201b60201c565b6200016d60201b60201c565b83600260006101000a81548173ffffffffffffffffffffffffffffffffffffffff021916908373ffffffffffffffffffffffffffffffffffffffff16021790555082600160006101000a81548173ffffffffffffffffffffffffffffffffffffffff021916908373ffffffffffffffffffffffffffffffffffffffff16021790555081600360006101000a81548173ffffffffffffffffffffffffffffffffffffffff021916908373ffffffffffffffffffffffffffffffffffffffff16021790555080600460006101000a81548173ffffffffffffffffffffffffffffffffffffffff021916908373ffffffffffffffffffffffffffffffffffffffff1602179055505050505062000302565b600033905090565b60008060009054906101000a900473ffffffffffffffffffffffffffffffffffffffff169050816000806101000a81548173ffffffffffffffffffffffffffffffffffffffff021916908373ffffffffffffffffffffffffffffffffffffffff1602179055508173ffffffffffffffffffffffffffffffffffffffff168173ffffffffffffffffffffffffffffffffffffffff167f8be0079c531659141344cd1fd0a4f28419497f9722a3daafe3b4186f6b6457e060405160405180910390a35050565b6000815190506200024281620002e8565b92915050565b600080600080608085870312156200025f57600080fd5b60006200026f8782880162000231565b9450506020620002828782880162000231565b9350506040620002958782880162000231565b9250506060620002a88782880162000231565b91505092959194509250565b6000620002c182620002c8565b9050919050565b600073ffffffffffffffffffffffffffffffffffffffff82169050919050565b620002f381620002b4565b8114620002ff57600080fd5b50565b61294480620003126000396000f3fe6080604052600436106101d75760003560e01c8063715018a6116101025780639d741e5d11610095578063db81f99b11610064578063db81f99b146105db578063e59fba3014610604578063f2fde38b1461062f578063fc4dd33314610658576101d7565b80639d741e5d14610531578063a7deac391461055c578063c853c4bc14610587578063ce66c71e146105b0576101d7565b80638ee75bb6116100d15780638ee75bb6146104ac578063933ca16f146104b65780639807185c146104df578063982fdf4714610508576101d7565b8063715018a61461041457806375d0c0dc1461042b57806377b53ece146104565780638da5cb5b14610481576101d7565b80632a525f321161017a57806352173ba81161014957806352173ba81461039c5780635fd8c710146103c5578063653a908d146103cf5780636ac053ad146103f8576101d7565b80632a525f32146103035780632e1a7d4d1461032c5780633ea521ef146103485780634c526bdb14610371576101d7565b806319689e97116101b657806319689e971461025b5780631aab34741461028457806320ce0c8c146102af57806324815018146102d8576101d7565b8062113e08146101dc5780630f9dad711461020757806314c258db14610232575b600080fd5b3480156101e857600080fd5b506101f1610681565b6040516101fe9190612606565b60405180910390f35b34801561021357600080fd5b5061021c6106f5565b60405161022991906125c2565b60405180910390f35b34801561023e57600080fd5b50610259600480360381019061025491906123fa565b61071b565b005b34801561026757600080fd5b50610282600480360381019061027d91906123a8565b610904565b005b34801561029057600080fd5b506102996109c4565b6040516102a691906126a3565b60405180910390f35b3480156102bb57600080fd5b506102d660048036038101906102d191906123fa565b610a7b565b005b3480156102e457600080fd5b506102ed610bb7565b6040516102fa91906126a3565b60405180910390f35b34801561030f57600080fd5b5061032a600480360381019061032591906123fa565b610c6e565b005b610346600480360381019061034191906123fa565b610e57565b005b34801561035457600080fd5b5061036f600480360381019061036a91906123fa565b610f54565b005b34801561037d57600080fd5b50610386611090565b60405161039391906125c2565b60405180910390f35b3480156103a857600080fd5b506103c360048036038101906103be91906123a8565b6110b6565b005b6103cd611176565b005b3480156103db57600080fd5b506103f660048036038101906103f191906123a8565b611272565b005b610412600480360381019061040d91906123fa565b611332565b005b34801561042057600080fd5b506104296114dc565b005b34801561043757600080fd5b50610440611564565b60405161044d9190612621565b60405180910390f35b34801561046257600080fd5b5061046b6115f2565b60405161047891906125c2565b60405180910390f35b34801561048d57600080fd5b50610496611618565b6040516104a391906125c2565b60405180910390f35b6104b4611641565b005b3480156104c257600080fd5b506104dd60048036038101906104d891906123a8565b6117ea565b005b3480156104eb57600080fd5b50610506600480360381019061050191906123fa565b6118aa565b005b34801561051457600080fd5b5061052f600480360381019061052a91906123a8565b611a93565b005b34801561053d57600080fd5b50610546611b53565b60405161055391906125c2565b60405180910390f35b34801561056857600080fd5b50610571611b79565b60405161057e91906126a3565b60405180910390f35b34801561059357600080fd5b506105ae60048036038101906105a991906123fa565b611c30565b005b3480156105bc57600080fd5b506105c5611e19565b6040516105d291906126a3565b60405180910390f35b3480156105e757600080fd5b5061060260048036038101906105fd91906123fa565b611ed0565b005b34801561061057600080fd5b5061061961200c565b60405161062691906125c2565b60405180910390f35b34801561063b57600080fd5b50610656600480360381019061065191906123a8565b612032565b005b34801561066457600080fd5b5061067f600480360381019061067a91906123fa565b61212a565b005b610689612332565b60004790506000610698611b79565b905060006106a46109c4565b905060006106b0611e19565b905060006106bc610bb7565b905060006040518060a0016040528087815260200186815260200185815260200184815260200183815250905080965050505050505090565b600460009054906101000a900473ffffffffffffffffffffffffffffffffffffffff1681565b610723612266565b73ffffffffffffffffffffffffffffffffffffffff16610741611618565b73ffffffffffffffffffffffffffffffffffffffff1614610797576040517f08c379a000000000000000000000000000000000000000000000000000000000815260040161078e90612683565b60405180910390fd5b600073ffffffffffffffffffffffffffffffffffffffff16600560009054906101000a900473ffffffffffffffffffffffffffffffffffffffff1673ffffffffffffffffffffffffffffffffffffffff161415610829576040517f08c379a000000000000000000000000000000000000000000000000000000000815260040161082090612663565b60405180910390fd5b6000600260009054906101000a900473ffffffffffffffffffffffffffffffffffffffff1690508073ffffffffffffffffffffffffffffffffffffffff1663a9059cbb600560009054906101000a900473ffffffffffffffffffffffffffffffffffffffff16846040518363ffffffff1660e01b81526004016108ad9291906125dd565b602060405180830381600087803b1580156108c757600080fd5b505af11580156108db573d6000803e3d6000fd5b505050506040513d601f19601f820116820180604052508101906108ff91906123d1565b505050565b61090c612266565b73ffffffffffffffffffffffffffffffffffffffff1661092a611618565b73ffffffffffffffffffffffffffffffffffffffff1614610980576040517f08c379a000000000000000000000000000000000000000000000000000000000815260040161097790612683565b60405180910390fd5b80600360006101000a81548173ffffffffffffffffffffffffffffffffffffffff021916908373ffffffffffffffffffffffffffffffffffffffff16021790555050565b600080600160009054906101000a900473ffffffffffffffffffffffffffffffffffffffff1690508073ffffffffffffffffffffffffffffffffffffffff166370a08231306040518263ffffffff1660e01b8152600401610a2591906125c2565b60206040518083038186803b158015610a3d57600080fd5b505afa158015610a51573d6000803e3d6000fd5b505050506040513d601f19601f82011682018060405250810190610a759190612423565b91505090565b610a83612266565b73ffffffffffffffffffffffffffffffffffffffff16610aa1611618565b73ffffffffffffffffffffffffffffffffffffffff1614610af7576040517f08c379a0000000000000000000000000000000000000000000000000000000008152600401610aee90612683565b60405180910390fd5b6000600360009054906101000a900473ffffffffffffffffffffffffffffffffffffffff1690508073ffffffffffffffffffffffffffffffffffffffff1663a9059cbb610b42611618565b846040518363ffffffff1660e01b8152600401610b609291906125dd565b602060405180830381600087803b158015610b7a57600080fd5b505af1158015610b8e573d6000803e3d6000fd5b505050506040513d601f19601f82011682018060405250810190610bb291906123d1565b505050565b600080600460009054906101000a900473ffffffffffffffffffffffffffffffffffffffff1690508073ffffffffffffffffffffffffffffffffffffffff166370a08231306040518263ffffffff1660e01b8152600401610c1891906125c2565b60206040518083038186803b158015610c3057600080fd5b505afa158015610c44573d6000803e3d6000fd5b505050506040513d601f19601f82011682018060405250810190610c689190612423565b91505090565b610c76612266565b73ffffffffffffffffffffffffffffffffffffffff16610c94611618565b73ffffffffffffffffffffffffffffffffffffffff1614610cea576040517f08c379a0000000000000000000000000000000000000000000000000000000008152600401610ce190612683565b60405180910390fd5b600073ffffffffffffffffffffffffffffffffffffffff16600560009054906101000a900473ffffffffffffffffffffffffffffffffffffffff1673ffffffffffffffffffffffffffffffffffffffff161415610d7c576040517f08c379a0000000000000000000000000000000000000000000000000000000008152600401610d7390612663565b60405180910390fd5b6000600360009054906101000a900473ffffffffffffffffffffffffffffffffffffffff1690508073ffffffffffffffffffffffffffffffffffffffff1663a9059cbb600560009054906101000a900473ffffffffffffffffffffffffffffffffffffffff16846040518363ffffffff1660e01b8152600401610e009291906125dd565b602060405180830381600087803b158015610e1a57600080fd5b505af1158015610e2e573d6000803e3d6000fd5b505050506040513d601f19601f82011682018060405250810190610e5291906123d1565b505050565b610e5f612266565b73ffffffffffffffffffffffffffffffffffffffff16610e7d611618565b73ffffffffffffffffffffffffffffffffffffffff1614610ed3576040517f08c379a0000000000000000000000000000000000000000000000000000000008152600401610eca90612683565b60405180910390fd5b6000610edd611618565b73ffffffffffffffffffffffffffffffffffffffff1682604051610f00906125ad565b60006040518083038185875af1925050503d8060008114610f3d576040519150601f19603f3d011682016040523d82523d6000602084013e610f42565b606091505b5050905080610f5057600080fd5b5050565b610f5c612266565b73ffffffffffffffffffffffffffffffffffffffff16610f7a611618565b73ffffffffffffffffffffffffffffffffffffffff1614610fd0576040517f08c379a0000000000000000000000000000000000000000000000000000000008152600401610fc790612683565b60405180910390fd5b6000600160009054906101000a900473ffffffffffffffffffffffffffffffffffffffff1690508073ffffffffffffffffffffffffffffffffffffffff1663a9059cbb61101b611618565b846040518363ffffffff1660e01b81526004016110399291906125dd565b602060405180830381600087803b15801561105357600080fd5b505af1158015611067573d6000803e3d6000fd5b505050506040513d601f19601f8201168201806040525081019061108b91906123d1565b505050565b600360009054906101000a900473ffffffffffffffffffffffffffffffffffffffff1681565b6110be612266565b73ffffffffffffffffffffffffffffffffffffffff166110dc611618565b73ffffffffffffffffffffffffffffffffffffffff1614611132576040517f08c379a000000000000000000000000000000000000000000000000000000000815260040161112990612683565b60405180910390fd5b80600160006101000a81548173ffffffffffffffffffffffffffffffffffffffff021916908373ffffffffffffffffffffffffffffffffffffffff16021790555050565b61117e612266565b73ffffffffffffffffffffffffffffffffffffffff1661119c611618565b73ffffffffffffffffffffffffffffffffffffffff16146111f2576040517f08c379a00000000000000000000000000000000000000000000000000000000081526004016111e990612683565b60405180910390fd5b60006111fc611618565b73ffffffffffffffffffffffffffffffffffffffff164760405161121f906125ad565b60006040518083038185875af1925050503d806000811461125c576040519150601f19603f3d011682016040523d82523d6000602084013e611261565b606091505b505090508061126f57600080fd5b50565b61127a612266565b73ffffffffffffffffffffffffffffffffffffffff16611298611618565b73ffffffffffffffffffffffffffffffffffffffff16146112ee576040517f08c379a00000000000000000000000000000000000000000000000000000000081526004016112e590612683565b60405180910390fd5b80600260006101000a81548173ffffffffffffffffffffffffffffffffffffffff021916908373ffffffffffffffffffffffffffffffffffffffff16021790555050565b61133a612266565b73ffffffffffffffffffffffffffffffffffffffff16611358611618565b73ffffffffffffffffffffffffffffffffffffffff16146113ae576040517f08c379a00000000000000000000000000000000000000000000000000000000081526004016113a590612683565b60405180910390fd5b600073ffffffffffffffffffffffffffffffffffffffff16600560009054906101000a900473ffffffffffffffffffffffffffffffffffffffff1673ffffffffffffffffffffffffffffffffffffffff161415611440576040517f08c379a000000000000000000000000000000000000000000000000000000000815260040161143790612663565b60405180910390fd5b6000600560009054906101000a900473ffffffffffffffffffffffffffffffffffffffff1673ffffffffffffffffffffffffffffffffffffffff1682604051611488906125ad565b60006040518083038185875af1925050503d80600081146114c5576040519150601f19603f3d011682016040523d82523d6000602084013e6114ca565b606091505b50509050806114d857600080fd5b5050565b6114e4612266565b73ffffffffffffffffffffffffffffffffffffffff16611502611618565b73ffffffffffffffffffffffffffffffffffffffff1614611558576040517f08c379a000000000000000000000000000000000000000000000000000000000815260040161154f90612683565b60405180910390fd5b611562600061226e565b565b600680546115719061278d565b80601f016020809104026020016040519081016040528092919081815260200182805461159d9061278d565b80156115ea5780601f106115bf576101008083540402835291602001916115ea565b820191906000526020600020905b8154815290600101906020018083116115cd57829003601f168201915b505050505081565b600260009054906101000a900473ffffffffffffffffffffffffffffffffffffffff1681565b60008060009054906101000a900473ffffffffffffffffffffffffffffffffffffffff16905090565b611649612266565b73ffffffffffffffffffffffffffffffffffffffff16611667611618565b73ffffffffffffffffffffffffffffffffffffffff16146116bd576040517f08c379a00000000000000000000000000000000000000000000000000000000081526004016116b490612683565b60405180910390fd5b600073ffffffffffffffffffffffffffffffffffffffff16600560009054906101000a900473ffffffffffffffffffffffffffffffffffffffff1673ffffffffffffffffffffffffffffffffffffffff16141561174f576040517f08c379a000000000000000000000000000000000000000000000000000000000815260040161174690612663565b60405180910390fd5b6000600560009054906101000a900473ffffffffffffffffffffffffffffffffffffffff1673ffffffffffffffffffffffffffffffffffffffff1647604051611797906125ad565b60006040518083038185875af1925050503d80600081146117d4576040519150601f19603f3d011682016040523d82523d6000602084013e6117d9565b606091505b50509050806117e757600080fd5b50565b6117f2612266565b73ffffffffffffffffffffffffffffffffffffffff16611810611618565b73ffffffffffffffffffffffffffffffffffffffff1614611866576040517f08c379a000000000000000000000000000000000000000000000000000000000815260040161185d90612683565b60405180910390fd5b80600460006101000a81548173ffffffffffffffffffffffffffffffffffffffff021916908373ffffffffffffffffffffffffffffffffffffffff16021790555050565b6118b2612266565b73ffffffffffffffffffffffffffffffffffffffff166118d0611618565b73ffffffffffffffffffffffffffffffffffffffff1614611926576040517f08c379a000000000000000000000000000000000000000000000000000000000815260040161191d90612683565b60405180910390fd5b600073ffffffffffffffffffffffffffffffffffffffff16600560009054906101000a900473ffffffffffffffffffffffffffffffffffffffff1673ffffffffffffffffffffffffffffffffffffffff1614156119b8576040517f08c379a00000000000000000000000000000000000000000000000000000000081526004016119af90612663565b60405180910390fd5b6000600160009054906101000a900473ffffffffffffffffffffffffffffffffffffffff1690508073ffffffffffffffffffffffffffffffffffffffff1663a9059cbb600560009054906101000a900473ffffffffffffffffffffffffffffffffffffffff16846040518363ffffffff1660e01b8152600401611a3c9291906125dd565b602060405180830381600087803b158015611a5657600080fd5b505af1158015611a6a573d6000803e3d6000fd5b505050506040513d601f19601f82011682018060405250810190611a8e91906123d1565b505050565b611a9b612266565b73ffffffffffffffffffffffffffffffffffffffff16611ab9611618565b73ffffffffffffffffffffffffffffffffffffffff1614611b0f576040517f08c379a0000000000000000000000000000000000000000000000000000000008152600401611b0690612683565b60405180910390fd5b80600560006101000a81548173ffffffffffffffffffffffffffffffffffffffff021916908373ffffffffffffffffffffffffffffffffffffffff16021790555050565b600160009054906101000a900473ffffffffffffffffffffffffffffffffffffffff1681565b600080600260009054906101000a900473ffffffffffffffffffffffffffffffffffffffff1690508073ffffffffffffffffffffffffffffffffffffffff166370a08231306040518263ffffffff1660e01b8152600401611bda91906125c2565b60206040518083038186803b158015611bf257600080fd5b505afa158015611c06573d6000803e3d6000fd5b505050506040513d601f19601f82011682018060405250810190611c2a9190612423565b91505090565b611c38612266565b73ffffffffffffffffffffffffffffffffffffffff16611c56611618565b73ffffffffffffffffffffffffffffffffffffffff1614611cac576040517f08c379a0000000000000000000000000000000000000000000000000000000008152600401611ca390612683565b60405180910390fd5b600073ffffffffffffffffffffffffffffffffffffffff16600560009054906101000a900473ffffffffffffffffffffffffffffffffffffffff1673ffffffffffffffffffffffffffffffffffffffff161415611d3e576040517f08c379a0000000000000000000000000000000000000000000000000000000008152600401611d3590612663565b60405180910390fd5b6000600460009054906101000a900473ffffffffffffffffffffffffffffffffffffffff1690508073ffffffffffffffffffffffffffffffffffffffff1663a9059cbb600560009054906101000a900473ffffffffffffffffffffffffffffffffffffffff16846040518363ffffffff1660e01b8152600401611dc29291906125dd565b602060405180830381600087803b158015611ddc57600080fd5b505af1158015611df0573d6000803e3d6000fd5b505050506040513d601f19601f82011682018060405250810190611e1491906123d1565b505050565b600080600360009054906101000a900473ffffffffffffffffffffffffffffffffffffffff1690508073ffffffffffffffffffffffffffffffffffffffff166370a08231306040518263ffffffff1660e01b8152600401611e7a91906125c2565b60206040518083038186803b158015611e9257600080fd5b505afa158015611ea6573d6000803e3d6000fd5b505050506040513d601f19601f82011682018060405250810190611eca9190612423565b91505090565b611ed8612266565b73ffffffffffffffffffffffffffffffffffffffff16611ef6611618565b73ffffffffffffffffffffffffffffffffffffffff1614611f4c576040517f08c379a0000000000000000000000000000000000000000000000000000000008152600401611f4390612683565b60405180910390fd5b6000600260009054906101000a900473ffffffffffffffffffffffffffffffffffffffff1690508073ffffffffffffffffffffffffffffffffffffffff1663a9059cbb611f97611618565b846040518363ffffffff1660e01b8152600401611fb59291906125dd565b602060405180830381600087803b158015611fcf57600080fd5b505af1158015611fe3573d6000803e3d6000fd5b505050506040513d601f19601f8201168201806040525081019061200791906123d1565b505050565b600560009054906101000a900473ffffffffffffffffffffffffffffffffffffffff1681565b61203a612266565b73ffffffffffffffffffffffffffffffffffffffff16612058611618565b73ffffffffffffffffffffffffffffffffffffffff16146120ae576040517f08c379a00000000000000000000000000000000000000000000000000000000081526004016120a590612683565b60405180910390fd5b600073ffffffffffffffffffffffffffffffffffffffff168173ffffffffffffffffffffffffffffffffffffffff16141561211e576040517f08c379a000000000000000000000000000000000000000000000000000000000815260040161211590612643565b60405180910390fd5b6121278161226e565b50565b612132612266565b73ffffffffffffffffffffffffffffffffffffffff16612150611618565b73ffffffffffffffffffffffffffffffffffffffff16146121a6576040517f08c379a000000000000000000000000000000000000000000000000000000000815260040161219d90612683565b60405180910390fd5b6000600460009054906101000a900473ffffffffffffffffffffffffffffffffffffffff1690508073ffffffffffffffffffffffffffffffffffffffff1663a9059cbb6121f1611618565b846040518363ffffffff1660e01b815260040161220f9291906125dd565b602060405180830381600087803b15801561222957600080fd5b505af115801561223d573d6000803e3d6000fd5b505050506040513d601f19601f8201168201806040525081019061226191906123d1565b505050565b600033905090565b60008060009054906101000a900473ffffffffffffffffffffffffffffffffffffffff169050816000806101000a81548173ffffffffffffffffffffffffffffffffffffffff021916908373ffffffffffffffffffffffffffffffffffffffff1602179055508173ffffffffffffffffffffffffffffffffffffffff168173ffffffffffffffffffffffffffffffffffffffff167f8be0079c531659141344cd1fd0a4f28419497f9722a3daafe3b4186f6b6457e060405160405180910390a35050565b6040518060a00160405280600590602082028036833780820191505090505090565b600081359050612363816128c9565b92915050565b600081519050612378816128e0565b92915050565b60008135905061238d816128f7565b92915050565b6000815190506123a2816128f7565b92915050565b6000602082840312156123ba57600080fd5b60006123c884828501612354565b91505092915050565b6000602082840312156123e357600080fd5b60006123f184828501612369565b91505092915050565b60006020828403121561240c57600080fd5b600061241a8482850161237e565b91505092915050565b60006020828403121561243557600080fd5b600061244384828501612393565b91505092915050565b6000612458838361258f565b60208301905092915050565b61246d81612712565b82525050565b61247c816126c8565b61248681846126eb565b9250612491826126be565b8060005b838110156124c25781516124a9878261244c565b96506124b4836126de565b925050600181019050612495565b505050505050565b60006124d5826126d3565b6124df8185612701565b93506124ef81856020860161275a565b6124f8816127ee565b840191505092915050565b6000612510602683612701565b915061251b826127ff565b604082019050919050565b6000612533602183612701565b915061253e8261284e565b604082019050919050565b6000612556602083612701565b91506125618261289d565b602082019050919050565b60006125796000836126f6565b9150612584826128c6565b600082019050919050565b61259881612750565b82525050565b6125a781612750565b82525050565b60006125b88261256c565b9150819050919050565b60006020820190506125d76000830184612464565b92915050565b60006040820190506125f26000830185612464565b6125ff602083018461259e565b9392505050565b600060a08201905061261b6000830184612473565b92915050565b6000602082019050818103600083015261263b81846124ca565b905092915050565b6000602082019050818103600083015261265c81612503565b9050919050565b6000602082019050818103600083015261267c81612526565b9050919050565b6000602082019050818103600083015261269c81612549565b9050919050565b60006020820190506126b8600083018461259e565b92915050565b6000819050919050565b600060059050919050565b600081519050919050565b6000602082019050919050565b600081905092915050565b600081905092915050565b600082825260208201905092915050565b600061271d82612730565b9050919050565b60008115159050919050565b600073ffffffffffffffffffffffffffffffffffffffff82169050919050565b6000819050919050565b60005b8381101561277857808201518184015260208101905061275d565b83811115612787576000848401525b50505050565b600060028204905060018216806127a557607f821691505b602082108114156127b9576127b86127bf565b5b50919050565b7f4e487b7100000000000000000000000000000000000000000000000000000000600052602260045260246000fd5b6000601f19601f8301169050919050565b7f4f776e61626c653a206e6577206f776e657220697320746865207a65726f206160008201527f6464726573730000000000000000000000000000000000000000000000000000602082015250565b7f5265736375652077616c6c657420697320746865207a65726f2061646472657360008201527f7300000000000000000000000000000000000000000000000000000000000000602082015250565b7f4f776e61626c653a2063616c6c6572206973206e6f7420746865206f776e6572600082015250565b50565b6128d281612712565b81146128dd57600080fd5b50565b6128e981612724565b81146128f457600080fd5b50565b61290081612750565b811461290b57600080fd5b5056fea26469706673582212207b160c6db1a2526933e35bdd8475253a11e8a5f4cbbf3f12e983f27529c28bfe64736f6c63430008040033",
  "linkReferences": {},
  "deployedLinkReferences": {}
}