{
  "_format": "hh-sol-artifact-1",
  "contractName": "ColateralContract_v1_0_0",
  "sourceName": "contracts/ColateralContract_v1_0_0.sol",
  "abi": [
    {
      "inputs": [
        {
          "internalType": "address",
          "name": "_usdcTokenAddress",
          "type": "address"
        },
        {
          "internalType": "address",
          "name": "_usdtTokenAddress",
          "type": "address"
        },
        {
          "internalType": "address",
          "name": "_wbtcTokenAddress",
          "type": "address"
        },
        {
          "internalType": "address",
          "name": "_wethTokenAddress",
          "type": "address"
        },
        {
          "internalType": "address",
          "name": "_swapRouterAddress",
          "type": "address"
        }
      ],
      "stateMutability": "nonpayable",
      "type": "constructor"
    },
    {
      "anonymous": false,
      "inputs": [
        {
          "indexed": true,
          "internalType": "address",
          "name": "previousOwner",
          "type": "address"
        },
        {
          "indexed": true,
          "internalType": "address",
          "name": "newOwner",
          "type": "address"
        }
      ],
      "name": "OwnershipTransferred",
      "type": "event"
    },
    {
      "anonymous": false,
      "inputs": [
        {
          "indexed": false,
          "internalType": "address",
          "name": "tokenIn",
          "type": "address"
        },
        {
          "indexed": false,
          "internalType": "address",
          "name": "tokenOut",
          "type": "address"
        },
        {
          "indexed": false,
          "internalType": "uint256",
          "name": "amountIn",
          "type": "uint256"
        },
        {
          "indexed": false,
          "internalType": "uint256",
          "name": "amountOut",
          "type": "uint256"
        }
      ],
      "name": "Swap",
      "type": "event"
    },
    {
      "anonymous": false,
      "inputs": [
        {
          "indexed": false,
          "internalType": "address",
          "name": "tokenIn",
          "type": "address"
        },
        {
          "indexed": false,
          "internalType": "string",
          "name": "msg",
          "type": "string"
        }
      ],
      "name": "SwapError",
      "type": "event"
    },
    {
      "inputs": [],
      "name": "balanceOfUSDC",
      "outputs": [
        {
          "internalType": "uint256",
          "name": "",
          "type": "uint256"
        }
      ],
      "stateMutability": "view",
      "type": "function"
    },
    {
      "inputs": [],
      "name": "balanceOfUSDT",
      "outputs": [
        {
          "internalType": "uint256",
          "name": "",
          "type": "uint256"
        }
      ],
      "stateMutability": "view",
      "type": "function"
    },
    {
      "inputs": [],
      "name": "balanceOfWBTC",
      "outputs": [
        {
          "internalType": "uint256",
          "name": "",
          "type": "uint256"
        }
      ],
      "stateMutability": "view",
      "type": "function"
    },
    {
      "inputs": [],
      "name": "balanceOfWETH",
      "outputs": [
        {
          "internalType": "uint256",
          "name": "",
          "type": "uint256"
        }
      ],
      "stateMutability": "view",
      "type": "function"
    },
    {
      "inputs": [],
      "name": "contractName",
      "outputs": [
        {
          "internalType": "string",
          "name": "",
          "type": "string"
        }
      ],
      "stateMutability": "view",
      "type": "function"
    },
    {
      "inputs": [],
      "name": "getBalances",
      "outputs": [
        {
          "internalType": "uint256[5]",
          "name": "",
          "type": "uint256[5]"
        }
      ],
      "stateMutability": "view",
      "type": "function"
    },
    {
      "inputs": [],
      "name": "owner",
      "outputs": [
        {
          "internalType": "address",
          "name": "",
          "type": "address"
        }
      ],
      "stateMutability": "view",
      "type": "function"
    },
    {
      "inputs": [],
      "name": "renounceOwnership",
      "outputs": [],
      "stateMutability": "nonpayable",
      "type": "function"
    },
    {
      "inputs": [
        {
          "internalType": "uint256",
          "name": "_amount",
          "type": "uint256"
        }
      ],
      "name": "rescue",
      "outputs": [],
      "stateMutability": "payable",
      "type": "function"
    },
    {
      "inputs": [],
      "name": "rescueBalance",
      "outputs": [],
      "stateMutability": "payable",
      "type": "function"
    },
    {
      "inputs": [
        {
          "internalType": "uint256",
          "name": "_amount",
          "type": "uint256"
        }
      ],
      "name": "rescueUSDC",
      "outputs": [],
      "stateMutability": "nonpayable",
      "type": "function"
    },
    {
      "inputs": [
        {
          "internalType": "uint256",
          "name": "_amount",
          "type": "uint256"
        }
      ],
      "name": "rescueUSDT",
      "outputs": [],
      "stateMutability": "nonpayable",
      "type": "function"
    },
    {
      "inputs": [
        {
          "internalType": "uint256",
          "name": "_amount",
          "type": "uint256"
        }
      ],
      "name": "rescueWBTC",
      "outputs": [],
      "stateMutability": "nonpayable",
      "type": "function"
    },
    {
      "inputs": [
        {
          "internalType": "uint256",
          "name": "_amount",
          "type": "uint256"
        }
      ],
      "name": "rescueWETH",
      "outputs": [],
      "stateMutability": "nonpayable",
      "type": "function"
    },
    {
      "inputs": [],
      "name": "rescueWalletAccount",
      "outputs": [
        {
          "internalType": "address",
          "name": "",
          "type": "address"
        }
      ],
      "stateMutability": "view",
      "type": "function"
    },
    {
      "inputs": [
        {
          "internalType": "address",
          "name": "_rescueWalletAccount",
          "type": "address"
        }
      ],
      "name": "setRescueWalletAccount",
      "outputs": [],
      "stateMutability": "nonpayable",
      "type": "function"
    },
    {
      "inputs": [
        {
          "internalType": "address",
          "name": "_usdcTokenAddress",
          "type": "address"
        }
      ],
      "name": "setUSDCTokenAddress",
      "outputs": [],
      "stateMutability": "nonpayable",
      "type": "function"
    },
    {
      "inputs": [
        {
          "internalType": "address",
          "name": "_usdtTokenAddress",
          "type": "address"
        }
      ],
      "name": "setUSDTTokenAddress",
      "outputs": [],
      "stateMutability": "nonpayable",
      "type": "function"
    },
    {
      "inputs": [
        {
          "internalType": "address",
          "name": "_wbtcTokenAddress",
          "type": "address"
        }
      ],
      "name": "setWBTCTokenAddress",
      "outputs": [],
      "stateMutability": "nonpayable",
      "type": "function"
    },
    {
      "inputs": [
        {
          "internalType": "address",
          "name": "_wethTokenAddress",
          "type": "address"
        }
      ],
      "name": "setWETHTokenAddress",
      "outputs": [],
      "stateMutability": "nonpayable",
      "type": "function"
    },
    {
      "inputs": [
        {
          "internalType": "address",
          "name": "",
          "type": "address"
        }
      ],
      "name": "supportedTokens",
      "outputs": [
        {
          "internalType": "bool",
          "name": "",
          "type": "bool"
        }
      ],
      "stateMutability": "view",
      "type": "function"
    },
    {
      "inputs": [
        {
          "components": [
            {
              "components": [
                {
                  "internalType": "bytes",
                  "name": "path",
                  "type": "bytes"
                },
                {
                  "internalType": "address",
                  "name": "recipient",
                  "type": "address"
                },
                {
                  "internalType": "uint256",
                  "name": "deadline",
                  "type": "uint256"
                },
                {
                  "internalType": "uint256",
                  "name": "amountIn",
                  "type": "uint256"
                },
                {
                  "internalType": "uint256",
                  "name": "amountOutMinimum",
                  "type": "uint256"
                }
              ],
              "internalType": "struct ISwapRouter.ExactInputParams",
              "name": "params",
              "type": "tuple"
            },
            {
              "internalType": "address",
              "name": "tokenIn",
              "type": "address"
            },
            {
              "internalType": "address",
              "name": "tokenOut",
              "type": "address"
            }
          ],
          "internalType": "struct ColateralContract_v1_0_0.SwapParams[]",
          "name": "swapsParams",
          "type": "tuple[]"
        }
      ],
      "name": "swapExactInputs",
      "outputs": [],
      "stateMutability": "nonpayable",
      "type": "function"
    },
    {
      "inputs": [],
      "name": "swapRouter",
      "outputs": [
        {
          "internalType": "contract ISwapRouter",
          "name": "",
          "type": "address"
        }
      ],
      "stateMutability": "view",
      "type": "function"
    },
    {
      "inputs": [
        {
          "internalType": "address",
          "name": "newOwner",
          "type": "address"
        }
      ],
      "name": "transferOwnership",
      "outputs": [],
      "stateMutability": "nonpayable",
      "type": "function"
    },
    {
      "inputs": [],
      "name": "usdcTokenAddress",
      "outputs": [
        {
          "internalType": "address",
          "name": "",
          "type": "address"
        }
      ],
      "stateMutability": "view",
      "type": "function"
    },
    {
      "inputs": [],
      "name": "usdtTokenAddress",
      "outputs": [
        {
          "internalType": "address",
          "name": "",
          "type": "address"
        }
      ],
      "stateMutability": "view",
      "type": "function"
    },
    {
      "inputs": [],
      "name": "wbtcTokenAddress",
      "outputs": [
        {
          "internalType": "address",
          "name": "",
          "type": "address"
        }
      ],
      "stateMutability": "view",
      "type": "function"
    },
    {
      "inputs": [],
      "name": "wethTokenAddress",
      "outputs": [
        {
          "internalType": "address",
          "name": "",
          "type": "address"
        }
      ],
      "stateMutability": "view",
      "type": "function"
    },
    {
      "inputs": [
        {
          "internalType": "uint256",
          "name": "_amount",
          "type": "uint256"
        }
      ],
      "name": "withdraw",
      "outputs": [],
      "stateMutability": "payable",
      "type": "function"
    },
    {
      "inputs": [],
      "name": "withdrawBalance",
      "outputs": [],
      "stateMutability": "payable",
      "type": "function"
    },
    {
      "inputs": [
        {
          "internalType": "uint256",
          "name": "_amount",
          "type": "uint256"
        }
      ],
      "name": "withdrawUSDC",
      "outputs": [],
      "stateMutability": "nonpayable",
      "type": "function"
    },
    {
      "inputs": [
        {
          "internalType": "uint256",
          "name": "_amount",
          "type": "uint256"
        }
      ],
      "name": "withdrawUSDT",
      "outputs": [],
      "stateMutability": "nonpayable",
      "type": "function"
    },
    {
      "inputs": [
        {
          "internalType": "uint256",
          "name": "_amount",
          "type": "uint256"
        }
      ],
      "name": "withdrawWBTC",
      "outputs": [],
      "stateMutability": "nonpayable",
      "type": "function"
    },
    {
      "inputs": [
        {
          "internalType": "uint256",
          "name": "_amount",
          "type": "uint256"
        }
      ],
      "name": "withdrawWETH",
      "outputs": [],
      "stateMutability": "nonpayable",
      "type": "function"
    }
  ],
  "bytecode": "0x60a06040523480156200001157600080fd5b506040516200414c3803806200414c8339818101604052810190620000379190620003e0565b620000576200004b620002fd60201b60201c565b6200030560201b60201c565b84600260006101000a81548173ffffffffffffffffffffffffffffffffffffffff021916908373ffffffffffffffffffffffffffffffffffffffff16021790555083600160006101000a81548173ffffffffffffffffffffffffffffffffffffffff021916908373ffffffffffffffffffffffffffffffffffffffff16021790555082600360006101000a81548173ffffffffffffffffffffffffffffffffffffffff021916908373ffffffffffffffffffffffffffffffffffffffff16021790555081600460006101000a81548173ffffffffffffffffffffffffffffffffffffffff021916908373ffffffffffffffffffffffffffffffffffffffff1602179055508073ffffffffffffffffffffffffffffffffffffffff1660808173ffffffffffffffffffffffffffffffffffffffff1660601b815250506001600660008773ffffffffffffffffffffffffffffffffffffffff1673ffffffffffffffffffffffffffffffffffffffff16815260200190815260200160002060006101000a81548160ff0219169083151502179055506001600660008673ffffffffffffffffffffffffffffffffffffffff1673ffffffffffffffffffffffffffffffffffffffff16815260200190815260200160002060006101000a81548160ff0219169083151502179055506001600660008573ffffffffffffffffffffffffffffffffffffffff1673ffffffffffffffffffffffffffffffffffffffff16815260200190815260200160002060006101000a81548160ff0219169083151502179055506001600660008473ffffffffffffffffffffffffffffffffffffffff1673ffffffffffffffffffffffffffffffffffffffff16815260200190815260200160002060006101000a81548160ff0219169083151502179055505050505050620004b0565b600033905090565b60008060009054906101000a900473ffffffffffffffffffffffffffffffffffffffff169050816000806101000a81548173ffffffffffffffffffffffffffffffffffffffff021916908373ffffffffffffffffffffffffffffffffffffffff1602179055508173ffffffffffffffffffffffffffffffffffffffff168173ffffffffffffffffffffffffffffffffffffffff167f8be0079c531659141344cd1fd0a4f28419497f9722a3daafe3b4186f6b6457e060405160405180910390a35050565b600081519050620003da8162000496565b92915050565b600080600080600060a08688031215620003f957600080fd5b60006200040988828901620003c9565b95505060206200041c88828901620003c9565b94505060406200042f88828901620003c9565b93505060606200044288828901620003c9565b92505060806200045588828901620003c9565b9150509295509295909350565b60006200046f8262000476565b9050919050565b600073ffffffffffffffffffffffffffffffffffffffff82169050919050565b620004a18162000462565b8114620004ad57600080fd5b50565b60805160601c613c61620004eb600039600081816114770152818161155a015281816116a00152818161181801526126010152613c616000f3fe6080604052600436106101f85760003560e01c8063715018a61161010d5780639d741e5d116100a0578063ce66c71e1161006f578063ce66c71e14610662578063db81f99b1461068d578063e59fba30146106b6578063f2fde38b146106e1578063fc4dd3331461070a576101f8565b80639d741e5d146105b8578063a7deac39146105e3578063c31c9c071461060e578063c853c4bc14610639576101f8565b80638ee75bb6116100dc5780638ee75bb614610533578063933ca16f1461053d5780639807185c14610566578063982fdf471461058f576101f8565b8063715018a61461049b57806375d0c0dc146104b257806377b53ece146104dd5780638da5cb5b14610508576101f8565b80632e1a7d4d1161019057806352173ba81161015f57806352173ba8146103e65780635fd8c7101461040f578063653a908d1461041957806368c4ac26146104425780636ac053ad1461047f576101f8565b80632e1a7d4d1461034d5780632ffe9942146103695780633ea521ef146103925780634c526bdb146103bb576101f8565b80631aab3474116101cc5780631aab3474146102a557806320ce0c8c146102d057806324815018146102f95780632a525f3214610324576101f8565b8062113e08146101fd5780630f9dad711461022857806314c258db1461025357806319689e971461027c575b600080fd5b34801561020957600080fd5b50610212610733565b60405161021f9190613347565b60405180910390f35b34801561023457600080fd5b5061023d6107a7565b60405161024a9190613265565b60405180910390f35b34801561025f57600080fd5b5061027a60048036038101906102759190612e7c565b6107cd565b005b34801561028857600080fd5b506102a3600480360381019061029e9190612de5565b6109b6565b005b3480156102b157600080fd5b506102ba610a76565b6040516102c7919061353c565b60405180910390f35b3480156102dc57600080fd5b506102f760048036038101906102f29190612e7c565b610b2d565b005b34801561030557600080fd5b5061030e610c69565b60405161031b919061353c565b60405180910390f35b34801561033057600080fd5b5061034b60048036038101906103469190612e7c565b610d20565b005b61036760048036038101906103629190612e7c565b610f09565b005b34801561037557600080fd5b50610390600480360381019061038b9190612e0e565b611006565b005b34801561039e57600080fd5b506103b960048036038101906103b49190612e7c565b611903565b005b3480156103c757600080fd5b506103d0611a3f565b6040516103dd9190613265565b60405180910390f35b3480156103f257600080fd5b5061040d60048036038101906104089190612de5565b611a65565b005b610417611b25565b005b34801561042557600080fd5b50610440600480360381019061043b9190612de5565b611c21565b005b34801561044e57600080fd5b5061046960048036038101906104649190612de5565b611ce1565b6040516104769190613362565b60405180910390f35b61049960048036038101906104949190612e7c565b611d01565b005b3480156104a757600080fd5b506104b0611eab565b005b3480156104be57600080fd5b506104c7611f33565b6040516104d49190613398565b60405180910390f35b3480156104e957600080fd5b506104f2611fc1565b6040516104ff9190613265565b60405180910390f35b34801561051457600080fd5b5061051d611fe7565b60405161052a9190613265565b60405180910390f35b61053b612010565b005b34801561054957600080fd5b50610564600480360381019061055f9190612de5565b6121b9565b005b34801561057257600080fd5b5061058d60048036038101906105889190612e7c565b612279565b005b34801561059b57600080fd5b506105b660048036038101906105b19190612de5565b612462565b005b3480156105c457600080fd5b506105cd612522565b6040516105da9190613265565b60405180910390f35b3480156105ef57600080fd5b506105f8612548565b604051610605919061353c565b60405180910390f35b34801561061a57600080fd5b506106236125ff565b604051610630919061337d565b60405180910390f35b34801561064557600080fd5b50610660600480360381019061065b9190612e7c565b612623565b005b34801561066e57600080fd5b5061067761280c565b604051610684919061353c565b60405180910390f35b34801561069957600080fd5b506106b460048036038101906106af9190612e7c565b6128c3565b005b3480156106c257600080fd5b506106cb6129ff565b6040516106d89190613265565b60405180910390f35b3480156106ed57600080fd5b5061070860048036038101906107039190612de5565b612a25565b005b34801561071657600080fd5b50610731600480360381019061072c9190612e7c565b612b1d565b005b61073b612d25565b6000479050600061074a612548565b90506000610756610a76565b9050600061076261280c565b9050600061076e610c69565b905060006040518060a0016040528087815260200186815260200185815260200184815260200183815250905080965050505050505090565b600460009054906101000a900473ffffffffffffffffffffffffffffffffffffffff1681565b6107d5612c59565b73ffffffffffffffffffffffffffffffffffffffff166107f3611fe7565b73ffffffffffffffffffffffffffffffffffffffff1614610849576040517f08c379a0000000000000000000000000000000000000000000000000000000008152600401610840906134ba565b60405180910390fd5b600073ffffffffffffffffffffffffffffffffffffffff16600560009054906101000a900473ffffffffffffffffffffffffffffffffffffffff1673ffffffffffffffffffffffffffffffffffffffff1614156108db576040517f08c379a00000000000000000000000000000000000000000000000000000000081526004016108d29061347a565b60405180910390fd5b6000600260009054906101000a900473ffffffffffffffffffffffffffffffffffffffff1690508073ffffffffffffffffffffffffffffffffffffffff1663a9059cbb600560009054906101000a900473ffffffffffffffffffffffffffffffffffffffff16846040518363ffffffff1660e01b815260040161095f92919061331e565b602060405180830381600087803b15801561097957600080fd5b505af115801561098d573d6000803e3d6000fd5b505050506040513d601f19601f820116820180604052508101906109b19190612e53565b505050565b6109be612c59565b73ffffffffffffffffffffffffffffffffffffffff166109dc611fe7565b73ffffffffffffffffffffffffffffffffffffffff1614610a32576040517f08c379a0000000000000000000000000000000000000000000000000000000008152600401610a29906134ba565b60405180910390fd5b80600360006101000a81548173ffffffffffffffffffffffffffffffffffffffff021916908373ffffffffffffffffffffffffffffffffffffffff16021790555050565b600080600160009054906101000a900473ffffffffffffffffffffffffffffffffffffffff1690508073ffffffffffffffffffffffffffffffffffffffff166370a08231306040518263ffffffff1660e01b8152600401610ad79190613265565b60206040518083038186803b158015610aef57600080fd5b505afa158015610b03573d6000803e3d6000fd5b505050506040513d601f19601f82011682018060405250810190610b279190612ea5565b91505090565b610b35612c59565b73ffffffffffffffffffffffffffffffffffffffff16610b53611fe7565b73ffffffffffffffffffffffffffffffffffffffff1614610ba9576040517f08c379a0000000000000000000000000000000000000000000000000000000008152600401610ba0906134ba565b60405180910390fd5b6000600360009054906101000a900473ffffffffffffffffffffffffffffffffffffffff1690508073ffffffffffffffffffffffffffffffffffffffff1663a9059cbb610bf4611fe7565b846040518363ffffffff1660e01b8152600401610c1292919061331e565b602060405180830381600087803b158015610c2c57600080fd5b505af1158015610c40573d6000803e3d6000fd5b505050506040513d601f19601f82011682018060405250810190610c649190612e53565b505050565b600080600460009054906101000a900473ffffffffffffffffffffffffffffffffffffffff1690508073ffffffffffffffffffffffffffffffffffffffff166370a08231306040518263ffffffff1660e01b8152600401610cca9190613265565b60206040518083038186803b158015610ce257600080fd5b505afa158015610cf6573d6000803e3d6000fd5b505050506040513d601f19601f82011682018060405250810190610d1a9190612ea5565b91505090565b610d28612c59565b73ffffffffffffffffffffffffffffffffffffffff16610d46611fe7565b73ffffffffffffffffffffffffffffffffffffffff1614610d9c576040517f08c379a0000000000000000000000000000000000000000000000000000000008152600401610d93906134ba565b60405180910390fd5b600073ffffffffffffffffffffffffffffffffffffffff16600560009054906101000a900473ffffffffffffffffffffffffffffffffffffffff1673ffffffffffffffffffffffffffffffffffffffff161415610e2e576040517f08c379a0000000000000000000000000000000000000000000000000000000008152600401610e259061347a565b60405180910390fd5b6000600360009054906101000a900473ffffffffffffffffffffffffffffffffffffffff1690508073ffffffffffffffffffffffffffffffffffffffff1663a9059cbb600560009054906101000a900473ffffffffffffffffffffffffffffffffffffffff16846040518363ffffffff1660e01b8152600401610eb292919061331e565b602060405180830381600087803b158015610ecc57600080fd5b505af1158015610ee0573d6000803e3d6000fd5b505050506040513d601f19601f82011682018060405250810190610f049190612e53565b505050565b610f11612c59565b73ffffffffffffffffffffffffffffffffffffffff16610f2f611fe7565b73ffffffffffffffffffffffffffffffffffffffff1614610f85576040517f08c379a0000000000000000000000000000000000000000000000000000000008152600401610f7c906134ba565b60405180910390fd5b6000610f8f611fe7565b73ffffffffffffffffffffffffffffffffffffffff1682604051610fb290613250565b60006040518083038185875af1925050503d8060008114610fef576040519150601f19603f3d011682016040523d82523d6000602084013e610ff4565b606091505b505090508061100257600080fd5b5050565b61100e612c59565b73ffffffffffffffffffffffffffffffffffffffff1661102c611fe7565b73ffffffffffffffffffffffffffffffffffffffff1614611082576040517f08c379a0000000000000000000000000000000000000000000000000000000008152600401611079906134ba565b60405180910390fd5b600082829050116110c8576040517f08c379a00000000000000000000000000000000000000000000000000000000081526004016110bf9061343a565b60405180910390fd5b60005b828290508110156118fe5736838383818110611110577f4e487b7100000000000000000000000000000000000000000000000000000000600052603260045260246000fd5b9050602002810190611122919061357b565b90506006600082602001602081019061113b9190612de5565b73ffffffffffffffffffffffffffffffffffffffff1673ffffffffffffffffffffffffffffffffffffffff16815260200190815260200160002060009054906101000a900460ff166111c2576040517f08c379a00000000000000000000000000000000000000000000000000000000081526004016111b9906133fa565b60405180910390fd5b600660008260400160208101906111d99190612de5565b73ffffffffffffffffffffffffffffffffffffffff1673ffffffffffffffffffffffffffffffffffffffff16815260200190815260200160002060009054906101000a900460ff16611260576040517f08c379a00000000000000000000000000000000000000000000000000000000081526004016112579061345a565b60405180910390fd5b3073ffffffffffffffffffffffffffffffffffffffff168180600001906112879190613557565b60200160208101906112999190612de5565b73ffffffffffffffffffffffffffffffffffffffff16146112ef576040517f08c379a00000000000000000000000000000000000000000000000000000000081526004016112e6906134da565b60405180910390fd5b60008180600001906113019190613557565b6080013511611345576040517f08c379a000000000000000000000000000000000000000000000000000000000815260040161133c906134fa565b60405180910390fd5b600081602001602081019061135a9190612de5565b9050600082806000019061136e9190613557565b6060013511801561141a57508073ffffffffffffffffffffffffffffffffffffffff166370a08231306040518263ffffffff1660e01b81526004016113b39190613265565b60206040518083038186803b1580156113cb57600080fd5b505afa1580156113df573d6000803e3d6000fd5b505050506040513d601f19601f820116820180604052508101906114039190612ea5565b8280600001906114139190613557565b6060013511155b611459576040517f08c379a0000000000000000000000000000000000000000000000000000000008152600401611450906133da565b60405180910390fd5b8073ffffffffffffffffffffffffffffffffffffffff1663095ea7b37f00000000000000000000000000000000000000000000000000000000000000008480600001906114a69190613557565b606001356040518363ffffffff1660e01b81526004016114c792919061331e565b602060405180830381600087803b1580156114e157600080fd5b505af11580156114f5573d6000803e3d6000fd5b505050506040513d601f19601f820116820180604052508101906115199190612e53565b611558576040517f08c379a000000000000000000000000000000000000000000000000000000000815260040161154f9061349a565b60405180910390fd5b7f000000000000000000000000000000000000000000000000000000000000000073ffffffffffffffffffffffffffffffffffffffff1663c04b8d598380600001906115a49190613557565b6040518263ffffffff1660e01b81526004016115c0919061351a565b602060405180830381600087803b1580156115da57600080fd5b505af192505050801561160b57506040513d601f19601f820116820180604052508101906116089190612ea5565b60015b6117865761161761388c565b806308c379a01415611775575061162c613b50565b806116375750611777565b7f48dbf1f65dc9fb918dcf47a87d0d7dbfe9cd78bcfaea409049ee36785201cb9183602001602081019061166b9190612de5565b8260405161167a9291906132ee565b60405180910390a18173ffffffffffffffffffffffffffffffffffffffff1663095ea7b37f000000000000000000000000000000000000000000000000000000000000000060006040518363ffffffff1660e01b81526004016116de9291906132c5565b602060405180830381600087803b1580156116f857600080fd5b505af115801561170c573d6000803e3d6000fd5b505050506040513d601f19601f820116820180604052508101906117309190612e53565b61176f576040517f08c379a00000000000000000000000000000000000000000000000000000000081526004016117669061341a565b60405180910390fd5b50611781565b505b3d6000803e3d6000fd5b6118e9565b7ffa2dda1cc1b86e41239702756b13effbc1a092b5c57e3ad320fbe4f3b13fe2358360200160208101906117ba9190612de5565b8460400160208101906117cd9190612de5565b8580600001906117dd9190613557565b60600135846040516117f29493929190613280565b60405180910390a18173ffffffffffffffffffffffffffffffffffffffff1663095ea7b37f000000000000000000000000000000000000000000000000000000000000000060006040518363ffffffff1660e01b81526004016118569291906132c5565b602060405180830381600087803b15801561187057600080fd5b505af1158015611884573d6000803e3d6000fd5b505050506040513d601f19601f820116820180604052508101906118a89190612e53565b6118e7576040517f08c379a00000000000000000000000000000000000000000000000000000000081526004016118de9061341a565b60405180910390fd5b505b505080806118f6906137b6565b9150506110cb565b505050565b61190b612c59565b73ffffffffffffffffffffffffffffffffffffffff16611929611fe7565b73ffffffffffffffffffffffffffffffffffffffff161461197f576040517f08c379a0000000000000000000000000000000000000000000000000000000008152600401611976906134ba565b60405180910390fd5b6000600160009054906101000a900473ffffffffffffffffffffffffffffffffffffffff1690508073ffffffffffffffffffffffffffffffffffffffff1663a9059cbb6119ca611fe7565b846040518363ffffffff1660e01b81526004016119e892919061331e565b602060405180830381600087803b158015611a0257600080fd5b505af1158015611a16573d6000803e3d6000fd5b505050506040513d601f19601f82011682018060405250810190611a3a9190612e53565b505050565b600360009054906101000a900473ffffffffffffffffffffffffffffffffffffffff1681565b611a6d612c59565b73ffffffffffffffffffffffffffffffffffffffff16611a8b611fe7565b73ffffffffffffffffffffffffffffffffffffffff1614611ae1576040517f08c379a0000000000000000000000000000000000000000000000000000000008152600401611ad8906134ba565b60405180910390fd5b80600160006101000a81548173ffffffffffffffffffffffffffffffffffffffff021916908373ffffffffffffffffffffffffffffffffffffffff16021790555050565b611b2d612c59565b73ffffffffffffffffffffffffffffffffffffffff16611b4b611fe7565b73ffffffffffffffffffffffffffffffffffffffff1614611ba1576040517f08c379a0000000000000000000000000000000000000000000000000000000008152600401611b98906134ba565b60405180910390fd5b6000611bab611fe7565b73ffffffffffffffffffffffffffffffffffffffff1647604051611bce90613250565b60006040518083038185875af1925050503d8060008114611c0b576040519150601f19603f3d011682016040523d82523d6000602084013e611c10565b606091505b5050905080611c1e57600080fd5b50565b611c29612c59565b73ffffffffffffffffffffffffffffffffffffffff16611c47611fe7565b73ffffffffffffffffffffffffffffffffffffffff1614611c9d576040517f08c379a0000000000000000000000000000000000000000000000000000000008152600401611c94906134ba565b60405180910390fd5b80600260006101000a81548173ffffffffffffffffffffffffffffffffffffffff021916908373ffffffffffffffffffffffffffffffffffffffff16021790555050565b60066020528060005260406000206000915054906101000a900460ff1681565b611d09612c59565b73ffffffffffffffffffffffffffffffffffffffff16611d27611fe7565b73ffffffffffffffffffffffffffffffffffffffff1614611d7d576040517f08c379a0000000000000000000000000000000000000000000000000000000008152600401611d74906134ba565b60405180910390fd5b600073ffffffffffffffffffffffffffffffffffffffff16600560009054906101000a900473ffffffffffffffffffffffffffffffffffffffff1673ffffffffffffffffffffffffffffffffffffffff161415611e0f576040517f08c379a0000000000000000000000000000000000000000000000000000000008152600401611e069061347a565b60405180910390fd5b6000600560009054906101000a900473ffffffffffffffffffffffffffffffffffffffff1673ffffffffffffffffffffffffffffffffffffffff1682604051611e5790613250565b60006040518083038185875af1925050503d8060008114611e94576040519150601f19603f3d011682016040523d82523d6000602084013e611e99565b606091505b5050905080611ea757600080fd5b5050565b611eb3612c59565b73ffffffffffffffffffffffffffffffffffffffff16611ed1611fe7565b73ffffffffffffffffffffffffffffffffffffffff1614611f27576040517f08c379a0000000000000000000000000000000000000000000000000000000008152600401611f1e906134ba565b60405180910390fd5b611f316000612c61565b565b60078054611f4090613753565b80601f0160208091040260200160405190810160405280929190818152602001828054611f6c90613753565b8015611fb95780601f10611f8e57610100808354040283529160200191611fb9565b820191906000526020600020905b815481529060010190602001808311611f9c57829003601f168201915b505050505081565b600260009054906101000a900473ffffffffffffffffffffffffffffffffffffffff1681565b60008060009054906101000a900473ffffffffffffffffffffffffffffffffffffffff16905090565b612018612c59565b73ffffffffffffffffffffffffffffffffffffffff16612036611fe7565b73ffffffffffffffffffffffffffffffffffffffff161461208c576040517f08c379a0000000000000000000000000000000000000000000000000000000008152600401612083906134ba565b60405180910390fd5b600073ffffffffffffffffffffffffffffffffffffffff16600560009054906101000a900473ffffffffffffffffffffffffffffffffffffffff1673ffffffffffffffffffffffffffffffffffffffff16141561211e576040517f08c379a00000000000000000000000000000000000000000000000000000000081526004016121159061347a565b60405180910390fd5b6000600560009054906101000a900473ffffffffffffffffffffffffffffffffffffffff1673ffffffffffffffffffffffffffffffffffffffff164760405161216690613250565b60006040518083038185875af1925050503d80600081146121a3576040519150601f19603f3d011682016040523d82523d6000602084013e6121a8565b606091505b50509050806121b657600080fd5b50565b6121c1612c59565b73ffffffffffffffffffffffffffffffffffffffff166121df611fe7565b73ffffffffffffffffffffffffffffffffffffffff1614612235576040517f08c379a000000000000000000000000000000000000000000000000000000000815260040161222c906134ba565b60405180910390fd5b80600460006101000a81548173ffffffffffffffffffffffffffffffffffffffff021916908373ffffffffffffffffffffffffffffffffffffffff16021790555050565b612281612c59565b73ffffffffffffffffffffffffffffffffffffffff1661229f611fe7565b73ffffffffffffffffffffffffffffffffffffffff16146122f5576040517f08c379a00000000000000000000000000000000000000000000000000000000081526004016122ec906134ba565b60405180910390fd5b600073ffffffffffffffffffffffffffffffffffffffff16600560009054906101000a900473ffffffffffffffffffffffffffffffffffffffff1673ffffffffffffffffffffffffffffffffffffffff161415612387576040517f08c379a000000000000000000000000000000000000000000000000000000000815260040161237e9061347a565b60405180910390fd5b6000600160009054906101000a900473ffffffffffffffffffffffffffffffffffffffff1690508073ffffffffffffffffffffffffffffffffffffffff1663a9059cbb600560009054906101000a900473ffffffffffffffffffffffffffffffffffffffff16846040518363ffffffff1660e01b815260040161240b92919061331e565b602060405180830381600087803b15801561242557600080fd5b505af1158015612439573d6000803e3d6000fd5b505050506040513d601f19601f8201168201806040525081019061245d9190612e53565b505050565b61246a612c59565b73ffffffffffffffffffffffffffffffffffffffff16612488611fe7565b73ffffffffffffffffffffffffffffffffffffffff16146124de576040517f08c379a00000000000000000000000000000000000000000000000000000000081526004016124d5906134ba565b60405180910390fd5b80600560006101000a81548173ffffffffffffffffffffffffffffffffffffffff021916908373ffffffffffffffffffffffffffffffffffffffff16021790555050565b600160009054906101000a900473ffffffffffffffffffffffffffffffffffffffff1681565b600080600260009054906101000a900473ffffffffffffffffffffffffffffffffffffffff1690508073ffffffffffffffffffffffffffffffffffffffff166370a08231306040518263ffffffff1660e01b81526004016125a99190613265565b60206040518083038186803b1580156125c157600080fd5b505afa1580156125d5573d6000803e3d6000fd5b505050506040513d601f19601f820116820180604052508101906125f99190612ea5565b91505090565b7f000000000000000000000000000000000000000000000000000000000000000081565b61262b612c59565b73ffffffffffffffffffffffffffffffffffffffff16612649611fe7565b73ffffffffffffffffffffffffffffffffffffffff161461269f576040517f08c379a0000000000000000000000000000000000000000000000000000000008152600401612696906134ba565b60405180910390fd5b600073ffffffffffffffffffffffffffffffffffffffff16600560009054906101000a900473ffffffffffffffffffffffffffffffffffffffff1673ffffffffffffffffffffffffffffffffffffffff161415612731576040517f08c379a00000000000000000000000000000000000000000000000000000000081526004016127289061347a565b60405180910390fd5b6000600460009054906101000a900473ffffffffffffffffffffffffffffffffffffffff1690508073ffffffffffffffffffffffffffffffffffffffff1663a9059cbb600560009054906101000a900473ffffffffffffffffffffffffffffffffffffffff16846040518363ffffffff1660e01b81526004016127b592919061331e565b602060405180830381600087803b1580156127cf57600080fd5b505af11580156127e3573d6000803e3d6000fd5b505050506040513d601f19601f820116820180604052508101906128079190612e53565b505050565b600080600360009054906101000a900473ffffffffffffffffffffffffffffffffffffffff1690508073ffffffffffffffffffffffffffffffffffffffff166370a08231306040518263ffffffff1660e01b815260040161286d9190613265565b60206040518083038186803b15801561288557600080fd5b505afa158015612899573d6000803e3d6000fd5b505050506040513d601f19601f820116820180604052508101906128bd9190612ea5565b91505090565b6128cb612c59565b73ffffffffffffffffffffffffffffffffffffffff166128e9611fe7565b73ffffffffffffffffffffffffffffffffffffffff161461293f576040517f08c379a0000000000000000000000000000000000000000000000000000000008152600401612936906134ba565b60405180910390fd5b6000600260009054906101000a900473ffffffffffffffffffffffffffffffffffffffff1690508073ffffffffffffffffffffffffffffffffffffffff1663a9059cbb61298a611fe7565b846040518363ffffffff1660e01b81526004016129a892919061331e565b602060405180830381600087803b1580156129c257600080fd5b505af11580156129d6573d6000803e3d6000fd5b505050506040513d601f19601f820116820180604052508101906129fa9190612e53565b505050565b600560009054906101000a900473ffffffffffffffffffffffffffffffffffffffff1681565b612a2d612c59565b73ffffffffffffffffffffffffffffffffffffffff16612a4b611fe7565b73ffffffffffffffffffffffffffffffffffffffff1614612aa1576040517f08c379a0000000000000000000000000000000000000000000000000000000008152600401612a98906134ba565b60405180910390fd5b600073ffffffffffffffffffffffffffffffffffffffff168173ffffffffffffffffffffffffffffffffffffffff161415612b11576040517f08c379a0000000000000000000000000000000000000000000000000000000008152600401612b08906133ba565b60405180910390fd5b612b1a81612c61565b50565b612b25612c59565b73ffffffffffffffffffffffffffffffffffffffff16612b43611fe7565b73ffffffffffffffffffffffffffffffffffffffff1614612b99576040517f08c379a0000000000000000000000000000000000000000000000000000000008152600401612b90906134ba565b60405180910390fd5b6000600460009054906101000a900473ffffffffffffffffffffffffffffffffffffffff1690508073ffffffffffffffffffffffffffffffffffffffff1663a9059cbb612be4611fe7565b846040518363ffffffff1660e01b8152600401612c0292919061331e565b602060405180830381600087803b158015612c1c57600080fd5b505af1158015612c30573d6000803e3d6000fd5b505050506040513d601f19601f82011682018060405250810190612c549190612e53565b505050565b600033905090565b60008060009054906101000a900473ffffffffffffffffffffffffffffffffffffffff169050816000806101000a81548173ffffffffffffffffffffffffffffffffffffffff021916908373ffffffffffffffffffffffffffffffffffffffff1602179055508173ffffffffffffffffffffffffffffffffffffffff168173ffffffffffffffffffffffffffffffffffffffff167f8be0079c531659141344cd1fd0a4f28419497f9722a3daafe3b4186f6b6457e060405160405180910390a35050565b6040518060a00160405280600590602082028036833780820191505090505090565b600081359050612d5681613be6565b92915050565b60008083601f840112612d6e57600080fd5b8235905067ffffffffffffffff811115612d8757600080fd5b602083019150836020820283011115612d9f57600080fd5b9250929050565b600081519050612db581613bfd565b92915050565b600081359050612dca81613c14565b92915050565b600081519050612ddf81613c14565b92915050565b600060208284031215612df757600080fd5b6000612e0584828501612d47565b91505092915050565b60008060208385031215612e2157600080fd5b600083013567ffffffffffffffff811115612e3b57600080fd5b612e4785828601612d5c565b92509250509250929050565b600060208284031215612e6557600080fd5b6000612e7384828501612da6565b91505092915050565b600060208284031215612e8e57600080fd5b6000612e9c84828501612dbb565b91505092915050565b600060208284031215612eb757600080fd5b6000612ec584828501612dd0565b91505092915050565b6000612eda8383613232565b60208301905092915050565b612eef81613693565b82525050565b612efe81613693565b82525050565b612f0d816135b3565b612f1781846135d6565b9250612f22826135a9565b8060005b83811015612f53578151612f3a8782612ece565b9650612f45836135c9565b925050600181019050612f26565b505050505050565b612f64816136a5565b82525050565b6000612f7683856135e1565b9350612f83838584613711565b612f8c836138ae565b840190509392505050565b612fa0816136db565b82525050565b612faf816136ff565b82525050565b6000612fc0826135be565b612fca81856135fd565b9350612fda818560208601613720565b612fe3816138ae565b840191505092915050565b6000612ffb6026836135fd565b9150613006826138cc565b604082019050919050565b600061301e602d836135fd565b91506130298261391b565b604082019050919050565b60006130416015836135fd565b915061304c8261396a565b602082019050919050565b60006130646016836135fd565b915061306f82613993565b602082019050919050565b60006130876011836135fd565b9150613092826139bc565b602082019050919050565b60006130aa6016836135fd565b91506130b5826139e5565b602082019050919050565b60006130cd6021836135fd565b91506130d882613a0e565b604082019050919050565b60006130f0600f836135fd565b91506130fb82613a5d565b602082019050919050565b60006131136020836135fd565b915061311e82613a86565b602082019050919050565b60006131366027836135fd565b915061314182613aaf565b604082019050919050565b60006131596023836135fd565b915061316482613afe565b604082019050919050565b600061317c6000836135f2565b915061318782613b4d565b600082019050919050565b600060a083016131a56000840184613625565b85830360008701526131b8838284612f6a565b925050506131c9602084018461360e565b6131d66020860182612ee6565b506131e4604084018461367c565b6131f16040860182613232565b506131ff606084018461367c565b61320c6060860182613232565b5061321a608084018461367c565b6132276080860182613232565b508091505092915050565b61323b816136d1565b82525050565b61324a816136d1565b82525050565b600061325b8261316f565b9150819050919050565b600060208201905061327a6000830184612ef5565b92915050565b60006080820190506132956000830187612ef5565b6132a26020830186612ef5565b6132af6040830185613241565b6132bc6060830184613241565b95945050505050565b60006040820190506132da6000830185612ef5565b6132e76020830184612fa6565b9392505050565b60006040820190506133036000830185612ef5565b81810360208301526133158184612fb5565b90509392505050565b60006040820190506133336000830185612ef5565b6133406020830184613241565b9392505050565b600060a08201905061335c6000830184612f04565b92915050565b60006020820190506133776000830184612f5b565b92915050565b60006020820190506133926000830184612f97565b92915050565b600060208201905081810360008301526133b28184612fb5565b905092915050565b600060208201905081810360008301526133d381612fee565b9050919050565b600060208201905081810360008301526133f381613011565b9050919050565b6000602082019050818103600083015261341381613034565b9050919050565b6000602082019050818103600083015261343381613057565b9050919050565b600060208201905081810360008301526134538161307a565b9050919050565b600060208201905081810360008301526134738161309d565b9050919050565b60006020820190508181036000830152613493816130c0565b9050919050565b600060208201905081810360008301526134b3816130e3565b9050919050565b600060208201905081810360008301526134d381613106565b9050919050565b600060208201905081810360008301526134f381613129565b9050919050565b600060208201905081810360008301526135138161314c565b9050919050565b600060208201905081810360008301526135348184613192565b905092915050565b60006020820190506135516000830184613241565b92915050565b60008235600160a00383360303811261356f57600080fd5b80830191505092915050565b60008235600160600383360303811261359357600080fd5b80830191505092915050565b6000604051905090565b6000819050919050565b600060059050919050565b600081519050919050565b6000602082019050919050565b600081905092915050565b600082825260208201905092915050565b600081905092915050565b600082825260208201905092915050565b600061361d6020840184612d47565b905092915050565b6000808335600160200384360303811261363e57600080fd5b83810192508235915060208301925067ffffffffffffffff82111561366257600080fd5b60018202360384131561367457600080fd5b509250929050565b600061368b6020840184612dbb565b905092915050565b600061369e826136b1565b9050919050565b60008115159050919050565b600073ffffffffffffffffffffffffffffffffffffffff82169050919050565b6000819050919050565b60006136e6826136ed565b9050919050565b60006136f8826136b1565b9050919050565b600061370a826136d1565b9050919050565b82818337600083830152505050565b60005b8381101561373e578082015181840152602081019050613723565b8381111561374d576000848401525b50505050565b6000600282049050600182168061376b57607f821691505b6020821081141561377f5761377e61382e565b5b50919050565b61378e826138ae565b810181811067ffffffffffffffff821117156137ad576137ac61385d565b5b80604052505050565b60006137c1826136d1565b91507fffffffffffffffffffffffffffffffffffffffffffffffffffffffffffffffff8214156137f4576137f36137ff565b5b600182019050919050565b7f4e487b7100000000000000000000000000000000000000000000000000000000600052601160045260246000fd5b7f4e487b7100000000000000000000000000000000000000000000000000000000600052602260045260246000fd5b7f4e487b7100000000000000000000000000000000000000000000000000000000600052604160045260246000fd5b600060033d11156138ab5760046000803e6138a86000516138bf565b90505b90565b6000601f19601f8301169050919050565b60008160e01c9050919050565b7f4f776e61626c653a206e6577206f776e657220697320746865207a65726f206160008201527f6464726573730000000000000000000000000000000000000000000000000000602082015250565b7f416d6f756e74732073686f756c6420626520706f73697469766520616e64207760008201527f697468696e2062616c616e636500000000000000000000000000000000000000602082015250565b7f546f6b656e496e206e6f7420737570706f727465640000000000000000000000600082015250565b7f5265766f6b6520417070726f76616c206661696c656400000000000000000000600082015250565b7f456d70747920696e707574206172726179000000000000000000000000000000600082015250565b7f546f6b656e4f7574206e6f7420737570706f7274656400000000000000000000600082015250565b7f5265736375652077616c6c657420697320746865207a65726f2061646472657360008201527f7300000000000000000000000000000000000000000000000000000000000000602082015250565b7f417070726f76616c206661696c65640000000000000000000000000000000000600082015250565b7f4f776e61626c653a2063616c6c6572206973206e6f7420746865206f776e6572600082015250565b7f5377617020726563697069656e74206973206e6f7420746865205661756c742060008201527f6164647265737300000000000000000000000000000000000000000000000000602082015250565b7f416d6f756e744f75744d696e696d756d2073686f756c6420626520706f73697460008201527f6976650000000000000000000000000000000000000000000000000000000000602082015250565b50565b600060443d1015613b6057613be3565b613b6861359f565b60043d036004823e80513d602482011167ffffffffffffffff82111715613b90575050613be3565b808201805167ffffffffffffffff811115613bae5750505050613be3565b80602083010160043d038501811115613bcb575050505050613be3565b613bda82602001850186613785565b82955050505050505b90565b613bef81613693565b8114613bfa57600080fd5b50565b613c06816136a5565b8114613c1157600080fd5b50565b613c1d816136d1565b8114613c2857600080fd5b5056fea2646970667358221220f55a63aaff294e65ff1ce23413ced38788997f9b116ef9cb950be47886efd92164736f6c63430008040033",
  "linkReferences": {},
  "deployedLinkReferences": {}
}