{
  "_format": "hh-sol-artifact-1",
  "contractName": "PriceConsumerV3Mock",
  "sourceName": "contracts/mocks/PriceConsumerV3Mock.sol",
  "abi": [
    {
      "inputs": [
        {
          "internalType": "string",
          "name": "token",
          "type": "string"
        }
      ],
      "name": "getLatestPrice",
      "outputs": [
        {
          "internalType": "uint256",
          "name": "",
          "type": "uint256"
        }
      ],
      "stateMutability": "pure",
      "type": "function"
    }
  ],
  "bytecode": "0x608060405234801561001057600080fd5b50610533806100206000396000f3fe608060405234801561001057600080fd5b506004361061002b5760003560e01c8063f66a1b7114610030575b600080fd5b61004a600480360381019061004591906102b9565b610060565b604051610057919061031b565b60405180910390f35b60006040516020016100719061038d565b60405160208183030381529060405280519060200120826040516020016100989190610408565b60405160208183030381529060405280519060200120036100c057642e90edd000905061015a565b6040516020016100cf9061046b565b60405160208183030381529060405280519060200120826040516020016100f69190610408565b604051602081830303815290604052805190602001200361011f576502ba7def3000905061015a565b6040517f08c379a0000000000000000000000000000000000000000000000000000000008152600401610151906104dd565b60405180910390fd5b919050565b6000604051905090565b600080fd5b600080fd5b600080fd5b600080fd5b6000601f19601f8301169050919050565b7f4e487b7100000000000000000000000000000000000000000000000000000000600052604160045260246000fd5b6101c68261017d565b810181811067ffffffffffffffff821117156101e5576101e461018e565b5b80604052505050565b60006101f861015f565b905061020482826101bd565b919050565b600067ffffffffffffffff8211156102245761022361018e565b5b61022d8261017d565b9050602081019050919050565b82818337600083830152505050565b600061025c61025784610209565b6101ee565b90508281526020810184848401111561027857610277610178565b5b61028384828561023a565b509392505050565b600082601f8301126102a05761029f610173565b5b81356102b0848260208601610249565b91505092915050565b6000602082840312156102cf576102ce610169565b5b600082013567ffffffffffffffff8111156102ed576102ec61016e565b5b6102f98482850161028b565b91505092915050565b6000819050919050565b61031581610302565b82525050565b6000602082019050610330600083018461030c565b92915050565b600081905092915050565b7f4554480000000000000000000000000000000000000000000000000000000000600082015250565b6000610377600383610336565b915061038282610341565b600382019050919050565b60006103988261036a565b9150819050919050565b600081519050919050565b60005b838110156103cb5780820151818401526020810190506103b0565b60008484015250505050565b60006103e2826103a2565b6103ec8185610336565b93506103fc8185602086016103ad565b80840191505092915050565b600061041482846103d7565b915081905092915050565b7f4254430000000000000000000000000000000000000000000000000000000000600082015250565b6000610455600383610336565b91506104608261041f565b600382019050919050565b600061047682610448565b9150819050919050565b600082825260208201905092915050565b7f4f7261636c65556e6b6e6f776e546f6b656e0000000000000000000000000000600082015250565b60006104c7601283610480565b91506104d282610491565b602082019050919050565b600060208201905081810360008301526104f6816104ba565b905091905056fea2646970667358221220f6d908527e805c1cd485f3eac1e1a00c499010b23111aba3cd50b5eab9521f5e64736f6c63430008120033",
  "linkReferences": {},
  "deployedLinkReferences": {}
}