{
  "_format": "hh-sol-artifact-1",
  "contractName": "PriceConsumerV3Mock",
  "sourceName": "contracts/mocks/PriceConsumerV3Mock.sol",
  "abi": [
    {
      "inputs": [
        {
          "internalType": "string",
          "name": "token",
          "type": "string"
        }
      ],
      "name": "getLatestPrice",
      "outputs": [
        {
          "internalType": "uint256",
          "name": "",
          "type": "uint256"
        }
      ],
      "stateMutability": "pure",
      "type": "function"
    }
  ],
  "bytecode": "0x608060405234801561001057600080fd5b50610537806100206000396000f3fe608060405234801561001057600080fd5b506004361061002b5760003560e01c8063f66a1b7114610030575b600080fd5b61004a600480360381019061004591906102bd565b610060565b604051610057919061031f565b60405180910390f35b600060405160200161007190610391565b6040516020818303038152906040528051906020012082604051602001610098919061040c565b60405160208183030381529060405280519060200120036100c057642e90edd000905061015e565b6040516020016100cf9061046f565b60405160208183030381529060405280519060200120826040516020016100f6919061040c565b60405160208183030381529060405280519060200120036101235769065a4da25d3016c00000905061015e565b6040517f08c379a0000000000000000000000000000000000000000000000000000000008152600401610155906104e1565b60405180910390fd5b919050565b6000604051905090565b600080fd5b600080fd5b600080fd5b600080fd5b6000601f19601f8301169050919050565b7f4e487b7100000000000000000000000000000000000000000000000000000000600052604160045260246000fd5b6101ca82610181565b810181811067ffffffffffffffff821117156101e9576101e8610192565b5b80604052505050565b60006101fc610163565b905061020882826101c1565b919050565b600067ffffffffffffffff82111561022857610227610192565b5b61023182610181565b9050602081019050919050565b82818337600083830152505050565b600061026061025b8461020d565b6101f2565b90508281526020810184848401111561027c5761027b61017c565b5b61028784828561023e565b509392505050565b600082601f8301126102a4576102a3610177565b5b81356102b484826020860161024d565b91505092915050565b6000602082840312156102d3576102d261016d565b5b600082013567ffffffffffffffff8111156102f1576102f0610172565b5b6102fd8482850161028f565b91505092915050565b6000819050919050565b61031981610306565b82525050565b60006020820190506103346000830184610310565b92915050565b600081905092915050565b7f4554480000000000000000000000000000000000000000000000000000000000600082015250565b600061037b60038361033a565b915061038682610345565b600382019050919050565b600061039c8261036e565b9150819050919050565b600081519050919050565b60005b838110156103cf5780820151818401526020810190506103b4565b60008484015250505050565b60006103e6826103a6565b6103f0818561033a565b93506104008185602086016103b1565b80840191505092915050565b600061041882846103db565b915081905092915050565b7f4254430000000000000000000000000000000000000000000000000000000000600082015250565b600061045960038361033a565b915061046482610423565b600382019050919050565b600061047a8261044c565b9150819050919050565b600082825260208201905092915050565b7f4f7261636c65556e6b6e6f776e546f6b656e0000000000000000000000000000600082015250565b60006104cb601283610484565b91506104d682610495565b602082019050919050565b600060208201905081810360008301526104fa816104be565b905091905056fea264697066735822122054c68ba6b9302bab9cb8cb78701916ab4053cc9f4690e08035299db82c8dad3664736f6c63430008120033",
  "linkReferences": {},
  "deployedLinkReferences": {}
}