{
  "_format": "hh-sol-artifact-1",
  "contractName": "TokenMock",
  "sourceName": "contracts/mocks/TokenMock.sol",
  "abi": [
    {
      "inputs": [],
      "stateMutability": "nonpayable",
      "type": "constructor"
    },
    {
      "anonymous": false,
      "inputs": [
        {
          "indexed": true,
          "internalType": "address",
          "name": "from",
          "type": "address"
        },
        {
          "indexed": true,
          "internalType": "address",
          "name": "to",
          "type": "address"
        },
        {
          "indexed": false,
          "internalType": "uint256",
          "name": "value",
          "type": "uint256"
        }
      ],
      "name": "Transfer",
      "type": "event"
    },
    {
      "inputs": [
        {
          "internalType": "address",
          "name": "addr",
          "type": "address"
        }
      ],
      "name": "balanceOf",
      "outputs": [
        {
          "internalType": "uint256",
          "name": "",
          "type": "uint256"
        }
      ],
      "stateMutability": "view",
      "type": "function"
    },
    {
      "inputs": [
        {
          "internalType": "uint256",
          "name": "amount",
          "type": "uint256"
        }
      ],
      "name": "burn",
      "outputs": [],
      "stateMutability": "nonpayable",
      "type": "function"
    },
    {
      "inputs": [
        {
          "internalType": "address",
          "name": "to",
          "type": "address"
        },
        {
          "internalType": "uint256",
          "name": "amount",
          "type": "uint256"
        }
      ],
      "name": "mint",
      "outputs": [],
      "stateMutability": "nonpayable",
      "type": "function"
    },
    {
      "inputs": [
        {
          "internalType": "address",
          "name": "to",
          "type": "address"
        },
        {
          "internalType": "uint256",
          "name": "amount",
          "type": "uint256"
        }
      ],
      "name": "transfer",
      "outputs": [
        {
          "internalType": "bool",
          "name": "",
          "type": "bool"
        }
      ],
      "stateMutability": "nonpayable",
      "type": "function"
    },
    {
      "inputs": [
        {
          "internalType": "uint256",
          "name": "",
          "type": "uint256"
        }
      ],
      "name": "transferCalls",
      "outputs": [
        {
          "internalType": "address",
          "name": "to",
          "type": "address"
        },
        {
          "internalType": "address",
          "name": "from",
          "type": "address"
        },
        {
          "internalType": "uint256",
          "name": "amount",
          "type": "uint256"
        }
      ],
      "stateMutability": "view",
      "type": "function"
    }
  ],
  "bytecode": "0x608060405234801561001057600080fd5b5060008060003373ffffffffffffffffffffffffffffffffffffffff1673ffffffffffffffffffffffffffffffffffffffff16815260200190815260200160002081905550610951806100646000396000f3fe608060405234801561001057600080fd5b50600436106100575760003560e01c806340c10f191461005c57806342966c681461007857806370a08231146100945780637e9703bd146100c4578063a9059cbb146100f6575b600080fd5b6100766004803603810190610071919061065b565b610126565b005b610092600480360381019061008d919061069b565b61017f565b005b6100ae60048036038101906100a991906106c8565b610258565b6040516100bb9190610704565b60405180910390f35b6100de60048036038101906100d9919061069b565b6102a0565b6040516100ed9392919061072e565b60405180910390f35b610110600480360381019061010b919061065b565b61031a565b60405161011d9190610780565b60405180910390f35b806000808473ffffffffffffffffffffffffffffffffffffffff1673ffffffffffffffffffffffffffffffffffffffff168152602001908152602001600020600082825461017491906107ca565b925050819055505050565b806000803373ffffffffffffffffffffffffffffffffffffffff1673ffffffffffffffffffffffffffffffffffffffff168152602001908152602001600020541015610200576040517f08c379a00000000000000000000000000000000000000000000000000000000081526004016101f79061085b565b60405180910390fd5b806000803373ffffffffffffffffffffffffffffffffffffffff1673ffffffffffffffffffffffffffffffffffffffff168152602001908152602001600020600082825461024e919061087b565b9250508190555050565b60008060008373ffffffffffffffffffffffffffffffffffffffff1673ffffffffffffffffffffffffffffffffffffffff168152602001908152602001600020549050919050565b600181815481106102b057600080fd5b90600052602060002090600302016000915090508060000160009054906101000a900473ffffffffffffffffffffffffffffffffffffffff16908060010160009054906101000a900473ffffffffffffffffffffffffffffffffffffffff16908060020154905083565b6000816000803373ffffffffffffffffffffffffffffffffffffffff1673ffffffffffffffffffffffffffffffffffffffff16815260200190815260200160002054101561039d576040517f08c379a0000000000000000000000000000000000000000000000000000000008152600401610394906108fb565b60405180910390fd5b816000803373ffffffffffffffffffffffffffffffffffffffff1673ffffffffffffffffffffffffffffffffffffffff16815260200190815260200160002060008282546103eb919061087b565b92505081905550816000808573ffffffffffffffffffffffffffffffffffffffff1673ffffffffffffffffffffffffffffffffffffffff168152602001908152602001600020600082825461044091906107ca565b92505081905550600160405180606001604052808573ffffffffffffffffffffffffffffffffffffffff1681526020013373ffffffffffffffffffffffffffffffffffffffff16815260200184815250908060018154018082558091505060019003906000526020600020906003020160009091909190915060008201518160000160006101000a81548173ffffffffffffffffffffffffffffffffffffffff021916908373ffffffffffffffffffffffffffffffffffffffff16021790555060208201518160010160006101000a81548173ffffffffffffffffffffffffffffffffffffffff021916908373ffffffffffffffffffffffffffffffffffffffff1602179055506040820151816002015550508273ffffffffffffffffffffffffffffffffffffffff163373ffffffffffffffffffffffffffffffffffffffff167fddf252ad1be2c89b69c2b068fc378daa952ba7f163c4a11628f55a4df523b3ef846040516105b09190610704565b60405180910390a36001905092915050565b600080fd5b600073ffffffffffffffffffffffffffffffffffffffff82169050919050565b60006105f2826105c7565b9050919050565b610602816105e7565b811461060d57600080fd5b50565b60008135905061061f816105f9565b92915050565b6000819050919050565b61063881610625565b811461064357600080fd5b50565b6000813590506106558161062f565b92915050565b60008060408385031215610672576106716105c2565b5b600061068085828601610610565b925050602061069185828601610646565b9150509250929050565b6000602082840312156106b1576106b06105c2565b5b60006106bf84828501610646565b91505092915050565b6000602082840312156106de576106dd6105c2565b5b60006106ec84828501610610565b91505092915050565b6106fe81610625565b82525050565b600060208201905061071960008301846106f5565b92915050565b610728816105e7565b82525050565b6000606082019050610743600083018661071f565b610750602083018561071f565b61075d60408301846106f5565b949350505050565b60008115159050919050565b61077a81610765565b82525050565b60006020820190506107956000830184610771565b92915050565b7f4e487b7100000000000000000000000000000000000000000000000000000000600052601160045260246000fd5b60006107d582610625565b91506107e083610625565b92508282019050808211156107f8576107f761079b565b5b92915050565b600082825260208201905092915050565b7f496e73756666696369656e742062616c616e636520746f206275726e00000000600082015250565b6000610845601c836107fe565b91506108508261080f565b602082019050919050565b6000602082019050818103600083015261087481610838565b9050919050565b600061088682610625565b915061089183610625565b92508282039050818111156108a9576108a861079b565b5b92915050565b7f496e73756666696369656e742062616c616e6365000000000000000000000000600082015250565b60006108e56014836107fe565b91506108f0826108af565b602082019050919050565b60006020820190508181036000830152610914816108d8565b905091905056fea26469706673582212206ff14ef920618482de585ea739b31e041f3839b6a66f4dd0d562f0f8369362b064736f6c63430008120033",
  "linkReferences": {},
  "deployedLinkReferences": {}
}