{
  "_format": "hh-sol-artifact-1",
  "contractName": "TokenMock",
  "sourceName": "contracts/mocks/TokenMock.sol",
  "abi": [
    {
      "inputs": [
        {
          "internalType": "address",
          "name": "addr",
          "type": "address"
        }
      ],
      "name": "balanceOf",
      "outputs": [
        {
          "internalType": "uint256",
          "name": "",
          "type": "uint256"
        }
      ],
      "stateMutability": "nonpayable",
      "type": "function"
    },
    {
      "inputs": [
        {
          "internalType": "address",
          "name": "to",
          "type": "address"
        },
        {
          "internalType": "uint256",
          "name": "amount",
          "type": "uint256"
        }
      ],
      "name": "transfer",
      "outputs": [
        {
          "internalType": "bool",
          "name": "",
          "type": "bool"
        }
      ],
      "stateMutability": "nonpayable",
      "type": "function"
    },
    {
      "inputs": [
        {
          "internalType": "uint256",
          "name": "",
          "type": "uint256"
        }
      ],
      "name": "transferCalls",
      "outputs": [
        {
          "internalType": "address",
          "name": "to",
          "type": "address"
        },
        {
          "internalType": "address",
          "name": "from",
          "type": "address"
        },
        {
          "internalType": "uint256",
          "name": "amount",
          "type": "uint256"
        }
      ],
      "stateMutability": "view",
      "type": "function"
    }
  ],
  "bytecode": "0x608060405234801561001057600080fd5b5061048b806100206000396000f3fe608060405234801561001057600080fd5b50600436106100415760003560e01c806370a08231146100465780637e9703bd14610076578063a9059cbb146100a8575b600080fd5b610060600480360381019061005b91906102df565b6100d8565b60405161006d9190610325565b60405180910390f35b610090600480360381019061008b919061036c565b6100eb565b60405161009f939291906103a8565b60405180910390f35b6100c260048036038101906100bd91906103df565b610165565b6040516100cf919061043a565b60405180910390f35b6000683635c9adc5dea000009050919050565b600081815481106100fb57600080fd5b90600052602060002090600302016000915090508060000160009054906101000a900473ffffffffffffffffffffffffffffffffffffffff16908060010160009054906101000a900473ffffffffffffffffffffffffffffffffffffffff16908060020154905083565b60008060405180606001604052808573ffffffffffffffffffffffffffffffffffffffff1681526020013373ffffffffffffffffffffffffffffffffffffffff16815260200184815250908060018154018082558091505060019003906000526020600020906003020160009091909190915060008201518160000160006101000a81548173ffffffffffffffffffffffffffffffffffffffff021916908373ffffffffffffffffffffffffffffffffffffffff16021790555060208201518160010160006101000a81548173ffffffffffffffffffffffffffffffffffffffff021916908373ffffffffffffffffffffffffffffffffffffffff1602179055506040820151816002015550506001905092915050565b600080fd5b600073ffffffffffffffffffffffffffffffffffffffff82169050919050565b60006102ac82610281565b9050919050565b6102bc816102a1565b81146102c757600080fd5b50565b6000813590506102d9816102b3565b92915050565b6000602082840312156102f5576102f461027c565b5b6000610303848285016102ca565b91505092915050565b6000819050919050565b61031f8161030c565b82525050565b600060208201905061033a6000830184610316565b92915050565b6103498161030c565b811461035457600080fd5b50565b60008135905061036681610340565b92915050565b6000602082840312156103825761038161027c565b5b600061039084828501610357565b91505092915050565b6103a2816102a1565b82525050565b60006060820190506103bd6000830186610399565b6103ca6020830185610399565b6103d76040830184610316565b949350505050565b600080604083850312156103f6576103f561027c565b5b6000610404858286016102ca565b925050602061041585828601610357565b9150509250929050565b60008115159050919050565b6104348161041f565b82525050565b600060208201905061044f600083018461042b565b9291505056fea2646970667358221220f72a32d35ee874ce1729f275d725e5fd2fc876457b5beafee818f607e4af7e1364736f6c63430008120033",
  "linkReferences": {},
  "deployedLinkReferences": {}
}