{
  "_format": "hh-sol-artifact-1",
  "contractName": "UniversalRouterMock",
  "sourceName": "contracts/mocks/UniversalRouterMock.sol",
  "abi": [
    {
      "inputs": [
        {
          "internalType": "bytes",
          "name": "commands",
          "type": "bytes"
        },
        {
          "internalType": "bytes[]",
          "name": "inputs",
          "type": "bytes[]"
        },
        {
          "internalType": "uint256",
          "name": "deadline",
          "type": "uint256"
        }
      ],
      "name": "execute",
      "outputs": [
        {
          "internalType": "bool",
          "name": "",
          "type": "bool"
        }
      ],
      "stateMutability": "nonpayable",
      "type": "function"
    },
    {
      "inputs": [
        {
          "internalType": "uint256",
          "name": "",
          "type": "uint256"
        }
      ],
      "name": "executeCalls",
      "outputs": [
        {
          "internalType": "bytes",
          "name": "commands",
          "type": "bytes"
        },
        {
          "internalType": "uint256",
          "name": "deadline",
          "type": "uint256"
        }
      ],
      "stateMutability": "view",
      "type": "function"
    },
    {
      "inputs": [
        {
          "internalType": "uint256",
          "name": "idx",
          "type": "uint256"
        }
      ],
      "name": "getExecuteCallInputs",
      "outputs": [
        {
          "internalType": "bytes",
          "name": "",
          "type": "bytes"
        }
      ],
      "stateMutability": "view",
      "type": "function"
    }
  ],
  "bytecode": "0x608060405234801561001057600080fd5b50610b59806100206000396000f3fe608060405234801561001057600080fd5b50600436106100415760003560e01c80632e16c342146100465780633593564c146100775780635d4a8b3b146100a7575b600080fd5b610060600480360381019061005b919061041c565b6100d7565b60405161006e9291906104e8565b60405180910390f35b610091600480360381019061008c9190610733565b610193565b60405161009e91906107d9565b60405180910390f35b6100c160048036038101906100bc919061041c565b610224565b6040516100ce91906107f4565b60405180910390f35b600081815481106100e757600080fd5b906000526020600020906003020160009150905080600001805461010a90610845565b80601f016020809104026020016040519081016040528092919081815260200182805461013690610845565b80156101835780601f1061015857610100808354040283529160200191610183565b820191906000526020600020905b81548152906001019060200180831161016657829003601f168201915b5050505050908060020154905082565b600080604051806060016040528086815260200185815260200184815250908060018154018082558091505060019003906000526020600020906003020160009091909190915060008201518160000190816101ef9190610a22565b50602082015181600101908051906020019061020c9291906102f8565b50604082015181600201555050600190509392505050565b60606000828154811061023a57610239610af4565b5b906000526020600020906003020160010160008154811061025e5761025d610af4565b5b90600052602060002001805461027390610845565b80601f016020809104026020016040519081016040528092919081815260200182805461029f90610845565b80156102ec5780601f106102c1576101008083540402835291602001916102ec565b820191906000526020600020905b8154815290600101906020018083116102cf57829003601f168201915b50505050509050919050565b828054828255906000526020600020908101928215610340579160200282015b8281111561033f57825182908161032f9190610a22565b5091602001919060010190610318565b5b50905061034d9190610351565b5090565b5b8082111561037157600081816103689190610375565b50600101610352565b5090565b50805461038190610845565b6000825580601f1061039357506103b2565b601f0160209004906000526020600020908101906103b191906103b5565b5b50565b5b808211156103ce5760008160009055506001016103b6565b5090565b6000604051905090565b600080fd5b600080fd5b6000819050919050565b6103f9816103e6565b811461040457600080fd5b50565b600081359050610416816103f0565b92915050565b600060208284031215610432576104316103dc565b5b600061044084828501610407565b91505092915050565b600081519050919050565b600082825260208201905092915050565b60005b83811015610483578082015181840152602081019050610468565b60008484015250505050565b6000601f19601f8301169050919050565b60006104ab82610449565b6104b58185610454565b93506104c5818560208601610465565b6104ce8161048f565b840191505092915050565b6104e2816103e6565b82525050565b6000604082019050818103600083015261050281856104a0565b905061051160208301846104d9565b9392505050565b600080fd5b600080fd5b7f4e487b7100000000000000000000000000000000000000000000000000000000600052604160045260246000fd5b61055a8261048f565b810181811067ffffffffffffffff8211171561057957610578610522565b5b80604052505050565b600061058c6103d2565b90506105988282610551565b919050565b600067ffffffffffffffff8211156105b8576105b7610522565b5b6105c18261048f565b9050602081019050919050565b82818337600083830152505050565b60006105f06105eb8461059d565b610582565b90508281526020810184848401111561060c5761060b61051d565b5b6106178482856105ce565b509392505050565b600082601f83011261063457610633610518565b5b81356106448482602086016105dd565b91505092915050565b600067ffffffffffffffff82111561066857610667610522565b5b602082029050602081019050919050565b600080fd5b600061069161068c8461064d565b610582565b905080838252602082019050602084028301858111156106b4576106b3610679565b5b835b818110156106fb57803567ffffffffffffffff8111156106d9576106d8610518565b5b8086016106e6898261061f565b855260208501945050506020810190506106b6565b5050509392505050565b600082601f83011261071a57610719610518565b5b813561072a84826020860161067e565b91505092915050565b60008060006060848603121561074c5761074b6103dc565b5b600084013567ffffffffffffffff81111561076a576107696103e1565b5b6107768682870161061f565b935050602084013567ffffffffffffffff811115610797576107966103e1565b5b6107a386828701610705565b92505060406107b486828701610407565b9150509250925092565b60008115159050919050565b6107d3816107be565b82525050565b60006020820190506107ee60008301846107ca565b92915050565b6000602082019050818103600083015261080e81846104a0565b905092915050565b7f4e487b7100000000000000000000000000000000000000000000000000000000600052602260045260246000fd5b6000600282049050600182168061085d57607f821691505b6020821081036108705761086f610816565b5b50919050565b60008190508160005260206000209050919050565b60006020601f8301049050919050565b600082821b905092915050565b6000600883026108d87fffffffffffffffffffffffffffffffffffffffffffffffffffffffffffffffff8261089b565b6108e2868361089b565b95508019841693508086168417925050509392505050565b6000819050919050565b600061091f61091a610915846103e6565b6108fa565b6103e6565b9050919050565b6000819050919050565b61093983610904565b61094d61094582610926565b8484546108a8565b825550505050565b600090565b610962610955565b61096d818484610930565b505050565b5b818110156109915761098660008261095a565b600181019050610973565b5050565b601f8211156109d6576109a781610876565b6109b08461088b565b810160208510156109bf578190505b6109d36109cb8561088b565b830182610972565b50505b505050565b600082821c905092915050565b60006109f9600019846008026109db565b1980831691505092915050565b6000610a1283836109e8565b9150826002028217905092915050565b610a2b82610449565b67ffffffffffffffff811115610a4457610a43610522565b5b610a4e8254610845565b610a59828285610995565b600060209050601f831160018114610a8c5760008415610a7a578287015190505b610a848582610a06565b865550610aec565b601f198416610a9a86610876565b60005b82811015610ac257848901518255600182019150602085019450602081019050610a9d565b86831015610adf5784890151610adb601f8916826109e8565b8355505b6001600288020188555050505b505050505050565b7f4e487b7100000000000000000000000000000000000000000000000000000000600052603260045260246000fdfea264697066735822122099d1fb8998df25e6d47947205df4278fb3ae5aa7214035778b74db9b050dbb0c64736f6c63430008120033",
  "linkReferences": {},
  "deployedLinkReferences": {}
}