{
  "_format": "hh-sol-artifact-1",
  "contractName": "UniversalRouterMock",
  "sourceName": "contracts/mocks/UniversalRouterMock.sol",
  "abi": [
    {
      "inputs": [
        {
          "internalType": "bytes",
          "name": "commands",
          "type": "bytes"
        },
        {
          "internalType": "bytes[]",
          "name": "inputs",
          "type": "bytes[]"
        },
        {
          "internalType": "uint256",
          "name": "deadline",
          "type": "uint256"
        }
      ],
      "name": "execute",
      "outputs": [
        {
          "internalType": "bool",
          "name": "",
          "type": "bool"
        }
      ],
      "stateMutability": "nonpayable",
      "type": "function"
    },
    {
      "inputs": [
        {
          "internalType": "uint256",
          "name": "",
          "type": "uint256"
        }
      ],
      "name": "executeCalls",
      "outputs": [
        {
          "internalType": "bytes",
          "name": "commands",
          "type": "bytes"
        },
        {
          "internalType": "uint256",
          "name": "deadline",
          "type": "uint256"
        }
      ],
      "stateMutability": "view",
      "type": "function"
    },
    {
      "inputs": [
        {
          "internalType": "uint256",
          "name": "idx",
          "type": "uint256"
        }
      ],
      "name": "getExecuteCallInputs",
      "outputs": [
        {
          "internalType": "bytes",
          "name": "",
          "type": "bytes"
        }
      ],
      "stateMutability": "view",
      "type": "function"
    }
  ],
  "bytecode": "0x608060405234801561001057600080fd5b50611029806100206000396000f3fe608060405234801561001057600080fd5b50600436106100415760003560e01c80632e16c342146100465780633593564c146100775780635d4a8b3b146100a7575b600080fd5b610060600480360381019061005b9190610580565b6100d7565b60405161006e92919061064c565b60405180910390f35b610091600480360381019061008c9190610897565b610193565b60405161009e919061093d565b60405180910390f35b6100c160048036038101906100bc9190610580565b610312565b6040516100ce9190610958565b60405180910390f35b600081815481106100e757600080fd5b906000526020600020906003020160009150905080600001805461010a906109a9565b80601f0160208091040260200160405190810160405280929190818152602001828054610136906109a9565b80156101835780601f1061015857610100808354040283529160200191610183565b820191906000526020600020905b81548152906001019060200180831161016657829003601f168201915b5050505050908060020154905082565b600080604051806060016040528086815260200185815260200184815250908060018154018082558091505060019003906000526020600020906003020160009091909190915060008201518160000190816101ef9190610b86565b50602082015181600101908051906020019061020c92919061045c565b5060408201518160020155505060008060008060008760008151811061023557610234610c58565b5b60200260200101518060200190518101906102509190610d96565b9450945094509450945060006107d090506000858261026f9190610e5c565b9050600061028a85601487516102859190610e9e565b6103e6565b905060008190508073ffffffffffffffffffffffffffffffffffffffff166340c10f198a856040518363ffffffff1660e01b81526004016102cc929190610ef3565b600060405180830381600087803b1580156102e657600080fd5b505af11580156102fa573d6000803e3d6000fd5b50505050600199505050505050505050509392505050565b60606000828154811061032857610327610c58565b5b906000526020600020906003020160010160008154811061034c5761034b610c58565b5b906000526020600020018054610361906109a9565b80601f016020809104026020016040519081016040528092919081815260200182805461038d906109a9565b80156103da5780601f106103af576101008083540402835291602001916103da565b820191906000526020600020905b8154815290600101906020018083116103bd57829003601f168201915b50505050509050919050565b60006014826103f59190610f1c565b83511015610438576040517f08c379a000000000000000000000000000000000000000000000000000000000815260040161042f90610fd3565b60405180910390fd5b60006c01000000000000000000000000836020860101510490508091505092915050565b8280548282559060005260206000209081019282156104a4579160200282015b828111156104a35782518290816104939190610b86565b509160200191906001019061047c565b5b5090506104b191906104b5565b5090565b5b808211156104d557600081816104cc91906104d9565b506001016104b6565b5090565b5080546104e5906109a9565b6000825580601f106104f75750610516565b601f0160209004906000526020600020908101906105159190610519565b5b50565b5b8082111561053257600081600090555060010161051a565b5090565b6000604051905090565b600080fd5b600080fd5b6000819050919050565b61055d8161054a565b811461056857600080fd5b50565b60008135905061057a81610554565b92915050565b60006020828403121561059657610595610540565b5b60006105a48482850161056b565b91505092915050565b600081519050919050565b600082825260208201905092915050565b60005b838110156105e75780820151818401526020810190506105cc565b60008484015250505050565b6000601f19601f8301169050919050565b600061060f826105ad565b61061981856105b8565b93506106298185602086016105c9565b610632816105f3565b840191505092915050565b6106468161054a565b82525050565b600060408201905081810360008301526106668185610604565b9050610675602083018461063d565b9392505050565b600080fd5b600080fd5b7f4e487b7100000000000000000000000000000000000000000000000000000000600052604160045260246000fd5b6106be826105f3565b810181811067ffffffffffffffff821117156106dd576106dc610686565b5b80604052505050565b60006106f0610536565b90506106fc82826106b5565b919050565b600067ffffffffffffffff82111561071c5761071b610686565b5b610725826105f3565b9050602081019050919050565b82818337600083830152505050565b600061075461074f84610701565b6106e6565b9050828152602081018484840111156107705761076f610681565b5b61077b848285610732565b509392505050565b600082601f8301126107985761079761067c565b5b81356107a8848260208601610741565b91505092915050565b600067ffffffffffffffff8211156107cc576107cb610686565b5b602082029050602081019050919050565b600080fd5b60006107f56107f0846107b1565b6106e6565b90508083825260208201905060208402830185811115610818576108176107dd565b5b835b8181101561085f57803567ffffffffffffffff81111561083d5761083c61067c565b5b80860161084a8982610783565b8552602085019450505060208101905061081a565b5050509392505050565b600082601f83011261087e5761087d61067c565b5b813561088e8482602086016107e2565b91505092915050565b6000806000606084860312156108b0576108af610540565b5b600084013567ffffffffffffffff8111156108ce576108cd610545565b5b6108da86828701610783565b935050602084013567ffffffffffffffff8111156108fb576108fa610545565b5b61090786828701610869565b92505060406109188682870161056b565b9150509250925092565b60008115159050919050565b61093781610922565b82525050565b6000602082019050610952600083018461092e565b92915050565b600060208201905081810360008301526109728184610604565b905092915050565b7f4e487b7100000000000000000000000000000000000000000000000000000000600052602260045260246000fd5b600060028204905060018216806109c157607f821691505b6020821081036109d4576109d361097a565b5b50919050565b60008190508160005260206000209050919050565b60006020601f8301049050919050565b600082821b905092915050565b600060088302610a3c7fffffffffffffffffffffffffffffffffffffffffffffffffffffffffffffffff826109ff565b610a4686836109ff565b95508019841693508086168417925050509392505050565b6000819050919050565b6000610a83610a7e610a798461054a565b610a5e565b61054a565b9050919050565b6000819050919050565b610a9d83610a68565b610ab1610aa982610a8a565b848454610a0c565b825550505050565b600090565b610ac6610ab9565b610ad1818484610a94565b505050565b5b81811015610af557610aea600082610abe565b600181019050610ad7565b5050565b601f821115610b3a57610b0b816109da565b610b14846109ef565b81016020851015610b23578190505b610b37610b2f856109ef565b830182610ad6565b50505b505050565b600082821c905092915050565b6000610b5d60001984600802610b3f565b1980831691505092915050565b6000610b768383610b4c565b9150826002028217905092915050565b610b8f826105ad565b67ffffffffffffffff811115610ba857610ba7610686565b5b610bb282546109a9565b610bbd828285610af9565b600060209050601f831160018114610bf05760008415610bde578287015190505b610be88582610b6a565b865550610c50565b601f198416610bfe866109da565b60005b82811015610c2657848901518255600182019150602085019450602081019050610c01565b86831015610c435784890151610c3f601f891682610b4c565b8355505b6001600288020188555050505b505050505050565b7f4e487b7100000000000000000000000000000000000000000000000000000000600052603260045260246000fd5b600073ffffffffffffffffffffffffffffffffffffffff82169050919050565b6000610cb282610c87565b9050919050565b610cc281610ca7565b8114610ccd57600080fd5b50565b600081519050610cdf81610cb9565b92915050565b600081519050610cf481610554565b92915050565b6000610d0d610d0884610701565b6106e6565b905082815260208101848484011115610d2957610d28610681565b5b610d348482856105c9565b509392505050565b600082601f830112610d5157610d5061067c565b5b8151610d61848260208601610cfa565b91505092915050565b610d7381610922565b8114610d7e57600080fd5b50565b600081519050610d9081610d6a565b92915050565b600080600080600060a08688031215610db257610db1610540565b5b6000610dc088828901610cd0565b9550506020610dd188828901610ce5565b9450506040610de288828901610ce5565b935050606086015167ffffffffffffffff811115610e0357610e02610545565b5b610e0f88828901610d3c565b9250506080610e2088828901610d81565b9150509295509295909350565b7f4e487b7100000000000000000000000000000000000000000000000000000000600052601160045260246000fd5b6000610e678261054a565b9150610e728361054a565b9250828202610e808161054a565b91508282048414831517610e9757610e96610e2d565b5b5092915050565b6000610ea98261054a565b9150610eb48361054a565b9250828203905081811115610ecc57610ecb610e2d565b5b92915050565b6000610edd82610c87565b9050919050565b610eed81610ed2565b82525050565b6000604082019050610f086000830185610ee4565b610f15602083018461063d565b9392505050565b6000610f278261054a565b9150610f328361054a565b9250828201905080821115610f4a57610f49610e2d565b5b92915050565b600082825260208201905092915050565b7f427974657320617272617920746f6f2073686f727420666f722061646472657360008201527f7320636f6e76657273696f6e0000000000000000000000000000000000000000602082015250565b6000610fbd602c83610f50565b9150610fc882610f61565b604082019050919050565b60006020820190508181036000830152610fec81610fb0565b905091905056fea2646970667358221220a21093706f73b29d6594ab94611f79c131e3995cc4ad012c69a3083953c9144164736f6c63430008120033",
  "linkReferences": {},
  "deployedLinkReferences": {}
}