{
  "_format": "hh-sol-artifact-1",
  "contractName": "SwapExecutor",
  "sourceName": "contracts/Swap_executor.sol",
  "abi": [
    {
      "inputs": [
        {
          "internalType": "address",
          "name": "_universalRouter",
          "type": "address"
        }
      ],
      "stateMutability": "nonpayable",
      "type": "constructor"
    },
    {
      "inputs": [],
      "name": "owner",
      "outputs": [
        {
          "internalType": "address",
          "name": "",
          "type": "address"
        }
      ],
      "stateMutability": "view",
      "type": "function"
    },
    {
      "inputs": [
        {
          "internalType": "address",
          "name": "token",
          "type": "address"
        },
        {
          "internalType": "address",
          "name": "from",
          "type": "address"
        },
        {
          "internalType": "uint256",
          "name": "amount",
          "type": "uint256"
        },
        {
          "internalType": "bytes",
          "name": "commands",
          "type": "bytes"
        },
        {
          "internalType": "bytes[]",
          "name": "inputs",
          "type": "bytes[]"
        },
        {
          "internalType": "uint256",
          "name": "deadline",
          "type": "uint256"
        }
      ],
      "name": "transferAndSwap",
      "outputs": [],
      "stateMutability": "nonpayable",
      "type": "function"
    },
    {
      "inputs": [],
      "name": "universalRouter",
      "outputs": [
        {
          "internalType": "contract IUniversalRouter",
          "name": "",
          "type": "address"
        }
      ],
      "stateMutability": "view",
      "type": "function"
    }
  ],
  "bytecode": "0x608060405234801561001057600080fd5b506040516109d33803806109d38339818101604052810190610032919061011c565b336000806101000a81548173ffffffffffffffffffffffffffffffffffffffff021916908373ffffffffffffffffffffffffffffffffffffffff16021790555080600160006101000a81548173ffffffffffffffffffffffffffffffffffffffff021916908373ffffffffffffffffffffffffffffffffffffffff16021790555050610149565b600080fd5b600073ffffffffffffffffffffffffffffffffffffffff82169050919050565b60006100e9826100be565b9050919050565b6100f9816100de565b811461010457600080fd5b50565b600081519050610116816100f0565b92915050565b600060208284031215610132576101316100b9565b5b600061014084828501610107565b91505092915050565b61087b806101586000396000f3fe608060405234801561001057600080fd5b50600436106100415760003560e01c806335a9e4df146100465780638da5cb5b14610064578063f7fb9ea814610082575b600080fd5b61004e61009e565b60405161005b91906102c5565b60405180910390f35b61006c6100c4565b6040516100799190610301565b60405180910390f35b61009c60048036038101906100979190610443565b6100e8565b005b600160009054906101000a900473ffffffffffffffffffffffffffffffffffffffff1681565b60008054906101000a900473ffffffffffffffffffffffffffffffffffffffff1681565b8773ffffffffffffffffffffffffffffffffffffffff166323b872dd8830896040518463ffffffff1660e01b815260040161012593929190610521565b6020604051808303816000875af1158015610144573d6000803e3d6000fd5b505050506040513d601f19601f820116820180604052508101906101689190610590565b6101a7576040517f08c379a000000000000000000000000000000000000000000000000000000000815260040161019e9061061a565b60405180910390fd5b600160009054906101000a900473ffffffffffffffffffffffffffffffffffffffff1673ffffffffffffffffffffffffffffffffffffffff16633593564c86868686866040518663ffffffff1660e01b815260040161020a9594939291906107fc565b600060405180830381600087803b15801561022457600080fd5b505af1158015610238573d6000803e3d6000fd5b505050505050505050505050565b600073ffffffffffffffffffffffffffffffffffffffff82169050919050565b6000819050919050565b600061028b61028661028184610246565b610266565b610246565b9050919050565b600061029d82610270565b9050919050565b60006102af82610292565b9050919050565b6102bf816102a4565b82525050565b60006020820190506102da60008301846102b6565b92915050565b60006102eb82610246565b9050919050565b6102fb816102e0565b82525050565b600060208201905061031660008301846102f2565b92915050565b600080fd5b600080fd5b61032f816102e0565b811461033a57600080fd5b50565b60008135905061034c81610326565b92915050565b6000819050919050565b61036581610352565b811461037057600080fd5b50565b6000813590506103828161035c565b92915050565b600080fd5b600080fd5b600080fd5b60008083601f8401126103ad576103ac610388565b5b8235905067ffffffffffffffff8111156103ca576103c961038d565b5b6020830191508360018202830111156103e6576103e5610392565b5b9250929050565b60008083601f84011261040357610402610388565b5b8235905067ffffffffffffffff8111156104205761041f61038d565b5b60208301915083602082028301111561043c5761043b610392565b5b9250929050565b60008060008060008060008060c0898b0312156104635761046261031c565b5b60006104718b828c0161033d565b98505060206104828b828c0161033d565b97505060406104938b828c01610373565b965050606089013567ffffffffffffffff8111156104b4576104b3610321565b5b6104c08b828c01610397565b9550955050608089013567ffffffffffffffff8111156104e3576104e2610321565b5b6104ef8b828c016103ed565b935093505060a06105028b828c01610373565b9150509295985092959890939650565b61051b81610352565b82525050565b600060608201905061053660008301866102f2565b61054360208301856102f2565b6105506040830184610512565b949350505050565b60008115159050919050565b61056d81610558565b811461057857600080fd5b50565b60008151905061058a81610564565b92915050565b6000602082840312156105a6576105a561031c565b5b60006105b48482850161057b565b91505092915050565b600082825260208201905092915050565b7f5472616e73666572206661696c65640000000000000000000000000000000000600082015250565b6000610604600f836105bd565b915061060f826105ce565b602082019050919050565b60006020820190508181036000830152610633816105f7565b9050919050565b600082825260208201905092915050565b82818337600083830152505050565b6000601f19601f8301169050919050565b6000610677838561063a565b935061068483858461064b565b61068d8361065a565b840190509392505050565b600082825260208201905092915050565b6000819050919050565b600082825260208201905092915050565b60006106d083856106b3565b93506106dd83858461064b565b6106e68361065a565b840190509392505050565b60006106fe8484846106c4565b90509392505050565b600080fd5b600080fd5b600080fd5b6000808335600160200384360303811261073357610732610711565b5b83810192508235915060208301925067ffffffffffffffff82111561075b5761075a610707565b5b6001820236038313156107715761077061070c565b5b509250929050565b6000602082019050919050565b60006107928385610698565b9350836020840285016107a4846106a9565b8060005b878110156107ea5784840389526107bf8284610716565b6107ca8682846106f1565b95506107d584610779565b935060208b019a5050506001810190506107a8565b50829750879450505050509392505050565b6000606082019050818103600083015261081781878961066b565b9050818103602083015261082c818587610786565b905061083b6040830184610512565b969550505050505056fea2646970667358221220037c51420bf187c83be6a5ed4e23d3bf1cb329a71abc4905e941eb138b24a08064736f6c63430008120033",
  "linkReferences": {},
  "deployedLinkReferences": {}
}