{
  "_format": "hh-sol-artifact-1",
  "contractName": "ColateralContract2",
  "sourceName": "contracts/ColateralContract2.sol",
  "abi": [
    {
      "inputs": [],
      "stateMutability": "nonpayable",
      "type": "constructor"
    },
    {
      "inputs": [],
      "name": "AdminAddressInvalid",
      "type": "error"
    },
    {
      "inputs": [],
      "name": "AmountInError",
      "type": "error"
    },
    {
      "inputs": [],
      "name": "AmountOutMinimumTooLow",
      "type": "error"
    },
    {
      "inputs": [],
      "name": "FirstLenderLiqAddressInvalid",
      "type": "error"
    },
    {
      "inputs": [],
      "name": "RecipientError",
      "type": "error"
    },
    {
      "inputs": [],
      "name": "RescueAddressInvalid",
      "type": "error"
    },
    {
      "inputs": [],
      "name": "SecondLenderLiqAddressInvalid",
      "type": "error"
    },
    {
      "inputs": [],
      "name": "TokenInError",
      "type": "error"
    },
    {
      "inputs": [],
      "name": "TokenNameAndAddressLengthMismatch",
      "type": "error"
    },
    {
      "inputs": [],
      "name": "TokenOutError",
      "type": "error"
    },
    {
      "inputs": [],
      "name": "WithdrawAddressInvalid",
      "type": "error"
    },
    {
      "anonymous": false,
      "inputs": [
        {
          "indexed": false,
          "internalType": "address",
          "name": "sender",
          "type": "address"
        },
        {
          "indexed": false,
          "internalType": "string[5]",
          "name": "_tokenNames",
          "type": "string[5]"
        },
        {
          "indexed": false,
          "internalType": "address[5]",
          "name": "_tokenAddresses",
          "type": "address[5]"
        },
        {
          "indexed": false,
          "internalType": "address[3]",
          "name": "_aconcagua",
          "type": "address[3]"
        },
        {
          "indexed": false,
          "internalType": "address",
          "name": "_rescueWalletAddress",
          "type": "address"
        },
        {
          "indexed": false,
          "internalType": "address",
          "name": "_withdrawWalletAddress",
          "type": "address"
        },
        {
          "indexed": false,
          "internalType": "address",
          "name": "_firstLenderLiq",
          "type": "address"
        },
        {
          "indexed": false,
          "internalType": "address",
          "name": "_secondLenderLiq",
          "type": "address"
        },
        {
          "indexed": false,
          "internalType": "string[3]",
          "name": "_contractKeys",
          "type": "string[3]"
        },
        {
          "indexed": false,
          "internalType": "address[3]",
          "name": "_contractAddresses",
          "type": "address[3]"
        }
      ],
      "name": "Initialize",
      "type": "event"
    },
    {
      "anonymous": false,
      "inputs": [
        {
          "indexed": false,
          "internalType": "uint8",
          "name": "version",
          "type": "uint8"
        }
      ],
      "name": "Initialized",
      "type": "event"
    },
    {
      "anonymous": false,
      "inputs": [
        {
          "indexed": false,
          "internalType": "address",
          "name": "tokenIn",
          "type": "address"
        },
        {
          "indexed": false,
          "internalType": "address",
          "name": "tokenOut",
          "type": "address"
        },
        {
          "indexed": false,
          "internalType": "uint256",
          "name": "amountIn",
          "type": "uint256"
        },
        {
          "indexed": false,
          "internalType": "uint256",
          "name": "quotedAmountOut",
          "type": "uint256"
        }
      ],
      "name": "Quote",
      "type": "event"
    },
    {
      "anonymous": false,
      "inputs": [
        {
          "indexed": false,
          "internalType": "address",
          "name": "tokenIn",
          "type": "address"
        },
        {
          "indexed": false,
          "internalType": "address",
          "name": "tokenOut",
          "type": "address"
        },
        {
          "indexed": false,
          "internalType": "uint256",
          "name": "amountIn",
          "type": "uint256"
        },
        {
          "indexed": false,
          "internalType": "string",
          "name": "msg",
          "type": "string"
        }
      ],
      "name": "QuoteError",
      "type": "event"
    },
    {
      "anonymous": false,
      "inputs": [
        {
          "indexed": false,
          "internalType": "address",
          "name": "sender",
          "type": "address"
        },
        {
          "indexed": false,
          "internalType": "string",
          "name": "token",
          "type": "string"
        },
        {
          "indexed": false,
          "internalType": "uint256",
          "name": "amount",
          "type": "uint256"
        },
        {
          "indexed": false,
          "internalType": "address",
          "name": "to",
          "type": "address"
        }
      ],
      "name": "Rescue",
      "type": "event"
    },
    {
      "anonymous": false,
      "inputs": [
        {
          "indexed": true,
          "internalType": "bytes32",
          "name": "role",
          "type": "bytes32"
        },
        {
          "indexed": true,
          "internalType": "bytes32",
          "name": "previousAdminRole",
          "type": "bytes32"
        },
        {
          "indexed": true,
          "internalType": "bytes32",
          "name": "newAdminRole",
          "type": "bytes32"
        }
      ],
      "name": "RoleAdminChanged",
      "type": "event"
    },
    {
      "anonymous": false,
      "inputs": [
        {
          "indexed": true,
          "internalType": "bytes32",
          "name": "role",
          "type": "bytes32"
        },
        {
          "indexed": true,
          "internalType": "address",
          "name": "account",
          "type": "address"
        },
        {
          "indexed": true,
          "internalType": "address",
          "name": "sender",
          "type": "address"
        }
      ],
      "name": "RoleGranted",
      "type": "event"
    },
    {
      "anonymous": false,
      "inputs": [
        {
          "indexed": true,
          "internalType": "bytes32",
          "name": "role",
          "type": "bytes32"
        },
        {
          "indexed": true,
          "internalType": "address",
          "name": "account",
          "type": "address"
        },
        {
          "indexed": true,
          "internalType": "address",
          "name": "sender",
          "type": "address"
        }
      ],
      "name": "RoleRevoked",
      "type": "event"
    },
    {
      "anonymous": false,
      "inputs": [
        {
          "indexed": false,
          "internalType": "address",
          "name": "tokenIn",
          "type": "address"
        },
        {
          "indexed": false,
          "internalType": "address",
          "name": "tokenOut",
          "type": "address"
        },
        {
          "indexed": false,
          "internalType": "uint256",
          "name": "amountIn",
          "type": "uint256"
        },
        {
          "indexed": false,
          "internalType": "uint256",
          "name": "amountOut",
          "type": "uint256"
        }
      ],
      "name": "Swap",
      "type": "event"
    },
    {
      "anonymous": false,
      "inputs": [
        {
          "indexed": false,
          "internalType": "address",
          "name": "tokenIn",
          "type": "address"
        },
        {
          "indexed": false,
          "internalType": "string",
          "name": "msg",
          "type": "string"
        }
      ],
      "name": "SwapError",
      "type": "event"
    },
    {
      "anonymous": false,
      "inputs": [
        {
          "indexed": false,
          "internalType": "address",
          "name": "sender",
          "type": "address"
        },
        {
          "indexed": false,
          "internalType": "string",
          "name": "token",
          "type": "string"
        },
        {
          "indexed": false,
          "internalType": "uint256",
          "name": "amount",
          "type": "uint256"
        }
      ],
      "name": "Withdraw",
      "type": "event"
    },
    {
      "inputs": [],
      "name": "ACONCAGUA_ROLE",
      "outputs": [
        {
          "internalType": "bytes32",
          "name": "",
          "type": "bytes32"
        }
      ],
      "stateMutability": "view",
      "type": "function"
    },
    {
      "inputs": [],
      "name": "DEFAULT_ADMIN_ROLE",
      "outputs": [
        {
          "internalType": "bytes32",
          "name": "",
          "type": "bytes32"
        }
      ],
      "stateMutability": "view",
      "type": "function"
    },
    {
      "inputs": [],
      "name": "LENDER_LIQ_ROLE",
      "outputs": [
        {
          "internalType": "bytes32",
          "name": "",
          "type": "bytes32"
        }
      ],
      "stateMutability": "view",
      "type": "function"
    },
    {
      "inputs": [],
      "name": "RESCUER_ROLE",
      "outputs": [
        {
          "internalType": "bytes32",
          "name": "",
          "type": "bytes32"
        }
      ],
      "stateMutability": "view",
      "type": "function"
    },
    {
      "inputs": [],
      "name": "SWAPPER_ROLE",
      "outputs": [
        {
          "internalType": "bytes32",
          "name": "",
          "type": "bytes32"
        }
      ],
      "stateMutability": "view",
      "type": "function"
    },
    {
      "inputs": [
        {
          "internalType": "string",
          "name": "_tokenSymbol",
          "type": "string"
        }
      ],
      "name": "balanceOf",
      "outputs": [
        {
          "internalType": "uint256",
          "name": "",
          "type": "uint256"
        }
      ],
      "stateMutability": "view",
      "type": "function"
    },
    {
      "inputs": [
        {
          "internalType": "string",
          "name": "",
          "type": "string"
        }
      ],
      "name": "contractAddresses",
      "outputs": [
        {
          "internalType": "address",
          "name": "",
          "type": "address"
        }
      ],
      "stateMutability": "view",
      "type": "function"
    },
    {
      "inputs": [
        {
          "internalType": "uint256",
          "name": "",
          "type": "uint256"
        }
      ],
      "name": "contractKeys",
      "outputs": [
        {
          "internalType": "string",
          "name": "",
          "type": "string"
        }
      ],
      "stateMutability": "view",
      "type": "function"
    },
    {
      "inputs": [],
      "name": "getBalances",
      "outputs": [
        {
          "internalType": "uint256[]",
          "name": "",
          "type": "uint256[]"
        }
      ],
      "stateMutability": "view",
      "type": "function"
    },
    {
      "inputs": [
        {
          "internalType": "bytes32",
          "name": "role",
          "type": "bytes32"
        }
      ],
      "name": "getRoleAdmin",
      "outputs": [
        {
          "internalType": "bytes32",
          "name": "",
          "type": "bytes32"
        }
      ],
      "stateMutability": "view",
      "type": "function"
    },
    {
      "inputs": [
        {
          "internalType": "uint256",
          "name": "index",
          "type": "uint256"
        }
      ],
      "name": "getRoleByIndex",
      "outputs": [
        {
          "internalType": "bytes32",
          "name": "",
          "type": "bytes32"
        }
      ],
      "stateMutability": "view",
      "type": "function"
    },
    {
      "inputs": [],
      "name": "getRoleCount",
      "outputs": [
        {
          "internalType": "uint256",
          "name": "",
          "type": "uint256"
        }
      ],
      "stateMutability": "view",
      "type": "function"
    },
    {
      "inputs": [
        {
          "internalType": "bytes32",
          "name": "role",
          "type": "bytes32"
        },
        {
          "internalType": "uint256",
          "name": "index",
          "type": "uint256"
        }
      ],
      "name": "getRoleMember",
      "outputs": [
        {
          "internalType": "address",
          "name": "",
          "type": "address"
        }
      ],
      "stateMutability": "view",
      "type": "function"
    },
    {
      "inputs": [
        {
          "internalType": "bytes32",
          "name": "role",
          "type": "bytes32"
        }
      ],
      "name": "getRoleMemberCount",
      "outputs": [
        {
          "internalType": "uint256",
          "name": "",
          "type": "uint256"
        }
      ],
      "stateMutability": "view",
      "type": "function"
    },
    {
      "inputs": [],
      "name": "getTokenNames",
      "outputs": [
        {
          "internalType": "string[5]",
          "name": "",
          "type": "string[5]"
        }
      ],
      "stateMutability": "view",
      "type": "function"
    },
    {
      "inputs": [
        {
          "internalType": "bytes32",
          "name": "role",
          "type": "bytes32"
        },
        {
          "internalType": "address",
          "name": "account",
          "type": "address"
        }
      ],
      "name": "grantRole",
      "outputs": [],
      "stateMutability": "nonpayable",
      "type": "function"
    },
    {
      "inputs": [
        {
          "internalType": "bytes32",
          "name": "role",
          "type": "bytes32"
        },
        {
          "internalType": "address",
          "name": "account",
          "type": "address"
        }
      ],
      "name": "hasRole",
      "outputs": [
        {
          "internalType": "bool",
          "name": "",
          "type": "bool"
        }
      ],
      "stateMutability": "view",
      "type": "function"
    },
    {
      "inputs": [
        {
          "internalType": "string[5]",
          "name": "_tokenNames",
          "type": "string[5]"
        },
        {
          "internalType": "address[5]",
          "name": "_tokenAddresses",
          "type": "address[5]"
        },
        {
          "internalType": "address[3]",
          "name": "_aconcagua",
          "type": "address[3]"
        },
        {
          "internalType": "address",
          "name": "_rescueWalletAddress",
          "type": "address"
        },
        {
          "internalType": "address",
          "name": "_withdrawWalletAddress",
          "type": "address"
        },
        {
          "internalType": "address",
          "name": "_firstLenderLiq",
          "type": "address"
        },
        {
          "internalType": "address",
          "name": "_secondLenderLiq",
          "type": "address"
        },
        {
          "internalType": "string[3]",
          "name": "_contractKeys",
          "type": "string[3]"
        },
        {
          "internalType": "address[3]",
          "name": "_contractAddresses",
          "type": "address[3]"
        }
      ],
      "name": "initialize",
      "outputs": [],
      "stateMutability": "nonpayable",
      "type": "function"
    },
    {
      "inputs": [
        {
          "internalType": "bytes32",
          "name": "role",
          "type": "bytes32"
        },
        {
          "internalType": "address",
          "name": "account",
          "type": "address"
        }
      ],
      "name": "renounceRole",
      "outputs": [],
      "stateMutability": "nonpayable",
      "type": "function"
    },
    {
      "inputs": [
        {
          "internalType": "uint256",
          "name": "_amount",
          "type": "uint256"
        },
        {
          "internalType": "string",
          "name": "_tokenSymbol",
          "type": "string"
        }
      ],
      "name": "rescue",
      "outputs": [],
      "stateMutability": "nonpayable",
      "type": "function"
    },
    {
      "inputs": [],
      "name": "rescueWalletAddress",
      "outputs": [
        {
          "internalType": "address",
          "name": "",
          "type": "address"
        }
      ],
      "stateMutability": "view",
      "type": "function"
    },
    {
      "inputs": [
        {
          "internalType": "bytes32",
          "name": "role",
          "type": "bytes32"
        },
        {
          "internalType": "address",
          "name": "account",
          "type": "address"
        }
      ],
      "name": "revokeRole",
      "outputs": [],
      "stateMutability": "nonpayable",
      "type": "function"
    },
    {
      "inputs": [
        {
          "internalType": "address",
          "name": "_rescueWalletAddress",
          "type": "address"
        }
      ],
      "name": "setRescueWalletAddress",
      "outputs": [],
      "stateMutability": "nonpayable",
      "type": "function"
    },
    {
      "inputs": [
        {
          "internalType": "address",
          "name": "_withdrawWalletAddress",
          "type": "address"
        }
      ],
      "name": "setWithdrawWalletAddress",
      "outputs": [],
      "stateMutability": "nonpayable",
      "type": "function"
    },
    {
      "inputs": [
        {
          "internalType": "bytes4",
          "name": "interfaceId",
          "type": "bytes4"
        }
      ],
      "name": "supportsInterface",
      "outputs": [
        {
          "internalType": "bool",
          "name": "",
          "type": "bool"
        }
      ],
      "stateMutability": "view",
      "type": "function"
    },
    {
      "inputs": [
        {
          "components": [
            {
              "components": [
                {
                  "internalType": "bytes",
                  "name": "path",
                  "type": "bytes"
                },
                {
                  "internalType": "address",
                  "name": "recipient",
                  "type": "address"
                },
                {
                  "internalType": "uint256",
                  "name": "deadline",
                  "type": "uint256"
                },
                {
                  "internalType": "uint256",
                  "name": "amountIn",
                  "type": "uint256"
                },
                {
                  "internalType": "uint256",
                  "name": "amountOutMinimum",
                  "type": "uint256"
                }
              ],
              "internalType": "struct ISwapRouter.ExactInputParams",
              "name": "params",
              "type": "tuple"
            },
            {
              "internalType": "address",
              "name": "tokenIn",
              "type": "address"
            },
            {
              "internalType": "address",
              "name": "tokenOut",
              "type": "address"
            }
          ],
          "internalType": "struct IColateralContract2.SwapParams[]",
          "name": "swapsParams",
          "type": "tuple[]"
        }
      ],
      "name": "swapExactInputs",
      "outputs": [],
      "stateMutability": "nonpayable",
      "type": "function"
    },
    {
      "inputs": [
        {
          "internalType": "uint256",
          "name": "",
          "type": "uint256"
        }
      ],
      "name": "tokenNames",
      "outputs": [
        {
          "internalType": "string",
          "name": "",
          "type": "string"
        }
      ],
      "stateMutability": "view",
      "type": "function"
    },
    {
      "inputs": [
        {
          "internalType": "string",
          "name": "",
          "type": "string"
        }
      ],
      "name": "tokenTable",
      "outputs": [
        {
          "internalType": "address",
          "name": "",
          "type": "address"
        }
      ],
      "stateMutability": "view",
      "type": "function"
    },
    {
      "inputs": [],
      "name": "version",
      "outputs": [
        {
          "internalType": "string",
          "name": "",
          "type": "string"
        }
      ],
      "stateMutability": "pure",
      "type": "function"
    },
    {
      "inputs": [
        {
          "internalType": "uint256",
          "name": "_amount",
          "type": "uint256"
        },
        {
          "internalType": "string",
          "name": "_tokenSymbol",
          "type": "string"
        }
      ],
      "name": "withdraw",
      "outputs": [],
      "stateMutability": "nonpayable",
      "type": "function"
    },
    {
      "inputs": [],
      "name": "withdrawWalletAddress",
      "outputs": [
        {
          "internalType": "address",
          "name": "",
          "type": "address"
        }
      ],
      "stateMutability": "view",
      "type": "function"
    },
    {
      "stateMutability": "payable",
      "type": "receive"
    }
  ],
  "bytecode": "0x60806040523480156200001157600080fd5b50620000226200002860201b60201c565b620001d2565b600060019054906101000a900460ff16156200007b576040517f08c379a0000000000000000000000000000000000000000000000000000000008152600401620000729062000175565b60405180910390fd5b60ff801660008054906101000a900460ff1660ff1614620000ec5760ff6000806101000a81548160ff021916908360ff1602179055507f7f26b83ff96e1f2b6a682f133852f6798a09c465da95921460cefb384740249860ff604051620000e39190620001b5565b60405180910390a15b565b600082825260208201905092915050565b7f496e697469616c697a61626c653a20636f6e747261637420697320696e69746960008201527f616c697a696e6700000000000000000000000000000000000000000000000000602082015250565b60006200015d602783620000ee565b91506200016a82620000ff565b604082019050919050565b6000602082019050818103600083015262000190816200014e565b9050919050565b600060ff82169050919050565b620001af8162000197565b82525050565b6000602082019050620001cc6000830184620001a4565b92915050565b615e9480620001e26000396000f3fe6080604052600436106101db5760003560e01c806355452d0411610102578063ca15c87311610095578063de6bd68711610064578063de6bd687146107e6578063df668eca14610823578063e5df800a1461084e578063ee67cc2a14610879576102c8565b8063ca15c8731461072e578063d00411c91461076b578063d547741f14610794578063dc048cf2146107bd576102c8565b806391d14854116100d157806391d1485414610672578063a217fddf146106af578063b14ec101146106da578063c869787e14610705576102c8565b806355452d04146105a257806371372544146105df57806383d333191461060a5780639010d07c14610635576102c8565b80632ad753e41161017a57806332cc815d1161014957806332cc815d146104e657806335ee5f871461051157806336568abe1461054e57806354fd4d5014610577576102c8565b80632ad753e41461042c5780632f2ff15d146104575780632ffe994214610480578063310495ab146104a9576102c8565b806315ac7358116101b657806315ac73581461035e578063212f603914610389578063248a9ca3146103b257806325acc985146103ef576102c8565b8062113e08146102cd57806301ffc9a7146102f85780630828c40414610335576102c8565b366102c857601e460361028b576101026040516101f790613a20565b908152602001604051809103902060009054906101000a900473ffffffffffffffffffffffffffffffffffffffff1673ffffffffffffffffffffffffffffffffffffffff1663d0e30db0346040518263ffffffff1660e01b81526004016000604051808303818588803b15801561026d57600080fd5b505af1158015610281573d6000803e3d6000fd5b50505050506102c6565b6040517f08c379a00000000000000000000000000000000000000000000000000000000081526004016102bd90613a92565b60405180910390fd5b005b600080fd5b3480156102d957600080fd5b506102e26108b6565b6040516102ef9190613b7a565b60405180910390f35b34801561030457600080fd5b5061031f600480360381019061031a9190613c08565b610a2e565b60405161032c9190613c50565b60405180910390f35b34801561034157600080fd5b5061035c60048036038101906103579190613cfc565b610aa8565b005b34801561036a57600080fd5b50610373610bc0565b6040516103809190613d9d565b60405180910390f35b34801561039557600080fd5b506103b060048036038101906103ab9190613de4565b610be7565b005b3480156103be57600080fd5b506103d960048036038101906103d49190613e47565b610cbd565b6040516103e69190613e83565b60405180910390f35b3480156103fb57600080fd5b5061041660048036038101906104119190613e9e565b610cdd565b6040516104239190613e83565b60405180910390f35b34801561043857600080fd5b50610441610cfa565b60405161044e9190614011565b60405180910390f35b34801561046357600080fd5b5061047e60048036038101906104799190614033565b610dc7565b005b34801561048c57600080fd5b506104a760048036038101906104a291906140c9565b610de8565b005b3480156104b557600080fd5b506104d060048036038101906104cb9190613e9e565b611965565b6040516104dd919061414f565b60405180910390f35b3480156104f257600080fd5b506104fb611a08565b6040516105089190613e83565b60405180910390f35b34801561051d57600080fd5b50610538600480360381019061053391906142a1565b611a2c565b60405161054591906142f9565b60405180910390f35b34801561055a57600080fd5b5061057560048036038101906105709190614033565b611af3565b005b34801561058357600080fd5b5061058c611b76565b604051610599919061414f565b60405180910390f35b3480156105ae57600080fd5b506105c960048036038101906105c491906142a1565b611bb3565b6040516105d69190613d9d565b60405180910390f35b3480156105eb57600080fd5b506105f4611bfd565b6040516106019190613e83565b60405180910390f35b34801561061657600080fd5b5061061f611c21565b60405161062c91906142f9565b60405180910390f35b34801561064157600080fd5b5061065c60048036038101906106579190614314565b611c32565b6040516106699190613d9d565b60405180910390f35b34801561067e57600080fd5b5061069960048036038101906106949190614033565b611c61565b6040516106a69190613c50565b60405180910390f35b3480156106bb57600080fd5b506106c4611ccc565b6040516106d19190613e83565b60405180910390f35b3480156106e657600080fd5b506106ef611cd3565b6040516106fc9190613d9d565b60405180910390f35b34801561071157600080fd5b5061072c600480360381019061072791906143dc565b611cfa565b005b34801561073a57600080fd5b5061075560048036038101906107509190613e47565b6128d7565b60405161076291906142f9565b60405180910390f35b34801561077757600080fd5b50610792600480360381019061078d9190613de4565b6128fb565b005b3480156107a057600080fd5b506107bb60048036038101906107b69190614033565b6129d1565b005b3480156107c957600080fd5b506107e460048036038101906107df9190613cfc565b6129f2565b005b3480156107f257600080fd5b5061080d60048036038101906108089190613e9e565b612b01565b60405161081a919061414f565b60405180910390f35b34801561082f57600080fd5b50610838612ba5565b6040516108459190613e83565b60405180910390f35b34801561085a57600080fd5b50610863612bc9565b6040516108709190613e83565b60405180910390f35b34801561088557600080fd5b506108a0600480360381019061089b91906142a1565b612bed565b6040516108ad9190613d9d565b60405180910390f35b60606000600160056108c89190614512565b67ffffffffffffffff8111156108e1576108e0614176565b5b60405190808252806020026020018201604052801561090f5781602001602082028036833780820191505090505b509050478160008151811061092757610926614546565b5b6020026020010181815250506000600190505b60058111610a26576109f460fd6001836109549190614575565b6005811061096557610964614546565b5b018054610971906145d8565b80601f016020809104026020016040519081016040528092919081815260200182805461099d906145d8565b80156109ea5780601f106109bf576101008083540402835291602001916109ea565b820191906000526020600020905b8154815290600101906020018083116109cd57829003601f168201915b5050505050611a2c565b828281518110610a0757610a06614546565b5b6020026020010181815250508080610a1e90614609565b91505061093a565b508091505090565b60007f5a05180f000000000000000000000000000000000000000000000000000000007bffffffffffffffffffffffffffffffffffffffffffffffffffffffff1916827bffffffffffffffffffffffffffffffffffffffffffffffffffffffff19161480610aa15750610aa082612c37565b5b9050919050565b7fbffb4faf8a508f503a2ca036effd0bc1f82615d3ebfddb934edf718f23672707610ad281612cb1565b610ada612cc5565b610b496101028484604051610af0929190614676565b908152602001604051809103902060009054906101000a900473ffffffffffffffffffffffffffffffffffffffff1661010360009054906101000a900473ffffffffffffffffffffffffffffffffffffffff1686612d14565b7f22cb89e6358014bb27f5658e2b820189f8f4c9e3f7165ecf266edc53be12d9fa610b72612d9a565b84848761010360009054906101000a900473ffffffffffffffffffffffffffffffffffffffff16604051610baa9594939291906146bc565b60405180910390a1610bba612da2565b50505050565b61010360009054906101000a900473ffffffffffffffffffffffffffffffffffffffff1681565b7ffaad79a708d82d095486f5a83b18341f12a8f717d3011ab929d43135c1af73e2610c1181612cb1565b600073ffffffffffffffffffffffffffffffffffffffff168273ffffffffffffffffffffffffffffffffffffffff1603610c77576040517fd766085d00000000000000000000000000000000000000000000000000000000815260040160405180910390fd5b8161010460006101000a81548173ffffffffffffffffffffffffffffffffffffffff021916908373ffffffffffffffffffffffffffffffffffffffff1602179055505050565b600060656000838152602001908152602001600020600101549050919050565b6000610cf38260fb612dac90919063ffffffff16565b9050919050565b610d026139a2565b60fd600580602002604051908101604052809291906000905b82821015610dbe578382018054610d31906145d8565b80601f0160208091040260200160405190810160405280929190818152602001828054610d5d906145d8565b8015610daa5780601f10610d7f57610100808354040283529160200191610daa565b820191906000526020600020905b815481529060010190602001808311610d8d57829003601f168201915b505050505081526020019060010190610d1b565b50505050905090565b610dd082610cbd565b610dd981612cb1565b610de38383612dc3565b505050565b7fd2761b102bda9831f4af400cc824b8cecb9cc5c1c85c51acb1479db9735fbfc6610e1281612cb1565b6000610102604051610e2390613a20565b908152602001604051809103902060009054906101000a900473ffffffffffffffffffffffffffffffffffffffff1690506000610102604051610e6590614756565b908152602001604051809103902060009054906101000a900473ffffffffffffffffffffffffffffffffffffffff1690506000610102604051610ea7906147b7565b908152602001604051809103902060009054906101000a900473ffffffffffffffffffffffffffffffffffffffff1690506000610102604051610ee990614818565b908152602001604051809103902060009054906101000a900473ffffffffffffffffffffffffffffffffffffffff16905060005b8787905081101561195b5736888883818110610f3c57610f3b614546565b5b9050602002810190610f4e919061483c565b90503073ffffffffffffffffffffffffffffffffffffffff16818060000190610f779190614864565b6020016020810190610f899190613de4565b73ffffffffffffffffffffffffffffffffffffffff1614610fd6576040517f99c71e6300000000000000000000000000000000000000000000000000000000815260040160405180910390fd5b8373ffffffffffffffffffffffffffffffffffffffff168160400160208101906110009190613de4565b73ffffffffffffffffffffffffffffffffffffffff161415801561106257508273ffffffffffffffffffffffffffffffffffffffff168160400160208101906110499190613de4565b73ffffffffffffffffffffffffffffffffffffffff1614155b15611099576040517f419fde0100000000000000000000000000000000000000000000000000000000815260040160405180910390fd5b8573ffffffffffffffffffffffffffffffffffffffff168160200160208101906110c39190613de4565b73ffffffffffffffffffffffffffffffffffffffff161415801561112557508473ffffffffffffffffffffffffffffffffffffffff1681602001602081019061110c9190613de4565b73ffffffffffffffffffffffffffffffffffffffff1614155b1561115c576040517f7d8ee31c00000000000000000000000000000000000000000000000000000000815260040160405180910390fd5b600061010a60009054906101000a900473ffffffffffffffffffffffffffffffffffffffff1673ffffffffffffffffffffffffffffffffffffffff1663cdca17538380600001906111ad9190614864565b80600001906111bc919061488c565b8580600001906111cc9190614864565b606001356040518463ffffffff1660e01b81526004016111ee9392919061492d565b6020604051808303816000875af192505050801561122a57506040513d601f19601f820116820180604052508101906112279190614974565b60015b6112e0576112366149ae565b806308c379a0036112cf575061124a6149d0565b8061125557506112d1565b7fa5d58d69861729f1703d1b6e4dfb43369bb7f6049cc96e68f35a94129fc14dce8360200160208101906112899190613de4565b84604001602081019061129c9190613de4565b8580600001906112ac9190614864565b60600135846040516112c19493929190614a60565b60405180910390a1506112db565b505b3d6000803e3d6000fd5b611359565b8091507f2486dbd80d4ae64aa9afaacc3370501ed791559e2fdfcd6101f3835150f310808360200160208101906113179190613de4565b84604001602081019061132a9190613de4565b85806000019061133a9190614864565b606001358560405161134f9493929190614aac565b60405180910390a1505b600082806000019061136b9190614864565b608001351115806113a6575060646062826113869190614af1565b6113909190614b62565b8280600001906113a09190614864565b60800135105b156113dd576040517f1792539f00000000000000000000000000000000000000000000000000000000815260040160405180910390fd5b60008260200160208101906113f29190613de4565b905060008380600001906114069190614864565b606001351115806114a257508073ffffffffffffffffffffffffffffffffffffffff166370a08231306040518263ffffffff1660e01b815260040161144b9190613d9d565b602060405180830381865afa158015611468573d6000803e3d6000fd5b505050506040513d601f19601f8201168201806040525081019061148c9190614974565b83806000019061149c9190614864565b60600135115b156114d9576040517f54e80d1b00000000000000000000000000000000000000000000000000000000815260040160405180910390fd5b60008360400160208101906114ee9190613de4565b73ffffffffffffffffffffffffffffffffffffffff166370a08231306040518263ffffffff1660e01b81526004016115269190613d9d565b602060405180830381865afa158015611543573d6000803e3d6000fd5b505050506040513d601f19601f820116820180604052508101906115679190614974565b90506115c48261010860405161157c90614bdf565b908152602001604051809103902060009054906101000a900473ffffffffffffffffffffffffffffffffffffffff168680600001906115bb9190614864565b60600135612d14565b60008060f81b6040516020016115da9190614c41565b60405160208183030381529060405290506000600167ffffffffffffffff81111561160857611607614176565b5b60405190808252806020026020018201604052801561163b57816020015b60608152602001906001900390816116265790505b50905085806000019061164e9190614864565b60200160208101906116609190613de4565b8680600001906116709190614864565b606001358780600001906116849190614864565b608001358880600001906116989190614864565b80600001906116a7919061488c565b60006040516020016116be96959493929190614c5c565b604051602081830303815290604052816000815181106116e1576116e0614546565b5b60200260200101819052506101086040516116fb90614bdf565b908152602001604051809103902060009054906101000a900473ffffffffffffffffffffffffffffffffffffffff1673ffffffffffffffffffffffffffffffffffffffff16633593564c83838980600001906117579190614864565b604001356040518463ffffffff1660e01b815260040161177993929190614e08565b600060405180830381600087803b15801561179357600080fd5b505af19250505080156117a4575060015b611831576117b06149ae565b806308c379a00361182057506117c46149d0565b806117cf5750611822565b7f48dbf1f65dc9fb918dcf47a87d0d7dbfe9cd78bcfaea409049ee36785201cb918760200160208101906118039190613de4565b82604051611812929190614e4d565b60405180910390a15061182c565b505b3d6000803e3d6000fd5b611942565b60008660400160208101906118469190613de4565b73ffffffffffffffffffffffffffffffffffffffff166370a08231306040518263ffffffff1660e01b815260040161187e9190613d9d565b602060405180830381865afa15801561189b573d6000803e3d6000fd5b505050506040513d601f19601f820116820180604052508101906118bf9190614974565b90507ffa2dda1cc1b86e41239702756b13effbc1a092b5c57e3ad320fbe4f3b13fe2358760200160208101906118f59190613de4565b8860400160208101906119089190613de4565b8980600001906119189190614864565b6060013587856119289190614575565b6040516119389493929190614aac565b60405180910390a1505b505050505050808061195390614609565b915050610f1d565b5050505050505050565b60fd816005811061197557600080fd5b016000915090508054611987906145d8565b80601f01602080910402602001604051908101604052809291908181526020018280546119b3906145d8565b8015611a005780601f106119d557610100808354040283529160200191611a00565b820191906000526020600020905b8154815290600101906020018083116119e357829003601f168201915b505050505081565b7ffd37f88a14d7ed985885a1af8f2ad5b64dd7eb00ab89168649791632bb9bb4a681565b60008061010283604051611a409190614eae565b908152602001604051809103902060009054906101000a900473ffffffffffffffffffffffffffffffffffffffff1690508073ffffffffffffffffffffffffffffffffffffffff166370a08231306040518263ffffffff1660e01b8152600401611aaa9190613d9d565b602060405180830381865afa158015611ac7573d6000803e3d6000fd5b505050506040513d601f19601f82011682018060405250810190611aeb9190614974565b915050919050565b611afb612d9a565b73ffffffffffffffffffffffffffffffffffffffff168173ffffffffffffffffffffffffffffffffffffffff1614611b68576040517f08c379a0000000000000000000000000000000000000000000000000000000008152600401611b5f90614f37565b60405180910390fd5b611b728282612df7565b5050565b60606040518060400160405280600581526020017f322e302e30000000000000000000000000000000000000000000000000000000815250905090565b610102818051602081018201805184825260208301602085012081835280955050505050506000915054906101000a900473ffffffffffffffffffffffffffffffffffffffff1681565b7fbffb4faf8a508f503a2ca036effd0bc1f82615d3ebfddb934edf718f2367270781565b6000611c2d60fb612e2b565b905090565b6000611c598260976000868152602001908152602001600020612e4090919063ffffffff16565b905092915050565b60006065600084815260200190815260200160002060000160008373ffffffffffffffffffffffffffffffffffffffff1673ffffffffffffffffffffffffffffffffffffffff16815260200190815260200160002060009054906101000a900460ff16905092915050565b6000801b81565b61010460009054906101000a900473ffffffffffffffffffffffffffffffffffffffff1681565b60008060019054906101000a900460ff16159050808015611d2b5750600160008054906101000a900460ff1660ff16105b80611d585750611d3a30612e5a565b158015611d575750600160008054906101000a900460ff1660ff16145b5b611d97576040517f08c379a0000000000000000000000000000000000000000000000000000000008152600401611d8e90614fc9565b60405180910390fd5b60016000806101000a81548160ff021916908360ff1602179055508015611dd4576001600060016101000a81548160ff0219169083151502179055505b600073ffffffffffffffffffffffffffffffffffffffff1688600060038110611e0057611dff614546565b5b602002016020810190611e139190613de4565b73ffffffffffffffffffffffffffffffffffffffff16148015611e885750600073ffffffffffffffffffffffffffffffffffffffff1688600160038110611e5d57611e5c614546565b5b602002016020810190611e709190613de4565b73ffffffffffffffffffffffffffffffffffffffff16145b8015611ee65750600073ffffffffffffffffffffffffffffffffffffffff1688600260038110611ebb57611eba614546565b5b602002016020810190611ece9190613de4565b73ffffffffffffffffffffffffffffffffffffffff16145b15611f1d576040517fbfac83b300000000000000000000000000000000000000000000000000000000815260040160405180910390fd5b600073ffffffffffffffffffffffffffffffffffffffff168773ffffffffffffffffffffffffffffffffffffffff1603611f83576040517fdf51a0d100000000000000000000000000000000000000000000000000000000815260040160405180910390fd5b600073ffffffffffffffffffffffffffffffffffffffff168673ffffffffffffffffffffffffffffffffffffffff1603611fe9576040517fd766085d00000000000000000000000000000000000000000000000000000000815260040160405180910390fd5b600073ffffffffffffffffffffffffffffffffffffffff168573ffffffffffffffffffffffffffffffffffffffff160361204f576040517f4e12a74f00000000000000000000000000000000000000000000000000000000815260040160405180910390fd5b600073ffffffffffffffffffffffffffffffffffffffff168473ffffffffffffffffffffffffffffffffffffffff16036120b5576040517f8dd8261b00000000000000000000000000000000000000000000000000000000815260040160405180910390fd5b6120bd612e7d565b6120c5612ece565b600580146120ff576040517fda3ebf7300000000000000000000000000000000000000000000000000000000815260040160405180910390fd5b60005b600581101561220a5789816005811061211e5761211d614546565b5b6020020160208101906121319190613de4565b6101028c836005811061214757612146614546565b5b6020028101906121579190614fe9565b604051612165929190614676565b908152602001604051809103902060006101000a81548173ffffffffffffffffffffffffffffffffffffffff021916908373ffffffffffffffffffffffffffffffffffffffff1602179055508a81600581106121c4576121c3614546565b5b6020028101906121d49190614fe9565b60fd83600581106121e8576121e7614546565b5b0191826121f6929190615203565b50808061220290614609565b915050612102565b508561010460006101000a81548173ffffffffffffffffffffffffffffffffffffffff021916908373ffffffffffffffffffffffffffffffffffffffff1602179055508661010360006101000a81548173ffffffffffffffffffffffffffffffffffffffff021916908373ffffffffffffffffffffffffffffffffffffffff16021790555060005b600381101561238d578381600381106122ae576122ad614546565b5b6020028101906122be9190614fe9565b61010583600381106122d3576122d2614546565b5b0191826122e1929190615203565b508281600381106122f5576122f4614546565b5b6020020160208101906123089190613de4565b61010861010583600381106123205761231f614546565b5b0160405161232e9190615356565b908152602001604051809103902060006101000a81548173ffffffffffffffffffffffffffffffffffffffff021916908373ffffffffffffffffffffffffffffffffffffffff160217905550808061238590614609565b915050612292565b5061010860405161239d90614bdf565b908152602001604051809103902060009054906101000a900473ffffffffffffffffffffffffffffffffffffffff1661010960006101000a81548173ffffffffffffffffffffffffffffffffffffffff021916908373ffffffffffffffffffffffffffffffffffffffff16021790555061010860405161241c906153b9565b908152602001604051809103902060009054906101000a900473ffffffffffffffffffffffffffffffffffffffff1661010a60006101000a81548173ffffffffffffffffffffffffffffffffffffffff021916908373ffffffffffffffffffffffffffffffffffffffff1602179055506124c07ffaad79a708d82d095486f5a83b18341f12a8f717d3011ab929d43135c1af73e260fb612f2790919063ffffffff16565b506124f57ffd37f88a14d7ed985885a1af8f2ad5b64dd7eb00ab89168649791632bb9bb4a660fb612f2790919063ffffffff16565b5061252a7fbffb4faf8a508f503a2ca036effd0bc1f82615d3ebfddb934edf718f2367270760fb612f2790919063ffffffff16565b5061255f7fd2761b102bda9831f4af400cc824b8cecb9cc5c1c85c51acb1479db9735fbfc660fb612f2790919063ffffffff16565b506125b07ffaad79a708d82d095486f5a83b18341f12a8f717d3011ab929d43135c1af73e28960006003811061259857612597614546565b5b6020020160208101906125ab9190613de4565b612dc3565b6126007ffaad79a708d82d095486f5a83b18341f12a8f717d3011ab929d43135c1af73e2896001600381106125e8576125e7614546565b5b6020020160208101906125fb9190613de4565b612dc3565b6126507ffaad79a708d82d095486f5a83b18341f12a8f717d3011ab929d43135c1af73e28960026003811061263857612637614546565b5b60200201602081019061264b9190613de4565b612dc3565b61267a7ffd37f88a14d7ed985885a1af8f2ad5b64dd7eb00ab89168649791632bb9bb4a686612dc3565b6126a47ffd37f88a14d7ed985885a1af8f2ad5b64dd7eb00ab89168649791632bb9bb4a685612dc3565b6126ce7fbffb4faf8a508f503a2ca036effd0bc1f82615d3ebfddb934edf718f2367270786612dc3565b6126f87fbffb4faf8a508f503a2ca036effd0bc1f82615d3ebfddb934edf718f2367270785612dc3565b61275f7fd2761b102bda9831f4af400cc824b8cecb9cc5c1c85c51acb1479db9735fbfc661010860405161272b9061541a565b908152602001604051809103902060009054906101000a900473ffffffffffffffffffffffffffffffffffffffff16612dc3565b6127897ffaad79a708d82d095486f5a83b18341f12a8f717d3011ab929d43135c1af73e280612f3e565b6127b37ffd37f88a14d7ed985885a1af8f2ad5b64dd7eb00ab89168649791632bb9bb4a680612f3e565b6127dd7fbffb4faf8a508f503a2ca036effd0bc1f82615d3ebfddb934edf718f2367270780612f3e565b6128277fd2761b102bda9831f4af400cc824b8cecb9cc5c1c85c51acb1479db9735fbfc67ffaad79a708d82d095486f5a83b18341f12a8f717d3011ab929d43135c1af73e2612f3e565b7f7f1f0de4dc14e9ab39c52c069e883f78ab6f9c7854b254718a298e76f2ebdc6d338b8b8b8b8b8b8b6101058b60405161286a9a99989796959493929190615814565b60405180910390a180156128cb5760008060016101000a81548160ff0219169083151502179055507f7f26b83ff96e1f2b6a682f133852f6798a09c465da95921460cefb384740249860016040516128c2919061590a565b60405180910390a15b50505050505050505050565b60006128f460976000848152602001908152602001600020612f9a565b9050919050565b7ffaad79a708d82d095486f5a83b18341f12a8f717d3011ab929d43135c1af73e261292581612cb1565b600073ffffffffffffffffffffffffffffffffffffffff168273ffffffffffffffffffffffffffffffffffffffff160361298b576040517fdf51a0d100000000000000000000000000000000000000000000000000000000815260040160405180910390fd5b8161010360006101000a81548173ffffffffffffffffffffffffffffffffffffffff021916908373ffffffffffffffffffffffffffffffffffffffff1602179055505050565b6129da82610cbd565b6129e381612cb1565b6129ed8383612df7565b505050565b7ffd37f88a14d7ed985885a1af8f2ad5b64dd7eb00ab89168649791632bb9bb4a6612a1c81612cb1565b612a24612cc5565b612a936101028484604051612a3a929190614676565b908152602001604051809103902060009054906101000a900473ffffffffffffffffffffffffffffffffffffffff1661010460009054906101000a900473ffffffffffffffffffffffffffffffffffffffff1686612d14565b7f901c03da5d88eb3d62ab4617e7b7d17d86db16356823a7971127d5181a842fef61010460009054906101000a900473ffffffffffffffffffffffffffffffffffffffff16848487604051612aeb9493929190615925565b60405180910390a1612afb612da2565b50505050565b6101058160038110612b1257600080fd5b016000915090508054612b24906145d8565b80601f0160208091040260200160405190810160405280929190818152602001828054612b50906145d8565b8015612b9d5780601f10612b7257610100808354040283529160200191612b9d565b820191906000526020600020905b815481529060010190602001808311612b8057829003601f168201915b505050505081565b7fd2761b102bda9831f4af400cc824b8cecb9cc5c1c85c51acb1479db9735fbfc681565b7ffaad79a708d82d095486f5a83b18341f12a8f717d3011ab929d43135c1af73e281565b610108818051602081018201805184825260208301602085012081835280955050505050506000915054906101000a900473ffffffffffffffffffffffffffffffffffffffff1681565b60007f7965db0b000000000000000000000000000000000000000000000000000000007bffffffffffffffffffffffffffffffffffffffffffffffffffffffff1916827bffffffffffffffffffffffffffffffffffffffffffffffffffffffff19161480612caa5750612ca982612faf565b5b9050919050565b612cc281612cbd612d9a565b613019565b50565b600260c95403612d0a576040517f08c379a0000000000000000000000000000000000000000000000000000000008152600401612d01906159b1565b60405180910390fd5b600260c981905550565b612d958363a9059cbb60e01b8484604051602401612d339291906159d1565b604051602081830303815290604052907bffffffffffffffffffffffffffffffffffffffffffffffffffffffff19166020820180517bffffffffffffffffffffffffffffffffffffffffffffffffffffffff838183161783525050505061309e565b505050565b600033905090565b600160c981905550565b6000612dbb8360000183613166565b905092915050565b612dcd8282613191565b612df2816097600085815260200190815260200160002061327290919063ffffffff16565b505050565b612e0182826132a2565b612e26816097600085815260200190815260200160002061338490919063ffffffff16565b505050565b6000612e39826000016133b4565b9050919050565b6000612e4f8360000183613166565b60001c905092915050565b6000808273ffffffffffffffffffffffffffffffffffffffff163b119050919050565b600060019054906101000a900460ff16612ecc576040517f08c379a0000000000000000000000000000000000000000000000000000000008152600401612ec390615a6c565b60405180910390fd5b565b600060019054906101000a900460ff16612f1d576040517f08c379a0000000000000000000000000000000000000000000000000000000008152600401612f1490615a6c565b60405180910390fd5b600160c981905550565b6000612f3683600001836133c5565b905092915050565b6000612f4983610cbd565b90508160656000858152602001908152602001600020600101819055508181847fbd79b86ffe0ab8e8776151514217cd7cacd52c909f66475c3af44e129f0b00ff60405160405180910390a4505050565b6000612fa8826000016133b4565b9050919050565b60007f01ffc9a7000000000000000000000000000000000000000000000000000000007bffffffffffffffffffffffffffffffffffffffffffffffffffffffff1916827bffffffffffffffffffffffffffffffffffffffffffffffffffffffff1916149050919050565b6130238282611c61565b61309a5761303081613435565b61303e8360001c6020613462565b60405160200161304f929190615b24565b6040516020818303038152906040526040517f08c379a0000000000000000000000000000000000000000000000000000000008152600401613091919061414f565b60405180910390fd5b5050565b6000613100826040518060400160405280602081526020017f5361666545524332303a206c6f772d6c6576656c2063616c6c206661696c65648152508573ffffffffffffffffffffffffffffffffffffffff1661369e9092919063ffffffff16565b90506000815114806131225750808060200190518101906131219190615b8a565b5b613161576040517f08c379a000000000000000000000000000000000000000000000000000000000815260040161315890615c29565b60405180910390fd5b505050565b600082600001828154811061317e5761317d614546565b5b9060005260206000200154905092915050565b61319b8282611c61565b61326e5760016065600084815260200190815260200160002060000160008373ffffffffffffffffffffffffffffffffffffffff1673ffffffffffffffffffffffffffffffffffffffff16815260200190815260200160002060006101000a81548160ff021916908315150217905550613213612d9a565b73ffffffffffffffffffffffffffffffffffffffff168173ffffffffffffffffffffffffffffffffffffffff16837f2f8788117e7eff1d82e926ec794901d17c78024a50270940304540a733656f0d60405160405180910390a45b5050565b600061329a836000018373ffffffffffffffffffffffffffffffffffffffff1660001b6133c5565b905092915050565b6132ac8282611c61565b156133805760006065600084815260200190815260200160002060000160008373ffffffffffffffffffffffffffffffffffffffff1673ffffffffffffffffffffffffffffffffffffffff16815260200190815260200160002060006101000a81548160ff021916908315150217905550613325612d9a565b73ffffffffffffffffffffffffffffffffffffffff168173ffffffffffffffffffffffffffffffffffffffff16837ff6391f5c32d9c69d2a47ea670b442974b53935d1edc7fd64eb21e047a839171b60405160405180910390a45b5050565b60006133ac836000018373ffffffffffffffffffffffffffffffffffffffff1660001b6136b6565b905092915050565b600081600001805490509050919050565b60006133d183836137ca565b61342a57826000018290806001815401808255809150506001900390600052602060002001600090919091909150558260000180549050836001016000848152602001908152602001600020819055506001905061342f565b600090505b92915050565b606061345b8273ffffffffffffffffffffffffffffffffffffffff16601460ff16613462565b9050919050565b6060600060028360026134759190614af1565b61347f9190614512565b67ffffffffffffffff81111561349857613497614176565b5b6040519080825280601f01601f1916602001820160405280156134ca5781602001600182028036833780820191505090505b5090507f30000000000000000000000000000000000000000000000000000000000000008160008151811061350257613501614546565b5b60200101907effffffffffffffffffffffffffffffffffffffffffffffffffffffffffffff1916908160001a9053507f78000000000000000000000000000000000000000000000000000000000000008160018151811061356657613565614546565b5b60200101907effffffffffffffffffffffffffffffffffffffffffffffffffffffffffffff1916908160001a905350600060018460026135a69190614af1565b6135b09190614512565b90505b6001811115613650577f3031323334353637383961626364656600000000000000000000000000000000600f8616601081106135f2576135f1614546565b5b1a60f81b82828151811061360957613608614546565b5b60200101907effffffffffffffffffffffffffffffffffffffffffffffffffffffffffffff1916908160001a905350600485901c94508061364990615c49565b90506135b3565b5060008414613694576040517f08c379a000000000000000000000000000000000000000000000000000000000815260040161368b90615cbe565b60405180910390fd5b8091505092915050565b60606136ad84846000856137ed565b90509392505050565b600080836001016000848152602001908152602001600020549050600081146137be5760006001826136e89190614575565b90506000600186600001805490506137009190614575565b905081811461376f57600086600001828154811061372157613720614546565b5b906000526020600020015490508087600001848154811061374557613744614546565b5b90600052602060002001819055508387600101600083815260200190815260200160002081905550505b8560000180548061378357613782615cde565b5b6001900381819060005260206000200160009055905585600101600086815260200190815260200160002060009055600193505050506137c4565b60009150505b92915050565b600080836001016000848152602001908152602001600020541415905092915050565b606082471015613832576040517f08c379a000000000000000000000000000000000000000000000000000000000815260040161382990615d7f565b60405180910390fd5b6000808673ffffffffffffffffffffffffffffffffffffffff16858760405161385b9190615ddb565b60006040518083038185875af1925050503d8060008114613898576040519150601f19603f3d011682016040523d82523d6000602084013e61389d565b606091505b50915091506138ae878383876138ba565b92505050949350505050565b6060831561391c576000835103613914576138d48561392f565b613913576040517f08c379a000000000000000000000000000000000000000000000000000000000815260040161390a90615e3e565b60405180910390fd5b5b829050613927565b6139268383613952565b5b949350505050565b6000808273ffffffffffffffffffffffffffffffffffffffff163b119050919050565b6000825111156139655781518083602001fd5b806040517f08c379a0000000000000000000000000000000000000000000000000000000008152600401613999919061414f565b60405180910390fd5b6040518060a001604052806005905b60608152602001906001900390816139b15790505090565b600081905092915050565b7f5745544800000000000000000000000000000000000000000000000000000000600082015250565b6000613a0a6004836139c9565b9150613a15826139d4565b600482019050919050565b6000613a2b826139fd565b9150819050919050565b600082825260208201905092915050565b7f4e6f742070617961626c65206f6e207468697320636861696e00000000000000600082015250565b6000613a7c601983613a35565b9150613a8782613a46565b602082019050919050565b60006020820190508181036000830152613aab81613a6f565b9050919050565b600081519050919050565b600082825260208201905092915050565b6000819050602082019050919050565b6000819050919050565b613af181613ade565b82525050565b6000613b038383613ae8565b60208301905092915050565b6000602082019050919050565b6000613b2782613ab2565b613b318185613abd565b9350613b3c83613ace565b8060005b83811015613b6d578151613b548882613af7565b9750613b5f83613b0f565b925050600181019050613b40565b5085935050505092915050565b60006020820190508181036000830152613b948184613b1c565b905092915050565b6000604051905090565b600080fd5b600080fd5b60007fffffffff0000000000000000000000000000000000000000000000000000000082169050919050565b613be581613bb0565b8114613bf057600080fd5b50565b600081359050613c0281613bdc565b92915050565b600060208284031215613c1e57613c1d613ba6565b5b6000613c2c84828501613bf3565b91505092915050565b60008115159050919050565b613c4a81613c35565b82525050565b6000602082019050613c656000830184613c41565b92915050565b613c7481613ade565b8114613c7f57600080fd5b50565b600081359050613c9181613c6b565b92915050565b600080fd5b600080fd5b600080fd5b60008083601f840112613cbc57613cbb613c97565b5b8235905067ffffffffffffffff811115613cd957613cd8613c9c565b5b602083019150836001820283011115613cf557613cf4613ca1565b5b9250929050565b600080600060408486031215613d1557613d14613ba6565b5b6000613d2386828701613c82565b935050602084013567ffffffffffffffff811115613d4457613d43613bab565b5b613d5086828701613ca6565b92509250509250925092565b600073ffffffffffffffffffffffffffffffffffffffff82169050919050565b6000613d8782613d5c565b9050919050565b613d9781613d7c565b82525050565b6000602082019050613db26000830184613d8e565b92915050565b613dc181613d7c565b8114613dcc57600080fd5b50565b600081359050613dde81613db8565b92915050565b600060208284031215613dfa57613df9613ba6565b5b6000613e0884828501613dcf565b91505092915050565b6000819050919050565b613e2481613e11565b8114613e2f57600080fd5b50565b600081359050613e4181613e1b565b92915050565b600060208284031215613e5d57613e5c613ba6565b5b6000613e6b84828501613e32565b91505092915050565b613e7d81613e11565b82525050565b6000602082019050613e986000830184613e74565b92915050565b600060208284031215613eb457613eb3613ba6565b5b6000613ec284828501613c82565b91505092915050565b600060059050919050565b600081905092915050565b6000819050919050565b600081519050919050565b600082825260208201905092915050565b60005b83811015613f25578082015181840152602081019050613f0a565b60008484015250505050565b6000601f19601f8301169050919050565b6000613f4d82613eeb565b613f578185613ef6565b9350613f67818560208601613f07565b613f7081613f31565b840191505092915050565b6000613f878383613f42565b905092915050565b6000602082019050919050565b6000613fa782613ecb565b613fb18185613ed6565b935083602082028501613fc385613ee1565b8060005b85811015613fff5784840389528151613fe08582613f7b565b9450613feb83613f8f565b925060208a01995050600181019050613fc7565b50829750879550505050505092915050565b6000602082019050818103600083015261402b8184613f9c565b905092915050565b6000806040838503121561404a57614049613ba6565b5b600061405885828601613e32565b925050602061406985828601613dcf565b9150509250929050565b60008083601f84011261408957614088613c97565b5b8235905067ffffffffffffffff8111156140a6576140a5613c9c565b5b6020830191508360208202830111156140c2576140c1613ca1565b5b9250929050565b600080602083850312156140e0576140df613ba6565b5b600083013567ffffffffffffffff8111156140fe576140fd613bab565b5b61410a85828601614073565b92509250509250929050565b600061412182613eeb565b61412b8185613a35565b935061413b818560208601613f07565b61414481613f31565b840191505092915050565b600060208201905081810360008301526141698184614116565b905092915050565b600080fd5b7f4e487b7100000000000000000000000000000000000000000000000000000000600052604160045260246000fd5b6141ae82613f31565b810181811067ffffffffffffffff821117156141cd576141cc614176565b5b80604052505050565b60006141e0613b9c565b90506141ec82826141a5565b919050565b600067ffffffffffffffff82111561420c5761420b614176565b5b61421582613f31565b9050602081019050919050565b82818337600083830152505050565b600061424461423f846141f1565b6141d6565b9050828152602081018484840111156142605761425f614171565b5b61426b848285614222565b509392505050565b600082601f83011261428857614287613c97565b5b8135614298848260208601614231565b91505092915050565b6000602082840312156142b7576142b6613ba6565b5b600082013567ffffffffffffffff8111156142d5576142d4613bab565b5b6142e184828501614273565b91505092915050565b6142f381613ade565b82525050565b600060208201905061430e60008301846142ea565b92915050565b6000806040838503121561432b5761432a613ba6565b5b600061433985828601613e32565b925050602061434a85828601613c82565b9150509250929050565b6000819050826020600502820111156143705761436f613ca1565b5b92915050565b60008190508260206005028201111561439257614391613ca1565b5b92915050565b6000819050826020600302820111156143b4576143b3613ca1565b5b92915050565b6000819050826020600302820111156143d6576143d5613ca1565b5b92915050565b60008060008060008060008060006102208a8c0312156143ff576143fe613ba6565b5b60008a013567ffffffffffffffff81111561441d5761441c613bab565b5b6144298c828d01614354565b995050602061443a8c828d01614376565b98505060c061444b8c828d01614398565b97505061012061445d8c828d01613dcf565b96505061014061446f8c828d01613dcf565b9550506101606144818c828d01613dcf565b9450506101806144938c828d01613dcf565b9350506101a08a013567ffffffffffffffff8111156144b5576144b4613bab565b5b6144c18c828d016143ba565b9250506101c06144d38c828d01614398565b9150509295985092959850929598565b7f4e487b7100000000000000000000000000000000000000000000000000000000600052601160045260246000fd5b600061451d82613ade565b915061452883613ade565b92508282019050808211156145405761453f6144e3565b5b92915050565b7f4e487b7100000000000000000000000000000000000000000000000000000000600052603260045260246000fd5b600061458082613ade565b915061458b83613ade565b92508282039050818111156145a3576145a26144e3565b5b92915050565b7f4e487b7100000000000000000000000000000000000000000000000000000000600052602260045260246000fd5b600060028204905060018216806145f057607f821691505b602082108103614603576146026145a9565b5b50919050565b600061461482613ade565b91507fffffffffffffffffffffffffffffffffffffffffffffffffffffffffffffffff8203614646576146456144e3565b5b600182019050919050565b600061465d83856139c9565b935061466a838584614222565b82840190509392505050565b6000614683828486614651565b91508190509392505050565b600061469b8385613a35565b93506146a8838584614222565b6146b183613f31565b840190509392505050565b60006080820190506146d16000830188613d8e565b81810360208301526146e481868861468f565b90506146f360408301856142ea565b6147006060830184613d8e565b9695505050505050565b7f5742544300000000000000000000000000000000000000000000000000000000600082015250565b60006147406004836139c9565b915061474b8261470a565b600482019050919050565b600061476182614733565b9150819050919050565b7f5553444300000000000000000000000000000000000000000000000000000000600082015250565b60006147a16004836139c9565b91506147ac8261476b565b600482019050919050565b60006147c282614794565b9150819050919050565b7f5553445400000000000000000000000000000000000000000000000000000000600082015250565b60006148026004836139c9565b915061480d826147cc565b600482019050919050565b6000614823826147f5565b9150819050919050565b600080fd5b600080fd5b600080fd5b6000823560016060038336030381126148585761485761482d565b5b80830191505092915050565b60008235600160a0038336030381126148805761487f61482d565b5b80830191505092915050565b600080833560016020038436030381126148a9576148a861482d565b5b80840192508235915067ffffffffffffffff8211156148cb576148ca614832565b5b6020830192506001820236038313156148e7576148e6614837565b5b509250929050565b600082825260208201905092915050565b600061490c83856148ef565b9350614919838584614222565b61492283613f31565b840190509392505050565b60006040820190508181036000830152614948818587614900565b905061495760208301846142ea565b949350505050565b60008151905061496e81613c6b565b92915050565b60006020828403121561498a57614989613ba6565b5b60006149988482850161495f565b91505092915050565b60008160e01c9050919050565b600060033d11156149cd5760046000803e6149ca6000516149a1565b90505b90565b600060443d10614a5d576149e2613b9c565b60043d036004823e80513d602482011167ffffffffffffffff82111715614a0a575050614a5d565b808201805167ffffffffffffffff811115614a285750505050614a5d565b80602083010160043d038501811115614a45575050505050614a5d565b614a54826020018501866141a5565b82955050505050505b90565b6000608082019050614a756000830187613d8e565b614a826020830186613d8e565b614a8f60408301856142ea565b8181036060830152614aa18184614116565b905095945050505050565b6000608082019050614ac16000830187613d8e565b614ace6020830186613d8e565b614adb60408301856142ea565b614ae860608301846142ea565b95945050505050565b6000614afc82613ade565b9150614b0783613ade565b9250828202614b1581613ade565b91508282048414831517614b2c57614b2b6144e3565b5b5092915050565b7f4e487b7100000000000000000000000000000000000000000000000000000000600052601260045260246000fd5b6000614b6d82613ade565b9150614b7883613ade565b925082614b8857614b87614b33565b5b828204905092915050565b7f726f757465720000000000000000000000000000000000000000000000000000600082015250565b6000614bc96006836139c9565b9150614bd482614b93565b600682019050919050565b6000614bea82614bbc565b9150819050919050565b60007fff0000000000000000000000000000000000000000000000000000000000000082169050919050565b6000819050919050565b614c3b614c3682614bf4565b614c20565b82525050565b6000614c4d8284614c2a565b60018201915081905092915050565b600060a082019050614c716000830189613d8e565b614c7e60208301886142ea565b614c8b60408301876142ea565b8181036060830152614c9e818587614900565b9050614cad6080830184613c41565b979650505050505050565b600081519050919050565b6000614cce82614cb8565b614cd881856148ef565b9350614ce8818560208601613f07565b614cf181613f31565b840191505092915050565b600081519050919050565b600082825260208201905092915050565b6000819050602082019050919050565b600082825260208201905092915050565b6000614d4482614cb8565b614d4e8185614d28565b9350614d5e818560208601613f07565b614d6781613f31565b840191505092915050565b6000614d7e8383614d39565b905092915050565b6000602082019050919050565b6000614d9e82614cfc565b614da88185614d07565b935083602082028501614dba85614d18565b8060005b85811015614df65784840389528151614dd78582614d72565b9450614de283614d86565b925060208a01995050600181019050614dbe565b50829750879550505050505092915050565b60006060820190508181036000830152614e228186614cc3565b90508181036020830152614e368185614d93565b9050614e4560408301846142ea565b949350505050565b6000604082019050614e626000830185613d8e565b8181036020830152614e748184614116565b90509392505050565b6000614e8882613eeb565b614e9281856139c9565b9350614ea2818560208601613f07565b80840191505092915050565b6000614eba8284614e7d565b915081905092915050565b7f416363657373436f6e74726f6c3a2063616e206f6e6c792072656e6f756e636560008201527f20726f6c657320666f722073656c660000000000000000000000000000000000602082015250565b6000614f21602f83613a35565b9150614f2c82614ec5565b604082019050919050565b60006020820190508181036000830152614f5081614f14565b9050919050565b7f496e697469616c697a61626c653a20636f6e747261637420697320616c72656160008201527f647920696e697469616c697a6564000000000000000000000000000000000000602082015250565b6000614fb3602e83613a35565b9150614fbe82614f57565b604082019050919050565b60006020820190508181036000830152614fe281614fa6565b9050919050565b600080833560016020038436030381126150065761500561482d565b5b80840192508235915067ffffffffffffffff82111561502857615027614832565b5b60208301925060018202360383131561504457615043614837565b5b509250929050565b600082905092915050565b60008190508160005260206000209050919050565b60006020601f8301049050919050565b600082821b905092915050565b6000600883026150b97fffffffffffffffffffffffffffffffffffffffffffffffffffffffffffffffff8261507c565b6150c3868361507c565b95508019841693508086168417925050509392505050565b6000819050919050565b60006151006150fb6150f684613ade565b6150db565b613ade565b9050919050565b6000819050919050565b61511a836150e5565b61512e61512682615107565b848454615089565b825550505050565b600090565b615143615136565b61514e818484615111565b505050565b5b818110156151725761516760008261513b565b600181019050615154565b5050565b601f8211156151b75761518881615057565b6151918461506c565b810160208510156151a0578190505b6151b46151ac8561506c565b830182615153565b50505b505050565b600082821c905092915050565b60006151da600019846008026151bc565b1980831691505092915050565b60006151f383836151c9565b9150826002028217905092915050565b61520d838361504c565b67ffffffffffffffff81111561522657615225614176565b5b61523082546145d8565b61523b828285615176565b6000601f83116001811461526a5760008415615258578287013590505b61526285826151e7565b8655506152ca565b601f19841661527886615057565b60005b828110156152a05784890135825560018201915060208501945060208101905061527b565b868310156152bd57848901356152b9601f8916826151c9565b8355505b6001600288020188555050505b50505050505050565b600081546152e0816145d8565b6152ea81866139c9565b94506001821660008114615305576001811461531a5761534d565b60ff198316865281151582028601935061534d565b61532385615057565b60005b8381101561534557815481890152600182019150602081019050615326565b838801955050505b50505092915050565b600061536282846152d3565b915081905092915050565b7f71756f7465720000000000000000000000000000000000000000000000000000600082015250565b60006153a36006836139c9565b91506153ae8261536d565b600682019050919050565b60006153c482615396565b9150819050919050565b7f7377617070657200000000000000000000000000000000000000000000000000600082015250565b60006154046007836139c9565b915061540f826153ce565b600782019050919050565b6000615425826153f7565b9150819050919050565b600060059050919050565b6000819050919050565b60006154508385613ef6565b935061545d838584614222565b61546683613f31565b840190509392505050565b600061547e848484615444565b90509392505050565b600080fd5b600080fd5b600080fd5b600080833560016020038436030381126154b3576154b2615491565b5b83810192508235915060208301925067ffffffffffffffff8211156154db576154da615487565b5b6001820236038313156154f1576154f061548c565b5b509250929050565b6000602082019050919050565b60006155118261542f565b61551b8185613ed6565b93508360208202850161552d8561543a565b8060005b858110156155735784840389526155488284615496565b615553868284615471565b955061555e846154f9565b935060208b019a505050600181019050615531565b50829750879550505050505092915050565b600060059050919050565b600081905092915050565b6000819050919050565b6155ae81613d7c565b82525050565b60006155c083836155a5565b60208301905092915050565b60006155db6020840184613dcf565b905092915050565b6000602082019050919050565b6155f981615585565b6156038184615590565b925061560e8261559b565b8060005b838110156156475761562482846155cc565b61562e87826155b4565b9650615639836155e3565b925050600181019050615612565b505050505050565b600060039050919050565b600081905092915050565b6000819050919050565b6000602082019050919050565b6156858161564f565b61568f818461565a565b925061569a82615665565b8060005b838110156156d3576156b082846155cc565b6156ba87826155b4565b96506156c58361566f565b92505060018101905061569e565b505050505050565b600060039050919050565b600081905092915050565b6000819050919050565b60008154615708816145d8565b6157128186613ef6565b9450600182166000811461572d576001811461574357615776565b60ff198316865281151560200286019350615776565b61574c85615057565b60005b8381101561576e5781548189015260018201915060208101905061574f565b808801955050505b50505092915050565b600061578b83836156fb565b905092915050565b6000600182019050919050565b60006157ab826156db565b6157b581856156e6565b9350836020820285016157c7856156f1565b8060005b85811015615802578484038952816157e3858261577f565b94506157ee83615793565b925060208a019950506001810190506157cb565b50829750879550505050505092915050565b60006102408201905061582a600083018d613d8e565b818103602083015261583c818c615506565b905061584b604083018b6155f0565b61585860e083018a61567c565b615866610140830189613d8e565b615874610160830188613d8e565b615882610180830187613d8e565b6158906101a0830186613d8e565b8181036101c08301526158a381856157a0565b90506158b36101e083018461567c565b9b9a5050505050505050505050565b6000819050919050565b600060ff82169050919050565b60006158f46158ef6158ea846158c2565b6150db565b6158cc565b9050919050565b615904816158d9565b82525050565b600060208201905061591f60008301846158fb565b92915050565b600060608201905061593a6000830187613d8e565b818103602083015261594d81858761468f565b905061595c60408301846142ea565b95945050505050565b7f5265656e7472616e637947756172643a207265656e7472616e742063616c6c00600082015250565b600061599b601f83613a35565b91506159a682615965565b602082019050919050565b600060208201905081810360008301526159ca8161598e565b9050919050565b60006040820190506159e66000830185613d8e565b6159f360208301846142ea565b9392505050565b7f496e697469616c697a61626c653a20636f6e7472616374206973206e6f74206960008201527f6e697469616c697a696e67000000000000000000000000000000000000000000602082015250565b6000615a56602b83613a35565b9150615a61826159fa565b604082019050919050565b60006020820190508181036000830152615a8581615a49565b9050919050565b7f416363657373436f6e74726f6c3a206163636f756e7420000000000000000000600082015250565b6000615ac26017836139c9565b9150615acd82615a8c565b601782019050919050565b7f206973206d697373696e6720726f6c6520000000000000000000000000000000600082015250565b6000615b0e6011836139c9565b9150615b1982615ad8565b601182019050919050565b6000615b2f82615ab5565b9150615b3b8285614e7d565b9150615b4682615b01565b9150615b528284614e7d565b91508190509392505050565b615b6781613c35565b8114615b7257600080fd5b50565b600081519050615b8481615b5e565b92915050565b600060208284031215615ba057615b9f613ba6565b5b6000615bae84828501615b75565b91505092915050565b7f5361666545524332303a204552433230206f7065726174696f6e20646964206e60008201527f6f74207375636365656400000000000000000000000000000000000000000000602082015250565b6000615c13602a83613a35565b9150615c1e82615bb7565b604082019050919050565b60006020820190508181036000830152615c4281615c06565b9050919050565b6000615c5482613ade565b915060008203615c6757615c666144e3565b5b600182039050919050565b7f537472696e67733a20686578206c656e67746820696e73756666696369656e74600082015250565b6000615ca8602083613a35565b9150615cb382615c72565b602082019050919050565b60006020820190508181036000830152615cd781615c9b565b9050919050565b7f4e487b7100000000000000000000000000000000000000000000000000000000600052603160045260246000fd5b7f416464726573733a20696e73756666696369656e742062616c616e636520666f60008201527f722063616c6c0000000000000000000000000000000000000000000000000000602082015250565b6000615d69602683613a35565b9150615d7482615d0d565b604082019050919050565b60006020820190508181036000830152615d9881615d5c565b9050919050565b600081905092915050565b6000615db582614cb8565b615dbf8185615d9f565b9350615dcf818560208601613f07565b80840191505092915050565b6000615de78284615daa565b915081905092915050565b7f416464726573733a2063616c6c20746f206e6f6e2d636f6e7472616374000000600082015250565b6000615e28601d83613a35565b9150615e3382615df2565b602082019050919050565b60006020820190508181036000830152615e5781615e1b565b905091905056fea26469706673582212202d25f13f28a36bf6b2d3184f9ac2ffac8c311a16d458e191a402f3927284b2ea64736f6c63430008120033",
  "linkReferences": {},
  "deployedLinkReferences": {}
}