{
  "_format": "hh-sol-artifact-1",
  "contractName": "ColateralContract2",
  "sourceName": "contracts/ColateralContract2.sol",
  "abi": [
    {
      "inputs": [],
      "name": "AmountOutMinimumTooLow",
      "type": "error"
    },
    {
      "inputs": [],
      "name": "RescueAddressInvalid",
      "type": "error"
    },
    {
      "inputs": [],
      "name": "WithdrawAddressInvalid",
      "type": "error"
    },
    {
      "anonymous": false,
      "inputs": [
        {
          "indexed": false,
          "internalType": "address",
          "name": "sender",
          "type": "address"
        },
        {
          "indexed": false,
          "internalType": "string[5]",
          "name": "_tokenNames",
          "type": "string[5]"
        },
        {
          "indexed": false,
          "internalType": "address[5]",
          "name": "_tokenAddresses",
          "type": "address[5]"
        },
        {
          "indexed": false,
          "internalType": "address[3]",
          "name": "_aconcagua",
          "type": "address[3]"
        },
        {
          "indexed": false,
          "internalType": "address",
          "name": "_rescueWalletAddress",
          "type": "address"
        },
        {
          "indexed": false,
          "internalType": "address",
          "name": "_withdrawWalletAddress",
          "type": "address"
        },
        {
          "indexed": false,
          "internalType": "address",
          "name": "_firstLenderLiq",
          "type": "address"
        },
        {
          "indexed": false,
          "internalType": "address",
          "name": "_secondLenderLiq",
          "type": "address"
        },
        {
          "indexed": false,
          "internalType": "string[2]",
          "name": "_contractKeys",
          "type": "string[2]"
        },
        {
          "indexed": false,
          "internalType": "address[2]",
          "name": "_contractAddresses",
          "type": "address[2]"
        }
      ],
      "name": "Initialize",
      "type": "event"
    },
    {
      "anonymous": false,
      "inputs": [
        {
          "indexed": false,
          "internalType": "uint8",
          "name": "version",
          "type": "uint8"
        }
      ],
      "name": "Initialized",
      "type": "event"
    },
    {
      "anonymous": false,
      "inputs": [
        {
          "indexed": false,
          "internalType": "address",
          "name": "tokenIn",
          "type": "address"
        },
        {
          "indexed": false,
          "internalType": "address",
          "name": "tokenOut",
          "type": "address"
        },
        {
          "indexed": false,
          "internalType": "uint256",
          "name": "amountIn",
          "type": "uint256"
        },
        {
          "indexed": false,
          "internalType": "uint256",
          "name": "quotedAmountOut",
          "type": "uint256"
        }
      ],
      "name": "Quote",
      "type": "event"
    },
    {
      "anonymous": false,
      "inputs": [
        {
          "indexed": false,
          "internalType": "address",
          "name": "tokenIn",
          "type": "address"
        },
        {
          "indexed": false,
          "internalType": "address",
          "name": "tokenOut",
          "type": "address"
        },
        {
          "indexed": false,
          "internalType": "uint256",
          "name": "amountIn",
          "type": "uint256"
        },
        {
          "indexed": false,
          "internalType": "string",
          "name": "msg",
          "type": "string"
        }
      ],
      "name": "QuoteError",
      "type": "event"
    },
    {
      "anonymous": false,
      "inputs": [
        {
          "indexed": false,
          "internalType": "address",
          "name": "sender",
          "type": "address"
        },
        {
          "indexed": false,
          "internalType": "string",
          "name": "token",
          "type": "string"
        },
        {
          "indexed": false,
          "internalType": "uint256",
          "name": "amount",
          "type": "uint256"
        },
        {
          "indexed": false,
          "internalType": "address",
          "name": "to",
          "type": "address"
        }
      ],
      "name": "Rescue",
      "type": "event"
    },
    {
      "anonymous": false,
      "inputs": [
        {
          "indexed": true,
          "internalType": "bytes32",
          "name": "role",
          "type": "bytes32"
        },
        {
          "indexed": true,
          "internalType": "bytes32",
          "name": "previousAdminRole",
          "type": "bytes32"
        },
        {
          "indexed": true,
          "internalType": "bytes32",
          "name": "newAdminRole",
          "type": "bytes32"
        }
      ],
      "name": "RoleAdminChanged",
      "type": "event"
    },
    {
      "anonymous": false,
      "inputs": [
        {
          "indexed": true,
          "internalType": "bytes32",
          "name": "role",
          "type": "bytes32"
        },
        {
          "indexed": true,
          "internalType": "address",
          "name": "account",
          "type": "address"
        },
        {
          "indexed": true,
          "internalType": "address",
          "name": "sender",
          "type": "address"
        }
      ],
      "name": "RoleGranted",
      "type": "event"
    },
    {
      "anonymous": false,
      "inputs": [
        {
          "indexed": true,
          "internalType": "bytes32",
          "name": "role",
          "type": "bytes32"
        },
        {
          "indexed": true,
          "internalType": "address",
          "name": "account",
          "type": "address"
        },
        {
          "indexed": true,
          "internalType": "address",
          "name": "sender",
          "type": "address"
        }
      ],
      "name": "RoleRevoked",
      "type": "event"
    },
    {
      "anonymous": false,
      "inputs": [
        {
          "indexed": false,
          "internalType": "address",
          "name": "tokenIn",
          "type": "address"
        },
        {
          "indexed": false,
          "internalType": "address",
          "name": "tokenOut",
          "type": "address"
        },
        {
          "indexed": false,
          "internalType": "uint256",
          "name": "amountIn",
          "type": "uint256"
        },
        {
          "indexed": false,
          "internalType": "uint256",
          "name": "amountOut",
          "type": "uint256"
        }
      ],
      "name": "Swap",
      "type": "event"
    },
    {
      "anonymous": false,
      "inputs": [
        {
          "indexed": true,
          "internalType": "address",
          "name": "tokenIn",
          "type": "address"
        },
        {
          "indexed": true,
          "internalType": "address",
          "name": "tokenOut",
          "type": "address"
        },
        {
          "indexed": false,
          "internalType": "uint256",
          "name": "amountIn",
          "type": "uint256"
        },
        {
          "indexed": false,
          "internalType": "uint256",
          "name": "amountOut",
          "type": "uint256"
        },
        {
          "indexed": false,
          "internalType": "string",
          "name": "reason",
          "type": "string"
        }
      ],
      "name": "SwapError",
      "type": "event"
    },
    {
      "anonymous": false,
      "inputs": [
        {
          "indexed": true,
          "internalType": "address",
          "name": "tokenIn",
          "type": "address"
        },
        {
          "indexed": true,
          "internalType": "address",
          "name": "tokenOut",
          "type": "address"
        },
        {
          "indexed": false,
          "internalType": "uint256",
          "name": "amountIn",
          "type": "uint256"
        }
      ],
      "name": "SwapStarted",
      "type": "event"
    },
    {
      "anonymous": false,
      "inputs": [
        {
          "indexed": false,
          "internalType": "address",
          "name": "sender",
          "type": "address"
        },
        {
          "indexed": false,
          "internalType": "string",
          "name": "token",
          "type": "string"
        },
        {
          "indexed": false,
          "internalType": "uint256",
          "name": "amount",
          "type": "uint256"
        }
      ],
      "name": "Withdraw",
      "type": "event"
    },
    {
      "inputs": [],
      "name": "ACONCAGUA_ROLE",
      "outputs": [
        {
          "internalType": "bytes32",
          "name": "",
          "type": "bytes32"
        }
      ],
      "stateMutability": "view",
      "type": "function"
    },
    {
      "inputs": [],
      "name": "DEFAULT_ADMIN_ROLE",
      "outputs": [
        {
          "internalType": "bytes32",
          "name": "",
          "type": "bytes32"
        }
      ],
      "stateMutability": "view",
      "type": "function"
    },
    {
      "inputs": [],
      "name": "LENDER_LIQ_ROLE",
      "outputs": [
        {
          "internalType": "bytes32",
          "name": "",
          "type": "bytes32"
        }
      ],
      "stateMutability": "view",
      "type": "function"
    },
    {
      "inputs": [],
      "name": "RESCUER_ROLE",
      "outputs": [
        {
          "internalType": "bytes32",
          "name": "",
          "type": "bytes32"
        }
      ],
      "stateMutability": "view",
      "type": "function"
    },
    {
      "inputs": [],
      "name": "SWAPPER_ROLE",
      "outputs": [
        {
          "internalType": "bytes32",
          "name": "",
          "type": "bytes32"
        }
      ],
      "stateMutability": "view",
      "type": "function"
    },
    {
      "inputs": [
        {
          "internalType": "string",
          "name": "_tokenSymbol",
          "type": "string"
        }
      ],
      "name": "balanceOf",
      "outputs": [
        {
          "internalType": "uint256",
          "name": "",
          "type": "uint256"
        }
      ],
      "stateMutability": "view",
      "type": "function"
    },
    {
      "inputs": [
        {
          "internalType": "string",
          "name": "",
          "type": "string"
        }
      ],
      "name": "contractAddresses",
      "outputs": [
        {
          "internalType": "address",
          "name": "",
          "type": "address"
        }
      ],
      "stateMutability": "view",
      "type": "function"
    },
    {
      "inputs": [
        {
          "internalType": "uint256",
          "name": "",
          "type": "uint256"
        }
      ],
      "name": "contractKeys",
      "outputs": [
        {
          "internalType": "string",
          "name": "",
          "type": "string"
        }
      ],
      "stateMutability": "view",
      "type": "function"
    },
    {
      "inputs": [],
      "name": "getBalances",
      "outputs": [
        {
          "internalType": "uint256[]",
          "name": "",
          "type": "uint256[]"
        }
      ],
      "stateMutability": "view",
      "type": "function"
    },
    {
      "inputs": [
        {
          "internalType": "bytes32",
          "name": "role",
          "type": "bytes32"
        }
      ],
      "name": "getRoleAdmin",
      "outputs": [
        {
          "internalType": "bytes32",
          "name": "",
          "type": "bytes32"
        }
      ],
      "stateMutability": "view",
      "type": "function"
    },
    {
      "inputs": [
        {
          "internalType": "bytes32",
          "name": "role",
          "type": "bytes32"
        },
        {
          "internalType": "uint256",
          "name": "index",
          "type": "uint256"
        }
      ],
      "name": "getRoleMember",
      "outputs": [
        {
          "internalType": "address",
          "name": "",
          "type": "address"
        }
      ],
      "stateMutability": "view",
      "type": "function"
    },
    {
      "inputs": [
        {
          "internalType": "bytes32",
          "name": "role",
          "type": "bytes32"
        }
      ],
      "name": "getRoleMemberCount",
      "outputs": [
        {
          "internalType": "uint256",
          "name": "",
          "type": "uint256"
        }
      ],
      "stateMutability": "view",
      "type": "function"
    },
    {
      "inputs": [],
      "name": "getTokenNames",
      "outputs": [
        {
          "internalType": "string[5]",
          "name": "",
          "type": "string[5]"
        }
      ],
      "stateMutability": "view",
      "type": "function"
    },
    {
      "inputs": [
        {
          "internalType": "bytes32",
          "name": "role",
          "type": "bytes32"
        },
        {
          "internalType": "address",
          "name": "account",
          "type": "address"
        }
      ],
      "name": "grantRole",
      "outputs": [],
      "stateMutability": "nonpayable",
      "type": "function"
    },
    {
      "inputs": [
        {
          "internalType": "bytes32",
          "name": "role",
          "type": "bytes32"
        },
        {
          "internalType": "address",
          "name": "account",
          "type": "address"
        }
      ],
      "name": "hasRole",
      "outputs": [
        {
          "internalType": "bool",
          "name": "",
          "type": "bool"
        }
      ],
      "stateMutability": "view",
      "type": "function"
    },
    {
      "inputs": [
        {
          "internalType": "address",
          "name": "_validator",
          "type": "address"
        },
        {
          "internalType": "string[5]",
          "name": "_tokenNames",
          "type": "string[5]"
        },
        {
          "internalType": "address[5]",
          "name": "_tokenAddresses",
          "type": "address[5]"
        },
        {
          "internalType": "address[3]",
          "name": "_aconcagua",
          "type": "address[3]"
        },
        {
          "internalType": "address",
          "name": "_rescueWalletAddress",
          "type": "address"
        },
        {
          "internalType": "address",
          "name": "_withdrawWalletAddress",
          "type": "address"
        },
        {
          "internalType": "address",
          "name": "_firstLenderLiq",
          "type": "address"
        },
        {
          "internalType": "address",
          "name": "_secondLenderLiq",
          "type": "address"
        },
        {
          "internalType": "string[2]",
          "name": "_contractKeys",
          "type": "string[2]"
        },
        {
          "internalType": "address[2]",
          "name": "_contractAddresses",
          "type": "address[2]"
        }
      ],
      "name": "initialize",
      "outputs": [],
      "stateMutability": "nonpayable",
      "type": "function"
    },
    {
      "inputs": [
        {
          "internalType": "bytes32",
          "name": "role",
          "type": "bytes32"
        },
        {
          "internalType": "address",
          "name": "account",
          "type": "address"
        }
      ],
      "name": "renounceRole",
      "outputs": [],
      "stateMutability": "nonpayable",
      "type": "function"
    },
    {
      "inputs": [
        {
          "internalType": "uint256",
          "name": "_amount",
          "type": "uint256"
        },
        {
          "internalType": "string",
          "name": "_tokenSymbol",
          "type": "string"
        }
      ],
      "name": "rescue",
      "outputs": [],
      "stateMutability": "nonpayable",
      "type": "function"
    },
    {
      "inputs": [],
      "name": "rescueWalletAddress",
      "outputs": [
        {
          "internalType": "address",
          "name": "",
          "type": "address"
        }
      ],
      "stateMutability": "view",
      "type": "function"
    },
    {
      "inputs": [
        {
          "internalType": "bytes32",
          "name": "role",
          "type": "bytes32"
        },
        {
          "internalType": "address",
          "name": "account",
          "type": "address"
        }
      ],
      "name": "revokeRole",
      "outputs": [],
      "stateMutability": "nonpayable",
      "type": "function"
    },
    {
      "inputs": [
        {
          "internalType": "address",
          "name": "_rescueWalletAddress",
          "type": "address"
        }
      ],
      "name": "setRescueWalletAddress",
      "outputs": [],
      "stateMutability": "nonpayable",
      "type": "function"
    },
    {
      "inputs": [
        {
          "internalType": "address",
          "name": "_withdrawWalletAddress",
          "type": "address"
        }
      ],
      "name": "setWithdrawWalletAddress",
      "outputs": [],
      "stateMutability": "nonpayable",
      "type": "function"
    },
    {
      "inputs": [
        {
          "internalType": "bytes4",
          "name": "interfaceId",
          "type": "bytes4"
        }
      ],
      "name": "supportsInterface",
      "outputs": [
        {
          "internalType": "bool",
          "name": "",
          "type": "bool"
        }
      ],
      "stateMutability": "view",
      "type": "function"
    },
    {
      "inputs": [
        {
          "components": [
            {
              "components": [
                {
                  "internalType": "bytes",
                  "name": "path",
                  "type": "bytes"
                },
                {
                  "internalType": "address",
                  "name": "recipient",
                  "type": "address"
                },
                {
                  "internalType": "uint256",
                  "name": "deadline",
                  "type": "uint256"
                },
                {
                  "internalType": "uint256",
                  "name": "amountIn",
                  "type": "uint256"
                },
                {
                  "internalType": "uint256",
                  "name": "amountOutMinimum",
                  "type": "uint256"
                }
              ],
              "internalType": "struct ISwapRouter.ExactInputParams",
              "name": "params",
              "type": "tuple"
            },
            {
              "internalType": "address",
              "name": "tokenIn",
              "type": "address"
            },
            {
              "internalType": "address",
              "name": "tokenOut",
              "type": "address"
            }
          ],
          "internalType": "struct IColateralContract2.SwapParams[]",
          "name": "swapsParams",
          "type": "tuple[]"
        }
      ],
      "name": "swapExactInputs",
      "outputs": [],
      "stateMutability": "nonpayable",
      "type": "function"
    },
    {
      "inputs": [
        {
          "internalType": "uint256",
          "name": "",
          "type": "uint256"
        }
      ],
      "name": "tokenNames",
      "outputs": [
        {
          "internalType": "string",
          "name": "",
          "type": "string"
        }
      ],
      "stateMutability": "view",
      "type": "function"
    },
    {
      "inputs": [
        {
          "internalType": "string",
          "name": "",
          "type": "string"
        }
      ],
      "name": "tokenTable",
      "outputs": [
        {
          "internalType": "address",
          "name": "",
          "type": "address"
        }
      ],
      "stateMutability": "view",
      "type": "function"
    },
    {
      "inputs": [],
      "name": "version",
      "outputs": [
        {
          "internalType": "string",
          "name": "",
          "type": "string"
        }
      ],
      "stateMutability": "pure",
      "type": "function"
    },
    {
      "inputs": [
        {
          "internalType": "uint256",
          "name": "_amount",
          "type": "uint256"
        },
        {
          "internalType": "string",
          "name": "_tokenSymbol",
          "type": "string"
        }
      ],
      "name": "withdraw",
      "outputs": [],
      "stateMutability": "nonpayable",
      "type": "function"
    },
    {
      "inputs": [],
      "name": "withdrawWalletAddress",
      "outputs": [
        {
          "internalType": "address",
          "name": "",
          "type": "address"
        }
      ],
      "stateMutability": "view",
      "type": "function"
    },
    {
      "stateMutability": "payable",
      "type": "receive"
    }
  ],
  "bytecode": "0x608060405234801561001057600080fd5b5061568f80620000216000396000f3fe6080604052600436106101c55760003560e01c806355452d04116100f7578063ca15c87311610095578063de6bd68711610064578063de6bd68714610768578063df668eca146107a5578063e5df800a146107d0578063ee67cc2a146107fb576102b2565b8063ca15c873146106b0578063d00411c9146106ed578063d547741f14610716578063dc048cf21461073f576102b2565b80639010d07c116100d15780639010d07c146105e057806391d148541461061d578063a217fddf1461065a578063b14ec10114610685576102b2565b806355452d041461054f578063713725441461058c57806382828cbe146105b7576102b2565b80632f2ff15d1161016457806332cc815d1161013e57806332cc815d1461049357806335ee5f87146104be57806336568abe146104fb57806354fd4d5014610524576102b2565b80632f2ff15d146104045780632ffe99421461042d578063310495ab14610456576102b2565b806315ac7358116101a057806315ac735814610348578063212f603914610373578063248a9ca31461039c5780632ad753e4146103d9576102b2565b8062113e08146102b757806301ffc9a7146102e25780630828c4041461031f576102b2565b366102b257601e4603610275576101026040516101e19061310b565b908152602001604051809103902060009054906101000a900473ffffffffffffffffffffffffffffffffffffffff1673ffffffffffffffffffffffffffffffffffffffff1663d0e30db0346040518263ffffffff1660e01b81526004016000604051808303818588803b15801561025757600080fd5b505af115801561026b573d6000803e3d6000fd5b50505050506102b0565b6040517f08c379a00000000000000000000000000000000000000000000000000000000081526004016102a79061317d565b60405180910390fd5b005b600080fd5b3480156102c357600080fd5b506102cc610838565b6040516102d99190613265565b60405180910390f35b3480156102ee57600080fd5b50610309600480360381019061030491906132f3565b6109b0565b604051610316919061333b565b60405180910390f35b34801561032b57600080fd5b50610346600480360381019061034191906133e7565b610a2a565b005b34801561035457600080fd5b5061035d610b42565b60405161036a9190613488565b60405180910390f35b34801561037f57600080fd5b5061039a600480360381019061039591906134cf565b610b69565b005b3480156103a857600080fd5b506103c360048036038101906103be9190613532565b610c3f565b6040516103d0919061356e565b60405180910390f35b3480156103e557600080fd5b506103ee610c5f565b6040516103fb91906136cf565b60405180910390f35b34801561041057600080fd5b5061042b600480360381019061042691906136f1565b610d2c565b005b34801561043957600080fd5b50610454600480360381019061044f9190613787565b610d4d565b005b34801561046257600080fd5b5061047d600480360381019061047891906137d4565b6114b4565b60405161048a919061383a565b60405180910390f35b34801561049f57600080fd5b506104a8611557565b6040516104b5919061356e565b60405180910390f35b3480156104ca57600080fd5b506104e560048036038101906104e0919061398c565b61157b565b6040516104f291906139e4565b60405180910390f35b34801561050757600080fd5b50610522600480360381019061051d91906136f1565b611642565b005b34801561053057600080fd5b506105396116c5565b604051610546919061383a565b60405180910390f35b34801561055b57600080fd5b506105766004803603810190610571919061398c565b611702565b6040516105839190613488565b60405180910390f35b34801561059857600080fd5b506105a161174c565b6040516105ae919061356e565b60405180910390f35b3480156105c357600080fd5b506105de60048036038101906105d99190613aa9565b611770565b005b3480156105ec57600080fd5b5061060760048036038101906106029190613bc4565b611f3d565b6040516106149190613488565b60405180910390f35b34801561062957600080fd5b50610644600480360381019061063f91906136f1565b611f6c565b604051610651919061333b565b60405180910390f35b34801561066657600080fd5b5061066f611fd7565b60405161067c919061356e565b60405180910390f35b34801561069157600080fd5b5061069a611fde565b6040516106a79190613488565b60405180910390f35b3480156106bc57600080fd5b506106d760048036038101906106d29190613532565b612005565b6040516106e491906139e4565b60405180910390f35b3480156106f957600080fd5b50610714600480360381019061070f91906134cf565b612029565b005b34801561072257600080fd5b5061073d600480360381019061073891906136f1565b6120ff565b005b34801561074b57600080fd5b50610766600480360381019061076191906133e7565b612120565b005b34801561077457600080fd5b5061078f600480360381019061078a91906137d4565b61222f565b60405161079c919061383a565b60405180910390f35b3480156107b157600080fd5b506107ba6122d3565b6040516107c7919061356e565b60405180910390f35b3480156107dc57600080fd5b506107e56122f7565b6040516107f2919061356e565b60405180910390f35b34801561080757600080fd5b50610822600480360381019061081d919061398c565b61231b565b60405161082f9190613488565b60405180910390f35b606060006001600561084a9190613c33565b67ffffffffffffffff81111561086357610862613861565b5b6040519080825280602002602001820160405280156108915781602001602082028036833780820191505090505b50905047816000815181106108a9576108a8613c67565b5b6020026020010181815250506000600190505b600581116109a85761097660fd6001836108d69190613c96565b600581106108e7576108e6613c67565b5b0180546108f390613cf9565b80601f016020809104026020016040519081016040528092919081815260200182805461091f90613cf9565b801561096c5780601f106109415761010080835404028352916020019161096c565b820191906000526020600020905b81548152906001019060200180831161094f57829003601f168201915b505050505061157b565b82828151811061098957610988613c67565b5b60200260200101818152505080806109a090613d2a565b9150506108bc565b508091505090565b60007f5a05180f000000000000000000000000000000000000000000000000000000007bffffffffffffffffffffffffffffffffffffffffffffffffffffffff1916827bffffffffffffffffffffffffffffffffffffffffffffffffffffffff19161480610a235750610a2282612365565b5b9050919050565b7fbffb4faf8a508f503a2ca036effd0bc1f82615d3ebfddb934edf718f23672707610a54816123df565b610a5c6123f3565b610acb6101028484604051610a72929190613d97565b908152602001604051809103902060009054906101000a900473ffffffffffffffffffffffffffffffffffffffff1661010360009054906101000a900473ffffffffffffffffffffffffffffffffffffffff1686612442565b7f22cb89e6358014bb27f5658e2b820189f8f4c9e3f7165ecf266edc53be12d9fa610af46124c8565b84848761010360009054906101000a900473ffffffffffffffffffffffffffffffffffffffff16604051610b2c959493929190613ddd565b60405180910390a1610b3c6124d0565b50505050565b61010360009054906101000a900473ffffffffffffffffffffffffffffffffffffffff1681565b7ffaad79a708d82d095486f5a83b18341f12a8f717d3011ab929d43135c1af73e2610b93816123df565b600073ffffffffffffffffffffffffffffffffffffffff168273ffffffffffffffffffffffffffffffffffffffff1603610bf9576040517fd766085d00000000000000000000000000000000000000000000000000000000815260040160405180910390fd5b8161010460006101000a81548173ffffffffffffffffffffffffffffffffffffffff021916908373ffffffffffffffffffffffffffffffffffffffff1602179055505050565b600060656000838152602001908152602001600020600101549050919050565b610c6761308d565b60fd600580602002604051908101604052809291906000905b82821015610d23578382018054610c9690613cf9565b80601f0160208091040260200160405190810160405280929190818152602001828054610cc290613cf9565b8015610d0f5780601f10610ce457610100808354040283529160200191610d0f565b820191906000526020600020905b815481529060010190602001808311610cf257829003601f168201915b505050505081526020019060010190610c80565b50505050905090565b610d3582610c3f565b610d3e816123df565b610d4883836124da565b505050565b7fd2761b102bda9831f4af400cc824b8cecb9cc5c1c85c51acb1479db9735fbfc6610d77816123df565b60005b838390508110156114ae5736848483818110610d9957610d98613c67565b5b9050602002810190610dab9190613e3a565b9050806040016020810190610dc091906134cf565b73ffffffffffffffffffffffffffffffffffffffff16816020016020810190610de991906134cf565b73ffffffffffffffffffffffffffffffffffffffff167f02f79e80ece3e0af8a6ecd3cfbba44f8d0f477e3fd3332dd5f406e0c0e6e4aa4838060000190610e309190613e62565b60600135604051610e4191906139e4565b60405180910390a361010960009054906101000a900473ffffffffffffffffffffffffffffffffffffffff1673ffffffffffffffffffffffffffffffffffffffff1663c4a5849a30836040518363ffffffff1660e01b8152600401610ea79291906140a7565b60006040518083038186803b158015610ebf57600080fd5b505afa158015610ed3573d6000803e3d6000fd5b505050506000816040016020810190610eec91906134cf565b73ffffffffffffffffffffffffffffffffffffffff166370a08231306040518263ffffffff1660e01b8152600401610f249190613488565b602060405180830381865afa158015610f41573d6000803e3d6000fd5b505050506040513d601f19601f82011682018060405250810190610f6591906140ec565b9050600080836020016020810190610f7d91906134cf565b9050610fda81610108604051610f9290614165565b908152602001604051809103902060009054906101000a900473ffffffffffffffffffffffffffffffffffffffff16868060000190610fd19190613e62565b60600135612442565b60008060f81b604051602001610ff091906141c7565b60405160208183030381529060405290506000600167ffffffffffffffff81111561101e5761101d613861565b5b60405190808252806020026020018201604052801561105157816020015b606081526020019060019003908161103c5790505b5090508580600001906110649190613e62565b602001602081019061107691906134cf565b8680600001906110869190613e62565b6060013587806000019061109a9190613e62565b608001358880600001906110ae9190613e62565b80600001906110bd91906141e2565b60006040516020016110d496959493929190614283565b604051602081830303815290604052816000815181106110f7576110f6613c67565b5b602002602001018190525061010860405161111190614165565b908152602001604051809103902060009054906101000a900473ffffffffffffffffffffffffffffffffffffffff1673ffffffffffffffffffffffffffffffffffffffff16633593564c838389806000019061116d9190613e62565b604001356040518463ffffffff1660e01b815260040161118f9392919061441e565b600060405180830381600087803b1580156111a957600080fd5b505af19250505080156111ba575060015b61129c576111c6614470565b806308c379a00361128b57506111da614492565b806111e5575061128d565b8660400160208101906111f891906134cf565b73ffffffffffffffffffffffffffffffffffffffff1687602001602081019061122191906134cf565b73ffffffffffffffffffffffffffffffffffffffff167f26205eb01c8bb7fce6c5de8f590381b9d33aac206b0ce1b7ef655725719937088980600001906112689190613e62565b60600135888560405161127d93929190614522565b60405180910390a350611297565b505b3d6000803e3d6000fd5b611495565b8560400160208101906112af91906134cf565b73ffffffffffffffffffffffffffffffffffffffff166370a08231306040518263ffffffff1660e01b81526004016112e79190613488565b602060405180830381865afa158015611304573d6000803e3d6000fd5b505050506040513d601f19601f8201168201806040525081019061132891906140ec565b935085806000019061133a9190613e62565b608001358410156114155785604001602081019061135891906134cf565b73ffffffffffffffffffffffffffffffffffffffff1686602001602081019061138191906134cf565b73ffffffffffffffffffffffffffffffffffffffff167f26205eb01c8bb7fce6c5de8f590381b9d33aac206b0ce1b7ef655725719937088880600001906113c89190613e62565b60600135876040516113db9291906145ac565b60405180910390a36040517f1792539f00000000000000000000000000000000000000000000000000000000815260040160405180910390fd5b7ffa2dda1cc1b86e41239702756b13effbc1a092b5c57e3ad320fbe4f3b13fe23586602001602081019061144991906134cf565b87604001602081019061145c91906134cf565b88806000019061146c9190613e62565b60600135888861147c9190613c96565b60405161148c94939291906145e8565b60405180910390a15b50505050505080806114a690613d2a565b915050610d7a565b50505050565b60fd81600581106114c457600080fd5b0160009150905080546114d690613cf9565b80601f016020809104026020016040519081016040528092919081815260200182805461150290613cf9565b801561154f5780601f106115245761010080835404028352916020019161154f565b820191906000526020600020905b81548152906001019060200180831161153257829003601f168201915b505050505081565b7ffd37f88a14d7ed985885a1af8f2ad5b64dd7eb00ab89168649791632bb9bb4a681565b6000806101028360405161158f919061465e565b908152602001604051809103902060009054906101000a900473ffffffffffffffffffffffffffffffffffffffff1690508073ffffffffffffffffffffffffffffffffffffffff166370a08231306040518263ffffffff1660e01b81526004016115f99190613488565b602060405180830381865afa158015611616573d6000803e3d6000fd5b505050506040513d601f19601f8201168201806040525081019061163a91906140ec565b915050919050565b61164a6124c8565b73ffffffffffffffffffffffffffffffffffffffff168173ffffffffffffffffffffffffffffffffffffffff16146116b7576040517f08c379a00000000000000000000000000000000000000000000000000000000081526004016116ae906146e7565b60405180910390fd5b6116c1828261250e565b5050565b60606040518060400160405280600581526020017f322e302e30000000000000000000000000000000000000000000000000000000815250905090565b610102818051602081018201805184825260208301602085012081835280955050505050506000915054906101000a900473ffffffffffffffffffffffffffffffffffffffff1681565b7fbffb4faf8a508f503a2ca036effd0bc1f82615d3ebfddb934edf718f2367270781565b60008060019054906101000a900460ff161590508080156117a15750600160008054906101000a900460ff1660ff16105b806117ce57506117b030612542565b1580156117cd5750600160008054906101000a900460ff1660ff16145b5b61180d576040517f08c379a000000000000000000000000000000000000000000000000000000000815260040161180490614779565b60405180910390fd5b60016000806101000a81548160ff021916908360ff160217905550801561184a576001600060016101000a81548160ff0219169083151502179055505b8a61010960006101000a81548173ffffffffffffffffffffffffffffffffffffffff021916908373ffffffffffffffffffffffffffffffffffffffff16021790555061010960009054906101000a900473ffffffffffffffffffffffffffffffffffffffff1673ffffffffffffffffffffffffffffffffffffffff16633d255b118b8b8b8b8b8b8b8b8b6040518a63ffffffff1660e01b81526004016118f899989796959493929190614b48565b60006040518083038186803b15801561191057600080fd5b505afa158015611924573d6000803e3d6000fd5b50505050611930612565565b6119386125b6565b60005b6005811015611a435789816005811061195757611956613c67565b5b60200201602081019061196a91906134cf565b6101028c83600581106119805761197f613c67565b5b6020028101906119909190614be8565b60405161199e929190613d97565b908152602001604051809103902060006101000a81548173ffffffffffffffffffffffffffffffffffffffff021916908373ffffffffffffffffffffffffffffffffffffffff1602179055508a81600581106119fd576119fc613c67565b5b602002810190611a0d9190614be8565b60fd8360058110611a2157611a20613c67565b5b019182611a2f929190614e02565b508080611a3b90613d2a565b91505061193b565b508561010460006101000a81548173ffffffffffffffffffffffffffffffffffffffff021916908373ffffffffffffffffffffffffffffffffffffffff1602179055508661010360006101000a81548173ffffffffffffffffffffffffffffffffffffffff021916908373ffffffffffffffffffffffffffffffffffffffff16021790555060005b6002811015611bc657838160028110611ae757611ae6613c67565b5b602002810190611af79190614be8565b6101058360038110611b0c57611b0b613c67565b5b019182611b1a929190614e02565b50828160028110611b2e57611b2d613c67565b5b602002016020810190611b4191906134cf565b6101086101058360038110611b5957611b58613c67565b5b01604051611b679190614f55565b908152602001604051809103902060006101000a81548173ffffffffffffffffffffffffffffffffffffffff021916908373ffffffffffffffffffffffffffffffffffffffff1602179055508080611bbe90613d2a565b915050611acb565b50611c177ffaad79a708d82d095486f5a83b18341f12a8f717d3011ab929d43135c1af73e289600060038110611bff57611bfe613c67565b5b602002016020810190611c1291906134cf565b6124da565b611c677ffaad79a708d82d095486f5a83b18341f12a8f717d3011ab929d43135c1af73e289600160038110611c4f57611c4e613c67565b5b602002016020810190611c6291906134cf565b6124da565b611cb77ffaad79a708d82d095486f5a83b18341f12a8f717d3011ab929d43135c1af73e289600260038110611c9f57611c9e613c67565b5b602002016020810190611cb291906134cf565b6124da565b611ce17ffd37f88a14d7ed985885a1af8f2ad5b64dd7eb00ab89168649791632bb9bb4a6866124da565b611d0b7ffd37f88a14d7ed985885a1af8f2ad5b64dd7eb00ab89168649791632bb9bb4a6856124da565b611d357fbffb4faf8a508f503a2ca036effd0bc1f82615d3ebfddb934edf718f23672707866124da565b611d5f7fbffb4faf8a508f503a2ca036effd0bc1f82615d3ebfddb934edf718f23672707856124da565b611dc67fd2761b102bda9831f4af400cc824b8cecb9cc5c1c85c51acb1479db9735fbfc6610108604051611d9290614fb8565b908152602001604051809103902060009054906101000a900473ffffffffffffffffffffffffffffffffffffffff166124da565b611df07ffaad79a708d82d095486f5a83b18341f12a8f717d3011ab929d43135c1af73e28061260f565b611e1a7ffd37f88a14d7ed985885a1af8f2ad5b64dd7eb00ab89168649791632bb9bb4a68061260f565b611e447fbffb4faf8a508f503a2ca036effd0bc1f82615d3ebfddb934edf718f236727078061260f565b611e8e7fd2761b102bda9831f4af400cc824b8cecb9cc5c1c85c51acb1479db9735fbfc67ffaad79a708d82d095486f5a83b18341f12a8f717d3011ab929d43135c1af73e261260f565b7f04185272184bedea7de0ea28a815902a29e62119008cf980db82f3af6877c40d338b8b8b8b8b8b8b8b8b604051611ecf9a99989796959493929190614fcd565b60405180910390a18015611f305760008060016101000a81548160ff0219169083151502179055507f7f26b83ff96e1f2b6a682f133852f6798a09c465da95921460cefb38474024986001604051611f2791906150c3565b60405180910390a15b5050505050505050505050565b6000611f64826097600086815260200190815260200160002061266b90919063ffffffff16565b905092915050565b60006065600084815260200190815260200160002060000160008373ffffffffffffffffffffffffffffffffffffffff1673ffffffffffffffffffffffffffffffffffffffff16815260200190815260200160002060009054906101000a900460ff16905092915050565b6000801b81565b61010460009054906101000a900473ffffffffffffffffffffffffffffffffffffffff1681565b600061202260976000848152602001908152602001600020612685565b9050919050565b7ffaad79a708d82d095486f5a83b18341f12a8f717d3011ab929d43135c1af73e2612053816123df565b600073ffffffffffffffffffffffffffffffffffffffff168273ffffffffffffffffffffffffffffffffffffffff16036120b9576040517fdf51a0d100000000000000000000000000000000000000000000000000000000815260040160405180910390fd5b8161010360006101000a81548173ffffffffffffffffffffffffffffffffffffffff021916908373ffffffffffffffffffffffffffffffffffffffff1602179055505050565b61210882610c3f565b612111816123df565b61211b838361250e565b505050565b7ffd37f88a14d7ed985885a1af8f2ad5b64dd7eb00ab89168649791632bb9bb4a661214a816123df565b6121526123f3565b6121c16101028484604051612168929190613d97565b908152602001604051809103902060009054906101000a900473ffffffffffffffffffffffffffffffffffffffff1661010460009054906101000a900473ffffffffffffffffffffffffffffffffffffffff1686612442565b7f901c03da5d88eb3d62ab4617e7b7d17d86db16356823a7971127d5181a842fef61010460009054906101000a900473ffffffffffffffffffffffffffffffffffffffff1684848760405161221994939291906150de565b60405180910390a16122296124d0565b50505050565b610105816003811061224057600080fd5b01600091509050805461225290613cf9565b80601f016020809104026020016040519081016040528092919081815260200182805461227e90613cf9565b80156122cb5780601f106122a0576101008083540402835291602001916122cb565b820191906000526020600020905b8154815290600101906020018083116122ae57829003601f168201915b505050505081565b7fd2761b102bda9831f4af400cc824b8cecb9cc5c1c85c51acb1479db9735fbfc681565b7ffaad79a708d82d095486f5a83b18341f12a8f717d3011ab929d43135c1af73e281565b610108818051602081018201805184825260208301602085012081835280955050505050506000915054906101000a900473ffffffffffffffffffffffffffffffffffffffff1681565b60007f7965db0b000000000000000000000000000000000000000000000000000000007bffffffffffffffffffffffffffffffffffffffffffffffffffffffff1916827bffffffffffffffffffffffffffffffffffffffffffffffffffffffff191614806123d857506123d78261269a565b5b9050919050565b6123f0816123eb6124c8565b612704565b50565b600260c95403612438576040517f08c379a000000000000000000000000000000000000000000000000000000000815260040161242f9061516a565b60405180910390fd5b600260c981905550565b6124c38363a9059cbb60e01b848460405160240161246192919061518a565b604051602081830303815290604052907bffffffffffffffffffffffffffffffffffffffffffffffffffffffff19166020820180517bffffffffffffffffffffffffffffffffffffffffffffffffffffffff8381831617835250505050612789565b505050565b600033905090565b600160c981905550565b6124e48282612851565b612509816097600085815260200190815260200160002061293290919063ffffffff16565b505050565b6125188282612962565b61253d8160976000858152602001908152602001600020612a4490919063ffffffff16565b505050565b6000808273ffffffffffffffffffffffffffffffffffffffff163b119050919050565b600060019054906101000a900460ff166125b4576040517f08c379a00000000000000000000000000000000000000000000000000000000081526004016125ab90615225565b60405180910390fd5b565b600060019054906101000a900460ff16612605576040517f08c379a00000000000000000000000000000000000000000000000000000000081526004016125fc90615225565b60405180910390fd5b600160c981905550565b600061261a83610c3f565b90508160656000858152602001908152602001600020600101819055508181847fbd79b86ffe0ab8e8776151514217cd7cacd52c909f66475c3af44e129f0b00ff60405160405180910390a4505050565b600061267a8360000183612a74565b60001c905092915050565b600061269382600001612a9f565b9050919050565b60007f01ffc9a7000000000000000000000000000000000000000000000000000000007bffffffffffffffffffffffffffffffffffffffffffffffffffffffff1916827bffffffffffffffffffffffffffffffffffffffffffffffffffffffff1916149050919050565b61270e8282611f6c565b6127855761271b81612ab0565b6127298360001c6020612add565b60405160200161273a9291906152dd565b6040516020818303038152906040526040517f08c379a000000000000000000000000000000000000000000000000000000000815260040161277c919061383a565b60405180910390fd5b5050565b60006127eb826040518060400160405280602081526020017f5361666545524332303a206c6f772d6c6576656c2063616c6c206661696c65648152508573ffffffffffffffffffffffffffffffffffffffff16612d199092919063ffffffff16565b905060008151148061280d57508080602001905181019061280c9190615343565b5b61284c576040517f08c379a0000000000000000000000000000000000000000000000000000000008152600401612843906153e2565b60405180910390fd5b505050565b61285b8282611f6c565b61292e5760016065600084815260200190815260200160002060000160008373ffffffffffffffffffffffffffffffffffffffff1673ffffffffffffffffffffffffffffffffffffffff16815260200190815260200160002060006101000a81548160ff0219169083151502179055506128d36124c8565b73ffffffffffffffffffffffffffffffffffffffff168173ffffffffffffffffffffffffffffffffffffffff16837f2f8788117e7eff1d82e926ec794901d17c78024a50270940304540a733656f0d60405160405180910390a45b5050565b600061295a836000018373ffffffffffffffffffffffffffffffffffffffff1660001b612d31565b905092915050565b61296c8282611f6c565b15612a405760006065600084815260200190815260200160002060000160008373ffffffffffffffffffffffffffffffffffffffff1673ffffffffffffffffffffffffffffffffffffffff16815260200190815260200160002060006101000a81548160ff0219169083151502179055506129e56124c8565b73ffffffffffffffffffffffffffffffffffffffff168173ffffffffffffffffffffffffffffffffffffffff16837ff6391f5c32d9c69d2a47ea670b442974b53935d1edc7fd64eb21e047a839171b60405160405180910390a45b5050565b6000612a6c836000018373ffffffffffffffffffffffffffffffffffffffff1660001b612da1565b905092915050565b6000826000018281548110612a8c57612a8b613c67565b5b9060005260206000200154905092915050565b600081600001805490509050919050565b6060612ad68273ffffffffffffffffffffffffffffffffffffffff16601460ff16612add565b9050919050565b606060006002836002612af09190615402565b612afa9190613c33565b67ffffffffffffffff811115612b1357612b12613861565b5b6040519080825280601f01601f191660200182016040528015612b455781602001600182028036833780820191505090505b5090507f300000000000000000000000000000000000000000000000000000000000000081600081518110612b7d57612b7c613c67565b5b60200101907effffffffffffffffffffffffffffffffffffffffffffffffffffffffffffff1916908160001a9053507f780000000000000000000000000000000000000000000000000000000000000081600181518110612be157612be0613c67565b5b60200101907effffffffffffffffffffffffffffffffffffffffffffffffffffffffffffff1916908160001a90535060006001846002612c219190615402565b612c2b9190613c33565b90505b6001811115612ccb577f3031323334353637383961626364656600000000000000000000000000000000600f861660108110612c6d57612c6c613c67565b5b1a60f81b828281518110612c8457612c83613c67565b5b60200101907effffffffffffffffffffffffffffffffffffffffffffffffffffffffffffff1916908160001a905350600485901c945080612cc490615444565b9050612c2e565b5060008414612d0f576040517f08c379a0000000000000000000000000000000000000000000000000000000008152600401612d06906154b9565b60405180910390fd5b8091505092915050565b6060612d288484600085612eb5565b90509392505050565b6000612d3d8383612f82565b612d96578260000182908060018154018082558091505060019003906000526020600020016000909190919091505582600001805490508360010160008481526020019081526020016000208190555060019050612d9b565b600090505b92915050565b60008083600101600084815260200190815260200160002054905060008114612ea9576000600182612dd39190613c96565b9050600060018660000180549050612deb9190613c96565b9050818114612e5a576000866000018281548110612e0c57612e0b613c67565b5b9060005260206000200154905080876000018481548110612e3057612e2f613c67565b5b90600052602060002001819055508387600101600083815260200190815260200160002081905550505b85600001805480612e6e57612e6d6154d9565b5b600190038181906000526020600020016000905590558560010160008681526020019081526020016000206000905560019350505050612eaf565b60009150505b92915050565b606082471015612efa576040517f08c379a0000000000000000000000000000000000000000000000000000000008152600401612ef19061557a565b60405180910390fd5b6000808673ffffffffffffffffffffffffffffffffffffffff168587604051612f2391906155d6565b60006040518083038185875af1925050503d8060008114612f60576040519150601f19603f3d011682016040523d82523d6000602084013e612f65565b606091505b5091509150612f7687838387612fa5565b92505050949350505050565b600080836001016000848152602001908152602001600020541415905092915050565b60608315613007576000835103612fff57612fbf8561301a565b612ffe576040517f08c379a0000000000000000000000000000000000000000000000000000000008152600401612ff590615639565b60405180910390fd5b5b829050613012565b613011838361303d565b5b949350505050565b6000808273ffffffffffffffffffffffffffffffffffffffff163b119050919050565b6000825111156130505781518083602001fd5b806040517f08c379a0000000000000000000000000000000000000000000000000000000008152600401613084919061383a565b60405180910390fd5b6040518060a001604052806005905b606081526020019060019003908161309c5790505090565b600081905092915050565b7f5745544800000000000000000000000000000000000000000000000000000000600082015250565b60006130f56004836130b4565b9150613100826130bf565b600482019050919050565b6000613116826130e8565b9150819050919050565b600082825260208201905092915050565b7f4e6f742070617961626c65206f6e207468697320636861696e00000000000000600082015250565b6000613167601983613120565b915061317282613131565b602082019050919050565b600060208201905081810360008301526131968161315a565b9050919050565b600081519050919050565b600082825260208201905092915050565b6000819050602082019050919050565b6000819050919050565b6131dc816131c9565b82525050565b60006131ee83836131d3565b60208301905092915050565b6000602082019050919050565b60006132128261319d565b61321c81856131a8565b9350613227836131b9565b8060005b8381101561325857815161323f88826131e2565b975061324a836131fa565b92505060018101905061322b565b5085935050505092915050565b6000602082019050818103600083015261327f8184613207565b905092915050565b6000604051905090565b600080fd5b600080fd5b60007fffffffff0000000000000000000000000000000000000000000000000000000082169050919050565b6132d08161329b565b81146132db57600080fd5b50565b6000813590506132ed816132c7565b92915050565b60006020828403121561330957613308613291565b5b6000613317848285016132de565b91505092915050565b60008115159050919050565b61333581613320565b82525050565b6000602082019050613350600083018461332c565b92915050565b61335f816131c9565b811461336a57600080fd5b50565b60008135905061337c81613356565b92915050565b600080fd5b600080fd5b600080fd5b60008083601f8401126133a7576133a6613382565b5b8235905067ffffffffffffffff8111156133c4576133c3613387565b5b6020830191508360018202830111156133e0576133df61338c565b5b9250929050565b600080600060408486031215613400576133ff613291565b5b600061340e8682870161336d565b935050602084013567ffffffffffffffff81111561342f5761342e613296565b5b61343b86828701613391565b92509250509250925092565b600073ffffffffffffffffffffffffffffffffffffffff82169050919050565b600061347282613447565b9050919050565b61348281613467565b82525050565b600060208201905061349d6000830184613479565b92915050565b6134ac81613467565b81146134b757600080fd5b50565b6000813590506134c9816134a3565b92915050565b6000602082840312156134e5576134e4613291565b5b60006134f3848285016134ba565b91505092915050565b6000819050919050565b61350f816134fc565b811461351a57600080fd5b50565b60008135905061352c81613506565b92915050565b60006020828403121561354857613547613291565b5b60006135568482850161351d565b91505092915050565b613568816134fc565b82525050565b6000602082019050613583600083018461355f565b92915050565b600060059050919050565b600081905092915050565b6000819050919050565b600081519050919050565b600082825260208201905092915050565b60005b838110156135e35780820151818401526020810190506135c8565b60008484015250505050565b6000601f19601f8301169050919050565b600061360b826135a9565b61361581856135b4565b93506136258185602086016135c5565b61362e816135ef565b840191505092915050565b60006136458383613600565b905092915050565b6000602082019050919050565b600061366582613589565b61366f8185613594565b9350836020820285016136818561359f565b8060005b858110156136bd578484038952815161369e8582613639565b94506136a98361364d565b925060208a01995050600181019050613685565b50829750879550505050505092915050565b600060208201905081810360008301526136e9818461365a565b905092915050565b6000806040838503121561370857613707613291565b5b60006137168582860161351d565b9250506020613727858286016134ba565b9150509250929050565b60008083601f84011261374757613746613382565b5b8235905067ffffffffffffffff81111561376457613763613387565b5b6020830191508360208202830111156137805761377f61338c565b5b9250929050565b6000806020838503121561379e5761379d613291565b5b600083013567ffffffffffffffff8111156137bc576137bb613296565b5b6137c885828601613731565b92509250509250929050565b6000602082840312156137ea576137e9613291565b5b60006137f88482850161336d565b91505092915050565b600061380c826135a9565b6138168185613120565b93506138268185602086016135c5565b61382f816135ef565b840191505092915050565b600060208201905081810360008301526138548184613801565b905092915050565b600080fd5b7f4e487b7100000000000000000000000000000000000000000000000000000000600052604160045260246000fd5b613899826135ef565b810181811067ffffffffffffffff821117156138b8576138b7613861565b5b80604052505050565b60006138cb613287565b90506138d78282613890565b919050565b600067ffffffffffffffff8211156138f7576138f6613861565b5b613900826135ef565b9050602081019050919050565b82818337600083830152505050565b600061392f61392a846138dc565b6138c1565b90508281526020810184848401111561394b5761394a61385c565b5b61395684828561390d565b509392505050565b600082601f83011261397357613972613382565b5b813561398384826020860161391c565b91505092915050565b6000602082840312156139a2576139a1613291565b5b600082013567ffffffffffffffff8111156139c0576139bf613296565b5b6139cc8482850161395e565b91505092915050565b6139de816131c9565b82525050565b60006020820190506139f960008301846139d5565b92915050565b600081905082602060050282011115613a1b57613a1a61338c565b5b92915050565b600081905082602060050282011115613a3d57613a3c61338c565b5b92915050565b600081905082602060030282011115613a5f57613a5e61338c565b5b92915050565b600081905082602060020282011115613a8157613a8061338c565b5b92915050565b600081905082602060020282011115613aa357613aa261338c565b5b92915050565b6000806000806000806000806000806102208b8d031215613acd57613acc613291565b5b6000613adb8d828e016134ba565b9a505060208b013567ffffffffffffffff811115613afc57613afb613296565b5b613b088d828e016139ff565b9950506040613b198d828e01613a21565b98505060e0613b2a8d828e01613a43565b975050610140613b3c8d828e016134ba565b965050610160613b4e8d828e016134ba565b955050610180613b608d828e016134ba565b9450506101a0613b728d828e016134ba565b9350506101c08b013567ffffffffffffffff811115613b9457613b93613296565b5b613ba08d828e01613a65565b9250506101e0613bb28d828e01613a87565b9150509295989b9194979a5092959850565b60008060408385031215613bdb57613bda613291565b5b6000613be98582860161351d565b9250506020613bfa8582860161336d565b9150509250929050565b7f4e487b7100000000000000000000000000000000000000000000000000000000600052601160045260246000fd5b6000613c3e826131c9565b9150613c49836131c9565b9250828201905080821115613c6157613c60613c04565b5b92915050565b7f4e487b7100000000000000000000000000000000000000000000000000000000600052603260045260246000fd5b6000613ca1826131c9565b9150613cac836131c9565b9250828203905081811115613cc457613cc3613c04565b5b92915050565b7f4e487b7100000000000000000000000000000000000000000000000000000000600052602260045260246000fd5b60006002820490506001821680613d1157607f821691505b602082108103613d2457613d23613cca565b5b50919050565b6000613d35826131c9565b91507fffffffffffffffffffffffffffffffffffffffffffffffffffffffffffffffff8203613d6757613d66613c04565b5b600182019050919050565b6000613d7e83856130b4565b9350613d8b83858461390d565b82840190509392505050565b6000613da4828486613d72565b91508190509392505050565b6000613dbc8385613120565b9350613dc983858461390d565b613dd2836135ef565b840190509392505050565b6000608082019050613df26000830188613479565b8181036020830152613e05818688613db0565b9050613e1460408301856139d5565b613e216060830184613479565b9695505050505050565b600080fd5b600080fd5b600080fd5b600082356001606003833603038112613e5657613e55613e2b565b5b80830191505092915050565b60008235600160a003833603038112613e7e57613e7d613e2b565b5b80830191505092915050565b600080fd5b60008235600160a003833603038112613eab57613eaa613e8a565b5b82810191505092915050565b600080fd5b600080fd5b60008083356001602003843603038112613ede57613edd613e8a565b5b83810192508235915060208301925067ffffffffffffffff821115613f0657613f05613eb7565b5b600182023603831315613f1c57613f1b613ebc565b5b509250929050565b600082825260208201905092915050565b6000613f418385613f24565b9350613f4e83858461390d565b613f57836135ef565b840190509392505050565b6000613f7160208401846134ba565b905092915050565b613f8281613467565b82525050565b6000613f97602084018461336d565b905092915050565b600060a08301613fb26000840184613ec1565b8583036000870152613fc5838284613f35565b92505050613fd66020840184613f62565b613fe36020860182613f79565b50613ff16040840184613f88565b613ffe60408601826131d3565b5061400c6060840184613f88565b61401960608601826131d3565b506140276080840184613f88565b61403460808601826131d3565b508091505092915050565b6000606083016140526000840184613e8f565b84820360008601526140648282613f9f565b9150506140746020840184613f62565b6140816020860182613f79565b5061408f6040840184613f62565b61409c6040860182613f79565b508091505092915050565b60006040820190506140bc6000830185613479565b81810360208301526140ce818461403f565b90509392505050565b6000815190506140e681613356565b92915050565b60006020828403121561410257614101613291565b5b6000614110848285016140d7565b91505092915050565b7f726f757465720000000000000000000000000000000000000000000000000000600082015250565b600061414f6006836130b4565b915061415a82614119565b600682019050919050565b600061417082614142565b9150819050919050565b60007fff0000000000000000000000000000000000000000000000000000000000000082169050919050565b6000819050919050565b6141c16141bc8261417a565b6141a6565b82525050565b60006141d382846141b0565b60018201915081905092915050565b600080833560016020038436030381126141ff576141fe613e2b565b5b80840192508235915067ffffffffffffffff82111561422157614220613e30565b5b60208301925060018202360383131561423d5761423c613e35565b5b509250929050565b600082825260208201905092915050565b60006142628385614245565b935061426f83858461390d565b614278836135ef565b840190509392505050565b600060a0820190506142986000830189613479565b6142a560208301886139d5565b6142b260408301876139d5565b81810360608301526142c5818587614256565b90506142d4608083018461332c565b979650505050505050565b600081519050919050565b60006142f5826142df565b6142ff8185614245565b935061430f8185602086016135c5565b614318816135ef565b840191505092915050565b600081519050919050565b600082825260208201905092915050565b6000819050602082019050919050565b600061435a826142df565b6143648185613f24565b93506143748185602086016135c5565b61437d816135ef565b840191505092915050565b6000614394838361434f565b905092915050565b6000602082019050919050565b60006143b482614323565b6143be818561432e565b9350836020820285016143d08561433f565b8060005b8581101561440c57848403895281516143ed8582614388565b94506143f88361439c565b925060208a019950506001810190506143d4565b50829750879550505050505092915050565b6000606082019050818103600083015261443881866142ea565b9050818103602083015261444c81856143a9565b905061445b60408301846139d5565b949350505050565b60008160e01c9050919050565b600060033d111561448f5760046000803e61448c600051614463565b90505b90565b600060443d1061451f576144a4613287565b60043d036004823e80513d602482011167ffffffffffffffff821117156144cc57505061451f565b808201805167ffffffffffffffff8111156144ea575050505061451f565b80602083010160043d03850181111561450757505050505061451f565b61451682602001850186613890565b82955050505050505b90565b600060608201905061453760008301866139d5565b61454460208301856139d5565b81810360408301526145568184613801565b9050949350505050565b7f416d6f756e744f75744d696e696d756d546f6f4c6f7700000000000000000000600082015250565b6000614596601683613120565b91506145a182614560565b602082019050919050565b60006060820190506145c160008301856139d5565b6145ce60208301846139d5565b81810360408301526145df81614589565b90509392505050565b60006080820190506145fd6000830187613479565b61460a6020830186613479565b61461760408301856139d5565b61462460608301846139d5565b95945050505050565b6000614638826135a9565b61464281856130b4565b93506146528185602086016135c5565b80840191505092915050565b600061466a828461462d565b915081905092915050565b7f416363657373436f6e74726f6c3a2063616e206f6e6c792072656e6f756e636560008201527f20726f6c657320666f722073656c660000000000000000000000000000000000602082015250565b60006146d1602f83613120565b91506146dc82614675565b604082019050919050565b60006020820190508181036000830152614700816146c4565b9050919050565b7f496e697469616c697a61626c653a20636f6e747261637420697320616c72656160008201527f647920696e697469616c697a6564000000000000000000000000000000000000602082015250565b6000614763602e83613120565b915061476e82614707565b604082019050919050565b6000602082019050818103600083015261479281614756565b9050919050565b600060059050919050565b6000819050919050565b60006147ba83856135b4565b93506147c783858461390d565b6147d0836135ef565b840190509392505050565b60006147e88484846147ae565b90509392505050565b6000808335600160200384360303811261480e5761480d613e8a565b5b83810192508235915060208301925067ffffffffffffffff82111561483657614835613eb7565b5b60018202360383131561484c5761484b613ebc565b5b509250929050565b6000602082019050919050565b600061486c82614799565b6148768185613594565b935083602082028501614888856147a4565b8060005b858110156148ce5784840389526148a382846147f1565b6148ae8682846147db565b95506148b984614854565b935060208b019a50505060018101905061488c565b50829750879550505050505092915050565b600060059050919050565b600081905092915050565b6000819050919050565b600061490c8383613f79565b60208301905092915050565b6000602082019050919050565b61492e816148e0565b61493881846148eb565b9250614943826148f6565b8060005b8381101561497c576149598284613f62565b6149638782614900565b965061496e83614918565b925050600181019050614947565b505050505050565b600060039050919050565b600081905092915050565b6000819050919050565b6000602082019050919050565b6149ba81614984565b6149c4818461498f565b92506149cf8261499a565b8060005b83811015614a08576149e58284613f62565b6149ef8782614900565b96506149fa836149a4565b9250506001810190506149d3565b505050505050565b600060029050919050565b600081905092915050565b6000819050919050565b6000602082019050919050565b6000614a4882614a10565b614a528185614a1b565b935083602082028501614a6485614a26565b8060005b85811015614aaa578484038952614a7f82846147f1565b614a8a8682846147db565b9550614a9584614a30565b935060208b019a505050600181019050614a68565b50829750879550505050505092915050565b600060029050919050565b600081905092915050565b6000819050919050565b6000602082019050919050565b614af281614abc565b614afc8184614ac7565b9250614b0782614ad2565b8060005b83811015614b4057614b1d8284613f62565b614b278782614900565b9650614b3283614adc565b925050600181019050614b0b565b505050505050565b6000610200820190508181036000830152614b63818c614861565b9050614b72602083018b614925565b614b7f60c083018a6149b1565b614b8d610120830189613479565b614b9b610140830188613479565b614ba9610160830187613479565b614bb7610180830186613479565b8181036101a0830152614bca8185614a3d565b9050614bda6101c0830184614ae9565b9a9950505050505050505050565b60008083356001602003843603038112614c0557614c04613e2b565b5b80840192508235915067ffffffffffffffff821115614c2757614c26613e30565b5b602083019250600182023603831315614c4357614c42613e35565b5b509250929050565b600082905092915050565b60008190508160005260206000209050919050565b60006020601f8301049050919050565b600082821b905092915050565b600060088302614cb87fffffffffffffffffffffffffffffffffffffffffffffffffffffffffffffffff82614c7b565b614cc28683614c7b565b95508019841693508086168417925050509392505050565b6000819050919050565b6000614cff614cfa614cf5846131c9565b614cda565b6131c9565b9050919050565b6000819050919050565b614d1983614ce4565b614d2d614d2582614d06565b848454614c88565b825550505050565b600090565b614d42614d35565b614d4d818484614d10565b505050565b5b81811015614d7157614d66600082614d3a565b600181019050614d53565b5050565b601f821115614db657614d8781614c56565b614d9084614c6b565b81016020851015614d9f578190505b614db3614dab85614c6b565b830182614d52565b50505b505050565b600082821c905092915050565b6000614dd960001984600802614dbb565b1980831691505092915050565b6000614df28383614dc8565b9150826002028217905092915050565b614e0c8383614c4b565b67ffffffffffffffff811115614e2557614e24613861565b5b614e2f8254613cf9565b614e3a828285614d75565b6000601f831160018114614e695760008415614e57578287013590505b614e618582614de6565b865550614ec9565b601f198416614e7786614c56565b60005b82811015614e9f57848901358255600182019150602085019450602081019050614e7a565b86831015614ebc5784890135614eb8601f891682614dc8565b8355505b6001600288020188555050505b50505050505050565b60008154614edf81613cf9565b614ee981866130b4565b94506001821660008114614f045760018114614f1957614f4c565b60ff1983168652811515820286019350614f4c565b614f2285614c56565b60005b83811015614f4457815481890152600182019150602081019050614f25565b838801955050505b50505092915050565b6000614f618284614ed2565b915081905092915050565b7f7377617070657200000000000000000000000000000000000000000000000000600082015250565b6000614fa26007836130b4565b9150614fad82614f6c565b600782019050919050565b6000614fc382614f95565b9150819050919050565b600061022082019050614fe3600083018d613479565b8181036020830152614ff5818c614861565b9050615004604083018b614925565b61501160e083018a6149b1565b61501f610140830189613479565b61502d610160830188613479565b61503b610180830187613479565b6150496101a0830186613479565b8181036101c083015261505c8185614a3d565b905061506c6101e0830184614ae9565b9b9a5050505050505050505050565b6000819050919050565b600060ff82169050919050565b60006150ad6150a86150a38461507b565b614cda565b615085565b9050919050565b6150bd81615092565b82525050565b60006020820190506150d860008301846150b4565b92915050565b60006060820190506150f36000830187613479565b8181036020830152615106818587613db0565b905061511560408301846139d5565b95945050505050565b7f5265656e7472616e637947756172643a207265656e7472616e742063616c6c00600082015250565b6000615154601f83613120565b915061515f8261511e565b602082019050919050565b6000602082019050818103600083015261518381615147565b9050919050565b600060408201905061519f6000830185613479565b6151ac60208301846139d5565b9392505050565b7f496e697469616c697a61626c653a20636f6e7472616374206973206e6f74206960008201527f6e697469616c697a696e67000000000000000000000000000000000000000000602082015250565b600061520f602b83613120565b915061521a826151b3565b604082019050919050565b6000602082019050818103600083015261523e81615202565b9050919050565b7f416363657373436f6e74726f6c3a206163636f756e7420000000000000000000600082015250565b600061527b6017836130b4565b915061528682615245565b601782019050919050565b7f206973206d697373696e6720726f6c6520000000000000000000000000000000600082015250565b60006152c76011836130b4565b91506152d282615291565b601182019050919050565b60006152e88261526e565b91506152f4828561462d565b91506152ff826152ba565b915061530b828461462d565b91508190509392505050565b61532081613320565b811461532b57600080fd5b50565b60008151905061533d81615317565b92915050565b60006020828403121561535957615358613291565b5b60006153678482850161532e565b91505092915050565b7f5361666545524332303a204552433230206f7065726174696f6e20646964206e60008201527f6f74207375636365656400000000000000000000000000000000000000000000602082015250565b60006153cc602a83613120565b91506153d782615370565b604082019050919050565b600060208201905081810360008301526153fb816153bf565b9050919050565b600061540d826131c9565b9150615418836131c9565b9250828202615426816131c9565b9150828204841483151761543d5761543c613c04565b5b5092915050565b600061544f826131c9565b91506000820361546257615461613c04565b5b600182039050919050565b7f537472696e67733a20686578206c656e67746820696e73756666696369656e74600082015250565b60006154a3602083613120565b91506154ae8261546d565b602082019050919050565b600060208201905081810360008301526154d281615496565b9050919050565b7f4e487b7100000000000000000000000000000000000000000000000000000000600052603160045260246000fd5b7f416464726573733a20696e73756666696369656e742062616c616e636520666f60008201527f722063616c6c0000000000000000000000000000000000000000000000000000602082015250565b6000615564602683613120565b915061556f82615508565b604082019050919050565b6000602082019050818103600083015261559381615557565b9050919050565b600081905092915050565b60006155b0826142df565b6155ba818561559a565b93506155ca8185602086016135c5565b80840191505092915050565b60006155e282846155a5565b915081905092915050565b7f416464726573733a2063616c6c20746f206e6f6e2d636f6e7472616374000000600082015250565b6000615623601d83613120565b915061562e826155ed565b602082019050919050565b6000602082019050818103600083015261565281615616565b905091905056fea26469706673582212208935119042a791ff50637b587c4004e63bf4290ac01d4db48644818151db5eac64736f6c63430008120033",
  "linkReferences": {},
  "deployedLinkReferences": {}
}