{
  "_format": "hh-sol-artifact-1",
  "contractName": "ColateralContract2",
  "sourceName": "contracts/ColateralContract2.sol",
  "abi": [
    {
      "inputs": [],
      "name": "AmountOutMinimumTooLow",
      "type": "error"
    },
    {
      "inputs": [],
      "name": "RescueAddressInvalid",
      "type": "error"
    },
    {
      "inputs": [],
      "name": "WithdrawAddressInvalid",
      "type": "error"
    },
    {
      "anonymous": false,
      "inputs": [
        {
          "indexed": false,
          "internalType": "address",
          "name": "sender",
          "type": "address"
        },
        {
          "indexed": false,
          "internalType": "string[5]",
          "name": "_tokenNames",
          "type": "string[5]"
        },
        {
          "indexed": false,
          "internalType": "address[5]",
          "name": "_tokenAddresses",
          "type": "address[5]"
        },
        {
          "indexed": false,
          "internalType": "address[3]",
          "name": "_aconcagua",
          "type": "address[3]"
        },
        {
          "indexed": false,
          "internalType": "address",
          "name": "_rescueWalletAddress",
          "type": "address"
        },
        {
          "indexed": false,
          "internalType": "address",
          "name": "_withdrawWalletAddress",
          "type": "address"
        },
        {
          "indexed": false,
          "internalType": "address",
          "name": "_firstLenderLiq",
          "type": "address"
        },
        {
          "indexed": false,
          "internalType": "address",
          "name": "_secondLenderLiq",
          "type": "address"
        },
        {
          "indexed": false,
          "internalType": "string[2]",
          "name": "_contractKeys",
          "type": "string[2]"
        },
        {
          "indexed": false,
          "internalType": "address[2]",
          "name": "_contractAddresses",
          "type": "address[2]"
        }
      ],
      "name": "Initialize",
      "type": "event"
    },
    {
      "anonymous": false,
      "inputs": [
        {
          "indexed": false,
          "internalType": "uint8",
          "name": "version",
          "type": "uint8"
        }
      ],
      "name": "Initialized",
      "type": "event"
    },
    {
      "anonymous": false,
      "inputs": [
        {
          "indexed": false,
          "internalType": "address",
          "name": "sender",
          "type": "address"
        },
        {
          "indexed": false,
          "internalType": "string",
          "name": "token",
          "type": "string"
        },
        {
          "indexed": false,
          "internalType": "uint256",
          "name": "amount",
          "type": "uint256"
        },
        {
          "indexed": false,
          "internalType": "address",
          "name": "to",
          "type": "address"
        }
      ],
      "name": "Rescue",
      "type": "event"
    },
    {
      "anonymous": false,
      "inputs": [
        {
          "indexed": true,
          "internalType": "bytes32",
          "name": "role",
          "type": "bytes32"
        },
        {
          "indexed": true,
          "internalType": "bytes32",
          "name": "previousAdminRole",
          "type": "bytes32"
        },
        {
          "indexed": true,
          "internalType": "bytes32",
          "name": "newAdminRole",
          "type": "bytes32"
        }
      ],
      "name": "RoleAdminChanged",
      "type": "event"
    },
    {
      "anonymous": false,
      "inputs": [
        {
          "indexed": true,
          "internalType": "bytes32",
          "name": "role",
          "type": "bytes32"
        },
        {
          "indexed": true,
          "internalType": "address",
          "name": "account",
          "type": "address"
        },
        {
          "indexed": true,
          "internalType": "address",
          "name": "sender",
          "type": "address"
        }
      ],
      "name": "RoleGranted",
      "type": "event"
    },
    {
      "anonymous": false,
      "inputs": [
        {
          "indexed": true,
          "internalType": "bytes32",
          "name": "role",
          "type": "bytes32"
        },
        {
          "indexed": true,
          "internalType": "address",
          "name": "account",
          "type": "address"
        },
        {
          "indexed": true,
          "internalType": "address",
          "name": "sender",
          "type": "address"
        }
      ],
      "name": "RoleRevoked",
      "type": "event"
    },
    {
      "anonymous": false,
      "inputs": [
        {
          "indexed": false,
          "internalType": "address",
          "name": "tokenIn",
          "type": "address"
        },
        {
          "indexed": false,
          "internalType": "address",
          "name": "tokenOut",
          "type": "address"
        },
        {
          "indexed": false,
          "internalType": "uint256",
          "name": "amountIn",
          "type": "uint256"
        },
        {
          "indexed": false,
          "internalType": "uint256",
          "name": "amountOut",
          "type": "uint256"
        }
      ],
      "name": "Swap",
      "type": "event"
    },
    {
      "anonymous": false,
      "inputs": [
        {
          "indexed": true,
          "internalType": "address",
          "name": "tokenIn",
          "type": "address"
        },
        {
          "indexed": true,
          "internalType": "address",
          "name": "tokenOut",
          "type": "address"
        },
        {
          "indexed": false,
          "internalType": "uint256",
          "name": "amountIn",
          "type": "uint256"
        },
        {
          "indexed": false,
          "internalType": "uint256",
          "name": "amountOutMinimum",
          "type": "uint256"
        },
        {
          "indexed": false,
          "internalType": "uint256",
          "name": "amountOut",
          "type": "uint256"
        },
        {
          "indexed": false,
          "internalType": "string",
          "name": "reason",
          "type": "string"
        }
      ],
      "name": "SwapError",
      "type": "event"
    },
    {
      "anonymous": false,
      "inputs": [
        {
          "indexed": true,
          "internalType": "address",
          "name": "tokenIn",
          "type": "address"
        },
        {
          "indexed": true,
          "internalType": "address",
          "name": "tokenOut",
          "type": "address"
        },
        {
          "indexed": false,
          "internalType": "uint256",
          "name": "amountIn",
          "type": "uint256"
        }
      ],
      "name": "SwapStarted",
      "type": "event"
    },
    {
      "anonymous": false,
      "inputs": [
        {
          "indexed": false,
          "internalType": "address",
          "name": "sender",
          "type": "address"
        },
        {
          "indexed": false,
          "internalType": "string",
          "name": "token",
          "type": "string"
        },
        {
          "indexed": false,
          "internalType": "uint256",
          "name": "amount",
          "type": "uint256"
        }
      ],
      "name": "Withdraw",
      "type": "event"
    },
    {
      "inputs": [],
      "name": "ACONCAGUA_ROLE",
      "outputs": [
        {
          "internalType": "bytes32",
          "name": "",
          "type": "bytes32"
        }
      ],
      "stateMutability": "view",
      "type": "function"
    },
    {
      "inputs": [],
      "name": "DEFAULT_ADMIN_ROLE",
      "outputs": [
        {
          "internalType": "bytes32",
          "name": "",
          "type": "bytes32"
        }
      ],
      "stateMutability": "view",
      "type": "function"
    },
    {
      "inputs": [],
      "name": "LENDER_LIQ_ROLE",
      "outputs": [
        {
          "internalType": "bytes32",
          "name": "",
          "type": "bytes32"
        }
      ],
      "stateMutability": "view",
      "type": "function"
    },
    {
      "inputs": [],
      "name": "RESCUER_ROLE",
      "outputs": [
        {
          "internalType": "bytes32",
          "name": "",
          "type": "bytes32"
        }
      ],
      "stateMutability": "view",
      "type": "function"
    },
    {
      "inputs": [],
      "name": "SWAPPER_ROLE",
      "outputs": [
        {
          "internalType": "bytes32",
          "name": "",
          "type": "bytes32"
        }
      ],
      "stateMutability": "view",
      "type": "function"
    },
    {
      "inputs": [
        {
          "internalType": "string",
          "name": "_tokenSymbol",
          "type": "string"
        }
      ],
      "name": "balanceOf",
      "outputs": [
        {
          "internalType": "uint256",
          "name": "",
          "type": "uint256"
        }
      ],
      "stateMutability": "view",
      "type": "function"
    },
    {
      "inputs": [
        {
          "internalType": "string",
          "name": "",
          "type": "string"
        }
      ],
      "name": "contractAddresses",
      "outputs": [
        {
          "internalType": "address",
          "name": "",
          "type": "address"
        }
      ],
      "stateMutability": "view",
      "type": "function"
    },
    {
      "inputs": [
        {
          "internalType": "uint256",
          "name": "",
          "type": "uint256"
        }
      ],
      "name": "contractKeys",
      "outputs": [
        {
          "internalType": "string",
          "name": "",
          "type": "string"
        }
      ],
      "stateMutability": "view",
      "type": "function"
    },
    {
      "inputs": [],
      "name": "getBalances",
      "outputs": [
        {
          "internalType": "uint256[]",
          "name": "",
          "type": "uint256[]"
        }
      ],
      "stateMutability": "view",
      "type": "function"
    },
    {
      "inputs": [
        {
          "internalType": "bytes32",
          "name": "role",
          "type": "bytes32"
        }
      ],
      "name": "getRoleAdmin",
      "outputs": [
        {
          "internalType": "bytes32",
          "name": "",
          "type": "bytes32"
        }
      ],
      "stateMutability": "view",
      "type": "function"
    },
    {
      "inputs": [
        {
          "internalType": "bytes32",
          "name": "role",
          "type": "bytes32"
        },
        {
          "internalType": "uint256",
          "name": "index",
          "type": "uint256"
        }
      ],
      "name": "getRoleMember",
      "outputs": [
        {
          "internalType": "address",
          "name": "",
          "type": "address"
        }
      ],
      "stateMutability": "view",
      "type": "function"
    },
    {
      "inputs": [
        {
          "internalType": "bytes32",
          "name": "role",
          "type": "bytes32"
        }
      ],
      "name": "getRoleMemberCount",
      "outputs": [
        {
          "internalType": "uint256",
          "name": "",
          "type": "uint256"
        }
      ],
      "stateMutability": "view",
      "type": "function"
    },
    {
      "inputs": [],
      "name": "getTokenNames",
      "outputs": [
        {
          "internalType": "string[5]",
          "name": "",
          "type": "string[5]"
        }
      ],
      "stateMutability": "view",
      "type": "function"
    },
    {
      "inputs": [
        {
          "internalType": "bytes32",
          "name": "role",
          "type": "bytes32"
        },
        {
          "internalType": "address",
          "name": "account",
          "type": "address"
        }
      ],
      "name": "grantRole",
      "outputs": [],
      "stateMutability": "nonpayable",
      "type": "function"
    },
    {
      "inputs": [
        {
          "internalType": "bytes32",
          "name": "role",
          "type": "bytes32"
        },
        {
          "internalType": "address",
          "name": "account",
          "type": "address"
        }
      ],
      "name": "hasRole",
      "outputs": [
        {
          "internalType": "bool",
          "name": "",
          "type": "bool"
        }
      ],
      "stateMutability": "view",
      "type": "function"
    },
    {
      "inputs": [
        {
          "internalType": "address",
          "name": "_validator",
          "type": "address"
        },
        {
          "internalType": "string[5]",
          "name": "_tokenNames",
          "type": "string[5]"
        },
        {
          "internalType": "address[5]",
          "name": "_tokenAddresses",
          "type": "address[5]"
        },
        {
          "internalType": "address[3]",
          "name": "_aconcagua",
          "type": "address[3]"
        },
        {
          "internalType": "address",
          "name": "_rescueWalletAddress",
          "type": "address"
        },
        {
          "internalType": "address",
          "name": "_withdrawWalletAddress",
          "type": "address"
        },
        {
          "internalType": "address",
          "name": "_firstLenderLiq",
          "type": "address"
        },
        {
          "internalType": "address",
          "name": "_secondLenderLiq",
          "type": "address"
        },
        {
          "internalType": "string[2]",
          "name": "_contractKeys",
          "type": "string[2]"
        },
        {
          "internalType": "address[2]",
          "name": "_contractAddresses",
          "type": "address[2]"
        }
      ],
      "name": "initialize",
      "outputs": [],
      "stateMutability": "nonpayable",
      "type": "function"
    },
    {
      "inputs": [
        {
          "internalType": "bytes32",
          "name": "role",
          "type": "bytes32"
        },
        {
          "internalType": "address",
          "name": "account",
          "type": "address"
        }
      ],
      "name": "renounceRole",
      "outputs": [],
      "stateMutability": "nonpayable",
      "type": "function"
    },
    {
      "inputs": [
        {
          "internalType": "uint256",
          "name": "_amount",
          "type": "uint256"
        },
        {
          "internalType": "string",
          "name": "_tokenSymbol",
          "type": "string"
        }
      ],
      "name": "rescue",
      "outputs": [],
      "stateMutability": "nonpayable",
      "type": "function"
    },
    {
      "inputs": [],
      "name": "rescueWalletAddress",
      "outputs": [
        {
          "internalType": "address",
          "name": "",
          "type": "address"
        }
      ],
      "stateMutability": "view",
      "type": "function"
    },
    {
      "inputs": [
        {
          "internalType": "bytes32",
          "name": "role",
          "type": "bytes32"
        },
        {
          "internalType": "address",
          "name": "account",
          "type": "address"
        }
      ],
      "name": "revokeRole",
      "outputs": [],
      "stateMutability": "nonpayable",
      "type": "function"
    },
    {
      "inputs": [
        {
          "internalType": "address",
          "name": "_rescueWalletAddress",
          "type": "address"
        }
      ],
      "name": "setRescueWalletAddress",
      "outputs": [],
      "stateMutability": "nonpayable",
      "type": "function"
    },
    {
      "inputs": [
        {
          "internalType": "address",
          "name": "_withdrawWalletAddress",
          "type": "address"
        }
      ],
      "name": "setWithdrawWalletAddress",
      "outputs": [],
      "stateMutability": "nonpayable",
      "type": "function"
    },
    {
      "inputs": [
        {
          "internalType": "bytes4",
          "name": "interfaceId",
          "type": "bytes4"
        }
      ],
      "name": "supportsInterface",
      "outputs": [
        {
          "internalType": "bool",
          "name": "",
          "type": "bool"
        }
      ],
      "stateMutability": "view",
      "type": "function"
    },
    {
      "inputs": [
        {
          "components": [
            {
              "components": [
                {
                  "internalType": "bytes",
                  "name": "path",
                  "type": "bytes"
                },
                {
                  "internalType": "address",
                  "name": "recipient",
                  "type": "address"
                },
                {
                  "internalType": "uint256",
                  "name": "deadline",
                  "type": "uint256"
                },
                {
                  "internalType": "uint256",
                  "name": "amountIn",
                  "type": "uint256"
                },
                {
                  "internalType": "uint256",
                  "name": "amountOutMinimum",
                  "type": "uint256"
                }
              ],
              "internalType": "struct ISwapRouter.ExactInputParams",
              "name": "params",
              "type": "tuple"
            },
            {
              "internalType": "address",
              "name": "tokenIn",
              "type": "address"
            },
            {
              "internalType": "address",
              "name": "tokenOut",
              "type": "address"
            }
          ],
          "internalType": "struct IColateralContract2.SwapParams[]",
          "name": "swapsParams",
          "type": "tuple[]"
        }
      ],
      "name": "swapExactInputs",
      "outputs": [],
      "stateMutability": "nonpayable",
      "type": "function"
    },
    {
      "inputs": [
        {
          "internalType": "uint256",
          "name": "",
          "type": "uint256"
        }
      ],
      "name": "tokenNames",
      "outputs": [
        {
          "internalType": "string",
          "name": "",
          "type": "string"
        }
      ],
      "stateMutability": "view",
      "type": "function"
    },
    {
      "inputs": [
        {
          "internalType": "string",
          "name": "",
          "type": "string"
        }
      ],
      "name": "tokenTable",
      "outputs": [
        {
          "internalType": "address",
          "name": "",
          "type": "address"
        }
      ],
      "stateMutability": "view",
      "type": "function"
    },
    {
      "inputs": [],
      "name": "version",
      "outputs": [
        {
          "internalType": "string",
          "name": "",
          "type": "string"
        }
      ],
      "stateMutability": "pure",
      "type": "function"
    },
    {
      "inputs": [
        {
          "internalType": "uint256",
          "name": "_amount",
          "type": "uint256"
        },
        {
          "internalType": "string",
          "name": "_tokenSymbol",
          "type": "string"
        }
      ],
      "name": "withdraw",
      "outputs": [],
      "stateMutability": "nonpayable",
      "type": "function"
    },
    {
      "inputs": [],
      "name": "withdrawWalletAddress",
      "outputs": [
        {
          "internalType": "address",
          "name": "",
          "type": "address"
        }
      ],
      "stateMutability": "view",
      "type": "function"
    },
    {
      "stateMutability": "payable",
      "type": "receive"
    }
  ],
  "bytecode": "0x608060405234801561001057600080fd5b506156eb80620000216000396000f3fe6080604052600436106101c55760003560e01c806355452d04116100f7578063ca15c87311610095578063de6bd68711610064578063de6bd68714610768578063df668eca146107a5578063e5df800a146107d0578063ee67cc2a146107fb576102b2565b8063ca15c873146106b0578063d00411c9146106ed578063d547741f14610716578063dc048cf21461073f576102b2565b80639010d07c116100d15780639010d07c146105e057806391d148541461061d578063a217fddf1461065a578063b14ec10114610685576102b2565b806355452d041461054f578063713725441461058c57806382828cbe146105b7576102b2565b80632f2ff15d1161016457806332cc815d1161013e57806332cc815d1461049357806335ee5f87146104be57806336568abe146104fb57806354fd4d5014610524576102b2565b80632f2ff15d146104045780632ffe99421461042d578063310495ab14610456576102b2565b806315ac7358116101a057806315ac735814610348578063212f603914610373578063248a9ca31461039c5780632ad753e4146103d9576102b2565b8062113e08146102b757806301ffc9a7146102e25780630828c4041461031f576102b2565b366102b257601e4603610275576101026040516101e19061314b565b908152602001604051809103902060009054906101000a900473ffffffffffffffffffffffffffffffffffffffff1673ffffffffffffffffffffffffffffffffffffffff1663d0e30db0346040518263ffffffff1660e01b81526004016000604051808303818588803b15801561025757600080fd5b505af115801561026b573d6000803e3d6000fd5b50505050506102b0565b6040517f08c379a00000000000000000000000000000000000000000000000000000000081526004016102a7906131bd565b60405180910390fd5b005b600080fd5b3480156102c357600080fd5b506102cc610838565b6040516102d991906132a5565b60405180910390f35b3480156102ee57600080fd5b5061030960048036038101906103049190613333565b6109b0565b604051610316919061337b565b60405180910390f35b34801561032b57600080fd5b5061034660048036038101906103419190613427565b610a2a565b005b34801561035457600080fd5b5061035d610b42565b60405161036a91906134c8565b60405180910390f35b34801561037f57600080fd5b5061039a6004803603810190610395919061350f565b610b69565b005b3480156103a857600080fd5b506103c360048036038101906103be9190613572565b610c3f565b6040516103d091906135ae565b60405180910390f35b3480156103e557600080fd5b506103ee610c5f565b6040516103fb919061370f565b60405180910390f35b34801561041057600080fd5b5061042b60048036038101906104269190613731565b610d2c565b005b34801561043957600080fd5b50610454600480360381019061044f91906137c7565b610d4d565b005b34801561046257600080fd5b5061047d60048036038101906104789190613814565b6114f4565b60405161048a919061387a565b60405180910390f35b34801561049f57600080fd5b506104a8611597565b6040516104b591906135ae565b60405180910390f35b3480156104ca57600080fd5b506104e560048036038101906104e091906139cc565b6115bb565b6040516104f29190613a24565b60405180910390f35b34801561050757600080fd5b50610522600480360381019061051d9190613731565b611682565b005b34801561053057600080fd5b50610539611705565b604051610546919061387a565b60405180910390f35b34801561055b57600080fd5b50610576600480360381019061057191906139cc565b611742565b60405161058391906134c8565b60405180910390f35b34801561059857600080fd5b506105a161178c565b6040516105ae91906135ae565b60405180910390f35b3480156105c357600080fd5b506105de60048036038101906105d99190613ae9565b6117b0565b005b3480156105ec57600080fd5b5061060760048036038101906106029190613c04565b611f7d565b60405161061491906134c8565b60405180910390f35b34801561062957600080fd5b50610644600480360381019061063f9190613731565b611fac565b604051610651919061337b565b60405180910390f35b34801561066657600080fd5b5061066f612017565b60405161067c91906135ae565b60405180910390f35b34801561069157600080fd5b5061069a61201e565b6040516106a791906134c8565b60405180910390f35b3480156106bc57600080fd5b506106d760048036038101906106d29190613572565b612045565b6040516106e49190613a24565b60405180910390f35b3480156106f957600080fd5b50610714600480360381019061070f919061350f565b612069565b005b34801561072257600080fd5b5061073d60048036038101906107389190613731565b61213f565b005b34801561074b57600080fd5b5061076660048036038101906107619190613427565b612160565b005b34801561077457600080fd5b5061078f600480360381019061078a9190613814565b61226f565b60405161079c919061387a565b60405180910390f35b3480156107b157600080fd5b506107ba612313565b6040516107c791906135ae565b60405180910390f35b3480156107dc57600080fd5b506107e5612337565b6040516107f291906135ae565b60405180910390f35b34801561080757600080fd5b50610822600480360381019061081d91906139cc565b61235b565b60405161082f91906134c8565b60405180910390f35b606060006001600561084a9190613c73565b67ffffffffffffffff811115610863576108626138a1565b5b6040519080825280602002602001820160405280156108915781602001602082028036833780820191505090505b50905047816000815181106108a9576108a8613ca7565b5b6020026020010181815250506000600190505b600581116109a85761097660fd6001836108d69190613cd6565b600581106108e7576108e6613ca7565b5b0180546108f390613d39565b80601f016020809104026020016040519081016040528092919081815260200182805461091f90613d39565b801561096c5780601f106109415761010080835404028352916020019161096c565b820191906000526020600020905b81548152906001019060200180831161094f57829003601f168201915b50505050506115bb565b82828151811061098957610988613ca7565b5b60200260200101818152505080806109a090613d6a565b9150506108bc565b508091505090565b60007f5a05180f000000000000000000000000000000000000000000000000000000007bffffffffffffffffffffffffffffffffffffffffffffffffffffffff1916827bffffffffffffffffffffffffffffffffffffffffffffffffffffffff19161480610a235750610a22826123a5565b5b9050919050565b7fbffb4faf8a508f503a2ca036effd0bc1f82615d3ebfddb934edf718f23672707610a548161241f565b610a5c612433565b610acb6101028484604051610a72929190613dd7565b908152602001604051809103902060009054906101000a900473ffffffffffffffffffffffffffffffffffffffff1661010360009054906101000a900473ffffffffffffffffffffffffffffffffffffffff1686612482565b7f22cb89e6358014bb27f5658e2b820189f8f4c9e3f7165ecf266edc53be12d9fa610af4612508565b84848761010360009054906101000a900473ffffffffffffffffffffffffffffffffffffffff16604051610b2c959493929190613e1d565b60405180910390a1610b3c612510565b50505050565b61010360009054906101000a900473ffffffffffffffffffffffffffffffffffffffff1681565b7ffaad79a708d82d095486f5a83b18341f12a8f717d3011ab929d43135c1af73e2610b938161241f565b600073ffffffffffffffffffffffffffffffffffffffff168273ffffffffffffffffffffffffffffffffffffffff1603610bf9576040517fd766085d00000000000000000000000000000000000000000000000000000000815260040160405180910390fd5b8161010460006101000a81548173ffffffffffffffffffffffffffffffffffffffff021916908373ffffffffffffffffffffffffffffffffffffffff1602179055505050565b600060656000838152602001908152602001600020600101549050919050565b610c676130cd565b60fd600580602002604051908101604052809291906000905b82821015610d23578382018054610c9690613d39565b80601f0160208091040260200160405190810160405280929190818152602001828054610cc290613d39565b8015610d0f5780601f10610ce457610100808354040283529160200191610d0f565b820191906000526020600020905b815481529060010190602001808311610cf257829003601f168201915b505050505081526020019060010190610c80565b50505050905090565b610d3582610c3f565b610d3e8161241f565b610d48838361251a565b505050565b7fd2761b102bda9831f4af400cc824b8cecb9cc5c1c85c51acb1479db9735fbfc6610d778161241f565b610d7f612433565b60005b838390508110156114e65736848483818110610da157610da0613ca7565b5b9050602002810190610db39190613e7a565b9050806040016020810190610dc8919061350f565b73ffffffffffffffffffffffffffffffffffffffff16816020016020810190610df1919061350f565b73ffffffffffffffffffffffffffffffffffffffff167f02f79e80ece3e0af8a6ecd3cfbba44f8d0f477e3fd3332dd5f406e0c0e6e4aa4838060000190610e389190613ea2565b60600135604051610e499190613a24565b60405180910390a361010960009054906101000a900473ffffffffffffffffffffffffffffffffffffffff1673ffffffffffffffffffffffffffffffffffffffff1663c4a5849a30836040518363ffffffff1660e01b8152600401610eaf9291906140e7565b60006040518083038186803b158015610ec757600080fd5b505afa158015610edb573d6000803e3d6000fd5b505050506000816040016020810190610ef4919061350f565b73ffffffffffffffffffffffffffffffffffffffff166370a08231306040518263ffffffff1660e01b8152600401610f2c91906134c8565b602060405180830381865afa158015610f49573d6000803e3d6000fd5b505050506040513d601f19601f82011682018060405250810190610f6d919061412c565b9050600080836020016020810190610f85919061350f565b9050610fe281610108604051610f9a906141a5565b908152602001604051809103902060009054906101000a900473ffffffffffffffffffffffffffffffffffffffff16868060000190610fd99190613ea2565b60600135612482565b60008060f81b604051602001610ff89190614207565b60405160208183030381529060405290506000600167ffffffffffffffff811115611026576110256138a1565b5b60405190808252806020026020018201604052801561105957816020015b60608152602001906001900390816110445790505b50905085806000019061106c9190613ea2565b602001602081019061107e919061350f565b86806000019061108e9190613ea2565b606001358780600001906110a29190613ea2565b608001358880600001906110b69190613ea2565b80600001906110c59190614222565b60006040516020016110dc969594939291906142c3565b604051602081830303815290604052816000815181106110ff576110fe613ca7565b5b6020026020010181905250610108604051611119906141a5565b908152602001604051809103902060009054906101000a900473ffffffffffffffffffffffffffffffffffffffff1673ffffffffffffffffffffffffffffffffffffffff16633593564c83838980600001906111759190613ea2565b604001356040518463ffffffff1660e01b81526004016111979392919061445e565b600060405180830381600087803b1580156111b157600080fd5b505af19250505080156111c2575060015b6112b9576111ce6144b0565b806308c379a0036112a857506111e26144d2565b806111ed57506112aa565b866040016020810190611200919061350f565b73ffffffffffffffffffffffffffffffffffffffff16876020016020810190611229919061350f565b73ffffffffffffffffffffffffffffffffffffffff167f24cba308741c38bc680b466dd8565b5a209a9d33601276a0781448d559198a6f8980600001906112709190613ea2565b606001358a80600001906112849190613ea2565b60800135898660405161129a9493929190614562565b60405180910390a3506112b4565b505b3d6000803e3d6000fd5b6114cd565b60008660400160208101906112ce919061350f565b73ffffffffffffffffffffffffffffffffffffffff166370a08231306040518263ffffffff1660e01b815260040161130691906134c8565b602060405180830381865afa158015611323573d6000803e3d6000fd5b505050506040513d601f19601f82011682018060405250810190611347919061412c565b905085816113559190613cd6565b94508680600001906113679190613ea2565b6080013585101561145757866040016020810190611385919061350f565b73ffffffffffffffffffffffffffffffffffffffff168760200160208101906113ae919061350f565b73ffffffffffffffffffffffffffffffffffffffff167f24cba308741c38bc680b466dd8565b5a209a9d33601276a0781448d559198a6f8980600001906113f59190613ea2565b606001358a80600001906114099190613ea2565b608001358960405161141d939291906145fa565b60405180910390a36040517f1792539f00000000000000000000000000000000000000000000000000000000815260040160405180910390fd5b7ffa2dda1cc1b86e41239702756b13effbc1a092b5c57e3ad320fbe4f3b13fe23587602001602081019061148b919061350f565b88604001602081019061149e919061350f565b8980600001906114ae9190613ea2565b60600135886040516114c39493929190614644565b60405180910390a1505b50505050505080806114de90613d6a565b915050610d82565b506114ef612510565b505050565b60fd816005811061150457600080fd5b01600091509050805461151690613d39565b80601f016020809104026020016040519081016040528092919081815260200182805461154290613d39565b801561158f5780601f106115645761010080835404028352916020019161158f565b820191906000526020600020905b81548152906001019060200180831161157257829003601f168201915b505050505081565b7ffd37f88a14d7ed985885a1af8f2ad5b64dd7eb00ab89168649791632bb9bb4a681565b600080610102836040516115cf91906146ba565b908152602001604051809103902060009054906101000a900473ffffffffffffffffffffffffffffffffffffffff1690508073ffffffffffffffffffffffffffffffffffffffff166370a08231306040518263ffffffff1660e01b815260040161163991906134c8565b602060405180830381865afa158015611656573d6000803e3d6000fd5b505050506040513d601f19601f8201168201806040525081019061167a919061412c565b915050919050565b61168a612508565b73ffffffffffffffffffffffffffffffffffffffff168173ffffffffffffffffffffffffffffffffffffffff16146116f7576040517f08c379a00000000000000000000000000000000000000000000000000000000081526004016116ee90614743565b60405180910390fd5b611701828261254e565b5050565b60606040518060400160405280600581526020017f322e302e30000000000000000000000000000000000000000000000000000000815250905090565b610102818051602081018201805184825260208301602085012081835280955050505050506000915054906101000a900473ffffffffffffffffffffffffffffffffffffffff1681565b7fbffb4faf8a508f503a2ca036effd0bc1f82615d3ebfddb934edf718f2367270781565b60008060019054906101000a900460ff161590508080156117e15750600160008054906101000a900460ff1660ff16105b8061180e57506117f030612582565b15801561180d5750600160008054906101000a900460ff1660ff16145b5b61184d576040517f08c379a0000000000000000000000000000000000000000000000000000000008152600401611844906147d5565b60405180910390fd5b60016000806101000a81548160ff021916908360ff160217905550801561188a576001600060016101000a81548160ff0219169083151502179055505b8a61010960006101000a81548173ffffffffffffffffffffffffffffffffffffffff021916908373ffffffffffffffffffffffffffffffffffffffff16021790555061010960009054906101000a900473ffffffffffffffffffffffffffffffffffffffff1673ffffffffffffffffffffffffffffffffffffffff16633d255b118b8b8b8b8b8b8b8b8b6040518a63ffffffff1660e01b815260040161193899989796959493929190614ba4565b60006040518083038186803b15801561195057600080fd5b505afa158015611964573d6000803e3d6000fd5b505050506119706125a5565b6119786125f6565b60005b6005811015611a835789816005811061199757611996613ca7565b5b6020020160208101906119aa919061350f565b6101028c83600581106119c0576119bf613ca7565b5b6020028101906119d09190614c44565b6040516119de929190613dd7565b908152602001604051809103902060006101000a81548173ffffffffffffffffffffffffffffffffffffffff021916908373ffffffffffffffffffffffffffffffffffffffff1602179055508a8160058110611a3d57611a3c613ca7565b5b602002810190611a4d9190614c44565b60fd8360058110611a6157611a60613ca7565b5b019182611a6f929190614e5e565b508080611a7b90613d6a565b91505061197b565b508561010460006101000a81548173ffffffffffffffffffffffffffffffffffffffff021916908373ffffffffffffffffffffffffffffffffffffffff1602179055508661010360006101000a81548173ffffffffffffffffffffffffffffffffffffffff021916908373ffffffffffffffffffffffffffffffffffffffff16021790555060005b6002811015611c0657838160028110611b2757611b26613ca7565b5b602002810190611b379190614c44565b6101058360038110611b4c57611b4b613ca7565b5b019182611b5a929190614e5e565b50828160028110611b6e57611b6d613ca7565b5b602002016020810190611b81919061350f565b6101086101058360038110611b9957611b98613ca7565b5b01604051611ba79190614fb1565b908152602001604051809103902060006101000a81548173ffffffffffffffffffffffffffffffffffffffff021916908373ffffffffffffffffffffffffffffffffffffffff1602179055508080611bfe90613d6a565b915050611b0b565b50611c577ffaad79a708d82d095486f5a83b18341f12a8f717d3011ab929d43135c1af73e289600060038110611c3f57611c3e613ca7565b5b602002016020810190611c52919061350f565b61251a565b611ca77ffaad79a708d82d095486f5a83b18341f12a8f717d3011ab929d43135c1af73e289600160038110611c8f57611c8e613ca7565b5b602002016020810190611ca2919061350f565b61251a565b611cf77ffaad79a708d82d095486f5a83b18341f12a8f717d3011ab929d43135c1af73e289600260038110611cdf57611cde613ca7565b5b602002016020810190611cf2919061350f565b61251a565b611d217ffd37f88a14d7ed985885a1af8f2ad5b64dd7eb00ab89168649791632bb9bb4a68661251a565b611d4b7ffd37f88a14d7ed985885a1af8f2ad5b64dd7eb00ab89168649791632bb9bb4a68561251a565b611d757fbffb4faf8a508f503a2ca036effd0bc1f82615d3ebfddb934edf718f236727078661251a565b611d9f7fbffb4faf8a508f503a2ca036effd0bc1f82615d3ebfddb934edf718f236727078561251a565b611e067fd2761b102bda9831f4af400cc824b8cecb9cc5c1c85c51acb1479db9735fbfc6610108604051611dd290615014565b908152602001604051809103902060009054906101000a900473ffffffffffffffffffffffffffffffffffffffff1661251a565b611e307ffaad79a708d82d095486f5a83b18341f12a8f717d3011ab929d43135c1af73e28061264f565b611e5a7ffd37f88a14d7ed985885a1af8f2ad5b64dd7eb00ab89168649791632bb9bb4a68061264f565b611e847fbffb4faf8a508f503a2ca036effd0bc1f82615d3ebfddb934edf718f236727078061264f565b611ece7fd2761b102bda9831f4af400cc824b8cecb9cc5c1c85c51acb1479db9735fbfc67ffaad79a708d82d095486f5a83b18341f12a8f717d3011ab929d43135c1af73e261264f565b7f04185272184bedea7de0ea28a815902a29e62119008cf980db82f3af6877c40d338b8b8b8b8b8b8b8b8b604051611f0f9a99989796959493929190615029565b60405180910390a18015611f705760008060016101000a81548160ff0219169083151502179055507f7f26b83ff96e1f2b6a682f133852f6798a09c465da95921460cefb38474024986001604051611f67919061511f565b60405180910390a15b5050505050505050505050565b6000611fa482609760008681526020019081526020016000206126ab90919063ffffffff16565b905092915050565b60006065600084815260200190815260200160002060000160008373ffffffffffffffffffffffffffffffffffffffff1673ffffffffffffffffffffffffffffffffffffffff16815260200190815260200160002060009054906101000a900460ff16905092915050565b6000801b81565b61010460009054906101000a900473ffffffffffffffffffffffffffffffffffffffff1681565b6000612062609760008481526020019081526020016000206126c5565b9050919050565b7ffaad79a708d82d095486f5a83b18341f12a8f717d3011ab929d43135c1af73e26120938161241f565b600073ffffffffffffffffffffffffffffffffffffffff168273ffffffffffffffffffffffffffffffffffffffff16036120f9576040517fdf51a0d100000000000000000000000000000000000000000000000000000000815260040160405180910390fd5b8161010360006101000a81548173ffffffffffffffffffffffffffffffffffffffff021916908373ffffffffffffffffffffffffffffffffffffffff1602179055505050565b61214882610c3f565b6121518161241f565b61215b838361254e565b505050565b7ffd37f88a14d7ed985885a1af8f2ad5b64dd7eb00ab89168649791632bb9bb4a661218a8161241f565b612192612433565b61220161010284846040516121a8929190613dd7565b908152602001604051809103902060009054906101000a900473ffffffffffffffffffffffffffffffffffffffff1661010460009054906101000a900473ffffffffffffffffffffffffffffffffffffffff1686612482565b7f901c03da5d88eb3d62ab4617e7b7d17d86db16356823a7971127d5181a842fef61010460009054906101000a900473ffffffffffffffffffffffffffffffffffffffff16848487604051612259949392919061513a565b60405180910390a1612269612510565b50505050565b610105816003811061228057600080fd5b01600091509050805461229290613d39565b80601f01602080910402602001604051908101604052809291908181526020018280546122be90613d39565b801561230b5780601f106122e05761010080835404028352916020019161230b565b820191906000526020600020905b8154815290600101906020018083116122ee57829003601f168201915b505050505081565b7fd2761b102bda9831f4af400cc824b8cecb9cc5c1c85c51acb1479db9735fbfc681565b7ffaad79a708d82d095486f5a83b18341f12a8f717d3011ab929d43135c1af73e281565b610108818051602081018201805184825260208301602085012081835280955050505050506000915054906101000a900473ffffffffffffffffffffffffffffffffffffffff1681565b60007f7965db0b000000000000000000000000000000000000000000000000000000007bffffffffffffffffffffffffffffffffffffffffffffffffffffffff1916827bffffffffffffffffffffffffffffffffffffffffffffffffffffffff191614806124185750612417826126da565b5b9050919050565b6124308161242b612508565b612744565b50565b600260c95403612478576040517f08c379a000000000000000000000000000000000000000000000000000000000815260040161246f906151c6565b60405180910390fd5b600260c981905550565b6125038363a9059cbb60e01b84846040516024016124a19291906151e6565b604051602081830303815290604052907bffffffffffffffffffffffffffffffffffffffffffffffffffffffff19166020820180517bffffffffffffffffffffffffffffffffffffffffffffffffffffffff83818316178352505050506127c9565b505050565b600033905090565b600160c981905550565b6125248282612891565b612549816097600085815260200190815260200160002061297290919063ffffffff16565b505050565b61255882826129a2565b61257d8160976000858152602001908152602001600020612a8490919063ffffffff16565b505050565b6000808273ffffffffffffffffffffffffffffffffffffffff163b119050919050565b600060019054906101000a900460ff166125f4576040517f08c379a00000000000000000000000000000000000000000000000000000000081526004016125eb90615281565b60405180910390fd5b565b600060019054906101000a900460ff16612645576040517f08c379a000000000000000000000000000000000000000000000000000000000815260040161263c90615281565b60405180910390fd5b600160c981905550565b600061265a83610c3f565b90508160656000858152602001908152602001600020600101819055508181847fbd79b86ffe0ab8e8776151514217cd7cacd52c909f66475c3af44e129f0b00ff60405160405180910390a4505050565b60006126ba8360000183612ab4565b60001c905092915050565b60006126d382600001612adf565b9050919050565b60007f01ffc9a7000000000000000000000000000000000000000000000000000000007bffffffffffffffffffffffffffffffffffffffffffffffffffffffff1916827bffffffffffffffffffffffffffffffffffffffffffffffffffffffff1916149050919050565b61274e8282611fac565b6127c55761275b81612af0565b6127698360001c6020612b1d565b60405160200161277a929190615339565b6040516020818303038152906040526040517f08c379a00000000000000000000000000000000000000000000000000000000081526004016127bc919061387a565b60405180910390fd5b5050565b600061282b826040518060400160405280602081526020017f5361666545524332303a206c6f772d6c6576656c2063616c6c206661696c65648152508573ffffffffffffffffffffffffffffffffffffffff16612d599092919063ffffffff16565b905060008151148061284d57508080602001905181019061284c919061539f565b5b61288c576040517f08c379a00000000000000000000000000000000000000000000000000000000081526004016128839061543e565b60405180910390fd5b505050565b61289b8282611fac565b61296e5760016065600084815260200190815260200160002060000160008373ffffffffffffffffffffffffffffffffffffffff1673ffffffffffffffffffffffffffffffffffffffff16815260200190815260200160002060006101000a81548160ff021916908315150217905550612913612508565b73ffffffffffffffffffffffffffffffffffffffff168173ffffffffffffffffffffffffffffffffffffffff16837f2f8788117e7eff1d82e926ec794901d17c78024a50270940304540a733656f0d60405160405180910390a45b5050565b600061299a836000018373ffffffffffffffffffffffffffffffffffffffff1660001b612d71565b905092915050565b6129ac8282611fac565b15612a805760006065600084815260200190815260200160002060000160008373ffffffffffffffffffffffffffffffffffffffff1673ffffffffffffffffffffffffffffffffffffffff16815260200190815260200160002060006101000a81548160ff021916908315150217905550612a25612508565b73ffffffffffffffffffffffffffffffffffffffff168173ffffffffffffffffffffffffffffffffffffffff16837ff6391f5c32d9c69d2a47ea670b442974b53935d1edc7fd64eb21e047a839171b60405160405180910390a45b5050565b6000612aac836000018373ffffffffffffffffffffffffffffffffffffffff1660001b612de1565b905092915050565b6000826000018281548110612acc57612acb613ca7565b5b9060005260206000200154905092915050565b600081600001805490509050919050565b6060612b168273ffffffffffffffffffffffffffffffffffffffff16601460ff16612b1d565b9050919050565b606060006002836002612b30919061545e565b612b3a9190613c73565b67ffffffffffffffff811115612b5357612b526138a1565b5b6040519080825280601f01601f191660200182016040528015612b855781602001600182028036833780820191505090505b5090507f300000000000000000000000000000000000000000000000000000000000000081600081518110612bbd57612bbc613ca7565b5b60200101907effffffffffffffffffffffffffffffffffffffffffffffffffffffffffffff1916908160001a9053507f780000000000000000000000000000000000000000000000000000000000000081600181518110612c2157612c20613ca7565b5b60200101907effffffffffffffffffffffffffffffffffffffffffffffffffffffffffffff1916908160001a90535060006001846002612c61919061545e565b612c6b9190613c73565b90505b6001811115612d0b577f3031323334353637383961626364656600000000000000000000000000000000600f861660108110612cad57612cac613ca7565b5b1a60f81b828281518110612cc457612cc3613ca7565b5b60200101907effffffffffffffffffffffffffffffffffffffffffffffffffffffffffffff1916908160001a905350600485901c945080612d04906154a0565b9050612c6e565b5060008414612d4f576040517f08c379a0000000000000000000000000000000000000000000000000000000008152600401612d4690615515565b60405180910390fd5b8091505092915050565b6060612d688484600085612ef5565b90509392505050565b6000612d7d8383612fc2565b612dd6578260000182908060018154018082558091505060019003906000526020600020016000909190919091505582600001805490508360010160008481526020019081526020016000208190555060019050612ddb565b600090505b92915050565b60008083600101600084815260200190815260200160002054905060008114612ee9576000600182612e139190613cd6565b9050600060018660000180549050612e2b9190613cd6565b9050818114612e9a576000866000018281548110612e4c57612e4b613ca7565b5b9060005260206000200154905080876000018481548110612e7057612e6f613ca7565b5b90600052602060002001819055508387600101600083815260200190815260200160002081905550505b85600001805480612eae57612ead615535565b5b600190038181906000526020600020016000905590558560010160008681526020019081526020016000206000905560019350505050612eef565b60009150505b92915050565b606082471015612f3a576040517f08c379a0000000000000000000000000000000000000000000000000000000008152600401612f31906155d6565b60405180910390fd5b6000808673ffffffffffffffffffffffffffffffffffffffff168587604051612f639190615632565b60006040518083038185875af1925050503d8060008114612fa0576040519150601f19603f3d011682016040523d82523d6000602084013e612fa5565b606091505b5091509150612fb687838387612fe5565b92505050949350505050565b600080836001016000848152602001908152602001600020541415905092915050565b6060831561304757600083510361303f57612fff8561305a565b61303e576040517f08c379a000000000000000000000000000000000000000000000000000000000815260040161303590615695565b60405180910390fd5b5b829050613052565b613051838361307d565b5b949350505050565b6000808273ffffffffffffffffffffffffffffffffffffffff163b119050919050565b6000825111156130905781518083602001fd5b806040517f08c379a00000000000000000000000000000000000000000000000000000000081526004016130c4919061387a565b60405180910390fd5b6040518060a001604052806005905b60608152602001906001900390816130dc5790505090565b600081905092915050565b7f5742544300000000000000000000000000000000000000000000000000000000600082015250565b60006131356004836130f4565b9150613140826130ff565b600482019050919050565b600061315682613128565b9150819050919050565b600082825260208201905092915050565b7f4e6f742070617961626c65206f6e207468697320636861696e00000000000000600082015250565b60006131a7601983613160565b91506131b282613171565b602082019050919050565b600060208201905081810360008301526131d68161319a565b9050919050565b600081519050919050565b600082825260208201905092915050565b6000819050602082019050919050565b6000819050919050565b61321c81613209565b82525050565b600061322e8383613213565b60208301905092915050565b6000602082019050919050565b6000613252826131dd565b61325c81856131e8565b9350613267836131f9565b8060005b8381101561329857815161327f8882613222565b975061328a8361323a565b92505060018101905061326b565b5085935050505092915050565b600060208201905081810360008301526132bf8184613247565b905092915050565b6000604051905090565b600080fd5b600080fd5b60007fffffffff0000000000000000000000000000000000000000000000000000000082169050919050565b613310816132db565b811461331b57600080fd5b50565b60008135905061332d81613307565b92915050565b600060208284031215613349576133486132d1565b5b60006133578482850161331e565b91505092915050565b60008115159050919050565b61337581613360565b82525050565b6000602082019050613390600083018461336c565b92915050565b61339f81613209565b81146133aa57600080fd5b50565b6000813590506133bc81613396565b92915050565b600080fd5b600080fd5b600080fd5b60008083601f8401126133e7576133e66133c2565b5b8235905067ffffffffffffffff811115613404576134036133c7565b5b6020830191508360018202830111156134205761341f6133cc565b5b9250929050565b6000806000604084860312156134405761343f6132d1565b5b600061344e868287016133ad565b935050602084013567ffffffffffffffff81111561346f5761346e6132d6565b5b61347b868287016133d1565b92509250509250925092565b600073ffffffffffffffffffffffffffffffffffffffff82169050919050565b60006134b282613487565b9050919050565b6134c2816134a7565b82525050565b60006020820190506134dd60008301846134b9565b92915050565b6134ec816134a7565b81146134f757600080fd5b50565b600081359050613509816134e3565b92915050565b600060208284031215613525576135246132d1565b5b6000613533848285016134fa565b91505092915050565b6000819050919050565b61354f8161353c565b811461355a57600080fd5b50565b60008135905061356c81613546565b92915050565b600060208284031215613588576135876132d1565b5b60006135968482850161355d565b91505092915050565b6135a88161353c565b82525050565b60006020820190506135c3600083018461359f565b92915050565b600060059050919050565b600081905092915050565b6000819050919050565b600081519050919050565b600082825260208201905092915050565b60005b83811015613623578082015181840152602081019050613608565b60008484015250505050565b6000601f19601f8301169050919050565b600061364b826135e9565b61365581856135f4565b9350613665818560208601613605565b61366e8161362f565b840191505092915050565b60006136858383613640565b905092915050565b6000602082019050919050565b60006136a5826135c9565b6136af81856135d4565b9350836020820285016136c1856135df565b8060005b858110156136fd57848403895281516136de8582613679565b94506136e98361368d565b925060208a019950506001810190506136c5565b50829750879550505050505092915050565b60006020820190508181036000830152613729818461369a565b905092915050565b60008060408385031215613748576137476132d1565b5b60006137568582860161355d565b9250506020613767858286016134fa565b9150509250929050565b60008083601f840112613787576137866133c2565b5b8235905067ffffffffffffffff8111156137a4576137a36133c7565b5b6020830191508360208202830111156137c0576137bf6133cc565b5b9250929050565b600080602083850312156137de576137dd6132d1565b5b600083013567ffffffffffffffff8111156137fc576137fb6132d6565b5b61380885828601613771565b92509250509250929050565b60006020828403121561382a576138296132d1565b5b6000613838848285016133ad565b91505092915050565b600061384c826135e9565b6138568185613160565b9350613866818560208601613605565b61386f8161362f565b840191505092915050565b600060208201905081810360008301526138948184613841565b905092915050565b600080fd5b7f4e487b7100000000000000000000000000000000000000000000000000000000600052604160045260246000fd5b6138d98261362f565b810181811067ffffffffffffffff821117156138f8576138f76138a1565b5b80604052505050565b600061390b6132c7565b905061391782826138d0565b919050565b600067ffffffffffffffff821115613937576139366138a1565b5b6139408261362f565b9050602081019050919050565b82818337600083830152505050565b600061396f61396a8461391c565b613901565b90508281526020810184848401111561398b5761398a61389c565b5b61399684828561394d565b509392505050565b600082601f8301126139b3576139b26133c2565b5b81356139c384826020860161395c565b91505092915050565b6000602082840312156139e2576139e16132d1565b5b600082013567ffffffffffffffff811115613a00576139ff6132d6565b5b613a0c8482850161399e565b91505092915050565b613a1e81613209565b82525050565b6000602082019050613a396000830184613a15565b92915050565b600081905082602060050282011115613a5b57613a5a6133cc565b5b92915050565b600081905082602060050282011115613a7d57613a7c6133cc565b5b92915050565b600081905082602060030282011115613a9f57613a9e6133cc565b5b92915050565b600081905082602060020282011115613ac157613ac06133cc565b5b92915050565b600081905082602060020282011115613ae357613ae26133cc565b5b92915050565b6000806000806000806000806000806102208b8d031215613b0d57613b0c6132d1565b5b6000613b1b8d828e016134fa565b9a505060208b013567ffffffffffffffff811115613b3c57613b3b6132d6565b5b613b488d828e01613a3f565b9950506040613b598d828e01613a61565b98505060e0613b6a8d828e01613a83565b975050610140613b7c8d828e016134fa565b965050610160613b8e8d828e016134fa565b955050610180613ba08d828e016134fa565b9450506101a0613bb28d828e016134fa565b9350506101c08b013567ffffffffffffffff811115613bd457613bd36132d6565b5b613be08d828e01613aa5565b9250506101e0613bf28d828e01613ac7565b9150509295989b9194979a5092959850565b60008060408385031215613c1b57613c1a6132d1565b5b6000613c298582860161355d565b9250506020613c3a858286016133ad565b9150509250929050565b7f4e487b7100000000000000000000000000000000000000000000000000000000600052601160045260246000fd5b6000613c7e82613209565b9150613c8983613209565b9250828201905080821115613ca157613ca0613c44565b5b92915050565b7f4e487b7100000000000000000000000000000000000000000000000000000000600052603260045260246000fd5b6000613ce182613209565b9150613cec83613209565b9250828203905081811115613d0457613d03613c44565b5b92915050565b7f4e487b7100000000000000000000000000000000000000000000000000000000600052602260045260246000fd5b60006002820490506001821680613d5157607f821691505b602082108103613d6457613d63613d0a565b5b50919050565b6000613d7582613209565b91507fffffffffffffffffffffffffffffffffffffffffffffffffffffffffffffffff8203613da757613da6613c44565b5b600182019050919050565b6000613dbe83856130f4565b9350613dcb83858461394d565b82840190509392505050565b6000613de4828486613db2565b91508190509392505050565b6000613dfc8385613160565b9350613e0983858461394d565b613e128361362f565b840190509392505050565b6000608082019050613e3260008301886134b9565b8181036020830152613e45818688613df0565b9050613e546040830185613a15565b613e6160608301846134b9565b9695505050505050565b600080fd5b600080fd5b600080fd5b600082356001606003833603038112613e9657613e95613e6b565b5b80830191505092915050565b60008235600160a003833603038112613ebe57613ebd613e6b565b5b80830191505092915050565b600080fd5b60008235600160a003833603038112613eeb57613eea613eca565b5b82810191505092915050565b600080fd5b600080fd5b60008083356001602003843603038112613f1e57613f1d613eca565b5b83810192508235915060208301925067ffffffffffffffff821115613f4657613f45613ef7565b5b600182023603831315613f5c57613f5b613efc565b5b509250929050565b600082825260208201905092915050565b6000613f818385613f64565b9350613f8e83858461394d565b613f978361362f565b840190509392505050565b6000613fb160208401846134fa565b905092915050565b613fc2816134a7565b82525050565b6000613fd760208401846133ad565b905092915050565b600060a08301613ff26000840184613f01565b8583036000870152614005838284613f75565b925050506140166020840184613fa2565b6140236020860182613fb9565b506140316040840184613fc8565b61403e6040860182613213565b5061404c6060840184613fc8565b6140596060860182613213565b506140676080840184613fc8565b6140746080860182613213565b508091505092915050565b6000606083016140926000840184613ecf565b84820360008601526140a48282613fdf565b9150506140b46020840184613fa2565b6140c16020860182613fb9565b506140cf6040840184613fa2565b6140dc6040860182613fb9565b508091505092915050565b60006040820190506140fc60008301856134b9565b818103602083015261410e818461407f565b90509392505050565b60008151905061412681613396565b92915050565b600060208284031215614142576141416132d1565b5b600061415084828501614117565b91505092915050565b7f726f757465720000000000000000000000000000000000000000000000000000600082015250565b600061418f6006836130f4565b915061419a82614159565b600682019050919050565b60006141b082614182565b9150819050919050565b60007fff0000000000000000000000000000000000000000000000000000000000000082169050919050565b6000819050919050565b6142016141fc826141ba565b6141e6565b82525050565b600061421382846141f0565b60018201915081905092915050565b6000808335600160200384360303811261423f5761423e613e6b565b5b80840192508235915067ffffffffffffffff82111561426157614260613e70565b5b60208301925060018202360383131561427d5761427c613e75565b5b509250929050565b600082825260208201905092915050565b60006142a28385614285565b93506142af83858461394d565b6142b88361362f565b840190509392505050565b600060a0820190506142d860008301896134b9565b6142e56020830188613a15565b6142f26040830187613a15565b8181036060830152614305818587614296565b9050614314608083018461336c565b979650505050505050565b600081519050919050565b60006143358261431f565b61433f8185614285565b935061434f818560208601613605565b6143588161362f565b840191505092915050565b600081519050919050565b600082825260208201905092915050565b6000819050602082019050919050565b600061439a8261431f565b6143a48185613f64565b93506143b4818560208601613605565b6143bd8161362f565b840191505092915050565b60006143d4838361438f565b905092915050565b6000602082019050919050565b60006143f482614363565b6143fe818561436e565b9350836020820285016144108561437f565b8060005b8581101561444c578484038952815161442d85826143c8565b9450614438836143dc565b925060208a01995050600181019050614414565b50829750879550505050505092915050565b60006060820190508181036000830152614478818661432a565b9050818103602083015261448c81856143e9565b905061449b6040830184613a15565b949350505050565b60008160e01c9050919050565b600060033d11156144cf5760046000803e6144cc6000516144a3565b90505b90565b600060443d1061455f576144e46132c7565b60043d036004823e80513d602482011167ffffffffffffffff8211171561450c57505061455f565b808201805167ffffffffffffffff81111561452a575050505061455f565b80602083010160043d03850181111561454757505050505061455f565b614556826020018501866138d0565b82955050505050505b90565b60006080820190506145776000830187613a15565b6145846020830186613a15565b6145916040830185613a15565b81810360608301526145a38184613841565b905095945050505050565b7f416d6f756e744f75744d696e696d756d546f6f4c6f7700000000000000000000600082015250565b60006145e4601683613160565b91506145ef826145ae565b602082019050919050565b600060808201905061460f6000830186613a15565b61461c6020830185613a15565b6146296040830184613a15565b818103606083015261463a816145d7565b9050949350505050565b600060808201905061465960008301876134b9565b61466660208301866134b9565b6146736040830185613a15565b6146806060830184613a15565b95945050505050565b6000614694826135e9565b61469e81856130f4565b93506146ae818560208601613605565b80840191505092915050565b60006146c68284614689565b915081905092915050565b7f416363657373436f6e74726f6c3a2063616e206f6e6c792072656e6f756e636560008201527f20726f6c657320666f722073656c660000000000000000000000000000000000602082015250565b600061472d602f83613160565b9150614738826146d1565b604082019050919050565b6000602082019050818103600083015261475c81614720565b9050919050565b7f496e697469616c697a61626c653a20636f6e747261637420697320616c72656160008201527f647920696e697469616c697a6564000000000000000000000000000000000000602082015250565b60006147bf602e83613160565b91506147ca82614763565b604082019050919050565b600060208201905081810360008301526147ee816147b2565b9050919050565b600060059050919050565b6000819050919050565b600061481683856135f4565b935061482383858461394d565b61482c8361362f565b840190509392505050565b600061484484848461480a565b90509392505050565b6000808335600160200384360303811261486a57614869613eca565b5b83810192508235915060208301925067ffffffffffffffff82111561489257614891613ef7565b5b6001820236038313156148a8576148a7613efc565b5b509250929050565b6000602082019050919050565b60006148c8826147f5565b6148d281856135d4565b9350836020820285016148e485614800565b8060005b8581101561492a5784840389526148ff828461484d565b61490a868284614837565b9550614915846148b0565b935060208b019a5050506001810190506148e8565b50829750879550505050505092915050565b600060059050919050565b600081905092915050565b6000819050919050565b60006149688383613fb9565b60208301905092915050565b6000602082019050919050565b61498a8161493c565b6149948184614947565b925061499f82614952565b8060005b838110156149d8576149b58284613fa2565b6149bf878261495c565b96506149ca83614974565b9250506001810190506149a3565b505050505050565b600060039050919050565b600081905092915050565b6000819050919050565b6000602082019050919050565b614a16816149e0565b614a2081846149eb565b9250614a2b826149f6565b8060005b83811015614a6457614a418284613fa2565b614a4b878261495c565b9650614a5683614a00565b925050600181019050614a2f565b505050505050565b600060029050919050565b600081905092915050565b6000819050919050565b6000602082019050919050565b6000614aa482614a6c565b614aae8185614a77565b935083602082028501614ac085614a82565b8060005b85811015614b06578484038952614adb828461484d565b614ae6868284614837565b9550614af184614a8c565b935060208b019a505050600181019050614ac4565b50829750879550505050505092915050565b600060029050919050565b600081905092915050565b6000819050919050565b6000602082019050919050565b614b4e81614b18565b614b588184614b23565b9250614b6382614b2e565b8060005b83811015614b9c57614b798284613fa2565b614b83878261495c565b9650614b8e83614b38565b925050600181019050614b67565b505050505050565b6000610200820190508181036000830152614bbf818c6148bd565b9050614bce602083018b614981565b614bdb60c083018a614a0d565b614be96101208301896134b9565b614bf76101408301886134b9565b614c056101608301876134b9565b614c136101808301866134b9565b8181036101a0830152614c268185614a99565b9050614c366101c0830184614b45565b9a9950505050505050505050565b60008083356001602003843603038112614c6157614c60613e6b565b5b80840192508235915067ffffffffffffffff821115614c8357614c82613e70565b5b602083019250600182023603831315614c9f57614c9e613e75565b5b509250929050565b600082905092915050565b60008190508160005260206000209050919050565b60006020601f8301049050919050565b600082821b905092915050565b600060088302614d147fffffffffffffffffffffffffffffffffffffffffffffffffffffffffffffffff82614cd7565b614d1e8683614cd7565b95508019841693508086168417925050509392505050565b6000819050919050565b6000614d5b614d56614d5184613209565b614d36565b613209565b9050919050565b6000819050919050565b614d7583614d40565b614d89614d8182614d62565b848454614ce4565b825550505050565b600090565b614d9e614d91565b614da9818484614d6c565b505050565b5b81811015614dcd57614dc2600082614d96565b600181019050614daf565b5050565b601f821115614e1257614de381614cb2565b614dec84614cc7565b81016020851015614dfb578190505b614e0f614e0785614cc7565b830182614dae565b50505b505050565b600082821c905092915050565b6000614e3560001984600802614e17565b1980831691505092915050565b6000614e4e8383614e24565b9150826002028217905092915050565b614e688383614ca7565b67ffffffffffffffff811115614e8157614e806138a1565b5b614e8b8254613d39565b614e96828285614dd1565b6000601f831160018114614ec55760008415614eb3578287013590505b614ebd8582614e42565b865550614f25565b601f198416614ed386614cb2565b60005b82811015614efb57848901358255600182019150602085019450602081019050614ed6565b86831015614f185784890135614f14601f891682614e24565b8355505b6001600288020188555050505b50505050505050565b60008154614f3b81613d39565b614f4581866130f4565b94506001821660008114614f605760018114614f7557614fa8565b60ff1983168652811515820286019350614fa8565b614f7e85614cb2565b60005b83811015614fa057815481890152600182019150602081019050614f81565b838801955050505b50505092915050565b6000614fbd8284614f2e565b915081905092915050565b7f7377617070657200000000000000000000000000000000000000000000000000600082015250565b6000614ffe6007836130f4565b915061500982614fc8565b600782019050919050565b600061501f82614ff1565b9150819050919050565b60006102208201905061503f600083018d6134b9565b8181036020830152615051818c6148bd565b9050615060604083018b614981565b61506d60e083018a614a0d565b61507b6101408301896134b9565b6150896101608301886134b9565b6150976101808301876134b9565b6150a56101a08301866134b9565b8181036101c08301526150b88185614a99565b90506150c86101e0830184614b45565b9b9a5050505050505050505050565b6000819050919050565b600060ff82169050919050565b60006151096151046150ff846150d7565b614d36565b6150e1565b9050919050565b615119816150ee565b82525050565b60006020820190506151346000830184615110565b92915050565b600060608201905061514f60008301876134b9565b8181036020830152615162818587613df0565b90506151716040830184613a15565b95945050505050565b7f5265656e7472616e637947756172643a207265656e7472616e742063616c6c00600082015250565b60006151b0601f83613160565b91506151bb8261517a565b602082019050919050565b600060208201905081810360008301526151df816151a3565b9050919050565b60006040820190506151fb60008301856134b9565b6152086020830184613a15565b9392505050565b7f496e697469616c697a61626c653a20636f6e7472616374206973206e6f74206960008201527f6e697469616c697a696e67000000000000000000000000000000000000000000602082015250565b600061526b602b83613160565b91506152768261520f565b604082019050919050565b6000602082019050818103600083015261529a8161525e565b9050919050565b7f416363657373436f6e74726f6c3a206163636f756e7420000000000000000000600082015250565b60006152d76017836130f4565b91506152e2826152a1565b601782019050919050565b7f206973206d697373696e6720726f6c6520000000000000000000000000000000600082015250565b60006153236011836130f4565b915061532e826152ed565b601182019050919050565b6000615344826152ca565b91506153508285614689565b915061535b82615316565b91506153678284614689565b91508190509392505050565b61537c81613360565b811461538757600080fd5b50565b60008151905061539981615373565b92915050565b6000602082840312156153b5576153b46132d1565b5b60006153c38482850161538a565b91505092915050565b7f5361666545524332303a204552433230206f7065726174696f6e20646964206e60008201527f6f74207375636365656400000000000000000000000000000000000000000000602082015250565b6000615428602a83613160565b9150615433826153cc565b604082019050919050565b600060208201905081810360008301526154578161541b565b9050919050565b600061546982613209565b915061547483613209565b925082820261548281613209565b9150828204841483151761549957615498613c44565b5b5092915050565b60006154ab82613209565b9150600082036154be576154bd613c44565b5b600182039050919050565b7f537472696e67733a20686578206c656e67746820696e73756666696369656e74600082015250565b60006154ff602083613160565b915061550a826154c9565b602082019050919050565b6000602082019050818103600083015261552e816154f2565b9050919050565b7f4e487b7100000000000000000000000000000000000000000000000000000000600052603160045260246000fd5b7f416464726573733a20696e73756666696369656e742062616c616e636520666f60008201527f722063616c6c0000000000000000000000000000000000000000000000000000602082015250565b60006155c0602683613160565b91506155cb82615564565b604082019050919050565b600060208201905081810360008301526155ef816155b3565b9050919050565b600081905092915050565b600061560c8261431f565b61561681856155f6565b9350615626818560208601613605565b80840191505092915050565b600061563e8284615601565b915081905092915050565b7f416464726573733a2063616c6c20746f206e6f6e2d636f6e7472616374000000600082015250565b600061567f601d83613160565b915061568a82615649565b602082019050919050565b600060208201905081810360008301526156ae81615672565b905091905056fea2646970667358221220a7cd972bffab7e420177a7bf1028d71f555fd2cb5735af16a0e653de8727abb164736f6c63430008120033",
  "linkReferences": {},
  "deployedLinkReferences": {}
}