{
  "_format": "hh-sol-artifact-1",
  "contractName": "ColateralContract2",
  "sourceName": "contracts/ColateralContract2.sol",
  "abi": [
    {
      "inputs": [],
      "stateMutability": "nonpayable",
      "type": "constructor"
    },
    {
      "anonymous": false,
      "inputs": [
        {
          "indexed": false,
          "internalType": "address",
          "name": "sender",
          "type": "address"
        },
        {
          "indexed": false,
          "internalType": "string[]",
          "name": "_tokenNames",
          "type": "string[]"
        },
        {
          "indexed": false,
          "internalType": "address[]",
          "name": "_tokenAddresses",
          "type": "address[]"
        },
        {
          "indexed": false,
          "internalType": "address[3]",
          "name": "_aconcagua",
          "type": "address[3]"
        },
        {
          "indexed": false,
          "internalType": "address",
          "name": "_rescueWalletAddress",
          "type": "address"
        },
        {
          "indexed": false,
          "internalType": "address",
          "name": "_withdrawWalletAddress",
          "type": "address"
        },
        {
          "indexed": false,
          "internalType": "address",
          "name": "_firstLenderLiq",
          "type": "address"
        },
        {
          "indexed": false,
          "internalType": "address",
          "name": "_secondLenderLiq",
          "type": "address"
        },
        {
          "indexed": false,
          "internalType": "address",
          "name": "_swapRouterAddress",
          "type": "address"
        },
        {
          "indexed": false,
          "internalType": "address",
          "name": "_swapper",
          "type": "address"
        }
      ],
      "name": "Initialize",
      "type": "event"
    },
    {
      "anonymous": false,
      "inputs": [
        {
          "indexed": false,
          "internalType": "uint8",
          "name": "version",
          "type": "uint8"
        }
      ],
      "name": "Initialized",
      "type": "event"
    },
    {
      "anonymous": false,
      "inputs": [
        {
          "indexed": false,
          "internalType": "address",
          "name": "sender",
          "type": "address"
        },
        {
          "indexed": false,
          "internalType": "string",
          "name": "token",
          "type": "string"
        },
        {
          "indexed": false,
          "internalType": "uint256",
          "name": "amount",
          "type": "uint256"
        },
        {
          "indexed": false,
          "internalType": "address",
          "name": "to",
          "type": "address"
        }
      ],
      "name": "Rescue",
      "type": "event"
    },
    {
      "anonymous": false,
      "inputs": [
        {
          "indexed": true,
          "internalType": "bytes32",
          "name": "role",
          "type": "bytes32"
        },
        {
          "indexed": true,
          "internalType": "bytes32",
          "name": "previousAdminRole",
          "type": "bytes32"
        },
        {
          "indexed": true,
          "internalType": "bytes32",
          "name": "newAdminRole",
          "type": "bytes32"
        }
      ],
      "name": "RoleAdminChanged",
      "type": "event"
    },
    {
      "anonymous": false,
      "inputs": [
        {
          "indexed": true,
          "internalType": "bytes32",
          "name": "role",
          "type": "bytes32"
        },
        {
          "indexed": true,
          "internalType": "address",
          "name": "account",
          "type": "address"
        },
        {
          "indexed": true,
          "internalType": "address",
          "name": "sender",
          "type": "address"
        }
      ],
      "name": "RoleGranted",
      "type": "event"
    },
    {
      "anonymous": false,
      "inputs": [
        {
          "indexed": true,
          "internalType": "bytes32",
          "name": "role",
          "type": "bytes32"
        },
        {
          "indexed": true,
          "internalType": "address",
          "name": "account",
          "type": "address"
        },
        {
          "indexed": true,
          "internalType": "address",
          "name": "sender",
          "type": "address"
        }
      ],
      "name": "RoleRevoked",
      "type": "event"
    },
    {
      "anonymous": false,
      "inputs": [
        {
          "indexed": false,
          "internalType": "address",
          "name": "tokenIn",
          "type": "address"
        },
        {
          "indexed": false,
          "internalType": "address",
          "name": "tokenOut",
          "type": "address"
        },
        {
          "indexed": false,
          "internalType": "uint256",
          "name": "amountIn",
          "type": "uint256"
        },
        {
          "indexed": false,
          "internalType": "uint256",
          "name": "amountOut",
          "type": "uint256"
        }
      ],
      "name": "Swap",
      "type": "event"
    },
    {
      "anonymous": false,
      "inputs": [
        {
          "indexed": false,
          "internalType": "address",
          "name": "tokenIn",
          "type": "address"
        },
        {
          "indexed": false,
          "internalType": "string",
          "name": "msg",
          "type": "string"
        }
      ],
      "name": "SwapError",
      "type": "event"
    },
    {
      "anonymous": false,
      "inputs": [
        {
          "indexed": false,
          "internalType": "address",
          "name": "sender",
          "type": "address"
        },
        {
          "indexed": false,
          "internalType": "string",
          "name": "token",
          "type": "string"
        },
        {
          "indexed": false,
          "internalType": "address",
          "name": "oldTokenAddress",
          "type": "address"
        },
        {
          "indexed": false,
          "internalType": "address",
          "name": "newTokenAddress",
          "type": "address"
        }
      ],
      "name": "TokenAddressChange",
      "type": "event"
    },
    {
      "anonymous": false,
      "inputs": [
        {
          "indexed": false,
          "internalType": "address",
          "name": "sender",
          "type": "address"
        },
        {
          "indexed": false,
          "internalType": "string",
          "name": "token",
          "type": "string"
        },
        {
          "indexed": false,
          "internalType": "uint256",
          "name": "amount",
          "type": "uint256"
        }
      ],
      "name": "Withdraw",
      "type": "event"
    },
    {
      "anonymous": false,
      "inputs": [
        {
          "indexed": false,
          "internalType": "address",
          "name": "sender",
          "type": "address"
        },
        {
          "indexed": false,
          "internalType": "string",
          "name": "token",
          "type": "string"
        },
        {
          "indexed": false,
          "internalType": "uint256",
          "name": "oldWithdrawalLimit",
          "type": "uint256"
        },
        {
          "indexed": false,
          "internalType": "uint256",
          "name": "newWithdrawalLimit",
          "type": "uint256"
        }
      ],
      "name": "WithdrawalLimitChange",
      "type": "event"
    },
    {
      "inputs": [],
      "name": "ACONCAGUA_ROLE",
      "outputs": [
        {
          "internalType": "bytes32",
          "name": "",
          "type": "bytes32"
        }
      ],
      "stateMutability": "view",
      "type": "function"
    },
    {
      "inputs": [],
      "name": "DEFAULT_ADMIN_ROLE",
      "outputs": [
        {
          "internalType": "bytes32",
          "name": "",
          "type": "bytes32"
        }
      ],
      "stateMutability": "view",
      "type": "function"
    },
    {
      "inputs": [],
      "name": "LENDER_LIQ_ROLE",
      "outputs": [
        {
          "internalType": "bytes32",
          "name": "",
          "type": "bytes32"
        }
      ],
      "stateMutability": "view",
      "type": "function"
    },
    {
      "inputs": [],
      "name": "PAUSER_ROLE",
      "outputs": [
        {
          "internalType": "bytes32",
          "name": "",
          "type": "bytes32"
        }
      ],
      "stateMutability": "view",
      "type": "function"
    },
    {
      "inputs": [],
      "name": "RESCUER_ROLE",
      "outputs": [
        {
          "internalType": "bytes32",
          "name": "",
          "type": "bytes32"
        }
      ],
      "stateMutability": "view",
      "type": "function"
    },
    {
      "inputs": [],
      "name": "SWAPPER_ROLE",
      "outputs": [
        {
          "internalType": "bytes32",
          "name": "",
          "type": "bytes32"
        }
      ],
      "stateMutability": "view",
      "type": "function"
    },
    {
      "inputs": [
        {
          "internalType": "string",
          "name": "_tokenSymbol",
          "type": "string"
        }
      ],
      "name": "balanceOf",
      "outputs": [
        {
          "internalType": "uint256",
          "name": "",
          "type": "uint256"
        }
      ],
      "stateMutability": "view",
      "type": "function"
    },
    {
      "inputs": [],
      "name": "getBalances",
      "outputs": [
        {
          "internalType": "uint256[]",
          "name": "",
          "type": "uint256[]"
        }
      ],
      "stateMutability": "view",
      "type": "function"
    },
    {
      "inputs": [
        {
          "internalType": "bytes32",
          "name": "role",
          "type": "bytes32"
        }
      ],
      "name": "getRoleAdmin",
      "outputs": [
        {
          "internalType": "bytes32",
          "name": "",
          "type": "bytes32"
        }
      ],
      "stateMutability": "view",
      "type": "function"
    },
    {
      "inputs": [
        {
          "internalType": "uint256",
          "name": "index",
          "type": "uint256"
        }
      ],
      "name": "getRoleByIndex",
      "outputs": [
        {
          "internalType": "bytes32",
          "name": "",
          "type": "bytes32"
        }
      ],
      "stateMutability": "view",
      "type": "function"
    },
    {
      "inputs": [],
      "name": "getRoleCount",
      "outputs": [
        {
          "internalType": "uint256",
          "name": "",
          "type": "uint256"
        }
      ],
      "stateMutability": "view",
      "type": "function"
    },
    {
      "inputs": [
        {
          "internalType": "bytes32",
          "name": "role",
          "type": "bytes32"
        },
        {
          "internalType": "uint256",
          "name": "index",
          "type": "uint256"
        }
      ],
      "name": "getRoleMember",
      "outputs": [
        {
          "internalType": "address",
          "name": "",
          "type": "address"
        }
      ],
      "stateMutability": "view",
      "type": "function"
    },
    {
      "inputs": [
        {
          "internalType": "bytes32",
          "name": "role",
          "type": "bytes32"
        }
      ],
      "name": "getRoleMemberCount",
      "outputs": [
        {
          "internalType": "uint256",
          "name": "",
          "type": "uint256"
        }
      ],
      "stateMutability": "view",
      "type": "function"
    },
    {
      "inputs": [],
      "name": "getTokenNames",
      "outputs": [
        {
          "internalType": "string[]",
          "name": "",
          "type": "string[]"
        }
      ],
      "stateMutability": "view",
      "type": "function"
    },
    {
      "inputs": [
        {
          "internalType": "bytes32",
          "name": "role",
          "type": "bytes32"
        },
        {
          "internalType": "address",
          "name": "account",
          "type": "address"
        }
      ],
      "name": "grantRole",
      "outputs": [],
      "stateMutability": "nonpayable",
      "type": "function"
    },
    {
      "inputs": [
        {
          "internalType": "bytes32",
          "name": "role",
          "type": "bytes32"
        },
        {
          "internalType": "address",
          "name": "account",
          "type": "address"
        }
      ],
      "name": "hasRole",
      "outputs": [
        {
          "internalType": "bool",
          "name": "",
          "type": "bool"
        }
      ],
      "stateMutability": "view",
      "type": "function"
    },
    {
      "inputs": [
        {
          "internalType": "string[]",
          "name": "_tokenNames",
          "type": "string[]"
        },
        {
          "internalType": "address[]",
          "name": "_tokenAddresses",
          "type": "address[]"
        },
        {
          "internalType": "address[3]",
          "name": "_aconcagua",
          "type": "address[3]"
        },
        {
          "internalType": "address",
          "name": "_rescueWalletAddress",
          "type": "address"
        },
        {
          "internalType": "address",
          "name": "_withdrawWalletAddress",
          "type": "address"
        },
        {
          "internalType": "address",
          "name": "_firstLenderLiq",
          "type": "address"
        },
        {
          "internalType": "address",
          "name": "_secondLenderLiq",
          "type": "address"
        },
        {
          "internalType": "address",
          "name": "_swapRouterAddress",
          "type": "address"
        },
        {
          "internalType": "address",
          "name": "_swapper",
          "type": "address"
        }
      ],
      "name": "initialize",
      "outputs": [],
      "stateMutability": "nonpayable",
      "type": "function"
    },
    {
      "inputs": [
        {
          "internalType": "bytes32",
          "name": "role",
          "type": "bytes32"
        },
        {
          "internalType": "address",
          "name": "account",
          "type": "address"
        }
      ],
      "name": "renounceRole",
      "outputs": [],
      "stateMutability": "nonpayable",
      "type": "function"
    },
    {
      "inputs": [
        {
          "internalType": "uint256",
          "name": "_amount",
          "type": "uint256"
        },
        {
          "internalType": "string",
          "name": "_tokenSymbol",
          "type": "string"
        }
      ],
      "name": "rescue",
      "outputs": [],
      "stateMutability": "nonpayable",
      "type": "function"
    },
    {
      "inputs": [],
      "name": "rescueWalletAddress",
      "outputs": [
        {
          "internalType": "address",
          "name": "",
          "type": "address"
        }
      ],
      "stateMutability": "view",
      "type": "function"
    },
    {
      "inputs": [
        {
          "internalType": "bytes32",
          "name": "role",
          "type": "bytes32"
        },
        {
          "internalType": "address",
          "name": "account",
          "type": "address"
        }
      ],
      "name": "revokeRole",
      "outputs": [],
      "stateMutability": "nonpayable",
      "type": "function"
    },
    {
      "inputs": [
        {
          "internalType": "address",
          "name": "_rescueWalletAddress",
          "type": "address"
        }
      ],
      "name": "setRescueWalletAddress",
      "outputs": [],
      "stateMutability": "nonpayable",
      "type": "function"
    },
    {
      "inputs": [
        {
          "internalType": "address",
          "name": "_withdrawWalletAddress",
          "type": "address"
        }
      ],
      "name": "setWithdrawWalletAddress",
      "outputs": [],
      "stateMutability": "nonpayable",
      "type": "function"
    },
    {
      "inputs": [
        {
          "internalType": "bytes4",
          "name": "interfaceId",
          "type": "bytes4"
        }
      ],
      "name": "supportsInterface",
      "outputs": [
        {
          "internalType": "bool",
          "name": "",
          "type": "bool"
        }
      ],
      "stateMutability": "view",
      "type": "function"
    },
    {
      "inputs": [
        {
          "components": [
            {
              "components": [
                {
                  "internalType": "bytes",
                  "name": "path",
                  "type": "bytes"
                },
                {
                  "internalType": "address",
                  "name": "recipient",
                  "type": "address"
                },
                {
                  "internalType": "uint256",
                  "name": "deadline",
                  "type": "uint256"
                },
                {
                  "internalType": "uint256",
                  "name": "amountIn",
                  "type": "uint256"
                },
                {
                  "internalType": "uint256",
                  "name": "amountOutMinimum",
                  "type": "uint256"
                }
              ],
              "internalType": "struct ISwapRouter.ExactInputParams",
              "name": "params",
              "type": "tuple"
            },
            {
              "internalType": "address",
              "name": "tokenIn",
              "type": "address"
            },
            {
              "internalType": "address",
              "name": "tokenOut",
              "type": "address"
            }
          ],
          "internalType": "struct IColateralContract2.SwapParams[]",
          "name": "swapsParams",
          "type": "tuple[]"
        }
      ],
      "name": "swapExactInputs",
      "outputs": [],
      "stateMutability": "nonpayable",
      "type": "function"
    },
    {
      "inputs": [
        {
          "internalType": "uint256",
          "name": "",
          "type": "uint256"
        }
      ],
      "name": "tokenNames",
      "outputs": [
        {
          "internalType": "string",
          "name": "",
          "type": "string"
        }
      ],
      "stateMutability": "view",
      "type": "function"
    },
    {
      "inputs": [
        {
          "internalType": "string",
          "name": "",
          "type": "string"
        }
      ],
      "name": "tokenTable",
      "outputs": [
        {
          "internalType": "address",
          "name": "",
          "type": "address"
        }
      ],
      "stateMutability": "view",
      "type": "function"
    },
    {
      "inputs": [],
      "name": "version",
      "outputs": [
        {
          "internalType": "string",
          "name": "",
          "type": "string"
        }
      ],
      "stateMutability": "pure",
      "type": "function"
    },
    {
      "inputs": [
        {
          "internalType": "uint256",
          "name": "_amount",
          "type": "uint256"
        },
        {
          "internalType": "string",
          "name": "_tokenSymbol",
          "type": "string"
        }
      ],
      "name": "withdraw",
      "outputs": [],
      "stateMutability": "nonpayable",
      "type": "function"
    },
    {
      "inputs": [],
      "name": "withdrawWalletAddress",
      "outputs": [
        {
          "internalType": "address",
          "name": "",
          "type": "address"
        }
      ],
      "stateMutability": "view",
      "type": "function"
    },
    {
      "stateMutability": "payable",
      "type": "receive"
    }
  ],
  "bytecode": "0x608060405273fcf5986450e4a014ffe7ad4ae24921b589d039b560fd60006101000a81548173ffffffffffffffffffffffffffffffffffffffff021916908373ffffffffffffffffffffffffffffffffffffffff1602179055503480156200006657600080fd5b50620000776200007d60201b60201c565b62000227565b600060019054906101000a900460ff1615620000d0576040517f08c379a0000000000000000000000000000000000000000000000000000000008152600401620000c790620001ca565b60405180910390fd5b60ff801660008054906101000a900460ff1660ff1614620001415760ff6000806101000a81548160ff021916908360ff1602179055507f7f26b83ff96e1f2b6a682f133852f6798a09c465da95921460cefb384740249860ff6040516200013891906200020a565b60405180910390a15b565b600082825260208201905092915050565b7f496e697469616c697a61626c653a20636f6e747261637420697320696e69746960008201527f616c697a696e6700000000000000000000000000000000000000000000000000602082015250565b6000620001b260278362000143565b9150620001bf8262000154565b604082019050919050565b60006020820190508181036000830152620001e581620001a3565b9050919050565b600060ff82169050919050565b6200020481620001ec565b82525050565b6000602082019050620002216000830184620001f9565b92915050565b615af780620002376000396000f3fe6080604052600436106101d05760003560e01c806355452d04116100f7578063b14ec10111610095578063dc048cf211610064578063dc048cf2146107b1578063df668eca146107da578063e5df800a14610805578063e63ab1e914610830576102bc565b8063b14ec101146106f7578063ca15c87314610722578063d00411c91461075f578063d547741f14610788576102bc565b806383d33319116100d157806383d33319146106275780639010d07c1461065257806391d148541461068f578063a217fddf146106cc576102bc565b806355452d041461059657806371372544146105d357806372626285146105fe576102bc565b80632ad753e41161016f57806332cc815d1161013e57806332cc815d146104da57806335ee5f871461050557806336568abe1461054257806354fd4d501461056b576102bc565b80632ad753e4146104205780632f2ff15d1461044b5780632ffe994214610474578063310495ab1461049d576102bc565b806315ac7358116101ab57806315ac735814610352578063212f60391461037d578063248a9ca3146103a657806325acc985146103e3576102bc565b8062113e08146102c157806301ffc9a7146102ec5780630828c40414610329576102bc565b366102bc57601e460361027f5760ff6040516101eb90613492565b908152602001604051809103902060009054906101000a900473ffffffffffffffffffffffffffffffffffffffff1673ffffffffffffffffffffffffffffffffffffffff1663d0e30db0346040518263ffffffff1660e01b81526004016000604051808303818588803b15801561026157600080fd5b505af1158015610275573d6000803e3d6000fd5b50505050506102ba565b6040517f08c379a00000000000000000000000000000000000000000000000000000000081526004016102b190613504565b60405180910390fd5b005b600080fd5b3480156102cd57600080fd5b506102d661085b565b6040516102e391906135ec565b60405180910390f35b3480156102f857600080fd5b50610313600480360381019061030e919061367a565b6109e4565b60405161032091906136c2565b60405180910390f35b34801561033557600080fd5b50610350600480360381019061034b919061376e565b610a5e565b005b34801561035e57600080fd5b50610367610b75565b604051610374919061380f565b60405180910390f35b34801561038957600080fd5b506103a4600480360381019061039f9190613856565b610b9c565b005b3480156103b257600080fd5b506103cd60048036038101906103c891906138b9565b610c7b565b6040516103da91906138f5565b60405180910390f35b3480156103ef57600080fd5b5061040a60048036038101906104059190613910565b610c9b565b60405161041791906138f5565b60405180910390f35b34801561042c57600080fd5b50610435610cb8565b6040516104429190613a8f565b60405180910390f35b34801561045757600080fd5b50610472600480360381019061046d9190613ab1565b610d91565b005b34801561048057600080fd5b5061049b60048036038101906104969190613b47565b610db2565b005b3480156104a957600080fd5b506104c460048036038101906104bf9190613910565b6114a9565b6040516104d19190613bcd565b60405180910390f35b3480156104e657600080fd5b506104ef611555565b6040516104fc91906138f5565b60405180910390f35b34801561051157600080fd5b5061052c60048036038101906105279190613d1f565b611579565b6040516105399190613d77565b60405180910390f35b34801561054e57600080fd5b5061056960048036038101906105649190613ab1565b61163f565b005b34801561057757600080fd5b506105806116c2565b60405161058d9190613bcd565b60405180910390f35b3480156105a257600080fd5b506105bd60048036038101906105b89190613d1f565b6116ff565b6040516105ca919061380f565b60405180910390f35b3480156105df57600080fd5b506105e8611748565b6040516105f591906138f5565b60405180910390f35b34801561060a57600080fd5b5061062560048036038101906106209190613e60565b61176c565b005b34801561063357600080fd5b5061063c61228e565b6040516106499190613d77565b60405180910390f35b34801561065e57600080fd5b5061067960048036038101906106749190613f6e565b61229f565b604051610686919061380f565b60405180910390f35b34801561069b57600080fd5b506106b660048036038101906106b19190613ab1565b6122ce565b6040516106c391906136c2565b60405180910390f35b3480156106d857600080fd5b506106e1612339565b6040516106ee91906138f5565b60405180910390f35b34801561070357600080fd5b5061070c612340565b604051610719919061380f565b60405180910390f35b34801561072e57600080fd5b50610749600480360381019061074491906138b9565b612367565b6040516107569190613d77565b60405180910390f35b34801561076b57600080fd5b5061078660048036038101906107819190613856565b61238b565b005b34801561079457600080fd5b506107af60048036038101906107aa9190613ab1565b61246a565b005b3480156107bd57600080fd5b506107d860048036038101906107d3919061376e565b61248b565b005b3480156107e657600080fd5b506107ef612599565b6040516107fc91906138f5565b60405180910390f35b34801561081157600080fd5b5061081a6125bd565b60405161082791906138f5565b60405180910390f35b34801561083c57600080fd5b506108456125e1565b60405161085291906138f5565b60405180910390f35b60606000600160fe805490506108719190613fdd565b67ffffffffffffffff81111561088a57610889613bf4565b5b6040519080825280602002602001820160405280156108b85781602001602082028036833780820191505090505b50905047816000815181106108d0576108cf614011565b5b6020026020010181815250506000600190505b60fe8054905081116109dc576109aa60fe6001836109019190614040565b8154811061091257610911614011565b5b906000526020600020018054610927906140a3565b80601f0160208091040260200160405190810160405280929190818152602001828054610953906140a3565b80156109a05780601f10610975576101008083540402835291602001916109a0565b820191906000526020600020905b81548152906001019060200180831161098357829003601f168201915b5050505050611579565b8282815181106109bd576109bc614011565b5b60200260200101818152505080806109d4906140d4565b9150506108e3565b508091505090565b60007f5a05180f000000000000000000000000000000000000000000000000000000007bffffffffffffffffffffffffffffffffffffffffffffffffffffffff1916827bffffffffffffffffffffffffffffffffffffffffffffffffffffffff19161480610a575750610a5682612605565b5b9050919050565b7fbffb4faf8a508f503a2ca036effd0bc1f82615d3ebfddb934edf718f23672707610a888161267f565b610a90612693565b610afe60ff8484604051610aa5929190614141565b908152602001604051809103902060009054906101000a900473ffffffffffffffffffffffffffffffffffffffff1661010060009054906101000a900473ffffffffffffffffffffffffffffffffffffffff16866126e2565b7f22cb89e6358014bb27f5658e2b820189f8f4c9e3f7165ecf266edc53be12d9fa610b27612768565b84848761010060009054906101000a900473ffffffffffffffffffffffffffffffffffffffff16604051610b5f959493929190614187565b60405180910390a1610b6f612770565b50505050565b61010060009054906101000a900473ffffffffffffffffffffffffffffffffffffffff1681565b7ffaad79a708d82d095486f5a83b18341f12a8f717d3011ab929d43135c1af73e2610bc68161267f565b600073ffffffffffffffffffffffffffffffffffffffff168273ffffffffffffffffffffffffffffffffffffffff1603610c35576040517f08c379a0000000000000000000000000000000000000000000000000000000008152600401610c2c90614221565b60405180910390fd5b8161010160006101000a81548173ffffffffffffffffffffffffffffffffffffffff021916908373ffffffffffffffffffffffffffffffffffffffff1602179055505050565b600060656000838152602001908152602001600020600101549050919050565b6000610cb18260fb61277a90919063ffffffff16565b9050919050565b606060fe805480602002602001604051908101604052809291908181526020016000905b82821015610d88578382906000526020600020018054610cfb906140a3565b80601f0160208091040260200160405190810160405280929190818152602001828054610d27906140a3565b8015610d745780601f10610d4957610100808354040283529160200191610d74565b820191906000526020600020905b815481529060010190602001808311610d5757829003601f168201915b505050505081526020019060010190610cdc565b50505050905090565b610d9a82610c7b565b610da38161267f565b610dad8383612791565b505050565b7fd2761b102bda9831f4af400cc824b8cecb9cc5c1c85c51acb1479db9735fbfc6610ddc8161267f565b60005b838390508110156114a35736848483818110610dfe57610dfd614011565b5b9050602002810190610e109190614250565b90503073ffffffffffffffffffffffffffffffffffffffff16818060000190610e399190614278565b6020016020810190610e4b9190613856565b73ffffffffffffffffffffffffffffffffffffffff1614610ea1576040517f08c379a0000000000000000000000000000000000000000000000000000000008152600401610e98906142ec565b60405180910390fd5b6000818060000190610eb39190614278565b6080013511610ef7576040517f08c379a0000000000000000000000000000000000000000000000000000000008152600401610eee90614358565b60405180910390fd5b610f12816040016020810190610f0d9190613856565b6127c5565b610f51576040517f08c379a0000000000000000000000000000000000000000000000000000000008152600401610f48906143c4565b60405180910390fd5b6000816020016020810190610f669190613856565b90506000828060000190610f7a9190614278565b6060013511801561101757508073ffffffffffffffffffffffffffffffffffffffff166370a08231306040518263ffffffff1660e01b8152600401610fbf919061380f565b602060405180830381865afa158015610fdc573d6000803e3d6000fd5b505050506040513d601f19601f8201168201806040525081019061100091906143f9565b8280600001906110109190614278565b6060013511155b611056576040517f08c379a000000000000000000000000000000000000000000000000000000000815260040161104d90614472565b60405180910390fd5b600082604001602081019061106b9190613856565b73ffffffffffffffffffffffffffffffffffffffff166370a08231306040518263ffffffff1660e01b81526004016110a3919061380f565b602060405180830381865afa1580156110c0573d6000803e3d6000fd5b505050506040513d601f19601f820116820180604052508101906110e491906143f9565b90506111278261010260009054906101000a900473ffffffffffffffffffffffffffffffffffffffff1685806000019061111e9190614278565b606001356126e2565b60008060f81b60405160200161113d91906144df565b60405160208183030381529060405290506000600167ffffffffffffffff81111561116b5761116a613bf4565b5b60405190808252806020026020018201604052801561119e57816020015b60608152602001906001900390816111895790505b5090508480600001906111b19190614278565b60200160208101906111c39190613856565b8580600001906111d39190614278565b606001358680600001906111e79190614278565b608001358780600001906111fb9190614278565b806000019061120a91906144fa565b60006040516020016112219695949392919061459b565b6040516020818303038152906040528160008151811061124457611243614011565b5b602002602001018190525061010260009054906101000a900473ffffffffffffffffffffffffffffffffffffffff1673ffffffffffffffffffffffffffffffffffffffff16633593564c83838880600001906112a09190614278565b604001356040518463ffffffff1660e01b81526004016112c293929190614747565b600060405180830381600087803b1580156112dc57600080fd5b505af19250505080156112ed575060015b61137a576112f9614799565b806308c379a003611369575061130d6147bb565b80611318575061136b565b7f48dbf1f65dc9fb918dcf47a87d0d7dbfe9cd78bcfaea409049ee36785201cb9186602001602081019061134c9190613856565b8260405161135b92919061484b565b60405180910390a150611375565b505b3d6000803e3d6000fd5b61148b565b600085604001602081019061138f9190613856565b73ffffffffffffffffffffffffffffffffffffffff166370a08231306040518263ffffffff1660e01b81526004016113c7919061380f565b602060405180830381865afa1580156113e4573d6000803e3d6000fd5b505050506040513d601f19601f8201168201806040525081019061140891906143f9565b90507ffa2dda1cc1b86e41239702756b13effbc1a092b5c57e3ad320fbe4f3b13fe23586602001602081019061143e9190613856565b8760400160208101906114519190613856565b8880600001906114619190614278565b6060013587856114719190614040565b604051611481949392919061487b565b60405180910390a1505b5050505050808061149b906140d4565b915050610ddf565b50505050565b60fe81815481106114b957600080fd5b9060005260206000200160009150905080546114d4906140a3565b80601f0160208091040260200160405190810160405280929190818152602001828054611500906140a3565b801561154d5780601f106115225761010080835404028352916020019161154d565b820191906000526020600020905b81548152906001019060200180831161153057829003601f168201915b505050505081565b7ffd37f88a14d7ed985885a1af8f2ad5b64dd7eb00ab89168649791632bb9bb4a681565b60008060ff8360405161158c91906148f1565b908152602001604051809103902060009054906101000a900473ffffffffffffffffffffffffffffffffffffffff1690508073ffffffffffffffffffffffffffffffffffffffff166370a08231306040518263ffffffff1660e01b81526004016115f6919061380f565b602060405180830381865afa158015611613573d6000803e3d6000fd5b505050506040513d601f19601f8201168201806040525081019061163791906143f9565b915050919050565b611647612768565b73ffffffffffffffffffffffffffffffffffffffff168173ffffffffffffffffffffffffffffffffffffffff16146116b4576040517f08c379a00000000000000000000000000000000000000000000000000000000081526004016116ab9061497a565b60405180910390fd5b6116be8282612890565b5050565b60606040518060400160405280600581526020017f322e302e30000000000000000000000000000000000000000000000000000000815250905090565b60ff818051602081018201805184825260208301602085012081835280955050505050506000915054906101000a900473ffffffffffffffffffffffffffffffffffffffff1681565b7fbffb4faf8a508f503a2ca036effd0bc1f82615d3ebfddb934edf718f2367270781565b60008060019054906101000a900460ff1615905080801561179d5750600160008054906101000a900460ff1660ff16105b806117ca57506117ac306128c4565b1580156117c95750600160008054906101000a900460ff1660ff16145b5b611809576040517f08c379a000000000000000000000000000000000000000000000000000000000815260040161180090614a0c565b60405180910390fd5b60016000806101000a81548160ff021916908360ff1602179055508015611846576001600060016101000a81548160ff0219169083151502179055505b600073ffffffffffffffffffffffffffffffffffffffff168860006003811061187257611871614011565b5b6020020160208101906118859190613856565b73ffffffffffffffffffffffffffffffffffffffff161415806118fb5750600073ffffffffffffffffffffffffffffffffffffffff16886001600381106118cf576118ce614011565b5b6020020160208101906118e29190613856565b73ffffffffffffffffffffffffffffffffffffffff1614155b806119595750600073ffffffffffffffffffffffffffffffffffffffff168860026003811061192d5761192c614011565b5b6020020160208101906119409190613856565b73ffffffffffffffffffffffffffffffffffffffff1614155b611998576040517f08c379a000000000000000000000000000000000000000000000000000000000815260040161198f90614a78565b60405180910390fd5b600073ffffffffffffffffffffffffffffffffffffffff168773ffffffffffffffffffffffffffffffffffffffff1603611a07576040517f08c379a00000000000000000000000000000000000000000000000000000000081526004016119fe90614ae4565b60405180910390fd5b600073ffffffffffffffffffffffffffffffffffffffff168673ffffffffffffffffffffffffffffffffffffffff1603611a76576040517f08c379a0000000000000000000000000000000000000000000000000000000008152600401611a6d90614b50565b60405180910390fd5b600073ffffffffffffffffffffffffffffffffffffffff168573ffffffffffffffffffffffffffffffffffffffff1603611ae5576040517f08c379a0000000000000000000000000000000000000000000000000000000008152600401611adc90614bbc565b60405180910390fd5b600073ffffffffffffffffffffffffffffffffffffffff168473ffffffffffffffffffffffffffffffffffffffff1603611b54576040517f08c379a0000000000000000000000000000000000000000000000000000000008152600401611b4b90614c28565b60405180910390fd5b600073ffffffffffffffffffffffffffffffffffffffff168373ffffffffffffffffffffffffffffffffffffffff1603611bc3576040517f08c379a0000000000000000000000000000000000000000000000000000000008152600401611bba90614c94565b60405180910390fd5b600073ffffffffffffffffffffffffffffffffffffffff168273ffffffffffffffffffffffffffffffffffffffff1603611c32576040517f08c379a0000000000000000000000000000000000000000000000000000000008152600401611c2990614d00565b60405180910390fd5b611c3a6128e7565b611c42612938565b898990508c8c905014611c8a576040517f08c379a0000000000000000000000000000000000000000000000000000000008152600401611c8190614d92565b60405180910390fd5b60005b8c8c9050811015611db5578a8a82818110611cab57611caa614011565b5b9050602002016020810190611cc09190613856565b60ff8e8e84818110611cd557611cd4614011565b5b9050602002810190611ce79190614db2565b604051611cf5929190614141565b908152602001604051809103902060006101000a81548173ffffffffffffffffffffffffffffffffffffffff021916908373ffffffffffffffffffffffffffffffffffffffff16021790555060fe8d8d83818110611d5657611d55614011565b5b9050602002810190611d689190614db2565b90918060018154018082558091505060019003906000526020600020016000909192909192909192909192509182611da1929190614fcc565b508080611dad906140d4565b915050611c8d565b508561010160006101000a81548173ffffffffffffffffffffffffffffffffffffffff021916908373ffffffffffffffffffffffffffffffffffffffff1602179055508661010060006101000a81548173ffffffffffffffffffffffffffffffffffffffff021916908373ffffffffffffffffffffffffffffffffffffffff1602179055508261010260006101000a81548173ffffffffffffffffffffffffffffffffffffffff021916908373ffffffffffffffffffffffffffffffffffffffff160217905550611eb07ffaad79a708d82d095486f5a83b18341f12a8f717d3011ab929d43135c1af73e260fb61299190919063ffffffff16565b50611ee57ffd37f88a14d7ed985885a1af8f2ad5b64dd7eb00ab89168649791632bb9bb4a660fb61299190919063ffffffff16565b50611f1a7fbffb4faf8a508f503a2ca036effd0bc1f82615d3ebfddb934edf718f2367270760fb61299190919063ffffffff16565b50611f4f7fd2761b102bda9831f4af400cc824b8cecb9cc5c1c85c51acb1479db9735fbfc660fb61299190919063ffffffff16565b50611fa07ffaad79a708d82d095486f5a83b18341f12a8f717d3011ab929d43135c1af73e289600060038110611f8857611f87614011565b5b602002016020810190611f9b9190613856565b612791565b611ff07ffaad79a708d82d095486f5a83b18341f12a8f717d3011ab929d43135c1af73e289600160038110611fd857611fd7614011565b5b602002016020810190611feb9190613856565b612791565b6120407ffaad79a708d82d095486f5a83b18341f12a8f717d3011ab929d43135c1af73e28960026003811061202857612027614011565b5b60200201602081019061203b9190613856565b612791565b61206a7ffd37f88a14d7ed985885a1af8f2ad5b64dd7eb00ab89168649791632bb9bb4a686612791565b6120947ffd37f88a14d7ed985885a1af8f2ad5b64dd7eb00ab89168649791632bb9bb4a685612791565b6120be7fbffb4faf8a508f503a2ca036effd0bc1f82615d3ebfddb934edf718f2367270786612791565b6120e87fbffb4faf8a508f503a2ca036effd0bc1f82615d3ebfddb934edf718f2367270785612791565b6121127fd2761b102bda9831f4af400cc824b8cecb9cc5c1c85c51acb1479db9735fbfc683612791565b61213c7ffaad79a708d82d095486f5a83b18341f12a8f717d3011ab929d43135c1af73e2806129a8565b6121667ffd37f88a14d7ed985885a1af8f2ad5b64dd7eb00ab89168649791632bb9bb4a6806129a8565b6121907fbffb4faf8a508f503a2ca036effd0bc1f82615d3ebfddb934edf718f23672707806129a8565b6121da7fd2761b102bda9831f4af400cc824b8cecb9cc5c1c85c51acb1479db9735fbfc67ffaad79a708d82d095486f5a83b18341f12a8f717d3011ab929d43135c1af73e26129a8565b7f601edfe63b019dab49ada69a178b64e0c3ff132d08bbdcdf1ebe6d6da15fef0a338d8d8d8d8d8d8d8d8d8d8d60405161221f9c9b9a9998979695949392919061532d565b60405180910390a180156122805760008060016101000a81548160ff0219169083151502179055507f7f26b83ff96e1f2b6a682f133852f6798a09c465da95921460cefb384740249860016040516122779190615425565b60405180910390a15b505050505050505050505050565b600061229a60fb612a04565b905090565b60006122c68260976000868152602001908152602001600020612a1990919063ffffffff16565b905092915050565b60006065600084815260200190815260200160002060000160008373ffffffffffffffffffffffffffffffffffffffff1673ffffffffffffffffffffffffffffffffffffffff16815260200190815260200160002060009054906101000a900460ff16905092915050565b6000801b81565b61010160009054906101000a900473ffffffffffffffffffffffffffffffffffffffff1681565b600061238460976000848152602001908152602001600020612a33565b9050919050565b7ffaad79a708d82d095486f5a83b18341f12a8f717d3011ab929d43135c1af73e26123b58161267f565b600073ffffffffffffffffffffffffffffffffffffffff168273ffffffffffffffffffffffffffffffffffffffff1603612424576040517f08c379a000000000000000000000000000000000000000000000000000000000815260040161241b9061548c565b60405180910390fd5b8161010060006101000a81548173ffffffffffffffffffffffffffffffffffffffff021916908373ffffffffffffffffffffffffffffffffffffffff1602179055505050565b61247382610c7b565b61247c8161267f565b6124868383612890565b505050565b7ffd37f88a14d7ed985885a1af8f2ad5b64dd7eb00ab89168649791632bb9bb4a66124b58161267f565b6124bd612693565b61252b60ff84846040516124d2929190614141565b908152602001604051809103902060009054906101000a900473ffffffffffffffffffffffffffffffffffffffff1661010160009054906101000a900473ffffffffffffffffffffffffffffffffffffffff16866126e2565b7f901c03da5d88eb3d62ab4617e7b7d17d86db16356823a7971127d5181a842fef61010160009054906101000a900473ffffffffffffffffffffffffffffffffffffffff1684848760405161258394939291906154ac565b60405180910390a1612593612770565b50505050565b7fd2761b102bda9831f4af400cc824b8cecb9cc5c1c85c51acb1479db9735fbfc681565b7ffaad79a708d82d095486f5a83b18341f12a8f717d3011ab929d43135c1af73e281565b7f539440820030c4994db4e31b6b800deafd503688728f932addfe7a410515c14c81565b60007f7965db0b000000000000000000000000000000000000000000000000000000007bffffffffffffffffffffffffffffffffffffffffffffffffffffffff1916827bffffffffffffffffffffffffffffffffffffffffffffffffffffffff19161480612678575061267782612a48565b5b9050919050565b6126908161268b612768565b612ab2565b50565b600260c954036126d8576040517f08c379a00000000000000000000000000000000000000000000000000000000081526004016126cf90615538565b60405180910390fd5b600260c981905550565b6127638363a9059cbb60e01b8484604051602401612701929190615558565b604051602081830303815290604052907bffffffffffffffffffffffffffffffffffffffffffffffffffffffff19166020820180517bffffffffffffffffffffffffffffffffffffffffffffffffffffffff8381831617835250505050612b37565b505050565b600033905090565b600160c981905550565b60006127898360000183612bff565b905092915050565b61279b8282612c2a565b6127c08160976000858152602001908152602001600020612d0b90919063ffffffff16565b505050565b600080600090505b60fe80549050811015612885578273ffffffffffffffffffffffffffffffffffffffff1660ff60fe838154811061280757612806614011565b5b9060005260206000200160405161281e9190615604565b908152602001604051809103902060009054906101000a900473ffffffffffffffffffffffffffffffffffffffff1673ffffffffffffffffffffffffffffffffffffffff160361287257600191505061288b565b808061287d906140d4565b9150506127cd565b50600090505b919050565b61289a8282612d3b565b6128bf8160976000858152602001908152602001600020612e1d90919063ffffffff16565b505050565b6000808273ffffffffffffffffffffffffffffffffffffffff163b119050919050565b600060019054906101000a900460ff16612936576040517f08c379a000000000000000000000000000000000000000000000000000000000815260040161292d9061568d565b60405180910390fd5b565b600060019054906101000a900460ff16612987576040517f08c379a000000000000000000000000000000000000000000000000000000000815260040161297e9061568d565b60405180910390fd5b600160c981905550565b60006129a08360000183612e4d565b905092915050565b60006129b383610c7b565b90508160656000858152602001908152602001600020600101819055508181847fbd79b86ffe0ab8e8776151514217cd7cacd52c909f66475c3af44e129f0b00ff60405160405180910390a4505050565b6000612a1282600001612ebd565b9050919050565b6000612a288360000183612bff565b60001c905092915050565b6000612a4182600001612ebd565b9050919050565b60007f01ffc9a7000000000000000000000000000000000000000000000000000000007bffffffffffffffffffffffffffffffffffffffffffffffffffffffff1916827bffffffffffffffffffffffffffffffffffffffffffffffffffffffff1916149050919050565b612abc82826122ce565b612b3357612ac981612ece565b612ad78360001c6020612efb565b604051602001612ae8929190615745565b6040516020818303038152906040526040517f08c379a0000000000000000000000000000000000000000000000000000000008152600401612b2a9190613bcd565b60405180910390fd5b5050565b6000612b99826040518060400160405280602081526020017f5361666545524332303a206c6f772d6c6576656c2063616c6c206661696c65648152508573ffffffffffffffffffffffffffffffffffffffff166131379092919063ffffffff16565b9050600081511480612bbb575080806020019051810190612bba91906157ab565b5b612bfa576040517f08c379a0000000000000000000000000000000000000000000000000000000008152600401612bf19061584a565b60405180910390fd5b505050565b6000826000018281548110612c1757612c16614011565b5b9060005260206000200154905092915050565b612c3482826122ce565b612d075760016065600084815260200190815260200160002060000160008373ffffffffffffffffffffffffffffffffffffffff1673ffffffffffffffffffffffffffffffffffffffff16815260200190815260200160002060006101000a81548160ff021916908315150217905550612cac612768565b73ffffffffffffffffffffffffffffffffffffffff168173ffffffffffffffffffffffffffffffffffffffff16837f2f8788117e7eff1d82e926ec794901d17c78024a50270940304540a733656f0d60405160405180910390a45b5050565b6000612d33836000018373ffffffffffffffffffffffffffffffffffffffff1660001b612e4d565b905092915050565b612d4582826122ce565b15612e195760006065600084815260200190815260200160002060000160008373ffffffffffffffffffffffffffffffffffffffff1673ffffffffffffffffffffffffffffffffffffffff16815260200190815260200160002060006101000a81548160ff021916908315150217905550612dbe612768565b73ffffffffffffffffffffffffffffffffffffffff168173ffffffffffffffffffffffffffffffffffffffff16837ff6391f5c32d9c69d2a47ea670b442974b53935d1edc7fd64eb21e047a839171b60405160405180910390a45b5050565b6000612e45836000018373ffffffffffffffffffffffffffffffffffffffff1660001b61314f565b905092915050565b6000612e598383613263565b612eb2578260000182908060018154018082558091505060019003906000526020600020016000909190919091505582600001805490508360010160008481526020019081526020016000208190555060019050612eb7565b600090505b92915050565b600081600001805490509050919050565b6060612ef48273ffffffffffffffffffffffffffffffffffffffff16601460ff16612efb565b9050919050565b606060006002836002612f0e919061586a565b612f189190613fdd565b67ffffffffffffffff811115612f3157612f30613bf4565b5b6040519080825280601f01601f191660200182016040528015612f635781602001600182028036833780820191505090505b5090507f300000000000000000000000000000000000000000000000000000000000000081600081518110612f9b57612f9a614011565b5b60200101907effffffffffffffffffffffffffffffffffffffffffffffffffffffffffffff1916908160001a9053507f780000000000000000000000000000000000000000000000000000000000000081600181518110612fff57612ffe614011565b5b60200101907effffffffffffffffffffffffffffffffffffffffffffffffffffffffffffff1916908160001a9053506000600184600261303f919061586a565b6130499190613fdd565b90505b60018111156130e9577f3031323334353637383961626364656600000000000000000000000000000000600f86166010811061308b5761308a614011565b5b1a60f81b8282815181106130a2576130a1614011565b5b60200101907effffffffffffffffffffffffffffffffffffffffffffffffffffffffffffff1916908160001a905350600485901c9450806130e2906158ac565b905061304c565b506000841461312d576040517f08c379a000000000000000000000000000000000000000000000000000000000815260040161312490615921565b60405180910390fd5b8091505092915050565b60606131468484600085613286565b90509392505050565b600080836001016000848152602001908152602001600020549050600081146132575760006001826131819190614040565b90506000600186600001805490506131999190614040565b90508181146132085760008660000182815481106131ba576131b9614011565b5b90600052602060002001549050808760000184815481106131de576131dd614011565b5b90600052602060002001819055508387600101600083815260200190815260200160002081905550505b8560000180548061321c5761321b615941565b5b60019003818190600052602060002001600090559055856001016000868152602001908152602001600020600090556001935050505061325d565b60009150505b92915050565b600080836001016000848152602001908152602001600020541415905092915050565b6060824710156132cb576040517f08c379a00000000000000000000000000000000000000000000000000000000081526004016132c2906159e2565b60405180910390fd5b6000808673ffffffffffffffffffffffffffffffffffffffff1685876040516132f49190615a3e565b60006040518083038185875af1925050503d8060008114613331576040519150601f19603f3d011682016040523d82523d6000602084013e613336565b606091505b509150915061334787838387613353565b92505050949350505050565b606083156133b55760008351036133ad5761336d856133c8565b6133ac576040517f08c379a00000000000000000000000000000000000000000000000000000000081526004016133a390615aa1565b60405180910390fd5b5b8290506133c0565b6133bf83836133eb565b5b949350505050565b6000808273ffffffffffffffffffffffffffffffffffffffff163b119050919050565b6000825111156133fe5781518083602001fd5b806040517f08c379a00000000000000000000000000000000000000000000000000000000081526004016134329190613bcd565b60405180910390fd5b600081905092915050565b7f5745544800000000000000000000000000000000000000000000000000000000600082015250565b600061347c60048361343b565b915061348782613446565b600482019050919050565b600061349d8261346f565b9150819050919050565b600082825260208201905092915050565b7f4e6f742070617961626c65206f6e207468697320636861696e00000000000000600082015250565b60006134ee6019836134a7565b91506134f9826134b8565b602082019050919050565b6000602082019050818103600083015261351d816134e1565b9050919050565b600081519050919050565b600082825260208201905092915050565b6000819050602082019050919050565b6000819050919050565b61356381613550565b82525050565b6000613575838361355a565b60208301905092915050565b6000602082019050919050565b600061359982613524565b6135a3818561352f565b93506135ae83613540565b8060005b838110156135df5781516135c68882613569565b97506135d183613581565b9250506001810190506135b2565b5085935050505092915050565b60006020820190508181036000830152613606818461358e565b905092915050565b6000604051905090565b600080fd5b600080fd5b60007fffffffff0000000000000000000000000000000000000000000000000000000082169050919050565b61365781613622565b811461366257600080fd5b50565b6000813590506136748161364e565b92915050565b6000602082840312156136905761368f613618565b5b600061369e84828501613665565b91505092915050565b60008115159050919050565b6136bc816136a7565b82525050565b60006020820190506136d760008301846136b3565b92915050565b6136e681613550565b81146136f157600080fd5b50565b600081359050613703816136dd565b92915050565b600080fd5b600080fd5b600080fd5b60008083601f84011261372e5761372d613709565b5b8235905067ffffffffffffffff81111561374b5761374a61370e565b5b60208301915083600182028301111561376757613766613713565b5b9250929050565b60008060006040848603121561378757613786613618565b5b6000613795868287016136f4565b935050602084013567ffffffffffffffff8111156137b6576137b561361d565b5b6137c286828701613718565b92509250509250925092565b600073ffffffffffffffffffffffffffffffffffffffff82169050919050565b60006137f9826137ce565b9050919050565b613809816137ee565b82525050565b60006020820190506138246000830184613800565b92915050565b613833816137ee565b811461383e57600080fd5b50565b6000813590506138508161382a565b92915050565b60006020828403121561386c5761386b613618565b5b600061387a84828501613841565b91505092915050565b6000819050919050565b61389681613883565b81146138a157600080fd5b50565b6000813590506138b38161388d565b92915050565b6000602082840312156138cf576138ce613618565b5b60006138dd848285016138a4565b91505092915050565b6138ef81613883565b82525050565b600060208201905061390a60008301846138e6565b92915050565b60006020828403121561392657613925613618565b5b6000613934848285016136f4565b91505092915050565b600081519050919050565b600082825260208201905092915050565b6000819050602082019050919050565b600081519050919050565b600082825260208201905092915050565b60005b838110156139a3578082015181840152602081019050613988565b60008484015250505050565b6000601f19601f8301169050919050565b60006139cb82613969565b6139d58185613974565b93506139e5818560208601613985565b6139ee816139af565b840191505092915050565b6000613a0583836139c0565b905092915050565b6000602082019050919050565b6000613a258261393d565b613a2f8185613948565b935083602082028501613a4185613959565b8060005b85811015613a7d5784840389528151613a5e85826139f9565b9450613a6983613a0d565b925060208a01995050600181019050613a45565b50829750879550505050505092915050565b60006020820190508181036000830152613aa98184613a1a565b905092915050565b60008060408385031215613ac857613ac7613618565b5b6000613ad6858286016138a4565b9250506020613ae785828601613841565b9150509250929050565b60008083601f840112613b0757613b06613709565b5b8235905067ffffffffffffffff811115613b2457613b2361370e565b5b602083019150836020820283011115613b4057613b3f613713565b5b9250929050565b60008060208385031215613b5e57613b5d613618565b5b600083013567ffffffffffffffff811115613b7c57613b7b61361d565b5b613b8885828601613af1565b92509250509250929050565b6000613b9f82613969565b613ba981856134a7565b9350613bb9818560208601613985565b613bc2816139af565b840191505092915050565b60006020820190508181036000830152613be78184613b94565b905092915050565b600080fd5b7f4e487b7100000000000000000000000000000000000000000000000000000000600052604160045260246000fd5b613c2c826139af565b810181811067ffffffffffffffff82111715613c4b57613c4a613bf4565b5b80604052505050565b6000613c5e61360e565b9050613c6a8282613c23565b919050565b600067ffffffffffffffff821115613c8a57613c89613bf4565b5b613c93826139af565b9050602081019050919050565b82818337600083830152505050565b6000613cc2613cbd84613c6f565b613c54565b905082815260208101848484011115613cde57613cdd613bef565b5b613ce9848285613ca0565b509392505050565b600082601f830112613d0657613d05613709565b5b8135613d16848260208601613caf565b91505092915050565b600060208284031215613d3557613d34613618565b5b600082013567ffffffffffffffff811115613d5357613d5261361d565b5b613d5f84828501613cf1565b91505092915050565b613d7181613550565b82525050565b6000602082019050613d8c6000830184613d68565b92915050565b60008083601f840112613da857613da7613709565b5b8235905067ffffffffffffffff811115613dc557613dc461370e565b5b602083019150836020820283011115613de157613de0613713565b5b9250929050565b60008083601f840112613dfe57613dfd613709565b5b8235905067ffffffffffffffff811115613e1b57613e1a61370e565b5b602083019150836020820283011115613e3757613e36613713565b5b9250929050565b600081905082602060030282011115613e5a57613e59613713565b5b92915050565b60008060008060008060008060008060006101608c8e031215613e8657613e85613618565b5b60008c013567ffffffffffffffff811115613ea457613ea361361d565b5b613eb08e828f01613d92565b9b509b505060208c013567ffffffffffffffff811115613ed357613ed261361d565b5b613edf8e828f01613de8565b99509950506040613ef28e828f01613e3e565b97505060a0613f038e828f01613841565b96505060c0613f148e828f01613841565b95505060e0613f258e828f01613841565b945050610100613f378e828f01613841565b935050610120613f498e828f01613841565b925050610140613f5b8e828f01613841565b9150509295989b509295989b9093969950565b60008060408385031215613f8557613f84613618565b5b6000613f93858286016138a4565b9250506020613fa4858286016136f4565b9150509250929050565b7f4e487b7100000000000000000000000000000000000000000000000000000000600052601160045260246000fd5b6000613fe882613550565b9150613ff383613550565b925082820190508082111561400b5761400a613fae565b5b92915050565b7f4e487b7100000000000000000000000000000000000000000000000000000000600052603260045260246000fd5b600061404b82613550565b915061405683613550565b925082820390508181111561406e5761406d613fae565b5b92915050565b7f4e487b7100000000000000000000000000000000000000000000000000000000600052602260045260246000fd5b600060028204905060018216806140bb57607f821691505b6020821081036140ce576140cd614074565b5b50919050565b60006140df82613550565b91507fffffffffffffffffffffffffffffffffffffffffffffffffffffffffffffffff820361411157614110613fae565b5b600182019050919050565b6000614128838561343b565b9350614135838584613ca0565b82840190509392505050565b600061414e82848661411c565b91508190509392505050565b600061416683856134a7565b9350614173838584613ca0565b61417c836139af565b840190509392505050565b600060808201905061419c6000830188613800565b81810360208301526141af81868861415a565b90506141be6040830185613d68565b6141cb6060830184613800565b9695505050505050565b7f5769746864726177304164647200000000000000000000000000000000000000600082015250565b600061420b600d836134a7565b9150614216826141d5565b602082019050919050565b6000602082019050818103600083015261423a816141fe565b9050919050565b600080fd5b600080fd5b600080fd5b60008235600160600383360303811261426c5761426b614241565b5b80830191505092915050565b60008235600160a00383360303811261429457614293614241565b5b80830191505092915050565b7f45727220726563697069656e7400000000000000000000000000000000000000600082015250565b60006142d6600d836134a7565b91506142e1826142a0565b602082019050919050565b60006020820190508181036000830152614305816142c9565b9050919050565b7f45727220536c6970700000000000000000000000000000000000000000000000600082015250565b60006143426009836134a7565b915061434d8261430c565b602082019050919050565b6000602082019050818103600083015261437181614335565b9050919050565b7f45727220546f6b656e4f75740000000000000000000000000000000000000000600082015250565b60006143ae600c836134a7565b91506143b982614378565b602082019050919050565b600060208201905081810360008301526143dd816143a1565b9050919050565b6000815190506143f3816136dd565b92915050565b60006020828403121561440f5761440e613618565b5b600061441d848285016143e4565b91505092915050565b7f45727220416d6f756e74496e0000000000000000000000000000000000000000600082015250565b600061445c600c836134a7565b915061446782614426565b602082019050919050565b6000602082019050818103600083015261448b8161444f565b9050919050565b60007fff0000000000000000000000000000000000000000000000000000000000000082169050919050565b6000819050919050565b6144d96144d482614492565b6144be565b82525050565b60006144eb82846144c8565b60018201915081905092915050565b6000808335600160200384360303811261451757614516614241565b5b80840192508235915067ffffffffffffffff82111561453957614538614246565b5b6020830192506001820236038313156145555761455461424b565b5b509250929050565b600082825260208201905092915050565b600061457a838561455d565b9350614587838584613ca0565b614590836139af565b840190509392505050565b600060a0820190506145b06000830189613800565b6145bd6020830188613d68565b6145ca6040830187613d68565b81810360608301526145dd81858761456e565b90506145ec60808301846136b3565b979650505050505050565b600081519050919050565b600061460d826145f7565b614617818561455d565b9350614627818560208601613985565b614630816139af565b840191505092915050565b600081519050919050565b600082825260208201905092915050565b6000819050602082019050919050565b600082825260208201905092915050565b6000614683826145f7565b61468d8185614667565b935061469d818560208601613985565b6146a6816139af565b840191505092915050565b60006146bd8383614678565b905092915050565b6000602082019050919050565b60006146dd8261463b565b6146e78185614646565b9350836020820285016146f985614657565b8060005b85811015614735578484038952815161471685826146b1565b9450614721836146c5565b925060208a019950506001810190506146fd565b50829750879550505050505092915050565b600060608201905081810360008301526147618186614602565b9050818103602083015261477581856146d2565b90506147846040830184613d68565b949350505050565b60008160e01c9050919050565b600060033d11156147b85760046000803e6147b560005161478c565b90505b90565b600060443d10614848576147cd61360e565b60043d036004823e80513d602482011167ffffffffffffffff821117156147f5575050614848565b808201805167ffffffffffffffff8111156148135750505050614848565b80602083010160043d038501811115614830575050505050614848565b61483f82602001850186613c23565b82955050505050505b90565b60006040820190506148606000830185613800565b81810360208301526148728184613b94565b90509392505050565b60006080820190506148906000830187613800565b61489d6020830186613800565b6148aa6040830185613d68565b6148b76060830184613d68565b95945050505050565b60006148cb82613969565b6148d5818561343b565b93506148e5818560208601613985565b80840191505092915050565b60006148fd82846148c0565b915081905092915050565b7f416363657373436f6e74726f6c3a2063616e206f6e6c792072656e6f756e636560008201527f20726f6c657320666f722073656c660000000000000000000000000000000000602082015250565b6000614964602f836134a7565b915061496f82614908565b604082019050919050565b6000602082019050818103600083015261499381614957565b9050919050565b7f496e697469616c697a61626c653a20636f6e747261637420697320616c72656160008201527f647920696e697469616c697a6564000000000000000000000000000000000000602082015250565b60006149f6602e836134a7565b9150614a018261499a565b604082019050919050565b60006020820190508181036000830152614a25816149e9565b9050919050565b7f41646d696e416464720000000000000000000000000000000000000000000000600082015250565b6000614a626009836134a7565b9150614a6d82614a2c565b602082019050919050565b60006020820190508181036000830152614a9181614a55565b9050919050565b7f5265736375654164647200000000000000000000000000000000000000000000600082015250565b6000614ace600a836134a7565b9150614ad982614a98565b602082019050919050565b60006020820190508181036000830152614afd81614ac1565b9050919050565b7f5769746864726177416464720000000000000000000000000000000000000000600082015250565b6000614b3a600c836134a7565b9150614b4582614b04565b602082019050919050565b60006020820190508181036000830152614b6981614b2d565b9050919050565b7f46697273744c656e6465724c6971416464720000000000000000000000000000600082015250565b6000614ba66012836134a7565b9150614bb182614b70565b602082019050919050565b60006020820190508181036000830152614bd581614b99565b9050919050565b7f5365636f6e644c656e6465724c69714164647200000000000000000000000000600082015250565b6000614c126013836134a7565b9150614c1d82614bdc565b602082019050919050565b60006020820190508181036000830152614c4181614c05565b9050919050565b7f53776170526f7574657241646472000000000000000000000000000000000000600082015250565b6000614c7e600e836134a7565b9150614c8982614c48565b602082019050919050565b60006020820190508181036000830152614cad81614c71565b9050919050565b7f5377617070657241646472000000000000000000000000000000000000000000600082015250565b6000614cea600b836134a7565b9150614cf582614cb4565b602082019050919050565b60006020820190508181036000830152614d1981614cdd565b9050919050565b7f546f6b656e206e616d6520616e642061646472657373206172726179206c656e60008201527f67746873206d757374206d617463680000000000000000000000000000000000602082015250565b6000614d7c602f836134a7565b9150614d8782614d20565b604082019050919050565b60006020820190508181036000830152614dab81614d6f565b9050919050565b60008083356001602003843603038112614dcf57614dce614241565b5b80840192508235915067ffffffffffffffff821115614df157614df0614246565b5b602083019250600182023603831315614e0d57614e0c61424b565b5b509250929050565b600082905092915050565b60008190508160005260206000209050919050565b60006020601f8301049050919050565b600082821b905092915050565b600060088302614e827fffffffffffffffffffffffffffffffffffffffffffffffffffffffffffffffff82614e45565b614e8c8683614e45565b95508019841693508086168417925050509392505050565b6000819050919050565b6000614ec9614ec4614ebf84613550565b614ea4565b613550565b9050919050565b6000819050919050565b614ee383614eae565b614ef7614eef82614ed0565b848454614e52565b825550505050565b600090565b614f0c614eff565b614f17818484614eda565b505050565b5b81811015614f3b57614f30600082614f04565b600181019050614f1d565b5050565b601f821115614f8057614f5181614e20565b614f5a84614e35565b81016020851015614f69578190505b614f7d614f7585614e35565b830182614f1c565b50505b505050565b600082821c905092915050565b6000614fa360001984600802614f85565b1980831691505092915050565b6000614fbc8383614f92565b9150826002028217905092915050565b614fd68383614e15565b67ffffffffffffffff811115614fef57614fee613bf4565b5b614ff982546140a3565b615004828285614f3f565b6000601f8311600181146150335760008415615021578287013590505b61502b8582614fb0565b865550615093565b601f19841661504186614e20565b60005b8281101561506957848901358255600182019150602085019450602081019050615044565b868310156150865784890135615082601f891682614f92565b8355505b6001600288020188555050505b50505050505050565b6000819050919050565b60006150b28385613974565b93506150bf838584613ca0565b6150c8836139af565b840190509392505050565b60006150e08484846150a6565b90509392505050565b600080fd5b600080fd5b600080fd5b60008083356001602003843603038112615115576151146150f3565b5b83810192508235915060208301925067ffffffffffffffff82111561513d5761513c6150e9565b5b600182023603831315615153576151526150ee565b5b509250929050565b6000602082019050919050565b60006151748385613948565b9350836020840285016151868461509c565b8060005b878110156151cc5784840389526151a182846150f8565b6151ac8682846150d3565b95506151b78461515b565b935060208b019a50505060018101905061518a565b50829750879450505050509392505050565b600082825260208201905092915050565b6000819050919050565b615202816137ee565b82525050565b600061521483836151f9565b60208301905092915050565b600061522f6020840184613841565b905092915050565b6000602082019050919050565b600061525083856151de565b935061525b826151ef565b8060005b85811015615294576152718284615220565b61527b8882615208565b975061528683615237565b92505060018101905061525f565b5085925050509392505050565b600060039050919050565b600081905092915050565b6000819050919050565b6000602082019050919050565b6152d7816152a1565b6152e181846152ac565b92506152ec826152b7565b8060005b83811015615325576153028284615220565b61530c8782615208565b9650615317836152c1565b9250506001810190506152f0565b505050505050565b600061018082019050615343600083018f613800565b8181036020830152615356818d8f615168565b9050818103604083015261536b818b8d615244565b905061537a606083018a6152ce565b61538760c0830189613800565b61539460e0830188613800565b6153a2610100830187613800565b6153b0610120830186613800565b6153be610140830185613800565b6153cc610160830184613800565b9d9c50505050505050505050505050565b6000819050919050565b600060ff82169050919050565b600061540f61540a615405846153dd565b614ea4565b6153e7565b9050919050565b61541f816153f4565b82525050565b600060208201905061543a6000830184615416565b92915050565b7f5265736375653041646472000000000000000000000000000000000000000000600082015250565b6000615476600b836134a7565b915061548182615440565b602082019050919050565b600060208201905081810360008301526154a581615469565b9050919050565b60006060820190506154c16000830187613800565b81810360208301526154d481858761415a565b90506154e36040830184613d68565b95945050505050565b7f5265656e7472616e637947756172643a207265656e7472616e742063616c6c00600082015250565b6000615522601f836134a7565b915061552d826154ec565b602082019050919050565b6000602082019050818103600083015261555181615515565b9050919050565b600060408201905061556d6000830185613800565b61557a6020830184613d68565b9392505050565b6000815461558e816140a3565b615598818661343b565b945060018216600081146155b357600181146155c8576155fb565b60ff19831686528115158202860193506155fb565b6155d185614e20565b60005b838110156155f3578154818901526001820191506020810190506155d4565b838801955050505b50505092915050565b60006156108284615581565b915081905092915050565b7f496e697469616c697a61626c653a20636f6e7472616374206973206e6f74206960008201527f6e697469616c697a696e67000000000000000000000000000000000000000000602082015250565b6000615677602b836134a7565b91506156828261561b565b604082019050919050565b600060208201905081810360008301526156a68161566a565b9050919050565b7f416363657373436f6e74726f6c3a206163636f756e7420000000000000000000600082015250565b60006156e360178361343b565b91506156ee826156ad565b601782019050919050565b7f206973206d697373696e6720726f6c6520000000000000000000000000000000600082015250565b600061572f60118361343b565b915061573a826156f9565b601182019050919050565b6000615750826156d6565b915061575c82856148c0565b915061576782615722565b915061577382846148c0565b91508190509392505050565b615788816136a7565b811461579357600080fd5b50565b6000815190506157a58161577f565b92915050565b6000602082840312156157c1576157c0613618565b5b60006157cf84828501615796565b91505092915050565b7f5361666545524332303a204552433230206f7065726174696f6e20646964206e60008201527f6f74207375636365656400000000000000000000000000000000000000000000602082015250565b6000615834602a836134a7565b915061583f826157d8565b604082019050919050565b6000602082019050818103600083015261586381615827565b9050919050565b600061587582613550565b915061588083613550565b925082820261588e81613550565b915082820484148315176158a5576158a4613fae565b5b5092915050565b60006158b782613550565b9150600082036158ca576158c9613fae565b5b600182039050919050565b7f537472696e67733a20686578206c656e67746820696e73756666696369656e74600082015250565b600061590b6020836134a7565b9150615916826158d5565b602082019050919050565b6000602082019050818103600083015261593a816158fe565b9050919050565b7f4e487b7100000000000000000000000000000000000000000000000000000000600052603160045260246000fd5b7f416464726573733a20696e73756666696369656e742062616c616e636520666f60008201527f722063616c6c0000000000000000000000000000000000000000000000000000602082015250565b60006159cc6026836134a7565b91506159d782615970565b604082019050919050565b600060208201905081810360008301526159fb816159bf565b9050919050565b600081905092915050565b6000615a18826145f7565b615a228185615a02565b9350615a32818560208601613985565b80840191505092915050565b6000615a4a8284615a0d565b915081905092915050565b7f416464726573733a2063616c6c20746f206e6f6e2d636f6e7472616374000000600082015250565b6000615a8b601d836134a7565b9150615a9682615a55565b602082019050919050565b60006020820190508181036000830152615aba81615a7e565b905091905056fea2646970667358221220882331417813167b1507284a0f51e77f438d6f4aa91a52e721cfef81db43f8a564736f6c63430008120033",
  "linkReferences": {},
  "deployedLinkReferences": {}
}