{
  "_format": "hh-sol-artifact-1",
  "contractName": "ValidatorContract",
  "sourceName": "contracts/ValidatorContract.sol",
  "abi": [
    {
      "inputs": [
        {
          "internalType": "address",
          "name": "_priceConsumerV3",
          "type": "address"
        }
      ],
      "stateMutability": "nonpayable",
      "type": "constructor"
    },
    {
      "inputs": [],
      "name": "AdminAddressInvalid",
      "type": "error"
    },
    {
      "inputs": [],
      "name": "AmountInError",
      "type": "error"
    },
    {
      "inputs": [],
      "name": "AmountOutMinimumTooLowOracle",
      "type": "error"
    },
    {
      "inputs": [
        {
          "internalType": "string",
          "name": "contractKey",
          "type": "string"
        }
      ],
      "name": "ContractAddressInvalid",
      "type": "error"
    },
    {
      "inputs": [],
      "name": "ContractKeysAndAddressLengthMismatch",
      "type": "error"
    },
    {
      "inputs": [],
      "name": "FirstLenderLiqAddressInvalid",
      "type": "error"
    },
    {
      "inputs": [],
      "name": "InvalidCaller",
      "type": "error"
    },
    {
      "inputs": [],
      "name": "InvalidPath",
      "type": "error"
    },
    {
      "inputs": [
        {
          "internalType": "string",
          "name": "contractKey",
          "type": "string"
        }
      ],
      "name": "MissingRequiredContractKey",
      "type": "error"
    },
    {
      "inputs": [
        {
          "internalType": "string",
          "name": "token",
          "type": "string"
        }
      ],
      "name": "MissingRequiredToken",
      "type": "error"
    },
    {
      "inputs": [],
      "name": "OracleError",
      "type": "error"
    },
    {
      "inputs": [],
      "name": "RecipientError",
      "type": "error"
    },
    {
      "inputs": [],
      "name": "RescueAddressInvalid",
      "type": "error"
    },
    {
      "inputs": [],
      "name": "SecondLenderLiqAddressInvalid",
      "type": "error"
    },
    {
      "inputs": [
        {
          "internalType": "string",
          "name": "token",
          "type": "string"
        }
      ],
      "name": "TokenAddressInvalid",
      "type": "error"
    },
    {
      "inputs": [],
      "name": "TokenInError",
      "type": "error"
    },
    {
      "inputs": [],
      "name": "TokenNameAndAddressLengthMismatch",
      "type": "error"
    },
    {
      "inputs": [],
      "name": "TokenOutError",
      "type": "error"
    },
    {
      "inputs": [],
      "name": "WithdrawAddressInvalid",
      "type": "error"
    },
    {
      "anonymous": false,
      "inputs": [
        {
          "indexed": true,
          "internalType": "address",
          "name": "tokenIn",
          "type": "address"
        },
        {
          "indexed": true,
          "internalType": "address",
          "name": "tokenOut",
          "type": "address"
        },
        {
          "indexed": false,
          "internalType": "uint256",
          "name": "amountIn",
          "type": "uint256"
        },
        {
          "indexed": false,
          "internalType": "uint256",
          "name": "amountOut",
          "type": "uint256"
        },
        {
          "indexed": false,
          "internalType": "string",
          "name": "reason",
          "type": "string"
        }
      ],
      "name": "SwapError",
      "type": "event"
    },
    {
      "inputs": [
        {
          "internalType": "string[5]",
          "name": "_tokenNames",
          "type": "string[5]"
        },
        {
          "internalType": "address[5]",
          "name": "_tokenAddresses",
          "type": "address[5]"
        },
        {
          "internalType": "address[3]",
          "name": "_aconcagua",
          "type": "address[3]"
        },
        {
          "internalType": "address",
          "name": "_rescueWalletAddress",
          "type": "address"
        },
        {
          "internalType": "address",
          "name": "_withdrawWalletAddress",
          "type": "address"
        },
        {
          "internalType": "address",
          "name": "_firstLenderLiq",
          "type": "address"
        },
        {
          "internalType": "address",
          "name": "_secondLenderLiq",
          "type": "address"
        },
        {
          "internalType": "string[2]",
          "name": "_contractKeys",
          "type": "string[2]"
        },
        {
          "internalType": "address[2]",
          "name": "_contractAddresses",
          "type": "address[2]"
        }
      ],
      "name": "initializeChecks",
      "outputs": [],
      "stateMutability": "pure",
      "type": "function"
    },
    {
      "inputs": [],
      "name": "oracleSlippage",
      "outputs": [
        {
          "internalType": "uint8",
          "name": "",
          "type": "uint8"
        }
      ],
      "stateMutability": "view",
      "type": "function"
    },
    {
      "inputs": [],
      "name": "priceConsumerV3",
      "outputs": [
        {
          "internalType": "contract IPriceConsumerV3",
          "name": "",
          "type": "address"
        }
      ],
      "stateMutability": "view",
      "type": "function"
    },
    {
      "inputs": [
        {
          "internalType": "address",
          "name": "callingContract",
          "type": "address"
        },
        {
          "components": [
            {
              "components": [
                {
                  "internalType": "bytes",
                  "name": "path",
                  "type": "bytes"
                },
                {
                  "internalType": "address",
                  "name": "recipient",
                  "type": "address"
                },
                {
                  "internalType": "uint256",
                  "name": "deadline",
                  "type": "uint256"
                },
                {
                  "internalType": "uint256",
                  "name": "amountIn",
                  "type": "uint256"
                },
                {
                  "internalType": "uint256",
                  "name": "amountOutMinimum",
                  "type": "uint256"
                }
              ],
              "internalType": "struct ISwapRouter.ExactInputParams",
              "name": "params",
              "type": "tuple"
            },
            {
              "internalType": "address",
              "name": "tokenIn",
              "type": "address"
            },
            {
              "internalType": "address",
              "name": "tokenOut",
              "type": "address"
            }
          ],
          "internalType": "struct IColateralContract2.SwapParams",
          "name": "swapParams",
          "type": "tuple"
        }
      ],
      "name": "swapExactInputsChecks",
      "outputs": [],
      "stateMutability": "view",
      "type": "function"
    },
    {
      "inputs": [
        {
          "internalType": "bytes",
          "name": "path",
          "type": "bytes"
        },
        {
          "internalType": "address",
          "name": "tokenIn",
          "type": "address"
        },
        {
          "internalType": "address",
          "name": "tokenOut",
          "type": "address"
        }
      ],
      "name": "validatePath",
      "outputs": [
        {
          "internalType": "bool",
          "name": "",
          "type": "bool"
        }
      ],
      "stateMutability": "pure",
      "type": "function"
    },
    {
      "inputs": [],
      "name": "version",
      "outputs": [
        {
          "internalType": "string",
          "name": "",
          "type": "string"
        }
      ],
      "stateMutability": "pure",
      "type": "function"
    }
  ],
  "bytecode": "0x60806040526061600060146101000a81548160ff021916908360ff1602179055503480156200002d57600080fd5b50604051620027bf380380620027bf833981810160405281019062000053919062000104565b806000806101000a81548173ffffffffffffffffffffffffffffffffffffffff021916908373ffffffffffffffffffffffffffffffffffffffff1602179055505062000136565b600080fd5b600073ffffffffffffffffffffffffffffffffffffffff82169050919050565b6000620000cc826200009f565b9050919050565b620000de81620000bf565b8114620000ea57600080fd5b50565b600081519050620000fe81620000d3565b92915050565b6000602082840312156200011d576200011c6200009a565b5b60006200012d84828501620000ed565b91505092915050565b61267980620001466000396000f3fe608060405234801561001057600080fd5b50600436106100625760003560e01c806315ddb834146100675780632e1cf40b146100855780633d255b11146100b557806354fd4d50146100d15780638f9cd41d146100ef578063c4a5849a1461010d575b600080fd5b61006f610129565b60405161007c9190611733565b60405180910390f35b61009f600480360381019061009a9190611906565b61013c565b6040516100ac9190611990565b60405180910390f35b6100cf60048036038101906100ca9190611a5a565b610236565b005b6100d9610bd3565b6040516100e69190611be0565b60405180910390f35b6100f7610c10565b6040516101049190611c61565b60405180910390f35b61012760048036038101906101229190611ca0565b610c34565b005b600060149054906101000a900460ff1681565b6000602884511015610183576040517f08c379a000000000000000000000000000000000000000000000000000000000815260040161017a90611d48565b60405180910390fd5b600061019085600061167f565b90508373ffffffffffffffffffffffffffffffffffffffff168173ffffffffffffffffffffffffffffffffffffffff16146101cf57600091505061022f565b60006101e886601488516101e39190611da1565b61167f565b90508373ffffffffffffffffffffffffffffffffffffffff168173ffffffffffffffffffffffffffffffffffffffff16146102285760009250505061022f565b6001925050505b9392505050565b60058014610270576040517fda3ebf7300000000000000000000000000000000000000000000000000000000815260040160405180910390fd5b6102786116f5565b600060405180608001604052806040518060400160405280600481526020017f574554480000000000000000000000000000000000000000000000000000000081525081526020016040518060400160405280600481526020017f574254430000000000000000000000000000000000000000000000000000000081525081526020016040518060400160405280600481526020017f555344430000000000000000000000000000000000000000000000000000000081525081526020016040518060400160405280600481526020017f5553445400000000000000000000000000000000000000000000000000000000815250815250905060005b60058110156105815760008c826005811061039257610391611dd5565b5b6020028101906103a29190611e13565b6040516103b0929190611ea6565b604051809103902090506040518060400160405280600481526020017f57455448000000000000000000000000000000000000000000000000000000008152508051906020012081036104275760018460006004811061041357610412611dd5565b5b60200201901515908115158152505061056d565b6040518060400160405280600481526020017f5742544300000000000000000000000000000000000000000000000000000000815250805190602001208103610494576001846001600481106104805761047f611dd5565b5b60200201901515908115158152505061056c565b6040518060400160405280600481526020017f5553444300000000000000000000000000000000000000000000000000000000815250805190602001208103610501576001846002600481106104ed576104ec611dd5565b5b60200201901515908115158152505061056b565b6040518060400160405280600481526020017f555344540000000000000000000000000000000000000000000000000000000081525080519060200120810361056a5760018460036004811061055a57610559611dd5565b5b6020020190151590811515815250505b5b5b5b50808061057990611ebf565b915050610374565b5060005b6004811015610611578281600481106105a1576105a0611dd5565b5b60200201516105fe578181600481106105bd576105bc611dd5565b5b60200201516040517fb2fac9750000000000000000000000000000000000000000000000000000000081526004016105f59190611be0565b60405180910390fd5b808061060990611ebf565b915050610585565b5060005b60058110156106ea57600073ffffffffffffffffffffffffffffffffffffffff168b826005811061064957610648611dd5565b5b60200201602081019061065c9190611f07565b73ffffffffffffffffffffffffffffffffffffffff16036106d7578b816005811061068a57610689611dd5565b5b60200281019061069a9190611e13565b6040517f762224930000000000000000000000000000000000000000000000000000000081526004016106ce929190611f61565b60405180910390fd5b80806106e290611ebf565b915050610615565b5060005b600381101561079557600073ffffffffffffffffffffffffffffffffffffffff168a826003811061072257610721611dd5565b5b6020020160208101906107359190611f07565b73ffffffffffffffffffffffffffffffffffffffff1603610782576040517fbfac83b300000000000000000000000000000000000000000000000000000000815260040160405180910390fd5b808061078d90611ebf565b9150506106ee565b50600073ffffffffffffffffffffffffffffffffffffffff168873ffffffffffffffffffffffffffffffffffffffff16036107fc576040517fdf51a0d100000000000000000000000000000000000000000000000000000000815260040160405180910390fd5b600073ffffffffffffffffffffffffffffffffffffffff168773ffffffffffffffffffffffffffffffffffffffff1603610862576040517fd766085d00000000000000000000000000000000000000000000000000000000815260040160405180910390fd5b600073ffffffffffffffffffffffffffffffffffffffff168673ffffffffffffffffffffffffffffffffffffffff16036108c8576040517f4e12a74f00000000000000000000000000000000000000000000000000000000815260040160405180910390fd5b600073ffffffffffffffffffffffffffffffffffffffff168573ffffffffffffffffffffffffffffffffffffffff160361092e576040517f8dd8261b00000000000000000000000000000000000000000000000000000000815260040160405180910390fd5b60028014610968576040517fe8f887ee00000000000000000000000000000000000000000000000000000000815260040160405180910390fd5b600060405180604001604052806040518060400160405280600681526020017f726f75746572000000000000000000000000000000000000000000000000000081525081526020016040518060400160405280600781526020017f7377617070657200000000000000000000000000000000000000000000000000815250815250905060005b6002811015610aeb576000805b6002811015610a7d57838360028110610a1757610a16611dd5565b5b602002015180519060200120888260028110610a3657610a35611dd5565b5b602002810190610a469190611e13565b604051610a54929190611ea6565b604051809103902003610a6a5760019150610a7d565b8080610a7590611ebf565b9150506109fb565b5080610ad757828260028110610a9657610a95611dd5565b5b60200201516040517f245e143e000000000000000000000000000000000000000000000000000000008152600401610ace9190611be0565b60405180910390fd5b508080610ae390611ebf565b9150506109ee565b5060005b6002811015610bc457600073ffffffffffffffffffffffffffffffffffffffff16858260028110610b2357610b22611dd5565b5b602002016020810190610b369190611f07565b73ffffffffffffffffffffffffffffffffffffffff1603610bb157858160028110610b6457610b63611dd5565b5b602002810190610b749190611e13565b6040517f37c115a3000000000000000000000000000000000000000000000000000000008152600401610ba8929190611f61565b60405180910390fd5b8080610bbc90611ebf565b915050610aef565b50505050505050505050505050565b60606040518060400160405280600581526020017f312e312e30000000000000000000000000000000000000000000000000000000815250905090565b60008054906101000a900473ffffffffffffffffffffffffffffffffffffffff1681565b600073ffffffffffffffffffffffffffffffffffffffff168273ffffffffffffffffffffffffffffffffffffffff1603610c9a576040517f48f5c3ed00000000000000000000000000000000000000000000000000000000815260040160405180910390fd5b8173ffffffffffffffffffffffffffffffffffffffff16818060000190610cc19190611f85565b6020016020810190610cd39190611f07565b73ffffffffffffffffffffffffffffffffffffffff1614610d20576040517f99c71e6300000000000000000000000000000000000000000000000000000000815260040160405180910390fd5b600082905060008173ffffffffffffffffffffffffffffffffffffffff166355452d046040518163ffffffff1660e01b8152600401610d5e90611ff9565b602060405180830381865afa158015610d7b573d6000803e3d6000fd5b505050506040513d601f19601f82011682018060405250810190610d9f919061202e565b905060008273ffffffffffffffffffffffffffffffffffffffff166355452d046040518163ffffffff1660e01b8152600401610dda906120a7565b602060405180830381865afa158015610df7573d6000803e3d6000fd5b505050506040513d601f19601f82011682018060405250810190610e1b919061202e565b90508173ffffffffffffffffffffffffffffffffffffffff16846020016020810190610e479190611f07565b73ffffffffffffffffffffffffffffffffffffffff1614158015610ea957508073ffffffffffffffffffffffffffffffffffffffff16846020016020810190610e909190611f07565b73ffffffffffffffffffffffffffffffffffffffff1614155b15610ee0576040517f7d8ee31c00000000000000000000000000000000000000000000000000000000815260040160405180910390fd5b60008373ffffffffffffffffffffffffffffffffffffffff166355452d046040518163ffffffff1660e01b8152600401610f1990612113565b602060405180830381865afa158015610f36573d6000803e3d6000fd5b505050506040513d601f19601f82011682018060405250810190610f5a919061202e565b905060008473ffffffffffffffffffffffffffffffffffffffff166355452d046040518163ffffffff1660e01b8152600401610f959061217f565b602060405180830381865afa158015610fb2573d6000803e3d6000fd5b505050506040513d601f19601f82011682018060405250810190610fd6919061202e565b90508173ffffffffffffffffffffffffffffffffffffffff168660400160208101906110029190611f07565b73ffffffffffffffffffffffffffffffffffffffff161415801561106457508073ffffffffffffffffffffffffffffffffffffffff1686604001602081019061104b9190611f07565b73ffffffffffffffffffffffffffffffffffffffff1614155b1561109b576040517f419fde0100000000000000000000000000000000000000000000000000000000815260040160405180910390fd5b60008660200160208101906110b09190611f07565b905060008780600001906110c49190611f85565b6060013511158061116057508073ffffffffffffffffffffffffffffffffffffffff166370a08231896040518263ffffffff1660e01b815260040161110991906121ae565b602060405180830381865afa158015611126573d6000803e3d6000fd5b505050506040513d601f19601f8201168201806040525081019061114a91906121f5565b87806000019061115a9190611f85565b60600135115b15611197576040517f54e80d1b00000000000000000000000000000000000000000000000000000000815260040160405180910390fd5b6112278780600001906111aa9190611f85565b80600001906111b99190612222565b8080601f016020809104026020016040519081016040528093929190818152602001838380828437600081840152601f19601f8201169050808301925050505050505088602001602081019061120f9190611f07565b8960400160208101906112229190611f07565b61013c565b61125d576040517f20db826700000000000000000000000000000000000000000000000000000000815260040160405180910390fd5b6000806000808873ffffffffffffffffffffffffffffffffffffffff168b602001602081019061128d9190611f07565b73ffffffffffffffffffffffffffffffffffffffff160361134b5760008054906101000a900473ffffffffffffffffffffffffffffffffffffffff1673ffffffffffffffffffffffffffffffffffffffff1663f66a1b716040518163ffffffff1660e01b81526004016112ff906122d1565b602060405180830381865afa15801561131c573d6000803e3d6000fd5b505050506040513d601f19601f8201168201806040525081019061134091906121f5565b935060129150611466565b8773ffffffffffffffffffffffffffffffffffffffff168b60200160208101906113759190611f07565b73ffffffffffffffffffffffffffffffffffffffff16036114335760008054906101000a900473ffffffffffffffffffffffffffffffffffffffff1673ffffffffffffffffffffffffffffffffffffffff1663f66a1b716040518163ffffffff1660e01b81526004016113e79061233d565b602060405180830381865afa158015611404573d6000803e3d6000fd5b505050506040513d601f19601f8201168201806040525081019061142891906121f5565b935060089150611465565b6040517fb41b6cb100000000000000000000000000000000000000000000000000000000815260040160405180910390fd5b5b600084116114a0576040517fb41b6cb100000000000000000000000000000000000000000000000000000000815260040160405180910390fd5b8673ffffffffffffffffffffffffffffffffffffffff168b60400160208101906114ca9190611f07565b73ffffffffffffffffffffffffffffffffffffffff16036114ee576006905061156f565b8573ffffffffffffffffffffffffffffffffffffffff168b60400160208101906115189190611f07565b73ffffffffffffffffffffffffffffffffffffffff160361153c576006905061156e565b6040517f419fde0100000000000000000000000000000000000000000000000000000000815260040160405180910390fd5b5b620f42406305f5e10085611583919061238c565b61158d91906123bd565b9250600082600a61159e9190612532565b848d80600001906115af9190611f85565b606001356115bd91906123bd565b6115c7919061238c565b9050600082600a6115d89190612532565b620f42408e80600001906115ec9190611f85565b608001356115fa91906123bd565b611604919061238c565b905060006064600060149054906101000a900460ff1660ff168461162891906123bd565b611632919061238c565b90508082101561166e576040517f7e96161600000000000000000000000000000000000000000000000000000000815260040160405180910390fd5b505050505050505050505050505050565b600060148261168e919061257d565b835110156116d1576040517f08c379a00000000000000000000000000000000000000000000000000000000081526004016116c890612623565b60405180910390fd5b60006c01000000000000000000000000836020860101510490508091505092915050565b6040518060800160405280600490602082028036833780820191505090505090565b600060ff82169050919050565b61172d81611717565b82525050565b60006020820190506117486000830184611724565b92915050565b6000604051905090565b600080fd5b600080fd5b600080fd5b600080fd5b6000601f19601f8301169050919050565b7f4e487b7100000000000000000000000000000000000000000000000000000000600052604160045260246000fd5b6117b58261176c565b810181811067ffffffffffffffff821117156117d4576117d361177d565b5b80604052505050565b60006117e761174e565b90506117f382826117ac565b919050565b600067ffffffffffffffff8211156118135761181261177d565b5b61181c8261176c565b9050602081019050919050565b82818337600083830152505050565b600061184b611846846117f8565b6117dd565b90508281526020810184848401111561186757611866611767565b5b611872848285611829565b509392505050565b600082601f83011261188f5761188e611762565b5b813561189f848260208601611838565b91505092915050565b600073ffffffffffffffffffffffffffffffffffffffff82169050919050565b60006118d3826118a8565b9050919050565b6118e3816118c8565b81146118ee57600080fd5b50565b600081359050611900816118da565b92915050565b60008060006060848603121561191f5761191e611758565b5b600084013567ffffffffffffffff81111561193d5761193c61175d565b5b6119498682870161187a565b935050602061195a868287016118f1565b925050604061196b868287016118f1565b9150509250925092565b60008115159050919050565b61198a81611975565b82525050565b60006020820190506119a56000830184611981565b92915050565b600080fd5b6000819050826020600502820111156119cc576119cb6119ab565b5b92915050565b6000819050826020600502820111156119ee576119ed6119ab565b5b92915050565b600081905082602060030282011115611a1057611a0f6119ab565b5b92915050565b600081905082602060020282011115611a3257611a316119ab565b5b92915050565b600081905082602060020282011115611a5457611a536119ab565b5b92915050565b60008060008060008060008060006102008a8c031215611a7d57611a7c611758565b5b60008a013567ffffffffffffffff811115611a9b57611a9a61175d565b5b611aa78c828d016119b0565b9950506020611ab88c828d016119d2565b98505060c0611ac98c828d016119f4565b975050610120611adb8c828d016118f1565b965050610140611aed8c828d016118f1565b955050610160611aff8c828d016118f1565b945050610180611b118c828d016118f1565b9350506101a08a013567ffffffffffffffff811115611b3357611b3261175d565b5b611b3f8c828d01611a16565b9250506101c0611b518c828d01611a38565b9150509295985092959850929598565b600081519050919050565b600082825260208201905092915050565b60005b83811015611b9b578082015181840152602081019050611b80565b60008484015250505050565b6000611bb282611b61565b611bbc8185611b6c565b9350611bcc818560208601611b7d565b611bd58161176c565b840191505092915050565b60006020820190508181036000830152611bfa8184611ba7565b905092915050565b6000819050919050565b6000611c27611c22611c1d846118a8565b611c02565b6118a8565b9050919050565b6000611c3982611c0c565b9050919050565b6000611c4b82611c2e565b9050919050565b611c5b81611c40565b82525050565b6000602082019050611c766000830184611c52565b92915050565b600080fd5b600060608284031215611c9757611c96611c7c565b5b81905092915050565b60008060408385031215611cb757611cb6611758565b5b6000611cc5858286016118f1565b925050602083013567ffffffffffffffff811115611ce657611ce561175d565b5b611cf285828601611c81565b9150509250929050565b7f5061746820746f6f2073686f7274000000000000000000000000000000000000600082015250565b6000611d32600e83611b6c565b9150611d3d82611cfc565b602082019050919050565b60006020820190508181036000830152611d6181611d25565b9050919050565b6000819050919050565b7f4e487b7100000000000000000000000000000000000000000000000000000000600052601160045260246000fd5b6000611dac82611d68565b9150611db783611d68565b9250828203905081811115611dcf57611dce611d72565b5b92915050565b7f4e487b7100000000000000000000000000000000000000000000000000000000600052603260045260246000fd5b600080fd5b600080fd5b600080fd5b60008083356001602003843603038112611e3057611e2f611e04565b5b80840192508235915067ffffffffffffffff821115611e5257611e51611e09565b5b602083019250600182023603831315611e6e57611e6d611e0e565b5b509250929050565b600081905092915050565b6000611e8d8385611e76565b9350611e9a838584611829565b82840190509392505050565b6000611eb3828486611e81565b91508190509392505050565b6000611eca82611d68565b91507fffffffffffffffffffffffffffffffffffffffffffffffffffffffffffffffff8203611efc57611efb611d72565b5b600182019050919050565b600060208284031215611f1d57611f1c611758565b5b6000611f2b848285016118f1565b91505092915050565b6000611f408385611b6c565b9350611f4d838584611829565b611f568361176c565b840190509392505050565b60006020820190508181036000830152611f7c818486611f34565b90509392505050565b60008235600160a003833603038112611fa157611fa0611e04565b5b80830191505092915050565b7f5745544800000000000000000000000000000000000000000000000000000000600082015250565b6000611fe3600483611b6c565b9150611fee82611fad565b602082019050919050565b6000602082019050818103600083015261201281611fd6565b9050919050565b600081519050612028816118da565b92915050565b60006020828403121561204457612043611758565b5b600061205284828501612019565b91505092915050565b7f5742544300000000000000000000000000000000000000000000000000000000600082015250565b6000612091600483611b6c565b915061209c8261205b565b602082019050919050565b600060208201905081810360008301526120c081612084565b9050919050565b7f5553444300000000000000000000000000000000000000000000000000000000600082015250565b60006120fd600483611b6c565b9150612108826120c7565b602082019050919050565b6000602082019050818103600083015261212c816120f0565b9050919050565b7f5553445400000000000000000000000000000000000000000000000000000000600082015250565b6000612169600483611b6c565b915061217482612133565b602082019050919050565b600060208201905081810360008301526121988161215c565b9050919050565b6121a8816118c8565b82525050565b60006020820190506121c3600083018461219f565b92915050565b6121d281611d68565b81146121dd57600080fd5b50565b6000815190506121ef816121c9565b92915050565b60006020828403121561220b5761220a611758565b5b6000612219848285016121e0565b91505092915050565b6000808335600160200384360303811261223f5761223e611e04565b5b80840192508235915067ffffffffffffffff82111561226157612260611e09565b5b60208301925060018202360383131561227d5761227c611e0e565b5b509250929050565b7f4554480000000000000000000000000000000000000000000000000000000000600082015250565b60006122bb600383611b6c565b91506122c682612285565b602082019050919050565b600060208201905081810360008301526122ea816122ae565b9050919050565b7f4254430000000000000000000000000000000000000000000000000000000000600082015250565b6000612327600383611b6c565b9150612332826122f1565b602082019050919050565b600060208201905081810360008301526123568161231a565b9050919050565b7f4e487b7100000000000000000000000000000000000000000000000000000000600052601260045260246000fd5b600061239782611d68565b91506123a283611d68565b9250826123b2576123b161235d565b5b828204905092915050565b60006123c882611d68565b91506123d383611d68565b92508282026123e181611d68565b915082820484148315176123f8576123f7611d72565b5b5092915050565b60008160011c9050919050565b6000808291508390505b60018511156124565780860481111561243257612431611d72565b5b60018516156124415780820291505b808102905061244f856123ff565b9450612416565b94509492505050565b60008261246f576001905061252b565b8161247d576000905061252b565b8160018114612493576002811461249d576124cc565b600191505061252b565b60ff8411156124af576124ae611d72565b5b8360020a9150848211156124c6576124c5611d72565b5b5061252b565b5060208310610133831016604e8410600b84101617156125015782820a9050838111156124fc576124fb611d72565b5b61252b565b61250e848484600161240c565b9250905081840481111561252557612524611d72565b5b81810290505b9392505050565b600061253d82611d68565b915061254883611717565b92506125757fffffffffffffffffffffffffffffffffffffffffffffffffffffffffffffffff848461245f565b905092915050565b600061258882611d68565b915061259383611d68565b92508282019050808211156125ab576125aa611d72565b5b92915050565b7f427974657320617272617920746f6f2073686f727420666f722061646472657360008201527f7320636f6e76657273696f6e0000000000000000000000000000000000000000602082015250565b600061260d602c83611b6c565b9150612618826125b1565b604082019050919050565b6000602082019050818103600083015261263c81612600565b905091905056fea26469706673582212207c6afad1e308975389cfb7098de0b4968f147c4181382f2c759987432a24939e64736f6c63430008120033",
  "linkReferences": {},
  "deployedLinkReferences": {}
}