{
  "_format": "hh-sol-artifact-1",
  "contractName": "ValidatorContractRSK",
  "sourceName": "contracts/ValidatorContractRSK.sol",
  "abi": [
    {
      "inputs": [
        {
          "internalType": "address",
          "name": "_priceConsumerV3",
          "type": "address"
        }
      ],
      "stateMutability": "nonpayable",
      "type": "constructor"
    },
    {
      "inputs": [],
      "name": "AdminAddressInvalid",
      "type": "error"
    },
    {
      "inputs": [],
      "name": "AmountInError",
      "type": "error"
    },
    {
      "inputs": [],
      "name": "AmountOutMinimumTooLowOracle",
      "type": "error"
    },
    {
      "inputs": [
        {
          "internalType": "string",
          "name": "contractKey",
          "type": "string"
        }
      ],
      "name": "ContractAddressInvalid",
      "type": "error"
    },
    {
      "inputs": [],
      "name": "ContractKeysAndAddressLengthMismatch",
      "type": "error"
    },
    {
      "inputs": [],
      "name": "FirstLenderLiqAddressInvalid",
      "type": "error"
    },
    {
      "inputs": [],
      "name": "InvalidCaller",
      "type": "error"
    },
    {
      "inputs": [],
      "name": "InvalidPath",
      "type": "error"
    },
    {
      "inputs": [
        {
          "internalType": "string",
          "name": "contractKey",
          "type": "string"
        }
      ],
      "name": "MissingRequiredContractKey",
      "type": "error"
    },
    {
      "inputs": [
        {
          "internalType": "string",
          "name": "token",
          "type": "string"
        }
      ],
      "name": "MissingRequiredToken",
      "type": "error"
    },
    {
      "inputs": [],
      "name": "OracleError",
      "type": "error"
    },
    {
      "inputs": [],
      "name": "RecipientError",
      "type": "error"
    },
    {
      "inputs": [],
      "name": "RescueAddressInvalid",
      "type": "error"
    },
    {
      "inputs": [],
      "name": "SecondLenderLiqAddressInvalid",
      "type": "error"
    },
    {
      "inputs": [
        {
          "internalType": "string",
          "name": "token",
          "type": "string"
        }
      ],
      "name": "TokenAddressInvalid",
      "type": "error"
    },
    {
      "inputs": [],
      "name": "TokenInError",
      "type": "error"
    },
    {
      "inputs": [],
      "name": "TokenNameAndAddressLengthMismatch",
      "type": "error"
    },
    {
      "inputs": [],
      "name": "TokenOutError",
      "type": "error"
    },
    {
      "inputs": [],
      "name": "WithdrawAddressInvalid",
      "type": "error"
    },
    {
      "anonymous": false,
      "inputs": [
        {
          "indexed": true,
          "internalType": "address",
          "name": "tokenIn",
          "type": "address"
        },
        {
          "indexed": true,
          "internalType": "address",
          "name": "tokenOut",
          "type": "address"
        },
        {
          "indexed": false,
          "internalType": "uint256",
          "name": "amountIn",
          "type": "uint256"
        },
        {
          "indexed": false,
          "internalType": "uint256",
          "name": "amountOut",
          "type": "uint256"
        },
        {
          "indexed": false,
          "internalType": "string",
          "name": "reason",
          "type": "string"
        }
      ],
      "name": "SwapError",
      "type": "event"
    },
    {
      "inputs": [
        {
          "internalType": "string[5]",
          "name": "_tokenNames",
          "type": "string[5]"
        },
        {
          "internalType": "address[5]",
          "name": "_tokenAddresses",
          "type": "address[5]"
        },
        {
          "internalType": "address[3]",
          "name": "_aconcagua",
          "type": "address[3]"
        },
        {
          "internalType": "address",
          "name": "_rescueWalletAddress",
          "type": "address"
        },
        {
          "internalType": "address",
          "name": "_withdrawWalletAddress",
          "type": "address"
        },
        {
          "internalType": "address",
          "name": "_firstLenderLiq",
          "type": "address"
        },
        {
          "internalType": "address",
          "name": "_secondLenderLiq",
          "type": "address"
        },
        {
          "internalType": "string[2]",
          "name": "_contractKeys",
          "type": "string[2]"
        },
        {
          "internalType": "address[2]",
          "name": "_contractAddresses",
          "type": "address[2]"
        }
      ],
      "name": "initializeChecks",
      "outputs": [],
      "stateMutability": "pure",
      "type": "function"
    },
    {
      "inputs": [],
      "name": "oracleSlippage",
      "outputs": [
        {
          "internalType": "uint8",
          "name": "",
          "type": "uint8"
        }
      ],
      "stateMutability": "view",
      "type": "function"
    },
    {
      "inputs": [],
      "name": "priceConsumerV3",
      "outputs": [
        {
          "internalType": "contract IPriceConsumerV3",
          "name": "",
          "type": "address"
        }
      ],
      "stateMutability": "view",
      "type": "function"
    },
    {
      "inputs": [
        {
          "internalType": "address",
          "name": "callingContract",
          "type": "address"
        },
        {
          "components": [
            {
              "components": [
                {
                  "internalType": "bytes",
                  "name": "path",
                  "type": "bytes"
                },
                {
                  "internalType": "address",
                  "name": "recipient",
                  "type": "address"
                },
                {
                  "internalType": "uint256",
                  "name": "deadline",
                  "type": "uint256"
                },
                {
                  "internalType": "uint256",
                  "name": "amountIn",
                  "type": "uint256"
                },
                {
                  "internalType": "uint256",
                  "name": "amountOutMinimum",
                  "type": "uint256"
                }
              ],
              "internalType": "struct ISwapRouter.ExactInputParams",
              "name": "params",
              "type": "tuple"
            },
            {
              "internalType": "address",
              "name": "tokenIn",
              "type": "address"
            },
            {
              "internalType": "address",
              "name": "tokenOut",
              "type": "address"
            }
          ],
          "internalType": "struct IColateralContract2.SwapParams",
          "name": "swapParams",
          "type": "tuple"
        }
      ],
      "name": "swapExactInputsChecks",
      "outputs": [],
      "stateMutability": "view",
      "type": "function"
    },
    {
      "inputs": [
        {
          "internalType": "bytes",
          "name": "path",
          "type": "bytes"
        },
        {
          "internalType": "address",
          "name": "tokenIn",
          "type": "address"
        },
        {
          "internalType": "address",
          "name": "tokenOut",
          "type": "address"
        }
      ],
      "name": "validatePath",
      "outputs": [
        {
          "internalType": "bool",
          "name": "",
          "type": "bool"
        }
      ],
      "stateMutability": "pure",
      "type": "function"
    },
    {
      "inputs": [],
      "name": "version",
      "outputs": [
        {
          "internalType": "string",
          "name": "",
          "type": "string"
        }
      ],
      "stateMutability": "pure",
      "type": "function"
    }
  ],
  "bytecode": "0x60806040526061600060146101000a81548160ff021916908360ff1602179055503480156200002d57600080fd5b50604051620027c9380380620027c9833981810160405281019062000053919062000104565b806000806101000a81548173ffffffffffffffffffffffffffffffffffffffff021916908373ffffffffffffffffffffffffffffffffffffffff1602179055505062000136565b600080fd5b600073ffffffffffffffffffffffffffffffffffffffff82169050919050565b6000620000cc826200009f565b9050919050565b620000de81620000bf565b8114620000ea57600080fd5b50565b600081519050620000fe81620000d3565b92915050565b6000602082840312156200011d576200011c6200009a565b5b60006200012d84828501620000ed565b91505092915050565b61268380620001466000396000f3fe608060405234801561001057600080fd5b50600436106100625760003560e01c806315ddb834146100675780632e1cf40b146100855780633d255b11146100b557806354fd4d50146100d15780638f9cd41d146100ef578063c4a5849a1461010d575b600080fd5b61006f610129565b60405161007c919061173d565b60405180910390f35b61009f600480360381019061009a9190611910565b61013c565b6040516100ac919061199a565b60405180910390f35b6100cf60048036038101906100ca9190611a64565b610236565b005b6100d9610bd3565b6040516100e69190611bea565b60405180910390f35b6100f7610c10565b6040516101049190611c6b565b60405180910390f35b61012760048036038101906101229190611caa565b610c34565b005b600060149054906101000a900460ff1681565b6000602884511015610183576040517f08c379a000000000000000000000000000000000000000000000000000000000815260040161017a90611d52565b60405180910390fd5b6000610190856000611689565b90508373ffffffffffffffffffffffffffffffffffffffff168173ffffffffffffffffffffffffffffffffffffffff16146101cf57600091505061022f565b60006101e886601488516101e39190611dab565b611689565b90508373ffffffffffffffffffffffffffffffffffffffff168173ffffffffffffffffffffffffffffffffffffffff16146102285760009250505061022f565b6001925050505b9392505050565b60058014610270576040517fda3ebf7300000000000000000000000000000000000000000000000000000000815260040160405180910390fd5b6102786116ff565b600060405180608001604052806040518060400160405280600481526020017f574554480000000000000000000000000000000000000000000000000000000081525081526020016040518060400160405280600481526020017f574254430000000000000000000000000000000000000000000000000000000081525081526020016040518060400160405280600481526020017f555344430000000000000000000000000000000000000000000000000000000081525081526020016040518060400160405280600481526020017f5553445400000000000000000000000000000000000000000000000000000000815250815250905060005b60058110156105815760008c826005811061039257610391611ddf565b5b6020028101906103a29190611e1d565b6040516103b0929190611eb0565b604051809103902090506040518060400160405280600481526020017f57455448000000000000000000000000000000000000000000000000000000008152508051906020012081036104275760018460006004811061041357610412611ddf565b5b60200201901515908115158152505061056d565b6040518060400160405280600481526020017f5742544300000000000000000000000000000000000000000000000000000000815250805190602001208103610494576001846001600481106104805761047f611ddf565b5b60200201901515908115158152505061056c565b6040518060400160405280600481526020017f5553444300000000000000000000000000000000000000000000000000000000815250805190602001208103610501576001846002600481106104ed576104ec611ddf565b5b60200201901515908115158152505061056b565b6040518060400160405280600481526020017f555344540000000000000000000000000000000000000000000000000000000081525080519060200120810361056a5760018460036004811061055a57610559611ddf565b5b6020020190151590811515815250505b5b5b5b50808061057990611ec9565b915050610374565b5060005b6004811015610611578281600481106105a1576105a0611ddf565b5b60200201516105fe578181600481106105bd576105bc611ddf565b5b60200201516040517fb2fac9750000000000000000000000000000000000000000000000000000000081526004016105f59190611bea565b60405180910390fd5b808061060990611ec9565b915050610585565b5060005b60058110156106ea57600073ffffffffffffffffffffffffffffffffffffffff168b826005811061064957610648611ddf565b5b60200201602081019061065c9190611f11565b73ffffffffffffffffffffffffffffffffffffffff16036106d7578b816005811061068a57610689611ddf565b5b60200281019061069a9190611e1d565b6040517f762224930000000000000000000000000000000000000000000000000000000081526004016106ce929190611f6b565b60405180910390fd5b80806106e290611ec9565b915050610615565b5060005b600381101561079557600073ffffffffffffffffffffffffffffffffffffffff168a826003811061072257610721611ddf565b5b6020020160208101906107359190611f11565b73ffffffffffffffffffffffffffffffffffffffff1603610782576040517fbfac83b300000000000000000000000000000000000000000000000000000000815260040160405180910390fd5b808061078d90611ec9565b9150506106ee565b50600073ffffffffffffffffffffffffffffffffffffffff168873ffffffffffffffffffffffffffffffffffffffff16036107fc576040517fdf51a0d100000000000000000000000000000000000000000000000000000000815260040160405180910390fd5b600073ffffffffffffffffffffffffffffffffffffffff168773ffffffffffffffffffffffffffffffffffffffff1603610862576040517fd766085d00000000000000000000000000000000000000000000000000000000815260040160405180910390fd5b600073ffffffffffffffffffffffffffffffffffffffff168673ffffffffffffffffffffffffffffffffffffffff16036108c8576040517f4e12a74f00000000000000000000000000000000000000000000000000000000815260040160405180910390fd5b600073ffffffffffffffffffffffffffffffffffffffff168573ffffffffffffffffffffffffffffffffffffffff160361092e576040517f8dd8261b00000000000000000000000000000000000000000000000000000000815260040160405180910390fd5b60028014610968576040517fe8f887ee00000000000000000000000000000000000000000000000000000000815260040160405180910390fd5b600060405180604001604052806040518060400160405280600681526020017f726f75746572000000000000000000000000000000000000000000000000000081525081526020016040518060400160405280600781526020017f7377617070657200000000000000000000000000000000000000000000000000815250815250905060005b6002811015610aeb576000805b6002811015610a7d57838360028110610a1757610a16611ddf565b5b602002015180519060200120888260028110610a3657610a35611ddf565b5b602002810190610a469190611e1d565b604051610a54929190611eb0565b604051809103902003610a6a5760019150610a7d565b8080610a7590611ec9565b9150506109fb565b5080610ad757828260028110610a9657610a95611ddf565b5b60200201516040517f245e143e000000000000000000000000000000000000000000000000000000008152600401610ace9190611bea565b60405180910390fd5b508080610ae390611ec9565b9150506109ee565b5060005b6002811015610bc457600073ffffffffffffffffffffffffffffffffffffffff16858260028110610b2357610b22611ddf565b5b602002016020810190610b369190611f11565b73ffffffffffffffffffffffffffffffffffffffff1603610bb157858160028110610b6457610b63611ddf565b5b602002810190610b749190611e1d565b6040517f37c115a3000000000000000000000000000000000000000000000000000000008152600401610ba8929190611f6b565b60405180910390fd5b8080610bbc90611ec9565b915050610aef565b50505050505050505050505050565b60606040518060400160405280600581526020017f312e312e30000000000000000000000000000000000000000000000000000000815250905090565b60008054906101000a900473ffffffffffffffffffffffffffffffffffffffff1681565b600073ffffffffffffffffffffffffffffffffffffffff168273ffffffffffffffffffffffffffffffffffffffff1603610c9a576040517f48f5c3ed00000000000000000000000000000000000000000000000000000000815260040160405180910390fd5b8173ffffffffffffffffffffffffffffffffffffffff16818060000190610cc19190611f8f565b6020016020810190610cd39190611f11565b73ffffffffffffffffffffffffffffffffffffffff1614610d20576040517f99c71e6300000000000000000000000000000000000000000000000000000000815260040160405180910390fd5b600082905060008173ffffffffffffffffffffffffffffffffffffffff166355452d046040518163ffffffff1660e01b8152600401610d5e90612003565b602060405180830381865afa158015610d7b573d6000803e3d6000fd5b505050506040513d601f19601f82011682018060405250810190610d9f9190612038565b905060008273ffffffffffffffffffffffffffffffffffffffff166355452d046040518163ffffffff1660e01b8152600401610dda906120b1565b602060405180830381865afa158015610df7573d6000803e3d6000fd5b505050506040513d601f19601f82011682018060405250810190610e1b9190612038565b90508173ffffffffffffffffffffffffffffffffffffffff16846020016020810190610e479190611f11565b73ffffffffffffffffffffffffffffffffffffffff1614158015610ea957508073ffffffffffffffffffffffffffffffffffffffff16846020016020810190610e909190611f11565b73ffffffffffffffffffffffffffffffffffffffff1614155b15610ee0576040517f7d8ee31c00000000000000000000000000000000000000000000000000000000815260040160405180910390fd5b60008373ffffffffffffffffffffffffffffffffffffffff166355452d046040518163ffffffff1660e01b8152600401610f199061211d565b602060405180830381865afa158015610f36573d6000803e3d6000fd5b505050506040513d601f19601f82011682018060405250810190610f5a9190612038565b905060008473ffffffffffffffffffffffffffffffffffffffff166355452d046040518163ffffffff1660e01b8152600401610f9590612189565b602060405180830381865afa158015610fb2573d6000803e3d6000fd5b505050506040513d601f19601f82011682018060405250810190610fd69190612038565b90508173ffffffffffffffffffffffffffffffffffffffff168660400160208101906110029190611f11565b73ffffffffffffffffffffffffffffffffffffffff161415801561106457508073ffffffffffffffffffffffffffffffffffffffff1686604001602081019061104b9190611f11565b73ffffffffffffffffffffffffffffffffffffffff1614155b1561109b576040517f419fde0100000000000000000000000000000000000000000000000000000000815260040160405180910390fd5b60008660200160208101906110b09190611f11565b905060008780600001906110c49190611f8f565b6060013511158061116057508073ffffffffffffffffffffffffffffffffffffffff166370a08231896040518263ffffffff1660e01b815260040161110991906121b8565b602060405180830381865afa158015611126573d6000803e3d6000fd5b505050506040513d601f19601f8201168201806040525081019061114a91906121ff565b87806000019061115a9190611f8f565b60600135115b15611197576040517f54e80d1b00000000000000000000000000000000000000000000000000000000815260040160405180910390fd5b6112278780600001906111aa9190611f8f565b80600001906111b9919061222c565b8080601f016020809104026020016040519081016040528093929190818152602001838380828437600081840152601f19601f8201169050808301925050505050505088602001602081019061120f9190611f11565b8960400160208101906112229190611f11565b61013c565b61125d576040517f20db826700000000000000000000000000000000000000000000000000000000815260040160405180910390fd5b6000806000808873ffffffffffffffffffffffffffffffffffffffff168b602001602081019061128d9190611f11565b73ffffffffffffffffffffffffffffffffffffffff160361134b5760008054906101000a900473ffffffffffffffffffffffffffffffffffffffff1673ffffffffffffffffffffffffffffffffffffffff1663f66a1b716040518163ffffffff1660e01b81526004016112ff906122db565b602060405180830381865afa15801561131c573d6000803e3d6000fd5b505050506040513d601f19601f8201168201806040525081019061134091906121ff565b935060129150611466565b8773ffffffffffffffffffffffffffffffffffffffff168b60200160208101906113759190611f11565b73ffffffffffffffffffffffffffffffffffffffff16036114335760008054906101000a900473ffffffffffffffffffffffffffffffffffffffff1673ffffffffffffffffffffffffffffffffffffffff1663f66a1b716040518163ffffffff1660e01b81526004016113e790612347565b602060405180830381865afa158015611404573d6000803e3d6000fd5b505050506040513d601f19601f8201168201806040525081019061142891906121ff565b935060089150611465565b6040517fb41b6cb100000000000000000000000000000000000000000000000000000000815260040160405180910390fd5b5b600084116114a0576040517fb41b6cb100000000000000000000000000000000000000000000000000000000815260040160405180910390fd5b8673ffffffffffffffffffffffffffffffffffffffff168b60400160208101906114ca9190611f11565b73ffffffffffffffffffffffffffffffffffffffff16036114ee576012905061156f565b8573ffffffffffffffffffffffffffffffffffffffff168b60400160208101906115189190611f11565b73ffffffffffffffffffffffffffffffffffffffff160361153c576012905061156e565b6040517f419fde0100000000000000000000000000000000000000000000000000000000815260040160405180910390fd5b5b670de0b6b3a76400006305f5e100856115889190612396565b61159291906123c7565b9250600082600a6115a3919061253c565b848d80600001906115b49190611f8f565b606001356115c291906123c7565b6115cc9190612396565b9050600082600a6115dd919061253c565b670de0b6b3a76400008e80600001906115f69190611f8f565b6080013561160491906123c7565b61160e9190612396565b905060006064600060149054906101000a900460ff1660ff168461163291906123c7565b61163c9190612396565b905080821015611678576040517f7e96161600000000000000000000000000000000000000000000000000000000815260040160405180910390fd5b505050505050505050505050505050565b60006014826116989190612587565b835110156116db576040517f08c379a00000000000000000000000000000000000000000000000000000000081526004016116d29061262d565b60405180910390fd5b60006c01000000000000000000000000836020860101510490508091505092915050565b6040518060800160405280600490602082028036833780820191505090505090565b600060ff82169050919050565b61173781611721565b82525050565b6000602082019050611752600083018461172e565b92915050565b6000604051905090565b600080fd5b600080fd5b600080fd5b600080fd5b6000601f19601f8301169050919050565b7f4e487b7100000000000000000000000000000000000000000000000000000000600052604160045260246000fd5b6117bf82611776565b810181811067ffffffffffffffff821117156117de576117dd611787565b5b80604052505050565b60006117f1611758565b90506117fd82826117b6565b919050565b600067ffffffffffffffff82111561181d5761181c611787565b5b61182682611776565b9050602081019050919050565b82818337600083830152505050565b600061185561185084611802565b6117e7565b90508281526020810184848401111561187157611870611771565b5b61187c848285611833565b509392505050565b600082601f8301126118995761189861176c565b5b81356118a9848260208601611842565b91505092915050565b600073ffffffffffffffffffffffffffffffffffffffff82169050919050565b60006118dd826118b2565b9050919050565b6118ed816118d2565b81146118f857600080fd5b50565b60008135905061190a816118e4565b92915050565b60008060006060848603121561192957611928611762565b5b600084013567ffffffffffffffff81111561194757611946611767565b5b61195386828701611884565b9350506020611964868287016118fb565b9250506040611975868287016118fb565b9150509250925092565b60008115159050919050565b6119948161197f565b82525050565b60006020820190506119af600083018461198b565b92915050565b600080fd5b6000819050826020600502820111156119d6576119d56119b5565b5b92915050565b6000819050826020600502820111156119f8576119f76119b5565b5b92915050565b600081905082602060030282011115611a1a57611a196119b5565b5b92915050565b600081905082602060020282011115611a3c57611a3b6119b5565b5b92915050565b600081905082602060020282011115611a5e57611a5d6119b5565b5b92915050565b60008060008060008060008060006102008a8c031215611a8757611a86611762565b5b60008a013567ffffffffffffffff811115611aa557611aa4611767565b5b611ab18c828d016119ba565b9950506020611ac28c828d016119dc565b98505060c0611ad38c828d016119fe565b975050610120611ae58c828d016118fb565b965050610140611af78c828d016118fb565b955050610160611b098c828d016118fb565b945050610180611b1b8c828d016118fb565b9350506101a08a013567ffffffffffffffff811115611b3d57611b3c611767565b5b611b498c828d01611a20565b9250506101c0611b5b8c828d01611a42565b9150509295985092959850929598565b600081519050919050565b600082825260208201905092915050565b60005b83811015611ba5578082015181840152602081019050611b8a565b60008484015250505050565b6000611bbc82611b6b565b611bc68185611b76565b9350611bd6818560208601611b87565b611bdf81611776565b840191505092915050565b60006020820190508181036000830152611c048184611bb1565b905092915050565b6000819050919050565b6000611c31611c2c611c27846118b2565b611c0c565b6118b2565b9050919050565b6000611c4382611c16565b9050919050565b6000611c5582611c38565b9050919050565b611c6581611c4a565b82525050565b6000602082019050611c806000830184611c5c565b92915050565b600080fd5b600060608284031215611ca157611ca0611c86565b5b81905092915050565b60008060408385031215611cc157611cc0611762565b5b6000611ccf858286016118fb565b925050602083013567ffffffffffffffff811115611cf057611cef611767565b5b611cfc85828601611c8b565b9150509250929050565b7f5061746820746f6f2073686f7274000000000000000000000000000000000000600082015250565b6000611d3c600e83611b76565b9150611d4782611d06565b602082019050919050565b60006020820190508181036000830152611d6b81611d2f565b9050919050565b6000819050919050565b7f4e487b7100000000000000000000000000000000000000000000000000000000600052601160045260246000fd5b6000611db682611d72565b9150611dc183611d72565b9250828203905081811115611dd957611dd8611d7c565b5b92915050565b7f4e487b7100000000000000000000000000000000000000000000000000000000600052603260045260246000fd5b600080fd5b600080fd5b600080fd5b60008083356001602003843603038112611e3a57611e39611e0e565b5b80840192508235915067ffffffffffffffff821115611e5c57611e5b611e13565b5b602083019250600182023603831315611e7857611e77611e18565b5b509250929050565b600081905092915050565b6000611e978385611e80565b9350611ea4838584611833565b82840190509392505050565b6000611ebd828486611e8b565b91508190509392505050565b6000611ed482611d72565b91507fffffffffffffffffffffffffffffffffffffffffffffffffffffffffffffffff8203611f0657611f05611d7c565b5b600182019050919050565b600060208284031215611f2757611f26611762565b5b6000611f35848285016118fb565b91505092915050565b6000611f4a8385611b76565b9350611f57838584611833565b611f6083611776565b840190509392505050565b60006020820190508181036000830152611f86818486611f3e565b90509392505050565b60008235600160a003833603038112611fab57611faa611e0e565b5b80830191505092915050565b7f5745544800000000000000000000000000000000000000000000000000000000600082015250565b6000611fed600483611b76565b9150611ff882611fb7565b602082019050919050565b6000602082019050818103600083015261201c81611fe0565b9050919050565b600081519050612032816118e4565b92915050565b60006020828403121561204e5761204d611762565b5b600061205c84828501612023565b91505092915050565b7f5742544300000000000000000000000000000000000000000000000000000000600082015250565b600061209b600483611b76565b91506120a682612065565b602082019050919050565b600060208201905081810360008301526120ca8161208e565b9050919050565b7f5553444300000000000000000000000000000000000000000000000000000000600082015250565b6000612107600483611b76565b9150612112826120d1565b602082019050919050565b60006020820190508181036000830152612136816120fa565b9050919050565b7f5553445400000000000000000000000000000000000000000000000000000000600082015250565b6000612173600483611b76565b915061217e8261213d565b602082019050919050565b600060208201905081810360008301526121a281612166565b9050919050565b6121b2816118d2565b82525050565b60006020820190506121cd60008301846121a9565b92915050565b6121dc81611d72565b81146121e757600080fd5b50565b6000815190506121f9816121d3565b92915050565b60006020828403121561221557612214611762565b5b6000612223848285016121ea565b91505092915050565b6000808335600160200384360303811261224957612248611e0e565b5b80840192508235915067ffffffffffffffff82111561226b5761226a611e13565b5b60208301925060018202360383131561228757612286611e18565b5b509250929050565b7f4554480000000000000000000000000000000000000000000000000000000000600082015250565b60006122c5600383611b76565b91506122d08261228f565b602082019050919050565b600060208201905081810360008301526122f4816122b8565b9050919050565b7f4254430000000000000000000000000000000000000000000000000000000000600082015250565b6000612331600383611b76565b915061233c826122fb565b602082019050919050565b6000602082019050818103600083015261236081612324565b9050919050565b7f4e487b7100000000000000000000000000000000000000000000000000000000600052601260045260246000fd5b60006123a182611d72565b91506123ac83611d72565b9250826123bc576123bb612367565b5b828204905092915050565b60006123d282611d72565b91506123dd83611d72565b92508282026123eb81611d72565b9150828204841483151761240257612401611d7c565b5b5092915050565b60008160011c9050919050565b6000808291508390505b60018511156124605780860481111561243c5761243b611d7c565b5b600185161561244b5780820291505b808102905061245985612409565b9450612420565b94509492505050565b6000826124795760019050612535565b816124875760009050612535565b816001811461249d57600281146124a7576124d6565b6001915050612535565b60ff8411156124b9576124b8611d7c565b5b8360020a9150848211156124d0576124cf611d7c565b5b50612535565b5060208310610133831016604e8410600b841016171561250b5782820a90508381111561250657612505611d7c565b5b612535565b6125188484846001612416565b9250905081840481111561252f5761252e611d7c565b5b81810290505b9392505050565b600061254782611d72565b915061255283611721565b925061257f7fffffffffffffffffffffffffffffffffffffffffffffffffffffffffffffffff8484612469565b905092915050565b600061259282611d72565b915061259d83611d72565b92508282019050808211156125b5576125b4611d7c565b5b92915050565b7f427974657320617272617920746f6f2073686f727420666f722061646472657360008201527f7320636f6e76657273696f6e0000000000000000000000000000000000000000602082015250565b6000612617602c83611b76565b9150612622826125bb565b604082019050919050565b600060208201905081810360008301526126468161260a565b905091905056fea26469706673582212205711aa1a20e1b94f3d06d265888306c02d8488a09d08b11afc724d8a2495e10b64736f6c63430008120033",
  "linkReferences": {},
  "deployedLinkReferences": {}
}