{
  "_format": "hh-sol-artifact-1",
  "contractName": "PriceConsumerRSK",
  "sourceName": "contracts/PriceConsumerRSK.sol",
  "abi": [
    {
      "inputs": [],
      "stateMutability": "nonpayable",
      "type": "constructor"
    },
    {
      "inputs": [],
      "name": "ORACLE_ADDRESS",
      "outputs": [
        {
          "internalType": "address",
          "name": "",
          "type": "address"
        }
      ],
      "stateMutability": "view",
      "type": "function"
    },
    {
      "inputs": [
        {
          "internalType": "string",
          "name": "asset",
          "type": "string"
        }
      ],
      "name": "getLatestPrice",
      "outputs": [
        {
          "internalType": "uint256",
          "name": "",
          "type": "uint256"
        }
      ],
      "stateMutability": "view",
      "type": "function"
    },
    {
      "inputs": [],
      "name": "priceOracle",
      "outputs": [
        {
          "internalType": "contract IOMOCOracle",
          "name": "",
          "type": "address"
        }
      ],
      "stateMutability": "view",
      "type": "function"
    }
  ],
  "bytecode": "0x608060405234801561001057600080fd5b5073da9a63d77406faa09d265413f4e128b54b5057e06000806101000a81548173ffffffffffffffffffffffffffffffffffffffff021916908373ffffffffffffffffffffffffffffffffffffffff16021790555061093d806100746000396000f3fe608060405234801561001057600080fd5b50600436106100415760003560e01c80632630c12f14610046578063f66a1b7114610064578063fcfc430c14610094575b600080fd5b61004e6100b2565b60405161005b919061034d565b60405180910390f35b61007e600480360381019061007991906104c2565b6100d6565b60405161008b9190610524565b60405180910390f35b61009c6102b6565b6040516100a99190610560565b60405180910390f35b60008054906101000a900473ffffffffffffffffffffffffffffffffffffffff1681565b600060606040516020016100e9906105d2565b6040516020818303038152906040528051906020012083604051602001610110919061064d565b6040516020818303038152906040528051906020012003610168576040518060400160405280600b81526020017f57524254432d725553445400000000000000000000000000000000000000000081525090506101a3565b6040517f08c379a000000000000000000000000000000000000000000000000000000000815260040161019a906106c1565b60405180910390fd5b60008060009054906101000a900473ffffffffffffffffffffffffffffffffffffffff1673ffffffffffffffffffffffffffffffffffffffff16635b38adc7836040518263ffffffff1660e01b81526004016101ff919061071a565b608060405180830381865afa15801561021c573d6000803e3d6000fd5b505050506040513d601f19601f820116820180604052508101906102409190610834565b93505050506000816fffffffffffffffffffffffffffffffff161161029a576040517f08c379a0000000000000000000000000000000000000000000000000000000008152600401610291906108e7565b60405180910390fd5b806fffffffffffffffffffffffffffffffff1692505050919050565b73da9a63d77406faa09d265413f4e128b54b5057e081565b600073ffffffffffffffffffffffffffffffffffffffff82169050919050565b6000819050919050565b600061031361030e610309846102ce565b6102ee565b6102ce565b9050919050565b6000610325826102f8565b9050919050565b60006103378261031a565b9050919050565b6103478161032c565b82525050565b6000602082019050610362600083018461033e565b92915050565b6000604051905090565b600080fd5b600080fd5b600080fd5b600080fd5b6000601f19601f8301169050919050565b7f4e487b7100000000000000000000000000000000000000000000000000000000600052604160045260246000fd5b6103cf82610386565b810181811067ffffffffffffffff821117156103ee576103ed610397565b5b80604052505050565b6000610401610368565b905061040d82826103c6565b919050565b600067ffffffffffffffff82111561042d5761042c610397565b5b61043682610386565b9050602081019050919050565b82818337600083830152505050565b600061046561046084610412565b6103f7565b90508281526020810184848401111561048157610480610381565b5b61048c848285610443565b509392505050565b600082601f8301126104a9576104a861037c565b5b81356104b9848260208601610452565b91505092915050565b6000602082840312156104d8576104d7610372565b5b600082013567ffffffffffffffff8111156104f6576104f5610377565b5b61050284828501610494565b91505092915050565b6000819050919050565b61051e8161050b565b82525050565b60006020820190506105396000830184610515565b92915050565b600061054a826102ce565b9050919050565b61055a8161053f565b82525050565b60006020820190506105756000830184610551565b92915050565b600081905092915050565b7f4254430000000000000000000000000000000000000000000000000000000000600082015250565b60006105bc60038361057b565b91506105c782610586565b600382019050919050565b60006105dd826105af565b9150819050919050565b600081519050919050565b60005b838110156106105780820151818401526020810190506105f5565b60008484015250505050565b6000610627826105e7565b610631818561057b565b93506106418185602086016105f2565b80840191505092915050565b6000610659828461061c565b915081905092915050565b600082825260208201905092915050565b7f4173736574206e6f7420737570706f7274656400000000000000000000000000600082015250565b60006106ab601383610664565b91506106b682610675565b602082019050919050565b600060208201905081810360008301526106da8161069e565b9050919050565b60006106ec826105e7565b6106f68185610664565b93506107068185602086016105f2565b61070f81610386565b840191505092915050565b6000602082019050818103600083015261073481846106e1565b905092915050565b600060ff82169050919050565b6107528161073c565b811461075d57600080fd5b50565b60008151905061076f81610749565b92915050565b600062ffffff82169050919050565b61078d81610775565b811461079857600080fd5b50565b6000815190506107aa81610784565b92915050565b600063ffffffff82169050919050565b6107c9816107b0565b81146107d457600080fd5b50565b6000815190506107e6816107c0565b92915050565b60006fffffffffffffffffffffffffffffffff82169050919050565b610811816107ec565b811461081c57600080fd5b50565b60008151905061082e81610808565b92915050565b6000806000806080858703121561084e5761084d610372565b5b600061085c87828801610760565b945050602061086d8782880161079b565b935050604061087e878288016107d7565b925050606061088f8782880161081f565b91505092959194509250565b7f5072696365206461746120697320696e76616c69640000000000000000000000600082015250565b60006108d1601583610664565b91506108dc8261089b565b602082019050919050565b60006020820190508181036000830152610900816108c4565b905091905056fea2646970667358221220ff056b1ed8c6c8df7e89efe172a633b791ff7e0bdd410d3b8ce790a4c216f0f564736f6c63430008120033",
  "linkReferences": {},
  "deployedLinkReferences": {}
}