{
  "_format": "hh-sol-artifact-1",
  "contractName": "ColateralContractOper",
  "sourceName": "contracts/ColateralContractOper.sol",
  "abi": [
    {
      "inputs": [],
      "stateMutability": "nonpayable",
      "type": "constructor"
    },
    {
      "anonymous": false,
      "inputs": [
        {
          "indexed": false,
          "internalType": "address",
          "name": "sender",
          "type": "address"
        },
        {
          "indexed": false,
          "internalType": "address",
          "name": "usdcTokenAddress",
          "type": "address"
        },
        {
          "indexed": false,
          "internalType": "address",
          "name": "usdtTokenAddress",
          "type": "address"
        },
        {
          "indexed": false,
          "internalType": "address",
          "name": "usdmTokenAddress",
          "type": "address"
        },
        {
          "indexed": false,
          "internalType": "address",
          "name": "wbtcTokenAddress",
          "type": "address"
        },
        {
          "indexed": false,
          "internalType": "address[3]",
          "name": "admins",
          "type": "address[3]"
        },
        {
          "indexed": false,
          "internalType": "address",
          "name": "rescueWalletAddress",
          "type": "address"
        },
        {
          "indexed": false,
          "internalType": "address",
          "name": "withdrawWalletAddress",
          "type": "address"
        },
        {
          "indexed": false,
          "internalType": "address",
          "name": "firstlenderLiq",
          "type": "address"
        },
        {
          "indexed": false,
          "internalType": "address",
          "name": "secondLenderLiq",
          "type": "address"
        },
        {
          "indexed": false,
          "internalType": "address",
          "name": "swapRouterAddress",
          "type": "address"
        },
        {
          "indexed": false,
          "internalType": "address",
          "name": "swapper",
          "type": "address"
        }
      ],
      "name": "Initialize",
      "type": "event"
    },
    {
      "anonymous": false,
      "inputs": [
        {
          "indexed": false,
          "internalType": "uint8",
          "name": "version",
          "type": "uint8"
        }
      ],
      "name": "Initialized",
      "type": "event"
    },
    {
      "anonymous": false,
      "inputs": [
        {
          "indexed": false,
          "internalType": "address",
          "name": "sender",
          "type": "address"
        },
        {
          "indexed": false,
          "internalType": "string",
          "name": "token",
          "type": "string"
        },
        {
          "indexed": false,
          "internalType": "uint256",
          "name": "amount",
          "type": "uint256"
        },
        {
          "indexed": false,
          "internalType": "address",
          "name": "to",
          "type": "address"
        }
      ],
      "name": "Rescue",
      "type": "event"
    },
    {
      "anonymous": false,
      "inputs": [
        {
          "indexed": true,
          "internalType": "bytes32",
          "name": "role",
          "type": "bytes32"
        },
        {
          "indexed": true,
          "internalType": "bytes32",
          "name": "previousAdminRole",
          "type": "bytes32"
        },
        {
          "indexed": true,
          "internalType": "bytes32",
          "name": "newAdminRole",
          "type": "bytes32"
        }
      ],
      "name": "RoleAdminChanged",
      "type": "event"
    },
    {
      "anonymous": false,
      "inputs": [
        {
          "indexed": true,
          "internalType": "bytes32",
          "name": "role",
          "type": "bytes32"
        },
        {
          "indexed": true,
          "internalType": "address",
          "name": "account",
          "type": "address"
        },
        {
          "indexed": true,
          "internalType": "address",
          "name": "sender",
          "type": "address"
        }
      ],
      "name": "RoleGranted",
      "type": "event"
    },
    {
      "anonymous": false,
      "inputs": [
        {
          "indexed": true,
          "internalType": "bytes32",
          "name": "role",
          "type": "bytes32"
        },
        {
          "indexed": true,
          "internalType": "address",
          "name": "account",
          "type": "address"
        },
        {
          "indexed": true,
          "internalType": "address",
          "name": "sender",
          "type": "address"
        }
      ],
      "name": "RoleRevoked",
      "type": "event"
    },
    {
      "anonymous": false,
      "inputs": [
        {
          "indexed": false,
          "internalType": "address",
          "name": "tokenIn",
          "type": "address"
        },
        {
          "indexed": false,
          "internalType": "address",
          "name": "tokenOut",
          "type": "address"
        },
        {
          "indexed": false,
          "internalType": "uint256",
          "name": "amountIn",
          "type": "uint256"
        },
        {
          "indexed": false,
          "internalType": "uint256",
          "name": "amountOut",
          "type": "uint256"
        }
      ],
      "name": "Swap",
      "type": "event"
    },
    {
      "anonymous": false,
      "inputs": [
        {
          "indexed": false,
          "internalType": "address",
          "name": "tokenIn",
          "type": "address"
        },
        {
          "indexed": false,
          "internalType": "string",
          "name": "msg",
          "type": "string"
        }
      ],
      "name": "SwapError",
      "type": "event"
    },
    {
      "anonymous": false,
      "inputs": [
        {
          "indexed": false,
          "internalType": "address",
          "name": "sender",
          "type": "address"
        },
        {
          "indexed": false,
          "internalType": "string",
          "name": "token",
          "type": "string"
        },
        {
          "indexed": false,
          "internalType": "address",
          "name": "oldTokenAddress",
          "type": "address"
        },
        {
          "indexed": false,
          "internalType": "address",
          "name": "newTokenAddress",
          "type": "address"
        }
      ],
      "name": "TokenAddressChange",
      "type": "event"
    },
    {
      "anonymous": false,
      "inputs": [
        {
          "indexed": false,
          "internalType": "address",
          "name": "sender",
          "type": "address"
        },
        {
          "indexed": false,
          "internalType": "address",
          "name": "token",
          "type": "address"
        },
        {
          "indexed": false,
          "internalType": "uint256",
          "name": "amount",
          "type": "uint256"
        }
      ],
      "name": "Withdraw",
      "type": "event"
    },
    {
      "anonymous": false,
      "inputs": [
        {
          "indexed": false,
          "internalType": "address",
          "name": "sender",
          "type": "address"
        },
        {
          "indexed": false,
          "internalType": "string",
          "name": "token",
          "type": "string"
        },
        {
          "indexed": false,
          "internalType": "uint256",
          "name": "oldWithdrawalLimit",
          "type": "uint256"
        },
        {
          "indexed": false,
          "internalType": "uint256",
          "name": "newWithdrawalLimit",
          "type": "uint256"
        }
      ],
      "name": "WithdrawalLimitChange",
      "type": "event"
    },
    {
      "inputs": [],
      "name": "ACONCAGUA_ROLE",
      "outputs": [
        {
          "internalType": "bytes32",
          "name": "",
          "type": "bytes32"
        }
      ],
      "stateMutability": "view",
      "type": "function"
    },
    {
      "inputs": [],
      "name": "DEFAULT_ADMIN_ROLE",
      "outputs": [
        {
          "internalType": "bytes32",
          "name": "",
          "type": "bytes32"
        }
      ],
      "stateMutability": "view",
      "type": "function"
    },
    {
      "inputs": [],
      "name": "LENDER_LIQ_ROLE",
      "outputs": [
        {
          "internalType": "bytes32",
          "name": "",
          "type": "bytes32"
        }
      ],
      "stateMutability": "view",
      "type": "function"
    },
    {
      "inputs": [],
      "name": "PAUSER_ROLE",
      "outputs": [
        {
          "internalType": "bytes32",
          "name": "",
          "type": "bytes32"
        }
      ],
      "stateMutability": "view",
      "type": "function"
    },
    {
      "inputs": [],
      "name": "RESCUER_ROLE",
      "outputs": [
        {
          "internalType": "bytes32",
          "name": "",
          "type": "bytes32"
        }
      ],
      "stateMutability": "view",
      "type": "function"
    },
    {
      "inputs": [],
      "name": "SWAPPER_ROLE",
      "outputs": [
        {
          "internalType": "bytes32",
          "name": "",
          "type": "bytes32"
        }
      ],
      "stateMutability": "view",
      "type": "function"
    },
    {
      "inputs": [],
      "name": "USDC",
      "outputs": [
        {
          "internalType": "string",
          "name": "",
          "type": "string"
        }
      ],
      "stateMutability": "view",
      "type": "function"
    },
    {
      "inputs": [],
      "name": "USDM",
      "outputs": [
        {
          "internalType": "string",
          "name": "",
          "type": "string"
        }
      ],
      "stateMutability": "view",
      "type": "function"
    },
    {
      "inputs": [],
      "name": "USDT",
      "outputs": [
        {
          "internalType": "string",
          "name": "",
          "type": "string"
        }
      ],
      "stateMutability": "view",
      "type": "function"
    },
    {
      "inputs": [],
      "name": "WBTC",
      "outputs": [
        {
          "internalType": "string",
          "name": "",
          "type": "string"
        }
      ],
      "stateMutability": "view",
      "type": "function"
    },
    {
      "inputs": [
        {
          "internalType": "string",
          "name": "_tokenSymbol",
          "type": "string"
        }
      ],
      "name": "balanceOf",
      "outputs": [
        {
          "internalType": "uint256",
          "name": "",
          "type": "uint256"
        }
      ],
      "stateMutability": "view",
      "type": "function"
    },
    {
      "inputs": [],
      "name": "getBalances",
      "outputs": [
        {
          "internalType": "uint256[]",
          "name": "",
          "type": "uint256[]"
        }
      ],
      "stateMutability": "view",
      "type": "function"
    },
    {
      "inputs": [
        {
          "internalType": "bytes32",
          "name": "role",
          "type": "bytes32"
        }
      ],
      "name": "getRoleAdmin",
      "outputs": [
        {
          "internalType": "bytes32",
          "name": "",
          "type": "bytes32"
        }
      ],
      "stateMutability": "view",
      "type": "function"
    },
    {
      "inputs": [
        {
          "internalType": "uint256",
          "name": "index",
          "type": "uint256"
        }
      ],
      "name": "getRoleByIndex",
      "outputs": [
        {
          "internalType": "bytes32",
          "name": "",
          "type": "bytes32"
        }
      ],
      "stateMutability": "view",
      "type": "function"
    },
    {
      "inputs": [],
      "name": "getRoleCount",
      "outputs": [
        {
          "internalType": "uint256",
          "name": "",
          "type": "uint256"
        }
      ],
      "stateMutability": "view",
      "type": "function"
    },
    {
      "inputs": [
        {
          "internalType": "bytes32",
          "name": "role",
          "type": "bytes32"
        },
        {
          "internalType": "uint256",
          "name": "index",
          "type": "uint256"
        }
      ],
      "name": "getRoleMember",
      "outputs": [
        {
          "internalType": "address",
          "name": "",
          "type": "address"
        }
      ],
      "stateMutability": "view",
      "type": "function"
    },
    {
      "inputs": [
        {
          "internalType": "bytes32",
          "name": "role",
          "type": "bytes32"
        }
      ],
      "name": "getRoleMemberCount",
      "outputs": [
        {
          "internalType": "uint256",
          "name": "",
          "type": "uint256"
        }
      ],
      "stateMutability": "view",
      "type": "function"
    },
    {
      "inputs": [
        {
          "internalType": "bytes32",
          "name": "role",
          "type": "bytes32"
        },
        {
          "internalType": "address",
          "name": "account",
          "type": "address"
        }
      ],
      "name": "grantRole",
      "outputs": [],
      "stateMutability": "nonpayable",
      "type": "function"
    },
    {
      "inputs": [
        {
          "internalType": "bytes32",
          "name": "role",
          "type": "bytes32"
        },
        {
          "internalType": "address",
          "name": "account",
          "type": "address"
        }
      ],
      "name": "hasRole",
      "outputs": [
        {
          "internalType": "bool",
          "name": "",
          "type": "bool"
        }
      ],
      "stateMutability": "view",
      "type": "function"
    },
    {
      "inputs": [
        {
          "internalType": "address",
          "name": "_usdcTokenAddress",
          "type": "address"
        },
        {
          "internalType": "address",
          "name": "_usdtTokenAddress",
          "type": "address"
        },
        {
          "internalType": "address",
          "name": "_usdmTokenAddress",
          "type": "address"
        },
        {
          "internalType": "address",
          "name": "_wbtcTokenAddress",
          "type": "address"
        },
        {
          "internalType": "address[3]",
          "name": "_aconcagua",
          "type": "address[3]"
        },
        {
          "internalType": "address",
          "name": "_rescueWalletAddress",
          "type": "address"
        },
        {
          "internalType": "address",
          "name": "_withdrawWalletAddress",
          "type": "address"
        },
        {
          "internalType": "address",
          "name": "_firstLenderLiq",
          "type": "address"
        },
        {
          "internalType": "address",
          "name": "_secondLenderLiq",
          "type": "address"
        },
        {
          "internalType": "address",
          "name": "_swapRouterAddress",
          "type": "address"
        },
        {
          "internalType": "address",
          "name": "_swapper",
          "type": "address"
        }
      ],
      "name": "initialize",
      "outputs": [],
      "stateMutability": "nonpayable",
      "type": "function"
    },
    {
      "inputs": [
        {
          "internalType": "bytes32",
          "name": "role",
          "type": "bytes32"
        },
        {
          "internalType": "address",
          "name": "account",
          "type": "address"
        }
      ],
      "name": "renounceRole",
      "outputs": [],
      "stateMutability": "nonpayable",
      "type": "function"
    },
    {
      "inputs": [],
      "name": "rescueWalletAddress",
      "outputs": [
        {
          "internalType": "address",
          "name": "",
          "type": "address"
        }
      ],
      "stateMutability": "view",
      "type": "function"
    },
    {
      "inputs": [
        {
          "internalType": "bytes32",
          "name": "role",
          "type": "bytes32"
        },
        {
          "internalType": "address",
          "name": "account",
          "type": "address"
        }
      ],
      "name": "revokeRole",
      "outputs": [],
      "stateMutability": "nonpayable",
      "type": "function"
    },
    {
      "inputs": [
        {
          "internalType": "address",
          "name": "_rescueWalletAddress",
          "type": "address"
        }
      ],
      "name": "setRescueWalletAddress",
      "outputs": [],
      "stateMutability": "nonpayable",
      "type": "function"
    },
    {
      "inputs": [
        {
          "internalType": "address",
          "name": "_withdrawWalletAddress",
          "type": "address"
        }
      ],
      "name": "setWithdrawWalletAddress",
      "outputs": [],
      "stateMutability": "nonpayable",
      "type": "function"
    },
    {
      "inputs": [
        {
          "internalType": "bytes4",
          "name": "interfaceId",
          "type": "bytes4"
        }
      ],
      "name": "supportsInterface",
      "outputs": [
        {
          "internalType": "bool",
          "name": "",
          "type": "bool"
        }
      ],
      "stateMutability": "view",
      "type": "function"
    },
    {
      "inputs": [
        {
          "components": [
            {
              "components": [
                {
                  "internalType": "bytes",
                  "name": "path",
                  "type": "bytes"
                },
                {
                  "internalType": "address",
                  "name": "recipient",
                  "type": "address"
                },
                {
                  "internalType": "uint256",
                  "name": "deadline",
                  "type": "uint256"
                },
                {
                  "internalType": "uint256",
                  "name": "amountIn",
                  "type": "uint256"
                },
                {
                  "internalType": "uint256",
                  "name": "amountOutMinimum",
                  "type": "uint256"
                }
              ],
              "internalType": "struct ISwapRouter.ExactInputParams",
              "name": "params",
              "type": "tuple"
            },
            {
              "internalType": "address",
              "name": "tokenIn",
              "type": "address"
            },
            {
              "internalType": "address",
              "name": "tokenOut",
              "type": "address"
            }
          ],
          "internalType": "struct IColateralContractOper.SwapParams[]",
          "name": "swapsParams",
          "type": "tuple[]"
        }
      ],
      "name": "swapExactInputs",
      "outputs": [],
      "stateMutability": "nonpayable",
      "type": "function"
    },
    {
      "inputs": [
        {
          "internalType": "string",
          "name": "",
          "type": "string"
        }
      ],
      "name": "tokenAddress",
      "outputs": [
        {
          "internalType": "address",
          "name": "",
          "type": "address"
        }
      ],
      "stateMutability": "view",
      "type": "function"
    },
    {
      "inputs": [],
      "name": "version",
      "outputs": [
        {
          "internalType": "string",
          "name": "",
          "type": "string"
        }
      ],
      "stateMutability": "pure",
      "type": "function"
    },
    {
      "inputs": [],
      "name": "withdrawWalletAddress",
      "outputs": [
        {
          "internalType": "address",
          "name": "",
          "type": "address"
        }
      ],
      "stateMutability": "view",
      "type": "function"
    },
    {
      "inputs": [
        {
          "internalType": "uint256",
          "name": "_amount",
          "type": "uint256"
        },
        {
          "internalType": "address",
          "name": "_tokenAddress",
          "type": "address"
        }
      ],
      "name": "withdrawX",
      "outputs": [],
      "stateMutability": "nonpayable",
      "type": "function"
    }
  ],
  "bytecode": "0x60806040523480156200001157600080fd5b50620000226200002860201b60201c565b620001d2565b600060019054906101000a900460ff16156200007b576040517f08c379a0000000000000000000000000000000000000000000000000000000008152600401620000729062000175565b60405180910390fd5b60ff801660008054906101000a900460ff1660ff1614620000ec5760ff6000806101000a81548160ff021916908360ff1602179055507f7f26b83ff96e1f2b6a682f133852f6798a09c465da95921460cefb384740249860ff604051620000e39190620001b5565b60405180910390a15b565b600082825260208201905092915050565b7f496e697469616c697a61626c653a20636f6e747261637420697320696e69746960008201527f616c697a696e6700000000000000000000000000000000000000000000000000602082015250565b60006200015d602783620000ee565b91506200016a82620000ff565b604082019050919050565b6000602082019050818103600083015262000190816200014e565b9050919050565b600060ff82169050919050565b620001af8162000197565b82525050565b6000602082019050620001cc6000830184620001a4565b92915050565b614f7680620001e26000396000f3fe608060405234801561001057600080fd5b50600436106101e45760003560e01c80636e30199f1161010f578063b14ec101116100a2578063d547741f11610071578063d547741f14610595578063df668eca146105b1578063e5df800a146105cf578063e63ab1e9146105ed576101e4565b8063b14ec1011461050d578063c54e44eb1461052b578063ca15c87314610549578063d00411c914610579576101e4565b80639010d07c116100de5780639010d07c1461047157806391d14854146104a1578063a217fddf146104d1578063a9da3cf2146104ef576101e4565b80636e30199f146103e7578063713725441461041757806383d333191461043557806389a3027114610453576101e4565b80632f2ff15d1161018757806335ee5f871161015657806335ee5f871461035f57806336568abe1461038f5780634dede3de146103ab57806354fd4d50146103c9576101e4565b80632f2ff15d146102ed5780632ffe99421461030957806332cc815d14610325578063334347b714610343576101e4565b806315ac7358116101c357806315ac735814610253578063212f603914610271578063248a9ca31461028d57806325acc985146102bd576101e4565b8062113e08146101e957806301ffc9a7146102075780630307a77c14610237575b600080fd5b6101f161060b565b6040516101fe91906132b1565b60405180910390f35b610221600480360381019061021c919061333f565b6107fb565b60405161022e9190613387565b60405180910390f35b610251600480360381019061024c919061342c565b610875565b005b61025b61093e565b604051610268919061347b565b60405180910390f35b61028b60048036038101906102869190613496565b610964565b005b6102a760048036038101906102a291906134f9565b610a42565b6040516102b49190613535565b60405180910390f35b6102d760048036038101906102d29190613550565b610a62565b6040516102e49190613535565b60405180910390f35b6103076004803603810190610302919061357d565b610a7f565b005b610323600480360381019061031e9190613622565b610aa0565b005b61032d611328565b60405161033a9190613535565b60405180910390f35b61035d60048036038101906103589190613691565b61134c565b005b610379600480360381019061037491906138c8565b611f40565b6040516103869190613920565b60405180910390f35b6103a960048036038101906103a4919061357d565b612006565b005b6103b3612089565b6040516103c091906139ba565b60405180910390f35b6103d16120c2565b6040516103de91906139ba565b60405180910390f35b61040160048036038101906103fc91906138c8565b6120ff565b60405161040e919061347b565b60405180910390f35b61041f612148565b60405161042c9190613535565b60405180910390f35b61043d61216c565b60405161044a9190613920565b60405180910390f35b61045b61217d565b60405161046891906139ba565b60405180910390f35b61048b600480360381019061048691906139dc565b6121b6565b604051610498919061347b565b60405180910390f35b6104bb60048036038101906104b6919061357d565b6121e5565b6040516104c89190613387565b60405180910390f35b6104d9612250565b6040516104e69190613535565b60405180910390f35b6104f7612257565b60405161050491906139ba565b60405180910390f35b610515612290565b604051610522919061347b565b60405180910390f35b6105336122b6565b60405161054091906139ba565b60405180910390f35b610563600480360381019061055e91906134f9565b6122ef565b6040516105709190613920565b60405180910390f35b610593600480360381019061058e9190613496565b612313565b005b6105af60048036038101906105aa919061357d565b6123f1565b005b6105b9612412565b6040516105c69190613535565b60405180910390f35b6105d7612436565b6040516105e49190613535565b60405180910390f35b6105f561245a565b6040516106029190613535565b60405180910390f35b60606000600567ffffffffffffffff81111561062a5761062961379d565b5b6040519080825280602002602001820160405280156106585781602001602082028036833780820191505090505b50905047816000815181106106705761066f613a1c565b5b6020026020010181815250506106ba6040518060400160405280600481526020017f5553444300000000000000000000000000000000000000000000000000000000815250611f40565b816001815181106106ce576106cd613a1c565b5b6020026020010181815250506107186040518060400160405280600481526020017f5553445400000000000000000000000000000000000000000000000000000000815250611f40565b8160028151811061072c5761072b613a1c565b5b6020026020010181815250506107766040518060400160405280600481526020017f5553444d00000000000000000000000000000000000000000000000000000000815250611f40565b8160038151811061078a57610789613a1c565b5b6020026020010181815250506107d46040518060400160405280600481526020017f5742544300000000000000000000000000000000000000000000000000000000815250611f40565b816004815181106107e8576107e7613a1c565b5b6020026020010181815250508091505090565b60007f5a05180f000000000000000000000000000000000000000000000000000000007bffffffffffffffffffffffffffffffffffffffffffffffffffffffff1916827bffffffffffffffffffffffffffffffffffffffffffffffffffffffff1916148061086e575061086d8261247e565b5b9050919050565b7ffd37f88a14d7ed985885a1af8f2ad5b64dd7eb00ab89168649791632bb9bb4a661089f816124f8565b6108a761250c565b6108d48260ff60009054906101000a900473ffffffffffffffffffffffffffffffffffffffff168561255b565b7f9b1bfa7fa9ee420a16e124f794c35ac9f90472acc99140eb2f6447c714cad8eb60ff60009054906101000a900473ffffffffffffffffffffffffffffffffffffffff16838560405161092993929190613a4b565b60405180910390a16109396125e1565b505050565b60fe60009054906101000a900473ffffffffffffffffffffffffffffffffffffffff1681565b7ffaad79a708d82d095486f5a83b18341f12a8f717d3011ab929d43135c1af73e261098e816124f8565b600073ffffffffffffffffffffffffffffffffffffffff168273ffffffffffffffffffffffffffffffffffffffff16036109fd576040517f08c379a00000000000000000000000000000000000000000000000000000000081526004016109f490613ace565b60405180910390fd5b8160ff60006101000a81548173ffffffffffffffffffffffffffffffffffffffff021916908373ffffffffffffffffffffffffffffffffffffffff1602179055505050565b600060656000838152602001908152602001600020600101549050919050565b6000610a788260fb6125eb90919063ffffffff16565b9050919050565b610a8882610a42565b610a91816124f8565b610a9b8383612602565b505050565b7fd2761b102bda9831f4af400cc824b8cecb9cc5c1c85c51acb1479db9735fbfc6610aca816124f8565b60005b838390508110156113225736848483818110610aec57610aeb613a1c565b5b9050602002810190610afe9190613af3565b90503073ffffffffffffffffffffffffffffffffffffffff16818060000190610b279190613b1b565b6020016020810190610b399190613496565b73ffffffffffffffffffffffffffffffffffffffff1614610b8f576040517f08c379a0000000000000000000000000000000000000000000000000000000008152600401610b8690613b8f565b60405180910390fd5b6000818060000190610ba19190613b1b565b6080013511610be5576040517f08c379a0000000000000000000000000000000000000000000000000000000008152600401610bdc90613bfb565b60405180910390fd5b60fd604051610bf390613c72565b908152602001604051809103902060009054906101000a900473ffffffffffffffffffffffffffffffffffffffff1673ffffffffffffffffffffffffffffffffffffffff16816040016020810190610c4b9190613496565b73ffffffffffffffffffffffffffffffffffffffff161480610ce6575060fd604051610c7690613cd3565b908152602001604051809103902060009054906101000a900473ffffffffffffffffffffffffffffffffffffffff1673ffffffffffffffffffffffffffffffffffffffff16816040016020810190610cce9190613496565b73ffffffffffffffffffffffffffffffffffffffff16145b80610d6a575060fd604051610cfa90613d34565b908152602001604051809103902060009054906101000a900473ffffffffffffffffffffffffffffffffffffffff1673ffffffffffffffffffffffffffffffffffffffff16816040016020810190610d529190613496565b73ffffffffffffffffffffffffffffffffffffffff16145b610da9576040517f08c379a0000000000000000000000000000000000000000000000000000000008152600401610da090613d95565b60405180910390fd5b6000816020016020810190610dbe9190613496565b90506000828060000190610dd29190613b1b565b60600135118015610e6f57508073ffffffffffffffffffffffffffffffffffffffff166370a08231306040518263ffffffff1660e01b8152600401610e17919061347b565b602060405180830381865afa158015610e34573d6000803e3d6000fd5b505050506040513d601f19601f82011682018060405250810190610e589190613dca565b828060000190610e689190613b1b565b6060013511155b610eae576040517f08c379a0000000000000000000000000000000000000000000000000000000008152600401610ea590613e43565b60405180910390fd5b8073ffffffffffffffffffffffffffffffffffffffff1663095ea7b361010060009054906101000a900473ffffffffffffffffffffffffffffffffffffffff16848060000190610efe9190613b1b565b606001356040518363ffffffff1660e01b8152600401610f1f929190613e63565b6020604051808303816000875af1158015610f3e573d6000803e3d6000fd5b505050506040513d601f19601f82011682018060405250810190610f629190613eb8565b610fa1576040517f08c379a0000000000000000000000000000000000000000000000000000000008152600401610f9890613f31565b60405180910390fd5b61010060009054906101000a900473ffffffffffffffffffffffffffffffffffffffff1673ffffffffffffffffffffffffffffffffffffffff1663c04b8d59838060000190610ff09190613b1b565b6040518263ffffffff1660e01b815260040161100c91906140de565b6020604051808303816000875af192505050801561104857506040513d601f19601f820116820180604052508101906110459190613dca565b60015b6111b65761105461410d565b806308c379a0036111a5575061106861412f565b8061107357506111a7565b7f48dbf1f65dc9fb918dcf47a87d0d7dbfe9cd78bcfaea409049ee36785201cb918360200160208101906110a79190613496565b826040516110b69291906141bf565b60405180910390a18173ffffffffffffffffffffffffffffffffffffffff1663095ea7b361010060009054906101000a900473ffffffffffffffffffffffffffffffffffffffff1660006040518363ffffffff1660e01b815260040161111d929190614234565b6020604051808303816000875af115801561113c573d6000803e3d6000fd5b505050506040513d601f19601f820116820180604052508101906111609190613eb8565b61119f576040517f08c379a0000000000000000000000000000000000000000000000000000000008152600401611196906142a9565b60405180910390fd5b506111b1565b505b3d6000803e3d6000fd5b61130d565b7ffa2dda1cc1b86e41239702756b13effbc1a092b5c57e3ad320fbe4f3b13fe2358360200160208101906111ea9190613496565b8460400160208101906111fd9190613496565b85806000019061120d9190613b1b565b606001358460405161122294939291906142c9565b60405180910390a18173ffffffffffffffffffffffffffffffffffffffff1663095ea7b361010060009054906101000a900473ffffffffffffffffffffffffffffffffffffffff1660006040518363ffffffff1660e01b8152600401611289929190614234565b6020604051808303816000875af11580156112a8573d6000803e3d6000fd5b505050506040513d601f19601f820116820180604052508101906112cc9190613eb8565b61130b576040517f08c379a0000000000000000000000000000000000000000000000000000000008152600401611302906142a9565b60405180910390fd5b505b5050808061131a9061433d565b915050610acd565b50505050565b7ffd37f88a14d7ed985885a1af8f2ad5b64dd7eb00ab89168649791632bb9bb4a681565b60008060019054906101000a900460ff1615905080801561137d5750600160008054906101000a900460ff1660ff16105b806113aa575061138c30612636565b1580156113a95750600160008054906101000a900460ff1660ff16145b5b6113e9576040517f08c379a00000000000000000000000000000000000000000000000000000000081526004016113e0906143f7565b60405180910390fd5b60016000806101000a81548160ff021916908360ff1602179055508015611426576001600060016101000a81548160ff0219169083151502179055505b600073ffffffffffffffffffffffffffffffffffffffff168860006003811061145257611451613a1c565b5b6020020160208101906114659190613496565b73ffffffffffffffffffffffffffffffffffffffff161415806114db5750600073ffffffffffffffffffffffffffffffffffffffff16886001600381106114af576114ae613a1c565b5b6020020160208101906114c29190613496565b73ffffffffffffffffffffffffffffffffffffffff1614155b806115395750600073ffffffffffffffffffffffffffffffffffffffff168860026003811061150d5761150c613a1c565b5b6020020160208101906115209190613496565b73ffffffffffffffffffffffffffffffffffffffff1614155b611578576040517f08c379a000000000000000000000000000000000000000000000000000000000815260040161156f90614463565b60405180910390fd5b600073ffffffffffffffffffffffffffffffffffffffff168773ffffffffffffffffffffffffffffffffffffffff16036115e7576040517f08c379a00000000000000000000000000000000000000000000000000000000081526004016115de906144cf565b60405180910390fd5b600073ffffffffffffffffffffffffffffffffffffffff168673ffffffffffffffffffffffffffffffffffffffff1603611656576040517f08c379a000000000000000000000000000000000000000000000000000000000815260040161164d9061453b565b60405180910390fd5b600073ffffffffffffffffffffffffffffffffffffffff168573ffffffffffffffffffffffffffffffffffffffff16036116c5576040517f08c379a00000000000000000000000000000000000000000000000000000000081526004016116bc906145a7565b60405180910390fd5b600073ffffffffffffffffffffffffffffffffffffffff168473ffffffffffffffffffffffffffffffffffffffff1603611734576040517f08c379a000000000000000000000000000000000000000000000000000000000815260040161172b90614613565b60405180910390fd5b600073ffffffffffffffffffffffffffffffffffffffff168373ffffffffffffffffffffffffffffffffffffffff16036117a3576040517f08c379a000000000000000000000000000000000000000000000000000000000815260040161179a9061467f565b60405180910390fd5b600073ffffffffffffffffffffffffffffffffffffffff168273ffffffffffffffffffffffffffffffffffffffff1603611812576040517f08c379a0000000000000000000000000000000000000000000000000000000008152600401611809906146eb565b60405180910390fd5b61181a612659565b6118226126aa565b8b60fd6040518060400160405280600481526020017f5553444300000000000000000000000000000000000000000000000000000000815250604051611868919061473c565b908152602001604051809103902060006101000a81548173ffffffffffffffffffffffffffffffffffffffff021916908373ffffffffffffffffffffffffffffffffffffffff1602179055508a60fd6040518060400160405280600481526020017f55534454000000000000000000000000000000000000000000000000000000008152506040516118fa919061473c565b908152602001604051809103902060006101000a81548173ffffffffffffffffffffffffffffffffffffffff021916908373ffffffffffffffffffffffffffffffffffffffff1602179055508960fd6040518060400160405280600481526020017f5553444d0000000000000000000000000000000000000000000000000000000081525060405161198c919061473c565b908152602001604051809103902060006101000a81548173ffffffffffffffffffffffffffffffffffffffff021916908373ffffffffffffffffffffffffffffffffffffffff1602179055508860fd6040518060400160405280600481526020017f5742544300000000000000000000000000000000000000000000000000000000815250604051611a1e919061473c565b908152602001604051809103902060006101000a81548173ffffffffffffffffffffffffffffffffffffffff021916908373ffffffffffffffffffffffffffffffffffffffff1602179055508560ff60006101000a81548173ffffffffffffffffffffffffffffffffffffffff021916908373ffffffffffffffffffffffffffffffffffffffff1602179055508660fe60006101000a81548173ffffffffffffffffffffffffffffffffffffffff021916908373ffffffffffffffffffffffffffffffffffffffff1602179055508261010060006101000a81548173ffffffffffffffffffffffffffffffffffffffff021916908373ffffffffffffffffffffffffffffffffffffffff160217905550611b627ffaad79a708d82d095486f5a83b18341f12a8f717d3011ab929d43135c1af73e260fb61270390919063ffffffff16565b50611b977ffd37f88a14d7ed985885a1af8f2ad5b64dd7eb00ab89168649791632bb9bb4a660fb61270390919063ffffffff16565b50611bcc7fbffb4faf8a508f503a2ca036effd0bc1f82615d3ebfddb934edf718f2367270760fb61270390919063ffffffff16565b50611c017fd2761b102bda9831f4af400cc824b8cecb9cc5c1c85c51acb1479db9735fbfc660fb61270390919063ffffffff16565b50611c527ffaad79a708d82d095486f5a83b18341f12a8f717d3011ab929d43135c1af73e289600060038110611c3a57611c39613a1c565b5b602002016020810190611c4d9190613496565b612602565b611ca27ffaad79a708d82d095486f5a83b18341f12a8f717d3011ab929d43135c1af73e289600160038110611c8a57611c89613a1c565b5b602002016020810190611c9d9190613496565b612602565b611cf27ffaad79a708d82d095486f5a83b18341f12a8f717d3011ab929d43135c1af73e289600260038110611cda57611cd9613a1c565b5b602002016020810190611ced9190613496565b612602565b611d1c7ffd37f88a14d7ed985885a1af8f2ad5b64dd7eb00ab89168649791632bb9bb4a686612602565b611d467ffd37f88a14d7ed985885a1af8f2ad5b64dd7eb00ab89168649791632bb9bb4a685612602565b611d707fbffb4faf8a508f503a2ca036effd0bc1f82615d3ebfddb934edf718f2367270786612602565b611d9a7fbffb4faf8a508f503a2ca036effd0bc1f82615d3ebfddb934edf718f2367270785612602565b611dc47fd2761b102bda9831f4af400cc824b8cecb9cc5c1c85c51acb1479db9735fbfc683612602565b611dee7ffaad79a708d82d095486f5a83b18341f12a8f717d3011ab929d43135c1af73e28061271a565b611e187ffd37f88a14d7ed985885a1af8f2ad5b64dd7eb00ab89168649791632bb9bb4a68061271a565b611e427fbffb4faf8a508f503a2ca036effd0bc1f82615d3ebfddb934edf718f236727078061271a565b611e8c7fd2761b102bda9831f4af400cc824b8cecb9cc5c1c85c51acb1479db9735fbfc67ffaad79a708d82d095486f5a83b18341f12a8f717d3011ab929d43135c1af73e261271a565b7fb01aaefdfa9c6d0ab739180ad32400c96c77b263f5e065d3af1002f36219cfeb338d8d8d8d8d8d8d8d8d8d8d604051611ed19c9b9a999897969594939291906147f7565b60405180910390a18015611f325760008060016101000a81548160ff0219169083151502179055507f7f26b83ff96e1f2b6a682f133852f6798a09c465da95921460cefb38474024986001604051611f2991906148fb565b60405180910390a15b505050505050505050505050565b60008060fd83604051611f53919061473c565b908152602001604051809103902060009054906101000a900473ffffffffffffffffffffffffffffffffffffffff1690508073ffffffffffffffffffffffffffffffffffffffff166370a08231306040518263ffffffff1660e01b8152600401611fbd919061347b565b602060405180830381865afa158015611fda573d6000803e3d6000fd5b505050506040513d601f19601f82011682018060405250810190611ffe9190613dca565b915050919050565b61200e612776565b73ffffffffffffffffffffffffffffffffffffffff168173ffffffffffffffffffffffffffffffffffffffff161461207b576040517f08c379a000000000000000000000000000000000000000000000000000000000815260040161207290614988565b60405180910390fd5b612085828261277e565b5050565b6040518060400160405280600481526020017f574254430000000000000000000000000000000000000000000000000000000081525081565b60606040518060400160405280600581526020017f312e312e31000000000000000000000000000000000000000000000000000000815250905090565b60fd818051602081018201805184825260208301602085012081835280955050505050506000915054906101000a900473ffffffffffffffffffffffffffffffffffffffff1681565b7fbffb4faf8a508f503a2ca036effd0bc1f82615d3ebfddb934edf718f2367270781565b600061217860fb6127b2565b905090565b6040518060400160405280600481526020017f555344430000000000000000000000000000000000000000000000000000000081525081565b60006121dd82609760008681526020019081526020016000206127c790919063ffffffff16565b905092915050565b60006065600084815260200190815260200160002060000160008373ffffffffffffffffffffffffffffffffffffffff1673ffffffffffffffffffffffffffffffffffffffff16815260200190815260200160002060009054906101000a900460ff16905092915050565b6000801b81565b6040518060400160405280600481526020017f5553444d0000000000000000000000000000000000000000000000000000000081525081565b60ff60009054906101000a900473ffffffffffffffffffffffffffffffffffffffff1681565b6040518060400160405280600481526020017f555344540000000000000000000000000000000000000000000000000000000081525081565b600061230c609760008481526020019081526020016000206127e1565b9050919050565b7ffaad79a708d82d095486f5a83b18341f12a8f717d3011ab929d43135c1af73e261233d816124f8565b600073ffffffffffffffffffffffffffffffffffffffff168273ffffffffffffffffffffffffffffffffffffffff16036123ac576040517f08c379a00000000000000000000000000000000000000000000000000000000081526004016123a3906149f4565b60405180910390fd5b8160fe60006101000a81548173ffffffffffffffffffffffffffffffffffffffff021916908373ffffffffffffffffffffffffffffffffffffffff1602179055505050565b6123fa82610a42565b612403816124f8565b61240d838361277e565b505050565b7fd2761b102bda9831f4af400cc824b8cecb9cc5c1c85c51acb1479db9735fbfc681565b7ffaad79a708d82d095486f5a83b18341f12a8f717d3011ab929d43135c1af73e281565b7f539440820030c4994db4e31b6b800deafd503688728f932addfe7a410515c14c81565b60007f7965db0b000000000000000000000000000000000000000000000000000000007bffffffffffffffffffffffffffffffffffffffffffffffffffffffff1916827bffffffffffffffffffffffffffffffffffffffffffffffffffffffff191614806124f157506124f0826127f6565b5b9050919050565b61250981612504612776565b612860565b50565b600260c95403612551576040517f08c379a000000000000000000000000000000000000000000000000000000000815260040161254890614a60565b60405180910390fd5b600260c981905550565b6125dc8363a9059cbb60e01b848460405160240161257a929190613e63565b604051602081830303815290604052907bffffffffffffffffffffffffffffffffffffffffffffffffffffffff19166020820180517bffffffffffffffffffffffffffffffffffffffffffffffffffffffff83818316178352505050506128e5565b505050565b600160c981905550565b60006125fa83600001836129ad565b905092915050565b61260c82826129d8565b6126318160976000858152602001908152602001600020612ab990919063ffffffff16565b505050565b6000808273ffffffffffffffffffffffffffffffffffffffff163b119050919050565b600060019054906101000a900460ff166126a8576040517f08c379a000000000000000000000000000000000000000000000000000000000815260040161269f90614af2565b60405180910390fd5b565b600060019054906101000a900460ff166126f9576040517f08c379a00000000000000000000000000000000000000000000000000000000081526004016126f090614af2565b60405180910390fd5b600160c981905550565b60006127128360000183612ae9565b905092915050565b600061272583610a42565b90508160656000858152602001908152602001600020600101819055508181847fbd79b86ffe0ab8e8776151514217cd7cacd52c909f66475c3af44e129f0b00ff60405160405180910390a4505050565b600033905090565b6127888282612b59565b6127ad8160976000858152602001908152602001600020612c3b90919063ffffffff16565b505050565b60006127c082600001612c6b565b9050919050565b60006127d683600001836129ad565b60001c905092915050565b60006127ef82600001612c6b565b9050919050565b60007f01ffc9a7000000000000000000000000000000000000000000000000000000007bffffffffffffffffffffffffffffffffffffffffffffffffffffffff1916827bffffffffffffffffffffffffffffffffffffffffffffffffffffffff1916149050919050565b61286a82826121e5565b6128e15761287781612c7c565b6128858360001c6020612ca9565b604051602001612896929190614baa565b6040516020818303038152906040526040517f08c379a00000000000000000000000000000000000000000000000000000000081526004016128d891906139ba565b60405180910390fd5b5050565b6000612947826040518060400160405280602081526020017f5361666545524332303a206c6f772d6c6576656c2063616c6c206661696c65648152508573ffffffffffffffffffffffffffffffffffffffff16612ee59092919063ffffffff16565b90506000815114806129695750808060200190518101906129689190613eb8565b5b6129a8576040517f08c379a000000000000000000000000000000000000000000000000000000000815260040161299f90614c56565b60405180910390fd5b505050565b60008260000182815481106129c5576129c4613a1c565b5b9060005260206000200154905092915050565b6129e282826121e5565b612ab55760016065600084815260200190815260200160002060000160008373ffffffffffffffffffffffffffffffffffffffff1673ffffffffffffffffffffffffffffffffffffffff16815260200190815260200160002060006101000a81548160ff021916908315150217905550612a5a612776565b73ffffffffffffffffffffffffffffffffffffffff168173ffffffffffffffffffffffffffffffffffffffff16837f2f8788117e7eff1d82e926ec794901d17c78024a50270940304540a733656f0d60405160405180910390a45b5050565b6000612ae1836000018373ffffffffffffffffffffffffffffffffffffffff1660001b612ae9565b905092915050565b6000612af58383612efd565b612b4e578260000182908060018154018082558091505060019003906000526020600020016000909190919091505582600001805490508360010160008481526020019081526020016000208190555060019050612b53565b600090505b92915050565b612b6382826121e5565b15612c375760006065600084815260200190815260200160002060000160008373ffffffffffffffffffffffffffffffffffffffff1673ffffffffffffffffffffffffffffffffffffffff16815260200190815260200160002060006101000a81548160ff021916908315150217905550612bdc612776565b73ffffffffffffffffffffffffffffffffffffffff168173ffffffffffffffffffffffffffffffffffffffff16837ff6391f5c32d9c69d2a47ea670b442974b53935d1edc7fd64eb21e047a839171b60405160405180910390a45b5050565b6000612c63836000018373ffffffffffffffffffffffffffffffffffffffff1660001b612f20565b905092915050565b600081600001805490509050919050565b6060612ca28273ffffffffffffffffffffffffffffffffffffffff16601460ff16612ca9565b9050919050565b606060006002836002612cbc9190614c76565b612cc69190614cb8565b67ffffffffffffffff811115612cdf57612cde61379d565b5b6040519080825280601f01601f191660200182016040528015612d115781602001600182028036833780820191505090505b5090507f300000000000000000000000000000000000000000000000000000000000000081600081518110612d4957612d48613a1c565b5b60200101907effffffffffffffffffffffffffffffffffffffffffffffffffffffffffffff1916908160001a9053507f780000000000000000000000000000000000000000000000000000000000000081600181518110612dad57612dac613a1c565b5b60200101907effffffffffffffffffffffffffffffffffffffffffffffffffffffffffffff1916908160001a90535060006001846002612ded9190614c76565b612df79190614cb8565b90505b6001811115612e97577f3031323334353637383961626364656600000000000000000000000000000000600f861660108110612e3957612e38613a1c565b5b1a60f81b828281518110612e5057612e4f613a1c565b5b60200101907effffffffffffffffffffffffffffffffffffffffffffffffffffffffffffff1916908160001a905350600485901c945080612e9090614cec565b9050612dfa565b5060008414612edb576040517f08c379a0000000000000000000000000000000000000000000000000000000008152600401612ed290614d61565b60405180910390fd5b8091505092915050565b6060612ef48484600085613034565b90509392505050565b600080836001016000848152602001908152602001600020541415905092915050565b60008083600101600084815260200190815260200160002054905060008114613028576000600182612f529190614d81565b9050600060018660000180549050612f6a9190614d81565b9050818114612fd9576000866000018281548110612f8b57612f8a613a1c565b5b9060005260206000200154905080876000018481548110612faf57612fae613a1c565b5b90600052602060002001819055508387600101600083815260200190815260200160002081905550505b85600001805480612fed57612fec614db5565b5b60019003818190600052602060002001600090559055856001016000868152602001908152602001600020600090556001935050505061302e565b60009150505b92915050565b606082471015613079576040517f08c379a000000000000000000000000000000000000000000000000000000000815260040161307090614e56565b60405180910390fd5b6000808673ffffffffffffffffffffffffffffffffffffffff1685876040516130a29190614ebd565b60006040518083038185875af1925050503d80600081146130df576040519150601f19603f3d011682016040523d82523d6000602084013e6130e4565b606091505b50915091506130f587838387613101565b92505050949350505050565b6060831561316357600083510361315b5761311b85613176565b61315a576040517f08c379a000000000000000000000000000000000000000000000000000000000815260040161315190614f20565b60405180910390fd5b5b82905061316e565b61316d8383613199565b5b949350505050565b6000808273ffffffffffffffffffffffffffffffffffffffff163b119050919050565b6000825111156131ac5781518083602001fd5b806040517f08c379a00000000000000000000000000000000000000000000000000000000081526004016131e091906139ba565b60405180910390fd5b600081519050919050565b600082825260208201905092915050565b6000819050602082019050919050565b6000819050919050565b61322881613215565b82525050565b600061323a838361321f565b60208301905092915050565b6000602082019050919050565b600061325e826131e9565b61326881856131f4565b935061327383613205565b8060005b838110156132a457815161328b888261322e565b975061329683613246565b925050600181019050613277565b5085935050505092915050565b600060208201905081810360008301526132cb8184613253565b905092915050565b6000604051905090565b600080fd5b600080fd5b60007fffffffff0000000000000000000000000000000000000000000000000000000082169050919050565b61331c816132e7565b811461332757600080fd5b50565b60008135905061333981613313565b92915050565b600060208284031215613355576133546132dd565b5b60006133638482850161332a565b91505092915050565b60008115159050919050565b6133818161336c565b82525050565b600060208201905061339c6000830184613378565b92915050565b6133ab81613215565b81146133b657600080fd5b50565b6000813590506133c8816133a2565b92915050565b600073ffffffffffffffffffffffffffffffffffffffff82169050919050565b60006133f9826133ce565b9050919050565b613409816133ee565b811461341457600080fd5b50565b60008135905061342681613400565b92915050565b60008060408385031215613443576134426132dd565b5b6000613451858286016133b9565b925050602061346285828601613417565b9150509250929050565b613475816133ee565b82525050565b6000602082019050613490600083018461346c565b92915050565b6000602082840312156134ac576134ab6132dd565b5b60006134ba84828501613417565b91505092915050565b6000819050919050565b6134d6816134c3565b81146134e157600080fd5b50565b6000813590506134f3816134cd565b92915050565b60006020828403121561350f5761350e6132dd565b5b600061351d848285016134e4565b91505092915050565b61352f816134c3565b82525050565b600060208201905061354a6000830184613526565b92915050565b600060208284031215613566576135656132dd565b5b6000613574848285016133b9565b91505092915050565b60008060408385031215613594576135936132dd565b5b60006135a2858286016134e4565b92505060206135b385828601613417565b9150509250929050565b600080fd5b600080fd5b600080fd5b60008083601f8401126135e2576135e16135bd565b5b8235905067ffffffffffffffff8111156135ff576135fe6135c2565b5b60208301915083602082028301111561361b5761361a6135c7565b5b9250929050565b60008060208385031215613639576136386132dd565b5b600083013567ffffffffffffffff811115613657576136566132e2565b5b613663858286016135cc565b92509250509250929050565b60008190508260206003028201111561368b5761368a6135c7565b5b92915050565b60008060008060008060008060008060006101a08c8e0312156136b7576136b66132dd565b5b60006136c58e828f01613417565b9b505060206136d68e828f01613417565b9a505060406136e78e828f01613417565b99505060606136f88e828f01613417565b98505060806137098e828f0161366f565b97505060e061371a8e828f01613417565b96505061010061372c8e828f01613417565b95505061012061373e8e828f01613417565b9450506101406137508e828f01613417565b9350506101606137628e828f01613417565b9250506101806137748e828f01613417565b9150509295989b509295989b9093969950565b600080fd5b6000601f19601f8301169050919050565b7f4e487b7100000000000000000000000000000000000000000000000000000000600052604160045260246000fd5b6137d58261378c565b810181811067ffffffffffffffff821117156137f4576137f361379d565b5b80604052505050565b60006138076132d3565b905061381382826137cc565b919050565b600067ffffffffffffffff8211156138335761383261379d565b5b61383c8261378c565b9050602081019050919050565b82818337600083830152505050565b600061386b61386684613818565b6137fd565b90508281526020810184848401111561388757613886613787565b5b613892848285613849565b509392505050565b600082601f8301126138af576138ae6135bd565b5b81356138bf848260208601613858565b91505092915050565b6000602082840312156138de576138dd6132dd565b5b600082013567ffffffffffffffff8111156138fc576138fb6132e2565b5b6139088482850161389a565b91505092915050565b61391a81613215565b82525050565b60006020820190506139356000830184613911565b92915050565b600081519050919050565b600082825260208201905092915050565b60005b8381101561397557808201518184015260208101905061395a565b60008484015250505050565b600061398c8261393b565b6139968185613946565b93506139a6818560208601613957565b6139af8161378c565b840191505092915050565b600060208201905081810360008301526139d48184613981565b905092915050565b600080604083850312156139f3576139f26132dd565b5b6000613a01858286016134e4565b9250506020613a12858286016133b9565b9150509250929050565b7f4e487b7100000000000000000000000000000000000000000000000000000000600052603260045260246000fd5b6000606082019050613a60600083018661346c565b613a6d602083018561346c565b613a7a6040830184613911565b949350505050565b7f5769746864726177304164647200000000000000000000000000000000000000600082015250565b6000613ab8600d83613946565b9150613ac382613a82565b602082019050919050565b60006020820190508181036000830152613ae781613aab565b9050919050565b600080fd5b600082356001606003833603038112613b0f57613b0e613aee565b5b80830191505092915050565b60008235600160a003833603038112613b3757613b36613aee565b5b80830191505092915050565b7f45727220726563697069656e7400000000000000000000000000000000000000600082015250565b6000613b79600d83613946565b9150613b8482613b43565b602082019050919050565b60006020820190508181036000830152613ba881613b6c565b9050919050565b7f45727220536c6970700000000000000000000000000000000000000000000000600082015250565b6000613be5600983613946565b9150613bf082613baf565b602082019050919050565b60006020820190508181036000830152613c1481613bd8565b9050919050565b600081905092915050565b7f5553444300000000000000000000000000000000000000000000000000000000600082015250565b6000613c5c600483613c1b565b9150613c6782613c26565b600482019050919050565b6000613c7d82613c4f565b9150819050919050565b7f5553445400000000000000000000000000000000000000000000000000000000600082015250565b6000613cbd600483613c1b565b9150613cc882613c87565b600482019050919050565b6000613cde82613cb0565b9150819050919050565b7f5553444d00000000000000000000000000000000000000000000000000000000600082015250565b6000613d1e600483613c1b565b9150613d2982613ce8565b600482019050919050565b6000613d3f82613d11565b9150819050919050565b7f45727220546f6b656e4f75740000000000000000000000000000000000000000600082015250565b6000613d7f600c83613946565b9150613d8a82613d49565b602082019050919050565b60006020820190508181036000830152613dae81613d72565b9050919050565b600081519050613dc4816133a2565b92915050565b600060208284031215613de057613ddf6132dd565b5b6000613dee84828501613db5565b91505092915050565b7f45727220416d6f756e74496e0000000000000000000000000000000000000000600082015250565b6000613e2d600c83613946565b9150613e3882613df7565b602082019050919050565b60006020820190508181036000830152613e5c81613e20565b9050919050565b6000604082019050613e78600083018561346c565b613e856020830184613911565b9392505050565b613e958161336c565b8114613ea057600080fd5b50565b600081519050613eb281613e8c565b92915050565b600060208284031215613ece57613ecd6132dd565b5b6000613edc84828501613ea3565b91505092915050565b7f45727220417070726f76616c0000000000000000000000000000000000000000600082015250565b6000613f1b600c83613946565b9150613f2682613ee5565b602082019050919050565b60006020820190508181036000830152613f4a81613f0e565b9050919050565b600080fd5b600080fd5b600080fd5b60008083356001602003843603038112613f7d57613f7c613f5b565b5b83810192508235915060208301925067ffffffffffffffff821115613fa557613fa4613f51565b5b600182023603831315613fbb57613fba613f56565b5b509250929050565b600082825260208201905092915050565b6000613fe08385613fc3565b9350613fed838584613849565b613ff68361378c565b840190509392505050565b60006140106020840184613417565b905092915050565b614021816133ee565b82525050565b600061403660208401846133b9565b905092915050565b600060a083016140516000840184613f60565b8583036000870152614064838284613fd4565b925050506140756020840184614001565b6140826020860182614018565b506140906040840184614027565b61409d604086018261321f565b506140ab6060840184614027565b6140b8606086018261321f565b506140c66080840184614027565b6140d3608086018261321f565b508091505092915050565b600060208201905081810360008301526140f8818461403e565b905092915050565b60008160e01c9050919050565b600060033d111561412c5760046000803e614129600051614100565b90505b90565b600060443d106141bc576141416132d3565b60043d036004823e80513d602482011167ffffffffffffffff821117156141695750506141bc565b808201805167ffffffffffffffff81111561418757505050506141bc565b80602083010160043d0385018111156141a45750505050506141bc565b6141b3826020018501866137cc565b82955050505050505b90565b60006040820190506141d4600083018561346c565b81810360208301526141e68184613981565b90509392505050565b6000819050919050565b6000819050919050565b600061421e614219614214846141ef565b6141f9565b613215565b9050919050565b61422e81614203565b82525050565b6000604082019050614249600083018561346c565b6142566020830184614225565b9392505050565b7f45727220417070726f76616c3000000000000000000000000000000000000000600082015250565b6000614293600d83613946565b915061429e8261425d565b602082019050919050565b600060208201905081810360008301526142c281614286565b9050919050565b60006080820190506142de600083018761346c565b6142eb602083018661346c565b6142f86040830185613911565b6143056060830184613911565b95945050505050565b7f4e487b7100000000000000000000000000000000000000000000000000000000600052601160045260246000fd5b600061434882613215565b91507fffffffffffffffffffffffffffffffffffffffffffffffffffffffffffffffff820361437a5761437961430e565b5b600182019050919050565b7f496e697469616c697a61626c653a20636f6e747261637420697320616c72656160008201527f647920696e697469616c697a6564000000000000000000000000000000000000602082015250565b60006143e1602e83613946565b91506143ec82614385565b604082019050919050565b60006020820190508181036000830152614410816143d4565b9050919050565b7f41646d696e416464720000000000000000000000000000000000000000000000600082015250565b600061444d600983613946565b915061445882614417565b602082019050919050565b6000602082019050818103600083015261447c81614440565b9050919050565b7f5265736375654164647200000000000000000000000000000000000000000000600082015250565b60006144b9600a83613946565b91506144c482614483565b602082019050919050565b600060208201905081810360008301526144e8816144ac565b9050919050565b7f5769746864726177416464720000000000000000000000000000000000000000600082015250565b6000614525600c83613946565b9150614530826144ef565b602082019050919050565b6000602082019050818103600083015261455481614518565b9050919050565b7f46697273744c656e6465724c6971416464720000000000000000000000000000600082015250565b6000614591601283613946565b915061459c8261455b565b602082019050919050565b600060208201905081810360008301526145c081614584565b9050919050565b7f5365636f6e644c656e6465724c69714164647200000000000000000000000000600082015250565b60006145fd601383613946565b9150614608826145c7565b602082019050919050565b6000602082019050818103600083015261462c816145f0565b9050919050565b7f53776170526f7574657241646472000000000000000000000000000000000000600082015250565b6000614669600e83613946565b915061467482614633565b602082019050919050565b600060208201905081810360008301526146988161465c565b9050919050565b7f5377617070657241646472000000000000000000000000000000000000000000600082015250565b60006146d5600b83613946565b91506146e08261469f565b602082019050919050565b60006020820190508181036000830152614704816146c8565b9050919050565b60006147168261393b565b6147208185613c1b565b9350614730818560208601613957565b80840191505092915050565b6000614748828461470b565b915081905092915050565b600060039050919050565b600081905092915050565b6000819050919050565b600061477f8383614018565b60208301905092915050565b6000602082019050919050565b6147a181614753565b6147ab818461475e565b92506147b682614769565b8060005b838110156147ef576147cc8284614001565b6147d68782614773565b96506147e18361478b565b9250506001810190506147ba565b505050505050565b60006101c08201905061480d600083018f61346c565b61481a602083018e61346c565b614827604083018d61346c565b614834606083018c61346c565b614841608083018b61346c565b61484e60a083018a614798565b61485c61010083018961346c565b61486a61012083018861346c565b61487861014083018761346c565b61488661016083018661346c565b61489461018083018561346c565b6148a26101a083018461346c565b9d9c50505050505050505050505050565b6000819050919050565b600060ff82169050919050565b60006148e56148e06148db846148b3565b6141f9565b6148bd565b9050919050565b6148f5816148ca565b82525050565b600060208201905061491060008301846148ec565b92915050565b7f416363657373436f6e74726f6c3a2063616e206f6e6c792072656e6f756e636560008201527f20726f6c657320666f722073656c660000000000000000000000000000000000602082015250565b6000614972602f83613946565b915061497d82614916565b604082019050919050565b600060208201905081810360008301526149a181614965565b9050919050565b7f5265736375653041646472000000000000000000000000000000000000000000600082015250565b60006149de600b83613946565b91506149e9826149a8565b602082019050919050565b60006020820190508181036000830152614a0d816149d1565b9050919050565b7f5265656e7472616e637947756172643a207265656e7472616e742063616c6c00600082015250565b6000614a4a601f83613946565b9150614a5582614a14565b602082019050919050565b60006020820190508181036000830152614a7981614a3d565b9050919050565b7f496e697469616c697a61626c653a20636f6e7472616374206973206e6f74206960008201527f6e697469616c697a696e67000000000000000000000000000000000000000000602082015250565b6000614adc602b83613946565b9150614ae782614a80565b604082019050919050565b60006020820190508181036000830152614b0b81614acf565b9050919050565b7f416363657373436f6e74726f6c3a206163636f756e7420000000000000000000600082015250565b6000614b48601783613c1b565b9150614b5382614b12565b601782019050919050565b7f206973206d697373696e6720726f6c6520000000000000000000000000000000600082015250565b6000614b94601183613c1b565b9150614b9f82614b5e565b601182019050919050565b6000614bb582614b3b565b9150614bc1828561470b565b9150614bcc82614b87565b9150614bd8828461470b565b91508190509392505050565b7f5361666545524332303a204552433230206f7065726174696f6e20646964206e60008201527f6f74207375636365656400000000000000000000000000000000000000000000602082015250565b6000614c40602a83613946565b9150614c4b82614be4565b604082019050919050565b60006020820190508181036000830152614c6f81614c33565b9050919050565b6000614c8182613215565b9150614c8c83613215565b9250828202614c9a81613215565b91508282048414831517614cb157614cb061430e565b5b5092915050565b6000614cc382613215565b9150614cce83613215565b9250828201905080821115614ce657614ce561430e565b5b92915050565b6000614cf782613215565b915060008203614d0a57614d0961430e565b5b600182039050919050565b7f537472696e67733a20686578206c656e67746820696e73756666696369656e74600082015250565b6000614d4b602083613946565b9150614d5682614d15565b602082019050919050565b60006020820190508181036000830152614d7a81614d3e565b9050919050565b6000614d8c82613215565b9150614d9783613215565b9250828203905081811115614daf57614dae61430e565b5b92915050565b7f4e487b7100000000000000000000000000000000000000000000000000000000600052603160045260246000fd5b7f416464726573733a20696e73756666696369656e742062616c616e636520666f60008201527f722063616c6c0000000000000000000000000000000000000000000000000000602082015250565b6000614e40602683613946565b9150614e4b82614de4565b604082019050919050565b60006020820190508181036000830152614e6f81614e33565b9050919050565b600081519050919050565b600081905092915050565b6000614e9782614e76565b614ea18185614e81565b9350614eb1818560208601613957565b80840191505092915050565b6000614ec98284614e8c565b915081905092915050565b7f416464726573733a2063616c6c20746f206e6f6e2d636f6e7472616374000000600082015250565b6000614f0a601d83613946565b9150614f1582614ed4565b602082019050919050565b60006020820190508181036000830152614f3981614efd565b905091905056fea26469706673582212203621112fb5a3fbc7f4a079e9bdfc600726ad875d63800367d1f43898965e3b2664736f6c63430008120033",
  "linkReferences": {},
  "deployedLinkReferences": {}
}