{
  "_format": "hh-sol-artifact-1",
  "contractName": "ColateralContractOper",
  "sourceName": "contracts/ColateralContractOper.sol",
  "abi": [
    {
      "anonymous": false,
      "inputs": [
        {
          "indexed": false,
          "internalType": "uint8",
          "name": "version",
          "type": "uint8"
        }
      ],
      "name": "Initialized",
      "type": "event"
    },
    {
      "anonymous": false,
      "inputs": [
        {
          "indexed": true,
          "internalType": "bytes32",
          "name": "role",
          "type": "bytes32"
        },
        {
          "indexed": true,
          "internalType": "bytes32",
          "name": "previousAdminRole",
          "type": "bytes32"
        },
        {
          "indexed": true,
          "internalType": "bytes32",
          "name": "newAdminRole",
          "type": "bytes32"
        }
      ],
      "name": "RoleAdminChanged",
      "type": "event"
    },
    {
      "anonymous": false,
      "inputs": [
        {
          "indexed": true,
          "internalType": "bytes32",
          "name": "role",
          "type": "bytes32"
        },
        {
          "indexed": true,
          "internalType": "address",
          "name": "account",
          "type": "address"
        },
        {
          "indexed": true,
          "internalType": "address",
          "name": "sender",
          "type": "address"
        }
      ],
      "name": "RoleGranted",
      "type": "event"
    },
    {
      "anonymous": false,
      "inputs": [
        {
          "indexed": true,
          "internalType": "bytes32",
          "name": "role",
          "type": "bytes32"
        },
        {
          "indexed": true,
          "internalType": "address",
          "name": "account",
          "type": "address"
        },
        {
          "indexed": true,
          "internalType": "address",
          "name": "sender",
          "type": "address"
        }
      ],
      "name": "RoleRevoked",
      "type": "event"
    },
    {
      "anonymous": false,
      "inputs": [
        {
          "indexed": true,
          "internalType": "address",
          "name": "withdrawWalletAddress",
          "type": "address"
        },
        {
          "indexed": true,
          "internalType": "address",
          "name": "tokenAddress",
          "type": "address"
        },
        {
          "indexed": false,
          "internalType": "uint256",
          "name": "amount",
          "type": "uint256"
        }
      ],
      "name": "Withdraw",
      "type": "event"
    },
    {
      "inputs": [],
      "name": "DEFAULT_ADMIN_ROLE",
      "outputs": [
        {
          "internalType": "bytes32",
          "name": "",
          "type": "bytes32"
        }
      ],
      "stateMutability": "view",
      "type": "function"
    },
    {
      "inputs": [],
      "name": "LENDER_LIQ_ROLE",
      "outputs": [
        {
          "internalType": "bytes32",
          "name": "",
          "type": "bytes32"
        }
      ],
      "stateMutability": "view",
      "type": "function"
    },
    {
      "inputs": [
        {
          "internalType": "bytes32",
          "name": "role",
          "type": "bytes32"
        }
      ],
      "name": "getRoleAdmin",
      "outputs": [
        {
          "internalType": "bytes32",
          "name": "",
          "type": "bytes32"
        }
      ],
      "stateMutability": "view",
      "type": "function"
    },
    {
      "inputs": [
        {
          "internalType": "bytes32",
          "name": "role",
          "type": "bytes32"
        },
        {
          "internalType": "uint256",
          "name": "index",
          "type": "uint256"
        }
      ],
      "name": "getRoleMember",
      "outputs": [
        {
          "internalType": "address",
          "name": "",
          "type": "address"
        }
      ],
      "stateMutability": "view",
      "type": "function"
    },
    {
      "inputs": [
        {
          "internalType": "bytes32",
          "name": "role",
          "type": "bytes32"
        }
      ],
      "name": "getRoleMemberCount",
      "outputs": [
        {
          "internalType": "uint256",
          "name": "",
          "type": "uint256"
        }
      ],
      "stateMutability": "view",
      "type": "function"
    },
    {
      "inputs": [
        {
          "internalType": "bytes32",
          "name": "role",
          "type": "bytes32"
        },
        {
          "internalType": "address",
          "name": "account",
          "type": "address"
        }
      ],
      "name": "grantRole",
      "outputs": [],
      "stateMutability": "nonpayable",
      "type": "function"
    },
    {
      "inputs": [
        {
          "internalType": "bytes32",
          "name": "role",
          "type": "bytes32"
        },
        {
          "internalType": "address",
          "name": "account",
          "type": "address"
        }
      ],
      "name": "hasRole",
      "outputs": [
        {
          "internalType": "bool",
          "name": "",
          "type": "bool"
        }
      ],
      "stateMutability": "view",
      "type": "function"
    },
    {
      "inputs": [
        {
          "internalType": "address",
          "name": "_withdrawWalletAddress",
          "type": "address"
        },
        {
          "internalType": "address",
          "name": "_firstLenderLiq",
          "type": "address"
        },
        {
          "internalType": "address",
          "name": "_secondLenderLiq",
          "type": "address"
        }
      ],
      "name": "initialize",
      "outputs": [],
      "stateMutability": "nonpayable",
      "type": "function"
    },
    {
      "inputs": [
        {
          "internalType": "bytes32",
          "name": "role",
          "type": "bytes32"
        },
        {
          "internalType": "address",
          "name": "account",
          "type": "address"
        }
      ],
      "name": "renounceRole",
      "outputs": [],
      "stateMutability": "nonpayable",
      "type": "function"
    },
    {
      "inputs": [
        {
          "internalType": "bytes32",
          "name": "role",
          "type": "bytes32"
        },
        {
          "internalType": "address",
          "name": "account",
          "type": "address"
        }
      ],
      "name": "revokeRole",
      "outputs": [],
      "stateMutability": "nonpayable",
      "type": "function"
    },
    {
      "inputs": [
        {
          "internalType": "bytes4",
          "name": "interfaceId",
          "type": "bytes4"
        }
      ],
      "name": "supportsInterface",
      "outputs": [
        {
          "internalType": "bool",
          "name": "",
          "type": "bool"
        }
      ],
      "stateMutability": "view",
      "type": "function"
    },
    {
      "inputs": [],
      "name": "withdrawWalletAddress",
      "outputs": [
        {
          "internalType": "address",
          "name": "",
          "type": "address"
        }
      ],
      "stateMutability": "view",
      "type": "function"
    },
    {
      "inputs": [
        {
          "internalType": "uint256",
          "name": "_amount",
          "type": "uint256"
        },
        {
          "internalType": "address",
          "name": "_tokenAddress",
          "type": "address"
        }
      ],
      "name": "withdrawX",
      "outputs": [],
      "stateMutability": "nonpayable",
      "type": "function"
    }
  ],
  "bytecode": "0x608060405234801561001057600080fd5b50612405806100206000396000f3fe608060405234801561001057600080fd5b50600436106100cf5760003560e01c80639010d07c1161008c578063b14ec10111610066578063b14ec10114610224578063c0c53b8b14610242578063ca15c8731461025e578063d547741f1461028e576100cf565b80639010d07c146101a657806391d14854146101d6578063a217fddf14610206576100cf565b806301ffc9a7146100d45780630307a77c14610104578063248a9ca3146101205780632f2ff15d1461015057806332cc815d1461016c57806336568abe1461018a575b600080fd5b6100ee60048036038101906100e991906116e6565b6102aa565b6040516100fb919061172e565b60405180910390f35b61011e600480360381019061011991906117dd565b610324565b005b61013a60048036038101906101359190611853565b610437565b604051610147919061188f565b60405180910390f35b61016a600480360381019061016591906118aa565b610457565b005b610174610478565b604051610181919061188f565b60405180910390f35b6101a4600480360381019061019f91906118aa565b61049c565b005b6101c060048036038101906101bb91906118ea565b61051f565b6040516101cd9190611939565b60405180910390f35b6101f060048036038101906101eb91906118aa565b61054e565b6040516101fd919061172e565b60405180910390f35b61020e6105b9565b60405161021b919061188f565b60405180910390f35b61022c6105c0565b6040516102399190611939565b60405180910390f35b61025c60048036038101906102579190611954565b6105e6565b005b61027860048036038101906102739190611853565b610911565b60405161028591906119b6565b60405180910390f35b6102a860048036038101906102a391906118aa565b610935565b005b60007f5a05180f000000000000000000000000000000000000000000000000000000007bffffffffffffffffffffffffffffffffffffffffffffffffffffffff1916827bffffffffffffffffffffffffffffffffffffffffffffffffffffffff1916148061031d575061031c82610956565b5b9050919050565b7ffd37f88a14d7ed985885a1af8f2ad5b64dd7eb00ab89168649791632bb9bb4a661034e816109d0565b6103566109e4565b6103a360fb60009054906101000a900473ffffffffffffffffffffffffffffffffffffffff16848473ffffffffffffffffffffffffffffffffffffffff16610a339092919063ffffffff16565b8173ffffffffffffffffffffffffffffffffffffffff1660fb60009054906101000a900473ffffffffffffffffffffffffffffffffffffffff1673ffffffffffffffffffffffffffffffffffffffff167f9b1bfa7fa9ee420a16e124f794c35ac9f90472acc99140eb2f6447c714cad8eb8560405161042291906119b6565b60405180910390a3610432610ab9565b505050565b600060656000838152602001908152602001600020600101549050919050565b61046082610437565b610469816109d0565b6104738383610ac3565b505050565b7ffd37f88a14d7ed985885a1af8f2ad5b64dd7eb00ab89168649791632bb9bb4a681565b6104a4610af7565b73ffffffffffffffffffffffffffffffffffffffff168173ffffffffffffffffffffffffffffffffffffffff1614610511576040517f08c379a000000000000000000000000000000000000000000000000000000000815260040161050890611a54565b60405180910390fd5b61051b8282610aff565b5050565b60006105468260976000868152602001908152602001600020610b3390919063ffffffff16565b905092915050565b60006065600084815260200190815260200160002060000160008373ffffffffffffffffffffffffffffffffffffffff1673ffffffffffffffffffffffffffffffffffffffff16815260200190815260200160002060009054906101000a900460ff16905092915050565b6000801b81565b60fb60009054906101000a900473ffffffffffffffffffffffffffffffffffffffff1681565b60008060019054906101000a900460ff161590508080156106175750600160008054906101000a900460ff1660ff16105b80610644575061062630610b4d565b1580156106435750600160008054906101000a900460ff1660ff16145b5b610683576040517f08c379a000000000000000000000000000000000000000000000000000000000815260040161067a90611ae6565b60405180910390fd5b60016000806101000a81548160ff021916908360ff16021790555080156106c0576001600060016101000a81548160ff0219169083151502179055505b600073ffffffffffffffffffffffffffffffffffffffff168473ffffffffffffffffffffffffffffffffffffffff160361072f576040517f08c379a000000000000000000000000000000000000000000000000000000000815260040161072690611b52565b60405180910390fd5b600073ffffffffffffffffffffffffffffffffffffffff168373ffffffffffffffffffffffffffffffffffffffff160361079e576040517f08c379a000000000000000000000000000000000000000000000000000000000815260040161079590611bbe565b60405180910390fd5b600073ffffffffffffffffffffffffffffffffffffffff168273ffffffffffffffffffffffffffffffffffffffff160361080d576040517f08c379a000000000000000000000000000000000000000000000000000000000815260040161080490611c2a565b60405180910390fd5b610815610b70565b61081d610bc1565b8360fb60006101000a81548173ffffffffffffffffffffffffffffffffffffffff021916908373ffffffffffffffffffffffffffffffffffffffff1602179055506108887ffd37f88a14d7ed985885a1af8f2ad5b64dd7eb00ab89168649791632bb9bb4a684610c1a565b6108b27ffd37f88a14d7ed985885a1af8f2ad5b64dd7eb00ab89168649791632bb9bb4a683610c1a565b801561090b5760008060016101000a81548160ff0219169083151502179055507f7f26b83ff96e1f2b6a682f133852f6798a09c465da95921460cefb384740249860016040516109029190611c9c565b60405180910390a15b50505050565b600061092e60976000848152602001908152602001600020610c28565b9050919050565b61093e82610437565b610947816109d0565b6109518383610aff565b505050565b60007f7965db0b000000000000000000000000000000000000000000000000000000007bffffffffffffffffffffffffffffffffffffffffffffffffffffffff1916827bffffffffffffffffffffffffffffffffffffffffffffffffffffffff191614806109c957506109c882610c3d565b5b9050919050565b6109e1816109dc610af7565b610ca7565b50565b600260c95403610a29576040517f08c379a0000000000000000000000000000000000000000000000000000000008152600401610a2090611d03565b60405180910390fd5b600260c981905550565b610ab48363a9059cbb60e01b8484604051602401610a52929190611d23565b604051602081830303815290604052907bffffffffffffffffffffffffffffffffffffffffffffffffffffffff19166020820180517bffffffffffffffffffffffffffffffffffffffffffffffffffffffff8381831617835250505050610d2c565b505050565b600160c981905550565b610acd8282610df4565b610af28160976000858152602001908152602001600020610ed590919063ffffffff16565b505050565b600033905090565b610b098282610f05565b610b2e8160976000858152602001908152602001600020610fe790919063ffffffff16565b505050565b6000610b428360000183611017565b60001c905092915050565b6000808273ffffffffffffffffffffffffffffffffffffffff163b119050919050565b600060019054906101000a900460ff16610bbf576040517f08c379a0000000000000000000000000000000000000000000000000000000008152600401610bb690611dbe565b60405180910390fd5b565b600060019054906101000a900460ff16610c10576040517f08c379a0000000000000000000000000000000000000000000000000000000008152600401610c0790611dbe565b60405180910390fd5b610c18611042565b565b610c248282610ac3565b5050565b6000610c368260000161109b565b9050919050565b60007f01ffc9a7000000000000000000000000000000000000000000000000000000007bffffffffffffffffffffffffffffffffffffffffffffffffffffffff1916827bffffffffffffffffffffffffffffffffffffffffffffffffffffffff1916149050919050565b610cb1828261054e565b610d2857610cbe816110ac565b610ccc8360001c60206110d9565b604051602001610cdd929190611ee7565b6040516020818303038152906040526040517f08c379a0000000000000000000000000000000000000000000000000000000008152600401610d1f9190611f6b565b60405180910390fd5b5050565b6000610d8e826040518060400160405280602081526020017f5361666545524332303a206c6f772d6c6576656c2063616c6c206661696c65648152508573ffffffffffffffffffffffffffffffffffffffff166113159092919063ffffffff16565b9050600081511480610db0575080806020019051810190610daf9190611fb9565b5b610def576040517f08c379a0000000000000000000000000000000000000000000000000000000008152600401610de690612058565b60405180910390fd5b505050565b610dfe828261054e565b610ed15760016065600084815260200190815260200160002060000160008373ffffffffffffffffffffffffffffffffffffffff1673ffffffffffffffffffffffffffffffffffffffff16815260200190815260200160002060006101000a81548160ff021916908315150217905550610e76610af7565b73ffffffffffffffffffffffffffffffffffffffff168173ffffffffffffffffffffffffffffffffffffffff16837f2f8788117e7eff1d82e926ec794901d17c78024a50270940304540a733656f0d60405160405180910390a45b5050565b6000610efd836000018373ffffffffffffffffffffffffffffffffffffffff1660001b61132d565b905092915050565b610f0f828261054e565b15610fe35760006065600084815260200190815260200160002060000160008373ffffffffffffffffffffffffffffffffffffffff1673ffffffffffffffffffffffffffffffffffffffff16815260200190815260200160002060006101000a81548160ff021916908315150217905550610f88610af7565b73ffffffffffffffffffffffffffffffffffffffff168173ffffffffffffffffffffffffffffffffffffffff16837ff6391f5c32d9c69d2a47ea670b442974b53935d1edc7fd64eb21e047a839171b60405160405180910390a45b5050565b600061100f836000018373ffffffffffffffffffffffffffffffffffffffff1660001b61139d565b905092915050565b600082600001828154811061102f5761102e612078565b5b9060005260206000200154905092915050565b600060019054906101000a900460ff16611091576040517f08c379a000000000000000000000000000000000000000000000000000000000815260040161108890611dbe565b60405180910390fd5b600160c981905550565b600081600001805490509050919050565b60606110d28273ffffffffffffffffffffffffffffffffffffffff16601460ff166110d9565b9050919050565b6060600060028360026110ec91906120d6565b6110f69190612118565b67ffffffffffffffff81111561110f5761110e61214c565b5b6040519080825280601f01601f1916602001820160405280156111415781602001600182028036833780820191505090505b5090507f30000000000000000000000000000000000000000000000000000000000000008160008151811061117957611178612078565b5b60200101907effffffffffffffffffffffffffffffffffffffffffffffffffffffffffffff1916908160001a9053507f7800000000000000000000000000000000000000000000000000000000000000816001815181106111dd576111dc612078565b5b60200101907effffffffffffffffffffffffffffffffffffffffffffffffffffffffffffff1916908160001a9053506000600184600261121d91906120d6565b6112279190612118565b90505b60018111156112c7577f3031323334353637383961626364656600000000000000000000000000000000600f86166010811061126957611268612078565b5b1a60f81b8282815181106112805761127f612078565b5b60200101907effffffffffffffffffffffffffffffffffffffffffffffffffffffffffffff1916908160001a905350600485901c9450806112c09061217b565b905061122a565b506000841461130b576040517f08c379a0000000000000000000000000000000000000000000000000000000008152600401611302906121f0565b60405180910390fd5b8091505092915050565b606061132484846000856114b1565b90509392505050565b6000611339838361157e565b611392578260000182908060018154018082558091505060019003906000526020600020016000909190919091505582600001805490508360010160008481526020019081526020016000208190555060019050611397565b600090505b92915050565b600080836001016000848152602001908152602001600020549050600081146114a55760006001826113cf9190612210565b90506000600186600001805490506113e79190612210565b905081811461145657600086600001828154811061140857611407612078565b5b906000526020600020015490508087600001848154811061142c5761142b612078565b5b90600052602060002001819055508387600101600083815260200190815260200160002081905550505b8560000180548061146a57611469612244565b5b6001900381819060005260206000200160009055905585600101600086815260200190815260200160002060009055600193505050506114ab565b60009150505b92915050565b6060824710156114f6576040517f08c379a00000000000000000000000000000000000000000000000000000000081526004016114ed906122e5565b60405180910390fd5b6000808673ffffffffffffffffffffffffffffffffffffffff16858760405161151f919061234c565b60006040518083038185875af1925050503d806000811461155c576040519150601f19603f3d011682016040523d82523d6000602084013e611561565b606091505b5091509150611572878383876115a1565b92505050949350505050565b600080836001016000848152602001908152602001600020541415905092915050565b606083156116035760008351036115fb576115bb85611616565b6115fa576040517f08c379a00000000000000000000000000000000000000000000000000000000081526004016115f1906123af565b60405180910390fd5b5b82905061160e565b61160d8383611639565b5b949350505050565b6000808273ffffffffffffffffffffffffffffffffffffffff163b119050919050565b60008251111561164c5781518083602001fd5b806040517f08c379a00000000000000000000000000000000000000000000000000000000081526004016116809190611f6b565b60405180910390fd5b600080fd5b60007fffffffff0000000000000000000000000000000000000000000000000000000082169050919050565b6116c38161168e565b81146116ce57600080fd5b50565b6000813590506116e0816116ba565b92915050565b6000602082840312156116fc576116fb611689565b5b600061170a848285016116d1565b91505092915050565b60008115159050919050565b61172881611713565b82525050565b6000602082019050611743600083018461171f565b92915050565b6000819050919050565b61175c81611749565b811461176757600080fd5b50565b60008135905061177981611753565b92915050565b600073ffffffffffffffffffffffffffffffffffffffff82169050919050565b60006117aa8261177f565b9050919050565b6117ba8161179f565b81146117c557600080fd5b50565b6000813590506117d7816117b1565b92915050565b600080604083850312156117f4576117f3611689565b5b60006118028582860161176a565b9250506020611813858286016117c8565b9150509250929050565b6000819050919050565b6118308161181d565b811461183b57600080fd5b50565b60008135905061184d81611827565b92915050565b60006020828403121561186957611868611689565b5b60006118778482850161183e565b91505092915050565b6118898161181d565b82525050565b60006020820190506118a46000830184611880565b92915050565b600080604083850312156118c1576118c0611689565b5b60006118cf8582860161183e565b92505060206118e0858286016117c8565b9150509250929050565b6000806040838503121561190157611900611689565b5b600061190f8582860161183e565b92505060206119208582860161176a565b9150509250929050565b6119338161179f565b82525050565b600060208201905061194e600083018461192a565b92915050565b60008060006060848603121561196d5761196c611689565b5b600061197b868287016117c8565b935050602061198c868287016117c8565b925050604061199d868287016117c8565b9150509250925092565b6119b081611749565b82525050565b60006020820190506119cb60008301846119a7565b92915050565b600082825260208201905092915050565b7f416363657373436f6e74726f6c3a2063616e206f6e6c792072656e6f756e636560008201527f20726f6c657320666f722073656c660000000000000000000000000000000000602082015250565b6000611a3e602f836119d1565b9150611a49826119e2565b604082019050919050565b60006020820190508181036000830152611a6d81611a31565b9050919050565b7f496e697469616c697a61626c653a20636f6e747261637420697320616c72656160008201527f647920696e697469616c697a6564000000000000000000000000000000000000602082015250565b6000611ad0602e836119d1565b9150611adb82611a74565b604082019050919050565b60006020820190508181036000830152611aff81611ac3565b9050919050565b7f5769746864726177416464720000000000000000000000000000000000000000600082015250565b6000611b3c600c836119d1565b9150611b4782611b06565b602082019050919050565b60006020820190508181036000830152611b6b81611b2f565b9050919050565b7f46697273744c656e6465724c6971416464720000000000000000000000000000600082015250565b6000611ba86012836119d1565b9150611bb382611b72565b602082019050919050565b60006020820190508181036000830152611bd781611b9b565b9050919050565b7f5365636f6e644c656e6465724c69714164647200000000000000000000000000600082015250565b6000611c146013836119d1565b9150611c1f82611bde565b602082019050919050565b60006020820190508181036000830152611c4381611c07565b9050919050565b6000819050919050565b600060ff82169050919050565b6000819050919050565b6000611c86611c81611c7c84611c4a565b611c61565b611c54565b9050919050565b611c9681611c6b565b82525050565b6000602082019050611cb16000830184611c8d565b92915050565b7f5265656e7472616e637947756172643a207265656e7472616e742063616c6c00600082015250565b6000611ced601f836119d1565b9150611cf882611cb7565b602082019050919050565b60006020820190508181036000830152611d1c81611ce0565b9050919050565b6000604082019050611d38600083018561192a565b611d4560208301846119a7565b9392505050565b7f496e697469616c697a61626c653a20636f6e7472616374206973206e6f74206960008201527f6e697469616c697a696e67000000000000000000000000000000000000000000602082015250565b6000611da8602b836119d1565b9150611db382611d4c565b604082019050919050565b60006020820190508181036000830152611dd781611d9b565b9050919050565b600081905092915050565b7f416363657373436f6e74726f6c3a206163636f756e7420000000000000000000600082015250565b6000611e1f601783611dde565b9150611e2a82611de9565b601782019050919050565b600081519050919050565b60005b83811015611e5e578082015181840152602081019050611e43565b60008484015250505050565b6000611e7582611e35565b611e7f8185611dde565b9350611e8f818560208601611e40565b80840191505092915050565b7f206973206d697373696e6720726f6c6520000000000000000000000000000000600082015250565b6000611ed1601183611dde565b9150611edc82611e9b565b601182019050919050565b6000611ef282611e12565b9150611efe8285611e6a565b9150611f0982611ec4565b9150611f158284611e6a565b91508190509392505050565b6000601f19601f8301169050919050565b6000611f3d82611e35565b611f4781856119d1565b9350611f57818560208601611e40565b611f6081611f21565b840191505092915050565b60006020820190508181036000830152611f858184611f32565b905092915050565b611f9681611713565b8114611fa157600080fd5b50565b600081519050611fb381611f8d565b92915050565b600060208284031215611fcf57611fce611689565b5b6000611fdd84828501611fa4565b91505092915050565b7f5361666545524332303a204552433230206f7065726174696f6e20646964206e60008201527f6f74207375636365656400000000000000000000000000000000000000000000602082015250565b6000612042602a836119d1565b915061204d82611fe6565b604082019050919050565b6000602082019050818103600083015261207181612035565b9050919050565b7f4e487b7100000000000000000000000000000000000000000000000000000000600052603260045260246000fd5b7f4e487b7100000000000000000000000000000000000000000000000000000000600052601160045260246000fd5b60006120e182611749565b91506120ec83611749565b92508282026120fa81611749565b91508282048414831517612111576121106120a7565b5b5092915050565b600061212382611749565b915061212e83611749565b9250828201905080821115612146576121456120a7565b5b92915050565b7f4e487b7100000000000000000000000000000000000000000000000000000000600052604160045260246000fd5b600061218682611749565b915060008203612199576121986120a7565b5b600182039050919050565b7f537472696e67733a20686578206c656e67746820696e73756666696369656e74600082015250565b60006121da6020836119d1565b91506121e5826121a4565b602082019050919050565b60006020820190508181036000830152612209816121cd565b9050919050565b600061221b82611749565b915061222683611749565b925082820390508181111561223e5761223d6120a7565b5b92915050565b7f4e487b7100000000000000000000000000000000000000000000000000000000600052603160045260246000fd5b7f416464726573733a20696e73756666696369656e742062616c616e636520666f60008201527f722063616c6c0000000000000000000000000000000000000000000000000000602082015250565b60006122cf6026836119d1565b91506122da82612273565b604082019050919050565b600060208201905081810360008301526122fe816122c2565b9050919050565b600081519050919050565b600081905092915050565b600061232682612305565b6123308185612310565b9350612340818560208601611e40565b80840191505092915050565b6000612358828461231b565b915081905092915050565b7f416464726573733a2063616c6c20746f206e6f6e2d636f6e7472616374000000600082015250565b6000612399601d836119d1565b91506123a482612363565b602082019050919050565b600060208201905081810360008301526123c88161238c565b905091905056fea2646970667358221220dbc2b304911d5b1ef37ae99b9ac22af643265951a522cb148037f145cc5c70df64736f6c63430008120033",
  "linkReferences": {},
  "deployedLinkReferences": {}
}