{
  "_format": "hh-sol-artifact-1",
  "contractName": "ColateralContract",
  "sourceName": "contracts/ColateralContract.sol",
  "abi": [
    {
      "inputs": [],
      "stateMutability": "nonpayable",
      "type": "constructor"
    },
    {
      "anonymous": false,
      "inputs": [
        {
          "indexed": false,
          "internalType": "address",
          "name": "sender",
          "type": "address"
        },
        {
          "indexed": false,
          "internalType": "address",
          "name": "usdcTokenAddress",
          "type": "address"
        },
        {
          "indexed": false,
          "internalType": "address",
          "name": "usdtTokenAddress",
          "type": "address"
        },
        {
          "indexed": false,
          "internalType": "address",
          "name": "usdmTokenAddress",
          "type": "address"
        },
        {
          "indexed": false,
          "internalType": "address",
          "name": "wbtcTokenAddress",
          "type": "address"
        },
        {
          "indexed": false,
          "internalType": "address[3]",
          "name": "admins",
          "type": "address[3]"
        },
        {
          "indexed": false,
          "internalType": "address",
          "name": "rescueWalletAddress",
          "type": "address"
        },
        {
          "indexed": false,
          "internalType": "address",
          "name": "withdrawWalletAddress",
          "type": "address"
        },
        {
          "indexed": false,
          "internalType": "address",
          "name": "firstlenderLiq",
          "type": "address"
        },
        {
          "indexed": false,
          "internalType": "address",
          "name": "secondLenderLiq",
          "type": "address"
        },
        {
          "indexed": false,
          "internalType": "address",
          "name": "swapRouterAddress",
          "type": "address"
        },
        {
          "indexed": false,
          "internalType": "address",
          "name": "swapper",
          "type": "address"
        }
      ],
      "name": "Initialize",
      "type": "event"
    },
    {
      "anonymous": false,
      "inputs": [
        {
          "indexed": false,
          "internalType": "uint8",
          "name": "version",
          "type": "uint8"
        }
      ],
      "name": "Initialized",
      "type": "event"
    },
    {
      "anonymous": false,
      "inputs": [
        {
          "indexed": false,
          "internalType": "address",
          "name": "sender",
          "type": "address"
        },
        {
          "indexed": false,
          "internalType": "string",
          "name": "token",
          "type": "string"
        },
        {
          "indexed": false,
          "internalType": "uint256",
          "name": "amount",
          "type": "uint256"
        },
        {
          "indexed": false,
          "internalType": "address",
          "name": "to",
          "type": "address"
        }
      ],
      "name": "Rescue",
      "type": "event"
    },
    {
      "anonymous": false,
      "inputs": [
        {
          "indexed": true,
          "internalType": "bytes32",
          "name": "role",
          "type": "bytes32"
        },
        {
          "indexed": true,
          "internalType": "bytes32",
          "name": "previousAdminRole",
          "type": "bytes32"
        },
        {
          "indexed": true,
          "internalType": "bytes32",
          "name": "newAdminRole",
          "type": "bytes32"
        }
      ],
      "name": "RoleAdminChanged",
      "type": "event"
    },
    {
      "anonymous": false,
      "inputs": [
        {
          "indexed": true,
          "internalType": "bytes32",
          "name": "role",
          "type": "bytes32"
        },
        {
          "indexed": true,
          "internalType": "address",
          "name": "account",
          "type": "address"
        },
        {
          "indexed": true,
          "internalType": "address",
          "name": "sender",
          "type": "address"
        }
      ],
      "name": "RoleGranted",
      "type": "event"
    },
    {
      "anonymous": false,
      "inputs": [
        {
          "indexed": true,
          "internalType": "bytes32",
          "name": "role",
          "type": "bytes32"
        },
        {
          "indexed": true,
          "internalType": "address",
          "name": "account",
          "type": "address"
        },
        {
          "indexed": true,
          "internalType": "address",
          "name": "sender",
          "type": "address"
        }
      ],
      "name": "RoleRevoked",
      "type": "event"
    },
    {
      "anonymous": false,
      "inputs": [
        {
          "indexed": false,
          "internalType": "address",
          "name": "tokenIn",
          "type": "address"
        },
        {
          "indexed": false,
          "internalType": "address",
          "name": "tokenOut",
          "type": "address"
        },
        {
          "indexed": false,
          "internalType": "uint256",
          "name": "amountIn",
          "type": "uint256"
        },
        {
          "indexed": false,
          "internalType": "uint256",
          "name": "amountOut",
          "type": "uint256"
        }
      ],
      "name": "Swap",
      "type": "event"
    },
    {
      "anonymous": false,
      "inputs": [
        {
          "indexed": false,
          "internalType": "address",
          "name": "tokenIn",
          "type": "address"
        },
        {
          "indexed": false,
          "internalType": "string",
          "name": "msg",
          "type": "string"
        }
      ],
      "name": "SwapError",
      "type": "event"
    },
    {
      "anonymous": false,
      "inputs": [
        {
          "indexed": false,
          "internalType": "address",
          "name": "sender",
          "type": "address"
        },
        {
          "indexed": false,
          "internalType": "string",
          "name": "token",
          "type": "string"
        },
        {
          "indexed": false,
          "internalType": "address",
          "name": "oldTokenAddress",
          "type": "address"
        },
        {
          "indexed": false,
          "internalType": "address",
          "name": "newTokenAddress",
          "type": "address"
        }
      ],
      "name": "TokenAddressChange",
      "type": "event"
    },
    {
      "anonymous": false,
      "inputs": [
        {
          "indexed": false,
          "internalType": "address",
          "name": "sender",
          "type": "address"
        },
        {
          "indexed": false,
          "internalType": "string",
          "name": "token",
          "type": "string"
        },
        {
          "indexed": false,
          "internalType": "uint256",
          "name": "amount",
          "type": "uint256"
        }
      ],
      "name": "Withdraw",
      "type": "event"
    },
    {
      "anonymous": false,
      "inputs": [
        {
          "indexed": false,
          "internalType": "address",
          "name": "sender",
          "type": "address"
        },
        {
          "indexed": false,
          "internalType": "string",
          "name": "token",
          "type": "string"
        },
        {
          "indexed": false,
          "internalType": "uint256",
          "name": "oldWithdrawalLimit",
          "type": "uint256"
        },
        {
          "indexed": false,
          "internalType": "uint256",
          "name": "newWithdrawalLimit",
          "type": "uint256"
        }
      ],
      "name": "WithdrawalLimitChange",
      "type": "event"
    },
    {
      "inputs": [],
      "name": "ACONCAGUA_ROLE",
      "outputs": [
        {
          "internalType": "bytes32",
          "name": "",
          "type": "bytes32"
        }
      ],
      "stateMutability": "view",
      "type": "function"
    },
    {
      "inputs": [],
      "name": "DEFAULT_ADMIN_ROLE",
      "outputs": [
        {
          "internalType": "bytes32",
          "name": "",
          "type": "bytes32"
        }
      ],
      "stateMutability": "view",
      "type": "function"
    },
    {
      "inputs": [],
      "name": "LENDER_LIQ_ROLE",
      "outputs": [
        {
          "internalType": "bytes32",
          "name": "",
          "type": "bytes32"
        }
      ],
      "stateMutability": "view",
      "type": "function"
    },
    {
      "inputs": [],
      "name": "PAUSER_ROLE",
      "outputs": [
        {
          "internalType": "bytes32",
          "name": "",
          "type": "bytes32"
        }
      ],
      "stateMutability": "view",
      "type": "function"
    },
    {
      "inputs": [],
      "name": "RESCUER_ROLE",
      "outputs": [
        {
          "internalType": "bytes32",
          "name": "",
          "type": "bytes32"
        }
      ],
      "stateMutability": "view",
      "type": "function"
    },
    {
      "inputs": [],
      "name": "SWAPPER_ROLE",
      "outputs": [
        {
          "internalType": "bytes32",
          "name": "",
          "type": "bytes32"
        }
      ],
      "stateMutability": "view",
      "type": "function"
    },
    {
      "inputs": [],
      "name": "USDC",
      "outputs": [
        {
          "internalType": "string",
          "name": "",
          "type": "string"
        }
      ],
      "stateMutability": "view",
      "type": "function"
    },
    {
      "inputs": [],
      "name": "USDM",
      "outputs": [
        {
          "internalType": "string",
          "name": "",
          "type": "string"
        }
      ],
      "stateMutability": "view",
      "type": "function"
    },
    {
      "inputs": [],
      "name": "USDT",
      "outputs": [
        {
          "internalType": "string",
          "name": "",
          "type": "string"
        }
      ],
      "stateMutability": "view",
      "type": "function"
    },
    {
      "inputs": [],
      "name": "WBTC",
      "outputs": [
        {
          "internalType": "string",
          "name": "",
          "type": "string"
        }
      ],
      "stateMutability": "view",
      "type": "function"
    },
    {
      "inputs": [
        {
          "internalType": "string",
          "name": "_tokenSymbol",
          "type": "string"
        }
      ],
      "name": "balanceOf",
      "outputs": [
        {
          "internalType": "uint256",
          "name": "",
          "type": "uint256"
        }
      ],
      "stateMutability": "view",
      "type": "function"
    },
    {
      "inputs": [],
      "name": "getBalances",
      "outputs": [
        {
          "internalType": "uint256[]",
          "name": "",
          "type": "uint256[]"
        }
      ],
      "stateMutability": "view",
      "type": "function"
    },
    {
      "inputs": [
        {
          "internalType": "bytes32",
          "name": "role",
          "type": "bytes32"
        }
      ],
      "name": "getRoleAdmin",
      "outputs": [
        {
          "internalType": "bytes32",
          "name": "",
          "type": "bytes32"
        }
      ],
      "stateMutability": "view",
      "type": "function"
    },
    {
      "inputs": [
        {
          "internalType": "uint256",
          "name": "index",
          "type": "uint256"
        }
      ],
      "name": "getRoleByIndex",
      "outputs": [
        {
          "internalType": "bytes32",
          "name": "",
          "type": "bytes32"
        }
      ],
      "stateMutability": "view",
      "type": "function"
    },
    {
      "inputs": [],
      "name": "getRoleCount",
      "outputs": [
        {
          "internalType": "uint256",
          "name": "",
          "type": "uint256"
        }
      ],
      "stateMutability": "view",
      "type": "function"
    },
    {
      "inputs": [
        {
          "internalType": "bytes32",
          "name": "role",
          "type": "bytes32"
        },
        {
          "internalType": "uint256",
          "name": "index",
          "type": "uint256"
        }
      ],
      "name": "getRoleMember",
      "outputs": [
        {
          "internalType": "address",
          "name": "",
          "type": "address"
        }
      ],
      "stateMutability": "view",
      "type": "function"
    },
    {
      "inputs": [
        {
          "internalType": "bytes32",
          "name": "role",
          "type": "bytes32"
        }
      ],
      "name": "getRoleMemberCount",
      "outputs": [
        {
          "internalType": "uint256",
          "name": "",
          "type": "uint256"
        }
      ],
      "stateMutability": "view",
      "type": "function"
    },
    {
      "inputs": [
        {
          "internalType": "bytes32",
          "name": "role",
          "type": "bytes32"
        },
        {
          "internalType": "address",
          "name": "account",
          "type": "address"
        }
      ],
      "name": "grantRole",
      "outputs": [],
      "stateMutability": "nonpayable",
      "type": "function"
    },
    {
      "inputs": [
        {
          "internalType": "bytes32",
          "name": "role",
          "type": "bytes32"
        },
        {
          "internalType": "address",
          "name": "account",
          "type": "address"
        }
      ],
      "name": "hasRole",
      "outputs": [
        {
          "internalType": "bool",
          "name": "",
          "type": "bool"
        }
      ],
      "stateMutability": "view",
      "type": "function"
    },
    {
      "inputs": [
        {
          "internalType": "address",
          "name": "_usdcTokenAddress",
          "type": "address"
        },
        {
          "internalType": "address",
          "name": "_usdtTokenAddress",
          "type": "address"
        },
        {
          "internalType": "address",
          "name": "_usdmTokenAddress",
          "type": "address"
        },
        {
          "internalType": "address",
          "name": "_wbtcTokenAddress",
          "type": "address"
        },
        {
          "internalType": "address[3]",
          "name": "_aconcagua",
          "type": "address[3]"
        },
        {
          "internalType": "address",
          "name": "_rescueWalletAddress",
          "type": "address"
        },
        {
          "internalType": "address",
          "name": "_withdrawWalletAddress",
          "type": "address"
        },
        {
          "internalType": "address",
          "name": "_firstLenderLiq",
          "type": "address"
        },
        {
          "internalType": "address",
          "name": "_secondLenderLiq",
          "type": "address"
        },
        {
          "internalType": "address",
          "name": "_swapRouterAddress",
          "type": "address"
        },
        {
          "internalType": "address",
          "name": "_swapper",
          "type": "address"
        }
      ],
      "name": "initialize",
      "outputs": [],
      "stateMutability": "nonpayable",
      "type": "function"
    },
    {
      "inputs": [
        {
          "internalType": "bytes32",
          "name": "role",
          "type": "bytes32"
        },
        {
          "internalType": "address",
          "name": "account",
          "type": "address"
        }
      ],
      "name": "renounceRole",
      "outputs": [],
      "stateMutability": "nonpayable",
      "type": "function"
    },
    {
      "inputs": [
        {
          "internalType": "uint256",
          "name": "_amount",
          "type": "uint256"
        },
        {
          "internalType": "string",
          "name": "_tokenSymbol",
          "type": "string"
        }
      ],
      "name": "rescue",
      "outputs": [],
      "stateMutability": "nonpayable",
      "type": "function"
    },
    {
      "inputs": [],
      "name": "rescueWalletAddress",
      "outputs": [
        {
          "internalType": "address",
          "name": "",
          "type": "address"
        }
      ],
      "stateMutability": "view",
      "type": "function"
    },
    {
      "inputs": [
        {
          "internalType": "bytes32",
          "name": "role",
          "type": "bytes32"
        },
        {
          "internalType": "address",
          "name": "account",
          "type": "address"
        }
      ],
      "name": "revokeRole",
      "outputs": [],
      "stateMutability": "nonpayable",
      "type": "function"
    },
    {
      "inputs": [
        {
          "internalType": "address",
          "name": "_rescueWalletAddress",
          "type": "address"
        }
      ],
      "name": "setRescueWalletAddress",
      "outputs": [],
      "stateMutability": "nonpayable",
      "type": "function"
    },
    {
      "inputs": [
        {
          "internalType": "address",
          "name": "_withdrawWalletAddress",
          "type": "address"
        }
      ],
      "name": "setWithdrawWalletAddress",
      "outputs": [],
      "stateMutability": "nonpayable",
      "type": "function"
    },
    {
      "inputs": [
        {
          "internalType": "bytes4",
          "name": "interfaceId",
          "type": "bytes4"
        }
      ],
      "name": "supportsInterface",
      "outputs": [
        {
          "internalType": "bool",
          "name": "",
          "type": "bool"
        }
      ],
      "stateMutability": "view",
      "type": "function"
    },
    {
      "inputs": [
        {
          "components": [
            {
              "components": [
                {
                  "internalType": "bytes",
                  "name": "path",
                  "type": "bytes"
                },
                {
                  "internalType": "address",
                  "name": "recipient",
                  "type": "address"
                },
                {
                  "internalType": "uint256",
                  "name": "deadline",
                  "type": "uint256"
                },
                {
                  "internalType": "uint256",
                  "name": "amountIn",
                  "type": "uint256"
                },
                {
                  "internalType": "uint256",
                  "name": "amountOutMinimum",
                  "type": "uint256"
                }
              ],
              "internalType": "struct ISwapRouter.ExactInputParams",
              "name": "params",
              "type": "tuple"
            },
            {
              "internalType": "address",
              "name": "tokenIn",
              "type": "address"
            },
            {
              "internalType": "address",
              "name": "tokenOut",
              "type": "address"
            }
          ],
          "internalType": "struct IColateralContract.SwapParams[]",
          "name": "swapsParams",
          "type": "tuple[]"
        }
      ],
      "name": "swapExactInputs",
      "outputs": [],
      "stateMutability": "nonpayable",
      "type": "function"
    },
    {
      "inputs": [
        {
          "internalType": "string",
          "name": "",
          "type": "string"
        }
      ],
      "name": "tokenAddress",
      "outputs": [
        {
          "internalType": "address",
          "name": "",
          "type": "address"
        }
      ],
      "stateMutability": "view",
      "type": "function"
    },
    {
      "inputs": [],
      "name": "version",
      "outputs": [
        {
          "internalType": "string",
          "name": "",
          "type": "string"
        }
      ],
      "stateMutability": "pure",
      "type": "function"
    },
    {
      "inputs": [
        {
          "internalType": "uint256",
          "name": "_amount",
          "type": "uint256"
        },
        {
          "internalType": "string",
          "name": "_tokenSymbol",
          "type": "string"
        }
      ],
      "name": "withdraw",
      "outputs": [],
      "stateMutability": "nonpayable",
      "type": "function"
    },
    {
      "inputs": [],
      "name": "withdrawWalletAddress",
      "outputs": [
        {
          "internalType": "address",
          "name": "",
          "type": "address"
        }
      ],
      "stateMutability": "view",
      "type": "function"
    }
  ],
  "bytecode": "0x60806040523480156200001157600080fd5b50620000226200002860201b60201c565b620001d2565b600060019054906101000a900460ff16156200007b576040517f08c379a0000000000000000000000000000000000000000000000000000000008152600401620000729062000175565b60405180910390fd5b60ff801660008054906101000a900460ff1660ff1614620000ec5760ff6000806101000a81548160ff021916908360ff1602179055507f7f26b83ff96e1f2b6a682f133852f6798a09c465da95921460cefb384740249860ff604051620000e39190620001b5565b60405180910390a15b565b600082825260208201905092915050565b7f496e697469616c697a61626c653a20636f6e747261637420697320696e69746960008201527f616c697a696e6700000000000000000000000000000000000000000000000000602082015250565b60006200015d602783620000ee565b91506200016a82620000ff565b604082019050919050565b6000602082019050818103600083015262000190816200014e565b9050919050565b600060ff82169050919050565b620001af8162000197565b82525050565b6000602082019050620001cc6000830184620001a4565b92915050565b61522d80620001e26000396000f3fe608060405234801561001057600080fd5b50600436106101ef5760003560e01c8063713725441161010f578063c54e44eb116100a2578063dc048cf211610071578063dc048cf2146105bc578063df668eca146105d8578063e5df800a146105f6578063e63ab1e914610614576101ef565b8063c54e44eb14610536578063ca15c87314610554578063d00411c914610584578063d547741f146105a0576101ef565b806391d14854116100de57806391d14854146104ac578063a217fddf146104dc578063a9da3cf2146104fa578063b14ec10114610518576101ef565b8063713725441461042257806383d333191461044057806389a302711461045e5780639010d07c1461047c576101ef565b80632ffe99421161018757806336568abe1161015657806336568abe1461039a5780634dede3de146103b657806354fd4d50146103d45780636e30199f146103f2576101ef565b80632ffe99421461031457806332cc815d14610330578063334347b71461034e57806335ee5f871461036a576101ef565b8063212f6039116101c3578063212f60391461027c578063248a9ca31461029857806325acc985146102c85780632f2ff15d146102f8576101ef565b8062113e08146101f457806301ffc9a7146102125780630828c4041461024257806315ac73581461025e575b600080fd5b6101fc610632565b6040516102099190613430565b60405180910390f35b61022c600480360381019061022791906134be565b610822565b6040516102399190613506565b60405180910390f35b61025c600480360381019061025791906135b2565b61089c565b005b6102666109b1565b6040516102739190613653565b60405180910390f35b6102966004803603810190610291919061369a565b6109d7565b005b6102b260048036038101906102ad91906136fd565b610ab5565b6040516102bf9190613739565b60405180910390f35b6102e260048036038101906102dd9190613754565b610ad5565b6040516102ef9190613739565b60405180910390f35b610312600480360381019061030d9190613781565b610af2565b005b61032e60048036038101906103299190613817565b610b13565b005b61033861139b565b6040516103459190613739565b60405180910390f35b61036860048036038101906103639190613886565b6113bf565b005b610384600480360381019061037f9190613abd565b611fb3565b6040516103919190613b15565b60405180910390f35b6103b460048036038101906103af9190613781565b612079565b005b6103be6120fc565b6040516103cb9190613baf565b60405180910390f35b6103dc612135565b6040516103e99190613baf565b60405180910390f35b61040c60048036038101906104079190613abd565b612172565b6040516104199190613653565b60405180910390f35b61042a6121bb565b6040516104379190613739565b60405180910390f35b6104486121df565b6040516104559190613b15565b60405180910390f35b6104666121f0565b6040516104739190613baf565b60405180910390f35b61049660048036038101906104919190613bd1565b612229565b6040516104a39190613653565b60405180910390f35b6104c660048036038101906104c19190613781565b612258565b6040516104d39190613506565b60405180910390f35b6104e46122c3565b6040516104f19190613739565b60405180910390f35b6105026122ca565b60405161050f9190613baf565b60405180910390f35b610520612303565b60405161052d9190613653565b60405180910390f35b61053e612329565b60405161054b9190613baf565b60405180910390f35b61056e600480360381019061056991906136fd565b612362565b60405161057b9190613b15565b60405180910390f35b61059e6004803603810190610599919061369a565b612386565b005b6105ba60048036038101906105b59190613781565b612464565b005b6105d660048036038101906105d191906135b2565b612485565b005b6105e0612591565b6040516105ed9190613739565b60405180910390f35b6105fe6125b5565b60405161060b9190613739565b60405180910390f35b61061c6125d9565b6040516106299190613739565b60405180910390f35b60606000600567ffffffffffffffff81111561065157610650613992565b5b60405190808252806020026020018201604052801561067f5781602001602082028036833780820191505090505b509050478160008151811061069757610696613c11565b5b6020026020010181815250506106e16040518060400160405280600481526020017f5553444300000000000000000000000000000000000000000000000000000000815250611fb3565b816001815181106106f5576106f4613c11565b5b60200260200101818152505061073f6040518060400160405280600481526020017f5553445400000000000000000000000000000000000000000000000000000000815250611fb3565b8160028151811061075357610752613c11565b5b60200260200101818152505061079d6040518060400160405280600481526020017f5553444d00000000000000000000000000000000000000000000000000000000815250611fb3565b816003815181106107b1576107b0613c11565b5b6020026020010181815250506107fb6040518060400160405280600481526020017f5742544300000000000000000000000000000000000000000000000000000000815250611fb3565b8160048151811061080f5761080e613c11565b5b6020026020010181815250508091505090565b60007f5a05180f000000000000000000000000000000000000000000000000000000007bffffffffffffffffffffffffffffffffffffffffffffffffffffffff1916827bffffffffffffffffffffffffffffffffffffffffffffffffffffffff191614806108955750610894826125fd565b5b9050919050565b7fbffb4faf8a508f503a2ca036effd0bc1f82615d3ebfddb934edf718f236727076108c681612677565b6108ce61268b565b61093b60fd84846040516108e3929190613c70565b908152602001604051809103902060009054906101000a900473ffffffffffffffffffffffffffffffffffffffff1660fe60009054906101000a900473ffffffffffffffffffffffffffffffffffffffff16866126da565b7f22cb89e6358014bb27f5658e2b820189f8f4c9e3f7165ecf266edc53be12d9fa610964612760565b84848760fe60009054906101000a900473ffffffffffffffffffffffffffffffffffffffff1660405161099b959493929190613cb6565b60405180910390a16109ab612768565b50505050565b60fe60009054906101000a900473ffffffffffffffffffffffffffffffffffffffff1681565b7ffaad79a708d82d095486f5a83b18341f12a8f717d3011ab929d43135c1af73e2610a0181612677565b600073ffffffffffffffffffffffffffffffffffffffff168273ffffffffffffffffffffffffffffffffffffffff1603610a70576040517f08c379a0000000000000000000000000000000000000000000000000000000008152600401610a6790613d50565b60405180910390fd5b8160ff60006101000a81548173ffffffffffffffffffffffffffffffffffffffff021916908373ffffffffffffffffffffffffffffffffffffffff1602179055505050565b600060656000838152602001908152602001600020600101549050919050565b6000610aeb8260fb61277290919063ffffffff16565b9050919050565b610afb82610ab5565b610b0481612677565b610b0e8383612789565b505050565b7fd2761b102bda9831f4af400cc824b8cecb9cc5c1c85c51acb1479db9735fbfc6610b3d81612677565b60005b838390508110156113955736848483818110610b5f57610b5e613c11565b5b9050602002810190610b719190613d75565b90503073ffffffffffffffffffffffffffffffffffffffff16818060000190610b9a9190613d9d565b6020016020810190610bac919061369a565b73ffffffffffffffffffffffffffffffffffffffff1614610c02576040517f08c379a0000000000000000000000000000000000000000000000000000000008152600401610bf990613e11565b60405180910390fd5b6000818060000190610c149190613d9d565b6080013511610c58576040517f08c379a0000000000000000000000000000000000000000000000000000000008152600401610c4f90613e7d565b60405180910390fd5b60fd604051610c6690613ee9565b908152602001604051809103902060009054906101000a900473ffffffffffffffffffffffffffffffffffffffff1673ffffffffffffffffffffffffffffffffffffffff16816040016020810190610cbe919061369a565b73ffffffffffffffffffffffffffffffffffffffff161480610d59575060fd604051610ce990613f4a565b908152602001604051809103902060009054906101000a900473ffffffffffffffffffffffffffffffffffffffff1673ffffffffffffffffffffffffffffffffffffffff16816040016020810190610d41919061369a565b73ffffffffffffffffffffffffffffffffffffffff16145b80610ddd575060fd604051610d6d90613fab565b908152602001604051809103902060009054906101000a900473ffffffffffffffffffffffffffffffffffffffff1673ffffffffffffffffffffffffffffffffffffffff16816040016020810190610dc5919061369a565b73ffffffffffffffffffffffffffffffffffffffff16145b610e1c576040517f08c379a0000000000000000000000000000000000000000000000000000000008152600401610e139061400c565b60405180910390fd5b6000816020016020810190610e31919061369a565b90506000828060000190610e459190613d9d565b60600135118015610ee257508073ffffffffffffffffffffffffffffffffffffffff166370a08231306040518263ffffffff1660e01b8152600401610e8a9190613653565b602060405180830381865afa158015610ea7573d6000803e3d6000fd5b505050506040513d601f19601f82011682018060405250810190610ecb9190614041565b828060000190610edb9190613d9d565b6060013511155b610f21576040517f08c379a0000000000000000000000000000000000000000000000000000000008152600401610f18906140ba565b60405180910390fd5b8073ffffffffffffffffffffffffffffffffffffffff1663095ea7b361010060009054906101000a900473ffffffffffffffffffffffffffffffffffffffff16848060000190610f719190613d9d565b606001356040518363ffffffff1660e01b8152600401610f929291906140da565b6020604051808303816000875af1158015610fb1573d6000803e3d6000fd5b505050506040513d601f19601f82011682018060405250810190610fd5919061412f565b611014576040517f08c379a000000000000000000000000000000000000000000000000000000000815260040161100b906141a8565b60405180910390fd5b61010060009054906101000a900473ffffffffffffffffffffffffffffffffffffffff1673ffffffffffffffffffffffffffffffffffffffff1663c04b8d598380600001906110639190613d9d565b6040518263ffffffff1660e01b815260040161107f9190614355565b6020604051808303816000875af19250505080156110bb57506040513d601f19601f820116820180604052508101906110b89190614041565b60015b611229576110c7614384565b806308c379a00361121857506110db6143a6565b806110e6575061121a565b7f48dbf1f65dc9fb918dcf47a87d0d7dbfe9cd78bcfaea409049ee36785201cb9183602001602081019061111a919061369a565b82604051611129929190614436565b60405180910390a18173ffffffffffffffffffffffffffffffffffffffff1663095ea7b361010060009054906101000a900473ffffffffffffffffffffffffffffffffffffffff1660006040518363ffffffff1660e01b81526004016111909291906144ab565b6020604051808303816000875af11580156111af573d6000803e3d6000fd5b505050506040513d601f19601f820116820180604052508101906111d3919061412f565b611212576040517f08c379a000000000000000000000000000000000000000000000000000000000815260040161120990614520565b60405180910390fd5b50611224565b505b3d6000803e3d6000fd5b611380565b7ffa2dda1cc1b86e41239702756b13effbc1a092b5c57e3ad320fbe4f3b13fe23583602001602081019061125d919061369a565b846040016020810190611270919061369a565b8580600001906112809190613d9d565b60600135846040516112959493929190614540565b60405180910390a18173ffffffffffffffffffffffffffffffffffffffff1663095ea7b361010060009054906101000a900473ffffffffffffffffffffffffffffffffffffffff1660006040518363ffffffff1660e01b81526004016112fc9291906144ab565b6020604051808303816000875af115801561131b573d6000803e3d6000fd5b505050506040513d601f19601f8201168201806040525081019061133f919061412f565b61137e576040517f08c379a000000000000000000000000000000000000000000000000000000000815260040161137590614520565b60405180910390fd5b505b5050808061138d906145b4565b915050610b40565b50505050565b7ffd37f88a14d7ed985885a1af8f2ad5b64dd7eb00ab89168649791632bb9bb4a681565b60008060019054906101000a900460ff161590508080156113f05750600160008054906101000a900460ff1660ff16105b8061141d57506113ff306127bd565b15801561141c5750600160008054906101000a900460ff1660ff16145b5b61145c576040517f08c379a00000000000000000000000000000000000000000000000000000000081526004016114539061466e565b60405180910390fd5b60016000806101000a81548160ff021916908360ff1602179055508015611499576001600060016101000a81548160ff0219169083151502179055505b600073ffffffffffffffffffffffffffffffffffffffff16886000600381106114c5576114c4613c11565b5b6020020160208101906114d8919061369a565b73ffffffffffffffffffffffffffffffffffffffff1614158061154e5750600073ffffffffffffffffffffffffffffffffffffffff168860016003811061152257611521613c11565b5b602002016020810190611535919061369a565b73ffffffffffffffffffffffffffffffffffffffff1614155b806115ac5750600073ffffffffffffffffffffffffffffffffffffffff16886002600381106115805761157f613c11565b5b602002016020810190611593919061369a565b73ffffffffffffffffffffffffffffffffffffffff1614155b6115eb576040517f08c379a00000000000000000000000000000000000000000000000000000000081526004016115e2906146da565b60405180910390fd5b600073ffffffffffffffffffffffffffffffffffffffff168773ffffffffffffffffffffffffffffffffffffffff160361165a576040517f08c379a000000000000000000000000000000000000000000000000000000000815260040161165190614746565b60405180910390fd5b600073ffffffffffffffffffffffffffffffffffffffff168673ffffffffffffffffffffffffffffffffffffffff16036116c9576040517f08c379a00000000000000000000000000000000000000000000000000000000081526004016116c0906147b2565b60405180910390fd5b600073ffffffffffffffffffffffffffffffffffffffff168573ffffffffffffffffffffffffffffffffffffffff1603611738576040517f08c379a000000000000000000000000000000000000000000000000000000000815260040161172f9061481e565b60405180910390fd5b600073ffffffffffffffffffffffffffffffffffffffff168473ffffffffffffffffffffffffffffffffffffffff16036117a7576040517f08c379a000000000000000000000000000000000000000000000000000000000815260040161179e9061488a565b60405180910390fd5b600073ffffffffffffffffffffffffffffffffffffffff168373ffffffffffffffffffffffffffffffffffffffff1603611816576040517f08c379a000000000000000000000000000000000000000000000000000000000815260040161180d906148f6565b60405180910390fd5b600073ffffffffffffffffffffffffffffffffffffffff168273ffffffffffffffffffffffffffffffffffffffff1603611885576040517f08c379a000000000000000000000000000000000000000000000000000000000815260040161187c90614962565b60405180910390fd5b61188d6127e0565b611895612831565b8b60fd6040518060400160405280600481526020017f55534443000000000000000000000000000000000000000000000000000000008152506040516118db91906149b3565b908152602001604051809103902060006101000a81548173ffffffffffffffffffffffffffffffffffffffff021916908373ffffffffffffffffffffffffffffffffffffffff1602179055508a60fd6040518060400160405280600481526020017f555344540000000000000000000000000000000000000000000000000000000081525060405161196d91906149b3565b908152602001604051809103902060006101000a81548173ffffffffffffffffffffffffffffffffffffffff021916908373ffffffffffffffffffffffffffffffffffffffff1602179055508960fd6040518060400160405280600481526020017f5553444d000000000000000000000000000000000000000000000000000000008152506040516119ff91906149b3565b908152602001604051809103902060006101000a81548173ffffffffffffffffffffffffffffffffffffffff021916908373ffffffffffffffffffffffffffffffffffffffff1602179055508860fd6040518060400160405280600481526020017f5742544300000000000000000000000000000000000000000000000000000000815250604051611a9191906149b3565b908152602001604051809103902060006101000a81548173ffffffffffffffffffffffffffffffffffffffff021916908373ffffffffffffffffffffffffffffffffffffffff1602179055508560ff60006101000a81548173ffffffffffffffffffffffffffffffffffffffff021916908373ffffffffffffffffffffffffffffffffffffffff1602179055508660fe60006101000a81548173ffffffffffffffffffffffffffffffffffffffff021916908373ffffffffffffffffffffffffffffffffffffffff1602179055508261010060006101000a81548173ffffffffffffffffffffffffffffffffffffffff021916908373ffffffffffffffffffffffffffffffffffffffff160217905550611bd57ffaad79a708d82d095486f5a83b18341f12a8f717d3011ab929d43135c1af73e260fb61288a90919063ffffffff16565b50611c0a7ffd37f88a14d7ed985885a1af8f2ad5b64dd7eb00ab89168649791632bb9bb4a660fb61288a90919063ffffffff16565b50611c3f7fbffb4faf8a508f503a2ca036effd0bc1f82615d3ebfddb934edf718f2367270760fb61288a90919063ffffffff16565b50611c747fd2761b102bda9831f4af400cc824b8cecb9cc5c1c85c51acb1479db9735fbfc660fb61288a90919063ffffffff16565b50611cc57ffaad79a708d82d095486f5a83b18341f12a8f717d3011ab929d43135c1af73e289600060038110611cad57611cac613c11565b5b602002016020810190611cc0919061369a565b612789565b611d157ffaad79a708d82d095486f5a83b18341f12a8f717d3011ab929d43135c1af73e289600160038110611cfd57611cfc613c11565b5b602002016020810190611d10919061369a565b612789565b611d657ffaad79a708d82d095486f5a83b18341f12a8f717d3011ab929d43135c1af73e289600260038110611d4d57611d4c613c11565b5b602002016020810190611d60919061369a565b612789565b611d8f7ffd37f88a14d7ed985885a1af8f2ad5b64dd7eb00ab89168649791632bb9bb4a686612789565b611db97ffd37f88a14d7ed985885a1af8f2ad5b64dd7eb00ab89168649791632bb9bb4a685612789565b611de37fbffb4faf8a508f503a2ca036effd0bc1f82615d3ebfddb934edf718f2367270786612789565b611e0d7fbffb4faf8a508f503a2ca036effd0bc1f82615d3ebfddb934edf718f2367270785612789565b611e377fd2761b102bda9831f4af400cc824b8cecb9cc5c1c85c51acb1479db9735fbfc683612789565b611e617ffaad79a708d82d095486f5a83b18341f12a8f717d3011ab929d43135c1af73e2806128a1565b611e8b7ffd37f88a14d7ed985885a1af8f2ad5b64dd7eb00ab89168649791632bb9bb4a6806128a1565b611eb57fbffb4faf8a508f503a2ca036effd0bc1f82615d3ebfddb934edf718f23672707806128a1565b611eff7fd2761b102bda9831f4af400cc824b8cecb9cc5c1c85c51acb1479db9735fbfc67ffaad79a708d82d095486f5a83b18341f12a8f717d3011ab929d43135c1af73e26128a1565b7fb01aaefdfa9c6d0ab739180ad32400c96c77b263f5e065d3af1002f36219cfeb338d8d8d8d8d8d8d8d8d8d8d604051611f449c9b9a99989796959493929190614a6e565b60405180910390a18015611fa55760008060016101000a81548160ff0219169083151502179055507f7f26b83ff96e1f2b6a682f133852f6798a09c465da95921460cefb38474024986001604051611f9c9190614b72565b60405180910390a15b505050505050505050505050565b60008060fd83604051611fc691906149b3565b908152602001604051809103902060009054906101000a900473ffffffffffffffffffffffffffffffffffffffff1690508073ffffffffffffffffffffffffffffffffffffffff166370a08231306040518263ffffffff1660e01b81526004016120309190613653565b602060405180830381865afa15801561204d573d6000803e3d6000fd5b505050506040513d601f19601f820116820180604052508101906120719190614041565b915050919050565b612081612760565b73ffffffffffffffffffffffffffffffffffffffff168173ffffffffffffffffffffffffffffffffffffffff16146120ee576040517f08c379a00000000000000000000000000000000000000000000000000000000081526004016120e590614bff565b60405180910390fd5b6120f882826128fd565b5050565b6040518060400160405280600481526020017f574254430000000000000000000000000000000000000000000000000000000081525081565b60606040518060400160405280600581526020017f312e312e30000000000000000000000000000000000000000000000000000000815250905090565b60fd818051602081018201805184825260208301602085012081835280955050505050506000915054906101000a900473ffffffffffffffffffffffffffffffffffffffff1681565b7fbffb4faf8a508f503a2ca036effd0bc1f82615d3ebfddb934edf718f2367270781565b60006121eb60fb612931565b905090565b6040518060400160405280600481526020017f555344430000000000000000000000000000000000000000000000000000000081525081565b6000612250826097600086815260200190815260200160002061294690919063ffffffff16565b905092915050565b60006065600084815260200190815260200160002060000160008373ffffffffffffffffffffffffffffffffffffffff1673ffffffffffffffffffffffffffffffffffffffff16815260200190815260200160002060009054906101000a900460ff16905092915050565b6000801b81565b6040518060400160405280600481526020017f5553444d0000000000000000000000000000000000000000000000000000000081525081565b60ff60009054906101000a900473ffffffffffffffffffffffffffffffffffffffff1681565b6040518060400160405280600481526020017f555344540000000000000000000000000000000000000000000000000000000081525081565b600061237f60976000848152602001908152602001600020612960565b9050919050565b7ffaad79a708d82d095486f5a83b18341f12a8f717d3011ab929d43135c1af73e26123b081612677565b600073ffffffffffffffffffffffffffffffffffffffff168273ffffffffffffffffffffffffffffffffffffffff160361241f576040517f08c379a000000000000000000000000000000000000000000000000000000000815260040161241690614c6b565b60405180910390fd5b8160fe60006101000a81548173ffffffffffffffffffffffffffffffffffffffff021916908373ffffffffffffffffffffffffffffffffffffffff1602179055505050565b61246d82610ab5565b61247681612677565b61248083836128fd565b505050565b7ffd37f88a14d7ed985885a1af8f2ad5b64dd7eb00ab89168649791632bb9bb4a66124af81612677565b6124b761268b565b61252460fd84846040516124cc929190613c70565b908152602001604051809103902060009054906101000a900473ffffffffffffffffffffffffffffffffffffffff1660ff60009054906101000a900473ffffffffffffffffffffffffffffffffffffffff16866126da565b7f901c03da5d88eb3d62ab4617e7b7d17d86db16356823a7971127d5181a842fef60ff60009054906101000a900473ffffffffffffffffffffffffffffffffffffffff1684848760405161257b9493929190614c8b565b60405180910390a161258b612768565b50505050565b7fd2761b102bda9831f4af400cc824b8cecb9cc5c1c85c51acb1479db9735fbfc681565b7ffaad79a708d82d095486f5a83b18341f12a8f717d3011ab929d43135c1af73e281565b7f539440820030c4994db4e31b6b800deafd503688728f932addfe7a410515c14c81565b60007f7965db0b000000000000000000000000000000000000000000000000000000007bffffffffffffffffffffffffffffffffffffffffffffffffffffffff1916827bffffffffffffffffffffffffffffffffffffffffffffffffffffffff19161480612670575061266f82612975565b5b9050919050565b61268881612683612760565b6129df565b50565b600260c954036126d0576040517f08c379a00000000000000000000000000000000000000000000000000000000081526004016126c790614d17565b60405180910390fd5b600260c981905550565b61275b8363a9059cbb60e01b84846040516024016126f99291906140da565b604051602081830303815290604052907bffffffffffffffffffffffffffffffffffffffffffffffffffffffff19166020820180517bffffffffffffffffffffffffffffffffffffffffffffffffffffffff8381831617835250505050612a64565b505050565b600033905090565b600160c981905550565b60006127818360000183612b2c565b905092915050565b6127938282612b57565b6127b88160976000858152602001908152602001600020612c3890919063ffffffff16565b505050565b6000808273ffffffffffffffffffffffffffffffffffffffff163b119050919050565b600060019054906101000a900460ff1661282f576040517f08c379a000000000000000000000000000000000000000000000000000000000815260040161282690614da9565b60405180910390fd5b565b600060019054906101000a900460ff16612880576040517f08c379a000000000000000000000000000000000000000000000000000000000815260040161287790614da9565b60405180910390fd5b600160c981905550565b60006128998360000183612c68565b905092915050565b60006128ac83610ab5565b90508160656000858152602001908152602001600020600101819055508181847fbd79b86ffe0ab8e8776151514217cd7cacd52c909f66475c3af44e129f0b00ff60405160405180910390a4505050565b6129078282612cd8565b61292c8160976000858152602001908152602001600020612dba90919063ffffffff16565b505050565b600061293f82600001612dea565b9050919050565b60006129558360000183612b2c565b60001c905092915050565b600061296e82600001612dea565b9050919050565b60007f01ffc9a7000000000000000000000000000000000000000000000000000000007bffffffffffffffffffffffffffffffffffffffffffffffffffffffff1916827bffffffffffffffffffffffffffffffffffffffffffffffffffffffff1916149050919050565b6129e98282612258565b612a60576129f681612dfb565b612a048360001c6020612e28565b604051602001612a15929190614e61565b6040516020818303038152906040526040517f08c379a0000000000000000000000000000000000000000000000000000000008152600401612a579190613baf565b60405180910390fd5b5050565b6000612ac6826040518060400160405280602081526020017f5361666545524332303a206c6f772d6c6576656c2063616c6c206661696c65648152508573ffffffffffffffffffffffffffffffffffffffff166130649092919063ffffffff16565b9050600081511480612ae8575080806020019051810190612ae7919061412f565b5b612b27576040517f08c379a0000000000000000000000000000000000000000000000000000000008152600401612b1e90614f0d565b60405180910390fd5b505050565b6000826000018281548110612b4457612b43613c11565b5b9060005260206000200154905092915050565b612b618282612258565b612c345760016065600084815260200190815260200160002060000160008373ffffffffffffffffffffffffffffffffffffffff1673ffffffffffffffffffffffffffffffffffffffff16815260200190815260200160002060006101000a81548160ff021916908315150217905550612bd9612760565b73ffffffffffffffffffffffffffffffffffffffff168173ffffffffffffffffffffffffffffffffffffffff16837f2f8788117e7eff1d82e926ec794901d17c78024a50270940304540a733656f0d60405160405180910390a45b5050565b6000612c60836000018373ffffffffffffffffffffffffffffffffffffffff1660001b612c68565b905092915050565b6000612c74838361307c565b612ccd578260000182908060018154018082558091505060019003906000526020600020016000909190919091505582600001805490508360010160008481526020019081526020016000208190555060019050612cd2565b600090505b92915050565b612ce28282612258565b15612db65760006065600084815260200190815260200160002060000160008373ffffffffffffffffffffffffffffffffffffffff1673ffffffffffffffffffffffffffffffffffffffff16815260200190815260200160002060006101000a81548160ff021916908315150217905550612d5b612760565b73ffffffffffffffffffffffffffffffffffffffff168173ffffffffffffffffffffffffffffffffffffffff16837ff6391f5c32d9c69d2a47ea670b442974b53935d1edc7fd64eb21e047a839171b60405160405180910390a45b5050565b6000612de2836000018373ffffffffffffffffffffffffffffffffffffffff1660001b61309f565b905092915050565b600081600001805490509050919050565b6060612e218273ffffffffffffffffffffffffffffffffffffffff16601460ff16612e28565b9050919050565b606060006002836002612e3b9190614f2d565b612e459190614f6f565b67ffffffffffffffff811115612e5e57612e5d613992565b5b6040519080825280601f01601f191660200182016040528015612e905781602001600182028036833780820191505090505b5090507f300000000000000000000000000000000000000000000000000000000000000081600081518110612ec857612ec7613c11565b5b60200101907effffffffffffffffffffffffffffffffffffffffffffffffffffffffffffff1916908160001a9053507f780000000000000000000000000000000000000000000000000000000000000081600181518110612f2c57612f2b613c11565b5b60200101907effffffffffffffffffffffffffffffffffffffffffffffffffffffffffffff1916908160001a90535060006001846002612f6c9190614f2d565b612f769190614f6f565b90505b6001811115613016577f3031323334353637383961626364656600000000000000000000000000000000600f861660108110612fb857612fb7613c11565b5b1a60f81b828281518110612fcf57612fce613c11565b5b60200101907effffffffffffffffffffffffffffffffffffffffffffffffffffffffffffff1916908160001a905350600485901c94508061300f90614fa3565b9050612f79565b506000841461305a576040517f08c379a000000000000000000000000000000000000000000000000000000000815260040161305190615018565b60405180910390fd5b8091505092915050565b606061307384846000856131b3565b90509392505050565b600080836001016000848152602001908152602001600020541415905092915050565b600080836001016000848152602001908152602001600020549050600081146131a75760006001826130d19190615038565b90506000600186600001805490506130e99190615038565b905081811461315857600086600001828154811061310a57613109613c11565b5b906000526020600020015490508087600001848154811061312e5761312d613c11565b5b90600052602060002001819055508387600101600083815260200190815260200160002081905550505b8560000180548061316c5761316b61506c565b5b6001900381819060005260206000200160009055905585600101600086815260200190815260200160002060009055600193505050506131ad565b60009150505b92915050565b6060824710156131f8576040517f08c379a00000000000000000000000000000000000000000000000000000000081526004016131ef9061510d565b60405180910390fd5b6000808673ffffffffffffffffffffffffffffffffffffffff1685876040516132219190615174565b60006040518083038185875af1925050503d806000811461325e576040519150601f19603f3d011682016040523d82523d6000602084013e613263565b606091505b509150915061327487838387613280565b92505050949350505050565b606083156132e25760008351036132da5761329a856132f5565b6132d9576040517f08c379a00000000000000000000000000000000000000000000000000000000081526004016132d0906151d7565b60405180910390fd5b5b8290506132ed565b6132ec8383613318565b5b949350505050565b6000808273ffffffffffffffffffffffffffffffffffffffff163b119050919050565b60008251111561332b5781518083602001fd5b806040517f08c379a000000000000000000000000000000000000000000000000000000000815260040161335f9190613baf565b60405180910390fd5b600081519050919050565b600082825260208201905092915050565b6000819050602082019050919050565b6000819050919050565b6133a781613394565b82525050565b60006133b9838361339e565b60208301905092915050565b6000602082019050919050565b60006133dd82613368565b6133e78185613373565b93506133f283613384565b8060005b8381101561342357815161340a88826133ad565b9750613415836133c5565b9250506001810190506133f6565b5085935050505092915050565b6000602082019050818103600083015261344a81846133d2565b905092915050565b6000604051905090565b600080fd5b600080fd5b60007fffffffff0000000000000000000000000000000000000000000000000000000082169050919050565b61349b81613466565b81146134a657600080fd5b50565b6000813590506134b881613492565b92915050565b6000602082840312156134d4576134d361345c565b5b60006134e2848285016134a9565b91505092915050565b60008115159050919050565b613500816134eb565b82525050565b600060208201905061351b60008301846134f7565b92915050565b61352a81613394565b811461353557600080fd5b50565b60008135905061354781613521565b92915050565b600080fd5b600080fd5b600080fd5b60008083601f8401126135725761357161354d565b5b8235905067ffffffffffffffff81111561358f5761358e613552565b5b6020830191508360018202830111156135ab576135aa613557565b5b9250929050565b6000806000604084860312156135cb576135ca61345c565b5b60006135d986828701613538565b935050602084013567ffffffffffffffff8111156135fa576135f9613461565b5b6136068682870161355c565b92509250509250925092565b600073ffffffffffffffffffffffffffffffffffffffff82169050919050565b600061363d82613612565b9050919050565b61364d81613632565b82525050565b60006020820190506136686000830184613644565b92915050565b61367781613632565b811461368257600080fd5b50565b6000813590506136948161366e565b92915050565b6000602082840312156136b0576136af61345c565b5b60006136be84828501613685565b91505092915050565b6000819050919050565b6136da816136c7565b81146136e557600080fd5b50565b6000813590506136f7816136d1565b92915050565b6000602082840312156137135761371261345c565b5b6000613721848285016136e8565b91505092915050565b613733816136c7565b82525050565b600060208201905061374e600083018461372a565b92915050565b60006020828403121561376a5761376961345c565b5b600061377884828501613538565b91505092915050565b600080604083850312156137985761379761345c565b5b60006137a6858286016136e8565b92505060206137b785828601613685565b9150509250929050565b60008083601f8401126137d7576137d661354d565b5b8235905067ffffffffffffffff8111156137f4576137f3613552565b5b6020830191508360208202830111156138105761380f613557565b5b9250929050565b6000806020838503121561382e5761382d61345c565b5b600083013567ffffffffffffffff81111561384c5761384b613461565b5b613858858286016137c1565b92509250509250929050565b6000819050826020600302820111156138805761387f613557565b5b92915050565b60008060008060008060008060008060006101a08c8e0312156138ac576138ab61345c565b5b60006138ba8e828f01613685565b9b505060206138cb8e828f01613685565b9a505060406138dc8e828f01613685565b99505060606138ed8e828f01613685565b98505060806138fe8e828f01613864565b97505060e061390f8e828f01613685565b9650506101006139218e828f01613685565b9550506101206139338e828f01613685565b9450506101406139458e828f01613685565b9350506101606139578e828f01613685565b9250506101806139698e828f01613685565b9150509295989b509295989b9093969950565b600080fd5b6000601f19601f8301169050919050565b7f4e487b7100000000000000000000000000000000000000000000000000000000600052604160045260246000fd5b6139ca82613981565b810181811067ffffffffffffffff821117156139e9576139e8613992565b5b80604052505050565b60006139fc613452565b9050613a0882826139c1565b919050565b600067ffffffffffffffff821115613a2857613a27613992565b5b613a3182613981565b9050602081019050919050565b82818337600083830152505050565b6000613a60613a5b84613a0d565b6139f2565b905082815260208101848484011115613a7c57613a7b61397c565b5b613a87848285613a3e565b509392505050565b600082601f830112613aa457613aa361354d565b5b8135613ab4848260208601613a4d565b91505092915050565b600060208284031215613ad357613ad261345c565b5b600082013567ffffffffffffffff811115613af157613af0613461565b5b613afd84828501613a8f565b91505092915050565b613b0f81613394565b82525050565b6000602082019050613b2a6000830184613b06565b92915050565b600081519050919050565b600082825260208201905092915050565b60005b83811015613b6a578082015181840152602081019050613b4f565b60008484015250505050565b6000613b8182613b30565b613b8b8185613b3b565b9350613b9b818560208601613b4c565b613ba481613981565b840191505092915050565b60006020820190508181036000830152613bc98184613b76565b905092915050565b60008060408385031215613be857613be761345c565b5b6000613bf6858286016136e8565b9250506020613c0785828601613538565b9150509250929050565b7f4e487b7100000000000000000000000000000000000000000000000000000000600052603260045260246000fd5b600081905092915050565b6000613c578385613c40565b9350613c64838584613a3e565b82840190509392505050565b6000613c7d828486613c4b565b91508190509392505050565b6000613c958385613b3b565b9350613ca2838584613a3e565b613cab83613981565b840190509392505050565b6000608082019050613ccb6000830188613644565b8181036020830152613cde818688613c89565b9050613ced6040830185613b06565b613cfa6060830184613644565b9695505050505050565b7f5769746864726177304164647200000000000000000000000000000000000000600082015250565b6000613d3a600d83613b3b565b9150613d4582613d04565b602082019050919050565b60006020820190508181036000830152613d6981613d2d565b9050919050565b600080fd5b600082356001606003833603038112613d9157613d90613d70565b5b80830191505092915050565b60008235600160a003833603038112613db957613db8613d70565b5b80830191505092915050565b7f45727220726563697069656e7400000000000000000000000000000000000000600082015250565b6000613dfb600d83613b3b565b9150613e0682613dc5565b602082019050919050565b60006020820190508181036000830152613e2a81613dee565b9050919050565b7f45727220536c6970700000000000000000000000000000000000000000000000600082015250565b6000613e67600983613b3b565b9150613e7282613e31565b602082019050919050565b60006020820190508181036000830152613e9681613e5a565b9050919050565b7f5553444300000000000000000000000000000000000000000000000000000000600082015250565b6000613ed3600483613c40565b9150613ede82613e9d565b600482019050919050565b6000613ef482613ec6565b9150819050919050565b7f5553445400000000000000000000000000000000000000000000000000000000600082015250565b6000613f34600483613c40565b9150613f3f82613efe565b600482019050919050565b6000613f5582613f27565b9150819050919050565b7f5553444d00000000000000000000000000000000000000000000000000000000600082015250565b6000613f95600483613c40565b9150613fa082613f5f565b600482019050919050565b6000613fb682613f88565b9150819050919050565b7f45727220546f6b656e4f75740000000000000000000000000000000000000000600082015250565b6000613ff6600c83613b3b565b915061400182613fc0565b602082019050919050565b6000602082019050818103600083015261402581613fe9565b9050919050565b60008151905061403b81613521565b92915050565b6000602082840312156140575761405661345c565b5b60006140658482850161402c565b91505092915050565b7f45727220416d6f756e74496e0000000000000000000000000000000000000000600082015250565b60006140a4600c83613b3b565b91506140af8261406e565b602082019050919050565b600060208201905081810360008301526140d381614097565b9050919050565b60006040820190506140ef6000830185613644565b6140fc6020830184613b06565b9392505050565b61410c816134eb565b811461411757600080fd5b50565b60008151905061412981614103565b92915050565b6000602082840312156141455761414461345c565b5b60006141538482850161411a565b91505092915050565b7f45727220417070726f76616c0000000000000000000000000000000000000000600082015250565b6000614192600c83613b3b565b915061419d8261415c565b602082019050919050565b600060208201905081810360008301526141c181614185565b9050919050565b600080fd5b600080fd5b600080fd5b600080833560016020038436030381126141f4576141f36141d2565b5b83810192508235915060208301925067ffffffffffffffff82111561421c5761421b6141c8565b5b600182023603831315614232576142316141cd565b5b509250929050565b600082825260208201905092915050565b6000614257838561423a565b9350614264838584613a3e565b61426d83613981565b840190509392505050565b60006142876020840184613685565b905092915050565b61429881613632565b82525050565b60006142ad6020840184613538565b905092915050565b600060a083016142c860008401846141d7565b85830360008701526142db83828461424b565b925050506142ec6020840184614278565b6142f9602086018261428f565b50614307604084018461429e565b614314604086018261339e565b50614322606084018461429e565b61432f606086018261339e565b5061433d608084018461429e565b61434a608086018261339e565b508091505092915050565b6000602082019050818103600083015261436f81846142b5565b905092915050565b60008160e01c9050919050565b600060033d11156143a35760046000803e6143a0600051614377565b90505b90565b600060443d10614433576143b8613452565b60043d036004823e80513d602482011167ffffffffffffffff821117156143e0575050614433565b808201805167ffffffffffffffff8111156143fe5750505050614433565b80602083010160043d03850181111561441b575050505050614433565b61442a826020018501866139c1565b82955050505050505b90565b600060408201905061444b6000830185613644565b818103602083015261445d8184613b76565b90509392505050565b6000819050919050565b6000819050919050565b600061449561449061448b84614466565b614470565b613394565b9050919050565b6144a58161447a565b82525050565b60006040820190506144c06000830185613644565b6144cd602083018461449c565b9392505050565b7f45727220417070726f76616c3000000000000000000000000000000000000000600082015250565b600061450a600d83613b3b565b9150614515826144d4565b602082019050919050565b60006020820190508181036000830152614539816144fd565b9050919050565b60006080820190506145556000830187613644565b6145626020830186613644565b61456f6040830185613b06565b61457c6060830184613b06565b95945050505050565b7f4e487b7100000000000000000000000000000000000000000000000000000000600052601160045260246000fd5b60006145bf82613394565b91507fffffffffffffffffffffffffffffffffffffffffffffffffffffffffffffffff82036145f1576145f0614585565b5b600182019050919050565b7f496e697469616c697a61626c653a20636f6e747261637420697320616c72656160008201527f647920696e697469616c697a6564000000000000000000000000000000000000602082015250565b6000614658602e83613b3b565b9150614663826145fc565b604082019050919050565b600060208201905081810360008301526146878161464b565b9050919050565b7f41646d696e416464720000000000000000000000000000000000000000000000600082015250565b60006146c4600983613b3b565b91506146cf8261468e565b602082019050919050565b600060208201905081810360008301526146f3816146b7565b9050919050565b7f5265736375654164647200000000000000000000000000000000000000000000600082015250565b6000614730600a83613b3b565b915061473b826146fa565b602082019050919050565b6000602082019050818103600083015261475f81614723565b9050919050565b7f5769746864726177416464720000000000000000000000000000000000000000600082015250565b600061479c600c83613b3b565b91506147a782614766565b602082019050919050565b600060208201905081810360008301526147cb8161478f565b9050919050565b7f46697273744c656e6465724c6971416464720000000000000000000000000000600082015250565b6000614808601283613b3b565b9150614813826147d2565b602082019050919050565b60006020820190508181036000830152614837816147fb565b9050919050565b7f5365636f6e644c656e6465724c69714164647200000000000000000000000000600082015250565b6000614874601383613b3b565b915061487f8261483e565b602082019050919050565b600060208201905081810360008301526148a381614867565b9050919050565b7f53776170526f7574657241646472000000000000000000000000000000000000600082015250565b60006148e0600e83613b3b565b91506148eb826148aa565b602082019050919050565b6000602082019050818103600083015261490f816148d3565b9050919050565b7f5377617070657241646472000000000000000000000000000000000000000000600082015250565b600061494c600b83613b3b565b915061495782614916565b602082019050919050565b6000602082019050818103600083015261497b8161493f565b9050919050565b600061498d82613b30565b6149978185613c40565b93506149a7818560208601613b4c565b80840191505092915050565b60006149bf8284614982565b915081905092915050565b600060039050919050565b600081905092915050565b6000819050919050565b60006149f6838361428f565b60208301905092915050565b6000602082019050919050565b614a18816149ca565b614a2281846149d5565b9250614a2d826149e0565b8060005b83811015614a6657614a438284614278565b614a4d87826149ea565b9650614a5883614a02565b925050600181019050614a31565b505050505050565b60006101c082019050614a84600083018f613644565b614a91602083018e613644565b614a9e604083018d613644565b614aab606083018c613644565b614ab8608083018b613644565b614ac560a083018a614a0f565b614ad3610100830189613644565b614ae1610120830188613644565b614aef610140830187613644565b614afd610160830186613644565b614b0b610180830185613644565b614b196101a0830184613644565b9d9c50505050505050505050505050565b6000819050919050565b600060ff82169050919050565b6000614b5c614b57614b5284614b2a565b614470565b614b34565b9050919050565b614b6c81614b41565b82525050565b6000602082019050614b876000830184614b63565b92915050565b7f416363657373436f6e74726f6c3a2063616e206f6e6c792072656e6f756e636560008201527f20726f6c657320666f722073656c660000000000000000000000000000000000602082015250565b6000614be9602f83613b3b565b9150614bf482614b8d565b604082019050919050565b60006020820190508181036000830152614c1881614bdc565b9050919050565b7f5265736375653041646472000000000000000000000000000000000000000000600082015250565b6000614c55600b83613b3b565b9150614c6082614c1f565b602082019050919050565b60006020820190508181036000830152614c8481614c48565b9050919050565b6000606082019050614ca06000830187613644565b8181036020830152614cb3818587613c89565b9050614cc26040830184613b06565b95945050505050565b7f5265656e7472616e637947756172643a207265656e7472616e742063616c6c00600082015250565b6000614d01601f83613b3b565b9150614d0c82614ccb565b602082019050919050565b60006020820190508181036000830152614d3081614cf4565b9050919050565b7f496e697469616c697a61626c653a20636f6e7472616374206973206e6f74206960008201527f6e697469616c697a696e67000000000000000000000000000000000000000000602082015250565b6000614d93602b83613b3b565b9150614d9e82614d37565b604082019050919050565b60006020820190508181036000830152614dc281614d86565b9050919050565b7f416363657373436f6e74726f6c3a206163636f756e7420000000000000000000600082015250565b6000614dff601783613c40565b9150614e0a82614dc9565b601782019050919050565b7f206973206d697373696e6720726f6c6520000000000000000000000000000000600082015250565b6000614e4b601183613c40565b9150614e5682614e15565b601182019050919050565b6000614e6c82614df2565b9150614e788285614982565b9150614e8382614e3e565b9150614e8f8284614982565b91508190509392505050565b7f5361666545524332303a204552433230206f7065726174696f6e20646964206e60008201527f6f74207375636365656400000000000000000000000000000000000000000000602082015250565b6000614ef7602a83613b3b565b9150614f0282614e9b565b604082019050919050565b60006020820190508181036000830152614f2681614eea565b9050919050565b6000614f3882613394565b9150614f4383613394565b9250828202614f5181613394565b91508282048414831517614f6857614f67614585565b5b5092915050565b6000614f7a82613394565b9150614f8583613394565b9250828201905080821115614f9d57614f9c614585565b5b92915050565b6000614fae82613394565b915060008203614fc157614fc0614585565b5b600182039050919050565b7f537472696e67733a20686578206c656e67746820696e73756666696369656e74600082015250565b6000615002602083613b3b565b915061500d82614fcc565b602082019050919050565b6000602082019050818103600083015261503181614ff5565b9050919050565b600061504382613394565b915061504e83613394565b925082820390508181111561506657615065614585565b5b92915050565b7f4e487b7100000000000000000000000000000000000000000000000000000000600052603160045260246000fd5b7f416464726573733a20696e73756666696369656e742062616c616e636520666f60008201527f722063616c6c0000000000000000000000000000000000000000000000000000602082015250565b60006150f7602683613b3b565b91506151028261509b565b604082019050919050565b60006020820190508181036000830152615126816150ea565b9050919050565b600081519050919050565b600081905092915050565b600061514e8261512d565b6151588185615138565b9350615168818560208601613b4c565b80840191505092915050565b60006151808284615143565b915081905092915050565b7f416464726573733a2063616c6c20746f206e6f6e2d636f6e7472616374000000600082015250565b60006151c1601d83613b3b565b91506151cc8261518b565b602082019050919050565b600060208201905081810360008301526151f0816151b4565b905091905056fea2646970667358221220691cb3d54c238cba65416ac375ca97893681a188e316e5d923fa55626e79e4bc64736f6c63430008120033",
  "linkReferences": {},
  "deployedLinkReferences": {}
}