{
  "_format": "hh-sol-artifact-1",
  "contractName": "ColateralContract",
  "sourceName": "contracts/ColateralContract.sol",
  "abi": [
    {
      "inputs": [],
      "stateMutability": "nonpayable",
      "type": "constructor"
    },
    {
      "anonymous": false,
      "inputs": [
        {
          "indexed": false,
          "internalType": "address",
          "name": "sender",
          "type": "address"
        },
        {
          "indexed": false,
          "internalType": "address",
          "name": "usdcTokenAddress",
          "type": "address"
        },
        {
          "indexed": false,
          "internalType": "address",
          "name": "usdtTokenAddress",
          "type": "address"
        },
        {
          "indexed": false,
          "internalType": "address",
          "name": "wbtcTokenAddress",
          "type": "address"
        },
        {
          "indexed": false,
          "internalType": "address",
          "name": "wethTokenAddress",
          "type": "address"
        },
        {
          "indexed": false,
          "internalType": "address[3]",
          "name": "admins",
          "type": "address[3]"
        },
        {
          "indexed": false,
          "internalType": "address",
          "name": "rescueWalletAddress",
          "type": "address"
        },
        {
          "indexed": false,
          "internalType": "address",
          "name": "withdrawWalletAddress",
          "type": "address"
        },
        {
          "indexed": false,
          "internalType": "address",
          "name": "firstlenderLiq",
          "type": "address"
        },
        {
          "indexed": false,
          "internalType": "address",
          "name": "secondLenderLiq",
          "type": "address"
        },
        {
          "indexed": false,
          "internalType": "address",
          "name": "swapRouterAddress",
          "type": "address"
        },
        {
          "indexed": false,
          "internalType": "address",
          "name": "swapper",
          "type": "address"
        }
      ],
      "name": "Initialize",
      "type": "event"
    },
    {
      "anonymous": false,
      "inputs": [
        {
          "indexed": false,
          "internalType": "uint8",
          "name": "version",
          "type": "uint8"
        }
      ],
      "name": "Initialized",
      "type": "event"
    },
    {
      "anonymous": false,
      "inputs": [
        {
          "indexed": false,
          "internalType": "address",
          "name": "sender",
          "type": "address"
        },
        {
          "indexed": false,
          "internalType": "string",
          "name": "token",
          "type": "string"
        },
        {
          "indexed": false,
          "internalType": "uint256",
          "name": "amount",
          "type": "uint256"
        },
        {
          "indexed": false,
          "internalType": "address",
          "name": "to",
          "type": "address"
        }
      ],
      "name": "Rescue",
      "type": "event"
    },
    {
      "anonymous": false,
      "inputs": [
        {
          "indexed": true,
          "internalType": "bytes32",
          "name": "role",
          "type": "bytes32"
        },
        {
          "indexed": true,
          "internalType": "bytes32",
          "name": "previousAdminRole",
          "type": "bytes32"
        },
        {
          "indexed": true,
          "internalType": "bytes32",
          "name": "newAdminRole",
          "type": "bytes32"
        }
      ],
      "name": "RoleAdminChanged",
      "type": "event"
    },
    {
      "anonymous": false,
      "inputs": [
        {
          "indexed": true,
          "internalType": "bytes32",
          "name": "role",
          "type": "bytes32"
        },
        {
          "indexed": true,
          "internalType": "address",
          "name": "account",
          "type": "address"
        },
        {
          "indexed": true,
          "internalType": "address",
          "name": "sender",
          "type": "address"
        }
      ],
      "name": "RoleGranted",
      "type": "event"
    },
    {
      "anonymous": false,
      "inputs": [
        {
          "indexed": true,
          "internalType": "bytes32",
          "name": "role",
          "type": "bytes32"
        },
        {
          "indexed": true,
          "internalType": "address",
          "name": "account",
          "type": "address"
        },
        {
          "indexed": true,
          "internalType": "address",
          "name": "sender",
          "type": "address"
        }
      ],
      "name": "RoleRevoked",
      "type": "event"
    },
    {
      "anonymous": false,
      "inputs": [
        {
          "indexed": false,
          "internalType": "address",
          "name": "tokenIn",
          "type": "address"
        },
        {
          "indexed": false,
          "internalType": "address",
          "name": "tokenOut",
          "type": "address"
        },
        {
          "indexed": false,
          "internalType": "uint256",
          "name": "amountIn",
          "type": "uint256"
        },
        {
          "indexed": false,
          "internalType": "uint256",
          "name": "amountOut",
          "type": "uint256"
        }
      ],
      "name": "Swap",
      "type": "event"
    },
    {
      "anonymous": false,
      "inputs": [
        {
          "indexed": false,
          "internalType": "address",
          "name": "tokenIn",
          "type": "address"
        },
        {
          "indexed": false,
          "internalType": "string",
          "name": "msg",
          "type": "string"
        }
      ],
      "name": "SwapError",
      "type": "event"
    },
    {
      "anonymous": false,
      "inputs": [
        {
          "indexed": false,
          "internalType": "address",
          "name": "sender",
          "type": "address"
        },
        {
          "indexed": false,
          "internalType": "string",
          "name": "token",
          "type": "string"
        },
        {
          "indexed": false,
          "internalType": "address",
          "name": "oldTokenAddress",
          "type": "address"
        },
        {
          "indexed": false,
          "internalType": "address",
          "name": "newTokenAddress",
          "type": "address"
        }
      ],
      "name": "TokenAddressChange",
      "type": "event"
    },
    {
      "anonymous": false,
      "inputs": [
        {
          "indexed": false,
          "internalType": "address",
          "name": "sender",
          "type": "address"
        },
        {
          "indexed": false,
          "internalType": "string",
          "name": "token",
          "type": "string"
        },
        {
          "indexed": false,
          "internalType": "uint256",
          "name": "amount",
          "type": "uint256"
        }
      ],
      "name": "Withdraw",
      "type": "event"
    },
    {
      "anonymous": false,
      "inputs": [
        {
          "indexed": false,
          "internalType": "address",
          "name": "sender",
          "type": "address"
        },
        {
          "indexed": false,
          "internalType": "string",
          "name": "token",
          "type": "string"
        },
        {
          "indexed": false,
          "internalType": "uint256",
          "name": "oldWithdrawalLimit",
          "type": "uint256"
        },
        {
          "indexed": false,
          "internalType": "uint256",
          "name": "newWithdrawalLimit",
          "type": "uint256"
        }
      ],
      "name": "WithdrawalLimitChange",
      "type": "event"
    },
    {
      "inputs": [],
      "name": "ACONCAGUA_ROLE",
      "outputs": [
        {
          "internalType": "bytes32",
          "name": "",
          "type": "bytes32"
        }
      ],
      "stateMutability": "view",
      "type": "function"
    },
    {
      "inputs": [],
      "name": "DEFAULT_ADMIN_ROLE",
      "outputs": [
        {
          "internalType": "bytes32",
          "name": "",
          "type": "bytes32"
        }
      ],
      "stateMutability": "view",
      "type": "function"
    },
    {
      "inputs": [],
      "name": "LENDER_LIQ_ROLE",
      "outputs": [
        {
          "internalType": "bytes32",
          "name": "",
          "type": "bytes32"
        }
      ],
      "stateMutability": "view",
      "type": "function"
    },
    {
      "inputs": [],
      "name": "PAUSER_ROLE",
      "outputs": [
        {
          "internalType": "bytes32",
          "name": "",
          "type": "bytes32"
        }
      ],
      "stateMutability": "view",
      "type": "function"
    },
    {
      "inputs": [],
      "name": "RESCUER_ROLE",
      "outputs": [
        {
          "internalType": "bytes32",
          "name": "",
          "type": "bytes32"
        }
      ],
      "stateMutability": "view",
      "type": "function"
    },
    {
      "inputs": [],
      "name": "SWAPPER_ROLE",
      "outputs": [
        {
          "internalType": "bytes32",
          "name": "",
          "type": "bytes32"
        }
      ],
      "stateMutability": "view",
      "type": "function"
    },
    {
      "inputs": [],
      "name": "USDC",
      "outputs": [
        {
          "internalType": "string",
          "name": "",
          "type": "string"
        }
      ],
      "stateMutability": "view",
      "type": "function"
    },
    {
      "inputs": [],
      "name": "USDT",
      "outputs": [
        {
          "internalType": "string",
          "name": "",
          "type": "string"
        }
      ],
      "stateMutability": "view",
      "type": "function"
    },
    {
      "inputs": [],
      "name": "WBTC",
      "outputs": [
        {
          "internalType": "string",
          "name": "",
          "type": "string"
        }
      ],
      "stateMutability": "view",
      "type": "function"
    },
    {
      "inputs": [],
      "name": "WETH",
      "outputs": [
        {
          "internalType": "string",
          "name": "",
          "type": "string"
        }
      ],
      "stateMutability": "view",
      "type": "function"
    },
    {
      "inputs": [
        {
          "internalType": "string",
          "name": "_tokenSymbol",
          "type": "string"
        }
      ],
      "name": "balanceOf",
      "outputs": [
        {
          "internalType": "uint256",
          "name": "",
          "type": "uint256"
        }
      ],
      "stateMutability": "view",
      "type": "function"
    },
    {
      "inputs": [],
      "name": "endTimePeriod",
      "outputs": [
        {
          "internalType": "uint256",
          "name": "",
          "type": "uint256"
        }
      ],
      "stateMutability": "view",
      "type": "function"
    },
    {
      "inputs": [],
      "name": "getBalances",
      "outputs": [
        {
          "internalType": "uint256[]",
          "name": "",
          "type": "uint256[]"
        }
      ],
      "stateMutability": "view",
      "type": "function"
    },
    {
      "inputs": [
        {
          "internalType": "bytes32",
          "name": "role",
          "type": "bytes32"
        }
      ],
      "name": "getRoleAdmin",
      "outputs": [
        {
          "internalType": "bytes32",
          "name": "",
          "type": "bytes32"
        }
      ],
      "stateMutability": "view",
      "type": "function"
    },
    {
      "inputs": [
        {
          "internalType": "uint256",
          "name": "index",
          "type": "uint256"
        }
      ],
      "name": "getRoleByIndex",
      "outputs": [
        {
          "internalType": "bytes32",
          "name": "",
          "type": "bytes32"
        }
      ],
      "stateMutability": "view",
      "type": "function"
    },
    {
      "inputs": [],
      "name": "getRoleCount",
      "outputs": [
        {
          "internalType": "uint256",
          "name": "",
          "type": "uint256"
        }
      ],
      "stateMutability": "view",
      "type": "function"
    },
    {
      "inputs": [
        {
          "internalType": "bytes32",
          "name": "role",
          "type": "bytes32"
        },
        {
          "internalType": "uint256",
          "name": "index",
          "type": "uint256"
        }
      ],
      "name": "getRoleMember",
      "outputs": [
        {
          "internalType": "address",
          "name": "",
          "type": "address"
        }
      ],
      "stateMutability": "view",
      "type": "function"
    },
    {
      "inputs": [
        {
          "internalType": "bytes32",
          "name": "role",
          "type": "bytes32"
        }
      ],
      "name": "getRoleMemberCount",
      "outputs": [
        {
          "internalType": "uint256",
          "name": "",
          "type": "uint256"
        }
      ],
      "stateMutability": "view",
      "type": "function"
    },
    {
      "inputs": [
        {
          "internalType": "bytes32",
          "name": "role",
          "type": "bytes32"
        },
        {
          "internalType": "address",
          "name": "account",
          "type": "address"
        }
      ],
      "name": "grantRole",
      "outputs": [],
      "stateMutability": "nonpayable",
      "type": "function"
    },
    {
      "inputs": [
        {
          "internalType": "bytes32",
          "name": "role",
          "type": "bytes32"
        },
        {
          "internalType": "address",
          "name": "account",
          "type": "address"
        }
      ],
      "name": "hasRole",
      "outputs": [
        {
          "internalType": "bool",
          "name": "",
          "type": "bool"
        }
      ],
      "stateMutability": "view",
      "type": "function"
    },
    {
      "inputs": [
        {
          "internalType": "address",
          "name": "_usdcTokenAddress",
          "type": "address"
        },
        {
          "internalType": "address",
          "name": "_usdtTokenAddress",
          "type": "address"
        },
        {
          "internalType": "address",
          "name": "_wbtcTokenAddress",
          "type": "address"
        },
        {
          "internalType": "address",
          "name": "_wethTokenAddress",
          "type": "address"
        },
        {
          "internalType": "address[3]",
          "name": "_aconcagua",
          "type": "address[3]"
        },
        {
          "internalType": "address",
          "name": "_rescueWalletAddress",
          "type": "address"
        },
        {
          "internalType": "address",
          "name": "_withdrawWalletAddress",
          "type": "address"
        },
        {
          "internalType": "address",
          "name": "_firstLenderLiq",
          "type": "address"
        },
        {
          "internalType": "address",
          "name": "_secondLenderLiq",
          "type": "address"
        },
        {
          "internalType": "address",
          "name": "_swapRouterAddress",
          "type": "address"
        },
        {
          "internalType": "address",
          "name": "_swapper",
          "type": "address"
        }
      ],
      "name": "initialize",
      "outputs": [],
      "stateMutability": "nonpayable",
      "type": "function"
    },
    {
      "inputs": [
        {
          "internalType": "bytes32",
          "name": "role",
          "type": "bytes32"
        },
        {
          "internalType": "address",
          "name": "account",
          "type": "address"
        }
      ],
      "name": "renounceRole",
      "outputs": [],
      "stateMutability": "nonpayable",
      "type": "function"
    },
    {
      "inputs": [
        {
          "internalType": "uint256",
          "name": "_amount",
          "type": "uint256"
        },
        {
          "internalType": "string",
          "name": "_tokenSymbol",
          "type": "string"
        }
      ],
      "name": "rescue",
      "outputs": [],
      "stateMutability": "nonpayable",
      "type": "function"
    },
    {
      "inputs": [],
      "name": "rescueWalletAddress",
      "outputs": [
        {
          "internalType": "address",
          "name": "",
          "type": "address"
        }
      ],
      "stateMutability": "view",
      "type": "function"
    },
    {
      "inputs": [
        {
          "internalType": "bytes32",
          "name": "role",
          "type": "bytes32"
        },
        {
          "internalType": "address",
          "name": "account",
          "type": "address"
        }
      ],
      "name": "revokeRole",
      "outputs": [],
      "stateMutability": "nonpayable",
      "type": "function"
    },
    {
      "inputs": [
        {
          "internalType": "address",
          "name": "_rescueWalletAddress",
          "type": "address"
        }
      ],
      "name": "setRescueWalletAddress",
      "outputs": [],
      "stateMutability": "nonpayable",
      "type": "function"
    },
    {
      "inputs": [
        {
          "internalType": "uint256",
          "name": "_startTimePeriod",
          "type": "uint256"
        }
      ],
      "name": "setStartTimePeriod",
      "outputs": [],
      "stateMutability": "nonpayable",
      "type": "function"
    },
    {
      "inputs": [
        {
          "internalType": "address",
          "name": "_tokenAddress",
          "type": "address"
        },
        {
          "internalType": "string",
          "name": "_tokenSymbol",
          "type": "string"
        }
      ],
      "name": "setTokenAddress",
      "outputs": [],
      "stateMutability": "nonpayable",
      "type": "function"
    },
    {
      "inputs": [
        {
          "internalType": "address",
          "name": "_withdrawWalletAddress",
          "type": "address"
        }
      ],
      "name": "setWithdrawWalletAddress",
      "outputs": [],
      "stateMutability": "nonpayable",
      "type": "function"
    },
    {
      "inputs": [
        {
          "internalType": "uint256",
          "name": "_withdrawalLimitPerPeriod",
          "type": "uint256"
        },
        {
          "internalType": "string",
          "name": "_tokenSymbol",
          "type": "string"
        }
      ],
      "name": "setWithdrawalLimitPerPeriod",
      "outputs": [],
      "stateMutability": "nonpayable",
      "type": "function"
    },
    {
      "inputs": [],
      "name": "startTimePeriod",
      "outputs": [
        {
          "internalType": "uint256",
          "name": "",
          "type": "uint256"
        }
      ],
      "stateMutability": "view",
      "type": "function"
    },
    {
      "inputs": [
        {
          "internalType": "bytes4",
          "name": "interfaceId",
          "type": "bytes4"
        }
      ],
      "name": "supportsInterface",
      "outputs": [
        {
          "internalType": "bool",
          "name": "",
          "type": "bool"
        }
      ],
      "stateMutability": "view",
      "type": "function"
    },
    {
      "inputs": [
        {
          "components": [
            {
              "components": [
                {
                  "internalType": "bytes",
                  "name": "path",
                  "type": "bytes"
                },
                {
                  "internalType": "address",
                  "name": "recipient",
                  "type": "address"
                },
                {
                  "internalType": "uint256",
                  "name": "deadline",
                  "type": "uint256"
                },
                {
                  "internalType": "uint256",
                  "name": "amountIn",
                  "type": "uint256"
                },
                {
                  "internalType": "uint256",
                  "name": "amountOutMinimum",
                  "type": "uint256"
                }
              ],
              "internalType": "struct ISwapRouter.ExactInputParams",
              "name": "params",
              "type": "tuple"
            },
            {
              "internalType": "address",
              "name": "tokenIn",
              "type": "address"
            },
            {
              "internalType": "address",
              "name": "tokenOut",
              "type": "address"
            }
          ],
          "internalType": "struct IColateralContract.SwapParams[]",
          "name": "swapsParams",
          "type": "tuple[]"
        }
      ],
      "name": "swapExactInputs",
      "outputs": [],
      "stateMutability": "nonpayable",
      "type": "function"
    },
    {
      "inputs": [
        {
          "internalType": "string",
          "name": "",
          "type": "string"
        }
      ],
      "name": "tokenAddress",
      "outputs": [
        {
          "internalType": "address",
          "name": "",
          "type": "address"
        }
      ],
      "stateMutability": "view",
      "type": "function"
    },
    {
      "inputs": [
        {
          "internalType": "string",
          "name": "",
          "type": "string"
        }
      ],
      "name": "tokensWithdrawnInTheLastPeriod",
      "outputs": [
        {
          "internalType": "uint256",
          "name": "",
          "type": "uint256"
        }
      ],
      "stateMutability": "view",
      "type": "function"
    },
    {
      "inputs": [],
      "name": "version",
      "outputs": [
        {
          "internalType": "string",
          "name": "",
          "type": "string"
        }
      ],
      "stateMutability": "pure",
      "type": "function"
    },
    {
      "inputs": [
        {
          "internalType": "uint256",
          "name": "_amount",
          "type": "uint256"
        },
        {
          "internalType": "string",
          "name": "_tokenSymbol",
          "type": "string"
        }
      ],
      "name": "withdraw",
      "outputs": [],
      "stateMutability": "nonpayable",
      "type": "function"
    },
    {
      "inputs": [],
      "name": "withdrawWalletAddress",
      "outputs": [
        {
          "internalType": "address",
          "name": "",
          "type": "address"
        }
      ],
      "stateMutability": "view",
      "type": "function"
    },
    {
      "inputs": [
        {
          "internalType": "string",
          "name": "",
          "type": "string"
        }
      ],
      "name": "withdrawalLimitPerPeriod",
      "outputs": [
        {
          "internalType": "uint256",
          "name": "",
          "type": "uint256"
        }
      ],
      "stateMutability": "view",
      "type": "function"
    }
  ],
  "bytecode": "0x60806040523480156200001157600080fd5b5060008060019054906101000a900460ff16159050808015620000445750600160008054906101000a900460ff1660ff16105b8062000080575062000061306200016360201b62002caa1760201c565b1580156200007f5750600160008054906101000a900460ff1660ff16145b5b620000c2576040517f08c379a0000000000000000000000000000000000000000000000000000000008152600401620000b9906200020d565b60405180910390fd5b60016000806101000a81548160ff021916908360ff160217905550801562000100576001600060016101000a81548160ff0219169083151502179055505b80156200015c5760008060016101000a81548160ff0219169083151502179055507f7f26b83ff96e1f2b6a682f133852f6798a09c465da95921460cefb3847402498600160405162000153919062000289565b60405180910390a15b50620002a6565b6000808273ffffffffffffffffffffffffffffffffffffffff163b119050919050565b600082825260208201905092915050565b7f496e697469616c697a61626c653a20636f6e747261637420697320616c72656160008201527f647920696e697469616c697a6564000000000000000000000000000000000000602082015250565b6000620001f5602e8362000186565b9150620002028262000197565b604082019050919050565b600060208201905081810360008301526200022881620001e6565b9050919050565b6000819050919050565b600060ff82169050919050565b6000819050919050565b6000620002716200026b62000265846200022f565b62000246565b62000239565b9050919050565b620002838162000250565b82525050565b6000602082019050620002a0600083018462000278565b92915050565b615d3680620002b66000396000f3fe608060405234801561001057600080fd5b506004361061023c5760003560e01c8063713725441161013b578063b14ec101116100b8578063dc048cf21161007c578063dc048cf2146106dd578063df668eca146106f9578063e387c95414610717578063e5df800a14610733578063e63ab1e9146107515761023c565b8063b14ec10114610639578063c54e44eb14610657578063ca15c87314610675578063d00411c9146106a5578063d547741f146106c15761023c565b80639010d07c116100ff5780639010d07c1461056d57806391d148541461059d5780639733749a146105cd578063a217fddf146105fd578063ad5c46481461061b5761023c565b806371372544146104d757806378ed0da0146104f557806383d3331914610513578063866ba88c1461053157806389a302711461054f5761023c565b80632ffe9942116101c95780634dede3de1161018d5780634dede3de1461041f57806354fd4d501461043d57806358f4354b1461045b578063669d3f031461048b5780636e30199f146104a75761023c565b80632ffe99421461037d57806332cc815d14610399578063334347b7146103b757806335ee5f87146103d357806336568abe146104035761023c565b8063212f603911610210578063212f6039146102c9578063248a9ca3146102e557806325acc985146103155780632c9c3873146103455780632f2ff15d146103615761023c565b8062113e081461024157806301ffc9a71461025f5780630828c4041461028f57806315ac7358146102ab575b600080fd5b61024961076f565b6040516102569190613cae565b60405180910390f35b61027960048036038101906102749190613d3c565b61095f565b6040516102869190613d84565b60405180910390f35b6102a960048036038101906102a49190613e30565b6109d9565b005b6102b3610af0565b6040516102c09190613ed1565b60405180910390f35b6102e360048036038101906102de9190613f18565b610b17565b005b6102ff60048036038101906102fa9190613f7b565b610bf6565b60405161030c9190613fb7565b60405180910390f35b61032f600480360381019061032a9190613fd2565b610c16565b60405161033c9190613fb7565b60405180910390f35b61035f600480360381019061035a9190613fd2565b610c33565b005b61037b60048036038101906103769190613fff565b610d17565b005b61039760048036038101906103929190614095565b610d38565b005b6103a161153c565b6040516103ae9190613fb7565b60405180910390f35b6103d160048036038101906103cc9190614104565b611560565b005b6103ed60048036038101906103e8919061433b565b612357565b6040516103fa9190614393565b60405180910390f35b61041d60048036038101906104189190613fff565b61241d565b005b6104276124a0565b604051610434919061442d565b60405180910390f35b6104456124d9565b604051610452919061442d565b60405180910390f35b6104756004803603810190610470919061433b565b612516565b6040516104829190614393565b60405180910390f35b6104a560048036038101906104a09190613e30565b612544565b005b6104c160048036038101906104bc919061433b565b6125fe565b6040516104ce9190613ed1565b60405180910390f35b6104df612647565b6040516104ec9190613fb7565b60405180910390f35b6104fd61266b565b60405161050a9190614393565b60405180910390f35b61051b612672565b6040516105289190614393565b60405180910390f35b610539612683565b6040516105469190614393565b60405180910390f35b61055761268a565b604051610564919061442d565b60405180910390f35b6105876004803603810190610582919061444f565b6126c3565b6040516105949190613ed1565b60405180910390f35b6105b760048036038101906105b29190613fff565b6126f2565b6040516105c49190613d84565b60405180910390f35b6105e760048036038101906105e2919061433b565b61275d565b6040516105f49190614393565b60405180910390f35b61060561278b565b6040516106129190613fb7565b60405180910390f35b610623612792565b604051610630919061442d565b60405180910390f35b6106416127cb565b60405161064e9190613ed1565b60405180910390f35b61065f6127f2565b60405161066c919061442d565b60405180910390f35b61068f600480360381019061068a9190613f7b565b61282b565b60405161069c9190614393565b60405180910390f35b6106bf60048036038101906106ba9190613f18565b61284f565b005b6106db60048036038101906106d69190613fff565b61292e565b005b6106f760048036038101906106f29190613e30565b61294f565b005b610701612b2a565b60405161070e9190613fb7565b60405180910390f35b610731600480360381019061072c919061448f565b612b4e565b005b61073b612c62565b6040516107489190613fb7565b60405180910390f35b610759612c86565b6040516107669190613fb7565b60405180910390f35b60606000600567ffffffffffffffff81111561078e5761078d614210565b5b6040519080825280602002602001820160405280156107bc5781602001602082028036833780820191505090505b50905047816000815181106107d4576107d36144ef565b5b60200260200101818152505061081e6040518060400160405280600481526020017f5553444300000000000000000000000000000000000000000000000000000000815250612357565b81600181518110610832576108316144ef565b5b60200260200101818152505061087c6040518060400160405280600481526020017f5553445400000000000000000000000000000000000000000000000000000000815250612357565b816002815181106108905761088f6144ef565b5b6020026020010181815250506108da6040518060400160405280600481526020017f5742544300000000000000000000000000000000000000000000000000000000815250612357565b816003815181106108ee576108ed6144ef565b5b6020026020010181815250506109386040518060400160405280600481526020017f5745544800000000000000000000000000000000000000000000000000000000815250612357565b8160048151811061094c5761094b6144ef565b5b6020026020010181815250508091505090565b60007f5a05180f000000000000000000000000000000000000000000000000000000007bffffffffffffffffffffffffffffffffffffffffffffffffffffffff1916827bffffffffffffffffffffffffffffffffffffffffffffffffffffffff191614806109d257506109d182612ccd565b5b9050919050565b7fbffb4faf8a508f503a2ca036effd0bc1f82615d3ebfddb934edf718f23672707610a0381612d47565b610a0b612d5b565b610a7960fd8484604051610a2092919061454e565b908152602001604051809103902060009054906101000a900473ffffffffffffffffffffffffffffffffffffffff1661010260009054906101000a900473ffffffffffffffffffffffffffffffffffffffff1686612daa565b7f22cb89e6358014bb27f5658e2b820189f8f4c9e3f7165ecf266edc53be12d9fa610aa2612e30565b84848761010260009054906101000a900473ffffffffffffffffffffffffffffffffffffffff16604051610ada959493929190614594565b60405180910390a1610aea612e38565b50505050565b61010260009054906101000a900473ffffffffffffffffffffffffffffffffffffffff1681565b7ffaad79a708d82d095486f5a83b18341f12a8f717d3011ab929d43135c1af73e2610b4181612d47565b600073ffffffffffffffffffffffffffffffffffffffff168273ffffffffffffffffffffffffffffffffffffffff1603610bb0576040517f08c379a0000000000000000000000000000000000000000000000000000000008152600401610ba79061462e565b60405180910390fd5b8161010360006101000a81548173ffffffffffffffffffffffffffffffffffffffff021916908373ffffffffffffffffffffffffffffffffffffffff1602179055505050565b600060656000838152602001908152602001600020600101549050919050565b6000610c2c8260fb612e4290919063ffffffff16565b9050919050565b7ffaad79a708d82d095486f5a83b18341f12a8f717d3011ab929d43135c1af73e2610c5d81612d47565b610100548210610ca2576040517f08c379a0000000000000000000000000000000000000000000000000000000008152600401610c99906146c0565b60405180910390fd5b426201518083610cb2919061470f565b11610cf2576040517f08c379a0000000000000000000000000000000000000000000000000000000008152600401610ce9906147b5565b60405180910390fd5b81610100819055506201518061010054610d0c919061470f565b610101819055505050565b610d2082610bf6565b610d2981612d47565b610d338383612e59565b505050565b7fd2761b102bda9831f4af400cc824b8cecb9cc5c1c85c51acb1479db9735fbfc6610d6281612d47565b60005b838390508110156115365736848483818110610d8457610d836144ef565b5b9050602002810190610d9691906147da565b90503073ffffffffffffffffffffffffffffffffffffffff16818060000190610dbf9190614802565b6020016020810190610dd19190613f18565b73ffffffffffffffffffffffffffffffffffffffff1614610e27576040517f08c379a0000000000000000000000000000000000000000000000000000000008152600401610e1e90614876565b60405180910390fd5b6000818060000190610e399190614802565b6080013511610e7d576040517f08c379a0000000000000000000000000000000000000000000000000000000008152600401610e74906148e2565b60405180910390fd5b60fd604051610e8b9061494e565b908152602001604051809103902060009054906101000a900473ffffffffffffffffffffffffffffffffffffffff1673ffffffffffffffffffffffffffffffffffffffff16816040016020810190610ee39190613f18565b73ffffffffffffffffffffffffffffffffffffffff161480610f7e575060fd604051610f0e906149af565b908152602001604051809103902060009054906101000a900473ffffffffffffffffffffffffffffffffffffffff1673ffffffffffffffffffffffffffffffffffffffff16816040016020810190610f669190613f18565b73ffffffffffffffffffffffffffffffffffffffff16145b610fbd576040517f08c379a0000000000000000000000000000000000000000000000000000000008152600401610fb490614a10565b60405180910390fd5b6000816020016020810190610fd29190613f18565b90506000828060000190610fe69190614802565b6060013511801561108357508073ffffffffffffffffffffffffffffffffffffffff166370a08231306040518263ffffffff1660e01b815260040161102b9190613ed1565b602060405180830381865afa158015611048573d6000803e3d6000fd5b505050506040513d601f19601f8201168201806040525081019061106c9190614a45565b82806000019061107c9190614802565b6060013511155b6110c2576040517f08c379a00000000000000000000000000000000000000000000000000000000081526004016110b990614abe565b60405180910390fd5b8073ffffffffffffffffffffffffffffffffffffffff1663095ea7b361010460009054906101000a900473ffffffffffffffffffffffffffffffffffffffff168480600001906111129190614802565b606001356040518363ffffffff1660e01b8152600401611133929190614ade565b6020604051808303816000875af1158015611152573d6000803e3d6000fd5b505050506040513d601f19601f820116820180604052508101906111769190614b33565b6111b5576040517f08c379a00000000000000000000000000000000000000000000000000000000081526004016111ac90614bac565b60405180910390fd5b61010460009054906101000a900473ffffffffffffffffffffffffffffffffffffffff1673ffffffffffffffffffffffffffffffffffffffff1663c04b8d598380600001906112049190614802565b6040518263ffffffff1660e01b81526004016112209190614d59565b6020604051808303816000875af192505050801561125c57506040513d601f19601f820116820180604052508101906112599190614a45565b60015b6113ca57611268614d88565b806308c379a0036113b9575061127c614daa565b8061128757506113bb565b7f48dbf1f65dc9fb918dcf47a87d0d7dbfe9cd78bcfaea409049ee36785201cb918360200160208101906112bb9190613f18565b826040516112ca929190614e3a565b60405180910390a18173ffffffffffffffffffffffffffffffffffffffff1663095ea7b361010460009054906101000a900473ffffffffffffffffffffffffffffffffffffffff1660006040518363ffffffff1660e01b8152600401611331929190614eaf565b6020604051808303816000875af1158015611350573d6000803e3d6000fd5b505050506040513d601f19601f820116820180604052508101906113749190614b33565b6113b3576040517f08c379a00000000000000000000000000000000000000000000000000000000081526004016113aa90614f24565b60405180910390fd5b506113c5565b505b3d6000803e3d6000fd5b611521565b7ffa2dda1cc1b86e41239702756b13effbc1a092b5c57e3ad320fbe4f3b13fe2358360200160208101906113fe9190613f18565b8460400160208101906114119190613f18565b8580600001906114219190614802565b60600135846040516114369493929190614f44565b60405180910390a18173ffffffffffffffffffffffffffffffffffffffff1663095ea7b361010460009054906101000a900473ffffffffffffffffffffffffffffffffffffffff1660006040518363ffffffff1660e01b815260040161149d929190614eaf565b6020604051808303816000875af11580156114bc573d6000803e3d6000fd5b505050506040513d601f19601f820116820180604052508101906114e09190614b33565b61151f576040517f08c379a000000000000000000000000000000000000000000000000000000000815260040161151690614f24565b60405180910390fd5b505b5050808061152e90614f89565b915050610d65565b50505050565b7ffd37f88a14d7ed985885a1af8f2ad5b64dd7eb00ab89168649791632bb9bb4a681565b60008060019054906101000a900460ff161590508080156115915750600160008054906101000a900460ff1660ff16105b806115be57506115a030612caa565b1580156115bd5750600160008054906101000a900460ff1660ff16145b5b6115fd576040517f08c379a00000000000000000000000000000000000000000000000000000000081526004016115f490615043565b60405180910390fd5b60016000806101000a81548160ff021916908360ff160217905550801561163a576001600060016101000a81548160ff0219169083151502179055505b600073ffffffffffffffffffffffffffffffffffffffff1688600060038110611666576116656144ef565b5b6020020160208101906116799190613f18565b73ffffffffffffffffffffffffffffffffffffffff161415806116ef5750600073ffffffffffffffffffffffffffffffffffffffff16886001600381106116c3576116c26144ef565b5b6020020160208101906116d69190613f18565b73ffffffffffffffffffffffffffffffffffffffff1614155b8061174d5750600073ffffffffffffffffffffffffffffffffffffffff1688600260038110611721576117206144ef565b5b6020020160208101906117349190613f18565b73ffffffffffffffffffffffffffffffffffffffff1614155b61178c576040517f08c379a0000000000000000000000000000000000000000000000000000000008152600401611783906150af565b60405180910390fd5b600073ffffffffffffffffffffffffffffffffffffffff168773ffffffffffffffffffffffffffffffffffffffff16036117fb576040517f08c379a00000000000000000000000000000000000000000000000000000000081526004016117f29061511b565b60405180910390fd5b600073ffffffffffffffffffffffffffffffffffffffff168673ffffffffffffffffffffffffffffffffffffffff160361186a576040517f08c379a000000000000000000000000000000000000000000000000000000000815260040161186190615187565b60405180910390fd5b600073ffffffffffffffffffffffffffffffffffffffff168573ffffffffffffffffffffffffffffffffffffffff16036118d9576040517f08c379a00000000000000000000000000000000000000000000000000000000081526004016118d0906151f3565b60405180910390fd5b600073ffffffffffffffffffffffffffffffffffffffff168473ffffffffffffffffffffffffffffffffffffffff1603611948576040517f08c379a000000000000000000000000000000000000000000000000000000000815260040161193f9061525f565b60405180910390fd5b600073ffffffffffffffffffffffffffffffffffffffff168373ffffffffffffffffffffffffffffffffffffffff16036119b7576040517f08c379a00000000000000000000000000000000000000000000000000000000081526004016119ae906152cb565b60405180910390fd5b600073ffffffffffffffffffffffffffffffffffffffff168273ffffffffffffffffffffffffffffffffffffffff1603611a26576040517f08c379a0000000000000000000000000000000000000000000000000000000008152600401611a1d90615337565b60405180910390fd5b611a2e612e8d565b611a36612ede565b8b60fd6040518060400160405280600481526020017f5553444300000000000000000000000000000000000000000000000000000000815250604051611a7c9190615388565b908152602001604051809103902060006101000a81548173ffffffffffffffffffffffffffffffffffffffff021916908373ffffffffffffffffffffffffffffffffffffffff1602179055508a60fd6040518060400160405280600481526020017f5553445400000000000000000000000000000000000000000000000000000000815250604051611b0e9190615388565b908152602001604051809103902060006101000a81548173ffffffffffffffffffffffffffffffffffffffff021916908373ffffffffffffffffffffffffffffffffffffffff1602179055508960fd6040518060400160405280600481526020017f5742544300000000000000000000000000000000000000000000000000000000815250604051611ba09190615388565b908152602001604051809103902060006101000a81548173ffffffffffffffffffffffffffffffffffffffff021916908373ffffffffffffffffffffffffffffffffffffffff1602179055508860fd6040518060400160405280600481526020017f5745544800000000000000000000000000000000000000000000000000000000815250604051611c329190615388565b908152602001604051809103902060006101000a81548173ffffffffffffffffffffffffffffffffffffffff021916908373ffffffffffffffffffffffffffffffffffffffff16021790555042610100819055506201518061010054611c98919061470f565b610101819055507fffffffffffffffffffffffffffffffffffffffffffffffffffffffffffffffff60fe6040518060400160405280600481526020017f5553444300000000000000000000000000000000000000000000000000000000815250604051611d059190615388565b9081526020016040518091039020819055507fffffffffffffffffffffffffffffffffffffffffffffffffffffffffffffffff60fe6040518060400160405280600481526020017f5553445400000000000000000000000000000000000000000000000000000000815250604051611d7d9190615388565b9081526020016040518091039020819055507fffffffffffffffffffffffffffffffffffffffffffffffffffffffffffffffff60fe6040518060400160405280600481526020017f5742544300000000000000000000000000000000000000000000000000000000815250604051611df59190615388565b9081526020016040518091039020819055507fffffffffffffffffffffffffffffffffffffffffffffffffffffffffffffffff60fe6040518060400160405280600481526020017f5745544800000000000000000000000000000000000000000000000000000000815250604051611e6d9190615388565b9081526020016040518091039020819055508561010360006101000a81548173ffffffffffffffffffffffffffffffffffffffff021916908373ffffffffffffffffffffffffffffffffffffffff1602179055508661010260006101000a81548173ffffffffffffffffffffffffffffffffffffffff021916908373ffffffffffffffffffffffffffffffffffffffff1602179055508261010460006101000a81548173ffffffffffffffffffffffffffffffffffffffff021916908373ffffffffffffffffffffffffffffffffffffffff160217905550611f797ffaad79a708d82d095486f5a83b18341f12a8f717d3011ab929d43135c1af73e260fb612f3790919063ffffffff16565b50611fae7ffd37f88a14d7ed985885a1af8f2ad5b64dd7eb00ab89168649791632bb9bb4a660fb612f3790919063ffffffff16565b50611fe37fbffb4faf8a508f503a2ca036effd0bc1f82615d3ebfddb934edf718f2367270760fb612f3790919063ffffffff16565b506120187fd2761b102bda9831f4af400cc824b8cecb9cc5c1c85c51acb1479db9735fbfc660fb612f3790919063ffffffff16565b506120697ffaad79a708d82d095486f5a83b18341f12a8f717d3011ab929d43135c1af73e289600060038110612051576120506144ef565b5b6020020160208101906120649190613f18565b612e59565b6120b97ffaad79a708d82d095486f5a83b18341f12a8f717d3011ab929d43135c1af73e2896001600381106120a1576120a06144ef565b5b6020020160208101906120b49190613f18565b612e59565b6121097ffaad79a708d82d095486f5a83b18341f12a8f717d3011ab929d43135c1af73e2896002600381106120f1576120f06144ef565b5b6020020160208101906121049190613f18565b612e59565b6121337ffd37f88a14d7ed985885a1af8f2ad5b64dd7eb00ab89168649791632bb9bb4a686612e59565b61215d7ffd37f88a14d7ed985885a1af8f2ad5b64dd7eb00ab89168649791632bb9bb4a685612e59565b6121877fbffb4faf8a508f503a2ca036effd0bc1f82615d3ebfddb934edf718f2367270786612e59565b6121b17fbffb4faf8a508f503a2ca036effd0bc1f82615d3ebfddb934edf718f2367270785612e59565b6121db7fd2761b102bda9831f4af400cc824b8cecb9cc5c1c85c51acb1479db9735fbfc683612e59565b6122057ffaad79a708d82d095486f5a83b18341f12a8f717d3011ab929d43135c1af73e280612f4e565b61222f7ffd37f88a14d7ed985885a1af8f2ad5b64dd7eb00ab89168649791632bb9bb4a680612f4e565b6122597fbffb4faf8a508f503a2ca036effd0bc1f82615d3ebfddb934edf718f2367270780612f4e565b6122a37fd2761b102bda9831f4af400cc824b8cecb9cc5c1c85c51acb1479db9735fbfc67ffaad79a708d82d095486f5a83b18341f12a8f717d3011ab929d43135c1af73e2612f4e565b7fb01aaefdfa9c6d0ab739180ad32400c96c77b263f5e065d3af1002f36219cfeb338d8d8d8d8d8d8d8d8d8d8d6040516122e89c9b9a99989796959493929190615443565b60405180910390a180156123495760008060016101000a81548160ff0219169083151502179055507f7f26b83ff96e1f2b6a682f133852f6798a09c465da95921460cefb384740249860016040516123409190615547565b60405180910390a15b505050505050505050505050565b60008060fd8360405161236a9190615388565b908152602001604051809103902060009054906101000a900473ffffffffffffffffffffffffffffffffffffffff1690508073ffffffffffffffffffffffffffffffffffffffff166370a08231306040518263ffffffff1660e01b81526004016123d49190613ed1565b602060405180830381865afa1580156123f1573d6000803e3d6000fd5b505050506040513d601f19601f820116820180604052508101906124159190614a45565b915050919050565b612425612e30565b73ffffffffffffffffffffffffffffffffffffffff168173ffffffffffffffffffffffffffffffffffffffff1614612492576040517f08c379a0000000000000000000000000000000000000000000000000000000008152600401612489906155d4565b60405180910390fd5b61249c8282612faa565b5050565b6040518060400160405280600481526020017f574254430000000000000000000000000000000000000000000000000000000081525081565b60606040518060400160405280600581526020017f312e302e30000000000000000000000000000000000000000000000000000000815250905090565b60ff818051602081018201805184825260208301602085012081835280955050505050506000915090505481565b7ffaad79a708d82d095486f5a83b18341f12a8f717d3011ab929d43135c1af73e261256e81612d47565b600060fe848460405161258292919061454e565b90815260200160405180910390205490508460fe85856040516125a692919061454e565b9081526020016040518091039020819055507f0f2e8bfc06e6af8616ccee187022bf26cdb3a9e3d68cb7b17a2428a859cfc82533858584896040516125ef9594939291906155f4565b60405180910390a15050505050565b60fd818051602081018201805184825260208301602085012081835280955050505050506000915054906101000a900473ffffffffffffffffffffffffffffffffffffffff1681565b7fbffb4faf8a508f503a2ca036effd0bc1f82615d3ebfddb934edf718f2367270781565b6101015481565b600061267e60fb612fde565b905090565b6101005481565b6040518060400160405280600481526020017f555344430000000000000000000000000000000000000000000000000000000081525081565b60006126ea8260976000868152602001908152602001600020612ff390919063ffffffff16565b905092915050565b60006065600084815260200190815260200160002060000160008373ffffffffffffffffffffffffffffffffffffffff1673ffffffffffffffffffffffffffffffffffffffff16815260200190815260200160002060009054906101000a900460ff16905092915050565b60fe818051602081018201805184825260208301602085012081835280955050505050506000915090505481565b6000801b81565b6040518060400160405280600481526020017f574554480000000000000000000000000000000000000000000000000000000081525081565b61010360009054906101000a900473ffffffffffffffffffffffffffffffffffffffff1681565b6040518060400160405280600481526020017f555344540000000000000000000000000000000000000000000000000000000081525081565b60006128486097600084815260200190815260200160002061300d565b9050919050565b7ffaad79a708d82d095486f5a83b18341f12a8f717d3011ab929d43135c1af73e261287981612d47565b600073ffffffffffffffffffffffffffffffffffffffff168273ffffffffffffffffffffffffffffffffffffffff16036128e8576040517f08c379a00000000000000000000000000000000000000000000000000000000081526004016128df9061568e565b60405180910390fd5b8161010260006101000a81548173ffffffffffffffffffffffffffffffffffffffff021916908373ffffffffffffffffffffffffffffffffffffffff1602179055505050565b61293782610bf6565b61294081612d47565b61294a8383612faa565b505050565b7ffd37f88a14d7ed985885a1af8f2ad5b64dd7eb00ab89168649791632bb9bb4a661297981612d47565b612981612d5b565b612989613022565b60ff838360405161299b92919061454e565b908152602001604051809103902054846129b5919061470f565b60fe84846040516129c792919061454e565b9081526020016040518091039020541015612a17576040517f08c379a0000000000000000000000000000000000000000000000000000000008152600401612a0e906156fa565b60405180910390fd5b8360ff8484604051612a2a92919061454e565b90815260200160405180910390206000828254612a47919061470f565b92505081905550612abc60fd8484604051612a6392919061454e565b908152602001604051809103902060009054906101000a900473ffffffffffffffffffffffffffffffffffffffff1661010360009054906101000a900473ffffffffffffffffffffffffffffffffffffffff1686612daa565b7f901c03da5d88eb3d62ab4617e7b7d17d86db16356823a7971127d5181a842fef61010360009054906101000a900473ffffffffffffffffffffffffffffffffffffffff16848487604051612b14949392919061571a565b60405180910390a1612b24612e38565b50505050565b7fd2761b102bda9831f4af400cc824b8cecb9cc5c1c85c51acb1479db9735fbfc681565b7ffaad79a708d82d095486f5a83b18341f12a8f717d3011ab929d43135c1af73e2612b7881612d47565b600060fd8484604051612b8c92919061454e565b908152602001604051809103902060009054906101000a900473ffffffffffffffffffffffffffffffffffffffff1690508460fd8585604051612bd092919061454e565b908152602001604051809103902060006101000a81548173ffffffffffffffffffffffffffffffffffffffff021916908373ffffffffffffffffffffffffffffffffffffffff1602179055507f3cd72d6f5ed03c1310376e5a3951d7ee3a4813b66f9be0333ab32cf0d25cb5013385858489604051612c5395949392919061575a565b60405180910390a15050505050565b7ffaad79a708d82d095486f5a83b18341f12a8f717d3011ab929d43135c1af73e281565b7f539440820030c4994db4e31b6b800deafd503688728f932addfe7a410515c14c81565b6000808273ffffffffffffffffffffffffffffffffffffffff163b119050919050565b60007f7965db0b000000000000000000000000000000000000000000000000000000007bffffffffffffffffffffffffffffffffffffffffffffffffffffffff1916827bffffffffffffffffffffffffffffffffffffffffffffffffffffffff19161480612d405750612d3f826131f3565b5b9050919050565b612d5881612d53612e30565b61325d565b50565b600260c95403612da0576040517f08c379a0000000000000000000000000000000000000000000000000000000008152600401612d97906157f4565b60405180910390fd5b600260c981905550565b612e2b8363a9059cbb60e01b8484604051602401612dc9929190614ade565b604051602081830303815290604052907bffffffffffffffffffffffffffffffffffffffffffffffffffffffff19166020820180517bffffffffffffffffffffffffffffffffffffffffffffffffffffffff83818316178352505050506132e2565b505050565b600033905090565b600160c981905550565b6000612e5183600001836133aa565b905092915050565b612e6382826133d5565b612e8881609760008581526020019081526020016000206134b690919063ffffffff16565b505050565b600060019054906101000a900460ff16612edc576040517f08c379a0000000000000000000000000000000000000000000000000000000008152600401612ed390615886565b60405180910390fd5b565b600060019054906101000a900460ff16612f2d576040517f08c379a0000000000000000000000000000000000000000000000000000000008152600401612f2490615886565b60405180910390fd5b600160c981905550565b6000612f4683600001836134e6565b905092915050565b6000612f5983610bf6565b90508160656000858152602001908152602001600020600101819055508181847fbd79b86ffe0ab8e8776151514217cd7cacd52c909f66475c3af44e129f0b00ff60405160405180910390a4505050565b612fb48282613556565b612fd9816097600085815260200190815260200160002061363890919063ffffffff16565b505050565b6000612fec82600001613668565b9050919050565b600061300283600001836133aa565b60001c905092915050565b600061301b82600001613668565b9050919050565b610101544211156131f157600062015180610101544261304291906158a6565b61304c9190615909565b9050620151808161305d919061593a565b6101015461306b919061470f565b610100819055506201518061010054613084919061470f565b61010181905550600060ff6040518060400160405280600481526020017f55534443000000000000000000000000000000000000000000000000000000008152506040516130d29190615388565b908152602001604051809103902081905550600060ff6040518060400160405280600481526020017f555344540000000000000000000000000000000000000000000000000000000081525060405161312b9190615388565b908152602001604051809103902081905550600060ff6040518060400160405280600481526020017f57425443000000000000000000000000000000000000000000000000000000008152506040516131849190615388565b908152602001604051809103902081905550600060ff6040518060400160405280600481526020017f57455448000000000000000000000000000000000000000000000000000000008152506040516131dd9190615388565b908152602001604051809103902081905550505b565b60007f01ffc9a7000000000000000000000000000000000000000000000000000000007bffffffffffffffffffffffffffffffffffffffffffffffffffffffff1916827bffffffffffffffffffffffffffffffffffffffffffffffffffffffff1916149050919050565b61326782826126f2565b6132de5761327481613679565b6132828360001c60206136a6565b604051602001613293929190615a14565b6040516020818303038152906040526040517f08c379a00000000000000000000000000000000000000000000000000000000081526004016132d5919061442d565b60405180910390fd5b5050565b6000613344826040518060400160405280602081526020017f5361666545524332303a206c6f772d6c6576656c2063616c6c206661696c65648152508573ffffffffffffffffffffffffffffffffffffffff166138e29092919063ffffffff16565b90506000815114806133665750808060200190518101906133659190614b33565b5b6133a5576040517f08c379a000000000000000000000000000000000000000000000000000000000815260040161339c90615ac0565b60405180910390fd5b505050565b60008260000182815481106133c2576133c16144ef565b5b9060005260206000200154905092915050565b6133df82826126f2565b6134b25760016065600084815260200190815260200160002060000160008373ffffffffffffffffffffffffffffffffffffffff1673ffffffffffffffffffffffffffffffffffffffff16815260200190815260200160002060006101000a81548160ff021916908315150217905550613457612e30565b73ffffffffffffffffffffffffffffffffffffffff168173ffffffffffffffffffffffffffffffffffffffff16837f2f8788117e7eff1d82e926ec794901d17c78024a50270940304540a733656f0d60405160405180910390a45b5050565b60006134de836000018373ffffffffffffffffffffffffffffffffffffffff1660001b6134e6565b905092915050565b60006134f283836138fa565b61354b578260000182908060018154018082558091505060019003906000526020600020016000909190919091505582600001805490508360010160008481526020019081526020016000208190555060019050613550565b600090505b92915050565b61356082826126f2565b156136345760006065600084815260200190815260200160002060000160008373ffffffffffffffffffffffffffffffffffffffff1673ffffffffffffffffffffffffffffffffffffffff16815260200190815260200160002060006101000a81548160ff0219169083151502179055506135d9612e30565b73ffffffffffffffffffffffffffffffffffffffff168173ffffffffffffffffffffffffffffffffffffffff16837ff6391f5c32d9c69d2a47ea670b442974b53935d1edc7fd64eb21e047a839171b60405160405180910390a45b5050565b6000613660836000018373ffffffffffffffffffffffffffffffffffffffff1660001b61391d565b905092915050565b600081600001805490509050919050565b606061369f8273ffffffffffffffffffffffffffffffffffffffff16601460ff166136a6565b9050919050565b6060600060028360026136b9919061593a565b6136c3919061470f565b67ffffffffffffffff8111156136dc576136db614210565b5b6040519080825280601f01601f19166020018201604052801561370e5781602001600182028036833780820191505090505b5090507f300000000000000000000000000000000000000000000000000000000000000081600081518110613746576137456144ef565b5b60200101907effffffffffffffffffffffffffffffffffffffffffffffffffffffffffffff1916908160001a9053507f7800000000000000000000000000000000000000000000000000000000000000816001815181106137aa576137a96144ef565b5b60200101907effffffffffffffffffffffffffffffffffffffffffffffffffffffffffffff1916908160001a905350600060018460026137ea919061593a565b6137f4919061470f565b90505b6001811115613894577f3031323334353637383961626364656600000000000000000000000000000000600f861660108110613836576138356144ef565b5b1a60f81b82828151811061384d5761384c6144ef565b5b60200101907effffffffffffffffffffffffffffffffffffffffffffffffffffffffffffff1916908160001a905350600485901c94508061388d90615ae0565b90506137f7565b50600084146138d8576040517f08c379a00000000000000000000000000000000000000000000000000000000081526004016138cf90615b55565b60405180910390fd5b8091505092915050565b60606138f18484600085613a31565b90509392505050565b600080836001016000848152602001908152602001600020541415905092915050565b60008083600101600084815260200190815260200160002054905060008114613a2557600060018261394f91906158a6565b905060006001866000018054905061396791906158a6565b90508181146139d6576000866000018281548110613988576139876144ef565b5b90600052602060002001549050808760000184815481106139ac576139ab6144ef565b5b90600052602060002001819055508387600101600083815260200190815260200160002081905550505b856000018054806139ea576139e9615b75565b5b600190038181906000526020600020016000905590558560010160008681526020019081526020016000206000905560019350505050613a2b565b60009150505b92915050565b606082471015613a76576040517f08c379a0000000000000000000000000000000000000000000000000000000008152600401613a6d90615c16565b60405180910390fd5b6000808673ffffffffffffffffffffffffffffffffffffffff168587604051613a9f9190615c7d565b60006040518083038185875af1925050503d8060008114613adc576040519150601f19603f3d011682016040523d82523d6000602084013e613ae1565b606091505b5091509150613af287838387613afe565b92505050949350505050565b60608315613b60576000835103613b5857613b1885613b73565b613b57576040517f08c379a0000000000000000000000000000000000000000000000000000000008152600401613b4e90615ce0565b60405180910390fd5b5b829050613b6b565b613b6a8383613b96565b5b949350505050565b6000808273ffffffffffffffffffffffffffffffffffffffff163b119050919050565b600082511115613ba95781518083602001fd5b806040517f08c379a0000000000000000000000000000000000000000000000000000000008152600401613bdd919061442d565b60405180910390fd5b600081519050919050565b600082825260208201905092915050565b6000819050602082019050919050565b6000819050919050565b613c2581613c12565b82525050565b6000613c378383613c1c565b60208301905092915050565b6000602082019050919050565b6000613c5b82613be6565b613c658185613bf1565b9350613c7083613c02565b8060005b83811015613ca1578151613c888882613c2b565b9750613c9383613c43565b925050600181019050613c74565b5085935050505092915050565b60006020820190508181036000830152613cc88184613c50565b905092915050565b6000604051905090565b600080fd5b600080fd5b60007fffffffff0000000000000000000000000000000000000000000000000000000082169050919050565b613d1981613ce4565b8114613d2457600080fd5b50565b600081359050613d3681613d10565b92915050565b600060208284031215613d5257613d51613cda565b5b6000613d6084828501613d27565b91505092915050565b60008115159050919050565b613d7e81613d69565b82525050565b6000602082019050613d996000830184613d75565b92915050565b613da881613c12565b8114613db357600080fd5b50565b600081359050613dc581613d9f565b92915050565b600080fd5b600080fd5b600080fd5b60008083601f840112613df057613def613dcb565b5b8235905067ffffffffffffffff811115613e0d57613e0c613dd0565b5b602083019150836001820283011115613e2957613e28613dd5565b5b9250929050565b600080600060408486031215613e4957613e48613cda565b5b6000613e5786828701613db6565b935050602084013567ffffffffffffffff811115613e7857613e77613cdf565b5b613e8486828701613dda565b92509250509250925092565b600073ffffffffffffffffffffffffffffffffffffffff82169050919050565b6000613ebb82613e90565b9050919050565b613ecb81613eb0565b82525050565b6000602082019050613ee66000830184613ec2565b92915050565b613ef581613eb0565b8114613f0057600080fd5b50565b600081359050613f1281613eec565b92915050565b600060208284031215613f2e57613f2d613cda565b5b6000613f3c84828501613f03565b91505092915050565b6000819050919050565b613f5881613f45565b8114613f6357600080fd5b50565b600081359050613f7581613f4f565b92915050565b600060208284031215613f9157613f90613cda565b5b6000613f9f84828501613f66565b91505092915050565b613fb181613f45565b82525050565b6000602082019050613fcc6000830184613fa8565b92915050565b600060208284031215613fe857613fe7613cda565b5b6000613ff684828501613db6565b91505092915050565b6000806040838503121561401657614015613cda565b5b600061402485828601613f66565b925050602061403585828601613f03565b9150509250929050565b60008083601f84011261405557614054613dcb565b5b8235905067ffffffffffffffff81111561407257614071613dd0565b5b60208301915083602082028301111561408e5761408d613dd5565b5b9250929050565b600080602083850312156140ac576140ab613cda565b5b600083013567ffffffffffffffff8111156140ca576140c9613cdf565b5b6140d68582860161403f565b92509250509250929050565b6000819050826020600302820111156140fe576140fd613dd5565b5b92915050565b60008060008060008060008060008060006101a08c8e03121561412a57614129613cda565b5b60006141388e828f01613f03565b9b505060206141498e828f01613f03565b9a5050604061415a8e828f01613f03565b995050606061416b8e828f01613f03565b985050608061417c8e828f016140e2565b97505060e061418d8e828f01613f03565b96505061010061419f8e828f01613f03565b9550506101206141b18e828f01613f03565b9450506101406141c38e828f01613f03565b9350506101606141d58e828f01613f03565b9250506101806141e78e828f01613f03565b9150509295989b509295989b9093969950565b600080fd5b6000601f19601f8301169050919050565b7f4e487b7100000000000000000000000000000000000000000000000000000000600052604160045260246000fd5b614248826141ff565b810181811067ffffffffffffffff8211171561426757614266614210565b5b80604052505050565b600061427a613cd0565b9050614286828261423f565b919050565b600067ffffffffffffffff8211156142a6576142a5614210565b5b6142af826141ff565b9050602081019050919050565b82818337600083830152505050565b60006142de6142d98461428b565b614270565b9050828152602081018484840111156142fa576142f96141fa565b5b6143058482856142bc565b509392505050565b600082601f83011261432257614321613dcb565b5b81356143328482602086016142cb565b91505092915050565b60006020828403121561435157614350613cda565b5b600082013567ffffffffffffffff81111561436f5761436e613cdf565b5b61437b8482850161430d565b91505092915050565b61438d81613c12565b82525050565b60006020820190506143a86000830184614384565b92915050565b600081519050919050565b600082825260208201905092915050565b60005b838110156143e85780820151818401526020810190506143cd565b60008484015250505050565b60006143ff826143ae565b61440981856143b9565b93506144198185602086016143ca565b614422816141ff565b840191505092915050565b6000602082019050818103600083015261444781846143f4565b905092915050565b6000806040838503121561446657614465613cda565b5b600061447485828601613f66565b925050602061448585828601613db6565b9150509250929050565b6000806000604084860312156144a8576144a7613cda565b5b60006144b686828701613f03565b935050602084013567ffffffffffffffff8111156144d7576144d6613cdf565b5b6144e386828701613dda565b92509250509250925092565b7f4e487b7100000000000000000000000000000000000000000000000000000000600052603260045260246000fd5b600081905092915050565b6000614535838561451e565b93506145428385846142bc565b82840190509392505050565b600061455b828486614529565b91508190509392505050565b600061457383856143b9565b93506145808385846142bc565b614589836141ff565b840190509392505050565b60006080820190506145a96000830188613ec2565b81810360208301526145bc818688614567565b90506145cb6040830185614384565b6145d86060830184613ec2565b9695505050505050565b7f5769746864726177304164647200000000000000000000000000000000000000600082015250565b6000614618600d836143b9565b9150614623826145e2565b602082019050919050565b600060208201905081810360008301526146478161460b565b9050919050565b7f4e657720737461727454696d65506572696f64206d757374206265206265666f60008201527f72652063757272656e7420737461727454696d65506572696f64000000000000602082015250565b60006146aa603a836143b9565b91506146b58261464e565b604082019050919050565b600060208201905081810360008301526146d98161469d565b9050919050565b7f4e487b7100000000000000000000000000000000000000000000000000000000600052601160045260246000fd5b600061471a82613c12565b915061472583613c12565b925082820190508082111561473d5761473c6146e0565b5b92915050565b7f4e657720656e6454696d65506572696f64206d7573742062652061667465722060008201527f63757272656e742074696d650000000000000000000000000000000000000000602082015250565b600061479f602c836143b9565b91506147aa82614743565b604082019050919050565b600060208201905081810360008301526147ce81614792565b9050919050565b600080fd5b6000823560016060038336030381126147f6576147f56147d5565b5b80830191505092915050565b60008235600160a00383360303811261481e5761481d6147d5565b5b80830191505092915050565b7f45727220726563697069656e7400000000000000000000000000000000000000600082015250565b6000614860600d836143b9565b915061486b8261482a565b602082019050919050565b6000602082019050818103600083015261488f81614853565b9050919050565b7f45727220536c6970700000000000000000000000000000000000000000000000600082015250565b60006148cc6009836143b9565b91506148d782614896565b602082019050919050565b600060208201905081810360008301526148fb816148bf565b9050919050565b7f5553444300000000000000000000000000000000000000000000000000000000600082015250565b600061493860048361451e565b915061494382614902565b600482019050919050565b60006149598261492b565b9150819050919050565b7f5553445400000000000000000000000000000000000000000000000000000000600082015250565b600061499960048361451e565b91506149a482614963565b600482019050919050565b60006149ba8261498c565b9150819050919050565b7f45727220546f6b656e4f75740000000000000000000000000000000000000000600082015250565b60006149fa600c836143b9565b9150614a05826149c4565b602082019050919050565b60006020820190508181036000830152614a29816149ed565b9050919050565b600081519050614a3f81613d9f565b92915050565b600060208284031215614a5b57614a5a613cda565b5b6000614a6984828501614a30565b91505092915050565b7f45727220416d6f756e74496e0000000000000000000000000000000000000000600082015250565b6000614aa8600c836143b9565b9150614ab382614a72565b602082019050919050565b60006020820190508181036000830152614ad781614a9b565b9050919050565b6000604082019050614af36000830185613ec2565b614b006020830184614384565b9392505050565b614b1081613d69565b8114614b1b57600080fd5b50565b600081519050614b2d81614b07565b92915050565b600060208284031215614b4957614b48613cda565b5b6000614b5784828501614b1e565b91505092915050565b7f45727220417070726f76616c0000000000000000000000000000000000000000600082015250565b6000614b96600c836143b9565b9150614ba182614b60565b602082019050919050565b60006020820190508181036000830152614bc581614b89565b9050919050565b600080fd5b600080fd5b600080fd5b60008083356001602003843603038112614bf857614bf7614bd6565b5b83810192508235915060208301925067ffffffffffffffff821115614c2057614c1f614bcc565b5b600182023603831315614c3657614c35614bd1565b5b509250929050565b600082825260208201905092915050565b6000614c5b8385614c3e565b9350614c688385846142bc565b614c71836141ff565b840190509392505050565b6000614c8b6020840184613f03565b905092915050565b614c9c81613eb0565b82525050565b6000614cb16020840184613db6565b905092915050565b600060a08301614ccc6000840184614bdb565b8583036000870152614cdf838284614c4f565b92505050614cf06020840184614c7c565b614cfd6020860182614c93565b50614d0b6040840184614ca2565b614d186040860182613c1c565b50614d266060840184614ca2565b614d336060860182613c1c565b50614d416080840184614ca2565b614d4e6080860182613c1c565b508091505092915050565b60006020820190508181036000830152614d738184614cb9565b905092915050565b60008160e01c9050919050565b600060033d1115614da75760046000803e614da4600051614d7b565b90505b90565b600060443d10614e3757614dbc613cd0565b60043d036004823e80513d602482011167ffffffffffffffff82111715614de4575050614e37565b808201805167ffffffffffffffff811115614e025750505050614e37565b80602083010160043d038501811115614e1f575050505050614e37565b614e2e8260200185018661423f565b82955050505050505b90565b6000604082019050614e4f6000830185613ec2565b8181036020830152614e6181846143f4565b90509392505050565b6000819050919050565b6000819050919050565b6000614e99614e94614e8f84614e6a565b614e74565b613c12565b9050919050565b614ea981614e7e565b82525050565b6000604082019050614ec46000830185613ec2565b614ed16020830184614ea0565b9392505050565b7f45727220417070726f76616c3000000000000000000000000000000000000000600082015250565b6000614f0e600d836143b9565b9150614f1982614ed8565b602082019050919050565b60006020820190508181036000830152614f3d81614f01565b9050919050565b6000608082019050614f596000830187613ec2565b614f666020830186613ec2565b614f736040830185614384565b614f806060830184614384565b95945050505050565b6000614f9482613c12565b91507fffffffffffffffffffffffffffffffffffffffffffffffffffffffffffffffff8203614fc657614fc56146e0565b5b600182019050919050565b7f496e697469616c697a61626c653a20636f6e747261637420697320616c72656160008201527f647920696e697469616c697a6564000000000000000000000000000000000000602082015250565b600061502d602e836143b9565b915061503882614fd1565b604082019050919050565b6000602082019050818103600083015261505c81615020565b9050919050565b7f41646d696e416464720000000000000000000000000000000000000000000000600082015250565b60006150996009836143b9565b91506150a482615063565b602082019050919050565b600060208201905081810360008301526150c88161508c565b9050919050565b7f5265736375654164647200000000000000000000000000000000000000000000600082015250565b6000615105600a836143b9565b9150615110826150cf565b602082019050919050565b60006020820190508181036000830152615134816150f8565b9050919050565b7f5769746864726177416464720000000000000000000000000000000000000000600082015250565b6000615171600c836143b9565b915061517c8261513b565b602082019050919050565b600060208201905081810360008301526151a081615164565b9050919050565b7f46697273744c656e6465724c6971416464720000000000000000000000000000600082015250565b60006151dd6012836143b9565b91506151e8826151a7565b602082019050919050565b6000602082019050818103600083015261520c816151d0565b9050919050565b7f5365636f6e644c656e6465724c69714164647200000000000000000000000000600082015250565b60006152496013836143b9565b915061525482615213565b602082019050919050565b600060208201905081810360008301526152788161523c565b9050919050565b7f53776170526f7574657241646472000000000000000000000000000000000000600082015250565b60006152b5600e836143b9565b91506152c08261527f565b602082019050919050565b600060208201905081810360008301526152e4816152a8565b9050919050565b7f5377617070657241646472000000000000000000000000000000000000000000600082015250565b6000615321600b836143b9565b915061532c826152eb565b602082019050919050565b6000602082019050818103600083015261535081615314565b9050919050565b6000615362826143ae565b61536c818561451e565b935061537c8185602086016143ca565b80840191505092915050565b60006153948284615357565b915081905092915050565b600060039050919050565b600081905092915050565b6000819050919050565b60006153cb8383614c93565b60208301905092915050565b6000602082019050919050565b6153ed8161539f565b6153f781846153aa565b9250615402826153b5565b8060005b8381101561543b576154188284614c7c565b61542287826153bf565b965061542d836153d7565b925050600181019050615406565b505050505050565b60006101c082019050615459600083018f613ec2565b615466602083018e613ec2565b615473604083018d613ec2565b615480606083018c613ec2565b61548d608083018b613ec2565b61549a60a083018a6153e4565b6154a8610100830189613ec2565b6154b6610120830188613ec2565b6154c4610140830187613ec2565b6154d2610160830186613ec2565b6154e0610180830185613ec2565b6154ee6101a0830184613ec2565b9d9c50505050505050505050505050565b6000819050919050565b600060ff82169050919050565b600061553161552c615527846154ff565b614e74565b615509565b9050919050565b61554181615516565b82525050565b600060208201905061555c6000830184615538565b92915050565b7f416363657373436f6e74726f6c3a2063616e206f6e6c792072656e6f756e636560008201527f20726f6c657320666f722073656c660000000000000000000000000000000000602082015250565b60006155be602f836143b9565b91506155c982615562565b604082019050919050565b600060208201905081810360008301526155ed816155b1565b9050919050565b60006080820190506156096000830188613ec2565b818103602083015261561c818688614567565b905061562b6040830185614384565b6156386060830184614384565b9695505050505050565b7f5265736375653041646472000000000000000000000000000000000000000000600082015250565b6000615678600b836143b9565b915061568382615642565b602082019050919050565b600060208201905081810360008301526156a78161566b565b9050919050565b7f5769746864726177616c206c696d697420657863656564656400000000000000600082015250565b60006156e46019836143b9565b91506156ef826156ae565b602082019050919050565b60006020820190508181036000830152615713816156d7565b9050919050565b600060608201905061572f6000830187613ec2565b8181036020830152615742818587614567565b90506157516040830184614384565b95945050505050565b600060808201905061576f6000830188613ec2565b8181036020830152615782818688614567565b90506157916040830185613ec2565b61579e6060830184613ec2565b9695505050505050565b7f5265656e7472616e637947756172643a207265656e7472616e742063616c6c00600082015250565b60006157de601f836143b9565b91506157e9826157a8565b602082019050919050565b6000602082019050818103600083015261580d816157d1565b9050919050565b7f496e697469616c697a61626c653a20636f6e7472616374206973206e6f74206960008201527f6e697469616c697a696e67000000000000000000000000000000000000000000602082015250565b6000615870602b836143b9565b915061587b82615814565b604082019050919050565b6000602082019050818103600083015261589f81615863565b9050919050565b60006158b182613c12565b91506158bc83613c12565b92508282039050818111156158d4576158d36146e0565b5b92915050565b7f4e487b7100000000000000000000000000000000000000000000000000000000600052601260045260246000fd5b600061591482613c12565b915061591f83613c12565b92508261592f5761592e6158da565b5b828204905092915050565b600061594582613c12565b915061595083613c12565b925082820261595e81613c12565b91508282048414831517615975576159746146e0565b5b5092915050565b7f416363657373436f6e74726f6c3a206163636f756e7420000000000000000000600082015250565b60006159b260178361451e565b91506159bd8261597c565b601782019050919050565b7f206973206d697373696e6720726f6c6520000000000000000000000000000000600082015250565b60006159fe60118361451e565b9150615a09826159c8565b601182019050919050565b6000615a1f826159a5565b9150615a2b8285615357565b9150615a36826159f1565b9150615a428284615357565b91508190509392505050565b7f5361666545524332303a204552433230206f7065726174696f6e20646964206e60008201527f6f74207375636365656400000000000000000000000000000000000000000000602082015250565b6000615aaa602a836143b9565b9150615ab582615a4e565b604082019050919050565b60006020820190508181036000830152615ad981615a9d565b9050919050565b6000615aeb82613c12565b915060008203615afe57615afd6146e0565b5b600182039050919050565b7f537472696e67733a20686578206c656e67746820696e73756666696369656e74600082015250565b6000615b3f6020836143b9565b9150615b4a82615b09565b602082019050919050565b60006020820190508181036000830152615b6e81615b32565b9050919050565b7f4e487b7100000000000000000000000000000000000000000000000000000000600052603160045260246000fd5b7f416464726573733a20696e73756666696369656e742062616c616e636520666f60008201527f722063616c6c0000000000000000000000000000000000000000000000000000602082015250565b6000615c006026836143b9565b9150615c0b82615ba4565b604082019050919050565b60006020820190508181036000830152615c2f81615bf3565b9050919050565b600081519050919050565b600081905092915050565b6000615c5782615c36565b615c618185615c41565b9350615c718185602086016143ca565b80840191505092915050565b6000615c898284615c4c565b915081905092915050565b7f416464726573733a2063616c6c20746f206e6f6e2d636f6e7472616374000000600082015250565b6000615cca601d836143b9565b9150615cd582615c94565b602082019050919050565b60006020820190508181036000830152615cf981615cbd565b905091905056fea264697066735822122087653deb182c30581447372cbabfa6acdd13587198c6a3b8469b528671694bcf64736f6c63430008120033",
  "linkReferences": {},
  "deployedLinkReferences": {}
}