{
  "_format": "hh-sol-artifact-1",
  "contractName": "ColateralContract",
  "sourceName": "contracts/ColateralContract.sol",
  "abi": [
    {
      "inputs": [],
      "stateMutability": "nonpayable",
      "type": "constructor"
    },
    {
      "anonymous": false,
      "inputs": [
        {
          "indexed": false,
          "internalType": "address",
          "name": "sender",
          "type": "address"
        },
        {
          "indexed": false,
          "internalType": "address",
          "name": "usdcTokenAddress",
          "type": "address"
        },
        {
          "indexed": false,
          "internalType": "address",
          "name": "usdtTokenAddress",
          "type": "address"
        },
        {
          "indexed": false,
          "internalType": "address",
          "name": "usdmTokenAddress",
          "type": "address"
        },
        {
          "indexed": false,
          "internalType": "address",
          "name": "wbtcTokenAddress",
          "type": "address"
        },
        {
          "indexed": false,
          "internalType": "address[3]",
          "name": "admins",
          "type": "address[3]"
        },
        {
          "indexed": false,
          "internalType": "address",
          "name": "rescueWalletAddress",
          "type": "address"
        },
        {
          "indexed": false,
          "internalType": "address",
          "name": "withdrawWalletAddress",
          "type": "address"
        },
        {
          "indexed": false,
          "internalType": "address",
          "name": "firstlenderLiq",
          "type": "address"
        },
        {
          "indexed": false,
          "internalType": "address",
          "name": "secondLenderLiq",
          "type": "address"
        },
        {
          "indexed": false,
          "internalType": "address",
          "name": "swapRouterAddress",
          "type": "address"
        },
        {
          "indexed": false,
          "internalType": "address",
          "name": "swapper",
          "type": "address"
        }
      ],
      "name": "Initialize",
      "type": "event"
    },
    {
      "anonymous": false,
      "inputs": [
        {
          "indexed": false,
          "internalType": "uint8",
          "name": "version",
          "type": "uint8"
        }
      ],
      "name": "Initialized",
      "type": "event"
    },
    {
      "anonymous": false,
      "inputs": [
        {
          "indexed": false,
          "internalType": "address",
          "name": "sender",
          "type": "address"
        },
        {
          "indexed": false,
          "internalType": "string",
          "name": "token",
          "type": "string"
        },
        {
          "indexed": false,
          "internalType": "uint256",
          "name": "amount",
          "type": "uint256"
        },
        {
          "indexed": false,
          "internalType": "address",
          "name": "to",
          "type": "address"
        }
      ],
      "name": "Rescue",
      "type": "event"
    },
    {
      "anonymous": false,
      "inputs": [
        {
          "indexed": true,
          "internalType": "bytes32",
          "name": "role",
          "type": "bytes32"
        },
        {
          "indexed": true,
          "internalType": "bytes32",
          "name": "previousAdminRole",
          "type": "bytes32"
        },
        {
          "indexed": true,
          "internalType": "bytes32",
          "name": "newAdminRole",
          "type": "bytes32"
        }
      ],
      "name": "RoleAdminChanged",
      "type": "event"
    },
    {
      "anonymous": false,
      "inputs": [
        {
          "indexed": true,
          "internalType": "bytes32",
          "name": "role",
          "type": "bytes32"
        },
        {
          "indexed": true,
          "internalType": "address",
          "name": "account",
          "type": "address"
        },
        {
          "indexed": true,
          "internalType": "address",
          "name": "sender",
          "type": "address"
        }
      ],
      "name": "RoleGranted",
      "type": "event"
    },
    {
      "anonymous": false,
      "inputs": [
        {
          "indexed": true,
          "internalType": "bytes32",
          "name": "role",
          "type": "bytes32"
        },
        {
          "indexed": true,
          "internalType": "address",
          "name": "account",
          "type": "address"
        },
        {
          "indexed": true,
          "internalType": "address",
          "name": "sender",
          "type": "address"
        }
      ],
      "name": "RoleRevoked",
      "type": "event"
    },
    {
      "anonymous": false,
      "inputs": [
        {
          "indexed": false,
          "internalType": "address",
          "name": "tokenIn",
          "type": "address"
        },
        {
          "indexed": false,
          "internalType": "address",
          "name": "tokenOut",
          "type": "address"
        },
        {
          "indexed": false,
          "internalType": "uint256",
          "name": "amountIn",
          "type": "uint256"
        },
        {
          "indexed": false,
          "internalType": "uint256",
          "name": "amountOut",
          "type": "uint256"
        }
      ],
      "name": "Swap",
      "type": "event"
    },
    {
      "anonymous": false,
      "inputs": [
        {
          "indexed": false,
          "internalType": "address",
          "name": "tokenIn",
          "type": "address"
        },
        {
          "indexed": false,
          "internalType": "string",
          "name": "msg",
          "type": "string"
        }
      ],
      "name": "SwapError",
      "type": "event"
    },
    {
      "anonymous": false,
      "inputs": [
        {
          "indexed": false,
          "internalType": "address",
          "name": "sender",
          "type": "address"
        },
        {
          "indexed": false,
          "internalType": "string",
          "name": "token",
          "type": "string"
        },
        {
          "indexed": false,
          "internalType": "address",
          "name": "oldTokenAddress",
          "type": "address"
        },
        {
          "indexed": false,
          "internalType": "address",
          "name": "newTokenAddress",
          "type": "address"
        }
      ],
      "name": "TokenAddressChange",
      "type": "event"
    },
    {
      "anonymous": false,
      "inputs": [
        {
          "indexed": false,
          "internalType": "address",
          "name": "sender",
          "type": "address"
        },
        {
          "indexed": false,
          "internalType": "string",
          "name": "token",
          "type": "string"
        },
        {
          "indexed": false,
          "internalType": "uint256",
          "name": "amount",
          "type": "uint256"
        }
      ],
      "name": "Withdraw",
      "type": "event"
    },
    {
      "anonymous": false,
      "inputs": [
        {
          "indexed": false,
          "internalType": "address",
          "name": "sender",
          "type": "address"
        },
        {
          "indexed": false,
          "internalType": "string",
          "name": "token",
          "type": "string"
        },
        {
          "indexed": false,
          "internalType": "uint256",
          "name": "oldWithdrawalLimit",
          "type": "uint256"
        },
        {
          "indexed": false,
          "internalType": "uint256",
          "name": "newWithdrawalLimit",
          "type": "uint256"
        }
      ],
      "name": "WithdrawalLimitChange",
      "type": "event"
    },
    {
      "inputs": [],
      "name": "ACONCAGUA_ROLE",
      "outputs": [
        {
          "internalType": "bytes32",
          "name": "",
          "type": "bytes32"
        }
      ],
      "stateMutability": "view",
      "type": "function"
    },
    {
      "inputs": [],
      "name": "DEFAULT_ADMIN_ROLE",
      "outputs": [
        {
          "internalType": "bytes32",
          "name": "",
          "type": "bytes32"
        }
      ],
      "stateMutability": "view",
      "type": "function"
    },
    {
      "inputs": [],
      "name": "LENDER_LIQ_ROLE",
      "outputs": [
        {
          "internalType": "bytes32",
          "name": "",
          "type": "bytes32"
        }
      ],
      "stateMutability": "view",
      "type": "function"
    },
    {
      "inputs": [],
      "name": "PAUSER_ROLE",
      "outputs": [
        {
          "internalType": "bytes32",
          "name": "",
          "type": "bytes32"
        }
      ],
      "stateMutability": "view",
      "type": "function"
    },
    {
      "inputs": [],
      "name": "RESCUER_ROLE",
      "outputs": [
        {
          "internalType": "bytes32",
          "name": "",
          "type": "bytes32"
        }
      ],
      "stateMutability": "view",
      "type": "function"
    },
    {
      "inputs": [],
      "name": "SWAPPER_ROLE",
      "outputs": [
        {
          "internalType": "bytes32",
          "name": "",
          "type": "bytes32"
        }
      ],
      "stateMutability": "view",
      "type": "function"
    },
    {
      "inputs": [],
      "name": "USDC",
      "outputs": [
        {
          "internalType": "string",
          "name": "",
          "type": "string"
        }
      ],
      "stateMutability": "view",
      "type": "function"
    },
    {
      "inputs": [],
      "name": "USDM",
      "outputs": [
        {
          "internalType": "string",
          "name": "",
          "type": "string"
        }
      ],
      "stateMutability": "view",
      "type": "function"
    },
    {
      "inputs": [],
      "name": "USDT",
      "outputs": [
        {
          "internalType": "string",
          "name": "",
          "type": "string"
        }
      ],
      "stateMutability": "view",
      "type": "function"
    },
    {
      "inputs": [],
      "name": "WBTC",
      "outputs": [
        {
          "internalType": "string",
          "name": "",
          "type": "string"
        }
      ],
      "stateMutability": "view",
      "type": "function"
    },
    {
      "inputs": [
        {
          "internalType": "string",
          "name": "_tokenSymbol",
          "type": "string"
        }
      ],
      "name": "balanceOf",
      "outputs": [
        {
          "internalType": "uint256",
          "name": "",
          "type": "uint256"
        }
      ],
      "stateMutability": "view",
      "type": "function"
    },
    {
      "inputs": [],
      "name": "getBalances",
      "outputs": [
        {
          "internalType": "uint256[]",
          "name": "",
          "type": "uint256[]"
        }
      ],
      "stateMutability": "view",
      "type": "function"
    },
    {
      "inputs": [
        {
          "internalType": "bytes32",
          "name": "role",
          "type": "bytes32"
        }
      ],
      "name": "getRoleAdmin",
      "outputs": [
        {
          "internalType": "bytes32",
          "name": "",
          "type": "bytes32"
        }
      ],
      "stateMutability": "view",
      "type": "function"
    },
    {
      "inputs": [
        {
          "internalType": "uint256",
          "name": "index",
          "type": "uint256"
        }
      ],
      "name": "getRoleByIndex",
      "outputs": [
        {
          "internalType": "bytes32",
          "name": "",
          "type": "bytes32"
        }
      ],
      "stateMutability": "view",
      "type": "function"
    },
    {
      "inputs": [],
      "name": "getRoleCount",
      "outputs": [
        {
          "internalType": "uint256",
          "name": "",
          "type": "uint256"
        }
      ],
      "stateMutability": "view",
      "type": "function"
    },
    {
      "inputs": [
        {
          "internalType": "bytes32",
          "name": "role",
          "type": "bytes32"
        },
        {
          "internalType": "uint256",
          "name": "index",
          "type": "uint256"
        }
      ],
      "name": "getRoleMember",
      "outputs": [
        {
          "internalType": "address",
          "name": "",
          "type": "address"
        }
      ],
      "stateMutability": "view",
      "type": "function"
    },
    {
      "inputs": [
        {
          "internalType": "bytes32",
          "name": "role",
          "type": "bytes32"
        }
      ],
      "name": "getRoleMemberCount",
      "outputs": [
        {
          "internalType": "uint256",
          "name": "",
          "type": "uint256"
        }
      ],
      "stateMutability": "view",
      "type": "function"
    },
    {
      "inputs": [
        {
          "internalType": "bytes32",
          "name": "role",
          "type": "bytes32"
        },
        {
          "internalType": "address",
          "name": "account",
          "type": "address"
        }
      ],
      "name": "grantRole",
      "outputs": [],
      "stateMutability": "nonpayable",
      "type": "function"
    },
    {
      "inputs": [
        {
          "internalType": "bytes32",
          "name": "role",
          "type": "bytes32"
        },
        {
          "internalType": "address",
          "name": "account",
          "type": "address"
        }
      ],
      "name": "hasRole",
      "outputs": [
        {
          "internalType": "bool",
          "name": "",
          "type": "bool"
        }
      ],
      "stateMutability": "view",
      "type": "function"
    },
    {
      "inputs": [
        {
          "internalType": "address",
          "name": "_usdcTokenAddress",
          "type": "address"
        },
        {
          "internalType": "address",
          "name": "_usdtTokenAddress",
          "type": "address"
        },
        {
          "internalType": "address",
          "name": "_usdmTokenAddress",
          "type": "address"
        },
        {
          "internalType": "address",
          "name": "_wbtcTokenAddress",
          "type": "address"
        },
        {
          "internalType": "address[3]",
          "name": "_aconcagua",
          "type": "address[3]"
        },
        {
          "internalType": "address",
          "name": "_rescueWalletAddress",
          "type": "address"
        },
        {
          "internalType": "address",
          "name": "_withdrawWalletAddress",
          "type": "address"
        },
        {
          "internalType": "address",
          "name": "_firstLenderLiq",
          "type": "address"
        },
        {
          "internalType": "address",
          "name": "_secondLenderLiq",
          "type": "address"
        },
        {
          "internalType": "address",
          "name": "_swapRouterAddress",
          "type": "address"
        },
        {
          "internalType": "address",
          "name": "_swapper",
          "type": "address"
        }
      ],
      "name": "initialize",
      "outputs": [],
      "stateMutability": "nonpayable",
      "type": "function"
    },
    {
      "inputs": [
        {
          "internalType": "bytes32",
          "name": "role",
          "type": "bytes32"
        },
        {
          "internalType": "address",
          "name": "account",
          "type": "address"
        }
      ],
      "name": "renounceRole",
      "outputs": [],
      "stateMutability": "nonpayable",
      "type": "function"
    },
    {
      "inputs": [
        {
          "internalType": "uint256",
          "name": "_amount",
          "type": "uint256"
        },
        {
          "internalType": "string",
          "name": "_tokenSymbol",
          "type": "string"
        }
      ],
      "name": "rescue",
      "outputs": [],
      "stateMutability": "nonpayable",
      "type": "function"
    },
    {
      "inputs": [],
      "name": "rescueWalletAddress",
      "outputs": [
        {
          "internalType": "address",
          "name": "",
          "type": "address"
        }
      ],
      "stateMutability": "view",
      "type": "function"
    },
    {
      "inputs": [
        {
          "internalType": "bytes32",
          "name": "role",
          "type": "bytes32"
        },
        {
          "internalType": "address",
          "name": "account",
          "type": "address"
        }
      ],
      "name": "revokeRole",
      "outputs": [],
      "stateMutability": "nonpayable",
      "type": "function"
    },
    {
      "inputs": [
        {
          "internalType": "address",
          "name": "_rescueWalletAddress",
          "type": "address"
        }
      ],
      "name": "setRescueWalletAddress",
      "outputs": [],
      "stateMutability": "nonpayable",
      "type": "function"
    },
    {
      "inputs": [
        {
          "internalType": "address",
          "name": "_withdrawWalletAddress",
          "type": "address"
        }
      ],
      "name": "setWithdrawWalletAddress",
      "outputs": [],
      "stateMutability": "nonpayable",
      "type": "function"
    },
    {
      "inputs": [
        {
          "internalType": "bytes4",
          "name": "interfaceId",
          "type": "bytes4"
        }
      ],
      "name": "supportsInterface",
      "outputs": [
        {
          "internalType": "bool",
          "name": "",
          "type": "bool"
        }
      ],
      "stateMutability": "view",
      "type": "function"
    },
    {
      "inputs": [
        {
          "components": [
            {
              "components": [
                {
                  "internalType": "bytes",
                  "name": "path",
                  "type": "bytes"
                },
                {
                  "internalType": "address",
                  "name": "recipient",
                  "type": "address"
                },
                {
                  "internalType": "uint256",
                  "name": "deadline",
                  "type": "uint256"
                },
                {
                  "internalType": "uint256",
                  "name": "amountIn",
                  "type": "uint256"
                },
                {
                  "internalType": "uint256",
                  "name": "amountOutMinimum",
                  "type": "uint256"
                }
              ],
              "internalType": "struct ISwapRouter.ExactInputParams",
              "name": "params",
              "type": "tuple"
            },
            {
              "internalType": "address",
              "name": "tokenIn",
              "type": "address"
            },
            {
              "internalType": "address",
              "name": "tokenOut",
              "type": "address"
            }
          ],
          "internalType": "struct IColateralContract.SwapParams[]",
          "name": "swapsParams",
          "type": "tuple[]"
        }
      ],
      "name": "swapExactInputs",
      "outputs": [],
      "stateMutability": "nonpayable",
      "type": "function"
    },
    {
      "inputs": [
        {
          "internalType": "string",
          "name": "",
          "type": "string"
        }
      ],
      "name": "tokenAddress",
      "outputs": [
        {
          "internalType": "address",
          "name": "",
          "type": "address"
        }
      ],
      "stateMutability": "view",
      "type": "function"
    },
    {
      "inputs": [],
      "name": "version",
      "outputs": [
        {
          "internalType": "string",
          "name": "",
          "type": "string"
        }
      ],
      "stateMutability": "pure",
      "type": "function"
    },
    {
      "inputs": [
        {
          "internalType": "uint256",
          "name": "_amount",
          "type": "uint256"
        },
        {
          "internalType": "string",
          "name": "_tokenSymbol",
          "type": "string"
        }
      ],
      "name": "withdraw",
      "outputs": [],
      "stateMutability": "nonpayable",
      "type": "function"
    },
    {
      "inputs": [],
      "name": "withdrawWalletAddress",
      "outputs": [
        {
          "internalType": "address",
          "name": "",
          "type": "address"
        }
      ],
      "stateMutability": "view",
      "type": "function"
    },
    {
      "stateMutability": "payable",
      "type": "receive"
    }
  ],
  "bytecode": "0x608060405273fcf5986450e4a014ffe7ad4ae24921b589d039b560fd60006101000a81548173ffffffffffffffffffffffffffffffffffffffff021916908373ffffffffffffffffffffffffffffffffffffffff1602179055503480156200006657600080fd5b50620000776200007d60201b60201c565b62000227565b600060019054906101000a900460ff1615620000d0576040517f08c379a0000000000000000000000000000000000000000000000000000000008152600401620000c790620001ca565b60405180910390fd5b60ff801660008054906101000a900460ff1660ff1614620001415760ff6000806101000a81548160ff021916908360ff1602179055507f7f26b83ff96e1f2b6a682f133852f6798a09c465da95921460cefb384740249860ff6040516200013891906200020a565b60405180910390a15b565b600082825260208201905092915050565b7f496e697469616c697a61626c653a20636f6e747261637420697320696e69746960008201527f616c697a696e6700000000000000000000000000000000000000000000000000602082015250565b6000620001b260278362000143565b9150620001bf8262000154565b604082019050919050565b60006020820190508181036000830152620001e581620001a3565b9050919050565b600060ff82169050919050565b6200020481620001ec565b82525050565b6000602082019050620002216000830184620001f9565b92915050565b615b2780620002376000396000f3fe6080604052600436106101e65760003560e01c80637137254411610102578063c54e44eb11610095578063dc048cf211610064578063dc048cf214610842578063df668eca1461086b578063e5df800a14610896578063e63ab1e9146108c157610309565b8063c54e44eb14610788578063ca15c873146107b3578063d00411c9146107f0578063d547741f1461081957610309565b806391d14854116100d157806391d14854146106ca578063a217fddf14610707578063a9da3cf214610732578063b14ec1011461075d57610309565b8063713725441461060c57806383d333191461063757806389a30271146106625780639010d07c1461068d57610309565b80632ffe99421161017a57806336568abe1161014957806336568abe146105505780634dede3de1461057957806354fd4d50146105a45780636e30199f146105cf57610309565b80632ffe99421461049657806332cc815d146104bf578063334347b7146104ea57806335ee5f871461051357610309565b8063212f6039116101b6578063212f6039146103ca578063248a9ca3146103f357806325acc985146104305780632f2ff15d1461046d57610309565b8062113e081461030e57806301ffc9a7146103395780630828c4041461037657806315ac73581461039f57610309565b3661030957601e46036102cc5760fe6040518060400160405280600481526020017f57425443000000000000000000000000000000000000000000000000000000008152506040516102389190613aa2565b908152602001604051809103902060009054906101000a900473ffffffffffffffffffffffffffffffffffffffff1673ffffffffffffffffffffffffffffffffffffffff1663d0e30db0346040518263ffffffff1660e01b81526004016000604051808303818588803b1580156102ae57600080fd5b505af11580156102c2573d6000803e3d6000fd5b5050505050610307565b6040517f08c379a00000000000000000000000000000000000000000000000000000000081526004016102fe90613b16565b60405180910390fd5b005b600080fd5b34801561031a57600080fd5b506103236108ec565b6040516103309190613bfe565b60405180910390f35b34801561034557600080fd5b50610360600480360381019061035b9190613c8c565b610adc565b60405161036d9190613cd4565b60405180910390f35b34801561038257600080fd5b5061039d60048036038101906103989190613d80565b610b56565b005b3480156103ab57600080fd5b506103b4610c6b565b6040516103c19190613e21565b60405180910390f35b3480156103d657600080fd5b506103f160048036038101906103ec9190613e68565b610c91565b005b3480156103ff57600080fd5b5061041a60048036038101906104159190613ecb565b610d70565b6040516104279190613f07565b60405180910390f35b34801561043c57600080fd5b5061045760048036038101906104529190613f22565b610d90565b6040516104649190613f07565b60405180910390f35b34801561047957600080fd5b50610494600480360381019061048f9190613f4f565b610dad565b005b3480156104a257600080fd5b506104bd60048036038101906104b89190613fe5565b610dce565b005b3480156104cb57600080fd5b506104d4611a60565b6040516104e19190613f07565b60405180910390f35b3480156104f657600080fd5b50610511600480360381019061050c9190614054565b611a84565b005b34801561051f57600080fd5b5061053a6004803603810190610535919061428b565b612679565b60405161054791906142e3565b60405180910390f35b34801561055c57600080fd5b5061057760048036038101906105729190613f4f565b61273f565b005b34801561058557600080fd5b5061058e6127c2565b60405161059b9190614337565b60405180910390f35b3480156105b057600080fd5b506105b96127fb565b6040516105c69190614337565b60405180910390f35b3480156105db57600080fd5b506105f660048036038101906105f1919061428b565b612838565b6040516106039190613e21565b60405180910390f35b34801561061857600080fd5b50610621612881565b60405161062e9190613f07565b60405180910390f35b34801561064357600080fd5b5061064c6128a5565b60405161065991906142e3565b60405180910390f35b34801561066e57600080fd5b506106776128b6565b6040516106849190614337565b60405180910390f35b34801561069957600080fd5b506106b460048036038101906106af9190614359565b6128ef565b6040516106c19190613e21565b60405180910390f35b3480156106d657600080fd5b506106f160048036038101906106ec9190613f4f565b61291e565b6040516106fe9190613cd4565b60405180910390f35b34801561071357600080fd5b5061071c612989565b6040516107299190613f07565b60405180910390f35b34801561073e57600080fd5b50610747612990565b6040516107549190614337565b60405180910390f35b34801561076957600080fd5b506107726129c9565b60405161077f9190613e21565b60405180910390f35b34801561079457600080fd5b5061079d6129f0565b6040516107aa9190614337565b60405180910390f35b3480156107bf57600080fd5b506107da60048036038101906107d59190613ecb565b612a29565b6040516107e791906142e3565b60405180910390f35b3480156107fc57600080fd5b5061081760048036038101906108129190613e68565b612a4d565b005b34801561082557600080fd5b50610840600480360381019061083b9190613f4f565b612b2b565b005b34801561084e57600080fd5b5061086960048036038101906108649190613d80565b612b4c565b005b34801561087757600080fd5b50610880612c5a565b60405161088d9190613f07565b60405180910390f35b3480156108a257600080fd5b506108ab612c7e565b6040516108b89190613f07565b60405180910390f35b3480156108cd57600080fd5b506108d6612ca2565b6040516108e39190613f07565b60405180910390f35b60606000600567ffffffffffffffff81111561090b5761090a614160565b5b6040519080825280602002602001820160405280156109395781602001602082028036833780820191505090505b509050478160008151811061095157610950614399565b5b60200260200101818152505061099b6040518060400160405280600481526020017f5553444300000000000000000000000000000000000000000000000000000000815250612679565b816001815181106109af576109ae614399565b5b6020026020010181815250506109f96040518060400160405280600481526020017f5553445400000000000000000000000000000000000000000000000000000000815250612679565b81600281518110610a0d57610a0c614399565b5b602002602001018181525050610a576040518060400160405280600481526020017f5553444d00000000000000000000000000000000000000000000000000000000815250612679565b81600381518110610a6b57610a6a614399565b5b602002602001018181525050610ab56040518060400160405280600481526020017f5742544300000000000000000000000000000000000000000000000000000000815250612679565b81600481518110610ac957610ac8614399565b5b6020026020010181815250508091505090565b60007f5a05180f000000000000000000000000000000000000000000000000000000007bffffffffffffffffffffffffffffffffffffffffffffffffffffffff1916827bffffffffffffffffffffffffffffffffffffffffffffffffffffffff19161480610b4f5750610b4e82612cc6565b5b9050919050565b7fbffb4faf8a508f503a2ca036effd0bc1f82615d3ebfddb934edf718f23672707610b8081612d40565b610b88612d54565b610bf560fe8484604051610b9d9291906143ed565b908152602001604051809103902060009054906101000a900473ffffffffffffffffffffffffffffffffffffffff1660ff60009054906101000a900473ffffffffffffffffffffffffffffffffffffffff1686612da3565b7f22cb89e6358014bb27f5658e2b820189f8f4c9e3f7165ecf266edc53be12d9fa610c1e612e29565b84848760ff60009054906101000a900473ffffffffffffffffffffffffffffffffffffffff16604051610c55959493929190614433565b60405180910390a1610c65612e31565b50505050565b60ff60009054906101000a900473ffffffffffffffffffffffffffffffffffffffff1681565b7ffaad79a708d82d095486f5a83b18341f12a8f717d3011ab929d43135c1af73e2610cbb81612d40565b600073ffffffffffffffffffffffffffffffffffffffff168273ffffffffffffffffffffffffffffffffffffffff1603610d2a576040517f08c379a0000000000000000000000000000000000000000000000000000000008152600401610d21906144cd565b60405180910390fd5b8161010060006101000a81548173ffffffffffffffffffffffffffffffffffffffff021916908373ffffffffffffffffffffffffffffffffffffffff1602179055505050565b600060656000838152602001908152602001600020600101549050919050565b6000610da68260fb612e3b90919063ffffffff16565b9050919050565b610db682610d70565b610dbf81612d40565b610dc98383612e52565b505050565b7fd2761b102bda9831f4af400cc824b8cecb9cc5c1c85c51acb1479db9735fbfc6610df881612d40565b60005b83839050811015611a5a5736848483818110610e1a57610e19614399565b5b9050602002810190610e2c91906144fc565b90503073ffffffffffffffffffffffffffffffffffffffff16818060000190610e559190614524565b6020016020810190610e679190613e68565b73ffffffffffffffffffffffffffffffffffffffff1614610ebd576040517f08c379a0000000000000000000000000000000000000000000000000000000008152600401610eb490614598565b60405180910390fd5b6000818060000190610ecf9190614524565b6080013511610f13576040517f08c379a0000000000000000000000000000000000000000000000000000000008152600401610f0a90614604565b60405180910390fd5b60fe6040518060400160405280600481526020017f5553444300000000000000000000000000000000000000000000000000000000815250604051610f589190613aa2565b908152602001604051809103902060009054906101000a900473ffffffffffffffffffffffffffffffffffffffff1673ffffffffffffffffffffffffffffffffffffffff16816040016020810190610fb09190613e68565b73ffffffffffffffffffffffffffffffffffffffff161480611082575060fe6040518060400160405280600481526020017f55534454000000000000000000000000000000000000000000000000000000008152506040516110129190613aa2565b908152602001604051809103902060009054906101000a900473ffffffffffffffffffffffffffffffffffffffff1673ffffffffffffffffffffffffffffffffffffffff1681604001602081019061106a9190613e68565b73ffffffffffffffffffffffffffffffffffffffff16145b8061113d575060fe6040518060400160405280600481526020017f5553444d000000000000000000000000000000000000000000000000000000008152506040516110cd9190613aa2565b908152602001604051809103902060009054906101000a900473ffffffffffffffffffffffffffffffffffffffff1673ffffffffffffffffffffffffffffffffffffffff168160400160208101906111259190613e68565b73ffffffffffffffffffffffffffffffffffffffff16145b61117c576040517f08c379a000000000000000000000000000000000000000000000000000000000815260040161117390614670565b60405180910390fd5b60008160200160208101906111919190613e68565b905060008280600001906111a59190614524565b6060013511801561124257508073ffffffffffffffffffffffffffffffffffffffff166370a08231306040518263ffffffff1660e01b81526004016111ea9190613e21565b602060405180830381865afa158015611207573d6000803e3d6000fd5b505050506040513d601f19601f8201168201806040525081019061122b91906146a5565b82806000019061123b9190614524565b6060013511155b611281576040517f08c379a00000000000000000000000000000000000000000000000000000000081526004016112789061471e565b60405180910390fd5b601e46036116c657600082604001602081019061129e9190613e68565b73ffffffffffffffffffffffffffffffffffffffff166370a08231306040518263ffffffff1660e01b81526004016112d69190613e21565b602060405180830381865afa1580156112f3573d6000803e3d6000fd5b505050506040513d601f19601f8201168201806040525081019061131791906146a5565b905061135a8261010160009054906101000a900473ffffffffffffffffffffffffffffffffffffffff168580600001906113519190614524565b60600135612da3565b60008060f81b604051602001611370919061478b565b60405160208183030381529060405290506000600167ffffffffffffffff81111561139e5761139d614160565b5b6040519080825280602002602001820160405280156113d157816020015b60608152602001906001900390816113bc5790505b5090508480600001906113e49190614524565b60200160208101906113f69190613e68565b8580600001906114069190614524565b6060013586806000019061141a9190614524565b6080013587806000019061142e9190614524565b806000019061143d91906147a6565b600060405160200161145496959493929190614847565b6040516020818303038152906040528160008151811061147757611476614399565b5b602002602001018190525061010160009054906101000a900473ffffffffffffffffffffffffffffffffffffffff1673ffffffffffffffffffffffffffffffffffffffff16633593564c83838880600001906114d39190614524565b604001356040518463ffffffff1660e01b81526004016114f5939291906149f3565b600060405180830381600087803b15801561150f57600080fd5b505af1925050508015611520575060015b6115ad5761152c614a45565b806308c379a00361159c5750611540614a67565b8061154b575061159e565b7f48dbf1f65dc9fb918dcf47a87d0d7dbfe9cd78bcfaea409049ee36785201cb9186602001602081019061157f9190613e68565b8260405161158e929190614af7565b60405180910390a1506115a8565b505b3d6000803e3d6000fd5b6116be565b60008560400160208101906115c29190613e68565b73ffffffffffffffffffffffffffffffffffffffff166370a08231306040518263ffffffff1660e01b81526004016115fa9190613e21565b602060405180830381865afa158015611617573d6000803e3d6000fd5b505050506040513d601f19601f8201168201806040525081019061163b91906146a5565b90507ffa2dda1cc1b86e41239702756b13effbc1a092b5c57e3ad320fbe4f3b13fe2358660200160208101906116719190613e68565b8760400160208101906116849190613e68565b8880600001906116949190614524565b6060013587856116a49190614b56565b6040516116b49493929190614b8a565b60405180910390a1505b505050611a45565b8073ffffffffffffffffffffffffffffffffffffffff1663095ea7b361010160009054906101000a900473ffffffffffffffffffffffffffffffffffffffff168480600001906117169190614524565b606001356040518363ffffffff1660e01b8152600401611737929190614bcf565b6020604051808303816000875af1158015611756573d6000803e3d6000fd5b505050506040513d601f19601f8201168201806040525081019061177a9190614c24565b6117b9576040517f08c379a00000000000000000000000000000000000000000000000000000000081526004016117b090614c9d565b60405180910390fd5b61010160009054906101000a900473ffffffffffffffffffffffffffffffffffffffff1673ffffffffffffffffffffffffffffffffffffffff1663c04b8d598380600001906118089190614524565b6040518263ffffffff1660e01b81526004016118249190614e39565b6020604051808303816000875af192505050801561186057506040513d601f19601f8201168201806040525081019061185d91906146a5565b60015b6118ed5761186c614a45565b806308c379a0036118dc5750611880614a67565b8061188b57506118de565b7f48dbf1f65dc9fb918dcf47a87d0d7dbfe9cd78bcfaea409049ee36785201cb918360200160208101906118bf9190613e68565b826040516118ce929190614af7565b60405180910390a1506118e8565b505b3d6000803e3d6000fd5b611963565b7ffa2dda1cc1b86e41239702756b13effbc1a092b5c57e3ad320fbe4f3b13fe2358360200160208101906119219190613e68565b8460400160208101906119349190613e68565b8580600001906119449190614524565b60600135846040516119599493929190614b8a565b60405180910390a1505b8073ffffffffffffffffffffffffffffffffffffffff1663095ea7b361010160009054906101000a900473ffffffffffffffffffffffffffffffffffffffff1660006040518363ffffffff1660e01b81526004016119c2929190614ea0565b6020604051808303816000875af11580156119e1573d6000803e3d6000fd5b505050506040513d601f19601f82011682018060405250810190611a059190614c24565b611a44576040517f08c379a0000000000000000000000000000000000000000000000000000000008152600401611a3b90614f15565b60405180910390fd5b5b50508080611a5290614f35565b915050610dfb565b50505050565b7ffd37f88a14d7ed985885a1af8f2ad5b64dd7eb00ab89168649791632bb9bb4a681565b60008060019054906101000a900460ff16159050808015611ab55750600160008054906101000a900460ff1660ff16105b80611ae25750611ac430612e86565b158015611ae15750600160008054906101000a900460ff1660ff16145b5b611b21576040517f08c379a0000000000000000000000000000000000000000000000000000000008152600401611b1890614fef565b60405180910390fd5b60016000806101000a81548160ff021916908360ff1602179055508015611b5e576001600060016101000a81548160ff0219169083151502179055505b600073ffffffffffffffffffffffffffffffffffffffff1688600060038110611b8a57611b89614399565b5b602002016020810190611b9d9190613e68565b73ffffffffffffffffffffffffffffffffffffffff16141580611c135750600073ffffffffffffffffffffffffffffffffffffffff1688600160038110611be757611be6614399565b5b602002016020810190611bfa9190613e68565b73ffffffffffffffffffffffffffffffffffffffff1614155b80611c715750600073ffffffffffffffffffffffffffffffffffffffff1688600260038110611c4557611c44614399565b5b602002016020810190611c589190613e68565b73ffffffffffffffffffffffffffffffffffffffff1614155b611cb0576040517f08c379a0000000000000000000000000000000000000000000000000000000008152600401611ca79061505b565b60405180910390fd5b600073ffffffffffffffffffffffffffffffffffffffff168773ffffffffffffffffffffffffffffffffffffffff1603611d1f576040517f08c379a0000000000000000000000000000000000000000000000000000000008152600401611d16906150c7565b60405180910390fd5b600073ffffffffffffffffffffffffffffffffffffffff168673ffffffffffffffffffffffffffffffffffffffff1603611d8e576040517f08c379a0000000000000000000000000000000000000000000000000000000008152600401611d8590615133565b60405180910390fd5b600073ffffffffffffffffffffffffffffffffffffffff168573ffffffffffffffffffffffffffffffffffffffff1603611dfd576040517f08c379a0000000000000000000000000000000000000000000000000000000008152600401611df49061519f565b60405180910390fd5b600073ffffffffffffffffffffffffffffffffffffffff168473ffffffffffffffffffffffffffffffffffffffff1603611e6c576040517f08c379a0000000000000000000000000000000000000000000000000000000008152600401611e639061520b565b60405180910390fd5b600073ffffffffffffffffffffffffffffffffffffffff168373ffffffffffffffffffffffffffffffffffffffff1603611edb576040517f08c379a0000000000000000000000000000000000000000000000000000000008152600401611ed290615277565b60405180910390fd5b600073ffffffffffffffffffffffffffffffffffffffff168273ffffffffffffffffffffffffffffffffffffffff1603611f4a576040517f08c379a0000000000000000000000000000000000000000000000000000000008152600401611f41906152e3565b60405180910390fd5b611f52612ea9565b611f5a612efa565b8b60fe6040518060400160405280600481526020017f5553444300000000000000000000000000000000000000000000000000000000815250604051611fa09190613aa2565b908152602001604051809103902060006101000a81548173ffffffffffffffffffffffffffffffffffffffff021916908373ffffffffffffffffffffffffffffffffffffffff1602179055508a60fe6040518060400160405280600481526020017f55534454000000000000000000000000000000000000000000000000000000008152506040516120329190613aa2565b908152602001604051809103902060006101000a81548173ffffffffffffffffffffffffffffffffffffffff021916908373ffffffffffffffffffffffffffffffffffffffff1602179055508960fe6040518060400160405280600481526020017f5553444d000000000000000000000000000000000000000000000000000000008152506040516120c49190613aa2565b908152602001604051809103902060006101000a81548173ffffffffffffffffffffffffffffffffffffffff021916908373ffffffffffffffffffffffffffffffffffffffff1602179055508860fe6040518060400160405280600481526020017f57425443000000000000000000000000000000000000000000000000000000008152506040516121569190613aa2565b908152602001604051809103902060006101000a81548173ffffffffffffffffffffffffffffffffffffffff021916908373ffffffffffffffffffffffffffffffffffffffff1602179055508561010060006101000a81548173ffffffffffffffffffffffffffffffffffffffff021916908373ffffffffffffffffffffffffffffffffffffffff1602179055508660ff60006101000a81548173ffffffffffffffffffffffffffffffffffffffff021916908373ffffffffffffffffffffffffffffffffffffffff1602179055508261010160006101000a81548173ffffffffffffffffffffffffffffffffffffffff021916908373ffffffffffffffffffffffffffffffffffffffff16021790555061229b7ffaad79a708d82d095486f5a83b18341f12a8f717d3011ab929d43135c1af73e260fb612f5390919063ffffffff16565b506122d07ffd37f88a14d7ed985885a1af8f2ad5b64dd7eb00ab89168649791632bb9bb4a660fb612f5390919063ffffffff16565b506123057fbffb4faf8a508f503a2ca036effd0bc1f82615d3ebfddb934edf718f2367270760fb612f5390919063ffffffff16565b5061233a7fd2761b102bda9831f4af400cc824b8cecb9cc5c1c85c51acb1479db9735fbfc660fb612f5390919063ffffffff16565b5061238b7ffaad79a708d82d095486f5a83b18341f12a8f717d3011ab929d43135c1af73e28960006003811061237357612372614399565b5b6020020160208101906123869190613e68565b612e52565b6123db7ffaad79a708d82d095486f5a83b18341f12a8f717d3011ab929d43135c1af73e2896001600381106123c3576123c2614399565b5b6020020160208101906123d69190613e68565b612e52565b61242b7ffaad79a708d82d095486f5a83b18341f12a8f717d3011ab929d43135c1af73e28960026003811061241357612412614399565b5b6020020160208101906124269190613e68565b612e52565b6124557ffd37f88a14d7ed985885a1af8f2ad5b64dd7eb00ab89168649791632bb9bb4a686612e52565b61247f7ffd37f88a14d7ed985885a1af8f2ad5b64dd7eb00ab89168649791632bb9bb4a685612e52565b6124a97fbffb4faf8a508f503a2ca036effd0bc1f82615d3ebfddb934edf718f2367270786612e52565b6124d37fbffb4faf8a508f503a2ca036effd0bc1f82615d3ebfddb934edf718f2367270785612e52565b6124fd7fd2761b102bda9831f4af400cc824b8cecb9cc5c1c85c51acb1479db9735fbfc683612e52565b6125277ffaad79a708d82d095486f5a83b18341f12a8f717d3011ab929d43135c1af73e280612f6a565b6125517ffd37f88a14d7ed985885a1af8f2ad5b64dd7eb00ab89168649791632bb9bb4a680612f6a565b61257b7fbffb4faf8a508f503a2ca036effd0bc1f82615d3ebfddb934edf718f2367270780612f6a565b6125c57fd2761b102bda9831f4af400cc824b8cecb9cc5c1c85c51acb1479db9735fbfc67ffaad79a708d82d095486f5a83b18341f12a8f717d3011ab929d43135c1af73e2612f6a565b7fb01aaefdfa9c6d0ab739180ad32400c96c77b263f5e065d3af1002f36219cfeb338d8d8d8d8d8d8d8d8d8d8d60405161260a9c9b9a999897969594939291906153a7565b60405180910390a1801561266b5760008060016101000a81548160ff0219169083151502179055507f7f26b83ff96e1f2b6a682f133852f6798a09c465da95921460cefb3847402498600160405161266291906154ab565b60405180910390a15b505050505050505050505050565b60008060fe8360405161268c9190613aa2565b908152602001604051809103902060009054906101000a900473ffffffffffffffffffffffffffffffffffffffff1690508073ffffffffffffffffffffffffffffffffffffffff166370a08231306040518263ffffffff1660e01b81526004016126f69190613e21565b602060405180830381865afa158015612713573d6000803e3d6000fd5b505050506040513d601f19601f8201168201806040525081019061273791906146a5565b915050919050565b612747612e29565b73ffffffffffffffffffffffffffffffffffffffff168173ffffffffffffffffffffffffffffffffffffffff16146127b4576040517f08c379a00000000000000000000000000000000000000000000000000000000081526004016127ab90615538565b60405180910390fd5b6127be8282612fc6565b5050565b6040518060400160405280600481526020017f574254430000000000000000000000000000000000000000000000000000000081525081565b60606040518060400160405280600581526020017f312e312e31000000000000000000000000000000000000000000000000000000815250905090565b60fe818051602081018201805184825260208301602085012081835280955050505050506000915054906101000a900473ffffffffffffffffffffffffffffffffffffffff1681565b7fbffb4faf8a508f503a2ca036effd0bc1f82615d3ebfddb934edf718f2367270781565b60006128b160fb612ffa565b905090565b6040518060400160405280600481526020017f555344430000000000000000000000000000000000000000000000000000000081525081565b6000612916826097600086815260200190815260200160002061300f90919063ffffffff16565b905092915050565b60006065600084815260200190815260200160002060000160008373ffffffffffffffffffffffffffffffffffffffff1673ffffffffffffffffffffffffffffffffffffffff16815260200190815260200160002060009054906101000a900460ff16905092915050565b6000801b81565b6040518060400160405280600481526020017f5553444d0000000000000000000000000000000000000000000000000000000081525081565b61010060009054906101000a900473ffffffffffffffffffffffffffffffffffffffff1681565b6040518060400160405280600481526020017f555344540000000000000000000000000000000000000000000000000000000081525081565b6000612a4660976000848152602001908152602001600020613029565b9050919050565b7ffaad79a708d82d095486f5a83b18341f12a8f717d3011ab929d43135c1af73e2612a7781612d40565b600073ffffffffffffffffffffffffffffffffffffffff168273ffffffffffffffffffffffffffffffffffffffff1603612ae6576040517f08c379a0000000000000000000000000000000000000000000000000000000008152600401612add906155a4565b60405180910390fd5b8160ff60006101000a81548173ffffffffffffffffffffffffffffffffffffffff021916908373ffffffffffffffffffffffffffffffffffffffff1602179055505050565b612b3482610d70565b612b3d81612d40565b612b478383612fc6565b505050565b7ffd37f88a14d7ed985885a1af8f2ad5b64dd7eb00ab89168649791632bb9bb4a6612b7681612d40565b612b7e612d54565b612bec60fe8484604051612b939291906143ed565b908152602001604051809103902060009054906101000a900473ffffffffffffffffffffffffffffffffffffffff1661010060009054906101000a900473ffffffffffffffffffffffffffffffffffffffff1686612da3565b7f901c03da5d88eb3d62ab4617e7b7d17d86db16356823a7971127d5181a842fef61010060009054906101000a900473ffffffffffffffffffffffffffffffffffffffff16848487604051612c4494939291906155c4565b60405180910390a1612c54612e31565b50505050565b7fd2761b102bda9831f4af400cc824b8cecb9cc5c1c85c51acb1479db9735fbfc681565b7ffaad79a708d82d095486f5a83b18341f12a8f717d3011ab929d43135c1af73e281565b7f539440820030c4994db4e31b6b800deafd503688728f932addfe7a410515c14c81565b60007f7965db0b000000000000000000000000000000000000000000000000000000007bffffffffffffffffffffffffffffffffffffffffffffffffffffffff1916827bffffffffffffffffffffffffffffffffffffffffffffffffffffffff19161480612d395750612d388261303e565b5b9050919050565b612d5181612d4c612e29565b6130a8565b50565b600260c95403612d99576040517f08c379a0000000000000000000000000000000000000000000000000000000008152600401612d9090615650565b60405180910390fd5b600260c981905550565b612e248363a9059cbb60e01b8484604051602401612dc2929190614bcf565b604051602081830303815290604052907bffffffffffffffffffffffffffffffffffffffffffffffffffffffff19166020820180517bffffffffffffffffffffffffffffffffffffffffffffffffffffffff838183161783525050505061312d565b505050565b600033905090565b600160c981905550565b6000612e4a83600001836131f5565b905092915050565b612e5c8282613220565b612e81816097600085815260200190815260200160002061330190919063ffffffff16565b505050565b6000808273ffffffffffffffffffffffffffffffffffffffff163b119050919050565b600060019054906101000a900460ff16612ef8576040517f08c379a0000000000000000000000000000000000000000000000000000000008152600401612eef906156e2565b60405180910390fd5b565b600060019054906101000a900460ff16612f49576040517f08c379a0000000000000000000000000000000000000000000000000000000008152600401612f40906156e2565b60405180910390fd5b600160c981905550565b6000612f628360000183613331565b905092915050565b6000612f7583610d70565b90508160656000858152602001908152602001600020600101819055508181847fbd79b86ffe0ab8e8776151514217cd7cacd52c909f66475c3af44e129f0b00ff60405160405180910390a4505050565b612fd082826133a1565b612ff5816097600085815260200190815260200160002061348390919063ffffffff16565b505050565b6000613008826000016134b3565b9050919050565b600061301e83600001836131f5565b60001c905092915050565b6000613037826000016134b3565b9050919050565b60007f01ffc9a7000000000000000000000000000000000000000000000000000000007bffffffffffffffffffffffffffffffffffffffffffffffffffffffff1916827bffffffffffffffffffffffffffffffffffffffffffffffffffffffff1916149050919050565b6130b2828261291e565b613129576130bf816134c4565b6130cd8360001c60206134f1565b6040516020016130de92919061579a565b6040516020818303038152906040526040517f08c379a00000000000000000000000000000000000000000000000000000000081526004016131209190614337565b60405180910390fd5b5050565b600061318f826040518060400160405280602081526020017f5361666545524332303a206c6f772d6c6576656c2063616c6c206661696c65648152508573ffffffffffffffffffffffffffffffffffffffff1661372d9092919063ffffffff16565b90506000815114806131b15750808060200190518101906131b09190614c24565b5b6131f0576040517f08c379a00000000000000000000000000000000000000000000000000000000081526004016131e790615846565b60405180910390fd5b505050565b600082600001828154811061320d5761320c614399565b5b9060005260206000200154905092915050565b61322a828261291e565b6132fd5760016065600084815260200190815260200160002060000160008373ffffffffffffffffffffffffffffffffffffffff1673ffffffffffffffffffffffffffffffffffffffff16815260200190815260200160002060006101000a81548160ff0219169083151502179055506132a2612e29565b73ffffffffffffffffffffffffffffffffffffffff168173ffffffffffffffffffffffffffffffffffffffff16837f2f8788117e7eff1d82e926ec794901d17c78024a50270940304540a733656f0d60405160405180910390a45b5050565b6000613329836000018373ffffffffffffffffffffffffffffffffffffffff1660001b613331565b905092915050565b600061333d8383613745565b61339657826000018290806001815401808255809150506001900390600052602060002001600090919091909150558260000180549050836001016000848152602001908152602001600020819055506001905061339b565b600090505b92915050565b6133ab828261291e565b1561347f5760006065600084815260200190815260200160002060000160008373ffffffffffffffffffffffffffffffffffffffff1673ffffffffffffffffffffffffffffffffffffffff16815260200190815260200160002060006101000a81548160ff021916908315150217905550613424612e29565b73ffffffffffffffffffffffffffffffffffffffff168173ffffffffffffffffffffffffffffffffffffffff16837ff6391f5c32d9c69d2a47ea670b442974b53935d1edc7fd64eb21e047a839171b60405160405180910390a45b5050565b60006134ab836000018373ffffffffffffffffffffffffffffffffffffffff1660001b613768565b905092915050565b600081600001805490509050919050565b60606134ea8273ffffffffffffffffffffffffffffffffffffffff16601460ff166134f1565b9050919050565b6060600060028360026135049190615866565b61350e91906158a8565b67ffffffffffffffff81111561352757613526614160565b5b6040519080825280601f01601f1916602001820160405280156135595781602001600182028036833780820191505090505b5090507f30000000000000000000000000000000000000000000000000000000000000008160008151811061359157613590614399565b5b60200101907effffffffffffffffffffffffffffffffffffffffffffffffffffffffffffff1916908160001a9053507f7800000000000000000000000000000000000000000000000000000000000000816001815181106135f5576135f4614399565b5b60200101907effffffffffffffffffffffffffffffffffffffffffffffffffffffffffffff1916908160001a905350600060018460026136359190615866565b61363f91906158a8565b90505b60018111156136df577f3031323334353637383961626364656600000000000000000000000000000000600f86166010811061368157613680614399565b5b1a60f81b82828151811061369857613697614399565b5b60200101907effffffffffffffffffffffffffffffffffffffffffffffffffffffffffffff1916908160001a905350600485901c9450806136d8906158dc565b9050613642565b5060008414613723576040517f08c379a000000000000000000000000000000000000000000000000000000000815260040161371a90615951565b60405180910390fd5b8091505092915050565b606061373c848460008561387c565b90509392505050565b600080836001016000848152602001908152602001600020541415905092915050565b6000808360010160008481526020019081526020016000205490506000811461387057600060018261379a9190614b56565b90506000600186600001805490506137b29190614b56565b90508181146138215760008660000182815481106137d3576137d2614399565b5b90600052602060002001549050808760000184815481106137f7576137f6614399565b5b90600052602060002001819055508387600101600083815260200190815260200160002081905550505b8560000180548061383557613834615971565b5b600190038181906000526020600020016000905590558560010160008681526020019081526020016000206000905560019350505050613876565b60009150505b92915050565b6060824710156138c1576040517f08c379a00000000000000000000000000000000000000000000000000000000081526004016138b890615a12565b60405180910390fd5b6000808673ffffffffffffffffffffffffffffffffffffffff1685876040516138ea9190615a6e565b60006040518083038185875af1925050503d8060008114613927576040519150601f19603f3d011682016040523d82523d6000602084013e61392c565b606091505b509150915061393d87838387613949565b92505050949350505050565b606083156139ab5760008351036139a357613963856139be565b6139a2576040517f08c379a000000000000000000000000000000000000000000000000000000000815260040161399990615ad1565b60405180910390fd5b5b8290506139b6565b6139b583836139e1565b5b949350505050565b6000808273ffffffffffffffffffffffffffffffffffffffff163b119050919050565b6000825111156139f45781518083602001fd5b806040517f08c379a0000000000000000000000000000000000000000000000000000000008152600401613a289190614337565b60405180910390fd5b600081519050919050565b600081905092915050565b60005b83811015613a65578082015181840152602081019050613a4a565b60008484015250505050565b6000613a7c82613a31565b613a868185613a3c565b9350613a96818560208601613a47565b80840191505092915050565b6000613aae8284613a71565b915081905092915050565b600082825260208201905092915050565b7f4e6f742070617961626c65206f6e207468697320636861696e00000000000000600082015250565b6000613b00601983613ab9565b9150613b0b82613aca565b602082019050919050565b60006020820190508181036000830152613b2f81613af3565b9050919050565b600081519050919050565b600082825260208201905092915050565b6000819050602082019050919050565b6000819050919050565b613b7581613b62565b82525050565b6000613b878383613b6c565b60208301905092915050565b6000602082019050919050565b6000613bab82613b36565b613bb58185613b41565b9350613bc083613b52565b8060005b83811015613bf1578151613bd88882613b7b565b9750613be383613b93565b925050600181019050613bc4565b5085935050505092915050565b60006020820190508181036000830152613c188184613ba0565b905092915050565b6000604051905090565b600080fd5b600080fd5b60007fffffffff0000000000000000000000000000000000000000000000000000000082169050919050565b613c6981613c34565b8114613c7457600080fd5b50565b600081359050613c8681613c60565b92915050565b600060208284031215613ca257613ca1613c2a565b5b6000613cb084828501613c77565b91505092915050565b60008115159050919050565b613cce81613cb9565b82525050565b6000602082019050613ce96000830184613cc5565b92915050565b613cf881613b62565b8114613d0357600080fd5b50565b600081359050613d1581613cef565b92915050565b600080fd5b600080fd5b600080fd5b60008083601f840112613d4057613d3f613d1b565b5b8235905067ffffffffffffffff811115613d5d57613d5c613d20565b5b602083019150836001820283011115613d7957613d78613d25565b5b9250929050565b600080600060408486031215613d9957613d98613c2a565b5b6000613da786828701613d06565b935050602084013567ffffffffffffffff811115613dc857613dc7613c2f565b5b613dd486828701613d2a565b92509250509250925092565b600073ffffffffffffffffffffffffffffffffffffffff82169050919050565b6000613e0b82613de0565b9050919050565b613e1b81613e00565b82525050565b6000602082019050613e366000830184613e12565b92915050565b613e4581613e00565b8114613e5057600080fd5b50565b600081359050613e6281613e3c565b92915050565b600060208284031215613e7e57613e7d613c2a565b5b6000613e8c84828501613e53565b91505092915050565b6000819050919050565b613ea881613e95565b8114613eb357600080fd5b50565b600081359050613ec581613e9f565b92915050565b600060208284031215613ee157613ee0613c2a565b5b6000613eef84828501613eb6565b91505092915050565b613f0181613e95565b82525050565b6000602082019050613f1c6000830184613ef8565b92915050565b600060208284031215613f3857613f37613c2a565b5b6000613f4684828501613d06565b91505092915050565b60008060408385031215613f6657613f65613c2a565b5b6000613f7485828601613eb6565b9250506020613f8585828601613e53565b9150509250929050565b60008083601f840112613fa557613fa4613d1b565b5b8235905067ffffffffffffffff811115613fc257613fc1613d20565b5b602083019150836020820283011115613fde57613fdd613d25565b5b9250929050565b60008060208385031215613ffc57613ffb613c2a565b5b600083013567ffffffffffffffff81111561401a57614019613c2f565b5b61402685828601613f8f565b92509250509250929050565b60008190508260206003028201111561404e5761404d613d25565b5b92915050565b60008060008060008060008060008060006101a08c8e03121561407a57614079613c2a565b5b60006140888e828f01613e53565b9b505060206140998e828f01613e53565b9a505060406140aa8e828f01613e53565b99505060606140bb8e828f01613e53565b98505060806140cc8e828f01614032565b97505060e06140dd8e828f01613e53565b9650506101006140ef8e828f01613e53565b9550506101206141018e828f01613e53565b9450506101406141138e828f01613e53565b9350506101606141258e828f01613e53565b9250506101806141378e828f01613e53565b9150509295989b509295989b9093969950565b600080fd5b6000601f19601f8301169050919050565b7f4e487b7100000000000000000000000000000000000000000000000000000000600052604160045260246000fd5b6141988261414f565b810181811067ffffffffffffffff821117156141b7576141b6614160565b5b80604052505050565b60006141ca613c20565b90506141d6828261418f565b919050565b600067ffffffffffffffff8211156141f6576141f5614160565b5b6141ff8261414f565b9050602081019050919050565b82818337600083830152505050565b600061422e614229846141db565b6141c0565b90508281526020810184848401111561424a5761424961414a565b5b61425584828561420c565b509392505050565b600082601f83011261427257614271613d1b565b5b813561428284826020860161421b565b91505092915050565b6000602082840312156142a1576142a0613c2a565b5b600082013567ffffffffffffffff8111156142bf576142be613c2f565b5b6142cb8482850161425d565b91505092915050565b6142dd81613b62565b82525050565b60006020820190506142f860008301846142d4565b92915050565b600061430982613a31565b6143138185613ab9565b9350614323818560208601613a47565b61432c8161414f565b840191505092915050565b6000602082019050818103600083015261435181846142fe565b905092915050565b600080604083850312156143705761436f613c2a565b5b600061437e85828601613eb6565b925050602061438f85828601613d06565b9150509250929050565b7f4e487b7100000000000000000000000000000000000000000000000000000000600052603260045260246000fd5b60006143d48385613a3c565b93506143e183858461420c565b82840190509392505050565b60006143fa8284866143c8565b91508190509392505050565b60006144128385613ab9565b935061441f83858461420c565b6144288361414f565b840190509392505050565b60006080820190506144486000830188613e12565b818103602083015261445b818688614406565b905061446a60408301856142d4565b6144776060830184613e12565b9695505050505050565b7f5769746864726177304164647200000000000000000000000000000000000000600082015250565b60006144b7600d83613ab9565b91506144c282614481565b602082019050919050565b600060208201905081810360008301526144e6816144aa565b9050919050565b600080fd5b600080fd5b600080fd5b600082356001606003833603038112614518576145176144ed565b5b80830191505092915050565b60008235600160a0038336030381126145405761453f6144ed565b5b80830191505092915050565b7f45727220726563697069656e7400000000000000000000000000000000000000600082015250565b6000614582600d83613ab9565b915061458d8261454c565b602082019050919050565b600060208201905081810360008301526145b181614575565b9050919050565b7f45727220536c6970700000000000000000000000000000000000000000000000600082015250565b60006145ee600983613ab9565b91506145f9826145b8565b602082019050919050565b6000602082019050818103600083015261461d816145e1565b9050919050565b7f45727220546f6b656e4f75740000000000000000000000000000000000000000600082015250565b600061465a600c83613ab9565b915061466582614624565b602082019050919050565b600060208201905081810360008301526146898161464d565b9050919050565b60008151905061469f81613cef565b92915050565b6000602082840312156146bb576146ba613c2a565b5b60006146c984828501614690565b91505092915050565b7f45727220416d6f756e74496e0000000000000000000000000000000000000000600082015250565b6000614708600c83613ab9565b9150614713826146d2565b602082019050919050565b60006020820190508181036000830152614737816146fb565b9050919050565b60007fff0000000000000000000000000000000000000000000000000000000000000082169050919050565b6000819050919050565b6147856147808261473e565b61476a565b82525050565b60006147978284614774565b60018201915081905092915050565b600080833560016020038436030381126147c3576147c26144ed565b5b80840192508235915067ffffffffffffffff8211156147e5576147e46144f2565b5b602083019250600182023603831315614801576148006144f7565b5b509250929050565b600082825260208201905092915050565b60006148268385614809565b935061483383858461420c565b61483c8361414f565b840190509392505050565b600060a08201905061485c6000830189613e12565b61486960208301886142d4565b61487660408301876142d4565b818103606083015261488981858761481a565b90506148986080830184613cc5565b979650505050505050565b600081519050919050565b60006148b9826148a3565b6148c38185614809565b93506148d3818560208601613a47565b6148dc8161414f565b840191505092915050565b600081519050919050565b600082825260208201905092915050565b6000819050602082019050919050565b600082825260208201905092915050565b600061492f826148a3565b6149398185614913565b9350614949818560208601613a47565b6149528161414f565b840191505092915050565b60006149698383614924565b905092915050565b6000602082019050919050565b6000614989826148e7565b61499381856148f2565b9350836020820285016149a585614903565b8060005b858110156149e157848403895281516149c2858261495d565b94506149cd83614971565b925060208a019950506001810190506149a9565b50829750879550505050505092915050565b60006060820190508181036000830152614a0d81866148ae565b90508181036020830152614a21818561497e565b9050614a3060408301846142d4565b949350505050565b60008160e01c9050919050565b600060033d1115614a645760046000803e614a61600051614a38565b90505b90565b600060443d10614af457614a79613c20565b60043d036004823e80513d602482011167ffffffffffffffff82111715614aa1575050614af4565b808201805167ffffffffffffffff811115614abf5750505050614af4565b80602083010160043d038501811115614adc575050505050614af4565b614aeb8260200185018661418f565b82955050505050505b90565b6000604082019050614b0c6000830185613e12565b8181036020830152614b1e81846142fe565b90509392505050565b7f4e487b7100000000000000000000000000000000000000000000000000000000600052601160045260246000fd5b6000614b6182613b62565b9150614b6c83613b62565b9250828203905081811115614b8457614b83614b27565b5b92915050565b6000608082019050614b9f6000830187613e12565b614bac6020830186613e12565b614bb960408301856142d4565b614bc660608301846142d4565b95945050505050565b6000604082019050614be46000830185613e12565b614bf160208301846142d4565b9392505050565b614c0181613cb9565b8114614c0c57600080fd5b50565b600081519050614c1e81614bf8565b92915050565b600060208284031215614c3a57614c39613c2a565b5b6000614c4884828501614c0f565b91505092915050565b7f45727220417070726f76616c0000000000000000000000000000000000000000600082015250565b6000614c87600c83613ab9565b9150614c9282614c51565b602082019050919050565b60006020820190508181036000830152614cb681614c7a565b9050919050565b600080fd5b600080fd5b600080fd5b60008083356001602003843603038112614ce957614ce8614cc7565b5b83810192508235915060208301925067ffffffffffffffff821115614d1157614d10614cbd565b5b600182023603831315614d2757614d26614cc2565b5b509250929050565b6000614d3b8385614913565b9350614d4883858461420c565b614d518361414f565b840190509392505050565b6000614d6b6020840184613e53565b905092915050565b614d7c81613e00565b82525050565b6000614d916020840184613d06565b905092915050565b600060a08301614dac6000840184614ccc565b8583036000870152614dbf838284614d2f565b92505050614dd06020840184614d5c565b614ddd6020860182614d73565b50614deb6040840184614d82565b614df86040860182613b6c565b50614e066060840184614d82565b614e136060860182613b6c565b50614e216080840184614d82565b614e2e6080860182613b6c565b508091505092915050565b60006020820190508181036000830152614e538184614d99565b905092915050565b6000819050919050565b6000819050919050565b6000614e8a614e85614e8084614e5b565b614e65565b613b62565b9050919050565b614e9a81614e6f565b82525050565b6000604082019050614eb56000830185613e12565b614ec26020830184614e91565b9392505050565b7f45727220417070726f76616c3000000000000000000000000000000000000000600082015250565b6000614eff600d83613ab9565b9150614f0a82614ec9565b602082019050919050565b60006020820190508181036000830152614f2e81614ef2565b9050919050565b6000614f4082613b62565b91507fffffffffffffffffffffffffffffffffffffffffffffffffffffffffffffffff8203614f7257614f71614b27565b5b600182019050919050565b7f496e697469616c697a61626c653a20636f6e747261637420697320616c72656160008201527f647920696e697469616c697a6564000000000000000000000000000000000000602082015250565b6000614fd9602e83613ab9565b9150614fe482614f7d565b604082019050919050565b6000602082019050818103600083015261500881614fcc565b9050919050565b7f41646d696e416464720000000000000000000000000000000000000000000000600082015250565b6000615045600983613ab9565b91506150508261500f565b602082019050919050565b6000602082019050818103600083015261507481615038565b9050919050565b7f5265736375654164647200000000000000000000000000000000000000000000600082015250565b60006150b1600a83613ab9565b91506150bc8261507b565b602082019050919050565b600060208201905081810360008301526150e0816150a4565b9050919050565b7f5769746864726177416464720000000000000000000000000000000000000000600082015250565b600061511d600c83613ab9565b9150615128826150e7565b602082019050919050565b6000602082019050818103600083015261514c81615110565b9050919050565b7f46697273744c656e6465724c6971416464720000000000000000000000000000600082015250565b6000615189601283613ab9565b915061519482615153565b602082019050919050565b600060208201905081810360008301526151b88161517c565b9050919050565b7f5365636f6e644c656e6465724c69714164647200000000000000000000000000600082015250565b60006151f5601383613ab9565b9150615200826151bf565b602082019050919050565b60006020820190508181036000830152615224816151e8565b9050919050565b7f53776170526f7574657241646472000000000000000000000000000000000000600082015250565b6000615261600e83613ab9565b915061526c8261522b565b602082019050919050565b6000602082019050818103600083015261529081615254565b9050919050565b7f5377617070657241646472000000000000000000000000000000000000000000600082015250565b60006152cd600b83613ab9565b91506152d882615297565b602082019050919050565b600060208201905081810360008301526152fc816152c0565b9050919050565b600060039050919050565b600081905092915050565b6000819050919050565b600061532f8383614d73565b60208301905092915050565b6000602082019050919050565b61535181615303565b61535b818461530e565b925061536682615319565b8060005b8381101561539f5761537c8284614d5c565b6153868782615323565b96506153918361533b565b92505060018101905061536a565b505050505050565b60006101c0820190506153bd600083018f613e12565b6153ca602083018e613e12565b6153d7604083018d613e12565b6153e4606083018c613e12565b6153f1608083018b613e12565b6153fe60a083018a615348565b61540c610100830189613e12565b61541a610120830188613e12565b615428610140830187613e12565b615436610160830186613e12565b615444610180830185613e12565b6154526101a0830184613e12565b9d9c50505050505050505050505050565b6000819050919050565b600060ff82169050919050565b600061549561549061548b84615463565b614e65565b61546d565b9050919050565b6154a58161547a565b82525050565b60006020820190506154c0600083018461549c565b92915050565b7f416363657373436f6e74726f6c3a2063616e206f6e6c792072656e6f756e636560008201527f20726f6c657320666f722073656c660000000000000000000000000000000000602082015250565b6000615522602f83613ab9565b915061552d826154c6565b604082019050919050565b6000602082019050818103600083015261555181615515565b9050919050565b7f5265736375653041646472000000000000000000000000000000000000000000600082015250565b600061558e600b83613ab9565b915061559982615558565b602082019050919050565b600060208201905081810360008301526155bd81615581565b9050919050565b60006060820190506155d96000830187613e12565b81810360208301526155ec818587614406565b90506155fb60408301846142d4565b95945050505050565b7f5265656e7472616e637947756172643a207265656e7472616e742063616c6c00600082015250565b600061563a601f83613ab9565b915061564582615604565b602082019050919050565b600060208201905081810360008301526156698161562d565b9050919050565b7f496e697469616c697a61626c653a20636f6e7472616374206973206e6f74206960008201527f6e697469616c697a696e67000000000000000000000000000000000000000000602082015250565b60006156cc602b83613ab9565b91506156d782615670565b604082019050919050565b600060208201905081810360008301526156fb816156bf565b9050919050565b7f416363657373436f6e74726f6c3a206163636f756e7420000000000000000000600082015250565b6000615738601783613a3c565b915061574382615702565b601782019050919050565b7f206973206d697373696e6720726f6c6520000000000000000000000000000000600082015250565b6000615784601183613a3c565b915061578f8261574e565b601182019050919050565b60006157a58261572b565b91506157b18285613a71565b91506157bc82615777565b91506157c88284613a71565b91508190509392505050565b7f5361666545524332303a204552433230206f7065726174696f6e20646964206e60008201527f6f74207375636365656400000000000000000000000000000000000000000000602082015250565b6000615830602a83613ab9565b915061583b826157d4565b604082019050919050565b6000602082019050818103600083015261585f81615823565b9050919050565b600061587182613b62565b915061587c83613b62565b925082820261588a81613b62565b915082820484148315176158a1576158a0614b27565b5b5092915050565b60006158b382613b62565b91506158be83613b62565b92508282019050808211156158d6576158d5614b27565b5b92915050565b60006158e782613b62565b9150600082036158fa576158f9614b27565b5b600182039050919050565b7f537472696e67733a20686578206c656e67746820696e73756666696369656e74600082015250565b600061593b602083613ab9565b915061594682615905565b602082019050919050565b6000602082019050818103600083015261596a8161592e565b9050919050565b7f4e487b7100000000000000000000000000000000000000000000000000000000600052603160045260246000fd5b7f416464726573733a20696e73756666696369656e742062616c616e636520666f60008201527f722063616c6c0000000000000000000000000000000000000000000000000000602082015250565b60006159fc602683613ab9565b9150615a07826159a0565b604082019050919050565b60006020820190508181036000830152615a2b816159ef565b9050919050565b600081905092915050565b6000615a48826148a3565b615a528185615a32565b9350615a62818560208601613a47565b80840191505092915050565b6000615a7a8284615a3d565b915081905092915050565b7f416464726573733a2063616c6c20746f206e6f6e2d636f6e7472616374000000600082015250565b6000615abb601d83613ab9565b9150615ac682615a85565b602082019050919050565b60006020820190508181036000830152615aea81615aae565b905091905056fea2646970667358221220743bb0fce28c9afd5a70202215e8086037ced965e1893ff4af8d91aa4dbc02c064736f6c63430008120033",
  "linkReferences": {},
  "deployedLinkReferences": {}
}