{
  "_format": "hh-sol-artifact-1",
  "contractName": "ColateralContract",
  "sourceName": "contracts/ColateralContract.sol",
  "abi": [
    {
      "inputs": [],
      "stateMutability": "nonpayable",
      "type": "constructor"
    },
    {
      "anonymous": false,
      "inputs": [
        {
          "indexed": false,
          "internalType": "address",
          "name": "sender",
          "type": "address"
        },
        {
          "indexed": false,
          "internalType": "address",
          "name": "usdcTokenAddress",
          "type": "address"
        },
        {
          "indexed": false,
          "internalType": "address",
          "name": "usdtTokenAddress",
          "type": "address"
        },
        {
          "indexed": false,
          "internalType": "address",
          "name": "wbtcTokenAddress",
          "type": "address"
        },
        {
          "indexed": false,
          "internalType": "address",
          "name": "wethTokenAddress",
          "type": "address"
        },
        {
          "indexed": false,
          "internalType": "address",
          "name": "admin",
          "type": "address"
        },
        {
          "indexed": false,
          "internalType": "address",
          "name": "rescueWalletAddress",
          "type": "address"
        },
        {
          "indexed": false,
          "internalType": "address",
          "name": "withdrawWalletAddress",
          "type": "address"
        },
        {
          "indexed": false,
          "internalType": "address",
          "name": "firstlenderLiq",
          "type": "address"
        },
        {
          "indexed": false,
          "internalType": "address",
          "name": "secondLenderLiq",
          "type": "address"
        },
        {
          "indexed": false,
          "internalType": "address",
          "name": "swapRouter",
          "type": "address"
        },
        {
          "indexed": false,
          "internalType": "address",
          "name": "swapperAddress",
          "type": "address"
        }
      ],
      "name": "Initialize",
      "type": "event"
    },
    {
      "anonymous": false,
      "inputs": [
        {
          "indexed": false,
          "internalType": "uint8",
          "name": "version",
          "type": "uint8"
        }
      ],
      "name": "Initialized",
      "type": "event"
    },
    {
      "anonymous": false,
      "inputs": [
        {
          "indexed": false,
          "internalType": "address",
          "name": "account",
          "type": "address"
        }
      ],
      "name": "Paused",
      "type": "event"
    },
    {
      "anonymous": false,
      "inputs": [
        {
          "indexed": false,
          "internalType": "address",
          "name": "sender",
          "type": "address"
        },
        {
          "indexed": false,
          "internalType": "string",
          "name": "token",
          "type": "string"
        },
        {
          "indexed": false,
          "internalType": "uint256",
          "name": "amount",
          "type": "uint256"
        },
        {
          "indexed": false,
          "internalType": "address",
          "name": "to",
          "type": "address"
        }
      ],
      "name": "Rescue",
      "type": "event"
    },
    {
      "anonymous": false,
      "inputs": [
        {
          "indexed": true,
          "internalType": "bytes32",
          "name": "role",
          "type": "bytes32"
        },
        {
          "indexed": true,
          "internalType": "bytes32",
          "name": "previousAdminRole",
          "type": "bytes32"
        },
        {
          "indexed": true,
          "internalType": "bytes32",
          "name": "newAdminRole",
          "type": "bytes32"
        }
      ],
      "name": "RoleAdminChanged",
      "type": "event"
    },
    {
      "anonymous": false,
      "inputs": [
        {
          "indexed": true,
          "internalType": "bytes32",
          "name": "role",
          "type": "bytes32"
        },
        {
          "indexed": true,
          "internalType": "address",
          "name": "account",
          "type": "address"
        },
        {
          "indexed": true,
          "internalType": "address",
          "name": "sender",
          "type": "address"
        }
      ],
      "name": "RoleGranted",
      "type": "event"
    },
    {
      "anonymous": false,
      "inputs": [
        {
          "indexed": true,
          "internalType": "bytes32",
          "name": "role",
          "type": "bytes32"
        },
        {
          "indexed": true,
          "internalType": "address",
          "name": "account",
          "type": "address"
        },
        {
          "indexed": true,
          "internalType": "address",
          "name": "sender",
          "type": "address"
        }
      ],
      "name": "RoleRevoked",
      "type": "event"
    },
    {
      "anonymous": false,
      "inputs": [
        {
          "indexed": false,
          "internalType": "address",
          "name": "tokenIn",
          "type": "address"
        },
        {
          "indexed": false,
          "internalType": "address",
          "name": "tokenOut",
          "type": "address"
        },
        {
          "indexed": false,
          "internalType": "uint256",
          "name": "amountIn",
          "type": "uint256"
        },
        {
          "indexed": false,
          "internalType": "uint256",
          "name": "amountOut",
          "type": "uint256"
        }
      ],
      "name": "Swap",
      "type": "event"
    },
    {
      "anonymous": false,
      "inputs": [
        {
          "indexed": false,
          "internalType": "address",
          "name": "tokenIn",
          "type": "address"
        },
        {
          "indexed": false,
          "internalType": "string",
          "name": "msg",
          "type": "string"
        }
      ],
      "name": "SwapError",
      "type": "event"
    },
    {
      "anonymous": false,
      "inputs": [
        {
          "indexed": false,
          "internalType": "address",
          "name": "sender",
          "type": "address"
        },
        {
          "indexed": false,
          "internalType": "string",
          "name": "token",
          "type": "string"
        },
        {
          "indexed": false,
          "internalType": "address",
          "name": "oldTokenAddress",
          "type": "address"
        },
        {
          "indexed": false,
          "internalType": "address",
          "name": "newTokenAddress",
          "type": "address"
        }
      ],
      "name": "TokenAddressChange",
      "type": "event"
    },
    {
      "anonymous": false,
      "inputs": [
        {
          "indexed": false,
          "internalType": "address",
          "name": "account",
          "type": "address"
        }
      ],
      "name": "Unpaused",
      "type": "event"
    },
    {
      "anonymous": false,
      "inputs": [
        {
          "indexed": false,
          "internalType": "address",
          "name": "sender",
          "type": "address"
        },
        {
          "indexed": false,
          "internalType": "string",
          "name": "token",
          "type": "string"
        },
        {
          "indexed": false,
          "internalType": "uint256",
          "name": "amount",
          "type": "uint256"
        }
      ],
      "name": "Withdraw",
      "type": "event"
    },
    {
      "anonymous": false,
      "inputs": [
        {
          "indexed": false,
          "internalType": "address",
          "name": "sender",
          "type": "address"
        },
        {
          "indexed": false,
          "internalType": "string",
          "name": "token",
          "type": "string"
        },
        {
          "indexed": false,
          "internalType": "uint256",
          "name": "oldWithdrawalLimit",
          "type": "uint256"
        },
        {
          "indexed": false,
          "internalType": "uint256",
          "name": "newWithdrawalLimit",
          "type": "uint256"
        }
      ],
      "name": "WithdrawalLimitChange",
      "type": "event"
    },
    {
      "inputs": [],
      "name": "ACONCAGUA_ROLE",
      "outputs": [
        {
          "internalType": "bytes32",
          "name": "",
          "type": "bytes32"
        }
      ],
      "stateMutability": "view",
      "type": "function"
    },
    {
      "inputs": [],
      "name": "DEFAULT_ADMIN_ROLE",
      "outputs": [
        {
          "internalType": "bytes32",
          "name": "",
          "type": "bytes32"
        }
      ],
      "stateMutability": "view",
      "type": "function"
    },
    {
      "inputs": [],
      "name": "LENDER_LIQ_ROLE",
      "outputs": [
        {
          "internalType": "bytes32",
          "name": "",
          "type": "bytes32"
        }
      ],
      "stateMutability": "view",
      "type": "function"
    },
    {
      "inputs": [],
      "name": "PAUSER_ROLE",
      "outputs": [
        {
          "internalType": "bytes32",
          "name": "",
          "type": "bytes32"
        }
      ],
      "stateMutability": "view",
      "type": "function"
    },
    {
      "inputs": [],
      "name": "RESCUER_ROLE",
      "outputs": [
        {
          "internalType": "bytes32",
          "name": "",
          "type": "bytes32"
        }
      ],
      "stateMutability": "view",
      "type": "function"
    },
    {
      "inputs": [],
      "name": "SWAPPER_ROLE",
      "outputs": [
        {
          "internalType": "bytes32",
          "name": "",
          "type": "bytes32"
        }
      ],
      "stateMutability": "view",
      "type": "function"
    },
    {
      "inputs": [],
      "name": "USDC",
      "outputs": [
        {
          "internalType": "string",
          "name": "",
          "type": "string"
        }
      ],
      "stateMutability": "view",
      "type": "function"
    },
    {
      "inputs": [],
      "name": "USDT",
      "outputs": [
        {
          "internalType": "string",
          "name": "",
          "type": "string"
        }
      ],
      "stateMutability": "view",
      "type": "function"
    },
    {
      "inputs": [],
      "name": "WBTC",
      "outputs": [
        {
          "internalType": "string",
          "name": "",
          "type": "string"
        }
      ],
      "stateMutability": "view",
      "type": "function"
    },
    {
      "inputs": [],
      "name": "WETH",
      "outputs": [
        {
          "internalType": "string",
          "name": "",
          "type": "string"
        }
      ],
      "stateMutability": "view",
      "type": "function"
    },
    {
      "inputs": [
        {
          "internalType": "string",
          "name": "_tokenSymbol",
          "type": "string"
        }
      ],
      "name": "balanceOf",
      "outputs": [
        {
          "internalType": "uint256",
          "name": "",
          "type": "uint256"
        }
      ],
      "stateMutability": "view",
      "type": "function"
    },
    {
      "inputs": [],
      "name": "endTimePeriod",
      "outputs": [
        {
          "internalType": "uint256",
          "name": "",
          "type": "uint256"
        }
      ],
      "stateMutability": "view",
      "type": "function"
    },
    {
      "inputs": [],
      "name": "getBalances",
      "outputs": [
        {
          "internalType": "uint256[]",
          "name": "",
          "type": "uint256[]"
        }
      ],
      "stateMutability": "view",
      "type": "function"
    },
    {
      "inputs": [
        {
          "internalType": "bytes32",
          "name": "role",
          "type": "bytes32"
        }
      ],
      "name": "getRoleAdmin",
      "outputs": [
        {
          "internalType": "bytes32",
          "name": "",
          "type": "bytes32"
        }
      ],
      "stateMutability": "view",
      "type": "function"
    },
    {
      "inputs": [
        {
          "internalType": "uint256",
          "name": "index",
          "type": "uint256"
        }
      ],
      "name": "getRoleByIndex",
      "outputs": [
        {
          "internalType": "bytes32",
          "name": "",
          "type": "bytes32"
        }
      ],
      "stateMutability": "view",
      "type": "function"
    },
    {
      "inputs": [],
      "name": "getRoleCount",
      "outputs": [
        {
          "internalType": "uint256",
          "name": "",
          "type": "uint256"
        }
      ],
      "stateMutability": "view",
      "type": "function"
    },
    {
      "inputs": [
        {
          "internalType": "bytes32",
          "name": "role",
          "type": "bytes32"
        },
        {
          "internalType": "uint256",
          "name": "index",
          "type": "uint256"
        }
      ],
      "name": "getRoleMember",
      "outputs": [
        {
          "internalType": "address",
          "name": "",
          "type": "address"
        }
      ],
      "stateMutability": "view",
      "type": "function"
    },
    {
      "inputs": [
        {
          "internalType": "bytes32",
          "name": "role",
          "type": "bytes32"
        }
      ],
      "name": "getRoleMemberCount",
      "outputs": [
        {
          "internalType": "uint256",
          "name": "",
          "type": "uint256"
        }
      ],
      "stateMutability": "view",
      "type": "function"
    },
    {
      "inputs": [
        {
          "internalType": "bytes32",
          "name": "role",
          "type": "bytes32"
        },
        {
          "internalType": "address",
          "name": "account",
          "type": "address"
        }
      ],
      "name": "grantRole",
      "outputs": [],
      "stateMutability": "nonpayable",
      "type": "function"
    },
    {
      "inputs": [
        {
          "internalType": "bytes32",
          "name": "role",
          "type": "bytes32"
        },
        {
          "internalType": "address",
          "name": "account",
          "type": "address"
        }
      ],
      "name": "hasRole",
      "outputs": [
        {
          "internalType": "bool",
          "name": "",
          "type": "bool"
        }
      ],
      "stateMutability": "view",
      "type": "function"
    },
    {
      "inputs": [
        {
          "internalType": "address",
          "name": "_usdcTokenAddress",
          "type": "address"
        },
        {
          "internalType": "address",
          "name": "_usdtTokenAddress",
          "type": "address"
        },
        {
          "internalType": "address",
          "name": "_wbtcTokenAddress",
          "type": "address"
        },
        {
          "internalType": "address",
          "name": "_wethTokenAddress",
          "type": "address"
        },
        {
          "internalType": "address",
          "name": "_aconcagua",
          "type": "address"
        },
        {
          "internalType": "address",
          "name": "_rescueWalletAddress",
          "type": "address"
        },
        {
          "internalType": "address",
          "name": "_withdrawWalletAddress",
          "type": "address"
        },
        {
          "internalType": "address",
          "name": "_firstLenderLiq",
          "type": "address"
        },
        {
          "internalType": "address",
          "name": "_secondLenderLiq",
          "type": "address"
        },
        {
          "internalType": "address",
          "name": "_swapRouterAddress",
          "type": "address"
        },
        {
          "internalType": "address",
          "name": "_swapperAddress",
          "type": "address"
        }
      ],
      "name": "initialize",
      "outputs": [],
      "stateMutability": "nonpayable",
      "type": "function"
    },
    {
      "inputs": [],
      "name": "pause",
      "outputs": [],
      "stateMutability": "nonpayable",
      "type": "function"
    },
    {
      "inputs": [],
      "name": "paused",
      "outputs": [
        {
          "internalType": "bool",
          "name": "",
          "type": "bool"
        }
      ],
      "stateMutability": "view",
      "type": "function"
    },
    {
      "inputs": [
        {
          "internalType": "bytes32",
          "name": "role",
          "type": "bytes32"
        },
        {
          "internalType": "address",
          "name": "account",
          "type": "address"
        }
      ],
      "name": "renounceRole",
      "outputs": [],
      "stateMutability": "nonpayable",
      "type": "function"
    },
    {
      "inputs": [
        {
          "internalType": "uint256",
          "name": "_amount",
          "type": "uint256"
        },
        {
          "internalType": "string",
          "name": "_tokenSymbol",
          "type": "string"
        }
      ],
      "name": "rescue",
      "outputs": [],
      "stateMutability": "nonpayable",
      "type": "function"
    },
    {
      "inputs": [],
      "name": "rescueWalletAddress",
      "outputs": [
        {
          "internalType": "address",
          "name": "",
          "type": "address"
        }
      ],
      "stateMutability": "view",
      "type": "function"
    },
    {
      "inputs": [
        {
          "internalType": "bytes32",
          "name": "role",
          "type": "bytes32"
        },
        {
          "internalType": "address",
          "name": "account",
          "type": "address"
        }
      ],
      "name": "revokeRole",
      "outputs": [],
      "stateMutability": "nonpayable",
      "type": "function"
    },
    {
      "inputs": [
        {
          "internalType": "address",
          "name": "_rescueWalletAddress",
          "type": "address"
        }
      ],
      "name": "setRescueWalletAddress",
      "outputs": [],
      "stateMutability": "nonpayable",
      "type": "function"
    },
    {
      "inputs": [
        {
          "internalType": "uint256",
          "name": "_startTimePeriod",
          "type": "uint256"
        }
      ],
      "name": "setStartTimePeriod",
      "outputs": [],
      "stateMutability": "nonpayable",
      "type": "function"
    },
    {
      "inputs": [
        {
          "internalType": "address",
          "name": "_tokenAddress",
          "type": "address"
        },
        {
          "internalType": "string",
          "name": "_tokenSymbol",
          "type": "string"
        }
      ],
      "name": "setTokenAddress",
      "outputs": [],
      "stateMutability": "nonpayable",
      "type": "function"
    },
    {
      "inputs": [
        {
          "internalType": "address",
          "name": "_withdrawWalletAddress",
          "type": "address"
        }
      ],
      "name": "setWithdrawWalletAddress",
      "outputs": [],
      "stateMutability": "nonpayable",
      "type": "function"
    },
    {
      "inputs": [
        {
          "internalType": "uint256",
          "name": "_withdrawalLimitPerPeriod",
          "type": "uint256"
        },
        {
          "internalType": "string",
          "name": "_tokenSymbol",
          "type": "string"
        }
      ],
      "name": "setWithdrawalLimitPerPeriod",
      "outputs": [],
      "stateMutability": "nonpayable",
      "type": "function"
    },
    {
      "inputs": [],
      "name": "startTimePeriod",
      "outputs": [
        {
          "internalType": "uint256",
          "name": "",
          "type": "uint256"
        }
      ],
      "stateMutability": "view",
      "type": "function"
    },
    {
      "inputs": [
        {
          "internalType": "bytes4",
          "name": "interfaceId",
          "type": "bytes4"
        }
      ],
      "name": "supportsInterface",
      "outputs": [
        {
          "internalType": "bool",
          "name": "",
          "type": "bool"
        }
      ],
      "stateMutability": "view",
      "type": "function"
    },
    {
      "inputs": [
        {
          "components": [
            {
              "components": [
                {
                  "internalType": "bytes",
                  "name": "path",
                  "type": "bytes"
                },
                {
                  "internalType": "address",
                  "name": "recipient",
                  "type": "address"
                },
                {
                  "internalType": "uint256",
                  "name": "deadline",
                  "type": "uint256"
                },
                {
                  "internalType": "uint256",
                  "name": "amountIn",
                  "type": "uint256"
                },
                {
                  "internalType": "uint256",
                  "name": "amountOutMinimum",
                  "type": "uint256"
                }
              ],
              "internalType": "struct ISwapRouter.ExactInputParams",
              "name": "params",
              "type": "tuple"
            },
            {
              "internalType": "address",
              "name": "tokenIn",
              "type": "address"
            },
            {
              "internalType": "address",
              "name": "tokenOut",
              "type": "address"
            }
          ],
          "internalType": "struct IColateralContract.SwapParams[]",
          "name": "swapsParams",
          "type": "tuple[]"
        }
      ],
      "name": "swapExactInputs",
      "outputs": [],
      "stateMutability": "nonpayable",
      "type": "function"
    },
    {
      "inputs": [
        {
          "internalType": "string",
          "name": "",
          "type": "string"
        }
      ],
      "name": "tokenAddress",
      "outputs": [
        {
          "internalType": "address",
          "name": "",
          "type": "address"
        }
      ],
      "stateMutability": "view",
      "type": "function"
    },
    {
      "inputs": [
        {
          "internalType": "string",
          "name": "",
          "type": "string"
        }
      ],
      "name": "tokensWithdrawnInTheLastPeriod",
      "outputs": [
        {
          "internalType": "uint256",
          "name": "",
          "type": "uint256"
        }
      ],
      "stateMutability": "view",
      "type": "function"
    },
    {
      "inputs": [],
      "name": "unpause",
      "outputs": [],
      "stateMutability": "nonpayable",
      "type": "function"
    },
    {
      "inputs": [],
      "name": "version",
      "outputs": [
        {
          "internalType": "string",
          "name": "",
          "type": "string"
        }
      ],
      "stateMutability": "pure",
      "type": "function"
    },
    {
      "inputs": [
        {
          "internalType": "uint256",
          "name": "_amount",
          "type": "uint256"
        },
        {
          "internalType": "string",
          "name": "_tokenSymbol",
          "type": "string"
        }
      ],
      "name": "withdraw",
      "outputs": [],
      "stateMutability": "nonpayable",
      "type": "function"
    },
    {
      "inputs": [],
      "name": "withdrawWalletAddress",
      "outputs": [
        {
          "internalType": "address",
          "name": "",
          "type": "address"
        }
      ],
      "stateMutability": "view",
      "type": "function"
    },
    {
      "inputs": [
        {
          "internalType": "string",
          "name": "",
          "type": "string"
        }
      ],
      "name": "withdrawalLimitPerPeriod",
      "outputs": [
        {
          "internalType": "uint256",
          "name": "",
          "type": "uint256"
        }
      ],
      "stateMutability": "view",
      "type": "function"
    }
  ],
  "bytecode": "0x60806040523480156200001157600080fd5b5060008060019054906101000a900460ff16159050808015620000445750600160008054906101000a900460ff1660ff16105b8062000080575062000061306200016360201b62002af41760201c565b1580156200007f5750600160008054906101000a900460ff1660ff16145b5b620000c2576040517f08c379a0000000000000000000000000000000000000000000000000000000008152600401620000b9906200020d565b60405180910390fd5b60016000806101000a81548160ff021916908360ff160217905550801562000100576001600060016101000a81548160ff0219169083151502179055505b80156200015c5760008060016101000a81548160ff0219169083151502179055507f7f26b83ff96e1f2b6a682f133852f6798a09c465da95921460cefb3847402498600160405162000153919062000289565b60405180910390a15b50620002a6565b6000808273ffffffffffffffffffffffffffffffffffffffff163b119050919050565b600082825260208201905092915050565b7f496e697469616c697a61626c653a20636f6e747261637420697320616c72656160008201527f647920696e697469616c697a6564000000000000000000000000000000000000602082015250565b6000620001f5602e8362000186565b9150620002028262000197565b604082019050919050565b600060208201905081810360008301526200022881620001e6565b9050919050565b6000819050919050565b600060ff82169050919050565b6000819050919050565b6000620002716200026b62000265846200022f565b62000246565b62000239565b9050919050565b620002838162000250565b82525050565b6000602082019050620002a0600083018462000278565b92915050565b615e1d80620002b66000396000f3fe608060405234801561001057600080fd5b506004361061025d5760003560e01c806376902b8311610146578063ad5c4648116100c3578063d547741f11610087578063d547741f14610714578063dc048cf214610730578063df668eca1461074c578063e387c9541461076a578063e5df800a14610786578063e63ab1e9146107a45761025d565b8063ad5c46481461066e578063b14ec1011461068c578063c54e44eb146106aa578063ca15c873146106c8578063d00411c9146106f85761025d565b806389a302711161010a57806389a30271146105a25780639010d07c146105c057806391d14854146105f05780639733749a14610620578063a217fddf146106505761025d565b806376902b831461052257806378ed0da01461053e57806383d333191461055c5780638456cb591461057a578063866ba88c146105845761025d565b806332cc815d116101df57806354fd4d50116101a357806354fd4d501461044c57806358f4354b1461046a5780635c975abb1461049a578063669d3f03146104b85780636e30199f146104d457806371372544146105045761025d565b806332cc815d146103ba57806335ee5f87146103d857806336568abe146104085780633f4ba83a146104245780634dede3de1461042e5761025d565b8063248a9ca311610226578063248a9ca31461030657806325acc985146103365780632c9c3873146103665780632f2ff15d146103825780632ffe99421461039e5761025d565b8062113e081461026257806301ffc9a7146102805780630828c404146102b057806315ac7358146102cc578063212f6039146102ea575b600080fd5b61026a6107c2565b6040516102779190613d6b565b60405180910390f35b61029a60048036038101906102959190613df9565b6109b2565b6040516102a79190613e41565b60405180910390f35b6102ca60048036038101906102c59190613eed565b610a2c565b005b6102d4610b4c565b6040516102e19190613f8e565b60405180910390f35b61030460048036038101906102ff9190613fd5565b610b73565b005b610320600480360381019061031b9190614038565b610c52565b60405161032d9190614074565b60405180910390f35b610350600480360381019061034b919061408f565b610c72565b60405161035d9190614074565b60405180910390f35b610380600480360381019061037b919061408f565b610c90565b005b61039c600480360381019061039791906140bc565b610d74565b005b6103b860048036038101906103b39190614152565b610d95565b005b6103c261149f565b6040516103cf9190614074565b60405180910390f35b6103f260048036038101906103ed91906142e0565b6114c3565b6040516103ff9190614338565b60405180910390f35b610422600480360381019061041d91906140bc565b61158a565b005b61042c61160d565b005b61043661161f565b60405161044391906143d2565b60405180910390f35b610454611658565b60405161046191906143d2565b60405180910390f35b610484600480360381019061047f91906142e0565b611695565b6040516104919190614338565b60405180910390f35b6104a26116c4565b6040516104af9190613e41565b60405180910390f35b6104d260048036038101906104cd9190613eed565b6116db565b005b6104ee60048036038101906104e991906142e0565b611797565b6040516104fb9190613f8e565b60405180910390f35b61050c6117e1565b6040516105199190614074565b60405180910390f35b61053c600480360381019061053791906143f4565b611805565b005b610546612493565b6040516105539190614338565b60405180910390f35b61056461249a565b6040516105719190614338565b60405180910390f35b6105826124ac565b005b61058c6124be565b6040516105999190614338565b60405180910390f35b6105aa6124c5565b6040516105b791906143d2565b60405180910390f35b6105da60048036038101906105d591906144e8565b6124fe565b6040516105e79190613f8e565b60405180910390f35b61060a600480360381019061060591906140bc565b61252d565b6040516106179190613e41565b60405180910390f35b61063a600480360381019061063591906142e0565b612598565b6040516106479190614338565b60405180910390f35b6106586125c7565b6040516106659190614074565b60405180910390f35b6106766125ce565b60405161068391906143d2565b60405180910390f35b610694612607565b6040516106a19190613f8e565b60405180910390f35b6106b261262e565b6040516106bf91906143d2565b60405180910390f35b6106e260048036038101906106dd9190614038565b612667565b6040516106ef9190614338565b60405180910390f35b610712600480360381019061070d9190613fd5565b61268b565b005b61072e600480360381019061072991906140bc565b61276a565b005b61074a60048036038101906107459190613eed565b61278b565b005b610754612972565b6040516107619190614074565b60405180910390f35b610784600480360381019061077f9190614528565b612996565b005b61078e612aac565b60405161079b9190614074565b60405180910390f35b6107ac612ad0565b6040516107b99190614074565b60405180910390f35b60606000600567ffffffffffffffff8111156107e1576107e06141b5565b5b60405190808252806020026020018201604052801561080f5781602001602082028036833780820191505090505b509050478160008151811061082757610826614588565b5b6020026020010181815250506108716040518060400160405280600481526020017f55534443000000000000000000000000000000000000000000000000000000008152506114c3565b8160018151811061088557610884614588565b5b6020026020010181815250506108cf6040518060400160405280600481526020017f55534454000000000000000000000000000000000000000000000000000000008152506114c3565b816002815181106108e3576108e2614588565b5b60200260200101818152505061092d6040518060400160405280600481526020017f57425443000000000000000000000000000000000000000000000000000000008152506114c3565b8160038151811061094157610940614588565b5b60200260200101818152505061098b6040518060400160405280600481526020017f57455448000000000000000000000000000000000000000000000000000000008152506114c3565b8160048151811061099f5761099e614588565b5b6020026020010181815250508091505090565b60007f5a05180f000000000000000000000000000000000000000000000000000000007bffffffffffffffffffffffffffffffffffffffffffffffffffffffff1916827bffffffffffffffffffffffffffffffffffffffffffffffffffffffff19161480610a255750610a2482612b17565b5b9050919050565b7fbffb4faf8a508f503a2ca036effd0bc1f82615d3ebfddb934edf718f23672707610a5681612b91565b610a5e612ba5565b610a66612bef565b610ad561012f8484604051610a7c9291906145e7565b908152602001604051809103902060009054906101000a900473ffffffffffffffffffffffffffffffffffffffff1661013460009054906101000a900473ffffffffffffffffffffffffffffffffffffffff1686612c3e565b7f22cb89e6358014bb27f5658e2b820189f8f4c9e3f7165ecf266edc53be12d9fa610afe612cc4565b84848761013460009054906101000a900473ffffffffffffffffffffffffffffffffffffffff16604051610b3695949392919061462d565b60405180910390a1610b46612ccc565b50505050565b61013460009054906101000a900473ffffffffffffffffffffffffffffffffffffffff1681565b7ffaad79a708d82d095486f5a83b18341f12a8f717d3011ab929d43135c1af73e2610b9d81612b91565b600073ffffffffffffffffffffffffffffffffffffffff168273ffffffffffffffffffffffffffffffffffffffff1603610c0c576040517f08c379a0000000000000000000000000000000000000000000000000000000008152600401610c03906146c7565b60405180910390fd5b8161013560006101000a81548173ffffffffffffffffffffffffffffffffffffffff021916908373ffffffffffffffffffffffffffffffffffffffff1602179055505050565b600060656000838152602001908152602001600020600101549050919050565b6000610c898261012d612cd690919063ffffffff16565b9050919050565b7ffaad79a708d82d095486f5a83b18341f12a8f717d3011ab929d43135c1af73e2610cba81612b91565b610132548210610cff576040517f08c379a0000000000000000000000000000000000000000000000000000000008152600401610cf690614759565b60405180910390fd5b426201518083610d0f91906147a8565b11610d4f576040517f08c379a0000000000000000000000000000000000000000000000000000000008152600401610d469061484e565b60405180910390fd5b81610132819055506201518061013254610d6991906147a8565b610133819055505050565b610d7d82610c52565b610d8681612b91565b610d908383612ced565b505050565b7fd2761b102bda9831f4af400cc824b8cecb9cc5c1c85c51acb1479db9735fbfc6610dbf81612b91565b60008383905011610e05576040517f08c379a0000000000000000000000000000000000000000000000000000000008152600401610dfc906148ba565b60405180910390fd5b60005b838390508110156114995736848483818110610e2757610e26614588565b5b9050602002810190610e3991906148df565b90503073ffffffffffffffffffffffffffffffffffffffff16818060000190610e629190614907565b6020016020810190610e749190613fd5565b73ffffffffffffffffffffffffffffffffffffffff1614610eca576040517f08c379a0000000000000000000000000000000000000000000000000000000008152600401610ec1906149a1565b60405180910390fd5b6000818060000190610edc9190614907565b6080013511610f20576040517f08c379a0000000000000000000000000000000000000000000000000000000008152600401610f1790614a33565b60405180910390fd5b6000816020016020810190610f359190613fd5565b90506000828060000190610f499190614907565b60600135118015610fe657508073ffffffffffffffffffffffffffffffffffffffff166370a08231306040518263ffffffff1660e01b8152600401610f8e9190613f8e565b602060405180830381865afa158015610fab573d6000803e3d6000fd5b505050506040513d601f19601f82011682018060405250810190610fcf9190614a68565b828060000190610fdf9190614907565b6060013511155b611025576040517f08c379a000000000000000000000000000000000000000000000000000000000815260040161101c90614ae1565b60405180910390fd5b8073ffffffffffffffffffffffffffffffffffffffff1663095ea7b361013660009054906101000a900473ffffffffffffffffffffffffffffffffffffffff168480600001906110759190614907565b606001356040518363ffffffff1660e01b8152600401611096929190614b01565b6020604051808303816000875af11580156110b5573d6000803e3d6000fd5b505050506040513d601f19601f820116820180604052508101906110d99190614b56565b611118576040517f08c379a000000000000000000000000000000000000000000000000000000000815260040161110f90614bcf565b60405180910390fd5b61013660009054906101000a900473ffffffffffffffffffffffffffffffffffffffff1673ffffffffffffffffffffffffffffffffffffffff1663c04b8d598380600001906111679190614907565b6040518263ffffffff1660e01b81526004016111839190614d7c565b6020604051808303816000875af19250505080156111bf57506040513d601f19601f820116820180604052508101906111bc9190614a68565b60015b61132d576111cb614dab565b806308c379a00361131c57506111df614dcd565b806111ea575061131e565b7f48dbf1f65dc9fb918dcf47a87d0d7dbfe9cd78bcfaea409049ee36785201cb9183602001602081019061121e9190613fd5565b8260405161122d929190614e5d565b60405180910390a18173ffffffffffffffffffffffffffffffffffffffff1663095ea7b361013660009054906101000a900473ffffffffffffffffffffffffffffffffffffffff1660006040518363ffffffff1660e01b8152600401611294929190614ed2565b6020604051808303816000875af11580156112b3573d6000803e3d6000fd5b505050506040513d601f19601f820116820180604052508101906112d79190614b56565b611316576040517f08c379a000000000000000000000000000000000000000000000000000000000815260040161130d90614f47565b60405180910390fd5b50611328565b505b3d6000803e3d6000fd5b611484565b7ffa2dda1cc1b86e41239702756b13effbc1a092b5c57e3ad320fbe4f3b13fe2358360200160208101906113619190613fd5565b8460400160208101906113749190613fd5565b8580600001906113849190614907565b60600135846040516113999493929190614f67565b60405180910390a18173ffffffffffffffffffffffffffffffffffffffff1663095ea7b361013660009054906101000a900473ffffffffffffffffffffffffffffffffffffffff1660006040518363ffffffff1660e01b8152600401611400929190614ed2565b6020604051808303816000875af115801561141f573d6000803e3d6000fd5b505050506040513d601f19601f820116820180604052508101906114439190614b56565b611482576040517f08c379a000000000000000000000000000000000000000000000000000000000815260040161147990614f47565b60405180910390fd5b505b5050808061149190614fac565b915050610e08565b50505050565b7ffd37f88a14d7ed985885a1af8f2ad5b64dd7eb00ab89168649791632bb9bb4a681565b60008061012f836040516114d79190615025565b908152602001604051809103902060009054906101000a900473ffffffffffffffffffffffffffffffffffffffff1690508073ffffffffffffffffffffffffffffffffffffffff166370a08231306040518263ffffffff1660e01b81526004016115419190613f8e565b602060405180830381865afa15801561155e573d6000803e3d6000fd5b505050506040513d601f19601f820116820180604052508101906115829190614a68565b915050919050565b611592612cc4565b73ffffffffffffffffffffffffffffffffffffffff168173ffffffffffffffffffffffffffffffffffffffff16146115ff576040517f08c379a00000000000000000000000000000000000000000000000000000000081526004016115f6906150ae565b60405180910390fd5b6116098282612d21565b5050565b611615612d55565b61161d612dff565b565b6040518060400160405280600481526020017f574254430000000000000000000000000000000000000000000000000000000081525081565b60606040518060400160405280600581526020017f312e302e30000000000000000000000000000000000000000000000000000000815250905090565b610131818051602081018201805184825260208301602085012081835280955050505050506000915090505481565b600060c960009054906101000a900460ff16905090565b7ffaad79a708d82d095486f5a83b18341f12a8f717d3011ab929d43135c1af73e261170581612b91565b6000610130848460405161171a9291906145e7565b908152602001604051809103902054905084610130858560405161173f9291906145e7565b9081526020016040518091039020819055507f0f2e8bfc06e6af8616ccee187022bf26cdb3a9e3d68cb7b17a2428a859cfc82533858584896040516117889594939291906150ce565b60405180910390a15050505050565b61012f818051602081018201805184825260208301602085012081835280955050505050506000915054906101000a900473ffffffffffffffffffffffffffffffffffffffff1681565b7fbffb4faf8a508f503a2ca036effd0bc1f82615d3ebfddb934edf718f2367270781565b60008060019054906101000a900460ff161590508080156118365750600160008054906101000a900460ff1660ff16105b80611863575061184530612af4565b1580156118625750600160008054906101000a900460ff1660ff16145b5b6118a2576040517f08c379a00000000000000000000000000000000000000000000000000000000081526004016118999061518e565b60405180910390fd5b60016000806101000a81548160ff021916908360ff16021790555080156118df576001600060016101000a81548160ff0219169083151502179055505b600073ffffffffffffffffffffffffffffffffffffffff168873ffffffffffffffffffffffffffffffffffffffff160361194e576040517f08c379a0000000000000000000000000000000000000000000000000000000008152600401611945906151fa565b60405180910390fd5b600073ffffffffffffffffffffffffffffffffffffffff168773ffffffffffffffffffffffffffffffffffffffff16036119bd576040517f08c379a00000000000000000000000000000000000000000000000000000000081526004016119b490615266565b60405180910390fd5b600073ffffffffffffffffffffffffffffffffffffffff168673ffffffffffffffffffffffffffffffffffffffff1603611a2c576040517f08c379a0000000000000000000000000000000000000000000000000000000008152600401611a23906152d2565b60405180910390fd5b600073ffffffffffffffffffffffffffffffffffffffff168573ffffffffffffffffffffffffffffffffffffffff1603611a9b576040517f08c379a0000000000000000000000000000000000000000000000000000000008152600401611a929061533e565b60405180910390fd5b600073ffffffffffffffffffffffffffffffffffffffff168473ffffffffffffffffffffffffffffffffffffffff1603611b0a576040517f08c379a0000000000000000000000000000000000000000000000000000000008152600401611b01906153d0565b60405180910390fd5b600073ffffffffffffffffffffffffffffffffffffffff168373ffffffffffffffffffffffffffffffffffffffff1603611b79576040517f08c379a0000000000000000000000000000000000000000000000000000000008152600401611b709061543c565b60405180910390fd5b600073ffffffffffffffffffffffffffffffffffffffff168273ffffffffffffffffffffffffffffffffffffffff1603611be8576040517f08c379a0000000000000000000000000000000000000000000000000000000008152600401611bdf906154a8565b60405180910390fd5b611bf0612e62565b611bf8612eb3565b611c00612f1f565b8b61012f6040518060400160405280600481526020017f5553444300000000000000000000000000000000000000000000000000000000815250604051611c479190615025565b908152602001604051809103902060006101000a81548173ffffffffffffffffffffffffffffffffffffffff021916908373ffffffffffffffffffffffffffffffffffffffff1602179055508a61012f6040518060400160405280600481526020017f5553445400000000000000000000000000000000000000000000000000000000815250604051611cda9190615025565b908152602001604051809103902060006101000a81548173ffffffffffffffffffffffffffffffffffffffff021916908373ffffffffffffffffffffffffffffffffffffffff1602179055508961012f6040518060400160405280600481526020017f5742544300000000000000000000000000000000000000000000000000000000815250604051611d6d9190615025565b908152602001604051809103902060006101000a81548173ffffffffffffffffffffffffffffffffffffffff021916908373ffffffffffffffffffffffffffffffffffffffff1602179055508861012f6040518060400160405280600481526020017f5745544800000000000000000000000000000000000000000000000000000000815250604051611e009190615025565b908152602001604051809103902060006101000a81548173ffffffffffffffffffffffffffffffffffffffff021916908373ffffffffffffffffffffffffffffffffffffffff16021790555042610132819055506201518061013254611e6691906147a8565b610133819055507fffffffffffffffffffffffffffffffffffffffffffffffffffffffffffffffff6101306040518060400160405280600481526020017f5553444300000000000000000000000000000000000000000000000000000000815250604051611ed49190615025565b9081526020016040518091039020819055507fffffffffffffffffffffffffffffffffffffffffffffffffffffffffffffffff6101306040518060400160405280600481526020017f5553445400000000000000000000000000000000000000000000000000000000815250604051611f4d9190615025565b9081526020016040518091039020819055507fffffffffffffffffffffffffffffffffffffffffffffffffffffffffffffffff6101306040518060400160405280600481526020017f5742544300000000000000000000000000000000000000000000000000000000815250604051611fc69190615025565b9081526020016040518091039020819055507fffffffffffffffffffffffffffffffffffffffffffffffffffffffffffffffff6101306040518060400160405280600481526020017f574554480000000000000000000000000000000000000000000000000000000081525060405161203f9190615025565b9081526020016040518091039020819055508561013560006101000a81548173ffffffffffffffffffffffffffffffffffffffff021916908373ffffffffffffffffffffffffffffffffffffffff1602179055508661013460006101000a81548173ffffffffffffffffffffffffffffffffffffffff021916908373ffffffffffffffffffffffffffffffffffffffff1602179055508261013660006101000a81548173ffffffffffffffffffffffffffffffffffffffff021916908373ffffffffffffffffffffffffffffffffffffffff16021790555061214c7ffaad79a708d82d095486f5a83b18341f12a8f717d3011ab929d43135c1af73e261012d612f7890919063ffffffff16565b506121827ffd37f88a14d7ed985885a1af8f2ad5b64dd7eb00ab89168649791632bb9bb4a661012d612f7890919063ffffffff16565b506121b87fbffb4faf8a508f503a2ca036effd0bc1f82615d3ebfddb934edf718f2367270761012d612f7890919063ffffffff16565b506121ee7f539440820030c4994db4e31b6b800deafd503688728f932addfe7a410515c14c61012d612f7890919063ffffffff16565b506122247fd2761b102bda9831f4af400cc824b8cecb9cc5c1c85c51acb1479db9735fbfc661012d612f7890919063ffffffff16565b5061224f7ffaad79a708d82d095486f5a83b18341f12a8f717d3011ab929d43135c1af73e289612ced565b6122797ffd37f88a14d7ed985885a1af8f2ad5b64dd7eb00ab89168649791632bb9bb4a686612ced565b6122a37ffd37f88a14d7ed985885a1af8f2ad5b64dd7eb00ab89168649791632bb9bb4a685612ced565b6122cd7fd2761b102bda9831f4af400cc824b8cecb9cc5c1c85c51acb1479db9735fbfc683612ced565b6122f77ffaad79a708d82d095486f5a83b18341f12a8f717d3011ab929d43135c1af73e280612f8f565b6123217ffd37f88a14d7ed985885a1af8f2ad5b64dd7eb00ab89168649791632bb9bb4a680612f8f565b61236b7fbffb4faf8a508f503a2ca036effd0bc1f82615d3ebfddb934edf718f236727077ffaad79a708d82d095486f5a83b18341f12a8f717d3011ab929d43135c1af73e2612f8f565b6123b57f539440820030c4994db4e31b6b800deafd503688728f932addfe7a410515c14c7ffaad79a708d82d095486f5a83b18341f12a8f717d3011ab929d43135c1af73e2612f8f565b6123df7fd2761b102bda9831f4af400cc824b8cecb9cc5c1c85c51acb1479db9735fbfc680612f8f565b7f0a965308374b31e171cb5d3a3534756f07f245aacde8ea115b2ee33fef7545c0338d8d8d8d8d8d8d8d8d8d8d6040516124249c9b9a999897969594939291906154c8565b60405180910390a180156124855760008060016101000a81548160ff0219169083151502179055507f7f26b83ff96e1f2b6a682f133852f6798a09c465da95921460cefb3847402498600160405161247c91906155ca565b60405180910390a15b505050505050505050505050565b6101335481565b60006124a761012d612feb565b905090565b6124b4612d55565b6124bc613000565b565b6101325481565b6040518060400160405280600481526020017f555344430000000000000000000000000000000000000000000000000000000081525081565b6000612525826097600086815260200190815260200160002061306390919063ffffffff16565b905092915050565b60006065600084815260200190815260200160002060000160008373ffffffffffffffffffffffffffffffffffffffff1673ffffffffffffffffffffffffffffffffffffffff16815260200190815260200160002060009054906101000a900460ff16905092915050565b610130818051602081018201805184825260208301602085012081835280955050505050506000915090505481565b6000801b81565b6040518060400160405280600481526020017f574554480000000000000000000000000000000000000000000000000000000081525081565b61013560009054906101000a900473ffffffffffffffffffffffffffffffffffffffff1681565b6040518060400160405280600481526020017f555344540000000000000000000000000000000000000000000000000000000081525081565b60006126846097600084815260200190815260200160002061307d565b9050919050565b7ffaad79a708d82d095486f5a83b18341f12a8f717d3011ab929d43135c1af73e26126b581612b91565b600073ffffffffffffffffffffffffffffffffffffffff168273ffffffffffffffffffffffffffffffffffffffff1603612724576040517f08c379a000000000000000000000000000000000000000000000000000000000815260040161271b90615631565b60405180910390fd5b8161013460006101000a81548173ffffffffffffffffffffffffffffffffffffffff021916908373ffffffffffffffffffffffffffffffffffffffff1602179055505050565b61277382610c52565b61277c81612b91565b6127868383612d21565b505050565b7ffd37f88a14d7ed985885a1af8f2ad5b64dd7eb00ab89168649791632bb9bb4a66127b581612b91565b6127bd612ba5565b6127c5612bef565b6127cd613092565b61013183836040516127e09291906145e7565b908152602001604051809103902054846127fa91906147a8565b610130848460405161280d9291906145e7565b908152602001604051809103902054101561285d576040517f08c379a00000000000000000000000000000000000000000000000000000000081526004016128549061569d565b60405180910390fd5b8361013184846040516128719291906145e7565b9081526020016040518091039020600082825461288e91906147a8565b9250508190555061290461012f84846040516128ab9291906145e7565b908152602001604051809103902060009054906101000a900473ffffffffffffffffffffffffffffffffffffffff1661013560009054906101000a900473ffffffffffffffffffffffffffffffffffffffff1686612c3e565b7f901c03da5d88eb3d62ab4617e7b7d17d86db16356823a7971127d5181a842fef61013560009054906101000a900473ffffffffffffffffffffffffffffffffffffffff1684848760405161295c94939291906156bd565b60405180910390a161296c612ccc565b50505050565b7fd2761b102bda9831f4af400cc824b8cecb9cc5c1c85c51acb1479db9735fbfc681565b7ffaad79a708d82d095486f5a83b18341f12a8f717d3011ab929d43135c1af73e26129c081612b91565b600061012f84846040516129d59291906145e7565b908152602001604051809103902060009054906101000a900473ffffffffffffffffffffffffffffffffffffffff1690508461012f8585604051612a1a9291906145e7565b908152602001604051809103902060006101000a81548173ffffffffffffffffffffffffffffffffffffffff021916908373ffffffffffffffffffffffffffffffffffffffff1602179055507f3cd72d6f5ed03c1310376e5a3951d7ee3a4813b66f9be0333ab32cf0d25cb5013385858489604051612a9d9594939291906156fd565b60405180910390a15050505050565b7ffaad79a708d82d095486f5a83b18341f12a8f717d3011ab929d43135c1af73e281565b7f539440820030c4994db4e31b6b800deafd503688728f932addfe7a410515c14c81565b6000808273ffffffffffffffffffffffffffffffffffffffff163b119050919050565b60007f7965db0b000000000000000000000000000000000000000000000000000000007bffffffffffffffffffffffffffffffffffffffffffffffffffffffff1916827bffffffffffffffffffffffffffffffffffffffffffffffffffffffff19161480612b8a5750612b8982613267565b5b9050919050565b612ba281612b9d612cc4565b6132d1565b50565b612bad6116c4565b15612bed576040517f08c379a0000000000000000000000000000000000000000000000000000000008152600401612be490615797565b60405180910390fd5b565b600260fb5403612c34576040517f08c379a0000000000000000000000000000000000000000000000000000000008152600401612c2b90615803565b60405180910390fd5b600260fb81905550565b612cbf8363a9059cbb60e01b8484604051602401612c5d929190614b01565b604051602081830303815290604052907bffffffffffffffffffffffffffffffffffffffffffffffffffffffff19166020820180517bffffffffffffffffffffffffffffffffffffffffffffffffffffffff8381831617835250505050613356565b505050565b600033905090565b600160fb81905550565b6000612ce5836000018361341e565b905092915050565b612cf78282613449565b612d1c816097600085815260200190815260200160002061352a90919063ffffffff16565b505050565b612d2b828261355a565b612d50816097600085815260200190815260200160002061363c90919063ffffffff16565b505050565b612d867f539440820030c4994db4e31b6b800deafd503688728f932addfe7a410515c14c612d81612cc4565b61252d565b80612dbe5750612dbd7ffaad79a708d82d095486f5a83b18341f12a8f717d3011ab929d43135c1af73e2612db8612cc4565b61252d565b5b612dfd576040517f08c379a0000000000000000000000000000000000000000000000000000000008152600401612df49061586f565b60405180910390fd5b565b612e0761366c565b600060c960006101000a81548160ff0219169083151502179055507f5db9ee0a495bf2e6ff9c91a7834c1ba4fdd244a5e8aa4e537bd38aeae4b073aa612e4b612cc4565b604051612e589190613f8e565b60405180910390a1565b600060019054906101000a900460ff16612eb1576040517f08c379a0000000000000000000000000000000000000000000000000000000008152600401612ea890615901565b60405180910390fd5b565b600060019054906101000a900460ff16612f02576040517f08c379a0000000000000000000000000000000000000000000000000000000008152600401612ef990615901565b60405180910390fd5b600060c960006101000a81548160ff021916908315150217905550565b600060019054906101000a900460ff16612f6e576040517f08c379a0000000000000000000000000000000000000000000000000000000008152600401612f6590615901565b60405180910390fd5b600160fb81905550565b6000612f8783600001836136b5565b905092915050565b6000612f9a83610c52565b90508160656000858152602001908152602001600020600101819055508181847fbd79b86ffe0ab8e8776151514217cd7cacd52c909f66475c3af44e129f0b00ff60405160405180910390a4505050565b6000612ff982600001613725565b9050919050565b613008612ba5565b600160c960006101000a81548160ff0219169083151502179055507f62e78cea01bee320cd4e420270b5ea74000d11b0c9f74754ebdbfc544b05a25861304c612cc4565b6040516130599190613f8e565b60405180910390a1565b6000613072836000018361341e565b60001c905092915050565b600061308b82600001613725565b9050919050565b610133544211156132655760006201518061013354426130b29190615921565b6130bc9190615984565b905062015180816130cd91906159b5565b610133546130db91906147a8565b6101328190555062015180610132546130f491906147a8565b6101338190555060006101316040518060400160405280600481526020017f55534443000000000000000000000000000000000000000000000000000000008152506040516131439190615025565b90815260200160405180910390208190555060006101316040518060400160405280600481526020017f555344540000000000000000000000000000000000000000000000000000000081525060405161319d9190615025565b90815260200160405180910390208190555060006101316040518060400160405280600481526020017f57425443000000000000000000000000000000000000000000000000000000008152506040516131f79190615025565b90815260200160405180910390208190555060006101316040518060400160405280600481526020017f57455448000000000000000000000000000000000000000000000000000000008152506040516132519190615025565b908152602001604051809103902081905550505b565b60007f01ffc9a7000000000000000000000000000000000000000000000000000000007bffffffffffffffffffffffffffffffffffffffffffffffffffffffff1916827bffffffffffffffffffffffffffffffffffffffffffffffffffffffff1916149050919050565b6132db828261252d565b613352576132e881613736565b6132f68360001c6020613763565b604051602001613307929190615a8f565b6040516020818303038152906040526040517f08c379a000000000000000000000000000000000000000000000000000000000815260040161334991906143d2565b60405180910390fd5b5050565b60006133b8826040518060400160405280602081526020017f5361666545524332303a206c6f772d6c6576656c2063616c6c206661696c65648152508573ffffffffffffffffffffffffffffffffffffffff1661399f9092919063ffffffff16565b90506000815114806133da5750808060200190518101906133d99190614b56565b5b613419576040517f08c379a000000000000000000000000000000000000000000000000000000000815260040161341090615b3b565b60405180910390fd5b505050565b600082600001828154811061343657613435614588565b5b9060005260206000200154905092915050565b613453828261252d565b6135265760016065600084815260200190815260200160002060000160008373ffffffffffffffffffffffffffffffffffffffff1673ffffffffffffffffffffffffffffffffffffffff16815260200190815260200160002060006101000a81548160ff0219169083151502179055506134cb612cc4565b73ffffffffffffffffffffffffffffffffffffffff168173ffffffffffffffffffffffffffffffffffffffff16837f2f8788117e7eff1d82e926ec794901d17c78024a50270940304540a733656f0d60405160405180910390a45b5050565b6000613552836000018373ffffffffffffffffffffffffffffffffffffffff1660001b6136b5565b905092915050565b613564828261252d565b156136385760006065600084815260200190815260200160002060000160008373ffffffffffffffffffffffffffffffffffffffff1673ffffffffffffffffffffffffffffffffffffffff16815260200190815260200160002060006101000a81548160ff0219169083151502179055506135dd612cc4565b73ffffffffffffffffffffffffffffffffffffffff168173ffffffffffffffffffffffffffffffffffffffff16837ff6391f5c32d9c69d2a47ea670b442974b53935d1edc7fd64eb21e047a839171b60405160405180910390a45b5050565b6000613664836000018373ffffffffffffffffffffffffffffffffffffffff1660001b6139b7565b905092915050565b6136746116c4565b6136b3576040517f08c379a00000000000000000000000000000000000000000000000000000000081526004016136aa90615ba7565b60405180910390fd5b565b60006136c18383613acb565b61371a57826000018290806001815401808255809150506001900390600052602060002001600090919091909150558260000180549050836001016000848152602001908152602001600020819055506001905061371f565b600090505b92915050565b600081600001805490509050919050565b606061375c8273ffffffffffffffffffffffffffffffffffffffff16601460ff16613763565b9050919050565b60606000600283600261377691906159b5565b61378091906147a8565b67ffffffffffffffff811115613799576137986141b5565b5b6040519080825280601f01601f1916602001820160405280156137cb5781602001600182028036833780820191505090505b5090507f30000000000000000000000000000000000000000000000000000000000000008160008151811061380357613802614588565b5b60200101907effffffffffffffffffffffffffffffffffffffffffffffffffffffffffffff1916908160001a9053507f78000000000000000000000000000000000000000000000000000000000000008160018151811061386757613866614588565b5b60200101907effffffffffffffffffffffffffffffffffffffffffffffffffffffffffffff1916908160001a905350600060018460026138a791906159b5565b6138b191906147a8565b90505b6001811115613951577f3031323334353637383961626364656600000000000000000000000000000000600f8616601081106138f3576138f2614588565b5b1a60f81b82828151811061390a57613909614588565b5b60200101907effffffffffffffffffffffffffffffffffffffffffffffffffffffffffffff1916908160001a905350600485901c94508061394a90615bc7565b90506138b4565b5060008414613995576040517f08c379a000000000000000000000000000000000000000000000000000000000815260040161398c90615c3c565b60405180910390fd5b8091505092915050565b60606139ae8484600085613aee565b90509392505050565b60008083600101600084815260200190815260200160002054905060008114613abf5760006001826139e99190615921565b9050600060018660000180549050613a019190615921565b9050818114613a70576000866000018281548110613a2257613a21614588565b5b9060005260206000200154905080876000018481548110613a4657613a45614588565b5b90600052602060002001819055508387600101600083815260200190815260200160002081905550505b85600001805480613a8457613a83615c5c565b5b600190038181906000526020600020016000905590558560010160008681526020019081526020016000206000905560019350505050613ac5565b60009150505b92915050565b600080836001016000848152602001908152602001600020541415905092915050565b606082471015613b33576040517f08c379a0000000000000000000000000000000000000000000000000000000008152600401613b2a90615cfd565b60405180910390fd5b6000808673ffffffffffffffffffffffffffffffffffffffff168587604051613b5c9190615d64565b60006040518083038185875af1925050503d8060008114613b99576040519150601f19603f3d011682016040523d82523d6000602084013e613b9e565b606091505b5091509150613baf87838387613bbb565b92505050949350505050565b60608315613c1d576000835103613c1557613bd585613c30565b613c14576040517f08c379a0000000000000000000000000000000000000000000000000000000008152600401613c0b90615dc7565b60405180910390fd5b5b829050613c28565b613c278383613c53565b5b949350505050565b6000808273ffffffffffffffffffffffffffffffffffffffff163b119050919050565b600082511115613c665781518083602001fd5b806040517f08c379a0000000000000000000000000000000000000000000000000000000008152600401613c9a91906143d2565b60405180910390fd5b600081519050919050565b600082825260208201905092915050565b6000819050602082019050919050565b6000819050919050565b613ce281613ccf565b82525050565b6000613cf48383613cd9565b60208301905092915050565b6000602082019050919050565b6000613d1882613ca3565b613d228185613cae565b9350613d2d83613cbf565b8060005b83811015613d5e578151613d458882613ce8565b9750613d5083613d00565b925050600181019050613d31565b5085935050505092915050565b60006020820190508181036000830152613d858184613d0d565b905092915050565b6000604051905090565b600080fd5b600080fd5b60007fffffffff0000000000000000000000000000000000000000000000000000000082169050919050565b613dd681613da1565b8114613de157600080fd5b50565b600081359050613df381613dcd565b92915050565b600060208284031215613e0f57613e0e613d97565b5b6000613e1d84828501613de4565b91505092915050565b60008115159050919050565b613e3b81613e26565b82525050565b6000602082019050613e566000830184613e32565b92915050565b613e6581613ccf565b8114613e7057600080fd5b50565b600081359050613e8281613e5c565b92915050565b600080fd5b600080fd5b600080fd5b60008083601f840112613ead57613eac613e88565b5b8235905067ffffffffffffffff811115613eca57613ec9613e8d565b5b602083019150836001820283011115613ee657613ee5613e92565b5b9250929050565b600080600060408486031215613f0657613f05613d97565b5b6000613f1486828701613e73565b935050602084013567ffffffffffffffff811115613f3557613f34613d9c565b5b613f4186828701613e97565b92509250509250925092565b600073ffffffffffffffffffffffffffffffffffffffff82169050919050565b6000613f7882613f4d565b9050919050565b613f8881613f6d565b82525050565b6000602082019050613fa36000830184613f7f565b92915050565b613fb281613f6d565b8114613fbd57600080fd5b50565b600081359050613fcf81613fa9565b92915050565b600060208284031215613feb57613fea613d97565b5b6000613ff984828501613fc0565b91505092915050565b6000819050919050565b61401581614002565b811461402057600080fd5b50565b6000813590506140328161400c565b92915050565b60006020828403121561404e5761404d613d97565b5b600061405c84828501614023565b91505092915050565b61406e81614002565b82525050565b60006020820190506140896000830184614065565b92915050565b6000602082840312156140a5576140a4613d97565b5b60006140b384828501613e73565b91505092915050565b600080604083850312156140d3576140d2613d97565b5b60006140e185828601614023565b92505060206140f285828601613fc0565b9150509250929050565b60008083601f84011261411257614111613e88565b5b8235905067ffffffffffffffff81111561412f5761412e613e8d565b5b60208301915083602082028301111561414b5761414a613e92565b5b9250929050565b6000806020838503121561416957614168613d97565b5b600083013567ffffffffffffffff81111561418757614186613d9c565b5b614193858286016140fc565b92509250509250929050565b600080fd5b6000601f19601f8301169050919050565b7f4e487b7100000000000000000000000000000000000000000000000000000000600052604160045260246000fd5b6141ed826141a4565b810181811067ffffffffffffffff8211171561420c5761420b6141b5565b5b80604052505050565b600061421f613d8d565b905061422b82826141e4565b919050565b600067ffffffffffffffff82111561424b5761424a6141b5565b5b614254826141a4565b9050602081019050919050565b82818337600083830152505050565b600061428361427e84614230565b614215565b90508281526020810184848401111561429f5761429e61419f565b5b6142aa848285614261565b509392505050565b600082601f8301126142c7576142c6613e88565b5b81356142d7848260208601614270565b91505092915050565b6000602082840312156142f6576142f5613d97565b5b600082013567ffffffffffffffff81111561431457614313613d9c565b5b614320848285016142b2565b91505092915050565b61433281613ccf565b82525050565b600060208201905061434d6000830184614329565b92915050565b600081519050919050565b600082825260208201905092915050565b60005b8381101561438d578082015181840152602081019050614372565b60008484015250505050565b60006143a482614353565b6143ae818561435e565b93506143be81856020860161436f565b6143c7816141a4565b840191505092915050565b600060208201905081810360008301526143ec8184614399565b905092915050565b60008060008060008060008060008060006101608c8e03121561441a57614419613d97565b5b60006144288e828f01613fc0565b9b505060206144398e828f01613fc0565b9a5050604061444a8e828f01613fc0565b995050606061445b8e828f01613fc0565b985050608061446c8e828f01613fc0565b97505060a061447d8e828f01613fc0565b96505060c061448e8e828f01613fc0565b95505060e061449f8e828f01613fc0565b9450506101006144b18e828f01613fc0565b9350506101206144c38e828f01613fc0565b9250506101406144d58e828f01613fc0565b9150509295989b509295989b9093969950565b600080604083850312156144ff576144fe613d97565b5b600061450d85828601614023565b925050602061451e85828601613e73565b9150509250929050565b60008060006040848603121561454157614540613d97565b5b600061454f86828701613fc0565b935050602084013567ffffffffffffffff8111156145705761456f613d9c565b5b61457c86828701613e97565b92509250509250925092565b7f4e487b7100000000000000000000000000000000000000000000000000000000600052603260045260246000fd5b600081905092915050565b60006145ce83856145b7565b93506145db838584614261565b82840190509392505050565b60006145f48284866145c2565b91508190509392505050565b600061460c838561435e565b9350614619838584614261565b614622836141a4565b840190509392505050565b60006080820190506146426000830188613f7f565b8181036020830152614655818688614600565b90506146646040830185614329565b6146716060830184613f7f565b9695505050505050565b7f576974686472617757616c6c6574206973207a65726f20616464726573730000600082015250565b60006146b1601e8361435e565b91506146bc8261467b565b602082019050919050565b600060208201905081810360008301526146e0816146a4565b9050919050565b7f4e657720737461727454696d65506572696f64206d757374206265206265666f60008201527f72652063757272656e7420737461727454696d65506572696f64000000000000602082015250565b6000614743603a8361435e565b915061474e826146e7565b604082019050919050565b6000602082019050818103600083015261477281614736565b9050919050565b7f4e487b7100000000000000000000000000000000000000000000000000000000600052601160045260246000fd5b60006147b382613ccf565b91506147be83613ccf565b92508282019050808211156147d6576147d5614779565b5b92915050565b7f4e657720656e6454696d65506572696f64206d7573742062652061667465722060008201527f63757272656e742074696d650000000000000000000000000000000000000000602082015250565b6000614838602c8361435e565b9150614843826147dc565b604082019050919050565b600060208201905081810360008301526148678161482b565b9050919050565b7f456d70747920696e707574206172726179000000000000000000000000000000600082015250565b60006148a460118361435e565b91506148af8261486e565b602082019050919050565b600060208201905081810360008301526148d381614897565b9050919050565b600080fd5b6000823560016060038336030381126148fb576148fa6148da565b5b80830191505092915050565b60008235600160a003833603038112614923576149226148da565b5b80830191505092915050565b7f5377617020726563697069656e74206973206e6f7420746865205661756c742060008201527f50726f7879206164647265737300000000000000000000000000000000000000602082015250565b600061498b602d8361435e565b91506149968261492f565b604082019050919050565b600060208201905081810360008301526149ba8161497e565b9050919050565b7f416d6f756e744f75744d696e696d756d2073686f756c6420626520706f73697460008201527f6976650000000000000000000000000000000000000000000000000000000000602082015250565b6000614a1d60238361435e565b9150614a28826149c1565b604082019050919050565b60006020820190508181036000830152614a4c81614a10565b9050919050565b600081519050614a6281613e5c565b92915050565b600060208284031215614a7e57614a7d613d97565b5b6000614a8c84828501614a53565b91505092915050565b7f416d6f756e74732073686f756c642062652077697468696e2062616c616e6365600082015250565b6000614acb60208361435e565b9150614ad682614a95565b602082019050919050565b60006020820190508181036000830152614afa81614abe565b9050919050565b6000604082019050614b166000830185613f7f565b614b236020830184614329565b9392505050565b614b3381613e26565b8114614b3e57600080fd5b50565b600081519050614b5081614b2a565b92915050565b600060208284031215614b6c57614b6b613d97565b5b6000614b7a84828501614b41565b91505092915050565b7f417070726f76616c206661696c65640000000000000000000000000000000000600082015250565b6000614bb9600f8361435e565b9150614bc482614b83565b602082019050919050565b60006020820190508181036000830152614be881614bac565b9050919050565b600080fd5b600080fd5b600080fd5b60008083356001602003843603038112614c1b57614c1a614bf9565b5b83810192508235915060208301925067ffffffffffffffff821115614c4357614c42614bef565b5b600182023603831315614c5957614c58614bf4565b5b509250929050565b600082825260208201905092915050565b6000614c7e8385614c61565b9350614c8b838584614261565b614c94836141a4565b840190509392505050565b6000614cae6020840184613fc0565b905092915050565b614cbf81613f6d565b82525050565b6000614cd46020840184613e73565b905092915050565b600060a08301614cef6000840184614bfe565b8583036000870152614d02838284614c72565b92505050614d136020840184614c9f565b614d206020860182614cb6565b50614d2e6040840184614cc5565b614d3b6040860182613cd9565b50614d496060840184614cc5565b614d566060860182613cd9565b50614d646080840184614cc5565b614d716080860182613cd9565b508091505092915050565b60006020820190508181036000830152614d968184614cdc565b905092915050565b60008160e01c9050919050565b600060033d1115614dca5760046000803e614dc7600051614d9e565b90505b90565b600060443d10614e5a57614ddf613d8d565b60043d036004823e80513d602482011167ffffffffffffffff82111715614e07575050614e5a565b808201805167ffffffffffffffff811115614e255750505050614e5a565b80602083010160043d038501811115614e42575050505050614e5a565b614e51826020018501866141e4565b82955050505050505b90565b6000604082019050614e726000830185613f7f565b8181036020830152614e848184614399565b90509392505050565b6000819050919050565b6000819050919050565b6000614ebc614eb7614eb284614e8d565b614e97565b613ccf565b9050919050565b614ecc81614ea1565b82525050565b6000604082019050614ee76000830185613f7f565b614ef46020830184614ec3565b9392505050565b7f5265766f6b6520417070726f76616c206661696c656400000000000000000000600082015250565b6000614f3160168361435e565b9150614f3c82614efb565b602082019050919050565b60006020820190508181036000830152614f6081614f24565b9050919050565b6000608082019050614f7c6000830187613f7f565b614f896020830186613f7f565b614f966040830185614329565b614fa36060830184614329565b95945050505050565b6000614fb782613ccf565b91507fffffffffffffffffffffffffffffffffffffffffffffffffffffffffffffffff8203614fe957614fe8614779565b5b600182019050919050565b6000614fff82614353565b61500981856145b7565b935061501981856020860161436f565b80840191505092915050565b60006150318284614ff4565b915081905092915050565b7f416363657373436f6e74726f6c3a2063616e206f6e6c792072656e6f756e636560008201527f20726f6c657320666f722073656c660000000000000000000000000000000000602082015250565b6000615098602f8361435e565b91506150a38261503c565b604082019050919050565b600060208201905081810360008301526150c78161508b565b9050919050565b60006080820190506150e36000830188613f7f565b81810360208301526150f6818688614600565b90506151056040830185614329565b6151126060830184614329565b9695505050505050565b7f496e697469616c697a61626c653a20636f6e747261637420697320616c72656160008201527f647920696e697469616c697a6564000000000000000000000000000000000000602082015250565b6000615178602e8361435e565b91506151838261511c565b604082019050919050565b600060208201905081810360008301526151a78161516b565b9050919050565b7f41646d696e20697320746865207a65726f206164647265737300000000000000600082015250565b60006151e460198361435e565b91506151ef826151ae565b602082019050919050565b60006020820190508181036000830152615213816151d7565b9050919050565b7f5265736375652061646472657373206973207a65726f20616464726573730000600082015250565b6000615250601e8361435e565b915061525b8261521a565b602082019050919050565b6000602082019050818103600083015261527f81615243565b9050919050565b7f57697468647261772061646472657373206973207a65726f2061646472657373600082015250565b60006152bc60208361435e565b91506152c782615286565b602082019050919050565b600060208201905081810360008301526152eb816152af565b9050919050565b7f4669727374204c656e646572204c6971206973207a65726f2061646472657373600082015250565b600061532860208361435e565b9150615333826152f2565b602082019050919050565b600060208201905081810360008301526153578161531b565b9050919050565b7f5365636f6e64204c656e646572204c6971206973207a65726f2061646472657360008201527f7300000000000000000000000000000000000000000000000000000000000000602082015250565b60006153ba60218361435e565b91506153c58261535e565b604082019050919050565b600060208201905081810360008301526153e9816153ad565b9050919050565b7f53776170526f75746572206973207a65726f2061646472657373000000000000600082015250565b6000615426601a8361435e565b9150615431826153f0565b602082019050919050565b6000602082019050818103600083015261545581615419565b9050919050565b7f537761707065722061646472657373206973207a65726f206164647265737300600082015250565b6000615492601f8361435e565b915061549d8261545c565b602082019050919050565b600060208201905081810360008301526154c181615485565b9050919050565b6000610180820190506154de600083018f613f7f565b6154eb602083018e613f7f565b6154f8604083018d613f7f565b615505606083018c613f7f565b615512608083018b613f7f565b61551f60a083018a613f7f565b61552c60c0830189613f7f565b61553960e0830188613f7f565b615547610100830187613f7f565b615555610120830186613f7f565b615563610140830185613f7f565b615571610160830184613f7f565b9d9c50505050505050505050505050565b6000819050919050565b600060ff82169050919050565b60006155b46155af6155aa84615582565b614e97565b61558c565b9050919050565b6155c481615599565b82525050565b60006020820190506155df60008301846155bb565b92915050565b7f52657363756557616c6c6574206973207a65726f206164647265737300000000600082015250565b600061561b601c8361435e565b9150615626826155e5565b602082019050919050565b6000602082019050818103600083015261564a8161560e565b9050919050565b7f5769746864726177616c206c696d697420657863656564656400000000000000600082015250565b600061568760198361435e565b915061569282615651565b602082019050919050565b600060208201905081810360008301526156b68161567a565b9050919050565b60006060820190506156d26000830187613f7f565b81810360208301526156e5818587614600565b90506156f46040830184614329565b95945050505050565b60006080820190506157126000830188613f7f565b8181036020830152615725818688614600565b90506157346040830185613f7f565b6157416060830184613f7f565b9695505050505050565b7f5061757361626c653a2070617573656400000000000000000000000000000000600082015250565b600061578160108361435e565b915061578c8261574b565b602082019050919050565b600060208201905081810360008301526157b081615774565b9050919050565b7f5265656e7472616e637947756172643a207265656e7472616e742063616c6c00600082015250565b60006157ed601f8361435e565b91506157f8826157b7565b602082019050919050565b6000602082019050818103600083015261581c816157e0565b9050919050565b7f43616c6c6572206973206e6f7420612070617573657200000000000000000000600082015250565b600061585960168361435e565b915061586482615823565b602082019050919050565b600060208201905081810360008301526158888161584c565b9050919050565b7f496e697469616c697a61626c653a20636f6e7472616374206973206e6f74206960008201527f6e697469616c697a696e67000000000000000000000000000000000000000000602082015250565b60006158eb602b8361435e565b91506158f68261588f565b604082019050919050565b6000602082019050818103600083015261591a816158de565b9050919050565b600061592c82613ccf565b915061593783613ccf565b925082820390508181111561594f5761594e614779565b5b92915050565b7f4e487b7100000000000000000000000000000000000000000000000000000000600052601260045260246000fd5b600061598f82613ccf565b915061599a83613ccf565b9250826159aa576159a9615955565b5b828204905092915050565b60006159c082613ccf565b91506159cb83613ccf565b92508282026159d981613ccf565b915082820484148315176159f0576159ef614779565b5b5092915050565b7f416363657373436f6e74726f6c3a206163636f756e7420000000000000000000600082015250565b6000615a2d6017836145b7565b9150615a38826159f7565b601782019050919050565b7f206973206d697373696e6720726f6c6520000000000000000000000000000000600082015250565b6000615a796011836145b7565b9150615a8482615a43565b601182019050919050565b6000615a9a82615a20565b9150615aa68285614ff4565b9150615ab182615a6c565b9150615abd8284614ff4565b91508190509392505050565b7f5361666545524332303a204552433230206f7065726174696f6e20646964206e60008201527f6f74207375636365656400000000000000000000000000000000000000000000602082015250565b6000615b25602a8361435e565b9150615b3082615ac9565b604082019050919050565b60006020820190508181036000830152615b5481615b18565b9050919050565b7f5061757361626c653a206e6f7420706175736564000000000000000000000000600082015250565b6000615b9160148361435e565b9150615b9c82615b5b565b602082019050919050565b60006020820190508181036000830152615bc081615b84565b9050919050565b6000615bd282613ccf565b915060008203615be557615be4614779565b5b600182039050919050565b7f537472696e67733a20686578206c656e67746820696e73756666696369656e74600082015250565b6000615c2660208361435e565b9150615c3182615bf0565b602082019050919050565b60006020820190508181036000830152615c5581615c19565b9050919050565b7f4e487b7100000000000000000000000000000000000000000000000000000000600052603160045260246000fd5b7f416464726573733a20696e73756666696369656e742062616c616e636520666f60008201527f722063616c6c0000000000000000000000000000000000000000000000000000602082015250565b6000615ce760268361435e565b9150615cf282615c8b565b604082019050919050565b60006020820190508181036000830152615d1681615cda565b9050919050565b600081519050919050565b600081905092915050565b6000615d3e82615d1d565b615d488185615d28565b9350615d5881856020860161436f565b80840191505092915050565b6000615d708284615d33565b915081905092915050565b7f416464726573733a2063616c6c20746f206e6f6e2d636f6e7472616374000000600082015250565b6000615db1601d8361435e565b9150615dbc82615d7b565b602082019050919050565b60006020820190508181036000830152615de081615da4565b905091905056fea2646970667358221220be932cf13ab60f14b5d499872f38e5f99434335de1385d146e38c54f314fd06c64736f6c63430008120033",
  "linkReferences": {},
  "deployedLinkReferences": {}
}