{
  "_format": "hh-sol-artifact-1",
  "contractName": "ColateralContract",
  "sourceName": "contracts/ColateralContract.sol",
  "abi": [
    {
      "inputs": [],
      "stateMutability": "nonpayable",
      "type": "constructor"
    },
    {
      "anonymous": false,
      "inputs": [
        {
          "indexed": false,
          "internalType": "address",
          "name": "sender",
          "type": "address"
        },
        {
          "indexed": false,
          "internalType": "address",
          "name": "usdcTokenAddress",
          "type": "address"
        },
        {
          "indexed": false,
          "internalType": "address",
          "name": "usdtTokenAddress",
          "type": "address"
        },
        {
          "indexed": false,
          "internalType": "address",
          "name": "wbtcTokenAddress",
          "type": "address"
        },
        {
          "indexed": false,
          "internalType": "address",
          "name": "wethTokenAddress",
          "type": "address"
        },
        {
          "indexed": false,
          "internalType": "address",
          "name": "admin",
          "type": "address"
        },
        {
          "indexed": false,
          "internalType": "address",
          "name": "rescueWalletAddress",
          "type": "address"
        },
        {
          "indexed": false,
          "internalType": "address",
          "name": "withdrawWalletAddress",
          "type": "address"
        },
        {
          "indexed": false,
          "internalType": "address",
          "name": "firstlenderLiq",
          "type": "address"
        },
        {
          "indexed": false,
          "internalType": "address",
          "name": "secondLenderLiq",
          "type": "address"
        },
        {
          "indexed": false,
          "internalType": "address",
          "name": "swapRouter",
          "type": "address"
        },
        {
          "indexed": false,
          "internalType": "address",
          "name": "swapperAddress",
          "type": "address"
        }
      ],
      "name": "Initialize",
      "type": "event"
    },
    {
      "anonymous": false,
      "inputs": [
        {
          "indexed": false,
          "internalType": "uint8",
          "name": "version",
          "type": "uint8"
        }
      ],
      "name": "Initialized",
      "type": "event"
    },
    {
      "anonymous": false,
      "inputs": [
        {
          "indexed": false,
          "internalType": "address",
          "name": "account",
          "type": "address"
        }
      ],
      "name": "Paused",
      "type": "event"
    },
    {
      "anonymous": false,
      "inputs": [
        {
          "indexed": false,
          "internalType": "address",
          "name": "sender",
          "type": "address"
        },
        {
          "indexed": false,
          "internalType": "string",
          "name": "token",
          "type": "string"
        },
        {
          "indexed": false,
          "internalType": "uint256",
          "name": "amount",
          "type": "uint256"
        },
        {
          "indexed": false,
          "internalType": "address",
          "name": "to",
          "type": "address"
        }
      ],
      "name": "Rescue",
      "type": "event"
    },
    {
      "anonymous": false,
      "inputs": [
        {
          "indexed": true,
          "internalType": "bytes32",
          "name": "role",
          "type": "bytes32"
        },
        {
          "indexed": true,
          "internalType": "bytes32",
          "name": "previousAdminRole",
          "type": "bytes32"
        },
        {
          "indexed": true,
          "internalType": "bytes32",
          "name": "newAdminRole",
          "type": "bytes32"
        }
      ],
      "name": "RoleAdminChanged",
      "type": "event"
    },
    {
      "anonymous": false,
      "inputs": [
        {
          "indexed": true,
          "internalType": "bytes32",
          "name": "role",
          "type": "bytes32"
        },
        {
          "indexed": true,
          "internalType": "address",
          "name": "account",
          "type": "address"
        },
        {
          "indexed": true,
          "internalType": "address",
          "name": "sender",
          "type": "address"
        }
      ],
      "name": "RoleGranted",
      "type": "event"
    },
    {
      "anonymous": false,
      "inputs": [
        {
          "indexed": true,
          "internalType": "bytes32",
          "name": "role",
          "type": "bytes32"
        },
        {
          "indexed": true,
          "internalType": "address",
          "name": "account",
          "type": "address"
        },
        {
          "indexed": true,
          "internalType": "address",
          "name": "sender",
          "type": "address"
        }
      ],
      "name": "RoleRevoked",
      "type": "event"
    },
    {
      "anonymous": false,
      "inputs": [
        {
          "indexed": false,
          "internalType": "address",
          "name": "tokenIn",
          "type": "address"
        },
        {
          "indexed": false,
          "internalType": "address",
          "name": "tokenOut",
          "type": "address"
        },
        {
          "indexed": false,
          "internalType": "uint256",
          "name": "amountIn",
          "type": "uint256"
        },
        {
          "indexed": false,
          "internalType": "uint256",
          "name": "amountOut",
          "type": "uint256"
        }
      ],
      "name": "Swap",
      "type": "event"
    },
    {
      "anonymous": false,
      "inputs": [
        {
          "indexed": false,
          "internalType": "address",
          "name": "tokenIn",
          "type": "address"
        },
        {
          "indexed": false,
          "internalType": "string",
          "name": "msg",
          "type": "string"
        }
      ],
      "name": "SwapError",
      "type": "event"
    },
    {
      "anonymous": false,
      "inputs": [
        {
          "indexed": false,
          "internalType": "address",
          "name": "sender",
          "type": "address"
        },
        {
          "indexed": false,
          "internalType": "string",
          "name": "token",
          "type": "string"
        },
        {
          "indexed": false,
          "internalType": "address",
          "name": "oldTokenAddress",
          "type": "address"
        },
        {
          "indexed": false,
          "internalType": "address",
          "name": "newTokenAddress",
          "type": "address"
        }
      ],
      "name": "TokenAddressChange",
      "type": "event"
    },
    {
      "anonymous": false,
      "inputs": [
        {
          "indexed": false,
          "internalType": "address",
          "name": "account",
          "type": "address"
        }
      ],
      "name": "Unpaused",
      "type": "event"
    },
    {
      "anonymous": false,
      "inputs": [
        {
          "indexed": false,
          "internalType": "address",
          "name": "sender",
          "type": "address"
        },
        {
          "indexed": false,
          "internalType": "string",
          "name": "token",
          "type": "string"
        },
        {
          "indexed": false,
          "internalType": "uint256",
          "name": "amount",
          "type": "uint256"
        }
      ],
      "name": "Withdraw",
      "type": "event"
    },
    {
      "anonymous": false,
      "inputs": [
        {
          "indexed": false,
          "internalType": "address",
          "name": "sender",
          "type": "address"
        },
        {
          "indexed": false,
          "internalType": "string",
          "name": "token",
          "type": "string"
        },
        {
          "indexed": false,
          "internalType": "uint256",
          "name": "oldWithdrawalLimit",
          "type": "uint256"
        },
        {
          "indexed": false,
          "internalType": "uint256",
          "name": "newWithdrawalLimit",
          "type": "uint256"
        }
      ],
      "name": "WithdrawalLimitChange",
      "type": "event"
    },
    {
      "inputs": [],
      "name": "ACONCAGUA_ROLE",
      "outputs": [
        {
          "internalType": "bytes32",
          "name": "",
          "type": "bytes32"
        }
      ],
      "stateMutability": "view",
      "type": "function"
    },
    {
      "inputs": [],
      "name": "DEFAULT_ADMIN_ROLE",
      "outputs": [
        {
          "internalType": "bytes32",
          "name": "",
          "type": "bytes32"
        }
      ],
      "stateMutability": "view",
      "type": "function"
    },
    {
      "inputs": [],
      "name": "LENDER_LIQ_ROLE",
      "outputs": [
        {
          "internalType": "bytes32",
          "name": "",
          "type": "bytes32"
        }
      ],
      "stateMutability": "view",
      "type": "function"
    },
    {
      "inputs": [],
      "name": "PAUSER_ROLE",
      "outputs": [
        {
          "internalType": "bytes32",
          "name": "",
          "type": "bytes32"
        }
      ],
      "stateMutability": "view",
      "type": "function"
    },
    {
      "inputs": [],
      "name": "RESCUER_ROLE",
      "outputs": [
        {
          "internalType": "bytes32",
          "name": "",
          "type": "bytes32"
        }
      ],
      "stateMutability": "view",
      "type": "function"
    },
    {
      "inputs": [],
      "name": "SWAPPER_ROLE",
      "outputs": [
        {
          "internalType": "bytes32",
          "name": "",
          "type": "bytes32"
        }
      ],
      "stateMutability": "view",
      "type": "function"
    },
    {
      "inputs": [],
      "name": "USDC",
      "outputs": [
        {
          "internalType": "string",
          "name": "",
          "type": "string"
        }
      ],
      "stateMutability": "view",
      "type": "function"
    },
    {
      "inputs": [],
      "name": "USDT",
      "outputs": [
        {
          "internalType": "string",
          "name": "",
          "type": "string"
        }
      ],
      "stateMutability": "view",
      "type": "function"
    },
    {
      "inputs": [],
      "name": "WBTC",
      "outputs": [
        {
          "internalType": "string",
          "name": "",
          "type": "string"
        }
      ],
      "stateMutability": "view",
      "type": "function"
    },
    {
      "inputs": [],
      "name": "WETH",
      "outputs": [
        {
          "internalType": "string",
          "name": "",
          "type": "string"
        }
      ],
      "stateMutability": "view",
      "type": "function"
    },
    {
      "inputs": [
        {
          "internalType": "string",
          "name": "_tokenSymbol",
          "type": "string"
        }
      ],
      "name": "balanceOf",
      "outputs": [
        {
          "internalType": "uint256",
          "name": "",
          "type": "uint256"
        }
      ],
      "stateMutability": "view",
      "type": "function"
    },
    {
      "inputs": [],
      "name": "endTimePeriod",
      "outputs": [
        {
          "internalType": "uint256",
          "name": "",
          "type": "uint256"
        }
      ],
      "stateMutability": "view",
      "type": "function"
    },
    {
      "inputs": [],
      "name": "getBalances",
      "outputs": [
        {
          "internalType": "uint256[]",
          "name": "",
          "type": "uint256[]"
        }
      ],
      "stateMutability": "view",
      "type": "function"
    },
    {
      "inputs": [
        {
          "internalType": "bytes32",
          "name": "role",
          "type": "bytes32"
        }
      ],
      "name": "getRoleAdmin",
      "outputs": [
        {
          "internalType": "bytes32",
          "name": "",
          "type": "bytes32"
        }
      ],
      "stateMutability": "view",
      "type": "function"
    },
    {
      "inputs": [
        {
          "internalType": "uint256",
          "name": "index",
          "type": "uint256"
        }
      ],
      "name": "getRoleByIndex",
      "outputs": [
        {
          "internalType": "bytes32",
          "name": "",
          "type": "bytes32"
        }
      ],
      "stateMutability": "view",
      "type": "function"
    },
    {
      "inputs": [],
      "name": "getRoleCount",
      "outputs": [
        {
          "internalType": "uint256",
          "name": "",
          "type": "uint256"
        }
      ],
      "stateMutability": "view",
      "type": "function"
    },
    {
      "inputs": [
        {
          "internalType": "bytes32",
          "name": "role",
          "type": "bytes32"
        },
        {
          "internalType": "uint256",
          "name": "index",
          "type": "uint256"
        }
      ],
      "name": "getRoleMember",
      "outputs": [
        {
          "internalType": "address",
          "name": "",
          "type": "address"
        }
      ],
      "stateMutability": "view",
      "type": "function"
    },
    {
      "inputs": [
        {
          "internalType": "bytes32",
          "name": "role",
          "type": "bytes32"
        }
      ],
      "name": "getRoleMemberCount",
      "outputs": [
        {
          "internalType": "uint256",
          "name": "",
          "type": "uint256"
        }
      ],
      "stateMutability": "view",
      "type": "function"
    },
    {
      "inputs": [
        {
          "internalType": "bytes32",
          "name": "role",
          "type": "bytes32"
        },
        {
          "internalType": "address",
          "name": "account",
          "type": "address"
        }
      ],
      "name": "grantRole",
      "outputs": [],
      "stateMutability": "nonpayable",
      "type": "function"
    },
    {
      "inputs": [
        {
          "internalType": "bytes32",
          "name": "role",
          "type": "bytes32"
        },
        {
          "internalType": "address",
          "name": "account",
          "type": "address"
        }
      ],
      "name": "hasRole",
      "outputs": [
        {
          "internalType": "bool",
          "name": "",
          "type": "bool"
        }
      ],
      "stateMutability": "view",
      "type": "function"
    },
    {
      "inputs": [
        {
          "internalType": "address",
          "name": "_usdcTokenAddress",
          "type": "address"
        },
        {
          "internalType": "address",
          "name": "_usdtTokenAddress",
          "type": "address"
        },
        {
          "internalType": "address",
          "name": "_wbtcTokenAddress",
          "type": "address"
        },
        {
          "internalType": "address",
          "name": "_wethTokenAddress",
          "type": "address"
        },
        {
          "internalType": "address",
          "name": "_aconcagua",
          "type": "address"
        },
        {
          "internalType": "address",
          "name": "_rescueWalletAddress",
          "type": "address"
        },
        {
          "internalType": "address",
          "name": "_withdrawWalletAddress",
          "type": "address"
        },
        {
          "internalType": "address",
          "name": "_firstLenderLiq",
          "type": "address"
        },
        {
          "internalType": "address",
          "name": "_secondLenderLiq",
          "type": "address"
        },
        {
          "internalType": "address",
          "name": "_swapRouterAddress",
          "type": "address"
        },
        {
          "internalType": "address",
          "name": "_swapperAddress",
          "type": "address"
        }
      ],
      "name": "initialize",
      "outputs": [],
      "stateMutability": "nonpayable",
      "type": "function"
    },
    {
      "inputs": [],
      "name": "pause",
      "outputs": [],
      "stateMutability": "nonpayable",
      "type": "function"
    },
    {
      "inputs": [],
      "name": "paused",
      "outputs": [
        {
          "internalType": "bool",
          "name": "",
          "type": "bool"
        }
      ],
      "stateMutability": "view",
      "type": "function"
    },
    {
      "inputs": [
        {
          "internalType": "bytes32",
          "name": "role",
          "type": "bytes32"
        },
        {
          "internalType": "address",
          "name": "account",
          "type": "address"
        }
      ],
      "name": "renounceRole",
      "outputs": [],
      "stateMutability": "nonpayable",
      "type": "function"
    },
    {
      "inputs": [
        {
          "internalType": "uint256",
          "name": "_amount",
          "type": "uint256"
        },
        {
          "internalType": "string",
          "name": "_tokenSymbol",
          "type": "string"
        }
      ],
      "name": "rescue",
      "outputs": [],
      "stateMutability": "nonpayable",
      "type": "function"
    },
    {
      "inputs": [],
      "name": "rescueWalletAddress",
      "outputs": [
        {
          "internalType": "address",
          "name": "",
          "type": "address"
        }
      ],
      "stateMutability": "view",
      "type": "function"
    },
    {
      "inputs": [
        {
          "internalType": "bytes32",
          "name": "role",
          "type": "bytes32"
        },
        {
          "internalType": "address",
          "name": "account",
          "type": "address"
        }
      ],
      "name": "revokeRole",
      "outputs": [],
      "stateMutability": "nonpayable",
      "type": "function"
    },
    {
      "inputs": [
        {
          "internalType": "address",
          "name": "_rescueWalletAddress",
          "type": "address"
        }
      ],
      "name": "setRescueWalletAddress",
      "outputs": [],
      "stateMutability": "nonpayable",
      "type": "function"
    },
    {
      "inputs": [
        {
          "internalType": "uint256",
          "name": "_startTimePeriod",
          "type": "uint256"
        }
      ],
      "name": "setStartTimePeriod",
      "outputs": [],
      "stateMutability": "nonpayable",
      "type": "function"
    },
    {
      "inputs": [
        {
          "internalType": "address",
          "name": "_tokenAddress",
          "type": "address"
        },
        {
          "internalType": "string",
          "name": "_tokenSymbol",
          "type": "string"
        }
      ],
      "name": "setTokenAddress",
      "outputs": [],
      "stateMutability": "nonpayable",
      "type": "function"
    },
    {
      "inputs": [
        {
          "internalType": "address",
          "name": "_withdrawWalletAddress",
          "type": "address"
        }
      ],
      "name": "setWithdrawWalletAddress",
      "outputs": [],
      "stateMutability": "nonpayable",
      "type": "function"
    },
    {
      "inputs": [
        {
          "internalType": "uint256",
          "name": "_withdrawalLimitPerPeriod",
          "type": "uint256"
        },
        {
          "internalType": "string",
          "name": "_tokenSymbol",
          "type": "string"
        }
      ],
      "name": "setWithdrawalLimitPerPeriod",
      "outputs": [],
      "stateMutability": "nonpayable",
      "type": "function"
    },
    {
      "inputs": [],
      "name": "startTimePeriod",
      "outputs": [
        {
          "internalType": "uint256",
          "name": "",
          "type": "uint256"
        }
      ],
      "stateMutability": "view",
      "type": "function"
    },
    {
      "inputs": [
        {
          "internalType": "bytes4",
          "name": "interfaceId",
          "type": "bytes4"
        }
      ],
      "name": "supportsInterface",
      "outputs": [
        {
          "internalType": "bool",
          "name": "",
          "type": "bool"
        }
      ],
      "stateMutability": "view",
      "type": "function"
    },
    {
      "inputs": [
        {
          "components": [
            {
              "components": [
                {
                  "internalType": "bytes",
                  "name": "path",
                  "type": "bytes"
                },
                {
                  "internalType": "address",
                  "name": "recipient",
                  "type": "address"
                },
                {
                  "internalType": "uint256",
                  "name": "deadline",
                  "type": "uint256"
                },
                {
                  "internalType": "uint256",
                  "name": "amountIn",
                  "type": "uint256"
                },
                {
                  "internalType": "uint256",
                  "name": "amountOutMinimum",
                  "type": "uint256"
                }
              ],
              "internalType": "struct ISwapRouter.ExactInputParams",
              "name": "params",
              "type": "tuple"
            },
            {
              "internalType": "address",
              "name": "tokenIn",
              "type": "address"
            },
            {
              "internalType": "address",
              "name": "tokenOut",
              "type": "address"
            }
          ],
          "internalType": "struct IColateralContract.SwapParams[]",
          "name": "swapsParams",
          "type": "tuple[]"
        }
      ],
      "name": "swapExactInputs",
      "outputs": [],
      "stateMutability": "nonpayable",
      "type": "function"
    },
    {
      "inputs": [
        {
          "internalType": "string",
          "name": "",
          "type": "string"
        }
      ],
      "name": "tokenAddress",
      "outputs": [
        {
          "internalType": "address",
          "name": "",
          "type": "address"
        }
      ],
      "stateMutability": "view",
      "type": "function"
    },
    {
      "inputs": [
        {
          "internalType": "string",
          "name": "",
          "type": "string"
        }
      ],
      "name": "tokensWithdrawnInTheLastPeriod",
      "outputs": [
        {
          "internalType": "uint256",
          "name": "",
          "type": "uint256"
        }
      ],
      "stateMutability": "view",
      "type": "function"
    },
    {
      "inputs": [],
      "name": "unpause",
      "outputs": [],
      "stateMutability": "nonpayable",
      "type": "function"
    },
    {
      "inputs": [],
      "name": "version",
      "outputs": [
        {
          "internalType": "string",
          "name": "",
          "type": "string"
        }
      ],
      "stateMutability": "pure",
      "type": "function"
    },
    {
      "inputs": [
        {
          "internalType": "uint256",
          "name": "_amount",
          "type": "uint256"
        },
        {
          "internalType": "string",
          "name": "_tokenSymbol",
          "type": "string"
        }
      ],
      "name": "withdraw",
      "outputs": [],
      "stateMutability": "nonpayable",
      "type": "function"
    },
    {
      "inputs": [],
      "name": "withdrawWalletAddress",
      "outputs": [
        {
          "internalType": "address",
          "name": "",
          "type": "address"
        }
      ],
      "stateMutability": "view",
      "type": "function"
    },
    {
      "inputs": [
        {
          "internalType": "string",
          "name": "",
          "type": "string"
        }
      ],
      "name": "withdrawalLimitPerPeriod",
      "outputs": [
        {
          "internalType": "uint256",
          "name": "",
          "type": "uint256"
        }
      ],
      "stateMutability": "view",
      "type": "function"
    }
  ],
  "bytecode": "0x60806040523480156200001157600080fd5b5060008060019054906101000a900460ff16159050808015620000445750600160008054906101000a900460ff1660ff16105b8062000080575062000061306200016360201b62002bf01760201c565b1580156200007f5750600160008054906101000a900460ff1660ff16145b5b620000c2576040517f08c379a0000000000000000000000000000000000000000000000000000000008152600401620000b9906200020d565b60405180910390fd5b60016000806101000a81548160ff021916908360ff160217905550801562000100576001600060016101000a81548160ff0219169083151502179055505b80156200015c5760008060016101000a81548160ff0219169083151502179055507f7f26b83ff96e1f2b6a682f133852f6798a09c465da95921460cefb3847402498600160405162000153919062000289565b60405180910390a15b50620002a6565b6000808273ffffffffffffffffffffffffffffffffffffffff163b119050919050565b600082825260208201905092915050565b7f496e697469616c697a61626c653a20636f6e747261637420697320616c72656160008201527f647920696e697469616c697a6564000000000000000000000000000000000000602082015250565b6000620001f5602e8362000186565b9150620002028262000197565b604082019050919050565b600060208201905081810360008301526200022881620001e6565b9050919050565b6000819050919050565b600060ff82169050919050565b6000819050919050565b6000620002716200026b62000265846200022f565b62000246565b62000239565b9050919050565b620002838162000250565b82525050565b6000602082019050620002a0600083018462000278565b92915050565b615f6980620002b66000396000f3fe608060405234801561001057600080fd5b506004361061025d5760003560e01c806376902b8311610146578063ad5c4648116100c3578063d547741f11610087578063d547741f14610714578063dc048cf214610730578063df668eca1461074c578063e387c9541461076a578063e5df800a14610786578063e63ab1e9146107a45761025d565b8063ad5c46481461066e578063b14ec1011461068c578063c54e44eb146106aa578063ca15c873146106c8578063d00411c9146106f85761025d565b806389a302711161010a57806389a30271146105a25780639010d07c146105c057806391d14854146105f05780639733749a14610620578063a217fddf146106505761025d565b806376902b831461052257806378ed0da01461053e57806383d333191461055c5780638456cb591461057a578063866ba88c146105845761025d565b806332cc815d116101df57806354fd4d50116101a357806354fd4d501461044c57806358f4354b1461046a5780635c975abb1461049a578063669d3f03146104b85780636e30199f146104d457806371372544146105045761025d565b806332cc815d146103ba57806335ee5f87146103d857806336568abe146104085780633f4ba83a146104245780634dede3de1461042e5761025d565b8063248a9ca311610226578063248a9ca31461030657806325acc985146103365780632c9c3873146103665780632f2ff15d146103825780632ffe99421461039e5761025d565b8062113e081461026257806301ffc9a7146102805780630828c404146102b057806315ac7358146102cc578063212f6039146102ea575b600080fd5b61026a6107c2565b6040516102779190613e67565b60405180910390f35b61029a60048036038101906102959190613ef5565b6109b2565b6040516102a79190613f3d565b60405180910390f35b6102ca60048036038101906102c59190613fe9565b610a2c565b005b6102d4610b4c565b6040516102e1919061408a565b60405180910390f35b61030460048036038101906102ff91906140d1565b610b73565b005b610320600480360381019061031b9190614134565b610c52565b60405161032d9190614170565b60405180910390f35b610350600480360381019061034b919061418b565b610c72565b60405161035d9190614170565b60405180910390f35b610380600480360381019061037b919061418b565b610c90565b005b61039c600480360381019061039791906141b8565b610d74565b005b6103b860048036038101906103b3919061424e565b610d95565b005b6103c261159b565b6040516103cf9190614170565b60405180910390f35b6103f260048036038101906103ed91906143dc565b6115bf565b6040516103ff9190614434565b60405180910390f35b610422600480360381019061041d91906141b8565b611686565b005b61042c611709565b005b61043661171b565b60405161044391906144ce565b60405180910390f35b610454611754565b60405161046191906144ce565b60405180910390f35b610484600480360381019061047f91906143dc565b611791565b6040516104919190614434565b60405180910390f35b6104a26117c0565b6040516104af9190613f3d565b60405180910390f35b6104d260048036038101906104cd9190613fe9565b6117d7565b005b6104ee60048036038101906104e991906143dc565b611893565b6040516104fb919061408a565b60405180910390f35b61050c6118dd565b6040516105199190614170565b60405180910390f35b61053c600480360381019061053791906144f0565b611901565b005b61054661258f565b6040516105539190614434565b60405180910390f35b610564612596565b6040516105719190614434565b60405180910390f35b6105826125a8565b005b61058c6125ba565b6040516105999190614434565b60405180910390f35b6105aa6125c1565b6040516105b791906144ce565b60405180910390f35b6105da60048036038101906105d591906145e4565b6125fa565b6040516105e7919061408a565b60405180910390f35b61060a600480360381019061060591906141b8565b612629565b6040516106179190613f3d565b60405180910390f35b61063a600480360381019061063591906143dc565b612694565b6040516106479190614434565b60405180910390f35b6106586126c3565b6040516106659190614170565b60405180910390f35b6106766126ca565b60405161068391906144ce565b60405180910390f35b610694612703565b6040516106a1919061408a565b60405180910390f35b6106b261272a565b6040516106bf91906144ce565b60405180910390f35b6106e260048036038101906106dd9190614134565b612763565b6040516106ef9190614434565b60405180910390f35b610712600480360381019061070d91906140d1565b612787565b005b61072e600480360381019061072991906141b8565b612866565b005b61074a60048036038101906107459190613fe9565b612887565b005b610754612a6e565b6040516107619190614170565b60405180910390f35b610784600480360381019061077f9190614624565b612a92565b005b61078e612ba8565b60405161079b9190614170565b60405180910390f35b6107ac612bcc565b6040516107b99190614170565b60405180910390f35b60606000600567ffffffffffffffff8111156107e1576107e06142b1565b5b60405190808252806020026020018201604052801561080f5781602001602082028036833780820191505090505b509050478160008151811061082757610826614684565b5b6020026020010181815250506108716040518060400160405280600481526020017f55534443000000000000000000000000000000000000000000000000000000008152506115bf565b8160018151811061088557610884614684565b5b6020026020010181815250506108cf6040518060400160405280600481526020017f55534454000000000000000000000000000000000000000000000000000000008152506115bf565b816002815181106108e3576108e2614684565b5b60200260200101818152505061092d6040518060400160405280600481526020017f57425443000000000000000000000000000000000000000000000000000000008152506115bf565b8160038151811061094157610940614684565b5b60200260200101818152505061098b6040518060400160405280600481526020017f57455448000000000000000000000000000000000000000000000000000000008152506115bf565b8160048151811061099f5761099e614684565b5b6020026020010181815250508091505090565b60007f5a05180f000000000000000000000000000000000000000000000000000000007bffffffffffffffffffffffffffffffffffffffffffffffffffffffff1916827bffffffffffffffffffffffffffffffffffffffffffffffffffffffff19161480610a255750610a2482612c13565b5b9050919050565b7fbffb4faf8a508f503a2ca036effd0bc1f82615d3ebfddb934edf718f23672707610a5681612c8d565b610a5e612ca1565b610a66612ceb565b610ad561012f8484604051610a7c9291906146e3565b908152602001604051809103902060009054906101000a900473ffffffffffffffffffffffffffffffffffffffff1661013460009054906101000a900473ffffffffffffffffffffffffffffffffffffffff1686612d3a565b7f22cb89e6358014bb27f5658e2b820189f8f4c9e3f7165ecf266edc53be12d9fa610afe612dc0565b84848761013460009054906101000a900473ffffffffffffffffffffffffffffffffffffffff16604051610b36959493929190614729565b60405180910390a1610b46612dc8565b50505050565b61013460009054906101000a900473ffffffffffffffffffffffffffffffffffffffff1681565b7ffaad79a708d82d095486f5a83b18341f12a8f717d3011ab929d43135c1af73e2610b9d81612c8d565b600073ffffffffffffffffffffffffffffffffffffffff168273ffffffffffffffffffffffffffffffffffffffff1603610c0c576040517f08c379a0000000000000000000000000000000000000000000000000000000008152600401610c03906147c3565b60405180910390fd5b8161013560006101000a81548173ffffffffffffffffffffffffffffffffffffffff021916908373ffffffffffffffffffffffffffffffffffffffff1602179055505050565b600060656000838152602001908152602001600020600101549050919050565b6000610c898261012d612dd290919063ffffffff16565b9050919050565b7ffaad79a708d82d095486f5a83b18341f12a8f717d3011ab929d43135c1af73e2610cba81612c8d565b610132548210610cff576040517f08c379a0000000000000000000000000000000000000000000000000000000008152600401610cf690614855565b60405180910390fd5b426201518083610d0f91906148a4565b11610d4f576040517f08c379a0000000000000000000000000000000000000000000000000000000008152600401610d469061494a565b60405180910390fd5b81610132819055506201518061013254610d6991906148a4565b610133819055505050565b610d7d82610c52565b610d8681612c8d565b610d908383612de9565b505050565b7fd2761b102bda9831f4af400cc824b8cecb9cc5c1c85c51acb1479db9735fbfc6610dbf81612c8d565b60005b838390508110156115955736848483818110610de157610de0614684565b5b9050602002810190610df3919061496f565b90503073ffffffffffffffffffffffffffffffffffffffff16818060000190610e1c9190614997565b6020016020810190610e2e91906140d1565b73ffffffffffffffffffffffffffffffffffffffff1614610e84576040517f08c379a0000000000000000000000000000000000000000000000000000000008152600401610e7b90614a0b565b60405180910390fd5b6000818060000190610e969190614997565b6080013511610eda576040517f08c379a0000000000000000000000000000000000000000000000000000000008152600401610ed190614a77565b60405180910390fd5b61012f604051610ee990614ae3565b908152602001604051809103902060009054906101000a900473ffffffffffffffffffffffffffffffffffffffff1673ffffffffffffffffffffffffffffffffffffffff16816040016020810190610f4191906140d1565b73ffffffffffffffffffffffffffffffffffffffff161480610fdd575061012f604051610f6d90614b44565b908152602001604051809103902060009054906101000a900473ffffffffffffffffffffffffffffffffffffffff1673ffffffffffffffffffffffffffffffffffffffff16816040016020810190610fc591906140d1565b73ffffffffffffffffffffffffffffffffffffffff16145b61101c576040517f08c379a000000000000000000000000000000000000000000000000000000000815260040161101390614ba5565b60405180910390fd5b600081602001602081019061103191906140d1565b905060008280600001906110459190614997565b606001351180156110e257508073ffffffffffffffffffffffffffffffffffffffff166370a08231306040518263ffffffff1660e01b815260040161108a919061408a565b602060405180830381865afa1580156110a7573d6000803e3d6000fd5b505050506040513d601f19601f820116820180604052508101906110cb9190614bda565b8280600001906110db9190614997565b6060013511155b611121576040517f08c379a000000000000000000000000000000000000000000000000000000000815260040161111890614c53565b60405180910390fd5b8073ffffffffffffffffffffffffffffffffffffffff1663095ea7b361013660009054906101000a900473ffffffffffffffffffffffffffffffffffffffff168480600001906111719190614997565b606001356040518363ffffffff1660e01b8152600401611192929190614c73565b6020604051808303816000875af11580156111b1573d6000803e3d6000fd5b505050506040513d601f19601f820116820180604052508101906111d59190614cc8565b611214576040517f08c379a000000000000000000000000000000000000000000000000000000000815260040161120b90614d41565b60405180910390fd5b61013660009054906101000a900473ffffffffffffffffffffffffffffffffffffffff1673ffffffffffffffffffffffffffffffffffffffff1663c04b8d598380600001906112639190614997565b6040518263ffffffff1660e01b815260040161127f9190614eee565b6020604051808303816000875af19250505080156112bb57506040513d601f19601f820116820180604052508101906112b89190614bda565b60015b611429576112c7614f1d565b806308c379a00361141857506112db614f3f565b806112e6575061141a565b7f48dbf1f65dc9fb918dcf47a87d0d7dbfe9cd78bcfaea409049ee36785201cb9183602001602081019061131a91906140d1565b82604051611329929190614fcf565b60405180910390a18173ffffffffffffffffffffffffffffffffffffffff1663095ea7b361013660009054906101000a900473ffffffffffffffffffffffffffffffffffffffff1660006040518363ffffffff1660e01b8152600401611390929190615044565b6020604051808303816000875af11580156113af573d6000803e3d6000fd5b505050506040513d601f19601f820116820180604052508101906113d39190614cc8565b611412576040517f08c379a0000000000000000000000000000000000000000000000000000000008152600401611409906150b9565b60405180910390fd5b50611424565b505b3d6000803e3d6000fd5b611580565b7ffa2dda1cc1b86e41239702756b13effbc1a092b5c57e3ad320fbe4f3b13fe23583602001602081019061145d91906140d1565b84604001602081019061147091906140d1565b8580600001906114809190614997565b606001358460405161149594939291906150d9565b60405180910390a18173ffffffffffffffffffffffffffffffffffffffff1663095ea7b361013660009054906101000a900473ffffffffffffffffffffffffffffffffffffffff1660006040518363ffffffff1660e01b81526004016114fc929190615044565b6020604051808303816000875af115801561151b573d6000803e3d6000fd5b505050506040513d601f19601f8201168201806040525081019061153f9190614cc8565b61157e576040517f08c379a0000000000000000000000000000000000000000000000000000000008152600401611575906150b9565b60405180910390fd5b505b5050808061158d9061511e565b915050610dc2565b50505050565b7ffd37f88a14d7ed985885a1af8f2ad5b64dd7eb00ab89168649791632bb9bb4a681565b60008061012f836040516115d39190615197565b908152602001604051809103902060009054906101000a900473ffffffffffffffffffffffffffffffffffffffff1690508073ffffffffffffffffffffffffffffffffffffffff166370a08231306040518263ffffffff1660e01b815260040161163d919061408a565b602060405180830381865afa15801561165a573d6000803e3d6000fd5b505050506040513d601f19601f8201168201806040525081019061167e9190614bda565b915050919050565b61168e612dc0565b73ffffffffffffffffffffffffffffffffffffffff168173ffffffffffffffffffffffffffffffffffffffff16146116fb576040517f08c379a00000000000000000000000000000000000000000000000000000000081526004016116f290615220565b60405180910390fd5b6117058282612e1d565b5050565b611711612e51565b611719612efb565b565b6040518060400160405280600481526020017f574254430000000000000000000000000000000000000000000000000000000081525081565b60606040518060400160405280600581526020017f312e302e30000000000000000000000000000000000000000000000000000000815250905090565b610131818051602081018201805184825260208301602085012081835280955050505050506000915090505481565b600060c960009054906101000a900460ff16905090565b7ffaad79a708d82d095486f5a83b18341f12a8f717d3011ab929d43135c1af73e261180181612c8d565b600061013084846040516118169291906146e3565b908152602001604051809103902054905084610130858560405161183b9291906146e3565b9081526020016040518091039020819055507f0f2e8bfc06e6af8616ccee187022bf26cdb3a9e3d68cb7b17a2428a859cfc8253385858489604051611884959493929190615240565b60405180910390a15050505050565b61012f818051602081018201805184825260208301602085012081835280955050505050506000915054906101000a900473ffffffffffffffffffffffffffffffffffffffff1681565b7fbffb4faf8a508f503a2ca036effd0bc1f82615d3ebfddb934edf718f2367270781565b60008060019054906101000a900460ff161590508080156119325750600160008054906101000a900460ff1660ff16105b8061195f575061194130612bf0565b15801561195e5750600160008054906101000a900460ff1660ff16145b5b61199e576040517f08c379a000000000000000000000000000000000000000000000000000000000815260040161199590615300565b60405180910390fd5b60016000806101000a81548160ff021916908360ff16021790555080156119db576001600060016101000a81548160ff0219169083151502179055505b600073ffffffffffffffffffffffffffffffffffffffff168873ffffffffffffffffffffffffffffffffffffffff1603611a4a576040517f08c379a0000000000000000000000000000000000000000000000000000000008152600401611a419061536c565b60405180910390fd5b600073ffffffffffffffffffffffffffffffffffffffff168773ffffffffffffffffffffffffffffffffffffffff1603611ab9576040517f08c379a0000000000000000000000000000000000000000000000000000000008152600401611ab0906153d8565b60405180910390fd5b600073ffffffffffffffffffffffffffffffffffffffff168673ffffffffffffffffffffffffffffffffffffffff1603611b28576040517f08c379a0000000000000000000000000000000000000000000000000000000008152600401611b1f90615444565b60405180910390fd5b600073ffffffffffffffffffffffffffffffffffffffff168573ffffffffffffffffffffffffffffffffffffffff1603611b97576040517f08c379a0000000000000000000000000000000000000000000000000000000008152600401611b8e906154b0565b60405180910390fd5b600073ffffffffffffffffffffffffffffffffffffffff168473ffffffffffffffffffffffffffffffffffffffff1603611c06576040517f08c379a0000000000000000000000000000000000000000000000000000000008152600401611bfd9061551c565b60405180910390fd5b600073ffffffffffffffffffffffffffffffffffffffff168373ffffffffffffffffffffffffffffffffffffffff1603611c75576040517f08c379a0000000000000000000000000000000000000000000000000000000008152600401611c6c90615588565b60405180910390fd5b600073ffffffffffffffffffffffffffffffffffffffff168273ffffffffffffffffffffffffffffffffffffffff1603611ce4576040517f08c379a0000000000000000000000000000000000000000000000000000000008152600401611cdb906155f4565b60405180910390fd5b611cec612f5e565b611cf4612faf565b611cfc61301b565b8b61012f6040518060400160405280600481526020017f5553444300000000000000000000000000000000000000000000000000000000815250604051611d439190615197565b908152602001604051809103902060006101000a81548173ffffffffffffffffffffffffffffffffffffffff021916908373ffffffffffffffffffffffffffffffffffffffff1602179055508a61012f6040518060400160405280600481526020017f5553445400000000000000000000000000000000000000000000000000000000815250604051611dd69190615197565b908152602001604051809103902060006101000a81548173ffffffffffffffffffffffffffffffffffffffff021916908373ffffffffffffffffffffffffffffffffffffffff1602179055508961012f6040518060400160405280600481526020017f5742544300000000000000000000000000000000000000000000000000000000815250604051611e699190615197565b908152602001604051809103902060006101000a81548173ffffffffffffffffffffffffffffffffffffffff021916908373ffffffffffffffffffffffffffffffffffffffff1602179055508861012f6040518060400160405280600481526020017f5745544800000000000000000000000000000000000000000000000000000000815250604051611efc9190615197565b908152602001604051809103902060006101000a81548173ffffffffffffffffffffffffffffffffffffffff021916908373ffffffffffffffffffffffffffffffffffffffff16021790555042610132819055506201518061013254611f6291906148a4565b610133819055507fffffffffffffffffffffffffffffffffffffffffffffffffffffffffffffffff6101306040518060400160405280600481526020017f5553444300000000000000000000000000000000000000000000000000000000815250604051611fd09190615197565b9081526020016040518091039020819055507fffffffffffffffffffffffffffffffffffffffffffffffffffffffffffffffff6101306040518060400160405280600481526020017f55534454000000000000000000000000000000000000000000000000000000008152506040516120499190615197565b9081526020016040518091039020819055507fffffffffffffffffffffffffffffffffffffffffffffffffffffffffffffffff6101306040518060400160405280600481526020017f57425443000000000000000000000000000000000000000000000000000000008152506040516120c29190615197565b9081526020016040518091039020819055507fffffffffffffffffffffffffffffffffffffffffffffffffffffffffffffffff6101306040518060400160405280600481526020017f574554480000000000000000000000000000000000000000000000000000000081525060405161213b9190615197565b9081526020016040518091039020819055508561013560006101000a81548173ffffffffffffffffffffffffffffffffffffffff021916908373ffffffffffffffffffffffffffffffffffffffff1602179055508661013460006101000a81548173ffffffffffffffffffffffffffffffffffffffff021916908373ffffffffffffffffffffffffffffffffffffffff1602179055508261013660006101000a81548173ffffffffffffffffffffffffffffffffffffffff021916908373ffffffffffffffffffffffffffffffffffffffff1602179055506122487ffaad79a708d82d095486f5a83b18341f12a8f717d3011ab929d43135c1af73e261012d61307490919063ffffffff16565b5061227e7ffd37f88a14d7ed985885a1af8f2ad5b64dd7eb00ab89168649791632bb9bb4a661012d61307490919063ffffffff16565b506122b47fbffb4faf8a508f503a2ca036effd0bc1f82615d3ebfddb934edf718f2367270761012d61307490919063ffffffff16565b506122ea7f539440820030c4994db4e31b6b800deafd503688728f932addfe7a410515c14c61012d61307490919063ffffffff16565b506123207fd2761b102bda9831f4af400cc824b8cecb9cc5c1c85c51acb1479db9735fbfc661012d61307490919063ffffffff16565b5061234b7ffaad79a708d82d095486f5a83b18341f12a8f717d3011ab929d43135c1af73e289612de9565b6123757ffd37f88a14d7ed985885a1af8f2ad5b64dd7eb00ab89168649791632bb9bb4a686612de9565b61239f7ffd37f88a14d7ed985885a1af8f2ad5b64dd7eb00ab89168649791632bb9bb4a685612de9565b6123c97fd2761b102bda9831f4af400cc824b8cecb9cc5c1c85c51acb1479db9735fbfc683612de9565b6123f37ffaad79a708d82d095486f5a83b18341f12a8f717d3011ab929d43135c1af73e28061308b565b61241d7ffd37f88a14d7ed985885a1af8f2ad5b64dd7eb00ab89168649791632bb9bb4a68061308b565b6124677fbffb4faf8a508f503a2ca036effd0bc1f82615d3ebfddb934edf718f236727077ffaad79a708d82d095486f5a83b18341f12a8f717d3011ab929d43135c1af73e261308b565b6124b17f539440820030c4994db4e31b6b800deafd503688728f932addfe7a410515c14c7ffaad79a708d82d095486f5a83b18341f12a8f717d3011ab929d43135c1af73e261308b565b6124db7fd2761b102bda9831f4af400cc824b8cecb9cc5c1c85c51acb1479db9735fbfc68061308b565b7f0a965308374b31e171cb5d3a3534756f07f245aacde8ea115b2ee33fef7545c0338d8d8d8d8d8d8d8d8d8d8d6040516125209c9b9a99989796959493929190615614565b60405180910390a180156125815760008060016101000a81548160ff0219169083151502179055507f7f26b83ff96e1f2b6a682f133852f6798a09c465da95921460cefb384740249860016040516125789190615716565b60405180910390a15b505050505050505050505050565b6101335481565b60006125a361012d6130e7565b905090565b6125b0612e51565b6125b86130fc565b565b6101325481565b6040518060400160405280600481526020017f555344430000000000000000000000000000000000000000000000000000000081525081565b6000612621826097600086815260200190815260200160002061315f90919063ffffffff16565b905092915050565b60006065600084815260200190815260200160002060000160008373ffffffffffffffffffffffffffffffffffffffff1673ffffffffffffffffffffffffffffffffffffffff16815260200190815260200160002060009054906101000a900460ff16905092915050565b610130818051602081018201805184825260208301602085012081835280955050505050506000915090505481565b6000801b81565b6040518060400160405280600481526020017f574554480000000000000000000000000000000000000000000000000000000081525081565b61013560009054906101000a900473ffffffffffffffffffffffffffffffffffffffff1681565b6040518060400160405280600481526020017f555344540000000000000000000000000000000000000000000000000000000081525081565b600061278060976000848152602001908152602001600020613179565b9050919050565b7ffaad79a708d82d095486f5a83b18341f12a8f717d3011ab929d43135c1af73e26127b181612c8d565b600073ffffffffffffffffffffffffffffffffffffffff168273ffffffffffffffffffffffffffffffffffffffff1603612820576040517f08c379a00000000000000000000000000000000000000000000000000000000081526004016128179061577d565b60405180910390fd5b8161013460006101000a81548173ffffffffffffffffffffffffffffffffffffffff021916908373ffffffffffffffffffffffffffffffffffffffff1602179055505050565b61286f82610c52565b61287881612c8d565b6128828383612e1d565b505050565b7ffd37f88a14d7ed985885a1af8f2ad5b64dd7eb00ab89168649791632bb9bb4a66128b181612c8d565b6128b9612ca1565b6128c1612ceb565b6128c961318e565b61013183836040516128dc9291906146e3565b908152602001604051809103902054846128f691906148a4565b61013084846040516129099291906146e3565b9081526020016040518091039020541015612959576040517f08c379a0000000000000000000000000000000000000000000000000000000008152600401612950906157e9565b60405180910390fd5b83610131848460405161296d9291906146e3565b9081526020016040518091039020600082825461298a91906148a4565b92505081905550612a0061012f84846040516129a79291906146e3565b908152602001604051809103902060009054906101000a900473ffffffffffffffffffffffffffffffffffffffff1661013560009054906101000a900473ffffffffffffffffffffffffffffffffffffffff1686612d3a565b7f901c03da5d88eb3d62ab4617e7b7d17d86db16356823a7971127d5181a842fef61013560009054906101000a900473ffffffffffffffffffffffffffffffffffffffff16848487604051612a589493929190615809565b60405180910390a1612a68612dc8565b50505050565b7fd2761b102bda9831f4af400cc824b8cecb9cc5c1c85c51acb1479db9735fbfc681565b7ffaad79a708d82d095486f5a83b18341f12a8f717d3011ab929d43135c1af73e2612abc81612c8d565b600061012f8484604051612ad19291906146e3565b908152602001604051809103902060009054906101000a900473ffffffffffffffffffffffffffffffffffffffff1690508461012f8585604051612b169291906146e3565b908152602001604051809103902060006101000a81548173ffffffffffffffffffffffffffffffffffffffff021916908373ffffffffffffffffffffffffffffffffffffffff1602179055507f3cd72d6f5ed03c1310376e5a3951d7ee3a4813b66f9be0333ab32cf0d25cb5013385858489604051612b99959493929190615849565b60405180910390a15050505050565b7ffaad79a708d82d095486f5a83b18341f12a8f717d3011ab929d43135c1af73e281565b7f539440820030c4994db4e31b6b800deafd503688728f932addfe7a410515c14c81565b6000808273ffffffffffffffffffffffffffffffffffffffff163b119050919050565b60007f7965db0b000000000000000000000000000000000000000000000000000000007bffffffffffffffffffffffffffffffffffffffffffffffffffffffff1916827bffffffffffffffffffffffffffffffffffffffffffffffffffffffff19161480612c865750612c8582613363565b5b9050919050565b612c9e81612c99612dc0565b6133cd565b50565b612ca96117c0565b15612ce9576040517f08c379a0000000000000000000000000000000000000000000000000000000008152600401612ce0906158e3565b60405180910390fd5b565b600260fb5403612d30576040517f08c379a0000000000000000000000000000000000000000000000000000000008152600401612d279061594f565b60405180910390fd5b600260fb81905550565b612dbb8363a9059cbb60e01b8484604051602401612d59929190614c73565b604051602081830303815290604052907bffffffffffffffffffffffffffffffffffffffffffffffffffffffff19166020820180517bffffffffffffffffffffffffffffffffffffffffffffffffffffffff8381831617835250505050613452565b505050565b600033905090565b600160fb81905550565b6000612de1836000018361351a565b905092915050565b612df38282613545565b612e18816097600085815260200190815260200160002061362690919063ffffffff16565b505050565b612e278282613656565b612e4c816097600085815260200190815260200160002061373890919063ffffffff16565b505050565b612e827f539440820030c4994db4e31b6b800deafd503688728f932addfe7a410515c14c612e7d612dc0565b612629565b80612eba5750612eb97ffaad79a708d82d095486f5a83b18341f12a8f717d3011ab929d43135c1af73e2612eb4612dc0565b612629565b5b612ef9576040517f08c379a0000000000000000000000000000000000000000000000000000000008152600401612ef0906159bb565b60405180910390fd5b565b612f03613768565b600060c960006101000a81548160ff0219169083151502179055507f5db9ee0a495bf2e6ff9c91a7834c1ba4fdd244a5e8aa4e537bd38aeae4b073aa612f47612dc0565b604051612f54919061408a565b60405180910390a1565b600060019054906101000a900460ff16612fad576040517f08c379a0000000000000000000000000000000000000000000000000000000008152600401612fa490615a4d565b60405180910390fd5b565b600060019054906101000a900460ff16612ffe576040517f08c379a0000000000000000000000000000000000000000000000000000000008152600401612ff590615a4d565b60405180910390fd5b600060c960006101000a81548160ff021916908315150217905550565b600060019054906101000a900460ff1661306a576040517f08c379a000000000000000000000000000000000000000000000000000000000815260040161306190615a4d565b60405180910390fd5b600160fb81905550565b600061308383600001836137b1565b905092915050565b600061309683610c52565b90508160656000858152602001908152602001600020600101819055508181847fbd79b86ffe0ab8e8776151514217cd7cacd52c909f66475c3af44e129f0b00ff60405160405180910390a4505050565b60006130f582600001613821565b9050919050565b613104612ca1565b600160c960006101000a81548160ff0219169083151502179055507f62e78cea01bee320cd4e420270b5ea74000d11b0c9f74754ebdbfc544b05a258613148612dc0565b604051613155919061408a565b60405180910390a1565b600061316e836000018361351a565b60001c905092915050565b600061318782600001613821565b9050919050565b610133544211156133615760006201518061013354426131ae9190615a6d565b6131b89190615ad0565b905062015180816131c99190615b01565b610133546131d791906148a4565b6101328190555062015180610132546131f091906148a4565b6101338190555060006101316040518060400160405280600481526020017f555344430000000000000000000000000000000000000000000000000000000081525060405161323f9190615197565b90815260200160405180910390208190555060006101316040518060400160405280600481526020017f55534454000000000000000000000000000000000000000000000000000000008152506040516132999190615197565b90815260200160405180910390208190555060006101316040518060400160405280600481526020017f57425443000000000000000000000000000000000000000000000000000000008152506040516132f39190615197565b90815260200160405180910390208190555060006101316040518060400160405280600481526020017f574554480000000000000000000000000000000000000000000000000000000081525060405161334d9190615197565b908152602001604051809103902081905550505b565b60007f01ffc9a7000000000000000000000000000000000000000000000000000000007bffffffffffffffffffffffffffffffffffffffffffffffffffffffff1916827bffffffffffffffffffffffffffffffffffffffffffffffffffffffff1916149050919050565b6133d78282612629565b61344e576133e481613832565b6133f28360001c602061385f565b604051602001613403929190615bdb565b6040516020818303038152906040526040517f08c379a000000000000000000000000000000000000000000000000000000000815260040161344591906144ce565b60405180910390fd5b5050565b60006134b4826040518060400160405280602081526020017f5361666545524332303a206c6f772d6c6576656c2063616c6c206661696c65648152508573ffffffffffffffffffffffffffffffffffffffff16613a9b9092919063ffffffff16565b90506000815114806134d65750808060200190518101906134d59190614cc8565b5b613515576040517f08c379a000000000000000000000000000000000000000000000000000000000815260040161350c90615c87565b60405180910390fd5b505050565b600082600001828154811061353257613531614684565b5b9060005260206000200154905092915050565b61354f8282612629565b6136225760016065600084815260200190815260200160002060000160008373ffffffffffffffffffffffffffffffffffffffff1673ffffffffffffffffffffffffffffffffffffffff16815260200190815260200160002060006101000a81548160ff0219169083151502179055506135c7612dc0565b73ffffffffffffffffffffffffffffffffffffffff168173ffffffffffffffffffffffffffffffffffffffff16837f2f8788117e7eff1d82e926ec794901d17c78024a50270940304540a733656f0d60405160405180910390a45b5050565b600061364e836000018373ffffffffffffffffffffffffffffffffffffffff1660001b6137b1565b905092915050565b6136608282612629565b156137345760006065600084815260200190815260200160002060000160008373ffffffffffffffffffffffffffffffffffffffff1673ffffffffffffffffffffffffffffffffffffffff16815260200190815260200160002060006101000a81548160ff0219169083151502179055506136d9612dc0565b73ffffffffffffffffffffffffffffffffffffffff168173ffffffffffffffffffffffffffffffffffffffff16837ff6391f5c32d9c69d2a47ea670b442974b53935d1edc7fd64eb21e047a839171b60405160405180910390a45b5050565b6000613760836000018373ffffffffffffffffffffffffffffffffffffffff1660001b613ab3565b905092915050565b6137706117c0565b6137af576040517f08c379a00000000000000000000000000000000000000000000000000000000081526004016137a690615cf3565b60405180910390fd5b565b60006137bd8383613bc7565b61381657826000018290806001815401808255809150506001900390600052602060002001600090919091909150558260000180549050836001016000848152602001908152602001600020819055506001905061381b565b600090505b92915050565b600081600001805490509050919050565b60606138588273ffffffffffffffffffffffffffffffffffffffff16601460ff1661385f565b9050919050565b6060600060028360026138729190615b01565b61387c91906148a4565b67ffffffffffffffff811115613895576138946142b1565b5b6040519080825280601f01601f1916602001820160405280156138c75781602001600182028036833780820191505090505b5090507f3000000000000000000000000000000000000000000000000000000000000000816000815181106138ff576138fe614684565b5b60200101907effffffffffffffffffffffffffffffffffffffffffffffffffffffffffffff1916908160001a9053507f78000000000000000000000000000000000000000000000000000000000000008160018151811061396357613962614684565b5b60200101907effffffffffffffffffffffffffffffffffffffffffffffffffffffffffffff1916908160001a905350600060018460026139a39190615b01565b6139ad91906148a4565b90505b6001811115613a4d577f3031323334353637383961626364656600000000000000000000000000000000600f8616601081106139ef576139ee614684565b5b1a60f81b828281518110613a0657613a05614684565b5b60200101907effffffffffffffffffffffffffffffffffffffffffffffffffffffffffffff1916908160001a905350600485901c945080613a4690615d13565b90506139b0565b5060008414613a91576040517f08c379a0000000000000000000000000000000000000000000000000000000008152600401613a8890615d88565b60405180910390fd5b8091505092915050565b6060613aaa8484600085613bea565b90509392505050565b60008083600101600084815260200190815260200160002054905060008114613bbb576000600182613ae59190615a6d565b9050600060018660000180549050613afd9190615a6d565b9050818114613b6c576000866000018281548110613b1e57613b1d614684565b5b9060005260206000200154905080876000018481548110613b4257613b41614684565b5b90600052602060002001819055508387600101600083815260200190815260200160002081905550505b85600001805480613b8057613b7f615da8565b5b600190038181906000526020600020016000905590558560010160008681526020019081526020016000206000905560019350505050613bc1565b60009150505b92915050565b600080836001016000848152602001908152602001600020541415905092915050565b606082471015613c2f576040517f08c379a0000000000000000000000000000000000000000000000000000000008152600401613c2690615e49565b60405180910390fd5b6000808673ffffffffffffffffffffffffffffffffffffffff168587604051613c589190615eb0565b60006040518083038185875af1925050503d8060008114613c95576040519150601f19603f3d011682016040523d82523d6000602084013e613c9a565b606091505b5091509150613cab87838387613cb7565b92505050949350505050565b60608315613d19576000835103613d1157613cd185613d2c565b613d10576040517f08c379a0000000000000000000000000000000000000000000000000000000008152600401613d0790615f13565b60405180910390fd5b5b829050613d24565b613d238383613d4f565b5b949350505050565b6000808273ffffffffffffffffffffffffffffffffffffffff163b119050919050565b600082511115613d625781518083602001fd5b806040517f08c379a0000000000000000000000000000000000000000000000000000000008152600401613d9691906144ce565b60405180910390fd5b600081519050919050565b600082825260208201905092915050565b6000819050602082019050919050565b6000819050919050565b613dde81613dcb565b82525050565b6000613df08383613dd5565b60208301905092915050565b6000602082019050919050565b6000613e1482613d9f565b613e1e8185613daa565b9350613e2983613dbb565b8060005b83811015613e5a578151613e418882613de4565b9750613e4c83613dfc565b925050600181019050613e2d565b5085935050505092915050565b60006020820190508181036000830152613e818184613e09565b905092915050565b6000604051905090565b600080fd5b600080fd5b60007fffffffff0000000000000000000000000000000000000000000000000000000082169050919050565b613ed281613e9d565b8114613edd57600080fd5b50565b600081359050613eef81613ec9565b92915050565b600060208284031215613f0b57613f0a613e93565b5b6000613f1984828501613ee0565b91505092915050565b60008115159050919050565b613f3781613f22565b82525050565b6000602082019050613f526000830184613f2e565b92915050565b613f6181613dcb565b8114613f6c57600080fd5b50565b600081359050613f7e81613f58565b92915050565b600080fd5b600080fd5b600080fd5b60008083601f840112613fa957613fa8613f84565b5b8235905067ffffffffffffffff811115613fc657613fc5613f89565b5b602083019150836001820283011115613fe257613fe1613f8e565b5b9250929050565b60008060006040848603121561400257614001613e93565b5b600061401086828701613f6f565b935050602084013567ffffffffffffffff81111561403157614030613e98565b5b61403d86828701613f93565b92509250509250925092565b600073ffffffffffffffffffffffffffffffffffffffff82169050919050565b600061407482614049565b9050919050565b61408481614069565b82525050565b600060208201905061409f600083018461407b565b92915050565b6140ae81614069565b81146140b957600080fd5b50565b6000813590506140cb816140a5565b92915050565b6000602082840312156140e7576140e6613e93565b5b60006140f5848285016140bc565b91505092915050565b6000819050919050565b614111816140fe565b811461411c57600080fd5b50565b60008135905061412e81614108565b92915050565b60006020828403121561414a57614149613e93565b5b60006141588482850161411f565b91505092915050565b61416a816140fe565b82525050565b60006020820190506141856000830184614161565b92915050565b6000602082840312156141a1576141a0613e93565b5b60006141af84828501613f6f565b91505092915050565b600080604083850312156141cf576141ce613e93565b5b60006141dd8582860161411f565b92505060206141ee858286016140bc565b9150509250929050565b60008083601f84011261420e5761420d613f84565b5b8235905067ffffffffffffffff81111561422b5761422a613f89565b5b60208301915083602082028301111561424757614246613f8e565b5b9250929050565b6000806020838503121561426557614264613e93565b5b600083013567ffffffffffffffff81111561428357614282613e98565b5b61428f858286016141f8565b92509250509250929050565b600080fd5b6000601f19601f8301169050919050565b7f4e487b7100000000000000000000000000000000000000000000000000000000600052604160045260246000fd5b6142e9826142a0565b810181811067ffffffffffffffff82111715614308576143076142b1565b5b80604052505050565b600061431b613e89565b905061432782826142e0565b919050565b600067ffffffffffffffff821115614347576143466142b1565b5b614350826142a0565b9050602081019050919050565b82818337600083830152505050565b600061437f61437a8461432c565b614311565b90508281526020810184848401111561439b5761439a61429b565b5b6143a684828561435d565b509392505050565b600082601f8301126143c3576143c2613f84565b5b81356143d384826020860161436c565b91505092915050565b6000602082840312156143f2576143f1613e93565b5b600082013567ffffffffffffffff8111156144105761440f613e98565b5b61441c848285016143ae565b91505092915050565b61442e81613dcb565b82525050565b60006020820190506144496000830184614425565b92915050565b600081519050919050565b600082825260208201905092915050565b60005b8381101561448957808201518184015260208101905061446e565b60008484015250505050565b60006144a08261444f565b6144aa818561445a565b93506144ba81856020860161446b565b6144c3816142a0565b840191505092915050565b600060208201905081810360008301526144e88184614495565b905092915050565b60008060008060008060008060008060006101608c8e03121561451657614515613e93565b5b60006145248e828f016140bc565b9b505060206145358e828f016140bc565b9a505060406145468e828f016140bc565b99505060606145578e828f016140bc565b98505060806145688e828f016140bc565b97505060a06145798e828f016140bc565b96505060c061458a8e828f016140bc565b95505060e061459b8e828f016140bc565b9450506101006145ad8e828f016140bc565b9350506101206145bf8e828f016140bc565b9250506101406145d18e828f016140bc565b9150509295989b509295989b9093969950565b600080604083850312156145fb576145fa613e93565b5b60006146098582860161411f565b925050602061461a85828601613f6f565b9150509250929050565b60008060006040848603121561463d5761463c613e93565b5b600061464b868287016140bc565b935050602084013567ffffffffffffffff81111561466c5761466b613e98565b5b61467886828701613f93565b92509250509250925092565b7f4e487b7100000000000000000000000000000000000000000000000000000000600052603260045260246000fd5b600081905092915050565b60006146ca83856146b3565b93506146d783858461435d565b82840190509392505050565b60006146f08284866146be565b91508190509392505050565b6000614708838561445a565b935061471583858461435d565b61471e836142a0565b840190509392505050565b600060808201905061473e600083018861407b565b81810360208301526147518186886146fc565b90506147606040830185614425565b61476d606083018461407b565b9695505050505050565b7f5769746864726177304164647200000000000000000000000000000000000000600082015250565b60006147ad600d8361445a565b91506147b882614777565b602082019050919050565b600060208201905081810360008301526147dc816147a0565b9050919050565b7f4e657720737461727454696d65506572696f64206d757374206265206265666f60008201527f72652063757272656e7420737461727454696d65506572696f64000000000000602082015250565b600061483f603a8361445a565b915061484a826147e3565b604082019050919050565b6000602082019050818103600083015261486e81614832565b9050919050565b7f4e487b7100000000000000000000000000000000000000000000000000000000600052601160045260246000fd5b60006148af82613dcb565b91506148ba83613dcb565b92508282019050808211156148d2576148d1614875565b5b92915050565b7f4e657720656e6454696d65506572696f64206d7573742062652061667465722060008201527f63757272656e742074696d650000000000000000000000000000000000000000602082015250565b6000614934602c8361445a565b915061493f826148d8565b604082019050919050565b6000602082019050818103600083015261496381614927565b9050919050565b600080fd5b60008235600160600383360303811261498b5761498a61496a565b5b80830191505092915050565b60008235600160a0038336030381126149b3576149b261496a565b5b80830191505092915050565b7f45727220726563697069656e7400000000000000000000000000000000000000600082015250565b60006149f5600d8361445a565b9150614a00826149bf565b602082019050919050565b60006020820190508181036000830152614a24816149e8565b9050919050565b7f45727220536c6970700000000000000000000000000000000000000000000000600082015250565b6000614a6160098361445a565b9150614a6c82614a2b565b602082019050919050565b60006020820190508181036000830152614a9081614a54565b9050919050565b7f5553444300000000000000000000000000000000000000000000000000000000600082015250565b6000614acd6004836146b3565b9150614ad882614a97565b600482019050919050565b6000614aee82614ac0565b9150819050919050565b7f5553445400000000000000000000000000000000000000000000000000000000600082015250565b6000614b2e6004836146b3565b9150614b3982614af8565b600482019050919050565b6000614b4f82614b21565b9150819050919050565b7f45727220546f6b656e4f75740000000000000000000000000000000000000000600082015250565b6000614b8f600c8361445a565b9150614b9a82614b59565b602082019050919050565b60006020820190508181036000830152614bbe81614b82565b9050919050565b600081519050614bd481613f58565b92915050565b600060208284031215614bf057614bef613e93565b5b6000614bfe84828501614bc5565b91505092915050565b7f45727220416d6f756e74496e0000000000000000000000000000000000000000600082015250565b6000614c3d600c8361445a565b9150614c4882614c07565b602082019050919050565b60006020820190508181036000830152614c6c81614c30565b9050919050565b6000604082019050614c88600083018561407b565b614c956020830184614425565b9392505050565b614ca581613f22565b8114614cb057600080fd5b50565b600081519050614cc281614c9c565b92915050565b600060208284031215614cde57614cdd613e93565b5b6000614cec84828501614cb3565b91505092915050565b7f45727220417070726f76616c0000000000000000000000000000000000000000600082015250565b6000614d2b600c8361445a565b9150614d3682614cf5565b602082019050919050565b60006020820190508181036000830152614d5a81614d1e565b9050919050565b600080fd5b600080fd5b600080fd5b60008083356001602003843603038112614d8d57614d8c614d6b565b5b83810192508235915060208301925067ffffffffffffffff821115614db557614db4614d61565b5b600182023603831315614dcb57614dca614d66565b5b509250929050565b600082825260208201905092915050565b6000614df08385614dd3565b9350614dfd83858461435d565b614e06836142a0565b840190509392505050565b6000614e2060208401846140bc565b905092915050565b614e3181614069565b82525050565b6000614e466020840184613f6f565b905092915050565b600060a08301614e616000840184614d70565b8583036000870152614e74838284614de4565b92505050614e856020840184614e11565b614e926020860182614e28565b50614ea06040840184614e37565b614ead6040860182613dd5565b50614ebb6060840184614e37565b614ec86060860182613dd5565b50614ed66080840184614e37565b614ee36080860182613dd5565b508091505092915050565b60006020820190508181036000830152614f088184614e4e565b905092915050565b60008160e01c9050919050565b600060033d1115614f3c5760046000803e614f39600051614f10565b90505b90565b600060443d10614fcc57614f51613e89565b60043d036004823e80513d602482011167ffffffffffffffff82111715614f79575050614fcc565b808201805167ffffffffffffffff811115614f975750505050614fcc565b80602083010160043d038501811115614fb4575050505050614fcc565b614fc3826020018501866142e0565b82955050505050505b90565b6000604082019050614fe4600083018561407b565b8181036020830152614ff68184614495565b90509392505050565b6000819050919050565b6000819050919050565b600061502e61502961502484614fff565b615009565b613dcb565b9050919050565b61503e81615013565b82525050565b6000604082019050615059600083018561407b565b6150666020830184615035565b9392505050565b7f45727220417070726f76616c3000000000000000000000000000000000000000600082015250565b60006150a3600d8361445a565b91506150ae8261506d565b602082019050919050565b600060208201905081810360008301526150d281615096565b9050919050565b60006080820190506150ee600083018761407b565b6150fb602083018661407b565b6151086040830185614425565b6151156060830184614425565b95945050505050565b600061512982613dcb565b91507fffffffffffffffffffffffffffffffffffffffffffffffffffffffffffffffff820361515b5761515a614875565b5b600182019050919050565b60006151718261444f565b61517b81856146b3565b935061518b81856020860161446b565b80840191505092915050565b60006151a38284615166565b915081905092915050565b7f416363657373436f6e74726f6c3a2063616e206f6e6c792072656e6f756e636560008201527f20726f6c657320666f722073656c660000000000000000000000000000000000602082015250565b600061520a602f8361445a565b9150615215826151ae565b604082019050919050565b60006020820190508181036000830152615239816151fd565b9050919050565b6000608082019050615255600083018861407b565b81810360208301526152688186886146fc565b90506152776040830185614425565b6152846060830184614425565b9695505050505050565b7f496e697469616c697a61626c653a20636f6e747261637420697320616c72656160008201527f647920696e697469616c697a6564000000000000000000000000000000000000602082015250565b60006152ea602e8361445a565b91506152f58261528e565b604082019050919050565b60006020820190508181036000830152615319816152dd565b9050919050565b7f41646d696e416464720000000000000000000000000000000000000000000000600082015250565b600061535660098361445a565b915061536182615320565b602082019050919050565b6000602082019050818103600083015261538581615349565b9050919050565b7f5265736375654164647200000000000000000000000000000000000000000000600082015250565b60006153c2600a8361445a565b91506153cd8261538c565b602082019050919050565b600060208201905081810360008301526153f1816153b5565b9050919050565b7f5769746864726177416464720000000000000000000000000000000000000000600082015250565b600061542e600c8361445a565b9150615439826153f8565b602082019050919050565b6000602082019050818103600083015261545d81615421565b9050919050565b7f46697273744c656e6465724c6971416464720000000000000000000000000000600082015250565b600061549a60128361445a565b91506154a582615464565b602082019050919050565b600060208201905081810360008301526154c98161548d565b9050919050565b7f5365636f6e644c656e6465724c69714164647200000000000000000000000000600082015250565b600061550660138361445a565b9150615511826154d0565b602082019050919050565b60006020820190508181036000830152615535816154f9565b9050919050565b7f53776170526f7574657241646472000000000000000000000000000000000000600082015250565b6000615572600e8361445a565b915061557d8261553c565b602082019050919050565b600060208201905081810360008301526155a181615565565b9050919050565b7f5377617070657241646472000000000000000000000000000000000000000000600082015250565b60006155de600b8361445a565b91506155e9826155a8565b602082019050919050565b6000602082019050818103600083015261560d816155d1565b9050919050565b60006101808201905061562a600083018f61407b565b615637602083018e61407b565b615644604083018d61407b565b615651606083018c61407b565b61565e608083018b61407b565b61566b60a083018a61407b565b61567860c083018961407b565b61568560e083018861407b565b61569361010083018761407b565b6156a161012083018661407b565b6156af61014083018561407b565b6156bd61016083018461407b565b9d9c50505050505050505050505050565b6000819050919050565b600060ff82169050919050565b60006157006156fb6156f6846156ce565b615009565b6156d8565b9050919050565b615710816156e5565b82525050565b600060208201905061572b6000830184615707565b92915050565b7f5265736375653041646472000000000000000000000000000000000000000000600082015250565b6000615767600b8361445a565b915061577282615731565b602082019050919050565b600060208201905081810360008301526157968161575a565b9050919050565b7f5769746864726177616c206c696d697420657863656564656400000000000000600082015250565b60006157d360198361445a565b91506157de8261579d565b602082019050919050565b60006020820190508181036000830152615802816157c6565b9050919050565b600060608201905061581e600083018761407b565b81810360208301526158318185876146fc565b90506158406040830184614425565b95945050505050565b600060808201905061585e600083018861407b565b81810360208301526158718186886146fc565b9050615880604083018561407b565b61588d606083018461407b565b9695505050505050565b7f5061757361626c653a2070617573656400000000000000000000000000000000600082015250565b60006158cd60108361445a565b91506158d882615897565b602082019050919050565b600060208201905081810360008301526158fc816158c0565b9050919050565b7f5265656e7472616e637947756172643a207265656e7472616e742063616c6c00600082015250565b6000615939601f8361445a565b915061594482615903565b602082019050919050565b600060208201905081810360008301526159688161592c565b9050919050565b7f43616c6c6572206e6f7420706175736572000000000000000000000000000000600082015250565b60006159a560118361445a565b91506159b08261596f565b602082019050919050565b600060208201905081810360008301526159d481615998565b9050919050565b7f496e697469616c697a61626c653a20636f6e7472616374206973206e6f74206960008201527f6e697469616c697a696e67000000000000000000000000000000000000000000602082015250565b6000615a37602b8361445a565b9150615a42826159db565b604082019050919050565b60006020820190508181036000830152615a6681615a2a565b9050919050565b6000615a7882613dcb565b9150615a8383613dcb565b9250828203905081811115615a9b57615a9a614875565b5b92915050565b7f4e487b7100000000000000000000000000000000000000000000000000000000600052601260045260246000fd5b6000615adb82613dcb565b9150615ae683613dcb565b925082615af657615af5615aa1565b5b828204905092915050565b6000615b0c82613dcb565b9150615b1783613dcb565b9250828202615b2581613dcb565b91508282048414831517615b3c57615b3b614875565b5b5092915050565b7f416363657373436f6e74726f6c3a206163636f756e7420000000000000000000600082015250565b6000615b796017836146b3565b9150615b8482615b43565b601782019050919050565b7f206973206d697373696e6720726f6c6520000000000000000000000000000000600082015250565b6000615bc56011836146b3565b9150615bd082615b8f565b601182019050919050565b6000615be682615b6c565b9150615bf28285615166565b9150615bfd82615bb8565b9150615c098284615166565b91508190509392505050565b7f5361666545524332303a204552433230206f7065726174696f6e20646964206e60008201527f6f74207375636365656400000000000000000000000000000000000000000000602082015250565b6000615c71602a8361445a565b9150615c7c82615c15565b604082019050919050565b60006020820190508181036000830152615ca081615c64565b9050919050565b7f5061757361626c653a206e6f7420706175736564000000000000000000000000600082015250565b6000615cdd60148361445a565b9150615ce882615ca7565b602082019050919050565b60006020820190508181036000830152615d0c81615cd0565b9050919050565b6000615d1e82613dcb565b915060008203615d3157615d30614875565b5b600182039050919050565b7f537472696e67733a20686578206c656e67746820696e73756666696369656e74600082015250565b6000615d7260208361445a565b9150615d7d82615d3c565b602082019050919050565b60006020820190508181036000830152615da181615d65565b9050919050565b7f4e487b7100000000000000000000000000000000000000000000000000000000600052603160045260246000fd5b7f416464726573733a20696e73756666696369656e742062616c616e636520666f60008201527f722063616c6c0000000000000000000000000000000000000000000000000000602082015250565b6000615e3360268361445a565b9150615e3e82615dd7565b604082019050919050565b60006020820190508181036000830152615e6281615e26565b9050919050565b600081519050919050565b600081905092915050565b6000615e8a82615e69565b615e948185615e74565b9350615ea481856020860161446b565b80840191505092915050565b6000615ebc8284615e7f565b915081905092915050565b7f416464726573733a2063616c6c20746f206e6f6e2d636f6e7472616374000000600082015250565b6000615efd601d8361445a565b9150615f0882615ec7565b602082019050919050565b60006020820190508181036000830152615f2c81615ef0565b905091905056fea2646970667358221220e8aa155816a355d5c8b65b3e63a53ffc7e2fd0477915672d3e806f07cebdf74b64736f6c63430008120033",
  "linkReferences": {},
  "deployedLinkReferences": {}
}