{
  "_format": "hh-sol-artifact-1",
  "contractName": "ColateralContract",
  "sourceName": "contracts/ColateralContract.sol",
  "abi": [
    {
      "inputs": [],
      "stateMutability": "nonpayable",
      "type": "constructor"
    },
    {
      "anonymous": false,
      "inputs": [
        {
          "indexed": false,
          "internalType": "address",
          "name": "sender",
          "type": "address"
        },
        {
          "indexed": false,
          "internalType": "address",
          "name": "usdcTokenAddress",
          "type": "address"
        },
        {
          "indexed": false,
          "internalType": "address",
          "name": "usdtTokenAddress",
          "type": "address"
        },
        {
          "indexed": false,
          "internalType": "address",
          "name": "wbtcTokenAddress",
          "type": "address"
        },
        {
          "indexed": false,
          "internalType": "address",
          "name": "wethTokenAddress",
          "type": "address"
        },
        {
          "indexed": false,
          "internalType": "address[3]",
          "name": "admins",
          "type": "address[3]"
        },
        {
          "indexed": false,
          "internalType": "address",
          "name": "rescueWalletAddress",
          "type": "address"
        },
        {
          "indexed": false,
          "internalType": "address",
          "name": "withdrawWalletAddress",
          "type": "address"
        },
        {
          "indexed": false,
          "internalType": "address",
          "name": "firstlenderLiq",
          "type": "address"
        },
        {
          "indexed": false,
          "internalType": "address",
          "name": "secondLenderLiq",
          "type": "address"
        },
        {
          "indexed": false,
          "internalType": "address",
          "name": "swapRouterAddress",
          "type": "address"
        },
        {
          "indexed": false,
          "internalType": "address",
          "name": "swapper",
          "type": "address"
        }
      ],
      "name": "Initialize",
      "type": "event"
    },
    {
      "anonymous": false,
      "inputs": [
        {
          "indexed": false,
          "internalType": "uint8",
          "name": "version",
          "type": "uint8"
        }
      ],
      "name": "Initialized",
      "type": "event"
    },
    {
      "anonymous": false,
      "inputs": [
        {
          "indexed": false,
          "internalType": "address",
          "name": "sender",
          "type": "address"
        },
        {
          "indexed": false,
          "internalType": "string",
          "name": "token",
          "type": "string"
        },
        {
          "indexed": false,
          "internalType": "uint256",
          "name": "amount",
          "type": "uint256"
        },
        {
          "indexed": false,
          "internalType": "address",
          "name": "to",
          "type": "address"
        }
      ],
      "name": "Rescue",
      "type": "event"
    },
    {
      "anonymous": false,
      "inputs": [
        {
          "indexed": true,
          "internalType": "bytes32",
          "name": "role",
          "type": "bytes32"
        },
        {
          "indexed": true,
          "internalType": "bytes32",
          "name": "previousAdminRole",
          "type": "bytes32"
        },
        {
          "indexed": true,
          "internalType": "bytes32",
          "name": "newAdminRole",
          "type": "bytes32"
        }
      ],
      "name": "RoleAdminChanged",
      "type": "event"
    },
    {
      "anonymous": false,
      "inputs": [
        {
          "indexed": true,
          "internalType": "bytes32",
          "name": "role",
          "type": "bytes32"
        },
        {
          "indexed": true,
          "internalType": "address",
          "name": "account",
          "type": "address"
        },
        {
          "indexed": true,
          "internalType": "address",
          "name": "sender",
          "type": "address"
        }
      ],
      "name": "RoleGranted",
      "type": "event"
    },
    {
      "anonymous": false,
      "inputs": [
        {
          "indexed": true,
          "internalType": "bytes32",
          "name": "role",
          "type": "bytes32"
        },
        {
          "indexed": true,
          "internalType": "address",
          "name": "account",
          "type": "address"
        },
        {
          "indexed": true,
          "internalType": "address",
          "name": "sender",
          "type": "address"
        }
      ],
      "name": "RoleRevoked",
      "type": "event"
    },
    {
      "anonymous": false,
      "inputs": [
        {
          "indexed": false,
          "internalType": "address",
          "name": "tokenIn",
          "type": "address"
        },
        {
          "indexed": false,
          "internalType": "address",
          "name": "tokenOut",
          "type": "address"
        },
        {
          "indexed": false,
          "internalType": "uint256",
          "name": "amountIn",
          "type": "uint256"
        },
        {
          "indexed": false,
          "internalType": "uint256",
          "name": "amountOut",
          "type": "uint256"
        }
      ],
      "name": "Swap",
      "type": "event"
    },
    {
      "anonymous": false,
      "inputs": [
        {
          "indexed": false,
          "internalType": "address",
          "name": "tokenIn",
          "type": "address"
        },
        {
          "indexed": false,
          "internalType": "string",
          "name": "msg",
          "type": "string"
        }
      ],
      "name": "SwapError",
      "type": "event"
    },
    {
      "anonymous": false,
      "inputs": [
        {
          "indexed": false,
          "internalType": "address",
          "name": "sender",
          "type": "address"
        },
        {
          "indexed": false,
          "internalType": "string",
          "name": "token",
          "type": "string"
        },
        {
          "indexed": false,
          "internalType": "address",
          "name": "oldTokenAddress",
          "type": "address"
        },
        {
          "indexed": false,
          "internalType": "address",
          "name": "newTokenAddress",
          "type": "address"
        }
      ],
      "name": "TokenAddressChange",
      "type": "event"
    },
    {
      "anonymous": false,
      "inputs": [
        {
          "indexed": false,
          "internalType": "address",
          "name": "sender",
          "type": "address"
        },
        {
          "indexed": false,
          "internalType": "string",
          "name": "token",
          "type": "string"
        },
        {
          "indexed": false,
          "internalType": "uint256",
          "name": "amount",
          "type": "uint256"
        }
      ],
      "name": "Withdraw",
      "type": "event"
    },
    {
      "anonymous": false,
      "inputs": [
        {
          "indexed": false,
          "internalType": "address",
          "name": "sender",
          "type": "address"
        },
        {
          "indexed": false,
          "internalType": "string",
          "name": "token",
          "type": "string"
        },
        {
          "indexed": false,
          "internalType": "uint256",
          "name": "oldWithdrawalLimit",
          "type": "uint256"
        },
        {
          "indexed": false,
          "internalType": "uint256",
          "name": "newWithdrawalLimit",
          "type": "uint256"
        }
      ],
      "name": "WithdrawalLimitChange",
      "type": "event"
    },
    {
      "inputs": [],
      "name": "ACONCAGUA_ROLE",
      "outputs": [
        {
          "internalType": "bytes32",
          "name": "",
          "type": "bytes32"
        }
      ],
      "stateMutability": "view",
      "type": "function"
    },
    {
      "inputs": [],
      "name": "DEFAULT_ADMIN_ROLE",
      "outputs": [
        {
          "internalType": "bytes32",
          "name": "",
          "type": "bytes32"
        }
      ],
      "stateMutability": "view",
      "type": "function"
    },
    {
      "inputs": [],
      "name": "LENDER_LIQ_ROLE",
      "outputs": [
        {
          "internalType": "bytes32",
          "name": "",
          "type": "bytes32"
        }
      ],
      "stateMutability": "view",
      "type": "function"
    },
    {
      "inputs": [],
      "name": "PAUSER_ROLE",
      "outputs": [
        {
          "internalType": "bytes32",
          "name": "",
          "type": "bytes32"
        }
      ],
      "stateMutability": "view",
      "type": "function"
    },
    {
      "inputs": [],
      "name": "RESCUER_ROLE",
      "outputs": [
        {
          "internalType": "bytes32",
          "name": "",
          "type": "bytes32"
        }
      ],
      "stateMutability": "view",
      "type": "function"
    },
    {
      "inputs": [],
      "name": "SWAPPER_ROLE",
      "outputs": [
        {
          "internalType": "bytes32",
          "name": "",
          "type": "bytes32"
        }
      ],
      "stateMutability": "view",
      "type": "function"
    },
    {
      "inputs": [],
      "name": "USDC",
      "outputs": [
        {
          "internalType": "string",
          "name": "",
          "type": "string"
        }
      ],
      "stateMutability": "view",
      "type": "function"
    },
    {
      "inputs": [],
      "name": "USDT",
      "outputs": [
        {
          "internalType": "string",
          "name": "",
          "type": "string"
        }
      ],
      "stateMutability": "view",
      "type": "function"
    },
    {
      "inputs": [],
      "name": "WBTC",
      "outputs": [
        {
          "internalType": "string",
          "name": "",
          "type": "string"
        }
      ],
      "stateMutability": "view",
      "type": "function"
    },
    {
      "inputs": [],
      "name": "WETH",
      "outputs": [
        {
          "internalType": "string",
          "name": "",
          "type": "string"
        }
      ],
      "stateMutability": "view",
      "type": "function"
    },
    {
      "inputs": [
        {
          "internalType": "string",
          "name": "_tokenSymbol",
          "type": "string"
        }
      ],
      "name": "balanceOf",
      "outputs": [
        {
          "internalType": "uint256",
          "name": "",
          "type": "uint256"
        }
      ],
      "stateMutability": "view",
      "type": "function"
    },
    {
      "inputs": [],
      "name": "getBalances",
      "outputs": [
        {
          "internalType": "uint256[]",
          "name": "",
          "type": "uint256[]"
        }
      ],
      "stateMutability": "view",
      "type": "function"
    },
    {
      "inputs": [
        {
          "internalType": "bytes32",
          "name": "role",
          "type": "bytes32"
        }
      ],
      "name": "getRoleAdmin",
      "outputs": [
        {
          "internalType": "bytes32",
          "name": "",
          "type": "bytes32"
        }
      ],
      "stateMutability": "view",
      "type": "function"
    },
    {
      "inputs": [
        {
          "internalType": "uint256",
          "name": "index",
          "type": "uint256"
        }
      ],
      "name": "getRoleByIndex",
      "outputs": [
        {
          "internalType": "bytes32",
          "name": "",
          "type": "bytes32"
        }
      ],
      "stateMutability": "view",
      "type": "function"
    },
    {
      "inputs": [],
      "name": "getRoleCount",
      "outputs": [
        {
          "internalType": "uint256",
          "name": "",
          "type": "uint256"
        }
      ],
      "stateMutability": "view",
      "type": "function"
    },
    {
      "inputs": [
        {
          "internalType": "bytes32",
          "name": "role",
          "type": "bytes32"
        },
        {
          "internalType": "uint256",
          "name": "index",
          "type": "uint256"
        }
      ],
      "name": "getRoleMember",
      "outputs": [
        {
          "internalType": "address",
          "name": "",
          "type": "address"
        }
      ],
      "stateMutability": "view",
      "type": "function"
    },
    {
      "inputs": [
        {
          "internalType": "bytes32",
          "name": "role",
          "type": "bytes32"
        }
      ],
      "name": "getRoleMemberCount",
      "outputs": [
        {
          "internalType": "uint256",
          "name": "",
          "type": "uint256"
        }
      ],
      "stateMutability": "view",
      "type": "function"
    },
    {
      "inputs": [
        {
          "internalType": "bytes32",
          "name": "role",
          "type": "bytes32"
        },
        {
          "internalType": "address",
          "name": "account",
          "type": "address"
        }
      ],
      "name": "grantRole",
      "outputs": [],
      "stateMutability": "nonpayable",
      "type": "function"
    },
    {
      "inputs": [
        {
          "internalType": "bytes32",
          "name": "role",
          "type": "bytes32"
        },
        {
          "internalType": "address",
          "name": "account",
          "type": "address"
        }
      ],
      "name": "hasRole",
      "outputs": [
        {
          "internalType": "bool",
          "name": "",
          "type": "bool"
        }
      ],
      "stateMutability": "view",
      "type": "function"
    },
    {
      "inputs": [
        {
          "internalType": "address",
          "name": "_usdcTokenAddress",
          "type": "address"
        },
        {
          "internalType": "address",
          "name": "_usdtTokenAddress",
          "type": "address"
        },
        {
          "internalType": "address",
          "name": "_wbtcTokenAddress",
          "type": "address"
        },
        {
          "internalType": "address",
          "name": "_wethTokenAddress",
          "type": "address"
        },
        {
          "internalType": "address[3]",
          "name": "_aconcagua",
          "type": "address[3]"
        },
        {
          "internalType": "address",
          "name": "_rescueWalletAddress",
          "type": "address"
        },
        {
          "internalType": "address",
          "name": "_withdrawWalletAddress",
          "type": "address"
        },
        {
          "internalType": "address",
          "name": "_firstLenderLiq",
          "type": "address"
        },
        {
          "internalType": "address",
          "name": "_secondLenderLiq",
          "type": "address"
        },
        {
          "internalType": "address",
          "name": "_swapRouterAddress",
          "type": "address"
        },
        {
          "internalType": "address",
          "name": "_swapper",
          "type": "address"
        }
      ],
      "name": "initialize",
      "outputs": [],
      "stateMutability": "nonpayable",
      "type": "function"
    },
    {
      "inputs": [
        {
          "internalType": "bytes32",
          "name": "role",
          "type": "bytes32"
        },
        {
          "internalType": "address",
          "name": "account",
          "type": "address"
        }
      ],
      "name": "renounceRole",
      "outputs": [],
      "stateMutability": "nonpayable",
      "type": "function"
    },
    {
      "inputs": [
        {
          "internalType": "uint256",
          "name": "_amount",
          "type": "uint256"
        },
        {
          "internalType": "string",
          "name": "_tokenSymbol",
          "type": "string"
        }
      ],
      "name": "rescue",
      "outputs": [],
      "stateMutability": "nonpayable",
      "type": "function"
    },
    {
      "inputs": [],
      "name": "rescueWalletAddress",
      "outputs": [
        {
          "internalType": "address",
          "name": "",
          "type": "address"
        }
      ],
      "stateMutability": "view",
      "type": "function"
    },
    {
      "inputs": [
        {
          "internalType": "bytes32",
          "name": "role",
          "type": "bytes32"
        },
        {
          "internalType": "address",
          "name": "account",
          "type": "address"
        }
      ],
      "name": "revokeRole",
      "outputs": [],
      "stateMutability": "nonpayable",
      "type": "function"
    },
    {
      "inputs": [
        {
          "internalType": "address",
          "name": "_rescueWalletAddress",
          "type": "address"
        }
      ],
      "name": "setRescueWalletAddress",
      "outputs": [],
      "stateMutability": "nonpayable",
      "type": "function"
    },
    {
      "inputs": [
        {
          "internalType": "address",
          "name": "_withdrawWalletAddress",
          "type": "address"
        }
      ],
      "name": "setWithdrawWalletAddress",
      "outputs": [],
      "stateMutability": "nonpayable",
      "type": "function"
    },
    {
      "inputs": [
        {
          "internalType": "bytes4",
          "name": "interfaceId",
          "type": "bytes4"
        }
      ],
      "name": "supportsInterface",
      "outputs": [
        {
          "internalType": "bool",
          "name": "",
          "type": "bool"
        }
      ],
      "stateMutability": "view",
      "type": "function"
    },
    {
      "inputs": [
        {
          "components": [
            {
              "components": [
                {
                  "internalType": "bytes",
                  "name": "path",
                  "type": "bytes"
                },
                {
                  "internalType": "address",
                  "name": "recipient",
                  "type": "address"
                },
                {
                  "internalType": "uint256",
                  "name": "deadline",
                  "type": "uint256"
                },
                {
                  "internalType": "uint256",
                  "name": "amountIn",
                  "type": "uint256"
                },
                {
                  "internalType": "uint256",
                  "name": "amountOutMinimum",
                  "type": "uint256"
                }
              ],
              "internalType": "struct ISwapRouter.ExactInputParams",
              "name": "params",
              "type": "tuple"
            },
            {
              "internalType": "address",
              "name": "tokenIn",
              "type": "address"
            },
            {
              "internalType": "address",
              "name": "tokenOut",
              "type": "address"
            }
          ],
          "internalType": "struct IColateralContract.SwapParams[]",
          "name": "swapsParams",
          "type": "tuple[]"
        }
      ],
      "name": "swapExactInputs",
      "outputs": [],
      "stateMutability": "nonpayable",
      "type": "function"
    },
    {
      "inputs": [
        {
          "internalType": "string",
          "name": "",
          "type": "string"
        }
      ],
      "name": "tokenAddress",
      "outputs": [
        {
          "internalType": "address",
          "name": "",
          "type": "address"
        }
      ],
      "stateMutability": "view",
      "type": "function"
    },
    {
      "inputs": [],
      "name": "version",
      "outputs": [
        {
          "internalType": "string",
          "name": "",
          "type": "string"
        }
      ],
      "stateMutability": "pure",
      "type": "function"
    },
    {
      "inputs": [
        {
          "internalType": "uint256",
          "name": "_amount",
          "type": "uint256"
        },
        {
          "internalType": "string",
          "name": "_tokenSymbol",
          "type": "string"
        }
      ],
      "name": "withdraw",
      "outputs": [],
      "stateMutability": "nonpayable",
      "type": "function"
    },
    {
      "inputs": [],
      "name": "withdrawWalletAddress",
      "outputs": [
        {
          "internalType": "address",
          "name": "",
          "type": "address"
        }
      ],
      "stateMutability": "view",
      "type": "function"
    }
  ],
  "bytecode": "0x60806040523480156200001157600080fd5b50620000226200002860201b60201c565b620001d2565b600060019054906101000a900460ff16156200007b576040517f08c379a0000000000000000000000000000000000000000000000000000000008152600401620000729062000175565b60405180910390fd5b60ff801660008054906101000a900460ff1660ff1614620000ec5760ff6000806101000a81548160ff021916908360ff1602179055507f7f26b83ff96e1f2b6a682f133852f6798a09c465da95921460cefb384740249860ff604051620000e39190620001b5565b60405180910390a15b565b600082825260208201905092915050565b7f496e697469616c697a61626c653a20636f6e747261637420697320696e69746960008201527f616c697a696e6700000000000000000000000000000000000000000000000000602082015250565b60006200015d602783620000ee565b91506200016a82620000ff565b604082019050919050565b6000602082019050818103600083015262000190816200014e565b9050919050565b600060ff82169050919050565b620001af8162000197565b82525050565b6000602082019050620001cc6000830184620001a4565b92915050565b61514880620001e26000396000f3fe608060405234801561001057600080fd5b50600436106101ef5760003560e01c8063713725441161010f578063c54e44eb116100a2578063dc048cf211610071578063dc048cf2146105bc578063df668eca146105d8578063e5df800a146105f6578063e63ab1e914610614576101ef565b8063c54e44eb14610536578063ca15c87314610554578063d00411c914610584578063d547741f146105a0576101ef565b806391d14854116100de57806391d14854146104ac578063a217fddf146104dc578063ad5c4648146104fa578063b14ec10114610518576101ef565b8063713725441461042257806383d333191461044057806389a302711461045e5780639010d07c1461047c576101ef565b80632ffe99421161018757806336568abe1161015657806336568abe1461039a5780634dede3de146103b657806354fd4d50146103d45780636e30199f146103f2576101ef565b80632ffe99421461031457806332cc815d14610330578063334347b71461034e57806335ee5f871461036a576101ef565b8063212f6039116101c3578063212f60391461027c578063248a9ca31461029857806325acc985146102c85780632f2ff15d146102f8576101ef565b8062113e08146101f457806301ffc9a7146102125780630828c4041461024257806315ac73581461025e575b600080fd5b6101fc610632565b60405161020991906133ac565b60405180910390f35b61022c6004803603810190610227919061343a565b610822565b6040516102399190613482565b60405180910390f35b61025c6004803603810190610257919061352e565b61089c565b005b6102666109b1565b60405161027391906135cf565b60405180910390f35b61029660048036038101906102919190613616565b6109d7565b005b6102b260048036038101906102ad9190613679565b610ab5565b6040516102bf91906136b5565b60405180910390f35b6102e260048036038101906102dd91906136d0565b610ad5565b6040516102ef91906136b5565b60405180910390f35b610312600480360381019061030d91906136fd565b610af2565b005b61032e60048036038101906103299190613793565b610b13565b005b610338611317565b60405161034591906136b5565b60405180910390f35b61036860048036038101906103639190613802565b61133b565b005b610384600480360381019061037f9190613a39565b611f2f565b6040516103919190613a91565b60405180910390f35b6103b460048036038101906103af91906136fd565b611ff5565b005b6103be612078565b6040516103cb9190613b2b565b60405180910390f35b6103dc6120b1565b6040516103e99190613b2b565b60405180910390f35b61040c60048036038101906104079190613a39565b6120ee565b60405161041991906135cf565b60405180910390f35b61042a612137565b60405161043791906136b5565b60405180910390f35b61044861215b565b6040516104559190613a91565b60405180910390f35b61046661216c565b6040516104739190613b2b565b60405180910390f35b61049660048036038101906104919190613b4d565b6121a5565b6040516104a391906135cf565b60405180910390f35b6104c660048036038101906104c191906136fd565b6121d4565b6040516104d39190613482565b60405180910390f35b6104e461223f565b6040516104f191906136b5565b60405180910390f35b610502612246565b60405161050f9190613b2b565b60405180910390f35b61052061227f565b60405161052d91906135cf565b60405180910390f35b61053e6122a5565b60405161054b9190613b2b565b60405180910390f35b61056e60048036038101906105699190613679565b6122de565b60405161057b9190613a91565b60405180910390f35b61059e60048036038101906105999190613616565b612302565b005b6105ba60048036038101906105b591906136fd565b6123e0565b005b6105d660048036038101906105d1919061352e565b612401565b005b6105e061250d565b6040516105ed91906136b5565b60405180910390f35b6105fe612531565b60405161060b91906136b5565b60405180910390f35b61061c612555565b60405161062991906136b5565b60405180910390f35b60606000600567ffffffffffffffff8111156106515761065061390e565b5b60405190808252806020026020018201604052801561067f5781602001602082028036833780820191505090505b509050478160008151811061069757610696613b8d565b5b6020026020010181815250506106e16040518060400160405280600481526020017f5553444300000000000000000000000000000000000000000000000000000000815250611f2f565b816001815181106106f5576106f4613b8d565b5b60200260200101818152505061073f6040518060400160405280600481526020017f5553445400000000000000000000000000000000000000000000000000000000815250611f2f565b8160028151811061075357610752613b8d565b5b60200260200101818152505061079d6040518060400160405280600481526020017f5742544300000000000000000000000000000000000000000000000000000000815250611f2f565b816003815181106107b1576107b0613b8d565b5b6020026020010181815250506107fb6040518060400160405280600481526020017f5745544800000000000000000000000000000000000000000000000000000000815250611f2f565b8160048151811061080f5761080e613b8d565b5b6020026020010181815250508091505090565b60007f5a05180f000000000000000000000000000000000000000000000000000000007bffffffffffffffffffffffffffffffffffffffffffffffffffffffff1916827bffffffffffffffffffffffffffffffffffffffffffffffffffffffff19161480610895575061089482612579565b5b9050919050565b7fbffb4faf8a508f503a2ca036effd0bc1f82615d3ebfddb934edf718f236727076108c6816125f3565b6108ce612607565b61093b60fd84846040516108e3929190613bec565b908152602001604051809103902060009054906101000a900473ffffffffffffffffffffffffffffffffffffffff1660fe60009054906101000a900473ffffffffffffffffffffffffffffffffffffffff1686612656565b7f22cb89e6358014bb27f5658e2b820189f8f4c9e3f7165ecf266edc53be12d9fa6109646126dc565b84848760fe60009054906101000a900473ffffffffffffffffffffffffffffffffffffffff1660405161099b959493929190613c32565b60405180910390a16109ab6126e4565b50505050565b60fe60009054906101000a900473ffffffffffffffffffffffffffffffffffffffff1681565b7ffaad79a708d82d095486f5a83b18341f12a8f717d3011ab929d43135c1af73e2610a01816125f3565b600073ffffffffffffffffffffffffffffffffffffffff168273ffffffffffffffffffffffffffffffffffffffff1603610a70576040517f08c379a0000000000000000000000000000000000000000000000000000000008152600401610a6790613ccc565b60405180910390fd5b8160ff60006101000a81548173ffffffffffffffffffffffffffffffffffffffff021916908373ffffffffffffffffffffffffffffffffffffffff1602179055505050565b600060656000838152602001908152602001600020600101549050919050565b6000610aeb8260fb6126ee90919063ffffffff16565b9050919050565b610afb82610ab5565b610b04816125f3565b610b0e8383612705565b505050565b7fd2761b102bda9831f4af400cc824b8cecb9cc5c1c85c51acb1479db9735fbfc6610b3d816125f3565b60005b838390508110156113115736848483818110610b5f57610b5e613b8d565b5b9050602002810190610b719190613cf1565b90503073ffffffffffffffffffffffffffffffffffffffff16818060000190610b9a9190613d19565b6020016020810190610bac9190613616565b73ffffffffffffffffffffffffffffffffffffffff1614610c02576040517f08c379a0000000000000000000000000000000000000000000000000000000008152600401610bf990613d8d565b60405180910390fd5b6000818060000190610c149190613d19565b6080013511610c58576040517f08c379a0000000000000000000000000000000000000000000000000000000008152600401610c4f90613df9565b60405180910390fd5b60fd604051610c6690613e65565b908152602001604051809103902060009054906101000a900473ffffffffffffffffffffffffffffffffffffffff1673ffffffffffffffffffffffffffffffffffffffff16816040016020810190610cbe9190613616565b73ffffffffffffffffffffffffffffffffffffffff161480610d59575060fd604051610ce990613ec6565b908152602001604051809103902060009054906101000a900473ffffffffffffffffffffffffffffffffffffffff1673ffffffffffffffffffffffffffffffffffffffff16816040016020810190610d419190613616565b73ffffffffffffffffffffffffffffffffffffffff16145b610d98576040517f08c379a0000000000000000000000000000000000000000000000000000000008152600401610d8f90613f27565b60405180910390fd5b6000816020016020810190610dad9190613616565b90506000828060000190610dc19190613d19565b60600135118015610e5e57508073ffffffffffffffffffffffffffffffffffffffff166370a08231306040518263ffffffff1660e01b8152600401610e0691906135cf565b602060405180830381865afa158015610e23573d6000803e3d6000fd5b505050506040513d601f19601f82011682018060405250810190610e479190613f5c565b828060000190610e579190613d19565b6060013511155b610e9d576040517f08c379a0000000000000000000000000000000000000000000000000000000008152600401610e9490613fd5565b60405180910390fd5b8073ffffffffffffffffffffffffffffffffffffffff1663095ea7b361010060009054906101000a900473ffffffffffffffffffffffffffffffffffffffff16848060000190610eed9190613d19565b606001356040518363ffffffff1660e01b8152600401610f0e929190613ff5565b6020604051808303816000875af1158015610f2d573d6000803e3d6000fd5b505050506040513d601f19601f82011682018060405250810190610f51919061404a565b610f90576040517f08c379a0000000000000000000000000000000000000000000000000000000008152600401610f87906140c3565b60405180910390fd5b61010060009054906101000a900473ffffffffffffffffffffffffffffffffffffffff1673ffffffffffffffffffffffffffffffffffffffff1663c04b8d59838060000190610fdf9190613d19565b6040518263ffffffff1660e01b8152600401610ffb9190614270565b6020604051808303816000875af192505050801561103757506040513d601f19601f820116820180604052508101906110349190613f5c565b60015b6111a55761104361429f565b806308c379a00361119457506110576142c1565b806110625750611196565b7f48dbf1f65dc9fb918dcf47a87d0d7dbfe9cd78bcfaea409049ee36785201cb918360200160208101906110969190613616565b826040516110a5929190614351565b60405180910390a18173ffffffffffffffffffffffffffffffffffffffff1663095ea7b361010060009054906101000a900473ffffffffffffffffffffffffffffffffffffffff1660006040518363ffffffff1660e01b815260040161110c9291906143c6565b6020604051808303816000875af115801561112b573d6000803e3d6000fd5b505050506040513d601f19601f8201168201806040525081019061114f919061404a565b61118e576040517f08c379a00000000000000000000000000000000000000000000000000000000081526004016111859061443b565b60405180910390fd5b506111a0565b505b3d6000803e3d6000fd5b6112fc565b7ffa2dda1cc1b86e41239702756b13effbc1a092b5c57e3ad320fbe4f3b13fe2358360200160208101906111d99190613616565b8460400160208101906111ec9190613616565b8580600001906111fc9190613d19565b6060013584604051611211949392919061445b565b60405180910390a18173ffffffffffffffffffffffffffffffffffffffff1663095ea7b361010060009054906101000a900473ffffffffffffffffffffffffffffffffffffffff1660006040518363ffffffff1660e01b81526004016112789291906143c6565b6020604051808303816000875af1158015611297573d6000803e3d6000fd5b505050506040513d601f19601f820116820180604052508101906112bb919061404a565b6112fa576040517f08c379a00000000000000000000000000000000000000000000000000000000081526004016112f19061443b565b60405180910390fd5b505b50508080611309906144cf565b915050610b40565b50505050565b7ffd37f88a14d7ed985885a1af8f2ad5b64dd7eb00ab89168649791632bb9bb4a681565b60008060019054906101000a900460ff1615905080801561136c5750600160008054906101000a900460ff1660ff16105b80611399575061137b30612739565b1580156113985750600160008054906101000a900460ff1660ff16145b5b6113d8576040517f08c379a00000000000000000000000000000000000000000000000000000000081526004016113cf90614589565b60405180910390fd5b60016000806101000a81548160ff021916908360ff1602179055508015611415576001600060016101000a81548160ff0219169083151502179055505b600073ffffffffffffffffffffffffffffffffffffffff168860006003811061144157611440613b8d565b5b6020020160208101906114549190613616565b73ffffffffffffffffffffffffffffffffffffffff161415806114ca5750600073ffffffffffffffffffffffffffffffffffffffff168860016003811061149e5761149d613b8d565b5b6020020160208101906114b19190613616565b73ffffffffffffffffffffffffffffffffffffffff1614155b806115285750600073ffffffffffffffffffffffffffffffffffffffff16886002600381106114fc576114fb613b8d565b5b60200201602081019061150f9190613616565b73ffffffffffffffffffffffffffffffffffffffff1614155b611567576040517f08c379a000000000000000000000000000000000000000000000000000000000815260040161155e906145f5565b60405180910390fd5b600073ffffffffffffffffffffffffffffffffffffffff168773ffffffffffffffffffffffffffffffffffffffff16036115d6576040517f08c379a00000000000000000000000000000000000000000000000000000000081526004016115cd90614661565b60405180910390fd5b600073ffffffffffffffffffffffffffffffffffffffff168673ffffffffffffffffffffffffffffffffffffffff1603611645576040517f08c379a000000000000000000000000000000000000000000000000000000000815260040161163c906146cd565b60405180910390fd5b600073ffffffffffffffffffffffffffffffffffffffff168573ffffffffffffffffffffffffffffffffffffffff16036116b4576040517f08c379a00000000000000000000000000000000000000000000000000000000081526004016116ab90614739565b60405180910390fd5b600073ffffffffffffffffffffffffffffffffffffffff168473ffffffffffffffffffffffffffffffffffffffff1603611723576040517f08c379a000000000000000000000000000000000000000000000000000000000815260040161171a906147a5565b60405180910390fd5b600073ffffffffffffffffffffffffffffffffffffffff168373ffffffffffffffffffffffffffffffffffffffff1603611792576040517f08c379a000000000000000000000000000000000000000000000000000000000815260040161178990614811565b60405180910390fd5b600073ffffffffffffffffffffffffffffffffffffffff168273ffffffffffffffffffffffffffffffffffffffff1603611801576040517f08c379a00000000000000000000000000000000000000000000000000000000081526004016117f89061487d565b60405180910390fd5b61180961275c565b6118116127ad565b8b60fd6040518060400160405280600481526020017f555344430000000000000000000000000000000000000000000000000000000081525060405161185791906148ce565b908152602001604051809103902060006101000a81548173ffffffffffffffffffffffffffffffffffffffff021916908373ffffffffffffffffffffffffffffffffffffffff1602179055508a60fd6040518060400160405280600481526020017f55534454000000000000000000000000000000000000000000000000000000008152506040516118e991906148ce565b908152602001604051809103902060006101000a81548173ffffffffffffffffffffffffffffffffffffffff021916908373ffffffffffffffffffffffffffffffffffffffff1602179055508960fd6040518060400160405280600481526020017f574254430000000000000000000000000000000000000000000000000000000081525060405161197b91906148ce565b908152602001604051809103902060006101000a81548173ffffffffffffffffffffffffffffffffffffffff021916908373ffffffffffffffffffffffffffffffffffffffff1602179055508860fd6040518060400160405280600481526020017f5745544800000000000000000000000000000000000000000000000000000000815250604051611a0d91906148ce565b908152602001604051809103902060006101000a81548173ffffffffffffffffffffffffffffffffffffffff021916908373ffffffffffffffffffffffffffffffffffffffff1602179055508560ff60006101000a81548173ffffffffffffffffffffffffffffffffffffffff021916908373ffffffffffffffffffffffffffffffffffffffff1602179055508660fe60006101000a81548173ffffffffffffffffffffffffffffffffffffffff021916908373ffffffffffffffffffffffffffffffffffffffff1602179055508261010060006101000a81548173ffffffffffffffffffffffffffffffffffffffff021916908373ffffffffffffffffffffffffffffffffffffffff160217905550611b517ffaad79a708d82d095486f5a83b18341f12a8f717d3011ab929d43135c1af73e260fb61280690919063ffffffff16565b50611b867ffd37f88a14d7ed985885a1af8f2ad5b64dd7eb00ab89168649791632bb9bb4a660fb61280690919063ffffffff16565b50611bbb7fbffb4faf8a508f503a2ca036effd0bc1f82615d3ebfddb934edf718f2367270760fb61280690919063ffffffff16565b50611bf07fd2761b102bda9831f4af400cc824b8cecb9cc5c1c85c51acb1479db9735fbfc660fb61280690919063ffffffff16565b50611c417ffaad79a708d82d095486f5a83b18341f12a8f717d3011ab929d43135c1af73e289600060038110611c2957611c28613b8d565b5b602002016020810190611c3c9190613616565b612705565b611c917ffaad79a708d82d095486f5a83b18341f12a8f717d3011ab929d43135c1af73e289600160038110611c7957611c78613b8d565b5b602002016020810190611c8c9190613616565b612705565b611ce17ffaad79a708d82d095486f5a83b18341f12a8f717d3011ab929d43135c1af73e289600260038110611cc957611cc8613b8d565b5b602002016020810190611cdc9190613616565b612705565b611d0b7ffd37f88a14d7ed985885a1af8f2ad5b64dd7eb00ab89168649791632bb9bb4a686612705565b611d357ffd37f88a14d7ed985885a1af8f2ad5b64dd7eb00ab89168649791632bb9bb4a685612705565b611d5f7fbffb4faf8a508f503a2ca036effd0bc1f82615d3ebfddb934edf718f2367270786612705565b611d897fbffb4faf8a508f503a2ca036effd0bc1f82615d3ebfddb934edf718f2367270785612705565b611db37fd2761b102bda9831f4af400cc824b8cecb9cc5c1c85c51acb1479db9735fbfc683612705565b611ddd7ffaad79a708d82d095486f5a83b18341f12a8f717d3011ab929d43135c1af73e28061281d565b611e077ffd37f88a14d7ed985885a1af8f2ad5b64dd7eb00ab89168649791632bb9bb4a68061281d565b611e317fbffb4faf8a508f503a2ca036effd0bc1f82615d3ebfddb934edf718f236727078061281d565b611e7b7fd2761b102bda9831f4af400cc824b8cecb9cc5c1c85c51acb1479db9735fbfc67ffaad79a708d82d095486f5a83b18341f12a8f717d3011ab929d43135c1af73e261281d565b7fb01aaefdfa9c6d0ab739180ad32400c96c77b263f5e065d3af1002f36219cfeb338d8d8d8d8d8d8d8d8d8d8d604051611ec09c9b9a99989796959493929190614989565b60405180910390a18015611f215760008060016101000a81548160ff0219169083151502179055507f7f26b83ff96e1f2b6a682f133852f6798a09c465da95921460cefb38474024986001604051611f189190614a8d565b60405180910390a15b505050505050505050505050565b60008060fd83604051611f4291906148ce565b908152602001604051809103902060009054906101000a900473ffffffffffffffffffffffffffffffffffffffff1690508073ffffffffffffffffffffffffffffffffffffffff166370a08231306040518263ffffffff1660e01b8152600401611fac91906135cf565b602060405180830381865afa158015611fc9573d6000803e3d6000fd5b505050506040513d601f19601f82011682018060405250810190611fed9190613f5c565b915050919050565b611ffd6126dc565b73ffffffffffffffffffffffffffffffffffffffff168173ffffffffffffffffffffffffffffffffffffffff161461206a576040517f08c379a000000000000000000000000000000000000000000000000000000000815260040161206190614b1a565b60405180910390fd5b6120748282612879565b5050565b6040518060400160405280600481526020017f574254430000000000000000000000000000000000000000000000000000000081525081565b60606040518060400160405280600581526020017f312e302e30000000000000000000000000000000000000000000000000000000815250905090565b60fd818051602081018201805184825260208301602085012081835280955050505050506000915054906101000a900473ffffffffffffffffffffffffffffffffffffffff1681565b7fbffb4faf8a508f503a2ca036effd0bc1f82615d3ebfddb934edf718f2367270781565b600061216760fb6128ad565b905090565b6040518060400160405280600481526020017f555344430000000000000000000000000000000000000000000000000000000081525081565b60006121cc82609760008681526020019081526020016000206128c290919063ffffffff16565b905092915050565b60006065600084815260200190815260200160002060000160008373ffffffffffffffffffffffffffffffffffffffff1673ffffffffffffffffffffffffffffffffffffffff16815260200190815260200160002060009054906101000a900460ff16905092915050565b6000801b81565b6040518060400160405280600481526020017f574554480000000000000000000000000000000000000000000000000000000081525081565b60ff60009054906101000a900473ffffffffffffffffffffffffffffffffffffffff1681565b6040518060400160405280600481526020017f555344540000000000000000000000000000000000000000000000000000000081525081565b60006122fb609760008481526020019081526020016000206128dc565b9050919050565b7ffaad79a708d82d095486f5a83b18341f12a8f717d3011ab929d43135c1af73e261232c816125f3565b600073ffffffffffffffffffffffffffffffffffffffff168273ffffffffffffffffffffffffffffffffffffffff160361239b576040517f08c379a000000000000000000000000000000000000000000000000000000000815260040161239290614b86565b60405180910390fd5b8160fe60006101000a81548173ffffffffffffffffffffffffffffffffffffffff021916908373ffffffffffffffffffffffffffffffffffffffff1602179055505050565b6123e982610ab5565b6123f2816125f3565b6123fc8383612879565b505050565b7ffd37f88a14d7ed985885a1af8f2ad5b64dd7eb00ab89168649791632bb9bb4a661242b816125f3565b612433612607565b6124a060fd8484604051612448929190613bec565b908152602001604051809103902060009054906101000a900473ffffffffffffffffffffffffffffffffffffffff1660ff60009054906101000a900473ffffffffffffffffffffffffffffffffffffffff1686612656565b7f901c03da5d88eb3d62ab4617e7b7d17d86db16356823a7971127d5181a842fef60ff60009054906101000a900473ffffffffffffffffffffffffffffffffffffffff168484876040516124f79493929190614ba6565b60405180910390a16125076126e4565b50505050565b7fd2761b102bda9831f4af400cc824b8cecb9cc5c1c85c51acb1479db9735fbfc681565b7ffaad79a708d82d095486f5a83b18341f12a8f717d3011ab929d43135c1af73e281565b7f539440820030c4994db4e31b6b800deafd503688728f932addfe7a410515c14c81565b60007f7965db0b000000000000000000000000000000000000000000000000000000007bffffffffffffffffffffffffffffffffffffffffffffffffffffffff1916827bffffffffffffffffffffffffffffffffffffffffffffffffffffffff191614806125ec57506125eb826128f1565b5b9050919050565b612604816125ff6126dc565b61295b565b50565b600260c9540361264c576040517f08c379a000000000000000000000000000000000000000000000000000000000815260040161264390614c32565b60405180910390fd5b600260c981905550565b6126d78363a9059cbb60e01b8484604051602401612675929190613ff5565b604051602081830303815290604052907bffffffffffffffffffffffffffffffffffffffffffffffffffffffff19166020820180517bffffffffffffffffffffffffffffffffffffffffffffffffffffffff83818316178352505050506129e0565b505050565b600033905090565b600160c981905550565b60006126fd8360000183612aa8565b905092915050565b61270f8282612ad3565b6127348160976000858152602001908152602001600020612bb490919063ffffffff16565b505050565b6000808273ffffffffffffffffffffffffffffffffffffffff163b119050919050565b600060019054906101000a900460ff166127ab576040517f08c379a00000000000000000000000000000000000000000000000000000000081526004016127a290614cc4565b60405180910390fd5b565b600060019054906101000a900460ff166127fc576040517f08c379a00000000000000000000000000000000000000000000000000000000081526004016127f390614cc4565b60405180910390fd5b600160c981905550565b60006128158360000183612be4565b905092915050565b600061282883610ab5565b90508160656000858152602001908152602001600020600101819055508181847fbd79b86ffe0ab8e8776151514217cd7cacd52c909f66475c3af44e129f0b00ff60405160405180910390a4505050565b6128838282612c54565b6128a88160976000858152602001908152602001600020612d3690919063ffffffff16565b505050565b60006128bb82600001612d66565b9050919050565b60006128d18360000183612aa8565b60001c905092915050565b60006128ea82600001612d66565b9050919050565b60007f01ffc9a7000000000000000000000000000000000000000000000000000000007bffffffffffffffffffffffffffffffffffffffffffffffffffffffff1916827bffffffffffffffffffffffffffffffffffffffffffffffffffffffff1916149050919050565b61296582826121d4565b6129dc5761297281612d77565b6129808360001c6020612da4565b604051602001612991929190614d7c565b6040516020818303038152906040526040517f08c379a00000000000000000000000000000000000000000000000000000000081526004016129d39190613b2b565b60405180910390fd5b5050565b6000612a42826040518060400160405280602081526020017f5361666545524332303a206c6f772d6c6576656c2063616c6c206661696c65648152508573ffffffffffffffffffffffffffffffffffffffff16612fe09092919063ffffffff16565b9050600081511480612a64575080806020019051810190612a63919061404a565b5b612aa3576040517f08c379a0000000000000000000000000000000000000000000000000000000008152600401612a9a90614e28565b60405180910390fd5b505050565b6000826000018281548110612ac057612abf613b8d565b5b9060005260206000200154905092915050565b612add82826121d4565b612bb05760016065600084815260200190815260200160002060000160008373ffffffffffffffffffffffffffffffffffffffff1673ffffffffffffffffffffffffffffffffffffffff16815260200190815260200160002060006101000a81548160ff021916908315150217905550612b556126dc565b73ffffffffffffffffffffffffffffffffffffffff168173ffffffffffffffffffffffffffffffffffffffff16837f2f8788117e7eff1d82e926ec794901d17c78024a50270940304540a733656f0d60405160405180910390a45b5050565b6000612bdc836000018373ffffffffffffffffffffffffffffffffffffffff1660001b612be4565b905092915050565b6000612bf08383612ff8565b612c49578260000182908060018154018082558091505060019003906000526020600020016000909190919091505582600001805490508360010160008481526020019081526020016000208190555060019050612c4e565b600090505b92915050565b612c5e82826121d4565b15612d325760006065600084815260200190815260200160002060000160008373ffffffffffffffffffffffffffffffffffffffff1673ffffffffffffffffffffffffffffffffffffffff16815260200190815260200160002060006101000a81548160ff021916908315150217905550612cd76126dc565b73ffffffffffffffffffffffffffffffffffffffff168173ffffffffffffffffffffffffffffffffffffffff16837ff6391f5c32d9c69d2a47ea670b442974b53935d1edc7fd64eb21e047a839171b60405160405180910390a45b5050565b6000612d5e836000018373ffffffffffffffffffffffffffffffffffffffff1660001b61301b565b905092915050565b600081600001805490509050919050565b6060612d9d8273ffffffffffffffffffffffffffffffffffffffff16601460ff16612da4565b9050919050565b606060006002836002612db79190614e48565b612dc19190614e8a565b67ffffffffffffffff811115612dda57612dd961390e565b5b6040519080825280601f01601f191660200182016040528015612e0c5781602001600182028036833780820191505090505b5090507f300000000000000000000000000000000000000000000000000000000000000081600081518110612e4457612e43613b8d565b5b60200101907effffffffffffffffffffffffffffffffffffffffffffffffffffffffffffff1916908160001a9053507f780000000000000000000000000000000000000000000000000000000000000081600181518110612ea857612ea7613b8d565b5b60200101907effffffffffffffffffffffffffffffffffffffffffffffffffffffffffffff1916908160001a90535060006001846002612ee89190614e48565b612ef29190614e8a565b90505b6001811115612f92577f3031323334353637383961626364656600000000000000000000000000000000600f861660108110612f3457612f33613b8d565b5b1a60f81b828281518110612f4b57612f4a613b8d565b5b60200101907effffffffffffffffffffffffffffffffffffffffffffffffffffffffffffff1916908160001a905350600485901c945080612f8b90614ebe565b9050612ef5565b5060008414612fd6576040517f08c379a0000000000000000000000000000000000000000000000000000000008152600401612fcd90614f33565b60405180910390fd5b8091505092915050565b6060612fef848460008561312f565b90509392505050565b600080836001016000848152602001908152602001600020541415905092915050565b6000808360010160008481526020019081526020016000205490506000811461312357600060018261304d9190614f53565b90506000600186600001805490506130659190614f53565b90508181146130d457600086600001828154811061308657613085613b8d565b5b90600052602060002001549050808760000184815481106130aa576130a9613b8d565b5b90600052602060002001819055508387600101600083815260200190815260200160002081905550505b856000018054806130e8576130e7614f87565b5b600190038181906000526020600020016000905590558560010160008681526020019081526020016000206000905560019350505050613129565b60009150505b92915050565b606082471015613174576040517f08c379a000000000000000000000000000000000000000000000000000000000815260040161316b90615028565b60405180910390fd5b6000808673ffffffffffffffffffffffffffffffffffffffff16858760405161319d919061508f565b60006040518083038185875af1925050503d80600081146131da576040519150601f19603f3d011682016040523d82523d6000602084013e6131df565b606091505b50915091506131f0878383876131fc565b92505050949350505050565b6060831561325e5760008351036132565761321685613271565b613255576040517f08c379a000000000000000000000000000000000000000000000000000000000815260040161324c906150f2565b60405180910390fd5b5b829050613269565b6132688383613294565b5b949350505050565b6000808273ffffffffffffffffffffffffffffffffffffffff163b119050919050565b6000825111156132a75781518083602001fd5b806040517f08c379a00000000000000000000000000000000000000000000000000000000081526004016132db9190613b2b565b60405180910390fd5b600081519050919050565b600082825260208201905092915050565b6000819050602082019050919050565b6000819050919050565b61332381613310565b82525050565b6000613335838361331a565b60208301905092915050565b6000602082019050919050565b6000613359826132e4565b61336381856132ef565b935061336e83613300565b8060005b8381101561339f5781516133868882613329565b975061339183613341565b925050600181019050613372565b5085935050505092915050565b600060208201905081810360008301526133c6818461334e565b905092915050565b6000604051905090565b600080fd5b600080fd5b60007fffffffff0000000000000000000000000000000000000000000000000000000082169050919050565b613417816133e2565b811461342257600080fd5b50565b6000813590506134348161340e565b92915050565b6000602082840312156134505761344f6133d8565b5b600061345e84828501613425565b91505092915050565b60008115159050919050565b61347c81613467565b82525050565b60006020820190506134976000830184613473565b92915050565b6134a681613310565b81146134b157600080fd5b50565b6000813590506134c38161349d565b92915050565b600080fd5b600080fd5b600080fd5b60008083601f8401126134ee576134ed6134c9565b5b8235905067ffffffffffffffff81111561350b5761350a6134ce565b5b602083019150836001820283011115613527576135266134d3565b5b9250929050565b600080600060408486031215613547576135466133d8565b5b6000613555868287016134b4565b935050602084013567ffffffffffffffff811115613576576135756133dd565b5b613582868287016134d8565b92509250509250925092565b600073ffffffffffffffffffffffffffffffffffffffff82169050919050565b60006135b98261358e565b9050919050565b6135c9816135ae565b82525050565b60006020820190506135e460008301846135c0565b92915050565b6135f3816135ae565b81146135fe57600080fd5b50565b600081359050613610816135ea565b92915050565b60006020828403121561362c5761362b6133d8565b5b600061363a84828501613601565b91505092915050565b6000819050919050565b61365681613643565b811461366157600080fd5b50565b6000813590506136738161364d565b92915050565b60006020828403121561368f5761368e6133d8565b5b600061369d84828501613664565b91505092915050565b6136af81613643565b82525050565b60006020820190506136ca60008301846136a6565b92915050565b6000602082840312156136e6576136e56133d8565b5b60006136f4848285016134b4565b91505092915050565b60008060408385031215613714576137136133d8565b5b600061372285828601613664565b925050602061373385828601613601565b9150509250929050565b60008083601f840112613753576137526134c9565b5b8235905067ffffffffffffffff8111156137705761376f6134ce565b5b60208301915083602082028301111561378c5761378b6134d3565b5b9250929050565b600080602083850312156137aa576137a96133d8565b5b600083013567ffffffffffffffff8111156137c8576137c76133dd565b5b6137d48582860161373d565b92509250509250929050565b6000819050826020600302820111156137fc576137fb6134d3565b5b92915050565b60008060008060008060008060008060006101a08c8e031215613828576138276133d8565b5b60006138368e828f01613601565b9b505060206138478e828f01613601565b9a505060406138588e828f01613601565b99505060606138698e828f01613601565b985050608061387a8e828f016137e0565b97505060e061388b8e828f01613601565b96505061010061389d8e828f01613601565b9550506101206138af8e828f01613601565b9450506101406138c18e828f01613601565b9350506101606138d38e828f01613601565b9250506101806138e58e828f01613601565b9150509295989b509295989b9093969950565b600080fd5b6000601f19601f8301169050919050565b7f4e487b7100000000000000000000000000000000000000000000000000000000600052604160045260246000fd5b613946826138fd565b810181811067ffffffffffffffff821117156139655761396461390e565b5b80604052505050565b60006139786133ce565b9050613984828261393d565b919050565b600067ffffffffffffffff8211156139a4576139a361390e565b5b6139ad826138fd565b9050602081019050919050565b82818337600083830152505050565b60006139dc6139d784613989565b61396e565b9050828152602081018484840111156139f8576139f76138f8565b5b613a038482856139ba565b509392505050565b600082601f830112613a2057613a1f6134c9565b5b8135613a308482602086016139c9565b91505092915050565b600060208284031215613a4f57613a4e6133d8565b5b600082013567ffffffffffffffff811115613a6d57613a6c6133dd565b5b613a7984828501613a0b565b91505092915050565b613a8b81613310565b82525050565b6000602082019050613aa66000830184613a82565b92915050565b600081519050919050565b600082825260208201905092915050565b60005b83811015613ae6578082015181840152602081019050613acb565b60008484015250505050565b6000613afd82613aac565b613b078185613ab7565b9350613b17818560208601613ac8565b613b20816138fd565b840191505092915050565b60006020820190508181036000830152613b458184613af2565b905092915050565b60008060408385031215613b6457613b636133d8565b5b6000613b7285828601613664565b9250506020613b83858286016134b4565b9150509250929050565b7f4e487b7100000000000000000000000000000000000000000000000000000000600052603260045260246000fd5b600081905092915050565b6000613bd38385613bbc565b9350613be08385846139ba565b82840190509392505050565b6000613bf9828486613bc7565b91508190509392505050565b6000613c118385613ab7565b9350613c1e8385846139ba565b613c27836138fd565b840190509392505050565b6000608082019050613c4760008301886135c0565b8181036020830152613c5a818688613c05565b9050613c696040830185613a82565b613c7660608301846135c0565b9695505050505050565b7f5769746864726177304164647200000000000000000000000000000000000000600082015250565b6000613cb6600d83613ab7565b9150613cc182613c80565b602082019050919050565b60006020820190508181036000830152613ce581613ca9565b9050919050565b600080fd5b600082356001606003833603038112613d0d57613d0c613cec565b5b80830191505092915050565b60008235600160a003833603038112613d3557613d34613cec565b5b80830191505092915050565b7f45727220726563697069656e7400000000000000000000000000000000000000600082015250565b6000613d77600d83613ab7565b9150613d8282613d41565b602082019050919050565b60006020820190508181036000830152613da681613d6a565b9050919050565b7f45727220536c6970700000000000000000000000000000000000000000000000600082015250565b6000613de3600983613ab7565b9150613dee82613dad565b602082019050919050565b60006020820190508181036000830152613e1281613dd6565b9050919050565b7f5553444300000000000000000000000000000000000000000000000000000000600082015250565b6000613e4f600483613bbc565b9150613e5a82613e19565b600482019050919050565b6000613e7082613e42565b9150819050919050565b7f5553445400000000000000000000000000000000000000000000000000000000600082015250565b6000613eb0600483613bbc565b9150613ebb82613e7a565b600482019050919050565b6000613ed182613ea3565b9150819050919050565b7f45727220546f6b656e4f75740000000000000000000000000000000000000000600082015250565b6000613f11600c83613ab7565b9150613f1c82613edb565b602082019050919050565b60006020820190508181036000830152613f4081613f04565b9050919050565b600081519050613f568161349d565b92915050565b600060208284031215613f7257613f716133d8565b5b6000613f8084828501613f47565b91505092915050565b7f45727220416d6f756e74496e0000000000000000000000000000000000000000600082015250565b6000613fbf600c83613ab7565b9150613fca82613f89565b602082019050919050565b60006020820190508181036000830152613fee81613fb2565b9050919050565b600060408201905061400a60008301856135c0565b6140176020830184613a82565b9392505050565b61402781613467565b811461403257600080fd5b50565b6000815190506140448161401e565b92915050565b6000602082840312156140605761405f6133d8565b5b600061406e84828501614035565b91505092915050565b7f45727220417070726f76616c0000000000000000000000000000000000000000600082015250565b60006140ad600c83613ab7565b91506140b882614077565b602082019050919050565b600060208201905081810360008301526140dc816140a0565b9050919050565b600080fd5b600080fd5b600080fd5b6000808335600160200384360303811261410f5761410e6140ed565b5b83810192508235915060208301925067ffffffffffffffff821115614137576141366140e3565b5b60018202360383131561414d5761414c6140e8565b5b509250929050565b600082825260208201905092915050565b60006141728385614155565b935061417f8385846139ba565b614188836138fd565b840190509392505050565b60006141a26020840184613601565b905092915050565b6141b3816135ae565b82525050565b60006141c860208401846134b4565b905092915050565b600060a083016141e360008401846140f2565b85830360008701526141f6838284614166565b925050506142076020840184614193565b61421460208601826141aa565b5061422260408401846141b9565b61422f604086018261331a565b5061423d60608401846141b9565b61424a606086018261331a565b5061425860808401846141b9565b614265608086018261331a565b508091505092915050565b6000602082019050818103600083015261428a81846141d0565b905092915050565b60008160e01c9050919050565b600060033d11156142be5760046000803e6142bb600051614292565b90505b90565b600060443d1061434e576142d36133ce565b60043d036004823e80513d602482011167ffffffffffffffff821117156142fb57505061434e565b808201805167ffffffffffffffff811115614319575050505061434e565b80602083010160043d03850181111561433657505050505061434e565b6143458260200185018661393d565b82955050505050505b90565b600060408201905061436660008301856135c0565b81810360208301526143788184613af2565b90509392505050565b6000819050919050565b6000819050919050565b60006143b06143ab6143a684614381565b61438b565b613310565b9050919050565b6143c081614395565b82525050565b60006040820190506143db60008301856135c0565b6143e860208301846143b7565b9392505050565b7f45727220417070726f76616c3000000000000000000000000000000000000000600082015250565b6000614425600d83613ab7565b9150614430826143ef565b602082019050919050565b6000602082019050818103600083015261445481614418565b9050919050565b600060808201905061447060008301876135c0565b61447d60208301866135c0565b61448a6040830185613a82565b6144976060830184613a82565b95945050505050565b7f4e487b7100000000000000000000000000000000000000000000000000000000600052601160045260246000fd5b60006144da82613310565b91507fffffffffffffffffffffffffffffffffffffffffffffffffffffffffffffffff820361450c5761450b6144a0565b5b600182019050919050565b7f496e697469616c697a61626c653a20636f6e747261637420697320616c72656160008201527f647920696e697469616c697a6564000000000000000000000000000000000000602082015250565b6000614573602e83613ab7565b915061457e82614517565b604082019050919050565b600060208201905081810360008301526145a281614566565b9050919050565b7f41646d696e416464720000000000000000000000000000000000000000000000600082015250565b60006145df600983613ab7565b91506145ea826145a9565b602082019050919050565b6000602082019050818103600083015261460e816145d2565b9050919050565b7f5265736375654164647200000000000000000000000000000000000000000000600082015250565b600061464b600a83613ab7565b915061465682614615565b602082019050919050565b6000602082019050818103600083015261467a8161463e565b9050919050565b7f5769746864726177416464720000000000000000000000000000000000000000600082015250565b60006146b7600c83613ab7565b91506146c282614681565b602082019050919050565b600060208201905081810360008301526146e6816146aa565b9050919050565b7f46697273744c656e6465724c6971416464720000000000000000000000000000600082015250565b6000614723601283613ab7565b915061472e826146ed565b602082019050919050565b6000602082019050818103600083015261475281614716565b9050919050565b7f5365636f6e644c656e6465724c69714164647200000000000000000000000000600082015250565b600061478f601383613ab7565b915061479a82614759565b602082019050919050565b600060208201905081810360008301526147be81614782565b9050919050565b7f53776170526f7574657241646472000000000000000000000000000000000000600082015250565b60006147fb600e83613ab7565b9150614806826147c5565b602082019050919050565b6000602082019050818103600083015261482a816147ee565b9050919050565b7f5377617070657241646472000000000000000000000000000000000000000000600082015250565b6000614867600b83613ab7565b915061487282614831565b602082019050919050565b600060208201905081810360008301526148968161485a565b9050919050565b60006148a882613aac565b6148b28185613bbc565b93506148c2818560208601613ac8565b80840191505092915050565b60006148da828461489d565b915081905092915050565b600060039050919050565b600081905092915050565b6000819050919050565b600061491183836141aa565b60208301905092915050565b6000602082019050919050565b614933816148e5565b61493d81846148f0565b9250614948826148fb565b8060005b838110156149815761495e8284614193565b6149688782614905565b96506149738361491d565b92505060018101905061494c565b505050505050565b60006101c08201905061499f600083018f6135c0565b6149ac602083018e6135c0565b6149b9604083018d6135c0565b6149c6606083018c6135c0565b6149d3608083018b6135c0565b6149e060a083018a61492a565b6149ee6101008301896135c0565b6149fc6101208301886135c0565b614a0a6101408301876135c0565b614a186101608301866135c0565b614a266101808301856135c0565b614a346101a08301846135c0565b9d9c50505050505050505050505050565b6000819050919050565b600060ff82169050919050565b6000614a77614a72614a6d84614a45565b61438b565b614a4f565b9050919050565b614a8781614a5c565b82525050565b6000602082019050614aa26000830184614a7e565b92915050565b7f416363657373436f6e74726f6c3a2063616e206f6e6c792072656e6f756e636560008201527f20726f6c657320666f722073656c660000000000000000000000000000000000602082015250565b6000614b04602f83613ab7565b9150614b0f82614aa8565b604082019050919050565b60006020820190508181036000830152614b3381614af7565b9050919050565b7f5265736375653041646472000000000000000000000000000000000000000000600082015250565b6000614b70600b83613ab7565b9150614b7b82614b3a565b602082019050919050565b60006020820190508181036000830152614b9f81614b63565b9050919050565b6000606082019050614bbb60008301876135c0565b8181036020830152614bce818587613c05565b9050614bdd6040830184613a82565b95945050505050565b7f5265656e7472616e637947756172643a207265656e7472616e742063616c6c00600082015250565b6000614c1c601f83613ab7565b9150614c2782614be6565b602082019050919050565b60006020820190508181036000830152614c4b81614c0f565b9050919050565b7f496e697469616c697a61626c653a20636f6e7472616374206973206e6f74206960008201527f6e697469616c697a696e67000000000000000000000000000000000000000000602082015250565b6000614cae602b83613ab7565b9150614cb982614c52565b604082019050919050565b60006020820190508181036000830152614cdd81614ca1565b9050919050565b7f416363657373436f6e74726f6c3a206163636f756e7420000000000000000000600082015250565b6000614d1a601783613bbc565b9150614d2582614ce4565b601782019050919050565b7f206973206d697373696e6720726f6c6520000000000000000000000000000000600082015250565b6000614d66601183613bbc565b9150614d7182614d30565b601182019050919050565b6000614d8782614d0d565b9150614d93828561489d565b9150614d9e82614d59565b9150614daa828461489d565b91508190509392505050565b7f5361666545524332303a204552433230206f7065726174696f6e20646964206e60008201527f6f74207375636365656400000000000000000000000000000000000000000000602082015250565b6000614e12602a83613ab7565b9150614e1d82614db6565b604082019050919050565b60006020820190508181036000830152614e4181614e05565b9050919050565b6000614e5382613310565b9150614e5e83613310565b9250828202614e6c81613310565b91508282048414831517614e8357614e826144a0565b5b5092915050565b6000614e9582613310565b9150614ea083613310565b9250828201905080821115614eb857614eb76144a0565b5b92915050565b6000614ec982613310565b915060008203614edc57614edb6144a0565b5b600182039050919050565b7f537472696e67733a20686578206c656e67746820696e73756666696369656e74600082015250565b6000614f1d602083613ab7565b9150614f2882614ee7565b602082019050919050565b60006020820190508181036000830152614f4c81614f10565b9050919050565b6000614f5e82613310565b9150614f6983613310565b9250828203905081811115614f8157614f806144a0565b5b92915050565b7f4e487b7100000000000000000000000000000000000000000000000000000000600052603160045260246000fd5b7f416464726573733a20696e73756666696369656e742062616c616e636520666f60008201527f722063616c6c0000000000000000000000000000000000000000000000000000602082015250565b6000615012602683613ab7565b915061501d82614fb6565b604082019050919050565b6000602082019050818103600083015261504181615005565b9050919050565b600081519050919050565b600081905092915050565b600061506982615048565b6150738185615053565b9350615083818560208601613ac8565b80840191505092915050565b600061509b828461505e565b915081905092915050565b7f416464726573733a2063616c6c20746f206e6f6e2d636f6e7472616374000000600082015250565b60006150dc601d83613ab7565b91506150e7826150a6565b602082019050919050565b6000602082019050818103600083015261510b816150cf565b905091905056fea26469706673582212203af866ed0ceef85b4b9f329b7ca1cd79198dcb8ef277daf90459d4960a8855f964736f6c63430008120033",
  "linkReferences": {},
  "deployedLinkReferences": {}
}