{
  "_format": "hh-sol-artifact-1",
  "contractName": "ColateralContract",
  "sourceName": "contracts/ColateralContract.sol",
  "abi": [
    {
      "inputs": [],
      "stateMutability": "nonpayable",
      "type": "constructor"
    },
    {
      "anonymous": false,
      "inputs": [
        {
          "indexed": false,
          "internalType": "address",
          "name": "sender",
          "type": "address"
        },
        {
          "indexed": false,
          "internalType": "string[]",
          "name": "_tokenNames",
          "type": "string[]"
        },
        {
          "indexed": false,
          "internalType": "address[]",
          "name": "_tokenAddresses",
          "type": "address[]"
        },
        {
          "indexed": false,
          "internalType": "address[3]",
          "name": "_aconcagua",
          "type": "address[3]"
        },
        {
          "indexed": false,
          "internalType": "address",
          "name": "_rescueWalletAddress",
          "type": "address"
        },
        {
          "indexed": false,
          "internalType": "address",
          "name": "_withdrawWalletAddress",
          "type": "address"
        },
        {
          "indexed": false,
          "internalType": "address",
          "name": "_firstLenderLiq",
          "type": "address"
        },
        {
          "indexed": false,
          "internalType": "address",
          "name": "_secondLenderLiq",
          "type": "address"
        },
        {
          "indexed": false,
          "internalType": "address",
          "name": "_swapRouterAddress",
          "type": "address"
        },
        {
          "indexed": false,
          "internalType": "address",
          "name": "_swapper",
          "type": "address"
        }
      ],
      "name": "Initialize",
      "type": "event"
    },
    {
      "anonymous": false,
      "inputs": [
        {
          "indexed": false,
          "internalType": "uint8",
          "name": "version",
          "type": "uint8"
        }
      ],
      "name": "Initialized",
      "type": "event"
    },
    {
      "anonymous": false,
      "inputs": [
        {
          "indexed": false,
          "internalType": "address",
          "name": "sender",
          "type": "address"
        },
        {
          "indexed": false,
          "internalType": "string",
          "name": "token",
          "type": "string"
        },
        {
          "indexed": false,
          "internalType": "uint256",
          "name": "amount",
          "type": "uint256"
        },
        {
          "indexed": false,
          "internalType": "address",
          "name": "to",
          "type": "address"
        }
      ],
      "name": "Rescue",
      "type": "event"
    },
    {
      "anonymous": false,
      "inputs": [
        {
          "indexed": true,
          "internalType": "bytes32",
          "name": "role",
          "type": "bytes32"
        },
        {
          "indexed": true,
          "internalType": "bytes32",
          "name": "previousAdminRole",
          "type": "bytes32"
        },
        {
          "indexed": true,
          "internalType": "bytes32",
          "name": "newAdminRole",
          "type": "bytes32"
        }
      ],
      "name": "RoleAdminChanged",
      "type": "event"
    },
    {
      "anonymous": false,
      "inputs": [
        {
          "indexed": true,
          "internalType": "bytes32",
          "name": "role",
          "type": "bytes32"
        },
        {
          "indexed": true,
          "internalType": "address",
          "name": "account",
          "type": "address"
        },
        {
          "indexed": true,
          "internalType": "address",
          "name": "sender",
          "type": "address"
        }
      ],
      "name": "RoleGranted",
      "type": "event"
    },
    {
      "anonymous": false,
      "inputs": [
        {
          "indexed": true,
          "internalType": "bytes32",
          "name": "role",
          "type": "bytes32"
        },
        {
          "indexed": true,
          "internalType": "address",
          "name": "account",
          "type": "address"
        },
        {
          "indexed": true,
          "internalType": "address",
          "name": "sender",
          "type": "address"
        }
      ],
      "name": "RoleRevoked",
      "type": "event"
    },
    {
      "anonymous": false,
      "inputs": [
        {
          "indexed": false,
          "internalType": "address",
          "name": "tokenIn",
          "type": "address"
        },
        {
          "indexed": false,
          "internalType": "address",
          "name": "tokenOut",
          "type": "address"
        },
        {
          "indexed": false,
          "internalType": "uint256",
          "name": "amountIn",
          "type": "uint256"
        },
        {
          "indexed": false,
          "internalType": "uint256",
          "name": "amountOut",
          "type": "uint256"
        }
      ],
      "name": "Swap",
      "type": "event"
    },
    {
      "anonymous": false,
      "inputs": [
        {
          "indexed": false,
          "internalType": "address",
          "name": "tokenIn",
          "type": "address"
        },
        {
          "indexed": false,
          "internalType": "string",
          "name": "msg",
          "type": "string"
        }
      ],
      "name": "SwapError",
      "type": "event"
    },
    {
      "anonymous": false,
      "inputs": [
        {
          "indexed": false,
          "internalType": "address",
          "name": "sender",
          "type": "address"
        },
        {
          "indexed": false,
          "internalType": "string",
          "name": "token",
          "type": "string"
        },
        {
          "indexed": false,
          "internalType": "address",
          "name": "oldTokenAddress",
          "type": "address"
        },
        {
          "indexed": false,
          "internalType": "address",
          "name": "newTokenAddress",
          "type": "address"
        }
      ],
      "name": "TokenAddressChange",
      "type": "event"
    },
    {
      "anonymous": false,
      "inputs": [
        {
          "indexed": false,
          "internalType": "address",
          "name": "sender",
          "type": "address"
        },
        {
          "indexed": false,
          "internalType": "string",
          "name": "token",
          "type": "string"
        },
        {
          "indexed": false,
          "internalType": "uint256",
          "name": "amount",
          "type": "uint256"
        }
      ],
      "name": "Withdraw",
      "type": "event"
    },
    {
      "anonymous": false,
      "inputs": [
        {
          "indexed": false,
          "internalType": "address",
          "name": "sender",
          "type": "address"
        },
        {
          "indexed": false,
          "internalType": "string",
          "name": "token",
          "type": "string"
        },
        {
          "indexed": false,
          "internalType": "uint256",
          "name": "oldWithdrawalLimit",
          "type": "uint256"
        },
        {
          "indexed": false,
          "internalType": "uint256",
          "name": "newWithdrawalLimit",
          "type": "uint256"
        }
      ],
      "name": "WithdrawalLimitChange",
      "type": "event"
    },
    {
      "inputs": [],
      "name": "ACONCAGUA_ROLE",
      "outputs": [
        {
          "internalType": "bytes32",
          "name": "",
          "type": "bytes32"
        }
      ],
      "stateMutability": "view",
      "type": "function"
    },
    {
      "inputs": [],
      "name": "DEFAULT_ADMIN_ROLE",
      "outputs": [
        {
          "internalType": "bytes32",
          "name": "",
          "type": "bytes32"
        }
      ],
      "stateMutability": "view",
      "type": "function"
    },
    {
      "inputs": [],
      "name": "LENDER_LIQ_ROLE",
      "outputs": [
        {
          "internalType": "bytes32",
          "name": "",
          "type": "bytes32"
        }
      ],
      "stateMutability": "view",
      "type": "function"
    },
    {
      "inputs": [],
      "name": "PAUSER_ROLE",
      "outputs": [
        {
          "internalType": "bytes32",
          "name": "",
          "type": "bytes32"
        }
      ],
      "stateMutability": "view",
      "type": "function"
    },
    {
      "inputs": [],
      "name": "RESCUER_ROLE",
      "outputs": [
        {
          "internalType": "bytes32",
          "name": "",
          "type": "bytes32"
        }
      ],
      "stateMutability": "view",
      "type": "function"
    },
    {
      "inputs": [],
      "name": "SWAPPER_ROLE",
      "outputs": [
        {
          "internalType": "bytes32",
          "name": "",
          "type": "bytes32"
        }
      ],
      "stateMutability": "view",
      "type": "function"
    },
    {
      "inputs": [
        {
          "internalType": "string",
          "name": "_tokenSymbol",
          "type": "string"
        }
      ],
      "name": "balanceOf",
      "outputs": [
        {
          "internalType": "uint256",
          "name": "",
          "type": "uint256"
        }
      ],
      "stateMutability": "view",
      "type": "function"
    },
    {
      "inputs": [],
      "name": "getBalances",
      "outputs": [
        {
          "internalType": "uint256[]",
          "name": "",
          "type": "uint256[]"
        }
      ],
      "stateMutability": "view",
      "type": "function"
    },
    {
      "inputs": [
        {
          "internalType": "bytes32",
          "name": "role",
          "type": "bytes32"
        }
      ],
      "name": "getRoleAdmin",
      "outputs": [
        {
          "internalType": "bytes32",
          "name": "",
          "type": "bytes32"
        }
      ],
      "stateMutability": "view",
      "type": "function"
    },
    {
      "inputs": [
        {
          "internalType": "uint256",
          "name": "index",
          "type": "uint256"
        }
      ],
      "name": "getRoleByIndex",
      "outputs": [
        {
          "internalType": "bytes32",
          "name": "",
          "type": "bytes32"
        }
      ],
      "stateMutability": "view",
      "type": "function"
    },
    {
      "inputs": [],
      "name": "getRoleCount",
      "outputs": [
        {
          "internalType": "uint256",
          "name": "",
          "type": "uint256"
        }
      ],
      "stateMutability": "view",
      "type": "function"
    },
    {
      "inputs": [
        {
          "internalType": "bytes32",
          "name": "role",
          "type": "bytes32"
        },
        {
          "internalType": "uint256",
          "name": "index",
          "type": "uint256"
        }
      ],
      "name": "getRoleMember",
      "outputs": [
        {
          "internalType": "address",
          "name": "",
          "type": "address"
        }
      ],
      "stateMutability": "view",
      "type": "function"
    },
    {
      "inputs": [
        {
          "internalType": "bytes32",
          "name": "role",
          "type": "bytes32"
        }
      ],
      "name": "getRoleMemberCount",
      "outputs": [
        {
          "internalType": "uint256",
          "name": "",
          "type": "uint256"
        }
      ],
      "stateMutability": "view",
      "type": "function"
    },
    {
      "inputs": [
        {
          "internalType": "bytes32",
          "name": "role",
          "type": "bytes32"
        },
        {
          "internalType": "address",
          "name": "account",
          "type": "address"
        }
      ],
      "name": "grantRole",
      "outputs": [],
      "stateMutability": "nonpayable",
      "type": "function"
    },
    {
      "inputs": [
        {
          "internalType": "bytes32",
          "name": "role",
          "type": "bytes32"
        },
        {
          "internalType": "address",
          "name": "account",
          "type": "address"
        }
      ],
      "name": "hasRole",
      "outputs": [
        {
          "internalType": "bool",
          "name": "",
          "type": "bool"
        }
      ],
      "stateMutability": "view",
      "type": "function"
    },
    {
      "inputs": [
        {
          "internalType": "string[]",
          "name": "_tokenNames",
          "type": "string[]"
        },
        {
          "internalType": "address[]",
          "name": "_tokenAddresses",
          "type": "address[]"
        },
        {
          "internalType": "address[3]",
          "name": "_aconcagua",
          "type": "address[3]"
        },
        {
          "internalType": "address",
          "name": "_rescueWalletAddress",
          "type": "address"
        },
        {
          "internalType": "address",
          "name": "_withdrawWalletAddress",
          "type": "address"
        },
        {
          "internalType": "address",
          "name": "_firstLenderLiq",
          "type": "address"
        },
        {
          "internalType": "address",
          "name": "_secondLenderLiq",
          "type": "address"
        },
        {
          "internalType": "address",
          "name": "_swapRouterAddress",
          "type": "address"
        },
        {
          "internalType": "address",
          "name": "_swapper",
          "type": "address"
        }
      ],
      "name": "initialize",
      "outputs": [],
      "stateMutability": "nonpayable",
      "type": "function"
    },
    {
      "inputs": [
        {
          "internalType": "bytes32",
          "name": "role",
          "type": "bytes32"
        },
        {
          "internalType": "address",
          "name": "account",
          "type": "address"
        }
      ],
      "name": "renounceRole",
      "outputs": [],
      "stateMutability": "nonpayable",
      "type": "function"
    },
    {
      "inputs": [
        {
          "internalType": "uint256",
          "name": "_amount",
          "type": "uint256"
        },
        {
          "internalType": "string",
          "name": "_tokenSymbol",
          "type": "string"
        }
      ],
      "name": "rescue",
      "outputs": [],
      "stateMutability": "nonpayable",
      "type": "function"
    },
    {
      "inputs": [],
      "name": "rescueWalletAddress",
      "outputs": [
        {
          "internalType": "address",
          "name": "",
          "type": "address"
        }
      ],
      "stateMutability": "view",
      "type": "function"
    },
    {
      "inputs": [
        {
          "internalType": "bytes32",
          "name": "role",
          "type": "bytes32"
        },
        {
          "internalType": "address",
          "name": "account",
          "type": "address"
        }
      ],
      "name": "revokeRole",
      "outputs": [],
      "stateMutability": "nonpayable",
      "type": "function"
    },
    {
      "inputs": [
        {
          "internalType": "address",
          "name": "_rescueWalletAddress",
          "type": "address"
        }
      ],
      "name": "setRescueWalletAddress",
      "outputs": [],
      "stateMutability": "nonpayable",
      "type": "function"
    },
    {
      "inputs": [
        {
          "internalType": "address",
          "name": "_withdrawWalletAddress",
          "type": "address"
        }
      ],
      "name": "setWithdrawWalletAddress",
      "outputs": [],
      "stateMutability": "nonpayable",
      "type": "function"
    },
    {
      "inputs": [
        {
          "internalType": "bytes4",
          "name": "interfaceId",
          "type": "bytes4"
        }
      ],
      "name": "supportsInterface",
      "outputs": [
        {
          "internalType": "bool",
          "name": "",
          "type": "bool"
        }
      ],
      "stateMutability": "view",
      "type": "function"
    },
    {
      "inputs": [
        {
          "components": [
            {
              "components": [
                {
                  "internalType": "bytes",
                  "name": "path",
                  "type": "bytes"
                },
                {
                  "internalType": "address",
                  "name": "recipient",
                  "type": "address"
                },
                {
                  "internalType": "uint256",
                  "name": "deadline",
                  "type": "uint256"
                },
                {
                  "internalType": "uint256",
                  "name": "amountIn",
                  "type": "uint256"
                },
                {
                  "internalType": "uint256",
                  "name": "amountOutMinimum",
                  "type": "uint256"
                }
              ],
              "internalType": "struct ISwapRouter.ExactInputParams",
              "name": "params",
              "type": "tuple"
            },
            {
              "internalType": "address",
              "name": "tokenIn",
              "type": "address"
            },
            {
              "internalType": "address",
              "name": "tokenOut",
              "type": "address"
            }
          ],
          "internalType": "struct IColateralContract.SwapParams[]",
          "name": "swapsParams",
          "type": "tuple[]"
        }
      ],
      "name": "swapExactInputs",
      "outputs": [],
      "stateMutability": "nonpayable",
      "type": "function"
    },
    {
      "inputs": [
        {
          "internalType": "uint256",
          "name": "",
          "type": "uint256"
        }
      ],
      "name": "tokenNames",
      "outputs": [
        {
          "internalType": "string",
          "name": "",
          "type": "string"
        }
      ],
      "stateMutability": "view",
      "type": "function"
    },
    {
      "inputs": [
        {
          "internalType": "string",
          "name": "",
          "type": "string"
        }
      ],
      "name": "tokenTable",
      "outputs": [
        {
          "internalType": "address",
          "name": "",
          "type": "address"
        }
      ],
      "stateMutability": "view",
      "type": "function"
    },
    {
      "inputs": [],
      "name": "version",
      "outputs": [
        {
          "internalType": "string",
          "name": "",
          "type": "string"
        }
      ],
      "stateMutability": "pure",
      "type": "function"
    },
    {
      "inputs": [
        {
          "internalType": "uint256",
          "name": "_amount",
          "type": "uint256"
        },
        {
          "internalType": "string",
          "name": "_tokenSymbol",
          "type": "string"
        }
      ],
      "name": "withdraw",
      "outputs": [],
      "stateMutability": "nonpayable",
      "type": "function"
    },
    {
      "inputs": [],
      "name": "withdrawWalletAddress",
      "outputs": [
        {
          "internalType": "address",
          "name": "",
          "type": "address"
        }
      ],
      "stateMutability": "view",
      "type": "function"
    },
    {
      "stateMutability": "payable",
      "type": "receive"
    }
  ],
  "bytecode": "0x608060405273fcf5986450e4a014ffe7ad4ae24921b589d039b560fd60006101000a81548173ffffffffffffffffffffffffffffffffffffffff021916908373ffffffffffffffffffffffffffffffffffffffff1602179055503480156200006657600080fd5b50620000776200007d60201b60201c565b62000227565b600060019054906101000a900460ff1615620000d0576040517f08c379a0000000000000000000000000000000000000000000000000000000008152600401620000c790620001ca565b60405180910390fd5b60ff801660008054906101000a900460ff1660ff1614620001415760ff6000806101000a81548160ff021916908360ff1602179055507f7f26b83ff96e1f2b6a682f133852f6798a09c465da95921460cefb384740249860ff6040516200013891906200020a565b60405180910390a15b565b600082825260208201905092915050565b7f496e697469616c697a61626c653a20636f6e747261637420697320696e69746960008201527f616c697a696e6700000000000000000000000000000000000000000000000000602082015250565b6000620001b260278362000143565b9150620001bf8262000154565b604082019050919050565b60006020820190508181036000830152620001e581620001a3565b9050919050565b600060ff82169050919050565b6200020481620001ec565b82525050565b6000602082019050620002216000830184620001f9565b92915050565b615f0280620002376000396000f3fe6080604052600436106101c55760003560e01c806355452d04116100f7578063b14ec10111610095578063dc048cf211610064578063dc048cf21461077b578063df668eca146107a4578063e5df800a146107cf578063e63ab1e9146107fa576102b1565b8063b14ec101146106c1578063ca15c873146106ec578063d00411c914610729578063d547741f14610752576102b1565b806383d33319116100d157806383d33319146105f15780639010d07c1461061c57806391d1485414610659578063a217fddf14610696576102b1565b806355452d0414610560578063713725441461059d57806372626285146105c8576102b1565b80632f2ff15d1161016457806332cc815d1161013e57806332cc815d146104a457806335ee5f87146104cf57806336568abe1461050c57806354fd4d5014610535576102b1565b80632f2ff15d146104155780632ffe99421461043e578063310495ab14610467576102b1565b806315ac7358116101a057806315ac735814610347578063212f603914610372578063248a9ca31461039b57806325acc985146103d8576102b1565b8062113e08146102b657806301ffc9a7146102e15780630828c4041461031e576102b1565b366102b157601e46036102745760ff6040516101e090613704565b908152602001604051809103902060009054906101000a900473ffffffffffffffffffffffffffffffffffffffff1673ffffffffffffffffffffffffffffffffffffffff1663d0e30db0346040518263ffffffff1660e01b81526004016000604051808303818588803b15801561025657600080fd5b505af115801561026a573d6000803e3d6000fd5b50505050506102af565b6040517f08c379a00000000000000000000000000000000000000000000000000000000081526004016102a690613776565b60405180910390fd5b005b600080fd5b3480156102c257600080fd5b506102cb610825565b6040516102d8919061385e565b60405180910390f35b3480156102ed57600080fd5b50610308600480360381019061030391906138ec565b6109a3565b6040516103159190613934565b60405180910390f35b34801561032a57600080fd5b50610345600480360381019061034091906139e0565b610a1d565b005b34801561035357600080fd5b5061035c610b34565b6040516103699190613a81565b60405180910390f35b34801561037e57600080fd5b5061039960048036038101906103949190613ac8565b610b5b565b005b3480156103a757600080fd5b506103c260048036038101906103bd9190613b2b565b610c3a565b6040516103cf9190613b67565b60405180910390f35b3480156103e457600080fd5b506103ff60048036038101906103fa9190613b82565b610c5a565b60405161040c9190613b67565b60405180910390f35b34801561042157600080fd5b5061043c60048036038101906104379190613baf565b610c77565b005b34801561044a57600080fd5b5061046560048036038101906104609190613c45565b610c98565b005b34801561047357600080fd5b5061048e60048036038101906104899190613b82565b61171b565b60405161049b9190613d11565b60405180910390f35b3480156104b057600080fd5b506104b96117c7565b6040516104c69190613b67565b60405180910390f35b3480156104db57600080fd5b506104f660048036038101906104f19190613e63565b6117eb565b6040516105039190613ebb565b60405180910390f35b34801561051857600080fd5b50610533600480360381019061052e9190613baf565b6118b1565b005b34801561054157600080fd5b5061054a611934565b6040516105579190613d11565b60405180910390f35b34801561056c57600080fd5b5061058760048036038101906105829190613e63565b611971565b6040516105949190613a81565b60405180910390f35b3480156105a957600080fd5b506105b26119ba565b6040516105bf9190613b67565b60405180910390f35b3480156105d457600080fd5b506105ef60048036038101906105ea9190613fa4565b6119de565b005b3480156105fd57600080fd5b50610606612500565b6040516106139190613ebb565b60405180910390f35b34801561062857600080fd5b50610643600480360381019061063e91906140b2565b612511565b6040516106509190613a81565b60405180910390f35b34801561066557600080fd5b50610680600480360381019061067b9190613baf565b612540565b60405161068d9190613934565b60405180910390f35b3480156106a257600080fd5b506106ab6125ab565b6040516106b89190613b67565b60405180910390f35b3480156106cd57600080fd5b506106d66125b2565b6040516106e39190613a81565b60405180910390f35b3480156106f857600080fd5b50610713600480360381019061070e9190613b2b565b6125d9565b6040516107209190613ebb565b60405180910390f35b34801561073557600080fd5b50610750600480360381019061074b9190613ac8565b6125fd565b005b34801561075e57600080fd5b5061077960048036038101906107749190613baf565b6126dc565b005b34801561078757600080fd5b506107a2600480360381019061079d91906139e0565b6126fd565b005b3480156107b057600080fd5b506107b961280b565b6040516107c69190613b67565b60405180910390f35b3480156107db57600080fd5b506107e461282f565b6040516107f19190613b67565b60405180910390f35b34801561080657600080fd5b5061080f612853565b60405161081c9190613b67565b60405180910390f35b60606000600160fe8054905061083b9190614121565b67ffffffffffffffff81111561085457610853613d38565b5b6040519080825280602002602001820160405280156108825781602001602082028036833780820191505090505b50905060005b60fe805490508110156109765761094460fe82815481106108ac576108ab614155565b5b9060005260206000200180546108c1906141b3565b80601f01602080910402602001604051908101604052809291908181526020018280546108ed906141b3565b801561093a5780601f1061090f5761010080835404028352916020019161093a565b820191906000526020600020905b81548152906001019060200180831161091d57829003601f168201915b50505050506117eb565b82828151811061095757610956614155565b5b602002602001018181525050808061096e906141e4565b915050610888565b50478160fe80549050815181106109905761098f614155565b5b6020026020010181815250508091505090565b60007f5a05180f000000000000000000000000000000000000000000000000000000007bffffffffffffffffffffffffffffffffffffffffffffffffffffffff1916827bffffffffffffffffffffffffffffffffffffffffffffffffffffffff19161480610a165750610a1582612877565b5b9050919050565b7fbffb4faf8a508f503a2ca036effd0bc1f82615d3ebfddb934edf718f23672707610a47816128f1565b610a4f612905565b610abd60ff8484604051610a64929190614251565b908152602001604051809103902060009054906101000a900473ffffffffffffffffffffffffffffffffffffffff1661010060009054906101000a900473ffffffffffffffffffffffffffffffffffffffff1686612954565b7f22cb89e6358014bb27f5658e2b820189f8f4c9e3f7165ecf266edc53be12d9fa610ae66129da565b84848761010060009054906101000a900473ffffffffffffffffffffffffffffffffffffffff16604051610b1e959493929190614297565b60405180910390a1610b2e6129e2565b50505050565b61010060009054906101000a900473ffffffffffffffffffffffffffffffffffffffff1681565b7ffaad79a708d82d095486f5a83b18341f12a8f717d3011ab929d43135c1af73e2610b85816128f1565b600073ffffffffffffffffffffffffffffffffffffffff168273ffffffffffffffffffffffffffffffffffffffff1603610bf4576040517f08c379a0000000000000000000000000000000000000000000000000000000008152600401610beb90614331565b60405180910390fd5b8161010160006101000a81548173ffffffffffffffffffffffffffffffffffffffff021916908373ffffffffffffffffffffffffffffffffffffffff1602179055505050565b600060656000838152602001908152602001600020600101549050919050565b6000610c708260fb6129ec90919063ffffffff16565b9050919050565b610c8082610c3a565b610c89816128f1565b610c938383612a03565b505050565b7fd2761b102bda9831f4af400cc824b8cecb9cc5c1c85c51acb1479db9735fbfc6610cc2816128f1565b60005b838390508110156117155736848483818110610ce457610ce3614155565b5b9050602002810190610cf69190614360565b90503073ffffffffffffffffffffffffffffffffffffffff16818060000190610d1f9190614388565b6020016020810190610d319190613ac8565b73ffffffffffffffffffffffffffffffffffffffff1614610d87576040517f08c379a0000000000000000000000000000000000000000000000000000000008152600401610d7e906143fc565b60405180910390fd5b6000818060000190610d999190614388565b6080013511610ddd576040517f08c379a0000000000000000000000000000000000000000000000000000000008152600401610dd490614468565b60405180910390fd5b610df8816040016020810190610df39190613ac8565b612a37565b610e37576040517f08c379a0000000000000000000000000000000000000000000000000000000008152600401610e2e906144d4565b60405180910390fd5b6000816020016020810190610e4c9190613ac8565b90506000828060000190610e609190614388565b60600135118015610efd57508073ffffffffffffffffffffffffffffffffffffffff166370a08231306040518263ffffffff1660e01b8152600401610ea59190613a81565b602060405180830381865afa158015610ec2573d6000803e3d6000fd5b505050506040513d601f19601f82011682018060405250810190610ee69190614509565b828060000190610ef69190614388565b6060013511155b610f3c576040517f08c379a0000000000000000000000000000000000000000000000000000000008152600401610f3390614582565b60405180910390fd5b601e4603611381576000826040016020810190610f599190613ac8565b73ffffffffffffffffffffffffffffffffffffffff166370a08231306040518263ffffffff1660e01b8152600401610f919190613a81565b602060405180830381865afa158015610fae573d6000803e3d6000fd5b505050506040513d601f19601f82011682018060405250810190610fd29190614509565b90506110158261010260009054906101000a900473ffffffffffffffffffffffffffffffffffffffff1685806000019061100c9190614388565b60600135612954565b60008060f81b60405160200161102b91906145ef565b60405160208183030381529060405290506000600167ffffffffffffffff81111561105957611058613d38565b5b60405190808252806020026020018201604052801561108c57816020015b60608152602001906001900390816110775790505b50905084806000019061109f9190614388565b60200160208101906110b19190613ac8565b8580600001906110c19190614388565b606001358680600001906110d59190614388565b608001358780600001906110e99190614388565b80600001906110f8919061460a565b600060405160200161110f969594939291906146ab565b6040516020818303038152906040528160008151811061113257611131614155565b5b602002602001018190525061010260009054906101000a900473ffffffffffffffffffffffffffffffffffffffff1673ffffffffffffffffffffffffffffffffffffffff16633593564c838388806000019061118e9190614388565b604001356040518463ffffffff1660e01b81526004016111b093929190614857565b600060405180830381600087803b1580156111ca57600080fd5b505af19250505080156111db575060015b611268576111e76148a9565b806308c379a00361125757506111fb6148cb565b806112065750611259565b7f48dbf1f65dc9fb918dcf47a87d0d7dbfe9cd78bcfaea409049ee36785201cb9186602001602081019061123a9190613ac8565b8260405161124992919061495b565b60405180910390a150611263565b505b3d6000803e3d6000fd5b611379565b600085604001602081019061127d9190613ac8565b73ffffffffffffffffffffffffffffffffffffffff166370a08231306040518263ffffffff1660e01b81526004016112b59190613a81565b602060405180830381865afa1580156112d2573d6000803e3d6000fd5b505050506040513d601f19601f820116820180604052508101906112f69190614509565b90507ffa2dda1cc1b86e41239702756b13effbc1a092b5c57e3ad320fbe4f3b13fe23586602001602081019061132c9190613ac8565b87604001602081019061133f9190613ac8565b88806000019061134f9190614388565b60600135878561135f919061498b565b60405161136f94939291906149bf565b60405180910390a1505b505050611700565b8073ffffffffffffffffffffffffffffffffffffffff1663095ea7b361010260009054906101000a900473ffffffffffffffffffffffffffffffffffffffff168480600001906113d19190614388565b606001356040518363ffffffff1660e01b81526004016113f2929190614a04565b6020604051808303816000875af1158015611411573d6000803e3d6000fd5b505050506040513d601f19601f820116820180604052508101906114359190614a59565b611474576040517f08c379a000000000000000000000000000000000000000000000000000000000815260040161146b90614ad2565b60405180910390fd5b61010260009054906101000a900473ffffffffffffffffffffffffffffffffffffffff1673ffffffffffffffffffffffffffffffffffffffff1663c04b8d598380600001906114c39190614388565b6040518263ffffffff1660e01b81526004016114df9190614c6e565b6020604051808303816000875af192505050801561151b57506040513d601f19601f820116820180604052508101906115189190614509565b60015b6115a8576115276148a9565b806308c379a003611597575061153b6148cb565b806115465750611599565b7f48dbf1f65dc9fb918dcf47a87d0d7dbfe9cd78bcfaea409049ee36785201cb9183602001602081019061157a9190613ac8565b8260405161158992919061495b565b60405180910390a1506115a3565b505b3d6000803e3d6000fd5b61161e565b7ffa2dda1cc1b86e41239702756b13effbc1a092b5c57e3ad320fbe4f3b13fe2358360200160208101906115dc9190613ac8565b8460400160208101906115ef9190613ac8565b8580600001906115ff9190614388565b606001358460405161161494939291906149bf565b60405180910390a1505b8073ffffffffffffffffffffffffffffffffffffffff1663095ea7b361010260009054906101000a900473ffffffffffffffffffffffffffffffffffffffff1660006040518363ffffffff1660e01b815260040161167d929190614cd5565b6020604051808303816000875af115801561169c573d6000803e3d6000fd5b505050506040513d601f19601f820116820180604052508101906116c09190614a59565b6116ff576040517f08c379a00000000000000000000000000000000000000000000000000000000081526004016116f690614d4a565b60405180910390fd5b5b5050808061170d906141e4565b915050610cc5565b50505050565b60fe818154811061172b57600080fd5b906000526020600020016000915090508054611746906141b3565b80601f0160208091040260200160405190810160405280929190818152602001828054611772906141b3565b80156117bf5780601f10611794576101008083540402835291602001916117bf565b820191906000526020600020905b8154815290600101906020018083116117a257829003601f168201915b505050505081565b7ffd37f88a14d7ed985885a1af8f2ad5b64dd7eb00ab89168649791632bb9bb4a681565b60008060ff836040516117fe9190614d9b565b908152602001604051809103902060009054906101000a900473ffffffffffffffffffffffffffffffffffffffff1690508073ffffffffffffffffffffffffffffffffffffffff166370a08231306040518263ffffffff1660e01b81526004016118689190613a81565b602060405180830381865afa158015611885573d6000803e3d6000fd5b505050506040513d601f19601f820116820180604052508101906118a99190614509565b915050919050565b6118b96129da565b73ffffffffffffffffffffffffffffffffffffffff168173ffffffffffffffffffffffffffffffffffffffff1614611926576040517f08c379a000000000000000000000000000000000000000000000000000000000815260040161191d90614e24565b60405180910390fd5b6119308282612b02565b5050565b60606040518060400160405280600581526020017f322e302e30000000000000000000000000000000000000000000000000000000815250905090565b60ff818051602081018201805184825260208301602085012081835280955050505050506000915054906101000a900473ffffffffffffffffffffffffffffffffffffffff1681565b7fbffb4faf8a508f503a2ca036effd0bc1f82615d3ebfddb934edf718f2367270781565b60008060019054906101000a900460ff16159050808015611a0f5750600160008054906101000a900460ff1660ff16105b80611a3c5750611a1e30612b36565b158015611a3b5750600160008054906101000a900460ff1660ff16145b5b611a7b576040517f08c379a0000000000000000000000000000000000000000000000000000000008152600401611a7290614eb6565b60405180910390fd5b60016000806101000a81548160ff021916908360ff1602179055508015611ab8576001600060016101000a81548160ff0219169083151502179055505b600073ffffffffffffffffffffffffffffffffffffffff1688600060038110611ae457611ae3614155565b5b602002016020810190611af79190613ac8565b73ffffffffffffffffffffffffffffffffffffffff16141580611b6d5750600073ffffffffffffffffffffffffffffffffffffffff1688600160038110611b4157611b40614155565b5b602002016020810190611b549190613ac8565b73ffffffffffffffffffffffffffffffffffffffff1614155b80611bcb5750600073ffffffffffffffffffffffffffffffffffffffff1688600260038110611b9f57611b9e614155565b5b602002016020810190611bb29190613ac8565b73ffffffffffffffffffffffffffffffffffffffff1614155b611c0a576040517f08c379a0000000000000000000000000000000000000000000000000000000008152600401611c0190614f22565b60405180910390fd5b600073ffffffffffffffffffffffffffffffffffffffff168773ffffffffffffffffffffffffffffffffffffffff1603611c79576040517f08c379a0000000000000000000000000000000000000000000000000000000008152600401611c7090614f8e565b60405180910390fd5b600073ffffffffffffffffffffffffffffffffffffffff168673ffffffffffffffffffffffffffffffffffffffff1603611ce8576040517f08c379a0000000000000000000000000000000000000000000000000000000008152600401611cdf90614ffa565b60405180910390fd5b600073ffffffffffffffffffffffffffffffffffffffff168573ffffffffffffffffffffffffffffffffffffffff1603611d57576040517f08c379a0000000000000000000000000000000000000000000000000000000008152600401611d4e90615066565b60405180910390fd5b600073ffffffffffffffffffffffffffffffffffffffff168473ffffffffffffffffffffffffffffffffffffffff1603611dc6576040517f08c379a0000000000000000000000000000000000000000000000000000000008152600401611dbd906150d2565b60405180910390fd5b600073ffffffffffffffffffffffffffffffffffffffff168373ffffffffffffffffffffffffffffffffffffffff1603611e35576040517f08c379a0000000000000000000000000000000000000000000000000000000008152600401611e2c9061513e565b60405180910390fd5b600073ffffffffffffffffffffffffffffffffffffffff168273ffffffffffffffffffffffffffffffffffffffff1603611ea4576040517f08c379a0000000000000000000000000000000000000000000000000000000008152600401611e9b906151aa565b60405180910390fd5b611eac612b59565b611eb4612baa565b898990508c8c905014611efc576040517f08c379a0000000000000000000000000000000000000000000000000000000008152600401611ef39061523c565b60405180910390fd5b60005b8c8c9050811015612027578a8a82818110611f1d57611f1c614155565b5b9050602002016020810190611f329190613ac8565b60ff8e8e84818110611f4757611f46614155565b5b9050602002810190611f59919061525c565b604051611f67929190614251565b908152602001604051809103902060006101000a81548173ffffffffffffffffffffffffffffffffffffffff021916908373ffffffffffffffffffffffffffffffffffffffff16021790555060fe8d8d83818110611fc857611fc7614155565b5b9050602002810190611fda919061525c565b9091806001815401808255809150506001900390600052602060002001600090919290919290919290919250918261201392919061546c565b50808061201f906141e4565b915050611eff565b508561010160006101000a81548173ffffffffffffffffffffffffffffffffffffffff021916908373ffffffffffffffffffffffffffffffffffffffff1602179055508661010060006101000a81548173ffffffffffffffffffffffffffffffffffffffff021916908373ffffffffffffffffffffffffffffffffffffffff1602179055508261010260006101000a81548173ffffffffffffffffffffffffffffffffffffffff021916908373ffffffffffffffffffffffffffffffffffffffff1602179055506121227ffaad79a708d82d095486f5a83b18341f12a8f717d3011ab929d43135c1af73e260fb612c0390919063ffffffff16565b506121577ffd37f88a14d7ed985885a1af8f2ad5b64dd7eb00ab89168649791632bb9bb4a660fb612c0390919063ffffffff16565b5061218c7fbffb4faf8a508f503a2ca036effd0bc1f82615d3ebfddb934edf718f2367270760fb612c0390919063ffffffff16565b506121c17fd2761b102bda9831f4af400cc824b8cecb9cc5c1c85c51acb1479db9735fbfc660fb612c0390919063ffffffff16565b506122127ffaad79a708d82d095486f5a83b18341f12a8f717d3011ab929d43135c1af73e2896000600381106121fa576121f9614155565b5b60200201602081019061220d9190613ac8565b612a03565b6122627ffaad79a708d82d095486f5a83b18341f12a8f717d3011ab929d43135c1af73e28960016003811061224a57612249614155565b5b60200201602081019061225d9190613ac8565b612a03565b6122b27ffaad79a708d82d095486f5a83b18341f12a8f717d3011ab929d43135c1af73e28960026003811061229a57612299614155565b5b6020020160208101906122ad9190613ac8565b612a03565b6122dc7ffd37f88a14d7ed985885a1af8f2ad5b64dd7eb00ab89168649791632bb9bb4a686612a03565b6123067ffd37f88a14d7ed985885a1af8f2ad5b64dd7eb00ab89168649791632bb9bb4a685612a03565b6123307fbffb4faf8a508f503a2ca036effd0bc1f82615d3ebfddb934edf718f2367270786612a03565b61235a7fbffb4faf8a508f503a2ca036effd0bc1f82615d3ebfddb934edf718f2367270785612a03565b6123847fd2761b102bda9831f4af400cc824b8cecb9cc5c1c85c51acb1479db9735fbfc683612a03565b6123ae7ffaad79a708d82d095486f5a83b18341f12a8f717d3011ab929d43135c1af73e280612c1a565b6123d87ffd37f88a14d7ed985885a1af8f2ad5b64dd7eb00ab89168649791632bb9bb4a680612c1a565b6124027fbffb4faf8a508f503a2ca036effd0bc1f82615d3ebfddb934edf718f2367270780612c1a565b61244c7fd2761b102bda9831f4af400cc824b8cecb9cc5c1c85c51acb1479db9735fbfc67ffaad79a708d82d095486f5a83b18341f12a8f717d3011ab929d43135c1af73e2612c1a565b7f601edfe63b019dab49ada69a178b64e0c3ff132d08bbdcdf1ebe6d6da15fef0a338d8d8d8d8d8d8d8d8d8d8d6040516124919c9b9a999897969594939291906157ba565b60405180910390a180156124f25760008060016101000a81548160ff0219169083151502179055507f7f26b83ff96e1f2b6a682f133852f6798a09c465da95921460cefb384740249860016040516124e991906158b2565b60405180910390a15b505050505050505050505050565b600061250c60fb612c76565b905090565b60006125388260976000868152602001908152602001600020612c8b90919063ffffffff16565b905092915050565b60006065600084815260200190815260200160002060000160008373ffffffffffffffffffffffffffffffffffffffff1673ffffffffffffffffffffffffffffffffffffffff16815260200190815260200160002060009054906101000a900460ff16905092915050565b6000801b81565b61010160009054906101000a900473ffffffffffffffffffffffffffffffffffffffff1681565b60006125f660976000848152602001908152602001600020612ca5565b9050919050565b7ffaad79a708d82d095486f5a83b18341f12a8f717d3011ab929d43135c1af73e2612627816128f1565b600073ffffffffffffffffffffffffffffffffffffffff168273ffffffffffffffffffffffffffffffffffffffff1603612696576040517f08c379a000000000000000000000000000000000000000000000000000000000815260040161268d90615919565b60405180910390fd5b8161010060006101000a81548173ffffffffffffffffffffffffffffffffffffffff021916908373ffffffffffffffffffffffffffffffffffffffff1602179055505050565b6126e582610c3a565b6126ee816128f1565b6126f88383612b02565b505050565b7ffd37f88a14d7ed985885a1af8f2ad5b64dd7eb00ab89168649791632bb9bb4a6612727816128f1565b61272f612905565b61279d60ff8484604051612744929190614251565b908152602001604051809103902060009054906101000a900473ffffffffffffffffffffffffffffffffffffffff1661010160009054906101000a900473ffffffffffffffffffffffffffffffffffffffff1686612954565b7f901c03da5d88eb3d62ab4617e7b7d17d86db16356823a7971127d5181a842fef61010160009054906101000a900473ffffffffffffffffffffffffffffffffffffffff168484876040516127f59493929190615939565b60405180910390a16128056129e2565b50505050565b7fd2761b102bda9831f4af400cc824b8cecb9cc5c1c85c51acb1479db9735fbfc681565b7ffaad79a708d82d095486f5a83b18341f12a8f717d3011ab929d43135c1af73e281565b7f539440820030c4994db4e31b6b800deafd503688728f932addfe7a410515c14c81565b60007f7965db0b000000000000000000000000000000000000000000000000000000007bffffffffffffffffffffffffffffffffffffffffffffffffffffffff1916827bffffffffffffffffffffffffffffffffffffffffffffffffffffffff191614806128ea57506128e982612cba565b5b9050919050565b612902816128fd6129da565b612d24565b50565b600260c9540361294a576040517f08c379a0000000000000000000000000000000000000000000000000000000008152600401612941906159c5565b60405180910390fd5b600260c981905550565b6129d58363a9059cbb60e01b8484604051602401612973929190614a04565b604051602081830303815290604052907bffffffffffffffffffffffffffffffffffffffffffffffffffffffff19166020820180517bffffffffffffffffffffffffffffffffffffffffffffffffffffffff8381831617835250505050612da9565b505050565b600033905090565b600160c981905550565b60006129fb8360000183612e71565b905092915050565b612a0d8282612e9c565b612a328160976000858152602001908152602001600020612f7d90919063ffffffff16565b505050565b600080600090505b60fe80549050811015612af7578273ffffffffffffffffffffffffffffffffffffffff1660ff60fe8381548110612a7957612a78614155565b5b90600052602060002001604051612a909190615a68565b908152602001604051809103902060009054906101000a900473ffffffffffffffffffffffffffffffffffffffff1673ffffffffffffffffffffffffffffffffffffffff1603612ae4576001915050612afd565b8080612aef906141e4565b915050612a3f565b50600090505b919050565b612b0c8282612fad565b612b31816097600085815260200190815260200160002061308f90919063ffffffff16565b505050565b6000808273ffffffffffffffffffffffffffffffffffffffff163b119050919050565b600060019054906101000a900460ff16612ba8576040517f08c379a0000000000000000000000000000000000000000000000000000000008152600401612b9f90615af1565b60405180910390fd5b565b600060019054906101000a900460ff16612bf9576040517f08c379a0000000000000000000000000000000000000000000000000000000008152600401612bf090615af1565b60405180910390fd5b600160c981905550565b6000612c1283600001836130bf565b905092915050565b6000612c2583610c3a565b90508160656000858152602001908152602001600020600101819055508181847fbd79b86ffe0ab8e8776151514217cd7cacd52c909f66475c3af44e129f0b00ff60405160405180910390a4505050565b6000612c848260000161312f565b9050919050565b6000612c9a8360000183612e71565b60001c905092915050565b6000612cb38260000161312f565b9050919050565b60007f01ffc9a7000000000000000000000000000000000000000000000000000000007bffffffffffffffffffffffffffffffffffffffffffffffffffffffff1916827bffffffffffffffffffffffffffffffffffffffffffffffffffffffff1916149050919050565b612d2e8282612540565b612da557612d3b81613140565b612d498360001c602061316d565b604051602001612d5a929190615ba9565b6040516020818303038152906040526040517f08c379a0000000000000000000000000000000000000000000000000000000008152600401612d9c9190613d11565b60405180910390fd5b5050565b6000612e0b826040518060400160405280602081526020017f5361666545524332303a206c6f772d6c6576656c2063616c6c206661696c65648152508573ffffffffffffffffffffffffffffffffffffffff166133a99092919063ffffffff16565b9050600081511480612e2d575080806020019051810190612e2c9190614a59565b5b612e6c576040517f08c379a0000000000000000000000000000000000000000000000000000000008152600401612e6390615c55565b60405180910390fd5b505050565b6000826000018281548110612e8957612e88614155565b5b9060005260206000200154905092915050565b612ea68282612540565b612f795760016065600084815260200190815260200160002060000160008373ffffffffffffffffffffffffffffffffffffffff1673ffffffffffffffffffffffffffffffffffffffff16815260200190815260200160002060006101000a81548160ff021916908315150217905550612f1e6129da565b73ffffffffffffffffffffffffffffffffffffffff168173ffffffffffffffffffffffffffffffffffffffff16837f2f8788117e7eff1d82e926ec794901d17c78024a50270940304540a733656f0d60405160405180910390a45b5050565b6000612fa5836000018373ffffffffffffffffffffffffffffffffffffffff1660001b6130bf565b905092915050565b612fb78282612540565b1561308b5760006065600084815260200190815260200160002060000160008373ffffffffffffffffffffffffffffffffffffffff1673ffffffffffffffffffffffffffffffffffffffff16815260200190815260200160002060006101000a81548160ff0219169083151502179055506130306129da565b73ffffffffffffffffffffffffffffffffffffffff168173ffffffffffffffffffffffffffffffffffffffff16837ff6391f5c32d9c69d2a47ea670b442974b53935d1edc7fd64eb21e047a839171b60405160405180910390a45b5050565b60006130b7836000018373ffffffffffffffffffffffffffffffffffffffff1660001b6133c1565b905092915050565b60006130cb83836134d5565b613124578260000182908060018154018082558091505060019003906000526020600020016000909190919091505582600001805490508360010160008481526020019081526020016000208190555060019050613129565b600090505b92915050565b600081600001805490509050919050565b60606131668273ffffffffffffffffffffffffffffffffffffffff16601460ff1661316d565b9050919050565b6060600060028360026131809190615c75565b61318a9190614121565b67ffffffffffffffff8111156131a3576131a2613d38565b5b6040519080825280601f01601f1916602001820160405280156131d55781602001600182028036833780820191505090505b5090507f30000000000000000000000000000000000000000000000000000000000000008160008151811061320d5761320c614155565b5b60200101907effffffffffffffffffffffffffffffffffffffffffffffffffffffffffffff1916908160001a9053507f78000000000000000000000000000000000000000000000000000000000000008160018151811061327157613270614155565b5b60200101907effffffffffffffffffffffffffffffffffffffffffffffffffffffffffffff1916908160001a905350600060018460026132b19190615c75565b6132bb9190614121565b90505b600181111561335b577f3031323334353637383961626364656600000000000000000000000000000000600f8616601081106132fd576132fc614155565b5b1a60f81b82828151811061331457613313614155565b5b60200101907effffffffffffffffffffffffffffffffffffffffffffffffffffffffffffff1916908160001a905350600485901c94508061335490615cb7565b90506132be565b506000841461339f576040517f08c379a000000000000000000000000000000000000000000000000000000000815260040161339690615d2c565b60405180910390fd5b8091505092915050565b60606133b884846000856134f8565b90509392505050565b600080836001016000848152602001908152602001600020549050600081146134c95760006001826133f3919061498b565b905060006001866000018054905061340b919061498b565b905081811461347a57600086600001828154811061342c5761342b614155565b5b90600052602060002001549050808760000184815481106134505761344f614155565b5b90600052602060002001819055508387600101600083815260200190815260200160002081905550505b8560000180548061348e5761348d615d4c565b5b6001900381819060005260206000200160009055905585600101600086815260200190815260200160002060009055600193505050506134cf565b60009150505b92915050565b600080836001016000848152602001908152602001600020541415905092915050565b60608247101561353d576040517f08c379a000000000000000000000000000000000000000000000000000000000815260040161353490615ded565b60405180910390fd5b6000808673ffffffffffffffffffffffffffffffffffffffff1685876040516135669190615e49565b60006040518083038185875af1925050503d80600081146135a3576040519150601f19603f3d011682016040523d82523d6000602084013e6135a8565b606091505b50915091506135b9878383876135c5565b92505050949350505050565b6060831561362757600083510361361f576135df8561363a565b61361e576040517f08c379a000000000000000000000000000000000000000000000000000000000815260040161361590615eac565b60405180910390fd5b5b829050613632565b613631838361365d565b5b949350505050565b6000808273ffffffffffffffffffffffffffffffffffffffff163b119050919050565b6000825111156136705781518083602001fd5b806040517f08c379a00000000000000000000000000000000000000000000000000000000081526004016136a49190613d11565b60405180910390fd5b600081905092915050565b7f5745544800000000000000000000000000000000000000000000000000000000600082015250565b60006136ee6004836136ad565b91506136f9826136b8565b600482019050919050565b600061370f826136e1565b9150819050919050565b600082825260208201905092915050565b7f4e6f742070617961626c65206f6e207468697320636861696e00000000000000600082015250565b6000613760601983613719565b915061376b8261372a565b602082019050919050565b6000602082019050818103600083015261378f81613753565b9050919050565b600081519050919050565b600082825260208201905092915050565b6000819050602082019050919050565b6000819050919050565b6137d5816137c2565b82525050565b60006137e783836137cc565b60208301905092915050565b6000602082019050919050565b600061380b82613796565b61381581856137a1565b9350613820836137b2565b8060005b8381101561385157815161383888826137db565b9750613843836137f3565b925050600181019050613824565b5085935050505092915050565b600060208201905081810360008301526138788184613800565b905092915050565b6000604051905090565b600080fd5b600080fd5b60007fffffffff0000000000000000000000000000000000000000000000000000000082169050919050565b6138c981613894565b81146138d457600080fd5b50565b6000813590506138e6816138c0565b92915050565b6000602082840312156139025761390161388a565b5b6000613910848285016138d7565b91505092915050565b60008115159050919050565b61392e81613919565b82525050565b60006020820190506139496000830184613925565b92915050565b613958816137c2565b811461396357600080fd5b50565b6000813590506139758161394f565b92915050565b600080fd5b600080fd5b600080fd5b60008083601f8401126139a05761399f61397b565b5b8235905067ffffffffffffffff8111156139bd576139bc613980565b5b6020830191508360018202830111156139d9576139d8613985565b5b9250929050565b6000806000604084860312156139f9576139f861388a565b5b6000613a0786828701613966565b935050602084013567ffffffffffffffff811115613a2857613a2761388f565b5b613a348682870161398a565b92509250509250925092565b600073ffffffffffffffffffffffffffffffffffffffff82169050919050565b6000613a6b82613a40565b9050919050565b613a7b81613a60565b82525050565b6000602082019050613a966000830184613a72565b92915050565b613aa581613a60565b8114613ab057600080fd5b50565b600081359050613ac281613a9c565b92915050565b600060208284031215613ade57613add61388a565b5b6000613aec84828501613ab3565b91505092915050565b6000819050919050565b613b0881613af5565b8114613b1357600080fd5b50565b600081359050613b2581613aff565b92915050565b600060208284031215613b4157613b4061388a565b5b6000613b4f84828501613b16565b91505092915050565b613b6181613af5565b82525050565b6000602082019050613b7c6000830184613b58565b92915050565b600060208284031215613b9857613b9761388a565b5b6000613ba684828501613966565b91505092915050565b60008060408385031215613bc657613bc561388a565b5b6000613bd485828601613b16565b9250506020613be585828601613ab3565b9150509250929050565b60008083601f840112613c0557613c0461397b565b5b8235905067ffffffffffffffff811115613c2257613c21613980565b5b602083019150836020820283011115613c3e57613c3d613985565b5b9250929050565b60008060208385031215613c5c57613c5b61388a565b5b600083013567ffffffffffffffff811115613c7a57613c7961388f565b5b613c8685828601613bef565b92509250509250929050565b600081519050919050565b60005b83811015613cbb578082015181840152602081019050613ca0565b60008484015250505050565b6000601f19601f8301169050919050565b6000613ce382613c92565b613ced8185613719565b9350613cfd818560208601613c9d565b613d0681613cc7565b840191505092915050565b60006020820190508181036000830152613d2b8184613cd8565b905092915050565b600080fd5b7f4e487b7100000000000000000000000000000000000000000000000000000000600052604160045260246000fd5b613d7082613cc7565b810181811067ffffffffffffffff82111715613d8f57613d8e613d38565b5b80604052505050565b6000613da2613880565b9050613dae8282613d67565b919050565b600067ffffffffffffffff821115613dce57613dcd613d38565b5b613dd782613cc7565b9050602081019050919050565b82818337600083830152505050565b6000613e06613e0184613db3565b613d98565b905082815260208101848484011115613e2257613e21613d33565b5b613e2d848285613de4565b509392505050565b600082601f830112613e4a57613e4961397b565b5b8135613e5a848260208601613df3565b91505092915050565b600060208284031215613e7957613e7861388a565b5b600082013567ffffffffffffffff811115613e9757613e9661388f565b5b613ea384828501613e35565b91505092915050565b613eb5816137c2565b82525050565b6000602082019050613ed06000830184613eac565b92915050565b60008083601f840112613eec57613eeb61397b565b5b8235905067ffffffffffffffff811115613f0957613f08613980565b5b602083019150836020820283011115613f2557613f24613985565b5b9250929050565b60008083601f840112613f4257613f4161397b565b5b8235905067ffffffffffffffff811115613f5f57613f5e613980565b5b602083019150836020820283011115613f7b57613f7a613985565b5b9250929050565b600081905082602060030282011115613f9e57613f9d613985565b5b92915050565b60008060008060008060008060008060006101608c8e031215613fca57613fc961388a565b5b60008c013567ffffffffffffffff811115613fe857613fe761388f565b5b613ff48e828f01613ed6565b9b509b505060208c013567ffffffffffffffff8111156140175761401661388f565b5b6140238e828f01613f2c565b995099505060406140368e828f01613f82565b97505060a06140478e828f01613ab3565b96505060c06140588e828f01613ab3565b95505060e06140698e828f01613ab3565b94505061010061407b8e828f01613ab3565b93505061012061408d8e828f01613ab3565b92505061014061409f8e828f01613ab3565b9150509295989b509295989b9093969950565b600080604083850312156140c9576140c861388a565b5b60006140d785828601613b16565b92505060206140e885828601613966565b9150509250929050565b7f4e487b7100000000000000000000000000000000000000000000000000000000600052601160045260246000fd5b600061412c826137c2565b9150614137836137c2565b925082820190508082111561414f5761414e6140f2565b5b92915050565b7f4e487b7100000000000000000000000000000000000000000000000000000000600052603260045260246000fd5b7f4e487b7100000000000000000000000000000000000000000000000000000000600052602260045260246000fd5b600060028204905060018216806141cb57607f821691505b6020821081036141de576141dd614184565b5b50919050565b60006141ef826137c2565b91507fffffffffffffffffffffffffffffffffffffffffffffffffffffffffffffffff8203614221576142206140f2565b5b600182019050919050565b600061423883856136ad565b9350614245838584613de4565b82840190509392505050565b600061425e82848661422c565b91508190509392505050565b60006142768385613719565b9350614283838584613de4565b61428c83613cc7565b840190509392505050565b60006080820190506142ac6000830188613a72565b81810360208301526142bf81868861426a565b90506142ce6040830185613eac565b6142db6060830184613a72565b9695505050505050565b7f5769746864726177304164647200000000000000000000000000000000000000600082015250565b600061431b600d83613719565b9150614326826142e5565b602082019050919050565b6000602082019050818103600083015261434a8161430e565b9050919050565b600080fd5b600080fd5b600080fd5b60008235600160600383360303811261437c5761437b614351565b5b80830191505092915050565b60008235600160a0038336030381126143a4576143a3614351565b5b80830191505092915050565b7f45727220726563697069656e7400000000000000000000000000000000000000600082015250565b60006143e6600d83613719565b91506143f1826143b0565b602082019050919050565b60006020820190508181036000830152614415816143d9565b9050919050565b7f45727220536c6970700000000000000000000000000000000000000000000000600082015250565b6000614452600983613719565b915061445d8261441c565b602082019050919050565b6000602082019050818103600083015261448181614445565b9050919050565b7f45727220546f6b656e4f75740000000000000000000000000000000000000000600082015250565b60006144be600c83613719565b91506144c982614488565b602082019050919050565b600060208201905081810360008301526144ed816144b1565b9050919050565b6000815190506145038161394f565b92915050565b60006020828403121561451f5761451e61388a565b5b600061452d848285016144f4565b91505092915050565b7f45727220416d6f756e74496e0000000000000000000000000000000000000000600082015250565b600061456c600c83613719565b915061457782614536565b602082019050919050565b6000602082019050818103600083015261459b8161455f565b9050919050565b60007fff0000000000000000000000000000000000000000000000000000000000000082169050919050565b6000819050919050565b6145e96145e4826145a2565b6145ce565b82525050565b60006145fb82846145d8565b60018201915081905092915050565b6000808335600160200384360303811261462757614626614351565b5b80840192508235915067ffffffffffffffff82111561464957614648614356565b5b6020830192506001820236038313156146655761466461435b565b5b509250929050565b600082825260208201905092915050565b600061468a838561466d565b9350614697838584613de4565b6146a083613cc7565b840190509392505050565b600060a0820190506146c06000830189613a72565b6146cd6020830188613eac565b6146da6040830187613eac565b81810360608301526146ed81858761467e565b90506146fc6080830184613925565b979650505050505050565b600081519050919050565b600061471d82614707565b614727818561466d565b9350614737818560208601613c9d565b61474081613cc7565b840191505092915050565b600081519050919050565b600082825260208201905092915050565b6000819050602082019050919050565b600082825260208201905092915050565b600061479382614707565b61479d8185614777565b93506147ad818560208601613c9d565b6147b681613cc7565b840191505092915050565b60006147cd8383614788565b905092915050565b6000602082019050919050565b60006147ed8261474b565b6147f78185614756565b93508360208202850161480985614767565b8060005b85811015614845578484038952815161482685826147c1565b9450614831836147d5565b925060208a0199505060018101905061480d565b50829750879550505050505092915050565b600060608201905081810360008301526148718186614712565b9050818103602083015261488581856147e2565b90506148946040830184613eac565b949350505050565b60008160e01c9050919050565b600060033d11156148c85760046000803e6148c560005161489c565b90505b90565b600060443d10614958576148dd613880565b60043d036004823e80513d602482011167ffffffffffffffff82111715614905575050614958565b808201805167ffffffffffffffff8111156149235750505050614958565b80602083010160043d038501811115614940575050505050614958565b61494f82602001850186613d67565b82955050505050505b90565b60006040820190506149706000830185613a72565b81810360208301526149828184613cd8565b90509392505050565b6000614996826137c2565b91506149a1836137c2565b92508282039050818111156149b9576149b86140f2565b5b92915050565b60006080820190506149d46000830187613a72565b6149e16020830186613a72565b6149ee6040830185613eac565b6149fb6060830184613eac565b95945050505050565b6000604082019050614a196000830185613a72565b614a266020830184613eac565b9392505050565b614a3681613919565b8114614a4157600080fd5b50565b600081519050614a5381614a2d565b92915050565b600060208284031215614a6f57614a6e61388a565b5b6000614a7d84828501614a44565b91505092915050565b7f45727220417070726f76616c0000000000000000000000000000000000000000600082015250565b6000614abc600c83613719565b9150614ac782614a86565b602082019050919050565b60006020820190508181036000830152614aeb81614aaf565b9050919050565b600080fd5b600080fd5b600080fd5b60008083356001602003843603038112614b1e57614b1d614afc565b5b83810192508235915060208301925067ffffffffffffffff821115614b4657614b45614af2565b5b600182023603831315614b5c57614b5b614af7565b5b509250929050565b6000614b708385614777565b9350614b7d838584613de4565b614b8683613cc7565b840190509392505050565b6000614ba06020840184613ab3565b905092915050565b614bb181613a60565b82525050565b6000614bc66020840184613966565b905092915050565b600060a08301614be16000840184614b01565b8583036000870152614bf4838284614b64565b92505050614c056020840184614b91565b614c126020860182614ba8565b50614c206040840184614bb7565b614c2d60408601826137cc565b50614c3b6060840184614bb7565b614c4860608601826137cc565b50614c566080840184614bb7565b614c6360808601826137cc565b508091505092915050565b60006020820190508181036000830152614c888184614bce565b905092915050565b6000819050919050565b6000819050919050565b6000614cbf614cba614cb584614c90565b614c9a565b6137c2565b9050919050565b614ccf81614ca4565b82525050565b6000604082019050614cea6000830185613a72565b614cf76020830184614cc6565b9392505050565b7f45727220417070726f76616c3000000000000000000000000000000000000000600082015250565b6000614d34600d83613719565b9150614d3f82614cfe565b602082019050919050565b60006020820190508181036000830152614d6381614d27565b9050919050565b6000614d7582613c92565b614d7f81856136ad565b9350614d8f818560208601613c9d565b80840191505092915050565b6000614da78284614d6a565b915081905092915050565b7f416363657373436f6e74726f6c3a2063616e206f6e6c792072656e6f756e636560008201527f20726f6c657320666f722073656c660000000000000000000000000000000000602082015250565b6000614e0e602f83613719565b9150614e1982614db2565b604082019050919050565b60006020820190508181036000830152614e3d81614e01565b9050919050565b7f496e697469616c697a61626c653a20636f6e747261637420697320616c72656160008201527f647920696e697469616c697a6564000000000000000000000000000000000000602082015250565b6000614ea0602e83613719565b9150614eab82614e44565b604082019050919050565b60006020820190508181036000830152614ecf81614e93565b9050919050565b7f41646d696e416464720000000000000000000000000000000000000000000000600082015250565b6000614f0c600983613719565b9150614f1782614ed6565b602082019050919050565b60006020820190508181036000830152614f3b81614eff565b9050919050565b7f5265736375654164647200000000000000000000000000000000000000000000600082015250565b6000614f78600a83613719565b9150614f8382614f42565b602082019050919050565b60006020820190508181036000830152614fa781614f6b565b9050919050565b7f5769746864726177416464720000000000000000000000000000000000000000600082015250565b6000614fe4600c83613719565b9150614fef82614fae565b602082019050919050565b6000602082019050818103600083015261501381614fd7565b9050919050565b7f46697273744c656e6465724c6971416464720000000000000000000000000000600082015250565b6000615050601283613719565b915061505b8261501a565b602082019050919050565b6000602082019050818103600083015261507f81615043565b9050919050565b7f5365636f6e644c656e6465724c69714164647200000000000000000000000000600082015250565b60006150bc601383613719565b91506150c782615086565b602082019050919050565b600060208201905081810360008301526150eb816150af565b9050919050565b7f53776170526f7574657241646472000000000000000000000000000000000000600082015250565b6000615128600e83613719565b9150615133826150f2565b602082019050919050565b600060208201905081810360008301526151578161511b565b9050919050565b7f5377617070657241646472000000000000000000000000000000000000000000600082015250565b6000615194600b83613719565b915061519f8261515e565b602082019050919050565b600060208201905081810360008301526151c381615187565b9050919050565b7f546f6b656e206e616d6520616e642061646472657373206172726179206c656e60008201527f67746873206d757374206d617463680000000000000000000000000000000000602082015250565b6000615226602f83613719565b9150615231826151ca565b604082019050919050565b6000602082019050818103600083015261525581615219565b9050919050565b6000808335600160200384360303811261527957615278614351565b5b80840192508235915067ffffffffffffffff82111561529b5761529a614356565b5b6020830192506001820236038313156152b7576152b661435b565b5b509250929050565b600082905092915050565b60008190508160005260206000209050919050565b60006020601f8301049050919050565b600082821b905092915050565b60006008830261532c7fffffffffffffffffffffffffffffffffffffffffffffffffffffffffffffffff826152ef565b61533686836152ef565b95508019841693508086168417925050509392505050565b600061536961536461535f846137c2565b614c9a565b6137c2565b9050919050565b6000819050919050565b6153838361534e565b61539761538f82615370565b8484546152fc565b825550505050565b600090565b6153ac61539f565b6153b781848461537a565b505050565b5b818110156153db576153d06000826153a4565b6001810190506153bd565b5050565b601f821115615420576153f1816152ca565b6153fa846152df565b81016020851015615409578190505b61541d615415856152df565b8301826153bc565b50505b505050565b600082821c905092915050565b600061544360001984600802615425565b1980831691505092915050565b600061545c8383615432565b9150826002028217905092915050565b61547683836152bf565b67ffffffffffffffff81111561548f5761548e613d38565b5b61549982546141b3565b6154a48282856153df565b6000601f8311600181146154d357600084156154c1578287013590505b6154cb8582615450565b865550615533565b601f1984166154e1866152ca565b60005b82811015615509578489013582556001820191506020850194506020810190506154e4565b868310156155265784890135615522601f891682615432565b8355505b6001600288020188555050505b50505050505050565b600082825260208201905092915050565b6000819050919050565b600082825260208201905092915050565b60006155748385615557565b9350615581838584613de4565b61558a83613cc7565b840190509392505050565b60006155a2848484615568565b90509392505050565b600080833560016020038436030381126155c8576155c7614afc565b5b83810192508235915060208301925067ffffffffffffffff8211156155f0576155ef614af2565b5b60018202360383131561560657615605614af7565b5b509250929050565b6000602082019050919050565b6000615627838561553c565b9350836020840285016156398461554d565b8060005b8781101561567f57848403895261565482846155ab565b61565f868284615595565b955061566a8461560e565b935060208b019a50505060018101905061563d565b50829750879450505050509392505050565b600082825260208201905092915050565b6000819050919050565b60006156b88383614ba8565b60208301905092915050565b6000602082019050919050565b60006156dd8385615691565b93506156e8826156a2565b8060005b85811015615721576156fe8284614b91565b61570888826156ac565b9750615713836156c4565b9250506001810190506156ec565b5085925050509392505050565b600060039050919050565b600081905092915050565b6000819050919050565b6000602082019050919050565b6157648161572e565b61576e8184615739565b925061577982615744565b8060005b838110156157b25761578f8284614b91565b61579987826156ac565b96506157a48361574e565b92505060018101905061577d565b505050505050565b6000610180820190506157d0600083018f613a72565b81810360208301526157e3818d8f61561b565b905081810360408301526157f8818b8d6156d1565b9050615807606083018a61575b565b61581460c0830189613a72565b61582160e0830188613a72565b61582f610100830187613a72565b61583d610120830186613a72565b61584b610140830185613a72565b615859610160830184613a72565b9d9c50505050505050505050505050565b6000819050919050565b600060ff82169050919050565b600061589c6158976158928461586a565b614c9a565b615874565b9050919050565b6158ac81615881565b82525050565b60006020820190506158c760008301846158a3565b92915050565b7f5265736375653041646472000000000000000000000000000000000000000000600082015250565b6000615903600b83613719565b915061590e826158cd565b602082019050919050565b60006020820190508181036000830152615932816158f6565b9050919050565b600060608201905061594e6000830187613a72565b818103602083015261596181858761426a565b90506159706040830184613eac565b95945050505050565b7f5265656e7472616e637947756172643a207265656e7472616e742063616c6c00600082015250565b60006159af601f83613719565b91506159ba82615979565b602082019050919050565b600060208201905081810360008301526159de816159a2565b9050919050565b600081546159f2816141b3565b6159fc81866136ad565b94506001821660008114615a175760018114615a2c57615a5f565b60ff1983168652811515820286019350615a5f565b615a35856152ca565b60005b83811015615a5757815481890152600182019150602081019050615a38565b838801955050505b50505092915050565b6000615a7482846159e5565b915081905092915050565b7f496e697469616c697a61626c653a20636f6e7472616374206973206e6f74206960008201527f6e697469616c697a696e67000000000000000000000000000000000000000000602082015250565b6000615adb602b83613719565b9150615ae682615a7f565b604082019050919050565b60006020820190508181036000830152615b0a81615ace565b9050919050565b7f416363657373436f6e74726f6c3a206163636f756e7420000000000000000000600082015250565b6000615b476017836136ad565b9150615b5282615b11565b601782019050919050565b7f206973206d697373696e6720726f6c6520000000000000000000000000000000600082015250565b6000615b936011836136ad565b9150615b9e82615b5d565b601182019050919050565b6000615bb482615b3a565b9150615bc08285614d6a565b9150615bcb82615b86565b9150615bd78284614d6a565b91508190509392505050565b7f5361666545524332303a204552433230206f7065726174696f6e20646964206e60008201527f6f74207375636365656400000000000000000000000000000000000000000000602082015250565b6000615c3f602a83613719565b9150615c4a82615be3565b604082019050919050565b60006020820190508181036000830152615c6e81615c32565b9050919050565b6000615c80826137c2565b9150615c8b836137c2565b9250828202615c99816137c2565b91508282048414831517615cb057615caf6140f2565b5b5092915050565b6000615cc2826137c2565b915060008203615cd557615cd46140f2565b5b600182039050919050565b7f537472696e67733a20686578206c656e67746820696e73756666696369656e74600082015250565b6000615d16602083613719565b9150615d2182615ce0565b602082019050919050565b60006020820190508181036000830152615d4581615d09565b9050919050565b7f4e487b7100000000000000000000000000000000000000000000000000000000600052603160045260246000fd5b7f416464726573733a20696e73756666696369656e742062616c616e636520666f60008201527f722063616c6c0000000000000000000000000000000000000000000000000000602082015250565b6000615dd7602683613719565b9150615de282615d7b565b604082019050919050565b60006020820190508181036000830152615e0681615dca565b9050919050565b600081905092915050565b6000615e2382614707565b615e2d8185615e0d565b9350615e3d818560208601613c9d565b80840191505092915050565b6000615e558284615e18565b915081905092915050565b7f416464726573733a2063616c6c20746f206e6f6e2d636f6e7472616374000000600082015250565b6000615e96601d83613719565b9150615ea182615e60565b602082019050919050565b60006020820190508181036000830152615ec581615e89565b905091905056fea264697066735822122085ac555de89a2c69f828eb2349fa4e3b14ad3da405b29e56addc3b8e8588f15c64736f6c63430008120033",
  "linkReferences": {},
  "deployedLinkReferences": {}
}