{
  "_format": "hh-sol-artifact-1",
  "contractName": "ColateralContract",
  "sourceName": "contracts/ColateralContract.sol",
  "abi": [
    {
      "inputs": [],
      "stateMutability": "nonpayable",
      "type": "constructor"
    },
    {
      "anonymous": false,
      "inputs": [
        {
          "indexed": false,
          "internalType": "address",
          "name": "sender",
          "type": "address"
        },
        {
          "indexed": false,
          "internalType": "string[]",
          "name": "_tokenNames",
          "type": "string[]"
        },
        {
          "indexed": false,
          "internalType": "address[]",
          "name": "_tokenAddresses",
          "type": "address[]"
        },
        {
          "indexed": false,
          "internalType": "address[3]",
          "name": "_aconcagua",
          "type": "address[3]"
        },
        {
          "indexed": false,
          "internalType": "address",
          "name": "_rescueWalletAddress",
          "type": "address"
        },
        {
          "indexed": false,
          "internalType": "address",
          "name": "_withdrawWalletAddress",
          "type": "address"
        },
        {
          "indexed": false,
          "internalType": "address",
          "name": "_firstLenderLiq",
          "type": "address"
        },
        {
          "indexed": false,
          "internalType": "address",
          "name": "_secondLenderLiq",
          "type": "address"
        },
        {
          "indexed": false,
          "internalType": "address",
          "name": "_swapRouterAddress",
          "type": "address"
        },
        {
          "indexed": false,
          "internalType": "address",
          "name": "_swapper",
          "type": "address"
        }
      ],
      "name": "Initialize",
      "type": "event"
    },
    {
      "anonymous": false,
      "inputs": [
        {
          "indexed": false,
          "internalType": "uint8",
          "name": "version",
          "type": "uint8"
        }
      ],
      "name": "Initialized",
      "type": "event"
    },
    {
      "anonymous": false,
      "inputs": [
        {
          "indexed": false,
          "internalType": "address",
          "name": "sender",
          "type": "address"
        },
        {
          "indexed": false,
          "internalType": "string",
          "name": "token",
          "type": "string"
        },
        {
          "indexed": false,
          "internalType": "uint256",
          "name": "amount",
          "type": "uint256"
        },
        {
          "indexed": false,
          "internalType": "address",
          "name": "to",
          "type": "address"
        }
      ],
      "name": "Rescue",
      "type": "event"
    },
    {
      "anonymous": false,
      "inputs": [
        {
          "indexed": true,
          "internalType": "bytes32",
          "name": "role",
          "type": "bytes32"
        },
        {
          "indexed": true,
          "internalType": "bytes32",
          "name": "previousAdminRole",
          "type": "bytes32"
        },
        {
          "indexed": true,
          "internalType": "bytes32",
          "name": "newAdminRole",
          "type": "bytes32"
        }
      ],
      "name": "RoleAdminChanged",
      "type": "event"
    },
    {
      "anonymous": false,
      "inputs": [
        {
          "indexed": true,
          "internalType": "bytes32",
          "name": "role",
          "type": "bytes32"
        },
        {
          "indexed": true,
          "internalType": "address",
          "name": "account",
          "type": "address"
        },
        {
          "indexed": true,
          "internalType": "address",
          "name": "sender",
          "type": "address"
        }
      ],
      "name": "RoleGranted",
      "type": "event"
    },
    {
      "anonymous": false,
      "inputs": [
        {
          "indexed": true,
          "internalType": "bytes32",
          "name": "role",
          "type": "bytes32"
        },
        {
          "indexed": true,
          "internalType": "address",
          "name": "account",
          "type": "address"
        },
        {
          "indexed": true,
          "internalType": "address",
          "name": "sender",
          "type": "address"
        }
      ],
      "name": "RoleRevoked",
      "type": "event"
    },
    {
      "anonymous": false,
      "inputs": [
        {
          "indexed": false,
          "internalType": "address",
          "name": "tokenIn",
          "type": "address"
        },
        {
          "indexed": false,
          "internalType": "address",
          "name": "tokenOut",
          "type": "address"
        },
        {
          "indexed": false,
          "internalType": "uint256",
          "name": "amountIn",
          "type": "uint256"
        },
        {
          "indexed": false,
          "internalType": "uint256",
          "name": "amountOut",
          "type": "uint256"
        }
      ],
      "name": "Swap",
      "type": "event"
    },
    {
      "anonymous": false,
      "inputs": [
        {
          "indexed": false,
          "internalType": "address",
          "name": "tokenIn",
          "type": "address"
        },
        {
          "indexed": false,
          "internalType": "string",
          "name": "msg",
          "type": "string"
        }
      ],
      "name": "SwapError",
      "type": "event"
    },
    {
      "anonymous": false,
      "inputs": [
        {
          "indexed": false,
          "internalType": "address",
          "name": "sender",
          "type": "address"
        },
        {
          "indexed": false,
          "internalType": "string",
          "name": "token",
          "type": "string"
        },
        {
          "indexed": false,
          "internalType": "address",
          "name": "oldTokenAddress",
          "type": "address"
        },
        {
          "indexed": false,
          "internalType": "address",
          "name": "newTokenAddress",
          "type": "address"
        }
      ],
      "name": "TokenAddressChange",
      "type": "event"
    },
    {
      "anonymous": false,
      "inputs": [
        {
          "indexed": false,
          "internalType": "address",
          "name": "sender",
          "type": "address"
        },
        {
          "indexed": false,
          "internalType": "string",
          "name": "token",
          "type": "string"
        },
        {
          "indexed": false,
          "internalType": "uint256",
          "name": "amount",
          "type": "uint256"
        }
      ],
      "name": "Withdraw",
      "type": "event"
    },
    {
      "anonymous": false,
      "inputs": [
        {
          "indexed": false,
          "internalType": "address",
          "name": "sender",
          "type": "address"
        },
        {
          "indexed": false,
          "internalType": "string",
          "name": "token",
          "type": "string"
        },
        {
          "indexed": false,
          "internalType": "uint256",
          "name": "oldWithdrawalLimit",
          "type": "uint256"
        },
        {
          "indexed": false,
          "internalType": "uint256",
          "name": "newWithdrawalLimit",
          "type": "uint256"
        }
      ],
      "name": "WithdrawalLimitChange",
      "type": "event"
    },
    {
      "inputs": [],
      "name": "ACONCAGUA_ROLE",
      "outputs": [
        {
          "internalType": "bytes32",
          "name": "",
          "type": "bytes32"
        }
      ],
      "stateMutability": "view",
      "type": "function"
    },
    {
      "inputs": [],
      "name": "DEFAULT_ADMIN_ROLE",
      "outputs": [
        {
          "internalType": "bytes32",
          "name": "",
          "type": "bytes32"
        }
      ],
      "stateMutability": "view",
      "type": "function"
    },
    {
      "inputs": [],
      "name": "LENDER_LIQ_ROLE",
      "outputs": [
        {
          "internalType": "bytes32",
          "name": "",
          "type": "bytes32"
        }
      ],
      "stateMutability": "view",
      "type": "function"
    },
    {
      "inputs": [],
      "name": "PAUSER_ROLE",
      "outputs": [
        {
          "internalType": "bytes32",
          "name": "",
          "type": "bytes32"
        }
      ],
      "stateMutability": "view",
      "type": "function"
    },
    {
      "inputs": [],
      "name": "RESCUER_ROLE",
      "outputs": [
        {
          "internalType": "bytes32",
          "name": "",
          "type": "bytes32"
        }
      ],
      "stateMutability": "view",
      "type": "function"
    },
    {
      "inputs": [],
      "name": "SWAPPER_ROLE",
      "outputs": [
        {
          "internalType": "bytes32",
          "name": "",
          "type": "bytes32"
        }
      ],
      "stateMutability": "view",
      "type": "function"
    },
    {
      "inputs": [
        {
          "internalType": "string",
          "name": "_tokenSymbol",
          "type": "string"
        }
      ],
      "name": "balanceOf",
      "outputs": [
        {
          "internalType": "uint256",
          "name": "",
          "type": "uint256"
        }
      ],
      "stateMutability": "view",
      "type": "function"
    },
    {
      "inputs": [],
      "name": "getBalances",
      "outputs": [
        {
          "internalType": "uint256[]",
          "name": "",
          "type": "uint256[]"
        }
      ],
      "stateMutability": "view",
      "type": "function"
    },
    {
      "inputs": [
        {
          "internalType": "bytes32",
          "name": "role",
          "type": "bytes32"
        }
      ],
      "name": "getRoleAdmin",
      "outputs": [
        {
          "internalType": "bytes32",
          "name": "",
          "type": "bytes32"
        }
      ],
      "stateMutability": "view",
      "type": "function"
    },
    {
      "inputs": [
        {
          "internalType": "uint256",
          "name": "index",
          "type": "uint256"
        }
      ],
      "name": "getRoleByIndex",
      "outputs": [
        {
          "internalType": "bytes32",
          "name": "",
          "type": "bytes32"
        }
      ],
      "stateMutability": "view",
      "type": "function"
    },
    {
      "inputs": [],
      "name": "getRoleCount",
      "outputs": [
        {
          "internalType": "uint256",
          "name": "",
          "type": "uint256"
        }
      ],
      "stateMutability": "view",
      "type": "function"
    },
    {
      "inputs": [
        {
          "internalType": "bytes32",
          "name": "role",
          "type": "bytes32"
        },
        {
          "internalType": "uint256",
          "name": "index",
          "type": "uint256"
        }
      ],
      "name": "getRoleMember",
      "outputs": [
        {
          "internalType": "address",
          "name": "",
          "type": "address"
        }
      ],
      "stateMutability": "view",
      "type": "function"
    },
    {
      "inputs": [
        {
          "internalType": "bytes32",
          "name": "role",
          "type": "bytes32"
        }
      ],
      "name": "getRoleMemberCount",
      "outputs": [
        {
          "internalType": "uint256",
          "name": "",
          "type": "uint256"
        }
      ],
      "stateMutability": "view",
      "type": "function"
    },
    {
      "inputs": [
        {
          "internalType": "bytes32",
          "name": "role",
          "type": "bytes32"
        },
        {
          "internalType": "address",
          "name": "account",
          "type": "address"
        }
      ],
      "name": "grantRole",
      "outputs": [],
      "stateMutability": "nonpayable",
      "type": "function"
    },
    {
      "inputs": [
        {
          "internalType": "bytes32",
          "name": "role",
          "type": "bytes32"
        },
        {
          "internalType": "address",
          "name": "account",
          "type": "address"
        }
      ],
      "name": "hasRole",
      "outputs": [
        {
          "internalType": "bool",
          "name": "",
          "type": "bool"
        }
      ],
      "stateMutability": "view",
      "type": "function"
    },
    {
      "inputs": [
        {
          "internalType": "string[]",
          "name": "_tokenNames",
          "type": "string[]"
        },
        {
          "internalType": "address[]",
          "name": "_tokenAddresses",
          "type": "address[]"
        },
        {
          "internalType": "address[3]",
          "name": "_aconcagua",
          "type": "address[3]"
        },
        {
          "internalType": "address",
          "name": "_rescueWalletAddress",
          "type": "address"
        },
        {
          "internalType": "address",
          "name": "_withdrawWalletAddress",
          "type": "address"
        },
        {
          "internalType": "address",
          "name": "_firstLenderLiq",
          "type": "address"
        },
        {
          "internalType": "address",
          "name": "_secondLenderLiq",
          "type": "address"
        },
        {
          "internalType": "address",
          "name": "_swapRouterAddress",
          "type": "address"
        },
        {
          "internalType": "address",
          "name": "_swapper",
          "type": "address"
        }
      ],
      "name": "initialize",
      "outputs": [],
      "stateMutability": "nonpayable",
      "type": "function"
    },
    {
      "inputs": [
        {
          "internalType": "bytes32",
          "name": "role",
          "type": "bytes32"
        },
        {
          "internalType": "address",
          "name": "account",
          "type": "address"
        }
      ],
      "name": "renounceRole",
      "outputs": [],
      "stateMutability": "nonpayable",
      "type": "function"
    },
    {
      "inputs": [
        {
          "internalType": "uint256",
          "name": "_amount",
          "type": "uint256"
        },
        {
          "internalType": "string",
          "name": "_tokenSymbol",
          "type": "string"
        }
      ],
      "name": "rescue",
      "outputs": [],
      "stateMutability": "nonpayable",
      "type": "function"
    },
    {
      "inputs": [],
      "name": "rescueWalletAddress",
      "outputs": [
        {
          "internalType": "address",
          "name": "",
          "type": "address"
        }
      ],
      "stateMutability": "view",
      "type": "function"
    },
    {
      "inputs": [
        {
          "internalType": "bytes32",
          "name": "role",
          "type": "bytes32"
        },
        {
          "internalType": "address",
          "name": "account",
          "type": "address"
        }
      ],
      "name": "revokeRole",
      "outputs": [],
      "stateMutability": "nonpayable",
      "type": "function"
    },
    {
      "inputs": [
        {
          "internalType": "address",
          "name": "_rescueWalletAddress",
          "type": "address"
        }
      ],
      "name": "setRescueWalletAddress",
      "outputs": [],
      "stateMutability": "nonpayable",
      "type": "function"
    },
    {
      "inputs": [
        {
          "internalType": "address",
          "name": "_withdrawWalletAddress",
          "type": "address"
        }
      ],
      "name": "setWithdrawWalletAddress",
      "outputs": [],
      "stateMutability": "nonpayable",
      "type": "function"
    },
    {
      "inputs": [
        {
          "internalType": "bytes4",
          "name": "interfaceId",
          "type": "bytes4"
        }
      ],
      "name": "supportsInterface",
      "outputs": [
        {
          "internalType": "bool",
          "name": "",
          "type": "bool"
        }
      ],
      "stateMutability": "view",
      "type": "function"
    },
    {
      "inputs": [
        {
          "components": [
            {
              "components": [
                {
                  "internalType": "bytes",
                  "name": "path",
                  "type": "bytes"
                },
                {
                  "internalType": "address",
                  "name": "recipient",
                  "type": "address"
                },
                {
                  "internalType": "uint256",
                  "name": "deadline",
                  "type": "uint256"
                },
                {
                  "internalType": "uint256",
                  "name": "amountIn",
                  "type": "uint256"
                },
                {
                  "internalType": "uint256",
                  "name": "amountOutMinimum",
                  "type": "uint256"
                }
              ],
              "internalType": "struct ISwapRouter.ExactInputParams",
              "name": "params",
              "type": "tuple"
            },
            {
              "internalType": "address",
              "name": "tokenIn",
              "type": "address"
            },
            {
              "internalType": "address",
              "name": "tokenOut",
              "type": "address"
            }
          ],
          "internalType": "struct IColateralContract.SwapParams[]",
          "name": "swapsParams",
          "type": "tuple[]"
        }
      ],
      "name": "swapExactInputs",
      "outputs": [],
      "stateMutability": "nonpayable",
      "type": "function"
    },
    {
      "inputs": [
        {
          "internalType": "uint256",
          "name": "",
          "type": "uint256"
        }
      ],
      "name": "tokenNames",
      "outputs": [
        {
          "internalType": "string",
          "name": "",
          "type": "string"
        }
      ],
      "stateMutability": "view",
      "type": "function"
    },
    {
      "inputs": [
        {
          "internalType": "string",
          "name": "",
          "type": "string"
        }
      ],
      "name": "tokenTable",
      "outputs": [
        {
          "internalType": "address",
          "name": "",
          "type": "address"
        }
      ],
      "stateMutability": "view",
      "type": "function"
    },
    {
      "inputs": [],
      "name": "version",
      "outputs": [
        {
          "internalType": "string",
          "name": "",
          "type": "string"
        }
      ],
      "stateMutability": "pure",
      "type": "function"
    },
    {
      "inputs": [
        {
          "internalType": "uint256",
          "name": "_amount",
          "type": "uint256"
        },
        {
          "internalType": "string",
          "name": "_tokenSymbol",
          "type": "string"
        }
      ],
      "name": "withdraw",
      "outputs": [],
      "stateMutability": "nonpayable",
      "type": "function"
    },
    {
      "inputs": [],
      "name": "withdrawWalletAddress",
      "outputs": [
        {
          "internalType": "address",
          "name": "",
          "type": "address"
        }
      ],
      "stateMutability": "view",
      "type": "function"
    },
    {
      "stateMutability": "payable",
      "type": "receive"
    }
  ],
  "bytecode": "0x608060405273fcf5986450e4a014ffe7ad4ae24921b589d039b560fd60006101000a81548173ffffffffffffffffffffffffffffffffffffffff021916908373ffffffffffffffffffffffffffffffffffffffff1602179055503480156200006657600080fd5b50620000776200007d60201b60201c565b62000227565b600060019054906101000a900460ff1615620000d0576040517f08c379a0000000000000000000000000000000000000000000000000000000008152600401620000c790620001ca565b60405180910390fd5b60ff801660008054906101000a900460ff1660ff1614620001415760ff6000806101000a81548160ff021916908360ff1602179055507f7f26b83ff96e1f2b6a682f133852f6798a09c465da95921460cefb384740249860ff6040516200013891906200020a565b60405180910390a15b565b600082825260208201905092915050565b7f496e697469616c697a61626c653a20636f6e747261637420697320696e69746960008201527f616c697a696e6700000000000000000000000000000000000000000000000000602082015250565b6000620001b260278362000143565b9150620001bf8262000154565b604082019050919050565b60006020820190508181036000830152620001e581620001a3565b9050919050565b600060ff82169050919050565b6200020481620001ec565b82525050565b6000602082019050620002216000830184620001f9565b92915050565b615f0d80620002376000396000f3fe6080604052600436106101c55760003560e01c806355452d04116100f7578063b14ec10111610095578063dc048cf211610064578063dc048cf21461077b578063df668eca146107a4578063e5df800a146107cf578063e63ab1e9146107fa576102b1565b8063b14ec101146106c1578063ca15c873146106ec578063d00411c914610729578063d547741f14610752576102b1565b806383d33319116100d157806383d33319146105f15780639010d07c1461061c57806391d1485414610659578063a217fddf14610696576102b1565b806355452d0414610560578063713725441461059d57806372626285146105c8576102b1565b80632f2ff15d1161016457806332cc815d1161013e57806332cc815d146104a457806335ee5f87146104cf57806336568abe1461050c57806354fd4d5014610535576102b1565b80632f2ff15d146104155780632ffe99421461043e578063310495ab14610467576102b1565b806315ac7358116101a057806315ac735814610347578063212f603914610372578063248a9ca31461039b57806325acc985146103d8576102b1565b8062113e08146102b657806301ffc9a7146102e15780630828c4041461031e576102b1565b366102b157601e46036102745760ff6040516101e09061370f565b908152602001604051809103902060009054906101000a900473ffffffffffffffffffffffffffffffffffffffff1673ffffffffffffffffffffffffffffffffffffffff1663d0e30db0346040518263ffffffff1660e01b81526004016000604051808303818588803b15801561025657600080fd5b505af115801561026a573d6000803e3d6000fd5b50505050506102af565b6040517f08c379a00000000000000000000000000000000000000000000000000000000081526004016102a690613781565b60405180910390fd5b005b600080fd5b3480156102c257600080fd5b506102cb610825565b6040516102d89190613869565b60405180910390f35b3480156102ed57600080fd5b50610308600480360381019061030391906138f7565b6109ae565b604051610315919061393f565b60405180910390f35b34801561032a57600080fd5b50610345600480360381019061034091906139eb565b610a28565b005b34801561035357600080fd5b5061035c610b3f565b6040516103699190613a8c565b60405180910390f35b34801561037e57600080fd5b5061039960048036038101906103949190613ad3565b610b66565b005b3480156103a757600080fd5b506103c260048036038101906103bd9190613b36565b610c45565b6040516103cf9190613b72565b60405180910390f35b3480156103e457600080fd5b506103ff60048036038101906103fa9190613b8d565b610c65565b60405161040c9190613b72565b60405180910390f35b34801561042157600080fd5b5061043c60048036038101906104379190613bba565b610c82565b005b34801561044a57600080fd5b5061046560048036038101906104609190613c50565b610ca3565b005b34801561047357600080fd5b5061048e60048036038101906104899190613b8d565b611726565b60405161049b9190613d1c565b60405180910390f35b3480156104b057600080fd5b506104b96117d2565b6040516104c69190613b72565b60405180910390f35b3480156104db57600080fd5b506104f660048036038101906104f19190613e6e565b6117f6565b6040516105039190613ec6565b60405180910390f35b34801561051857600080fd5b50610533600480360381019061052e9190613bba565b6118bc565b005b34801561054157600080fd5b5061054a61193f565b6040516105579190613d1c565b60405180910390f35b34801561056c57600080fd5b5061058760048036038101906105829190613e6e565b61197c565b6040516105949190613a8c565b60405180910390f35b3480156105a957600080fd5b506105b26119c5565b6040516105bf9190613b72565b60405180910390f35b3480156105d457600080fd5b506105ef60048036038101906105ea9190613faf565b6119e9565b005b3480156105fd57600080fd5b5061060661250b565b6040516106139190613ec6565b60405180910390f35b34801561062857600080fd5b50610643600480360381019061063e91906140bd565b61251c565b6040516106509190613a8c565b60405180910390f35b34801561066557600080fd5b50610680600480360381019061067b9190613bba565b61254b565b60405161068d919061393f565b60405180910390f35b3480156106a257600080fd5b506106ab6125b6565b6040516106b89190613b72565b60405180910390f35b3480156106cd57600080fd5b506106d66125bd565b6040516106e39190613a8c565b60405180910390f35b3480156106f857600080fd5b50610713600480360381019061070e9190613b36565b6125e4565b6040516107209190613ec6565b60405180910390f35b34801561073557600080fd5b50610750600480360381019061074b9190613ad3565b612608565b005b34801561075e57600080fd5b5061077960048036038101906107749190613bba565b6126e7565b005b34801561078757600080fd5b506107a2600480360381019061079d91906139eb565b612708565b005b3480156107b057600080fd5b506107b9612816565b6040516107c69190613b72565b60405180910390f35b3480156107db57600080fd5b506107e461283a565b6040516107f19190613b72565b60405180910390f35b34801561080657600080fd5b5061080f61285e565b60405161081c9190613b72565b60405180910390f35b60606000600160fe8054905061083b919061412c565b67ffffffffffffffff81111561085457610853613d43565b5b6040519080825280602002602001820160405280156108825781602001602082028036833780820191505090505b509050478160008151811061089a57610899614160565b5b6020026020010181815250506000600190505b60fe8054905081116109a65761097460fe6001836108cb919061418f565b815481106108dc576108db614160565b5b9060005260206000200180546108f1906141f2565b80601f016020809104026020016040519081016040528092919081815260200182805461091d906141f2565b801561096a5780601f1061093f5761010080835404028352916020019161096a565b820191906000526020600020905b81548152906001019060200180831161094d57829003601f168201915b50505050506117f6565b82828151811061098757610986614160565b5b602002602001018181525050808061099e90614223565b9150506108ad565b508091505090565b60007f5a05180f000000000000000000000000000000000000000000000000000000007bffffffffffffffffffffffffffffffffffffffffffffffffffffffff1916827bffffffffffffffffffffffffffffffffffffffffffffffffffffffff19161480610a215750610a2082612882565b5b9050919050565b7fbffb4faf8a508f503a2ca036effd0bc1f82615d3ebfddb934edf718f23672707610a52816128fc565b610a5a612910565b610ac860ff8484604051610a6f929190614290565b908152602001604051809103902060009054906101000a900473ffffffffffffffffffffffffffffffffffffffff1661010060009054906101000a900473ffffffffffffffffffffffffffffffffffffffff168661295f565b7f22cb89e6358014bb27f5658e2b820189f8f4c9e3f7165ecf266edc53be12d9fa610af16129e5565b84848761010060009054906101000a900473ffffffffffffffffffffffffffffffffffffffff16604051610b299594939291906142d6565b60405180910390a1610b396129ed565b50505050565b61010060009054906101000a900473ffffffffffffffffffffffffffffffffffffffff1681565b7ffaad79a708d82d095486f5a83b18341f12a8f717d3011ab929d43135c1af73e2610b90816128fc565b600073ffffffffffffffffffffffffffffffffffffffff168273ffffffffffffffffffffffffffffffffffffffff1603610bff576040517f08c379a0000000000000000000000000000000000000000000000000000000008152600401610bf690614370565b60405180910390fd5b8161010160006101000a81548173ffffffffffffffffffffffffffffffffffffffff021916908373ffffffffffffffffffffffffffffffffffffffff1602179055505050565b600060656000838152602001908152602001600020600101549050919050565b6000610c7b8260fb6129f790919063ffffffff16565b9050919050565b610c8b82610c45565b610c94816128fc565b610c9e8383612a0e565b505050565b7fd2761b102bda9831f4af400cc824b8cecb9cc5c1c85c51acb1479db9735fbfc6610ccd816128fc565b60005b838390508110156117205736848483818110610cef57610cee614160565b5b9050602002810190610d01919061439f565b90503073ffffffffffffffffffffffffffffffffffffffff16818060000190610d2a91906143c7565b6020016020810190610d3c9190613ad3565b73ffffffffffffffffffffffffffffffffffffffff1614610d92576040517f08c379a0000000000000000000000000000000000000000000000000000000008152600401610d899061443b565b60405180910390fd5b6000818060000190610da491906143c7565b6080013511610de8576040517f08c379a0000000000000000000000000000000000000000000000000000000008152600401610ddf906144a7565b60405180910390fd5b610e03816040016020810190610dfe9190613ad3565b612a42565b610e42576040517f08c379a0000000000000000000000000000000000000000000000000000000008152600401610e3990614513565b60405180910390fd5b6000816020016020810190610e579190613ad3565b90506000828060000190610e6b91906143c7565b60600135118015610f0857508073ffffffffffffffffffffffffffffffffffffffff166370a08231306040518263ffffffff1660e01b8152600401610eb09190613a8c565b602060405180830381865afa158015610ecd573d6000803e3d6000fd5b505050506040513d601f19601f82011682018060405250810190610ef19190614548565b828060000190610f0191906143c7565b6060013511155b610f47576040517f08c379a0000000000000000000000000000000000000000000000000000000008152600401610f3e906145c1565b60405180910390fd5b601e460361138c576000826040016020810190610f649190613ad3565b73ffffffffffffffffffffffffffffffffffffffff166370a08231306040518263ffffffff1660e01b8152600401610f9c9190613a8c565b602060405180830381865afa158015610fb9573d6000803e3d6000fd5b505050506040513d601f19601f82011682018060405250810190610fdd9190614548565b90506110208261010260009054906101000a900473ffffffffffffffffffffffffffffffffffffffff1685806000019061101791906143c7565b6060013561295f565b60008060f81b604051602001611036919061462e565b60405160208183030381529060405290506000600167ffffffffffffffff81111561106457611063613d43565b5b60405190808252806020026020018201604052801561109757816020015b60608152602001906001900390816110825790505b5090508480600001906110aa91906143c7565b60200160208101906110bc9190613ad3565b8580600001906110cc91906143c7565b606001358680600001906110e091906143c7565b608001358780600001906110f491906143c7565b80600001906111039190614649565b600060405160200161111a969594939291906146ea565b6040516020818303038152906040528160008151811061113d5761113c614160565b5b602002602001018190525061010260009054906101000a900473ffffffffffffffffffffffffffffffffffffffff1673ffffffffffffffffffffffffffffffffffffffff16633593564c838388806000019061119991906143c7565b604001356040518463ffffffff1660e01b81526004016111bb93929190614896565b600060405180830381600087803b1580156111d557600080fd5b505af19250505080156111e6575060015b611273576111f26148e8565b806308c379a003611262575061120661490a565b806112115750611264565b7f48dbf1f65dc9fb918dcf47a87d0d7dbfe9cd78bcfaea409049ee36785201cb918660200160208101906112459190613ad3565b8260405161125492919061499a565b60405180910390a15061126e565b505b3d6000803e3d6000fd5b611384565b60008560400160208101906112889190613ad3565b73ffffffffffffffffffffffffffffffffffffffff166370a08231306040518263ffffffff1660e01b81526004016112c09190613a8c565b602060405180830381865afa1580156112dd573d6000803e3d6000fd5b505050506040513d601f19601f820116820180604052508101906113019190614548565b90507ffa2dda1cc1b86e41239702756b13effbc1a092b5c57e3ad320fbe4f3b13fe2358660200160208101906113379190613ad3565b87604001602081019061134a9190613ad3565b88806000019061135a91906143c7565b60600135878561136a919061418f565b60405161137a94939291906149ca565b60405180910390a1505b50505061170b565b8073ffffffffffffffffffffffffffffffffffffffff1663095ea7b361010260009054906101000a900473ffffffffffffffffffffffffffffffffffffffff168480600001906113dc91906143c7565b606001356040518363ffffffff1660e01b81526004016113fd929190614a0f565b6020604051808303816000875af115801561141c573d6000803e3d6000fd5b505050506040513d601f19601f820116820180604052508101906114409190614a64565b61147f576040517f08c379a000000000000000000000000000000000000000000000000000000000815260040161147690614add565b60405180910390fd5b61010260009054906101000a900473ffffffffffffffffffffffffffffffffffffffff1673ffffffffffffffffffffffffffffffffffffffff1663c04b8d598380600001906114ce91906143c7565b6040518263ffffffff1660e01b81526004016114ea9190614c79565b6020604051808303816000875af192505050801561152657506040513d601f19601f820116820180604052508101906115239190614548565b60015b6115b3576115326148e8565b806308c379a0036115a2575061154661490a565b8061155157506115a4565b7f48dbf1f65dc9fb918dcf47a87d0d7dbfe9cd78bcfaea409049ee36785201cb918360200160208101906115859190613ad3565b8260405161159492919061499a565b60405180910390a1506115ae565b505b3d6000803e3d6000fd5b611629565b7ffa2dda1cc1b86e41239702756b13effbc1a092b5c57e3ad320fbe4f3b13fe2358360200160208101906115e79190613ad3565b8460400160208101906115fa9190613ad3565b85806000019061160a91906143c7565b606001358460405161161f94939291906149ca565b60405180910390a1505b8073ffffffffffffffffffffffffffffffffffffffff1663095ea7b361010260009054906101000a900473ffffffffffffffffffffffffffffffffffffffff1660006040518363ffffffff1660e01b8152600401611688929190614ce0565b6020604051808303816000875af11580156116a7573d6000803e3d6000fd5b505050506040513d601f19601f820116820180604052508101906116cb9190614a64565b61170a576040517f08c379a000000000000000000000000000000000000000000000000000000000815260040161170190614d55565b60405180910390fd5b5b5050808061171890614223565b915050610cd0565b50505050565b60fe818154811061173657600080fd5b906000526020600020016000915090508054611751906141f2565b80601f016020809104026020016040519081016040528092919081815260200182805461177d906141f2565b80156117ca5780601f1061179f576101008083540402835291602001916117ca565b820191906000526020600020905b8154815290600101906020018083116117ad57829003601f168201915b505050505081565b7ffd37f88a14d7ed985885a1af8f2ad5b64dd7eb00ab89168649791632bb9bb4a681565b60008060ff836040516118099190614da6565b908152602001604051809103902060009054906101000a900473ffffffffffffffffffffffffffffffffffffffff1690508073ffffffffffffffffffffffffffffffffffffffff166370a08231306040518263ffffffff1660e01b81526004016118739190613a8c565b602060405180830381865afa158015611890573d6000803e3d6000fd5b505050506040513d601f19601f820116820180604052508101906118b49190614548565b915050919050565b6118c46129e5565b73ffffffffffffffffffffffffffffffffffffffff168173ffffffffffffffffffffffffffffffffffffffff1614611931576040517f08c379a000000000000000000000000000000000000000000000000000000000815260040161192890614e2f565b60405180910390fd5b61193b8282612b0d565b5050565b60606040518060400160405280600581526020017f322e302e30000000000000000000000000000000000000000000000000000000815250905090565b60ff818051602081018201805184825260208301602085012081835280955050505050506000915054906101000a900473ffffffffffffffffffffffffffffffffffffffff1681565b7fbffb4faf8a508f503a2ca036effd0bc1f82615d3ebfddb934edf718f2367270781565b60008060019054906101000a900460ff16159050808015611a1a5750600160008054906101000a900460ff1660ff16105b80611a475750611a2930612b41565b158015611a465750600160008054906101000a900460ff1660ff16145b5b611a86576040517f08c379a0000000000000000000000000000000000000000000000000000000008152600401611a7d90614ec1565b60405180910390fd5b60016000806101000a81548160ff021916908360ff1602179055508015611ac3576001600060016101000a81548160ff0219169083151502179055505b600073ffffffffffffffffffffffffffffffffffffffff1688600060038110611aef57611aee614160565b5b602002016020810190611b029190613ad3565b73ffffffffffffffffffffffffffffffffffffffff16141580611b785750600073ffffffffffffffffffffffffffffffffffffffff1688600160038110611b4c57611b4b614160565b5b602002016020810190611b5f9190613ad3565b73ffffffffffffffffffffffffffffffffffffffff1614155b80611bd65750600073ffffffffffffffffffffffffffffffffffffffff1688600260038110611baa57611ba9614160565b5b602002016020810190611bbd9190613ad3565b73ffffffffffffffffffffffffffffffffffffffff1614155b611c15576040517f08c379a0000000000000000000000000000000000000000000000000000000008152600401611c0c90614f2d565b60405180910390fd5b600073ffffffffffffffffffffffffffffffffffffffff168773ffffffffffffffffffffffffffffffffffffffff1603611c84576040517f08c379a0000000000000000000000000000000000000000000000000000000008152600401611c7b90614f99565b60405180910390fd5b600073ffffffffffffffffffffffffffffffffffffffff168673ffffffffffffffffffffffffffffffffffffffff1603611cf3576040517f08c379a0000000000000000000000000000000000000000000000000000000008152600401611cea90615005565b60405180910390fd5b600073ffffffffffffffffffffffffffffffffffffffff168573ffffffffffffffffffffffffffffffffffffffff1603611d62576040517f08c379a0000000000000000000000000000000000000000000000000000000008152600401611d5990615071565b60405180910390fd5b600073ffffffffffffffffffffffffffffffffffffffff168473ffffffffffffffffffffffffffffffffffffffff1603611dd1576040517f08c379a0000000000000000000000000000000000000000000000000000000008152600401611dc8906150dd565b60405180910390fd5b600073ffffffffffffffffffffffffffffffffffffffff168373ffffffffffffffffffffffffffffffffffffffff1603611e40576040517f08c379a0000000000000000000000000000000000000000000000000000000008152600401611e3790615149565b60405180910390fd5b600073ffffffffffffffffffffffffffffffffffffffff168273ffffffffffffffffffffffffffffffffffffffff1603611eaf576040517f08c379a0000000000000000000000000000000000000000000000000000000008152600401611ea6906151b5565b60405180910390fd5b611eb7612b64565b611ebf612bb5565b898990508c8c905014611f07576040517f08c379a0000000000000000000000000000000000000000000000000000000008152600401611efe90615247565b60405180910390fd5b60005b8c8c9050811015612032578a8a82818110611f2857611f27614160565b5b9050602002016020810190611f3d9190613ad3565b60ff8e8e84818110611f5257611f51614160565b5b9050602002810190611f649190615267565b604051611f72929190614290565b908152602001604051809103902060006101000a81548173ffffffffffffffffffffffffffffffffffffffff021916908373ffffffffffffffffffffffffffffffffffffffff16021790555060fe8d8d83818110611fd357611fd2614160565b5b9050602002810190611fe59190615267565b9091806001815401808255809150506001900390600052602060002001600090919290919290919290919250918261201e929190615477565b50808061202a90614223565b915050611f0a565b508561010160006101000a81548173ffffffffffffffffffffffffffffffffffffffff021916908373ffffffffffffffffffffffffffffffffffffffff1602179055508661010060006101000a81548173ffffffffffffffffffffffffffffffffffffffff021916908373ffffffffffffffffffffffffffffffffffffffff1602179055508261010260006101000a81548173ffffffffffffffffffffffffffffffffffffffff021916908373ffffffffffffffffffffffffffffffffffffffff16021790555061212d7ffaad79a708d82d095486f5a83b18341f12a8f717d3011ab929d43135c1af73e260fb612c0e90919063ffffffff16565b506121627ffd37f88a14d7ed985885a1af8f2ad5b64dd7eb00ab89168649791632bb9bb4a660fb612c0e90919063ffffffff16565b506121977fbffb4faf8a508f503a2ca036effd0bc1f82615d3ebfddb934edf718f2367270760fb612c0e90919063ffffffff16565b506121cc7fd2761b102bda9831f4af400cc824b8cecb9cc5c1c85c51acb1479db9735fbfc660fb612c0e90919063ffffffff16565b5061221d7ffaad79a708d82d095486f5a83b18341f12a8f717d3011ab929d43135c1af73e28960006003811061220557612204614160565b5b6020020160208101906122189190613ad3565b612a0e565b61226d7ffaad79a708d82d095486f5a83b18341f12a8f717d3011ab929d43135c1af73e28960016003811061225557612254614160565b5b6020020160208101906122689190613ad3565b612a0e565b6122bd7ffaad79a708d82d095486f5a83b18341f12a8f717d3011ab929d43135c1af73e2896002600381106122a5576122a4614160565b5b6020020160208101906122b89190613ad3565b612a0e565b6122e77ffd37f88a14d7ed985885a1af8f2ad5b64dd7eb00ab89168649791632bb9bb4a686612a0e565b6123117ffd37f88a14d7ed985885a1af8f2ad5b64dd7eb00ab89168649791632bb9bb4a685612a0e565b61233b7fbffb4faf8a508f503a2ca036effd0bc1f82615d3ebfddb934edf718f2367270786612a0e565b6123657fbffb4faf8a508f503a2ca036effd0bc1f82615d3ebfddb934edf718f2367270785612a0e565b61238f7fd2761b102bda9831f4af400cc824b8cecb9cc5c1c85c51acb1479db9735fbfc683612a0e565b6123b97ffaad79a708d82d095486f5a83b18341f12a8f717d3011ab929d43135c1af73e280612c25565b6123e37ffd37f88a14d7ed985885a1af8f2ad5b64dd7eb00ab89168649791632bb9bb4a680612c25565b61240d7fbffb4faf8a508f503a2ca036effd0bc1f82615d3ebfddb934edf718f2367270780612c25565b6124577fd2761b102bda9831f4af400cc824b8cecb9cc5c1c85c51acb1479db9735fbfc67ffaad79a708d82d095486f5a83b18341f12a8f717d3011ab929d43135c1af73e2612c25565b7f601edfe63b019dab49ada69a178b64e0c3ff132d08bbdcdf1ebe6d6da15fef0a338d8d8d8d8d8d8d8d8d8d8d60405161249c9c9b9a999897969594939291906157c5565b60405180910390a180156124fd5760008060016101000a81548160ff0219169083151502179055507f7f26b83ff96e1f2b6a682f133852f6798a09c465da95921460cefb384740249860016040516124f491906158bd565b60405180910390a15b505050505050505050505050565b600061251760fb612c81565b905090565b60006125438260976000868152602001908152602001600020612c9690919063ffffffff16565b905092915050565b60006065600084815260200190815260200160002060000160008373ffffffffffffffffffffffffffffffffffffffff1673ffffffffffffffffffffffffffffffffffffffff16815260200190815260200160002060009054906101000a900460ff16905092915050565b6000801b81565b61010160009054906101000a900473ffffffffffffffffffffffffffffffffffffffff1681565b600061260160976000848152602001908152602001600020612cb0565b9050919050565b7ffaad79a708d82d095486f5a83b18341f12a8f717d3011ab929d43135c1af73e2612632816128fc565b600073ffffffffffffffffffffffffffffffffffffffff168273ffffffffffffffffffffffffffffffffffffffff16036126a1576040517f08c379a000000000000000000000000000000000000000000000000000000000815260040161269890615924565b60405180910390fd5b8161010060006101000a81548173ffffffffffffffffffffffffffffffffffffffff021916908373ffffffffffffffffffffffffffffffffffffffff1602179055505050565b6126f082610c45565b6126f9816128fc565b6127038383612b0d565b505050565b7ffd37f88a14d7ed985885a1af8f2ad5b64dd7eb00ab89168649791632bb9bb4a6612732816128fc565b61273a612910565b6127a860ff848460405161274f929190614290565b908152602001604051809103902060009054906101000a900473ffffffffffffffffffffffffffffffffffffffff1661010160009054906101000a900473ffffffffffffffffffffffffffffffffffffffff168661295f565b7f901c03da5d88eb3d62ab4617e7b7d17d86db16356823a7971127d5181a842fef61010160009054906101000a900473ffffffffffffffffffffffffffffffffffffffff168484876040516128009493929190615944565b60405180910390a16128106129ed565b50505050565b7fd2761b102bda9831f4af400cc824b8cecb9cc5c1c85c51acb1479db9735fbfc681565b7ffaad79a708d82d095486f5a83b18341f12a8f717d3011ab929d43135c1af73e281565b7f539440820030c4994db4e31b6b800deafd503688728f932addfe7a410515c14c81565b60007f7965db0b000000000000000000000000000000000000000000000000000000007bffffffffffffffffffffffffffffffffffffffffffffffffffffffff1916827bffffffffffffffffffffffffffffffffffffffffffffffffffffffff191614806128f557506128f482612cc5565b5b9050919050565b61290d816129086129e5565b612d2f565b50565b600260c95403612955576040517f08c379a000000000000000000000000000000000000000000000000000000000815260040161294c906159d0565b60405180910390fd5b600260c981905550565b6129e08363a9059cbb60e01b848460405160240161297e929190614a0f565b604051602081830303815290604052907bffffffffffffffffffffffffffffffffffffffffffffffffffffffff19166020820180517bffffffffffffffffffffffffffffffffffffffffffffffffffffffff8381831617835250505050612db4565b505050565b600033905090565b600160c981905550565b6000612a068360000183612e7c565b905092915050565b612a188282612ea7565b612a3d8160976000858152602001908152602001600020612f8890919063ffffffff16565b505050565b600080600090505b60fe80549050811015612b02578273ffffffffffffffffffffffffffffffffffffffff1660ff60fe8381548110612a8457612a83614160565b5b90600052602060002001604051612a9b9190615a73565b908152602001604051809103902060009054906101000a900473ffffffffffffffffffffffffffffffffffffffff1673ffffffffffffffffffffffffffffffffffffffff1603612aef576001915050612b08565b8080612afa90614223565b915050612a4a565b50600090505b919050565b612b178282612fb8565b612b3c816097600085815260200190815260200160002061309a90919063ffffffff16565b505050565b6000808273ffffffffffffffffffffffffffffffffffffffff163b119050919050565b600060019054906101000a900460ff16612bb3576040517f08c379a0000000000000000000000000000000000000000000000000000000008152600401612baa90615afc565b60405180910390fd5b565b600060019054906101000a900460ff16612c04576040517f08c379a0000000000000000000000000000000000000000000000000000000008152600401612bfb90615afc565b60405180910390fd5b600160c981905550565b6000612c1d83600001836130ca565b905092915050565b6000612c3083610c45565b90508160656000858152602001908152602001600020600101819055508181847fbd79b86ffe0ab8e8776151514217cd7cacd52c909f66475c3af44e129f0b00ff60405160405180910390a4505050565b6000612c8f8260000161313a565b9050919050565b6000612ca58360000183612e7c565b60001c905092915050565b6000612cbe8260000161313a565b9050919050565b60007f01ffc9a7000000000000000000000000000000000000000000000000000000007bffffffffffffffffffffffffffffffffffffffffffffffffffffffff1916827bffffffffffffffffffffffffffffffffffffffffffffffffffffffff1916149050919050565b612d39828261254b565b612db057612d468161314b565b612d548360001c6020613178565b604051602001612d65929190615bb4565b6040516020818303038152906040526040517f08c379a0000000000000000000000000000000000000000000000000000000008152600401612da79190613d1c565b60405180910390fd5b5050565b6000612e16826040518060400160405280602081526020017f5361666545524332303a206c6f772d6c6576656c2063616c6c206661696c65648152508573ffffffffffffffffffffffffffffffffffffffff166133b49092919063ffffffff16565b9050600081511480612e38575080806020019051810190612e379190614a64565b5b612e77576040517f08c379a0000000000000000000000000000000000000000000000000000000008152600401612e6e90615c60565b60405180910390fd5b505050565b6000826000018281548110612e9457612e93614160565b5b9060005260206000200154905092915050565b612eb1828261254b565b612f845760016065600084815260200190815260200160002060000160008373ffffffffffffffffffffffffffffffffffffffff1673ffffffffffffffffffffffffffffffffffffffff16815260200190815260200160002060006101000a81548160ff021916908315150217905550612f296129e5565b73ffffffffffffffffffffffffffffffffffffffff168173ffffffffffffffffffffffffffffffffffffffff16837f2f8788117e7eff1d82e926ec794901d17c78024a50270940304540a733656f0d60405160405180910390a45b5050565b6000612fb0836000018373ffffffffffffffffffffffffffffffffffffffff1660001b6130ca565b905092915050565b612fc2828261254b565b156130965760006065600084815260200190815260200160002060000160008373ffffffffffffffffffffffffffffffffffffffff1673ffffffffffffffffffffffffffffffffffffffff16815260200190815260200160002060006101000a81548160ff02191690831515021790555061303b6129e5565b73ffffffffffffffffffffffffffffffffffffffff168173ffffffffffffffffffffffffffffffffffffffff16837ff6391f5c32d9c69d2a47ea670b442974b53935d1edc7fd64eb21e047a839171b60405160405180910390a45b5050565b60006130c2836000018373ffffffffffffffffffffffffffffffffffffffff1660001b6133cc565b905092915050565b60006130d683836134e0565b61312f578260000182908060018154018082558091505060019003906000526020600020016000909190919091505582600001805490508360010160008481526020019081526020016000208190555060019050613134565b600090505b92915050565b600081600001805490509050919050565b60606131718273ffffffffffffffffffffffffffffffffffffffff16601460ff16613178565b9050919050565b60606000600283600261318b9190615c80565b613195919061412c565b67ffffffffffffffff8111156131ae576131ad613d43565b5b6040519080825280601f01601f1916602001820160405280156131e05781602001600182028036833780820191505090505b5090507f30000000000000000000000000000000000000000000000000000000000000008160008151811061321857613217614160565b5b60200101907effffffffffffffffffffffffffffffffffffffffffffffffffffffffffffff1916908160001a9053507f78000000000000000000000000000000000000000000000000000000000000008160018151811061327c5761327b614160565b5b60200101907effffffffffffffffffffffffffffffffffffffffffffffffffffffffffffff1916908160001a905350600060018460026132bc9190615c80565b6132c6919061412c565b90505b6001811115613366577f3031323334353637383961626364656600000000000000000000000000000000600f86166010811061330857613307614160565b5b1a60f81b82828151811061331f5761331e614160565b5b60200101907effffffffffffffffffffffffffffffffffffffffffffffffffffffffffffff1916908160001a905350600485901c94508061335f90615cc2565b90506132c9565b50600084146133aa576040517f08c379a00000000000000000000000000000000000000000000000000000000081526004016133a190615d37565b60405180910390fd5b8091505092915050565b60606133c38484600085613503565b90509392505050565b600080836001016000848152602001908152602001600020549050600081146134d45760006001826133fe919061418f565b9050600060018660000180549050613416919061418f565b905081811461348557600086600001828154811061343757613436614160565b5b906000526020600020015490508087600001848154811061345b5761345a614160565b5b90600052602060002001819055508387600101600083815260200190815260200160002081905550505b8560000180548061349957613498615d57565b5b6001900381819060005260206000200160009055905585600101600086815260200190815260200160002060009055600193505050506134da565b60009150505b92915050565b600080836001016000848152602001908152602001600020541415905092915050565b606082471015613548576040517f08c379a000000000000000000000000000000000000000000000000000000000815260040161353f90615df8565b60405180910390fd5b6000808673ffffffffffffffffffffffffffffffffffffffff1685876040516135719190615e54565b60006040518083038185875af1925050503d80600081146135ae576040519150601f19603f3d011682016040523d82523d6000602084013e6135b3565b606091505b50915091506135c4878383876135d0565b92505050949350505050565b6060831561363257600083510361362a576135ea85613645565b613629576040517f08c379a000000000000000000000000000000000000000000000000000000000815260040161362090615eb7565b60405180910390fd5b5b82905061363d565b61363c8383613668565b5b949350505050565b6000808273ffffffffffffffffffffffffffffffffffffffff163b119050919050565b60008251111561367b5781518083602001fd5b806040517f08c379a00000000000000000000000000000000000000000000000000000000081526004016136af9190613d1c565b60405180910390fd5b600081905092915050565b7f5745544800000000000000000000000000000000000000000000000000000000600082015250565b60006136f96004836136b8565b9150613704826136c3565b600482019050919050565b600061371a826136ec565b9150819050919050565b600082825260208201905092915050565b7f4e6f742070617961626c65206f6e207468697320636861696e00000000000000600082015250565b600061376b601983613724565b915061377682613735565b602082019050919050565b6000602082019050818103600083015261379a8161375e565b9050919050565b600081519050919050565b600082825260208201905092915050565b6000819050602082019050919050565b6000819050919050565b6137e0816137cd565b82525050565b60006137f283836137d7565b60208301905092915050565b6000602082019050919050565b6000613816826137a1565b61382081856137ac565b935061382b836137bd565b8060005b8381101561385c57815161384388826137e6565b975061384e836137fe565b92505060018101905061382f565b5085935050505092915050565b60006020820190508181036000830152613883818461380b565b905092915050565b6000604051905090565b600080fd5b600080fd5b60007fffffffff0000000000000000000000000000000000000000000000000000000082169050919050565b6138d48161389f565b81146138df57600080fd5b50565b6000813590506138f1816138cb565b92915050565b60006020828403121561390d5761390c613895565b5b600061391b848285016138e2565b91505092915050565b60008115159050919050565b61393981613924565b82525050565b60006020820190506139546000830184613930565b92915050565b613963816137cd565b811461396e57600080fd5b50565b6000813590506139808161395a565b92915050565b600080fd5b600080fd5b600080fd5b60008083601f8401126139ab576139aa613986565b5b8235905067ffffffffffffffff8111156139c8576139c761398b565b5b6020830191508360018202830111156139e4576139e3613990565b5b9250929050565b600080600060408486031215613a0457613a03613895565b5b6000613a1286828701613971565b935050602084013567ffffffffffffffff811115613a3357613a3261389a565b5b613a3f86828701613995565b92509250509250925092565b600073ffffffffffffffffffffffffffffffffffffffff82169050919050565b6000613a7682613a4b565b9050919050565b613a8681613a6b565b82525050565b6000602082019050613aa16000830184613a7d565b92915050565b613ab081613a6b565b8114613abb57600080fd5b50565b600081359050613acd81613aa7565b92915050565b600060208284031215613ae957613ae8613895565b5b6000613af784828501613abe565b91505092915050565b6000819050919050565b613b1381613b00565b8114613b1e57600080fd5b50565b600081359050613b3081613b0a565b92915050565b600060208284031215613b4c57613b4b613895565b5b6000613b5a84828501613b21565b91505092915050565b613b6c81613b00565b82525050565b6000602082019050613b876000830184613b63565b92915050565b600060208284031215613ba357613ba2613895565b5b6000613bb184828501613971565b91505092915050565b60008060408385031215613bd157613bd0613895565b5b6000613bdf85828601613b21565b9250506020613bf085828601613abe565b9150509250929050565b60008083601f840112613c1057613c0f613986565b5b8235905067ffffffffffffffff811115613c2d57613c2c61398b565b5b602083019150836020820283011115613c4957613c48613990565b5b9250929050565b60008060208385031215613c6757613c66613895565b5b600083013567ffffffffffffffff811115613c8557613c8461389a565b5b613c9185828601613bfa565b92509250509250929050565b600081519050919050565b60005b83811015613cc6578082015181840152602081019050613cab565b60008484015250505050565b6000601f19601f8301169050919050565b6000613cee82613c9d565b613cf88185613724565b9350613d08818560208601613ca8565b613d1181613cd2565b840191505092915050565b60006020820190508181036000830152613d368184613ce3565b905092915050565b600080fd5b7f4e487b7100000000000000000000000000000000000000000000000000000000600052604160045260246000fd5b613d7b82613cd2565b810181811067ffffffffffffffff82111715613d9a57613d99613d43565b5b80604052505050565b6000613dad61388b565b9050613db98282613d72565b919050565b600067ffffffffffffffff821115613dd957613dd8613d43565b5b613de282613cd2565b9050602081019050919050565b82818337600083830152505050565b6000613e11613e0c84613dbe565b613da3565b905082815260208101848484011115613e2d57613e2c613d3e565b5b613e38848285613def565b509392505050565b600082601f830112613e5557613e54613986565b5b8135613e65848260208601613dfe565b91505092915050565b600060208284031215613e8457613e83613895565b5b600082013567ffffffffffffffff811115613ea257613ea161389a565b5b613eae84828501613e40565b91505092915050565b613ec0816137cd565b82525050565b6000602082019050613edb6000830184613eb7565b92915050565b60008083601f840112613ef757613ef6613986565b5b8235905067ffffffffffffffff811115613f1457613f1361398b565b5b602083019150836020820283011115613f3057613f2f613990565b5b9250929050565b60008083601f840112613f4d57613f4c613986565b5b8235905067ffffffffffffffff811115613f6a57613f6961398b565b5b602083019150836020820283011115613f8657613f85613990565b5b9250929050565b600081905082602060030282011115613fa957613fa8613990565b5b92915050565b60008060008060008060008060008060006101608c8e031215613fd557613fd4613895565b5b60008c013567ffffffffffffffff811115613ff357613ff261389a565b5b613fff8e828f01613ee1565b9b509b505060208c013567ffffffffffffffff8111156140225761402161389a565b5b61402e8e828f01613f37565b995099505060406140418e828f01613f8d565b97505060a06140528e828f01613abe565b96505060c06140638e828f01613abe565b95505060e06140748e828f01613abe565b9450506101006140868e828f01613abe565b9350506101206140988e828f01613abe565b9250506101406140aa8e828f01613abe565b9150509295989b509295989b9093969950565b600080604083850312156140d4576140d3613895565b5b60006140e285828601613b21565b92505060206140f385828601613971565b9150509250929050565b7f4e487b7100000000000000000000000000000000000000000000000000000000600052601160045260246000fd5b6000614137826137cd565b9150614142836137cd565b925082820190508082111561415a576141596140fd565b5b92915050565b7f4e487b7100000000000000000000000000000000000000000000000000000000600052603260045260246000fd5b600061419a826137cd565b91506141a5836137cd565b92508282039050818111156141bd576141bc6140fd565b5b92915050565b7f4e487b7100000000000000000000000000000000000000000000000000000000600052602260045260246000fd5b6000600282049050600182168061420a57607f821691505b60208210810361421d5761421c6141c3565b5b50919050565b600061422e826137cd565b91507fffffffffffffffffffffffffffffffffffffffffffffffffffffffffffffffff82036142605761425f6140fd565b5b600182019050919050565b600061427783856136b8565b9350614284838584613def565b82840190509392505050565b600061429d82848661426b565b91508190509392505050565b60006142b58385613724565b93506142c2838584613def565b6142cb83613cd2565b840190509392505050565b60006080820190506142eb6000830188613a7d565b81810360208301526142fe8186886142a9565b905061430d6040830185613eb7565b61431a6060830184613a7d565b9695505050505050565b7f5769746864726177304164647200000000000000000000000000000000000000600082015250565b600061435a600d83613724565b915061436582614324565b602082019050919050565b600060208201905081810360008301526143898161434d565b9050919050565b600080fd5b600080fd5b600080fd5b6000823560016060038336030381126143bb576143ba614390565b5b80830191505092915050565b60008235600160a0038336030381126143e3576143e2614390565b5b80830191505092915050565b7f45727220726563697069656e7400000000000000000000000000000000000000600082015250565b6000614425600d83613724565b9150614430826143ef565b602082019050919050565b6000602082019050818103600083015261445481614418565b9050919050565b7f45727220536c6970700000000000000000000000000000000000000000000000600082015250565b6000614491600983613724565b915061449c8261445b565b602082019050919050565b600060208201905081810360008301526144c081614484565b9050919050565b7f45727220546f6b656e4f75740000000000000000000000000000000000000000600082015250565b60006144fd600c83613724565b9150614508826144c7565b602082019050919050565b6000602082019050818103600083015261452c816144f0565b9050919050565b6000815190506145428161395a565b92915050565b60006020828403121561455e5761455d613895565b5b600061456c84828501614533565b91505092915050565b7f45727220416d6f756e74496e0000000000000000000000000000000000000000600082015250565b60006145ab600c83613724565b91506145b682614575565b602082019050919050565b600060208201905081810360008301526145da8161459e565b9050919050565b60007fff0000000000000000000000000000000000000000000000000000000000000082169050919050565b6000819050919050565b614628614623826145e1565b61460d565b82525050565b600061463a8284614617565b60018201915081905092915050565b6000808335600160200384360303811261466657614665614390565b5b80840192508235915067ffffffffffffffff82111561468857614687614395565b5b6020830192506001820236038313156146a4576146a361439a565b5b509250929050565b600082825260208201905092915050565b60006146c983856146ac565b93506146d6838584613def565b6146df83613cd2565b840190509392505050565b600060a0820190506146ff6000830189613a7d565b61470c6020830188613eb7565b6147196040830187613eb7565b818103606083015261472c8185876146bd565b905061473b6080830184613930565b979650505050505050565b600081519050919050565b600061475c82614746565b61476681856146ac565b9350614776818560208601613ca8565b61477f81613cd2565b840191505092915050565b600081519050919050565b600082825260208201905092915050565b6000819050602082019050919050565b600082825260208201905092915050565b60006147d282614746565b6147dc81856147b6565b93506147ec818560208601613ca8565b6147f581613cd2565b840191505092915050565b600061480c83836147c7565b905092915050565b6000602082019050919050565b600061482c8261478a565b6148368185614795565b935083602082028501614848856147a6565b8060005b8581101561488457848403895281516148658582614800565b945061487083614814565b925060208a0199505060018101905061484c565b50829750879550505050505092915050565b600060608201905081810360008301526148b08186614751565b905081810360208301526148c48185614821565b90506148d36040830184613eb7565b949350505050565b60008160e01c9050919050565b600060033d11156149075760046000803e6149046000516148db565b90505b90565b600060443d106149975761491c61388b565b60043d036004823e80513d602482011167ffffffffffffffff82111715614944575050614997565b808201805167ffffffffffffffff8111156149625750505050614997565b80602083010160043d03850181111561497f575050505050614997565b61498e82602001850186613d72565b82955050505050505b90565b60006040820190506149af6000830185613a7d565b81810360208301526149c18184613ce3565b90509392505050565b60006080820190506149df6000830187613a7d565b6149ec6020830186613a7d565b6149f96040830185613eb7565b614a066060830184613eb7565b95945050505050565b6000604082019050614a246000830185613a7d565b614a316020830184613eb7565b9392505050565b614a4181613924565b8114614a4c57600080fd5b50565b600081519050614a5e81614a38565b92915050565b600060208284031215614a7a57614a79613895565b5b6000614a8884828501614a4f565b91505092915050565b7f45727220417070726f76616c0000000000000000000000000000000000000000600082015250565b6000614ac7600c83613724565b9150614ad282614a91565b602082019050919050565b60006020820190508181036000830152614af681614aba565b9050919050565b600080fd5b600080fd5b600080fd5b60008083356001602003843603038112614b2957614b28614b07565b5b83810192508235915060208301925067ffffffffffffffff821115614b5157614b50614afd565b5b600182023603831315614b6757614b66614b02565b5b509250929050565b6000614b7b83856147b6565b9350614b88838584613def565b614b9183613cd2565b840190509392505050565b6000614bab6020840184613abe565b905092915050565b614bbc81613a6b565b82525050565b6000614bd16020840184613971565b905092915050565b600060a08301614bec6000840184614b0c565b8583036000870152614bff838284614b6f565b92505050614c106020840184614b9c565b614c1d6020860182614bb3565b50614c2b6040840184614bc2565b614c3860408601826137d7565b50614c466060840184614bc2565b614c5360608601826137d7565b50614c616080840184614bc2565b614c6e60808601826137d7565b508091505092915050565b60006020820190508181036000830152614c938184614bd9565b905092915050565b6000819050919050565b6000819050919050565b6000614cca614cc5614cc084614c9b565b614ca5565b6137cd565b9050919050565b614cda81614caf565b82525050565b6000604082019050614cf56000830185613a7d565b614d026020830184614cd1565b9392505050565b7f45727220417070726f76616c3000000000000000000000000000000000000000600082015250565b6000614d3f600d83613724565b9150614d4a82614d09565b602082019050919050565b60006020820190508181036000830152614d6e81614d32565b9050919050565b6000614d8082613c9d565b614d8a81856136b8565b9350614d9a818560208601613ca8565b80840191505092915050565b6000614db28284614d75565b915081905092915050565b7f416363657373436f6e74726f6c3a2063616e206f6e6c792072656e6f756e636560008201527f20726f6c657320666f722073656c660000000000000000000000000000000000602082015250565b6000614e19602f83613724565b9150614e2482614dbd565b604082019050919050565b60006020820190508181036000830152614e4881614e0c565b9050919050565b7f496e697469616c697a61626c653a20636f6e747261637420697320616c72656160008201527f647920696e697469616c697a6564000000000000000000000000000000000000602082015250565b6000614eab602e83613724565b9150614eb682614e4f565b604082019050919050565b60006020820190508181036000830152614eda81614e9e565b9050919050565b7f41646d696e416464720000000000000000000000000000000000000000000000600082015250565b6000614f17600983613724565b9150614f2282614ee1565b602082019050919050565b60006020820190508181036000830152614f4681614f0a565b9050919050565b7f5265736375654164647200000000000000000000000000000000000000000000600082015250565b6000614f83600a83613724565b9150614f8e82614f4d565b602082019050919050565b60006020820190508181036000830152614fb281614f76565b9050919050565b7f5769746864726177416464720000000000000000000000000000000000000000600082015250565b6000614fef600c83613724565b9150614ffa82614fb9565b602082019050919050565b6000602082019050818103600083015261501e81614fe2565b9050919050565b7f46697273744c656e6465724c6971416464720000000000000000000000000000600082015250565b600061505b601283613724565b915061506682615025565b602082019050919050565b6000602082019050818103600083015261508a8161504e565b9050919050565b7f5365636f6e644c656e6465724c69714164647200000000000000000000000000600082015250565b60006150c7601383613724565b91506150d282615091565b602082019050919050565b600060208201905081810360008301526150f6816150ba565b9050919050565b7f53776170526f7574657241646472000000000000000000000000000000000000600082015250565b6000615133600e83613724565b915061513e826150fd565b602082019050919050565b6000602082019050818103600083015261516281615126565b9050919050565b7f5377617070657241646472000000000000000000000000000000000000000000600082015250565b600061519f600b83613724565b91506151aa82615169565b602082019050919050565b600060208201905081810360008301526151ce81615192565b9050919050565b7f546f6b656e206e616d6520616e642061646472657373206172726179206c656e60008201527f67746873206d757374206d617463680000000000000000000000000000000000602082015250565b6000615231602f83613724565b915061523c826151d5565b604082019050919050565b6000602082019050818103600083015261526081615224565b9050919050565b6000808335600160200384360303811261528457615283614390565b5b80840192508235915067ffffffffffffffff8211156152a6576152a5614395565b5b6020830192506001820236038313156152c2576152c161439a565b5b509250929050565b600082905092915050565b60008190508160005260206000209050919050565b60006020601f8301049050919050565b600082821b905092915050565b6000600883026153377fffffffffffffffffffffffffffffffffffffffffffffffffffffffffffffffff826152fa565b61534186836152fa565b95508019841693508086168417925050509392505050565b600061537461536f61536a846137cd565b614ca5565b6137cd565b9050919050565b6000819050919050565b61538e83615359565b6153a261539a8261537b565b848454615307565b825550505050565b600090565b6153b76153aa565b6153c2818484615385565b505050565b5b818110156153e6576153db6000826153af565b6001810190506153c8565b5050565b601f82111561542b576153fc816152d5565b615405846152ea565b81016020851015615414578190505b615428615420856152ea565b8301826153c7565b50505b505050565b600082821c905092915050565b600061544e60001984600802615430565b1980831691505092915050565b6000615467838361543d565b9150826002028217905092915050565b61548183836152ca565b67ffffffffffffffff81111561549a57615499613d43565b5b6154a482546141f2565b6154af8282856153ea565b6000601f8311600181146154de57600084156154cc578287013590505b6154d6858261545b565b86555061553e565b601f1984166154ec866152d5565b60005b82811015615514578489013582556001820191506020850194506020810190506154ef565b86831015615531578489013561552d601f89168261543d565b8355505b6001600288020188555050505b50505050505050565b600082825260208201905092915050565b6000819050919050565b600082825260208201905092915050565b600061557f8385615562565b935061558c838584613def565b61559583613cd2565b840190509392505050565b60006155ad848484615573565b90509392505050565b600080833560016020038436030381126155d3576155d2614b07565b5b83810192508235915060208301925067ffffffffffffffff8211156155fb576155fa614afd565b5b60018202360383131561561157615610614b02565b5b509250929050565b6000602082019050919050565b60006156328385615547565b93508360208402850161564484615558565b8060005b8781101561568a57848403895261565f82846155b6565b61566a8682846155a0565b955061567584615619565b935060208b019a505050600181019050615648565b50829750879450505050509392505050565b600082825260208201905092915050565b6000819050919050565b60006156c38383614bb3565b60208301905092915050565b6000602082019050919050565b60006156e8838561569c565b93506156f3826156ad565b8060005b8581101561572c576157098284614b9c565b61571388826156b7565b975061571e836156cf565b9250506001810190506156f7565b5085925050509392505050565b600060039050919050565b600081905092915050565b6000819050919050565b6000602082019050919050565b61576f81615739565b6157798184615744565b92506157848261574f565b8060005b838110156157bd5761579a8284614b9c565b6157a487826156b7565b96506157af83615759565b925050600181019050615788565b505050505050565b6000610180820190506157db600083018f613a7d565b81810360208301526157ee818d8f615626565b90508181036040830152615803818b8d6156dc565b9050615812606083018a615766565b61581f60c0830189613a7d565b61582c60e0830188613a7d565b61583a610100830187613a7d565b615848610120830186613a7d565b615856610140830185613a7d565b615864610160830184613a7d565b9d9c50505050505050505050505050565b6000819050919050565b600060ff82169050919050565b60006158a76158a261589d84615875565b614ca5565b61587f565b9050919050565b6158b78161588c565b82525050565b60006020820190506158d260008301846158ae565b92915050565b7f5265736375653041646472000000000000000000000000000000000000000000600082015250565b600061590e600b83613724565b9150615919826158d8565b602082019050919050565b6000602082019050818103600083015261593d81615901565b9050919050565b60006060820190506159596000830187613a7d565b818103602083015261596c8185876142a9565b905061597b6040830184613eb7565b95945050505050565b7f5265656e7472616e637947756172643a207265656e7472616e742063616c6c00600082015250565b60006159ba601f83613724565b91506159c582615984565b602082019050919050565b600060208201905081810360008301526159e9816159ad565b9050919050565b600081546159fd816141f2565b615a0781866136b8565b94506001821660008114615a225760018114615a3757615a6a565b60ff1983168652811515820286019350615a6a565b615a40856152d5565b60005b83811015615a6257815481890152600182019150602081019050615a43565b838801955050505b50505092915050565b6000615a7f82846159f0565b915081905092915050565b7f496e697469616c697a61626c653a20636f6e7472616374206973206e6f74206960008201527f6e697469616c697a696e67000000000000000000000000000000000000000000602082015250565b6000615ae6602b83613724565b9150615af182615a8a565b604082019050919050565b60006020820190508181036000830152615b1581615ad9565b9050919050565b7f416363657373436f6e74726f6c3a206163636f756e7420000000000000000000600082015250565b6000615b526017836136b8565b9150615b5d82615b1c565b601782019050919050565b7f206973206d697373696e6720726f6c6520000000000000000000000000000000600082015250565b6000615b9e6011836136b8565b9150615ba982615b68565b601182019050919050565b6000615bbf82615b45565b9150615bcb8285614d75565b9150615bd682615b91565b9150615be28284614d75565b91508190509392505050565b7f5361666545524332303a204552433230206f7065726174696f6e20646964206e60008201527f6f74207375636365656400000000000000000000000000000000000000000000602082015250565b6000615c4a602a83613724565b9150615c5582615bee565b604082019050919050565b60006020820190508181036000830152615c7981615c3d565b9050919050565b6000615c8b826137cd565b9150615c96836137cd565b9250828202615ca4816137cd565b91508282048414831517615cbb57615cba6140fd565b5b5092915050565b6000615ccd826137cd565b915060008203615ce057615cdf6140fd565b5b600182039050919050565b7f537472696e67733a20686578206c656e67746820696e73756666696369656e74600082015250565b6000615d21602083613724565b9150615d2c82615ceb565b602082019050919050565b60006020820190508181036000830152615d5081615d14565b9050919050565b7f4e487b7100000000000000000000000000000000000000000000000000000000600052603160045260246000fd5b7f416464726573733a20696e73756666696369656e742062616c616e636520666f60008201527f722063616c6c0000000000000000000000000000000000000000000000000000602082015250565b6000615de2602683613724565b9150615ded82615d86565b604082019050919050565b60006020820190508181036000830152615e1181615dd5565b9050919050565b600081905092915050565b6000615e2e82614746565b615e388185615e18565b9350615e48818560208601613ca8565b80840191505092915050565b6000615e608284615e23565b915081905092915050565b7f416464726573733a2063616c6c20746f206e6f6e2d636f6e7472616374000000600082015250565b6000615ea1601d83613724565b9150615eac82615e6b565b602082019050919050565b60006020820190508181036000830152615ed081615e94565b905091905056fea2646970667358221220a0d148955bbbe99fd3cff72aa25a9108e8cc0fdcad179a6835630d85415483c264736f6c63430008120033",
  "linkReferences": {},
  "deployedLinkReferences": {}
}